{
	"contracts/codeEater/twitter.sol": {
		"twitter": {
			"abi": [
				{
					"inputs": [
						{
							"internalType": "address",
							"name": "",
							"type": "address"
						},
						{
							"internalType": "address",
							"name": "",
							"type": "address"
						}
					],
					"name": "Operators",
					"outputs": [
						{
							"internalType": "bool",
							"name": "",
							"type": "bool"
						}
					],
					"stateMutability": "view",
					"type": "function"
				},
				{
					"inputs": [
						{
							"internalType": "address",
							"name": "Operator",
							"type": "address"
						}
					],
					"name": "allowOper",
					"outputs": [],
					"stateMutability": "nonpayable",
					"type": "function"
				},
				{
					"inputs": [
						{
							"internalType": "address",
							"name": "",
							"type": "address"
						},
						{
							"internalType": "uint256",
							"name": "",
							"type": "uint256"
						}
					],
					"name": "conversation",
					"outputs": [
						{
							"internalType": "uint256",
							"name": "id",
							"type": "uint256"
						},
						{
							"internalType": "address",
							"name": "_from",
							"type": "address"
						},
						{
							"internalType": "address",
							"name": "_to",
							"type": "address"
						},
						{
							"internalType": "string",
							"name": "content",
							"type": "string"
						},
						{
							"internalType": "uint256",
							"name": "createdAt",
							"type": "uint256"
						}
					],
					"stateMutability": "view",
					"type": "function"
				},
				{
					"inputs": [
						{
							"internalType": "address",
							"name": "Operator",
							"type": "address"
						}
					],
					"name": "disAllowOper",
					"outputs": [],
					"stateMutability": "nonpayable",
					"type": "function"
				},
				{
					"inputs": [
						{
							"internalType": "address",
							"name": "followed",
							"type": "address"
						}
					],
					"name": "follow",
					"outputs": [],
					"stateMutability": "nonpayable",
					"type": "function"
				},
				{
					"inputs": [
						{
							"internalType": "address",
							"name": "",
							"type": "address"
						},
						{
							"internalType": "uint256",
							"name": "",
							"type": "uint256"
						}
					],
					"name": "followers",
					"outputs": [
						{
							"internalType": "address",
							"name": "",
							"type": "address"
						}
					],
					"stateMutability": "view",
					"type": "function"
				},
				{
					"inputs": [
						{
							"internalType": "uint256",
							"name": "count",
							"type": "uint256"
						}
					],
					"name": "getLatestTweets",
					"outputs": [],
					"stateMutability": "nonpayable",
					"type": "function"
				},
				{
					"inputs": [
						{
							"internalType": "string",
							"name": "content",
							"type": "string"
						}
					],
					"name": "tweet",
					"outputs": [],
					"stateMutability": "nonpayable",
					"type": "function"
				},
				{
					"inputs": [
						{
							"internalType": "address",
							"name": "_from",
							"type": "address"
						},
						{
							"internalType": "string",
							"name": "content",
							"type": "string"
						}
					],
					"name": "tweetFrom",
					"outputs": [],
					"stateMutability": "nonpayable",
					"type": "function"
				},
				{
					"inputs": [
						{
							"internalType": "uint256",
							"name": "",
							"type": "uint256"
						}
					],
					"name": "tweets",
					"outputs": [
						{
							"internalType": "uint256",
							"name": "id",
							"type": "uint256"
						},
						{
							"internalType": "address",
							"name": "author",
							"type": "address"
						},
						{
							"internalType": "string",
							"name": "content",
							"type": "string"
						},
						{
							"internalType": "uint256",
							"name": "createdAt",
							"type": "uint256"
						}
					],
					"stateMutability": "view",
					"type": "function"
				}
			],
			"devdoc": {
				"kind": "dev",
				"methods": {},
				"version": 1
			},
			"evm": {
				"assembly": "    /* \"contracts/codeEater/twitter.sol\":56:2399  contract twitter{... */\n  mstore(0x40, 0x80)\n  callvalue\n  dup1\n  iszero\n  tag_1\n  jumpi\n  0x00\n  dup1\n  revert\ntag_1:\n  pop\n  dataSize(sub_0)\n  dup1\n  dataOffset(sub_0)\n  0x00\n  codecopy\n  0x00\n  return\nstop\n\nsub_0: assembly {\n        /* \"contracts/codeEater/twitter.sol\":56:2399  contract twitter{... */\n      mstore(0x40, 0x80)\n      callvalue\n      dup1\n      iszero\n      tag_1\n      jumpi\n      0x00\n      dup1\n      revert\n    tag_1:\n      pop\n      jumpi(tag_2, lt(calldatasize, 0x04))\n      shr(0xe0, calldataload(0x00))\n      dup1\n      0xb98ae4ac\n      gt\n      tag_13\n      jumpi\n      dup1\n      0xb98ae4ac\n      eq\n      tag_8\n      jumpi\n      dup1\n      0xc6bc463c\n      eq\n      tag_9\n      jumpi\n      dup1\n      0xe8d857b0\n      eq\n      tag_10\n      jumpi\n      dup1\n      0xebd009d3\n      eq\n      tag_11\n      jumpi\n      dup1\n      0xfb46d4c5\n      eq\n      tag_12\n      jumpi\n      jump(tag_2)\n    tag_13:\n      dup1\n      0x4dbf27cc\n      eq\n      tag_3\n      jumpi\n      dup1\n      0x4dc0a687\n      eq\n      tag_4\n      jumpi\n      dup1\n      0x5dfcaebf\n      eq\n      tag_5\n      jumpi\n      dup1\n      0x8a53bd62\n      eq\n      tag_6\n      jumpi\n      dup1\n      0x94464f8e\n      eq\n      tag_7\n      jumpi\n    tag_2:\n      0x00\n      dup1\n      revert\n        /* \"contracts/codeEater/twitter.sol\":1887:1982  function follow(address followed) external{... */\n    tag_3:\n      tag_14\n      0x04\n      dup1\n      calldatasize\n      sub\n      dup2\n      add\n      swap1\n      tag_15\n      swap2\n      swap1\n      tag_16\n      jump\t// in\n    tag_15:\n      tag_17\n      jump\t// in\n    tag_14:\n      stop\n        /* \"contracts/codeEater/twitter.sol\":2290:2397  function getLatestTweets(uint count) external {... */\n    tag_4:\n      tag_18\n      0x04\n      dup1\n      calldatasize\n      sub\n      dup2\n      add\n      swap1\n      tag_19\n      swap2\n      swap1\n      tag_20\n      jump\t// in\n    tag_19:\n      tag_21\n      jump\t// in\n    tag_18:\n      stop\n        /* \"contracts/codeEater/twitter.sol\":446:495  mapping(address => Message[]) public conversation */\n    tag_5:\n      tag_22\n      0x04\n      dup1\n      calldatasize\n      sub\n      dup2\n      add\n      swap1\n      tag_23\n      swap2\n      swap1\n      tag_24\n      jump\t// in\n    tag_23:\n      tag_25\n      jump\t// in\n    tag_22:\n      mload(0x40)\n      tag_26\n      swap6\n      swap5\n      swap4\n      swap3\n      swap2\n      swap1\n      tag_27\n      jump\t// in\n    tag_26:\n      mload(0x40)\n      dup1\n      swap2\n      sub\n      swap1\n      return\n        /* \"contracts/codeEater/twitter.sol\":2009:2107  function allowOper(address Operator) external{... */\n    tag_6:\n      tag_28\n      0x04\n      dup1\n      calldatasize\n      sub\n      dup2\n      add\n      swap1\n      tag_29\n      swap2\n      swap1\n      tag_16\n      jump\t// in\n    tag_29:\n      tag_30\n      jump\t// in\n    tag_28:\n      stop\n        /* \"contracts/codeEater/twitter.sol\":587:644  mapping(address=>mapping(address=>bool)) public Operators */\n    tag_7:\n      tag_31\n      0x04\n      dup1\n      calldatasize\n      sub\n      dup2\n      add\n      swap1\n      tag_32\n      swap2\n      swap1\n      tag_33\n      jump\t// in\n    tag_32:\n      tag_34\n      jump\t// in\n    tag_31:\n      mload(0x40)\n      tag_35\n      swap2\n      swap1\n      tag_36\n      jump\t// in\n    tag_35:\n      mload(0x40)\n      dup1\n      swap2\n      sub\n      swap1\n      return\n        /* \"contracts/codeEater/twitter.sol\":2138:2240  function disAllowOper(address Operator) external{... */\n    tag_8:\n      tag_37\n      0x04\n      dup1\n      calldatasize\n      sub\n      dup2\n      add\n      swap1\n      tag_38\n      swap2\n      swap1\n      tag_16\n      jump\t// in\n    tag_38:\n      tag_39\n      jump\t// in\n    tag_37:\n      stop\n        /* \"contracts/codeEater/twitter.sol\":1442:1547  function tweetFrom(address _from, string calldata content) external{... */\n    tag_9:\n      tag_40\n      0x04\n      dup1\n      calldatasize\n      sub\n      dup2\n      add\n      swap1\n      tag_41\n      swap2\n      swap1\n      tag_42\n      jump\t// in\n    tag_41:\n      tag_43\n      jump\t// in\n    tag_40:\n      stop\n        /* \"contracts/codeEater/twitter.sol\":346:382  mapping(uint => Tweet) public tweets */\n    tag_10:\n      tag_44\n      0x04\n      dup1\n      calldatasize\n      sub\n      dup2\n      add\n      swap1\n      tag_45\n      swap2\n      swap1\n      tag_20\n      jump\t// in\n    tag_45:\n      tag_46\n      jump\t// in\n    tag_44:\n      mload(0x40)\n      tag_47\n      swap5\n      swap4\n      swap3\n      swap2\n      swap1\n      tag_48\n      jump\t// in\n    tag_47:\n      mload(0x40)\n      dup1\n      swap2\n      sub\n      swap1\n      return\n        /* \"contracts/codeEater/twitter.sol\":519:565  mapping(address => address[]) public followers */\n    tag_11:\n      tag_49\n      0x04\n      dup1\n      calldatasize\n      sub\n      dup2\n      add\n      swap1\n      tag_50\n      swap2\n      swap1\n      tag_24\n      jump\t// in\n    tag_50:\n      tag_51\n      jump\t// in\n    tag_49:\n      mload(0x40)\n      tag_52\n      swap2\n      swap1\n      tag_53\n      jump\t// in\n    tag_52:\n      mload(0x40)\n      dup1\n      swap2\n      sub\n      swap1\n      return\n        /* \"contracts/codeEater/twitter.sol\":1318:1409  function tweet(string calldata content) external{... */\n    tag_12:\n      tag_54\n      0x04\n      dup1\n      calldatasize\n      sub\n      dup2\n      add\n      swap1\n      tag_55\n      swap2\n      swap1\n      tag_56\n      jump\t// in\n    tag_55:\n      tag_57\n      jump\t// in\n    tag_54:\n      stop\n        /* \"contracts/codeEater/twitter.sol\":1887:1982  function follow(address followed) external{... */\n    tag_17:\n        /* \"contracts/codeEater/twitter.sol\":1939:1948  followers */\n      0x03\n        /* \"contracts/codeEater/twitter.sol\":1939:1960  followers[msg.sender] */\n      0x00\n        /* \"contracts/codeEater/twitter.sol\":1949:1959  msg.sender */\n      caller\n        /* \"contracts/codeEater/twitter.sol\":1939:1960  followers[msg.sender] */\n      0xffffffffffffffffffffffffffffffffffffffff\n      and\n      0xffffffffffffffffffffffffffffffffffffffff\n      and\n      dup2\n      mstore\n      0x20\n      add\n      swap1\n      dup2\n      mstore\n      0x20\n      add\n      0x00\n      keccak256\n        /* \"contracts/codeEater/twitter.sol\":1966:1974  followed */\n      dup2\n        /* \"contracts/codeEater/twitter.sol\":1939:1975  followers[msg.sender].push(followed) */\n      swap1\n      dup1\n      0x01\n      dup2\n      sload\n      add\n      dup1\n      dup3\n      sstore\n      dup1\n      swap2\n      pop\n      pop\n      0x01\n      swap1\n      sub\n      swap1\n      0x00\n      mstore\n      keccak256(0x00, 0x20)\n      add\n      0x00\n      swap1\n      swap2\n      swap1\n      swap2\n      swap1\n      swap2\n      0x0100\n      exp\n      dup2\n      sload\n      dup2\n      0xffffffffffffffffffffffffffffffffffffffff\n      mul\n      not\n      and\n      swap1\n      dup4\n      0xffffffffffffffffffffffffffffffffffffffff\n      and\n      mul\n      or\n      swap1\n      sstore\n      pop\n        /* \"contracts/codeEater/twitter.sol\":1887:1982  function follow(address followed) external{... */\n      pop\n      jump\t// out\n        /* \"contracts/codeEater/twitter.sol\":2290:2397  function getLatestTweets(uint count) external {... */\n    tag_21:\n        /* \"contracts/codeEater/twitter.sol\":2346:2368  Tweet[] memory tempArr */\n      0x00\n        /* \"contracts/codeEater/twitter.sol\":2383:2388  count */\n      dup2\n        /* \"contracts/codeEater/twitter.sol\":2371:2389  new Tweet[](count) */\n      0xffffffffffffffff\n      dup2\n      gt\n      iszero\n      tag_61\n      jumpi\n      tag_62\n      tag_63\n      jump\t// in\n    tag_62:\n    tag_61:\n      mload(0x40)\n      swap1\n      dup1\n      dup3\n      mstore\n      dup1\n      0x20\n      mul\n      0x20\n      add\n      dup3\n      add\n      0x40\n      mstore\n      dup1\n      iszero\n      tag_64\n      jumpi\n      dup2\n      0x20\n      add\n    tag_65:\n      tag_66\n      tag_67\n      jump\t// in\n    tag_66:\n      dup2\n      mstore\n      0x20\n      add\n      swap1\n      0x01\n      swap1\n      sub\n      swap1\n      dup2\n      tag_65\n      jumpi\n      swap1\n      pop\n    tag_64:\n      pop\n        /* \"contracts/codeEater/twitter.sol\":2346:2389  Tweet[] memory tempArr = new Tweet[](count) */\n      swap1\n      pop\n        /* \"contracts/codeEater/twitter.sol\":2336:2397  {... */\n      pop\n        /* \"contracts/codeEater/twitter.sol\":2290:2397  function getLatestTweets(uint count) external {... */\n      pop\n      jump\t// out\n        /* \"contracts/codeEater/twitter.sol\":446:495  mapping(address => Message[]) public conversation */\n    tag_25:\n      mstore(0x20, 0x02)\n      dup2\n      0x00\n      mstore\n      keccak256(0x00, 0x40)\n      dup2\n      dup2\n      sload\n      dup2\n      lt\n      tag_68\n      jumpi\n      0x00\n      dup1\n      revert\n    tag_68:\n      swap1\n      0x00\n      mstore\n      keccak256(0x00, 0x20)\n      swap1\n      0x05\n      mul\n      add\n      0x00\n      swap2\n      pop\n      swap2\n      pop\n      pop\n      dup1\n      0x00\n      add\n      sload\n      swap1\n      dup1\n      0x01\n      add\n      0x00\n      swap1\n      sload\n      swap1\n      0x0100\n      exp\n      swap1\n      div\n      0xffffffffffffffffffffffffffffffffffffffff\n      and\n      swap1\n      dup1\n      0x02\n      add\n      0x00\n      swap1\n      sload\n      swap1\n      0x0100\n      exp\n      swap1\n      div\n      0xffffffffffffffffffffffffffffffffffffffff\n      and\n      swap1\n      dup1\n      0x03\n      add\n      dup1\n      sload\n      tag_70\n      swap1\n      tag_71\n      jump\t// in\n    tag_70:\n      dup1\n      0x1f\n      add\n      0x20\n      dup1\n      swap2\n      div\n      mul\n      0x20\n      add\n      mload(0x40)\n      swap1\n      dup2\n      add\n      0x40\n      mstore\n      dup1\n      swap3\n      swap2\n      swap1\n      dup2\n      dup2\n      mstore\n      0x20\n      add\n      dup3\n      dup1\n      sload\n      tag_72\n      swap1\n      tag_71\n      jump\t// in\n    tag_72:\n      dup1\n      iszero\n      tag_73\n      jumpi\n      dup1\n      0x1f\n      lt\n      tag_74\n      jumpi\n      0x0100\n      dup1\n      dup4\n      sload\n      div\n      mul\n      dup4\n      mstore\n      swap2\n      0x20\n      add\n      swap2\n      jump(tag_73)\n    tag_74:\n      dup3\n      add\n      swap2\n      swap1\n      0x00\n      mstore\n      keccak256(0x00, 0x20)\n      swap1\n    tag_75:\n      dup2\n      sload\n      dup2\n      mstore\n      swap1\n      0x01\n      add\n      swap1\n      0x20\n      add\n      dup1\n      dup4\n      gt\n      tag_75\n      jumpi\n      dup3\n      swap1\n      sub\n      0x1f\n      and\n      dup3\n      add\n      swap2\n    tag_73:\n      pop\n      pop\n      pop\n      pop\n      pop\n      swap1\n      dup1\n      0x04\n      add\n      sload\n      swap1\n      pop\n      dup6\n      jump\t// out\n        /* \"contracts/codeEater/twitter.sol\":2009:2107  function allowOper(address Operator) external{... */\n    tag_30:\n        /* \"contracts/codeEater/twitter.sol\":2096:2100  true */\n      0x01\n        /* \"contracts/codeEater/twitter.sol\":2064:2073  Operators */\n      0x04\n        /* \"contracts/codeEater/twitter.sol\":2064:2085  Operators[msg.sender] */\n      0x00\n        /* \"contracts/codeEater/twitter.sol\":2074:2084  msg.sender */\n      caller\n        /* \"contracts/codeEater/twitter.sol\":2064:2085  Operators[msg.sender] */\n      0xffffffffffffffffffffffffffffffffffffffff\n      and\n      0xffffffffffffffffffffffffffffffffffffffff\n      and\n      dup2\n      mstore\n      0x20\n      add\n      swap1\n      dup2\n      mstore\n      0x20\n      add\n      0x00\n      keccak256\n        /* \"contracts/codeEater/twitter.sol\":2064:2095  Operators[msg.sender][Operator] */\n      0x00\n        /* \"contracts/codeEater/twitter.sol\":2086:2094  Operator */\n      dup4\n        /* \"contracts/codeEater/twitter.sol\":2064:2095  Operators[msg.sender][Operator] */\n      0xffffffffffffffffffffffffffffffffffffffff\n      and\n      0xffffffffffffffffffffffffffffffffffffffff\n      and\n      dup2\n      mstore\n      0x20\n      add\n      swap1\n      dup2\n      mstore\n      0x20\n      add\n      0x00\n      keccak256\n      0x00\n        /* \"contracts/codeEater/twitter.sol\":2064:2100  Operators[msg.sender][Operator]=true */\n      0x0100\n      exp\n      dup2\n      sload\n      dup2\n      0xff\n      mul\n      not\n      and\n      swap1\n      dup4\n      iszero\n      iszero\n      mul\n      or\n      swap1\n      sstore\n      pop\n        /* \"contracts/codeEater/twitter.sol\":2009:2107  function allowOper(address Operator) external{... */\n      pop\n      jump\t// out\n        /* \"contracts/codeEater/twitter.sol\":587:644  mapping(address=>mapping(address=>bool)) public Operators */\n    tag_34:\n      mstore(0x20, 0x04)\n      dup2\n      0x00\n      mstore\n      mstore(0x20, keccak256(0x00, 0x40))\n      dup1\n      0x00\n      mstore\n      keccak256(0x00, 0x40)\n      0x00\n      swap2\n      pop\n      swap2\n      pop\n      swap1\n      sload\n      swap1\n      0x0100\n      exp\n      swap1\n      div\n      0xff\n      and\n      dup2\n      jump\t// out\n        /* \"contracts/codeEater/twitter.sol\":2138:2240  function disAllowOper(address Operator) external{... */\n    tag_39:\n        /* \"contracts/codeEater/twitter.sol\":2228:2233  false */\n      0x00\n        /* \"contracts/codeEater/twitter.sol\":2196:2205  Operators */\n      0x04\n        /* \"contracts/codeEater/twitter.sol\":2196:2217  Operators[msg.sender] */\n      0x00\n        /* \"contracts/codeEater/twitter.sol\":2206:2216  msg.sender */\n      caller\n        /* \"contracts/codeEater/twitter.sol\":2196:2217  Operators[msg.sender] */\n      0xffffffffffffffffffffffffffffffffffffffff\n      and\n      0xffffffffffffffffffffffffffffffffffffffff\n      and\n      dup2\n      mstore\n      0x20\n      add\n      swap1\n      dup2\n      mstore\n      0x20\n      add\n      0x00\n      keccak256\n        /* \"contracts/codeEater/twitter.sol\":2196:2227  Operators[msg.sender][Operator] */\n      0x00\n        /* \"contracts/codeEater/twitter.sol\":2218:2226  Operator */\n      dup4\n        /* \"contracts/codeEater/twitter.sol\":2196:2227  Operators[msg.sender][Operator] */\n      0xffffffffffffffffffffffffffffffffffffffff\n      and\n      0xffffffffffffffffffffffffffffffffffffffff\n      and\n      dup2\n      mstore\n      0x20\n      add\n      swap1\n      dup2\n      mstore\n      0x20\n      add\n      0x00\n      keccak256\n      0x00\n        /* \"contracts/codeEater/twitter.sol\":2196:2233  Operators[msg.sender][Operator]=false */\n      0x0100\n      exp\n      dup2\n      sload\n      dup2\n      0xff\n      mul\n      not\n      and\n      swap1\n      dup4\n      iszero\n      iszero\n      mul\n      or\n      swap1\n      sstore\n      pop\n        /* \"contracts/codeEater/twitter.sol\":2138:2240  function disAllowOper(address Operator) external{... */\n      pop\n      jump\t// out\n        /* \"contracts/codeEater/twitter.sol\":1442:1547  function tweetFrom(address _from, string calldata content) external{... */\n    tag_43:\n        /* \"contracts/codeEater/twitter.sol\":1519:1540  tweet(_from, content) */\n      tag_79\n        /* \"contracts/codeEater/twitter.sol\":1525:1530  _from */\n      dup4\n        /* \"contracts/codeEater/twitter.sol\":1532:1539  content */\n      dup4\n      dup4\n        /* \"contracts/codeEater/twitter.sol\":1519:1524  tweet */\n      tag_80\n        /* \"contracts/codeEater/twitter.sol\":1519:1540  tweet(_from, content) */\n      jump\t// in\n    tag_79:\n        /* \"contracts/codeEater/twitter.sol\":1442:1547  function tweetFrom(address _from, string calldata content) external{... */\n      pop\n      pop\n      pop\n      jump\t// out\n        /* \"contracts/codeEater/twitter.sol\":346:382  mapping(uint => Tweet) public tweets */\n    tag_46:\n      mstore(0x20, 0x00)\n      dup1\n      0x00\n      mstore\n      keccak256(0x00, 0x40)\n      0x00\n      swap2\n      pop\n      swap1\n      pop\n      dup1\n      0x00\n      add\n      sload\n      swap1\n      dup1\n      0x01\n      add\n      0x00\n      swap1\n      sload\n      swap1\n      0x0100\n      exp\n      swap1\n      div\n      0xffffffffffffffffffffffffffffffffffffffff\n      and\n      swap1\n      dup1\n      0x02\n      add\n      dup1\n      sload\n      tag_81\n      swap1\n      tag_71\n      jump\t// in\n    tag_81:\n      dup1\n      0x1f\n      add\n      0x20\n      dup1\n      swap2\n      div\n      mul\n      0x20\n      add\n      mload(0x40)\n      swap1\n      dup2\n      add\n      0x40\n      mstore\n      dup1\n      swap3\n      swap2\n      swap1\n      dup2\n      dup2\n      mstore\n      0x20\n      add\n      dup3\n      dup1\n      sload\n      tag_82\n      swap1\n      tag_71\n      jump\t// in\n    tag_82:\n      dup1\n      iszero\n      tag_83\n      jumpi\n      dup1\n      0x1f\n      lt\n      tag_84\n      jumpi\n      0x0100\n      dup1\n      dup4\n      sload\n      div\n      mul\n      dup4\n      mstore\n      swap2\n      0x20\n      add\n      swap2\n      jump(tag_83)\n    tag_84:\n      dup3\n      add\n      swap2\n      swap1\n      0x00\n      mstore\n      keccak256(0x00, 0x20)\n      swap1\n    tag_85:\n      dup2\n      sload\n      dup2\n      mstore\n      swap1\n      0x01\n      add\n      swap1\n      0x20\n      add\n      dup1\n      dup4\n      gt\n      tag_85\n      jumpi\n      dup3\n      swap1\n      sub\n      0x1f\n      and\n      dup3\n      add\n      swap2\n    tag_83:\n      pop\n      pop\n      pop\n      pop\n      pop\n      swap1\n      dup1\n      0x03\n      add\n      sload\n      swap1\n      pop\n      dup5\n      jump\t// out\n        /* \"contracts/codeEater/twitter.sol\":519:565  mapping(address => address[]) public followers */\n    tag_51:\n      mstore(0x20, 0x03)\n      dup2\n      0x00\n      mstore\n      keccak256(0x00, 0x40)\n      dup2\n      dup2\n      sload\n      dup2\n      lt\n      tag_86\n      jumpi\n      0x00\n      dup1\n      revert\n    tag_86:\n      swap1\n      0x00\n      mstore\n      keccak256(0x00, 0x20)\n      add\n      0x00\n      swap2\n      pop\n      swap2\n      pop\n      swap1\n      sload\n      swap1\n      0x0100\n      exp\n      swap1\n      div\n      0xffffffffffffffffffffffffffffffffffffffff\n      and\n      dup2\n      jump\t// out\n        /* \"contracts/codeEater/twitter.sol\":1318:1409  function tweet(string calldata content) external{... */\n    tag_57:\n        /* \"contracts/codeEater/twitter.sol\":1376:1402  tweet(msg.sender, content) */\n      tag_89\n        /* \"contracts/codeEater/twitter.sol\":1382:1392  msg.sender */\n      caller\n        /* \"contracts/codeEater/twitter.sol\":1394:1401  content */\n      dup4\n      dup4\n        /* \"contracts/codeEater/twitter.sol\":1376:1381  tweet */\n      tag_80\n        /* \"contracts/codeEater/twitter.sol\":1376:1402  tweet(msg.sender, content) */\n      jump\t// in\n    tag_89:\n        /* \"contracts/codeEater/twitter.sol\":1318:1409  function tweet(string calldata content) external{... */\n      pop\n      pop\n      jump\t// out\n        /* \"contracts/codeEater/twitter.sol\":669:965  function tweet(address _from, string calldata content)  internal{... */\n    tag_80:\n        /* \"contracts/codeEater/twitter.sol\":758:768  msg.sender */\n      caller\n        /* \"contracts/codeEater/twitter.sol\":751:768  _from==msg.sender */\n      0xffffffffffffffffffffffffffffffffffffffff\n      and\n        /* \"contracts/codeEater/twitter.sol\":751:756  _from */\n      dup4\n        /* \"contracts/codeEater/twitter.sol\":751:768  _from==msg.sender */\n      0xffffffffffffffffffffffffffffffffffffffff\n      and\n      eq\n        /* \"contracts/codeEater/twitter.sol\":751:806  _from==msg.sender || Operators[_from][msg.sender]==true */\n      dup1\n      tag_91\n      jumpi\n      pop\n        /* \"contracts/codeEater/twitter.sol\":802:806  true */\n      0x01\n        /* \"contracts/codeEater/twitter.sol\":772:806  Operators[_from][msg.sender]==true */\n      iszero\n      iszero\n        /* \"contracts/codeEater/twitter.sol\":772:781  Operators */\n      0x04\n        /* \"contracts/codeEater/twitter.sol\":772:788  Operators[_from] */\n      0x00\n        /* \"contracts/codeEater/twitter.sol\":782:787  _from */\n      dup6\n        /* \"contracts/codeEater/twitter.sol\":772:788  Operators[_from] */\n      0xffffffffffffffffffffffffffffffffffffffff\n      and\n      0xffffffffffffffffffffffffffffffffffffffff\n      and\n      dup2\n      mstore\n      0x20\n      add\n      swap1\n      dup2\n      mstore\n      0x20\n      add\n      0x00\n      keccak256\n        /* \"contracts/codeEater/twitter.sol\":772:800  Operators[_from][msg.sender] */\n      0x00\n        /* \"contracts/codeEater/twitter.sol\":789:799  msg.sender */\n      caller\n        /* \"contracts/codeEater/twitter.sol\":772:800  Operators[_from][msg.sender] */\n      0xffffffffffffffffffffffffffffffffffffffff\n      and\n      0xffffffffffffffffffffffffffffffffffffffff\n      and\n      dup2\n      mstore\n      0x20\n      add\n      swap1\n      dup2\n      mstore\n      0x20\n      add\n      0x00\n      keccak256\n      0x00\n      swap1\n      sload\n      swap1\n      0x0100\n      exp\n      swap1\n      div\n      0xff\n      and\n        /* \"contracts/codeEater/twitter.sol\":772:806  Operators[_from][msg.sender]==true */\n      iszero\n      iszero\n      eq\n        /* \"contracts/codeEater/twitter.sol\":751:806  _from==msg.sender || Operators[_from][msg.sender]==true */\n    tag_91:\n        /* \"contracts/codeEater/twitter.sol\":743:829  require(_from==msg.sender || Operators[_from][msg.sender]==true, \"You are Autherized\") */\n      tag_92\n      jumpi\n      mload(0x40)\n      0x08c379a000000000000000000000000000000000000000000000000000000000\n      dup2\n      mstore\n      0x04\n      add\n      tag_93\n      swap1\n      tag_94\n      jump\t// in\n    tag_93:\n      mload(0x40)\n      dup1\n      swap2\n      sub\n      swap1\n      revert\n    tag_92:\n        /* \"contracts/codeEater/twitter.sol\":856:902  Tweet(nextId, _from, content, block.timestamp) */\n      mload(0x40)\n      dup1\n      0x80\n      add\n      0x40\n      mstore\n      dup1\n        /* \"contracts/codeEater/twitter.sol\":862:868  nextId */\n      sload(0x05)\n        /* \"contracts/codeEater/twitter.sol\":856:902  Tweet(nextId, _from, content, block.timestamp) */\n      dup2\n      mstore\n      0x20\n      add\n        /* \"contracts/codeEater/twitter.sol\":870:875  _from */\n      dup5\n        /* \"contracts/codeEater/twitter.sol\":856:902  Tweet(nextId, _from, content, block.timestamp) */\n      0xffffffffffffffffffffffffffffffffffffffff\n      and\n      dup2\n      mstore\n      0x20\n      add\n        /* \"contracts/codeEater/twitter.sol\":877:884  content */\n      dup4\n      dup4\n        /* \"contracts/codeEater/twitter.sol\":856:902  Tweet(nextId, _from, content, block.timestamp) */\n      dup1\n      dup1\n      0x1f\n      add\n      0x20\n      dup1\n      swap2\n      div\n      mul\n      0x20\n      add\n      mload(0x40)\n      swap1\n      dup2\n      add\n      0x40\n      mstore\n      dup1\n      swap4\n      swap3\n      swap2\n      swap1\n      dup2\n      dup2\n      mstore\n      0x20\n      add\n      dup4\n      dup4\n      dup1\n      dup3\n      dup5\n      calldatacopy\n      0x00\n      dup2\n      dup5\n      add\n      mstore\n      not(0x1f)\n      0x1f\n      dup3\n      add\n      and\n      swap1\n      pop\n      dup1\n      dup4\n      add\n      swap3\n      pop\n      pop\n      pop\n      pop\n      pop\n      pop\n      pop\n      dup2\n      mstore\n      0x20\n      add\n        /* \"contracts/codeEater/twitter.sol\":886:901  block.timestamp */\n      timestamp\n        /* \"contracts/codeEater/twitter.sol\":856:902  Tweet(nextId, _from, content, block.timestamp) */\n      dup2\n      mstore\n      pop\n        /* \"contracts/codeEater/twitter.sol\":839:845  tweets */\n      0x00\n        /* \"contracts/codeEater/twitter.sol\":839:853  tweets[nextId] */\n      dup1\n        /* \"contracts/codeEater/twitter.sol\":846:852  nextId */\n      sload(0x05)\n        /* \"contracts/codeEater/twitter.sol\":839:853  tweets[nextId] */\n      dup2\n      mstore\n      0x20\n      add\n      swap1\n      dup2\n      mstore\n      0x20\n      add\n      0x00\n      keccak256\n        /* \"contracts/codeEater/twitter.sol\":839:902  tweets[nextId] = Tweet(nextId, _from, content, block.timestamp) */\n      0x00\n      dup3\n      add\n      mload\n      dup2\n      0x00\n      add\n      sstore\n      0x20\n      dup3\n      add\n      mload\n      dup2\n      0x01\n      add\n      exp(0x0100, 0x00)\n      dup2\n      sload\n      dup2\n      0xffffffffffffffffffffffffffffffffffffffff\n      mul\n      not\n      and\n      swap1\n      dup4\n      0xffffffffffffffffffffffffffffffffffffffff\n      and\n      mul\n      or\n      swap1\n      sstore\n      pop\n      0x40\n      dup3\n      add\n      mload\n      dup2\n      0x02\n      add\n      swap1\n      dup2\n      tag_95\n      swap2\n      swap1\n      tag_96\n      jump\t// in\n    tag_95:\n      pop\n      0x60\n      dup3\n      add\n      mload\n      dup2\n      0x03\n      add\n      sstore\n      swap1\n      pop\n      pop\n        /* \"contracts/codeEater/twitter.sol\":912:920  tweetsOf */\n      0x01\n        /* \"contracts/codeEater/twitter.sol\":912:927  tweetsOf[_from] */\n      0x00\n        /* \"contracts/codeEater/twitter.sol\":921:926  _from */\n      dup5\n        /* \"contracts/codeEater/twitter.sol\":912:927  tweetsOf[_from] */\n      0xffffffffffffffffffffffffffffffffffffffff\n      and\n      0xffffffffffffffffffffffffffffffffffffffff\n      and\n      dup2\n      mstore\n      0x20\n      add\n      swap1\n      dup2\n      mstore\n      0x20\n      add\n      0x00\n      keccak256\n        /* \"contracts/codeEater/twitter.sol\":933:939  nextId */\n      sload(0x05)\n        /* \"contracts/codeEater/twitter.sol\":912:940  tweetsOf[_from].push(nextId) */\n      swap1\n      dup1\n      0x01\n      dup2\n      sload\n      add\n      dup1\n      dup3\n      sstore\n      dup1\n      swap2\n      pop\n      pop\n      0x01\n      swap1\n      sub\n      swap1\n      0x00\n      mstore\n      keccak256(0x00, 0x20)\n      add\n      0x00\n      swap1\n      swap2\n      swap1\n      swap2\n      swap1\n      swap2\n      pop\n      sstore\n        /* \"contracts/codeEater/twitter.sol\":950:956  nextId */\n      0x05\n      0x00\n        /* \"contracts/codeEater/twitter.sol\":950:958  nextId++ */\n      dup2\n      sload\n      dup1\n      swap3\n      swap2\n      swap1\n      tag_98\n      swap1\n      tag_99\n      jump\t// in\n    tag_98:\n      swap2\n      swap1\n      pop\n      sstore\n      pop\n        /* \"contracts/codeEater/twitter.sol\":669:965  function tweet(address _from, string calldata content)  internal{... */\n      pop\n      pop\n      pop\n      jump\t// out\n    tag_67:\n      mload(0x40)\n      dup1\n      0x80\n      add\n      0x40\n      mstore\n      dup1\n      0x00\n      dup2\n      mstore\n      0x20\n      add\n      and(0xffffffffffffffffffffffffffffffffffffffff, 0x00)\n      dup2\n      mstore\n      0x20\n      add\n      0x60\n      dup2\n      mstore\n      0x20\n      add\n      0x00\n      dup2\n      mstore\n      pop\n      swap1\n      jump\t// out\n        /* \"#utility.yul\":88:205   */\n    tag_101:\n        /* \"#utility.yul\":197:198   */\n      0x00\n        /* \"#utility.yul\":194:195   */\n      dup1\n        /* \"#utility.yul\":187:199   */\n      revert\n        /* \"#utility.yul\":211:328   */\n    tag_102:\n        /* \"#utility.yul\":320:321   */\n      0x00\n        /* \"#utility.yul\":317:318   */\n      dup1\n        /* \"#utility.yul\":310:322   */\n      revert\n        /* \"#utility.yul\":334:460   */\n    tag_103:\n        /* \"#utility.yul\":371:378   */\n      0x00\n        /* \"#utility.yul\":411:453   */\n      0xffffffffffffffffffffffffffffffffffffffff\n        /* \"#utility.yul\":404:409   */\n      dup3\n        /* \"#utility.yul\":400:454   */\n      and\n        /* \"#utility.yul\":389:454   */\n      swap1\n      pop\n        /* \"#utility.yul\":334:460   */\n      swap2\n      swap1\n      pop\n      jump\t// out\n        /* \"#utility.yul\":466:562   */\n    tag_104:\n        /* \"#utility.yul\":503:510   */\n      0x00\n        /* \"#utility.yul\":532:556   */\n      tag_148\n        /* \"#utility.yul\":550:555   */\n      dup3\n        /* \"#utility.yul\":532:556   */\n      tag_103\n      jump\t// in\n    tag_148:\n        /* \"#utility.yul\":521:556   */\n      swap1\n      pop\n        /* \"#utility.yul\":466:562   */\n      swap2\n      swap1\n      pop\n      jump\t// out\n        /* \"#utility.yul\":568:690   */\n    tag_105:\n        /* \"#utility.yul\":641:665   */\n      tag_150\n        /* \"#utility.yul\":659:664   */\n      dup2\n        /* \"#utility.yul\":641:665   */\n      tag_104\n      jump\t// in\n    tag_150:\n        /* \"#utility.yul\":634:639   */\n      dup2\n        /* \"#utility.yul\":631:666   */\n      eq\n        /* \"#utility.yul\":621:684   */\n      tag_151\n      jumpi\n        /* \"#utility.yul\":680:681   */\n      0x00\n        /* \"#utility.yul\":677:678   */\n      dup1\n        /* \"#utility.yul\":670:682   */\n      revert\n        /* \"#utility.yul\":621:684   */\n    tag_151:\n        /* \"#utility.yul\":568:690   */\n      pop\n      jump\t// out\n        /* \"#utility.yul\":696:835   */\n    tag_106:\n        /* \"#utility.yul\":742:747   */\n      0x00\n        /* \"#utility.yul\":780:786   */\n      dup2\n        /* \"#utility.yul\":767:787   */\n      calldataload\n        /* \"#utility.yul\":758:787   */\n      swap1\n      pop\n        /* \"#utility.yul\":796:829   */\n      tag_153\n        /* \"#utility.yul\":823:828   */\n      dup2\n        /* \"#utility.yul\":796:829   */\n      tag_105\n      jump\t// in\n    tag_153:\n        /* \"#utility.yul\":696:835   */\n      swap3\n      swap2\n      pop\n      pop\n      jump\t// out\n        /* \"#utility.yul\":841:1170   */\n    tag_16:\n        /* \"#utility.yul\":900:906   */\n      0x00\n        /* \"#utility.yul\":949:951   */\n      0x20\n        /* \"#utility.yul\":937:946   */\n      dup3\n        /* \"#utility.yul\":928:935   */\n      dup5\n        /* \"#utility.yul\":924:947   */\n      sub\n        /* \"#utility.yul\":920:952   */\n      slt\n        /* \"#utility.yul\":917:1036   */\n      iszero\n      tag_155\n      jumpi\n        /* \"#utility.yul\":955:1034   */\n      tag_156\n      tag_101\n      jump\t// in\n    tag_156:\n        /* \"#utility.yul\":917:1036   */\n    tag_155:\n        /* \"#utility.yul\":1075:1076   */\n      0x00\n        /* \"#utility.yul\":1100:1153   */\n      tag_157\n        /* \"#utility.yul\":1145:1152   */\n      dup5\n        /* \"#utility.yul\":1136:1142   */\n      dup3\n        /* \"#utility.yul\":1125:1134   */\n      dup6\n        /* \"#utility.yul\":1121:1143   */\n      add\n        /* \"#utility.yul\":1100:1153   */\n      tag_106\n      jump\t// in\n    tag_157:\n        /* \"#utility.yul\":1090:1153   */\n      swap2\n      pop\n        /* \"#utility.yul\":1046:1163   */\n      pop\n        /* \"#utility.yul\":841:1170   */\n      swap3\n      swap2\n      pop\n      pop\n      jump\t// out\n        /* \"#utility.yul\":1176:1253   */\n    tag_107:\n        /* \"#utility.yul\":1213:1220   */\n      0x00\n        /* \"#utility.yul\":1242:1247   */\n      dup2\n        /* \"#utility.yul\":1231:1247   */\n      swap1\n      pop\n        /* \"#utility.yul\":1176:1253   */\n      swap2\n      swap1\n      pop\n      jump\t// out\n        /* \"#utility.yul\":1259:1381   */\n    tag_108:\n        /* \"#utility.yul\":1332:1356   */\n      tag_160\n        /* \"#utility.yul\":1350:1355   */\n      dup2\n        /* \"#utility.yul\":1332:1356   */\n      tag_107\n      jump\t// in\n    tag_160:\n        /* \"#utility.yul\":1325:1330   */\n      dup2\n        /* \"#utility.yul\":1322:1357   */\n      eq\n        /* \"#utility.yul\":1312:1375   */\n      tag_161\n      jumpi\n        /* \"#utility.yul\":1371:1372   */\n      0x00\n        /* \"#utility.yul\":1368:1369   */\n      dup1\n        /* \"#utility.yul\":1361:1373   */\n      revert\n        /* \"#utility.yul\":1312:1375   */\n    tag_161:\n        /* \"#utility.yul\":1259:1381   */\n      pop\n      jump\t// out\n        /* \"#utility.yul\":1387:1526   */\n    tag_109:\n        /* \"#utility.yul\":1433:1438   */\n      0x00\n        /* \"#utility.yul\":1471:1477   */\n      dup2\n        /* \"#utility.yul\":1458:1478   */\n      calldataload\n        /* \"#utility.yul\":1449:1478   */\n      swap1\n      pop\n        /* \"#utility.yul\":1487:1520   */\n      tag_163\n        /* \"#utility.yul\":1514:1519   */\n      dup2\n        /* \"#utility.yul\":1487:1520   */\n      tag_108\n      jump\t// in\n    tag_163:\n        /* \"#utility.yul\":1387:1526   */\n      swap3\n      swap2\n      pop\n      pop\n      jump\t// out\n        /* \"#utility.yul\":1532:1861   */\n    tag_20:\n        /* \"#utility.yul\":1591:1597   */\n      0x00\n        /* \"#utility.yul\":1640:1642   */\n      0x20\n        /* \"#utility.yul\":1628:1637   */\n      dup3\n        /* \"#utility.yul\":1619:1626   */\n      dup5\n        /* \"#utility.yul\":1615:1638   */\n      sub\n        /* \"#utility.yul\":1611:1643   */\n      slt\n        /* \"#utility.yul\":1608:1727   */\n      iszero\n      tag_165\n      jumpi\n        /* \"#utility.yul\":1646:1725   */\n      tag_166\n      tag_101\n      jump\t// in\n    tag_166:\n        /* \"#utility.yul\":1608:1727   */\n    tag_165:\n        /* \"#utility.yul\":1766:1767   */\n      0x00\n        /* \"#utility.yul\":1791:1844   */\n      tag_167\n        /* \"#utility.yul\":1836:1843   */\n      dup5\n        /* \"#utility.yul\":1827:1833   */\n      dup3\n        /* \"#utility.yul\":1816:1825   */\n      dup6\n        /* \"#utility.yul\":1812:1834   */\n      add\n        /* \"#utility.yul\":1791:1844   */\n      tag_109\n      jump\t// in\n    tag_167:\n        /* \"#utility.yul\":1781:1844   */\n      swap2\n      pop\n        /* \"#utility.yul\":1737:1854   */\n      pop\n        /* \"#utility.yul\":1532:1861   */\n      swap3\n      swap2\n      pop\n      pop\n      jump\t// out\n        /* \"#utility.yul\":1867:2341   */\n    tag_24:\n        /* \"#utility.yul\":1935:1941   */\n      0x00\n        /* \"#utility.yul\":1943:1949   */\n      dup1\n        /* \"#utility.yul\":1992:1994   */\n      0x40\n        /* \"#utility.yul\":1980:1989   */\n      dup4\n        /* \"#utility.yul\":1971:1978   */\n      dup6\n        /* \"#utility.yul\":1967:1990   */\n      sub\n        /* \"#utility.yul\":1963:1995   */\n      slt\n        /* \"#utility.yul\":1960:2079   */\n      iszero\n      tag_169\n      jumpi\n        /* \"#utility.yul\":1998:2077   */\n      tag_170\n      tag_101\n      jump\t// in\n    tag_170:\n        /* \"#utility.yul\":1960:2079   */\n    tag_169:\n        /* \"#utility.yul\":2118:2119   */\n      0x00\n        /* \"#utility.yul\":2143:2196   */\n      tag_171\n        /* \"#utility.yul\":2188:2195   */\n      dup6\n        /* \"#utility.yul\":2179:2185   */\n      dup3\n        /* \"#utility.yul\":2168:2177   */\n      dup7\n        /* \"#utility.yul\":2164:2186   */\n      add\n        /* \"#utility.yul\":2143:2196   */\n      tag_106\n      jump\t// in\n    tag_171:\n        /* \"#utility.yul\":2133:2196   */\n      swap3\n      pop\n        /* \"#utility.yul\":2089:2206   */\n      pop\n        /* \"#utility.yul\":2245:2247   */\n      0x20\n        /* \"#utility.yul\":2271:2324   */\n      tag_172\n        /* \"#utility.yul\":2316:2323   */\n      dup6\n        /* \"#utility.yul\":2307:2313   */\n      dup3\n        /* \"#utility.yul\":2296:2305   */\n      dup7\n        /* \"#utility.yul\":2292:2314   */\n      add\n        /* \"#utility.yul\":2271:2324   */\n      tag_109\n      jump\t// in\n    tag_172:\n        /* \"#utility.yul\":2261:2324   */\n      swap2\n      pop\n        /* \"#utility.yul\":2216:2334   */\n      pop\n        /* \"#utility.yul\":1867:2341   */\n      swap3\n      pop\n      swap3\n      swap1\n      pop\n      jump\t// out\n        /* \"#utility.yul\":2347:2465   */\n    tag_110:\n        /* \"#utility.yul\":2434:2458   */\n      tag_174\n        /* \"#utility.yul\":2452:2457   */\n      dup2\n        /* \"#utility.yul\":2434:2458   */\n      tag_107\n      jump\t// in\n    tag_174:\n        /* \"#utility.yul\":2429:2432   */\n      dup3\n        /* \"#utility.yul\":2422:2459   */\n      mstore\n        /* \"#utility.yul\":2347:2465   */\n      pop\n      pop\n      jump\t// out\n        /* \"#utility.yul\":2471:2589   */\n    tag_111:\n        /* \"#utility.yul\":2558:2582   */\n      tag_176\n        /* \"#utility.yul\":2576:2581   */\n      dup2\n        /* \"#utility.yul\":2558:2582   */\n      tag_104\n      jump\t// in\n    tag_176:\n        /* \"#utility.yul\":2553:2556   */\n      dup3\n        /* \"#utility.yul\":2546:2583   */\n      mstore\n        /* \"#utility.yul\":2471:2589   */\n      pop\n      pop\n      jump\t// out\n        /* \"#utility.yul\":2595:2694   */\n    tag_112:\n        /* \"#utility.yul\":2647:2653   */\n      0x00\n        /* \"#utility.yul\":2681:2686   */\n      dup2\n        /* \"#utility.yul\":2675:2687   */\n      mload\n        /* \"#utility.yul\":2665:2687   */\n      swap1\n      pop\n        /* \"#utility.yul\":2595:2694   */\n      swap2\n      swap1\n      pop\n      jump\t// out\n        /* \"#utility.yul\":2700:2869   */\n    tag_113:\n        /* \"#utility.yul\":2784:2795   */\n      0x00\n        /* \"#utility.yul\":2818:2824   */\n      dup3\n        /* \"#utility.yul\":2813:2816   */\n      dup3\n        /* \"#utility.yul\":2806:2825   */\n      mstore\n        /* \"#utility.yul\":2858:2862   */\n      0x20\n        /* \"#utility.yul\":2853:2856   */\n      dup3\n        /* \"#utility.yul\":2849:2863   */\n      add\n        /* \"#utility.yul\":2834:2863   */\n      swap1\n      pop\n        /* \"#utility.yul\":2700:2869   */\n      swap3\n      swap2\n      pop\n      pop\n      jump\t// out\n        /* \"#utility.yul\":2875:3121   */\n    tag_114:\n        /* \"#utility.yul\":2956:2957   */\n      0x00\n        /* \"#utility.yul\":2966:3079   */\n    tag_180:\n        /* \"#utility.yul\":2980:2986   */\n      dup4\n        /* \"#utility.yul\":2977:2978   */\n      dup2\n        /* \"#utility.yul\":2974:2987   */\n      lt\n        /* \"#utility.yul\":2966:3079   */\n      iszero\n      tag_182\n      jumpi\n        /* \"#utility.yul\":3065:3066   */\n      dup1\n        /* \"#utility.yul\":3060:3063   */\n      dup3\n        /* \"#utility.yul\":3056:3067   */\n      add\n        /* \"#utility.yul\":3050:3068   */\n      mload\n        /* \"#utility.yul\":3046:3047   */\n      dup2\n        /* \"#utility.yul\":3041:3044   */\n      dup5\n        /* \"#utility.yul\":3037:3048   */\n      add\n        /* \"#utility.yul\":3030:3069   */\n      mstore\n        /* \"#utility.yul\":3002:3004   */\n      0x20\n        /* \"#utility.yul\":2999:3000   */\n      dup2\n        /* \"#utility.yul\":2995:3005   */\n      add\n        /* \"#utility.yul\":2990:3005   */\n      swap1\n      pop\n        /* \"#utility.yul\":2966:3079   */\n      jump(tag_180)\n    tag_182:\n        /* \"#utility.yul\":3113:3114   */\n      0x00\n        /* \"#utility.yul\":3104:3110   */\n      dup5\n        /* \"#utility.yul\":3099:3102   */\n      dup5\n        /* \"#utility.yul\":3095:3111   */\n      add\n        /* \"#utility.yul\":3088:3115   */\n      mstore\n        /* \"#utility.yul\":2937:3121   */\n      pop\n        /* \"#utility.yul\":2875:3121   */\n      pop\n      pop\n      pop\n      jump\t// out\n        /* \"#utility.yul\":3127:3229   */\n    tag_115:\n        /* \"#utility.yul\":3168:3174   */\n      0x00\n        /* \"#utility.yul\":3219:3221   */\n      0x1f\n        /* \"#utility.yul\":3215:3222   */\n      not\n        /* \"#utility.yul\":3210:3212   */\n      0x1f\n        /* \"#utility.yul\":3203:3208   */\n      dup4\n        /* \"#utility.yul\":3199:3213   */\n      add\n        /* \"#utility.yul\":3195:3223   */\n      and\n        /* \"#utility.yul\":3185:3223   */\n      swap1\n      pop\n        /* \"#utility.yul\":3127:3229   */\n      swap2\n      swap1\n      pop\n      jump\t// out\n        /* \"#utility.yul\":3235:3612   */\n    tag_116:\n        /* \"#utility.yul\":3323:3326   */\n      0x00\n        /* \"#utility.yul\":3351:3390   */\n      tag_185\n        /* \"#utility.yul\":3384:3389   */\n      dup3\n        /* \"#utility.yul\":3351:3390   */\n      tag_112\n      jump\t// in\n    tag_185:\n        /* \"#utility.yul\":3406:3477   */\n      tag_186\n        /* \"#utility.yul\":3470:3476   */\n      dup2\n        /* \"#utility.yul\":3465:3468   */\n      dup6\n        /* \"#utility.yul\":3406:3477   */\n      tag_113\n      jump\t// in\n    tag_186:\n        /* \"#utility.yul\":3399:3477   */\n      swap4\n      pop\n        /* \"#utility.yul\":3486:3551   */\n      tag_187\n        /* \"#utility.yul\":3544:3550   */\n      dup2\n        /* \"#utility.yul\":3539:3542   */\n      dup6\n        /* \"#utility.yul\":3532:3536   */\n      0x20\n        /* \"#utility.yul\":3525:3530   */\n      dup7\n        /* \"#utility.yul\":3521:3537   */\n      add\n        /* \"#utility.yul\":3486:3551   */\n      tag_114\n      jump\t// in\n    tag_187:\n        /* \"#utility.yul\":3576:3605   */\n      tag_188\n        /* \"#utility.yul\":3598:3604   */\n      dup2\n        /* \"#utility.yul\":3576:3605   */\n      tag_115\n      jump\t// in\n    tag_188:\n        /* \"#utility.yul\":3571:3574   */\n      dup5\n        /* \"#utility.yul\":3567:3606   */\n      add\n        /* \"#utility.yul\":3560:3606   */\n      swap2\n      pop\n        /* \"#utility.yul\":3327:3612   */\n      pop\n        /* \"#utility.yul\":3235:3612   */\n      swap3\n      swap2\n      pop\n      pop\n      jump\t// out\n        /* \"#utility.yul\":3618:4373   */\n    tag_27:\n        /* \"#utility.yul\":3843:3847   */\n      0x00\n        /* \"#utility.yul\":3881:3884   */\n      0xa0\n        /* \"#utility.yul\":3870:3879   */\n      dup3\n        /* \"#utility.yul\":3866:3885   */\n      add\n        /* \"#utility.yul\":3858:3885   */\n      swap1\n      pop\n        /* \"#utility.yul\":3895:3966   */\n      tag_190\n        /* \"#utility.yul\":3963:3964   */\n      0x00\n        /* \"#utility.yul\":3952:3961   */\n      dup4\n        /* \"#utility.yul\":3948:3965   */\n      add\n        /* \"#utility.yul\":3939:3945   */\n      dup9\n        /* \"#utility.yul\":3895:3966   */\n      tag_110\n      jump\t// in\n    tag_190:\n        /* \"#utility.yul\":3976:4048   */\n      tag_191\n        /* \"#utility.yul\":4044:4046   */\n      0x20\n        /* \"#utility.yul\":4033:4042   */\n      dup4\n        /* \"#utility.yul\":4029:4047   */\n      add\n        /* \"#utility.yul\":4020:4026   */\n      dup8\n        /* \"#utility.yul\":3976:4048   */\n      tag_111\n      jump\t// in\n    tag_191:\n        /* \"#utility.yul\":4058:4130   */\n      tag_192\n        /* \"#utility.yul\":4126:4128   */\n      0x40\n        /* \"#utility.yul\":4115:4124   */\n      dup4\n        /* \"#utility.yul\":4111:4129   */\n      add\n        /* \"#utility.yul\":4102:4108   */\n      dup7\n        /* \"#utility.yul\":4058:4130   */\n      tag_111\n      jump\t// in\n    tag_192:\n        /* \"#utility.yul\":4177:4186   */\n      dup2\n        /* \"#utility.yul\":4171:4175   */\n      dup2\n        /* \"#utility.yul\":4167:4187   */\n      sub\n        /* \"#utility.yul\":4162:4164   */\n      0x60\n        /* \"#utility.yul\":4151:4160   */\n      dup4\n        /* \"#utility.yul\":4147:4165   */\n      add\n        /* \"#utility.yul\":4140:4188   */\n      mstore\n        /* \"#utility.yul\":4205:4283   */\n      tag_193\n        /* \"#utility.yul\":4278:4282   */\n      dup2\n        /* \"#utility.yul\":4269:4275   */\n      dup6\n        /* \"#utility.yul\":4205:4283   */\n      tag_116\n      jump\t// in\n    tag_193:\n        /* \"#utility.yul\":4197:4283   */\n      swap1\n      pop\n        /* \"#utility.yul\":4293:4366   */\n      tag_194\n        /* \"#utility.yul\":4361:4364   */\n      0x80\n        /* \"#utility.yul\":4350:4359   */\n      dup4\n        /* \"#utility.yul\":4346:4365   */\n      add\n        /* \"#utility.yul\":4337:4343   */\n      dup5\n        /* \"#utility.yul\":4293:4366   */\n      tag_110\n      jump\t// in\n    tag_194:\n        /* \"#utility.yul\":3618:4373   */\n      swap7\n      swap6\n      pop\n      pop\n      pop\n      pop\n      pop\n      pop\n      jump\t// out\n        /* \"#utility.yul\":4379:4853   */\n    tag_33:\n        /* \"#utility.yul\":4447:4453   */\n      0x00\n        /* \"#utility.yul\":4455:4461   */\n      dup1\n        /* \"#utility.yul\":4504:4506   */\n      0x40\n        /* \"#utility.yul\":4492:4501   */\n      dup4\n        /* \"#utility.yul\":4483:4490   */\n      dup6\n        /* \"#utility.yul\":4479:4502   */\n      sub\n        /* \"#utility.yul\":4475:4507   */\n      slt\n        /* \"#utility.yul\":4472:4591   */\n      iszero\n      tag_196\n      jumpi\n        /* \"#utility.yul\":4510:4589   */\n      tag_197\n      tag_101\n      jump\t// in\n    tag_197:\n        /* \"#utility.yul\":4472:4591   */\n    tag_196:\n        /* \"#utility.yul\":4630:4631   */\n      0x00\n        /* \"#utility.yul\":4655:4708   */\n      tag_198\n        /* \"#utility.yul\":4700:4707   */\n      dup6\n        /* \"#utility.yul\":4691:4697   */\n      dup3\n        /* \"#utility.yul\":4680:4689   */\n      dup7\n        /* \"#utility.yul\":4676:4698   */\n      add\n        /* \"#utility.yul\":4655:4708   */\n      tag_106\n      jump\t// in\n    tag_198:\n        /* \"#utility.yul\":4645:4708   */\n      swap3\n      pop\n        /* \"#utility.yul\":4601:4718   */\n      pop\n        /* \"#utility.yul\":4757:4759   */\n      0x20\n        /* \"#utility.yul\":4783:4836   */\n      tag_199\n        /* \"#utility.yul\":4828:4835   */\n      dup6\n        /* \"#utility.yul\":4819:4825   */\n      dup3\n        /* \"#utility.yul\":4808:4817   */\n      dup7\n        /* \"#utility.yul\":4804:4826   */\n      add\n        /* \"#utility.yul\":4783:4836   */\n      tag_106\n      jump\t// in\n    tag_199:\n        /* \"#utility.yul\":4773:4836   */\n      swap2\n      pop\n        /* \"#utility.yul\":4728:4846   */\n      pop\n        /* \"#utility.yul\":4379:4853   */\n      swap3\n      pop\n      swap3\n      swap1\n      pop\n      jump\t// out\n        /* \"#utility.yul\":4859:4949   */\n    tag_117:\n        /* \"#utility.yul\":4893:4900   */\n      0x00\n        /* \"#utility.yul\":4936:4941   */\n      dup2\n        /* \"#utility.yul\":4929:4942   */\n      iszero\n        /* \"#utility.yul\":4922:4943   */\n      iszero\n        /* \"#utility.yul\":4911:4943   */\n      swap1\n      pop\n        /* \"#utility.yul\":4859:4949   */\n      swap2\n      swap1\n      pop\n      jump\t// out\n        /* \"#utility.yul\":4955:5064   */\n    tag_118:\n        /* \"#utility.yul\":5036:5057   */\n      tag_202\n        /* \"#utility.yul\":5051:5056   */\n      dup2\n        /* \"#utility.yul\":5036:5057   */\n      tag_117\n      jump\t// in\n    tag_202:\n        /* \"#utility.yul\":5031:5034   */\n      dup3\n        /* \"#utility.yul\":5024:5058   */\n      mstore\n        /* \"#utility.yul\":4955:5064   */\n      pop\n      pop\n      jump\t// out\n        /* \"#utility.yul\":5070:5280   */\n    tag_36:\n        /* \"#utility.yul\":5157:5161   */\n      0x00\n        /* \"#utility.yul\":5195:5197   */\n      0x20\n        /* \"#utility.yul\":5184:5193   */\n      dup3\n        /* \"#utility.yul\":5180:5198   */\n      add\n        /* \"#utility.yul\":5172:5198   */\n      swap1\n      pop\n        /* \"#utility.yul\":5208:5273   */\n      tag_204\n        /* \"#utility.yul\":5270:5271   */\n      0x00\n        /* \"#utility.yul\":5259:5268   */\n      dup4\n        /* \"#utility.yul\":5255:5272   */\n      add\n        /* \"#utility.yul\":5246:5252   */\n      dup5\n        /* \"#utility.yul\":5208:5273   */\n      tag_118\n      jump\t// in\n    tag_204:\n        /* \"#utility.yul\":5070:5280   */\n      swap3\n      swap2\n      pop\n      pop\n      jump\t// out\n        /* \"#utility.yul\":5286:5403   */\n    tag_119:\n        /* \"#utility.yul\":5395:5396   */\n      0x00\n        /* \"#utility.yul\":5392:5393   */\n      dup1\n        /* \"#utility.yul\":5385:5397   */\n      revert\n        /* \"#utility.yul\":5409:5526   */\n    tag_120:\n        /* \"#utility.yul\":5518:5519   */\n      0x00\n        /* \"#utility.yul\":5515:5516   */\n      dup1\n        /* \"#utility.yul\":5508:5520   */\n      revert\n        /* \"#utility.yul\":5532:5649   */\n    tag_121:\n        /* \"#utility.yul\":5641:5642   */\n      0x00\n        /* \"#utility.yul\":5638:5639   */\n      dup1\n        /* \"#utility.yul\":5631:5643   */\n      revert\n        /* \"#utility.yul\":5669:6222   */\n    tag_122:\n        /* \"#utility.yul\":5727:5735   */\n      0x00\n        /* \"#utility.yul\":5737:5743   */\n      dup1\n        /* \"#utility.yul\":5787:5790   */\n      dup4\n        /* \"#utility.yul\":5780:5784   */\n      0x1f\n        /* \"#utility.yul\":5772:5778   */\n      dup5\n        /* \"#utility.yul\":5768:5785   */\n      add\n        /* \"#utility.yul\":5764:5791   */\n      slt\n        /* \"#utility.yul\":5754:5876   */\n      tag_209\n      jumpi\n        /* \"#utility.yul\":5795:5874   */\n      tag_210\n      tag_119\n      jump\t// in\n    tag_210:\n        /* \"#utility.yul\":5754:5876   */\n    tag_209:\n        /* \"#utility.yul\":5908:5914   */\n      dup3\n        /* \"#utility.yul\":5895:5915   */\n      calldataload\n        /* \"#utility.yul\":5885:5915   */\n      swap1\n      pop\n        /* \"#utility.yul\":5938:5956   */\n      0xffffffffffffffff\n        /* \"#utility.yul\":5930:5936   */\n      dup2\n        /* \"#utility.yul\":5927:5957   */\n      gt\n        /* \"#utility.yul\":5924:6041   */\n      iszero\n      tag_211\n      jumpi\n        /* \"#utility.yul\":5960:6039   */\n      tag_212\n      tag_120\n      jump\t// in\n    tag_212:\n        /* \"#utility.yul\":5924:6041   */\n    tag_211:\n        /* \"#utility.yul\":6074:6078   */\n      0x20\n        /* \"#utility.yul\":6066:6072   */\n      dup4\n        /* \"#utility.yul\":6062:6079   */\n      add\n        /* \"#utility.yul\":6050:6079   */\n      swap2\n      pop\n        /* \"#utility.yul\":6128:6131   */\n      dup4\n        /* \"#utility.yul\":6120:6124   */\n      0x01\n        /* \"#utility.yul\":6112:6118   */\n      dup3\n        /* \"#utility.yul\":6108:6125   */\n      mul\n        /* \"#utility.yul\":6098:6106   */\n      dup4\n        /* \"#utility.yul\":6094:6126   */\n      add\n        /* \"#utility.yul\":6091:6132   */\n      gt\n        /* \"#utility.yul\":6088:6216   */\n      iszero\n      tag_213\n      jumpi\n        /* \"#utility.yul\":6135:6214   */\n      tag_214\n      tag_121\n      jump\t// in\n    tag_214:\n        /* \"#utility.yul\":6088:6216   */\n    tag_213:\n        /* \"#utility.yul\":5669:6222   */\n      swap3\n      pop\n      swap3\n      swap1\n      pop\n      jump\t// out\n        /* \"#utility.yul\":6228:6902   */\n    tag_42:\n        /* \"#utility.yul\":6308:6314   */\n      0x00\n        /* \"#utility.yul\":6316:6322   */\n      dup1\n        /* \"#utility.yul\":6324:6330   */\n      0x00\n        /* \"#utility.yul\":6373:6375   */\n      0x40\n        /* \"#utility.yul\":6361:6370   */\n      dup5\n        /* \"#utility.yul\":6352:6359   */\n      dup7\n        /* \"#utility.yul\":6348:6371   */\n      sub\n        /* \"#utility.yul\":6344:6376   */\n      slt\n        /* \"#utility.yul\":6341:6460   */\n      iszero\n      tag_216\n      jumpi\n        /* \"#utility.yul\":6379:6458   */\n      tag_217\n      tag_101\n      jump\t// in\n    tag_217:\n        /* \"#utility.yul\":6341:6460   */\n    tag_216:\n        /* \"#utility.yul\":6499:6500   */\n      0x00\n        /* \"#utility.yul\":6524:6577   */\n      tag_218\n        /* \"#utility.yul\":6569:6576   */\n      dup7\n        /* \"#utility.yul\":6560:6566   */\n      dup3\n        /* \"#utility.yul\":6549:6558   */\n      dup8\n        /* \"#utility.yul\":6545:6567   */\n      add\n        /* \"#utility.yul\":6524:6577   */\n      tag_106\n      jump\t// in\n    tag_218:\n        /* \"#utility.yul\":6514:6577   */\n      swap4\n      pop\n        /* \"#utility.yul\":6470:6587   */\n      pop\n        /* \"#utility.yul\":6654:6656   */\n      0x20\n        /* \"#utility.yul\":6643:6652   */\n      dup5\n        /* \"#utility.yul\":6639:6657   */\n      add\n        /* \"#utility.yul\":6626:6658   */\n      calldataload\n        /* \"#utility.yul\":6685:6703   */\n      0xffffffffffffffff\n        /* \"#utility.yul\":6677:6683   */\n      dup2\n        /* \"#utility.yul\":6674:6704   */\n      gt\n        /* \"#utility.yul\":6671:6788   */\n      iszero\n      tag_219\n      jumpi\n        /* \"#utility.yul\":6707:6786   */\n      tag_220\n      tag_102\n      jump\t// in\n    tag_220:\n        /* \"#utility.yul\":6671:6788   */\n    tag_219:\n        /* \"#utility.yul\":6820:6885   */\n      tag_221\n        /* \"#utility.yul\":6877:6884   */\n      dup7\n        /* \"#utility.yul\":6868:6874   */\n      dup3\n        /* \"#utility.yul\":6857:6866   */\n      dup8\n        /* \"#utility.yul\":6853:6875   */\n      add\n        /* \"#utility.yul\":6820:6885   */\n      tag_122\n      jump\t// in\n    tag_221:\n        /* \"#utility.yul\":6802:6885   */\n      swap3\n      pop\n      swap3\n      pop\n        /* \"#utility.yul\":6597:6895   */\n      pop\n        /* \"#utility.yul\":6228:6902   */\n      swap3\n      pop\n      swap3\n      pop\n      swap3\n      jump\t// out\n        /* \"#utility.yul\":6908:7552   */\n    tag_48:\n        /* \"#utility.yul\":7105:7109   */\n      0x00\n        /* \"#utility.yul\":7143:7146   */\n      0x80\n        /* \"#utility.yul\":7132:7141   */\n      dup3\n        /* \"#utility.yul\":7128:7147   */\n      add\n        /* \"#utility.yul\":7120:7147   */\n      swap1\n      pop\n        /* \"#utility.yul\":7157:7228   */\n      tag_223\n        /* \"#utility.yul\":7225:7226   */\n      0x00\n        /* \"#utility.yul\":7214:7223   */\n      dup4\n        /* \"#utility.yul\":7210:7227   */\n      add\n        /* \"#utility.yul\":7201:7207   */\n      dup8\n        /* \"#utility.yul\":7157:7228   */\n      tag_110\n      jump\t// in\n    tag_223:\n        /* \"#utility.yul\":7238:7310   */\n      tag_224\n        /* \"#utility.yul\":7306:7308   */\n      0x20\n        /* \"#utility.yul\":7295:7304   */\n      dup4\n        /* \"#utility.yul\":7291:7309   */\n      add\n        /* \"#utility.yul\":7282:7288   */\n      dup7\n        /* \"#utility.yul\":7238:7310   */\n      tag_111\n      jump\t// in\n    tag_224:\n        /* \"#utility.yul\":7357:7366   */\n      dup2\n        /* \"#utility.yul\":7351:7355   */\n      dup2\n        /* \"#utility.yul\":7347:7367   */\n      sub\n        /* \"#utility.yul\":7342:7344   */\n      0x40\n        /* \"#utility.yul\":7331:7340   */\n      dup4\n        /* \"#utility.yul\":7327:7345   */\n      add\n        /* \"#utility.yul\":7320:7368   */\n      mstore\n        /* \"#utility.yul\":7385:7463   */\n      tag_225\n        /* \"#utility.yul\":7458:7462   */\n      dup2\n        /* \"#utility.yul\":7449:7455   */\n      dup6\n        /* \"#utility.yul\":7385:7463   */\n      tag_116\n      jump\t// in\n    tag_225:\n        /* \"#utility.yul\":7377:7463   */\n      swap1\n      pop\n        /* \"#utility.yul\":7473:7545   */\n      tag_226\n        /* \"#utility.yul\":7541:7543   */\n      0x60\n        /* \"#utility.yul\":7530:7539   */\n      dup4\n        /* \"#utility.yul\":7526:7544   */\n      add\n        /* \"#utility.yul\":7517:7523   */\n      dup5\n        /* \"#utility.yul\":7473:7545   */\n      tag_110\n      jump\t// in\n    tag_226:\n        /* \"#utility.yul\":6908:7552   */\n      swap6\n      swap5\n      pop\n      pop\n      pop\n      pop\n      pop\n      jump\t// out\n        /* \"#utility.yul\":7558:7780   */\n    tag_53:\n        /* \"#utility.yul\":7651:7655   */\n      0x00\n        /* \"#utility.yul\":7689:7691   */\n      0x20\n        /* \"#utility.yul\":7678:7687   */\n      dup3\n        /* \"#utility.yul\":7674:7692   */\n      add\n        /* \"#utility.yul\":7666:7692   */\n      swap1\n      pop\n        /* \"#utility.yul\":7702:7773   */\n      tag_228\n        /* \"#utility.yul\":7770:7771   */\n      0x00\n        /* \"#utility.yul\":7759:7768   */\n      dup4\n        /* \"#utility.yul\":7755:7772   */\n      add\n        /* \"#utility.yul\":7746:7752   */\n      dup5\n        /* \"#utility.yul\":7702:7773   */\n      tag_111\n      jump\t// in\n    tag_228:\n        /* \"#utility.yul\":7558:7780   */\n      swap3\n      swap2\n      pop\n      pop\n      jump\t// out\n        /* \"#utility.yul\":7786:8315   */\n    tag_56:\n        /* \"#utility.yul\":7857:7863   */\n      0x00\n        /* \"#utility.yul\":7865:7871   */\n      dup1\n        /* \"#utility.yul\":7914:7916   */\n      0x20\n        /* \"#utility.yul\":7902:7911   */\n      dup4\n        /* \"#utility.yul\":7893:7900   */\n      dup6\n        /* \"#utility.yul\":7889:7912   */\n      sub\n        /* \"#utility.yul\":7885:7917   */\n      slt\n        /* \"#utility.yul\":7882:8001   */\n      iszero\n      tag_230\n      jumpi\n        /* \"#utility.yul\":7920:7999   */\n      tag_231\n      tag_101\n      jump\t// in\n    tag_231:\n        /* \"#utility.yul\":7882:8001   */\n    tag_230:\n        /* \"#utility.yul\":8068:8069   */\n      0x00\n        /* \"#utility.yul\":8057:8066   */\n      dup4\n        /* \"#utility.yul\":8053:8070   */\n      add\n        /* \"#utility.yul\":8040:8071   */\n      calldataload\n        /* \"#utility.yul\":8098:8116   */\n      0xffffffffffffffff\n        /* \"#utility.yul\":8090:8096   */\n      dup2\n        /* \"#utility.yul\":8087:8117   */\n      gt\n        /* \"#utility.yul\":8084:8201   */\n      iszero\n      tag_232\n      jumpi\n        /* \"#utility.yul\":8120:8199   */\n      tag_233\n      tag_102\n      jump\t// in\n    tag_233:\n        /* \"#utility.yul\":8084:8201   */\n    tag_232:\n        /* \"#utility.yul\":8233:8298   */\n      tag_234\n        /* \"#utility.yul\":8290:8297   */\n      dup6\n        /* \"#utility.yul\":8281:8287   */\n      dup3\n        /* \"#utility.yul\":8270:8279   */\n      dup7\n        /* \"#utility.yul\":8266:8288   */\n      add\n        /* \"#utility.yul\":8233:8298   */\n      tag_122\n      jump\t// in\n    tag_234:\n        /* \"#utility.yul\":8215:8298   */\n      swap3\n      pop\n      swap3\n      pop\n        /* \"#utility.yul\":8011:8308   */\n      pop\n        /* \"#utility.yul\":7786:8315   */\n      swap3\n      pop\n      swap3\n      swap1\n      pop\n      jump\t// out\n        /* \"#utility.yul\":8321:8501   */\n    tag_63:\n        /* \"#utility.yul\":8369:8446   */\n      0x4e487b7100000000000000000000000000000000000000000000000000000000\n        /* \"#utility.yul\":8366:8367   */\n      0x00\n        /* \"#utility.yul\":8359:8447   */\n      mstore\n        /* \"#utility.yul\":8466:8470   */\n      0x41\n        /* \"#utility.yul\":8463:8464   */\n      0x04\n        /* \"#utility.yul\":8456:8471   */\n      mstore\n        /* \"#utility.yul\":8490:8494   */\n      0x24\n        /* \"#utility.yul\":8487:8488   */\n      0x00\n        /* \"#utility.yul\":8480:8495   */\n      revert\n        /* \"#utility.yul\":8507:8687   */\n    tag_123:\n        /* \"#utility.yul\":8555:8632   */\n      0x4e487b7100000000000000000000000000000000000000000000000000000000\n        /* \"#utility.yul\":8552:8553   */\n      0x00\n        /* \"#utility.yul\":8545:8633   */\n      mstore\n        /* \"#utility.yul\":8652:8656   */\n      0x22\n        /* \"#utility.yul\":8649:8650   */\n      0x04\n        /* \"#utility.yul\":8642:8657   */\n      mstore\n        /* \"#utility.yul\":8676:8680   */\n      0x24\n        /* \"#utility.yul\":8673:8674   */\n      0x00\n        /* \"#utility.yul\":8666:8681   */\n      revert\n        /* \"#utility.yul\":8693:9013   */\n    tag_71:\n        /* \"#utility.yul\":8737:8743   */\n      0x00\n        /* \"#utility.yul\":8774:8775   */\n      0x02\n        /* \"#utility.yul\":8768:8772   */\n      dup3\n        /* \"#utility.yul\":8764:8776   */\n      div\n        /* \"#utility.yul\":8754:8776   */\n      swap1\n      pop\n        /* \"#utility.yul\":8821:8822   */\n      0x01\n        /* \"#utility.yul\":8815:8819   */\n      dup3\n        /* \"#utility.yul\":8811:8823   */\n      and\n        /* \"#utility.yul\":8842:8860   */\n      dup1\n        /* \"#utility.yul\":8832:8913   */\n      tag_238\n      jumpi\n        /* \"#utility.yul\":8898:8902   */\n      0x7f\n        /* \"#utility.yul\":8890:8896   */\n      dup3\n        /* \"#utility.yul\":8886:8903   */\n      and\n        /* \"#utility.yul\":8876:8903   */\n      swap2\n      pop\n        /* \"#utility.yul\":8832:8913   */\n    tag_238:\n        /* \"#utility.yul\":8960:8962   */\n      0x20\n        /* \"#utility.yul\":8952:8958   */\n      dup3\n        /* \"#utility.yul\":8949:8963   */\n      lt\n        /* \"#utility.yul\":8929:8947   */\n      dup2\n        /* \"#utility.yul\":8926:8964   */\n      sub\n        /* \"#utility.yul\":8923:9007   */\n      tag_239\n      jumpi\n        /* \"#utility.yul\":8979:8997   */\n      tag_240\n      tag_123\n      jump\t// in\n    tag_240:\n        /* \"#utility.yul\":8923:9007   */\n    tag_239:\n        /* \"#utility.yul\":8744:9013   */\n      pop\n        /* \"#utility.yul\":8693:9013   */\n      swap2\n      swap1\n      pop\n      jump\t// out\n        /* \"#utility.yul\":9019:9187   */\n    tag_124:\n        /* \"#utility.yul\":9159:9179   */\n      0x596f752061726520417574686572697a65640000000000000000000000000000\n        /* \"#utility.yul\":9155:9156   */\n      0x00\n        /* \"#utility.yul\":9147:9153   */\n      dup3\n        /* \"#utility.yul\":9143:9157   */\n      add\n        /* \"#utility.yul\":9136:9180   */\n      mstore\n        /* \"#utility.yul\":9019:9187   */\n      pop\n      jump\t// out\n        /* \"#utility.yul\":9193:9559   */\n    tag_125:\n        /* \"#utility.yul\":9335:9338   */\n      0x00\n        /* \"#utility.yul\":9356:9423   */\n      tag_243\n        /* \"#utility.yul\":9420:9422   */\n      0x12\n        /* \"#utility.yul\":9415:9418   */\n      dup4\n        /* \"#utility.yul\":9356:9423   */\n      tag_113\n      jump\t// in\n    tag_243:\n        /* \"#utility.yul\":9349:9423   */\n      swap2\n      pop\n        /* \"#utility.yul\":9432:9525   */\n      tag_244\n        /* \"#utility.yul\":9521:9524   */\n      dup3\n        /* \"#utility.yul\":9432:9525   */\n      tag_124\n      jump\t// in\n    tag_244:\n        /* \"#utility.yul\":9550:9552   */\n      0x20\n        /* \"#utility.yul\":9545:9548   */\n      dup3\n        /* \"#utility.yul\":9541:9553   */\n      add\n        /* \"#utility.yul\":9534:9553   */\n      swap1\n      pop\n        /* \"#utility.yul\":9193:9559   */\n      swap2\n      swap1\n      pop\n      jump\t// out\n        /* \"#utility.yul\":9565:9984   */\n    tag_94:\n        /* \"#utility.yul\":9731:9735   */\n      0x00\n        /* \"#utility.yul\":9769:9771   */\n      0x20\n        /* \"#utility.yul\":9758:9767   */\n      dup3\n        /* \"#utility.yul\":9754:9772   */\n      add\n        /* \"#utility.yul\":9746:9772   */\n      swap1\n      pop\n        /* \"#utility.yul\":9818:9827   */\n      dup2\n        /* \"#utility.yul\":9812:9816   */\n      dup2\n        /* \"#utility.yul\":9808:9828   */\n      sub\n        /* \"#utility.yul\":9804:9805   */\n      0x00\n        /* \"#utility.yul\":9793:9802   */\n      dup4\n        /* \"#utility.yul\":9789:9806   */\n      add\n        /* \"#utility.yul\":9782:9829   */\n      mstore\n        /* \"#utility.yul\":9846:9977   */\n      tag_246\n        /* \"#utility.yul\":9972:9976   */\n      dup2\n        /* \"#utility.yul\":9846:9977   */\n      tag_125\n      jump\t// in\n    tag_246:\n        /* \"#utility.yul\":9838:9977   */\n      swap1\n      pop\n        /* \"#utility.yul\":9565:9984   */\n      swap2\n      swap1\n      pop\n      jump\t// out\n        /* \"#utility.yul\":9990:10131   */\n    tag_126:\n        /* \"#utility.yul\":10039:10043   */\n      0x00\n        /* \"#utility.yul\":10062:10065   */\n      dup2\n        /* \"#utility.yul\":10054:10065   */\n      swap1\n      pop\n        /* \"#utility.yul\":10085:10088   */\n      dup2\n        /* \"#utility.yul\":10082:10083   */\n      0x00\n        /* \"#utility.yul\":10075:10089   */\n      mstore\n        /* \"#utility.yul\":10119:10123   */\n      0x20\n        /* \"#utility.yul\":10116:10117   */\n      0x00\n        /* \"#utility.yul\":10106:10124   */\n      keccak256\n        /* \"#utility.yul\":10098:10124   */\n      swap1\n      pop\n        /* \"#utility.yul\":9990:10131   */\n      swap2\n      swap1\n      pop\n      jump\t// out\n        /* \"#utility.yul\":10137:10230   */\n    tag_127:\n        /* \"#utility.yul\":10174:10180   */\n      0x00\n        /* \"#utility.yul\":10221:10223   */\n      0x20\n        /* \"#utility.yul\":10216:10218   */\n      0x1f\n        /* \"#utility.yul\":10209:10214   */\n      dup4\n        /* \"#utility.yul\":10205:10219   */\n      add\n        /* \"#utility.yul\":10201:10224   */\n      div\n        /* \"#utility.yul\":10191:10224   */\n      swap1\n      pop\n        /* \"#utility.yul\":10137:10230   */\n      swap2\n      swap1\n      pop\n      jump\t// out\n        /* \"#utility.yul\":10236:10343   */\n    tag_128:\n        /* \"#utility.yul\":10280:10288   */\n      0x00\n        /* \"#utility.yul\":10330:10335   */\n      dup3\n        /* \"#utility.yul\":10324:10328   */\n      dup3\n        /* \"#utility.yul\":10320:10336   */\n      shl\n        /* \"#utility.yul\":10299:10336   */\n      swap1\n      pop\n        /* \"#utility.yul\":10236:10343   */\n      swap3\n      swap2\n      pop\n      pop\n      jump\t// out\n        /* \"#utility.yul\":10349:10742   */\n    tag_129:\n        /* \"#utility.yul\":10418:10424   */\n      0x00\n        /* \"#utility.yul\":10468:10469   */\n      0x08\n        /* \"#utility.yul\":10456:10466   */\n      dup4\n        /* \"#utility.yul\":10452:10470   */\n      mul\n        /* \"#utility.yul\":10491:10588   */\n      tag_251\n        /* \"#utility.yul\":10521:10587   */\n      0xffffffffffffffffffffffffffffffffffffffffffffffffffffffffffffffff\n        /* \"#utility.yul\":10510:10519   */\n      dup3\n        /* \"#utility.yul\":10491:10588   */\n      tag_128\n      jump\t// in\n    tag_251:\n        /* \"#utility.yul\":10609:10648   */\n      tag_252\n        /* \"#utility.yul\":10639:10647   */\n      dup7\n        /* \"#utility.yul\":10628:10637   */\n      dup4\n        /* \"#utility.yul\":10609:10648   */\n      tag_128\n      jump\t// in\n    tag_252:\n        /* \"#utility.yul\":10597:10648   */\n      swap6\n      pop\n        /* \"#utility.yul\":10681:10685   */\n      dup1\n        /* \"#utility.yul\":10677:10686   */\n      not\n        /* \"#utility.yul\":10670:10675   */\n      dup5\n        /* \"#utility.yul\":10666:10687   */\n      and\n        /* \"#utility.yul\":10657:10687   */\n      swap4\n      pop\n        /* \"#utility.yul\":10730:10734   */\n      dup1\n        /* \"#utility.yul\":10720:10728   */\n      dup7\n        /* \"#utility.yul\":10716:10735   */\n      and\n        /* \"#utility.yul\":10709:10714   */\n      dup5\n        /* \"#utility.yul\":10706:10736   */\n      or\n        /* \"#utility.yul\":10696:10736   */\n      swap3\n      pop\n        /* \"#utility.yul\":10425:10742   */\n      pop\n      pop\n        /* \"#utility.yul\":10349:10742   */\n      swap4\n      swap3\n      pop\n      pop\n      pop\n      jump\t// out\n        /* \"#utility.yul\":10748:10808   */\n    tag_130:\n        /* \"#utility.yul\":10776:10779   */\n      0x00\n        /* \"#utility.yul\":10797:10802   */\n      dup2\n        /* \"#utility.yul\":10790:10802   */\n      swap1\n      pop\n        /* \"#utility.yul\":10748:10808   */\n      swap2\n      swap1\n      pop\n      jump\t// out\n        /* \"#utility.yul\":10814:10956   */\n    tag_131:\n        /* \"#utility.yul\":10864:10873   */\n      0x00\n        /* \"#utility.yul\":10897:10950   */\n      tag_255\n        /* \"#utility.yul\":10915:10949   */\n      tag_256\n        /* \"#utility.yul\":10924:10948   */\n      tag_257\n        /* \"#utility.yul\":10942:10947   */\n      dup5\n        /* \"#utility.yul\":10924:10948   */\n      tag_107\n      jump\t// in\n    tag_257:\n        /* \"#utility.yul\":10915:10949   */\n      tag_130\n      jump\t// in\n    tag_256:\n        /* \"#utility.yul\":10897:10950   */\n      tag_107\n      jump\t// in\n    tag_255:\n        /* \"#utility.yul\":10884:10950   */\n      swap1\n      pop\n        /* \"#utility.yul\":10814:10956   */\n      swap2\n      swap1\n      pop\n      jump\t// out\n        /* \"#utility.yul\":10962:11037   */\n    tag_132:\n        /* \"#utility.yul\":11005:11008   */\n      0x00\n        /* \"#utility.yul\":11026:11031   */\n      dup2\n        /* \"#utility.yul\":11019:11031   */\n      swap1\n      pop\n        /* \"#utility.yul\":10962:11037   */\n      swap2\n      swap1\n      pop\n      jump\t// out\n        /* \"#utility.yul\":11043:11312   */\n    tag_133:\n        /* \"#utility.yul\":11153:11192   */\n      tag_260\n        /* \"#utility.yul\":11184:11191   */\n      dup4\n        /* \"#utility.yul\":11153:11192   */\n      tag_131\n      jump\t// in\n    tag_260:\n        /* \"#utility.yul\":11214:11305   */\n      tag_261\n        /* \"#utility.yul\":11263:11304   */\n      tag_262\n        /* \"#utility.yul\":11287:11303   */\n      dup3\n        /* \"#utility.yul\":11263:11304   */\n      tag_132\n      jump\t// in\n    tag_262:\n        /* \"#utility.yul\":11255:11261   */\n      dup5\n        /* \"#utility.yul\":11248:11252   */\n      dup5\n        /* \"#utility.yul\":11242:11253   */\n      sload\n        /* \"#utility.yul\":11214:11305   */\n      tag_129\n      jump\t// in\n    tag_261:\n        /* \"#utility.yul\":11208:11212   */\n      dup3\n        /* \"#utility.yul\":11201:11306   */\n      sstore\n        /* \"#utility.yul\":11119:11312   */\n      pop\n        /* \"#utility.yul\":11043:11312   */\n      pop\n      pop\n      pop\n      jump\t// out\n        /* \"#utility.yul\":11318:11391   */\n    tag_134:\n        /* \"#utility.yul\":11363:11366   */\n      0x00\n        /* \"#utility.yul\":11318:11391   */\n      swap1\n      jump\t// out\n        /* \"#utility.yul\":11397:11586   */\n    tag_135:\n        /* \"#utility.yul\":11474:11506   */\n      tag_265\n      tag_134\n      jump\t// in\n    tag_265:\n        /* \"#utility.yul\":11515:11580   */\n      tag_266\n        /* \"#utility.yul\":11573:11579   */\n      dup2\n        /* \"#utility.yul\":11565:11571   */\n      dup5\n        /* \"#utility.yul\":11559:11563   */\n      dup5\n        /* \"#utility.yul\":11515:11580   */\n      tag_133\n      jump\t// in\n    tag_266:\n        /* \"#utility.yul\":11450:11586   */\n      pop\n        /* \"#utility.yul\":11397:11586   */\n      pop\n      pop\n      jump\t// out\n        /* \"#utility.yul\":11592:11778   */\n    tag_136:\n        /* \"#utility.yul\":11652:11772   */\n    tag_268:\n        /* \"#utility.yul\":11669:11672   */\n      dup2\n        /* \"#utility.yul\":11662:11667   */\n      dup2\n        /* \"#utility.yul\":11659:11673   */\n      lt\n        /* \"#utility.yul\":11652:11772   */\n      iszero\n      tag_270\n      jumpi\n        /* \"#utility.yul\":11723:11762   */\n      tag_271\n        /* \"#utility.yul\":11760:11761   */\n      0x00\n        /* \"#utility.yul\":11753:11758   */\n      dup3\n        /* \"#utility.yul\":11723:11762   */\n      tag_135\n      jump\t// in\n    tag_271:\n        /* \"#utility.yul\":11696:11697   */\n      0x01\n        /* \"#utility.yul\":11689:11694   */\n      dup2\n        /* \"#utility.yul\":11685:11698   */\n      add\n        /* \"#utility.yul\":11676:11698   */\n      swap1\n      pop\n        /* \"#utility.yul\":11652:11772   */\n      jump(tag_268)\n    tag_270:\n        /* \"#utility.yul\":11592:11778   */\n      pop\n      pop\n      jump\t// out\n        /* \"#utility.yul\":11784:12327   */\n    tag_137:\n        /* \"#utility.yul\":11885:11887   */\n      0x1f\n        /* \"#utility.yul\":11880:11883   */\n      dup3\n        /* \"#utility.yul\":11877:11888   */\n      gt\n        /* \"#utility.yul\":11874:12320   */\n      iszero\n      tag_273\n      jumpi\n        /* \"#utility.yul\":11919:11957   */\n      tag_274\n        /* \"#utility.yul\":11951:11956   */\n      dup2\n        /* \"#utility.yul\":11919:11957   */\n      tag_126\n      jump\t// in\n    tag_274:\n        /* \"#utility.yul\":12003:12032   */\n      tag_275\n        /* \"#utility.yul\":12021:12031   */\n      dup5\n        /* \"#utility.yul\":12003:12032   */\n      tag_127\n      jump\t// in\n    tag_275:\n        /* \"#utility.yul\":11993:12001   */\n      dup2\n        /* \"#utility.yul\":11989:12033   */\n      add\n        /* \"#utility.yul\":12186:12188   */\n      0x20\n        /* \"#utility.yul\":12174:12184   */\n      dup6\n        /* \"#utility.yul\":12171:12189   */\n      lt\n        /* \"#utility.yul\":12168:12217   */\n      iszero\n      tag_276\n      jumpi\n        /* \"#utility.yul\":12207:12215   */\n      dup2\n        /* \"#utility.yul\":12192:12215   */\n      swap1\n      pop\n        /* \"#utility.yul\":12168:12217   */\n    tag_276:\n        /* \"#utility.yul\":12230:12310   */\n      tag_277\n        /* \"#utility.yul\":12286:12308   */\n      tag_278\n        /* \"#utility.yul\":12304:12307   */\n      dup6\n        /* \"#utility.yul\":12286:12308   */\n      tag_127\n      jump\t// in\n    tag_278:\n        /* \"#utility.yul\":12276:12284   */\n      dup4\n        /* \"#utility.yul\":12272:12309   */\n      add\n        /* \"#utility.yul\":12259:12270   */\n      dup3\n        /* \"#utility.yul\":12230:12310   */\n      tag_136\n      jump\t// in\n    tag_277:\n        /* \"#utility.yul\":11889:12320   */\n      pop\n      pop\n        /* \"#utility.yul\":11874:12320   */\n    tag_273:\n        /* \"#utility.yul\":11784:12327   */\n      pop\n      pop\n      pop\n      jump\t// out\n        /* \"#utility.yul\":12333:12450   */\n    tag_138:\n        /* \"#utility.yul\":12387:12395   */\n      0x00\n        /* \"#utility.yul\":12437:12442   */\n      dup3\n        /* \"#utility.yul\":12431:12435   */\n      dup3\n        /* \"#utility.yul\":12427:12443   */\n      shr\n        /* \"#utility.yul\":12406:12443   */\n      swap1\n      pop\n        /* \"#utility.yul\":12333:12450   */\n      swap3\n      swap2\n      pop\n      pop\n      jump\t// out\n        /* \"#utility.yul\":12456:12625   */\n    tag_139:\n        /* \"#utility.yul\":12500:12506   */\n      0x00\n        /* \"#utility.yul\":12533:12584   */\n      tag_281\n        /* \"#utility.yul\":12581:12582   */\n      0x00\n        /* \"#utility.yul\":12577:12583   */\n      not\n        /* \"#utility.yul\":12569:12574   */\n      dup5\n        /* \"#utility.yul\":12566:12567   */\n      0x08\n        /* \"#utility.yul\":12562:12575   */\n      mul\n        /* \"#utility.yul\":12533:12584   */\n      tag_138\n      jump\t// in\n    tag_281:\n        /* \"#utility.yul\":12529:12585   */\n      not\n        /* \"#utility.yul\":12614:12618   */\n      dup1\n        /* \"#utility.yul\":12608:12612   */\n      dup4\n        /* \"#utility.yul\":12604:12619   */\n      and\n        /* \"#utility.yul\":12594:12619   */\n      swap2\n      pop\n        /* \"#utility.yul\":12507:12625   */\n      pop\n        /* \"#utility.yul\":12456:12625   */\n      swap3\n      swap2\n      pop\n      pop\n      jump\t// out\n        /* \"#utility.yul\":12630:12925   */\n    tag_140:\n        /* \"#utility.yul\":12706:12710   */\n      0x00\n        /* \"#utility.yul\":12852:12881   */\n      tag_283\n        /* \"#utility.yul\":12877:12880   */\n      dup4\n        /* \"#utility.yul\":12871:12875   */\n      dup4\n        /* \"#utility.yul\":12852:12881   */\n      tag_139\n      jump\t// in\n    tag_283:\n        /* \"#utility.yul\":12844:12881   */\n      swap2\n      pop\n        /* \"#utility.yul\":12914:12917   */\n      dup3\n        /* \"#utility.yul\":12911:12912   */\n      0x02\n        /* \"#utility.yul\":12907:12918   */\n      mul\n        /* \"#utility.yul\":12901:12905   */\n      dup3\n        /* \"#utility.yul\":12898:12919   */\n      or\n        /* \"#utility.yul\":12890:12919   */\n      swap1\n      pop\n        /* \"#utility.yul\":12630:12925   */\n      swap3\n      swap2\n      pop\n      pop\n      jump\t// out\n        /* \"#utility.yul\":12930:14325   */\n    tag_96:\n        /* \"#utility.yul\":13047:13084   */\n      tag_285\n        /* \"#utility.yul\":13080:13083   */\n      dup3\n        /* \"#utility.yul\":13047:13084   */\n      tag_112\n      jump\t// in\n    tag_285:\n        /* \"#utility.yul\":13149:13167   */\n      0xffffffffffffffff\n        /* \"#utility.yul\":13141:13147   */\n      dup2\n        /* \"#utility.yul\":13138:13168   */\n      gt\n        /* \"#utility.yul\":13135:13191   */\n      iszero\n      tag_286\n      jumpi\n        /* \"#utility.yul\":13171:13189   */\n      tag_287\n      tag_63\n      jump\t// in\n    tag_287:\n        /* \"#utility.yul\":13135:13191   */\n    tag_286:\n        /* \"#utility.yul\":13215:13253   */\n      tag_288\n        /* \"#utility.yul\":13247:13251   */\n      dup3\n        /* \"#utility.yul\":13241:13252   */\n      sload\n        /* \"#utility.yul\":13215:13253   */\n      tag_71\n      jump\t// in\n    tag_288:\n        /* \"#utility.yul\":13300:13367   */\n      tag_289\n        /* \"#utility.yul\":13360:13366   */\n      dup3\n        /* \"#utility.yul\":13352:13358   */\n      dup3\n        /* \"#utility.yul\":13346:13350   */\n      dup6\n        /* \"#utility.yul\":13300:13367   */\n      tag_137\n      jump\t// in\n    tag_289:\n        /* \"#utility.yul\":13394:13395   */\n      0x00\n        /* \"#utility.yul\":13418:13422   */\n      0x20\n        /* \"#utility.yul\":13405:13422   */\n      swap1\n      pop\n        /* \"#utility.yul\":13450:13452   */\n      0x1f\n        /* \"#utility.yul\":13442:13448   */\n      dup4\n        /* \"#utility.yul\":13439:13453   */\n      gt\n        /* \"#utility.yul\":13467:13468   */\n      0x01\n        /* \"#utility.yul\":13462:14080   */\n      dup2\n      eq\n      tag_291\n      jumpi\n        /* \"#utility.yul\":14124:14125   */\n      0x00\n        /* \"#utility.yul\":14141:14147   */\n      dup5\n        /* \"#utility.yul\":14138:14215   */\n      iszero\n      tag_292\n      jumpi\n        /* \"#utility.yul\":14190:14199   */\n      dup3\n        /* \"#utility.yul\":14185:14188   */\n      dup8\n        /* \"#utility.yul\":14181:14200   */\n      add\n        /* \"#utility.yul\":14175:14201   */\n      mload\n        /* \"#utility.yul\":14166:14201   */\n      swap1\n      pop\n        /* \"#utility.yul\":14138:14215   */\n    tag_292:\n        /* \"#utility.yul\":14241:14308   */\n      tag_293\n        /* \"#utility.yul\":14301:14307   */\n      dup6\n        /* \"#utility.yul\":14294:14299   */\n      dup3\n        /* \"#utility.yul\":14241:14308   */\n      tag_140\n      jump\t// in\n    tag_293:\n        /* \"#utility.yul\":14235:14239   */\n      dup7\n        /* \"#utility.yul\":14228:14309   */\n      sstore\n        /* \"#utility.yul\":14097:14319   */\n      pop\n        /* \"#utility.yul\":13432:14319   */\n      jump(tag_290)\n        /* \"#utility.yul\":13462:14080   */\n    tag_291:\n        /* \"#utility.yul\":13514:13518   */\n      0x1f\n        /* \"#utility.yul\":13510:13519   */\n      not\n        /* \"#utility.yul\":13502:13508   */\n      dup5\n        /* \"#utility.yul\":13498:13520   */\n      and\n        /* \"#utility.yul\":13548:13585   */\n      tag_294\n        /* \"#utility.yul\":13580:13584   */\n      dup7\n        /* \"#utility.yul\":13548:13585   */\n      tag_126\n      jump\t// in\n    tag_294:\n        /* \"#utility.yul\":13607:13608   */\n      0x00\n        /* \"#utility.yul\":13621:13829   */\n    tag_295:\n        /* \"#utility.yul\":13635:13642   */\n      dup3\n        /* \"#utility.yul\":13632:13633   */\n      dup2\n        /* \"#utility.yul\":13629:13643   */\n      lt\n        /* \"#utility.yul\":13621:13829   */\n      iszero\n      tag_297\n      jumpi\n        /* \"#utility.yul\":13714:13723   */\n      dup5\n        /* \"#utility.yul\":13709:13712   */\n      dup10\n        /* \"#utility.yul\":13705:13724   */\n      add\n        /* \"#utility.yul\":13699:13725   */\n      mload\n        /* \"#utility.yul\":13691:13697   */\n      dup3\n        /* \"#utility.yul\":13684:13726   */\n      sstore\n        /* \"#utility.yul\":13765:13766   */\n      0x01\n        /* \"#utility.yul\":13757:13763   */\n      dup3\n        /* \"#utility.yul\":13753:13767   */\n      add\n        /* \"#utility.yul\":13743:13767   */\n      swap2\n      pop\n        /* \"#utility.yul\":13812:13814   */\n      0x20\n        /* \"#utility.yul\":13801:13810   */\n      dup6\n        /* \"#utility.yul\":13797:13815   */\n      add\n        /* \"#utility.yul\":13784:13815   */\n      swap5\n      pop\n        /* \"#utility.yul\":13658:13662   */\n      0x20\n        /* \"#utility.yul\":13655:13656   */\n      dup2\n        /* \"#utility.yul\":13651:13663   */\n      add\n        /* \"#utility.yul\":13646:13663   */\n      swap1\n      pop\n        /* \"#utility.yul\":13621:13829   */\n      jump(tag_295)\n    tag_297:\n        /* \"#utility.yul\":13857:13863   */\n      dup7\n        /* \"#utility.yul\":13848:13855   */\n      dup4\n        /* \"#utility.yul\":13845:13864   */\n      lt\n        /* \"#utility.yul\":13842:14021   */\n      iszero\n      tag_298\n      jumpi\n        /* \"#utility.yul\":13915:13924   */\n      dup5\n        /* \"#utility.yul\":13910:13913   */\n      dup10\n        /* \"#utility.yul\":13906:13925   */\n      add\n        /* \"#utility.yul\":13900:13926   */\n      mload\n        /* \"#utility.yul\":13958:14006   */\n      tag_299\n        /* \"#utility.yul\":14000:14004   */\n      0x1f\n        /* \"#utility.yul\":13992:13998   */\n      dup10\n        /* \"#utility.yul\":13988:14005   */\n      and\n        /* \"#utility.yul\":13977:13986   */\n      dup3\n        /* \"#utility.yul\":13958:14006   */\n      tag_139\n      jump\t// in\n    tag_299:\n        /* \"#utility.yul\":13950:13956   */\n      dup4\n        /* \"#utility.yul\":13943:14007   */\n      sstore\n        /* \"#utility.yul\":13865:14021   */\n      pop\n        /* \"#utility.yul\":13842:14021   */\n    tag_298:\n        /* \"#utility.yul\":14067:14068   */\n      0x01\n        /* \"#utility.yul\":14063:14064   */\n      0x02\n        /* \"#utility.yul\":14055:14061   */\n      dup9\n        /* \"#utility.yul\":14051:14065   */\n      mul\n        /* \"#utility.yul\":14047:14069   */\n      add\n        /* \"#utility.yul\":14041:14045   */\n      dup9\n        /* \"#utility.yul\":14034:14070   */\n      sstore\n        /* \"#utility.yul\":13469:14080   */\n      pop\n      pop\n      pop\n        /* \"#utility.yul\":13432:14319   */\n    tag_290:\n      pop\n        /* \"#utility.yul\":13022:14325   */\n      pop\n      pop\n      pop\n        /* \"#utility.yul\":12930:14325   */\n      pop\n      pop\n      jump\t// out\n        /* \"#utility.yul\":14331:14511   */\n    tag_141:\n        /* \"#utility.yul\":14379:14456   */\n      0x4e487b7100000000000000000000000000000000000000000000000000000000\n        /* \"#utility.yul\":14376:14377   */\n      0x00\n        /* \"#utility.yul\":14369:14457   */\n      mstore\n        /* \"#utility.yul\":14476:14480   */\n      0x11\n        /* \"#utility.yul\":14473:14474   */\n      0x04\n        /* \"#utility.yul\":14466:14481   */\n      mstore\n        /* \"#utility.yul\":14500:14504   */\n      0x24\n        /* \"#utility.yul\":14497:14498   */\n      0x00\n        /* \"#utility.yul\":14490:14505   */\n      revert\n        /* \"#utility.yul\":14517:14750   */\n    tag_99:\n        /* \"#utility.yul\":14556:14559   */\n      0x00\n        /* \"#utility.yul\":14579:14603   */\n      tag_302\n        /* \"#utility.yul\":14597:14602   */\n      dup3\n        /* \"#utility.yul\":14579:14603   */\n      tag_107\n      jump\t// in\n    tag_302:\n        /* \"#utility.yul\":14570:14603   */\n      swap2\n      pop\n        /* \"#utility.yul\":14625:14691   */\n      0xffffffffffffffffffffffffffffffffffffffffffffffffffffffffffffffff\n        /* \"#utility.yul\":14618:14623   */\n      dup3\n        /* \"#utility.yul\":14615:14692   */\n      sub\n        /* \"#utility.yul\":14612:14715   */\n      tag_303\n      jumpi\n        /* \"#utility.yul\":14695:14713   */\n      tag_304\n      tag_141\n      jump\t// in\n    tag_304:\n        /* \"#utility.yul\":14612:14715   */\n    tag_303:\n        /* \"#utility.yul\":14742:14743   */\n      0x01\n        /* \"#utility.yul\":14735:14740   */\n      dup3\n        /* \"#utility.yul\":14731:14744   */\n      add\n        /* \"#utility.yul\":14724:14744   */\n      swap1\n      pop\n        /* \"#utility.yul\":14517:14750   */\n      swap2\n      swap1\n      pop\n      jump\t// out\n\n    auxdata: 0xa264697066735822122087317545b6f91afdfc4fe28879beab10e27884b74e4552018875f044d8e8cc9364736f6c63430008110033\n}\n",
				"bytecode": {
					"linkReferences": {},
					"object": "608060405234801561001057600080fd5b506111f3806100206000396000f3fe608060405234801561001057600080fd5b506004361061009e5760003560e01c8063b98ae4ac11610066578063b98ae4ac1461015b578063c6bc463c14610177578063e8d857b014610193578063ebd009d3146101c6578063fb46d4c5146101f65761009e565b80634dbf27cc146100a35780634dc0a687146100bf5780635dfcaebf146100db5780638a53bd621461010f57806394464f8e1461012b575b600080fd5b6100bd60048036038101906100b89190610a06565b610212565b005b6100d960048036038101906100d49190610a69565b6102b5565b005b6100f560048036038101906100f09190610a96565b610311565b604051610106959493929190610b84565b60405180910390f35b61012960048036038101906101249190610a06565b61042c565b005b61014560048036038101906101409190610bde565b6104c4565b6040516101529190610c39565b60405180910390f35b61017560048036038101906101709190610a06565b6104f3565b005b610191600480360381019061018c9190610cb9565b61058b565b005b6101ad60048036038101906101a89190610a69565b61059b565b6040516101bd9493929190610d19565b60405180910390f35b6101e060048036038101906101db9190610a96565b610673565b6040516101ed9190610d65565b60405180910390f35b610210600480360381019061020b9190610d80565b6106c1565b005b600360003373ffffffffffffffffffffffffffffffffffffffff1673ffffffffffffffffffffffffffffffffffffffff168152602001908152602001600020819080600181540180825580915050600190039060005260206000200160009091909190916101000a81548173ffffffffffffffffffffffffffffffffffffffff021916908373ffffffffffffffffffffffffffffffffffffffff16021790555050565b60008167ffffffffffffffff8111156102d1576102d0610dcd565b5b60405190808252806020026020018201604052801561030a57816020015b6102f7610960565b8152602001906001900390816102ef5790505b5090505050565b6002602052816000526040600020818154811061032d57600080fd5b9060005260206000209060050201600091509150508060000154908060010160009054906101000a900473ffffffffffffffffffffffffffffffffffffffff16908060020160009054906101000a900473ffffffffffffffffffffffffffffffffffffffff16908060030180546103a390610e2b565b80601f01602080910402602001604051908101604052809291908181526020018280546103cf90610e2b565b801561041c5780601f106103f15761010080835404028352916020019161041c565b820191906000526020600020905b8154815290600101906020018083116103ff57829003601f168201915b5050505050908060040154905085565b6001600460003373ffffffffffffffffffffffffffffffffffffffff1673ffffffffffffffffffffffffffffffffffffffff16815260200190815260200160002060008373ffffffffffffffffffffffffffffffffffffffff1673ffffffffffffffffffffffffffffffffffffffff16815260200190815260200160002060006101000a81548160ff02191690831515021790555050565b60046020528160005260406000206020528060005260406000206000915091509054906101000a900460ff1681565b6000600460003373ffffffffffffffffffffffffffffffffffffffff1673ffffffffffffffffffffffffffffffffffffffff16815260200190815260200160002060008373ffffffffffffffffffffffffffffffffffffffff1673ffffffffffffffffffffffffffffffffffffffff16815260200190815260200160002060006101000a81548160ff02191690831515021790555050565b6105968383836106d0565b505050565b60006020528060005260406000206000915090508060000154908060010160009054906101000a900473ffffffffffffffffffffffffffffffffffffffff16908060020180546105ea90610e2b565b80601f016020809104026020016040519081016040528092919081815260200182805461061690610e2b565b80156106635780601f1061063857610100808354040283529160200191610663565b820191906000526020600020905b81548152906001019060200180831161064657829003601f168201915b5050505050908060030154905084565b6003602052816000526040600020818154811061068f57600080fd5b906000526020600020016000915091509054906101000a900473ffffffffffffffffffffffffffffffffffffffff1681565b6106cc3383836106d0565b5050565b3373ffffffffffffffffffffffffffffffffffffffff168373ffffffffffffffffffffffffffffffffffffffff161480610797575060011515600460008573ffffffffffffffffffffffffffffffffffffffff1673ffffffffffffffffffffffffffffffffffffffff16815260200190815260200160002060003373ffffffffffffffffffffffffffffffffffffffff1673ffffffffffffffffffffffffffffffffffffffff16815260200190815260200160002060009054906101000a900460ff161515145b6107d6576040517f08c379a00000000000000000000000000000000000000000000000000000000081526004016107cd90610ea8565b60405180910390fd5b604051806080016040528060055481526020018473ffffffffffffffffffffffffffffffffffffffff16815260200183838080601f016020809104026020016040519081016040528093929190818152602001838380828437600081840152601f19601f8201169050808301925050505050505081526020014281525060008060055481526020019081526020016000206000820151816000015560208201518160010160006101000a81548173ffffffffffffffffffffffffffffffffffffffff021916908373ffffffffffffffffffffffffffffffffffffffff16021790555060408201518160020190816108cd9190611074565b5060608201518160030155905050600160008473ffffffffffffffffffffffffffffffffffffffff1673ffffffffffffffffffffffffffffffffffffffff16815260200190815260200160002060055490806001815401808255809150506001900390600052602060002001600090919091909150556005600081548092919061095690611175565b9190505550505050565b604051806080016040528060008152602001600073ffffffffffffffffffffffffffffffffffffffff16815260200160608152602001600081525090565b600080fd5b600080fd5b600073ffffffffffffffffffffffffffffffffffffffff82169050919050565b60006109d3826109a8565b9050919050565b6109e3816109c8565b81146109ee57600080fd5b50565b600081359050610a00816109da565b92915050565b600060208284031215610a1c57610a1b61099e565b5b6000610a2a848285016109f1565b91505092915050565b6000819050919050565b610a4681610a33565b8114610a5157600080fd5b50565b600081359050610a6381610a3d565b92915050565b600060208284031215610a7f57610a7e61099e565b5b6000610a8d84828501610a54565b91505092915050565b60008060408385031215610aad57610aac61099e565b5b6000610abb858286016109f1565b9250506020610acc85828601610a54565b9150509250929050565b610adf81610a33565b82525050565b610aee816109c8565b82525050565b600081519050919050565b600082825260208201905092915050565b60005b83811015610b2e578082015181840152602081019050610b13565b60008484015250505050565b6000601f19601f8301169050919050565b6000610b5682610af4565b610b608185610aff565b9350610b70818560208601610b10565b610b7981610b3a565b840191505092915050565b600060a082019050610b996000830188610ad6565b610ba66020830187610ae5565b610bb36040830186610ae5565b8181036060830152610bc58185610b4b565b9050610bd46080830184610ad6565b9695505050505050565b60008060408385031215610bf557610bf461099e565b5b6000610c03858286016109f1565b9250506020610c14858286016109f1565b9150509250929050565b60008115159050919050565b610c3381610c1e565b82525050565b6000602082019050610c4e6000830184610c2a565b92915050565b600080fd5b600080fd5b600080fd5b60008083601f840112610c7957610c78610c54565b5b8235905067ffffffffffffffff811115610c9657610c95610c59565b5b602083019150836001820283011115610cb257610cb1610c5e565b5b9250929050565b600080600060408486031215610cd257610cd161099e565b5b6000610ce0868287016109f1565b935050602084013567ffffffffffffffff811115610d0157610d006109a3565b5b610d0d86828701610c63565b92509250509250925092565b6000608082019050610d2e6000830187610ad6565b610d3b6020830186610ae5565b8181036040830152610d4d8185610b4b565b9050610d5c6060830184610ad6565b95945050505050565b6000602082019050610d7a6000830184610ae5565b92915050565b60008060208385031215610d9757610d9661099e565b5b600083013567ffffffffffffffff811115610db557610db46109a3565b5b610dc185828601610c63565b92509250509250929050565b7f4e487b7100000000000000000000000000000000000000000000000000000000600052604160045260246000fd5b7f4e487b7100000000000000000000000000000000000000000000000000000000600052602260045260246000fd5b60006002820490506001821680610e4357607f821691505b602082108103610e5657610e55610dfc565b5b50919050565b7f596f752061726520417574686572697a65640000000000000000000000000000600082015250565b6000610e92601283610aff565b9150610e9d82610e5c565b602082019050919050565b60006020820190508181036000830152610ec181610e85565b9050919050565b60008190508160005260206000209050919050565b60006020601f8301049050919050565b600082821b905092915050565b600060088302610f2a7fffffffffffffffffffffffffffffffffffffffffffffffffffffffffffffffff82610eed565b610f348683610eed565b95508019841693508086168417925050509392505050565b6000819050919050565b6000610f71610f6c610f6784610a33565b610f4c565b610a33565b9050919050565b6000819050919050565b610f8b83610f56565b610f9f610f9782610f78565b848454610efa565b825550505050565b600090565b610fb4610fa7565b610fbf818484610f82565b505050565b5b81811015610fe357610fd8600082610fac565b600181019050610fc5565b5050565b601f82111561102857610ff981610ec8565b61100284610edd565b81016020851015611011578190505b61102561101d85610edd565b830182610fc4565b50505b505050565b600082821c905092915050565b600061104b6000198460080261102d565b1980831691505092915050565b6000611064838361103a565b9150826002028217905092915050565b61107d82610af4565b67ffffffffffffffff81111561109657611095610dcd565b5b6110a08254610e2b565b6110ab828285610fe7565b600060209050601f8311600181146110de57600084156110cc578287015190505b6110d68582611058565b86555061113e565b601f1984166110ec86610ec8565b60005b82811015611114578489015182556001820191506020850194506020810190506110ef565b86831015611131578489015161112d601f89168261103a565b8355505b6001600288020188555050505b505050505050565b7f4e487b7100000000000000000000000000000000000000000000000000000000600052601160045260246000fd5b600061118082610a33565b91507fffffffffffffffffffffffffffffffffffffffffffffffffffffffffffffffff82036111b2576111b1611146565b5b60018201905091905056fea264697066735822122087317545b6f91afdfc4fe28879beab10e27884b74e4552018875f044d8e8cc9364736f6c63430008110033",
					"opcodes": "PUSH1 0x80 PUSH1 0x40 MSTORE CALLVALUE DUP1 ISZERO PUSH2 0x10 JUMPI PUSH1 0x0 DUP1 REVERT JUMPDEST POP PUSH2 0x11F3 DUP1 PUSH2 0x20 PUSH1 0x0 CODECOPY PUSH1 0x0 RETURN INVALID PUSH1 0x80 PUSH1 0x40 MSTORE CALLVALUE DUP1 ISZERO PUSH2 0x10 JUMPI PUSH1 0x0 DUP1 REVERT JUMPDEST POP PUSH1 0x4 CALLDATASIZE LT PUSH2 0x9E JUMPI PUSH1 0x0 CALLDATALOAD PUSH1 0xE0 SHR DUP1 PUSH4 0xB98AE4AC GT PUSH2 0x66 JUMPI DUP1 PUSH4 0xB98AE4AC EQ PUSH2 0x15B JUMPI DUP1 PUSH4 0xC6BC463C EQ PUSH2 0x177 JUMPI DUP1 PUSH4 0xE8D857B0 EQ PUSH2 0x193 JUMPI DUP1 PUSH4 0xEBD009D3 EQ PUSH2 0x1C6 JUMPI DUP1 PUSH4 0xFB46D4C5 EQ PUSH2 0x1F6 JUMPI PUSH2 0x9E JUMP JUMPDEST DUP1 PUSH4 0x4DBF27CC EQ PUSH2 0xA3 JUMPI DUP1 PUSH4 0x4DC0A687 EQ PUSH2 0xBF JUMPI DUP1 PUSH4 0x5DFCAEBF EQ PUSH2 0xDB JUMPI DUP1 PUSH4 0x8A53BD62 EQ PUSH2 0x10F JUMPI DUP1 PUSH4 0x94464F8E EQ PUSH2 0x12B JUMPI JUMPDEST PUSH1 0x0 DUP1 REVERT JUMPDEST PUSH2 0xBD PUSH1 0x4 DUP1 CALLDATASIZE SUB DUP2 ADD SWAP1 PUSH2 0xB8 SWAP2 SWAP1 PUSH2 0xA06 JUMP JUMPDEST PUSH2 0x212 JUMP JUMPDEST STOP JUMPDEST PUSH2 0xD9 PUSH1 0x4 DUP1 CALLDATASIZE SUB DUP2 ADD SWAP1 PUSH2 0xD4 SWAP2 SWAP1 PUSH2 0xA69 JUMP JUMPDEST PUSH2 0x2B5 JUMP JUMPDEST STOP JUMPDEST PUSH2 0xF5 PUSH1 0x4 DUP1 CALLDATASIZE SUB DUP2 ADD SWAP1 PUSH2 0xF0 SWAP2 SWAP1 PUSH2 0xA96 JUMP JUMPDEST PUSH2 0x311 JUMP JUMPDEST PUSH1 0x40 MLOAD PUSH2 0x106 SWAP6 SWAP5 SWAP4 SWAP3 SWAP2 SWAP1 PUSH2 0xB84 JUMP JUMPDEST PUSH1 0x40 MLOAD DUP1 SWAP2 SUB SWAP1 RETURN JUMPDEST PUSH2 0x129 PUSH1 0x4 DUP1 CALLDATASIZE SUB DUP2 ADD SWAP1 PUSH2 0x124 SWAP2 SWAP1 PUSH2 0xA06 JUMP JUMPDEST PUSH2 0x42C JUMP JUMPDEST STOP JUMPDEST PUSH2 0x145 PUSH1 0x4 DUP1 CALLDATASIZE SUB DUP2 ADD SWAP1 PUSH2 0x140 SWAP2 SWAP1 PUSH2 0xBDE JUMP JUMPDEST PUSH2 0x4C4 JUMP JUMPDEST PUSH1 0x40 MLOAD PUSH2 0x152 SWAP2 SWAP1 PUSH2 0xC39 JUMP JUMPDEST PUSH1 0x40 MLOAD DUP1 SWAP2 SUB SWAP1 RETURN JUMPDEST PUSH2 0x175 PUSH1 0x4 DUP1 CALLDATASIZE SUB DUP2 ADD SWAP1 PUSH2 0x170 SWAP2 SWAP1 PUSH2 0xA06 JUMP JUMPDEST PUSH2 0x4F3 JUMP JUMPDEST STOP JUMPDEST PUSH2 0x191 PUSH1 0x4 DUP1 CALLDATASIZE SUB DUP2 ADD SWAP1 PUSH2 0x18C SWAP2 SWAP1 PUSH2 0xCB9 JUMP JUMPDEST PUSH2 0x58B JUMP JUMPDEST STOP JUMPDEST PUSH2 0x1AD PUSH1 0x4 DUP1 CALLDATASIZE SUB DUP2 ADD SWAP1 PUSH2 0x1A8 SWAP2 SWAP1 PUSH2 0xA69 JUMP JUMPDEST PUSH2 0x59B JUMP JUMPDEST PUSH1 0x40 MLOAD PUSH2 0x1BD SWAP5 SWAP4 SWAP3 SWAP2 SWAP1 PUSH2 0xD19 JUMP JUMPDEST PUSH1 0x40 MLOAD DUP1 SWAP2 SUB SWAP1 RETURN JUMPDEST PUSH2 0x1E0 PUSH1 0x4 DUP1 CALLDATASIZE SUB DUP2 ADD SWAP1 PUSH2 0x1DB SWAP2 SWAP1 PUSH2 0xA96 JUMP JUMPDEST PUSH2 0x673 JUMP JUMPDEST PUSH1 0x40 MLOAD PUSH2 0x1ED SWAP2 SWAP1 PUSH2 0xD65 JUMP JUMPDEST PUSH1 0x40 MLOAD DUP1 SWAP2 SUB SWAP1 RETURN JUMPDEST PUSH2 0x210 PUSH1 0x4 DUP1 CALLDATASIZE SUB DUP2 ADD SWAP1 PUSH2 0x20B SWAP2 SWAP1 PUSH2 0xD80 JUMP JUMPDEST PUSH2 0x6C1 JUMP JUMPDEST STOP JUMPDEST PUSH1 0x3 PUSH1 0x0 CALLER PUSH20 0xFFFFFFFFFFFFFFFFFFFFFFFFFFFFFFFFFFFFFFFF AND PUSH20 0xFFFFFFFFFFFFFFFFFFFFFFFFFFFFFFFFFFFFFFFF AND DUP2 MSTORE PUSH1 0x20 ADD SWAP1 DUP2 MSTORE PUSH1 0x20 ADD PUSH1 0x0 KECCAK256 DUP2 SWAP1 DUP1 PUSH1 0x1 DUP2 SLOAD ADD DUP1 DUP3 SSTORE DUP1 SWAP2 POP POP PUSH1 0x1 SWAP1 SUB SWAP1 PUSH1 0x0 MSTORE PUSH1 0x20 PUSH1 0x0 KECCAK256 ADD PUSH1 0x0 SWAP1 SWAP2 SWAP1 SWAP2 SWAP1 SWAP2 PUSH2 0x100 EXP DUP2 SLOAD DUP2 PUSH20 0xFFFFFFFFFFFFFFFFFFFFFFFFFFFFFFFFFFFFFFFF MUL NOT AND SWAP1 DUP4 PUSH20 0xFFFFFFFFFFFFFFFFFFFFFFFFFFFFFFFFFFFFFFFF AND MUL OR SWAP1 SSTORE POP POP JUMP JUMPDEST PUSH1 0x0 DUP2 PUSH8 0xFFFFFFFFFFFFFFFF DUP2 GT ISZERO PUSH2 0x2D1 JUMPI PUSH2 0x2D0 PUSH2 0xDCD JUMP JUMPDEST JUMPDEST PUSH1 0x40 MLOAD SWAP1 DUP1 DUP3 MSTORE DUP1 PUSH1 0x20 MUL PUSH1 0x20 ADD DUP3 ADD PUSH1 0x40 MSTORE DUP1 ISZERO PUSH2 0x30A JUMPI DUP2 PUSH1 0x20 ADD JUMPDEST PUSH2 0x2F7 PUSH2 0x960 JUMP JUMPDEST DUP2 MSTORE PUSH1 0x20 ADD SWAP1 PUSH1 0x1 SWAP1 SUB SWAP1 DUP2 PUSH2 0x2EF JUMPI SWAP1 POP JUMPDEST POP SWAP1 POP POP POP JUMP JUMPDEST PUSH1 0x2 PUSH1 0x20 MSTORE DUP2 PUSH1 0x0 MSTORE PUSH1 0x40 PUSH1 0x0 KECCAK256 DUP2 DUP2 SLOAD DUP2 LT PUSH2 0x32D JUMPI PUSH1 0x0 DUP1 REVERT JUMPDEST SWAP1 PUSH1 0x0 MSTORE PUSH1 0x20 PUSH1 0x0 KECCAK256 SWAP1 PUSH1 0x5 MUL ADD PUSH1 0x0 SWAP2 POP SWAP2 POP POP DUP1 PUSH1 0x0 ADD SLOAD SWAP1 DUP1 PUSH1 0x1 ADD PUSH1 0x0 SWAP1 SLOAD SWAP1 PUSH2 0x100 EXP SWAP1 DIV PUSH20 0xFFFFFFFFFFFFFFFFFFFFFFFFFFFFFFFFFFFFFFFF AND SWAP1 DUP1 PUSH1 0x2 ADD PUSH1 0x0 SWAP1 SLOAD SWAP1 PUSH2 0x100 EXP SWAP1 DIV PUSH20 0xFFFFFFFFFFFFFFFFFFFFFFFFFFFFFFFFFFFFFFFF AND SWAP1 DUP1 PUSH1 0x3 ADD DUP1 SLOAD PUSH2 0x3A3 SWAP1 PUSH2 0xE2B JUMP JUMPDEST DUP1 PUSH1 0x1F ADD PUSH1 0x20 DUP1 SWAP2 DIV MUL PUSH1 0x20 ADD PUSH1 0x40 MLOAD SWAP1 DUP2 ADD PUSH1 0x40 MSTORE DUP1 SWAP3 SWAP2 SWAP1 DUP2 DUP2 MSTORE PUSH1 0x20 ADD DUP3 DUP1 SLOAD PUSH2 0x3CF SWAP1 PUSH2 0xE2B JUMP JUMPDEST DUP1 ISZERO PUSH2 0x41C JUMPI DUP1 PUSH1 0x1F LT PUSH2 0x3F1 JUMPI PUSH2 0x100 DUP1 DUP4 SLOAD DIV MUL DUP4 MSTORE SWAP2 PUSH1 0x20 ADD SWAP2 PUSH2 0x41C JUMP JUMPDEST DUP3 ADD SWAP2 SWAP1 PUSH1 0x0 MSTORE PUSH1 0x20 PUSH1 0x0 KECCAK256 SWAP1 JUMPDEST DUP2 SLOAD DUP2 MSTORE SWAP1 PUSH1 0x1 ADD SWAP1 PUSH1 0x20 ADD DUP1 DUP4 GT PUSH2 0x3FF JUMPI DUP3 SWAP1 SUB PUSH1 0x1F AND DUP3 ADD SWAP2 JUMPDEST POP POP POP POP POP SWAP1 DUP1 PUSH1 0x4 ADD SLOAD SWAP1 POP DUP6 JUMP JUMPDEST PUSH1 0x1 PUSH1 0x4 PUSH1 0x0 CALLER PUSH20 0xFFFFFFFFFFFFFFFFFFFFFFFFFFFFFFFFFFFFFFFF AND PUSH20 0xFFFFFFFFFFFFFFFFFFFFFFFFFFFFFFFFFFFFFFFF AND DUP2 MSTORE PUSH1 0x20 ADD SWAP1 DUP2 MSTORE PUSH1 0x20 ADD PUSH1 0x0 KECCAK256 PUSH1 0x0 DUP4 PUSH20 0xFFFFFFFFFFFFFFFFFFFFFFFFFFFFFFFFFFFFFFFF AND PUSH20 0xFFFFFFFFFFFFFFFFFFFFFFFFFFFFFFFFFFFFFFFF AND DUP2 MSTORE PUSH1 0x20 ADD SWAP1 DUP2 MSTORE PUSH1 0x20 ADD PUSH1 0x0 KECCAK256 PUSH1 0x0 PUSH2 0x100 EXP DUP2 SLOAD DUP2 PUSH1 0xFF MUL NOT AND SWAP1 DUP4 ISZERO ISZERO MUL OR SWAP1 SSTORE POP POP JUMP JUMPDEST PUSH1 0x4 PUSH1 0x20 MSTORE DUP2 PUSH1 0x0 MSTORE PUSH1 0x40 PUSH1 0x0 KECCAK256 PUSH1 0x20 MSTORE DUP1 PUSH1 0x0 MSTORE PUSH1 0x40 PUSH1 0x0 KECCAK256 PUSH1 0x0 SWAP2 POP SWAP2 POP SWAP1 SLOAD SWAP1 PUSH2 0x100 EXP SWAP1 DIV PUSH1 0xFF AND DUP2 JUMP JUMPDEST PUSH1 0x0 PUSH1 0x4 PUSH1 0x0 CALLER PUSH20 0xFFFFFFFFFFFFFFFFFFFFFFFFFFFFFFFFFFFFFFFF AND PUSH20 0xFFFFFFFFFFFFFFFFFFFFFFFFFFFFFFFFFFFFFFFF AND DUP2 MSTORE PUSH1 0x20 ADD SWAP1 DUP2 MSTORE PUSH1 0x20 ADD PUSH1 0x0 KECCAK256 PUSH1 0x0 DUP4 PUSH20 0xFFFFFFFFFFFFFFFFFFFFFFFFFFFFFFFFFFFFFFFF AND PUSH20 0xFFFFFFFFFFFFFFFFFFFFFFFFFFFFFFFFFFFFFFFF AND DUP2 MSTORE PUSH1 0x20 ADD SWAP1 DUP2 MSTORE PUSH1 0x20 ADD PUSH1 0x0 KECCAK256 PUSH1 0x0 PUSH2 0x100 EXP DUP2 SLOAD DUP2 PUSH1 0xFF MUL NOT AND SWAP1 DUP4 ISZERO ISZERO MUL OR SWAP1 SSTORE POP POP JUMP JUMPDEST PUSH2 0x596 DUP4 DUP4 DUP4 PUSH2 0x6D0 JUMP JUMPDEST POP POP POP JUMP JUMPDEST PUSH1 0x0 PUSH1 0x20 MSTORE DUP1 PUSH1 0x0 MSTORE PUSH1 0x40 PUSH1 0x0 KECCAK256 PUSH1 0x0 SWAP2 POP SWAP1 POP DUP1 PUSH1 0x0 ADD SLOAD SWAP1 DUP1 PUSH1 0x1 ADD PUSH1 0x0 SWAP1 SLOAD SWAP1 PUSH2 0x100 EXP SWAP1 DIV PUSH20 0xFFFFFFFFFFFFFFFFFFFFFFFFFFFFFFFFFFFFFFFF AND SWAP1 DUP1 PUSH1 0x2 ADD DUP1 SLOAD PUSH2 0x5EA SWAP1 PUSH2 0xE2B JUMP JUMPDEST DUP1 PUSH1 0x1F ADD PUSH1 0x20 DUP1 SWAP2 DIV MUL PUSH1 0x20 ADD PUSH1 0x40 MLOAD SWAP1 DUP2 ADD PUSH1 0x40 MSTORE DUP1 SWAP3 SWAP2 SWAP1 DUP2 DUP2 MSTORE PUSH1 0x20 ADD DUP3 DUP1 SLOAD PUSH2 0x616 SWAP1 PUSH2 0xE2B JUMP JUMPDEST DUP1 ISZERO PUSH2 0x663 JUMPI DUP1 PUSH1 0x1F LT PUSH2 0x638 JUMPI PUSH2 0x100 DUP1 DUP4 SLOAD DIV MUL DUP4 MSTORE SWAP2 PUSH1 0x20 ADD SWAP2 PUSH2 0x663 JUMP JUMPDEST DUP3 ADD SWAP2 SWAP1 PUSH1 0x0 MSTORE PUSH1 0x20 PUSH1 0x0 KECCAK256 SWAP1 JUMPDEST DUP2 SLOAD DUP2 MSTORE SWAP1 PUSH1 0x1 ADD SWAP1 PUSH1 0x20 ADD DUP1 DUP4 GT PUSH2 0x646 JUMPI DUP3 SWAP1 SUB PUSH1 0x1F AND DUP3 ADD SWAP2 JUMPDEST POP POP POP POP POP SWAP1 DUP1 PUSH1 0x3 ADD SLOAD SWAP1 POP DUP5 JUMP JUMPDEST PUSH1 0x3 PUSH1 0x20 MSTORE DUP2 PUSH1 0x0 MSTORE PUSH1 0x40 PUSH1 0x0 KECCAK256 DUP2 DUP2 SLOAD DUP2 LT PUSH2 0x68F JUMPI PUSH1 0x0 DUP1 REVERT JUMPDEST SWAP1 PUSH1 0x0 MSTORE PUSH1 0x20 PUSH1 0x0 KECCAK256 ADD PUSH1 0x0 SWAP2 POP SWAP2 POP SWAP1 SLOAD SWAP1 PUSH2 0x100 EXP SWAP1 DIV PUSH20 0xFFFFFFFFFFFFFFFFFFFFFFFFFFFFFFFFFFFFFFFF AND DUP2 JUMP JUMPDEST PUSH2 0x6CC CALLER DUP4 DUP4 PUSH2 0x6D0 JUMP JUMPDEST POP POP JUMP JUMPDEST CALLER PUSH20 0xFFFFFFFFFFFFFFFFFFFFFFFFFFFFFFFFFFFFFFFF AND DUP4 PUSH20 0xFFFFFFFFFFFFFFFFFFFFFFFFFFFFFFFFFFFFFFFF AND EQ DUP1 PUSH2 0x797 JUMPI POP PUSH1 0x1 ISZERO ISZERO PUSH1 0x4 PUSH1 0x0 DUP6 PUSH20 0xFFFFFFFFFFFFFFFFFFFFFFFFFFFFFFFFFFFFFFFF AND PUSH20 0xFFFFFFFFFFFFFFFFFFFFFFFFFFFFFFFFFFFFFFFF AND DUP2 MSTORE PUSH1 0x20 ADD SWAP1 DUP2 MSTORE PUSH1 0x20 ADD PUSH1 0x0 KECCAK256 PUSH1 0x0 CALLER PUSH20 0xFFFFFFFFFFFFFFFFFFFFFFFFFFFFFFFFFFFFFFFF AND PUSH20 0xFFFFFFFFFFFFFFFFFFFFFFFFFFFFFFFFFFFFFFFF AND DUP2 MSTORE PUSH1 0x20 ADD SWAP1 DUP2 MSTORE PUSH1 0x20 ADD PUSH1 0x0 KECCAK256 PUSH1 0x0 SWAP1 SLOAD SWAP1 PUSH2 0x100 EXP SWAP1 DIV PUSH1 0xFF AND ISZERO ISZERO EQ JUMPDEST PUSH2 0x7D6 JUMPI PUSH1 0x40 MLOAD PUSH32 0x8C379A000000000000000000000000000000000000000000000000000000000 DUP2 MSTORE PUSH1 0x4 ADD PUSH2 0x7CD SWAP1 PUSH2 0xEA8 JUMP JUMPDEST PUSH1 0x40 MLOAD DUP1 SWAP2 SUB SWAP1 REVERT JUMPDEST PUSH1 0x40 MLOAD DUP1 PUSH1 0x80 ADD PUSH1 0x40 MSTORE DUP1 PUSH1 0x5 SLOAD DUP2 MSTORE PUSH1 0x20 ADD DUP5 PUSH20 0xFFFFFFFFFFFFFFFFFFFFFFFFFFFFFFFFFFFFFFFF AND DUP2 MSTORE PUSH1 0x20 ADD DUP4 DUP4 DUP1 DUP1 PUSH1 0x1F ADD PUSH1 0x20 DUP1 SWAP2 DIV MUL PUSH1 0x20 ADD PUSH1 0x40 MLOAD SWAP1 DUP2 ADD PUSH1 0x40 MSTORE DUP1 SWAP4 SWAP3 SWAP2 SWAP1 DUP2 DUP2 MSTORE PUSH1 0x20 ADD DUP4 DUP4 DUP1 DUP3 DUP5 CALLDATACOPY PUSH1 0x0 DUP2 DUP5 ADD MSTORE PUSH1 0x1F NOT PUSH1 0x1F DUP3 ADD AND SWAP1 POP DUP1 DUP4 ADD SWAP3 POP POP POP POP POP POP POP DUP2 MSTORE PUSH1 0x20 ADD TIMESTAMP DUP2 MSTORE POP PUSH1 0x0 DUP1 PUSH1 0x5 SLOAD DUP2 MSTORE PUSH1 0x20 ADD SWAP1 DUP2 MSTORE PUSH1 0x20 ADD PUSH1 0x0 KECCAK256 PUSH1 0x0 DUP3 ADD MLOAD DUP2 PUSH1 0x0 ADD SSTORE PUSH1 0x20 DUP3 ADD MLOAD DUP2 PUSH1 0x1 ADD PUSH1 0x0 PUSH2 0x100 EXP DUP2 SLOAD DUP2 PUSH20 0xFFFFFFFFFFFFFFFFFFFFFFFFFFFFFFFFFFFFFFFF MUL NOT AND SWAP1 DUP4 PUSH20 0xFFFFFFFFFFFFFFFFFFFFFFFFFFFFFFFFFFFFFFFF AND MUL OR SWAP1 SSTORE POP PUSH1 0x40 DUP3 ADD MLOAD DUP2 PUSH1 0x2 ADD SWAP1 DUP2 PUSH2 0x8CD SWAP2 SWAP1 PUSH2 0x1074 JUMP JUMPDEST POP PUSH1 0x60 DUP3 ADD MLOAD DUP2 PUSH1 0x3 ADD SSTORE SWAP1 POP POP PUSH1 0x1 PUSH1 0x0 DUP5 PUSH20 0xFFFFFFFFFFFFFFFFFFFFFFFFFFFFFFFFFFFFFFFF AND PUSH20 0xFFFFFFFFFFFFFFFFFFFFFFFFFFFFFFFFFFFFFFFF AND DUP2 MSTORE PUSH1 0x20 ADD SWAP1 DUP2 MSTORE PUSH1 0x20 ADD PUSH1 0x0 KECCAK256 PUSH1 0x5 SLOAD SWAP1 DUP1 PUSH1 0x1 DUP2 SLOAD ADD DUP1 DUP3 SSTORE DUP1 SWAP2 POP POP PUSH1 0x1 SWAP1 SUB SWAP1 PUSH1 0x0 MSTORE PUSH1 0x20 PUSH1 0x0 KECCAK256 ADD PUSH1 0x0 SWAP1 SWAP2 SWAP1 SWAP2 SWAP1 SWAP2 POP SSTORE PUSH1 0x5 PUSH1 0x0 DUP2 SLOAD DUP1 SWAP3 SWAP2 SWAP1 PUSH2 0x956 SWAP1 PUSH2 0x1175 JUMP JUMPDEST SWAP2 SWAP1 POP SSTORE POP POP POP POP JUMP JUMPDEST PUSH1 0x40 MLOAD DUP1 PUSH1 0x80 ADD PUSH1 0x40 MSTORE DUP1 PUSH1 0x0 DUP2 MSTORE PUSH1 0x20 ADD PUSH1 0x0 PUSH20 0xFFFFFFFFFFFFFFFFFFFFFFFFFFFFFFFFFFFFFFFF AND DUP2 MSTORE PUSH1 0x20 ADD PUSH1 0x60 DUP2 MSTORE PUSH1 0x20 ADD PUSH1 0x0 DUP2 MSTORE POP SWAP1 JUMP JUMPDEST PUSH1 0x0 DUP1 REVERT JUMPDEST PUSH1 0x0 DUP1 REVERT JUMPDEST PUSH1 0x0 PUSH20 0xFFFFFFFFFFFFFFFFFFFFFFFFFFFFFFFFFFFFFFFF DUP3 AND SWAP1 POP SWAP2 SWAP1 POP JUMP JUMPDEST PUSH1 0x0 PUSH2 0x9D3 DUP3 PUSH2 0x9A8 JUMP JUMPDEST SWAP1 POP SWAP2 SWAP1 POP JUMP JUMPDEST PUSH2 0x9E3 DUP2 PUSH2 0x9C8 JUMP JUMPDEST DUP2 EQ PUSH2 0x9EE JUMPI PUSH1 0x0 DUP1 REVERT JUMPDEST POP JUMP JUMPDEST PUSH1 0x0 DUP2 CALLDATALOAD SWAP1 POP PUSH2 0xA00 DUP2 PUSH2 0x9DA JUMP JUMPDEST SWAP3 SWAP2 POP POP JUMP JUMPDEST PUSH1 0x0 PUSH1 0x20 DUP3 DUP5 SUB SLT ISZERO PUSH2 0xA1C JUMPI PUSH2 0xA1B PUSH2 0x99E JUMP JUMPDEST JUMPDEST PUSH1 0x0 PUSH2 0xA2A DUP5 DUP3 DUP6 ADD PUSH2 0x9F1 JUMP JUMPDEST SWAP2 POP POP SWAP3 SWAP2 POP POP JUMP JUMPDEST PUSH1 0x0 DUP2 SWAP1 POP SWAP2 SWAP1 POP JUMP JUMPDEST PUSH2 0xA46 DUP2 PUSH2 0xA33 JUMP JUMPDEST DUP2 EQ PUSH2 0xA51 JUMPI PUSH1 0x0 DUP1 REVERT JUMPDEST POP JUMP JUMPDEST PUSH1 0x0 DUP2 CALLDATALOAD SWAP1 POP PUSH2 0xA63 DUP2 PUSH2 0xA3D JUMP JUMPDEST SWAP3 SWAP2 POP POP JUMP JUMPDEST PUSH1 0x0 PUSH1 0x20 DUP3 DUP5 SUB SLT ISZERO PUSH2 0xA7F JUMPI PUSH2 0xA7E PUSH2 0x99E JUMP JUMPDEST JUMPDEST PUSH1 0x0 PUSH2 0xA8D DUP5 DUP3 DUP6 ADD PUSH2 0xA54 JUMP JUMPDEST SWAP2 POP POP SWAP3 SWAP2 POP POP JUMP JUMPDEST PUSH1 0x0 DUP1 PUSH1 0x40 DUP4 DUP6 SUB SLT ISZERO PUSH2 0xAAD JUMPI PUSH2 0xAAC PUSH2 0x99E JUMP JUMPDEST JUMPDEST PUSH1 0x0 PUSH2 0xABB DUP6 DUP3 DUP7 ADD PUSH2 0x9F1 JUMP JUMPDEST SWAP3 POP POP PUSH1 0x20 PUSH2 0xACC DUP6 DUP3 DUP7 ADD PUSH2 0xA54 JUMP JUMPDEST SWAP2 POP POP SWAP3 POP SWAP3 SWAP1 POP JUMP JUMPDEST PUSH2 0xADF DUP2 PUSH2 0xA33 JUMP JUMPDEST DUP3 MSTORE POP POP JUMP JUMPDEST PUSH2 0xAEE DUP2 PUSH2 0x9C8 JUMP JUMPDEST DUP3 MSTORE POP POP JUMP JUMPDEST PUSH1 0x0 DUP2 MLOAD SWAP1 POP SWAP2 SWAP1 POP JUMP JUMPDEST PUSH1 0x0 DUP3 DUP3 MSTORE PUSH1 0x20 DUP3 ADD SWAP1 POP SWAP3 SWAP2 POP POP JUMP JUMPDEST PUSH1 0x0 JUMPDEST DUP4 DUP2 LT ISZERO PUSH2 0xB2E JUMPI DUP1 DUP3 ADD MLOAD DUP2 DUP5 ADD MSTORE PUSH1 0x20 DUP2 ADD SWAP1 POP PUSH2 0xB13 JUMP JUMPDEST PUSH1 0x0 DUP5 DUP5 ADD MSTORE POP POP POP POP JUMP JUMPDEST PUSH1 0x0 PUSH1 0x1F NOT PUSH1 0x1F DUP4 ADD AND SWAP1 POP SWAP2 SWAP1 POP JUMP JUMPDEST PUSH1 0x0 PUSH2 0xB56 DUP3 PUSH2 0xAF4 JUMP JUMPDEST PUSH2 0xB60 DUP2 DUP6 PUSH2 0xAFF JUMP JUMPDEST SWAP4 POP PUSH2 0xB70 DUP2 DUP6 PUSH1 0x20 DUP7 ADD PUSH2 0xB10 JUMP JUMPDEST PUSH2 0xB79 DUP2 PUSH2 0xB3A JUMP JUMPDEST DUP5 ADD SWAP2 POP POP SWAP3 SWAP2 POP POP JUMP JUMPDEST PUSH1 0x0 PUSH1 0xA0 DUP3 ADD SWAP1 POP PUSH2 0xB99 PUSH1 0x0 DUP4 ADD DUP9 PUSH2 0xAD6 JUMP JUMPDEST PUSH2 0xBA6 PUSH1 0x20 DUP4 ADD DUP8 PUSH2 0xAE5 JUMP JUMPDEST PUSH2 0xBB3 PUSH1 0x40 DUP4 ADD DUP7 PUSH2 0xAE5 JUMP JUMPDEST DUP2 DUP2 SUB PUSH1 0x60 DUP4 ADD MSTORE PUSH2 0xBC5 DUP2 DUP6 PUSH2 0xB4B JUMP JUMPDEST SWAP1 POP PUSH2 0xBD4 PUSH1 0x80 DUP4 ADD DUP5 PUSH2 0xAD6 JUMP JUMPDEST SWAP7 SWAP6 POP POP POP POP POP POP JUMP JUMPDEST PUSH1 0x0 DUP1 PUSH1 0x40 DUP4 DUP6 SUB SLT ISZERO PUSH2 0xBF5 JUMPI PUSH2 0xBF4 PUSH2 0x99E JUMP JUMPDEST JUMPDEST PUSH1 0x0 PUSH2 0xC03 DUP6 DUP3 DUP7 ADD PUSH2 0x9F1 JUMP JUMPDEST SWAP3 POP POP PUSH1 0x20 PUSH2 0xC14 DUP6 DUP3 DUP7 ADD PUSH2 0x9F1 JUMP JUMPDEST SWAP2 POP POP SWAP3 POP SWAP3 SWAP1 POP JUMP JUMPDEST PUSH1 0x0 DUP2 ISZERO ISZERO SWAP1 POP SWAP2 SWAP1 POP JUMP JUMPDEST PUSH2 0xC33 DUP2 PUSH2 0xC1E JUMP JUMPDEST DUP3 MSTORE POP POP JUMP JUMPDEST PUSH1 0x0 PUSH1 0x20 DUP3 ADD SWAP1 POP PUSH2 0xC4E PUSH1 0x0 DUP4 ADD DUP5 PUSH2 0xC2A JUMP JUMPDEST SWAP3 SWAP2 POP POP JUMP JUMPDEST PUSH1 0x0 DUP1 REVERT JUMPDEST PUSH1 0x0 DUP1 REVERT JUMPDEST PUSH1 0x0 DUP1 REVERT JUMPDEST PUSH1 0x0 DUP1 DUP4 PUSH1 0x1F DUP5 ADD SLT PUSH2 0xC79 JUMPI PUSH2 0xC78 PUSH2 0xC54 JUMP JUMPDEST JUMPDEST DUP3 CALLDATALOAD SWAP1 POP PUSH8 0xFFFFFFFFFFFFFFFF DUP2 GT ISZERO PUSH2 0xC96 JUMPI PUSH2 0xC95 PUSH2 0xC59 JUMP JUMPDEST JUMPDEST PUSH1 0x20 DUP4 ADD SWAP2 POP DUP4 PUSH1 0x1 DUP3 MUL DUP4 ADD GT ISZERO PUSH2 0xCB2 JUMPI PUSH2 0xCB1 PUSH2 0xC5E JUMP JUMPDEST JUMPDEST SWAP3 POP SWAP3 SWAP1 POP JUMP JUMPDEST PUSH1 0x0 DUP1 PUSH1 0x0 PUSH1 0x40 DUP5 DUP7 SUB SLT ISZERO PUSH2 0xCD2 JUMPI PUSH2 0xCD1 PUSH2 0x99E JUMP JUMPDEST JUMPDEST PUSH1 0x0 PUSH2 0xCE0 DUP7 DUP3 DUP8 ADD PUSH2 0x9F1 JUMP JUMPDEST SWAP4 POP POP PUSH1 0x20 DUP5 ADD CALLDATALOAD PUSH8 0xFFFFFFFFFFFFFFFF DUP2 GT ISZERO PUSH2 0xD01 JUMPI PUSH2 0xD00 PUSH2 0x9A3 JUMP JUMPDEST JUMPDEST PUSH2 0xD0D DUP7 DUP3 DUP8 ADD PUSH2 0xC63 JUMP JUMPDEST SWAP3 POP SWAP3 POP POP SWAP3 POP SWAP3 POP SWAP3 JUMP JUMPDEST PUSH1 0x0 PUSH1 0x80 DUP3 ADD SWAP1 POP PUSH2 0xD2E PUSH1 0x0 DUP4 ADD DUP8 PUSH2 0xAD6 JUMP JUMPDEST PUSH2 0xD3B PUSH1 0x20 DUP4 ADD DUP7 PUSH2 0xAE5 JUMP JUMPDEST DUP2 DUP2 SUB PUSH1 0x40 DUP4 ADD MSTORE PUSH2 0xD4D DUP2 DUP6 PUSH2 0xB4B JUMP JUMPDEST SWAP1 POP PUSH2 0xD5C PUSH1 0x60 DUP4 ADD DUP5 PUSH2 0xAD6 JUMP JUMPDEST SWAP6 SWAP5 POP POP POP POP POP JUMP JUMPDEST PUSH1 0x0 PUSH1 0x20 DUP3 ADD SWAP1 POP PUSH2 0xD7A PUSH1 0x0 DUP4 ADD DUP5 PUSH2 0xAE5 JUMP JUMPDEST SWAP3 SWAP2 POP POP JUMP JUMPDEST PUSH1 0x0 DUP1 PUSH1 0x20 DUP4 DUP6 SUB SLT ISZERO PUSH2 0xD97 JUMPI PUSH2 0xD96 PUSH2 0x99E JUMP JUMPDEST JUMPDEST PUSH1 0x0 DUP4 ADD CALLDATALOAD PUSH8 0xFFFFFFFFFFFFFFFF DUP2 GT ISZERO PUSH2 0xDB5 JUMPI PUSH2 0xDB4 PUSH2 0x9A3 JUMP JUMPDEST JUMPDEST PUSH2 0xDC1 DUP6 DUP3 DUP7 ADD PUSH2 0xC63 JUMP JUMPDEST SWAP3 POP SWAP3 POP POP SWAP3 POP SWAP3 SWAP1 POP JUMP JUMPDEST PUSH32 0x4E487B7100000000000000000000000000000000000000000000000000000000 PUSH1 0x0 MSTORE PUSH1 0x41 PUSH1 0x4 MSTORE PUSH1 0x24 PUSH1 0x0 REVERT JUMPDEST PUSH32 0x4E487B7100000000000000000000000000000000000000000000000000000000 PUSH1 0x0 MSTORE PUSH1 0x22 PUSH1 0x4 MSTORE PUSH1 0x24 PUSH1 0x0 REVERT JUMPDEST PUSH1 0x0 PUSH1 0x2 DUP3 DIV SWAP1 POP PUSH1 0x1 DUP3 AND DUP1 PUSH2 0xE43 JUMPI PUSH1 0x7F DUP3 AND SWAP2 POP JUMPDEST PUSH1 0x20 DUP3 LT DUP2 SUB PUSH2 0xE56 JUMPI PUSH2 0xE55 PUSH2 0xDFC JUMP JUMPDEST JUMPDEST POP SWAP2 SWAP1 POP JUMP JUMPDEST PUSH32 0x596F752061726520417574686572697A65640000000000000000000000000000 PUSH1 0x0 DUP3 ADD MSTORE POP JUMP JUMPDEST PUSH1 0x0 PUSH2 0xE92 PUSH1 0x12 DUP4 PUSH2 0xAFF JUMP JUMPDEST SWAP2 POP PUSH2 0xE9D DUP3 PUSH2 0xE5C JUMP JUMPDEST PUSH1 0x20 DUP3 ADD SWAP1 POP SWAP2 SWAP1 POP JUMP JUMPDEST PUSH1 0x0 PUSH1 0x20 DUP3 ADD SWAP1 POP DUP2 DUP2 SUB PUSH1 0x0 DUP4 ADD MSTORE PUSH2 0xEC1 DUP2 PUSH2 0xE85 JUMP JUMPDEST SWAP1 POP SWAP2 SWAP1 POP JUMP JUMPDEST PUSH1 0x0 DUP2 SWAP1 POP DUP2 PUSH1 0x0 MSTORE PUSH1 0x20 PUSH1 0x0 KECCAK256 SWAP1 POP SWAP2 SWAP1 POP JUMP JUMPDEST PUSH1 0x0 PUSH1 0x20 PUSH1 0x1F DUP4 ADD DIV SWAP1 POP SWAP2 SWAP1 POP JUMP JUMPDEST PUSH1 0x0 DUP3 DUP3 SHL SWAP1 POP SWAP3 SWAP2 POP POP JUMP JUMPDEST PUSH1 0x0 PUSH1 0x8 DUP4 MUL PUSH2 0xF2A PUSH32 0xFFFFFFFFFFFFFFFFFFFFFFFFFFFFFFFFFFFFFFFFFFFFFFFFFFFFFFFFFFFFFFFF DUP3 PUSH2 0xEED JUMP JUMPDEST PUSH2 0xF34 DUP7 DUP4 PUSH2 0xEED JUMP JUMPDEST SWAP6 POP DUP1 NOT DUP5 AND SWAP4 POP DUP1 DUP7 AND DUP5 OR SWAP3 POP POP POP SWAP4 SWAP3 POP POP POP JUMP JUMPDEST PUSH1 0x0 DUP2 SWAP1 POP SWAP2 SWAP1 POP JUMP JUMPDEST PUSH1 0x0 PUSH2 0xF71 PUSH2 0xF6C PUSH2 0xF67 DUP5 PUSH2 0xA33 JUMP JUMPDEST PUSH2 0xF4C JUMP JUMPDEST PUSH2 0xA33 JUMP JUMPDEST SWAP1 POP SWAP2 SWAP1 POP JUMP JUMPDEST PUSH1 0x0 DUP2 SWAP1 POP SWAP2 SWAP1 POP JUMP JUMPDEST PUSH2 0xF8B DUP4 PUSH2 0xF56 JUMP JUMPDEST PUSH2 0xF9F PUSH2 0xF97 DUP3 PUSH2 0xF78 JUMP JUMPDEST DUP5 DUP5 SLOAD PUSH2 0xEFA JUMP JUMPDEST DUP3 SSTORE POP POP POP POP JUMP JUMPDEST PUSH1 0x0 SWAP1 JUMP JUMPDEST PUSH2 0xFB4 PUSH2 0xFA7 JUMP JUMPDEST PUSH2 0xFBF DUP2 DUP5 DUP5 PUSH2 0xF82 JUMP JUMPDEST POP POP POP JUMP JUMPDEST JUMPDEST DUP2 DUP2 LT ISZERO PUSH2 0xFE3 JUMPI PUSH2 0xFD8 PUSH1 0x0 DUP3 PUSH2 0xFAC JUMP JUMPDEST PUSH1 0x1 DUP2 ADD SWAP1 POP PUSH2 0xFC5 JUMP JUMPDEST POP POP JUMP JUMPDEST PUSH1 0x1F DUP3 GT ISZERO PUSH2 0x1028 JUMPI PUSH2 0xFF9 DUP2 PUSH2 0xEC8 JUMP JUMPDEST PUSH2 0x1002 DUP5 PUSH2 0xEDD JUMP JUMPDEST DUP2 ADD PUSH1 0x20 DUP6 LT ISZERO PUSH2 0x1011 JUMPI DUP2 SWAP1 POP JUMPDEST PUSH2 0x1025 PUSH2 0x101D DUP6 PUSH2 0xEDD JUMP JUMPDEST DUP4 ADD DUP3 PUSH2 0xFC4 JUMP JUMPDEST POP POP JUMPDEST POP POP POP JUMP JUMPDEST PUSH1 0x0 DUP3 DUP3 SHR SWAP1 POP SWAP3 SWAP2 POP POP JUMP JUMPDEST PUSH1 0x0 PUSH2 0x104B PUSH1 0x0 NOT DUP5 PUSH1 0x8 MUL PUSH2 0x102D JUMP JUMPDEST NOT DUP1 DUP4 AND SWAP2 POP POP SWAP3 SWAP2 POP POP JUMP JUMPDEST PUSH1 0x0 PUSH2 0x1064 DUP4 DUP4 PUSH2 0x103A JUMP JUMPDEST SWAP2 POP DUP3 PUSH1 0x2 MUL DUP3 OR SWAP1 POP SWAP3 SWAP2 POP POP JUMP JUMPDEST PUSH2 0x107D DUP3 PUSH2 0xAF4 JUMP JUMPDEST PUSH8 0xFFFFFFFFFFFFFFFF DUP2 GT ISZERO PUSH2 0x1096 JUMPI PUSH2 0x1095 PUSH2 0xDCD JUMP JUMPDEST JUMPDEST PUSH2 0x10A0 DUP3 SLOAD PUSH2 0xE2B JUMP JUMPDEST PUSH2 0x10AB DUP3 DUP3 DUP6 PUSH2 0xFE7 JUMP JUMPDEST PUSH1 0x0 PUSH1 0x20 SWAP1 POP PUSH1 0x1F DUP4 GT PUSH1 0x1 DUP2 EQ PUSH2 0x10DE JUMPI PUSH1 0x0 DUP5 ISZERO PUSH2 0x10CC JUMPI DUP3 DUP8 ADD MLOAD SWAP1 POP JUMPDEST PUSH2 0x10D6 DUP6 DUP3 PUSH2 0x1058 JUMP JUMPDEST DUP7 SSTORE POP PUSH2 0x113E JUMP JUMPDEST PUSH1 0x1F NOT DUP5 AND PUSH2 0x10EC DUP7 PUSH2 0xEC8 JUMP JUMPDEST PUSH1 0x0 JUMPDEST DUP3 DUP2 LT ISZERO PUSH2 0x1114 JUMPI DUP5 DUP10 ADD MLOAD DUP3 SSTORE PUSH1 0x1 DUP3 ADD SWAP2 POP PUSH1 0x20 DUP6 ADD SWAP5 POP PUSH1 0x20 DUP2 ADD SWAP1 POP PUSH2 0x10EF JUMP JUMPDEST DUP7 DUP4 LT ISZERO PUSH2 0x1131 JUMPI DUP5 DUP10 ADD MLOAD PUSH2 0x112D PUSH1 0x1F DUP10 AND DUP3 PUSH2 0x103A JUMP JUMPDEST DUP4 SSTORE POP JUMPDEST PUSH1 0x1 PUSH1 0x2 DUP9 MUL ADD DUP9 SSTORE POP POP POP JUMPDEST POP POP POP POP POP POP JUMP JUMPDEST PUSH32 0x4E487B7100000000000000000000000000000000000000000000000000000000 PUSH1 0x0 MSTORE PUSH1 0x11 PUSH1 0x4 MSTORE PUSH1 0x24 PUSH1 0x0 REVERT JUMPDEST PUSH1 0x0 PUSH2 0x1180 DUP3 PUSH2 0xA33 JUMP JUMPDEST SWAP2 POP PUSH32 0xFFFFFFFFFFFFFFFFFFFFFFFFFFFFFFFFFFFFFFFFFFFFFFFFFFFFFFFFFFFFFFFF DUP3 SUB PUSH2 0x11B2 JUMPI PUSH2 0x11B1 PUSH2 0x1146 JUMP JUMPDEST JUMPDEST PUSH1 0x1 DUP3 ADD SWAP1 POP SWAP2 SWAP1 POP JUMP INVALID LOG2 PUSH5 0x6970667358 0x22 SLT KECCAK256 DUP8 BALANCE PUSH22 0x45B6F91AFDFC4FE28879BEAB10E27884B74E45520188 PUSH22 0xF044D8E8CC9364736F6C634300081100330000000000 "
				},
				"gasEstimates": {
					"creation": {
						"codeDepositCost": "919000",
						"executionCost": "955",
						"totalCost": "919955"
					},
					"external": {
						"Operators(address,address)": "infinite",
						"allowOper(address)": "24968",
						"conversation(address,uint256)": "infinite",
						"disAllowOper(address)": "24901",
						"follow(address)": "49124",
						"followers(address,uint256)": "infinite",
						"getLatestTweets(uint256)": "infinite",
						"tweet(string)": "infinite",
						"tweetFrom(address,string)": "infinite",
						"tweets(uint256)": "infinite"
					},
					"internal": {
						"message(address,address,string calldata)": "infinite",
						"message(address,string calldata)": "infinite",
						"messageFrom(address,address,string calldata)": "infinite",
						"tweet(address,string calldata)": "infinite"
					}
				},
				"methodIdentifiers": {
					"Operators(address,address)": "94464f8e",
					"allowOper(address)": "8a53bd62",
					"conversation(address,uint256)": "5dfcaebf",
					"disAllowOper(address)": "b98ae4ac",
					"follow(address)": "4dbf27cc",
					"followers(address,uint256)": "ebd009d3",
					"getLatestTweets(uint256)": "4dc0a687",
					"tweet(string)": "fb46d4c5",
					"tweetFrom(address,string)": "c6bc463c",
					"tweets(uint256)": "e8d857b0"
				}
			},
			"storageLayout": {
				"storage": [
					{
						"astId": 26,
						"contract": "contracts/codeEater/twitter.sol:twitter",
						"label": "tweets",
						"offset": 0,
						"slot": "0",
						"type": "t_mapping(t_uint256,t_struct(Tweet)10_storage)"
					},
					{
						"astId": 31,
						"contract": "contracts/codeEater/twitter.sol:twitter",
						"label": "tweetsOf",
						"offset": 0,
						"slot": "1",
						"type": "t_mapping(t_address,t_array(t_uint256)dyn_storage)"
					},
					{
						"astId": 37,
						"contract": "contracts/codeEater/twitter.sol:twitter",
						"label": "conversation",
						"offset": 0,
						"slot": "2",
						"type": "t_mapping(t_address,t_array(t_struct(Message)21_storage)dyn_storage)"
					},
					{
						"astId": 42,
						"contract": "contracts/codeEater/twitter.sol:twitter",
						"label": "followers",
						"offset": 0,
						"slot": "3",
						"type": "t_mapping(t_address,t_array(t_address)dyn_storage)"
					},
					{
						"astId": 48,
						"contract": "contracts/codeEater/twitter.sol:twitter",
						"label": "Operators",
						"offset": 0,
						"slot": "4",
						"type": "t_mapping(t_address,t_mapping(t_address,t_bool))"
					},
					{
						"astId": 50,
						"contract": "contracts/codeEater/twitter.sol:twitter",
						"label": "nextId",
						"offset": 0,
						"slot": "5",
						"type": "t_uint256"
					},
					{
						"astId": 99,
						"contract": "contracts/codeEater/twitter.sol:twitter",
						"label": "nextMsgId",
						"offset": 0,
						"slot": "6",
						"type": "t_uint256"
					}
				],
				"types": {
					"t_address": {
						"encoding": "inplace",
						"label": "address",
						"numberOfBytes": "20"
					},
					"t_array(t_address)dyn_storage": {
						"base": "t_address",
						"encoding": "dynamic_array",
						"label": "address[]",
						"numberOfBytes": "32"
					},
					"t_array(t_struct(Message)21_storage)dyn_storage": {
						"base": "t_struct(Message)21_storage",
						"encoding": "dynamic_array",
						"label": "struct twitter.Message[]",
						"numberOfBytes": "32"
					},
					"t_array(t_uint256)dyn_storage": {
						"base": "t_uint256",
						"encoding": "dynamic_array",
						"label": "uint256[]",
						"numberOfBytes": "32"
					},
					"t_bool": {
						"encoding": "inplace",
						"label": "bool",
						"numberOfBytes": "1"
					},
					"t_mapping(t_address,t_array(t_address)dyn_storage)": {
						"encoding": "mapping",
						"key": "t_address",
						"label": "mapping(address => address[])",
						"numberOfBytes": "32",
						"value": "t_array(t_address)dyn_storage"
					},
					"t_mapping(t_address,t_array(t_struct(Message)21_storage)dyn_storage)": {
						"encoding": "mapping",
						"key": "t_address",
						"label": "mapping(address => struct twitter.Message[])",
						"numberOfBytes": "32",
						"value": "t_array(t_struct(Message)21_storage)dyn_storage"
					},
					"t_mapping(t_address,t_array(t_uint256)dyn_storage)": {
						"encoding": "mapping",
						"key": "t_address",
						"label": "mapping(address => uint256[])",
						"numberOfBytes": "32",
						"value": "t_array(t_uint256)dyn_storage"
					},
					"t_mapping(t_address,t_bool)": {
						"encoding": "mapping",
						"key": "t_address",
						"label": "mapping(address => bool)",
						"numberOfBytes": "32",
						"value": "t_bool"
					},
					"t_mapping(t_address,t_mapping(t_address,t_bool))": {
						"encoding": "mapping",
						"key": "t_address",
						"label": "mapping(address => mapping(address => bool))",
						"numberOfBytes": "32",
						"value": "t_mapping(t_address,t_bool)"
					},
					"t_mapping(t_uint256,t_struct(Tweet)10_storage)": {
						"encoding": "mapping",
						"key": "t_uint256",
						"label": "mapping(uint256 => struct twitter.Tweet)",
						"numberOfBytes": "32",
						"value": "t_struct(Tweet)10_storage"
					},
					"t_string_storage": {
						"encoding": "bytes",
						"label": "string",
						"numberOfBytes": "32"
					},
					"t_struct(Message)21_storage": {
						"encoding": "inplace",
						"label": "struct twitter.Message",
						"members": [
							{
								"astId": 12,
								"contract": "contracts/codeEater/twitter.sol:twitter",
								"label": "id",
								"offset": 0,
								"slot": "0",
								"type": "t_uint256"
							},
							{
								"astId": 14,
								"contract": "contracts/codeEater/twitter.sol:twitter",
								"label": "_from",
								"offset": 0,
								"slot": "1",
								"type": "t_address"
							},
							{
								"astId": 16,
								"contract": "contracts/codeEater/twitter.sol:twitter",
								"label": "_to",
								"offset": 0,
								"slot": "2",
								"type": "t_address"
							},
							{
								"astId": 18,
								"contract": "contracts/codeEater/twitter.sol:twitter",
								"label": "content",
								"offset": 0,
								"slot": "3",
								"type": "t_string_storage"
							},
							{
								"astId": 20,
								"contract": "contracts/codeEater/twitter.sol:twitter",
								"label": "createdAt",
								"offset": 0,
								"slot": "4",
								"type": "t_uint256"
							}
						],
						"numberOfBytes": "160"
					},
					"t_struct(Tweet)10_storage": {
						"encoding": "inplace",
						"label": "struct twitter.Tweet",
						"members": [
							{
								"astId": 3,
								"contract": "contracts/codeEater/twitter.sol:twitter",
								"label": "id",
								"offset": 0,
								"slot": "0",
								"type": "t_uint256"
							},
							{
								"astId": 5,
								"contract": "contracts/codeEater/twitter.sol:twitter",
								"label": "author",
								"offset": 0,
								"slot": "1",
								"type": "t_address"
							},
							{
								"astId": 7,
								"contract": "contracts/codeEater/twitter.sol:twitter",
								"label": "content",
								"offset": 0,
								"slot": "2",
								"type": "t_string_storage"
							},
							{
								"astId": 9,
								"contract": "contracts/codeEater/twitter.sol:twitter",
								"label": "createdAt",
								"offset": 0,
								"slot": "3",
								"type": "t_uint256"
							}
						],
						"numberOfBytes": "128"
					},
					"t_uint256": {
						"encoding": "inplace",
						"label": "uint256",
						"numberOfBytes": "32"
					}
				}
			},
			"userdoc": {
				"kind": "user",
				"methods": {},
				"version": 1
			}
		}
	}
}