{
	"contracts/codeEater/Asg1.sol": {
		"Asg1": {
			"abi": [
				{
					"inputs": [
						{
							"internalType": "uint256",
							"name": "_inp",
							"type": "uint256"
						}
					],
					"name": "Palindrome",
					"outputs": [
						{
							"internalType": "uint256",
							"name": "",
							"type": "uint256"
						}
					],
					"stateMutability": "pure",
					"type": "function"
				},
				{
					"inputs": [
						{
							"internalType": "uint256",
							"name": "_inp",
							"type": "uint256"
						}
					],
					"name": "amstrong",
					"outputs": [
						{
							"internalType": "uint256",
							"name": "",
							"type": "uint256"
						}
					],
					"stateMutability": "pure",
					"type": "function"
				},
				{
					"inputs": [
						{
							"internalType": "uint256",
							"name": "num1",
							"type": "uint256"
						},
						{
							"internalType": "uint256",
							"name": "num2",
							"type": "uint256"
						},
						{
							"internalType": "uint256",
							"name": "num3",
							"type": "uint256"
						}
					],
					"name": "avg",
					"outputs": [
						{
							"internalType": "uint256",
							"name": "",
							"type": "uint256"
						}
					],
					"stateMutability": "pure",
					"type": "function"
				},
				{
					"inputs": [
						{
							"internalType": "uint256",
							"name": "_num1",
							"type": "uint256"
						}
					],
					"name": "cube",
					"outputs": [
						{
							"internalType": "uint256",
							"name": "",
							"type": "uint256"
						}
					],
					"stateMutability": "pure",
					"type": "function"
				},
				{
					"inputs": [
						{
							"internalType": "uint256",
							"name": "x",
							"type": "uint256"
						},
						{
							"internalType": "uint256",
							"name": "y",
							"type": "uint256"
						}
					],
					"name": "expo",
					"outputs": [
						{
							"internalType": "uint256",
							"name": "",
							"type": "uint256"
						}
					],
					"stateMutability": "pure",
					"type": "function"
				},
				{
					"inputs": [
						{
							"internalType": "uint256",
							"name": "num",
							"type": "uint256"
						}
					],
					"name": "factorial",
					"outputs": [
						{
							"internalType": "uint256",
							"name": "",
							"type": "uint256"
						}
					],
					"stateMutability": "pure",
					"type": "function"
				},
				{
					"inputs": [
						{
							"internalType": "uint256",
							"name": "num",
							"type": "uint256"
						}
					],
					"name": "fibonnical",
					"outputs": [],
					"stateMutability": "nonpayable",
					"type": "function"
				},
				{
					"inputs": [],
					"name": "fibonnicalResult",
					"outputs": [
						{
							"internalType": "uint256",
							"name": "",
							"type": "uint256"
						}
					],
					"stateMutability": "view",
					"type": "function"
				},
				{
					"inputs": [
						{
							"internalType": "int256",
							"name": "num1",
							"type": "int256"
						},
						{
							"internalType": "int256",
							"name": "num2",
							"type": "int256"
						},
						{
							"internalType": "int256",
							"name": "num3",
							"type": "int256"
						}
					],
					"name": "greater",
					"outputs": [
						{
							"internalType": "int256",
							"name": "",
							"type": "int256"
						}
					],
					"stateMutability": "pure",
					"type": "function"
				},
				{
					"inputs": [
						{
							"internalType": "int256",
							"name": "x",
							"type": "int256"
						},
						{
							"internalType": "int256",
							"name": "y",
							"type": "int256"
						}
					],
					"name": "multiple_with_no_Op",
					"outputs": [
						{
							"internalType": "int256",
							"name": "",
							"type": "int256"
						}
					],
					"stateMutability": "pure",
					"type": "function"
				},
				{
					"inputs": [
						{
							"internalType": "int256",
							"name": "num",
							"type": "int256"
						}
					],
					"name": "oddOrEven",
					"outputs": [
						{
							"internalType": "uint256",
							"name": "",
							"type": "uint256"
						}
					],
					"stateMutability": "pure",
					"type": "function"
				},
				{
					"inputs": [
						{
							"internalType": "int256",
							"name": "num",
							"type": "int256"
						}
					],
					"name": "prime",
					"outputs": [
						{
							"internalType": "int256",
							"name": "",
							"type": "int256"
						}
					],
					"stateMutability": "pure",
					"type": "function"
				},
				{
					"inputs": [
						{
							"internalType": "uint256",
							"name": "_inp",
							"type": "uint256"
						}
					],
					"name": "reverseInt",
					"outputs": [
						{
							"internalType": "uint256",
							"name": "",
							"type": "uint256"
						}
					],
					"stateMutability": "pure",
					"type": "function"
				},
				{
					"inputs": [
						{
							"internalType": "uint256",
							"name": "_inp",
							"type": "uint256"
						}
					],
					"name": "sumOfDigits",
					"outputs": [
						{
							"internalType": "uint256",
							"name": "",
							"type": "uint256"
						}
					],
					"stateMutability": "pure",
					"type": "function"
				},
				{
					"inputs": [],
					"name": "swap",
					"outputs": [],
					"stateMutability": "pure",
					"type": "function"
				}
			],
			"devdoc": {
				"kind": "dev",
				"methods": {},
				"version": 1
			},
			"evm": {
				"assembly": "    /* \"contracts/codeEater/Asg1.sol\":56:3777  contract Asg1{... */\n  mstore(0x40, 0x80)\n  callvalue\n  dup1\n  iszero\n  tag_1\n  jumpi\n  0x00\n  dup1\n  revert\ntag_1:\n  pop\n  dataSize(sub_0)\n  dup1\n  dataOffset(sub_0)\n  0x00\n  codecopy\n  0x00\n  return\nstop\n\nsub_0: assembly {\n        /* \"contracts/codeEater/Asg1.sol\":56:3777  contract Asg1{... */\n      mstore(0x40, 0x80)\n      callvalue\n      dup1\n      iszero\n      tag_1\n      jumpi\n      0x00\n      dup1\n      revert\n    tag_1:\n      pop\n      jumpi(tag_2, lt(calldatasize, 0x04))\n      shr(0xe0, calldataload(0x00))\n      dup1\n      0x92cc2841\n      gt\n      tag_18\n      jumpi\n      dup1\n      0xd9ea8e64\n      gt\n      tag_19\n      jumpi\n      dup1\n      0xd9ea8e64\n      eq\n      tag_14\n      jumpi\n      dup1\n      0xf26c79ef\n      eq\n      tag_15\n      jumpi\n      dup1\n      0xf492c000\n      eq\n      tag_16\n      jumpi\n      dup1\n      0xf4bf03c7\n      eq\n      tag_17\n      jumpi\n      jump(tag_2)\n    tag_19:\n      dup1\n      0x92cc2841\n      eq\n      tag_10\n      jumpi\n      dup1\n      0x9e098fc1\n      eq\n      tag_11\n      jumpi\n      dup1\n      0xb4133721\n      eq\n      tag_12\n      jumpi\n      dup1\n      0xcdab7807\n      eq\n      tag_13\n      jumpi\n      jump(tag_2)\n    tag_18:\n      dup1\n      0x8119c065\n      gt\n      tag_20\n      jumpi\n      dup1\n      0x8119c065\n      eq\n      tag_6\n      jumpi\n      dup1\n      0x83714834\n      eq\n      tag_7\n      jumpi\n      dup1\n      0x83d3705e\n      eq\n      tag_8\n      jumpi\n      dup1\n      0x8ce32d21\n      eq\n      tag_9\n      jumpi\n      jump(tag_2)\n    tag_20:\n      dup1\n      0x17d95c7e\n      eq\n      tag_3\n      jumpi\n      dup1\n      0x46439726\n      eq\n      tag_4\n      jumpi\n      dup1\n      0x4f4752ba\n      eq\n      tag_5\n      jumpi\n    tag_2:\n      0x00\n      dup1\n      revert\n        /* \"contracts/codeEater/Asg1.sol\":3499:3775  function multiple_with_no_Op(int x,int y) public pure returns(int){... */\n    tag_3:\n      tag_21\n      0x04\n      dup1\n      calldatasize\n      sub\n      dup2\n      add\n      swap1\n      tag_22\n      swap2\n      swap1\n      tag_23\n      jump\t// in\n    tag_22:\n      tag_24\n      jump\t// in\n    tag_21:\n      mload(0x40)\n      tag_25\n      swap2\n      swap1\n      tag_26\n      jump\t// in\n    tag_25:\n      mload(0x40)\n      dup1\n      swap2\n      sub\n      swap1\n      return\n        /* \"contracts/codeEater/Asg1.sol\":218:333  function oddOrEven(int num) pure public returns(uint){... */\n    tag_4:\n      tag_27\n      0x04\n      dup1\n      calldatasize\n      sub\n      dup2\n      add\n      swap1\n      tag_28\n      swap2\n      swap1\n      tag_29\n      jump\t// in\n    tag_28:\n      tag_30\n      jump\t// in\n    tag_27:\n      mload(0x40)\n      tag_31\n      swap2\n      swap1\n      tag_32\n      jump\t// in\n    tag_31:\n      mload(0x40)\n      dup1\n      swap2\n      sub\n      swap1\n      return\n        /* \"contracts/codeEater/Asg1.sol\":475:558  function expo(uint x, uint y) pure public returns(uint){... */\n    tag_5:\n      tag_33\n      0x04\n      dup1\n      calldatasize\n      sub\n      dup2\n      add\n      swap1\n      tag_34\n      swap2\n      swap1\n      tag_35\n      jump\t// in\n    tag_34:\n      tag_36\n      jump\t// in\n    tag_33:\n      mload(0x40)\n      tag_37\n      swap2\n      swap1\n      tag_32\n      jump\t// in\n    tag_37:\n      mload(0x40)\n      dup1\n      swap2\n      sub\n      swap1\n      return\n        /* \"contracts/codeEater/Asg1.sol\":571:703  function swap() pure public{... */\n    tag_6:\n      tag_38\n      tag_39\n      jump\t// in\n    tag_38:\n      stop\n        /* \"contracts/codeEater/Asg1.sol\":2657:2908  function factorial(uint num) public pure returns(uint){... */\n    tag_7:\n      tag_40\n      0x04\n      dup1\n      calldatasize\n      sub\n      dup2\n      add\n      swap1\n      tag_41\n      swap2\n      swap1\n      tag_42\n      jump\t// in\n    tag_41:\n      tag_43\n      jump\t// in\n    tag_40:\n      mload(0x40)\n      tag_44\n      swap2\n      swap1\n      tag_32\n      jump\t// in\n    tag_44:\n      mload(0x40)\n      dup1\n      swap2\n      sub\n      swap1\n      return\n        /* \"contracts/codeEater/Asg1.sol\":953:1581  function amstrong(uint _inp) public pure returns(uint){... */\n    tag_8:\n      tag_45\n      0x04\n      dup1\n      calldatasize\n      sub\n      dup2\n      add\n      swap1\n      tag_46\n      swap2\n      swap1\n      tag_42\n      jump\t// in\n    tag_46:\n      tag_47\n      jump\t// in\n    tag_45:\n      mload(0x40)\n      tag_48\n      swap2\n      swap1\n      tag_32\n      jump\t// in\n    tag_48:\n      mload(0x40)\n      dup1\n      swap2\n      sub\n      swap1\n      return\n        /* \"contracts/codeEater/Asg1.sol\":2365:2643  function sumOfDigits(uint _inp) external pure returns(uint){... */\n    tag_9:\n      tag_49\n      0x04\n      dup1\n      calldatasize\n      sub\n      dup2\n      add\n      swap1\n      tag_50\n      swap2\n      swap1\n      tag_42\n      jump\t// in\n    tag_50:\n      tag_51\n      jump\t// in\n    tag_49:\n      mload(0x40)\n      tag_52\n      swap2\n      swap1\n      tag_32\n      jump\t// in\n    tag_52:\n      mload(0x40)\n      dup1\n      swap2\n      sub\n      swap1\n      return\n        /* \"contracts/codeEater/Asg1.sol\":346:462  function avg(uint num1, uint num2, uint num3) public pure returns(uint){... */\n    tag_10:\n      tag_53\n      0x04\n      dup1\n      calldatasize\n      sub\n      dup2\n      add\n      swap1\n      tag_54\n      swap2\n      swap1\n      tag_55\n      jump\t// in\n    tag_54:\n      tag_56\n      jump\t// in\n    tag_53:\n      mload(0x40)\n      tag_57\n      swap2\n      swap1\n      tag_32\n      jump\t// in\n    tag_57:\n      mload(0x40)\n      dup1\n      swap2\n      sub\n      swap1\n      return\n        /* \"contracts/codeEater/Asg1.sol\":2077:2351  function reverseInt(uint _inp) external pure returns(uint){... */\n    tag_11:\n      tag_58\n      0x04\n      dup1\n      calldatasize\n      sub\n      dup2\n      add\n      swap1\n      tag_59\n      swap2\n      swap1\n      tag_42\n      jump\t// in\n    tag_59:\n      tag_60\n      jump\t// in\n    tag_58:\n      mload(0x40)\n      tag_61\n      swap2\n      swap1\n      tag_32\n      jump\t// in\n    tag_61:\n      mload(0x40)\n      dup1\n      swap2\n      sub\n      swap1\n      return\n        /* \"contracts/codeEater/Asg1.sol\":3213:3485  function fibonnicalResult() external view returns(uint){... */\n    tag_12:\n      tag_62\n      tag_63\n      jump\t// in\n    tag_62:\n      mload(0x40)\n      tag_64\n      swap2\n      swap1\n      tag_32\n      jump\t// in\n    tag_64:\n      mload(0x40)\n      dup1\n      swap2\n      sub\n      swap1\n      return\n        /* \"contracts/codeEater/Asg1.sol\":1763:2059  function Palindrome(uint _inp) external pure returns(uint){... */\n    tag_13:\n      tag_65\n      0x04\n      dup1\n      calldatasize\n      sub\n      dup2\n      add\n      swap1\n      tag_66\n      swap2\n      swap1\n      tag_42\n      jump\t// in\n    tag_66:\n      tag_67\n      jump\t// in\n    tag_65:\n      mload(0x40)\n      tag_68\n      swap2\n      swap1\n      tag_32\n      jump\t// in\n    tag_68:\n      mload(0x40)\n      dup1\n      swap2\n      sub\n      swap1\n      return\n        /* \"contracts/codeEater/Asg1.sol\":1590:1753  function greater(int num1, int num2, int num3) public pure returns(int){... */\n    tag_14:\n      tag_69\n      0x04\n      dup1\n      calldatasize\n      sub\n      dup2\n      add\n      swap1\n      tag_70\n      swap2\n      swap1\n      tag_71\n      jump\t// in\n    tag_70:\n      tag_72\n      jump\t// in\n    tag_69:\n      mload(0x40)\n      tag_73\n      swap2\n      swap1\n      tag_26\n      jump\t// in\n    tag_73:\n      mload(0x40)\n      dup1\n      swap2\n      sub\n      swap1\n      return\n        /* \"contracts/codeEater/Asg1.sol\":2922:3208  function fibonnical(uint num) external {... */\n    tag_15:\n      tag_74\n      0x04\n      dup1\n      calldatasize\n      sub\n      dup2\n      add\n      swap1\n      tag_75\n      swap2\n      swap1\n      tag_42\n      jump\t// in\n    tag_75:\n      tag_76\n      jump\t// in\n    tag_74:\n      stop\n        /* \"contracts/codeEater/Asg1.sol\":716:944  function prime(int num) public pure returns(int){... */\n    tag_16:\n      tag_77\n      0x04\n      dup1\n      calldatasize\n      sub\n      dup2\n      add\n      swap1\n      tag_78\n      swap2\n      swap1\n      tag_29\n      jump\t// in\n    tag_78:\n      tag_79\n      jump\t// in\n    tag_77:\n      mload(0x40)\n      tag_80\n      swap2\n      swap1\n      tag_26\n      jump\t// in\n    tag_80:\n      mload(0x40)\n      dup1\n      swap2\n      sub\n      swap1\n      return\n        /* \"contracts/codeEater/Asg1.sol\":120:205  function cube(uint _num1) external pure returns(uint){... */\n    tag_17:\n      tag_81\n      0x04\n      dup1\n      calldatasize\n      sub\n      dup2\n      add\n      swap1\n      tag_82\n      swap2\n      swap1\n      tag_42\n      jump\t// in\n    tag_82:\n      tag_83\n      jump\t// in\n    tag_81:\n      mload(0x40)\n      tag_84\n      swap2\n      swap1\n      tag_32\n      jump\t// in\n    tag_84:\n      mload(0x40)\n      dup1\n      swap2\n      sub\n      swap1\n      return\n        /* \"contracts/codeEater/Asg1.sol\":3499:3775  function multiple_with_no_Op(int x,int y) public pure returns(int){... */\n    tag_24:\n        /* \"contracts/codeEater/Asg1.sol\":3561:3564  int */\n      0x00\n        /* \"contracts/codeEater/Asg1.sol\":3612:3613  0 */\n      dup1\n        /* \"contracts/codeEater/Asg1.sol\":3609:3610  x */\n      dup4\n        /* \"contracts/codeEater/Asg1.sol\":3609:3613  x==0 */\n      eq\n        /* \"contracts/codeEater/Asg1.sol\":3609:3619  x==0||y==0 */\n      dup1\n      tag_86\n      jumpi\n      pop\n        /* \"contracts/codeEater/Asg1.sol\":3618:3619  0 */\n      0x00\n        /* \"contracts/codeEater/Asg1.sol\":3615:3616  y */\n      dup3\n        /* \"contracts/codeEater/Asg1.sol\":3615:3619  y==0 */\n      eq\n        /* \"contracts/codeEater/Asg1.sol\":3609:3619  x==0||y==0 */\n    tag_86:\n        /* \"contracts/codeEater/Asg1.sol\":3605:3629  if (x==0||y==0) return 0 */\n      iszero\n      tag_87\n      jumpi\n        /* \"contracts/codeEater/Asg1.sol\":3628:3629  0 */\n      0x00\n        /* \"contracts/codeEater/Asg1.sol\":3621:3629  return 0 */\n      swap1\n      pop\n      jump(tag_85)\n        /* \"contracts/codeEater/Asg1.sol\":3605:3629  if (x==0||y==0) return 0 */\n    tag_87:\n        /* \"contracts/codeEater/Asg1.sol\":3645:3646  0 */\n      0x00\n        /* \"contracts/codeEater/Asg1.sol\":3643:3644  y */\n      dup3\n        /* \"contracts/codeEater/Asg1.sol\":3643:3646  y>0 */\n      sgt\n        /* \"contracts/codeEater/Asg1.sol\":3639:3685  if (y>0) return x + multiple_with_no_Op(x,y-1) */\n      iszero\n      tag_88\n      jumpi\n        /* \"contracts/codeEater/Asg1.sol\":3659:3685  multiple_with_no_Op(x,y-1) */\n      tag_89\n        /* \"contracts/codeEater/Asg1.sol\":3679:3680  x */\n      dup4\n        /* \"contracts/codeEater/Asg1.sol\":3683:3684  1 */\n      0x01\n        /* \"contracts/codeEater/Asg1.sol\":3681:3682  y */\n      dup5\n        /* \"contracts/codeEater/Asg1.sol\":3681:3684  y-1 */\n      tag_90\n      swap2\n      swap1\n      tag_91\n      jump\t// in\n    tag_90:\n        /* \"contracts/codeEater/Asg1.sol\":3659:3678  multiple_with_no_Op */\n      tag_24\n        /* \"contracts/codeEater/Asg1.sol\":3659:3685  multiple_with_no_Op(x,y-1) */\n      jump\t// in\n    tag_89:\n        /* \"contracts/codeEater/Asg1.sol\":3655:3656  x */\n      dup4\n        /* \"contracts/codeEater/Asg1.sol\":3655:3685  x + multiple_with_no_Op(x,y-1) */\n      tag_92\n      swap2\n      swap1\n      tag_93\n      jump\t// in\n    tag_92:\n        /* \"contracts/codeEater/Asg1.sol\":3648:3685  return x + multiple_with_no_Op(x,y-1) */\n      swap1\n      pop\n      jump(tag_85)\n        /* \"contracts/codeEater/Asg1.sol\":3639:3685  if (y>0) return x + multiple_with_no_Op(x,y-1) */\n    tag_88:\n        /* \"contracts/codeEater/Asg1.sol\":3701:3702  0 */\n      0x00\n        /* \"contracts/codeEater/Asg1.sol\":3699:3700  y */\n      dup3\n        /* \"contracts/codeEater/Asg1.sol\":3699:3702  y<0 */\n      slt\n        /* \"contracts/codeEater/Asg1.sol\":3695:3746  if (y<0) return -( x + multiple_with_no_Op(x,y-1) ) */\n      iszero\n      tag_94\n      jumpi\n        /* \"contracts/codeEater/Asg1.sol\":3718:3744  multiple_with_no_Op(x,y-1) */\n      tag_95\n        /* \"contracts/codeEater/Asg1.sol\":3738:3739  x */\n      dup4\n        /* \"contracts/codeEater/Asg1.sol\":3742:3743  1 */\n      0x01\n        /* \"contracts/codeEater/Asg1.sol\":3740:3741  y */\n      dup5\n        /* \"contracts/codeEater/Asg1.sol\":3740:3743  y-1 */\n      tag_96\n      swap2\n      swap1\n      tag_91\n      jump\t// in\n    tag_96:\n        /* \"contracts/codeEater/Asg1.sol\":3718:3737  multiple_with_no_Op */\n      tag_24\n        /* \"contracts/codeEater/Asg1.sol\":3718:3744  multiple_with_no_Op(x,y-1) */\n      jump\t// in\n    tag_95:\n        /* \"contracts/codeEater/Asg1.sol\":3714:3715  x */\n      dup4\n        /* \"contracts/codeEater/Asg1.sol\":3714:3744  x + multiple_with_no_Op(x,y-1) */\n      tag_97\n      swap2\n      swap1\n      tag_93\n      jump\t// in\n    tag_97:\n        /* \"contracts/codeEater/Asg1.sol\":3711:3746  -( x + multiple_with_no_Op(x,y-1) ) */\n      tag_98\n      swap1\n      tag_99\n      jump\t// in\n    tag_98:\n        /* \"contracts/codeEater/Asg1.sol\":3704:3746  return -( x + multiple_with_no_Op(x,y-1) ) */\n      swap1\n      pop\n      jump(tag_85)\n        /* \"contracts/codeEater/Asg1.sol\":3695:3746  if (y<0) return -( x + multiple_with_no_Op(x,y-1) ) */\n    tag_94:\n        /* \"contracts/codeEater/Asg1.sol\":3499:3775  function multiple_with_no_Op(int x,int y) public pure returns(int){... */\n    tag_85:\n      swap3\n      swap2\n      pop\n      pop\n      jump\t// out\n        /* \"contracts/codeEater/Asg1.sol\":218:333  function oddOrEven(int num) pure public returns(uint){... */\n    tag_30:\n        /* \"contracts/codeEater/Asg1.sol\":266:270  uint */\n      0x00\n        /* \"contracts/codeEater/Asg1.sol\":291:292  0 */\n      dup1\n        /* \"contracts/codeEater/Asg1.sol\":288:289  2 */\n      0x02\n        /* \"contracts/codeEater/Asg1.sol\":284:287  num */\n      dup4\n        /* \"contracts/codeEater/Asg1.sol\":284:289  num%2 */\n      tag_101\n      swap2\n      swap1\n      tag_102\n      jump\t// in\n    tag_101:\n        /* \"contracts/codeEater/Asg1.sol\":284:292  num%2==0 */\n      eq\n        /* \"contracts/codeEater/Asg1.sol\":281:326  if(num%2==0)  return 1;... */\n      iszero\n      tag_103\n      jumpi\n        /* \"contracts/codeEater/Asg1.sol\":302:303  1 */\n      0x01\n        /* \"contracts/codeEater/Asg1.sol\":295:303  return 1 */\n      swap1\n      pop\n      jump(tag_100)\n        /* \"contracts/codeEater/Asg1.sol\":281:326  if(num%2==0)  return 1;... */\n    tag_103:\n        /* \"contracts/codeEater/Asg1.sol\":325:326  0 */\n      0x00\n        /* \"contracts/codeEater/Asg1.sol\":318:326  return 0 */\n      swap1\n      pop\n        /* \"contracts/codeEater/Asg1.sol\":218:333  function oddOrEven(int num) pure public returns(uint){... */\n    tag_100:\n      swap2\n      swap1\n      pop\n      jump\t// out\n        /* \"contracts/codeEater/Asg1.sol\":475:558  function expo(uint x, uint y) pure public returns(uint){... */\n    tag_36:\n        /* \"contracts/codeEater/Asg1.sol\":525:529  uint */\n      0x00\n        /* \"contracts/codeEater/Asg1.sol\":550:551  y */\n      dup2\n        /* \"contracts/codeEater/Asg1.sol\":547:548  x */\n      dup4\n        /* \"contracts/codeEater/Asg1.sol\":547:551  x**y */\n      tag_106\n      swap2\n      swap1\n      tag_107\n      jump\t// in\n    tag_106:\n        /* \"contracts/codeEater/Asg1.sol\":540:551  return x**y */\n      swap1\n      pop\n        /* \"contracts/codeEater/Asg1.sol\":475:558  function expo(uint x, uint y) pure public returns(uint){... */\n      swap3\n      swap2\n      pop\n      pop\n      jump\t// out\n        /* \"contracts/codeEater/Asg1.sol\":571:703  function swap() pure public{... */\n    tag_39:\n        /* \"contracts/codeEater/Asg1.sol\":632:638  int  a */\n      0x00\n        /* \"contracts/codeEater/Asg1.sol\":641:642  1 */\n      0x01\n        /* \"contracts/codeEater/Asg1.sol\":632:642  int  a = 1 */\n      swap1\n      pop\n        /* \"contracts/codeEater/Asg1.sol\":652:658  int  b */\n      0x00\n        /* \"contracts/codeEater/Asg1.sol\":661:662  2 */\n      0x02\n        /* \"contracts/codeEater/Asg1.sol\":652:662  int  b = 2 */\n      swap1\n      pop\n        /* \"contracts/codeEater/Asg1.sol\":691:692  b */\n      dup1\n        /* \"contracts/codeEater/Asg1.sol\":694:695  a */\n      dup3\n        /* \"contracts/codeEater/Asg1.sol\":681:696  (a, b) = (b, a) */\n      dup1\n      swap3\n      pop\n      dup2\n      swap4\n      pop\n      pop\n      pop\n        /* \"contracts/codeEater/Asg1.sol\":598:703  {... */\n      pop\n      pop\n        /* \"contracts/codeEater/Asg1.sol\":571:703  function swap() pure public{... */\n      jump\t// out\n        /* \"contracts/codeEater/Asg1.sol\":2657:2908  function factorial(uint num) public pure returns(uint){... */\n    tag_43:\n        /* \"contracts/codeEater/Asg1.sol\":2706:2710  uint */\n      0x00\n        /* \"contracts/codeEater/Asg1.sol\":2721:2730  uint temp */\n      dup1\n        /* \"contracts/codeEater/Asg1.sol\":2733:2736  num */\n      dup3\n        /* \"contracts/codeEater/Asg1.sol\":2721:2736  uint temp = num */\n      swap1\n      pop\n        /* \"contracts/codeEater/Asg1.sol\":2746:2754  uint res */\n      0x00\n        /* \"contracts/codeEater/Asg1.sol\":2755:2756  1 */\n      0x01\n        /* \"contracts/codeEater/Asg1.sol\":2746:2756  uint res=1 */\n      swap1\n      pop\n        /* \"contracts/codeEater/Asg1.sol\":2766:2882  while(temp!=0){... */\n    tag_110:\n        /* \"contracts/codeEater/Asg1.sol\":2778:2779  0 */\n      0x00\n        /* \"contracts/codeEater/Asg1.sol\":2772:2776  temp */\n      dup3\n        /* \"contracts/codeEater/Asg1.sol\":2772:2779  temp!=0 */\n      eq\n        /* \"contracts/codeEater/Asg1.sol\":2766:2882  while(temp!=0){... */\n      tag_111\n      jumpi\n        /* \"contracts/codeEater/Asg1.sol\":2794:2806  uint lastDig */\n      0x00\n        /* \"contracts/codeEater/Asg1.sol\":2814:2816  10 */\n      0x0a\n        /* \"contracts/codeEater/Asg1.sol\":2809:2813  temp */\n      dup4\n        /* \"contracts/codeEater/Asg1.sol\":2809:2816  temp%10 */\n      tag_112\n      swap2\n      swap1\n      tag_113\n      jump\t// in\n    tag_112:\n        /* \"contracts/codeEater/Asg1.sol\":2794:2816  uint lastDig = temp%10 */\n      swap1\n      pop\n        /* \"contracts/codeEater/Asg1.sol\":2842:2849  lastDig */\n      dup1\n        /* \"contracts/codeEater/Asg1.sol\":2836:2839  res */\n      dup3\n        /* \"contracts/codeEater/Asg1.sol\":2836:2849  res * lastDig */\n      tag_114\n      swap2\n      swap1\n      tag_115\n      jump\t// in\n    tag_114:\n        /* \"contracts/codeEater/Asg1.sol\":2830:2849  res = res * lastDig */\n      swap2\n      pop\n        /* \"contracts/codeEater/Asg1.sol\":2869:2871  10 */\n      0x0a\n        /* \"contracts/codeEater/Asg1.sol\":2863:2871  temp/=10 */\n      dup4\n      tag_116\n      swap2\n      swap1\n      tag_117\n      jump\t// in\n    tag_116:\n      swap3\n      pop\n        /* \"contracts/codeEater/Asg1.sol\":2780:2882  {... */\n      pop\n        /* \"contracts/codeEater/Asg1.sol\":2766:2882  while(temp!=0){... */\n      jump(tag_110)\n    tag_111:\n        /* \"contracts/codeEater/Asg1.sol\":2898:2901  res */\n      dup1\n        /* \"contracts/codeEater/Asg1.sol\":2891:2901  return res */\n      swap3\n      pop\n      pop\n      pop\n        /* \"contracts/codeEater/Asg1.sol\":2657:2908  function factorial(uint num) public pure returns(uint){... */\n      swap2\n      swap1\n      pop\n      jump\t// out\n        /* \"contracts/codeEater/Asg1.sol\":953:1581  function amstrong(uint _inp) public pure returns(uint){... */\n    tag_47:\n        /* \"contracts/codeEater/Asg1.sol\":1002:1006  uint */\n      0x00\n        /* \"contracts/codeEater/Asg1.sol\":1048:1057  uint temp */\n      dup1\n        /* \"contracts/codeEater/Asg1.sol\":1060:1064  _inp */\n      dup3\n        /* \"contracts/codeEater/Asg1.sol\":1048:1064  uint temp = _inp */\n      swap1\n      pop\n        /* \"contracts/codeEater/Asg1.sol\":1074:1089  uint _inpLength */\n      0x00\n        /* \"contracts/codeEater/Asg1.sol\":1101:1121  uint calculatedInput */\n      dup1\n        /* \"contracts/codeEater/Asg1.sol\":1134:1207  while(temp!=0){... */\n    tag_119:\n        /* \"contracts/codeEater/Asg1.sol\":1146:1147  0 */\n      0x00\n        /* \"contracts/codeEater/Asg1.sol\":1140:1144  temp */\n      dup4\n        /* \"contracts/codeEater/Asg1.sol\":1140:1147  temp!=0 */\n      eq\n        /* \"contracts/codeEater/Asg1.sol\":1134:1207  while(temp!=0){... */\n      tag_120\n      jumpi\n        /* \"contracts/codeEater/Asg1.sol\":1162:1174  _inpLength++ */\n      dup2\n      dup1\n      tag_121\n      swap1\n      tag_122\n      jump\t// in\n    tag_121:\n      swap3\n      pop\n      pop\n        /* \"contracts/codeEater/Asg1.sol\":1194:1196  10 */\n      0x0a\n        /* \"contracts/codeEater/Asg1.sol\":1188:1196  temp/=10 */\n      dup4\n      tag_123\n      swap2\n      swap1\n      tag_117\n      jump\t// in\n    tag_123:\n      swap3\n      pop\n        /* \"contracts/codeEater/Asg1.sol\":1134:1207  while(temp!=0){... */\n      jump(tag_119)\n    tag_120:\n        /* \"contracts/codeEater/Asg1.sol\":1238:1239  0 */\n      0x00\n        /* \"contracts/codeEater/Asg1.sol\":1224:1234  _inpLength */\n      dup3\n        /* \"contracts/codeEater/Asg1.sol\":1224:1239  _inpLength != 0 */\n      eq\n      iszero\n        /* \"contracts/codeEater/Asg1.sol\":1216:1261  require(_inpLength != 0,\"not a valid number\") */\n      tag_124\n      jumpi\n      mload(0x40)\n      0x08c379a000000000000000000000000000000000000000000000000000000000\n      dup2\n      mstore\n      0x04\n      add\n      tag_125\n      swap1\n      tag_126\n      jump\t// in\n    tag_125:\n      mload(0x40)\n      dup1\n      swap2\n      sub\n      swap1\n      revert\n    tag_124:\n        /* \"contracts/codeEater/Asg1.sol\":1278:1282  _inp */\n      dup5\n        /* \"contracts/codeEater/Asg1.sol\":1271:1282  temp = _inp */\n      swap3\n      pop\n        /* \"contracts/codeEater/Asg1.sol\":1358:1526  while(temp!=0){... */\n    tag_127:\n        /* \"contracts/codeEater/Asg1.sol\":1370:1371  0 */\n      0x00\n        /* \"contracts/codeEater/Asg1.sol\":1364:1368  temp */\n      dup4\n        /* \"contracts/codeEater/Asg1.sol\":1364:1371  temp!=0 */\n      eq\n        /* \"contracts/codeEater/Asg1.sol\":1358:1526  while(temp!=0){... */\n      tag_128\n      jumpi\n        /* \"contracts/codeEater/Asg1.sol\":1386:1398  uint lastDig */\n      0x00\n        /* \"contracts/codeEater/Asg1.sol\":1406:1408  10 */\n      0x0a\n        /* \"contracts/codeEater/Asg1.sol\":1401:1405  temp */\n      dup5\n        /* \"contracts/codeEater/Asg1.sol\":1401:1408  temp%10 */\n      tag_129\n      swap2\n      swap1\n      tag_113\n      jump\t// in\n    tag_129:\n        /* \"contracts/codeEater/Asg1.sol\":1386:1408  uint lastDig = temp%10 */\n      swap1\n      pop\n        /* \"contracts/codeEater/Asg1.sol\":1483:1493  _inpLength */\n      dup3\n        /* \"contracts/codeEater/Asg1.sol\":1474:1481  lastDig */\n      dup2\n        /* \"contracts/codeEater/Asg1.sol\":1474:1493  lastDig**_inpLength */\n      tag_130\n      swap2\n      swap1\n      tag_107\n      jump\t// in\n    tag_130:\n        /* \"contracts/codeEater/Asg1.sol\":1456:1471  calculatedInput */\n      dup3\n        /* \"contracts/codeEater/Asg1.sol\":1456:1493  calculatedInput + lastDig**_inpLength */\n      tag_131\n      swap2\n      swap1\n      tag_132\n      jump\t// in\n    tag_131:\n        /* \"contracts/codeEater/Asg1.sol\":1439:1493  calculatedInput= calculatedInput + lastDig**_inpLength */\n      swap2\n      pop\n        /* \"contracts/codeEater/Asg1.sol\":1513:1515  10 */\n      0x0a\n        /* \"contracts/codeEater/Asg1.sol\":1507:1515  temp/=10 */\n      dup5\n      tag_133\n      swap2\n      swap1\n      tag_117\n      jump\t// in\n    tag_133:\n      swap4\n      pop\n        /* \"contracts/codeEater/Asg1.sol\":1372:1526  {... */\n      pop\n        /* \"contracts/codeEater/Asg1.sol\":1358:1526  while(temp!=0){... */\n      jump(tag_127)\n    tag_128:\n        /* \"contracts/codeEater/Asg1.sol\":1550:1565  calculatedInput */\n      dup1\n        /* \"contracts/codeEater/Asg1.sol\":1542:1546  _inp */\n      dup6\n        /* \"contracts/codeEater/Asg1.sol\":1542:1565  _inp == calculatedInput */\n      eq\n        /* \"contracts/codeEater/Asg1.sol\":1542:1573  _inp == calculatedInput ? 1 : 0 */\n      tag_134\n      jumpi\n        /* \"contracts/codeEater/Asg1.sol\":1572:1573  0 */\n      0x00\n        /* \"contracts/codeEater/Asg1.sol\":1542:1573  _inp == calculatedInput ? 1 : 0 */\n      jump(tag_135)\n    tag_134:\n        /* \"contracts/codeEater/Asg1.sol\":1568:1569  1 */\n      0x01\n        /* \"contracts/codeEater/Asg1.sol\":1542:1573  _inp == calculatedInput ? 1 : 0 */\n    tag_135:\n        /* \"contracts/codeEater/Asg1.sol\":1535:1573  return _inp == calculatedInput ? 1 : 0 */\n      0xff\n      and\n      swap4\n      pop\n      pop\n      pop\n      pop\n        /* \"contracts/codeEater/Asg1.sol\":953:1581  function amstrong(uint _inp) public pure returns(uint){... */\n      swap2\n      swap1\n      pop\n      jump\t// out\n        /* \"contracts/codeEater/Asg1.sol\":2365:2643  function sumOfDigits(uint _inp) external pure returns(uint){... */\n    tag_51:\n        /* \"contracts/codeEater/Asg1.sol\":2419:2423  uint */\n      0x00\n        /* \"contracts/codeEater/Asg1.sol\":2434:2443  uint temp */\n      dup1\n        /* \"contracts/codeEater/Asg1.sol\":2446:2450  _inp */\n      dup3\n        /* \"contracts/codeEater/Asg1.sol\":2434:2450  uint temp = _inp */\n      swap1\n      pop\n        /* \"contracts/codeEater/Asg1.sol\":2460:2472  uint _inpSum */\n      0x00\n        /* \"contracts/codeEater/Asg1.sol\":2488:2612  while(temp!=0){... */\n    tag_137:\n        /* \"contracts/codeEater/Asg1.sol\":2500:2501  0 */\n      0x00\n        /* \"contracts/codeEater/Asg1.sol\":2494:2498  temp */\n      dup3\n        /* \"contracts/codeEater/Asg1.sol\":2494:2501  temp!=0 */\n      eq\n        /* \"contracts/codeEater/Asg1.sol\":2488:2612  while(temp!=0){... */\n      tag_138\n      jumpi\n        /* \"contracts/codeEater/Asg1.sol\":2516:2528  uint lastDig */\n      0x00\n        /* \"contracts/codeEater/Asg1.sol\":2536:2538  10 */\n      0x0a\n        /* \"contracts/codeEater/Asg1.sol\":2531:2535  temp */\n      dup4\n        /* \"contracts/codeEater/Asg1.sol\":2531:2538  temp%10 */\n      tag_139\n      swap2\n      swap1\n      tag_113\n      jump\t// in\n    tag_139:\n        /* \"contracts/codeEater/Asg1.sol\":2516:2538  uint lastDig = temp%10 */\n      swap1\n      pop\n        /* \"contracts/codeEater/Asg1.sol\":2572:2579  lastDig */\n      dup1\n        /* \"contracts/codeEater/Asg1.sol\":2562:2569  _inpSum */\n      dup3\n        /* \"contracts/codeEater/Asg1.sol\":2562:2579  _inpSum + lastDig */\n      tag_140\n      swap2\n      swap1\n      tag_132\n      jump\t// in\n    tag_140:\n        /* \"contracts/codeEater/Asg1.sol\":2552:2579  _inpSum = _inpSum + lastDig */\n      swap2\n      pop\n        /* \"contracts/codeEater/Asg1.sol\":2599:2601  10 */\n      0x0a\n        /* \"contracts/codeEater/Asg1.sol\":2593:2601  temp/=10 */\n      dup4\n      tag_141\n      swap2\n      swap1\n      tag_117\n      jump\t// in\n    tag_141:\n      swap3\n      pop\n        /* \"contracts/codeEater/Asg1.sol\":2502:2612  {... */\n      pop\n        /* \"contracts/codeEater/Asg1.sol\":2488:2612  while(temp!=0){... */\n      jump(tag_137)\n    tag_138:\n        /* \"contracts/codeEater/Asg1.sol\":2628:2635  _inpSum */\n      dup1\n        /* \"contracts/codeEater/Asg1.sol\":2621:2635  return _inpSum */\n      swap3\n      pop\n      pop\n      pop\n        /* \"contracts/codeEater/Asg1.sol\":2365:2643  function sumOfDigits(uint _inp) external pure returns(uint){... */\n      swap2\n      swap1\n      pop\n      jump\t// out\n        /* \"contracts/codeEater/Asg1.sol\":346:462  function avg(uint num1, uint num2, uint num3) public pure returns(uint){... */\n    tag_56:\n        /* \"contracts/codeEater/Asg1.sol\":412:416  uint */\n      0x00\n        /* \"contracts/codeEater/Asg1.sol\":454:455  3 */\n      0x03\n        /* \"contracts/codeEater/Asg1.sol\":448:452  num3 */\n      dup3\n        /* \"contracts/codeEater/Asg1.sol\":442:446  num2 */\n      dup5\n        /* \"contracts/codeEater/Asg1.sol\":436:440  num1 */\n      dup7\n        /* \"contracts/codeEater/Asg1.sol\":436:446  num1+ num2 */\n      tag_143\n      swap2\n      swap1\n      tag_132\n      jump\t// in\n    tag_143:\n        /* \"contracts/codeEater/Asg1.sol\":436:452  num1+ num2+ num3 */\n      tag_144\n      swap2\n      swap1\n      tag_132\n      jump\t// in\n    tag_144:\n        /* \"contracts/codeEater/Asg1.sol\":434:455  ( num1+ num2+ num3)/3 */\n      tag_145\n      swap2\n      swap1\n      tag_117\n      jump\t// in\n    tag_145:\n        /* \"contracts/codeEater/Asg1.sol\":427:455  return ( num1+ num2+ num3)/3 */\n      swap1\n      pop\n        /* \"contracts/codeEater/Asg1.sol\":346:462  function avg(uint num1, uint num2, uint num3) public pure returns(uint){... */\n      swap4\n      swap3\n      pop\n      pop\n      pop\n      jump\t// out\n        /* \"contracts/codeEater/Asg1.sol\":2077:2351  function reverseInt(uint _inp) external pure returns(uint){... */\n    tag_60:\n        /* \"contracts/codeEater/Asg1.sol\":2130:2134  uint */\n      0x00\n        /* \"contracts/codeEater/Asg1.sol\":2145:2158  uint reversed */\n      dup1\n        /* \"contracts/codeEater/Asg1.sol\":2168:2176  uint tmp */\n      0x00\n        /* \"contracts/codeEater/Asg1.sol\":2179:2183  _inp */\n      dup4\n        /* \"contracts/codeEater/Asg1.sol\":2168:2183  uint tmp = _inp */\n      swap1\n      pop\n        /* \"contracts/codeEater/Asg1.sol\":2193:2320  while(tmp!=0){... */\n    tag_147:\n        /* \"contracts/codeEater/Asg1.sol\":2204:2205  0 */\n      0x00\n        /* \"contracts/codeEater/Asg1.sol\":2199:2202  tmp */\n      dup2\n        /* \"contracts/codeEater/Asg1.sol\":2199:2205  tmp!=0 */\n      eq\n        /* \"contracts/codeEater/Asg1.sol\":2193:2320  while(tmp!=0){... */\n      tag_148\n      jumpi\n        /* \"contracts/codeEater/Asg1.sol\":2220:2232  uint lastDig */\n      0x00\n        /* \"contracts/codeEater/Asg1.sol\":2239:2241  10 */\n      0x0a\n        /* \"contracts/codeEater/Asg1.sol\":2235:2238  tmp */\n      dup3\n        /* \"contracts/codeEater/Asg1.sol\":2235:2241  tmp%10 */\n      tag_149\n      swap2\n      swap1\n      tag_113\n      jump\t// in\n    tag_149:\n        /* \"contracts/codeEater/Asg1.sol\":2220:2241  uint lastDig = tmp%10 */\n      swap1\n      pop\n        /* \"contracts/codeEater/Asg1.sol\":2281:2288  lastDig */\n      dup1\n        /* \"contracts/codeEater/Asg1.sol\":2276:2278  10 */\n      0x0a\n        /* \"contracts/codeEater/Asg1.sol\":2266:2274  reversed */\n      dup5\n        /* \"contracts/codeEater/Asg1.sol\":2266:2278  reversed *10 */\n      tag_150\n      swap2\n      swap1\n      tag_115\n      jump\t// in\n    tag_150:\n        /* \"contracts/codeEater/Asg1.sol\":2266:2288  reversed *10 + lastDig */\n      tag_151\n      swap2\n      swap1\n      tag_132\n      jump\t// in\n    tag_151:\n        /* \"contracts/codeEater/Asg1.sol\":2255:2288  reversed = reversed *10 + lastDig */\n      swap3\n      pop\n        /* \"contracts/codeEater/Asg1.sol\":2307:2309  10 */\n      0x0a\n        /* \"contracts/codeEater/Asg1.sol\":2302:2309  tmp/=10 */\n      dup3\n      tag_152\n      swap2\n      swap1\n      tag_117\n      jump\t// in\n    tag_152:\n      swap2\n      pop\n        /* \"contracts/codeEater/Asg1.sol\":2206:2320  {... */\n      pop\n        /* \"contracts/codeEater/Asg1.sol\":2193:2320  while(tmp!=0){... */\n      jump(tag_147)\n    tag_148:\n        /* \"contracts/codeEater/Asg1.sol\":2336:2344  reversed */\n      dup2\n        /* \"contracts/codeEater/Asg1.sol\":2329:2344  return reversed */\n      swap3\n      pop\n      pop\n      pop\n        /* \"contracts/codeEater/Asg1.sol\":2077:2351  function reverseInt(uint _inp) external pure returns(uint){... */\n      swap2\n      swap1\n      pop\n      jump\t// out\n        /* \"contracts/codeEater/Asg1.sol\":3213:3485  function fibonnicalResult() external view returns(uint){... */\n    tag_63:\n        /* \"contracts/codeEater/Asg1.sol\":3263:3267  uint */\n      0x00\n        /* \"contracts/codeEater/Asg1.sol\":3284:3290  uint i */\n      dup1\n        /* \"contracts/codeEater/Asg1.sol\":3291:3292  0 */\n      0x00\n        /* \"contracts/codeEater/Asg1.sol\":3284:3292  uint i=0 */\n      swap1\n      pop\n        /* \"contracts/codeEater/Asg1.sol\":3279:3460  for (uint i=0; i<holder[\"numArr\"].length-2; i++){... */\n    tag_154:\n        /* \"contracts/codeEater/Asg1.sol\":3320:3321  2 */\n      0x02\n        /* \"contracts/codeEater/Asg1.sol\":3296:3302  holder */\n      0x00\n        /* \"contracts/codeEater/Asg1.sol\":3296:3312  holder[\"numArr\"] */\n      mload(0x40)\n      tag_157\n      swap1\n      tag_158\n      jump\t// in\n    tag_157:\n      swap1\n      dup2\n      mstore\n      0x20\n      add\n      mload(0x40)\n      dup1\n      swap2\n      sub\n      swap1\n      keccak256\n        /* \"contracts/codeEater/Asg1.sol\":3296:3319  holder[\"numArr\"].length */\n      dup1\n      sload\n      swap1\n      pop\n        /* \"contracts/codeEater/Asg1.sol\":3296:3321  holder[\"numArr\"].length-2 */\n      tag_159\n      swap2\n      swap1\n      tag_160\n      jump\t// in\n    tag_159:\n        /* \"contracts/codeEater/Asg1.sol\":3294:3295  i */\n      dup2\n        /* \"contracts/codeEater/Asg1.sol\":3294:3321  i<holder[\"numArr\"].length-2 */\n      lt\n        /* \"contracts/codeEater/Asg1.sol\":3279:3460  for (uint i=0; i<holder[\"numArr\"].length-2; i++){... */\n      iszero\n      tag_155\n      jumpi\n        /* \"contracts/codeEater/Asg1.sol\":3387:3393  holder */\n      0x00\n        /* \"contracts/codeEater/Asg1.sol\":3387:3403  holder[\"numArr\"] */\n      mload(0x40)\n      tag_161\n      swap1\n      tag_158\n      jump\t// in\n    tag_161:\n      swap1\n      dup2\n      mstore\n      0x20\n      add\n      mload(0x40)\n      dup1\n      swap2\n      sub\n      swap1\n      keccak256\n        /* \"contracts/codeEater/Asg1.sol\":3406:3407  2 */\n      0x02\n        /* \"contracts/codeEater/Asg1.sol\":3404:3405  i */\n      dup3\n        /* \"contracts/codeEater/Asg1.sol\":3404:3407  i+2 */\n      tag_162\n      swap2\n      swap1\n      tag_132\n      jump\t// in\n    tag_162:\n        /* \"contracts/codeEater/Asg1.sol\":3387:3408  holder[\"numArr\"][i+2] */\n      dup2\n      sload\n      dup2\n      lt\n      tag_163\n      jumpi\n      tag_164\n      tag_165\n      jump\t// in\n    tag_164:\n    tag_163:\n      swap1\n      0x00\n      mstore\n      keccak256(0x00, 0x20)\n      add\n      sload\n        /* \"contracts/codeEater/Asg1.sol\":3365:3371  holder */\n      0x00\n        /* \"contracts/codeEater/Asg1.sol\":3365:3381  holder[\"numArr\"] */\n      mload(0x40)\n      tag_167\n      swap1\n      tag_158\n      jump\t// in\n    tag_167:\n      swap1\n      dup2\n      mstore\n      0x20\n      add\n      mload(0x40)\n      dup1\n      swap2\n      sub\n      swap1\n      keccak256\n        /* \"contracts/codeEater/Asg1.sol\":3384:3385  1 */\n      0x01\n        /* \"contracts/codeEater/Asg1.sol\":3382:3383  i */\n      dup4\n        /* \"contracts/codeEater/Asg1.sol\":3382:3385  i+1 */\n      tag_168\n      swap2\n      swap1\n      tag_132\n      jump\t// in\n    tag_168:\n        /* \"contracts/codeEater/Asg1.sol\":3365:3386  holder[\"numArr\"][i+1] */\n      dup2\n      sload\n      dup2\n      lt\n      tag_169\n      jumpi\n      tag_170\n      tag_165\n      jump\t// in\n    tag_170:\n    tag_169:\n      swap1\n      0x00\n      mstore\n      keccak256(0x00, 0x20)\n      add\n      sload\n        /* \"contracts/codeEater/Asg1.sol\":3365:3408  holder[\"numArr\"][i+1]+holder[\"numArr\"][i+2] */\n      tag_172\n      swap2\n      swap1\n      tag_132\n      jump\t// in\n    tag_172:\n        /* \"contracts/codeEater/Asg1.sol\":3344:3350  holder */\n      0x00\n        /* \"contracts/codeEater/Asg1.sol\":3344:3360  holder[\"numArr\"] */\n      mload(0x40)\n      tag_173\n      swap1\n      tag_158\n      jump\t// in\n    tag_173:\n      swap1\n      dup2\n      mstore\n      0x20\n      add\n      mload(0x40)\n      dup1\n      swap2\n      sub\n      swap1\n      keccak256\n        /* \"contracts/codeEater/Asg1.sol\":3361:3362  i */\n      dup3\n        /* \"contracts/codeEater/Asg1.sol\":3344:3363  holder[\"numArr\"][i] */\n      dup2\n      sload\n      dup2\n      lt\n      tag_174\n      jumpi\n      tag_175\n      tag_165\n      jump\t// in\n    tag_175:\n    tag_174:\n      swap1\n      0x00\n      mstore\n      keccak256(0x00, 0x20)\n      add\n      sload\n        /* \"contracts/codeEater/Asg1.sol\":3344:3408  holder[\"numArr\"][i]!=holder[\"numArr\"][i+1]+holder[\"numArr\"][i+2] */\n      eq\n        /* \"contracts/codeEater/Asg1.sol\":3341:3450  if(holder[\"numArr\"][i]!=holder[\"numArr\"][i+1]+holder[\"numArr\"][i+2]){... */\n      tag_177\n      jumpi\n        /* \"contracts/codeEater/Asg1.sol\":3434:3435  0 */\n      0x00\n        /* \"contracts/codeEater/Asg1.sol\":3427:3435  return 0 */\n      swap2\n      pop\n      pop\n      jump(tag_153)\n        /* \"contracts/codeEater/Asg1.sol\":3341:3450  if(holder[\"numArr\"][i]!=holder[\"numArr\"][i+1]+holder[\"numArr\"][i+2]){... */\n    tag_177:\n        /* \"contracts/codeEater/Asg1.sol\":3323:3326  i++ */\n      dup1\n      dup1\n      tag_178\n      swap1\n      tag_122\n      jump\t// in\n    tag_178:\n      swap2\n      pop\n      pop\n        /* \"contracts/codeEater/Asg1.sol\":3279:3460  for (uint i=0; i<holder[\"numArr\"].length-2; i++){... */\n      jump(tag_154)\n    tag_155:\n      pop\n        /* \"contracts/codeEater/Asg1.sol\":3477:3478  1 */\n      0x01\n        /* \"contracts/codeEater/Asg1.sol\":3470:3478  return 1 */\n      swap1\n      pop\n        /* \"contracts/codeEater/Asg1.sol\":3213:3485  function fibonnicalResult() external view returns(uint){... */\n    tag_153:\n      swap1\n      jump\t// out\n        /* \"contracts/codeEater/Asg1.sol\":1763:2059  function Palindrome(uint _inp) external pure returns(uint){... */\n    tag_67:\n        /* \"contracts/codeEater/Asg1.sol\":1816:1820  uint */\n      0x00\n        /* \"contracts/codeEater/Asg1.sol\":1831:1840  uint temp */\n      dup1\n        /* \"contracts/codeEater/Asg1.sol\":1843:1847  _inp */\n      dup3\n        /* \"contracts/codeEater/Asg1.sol\":1831:1847  uint temp = _inp */\n      swap1\n      pop\n        /* \"contracts/codeEater/Asg1.sol\":1857:1870  uint reversed */\n      0x00\n        /* \"contracts/codeEater/Asg1.sol\":1883:2012  while(temp!=0){... */\n    tag_180:\n        /* \"contracts/codeEater/Asg1.sol\":1895:1896  0 */\n      0x00\n        /* \"contracts/codeEater/Asg1.sol\":1889:1893  temp */\n      dup3\n        /* \"contracts/codeEater/Asg1.sol\":1889:1896  temp!=0 */\n      eq\n        /* \"contracts/codeEater/Asg1.sol\":1883:2012  while(temp!=0){... */\n      tag_181\n      jumpi\n        /* \"contracts/codeEater/Asg1.sol\":1911:1923  uint lasDigt */\n      0x00\n        /* \"contracts/codeEater/Asg1.sol\":1931:1933  10 */\n      0x0a\n        /* \"contracts/codeEater/Asg1.sol\":1926:1930  temp */\n      dup4\n        /* \"contracts/codeEater/Asg1.sol\":1926:1933  temp%10 */\n      tag_182\n      swap2\n      swap1\n      tag_113\n      jump\t// in\n    tag_182:\n        /* \"contracts/codeEater/Asg1.sol\":1911:1933  uint lasDigt = temp%10 */\n      swap1\n      pop\n        /* \"contracts/codeEater/Asg1.sol\":1972:1979  lasDigt */\n      dup1\n        /* \"contracts/codeEater/Asg1.sol\":1967:1969  10 */\n      0x0a\n        /* \"contracts/codeEater/Asg1.sol\":1958:1966  reversed */\n      dup4\n        /* \"contracts/codeEater/Asg1.sol\":1958:1969  reversed*10 */\n      tag_183\n      swap2\n      swap1\n      tag_115\n      jump\t// in\n    tag_183:\n        /* \"contracts/codeEater/Asg1.sol\":1958:1979  reversed*10 + lasDigt */\n      tag_184\n      swap2\n      swap1\n      tag_132\n      jump\t// in\n    tag_184:\n        /* \"contracts/codeEater/Asg1.sol\":1947:1979  reversed = reversed*10 + lasDigt */\n      swap2\n      pop\n        /* \"contracts/codeEater/Asg1.sol\":1999:2001  10 */\n      0x0a\n        /* \"contracts/codeEater/Asg1.sol\":1993:2001  temp/=10 */\n      dup4\n      tag_185\n      swap2\n      swap1\n      tag_117\n      jump\t// in\n    tag_185:\n      swap3\n      pop\n        /* \"contracts/codeEater/Asg1.sol\":1897:2012  {... */\n      pop\n        /* \"contracts/codeEater/Asg1.sol\":1883:2012  while(temp!=0){... */\n      jump(tag_180)\n    tag_181:\n        /* \"contracts/codeEater/Asg1.sol\":2040:2044  _inp */\n      dup4\n        /* \"contracts/codeEater/Asg1.sol\":2028:2036  reversed */\n      dup2\n        /* \"contracts/codeEater/Asg1.sol\":2028:2044  reversed == _inp */\n      eq\n        /* \"contracts/codeEater/Asg1.sol\":2028:2052  reversed == _inp ? 1 : 0 */\n      tag_186\n      jumpi\n        /* \"contracts/codeEater/Asg1.sol\":2051:2052  0 */\n      0x00\n        /* \"contracts/codeEater/Asg1.sol\":2028:2052  reversed == _inp ? 1 : 0 */\n      jump(tag_187)\n    tag_186:\n        /* \"contracts/codeEater/Asg1.sol\":2047:2048  1 */\n      0x01\n        /* \"contracts/codeEater/Asg1.sol\":2028:2052  reversed == _inp ? 1 : 0 */\n    tag_187:\n        /* \"contracts/codeEater/Asg1.sol\":2021:2052  return reversed == _inp ? 1 : 0 */\n      0xff\n      and\n      swap3\n      pop\n      pop\n      pop\n        /* \"contracts/codeEater/Asg1.sol\":1763:2059  function Palindrome(uint _inp) external pure returns(uint){... */\n      swap2\n      swap1\n      pop\n      jump\t// out\n        /* \"contracts/codeEater/Asg1.sol\":1590:1753  function greater(int num1, int num2, int num3) public pure returns(int){... */\n    tag_72:\n        /* \"contracts/codeEater/Asg1.sol\":1657:1660  int */\n      0x00\n        /* \"contracts/codeEater/Asg1.sol\":1671:1679  int temp */\n      dup1\n        /* \"contracts/codeEater/Asg1.sol\":1687:1691  num2 */\n      dup4\n        /* \"contracts/codeEater/Asg1.sol\":1682:1686  num1 */\n      dup6\n        /* \"contracts/codeEater/Asg1.sol\":1682:1691  num1>num2 */\n      sgt\n        /* \"contracts/codeEater/Asg1.sol\":1682:1705  num1>num2 ? num1 : num2 */\n      tag_189\n      jumpi\n        /* \"contracts/codeEater/Asg1.sol\":1701:1705  num2 */\n      dup4\n        /* \"contracts/codeEater/Asg1.sol\":1682:1705  num1>num2 ? num1 : num2 */\n      jump(tag_190)\n    tag_189:\n        /* \"contracts/codeEater/Asg1.sol\":1694:1698  num1 */\n      dup5\n        /* \"contracts/codeEater/Asg1.sol\":1682:1705  num1>num2 ? num1 : num2 */\n    tag_190:\n        /* \"contracts/codeEater/Asg1.sol\":1671:1705  int temp = num1>num2 ? num1 : num2 */\n      swap1\n      pop\n        /* \"contracts/codeEater/Asg1.sol\":1728:1732  num3 */\n      dup3\n        /* \"contracts/codeEater/Asg1.sol\":1723:1727  temp */\n      dup2\n        /* \"contracts/codeEater/Asg1.sol\":1723:1732  temp>num3 */\n      sgt\n        /* \"contracts/codeEater/Asg1.sol\":1723:1746  temp>num3 ? temp : num3 */\n      tag_191\n      jumpi\n        /* \"contracts/codeEater/Asg1.sol\":1742:1746  num3 */\n      dup3\n        /* \"contracts/codeEater/Asg1.sol\":1723:1746  temp>num3 ? temp : num3 */\n      jump(tag_192)\n    tag_191:\n        /* \"contracts/codeEater/Asg1.sol\":1735:1739  temp */\n      dup1\n        /* \"contracts/codeEater/Asg1.sol\":1723:1746  temp>num3 ? temp : num3 */\n    tag_192:\n        /* \"contracts/codeEater/Asg1.sol\":1716:1746  return temp>num3 ? temp : num3 */\n      swap2\n      pop\n      pop\n        /* \"contracts/codeEater/Asg1.sol\":1590:1753  function greater(int num1, int num2, int num3) public pure returns(int){... */\n      swap4\n      swap3\n      pop\n      pop\n      pop\n      jump\t// out\n        /* \"contracts/codeEater/Asg1.sol\":2922:3208  function fibonnical(uint num) external {... */\n    tag_76:\n        /* \"contracts/codeEater/Asg1.sol\":2984:2985  0 */\n      0x00\n        /* \"contracts/codeEater/Asg1.sol\":2979:2982  num */\n      dup2\n        /* \"contracts/codeEater/Asg1.sol\":2979:2985  num!=0 */\n      eq\n      iszero\n        /* \"contracts/codeEater/Asg1.sol\":2971:3007  require(num!=0,\"not A valid number\") */\n      tag_194\n      jumpi\n      mload(0x40)\n      0x08c379a000000000000000000000000000000000000000000000000000000000\n      dup2\n      mstore\n      0x04\n      add\n      tag_195\n      swap1\n      tag_196\n      jump\t// in\n    tag_195:\n      mload(0x40)\n      dup1\n      swap2\n      sub\n      swap1\n      revert\n    tag_194:\n        /* \"contracts/codeEater/Asg1.sol\":3017:3025  uint tmp */\n      0x00\n        /* \"contracts/codeEater/Asg1.sol\":3028:3031  num */\n      dup2\n        /* \"contracts/codeEater/Asg1.sol\":3017:3031  uint tmp = num */\n      swap1\n      pop\n        /* \"contracts/codeEater/Asg1.sol\":3077:3201  while(tmp!=0){... */\n    tag_197:\n        /* \"contracts/codeEater/Asg1.sol\":3088:3089  0 */\n      0x00\n        /* \"contracts/codeEater/Asg1.sol\":3083:3086  tmp */\n      dup2\n        /* \"contracts/codeEater/Asg1.sol\":3083:3089  tmp!=0 */\n      eq\n        /* \"contracts/codeEater/Asg1.sol\":3077:3201  while(tmp!=0){... */\n      tag_198\n      jumpi\n        /* \"contracts/codeEater/Asg1.sol\":3104:3116  uint lastDig */\n      0x00\n        /* \"contracts/codeEater/Asg1.sol\":3123:3125  10 */\n      0x0a\n        /* \"contracts/codeEater/Asg1.sol\":3119:3122  tmp */\n      dup3\n        /* \"contracts/codeEater/Asg1.sol\":3119:3125  tmp%10 */\n      tag_199\n      swap2\n      swap1\n      tag_113\n      jump\t// in\n    tag_199:\n        /* \"contracts/codeEater/Asg1.sol\":3104:3125  uint lastDig = tmp%10 */\n      swap1\n      pop\n        /* \"contracts/codeEater/Asg1.sol\":3139:3145  holder */\n      0x00\n        /* \"contracts/codeEater/Asg1.sol\":3139:3155  holder[\"numArr\"] */\n      mload(0x40)\n      tag_200\n      swap1\n      tag_158\n      jump\t// in\n    tag_200:\n      swap1\n      dup2\n      mstore\n      0x20\n      add\n      mload(0x40)\n      dup1\n      swap2\n      sub\n      swap1\n      keccak256\n        /* \"contracts/codeEater/Asg1.sol\":3161:3168  lastDig */\n      dup2\n        /* \"contracts/codeEater/Asg1.sol\":3139:3169  holder[\"numArr\"].push(lastDig) */\n      swap1\n      dup1\n      0x01\n      dup2\n      sload\n      add\n      dup1\n      dup3\n      sstore\n      dup1\n      swap2\n      pop\n      pop\n      0x01\n      swap1\n      sub\n      swap1\n      0x00\n      mstore\n      keccak256(0x00, 0x20)\n      add\n      0x00\n      swap1\n      swap2\n      swap1\n      swap2\n      swap1\n      swap2\n      pop\n      sstore\n        /* \"contracts/codeEater/Asg1.sol\":3188:3190  10 */\n      0x0a\n        /* \"contracts/codeEater/Asg1.sol\":3183:3190  tmp/=10 */\n      dup3\n      tag_202\n      swap2\n      swap1\n      tag_117\n      jump\t// in\n    tag_202:\n      swap2\n      pop\n        /* \"contracts/codeEater/Asg1.sol\":3090:3201  {... */\n      pop\n        /* \"contracts/codeEater/Asg1.sol\":3077:3201  while(tmp!=0){... */\n      jump(tag_197)\n    tag_198:\n        /* \"contracts/codeEater/Asg1.sol\":2961:3208  {... */\n      pop\n        /* \"contracts/codeEater/Asg1.sol\":2922:3208  function fibonnical(uint num) external {... */\n      pop\n      jump\t// out\n        /* \"contracts/codeEater/Asg1.sol\":716:944  function prime(int num) public pure returns(int){... */\n    tag_79:\n        /* \"contracts/codeEater/Asg1.sol\":760:763  int */\n      0x00\n        /* \"contracts/codeEater/Asg1.sol\":814:819  int i */\n      dup1\n        /* \"contracts/codeEater/Asg1.sol\":822:823  2 */\n      0x02\n        /* \"contracts/codeEater/Asg1.sol\":814:823  int i = 2 */\n      swap1\n      pop\n        /* \"contracts/codeEater/Asg1.sol\":810:920  for(int i = 2; i < num; i++){... */\n    tag_204:\n        /* \"contracts/codeEater/Asg1.sol\":829:832  num */\n      dup3\n        /* \"contracts/codeEater/Asg1.sol\":825:826  i */\n      dup2\n        /* \"contracts/codeEater/Asg1.sol\":825:832  i < num */\n      slt\n        /* \"contracts/codeEater/Asg1.sol\":810:920  for(int i = 2; i < num; i++){... */\n      iszero\n      tag_205\n      jumpi\n        /* \"contracts/codeEater/Asg1.sol\":866:867  0 */\n      0x00\n        /* \"contracts/codeEater/Asg1.sol\":861:862  i */\n      dup2\n        /* \"contracts/codeEater/Asg1.sol\":855:858  num */\n      dup5\n        /* \"contracts/codeEater/Asg1.sol\":855:862  num % i */\n      tag_207\n      swap2\n      swap1\n      tag_102\n      jump\t// in\n    tag_207:\n        /* \"contracts/codeEater/Asg1.sol\":855:867  num % i == 0 */\n      eq\n        /* \"contracts/codeEater/Asg1.sol\":852:910  if(num % i == 0) {... */\n      iszero\n      tag_208\n      jumpi\n        /* \"contracts/codeEater/Asg1.sol\":894:895  0 */\n      0x00\n        /* \"contracts/codeEater/Asg1.sol\":887:895  return 0 */\n      swap2\n      pop\n      pop\n      jump(tag_203)\n        /* \"contracts/codeEater/Asg1.sol\":852:910  if(num % i == 0) {... */\n    tag_208:\n        /* \"contracts/codeEater/Asg1.sol\":834:837  i++ */\n      dup1\n      dup1\n      tag_209\n      swap1\n      tag_210\n      jump\t// in\n    tag_209:\n      swap2\n      pop\n      pop\n        /* \"contracts/codeEater/Asg1.sol\":810:920  for(int i = 2; i < num; i++){... */\n      jump(tag_204)\n    tag_205:\n      pop\n        /* \"contracts/codeEater/Asg1.sol\":936:937  1 */\n      0x01\n        /* \"contracts/codeEater/Asg1.sol\":929:937  return 1 */\n      swap1\n      pop\n        /* \"contracts/codeEater/Asg1.sol\":716:944  function prime(int num) public pure returns(int){... */\n    tag_203:\n      swap2\n      swap1\n      pop\n      jump\t// out\n        /* \"contracts/codeEater/Asg1.sol\":120:205  function cube(uint _num1) external pure returns(uint){... */\n    tag_83:\n        /* \"contracts/codeEater/Asg1.sol\":168:172  uint */\n      0x00\n        /* \"contracts/codeEater/Asg1.sol\":197:198  2 */\n      0x02\n        /* \"contracts/codeEater/Asg1.sol\":190:195  _num1 */\n      dup3\n        /* \"contracts/codeEater/Asg1.sol\":190:198  _num1**2 */\n      tag_212\n      swap2\n      swap1\n      tag_213\n      jump\t// in\n    tag_212:\n        /* \"contracts/codeEater/Asg1.sol\":183:198  return _num1**2 */\n      swap1\n      pop\n        /* \"contracts/codeEater/Asg1.sol\":120:205  function cube(uint _num1) external pure returns(uint){... */\n      swap2\n      swap1\n      pop\n      jump\t// out\n        /* \"#utility.yul\":7:144   */\n    tag_215:\n        /* \"#utility.yul\":52:57   */\n      0x00\n        /* \"#utility.yul\":90:96   */\n      dup2\n        /* \"#utility.yul\":77:97   */\n      calldataload\n        /* \"#utility.yul\":68:97   */\n      swap1\n      pop\n        /* \"#utility.yul\":106:138   */\n      tag_217\n        /* \"#utility.yul\":132:137   */\n      dup2\n        /* \"#utility.yul\":106:138   */\n      tag_218\n      jump\t// in\n    tag_217:\n        /* \"#utility.yul\":7:144   */\n      swap3\n      swap2\n      pop\n      pop\n      jump\t// out\n        /* \"#utility.yul\":150:289   */\n    tag_219:\n        /* \"#utility.yul\":196:201   */\n      0x00\n        /* \"#utility.yul\":234:240   */\n      dup2\n        /* \"#utility.yul\":221:241   */\n      calldataload\n        /* \"#utility.yul\":212:241   */\n      swap1\n      pop\n        /* \"#utility.yul\":250:283   */\n      tag_221\n        /* \"#utility.yul\":277:282   */\n      dup2\n        /* \"#utility.yul\":250:283   */\n      tag_222\n      jump\t// in\n    tag_221:\n        /* \"#utility.yul\":150:289   */\n      swap3\n      swap2\n      pop\n      pop\n      jump\t// out\n        /* \"#utility.yul\":295:622   */\n    tag_29:\n        /* \"#utility.yul\":353:359   */\n      0x00\n        /* \"#utility.yul\":402:404   */\n      0x20\n        /* \"#utility.yul\":390:399   */\n      dup3\n        /* \"#utility.yul\":381:388   */\n      dup5\n        /* \"#utility.yul\":377:400   */\n      sub\n        /* \"#utility.yul\":373:405   */\n      slt\n        /* \"#utility.yul\":370:489   */\n      iszero\n      tag_224\n      jumpi\n        /* \"#utility.yul\":408:487   */\n      tag_225\n      tag_226\n      jump\t// in\n    tag_225:\n        /* \"#utility.yul\":370:489   */\n    tag_224:\n        /* \"#utility.yul\":528:529   */\n      0x00\n        /* \"#utility.yul\":553:605   */\n      tag_227\n        /* \"#utility.yul\":597:604   */\n      dup5\n        /* \"#utility.yul\":588:594   */\n      dup3\n        /* \"#utility.yul\":577:586   */\n      dup6\n        /* \"#utility.yul\":573:595   */\n      add\n        /* \"#utility.yul\":553:605   */\n      tag_215\n      jump\t// in\n    tag_227:\n        /* \"#utility.yul\":543:605   */\n      swap2\n      pop\n        /* \"#utility.yul\":499:615   */\n      pop\n        /* \"#utility.yul\":295:622   */\n      swap3\n      swap2\n      pop\n      pop\n      jump\t// out\n        /* \"#utility.yul\":628:1098   */\n    tag_23:\n        /* \"#utility.yul\":694:700   */\n      0x00\n        /* \"#utility.yul\":702:708   */\n      dup1\n        /* \"#utility.yul\":751:753   */\n      0x40\n        /* \"#utility.yul\":739:748   */\n      dup4\n        /* \"#utility.yul\":730:737   */\n      dup6\n        /* \"#utility.yul\":726:749   */\n      sub\n        /* \"#utility.yul\":722:754   */\n      slt\n        /* \"#utility.yul\":719:838   */\n      iszero\n      tag_229\n      jumpi\n        /* \"#utility.yul\":757:836   */\n      tag_230\n      tag_226\n      jump\t// in\n    tag_230:\n        /* \"#utility.yul\":719:838   */\n    tag_229:\n        /* \"#utility.yul\":877:878   */\n      0x00\n        /* \"#utility.yul\":902:954   */\n      tag_231\n        /* \"#utility.yul\":946:953   */\n      dup6\n        /* \"#utility.yul\":937:943   */\n      dup3\n        /* \"#utility.yul\":926:935   */\n      dup7\n        /* \"#utility.yul\":922:944   */\n      add\n        /* \"#utility.yul\":902:954   */\n      tag_215\n      jump\t// in\n    tag_231:\n        /* \"#utility.yul\":892:954   */\n      swap3\n      pop\n        /* \"#utility.yul\":848:964   */\n      pop\n        /* \"#utility.yul\":1003:1005   */\n      0x20\n        /* \"#utility.yul\":1029:1081   */\n      tag_232\n        /* \"#utility.yul\":1073:1080   */\n      dup6\n        /* \"#utility.yul\":1064:1070   */\n      dup3\n        /* \"#utility.yul\":1053:1062   */\n      dup7\n        /* \"#utility.yul\":1049:1071   */\n      add\n        /* \"#utility.yul\":1029:1081   */\n      tag_215\n      jump\t// in\n    tag_232:\n        /* \"#utility.yul\":1019:1081   */\n      swap2\n      pop\n        /* \"#utility.yul\":974:1091   */\n      pop\n        /* \"#utility.yul\":628:1098   */\n      swap3\n      pop\n      swap3\n      swap1\n      pop\n      jump\t// out\n        /* \"#utility.yul\":1104:1717   */\n    tag_71:\n        /* \"#utility.yul\":1178:1184   */\n      0x00\n        /* \"#utility.yul\":1186:1192   */\n      dup1\n        /* \"#utility.yul\":1194:1200   */\n      0x00\n        /* \"#utility.yul\":1243:1245   */\n      0x60\n        /* \"#utility.yul\":1231:1240   */\n      dup5\n        /* \"#utility.yul\":1222:1229   */\n      dup7\n        /* \"#utility.yul\":1218:1241   */\n      sub\n        /* \"#utility.yul\":1214:1246   */\n      slt\n        /* \"#utility.yul\":1211:1330   */\n      iszero\n      tag_234\n      jumpi\n        /* \"#utility.yul\":1249:1328   */\n      tag_235\n      tag_226\n      jump\t// in\n    tag_235:\n        /* \"#utility.yul\":1211:1330   */\n    tag_234:\n        /* \"#utility.yul\":1369:1370   */\n      0x00\n        /* \"#utility.yul\":1394:1446   */\n      tag_236\n        /* \"#utility.yul\":1438:1445   */\n      dup7\n        /* \"#utility.yul\":1429:1435   */\n      dup3\n        /* \"#utility.yul\":1418:1427   */\n      dup8\n        /* \"#utility.yul\":1414:1436   */\n      add\n        /* \"#utility.yul\":1394:1446   */\n      tag_215\n      jump\t// in\n    tag_236:\n        /* \"#utility.yul\":1384:1446   */\n      swap4\n      pop\n        /* \"#utility.yul\":1340:1456   */\n      pop\n        /* \"#utility.yul\":1495:1497   */\n      0x20\n        /* \"#utility.yul\":1521:1573   */\n      tag_237\n        /* \"#utility.yul\":1565:1572   */\n      dup7\n        /* \"#utility.yul\":1556:1562   */\n      dup3\n        /* \"#utility.yul\":1545:1554   */\n      dup8\n        /* \"#utility.yul\":1541:1563   */\n      add\n        /* \"#utility.yul\":1521:1573   */\n      tag_215\n      jump\t// in\n    tag_237:\n        /* \"#utility.yul\":1511:1573   */\n      swap3\n      pop\n        /* \"#utility.yul\":1466:1583   */\n      pop\n        /* \"#utility.yul\":1622:1624   */\n      0x40\n        /* \"#utility.yul\":1648:1700   */\n      tag_238\n        /* \"#utility.yul\":1692:1699   */\n      dup7\n        /* \"#utility.yul\":1683:1689   */\n      dup3\n        /* \"#utility.yul\":1672:1681   */\n      dup8\n        /* \"#utility.yul\":1668:1690   */\n      add\n        /* \"#utility.yul\":1648:1700   */\n      tag_215\n      jump\t// in\n    tag_238:\n        /* \"#utility.yul\":1638:1700   */\n      swap2\n      pop\n        /* \"#utility.yul\":1593:1710   */\n      pop\n        /* \"#utility.yul\":1104:1717   */\n      swap3\n      pop\n      swap3\n      pop\n      swap3\n      jump\t// out\n        /* \"#utility.yul\":1723:2052   */\n    tag_42:\n        /* \"#utility.yul\":1782:1788   */\n      0x00\n        /* \"#utility.yul\":1831:1833   */\n      0x20\n        /* \"#utility.yul\":1819:1828   */\n      dup3\n        /* \"#utility.yul\":1810:1817   */\n      dup5\n        /* \"#utility.yul\":1806:1829   */\n      sub\n        /* \"#utility.yul\":1802:1834   */\n      slt\n        /* \"#utility.yul\":1799:1918   */\n      iszero\n      tag_240\n      jumpi\n        /* \"#utility.yul\":1837:1916   */\n      tag_241\n      tag_226\n      jump\t// in\n    tag_241:\n        /* \"#utility.yul\":1799:1918   */\n    tag_240:\n        /* \"#utility.yul\":1957:1958   */\n      0x00\n        /* \"#utility.yul\":1982:2035   */\n      tag_242\n        /* \"#utility.yul\":2027:2034   */\n      dup5\n        /* \"#utility.yul\":2018:2024   */\n      dup3\n        /* \"#utility.yul\":2007:2016   */\n      dup6\n        /* \"#utility.yul\":2003:2025   */\n      add\n        /* \"#utility.yul\":1982:2035   */\n      tag_219\n      jump\t// in\n    tag_242:\n        /* \"#utility.yul\":1972:2035   */\n      swap2\n      pop\n        /* \"#utility.yul\":1928:2045   */\n      pop\n        /* \"#utility.yul\":1723:2052   */\n      swap3\n      swap2\n      pop\n      pop\n      jump\t// out\n        /* \"#utility.yul\":2058:2532   */\n    tag_35:\n        /* \"#utility.yul\":2126:2132   */\n      0x00\n        /* \"#utility.yul\":2134:2140   */\n      dup1\n        /* \"#utility.yul\":2183:2185   */\n      0x40\n        /* \"#utility.yul\":2171:2180   */\n      dup4\n        /* \"#utility.yul\":2162:2169   */\n      dup6\n        /* \"#utility.yul\":2158:2181   */\n      sub\n        /* \"#utility.yul\":2154:2186   */\n      slt\n        /* \"#utility.yul\":2151:2270   */\n      iszero\n      tag_244\n      jumpi\n        /* \"#utility.yul\":2189:2268   */\n      tag_245\n      tag_226\n      jump\t// in\n    tag_245:\n        /* \"#utility.yul\":2151:2270   */\n    tag_244:\n        /* \"#utility.yul\":2309:2310   */\n      0x00\n        /* \"#utility.yul\":2334:2387   */\n      tag_246\n        /* \"#utility.yul\":2379:2386   */\n      dup6\n        /* \"#utility.yul\":2370:2376   */\n      dup3\n        /* \"#utility.yul\":2359:2368   */\n      dup7\n        /* \"#utility.yul\":2355:2377   */\n      add\n        /* \"#utility.yul\":2334:2387   */\n      tag_219\n      jump\t// in\n    tag_246:\n        /* \"#utility.yul\":2324:2387   */\n      swap3\n      pop\n        /* \"#utility.yul\":2280:2397   */\n      pop\n        /* \"#utility.yul\":2436:2438   */\n      0x20\n        /* \"#utility.yul\":2462:2515   */\n      tag_247\n        /* \"#utility.yul\":2507:2514   */\n      dup6\n        /* \"#utility.yul\":2498:2504   */\n      dup3\n        /* \"#utility.yul\":2487:2496   */\n      dup7\n        /* \"#utility.yul\":2483:2505   */\n      add\n        /* \"#utility.yul\":2462:2515   */\n      tag_219\n      jump\t// in\n    tag_247:\n        /* \"#utility.yul\":2452:2515   */\n      swap2\n      pop\n        /* \"#utility.yul\":2407:2525   */\n      pop\n        /* \"#utility.yul\":2058:2532   */\n      swap3\n      pop\n      swap3\n      swap1\n      pop\n      jump\t// out\n        /* \"#utility.yul\":2538:3157   */\n    tag_55:\n        /* \"#utility.yul\":2615:2621   */\n      0x00\n        /* \"#utility.yul\":2623:2629   */\n      dup1\n        /* \"#utility.yul\":2631:2637   */\n      0x00\n        /* \"#utility.yul\":2680:2682   */\n      0x60\n        /* \"#utility.yul\":2668:2677   */\n      dup5\n        /* \"#utility.yul\":2659:2666   */\n      dup7\n        /* \"#utility.yul\":2655:2678   */\n      sub\n        /* \"#utility.yul\":2651:2683   */\n      slt\n        /* \"#utility.yul\":2648:2767   */\n      iszero\n      tag_249\n      jumpi\n        /* \"#utility.yul\":2686:2765   */\n      tag_250\n      tag_226\n      jump\t// in\n    tag_250:\n        /* \"#utility.yul\":2648:2767   */\n    tag_249:\n        /* \"#utility.yul\":2806:2807   */\n      0x00\n        /* \"#utility.yul\":2831:2884   */\n      tag_251\n        /* \"#utility.yul\":2876:2883   */\n      dup7\n        /* \"#utility.yul\":2867:2873   */\n      dup3\n        /* \"#utility.yul\":2856:2865   */\n      dup8\n        /* \"#utility.yul\":2852:2874   */\n      add\n        /* \"#utility.yul\":2831:2884   */\n      tag_219\n      jump\t// in\n    tag_251:\n        /* \"#utility.yul\":2821:2884   */\n      swap4\n      pop\n        /* \"#utility.yul\":2777:2894   */\n      pop\n        /* \"#utility.yul\":2933:2935   */\n      0x20\n        /* \"#utility.yul\":2959:3012   */\n      tag_252\n        /* \"#utility.yul\":3004:3011   */\n      dup7\n        /* \"#utility.yul\":2995:3001   */\n      dup3\n        /* \"#utility.yul\":2984:2993   */\n      dup8\n        /* \"#utility.yul\":2980:3002   */\n      add\n        /* \"#utility.yul\":2959:3012   */\n      tag_219\n      jump\t// in\n    tag_252:\n        /* \"#utility.yul\":2949:3012   */\n      swap3\n      pop\n        /* \"#utility.yul\":2904:3022   */\n      pop\n        /* \"#utility.yul\":3061:3063   */\n      0x40\n        /* \"#utility.yul\":3087:3140   */\n      tag_253\n        /* \"#utility.yul\":3132:3139   */\n      dup7\n        /* \"#utility.yul\":3123:3129   */\n      dup3\n        /* \"#utility.yul\":3112:3121   */\n      dup8\n        /* \"#utility.yul\":3108:3130   */\n      add\n        /* \"#utility.yul\":3087:3140   */\n      tag_219\n      jump\t// in\n    tag_253:\n        /* \"#utility.yul\":3077:3140   */\n      swap2\n      pop\n        /* \"#utility.yul\":3032:3150   */\n      pop\n        /* \"#utility.yul\":2538:3157   */\n      swap3\n      pop\n      swap3\n      pop\n      swap3\n      jump\t// out\n        /* \"#utility.yul\":3163:3278   */\n    tag_254:\n        /* \"#utility.yul\":3248:3271   */\n      tag_256\n        /* \"#utility.yul\":3265:3270   */\n      dup2\n        /* \"#utility.yul\":3248:3271   */\n      tag_257\n      jump\t// in\n    tag_256:\n        /* \"#utility.yul\":3243:3246   */\n      dup3\n        /* \"#utility.yul\":3236:3272   */\n      mstore\n        /* \"#utility.yul\":3163:3278   */\n      pop\n      pop\n      jump\t// out\n        /* \"#utility.yul\":3284:3650   */\n    tag_258:\n        /* \"#utility.yul\":3426:3429   */\n      0x00\n        /* \"#utility.yul\":3447:3514   */\n      tag_260\n        /* \"#utility.yul\":3511:3513   */\n      0x12\n        /* \"#utility.yul\":3506:3509   */\n      dup4\n        /* \"#utility.yul\":3447:3514   */\n      tag_261\n      jump\t// in\n    tag_260:\n        /* \"#utility.yul\":3440:3514   */\n      swap2\n      pop\n        /* \"#utility.yul\":3523:3616   */\n      tag_262\n        /* \"#utility.yul\":3612:3615   */\n      dup3\n        /* \"#utility.yul\":3523:3616   */\n      tag_263\n      jump\t// in\n    tag_262:\n        /* \"#utility.yul\":3641:3643   */\n      0x20\n        /* \"#utility.yul\":3636:3639   */\n      dup3\n        /* \"#utility.yul\":3632:3644   */\n      add\n        /* \"#utility.yul\":3625:3644   */\n      swap1\n      pop\n        /* \"#utility.yul\":3284:3650   */\n      swap2\n      swap1\n      pop\n      jump\t// out\n        /* \"#utility.yul\":3656:4056   */\n    tag_264:\n        /* \"#utility.yul\":3816:3819   */\n      0x00\n        /* \"#utility.yul\":3837:3921   */\n      tag_266\n        /* \"#utility.yul\":3919:3920   */\n      0x06\n        /* \"#utility.yul\":3914:3917   */\n      dup4\n        /* \"#utility.yul\":3837:3921   */\n      tag_267\n      jump\t// in\n    tag_266:\n        /* \"#utility.yul\":3830:3921   */\n      swap2\n      pop\n        /* \"#utility.yul\":3930:4023   */\n      tag_268\n        /* \"#utility.yul\":4019:4022   */\n      dup3\n        /* \"#utility.yul\":3930:4023   */\n      tag_269\n      jump\t// in\n    tag_268:\n        /* \"#utility.yul\":4048:4049   */\n      0x06\n        /* \"#utility.yul\":4043:4046   */\n      dup3\n        /* \"#utility.yul\":4039:4050   */\n      add\n        /* \"#utility.yul\":4032:4050   */\n      swap1\n      pop\n        /* \"#utility.yul\":3656:4056   */\n      swap2\n      swap1\n      pop\n      jump\t// out\n        /* \"#utility.yul\":4062:4428   */\n    tag_270:\n        /* \"#utility.yul\":4204:4207   */\n      0x00\n        /* \"#utility.yul\":4225:4292   */\n      tag_272\n        /* \"#utility.yul\":4289:4291   */\n      0x12\n        /* \"#utility.yul\":4284:4287   */\n      dup4\n        /* \"#utility.yul\":4225:4292   */\n      tag_261\n      jump\t// in\n    tag_272:\n        /* \"#utility.yul\":4218:4292   */\n      swap2\n      pop\n        /* \"#utility.yul\":4301:4394   */\n      tag_273\n        /* \"#utility.yul\":4390:4393   */\n      dup3\n        /* \"#utility.yul\":4301:4394   */\n      tag_274\n      jump\t// in\n    tag_273:\n        /* \"#utility.yul\":4419:4421   */\n      0x20\n        /* \"#utility.yul\":4414:4417   */\n      dup3\n        /* \"#utility.yul\":4410:4422   */\n      add\n        /* \"#utility.yul\":4403:4422   */\n      swap1\n      pop\n        /* \"#utility.yul\":4062:4428   */\n      swap2\n      swap1\n      pop\n      jump\t// out\n        /* \"#utility.yul\":4434:4552   */\n    tag_275:\n        /* \"#utility.yul\":4521:4545   */\n      tag_277\n        /* \"#utility.yul\":4539:4544   */\n      dup2\n        /* \"#utility.yul\":4521:4545   */\n      tag_278\n      jump\t// in\n    tag_277:\n        /* \"#utility.yul\":4516:4519   */\n      dup3\n        /* \"#utility.yul\":4509:4546   */\n      mstore\n        /* \"#utility.yul\":4434:4552   */\n      pop\n      pop\n      jump\t// out\n        /* \"#utility.yul\":4558:4939   */\n    tag_158:\n        /* \"#utility.yul\":4743:4746   */\n      0x00\n        /* \"#utility.yul\":4765:4913   */\n      tag_280\n        /* \"#utility.yul\":4909:4912   */\n      dup3\n        /* \"#utility.yul\":4765:4913   */\n      tag_264\n      jump\t// in\n    tag_280:\n        /* \"#utility.yul\":4758:4913   */\n      swap2\n      pop\n        /* \"#utility.yul\":4930:4933   */\n      dup2\n        /* \"#utility.yul\":4923:4933   */\n      swap1\n      pop\n        /* \"#utility.yul\":4558:4939   */\n      swap2\n      swap1\n      pop\n      jump\t// out\n        /* \"#utility.yul\":4945:5163   */\n    tag_26:\n        /* \"#utility.yul\":5036:5040   */\n      0x00\n        /* \"#utility.yul\":5074:5076   */\n      0x20\n        /* \"#utility.yul\":5063:5072   */\n      dup3\n        /* \"#utility.yul\":5059:5077   */\n      add\n        /* \"#utility.yul\":5051:5077   */\n      swap1\n      pop\n        /* \"#utility.yul\":5087:5156   */\n      tag_282\n        /* \"#utility.yul\":5153:5154   */\n      0x00\n        /* \"#utility.yul\":5142:5151   */\n      dup4\n        /* \"#utility.yul\":5138:5155   */\n      add\n        /* \"#utility.yul\":5129:5135   */\n      dup5\n        /* \"#utility.yul\":5087:5156   */\n      tag_254\n      jump\t// in\n    tag_282:\n        /* \"#utility.yul\":4945:5163   */\n      swap3\n      swap2\n      pop\n      pop\n      jump\t// out\n        /* \"#utility.yul\":5169:5588   */\n    tag_196:\n        /* \"#utility.yul\":5335:5339   */\n      0x00\n        /* \"#utility.yul\":5373:5375   */\n      0x20\n        /* \"#utility.yul\":5362:5371   */\n      dup3\n        /* \"#utility.yul\":5358:5376   */\n      add\n        /* \"#utility.yul\":5350:5376   */\n      swap1\n      pop\n        /* \"#utility.yul\":5422:5431   */\n      dup2\n        /* \"#utility.yul\":5416:5420   */\n      dup2\n        /* \"#utility.yul\":5412:5432   */\n      sub\n        /* \"#utility.yul\":5408:5409   */\n      0x00\n        /* \"#utility.yul\":5397:5406   */\n      dup4\n        /* \"#utility.yul\":5393:5410   */\n      add\n        /* \"#utility.yul\":5386:5433   */\n      mstore\n        /* \"#utility.yul\":5450:5581   */\n      tag_284\n        /* \"#utility.yul\":5576:5580   */\n      dup2\n        /* \"#utility.yul\":5450:5581   */\n      tag_258\n      jump\t// in\n    tag_284:\n        /* \"#utility.yul\":5442:5581   */\n      swap1\n      pop\n        /* \"#utility.yul\":5169:5588   */\n      swap2\n      swap1\n      pop\n      jump\t// out\n        /* \"#utility.yul\":5594:6013   */\n    tag_126:\n        /* \"#utility.yul\":5760:5764   */\n      0x00\n        /* \"#utility.yul\":5798:5800   */\n      0x20\n        /* \"#utility.yul\":5787:5796   */\n      dup3\n        /* \"#utility.yul\":5783:5801   */\n      add\n        /* \"#utility.yul\":5775:5801   */\n      swap1\n      pop\n        /* \"#utility.yul\":5847:5856   */\n      dup2\n        /* \"#utility.yul\":5841:5845   */\n      dup2\n        /* \"#utility.yul\":5837:5857   */\n      sub\n        /* \"#utility.yul\":5833:5834   */\n      0x00\n        /* \"#utility.yul\":5822:5831   */\n      dup4\n        /* \"#utility.yul\":5818:5835   */\n      add\n        /* \"#utility.yul\":5811:5858   */\n      mstore\n        /* \"#utility.yul\":5875:6006   */\n      tag_286\n        /* \"#utility.yul\":6001:6005   */\n      dup2\n        /* \"#utility.yul\":5875:6006   */\n      tag_270\n      jump\t// in\n    tag_286:\n        /* \"#utility.yul\":5867:6006   */\n      swap1\n      pop\n        /* \"#utility.yul\":5594:6013   */\n      swap2\n      swap1\n      pop\n      jump\t// out\n        /* \"#utility.yul\":6019:6241   */\n    tag_32:\n        /* \"#utility.yul\":6112:6116   */\n      0x00\n        /* \"#utility.yul\":6150:6152   */\n      0x20\n        /* \"#utility.yul\":6139:6148   */\n      dup3\n        /* \"#utility.yul\":6135:6153   */\n      add\n        /* \"#utility.yul\":6127:6153   */\n      swap1\n      pop\n        /* \"#utility.yul\":6163:6234   */\n      tag_288\n        /* \"#utility.yul\":6231:6232   */\n      0x00\n        /* \"#utility.yul\":6220:6229   */\n      dup4\n        /* \"#utility.yul\":6216:6233   */\n      add\n        /* \"#utility.yul\":6207:6213   */\n      dup5\n        /* \"#utility.yul\":6163:6234   */\n      tag_275\n      jump\t// in\n    tag_288:\n        /* \"#utility.yul\":6019:6241   */\n      swap3\n      swap2\n      pop\n      pop\n      jump\t// out\n        /* \"#utility.yul\":6328:6497   */\n    tag_261:\n        /* \"#utility.yul\":6412:6423   */\n      0x00\n        /* \"#utility.yul\":6446:6452   */\n      dup3\n        /* \"#utility.yul\":6441:6444   */\n      dup3\n        /* \"#utility.yul\":6434:6453   */\n      mstore\n        /* \"#utility.yul\":6486:6490   */\n      0x20\n        /* \"#utility.yul\":6481:6484   */\n      dup3\n        /* \"#utility.yul\":6477:6491   */\n      add\n        /* \"#utility.yul\":6462:6491   */\n      swap1\n      pop\n        /* \"#utility.yul\":6328:6497   */\n      swap3\n      swap2\n      pop\n      pop\n      jump\t// out\n        /* \"#utility.yul\":6503:6651   */\n    tag_267:\n        /* \"#utility.yul\":6605:6616   */\n      0x00\n        /* \"#utility.yul\":6642:6645   */\n      dup2\n        /* \"#utility.yul\":6627:6645   */\n      swap1\n      pop\n        /* \"#utility.yul\":6503:6651   */\n      swap3\n      swap2\n      pop\n      pop\n      jump\t// out\n        /* \"#utility.yul\":6657:7182   */\n    tag_93:\n        /* \"#utility.yul\":6696:6699   */\n      0x00\n        /* \"#utility.yul\":6715:6734   */\n      tag_294\n        /* \"#utility.yul\":6732:6733   */\n      dup3\n        /* \"#utility.yul\":6715:6734   */\n      tag_257\n      jump\t// in\n    tag_294:\n        /* \"#utility.yul\":6710:6734   */\n      swap2\n      pop\n        /* \"#utility.yul\":6748:6767   */\n      tag_295\n        /* \"#utility.yul\":6765:6766   */\n      dup4\n        /* \"#utility.yul\":6748:6767   */\n      tag_257\n      jump\t// in\n    tag_295:\n        /* \"#utility.yul\":6743:6767   */\n      swap3\n      pop\n        /* \"#utility.yul\":6936:6937   */\n      dup2\n        /* \"#utility.yul\":6868:6934   */\n      0x7fffffffffffffffffffffffffffffffffffffffffffffffffffffffffffffff\n        /* \"#utility.yul\":6864:6938   */\n      sub\n        /* \"#utility.yul\":6861:6862   */\n      dup4\n        /* \"#utility.yul\":6857:6939   */\n      sgt\n        /* \"#utility.yul\":6852:6853   */\n      0x00\n        /* \"#utility.yul\":6849:6850   */\n      dup4\n        /* \"#utility.yul\":6845:6854   */\n      slt\n        /* \"#utility.yul\":6838:6855   */\n      iszero\n        /* \"#utility.yul\":6834:6940   */\n      and\n        /* \"#utility.yul\":6831:6963   */\n      iszero\n      tag_296\n      jumpi\n        /* \"#utility.yul\":6943:6961   */\n      tag_297\n      tag_298\n      jump\t// in\n    tag_297:\n        /* \"#utility.yul\":6831:6963   */\n    tag_296:\n        /* \"#utility.yul\":7123:7124   */\n      dup2\n        /* \"#utility.yul\":7055:7121   */\n      0x8000000000000000000000000000000000000000000000000000000000000000\n        /* \"#utility.yul\":7051:7125   */\n      sub\n        /* \"#utility.yul\":7048:7049   */\n      dup4\n        /* \"#utility.yul\":7044:7126   */\n      slt\n        /* \"#utility.yul\":7040:7041   */\n      0x00\n        /* \"#utility.yul\":7037:7038   */\n      dup4\n        /* \"#utility.yul\":7033:7042   */\n      slt\n        /* \"#utility.yul\":7029:7127   */\n      and\n        /* \"#utility.yul\":7026:7150   */\n      iszero\n      tag_299\n      jumpi\n        /* \"#utility.yul\":7130:7148   */\n      tag_300\n      tag_298\n      jump\t// in\n    tag_300:\n        /* \"#utility.yul\":7026:7150   */\n    tag_299:\n        /* \"#utility.yul\":7174:7175   */\n      dup3\n        /* \"#utility.yul\":7171:7172   */\n      dup3\n        /* \"#utility.yul\":7167:7176   */\n      add\n        /* \"#utility.yul\":7160:7176   */\n      swap1\n      pop\n        /* \"#utility.yul\":6657:7182   */\n      swap3\n      swap2\n      pop\n      pop\n      jump\t// out\n        /* \"#utility.yul\":7188:7493   */\n    tag_132:\n        /* \"#utility.yul\":7228:7231   */\n      0x00\n        /* \"#utility.yul\":7247:7267   */\n      tag_302\n        /* \"#utility.yul\":7265:7266   */\n      dup3\n        /* \"#utility.yul\":7247:7267   */\n      tag_278\n      jump\t// in\n    tag_302:\n        /* \"#utility.yul\":7242:7267   */\n      swap2\n      pop\n        /* \"#utility.yul\":7281:7301   */\n      tag_303\n        /* \"#utility.yul\":7299:7300   */\n      dup4\n        /* \"#utility.yul\":7281:7301   */\n      tag_278\n      jump\t// in\n    tag_303:\n        /* \"#utility.yul\":7276:7301   */\n      swap3\n      pop\n        /* \"#utility.yul\":7435:7436   */\n      dup3\n        /* \"#utility.yul\":7367:7433   */\n      0xffffffffffffffffffffffffffffffffffffffffffffffffffffffffffffffff\n        /* \"#utility.yul\":7363:7437   */\n      sub\n        /* \"#utility.yul\":7360:7361   */\n      dup3\n        /* \"#utility.yul\":7357:7438   */\n      gt\n        /* \"#utility.yul\":7354:7461   */\n      iszero\n      tag_304\n      jumpi\n        /* \"#utility.yul\":7441:7459   */\n      tag_305\n      tag_298\n      jump\t// in\n    tag_305:\n        /* \"#utility.yul\":7354:7461   */\n    tag_304:\n        /* \"#utility.yul\":7485:7486   */\n      dup3\n        /* \"#utility.yul\":7482:7483   */\n      dup3\n        /* \"#utility.yul\":7478:7487   */\n      add\n        /* \"#utility.yul\":7471:7487   */\n      swap1\n      pop\n        /* \"#utility.yul\":7188:7493   */\n      swap3\n      swap2\n      pop\n      pop\n      jump\t// out\n        /* \"#utility.yul\":7499:7684   */\n    tag_117:\n        /* \"#utility.yul\":7539:7540   */\n      0x00\n        /* \"#utility.yul\":7556:7576   */\n      tag_307\n        /* \"#utility.yul\":7574:7575   */\n      dup3\n        /* \"#utility.yul\":7556:7576   */\n      tag_278\n      jump\t// in\n    tag_307:\n        /* \"#utility.yul\":7551:7576   */\n      swap2\n      pop\n        /* \"#utility.yul\":7590:7610   */\n      tag_308\n        /* \"#utility.yul\":7608:7609   */\n      dup4\n        /* \"#utility.yul\":7590:7610   */\n      tag_278\n      jump\t// in\n    tag_308:\n        /* \"#utility.yul\":7585:7610   */\n      swap3\n      pop\n        /* \"#utility.yul\":7629:7630   */\n      dup3\n        /* \"#utility.yul\":7619:7654   */\n      tag_309\n      jumpi\n        /* \"#utility.yul\":7634:7652   */\n      tag_310\n      tag_311\n      jump\t// in\n    tag_310:\n        /* \"#utility.yul\":7619:7654   */\n    tag_309:\n        /* \"#utility.yul\":7676:7677   */\n      dup3\n        /* \"#utility.yul\":7673:7674   */\n      dup3\n        /* \"#utility.yul\":7669:7678   */\n      div\n        /* \"#utility.yul\":7664:7678   */\n      swap1\n      pop\n        /* \"#utility.yul\":7499:7684   */\n      swap3\n      swap2\n      pop\n      pop\n      jump\t// out\n        /* \"#utility.yul\":7690:8538   */\n    tag_312:\n        /* \"#utility.yul\":7751:7756   */\n      0x00\n        /* \"#utility.yul\":7758:7762   */\n      dup1\n        /* \"#utility.yul\":7782:7788   */\n      dup3\n        /* \"#utility.yul\":7773:7788   */\n      swap2\n      pop\n        /* \"#utility.yul\":7806:7811   */\n      dup4\n        /* \"#utility.yul\":7797:7811   */\n      swap1\n      pop\n        /* \"#utility.yul\":7820:8532   */\n    tag_314:\n        /* \"#utility.yul\":7841:7842   */\n      0x01\n        /* \"#utility.yul\":7831:7839   */\n      dup6\n        /* \"#utility.yul\":7828:7843   */\n      gt\n        /* \"#utility.yul\":7820:8532   */\n      iszero\n      tag_316\n      jumpi\n        /* \"#utility.yul\":7936:7940   */\n      dup1\n        /* \"#utility.yul\":7931:7934   */\n      dup7\n        /* \"#utility.yul\":7927:7941   */\n      div\n        /* \"#utility.yul\":7921:7925   */\n      dup2\n        /* \"#utility.yul\":7918:7942   */\n      gt\n        /* \"#utility.yul\":7915:7965   */\n      iszero\n      tag_317\n      jumpi\n        /* \"#utility.yul\":7945:7963   */\n      tag_318\n      tag_298\n      jump\t// in\n    tag_318:\n        /* \"#utility.yul\":7915:7965   */\n    tag_317:\n        /* \"#utility.yul\":7995:7996   */\n      0x01\n        /* \"#utility.yul\":7985:7993   */\n      dup6\n        /* \"#utility.yul\":7981:7997   */\n      and\n        /* \"#utility.yul\":7978:8429   */\n      iszero\n      tag_319\n      jumpi\n        /* \"#utility.yul\":8410:8414   */\n      dup1\n        /* \"#utility.yul\":8403:8408   */\n      dup3\n        /* \"#utility.yul\":8399:8415   */\n      mul\n        /* \"#utility.yul\":8390:8415   */\n      swap2\n      pop\n        /* \"#utility.yul\":7978:8429   */\n    tag_319:\n        /* \"#utility.yul\":8460:8464   */\n      dup1\n        /* \"#utility.yul\":8454:8458   */\n      dup2\n        /* \"#utility.yul\":8450:8465   */\n      mul\n        /* \"#utility.yul\":8442:8465   */\n      swap1\n      pop\n        /* \"#utility.yul\":8490:8522   */\n      tag_320\n        /* \"#utility.yul\":8513:8521   */\n      dup6\n        /* \"#utility.yul\":8490:8522   */\n      tag_321\n      jump\t// in\n    tag_320:\n        /* \"#utility.yul\":8478:8522   */\n      swap5\n      pop\n        /* \"#utility.yul\":7820:8532   */\n      jump(tag_314)\n    tag_316:\n        /* \"#utility.yul\":7690:8538   */\n      swap5\n      pop\n      swap5\n      swap3\n      pop\n      pop\n      pop\n      jump\t// out\n        /* \"#utility.yul\":8544:8829   */\n    tag_107:\n        /* \"#utility.yul\":8604:8609   */\n      0x00\n        /* \"#utility.yul\":8628:8651   */\n      tag_323\n        /* \"#utility.yul\":8646:8650   */\n      dup3\n        /* \"#utility.yul\":8628:8651   */\n      tag_278\n      jump\t// in\n    tag_323:\n        /* \"#utility.yul\":8620:8651   */\n      swap2\n      pop\n        /* \"#utility.yul\":8672:8699   */\n      tag_324\n        /* \"#utility.yul\":8690:8698   */\n      dup4\n        /* \"#utility.yul\":8672:8699   */\n      tag_278\n      jump\t// in\n    tag_324:\n        /* \"#utility.yul\":8660:8699   */\n      swap3\n      pop\n        /* \"#utility.yul\":8718:8822   */\n      tag_325\n        /* \"#utility.yul\":8755:8821   */\n      0xffffffffffffffffffffffffffffffffffffffffffffffffffffffffffffffff\n        /* \"#utility.yul\":8745:8753   */\n      dup5\n        /* \"#utility.yul\":8739:8743   */\n      dup5\n        /* \"#utility.yul\":8718:8822   */\n      tag_326\n      jump\t// in\n    tag_325:\n        /* \"#utility.yul\":8709:8822   */\n      swap1\n      pop\n        /* \"#utility.yul\":8544:8829   */\n      swap3\n      swap2\n      pop\n      pop\n      jump\t// out\n        /* \"#utility.yul\":8835:9116   */\n    tag_213:\n        /* \"#utility.yul\":8893:8898   */\n      0x00\n        /* \"#utility.yul\":8917:8940   */\n      tag_328\n        /* \"#utility.yul\":8935:8939   */\n      dup3\n        /* \"#utility.yul\":8917:8940   */\n      tag_278\n      jump\t// in\n    tag_328:\n        /* \"#utility.yul\":8909:8940   */\n      swap2\n      pop\n        /* \"#utility.yul\":8961:8986   */\n      tag_329\n        /* \"#utility.yul\":8977:8985   */\n      dup4\n        /* \"#utility.yul\":8961:8986   */\n      tag_330\n      jump\t// in\n    tag_329:\n        /* \"#utility.yul\":8949:8986   */\n      swap3\n      pop\n        /* \"#utility.yul\":9005:9109   */\n      tag_331\n        /* \"#utility.yul\":9042:9108   */\n      0xffffffffffffffffffffffffffffffffffffffffffffffffffffffffffffffff\n        /* \"#utility.yul\":9032:9040   */\n      dup5\n        /* \"#utility.yul\":9026:9030   */\n      dup5\n        /* \"#utility.yul\":9005:9109   */\n      tag_326\n      jump\t// in\n    tag_331:\n        /* \"#utility.yul\":8996:9109   */\n      swap1\n      pop\n        /* \"#utility.yul\":8835:9116   */\n      swap3\n      swap2\n      pop\n      pop\n      jump\t// out\n        /* \"#utility.yul\":9122:10195   */\n    tag_326:\n        /* \"#utility.yul\":9176:9181   */\n      0x00\n        /* \"#utility.yul\":9367:9375   */\n      dup3\n        /* \"#utility.yul\":9357:9397   */\n      tag_333\n      jumpi\n        /* \"#utility.yul\":9388:9389   */\n      0x01\n        /* \"#utility.yul\":9379:9389   */\n      swap1\n      pop\n        /* \"#utility.yul\":9390:9395   */\n      jump(tag_332)\n        /* \"#utility.yul\":9357:9397   */\n    tag_333:\n        /* \"#utility.yul\":9416:9420   */\n      dup2\n        /* \"#utility.yul\":9406:9442   */\n      tag_334\n      jumpi\n        /* \"#utility.yul\":9433:9434   */\n      0x00\n        /* \"#utility.yul\":9424:9434   */\n      swap1\n      pop\n        /* \"#utility.yul\":9435:9440   */\n      jump(tag_332)\n        /* \"#utility.yul\":9406:9442   */\n    tag_334:\n        /* \"#utility.yul\":9502:9506   */\n      dup2\n        /* \"#utility.yul\":9550:9551   */\n      0x01\n        /* \"#utility.yul\":9545:9572   */\n      dup2\n      eq\n      tag_336\n      jumpi\n        /* \"#utility.yul\":9586:9587   */\n      0x02\n        /* \"#utility.yul\":9581:9772   */\n      dup2\n      eq\n      tag_337\n      jumpi\n        /* \"#utility.yul\":9495:9772   */\n      jump(tag_335)\n        /* \"#utility.yul\":9545:9572   */\n    tag_336:\n        /* \"#utility.yul\":9563:9564   */\n      0x01\n        /* \"#utility.yul\":9554:9564   */\n      swap2\n      pop\n        /* \"#utility.yul\":9565:9570   */\n      pop\n      jump(tag_332)\n        /* \"#utility.yul\":9581:9772   */\n    tag_337:\n        /* \"#utility.yul\":9626:9629   */\n      0xff\n        /* \"#utility.yul\":9616:9624   */\n      dup5\n        /* \"#utility.yul\":9613:9630   */\n      gt\n        /* \"#utility.yul\":9610:9653   */\n      iszero\n      tag_338\n      jumpi\n        /* \"#utility.yul\":9633:9651   */\n      tag_339\n      tag_298\n      jump\t// in\n    tag_339:\n        /* \"#utility.yul\":9610:9653   */\n    tag_338:\n        /* \"#utility.yul\":9682:9690   */\n      dup4\n        /* \"#utility.yul\":9679:9680   */\n      0x02\n        /* \"#utility.yul\":9675:9691   */\n      exp\n        /* \"#utility.yul\":9666:9691   */\n      swap2\n      pop\n        /* \"#utility.yul\":9717:9720   */\n      dup5\n        /* \"#utility.yul\":9710:9715   */\n      dup3\n        /* \"#utility.yul\":9707:9721   */\n      gt\n        /* \"#utility.yul\":9704:9744   */\n      iszero\n      tag_340\n      jumpi\n        /* \"#utility.yul\":9724:9742   */\n      tag_341\n      tag_298\n      jump\t// in\n    tag_341:\n        /* \"#utility.yul\":9704:9744   */\n    tag_340:\n        /* \"#utility.yul\":9757:9762   */\n      pop\n      jump(tag_332)\n        /* \"#utility.yul\":9495:9772   */\n    tag_335:\n      pop\n        /* \"#utility.yul\":9881:9883   */\n      0x20\n        /* \"#utility.yul\":9871:9879   */\n      dup4\n        /* \"#utility.yul\":9868:9884   */\n      lt\n        /* \"#utility.yul\":9862:9865   */\n      0x0133\n        /* \"#utility.yul\":9856:9860   */\n      dup4\n        /* \"#utility.yul\":9853:9866   */\n      lt\n        /* \"#utility.yul\":9849:9885   */\n      and\n        /* \"#utility.yul\":9831:9833   */\n      0x4e\n        /* \"#utility.yul\":9821:9829   */\n      dup5\n        /* \"#utility.yul\":9818:9834   */\n      lt\n        /* \"#utility.yul\":9813:9815   */\n      0x0b\n        /* \"#utility.yul\":9807:9811   */\n      dup5\n        /* \"#utility.yul\":9804:9816   */\n      lt\n        /* \"#utility.yul\":9800:9835   */\n      and\n        /* \"#utility.yul\":9784:9895   */\n      or\n        /* \"#utility.yul\":9781:10027   */\n      iszero\n      tag_342\n      jumpi\n        /* \"#utility.yul\":9937:9945   */\n      dup3\n        /* \"#utility.yul\":9931:9935   */\n      dup3\n        /* \"#utility.yul\":9927:9946   */\n      exp\n        /* \"#utility.yul\":9918:9946   */\n      swap1\n      pop\n        /* \"#utility.yul\":9972:9975   */\n      dup4\n        /* \"#utility.yul\":9965:9970   */\n      dup2\n        /* \"#utility.yul\":9962:9976   */\n      gt\n        /* \"#utility.yul\":9959:9999   */\n      iszero\n      tag_343\n      jumpi\n        /* \"#utility.yul\":9979:9997   */\n      tag_344\n      tag_298\n      jump\t// in\n    tag_344:\n        /* \"#utility.yul\":9959:9999   */\n    tag_343:\n        /* \"#utility.yul\":10012:10017   */\n      jump(tag_332)\n        /* \"#utility.yul\":9781:10027   */\n    tag_342:\n        /* \"#utility.yul\":10052:10094   */\n      tag_345\n        /* \"#utility.yul\":10090:10093   */\n      dup5\n        /* \"#utility.yul\":10080:10088   */\n      dup5\n        /* \"#utility.yul\":10074:10078   */\n      dup5\n        /* \"#utility.yul\":10071:10072   */\n      0x01\n        /* \"#utility.yul\":10052:10094   */\n      tag_312\n      jump\t// in\n    tag_345:\n        /* \"#utility.yul\":10037:10094   */\n      swap3\n      pop\n      swap1\n      pop\n        /* \"#utility.yul\":10126:10130   */\n      dup2\n        /* \"#utility.yul\":10121:10124   */\n      dup5\n        /* \"#utility.yul\":10117:10131   */\n      div\n        /* \"#utility.yul\":10110:10115   */\n      dup2\n        /* \"#utility.yul\":10107:10132   */\n      gt\n        /* \"#utility.yul\":10104:10155   */\n      iszero\n      tag_346\n      jumpi\n        /* \"#utility.yul\":10135:10153   */\n      tag_347\n      tag_298\n      jump\t// in\n    tag_347:\n        /* \"#utility.yul\":10104:10155   */\n    tag_346:\n        /* \"#utility.yul\":10184:10188   */\n      dup2\n        /* \"#utility.yul\":10177:10182   */\n      dup2\n        /* \"#utility.yul\":10173:10189   */\n      mul\n        /* \"#utility.yul\":10164:10189   */\n      swap1\n      pop\n        /* \"#utility.yul\":9122:10195   */\n    tag_332:\n      swap4\n      swap3\n      pop\n      pop\n      pop\n      jump\t// out\n        /* \"#utility.yul\":10201:10549   */\n    tag_115:\n        /* \"#utility.yul\":10241:10248   */\n      0x00\n        /* \"#utility.yul\":10264:10284   */\n      tag_349\n        /* \"#utility.yul\":10282:10283   */\n      dup3\n        /* \"#utility.yul\":10264:10284   */\n      tag_278\n      jump\t// in\n    tag_349:\n        /* \"#utility.yul\":10259:10284   */\n      swap2\n      pop\n        /* \"#utility.yul\":10298:10318   */\n      tag_350\n        /* \"#utility.yul\":10316:10317   */\n      dup4\n        /* \"#utility.yul\":10298:10318   */\n      tag_278\n      jump\t// in\n    tag_350:\n        /* \"#utility.yul\":10293:10318   */\n      swap3\n      pop\n        /* \"#utility.yul\":10486:10487   */\n      dup2\n        /* \"#utility.yul\":10418:10484   */\n      0xffffffffffffffffffffffffffffffffffffffffffffffffffffffffffffffff\n        /* \"#utility.yul\":10414:10488   */\n      div\n        /* \"#utility.yul\":10411:10412   */\n      dup4\n        /* \"#utility.yul\":10408:10489   */\n      gt\n        /* \"#utility.yul\":10403:10404   */\n      dup3\n        /* \"#utility.yul\":10396:10405   */\n      iszero\n        /* \"#utility.yul\":10389:10406   */\n      iszero\n        /* \"#utility.yul\":10385:10490   */\n      and\n        /* \"#utility.yul\":10382:10513   */\n      iszero\n      tag_351\n      jumpi\n        /* \"#utility.yul\":10493:10511   */\n      tag_352\n      tag_298\n      jump\t// in\n    tag_352:\n        /* \"#utility.yul\":10382:10513   */\n    tag_351:\n        /* \"#utility.yul\":10541:10542   */\n      dup3\n        /* \"#utility.yul\":10538:10539   */\n      dup3\n        /* \"#utility.yul\":10534:10543   */\n      mul\n        /* \"#utility.yul\":10523:10543   */\n      swap1\n      pop\n        /* \"#utility.yul\":10201:10549   */\n      swap3\n      swap2\n      pop\n      pop\n      jump\t// out\n        /* \"#utility.yul\":10555:11082   */\n    tag_91:\n        /* \"#utility.yul\":10594:10598   */\n      0x00\n        /* \"#utility.yul\":10614:10633   */\n      tag_354\n        /* \"#utility.yul\":10631:10632   */\n      dup3\n        /* \"#utility.yul\":10614:10633   */\n      tag_257\n      jump\t// in\n    tag_354:\n        /* \"#utility.yul\":10609:10633   */\n      swap2\n      pop\n        /* \"#utility.yul\":10647:10666   */\n      tag_355\n        /* \"#utility.yul\":10664:10665   */\n      dup4\n        /* \"#utility.yul\":10647:10666   */\n      tag_257\n      jump\t// in\n    tag_355:\n        /* \"#utility.yul\":10642:10666   */\n      swap3\n      pop\n        /* \"#utility.yul\":10836:10837   */\n      dup3\n        /* \"#utility.yul\":10768:10834   */\n      0x8000000000000000000000000000000000000000000000000000000000000000\n        /* \"#utility.yul\":10764:10838   */\n      add\n        /* \"#utility.yul\":10761:10762   */\n      dup3\n        /* \"#utility.yul\":10757:10839   */\n      slt\n        /* \"#utility.yul\":10752:10753   */\n      0x00\n        /* \"#utility.yul\":10749:10750   */\n      dup5\n        /* \"#utility.yul\":10745:10754   */\n      slt\n        /* \"#utility.yul\":10738:10755   */\n      iszero\n        /* \"#utility.yul\":10734:10840   */\n      and\n        /* \"#utility.yul\":10731:10863   */\n      iszero\n      tag_356\n      jumpi\n        /* \"#utility.yul\":10843:10861   */\n      tag_357\n      tag_298\n      jump\t// in\n    tag_357:\n        /* \"#utility.yul\":10731:10863   */\n    tag_356:\n        /* \"#utility.yul\":11022:11023   */\n      dup3\n        /* \"#utility.yul\":10954:11020   */\n      0x7fffffffffffffffffffffffffffffffffffffffffffffffffffffffffffffff\n        /* \"#utility.yul\":10950:11024   */\n      add\n        /* \"#utility.yul\":10947:10948   */\n      dup3\n        /* \"#utility.yul\":10943:11025   */\n      sgt\n        /* \"#utility.yul\":10939:10940   */\n      0x00\n        /* \"#utility.yul\":10936:10937   */\n      dup5\n        /* \"#utility.yul\":10932:10941   */\n      slt\n        /* \"#utility.yul\":10928:11026   */\n      and\n        /* \"#utility.yul\":10925:11049   */\n      iszero\n      tag_358\n      jumpi\n        /* \"#utility.yul\":11029:11047   */\n      tag_359\n      tag_298\n      jump\t// in\n    tag_359:\n        /* \"#utility.yul\":10925:11049   */\n    tag_358:\n        /* \"#utility.yul\":11074:11075   */\n      dup3\n        /* \"#utility.yul\":11071:11072   */\n      dup3\n        /* \"#utility.yul\":11067:11076   */\n      sub\n        /* \"#utility.yul\":11059:11076   */\n      swap1\n      pop\n        /* \"#utility.yul\":10555:11082   */\n      swap3\n      swap2\n      pop\n      pop\n      jump\t// out\n        /* \"#utility.yul\":11088:11279   */\n    tag_160:\n        /* \"#utility.yul\":11128:11132   */\n      0x00\n        /* \"#utility.yul\":11148:11168   */\n      tag_361\n        /* \"#utility.yul\":11166:11167   */\n      dup3\n        /* \"#utility.yul\":11148:11168   */\n      tag_278\n      jump\t// in\n    tag_361:\n        /* \"#utility.yul\":11143:11168   */\n      swap2\n      pop\n        /* \"#utility.yul\":11182:11202   */\n      tag_362\n        /* \"#utility.yul\":11200:11201   */\n      dup4\n        /* \"#utility.yul\":11182:11202   */\n      tag_278\n      jump\t// in\n    tag_362:\n        /* \"#utility.yul\":11177:11202   */\n      swap3\n      pop\n        /* \"#utility.yul\":11221:11222   */\n      dup3\n        /* \"#utility.yul\":11218:11219   */\n      dup3\n        /* \"#utility.yul\":11215:11223   */\n      lt\n        /* \"#utility.yul\":11212:11246   */\n      iszero\n      tag_363\n      jumpi\n        /* \"#utility.yul\":11226:11244   */\n      tag_364\n      tag_298\n      jump\t// in\n    tag_364:\n        /* \"#utility.yul\":11212:11246   */\n    tag_363:\n        /* \"#utility.yul\":11271:11272   */\n      dup3\n        /* \"#utility.yul\":11268:11269   */\n      dup3\n        /* \"#utility.yul\":11264:11273   */\n      sub\n        /* \"#utility.yul\":11256:11273   */\n      swap1\n      pop\n        /* \"#utility.yul\":11088:11279   */\n      swap3\n      swap2\n      pop\n      pop\n      jump\t// out\n        /* \"#utility.yul\":11285:11361   */\n    tag_257:\n        /* \"#utility.yul\":11321:11328   */\n      0x00\n        /* \"#utility.yul\":11350:11355   */\n      dup2\n        /* \"#utility.yul\":11339:11355   */\n      swap1\n      pop\n        /* \"#utility.yul\":11285:11361   */\n      swap2\n      swap1\n      pop\n      jump\t// out\n        /* \"#utility.yul\":11367:11444   */\n    tag_278:\n        /* \"#utility.yul\":11404:11411   */\n      0x00\n        /* \"#utility.yul\":11433:11438   */\n      dup2\n        /* \"#utility.yul\":11422:11438   */\n      swap1\n      pop\n        /* \"#utility.yul\":11367:11444   */\n      swap2\n      swap1\n      pop\n      jump\t// out\n        /* \"#utility.yul\":11450:11536   */\n    tag_330:\n        /* \"#utility.yul\":11485:11492   */\n      0x00\n        /* \"#utility.yul\":11525:11529   */\n      0xff\n        /* \"#utility.yul\":11518:11523   */\n      dup3\n        /* \"#utility.yul\":11514:11530   */\n      and\n        /* \"#utility.yul\":11503:11530   */\n      swap1\n      pop\n        /* \"#utility.yul\":11450:11536   */\n      swap2\n      swap1\n      pop\n      jump\t// out\n        /* \"#utility.yul\":11542:11773   */\n    tag_210:\n        /* \"#utility.yul\":11580:11583   */\n      0x00\n        /* \"#utility.yul\":11603:11626   */\n      tag_369\n        /* \"#utility.yul\":11620:11625   */\n      dup3\n        /* \"#utility.yul\":11603:11626   */\n      tag_257\n      jump\t// in\n    tag_369:\n        /* \"#utility.yul\":11594:11626   */\n      swap2\n      pop\n        /* \"#utility.yul\":11648:11714   */\n      0x7fffffffffffffffffffffffffffffffffffffffffffffffffffffffffffffff\n        /* \"#utility.yul\":11641:11646   */\n      dup3\n        /* \"#utility.yul\":11638:11715   */\n      eq\n        /* \"#utility.yul\":11635:11738   */\n      iszero\n      tag_370\n      jumpi\n        /* \"#utility.yul\":11718:11736   */\n      tag_371\n      tag_298\n      jump\t// in\n    tag_371:\n        /* \"#utility.yul\":11635:11738   */\n    tag_370:\n        /* \"#utility.yul\":11765:11766   */\n      0x01\n        /* \"#utility.yul\":11758:11763   */\n      dup3\n        /* \"#utility.yul\":11754:11767   */\n      add\n        /* \"#utility.yul\":11747:11767   */\n      swap1\n      pop\n        /* \"#utility.yul\":11542:11773   */\n      swap2\n      swap1\n      pop\n      jump\t// out\n        /* \"#utility.yul\":11779:12012   */\n    tag_122:\n        /* \"#utility.yul\":11818:11821   */\n      0x00\n        /* \"#utility.yul\":11841:11865   */\n      tag_373\n        /* \"#utility.yul\":11859:11864   */\n      dup3\n        /* \"#utility.yul\":11841:11865   */\n      tag_278\n      jump\t// in\n    tag_373:\n        /* \"#utility.yul\":11832:11865   */\n      swap2\n      pop\n        /* \"#utility.yul\":11887:11953   */\n      0xffffffffffffffffffffffffffffffffffffffffffffffffffffffffffffffff\n        /* \"#utility.yul\":11880:11885   */\n      dup3\n        /* \"#utility.yul\":11877:11954   */\n      eq\n        /* \"#utility.yul\":11874:11977   */\n      iszero\n      tag_374\n      jumpi\n        /* \"#utility.yul\":11957:11975   */\n      tag_375\n      tag_298\n      jump\t// in\n    tag_375:\n        /* \"#utility.yul\":11874:11977   */\n    tag_374:\n        /* \"#utility.yul\":12004:12005   */\n      0x01\n        /* \"#utility.yul\":11997:12002   */\n      dup3\n        /* \"#utility.yul\":11993:12006   */\n      add\n        /* \"#utility.yul\":11986:12006   */\n      swap1\n      pop\n        /* \"#utility.yul\":11779:12012   */\n      swap2\n      swap1\n      pop\n      jump\t// out\n        /* \"#utility.yul\":12018:12192   */\n    tag_102:\n        /* \"#utility.yul\":12049:12050   */\n      0x00\n        /* \"#utility.yul\":12066:12085   */\n      tag_377\n        /* \"#utility.yul\":12083:12084   */\n      dup3\n        /* \"#utility.yul\":12066:12085   */\n      tag_257\n      jump\t// in\n    tag_377:\n        /* \"#utility.yul\":12061:12085   */\n      swap2\n      pop\n        /* \"#utility.yul\":12099:12118   */\n      tag_378\n        /* \"#utility.yul\":12116:12117   */\n      dup4\n        /* \"#utility.yul\":12099:12118   */\n      tag_257\n      jump\t// in\n    tag_378:\n        /* \"#utility.yul\":12094:12118   */\n      swap3\n      pop\n        /* \"#utility.yul\":12137:12138   */\n      dup3\n        /* \"#utility.yul\":12127:12162   */\n      tag_379\n      jumpi\n        /* \"#utility.yul\":12142:12160   */\n      tag_380\n      tag_311\n      jump\t// in\n    tag_380:\n        /* \"#utility.yul\":12127:12162   */\n    tag_379:\n        /* \"#utility.yul\":12184:12185   */\n      dup3\n        /* \"#utility.yul\":12181:12182   */\n      dup3\n        /* \"#utility.yul\":12176:12186   */\n      smod\n        /* \"#utility.yul\":12171:12186   */\n      swap1\n      pop\n        /* \"#utility.yul\":12018:12192   */\n      swap3\n      swap2\n      pop\n      pop\n      jump\t// out\n        /* \"#utility.yul\":12198:12374   */\n    tag_113:\n        /* \"#utility.yul\":12230:12231   */\n      0x00\n        /* \"#utility.yul\":12247:12267   */\n      tag_382\n        /* \"#utility.yul\":12265:12266   */\n      dup3\n        /* \"#utility.yul\":12247:12267   */\n      tag_278\n      jump\t// in\n    tag_382:\n        /* \"#utility.yul\":12242:12267   */\n      swap2\n      pop\n        /* \"#utility.yul\":12281:12301   */\n      tag_383\n        /* \"#utility.yul\":12299:12300   */\n      dup4\n        /* \"#utility.yul\":12281:12301   */\n      tag_278\n      jump\t// in\n    tag_383:\n        /* \"#utility.yul\":12276:12301   */\n      swap3\n      pop\n        /* \"#utility.yul\":12320:12321   */\n      dup3\n        /* \"#utility.yul\":12310:12345   */\n      tag_384\n      jumpi\n        /* \"#utility.yul\":12325:12343   */\n      tag_385\n      tag_311\n      jump\t// in\n    tag_385:\n        /* \"#utility.yul\":12310:12345   */\n    tag_384:\n        /* \"#utility.yul\":12366:12367   */\n      dup3\n        /* \"#utility.yul\":12363:12364   */\n      dup3\n        /* \"#utility.yul\":12359:12368   */\n      mod\n        /* \"#utility.yul\":12354:12368   */\n      swap1\n      pop\n        /* \"#utility.yul\":12198:12374   */\n      swap3\n      swap2\n      pop\n      pop\n      jump\t// out\n        /* \"#utility.yul\":12380:12608   */\n    tag_99:\n        /* \"#utility.yul\":12415:12418   */\n      0x00\n        /* \"#utility.yul\":12438:12461   */\n      tag_387\n        /* \"#utility.yul\":12455:12460   */\n      dup3\n        /* \"#utility.yul\":12438:12461   */\n      tag_257\n      jump\t// in\n    tag_387:\n        /* \"#utility.yul\":12429:12461   */\n      swap2\n      pop\n        /* \"#utility.yul\":12483:12549   */\n      0x8000000000000000000000000000000000000000000000000000000000000000\n        /* \"#utility.yul\":12476:12481   */\n      dup3\n        /* \"#utility.yul\":12473:12550   */\n      eq\n        /* \"#utility.yul\":12470:12573   */\n      iszero\n      tag_388\n      jumpi\n        /* \"#utility.yul\":12553:12571   */\n      tag_389\n      tag_298\n      jump\t// in\n    tag_389:\n        /* \"#utility.yul\":12470:12573   */\n    tag_388:\n        /* \"#utility.yul\":12596:12601   */\n      dup2\n        /* \"#utility.yul\":12593:12594   */\n      0x00\n        /* \"#utility.yul\":12589:12602   */\n      sub\n        /* \"#utility.yul\":12582:12602   */\n      swap1\n      pop\n        /* \"#utility.yul\":12380:12608   */\n      swap2\n      swap1\n      pop\n      jump\t// out\n        /* \"#utility.yul\":12614:12794   */\n    tag_298:\n        /* \"#utility.yul\":12662:12739   */\n      0x4e487b7100000000000000000000000000000000000000000000000000000000\n        /* \"#utility.yul\":12659:12660   */\n      0x00\n        /* \"#utility.yul\":12652:12740   */\n      mstore\n        /* \"#utility.yul\":12759:12763   */\n      0x11\n        /* \"#utility.yul\":12756:12757   */\n      0x04\n        /* \"#utility.yul\":12749:12764   */\n      mstore\n        /* \"#utility.yul\":12783:12787   */\n      0x24\n        /* \"#utility.yul\":12780:12781   */\n      0x00\n        /* \"#utility.yul\":12773:12788   */\n      revert\n        /* \"#utility.yul\":12800:12980   */\n    tag_311:\n        /* \"#utility.yul\":12848:12925   */\n      0x4e487b7100000000000000000000000000000000000000000000000000000000\n        /* \"#utility.yul\":12845:12846   */\n      0x00\n        /* \"#utility.yul\":12838:12926   */\n      mstore\n        /* \"#utility.yul\":12945:12949   */\n      0x12\n        /* \"#utility.yul\":12942:12943   */\n      0x04\n        /* \"#utility.yul\":12935:12950   */\n      mstore\n        /* \"#utility.yul\":12969:12973   */\n      0x24\n        /* \"#utility.yul\":12966:12967   */\n      0x00\n        /* \"#utility.yul\":12959:12974   */\n      revert\n        /* \"#utility.yul\":12986:13166   */\n    tag_165:\n        /* \"#utility.yul\":13034:13111   */\n      0x4e487b7100000000000000000000000000000000000000000000000000000000\n        /* \"#utility.yul\":13031:13032   */\n      0x00\n        /* \"#utility.yul\":13024:13112   */\n      mstore\n        /* \"#utility.yul\":13131:13135   */\n      0x32\n        /* \"#utility.yul\":13128:13129   */\n      0x04\n        /* \"#utility.yul\":13121:13136   */\n      mstore\n        /* \"#utility.yul\":13155:13159   */\n      0x24\n        /* \"#utility.yul\":13152:13153   */\n      0x00\n        /* \"#utility.yul\":13145:13160   */\n      revert\n        /* \"#utility.yul\":13295:13412   */\n    tag_226:\n        /* \"#utility.yul\":13404:13405   */\n      0x00\n        /* \"#utility.yul\":13401:13402   */\n      dup1\n        /* \"#utility.yul\":13394:13406   */\n      revert\n        /* \"#utility.yul\":13418:13520   */\n    tag_321:\n        /* \"#utility.yul\":13460:13468   */\n      0x00\n        /* \"#utility.yul\":13507:13512   */\n      dup2\n        /* \"#utility.yul\":13504:13505   */\n      0x01\n        /* \"#utility.yul\":13500:13513   */\n      shr\n        /* \"#utility.yul\":13479:13513   */\n      swap1\n      pop\n        /* \"#utility.yul\":13418:13520   */\n      swap2\n      swap1\n      pop\n      jump\t// out\n        /* \"#utility.yul\":13526:13694   */\n    tag_263:\n        /* \"#utility.yul\":13666:13686   */\n      0x6e6f7420412076616c6964206e756d6265720000000000000000000000000000\n        /* \"#utility.yul\":13662:13663   */\n      0x00\n        /* \"#utility.yul\":13654:13660   */\n      dup3\n        /* \"#utility.yul\":13650:13664   */\n      add\n        /* \"#utility.yul\":13643:13687   */\n      mstore\n        /* \"#utility.yul\":13526:13694   */\n      pop\n      jump\t// out\n        /* \"#utility.yul\":13700:13856   */\n    tag_269:\n        /* \"#utility.yul\":13840:13848   */\n      0x6e756d4172720000000000000000000000000000000000000000000000000000\n        /* \"#utility.yul\":13836:13837   */\n      0x00\n        /* \"#utility.yul\":13828:13834   */\n      dup3\n        /* \"#utility.yul\":13824:13838   */\n      add\n        /* \"#utility.yul\":13817:13849   */\n      mstore\n        /* \"#utility.yul\":13700:13856   */\n      pop\n      jump\t// out\n        /* \"#utility.yul\":13862:14030   */\n    tag_274:\n        /* \"#utility.yul\":14002:14022   */\n      0x6e6f7420612076616c6964206e756d6265720000000000000000000000000000\n        /* \"#utility.yul\":13998:13999   */\n      0x00\n        /* \"#utility.yul\":13990:13996   */\n      dup3\n        /* \"#utility.yul\":13986:14000   */\n      add\n        /* \"#utility.yul\":13979:14023   */\n      mstore\n        /* \"#utility.yul\":13862:14030   */\n      pop\n      jump\t// out\n        /* \"#utility.yul\":14036:14156   */\n    tag_218:\n        /* \"#utility.yul\":14108:14131   */\n      tag_401\n        /* \"#utility.yul\":14125:14130   */\n      dup2\n        /* \"#utility.yul\":14108:14131   */\n      tag_257\n      jump\t// in\n    tag_401:\n        /* \"#utility.yul\":14101:14106   */\n      dup2\n        /* \"#utility.yul\":14098:14132   */\n      eq\n        /* \"#utility.yul\":14088:14150   */\n      tag_402\n      jumpi\n        /* \"#utility.yul\":14146:14147   */\n      0x00\n        /* \"#utility.yul\":14143:14144   */\n      dup1\n        /* \"#utility.yul\":14136:14148   */\n      revert\n        /* \"#utility.yul\":14088:14150   */\n    tag_402:\n        /* \"#utility.yul\":14036:14156   */\n      pop\n      jump\t// out\n        /* \"#utility.yul\":14162:14284   */\n    tag_222:\n        /* \"#utility.yul\":14235:14259   */\n      tag_404\n        /* \"#utility.yul\":14253:14258   */\n      dup2\n        /* \"#utility.yul\":14235:14259   */\n      tag_278\n      jump\t// in\n    tag_404:\n        /* \"#utility.yul\":14228:14233   */\n      dup2\n        /* \"#utility.yul\":14225:14260   */\n      eq\n        /* \"#utility.yul\":14215:14278   */\n      tag_405\n      jumpi\n        /* \"#utility.yul\":14274:14275   */\n      0x00\n        /* \"#utility.yul\":14271:14272   */\n      dup1\n        /* \"#utility.yul\":14264:14276   */\n      revert\n        /* \"#utility.yul\":14215:14278   */\n    tag_405:\n        /* \"#utility.yul\":14162:14284   */\n      pop\n      jump\t// out\n\n    auxdata: 0xa26469706673582212203f775f686ecaf65fcca9d03e9a7baf91454ea66a4760f24aa6aa8bd2d694b64a64736f6c63430008070033\n}\n",
				"bytecode": {
					"linkReferences": {},
					"object": "608060405234801561001057600080fd5b5061130f806100206000396000f3fe608060405234801561001057600080fd5b50600436106100f55760003560e01c806392cc284111610097578063d9ea8e6411610066578063d9ea8e64146102d2578063f26c79ef14610302578063f492c0001461031e578063f4bf03c71461034e576100f5565b806392cc2841146102245780639e098fc114610254578063b413372114610284578063cdab7807146102a2576100f5565b80638119c065116100d35780638119c0651461018a578063837148341461019457806383d3705e146101c45780638ce32d21146101f4576100f5565b806317d95c7e146100fa578063464397261461012a5780634f4752ba1461015a575b600080fd5b610114600480360381019061010f91906109b9565b61037e565b6040516101219190610ba8565b60405180910390f35b610144600480360381019061013f919061098c565b61040e565b6040516101519190610c03565b60405180910390f35b610174600480360381019061016f9190610a79565b610437565b6040516101819190610c03565b60405180910390f35b61019261044d565b005b6101ae60048036038101906101a99190610a4c565b610467565b6040516101bb9190610c03565b60405180910390f35b6101de60048036038101906101d99190610a4c565b6104ba565b6040516101eb9190610c03565b60405180910390f35b61020e60048036038101906102099190610a4c565b61059b565b60405161021b9190610c03565b60405180910390f35b61023e60048036038101906102399190610ab9565b6105ea565b60405161024b9190610c03565b60405180910390f35b61026e60048036038101906102699190610a4c565b610618565b60405161027b9190610c03565b60405180910390f35b61028c610673565b6040516102999190610c03565b60405180910390f35b6102bc60048036038101906102b79190610a4c565b6107a6565b6040516102c99190610c03565b60405180910390f35b6102ec60048036038101906102e791906109f9565b610814565b6040516102f99190610ba8565b60405180910390f35b61031c60048036038101906103179190610a4c565b610841565b005b6103386004803603810190610333919061098c565b610900565b6040516103459190610ba8565b60405180910390f35b61036860048036038101906103639190610a4c565b61094c565b6040516103759190610c03565b60405180910390f35b60008083148061038e5750600082145b1561039c5760009050610408565b60008213156103cd576103bb836001846103b69190610f6b565b61037e565b836103c69190610c3a565b9050610408565b6000821215610407576103ec836001846103e79190610f6b565b61037e565b836103f79190610c3a565b61040090611148565b9050610408565b5b92915050565b60008060028361041e91906110e6565b141561042d5760019050610432565b600090505b919050565b600081836104459190610da8565b905092915050565b600060019050600060029050808280925081935050505050565b6000808290506000600190505b600082146104b0576000600a8361048b9190611117565b905080826104999190610f11565b9150600a836104a89190610d24565b925050610474565b8092505050919050565b6000808290506000805b600083146104ee5781806104d79061109d565b925050600a836104e79190610d24565b92506104c4565b6000821415610532576040517f08c379a000000000000000000000000000000000000000000000000000000000815260040161052990610be3565b60405180910390fd5b8492505b6000831461057d576000600a8461054d9190611117565b9050828161055b9190610da8565b826105669190610cce565b9150600a846105759190610d24565b935050610536565b80851461058b57600061058e565b60015b60ff169350505050919050565b60008082905060005b600082146105e0576000600a836105bb9190611117565b905080826105c99190610cce565b9150600a836105d89190610d24565b9250506105a4565b8092505050919050565b600060038284866105fb9190610cce565b6106059190610cce565b61060f9190610d24565b90509392505050565b60008060008390505b60008114610669576000600a826106389190611117565b905080600a846106489190610f11565b6106529190610cce565b9250600a826106619190610d24565b915050610621565b8192505050919050565b600080600090505b6002600060405161068b90610b93565b9081526020016040518091039020805490506106a79190610fff565b81101561079d5760006040516106bc90610b93565b90815260200160405180910390206002826106d79190610cce565b815481106106e8576106e76111ef565b5b9060005260206000200154600060405161070190610b93565b908152602001604051809103902060018361071c9190610cce565b8154811061072d5761072c6111ef565b5b90600052602060002001546107429190610cce565b600060405161075090610b93565b908152602001604051809103902082815481106107705761076f6111ef565b5b90600052602060002001541461078a5760009150506107a3565b80806107959061109d565b91505061067b565b50600190505b90565b60008082905060005b600082146107f7576000600a836107c69190611117565b905080600a836107d69190610f11565b6107e09190610cce565b9150600a836107ef9190610d24565b9250506107af565b838114610805576000610808565b60015b60ff1692505050919050565b6000808385136108245783610826565b845b90508281136108355782610837565b805b9150509392505050565b6000811415610885576040517f08c379a000000000000000000000000000000000000000000000000000000000815260040161087c90610bc3565b60405180910390fd5b60008190505b600081146108fc576000600a826108a29190611117565b905060006040516108b290610b93565b9081526020016040518091039020819080600181540180825580915050600190039060005260206000200160009091909190915055600a826108f49190610d24565b91505061088b565b5050565b600080600290505b82811215610941576000818461091e91906110e6565b141561092e576000915050610947565b808061093990611054565b915050610908565b50600190505b919050565b600060028261095b9190610df3565b9050919050565b600081359050610971816112ab565b92915050565b600081359050610986816112c2565b92915050565b6000602082840312156109a2576109a161121e565b5b60006109b084828501610962565b91505092915050565b600080604083850312156109d0576109cf61121e565b5b60006109de85828601610962565b92505060206109ef85828601610962565b9150509250929050565b600080600060608486031215610a1257610a1161121e565b5b6000610a2086828701610962565b9350506020610a3186828701610962565b9250506040610a4286828701610962565b9150509250925092565b600060208284031215610a6257610a6161121e565b5b6000610a7084828501610977565b91505092915050565b60008060408385031215610a9057610a8f61121e565b5b6000610a9e85828601610977565b9250506020610aaf85828601610977565b9150509250929050565b600080600060608486031215610ad257610ad161121e565b5b6000610ae086828701610977565b9350506020610af186828701610977565b9250506040610b0286828701610977565b9150509250925092565b610b1581611033565b82525050565b6000610b28601283610c1e565b9150610b3382611230565b602082019050919050565b6000610b4b600683610c2f565b9150610b5682611259565b600682019050919050565b6000610b6e601283610c1e565b9150610b7982611282565b602082019050919050565b610b8d8161103d565b82525050565b6000610b9e82610b3e565b9150819050919050565b6000602082019050610bbd6000830184610b0c565b92915050565b60006020820190508181036000830152610bdc81610b1b565b9050919050565b60006020820190508181036000830152610bfc81610b61565b9050919050565b6000602082019050610c186000830184610b84565b92915050565b600082825260208201905092915050565b600081905092915050565b6000610c4582611033565b9150610c5083611033565b9250817f7fffffffffffffffffffffffffffffffffffffffffffffffffffffffffffffff03831360008312151615610c8b57610c8a611191565b5b817f8000000000000000000000000000000000000000000000000000000000000000038312600083121615610cc357610cc2611191565b5b828201905092915050565b6000610cd98261103d565b9150610ce48361103d565b9250827fffffffffffffffffffffffffffffffffffffffffffffffffffffffffffffffff03821115610d1957610d18611191565b5b828201905092915050565b6000610d2f8261103d565b9150610d3a8361103d565b925082610d4a57610d496111c0565b5b828204905092915050565b6000808291508390505b6001851115610d9f57808604811115610d7b57610d7a611191565b5b6001851615610d8a5780820291505b8081029050610d9885611223565b9450610d5f565b94509492505050565b6000610db38261103d565b9150610dbe8361103d565b9250610deb7fffffffffffffffffffffffffffffffffffffffffffffffffffffffffffffffff8484610e3e565b905092915050565b6000610dfe8261103d565b9150610e0983611047565b9250610e367fffffffffffffffffffffffffffffffffffffffffffffffffffffffffffffffff8484610e3e565b905092915050565b600082610e4e5760019050610f0a565b81610e5c5760009050610f0a565b8160018114610e725760028114610e7c57610eab565b6001915050610f0a565b60ff841115610e8e57610e8d611191565b5b8360020a915084821115610ea557610ea4611191565b5b50610f0a565b5060208310610133831016604e8410600b8410161715610ee05782820a905083811115610edb57610eda611191565b5b610f0a565b610eed8484846001610d55565b92509050818404811115610f0457610f03611191565b5b81810290505b9392505050565b6000610f1c8261103d565b9150610f278361103d565b9250817fffffffffffffffffffffffffffffffffffffffffffffffffffffffffffffffff0483118215151615610f6057610f5f611191565b5b828202905092915050565b6000610f7682611033565b9150610f8183611033565b9250827f800000000000000000000000000000000000000000000000000000000000000001821260008412151615610fbc57610fbb611191565b5b827f7fffffffffffffffffffffffffffffffffffffffffffffffffffffffffffffff018213600084121615610ff457610ff3611191565b5b828203905092915050565b600061100a8261103d565b91506110158361103d565b92508282101561102857611027611191565b5b828203905092915050565b6000819050919050565b6000819050919050565b600060ff82169050919050565b600061105f82611033565b91507f7fffffffffffffffffffffffffffffffffffffffffffffffffffffffffffffff82141561109257611091611191565b5b600182019050919050565b60006110a88261103d565b91507fffffffffffffffffffffffffffffffffffffffffffffffffffffffffffffffff8214156110db576110da611191565b5b600182019050919050565b60006110f182611033565b91506110fc83611033565b92508261110c5761110b6111c0565b5b828207905092915050565b60006111228261103d565b915061112d8361103d565b92508261113d5761113c6111c0565b5b828206905092915050565b600061115382611033565b91507f800000000000000000000000000000000000000000000000000000000000000082141561118657611185611191565b5b816000039050919050565b7f4e487b7100000000000000000000000000000000000000000000000000000000600052601160045260246000fd5b7f4e487b7100000000000000000000000000000000000000000000000000000000600052601260045260246000fd5b7f4e487b7100000000000000000000000000000000000000000000000000000000600052603260045260246000fd5b600080fd5b60008160011c9050919050565b7f6e6f7420412076616c6964206e756d6265720000000000000000000000000000600082015250565b7f6e756d4172720000000000000000000000000000000000000000000000000000600082015250565b7f6e6f7420612076616c6964206e756d6265720000000000000000000000000000600082015250565b6112b481611033565b81146112bf57600080fd5b50565b6112cb8161103d565b81146112d657600080fd5b5056fea26469706673582212203f775f686ecaf65fcca9d03e9a7baf91454ea66a4760f24aa6aa8bd2d694b64a64736f6c63430008070033",
					"opcodes": "PUSH1 0x80 PUSH1 0x40 MSTORE CALLVALUE DUP1 ISZERO PUSH2 0x10 JUMPI PUSH1 0x0 DUP1 REVERT JUMPDEST POP PUSH2 0x130F DUP1 PUSH2 0x20 PUSH1 0x0 CODECOPY PUSH1 0x0 RETURN INVALID PUSH1 0x80 PUSH1 0x40 MSTORE CALLVALUE DUP1 ISZERO PUSH2 0x10 JUMPI PUSH1 0x0 DUP1 REVERT JUMPDEST POP PUSH1 0x4 CALLDATASIZE LT PUSH2 0xF5 JUMPI PUSH1 0x0 CALLDATALOAD PUSH1 0xE0 SHR DUP1 PUSH4 0x92CC2841 GT PUSH2 0x97 JUMPI DUP1 PUSH4 0xD9EA8E64 GT PUSH2 0x66 JUMPI DUP1 PUSH4 0xD9EA8E64 EQ PUSH2 0x2D2 JUMPI DUP1 PUSH4 0xF26C79EF EQ PUSH2 0x302 JUMPI DUP1 PUSH4 0xF492C000 EQ PUSH2 0x31E JUMPI DUP1 PUSH4 0xF4BF03C7 EQ PUSH2 0x34E JUMPI PUSH2 0xF5 JUMP JUMPDEST DUP1 PUSH4 0x92CC2841 EQ PUSH2 0x224 JUMPI DUP1 PUSH4 0x9E098FC1 EQ PUSH2 0x254 JUMPI DUP1 PUSH4 0xB4133721 EQ PUSH2 0x284 JUMPI DUP1 PUSH4 0xCDAB7807 EQ PUSH2 0x2A2 JUMPI PUSH2 0xF5 JUMP JUMPDEST DUP1 PUSH4 0x8119C065 GT PUSH2 0xD3 JUMPI DUP1 PUSH4 0x8119C065 EQ PUSH2 0x18A JUMPI DUP1 PUSH4 0x83714834 EQ PUSH2 0x194 JUMPI DUP1 PUSH4 0x83D3705E EQ PUSH2 0x1C4 JUMPI DUP1 PUSH4 0x8CE32D21 EQ PUSH2 0x1F4 JUMPI PUSH2 0xF5 JUMP JUMPDEST DUP1 PUSH4 0x17D95C7E EQ PUSH2 0xFA JUMPI DUP1 PUSH4 0x46439726 EQ PUSH2 0x12A JUMPI DUP1 PUSH4 0x4F4752BA EQ PUSH2 0x15A JUMPI JUMPDEST PUSH1 0x0 DUP1 REVERT JUMPDEST PUSH2 0x114 PUSH1 0x4 DUP1 CALLDATASIZE SUB DUP2 ADD SWAP1 PUSH2 0x10F SWAP2 SWAP1 PUSH2 0x9B9 JUMP JUMPDEST PUSH2 0x37E JUMP JUMPDEST PUSH1 0x40 MLOAD PUSH2 0x121 SWAP2 SWAP1 PUSH2 0xBA8 JUMP JUMPDEST PUSH1 0x40 MLOAD DUP1 SWAP2 SUB SWAP1 RETURN JUMPDEST PUSH2 0x144 PUSH1 0x4 DUP1 CALLDATASIZE SUB DUP2 ADD SWAP1 PUSH2 0x13F SWAP2 SWAP1 PUSH2 0x98C JUMP JUMPDEST PUSH2 0x40E JUMP JUMPDEST PUSH1 0x40 MLOAD PUSH2 0x151 SWAP2 SWAP1 PUSH2 0xC03 JUMP JUMPDEST PUSH1 0x40 MLOAD DUP1 SWAP2 SUB SWAP1 RETURN JUMPDEST PUSH2 0x174 PUSH1 0x4 DUP1 CALLDATASIZE SUB DUP2 ADD SWAP1 PUSH2 0x16F SWAP2 SWAP1 PUSH2 0xA79 JUMP JUMPDEST PUSH2 0x437 JUMP JUMPDEST PUSH1 0x40 MLOAD PUSH2 0x181 SWAP2 SWAP1 PUSH2 0xC03 JUMP JUMPDEST PUSH1 0x40 MLOAD DUP1 SWAP2 SUB SWAP1 RETURN JUMPDEST PUSH2 0x192 PUSH2 0x44D JUMP JUMPDEST STOP JUMPDEST PUSH2 0x1AE PUSH1 0x4 DUP1 CALLDATASIZE SUB DUP2 ADD SWAP1 PUSH2 0x1A9 SWAP2 SWAP1 PUSH2 0xA4C JUMP JUMPDEST PUSH2 0x467 JUMP JUMPDEST PUSH1 0x40 MLOAD PUSH2 0x1BB SWAP2 SWAP1 PUSH2 0xC03 JUMP JUMPDEST PUSH1 0x40 MLOAD DUP1 SWAP2 SUB SWAP1 RETURN JUMPDEST PUSH2 0x1DE PUSH1 0x4 DUP1 CALLDATASIZE SUB DUP2 ADD SWAP1 PUSH2 0x1D9 SWAP2 SWAP1 PUSH2 0xA4C JUMP JUMPDEST PUSH2 0x4BA JUMP JUMPDEST PUSH1 0x40 MLOAD PUSH2 0x1EB SWAP2 SWAP1 PUSH2 0xC03 JUMP JUMPDEST PUSH1 0x40 MLOAD DUP1 SWAP2 SUB SWAP1 RETURN JUMPDEST PUSH2 0x20E PUSH1 0x4 DUP1 CALLDATASIZE SUB DUP2 ADD SWAP1 PUSH2 0x209 SWAP2 SWAP1 PUSH2 0xA4C JUMP JUMPDEST PUSH2 0x59B JUMP JUMPDEST PUSH1 0x40 MLOAD PUSH2 0x21B SWAP2 SWAP1 PUSH2 0xC03 JUMP JUMPDEST PUSH1 0x40 MLOAD DUP1 SWAP2 SUB SWAP1 RETURN JUMPDEST PUSH2 0x23E PUSH1 0x4 DUP1 CALLDATASIZE SUB DUP2 ADD SWAP1 PUSH2 0x239 SWAP2 SWAP1 PUSH2 0xAB9 JUMP JUMPDEST PUSH2 0x5EA JUMP JUMPDEST PUSH1 0x40 MLOAD PUSH2 0x24B SWAP2 SWAP1 PUSH2 0xC03 JUMP JUMPDEST PUSH1 0x40 MLOAD DUP1 SWAP2 SUB SWAP1 RETURN JUMPDEST PUSH2 0x26E PUSH1 0x4 DUP1 CALLDATASIZE SUB DUP2 ADD SWAP1 PUSH2 0x269 SWAP2 SWAP1 PUSH2 0xA4C JUMP JUMPDEST PUSH2 0x618 JUMP JUMPDEST PUSH1 0x40 MLOAD PUSH2 0x27B SWAP2 SWAP1 PUSH2 0xC03 JUMP JUMPDEST PUSH1 0x40 MLOAD DUP1 SWAP2 SUB SWAP1 RETURN JUMPDEST PUSH2 0x28C PUSH2 0x673 JUMP JUMPDEST PUSH1 0x40 MLOAD PUSH2 0x299 SWAP2 SWAP1 PUSH2 0xC03 JUMP JUMPDEST PUSH1 0x40 MLOAD DUP1 SWAP2 SUB SWAP1 RETURN JUMPDEST PUSH2 0x2BC PUSH1 0x4 DUP1 CALLDATASIZE SUB DUP2 ADD SWAP1 PUSH2 0x2B7 SWAP2 SWAP1 PUSH2 0xA4C JUMP JUMPDEST PUSH2 0x7A6 JUMP JUMPDEST PUSH1 0x40 MLOAD PUSH2 0x2C9 SWAP2 SWAP1 PUSH2 0xC03 JUMP JUMPDEST PUSH1 0x40 MLOAD DUP1 SWAP2 SUB SWAP1 RETURN JUMPDEST PUSH2 0x2EC PUSH1 0x4 DUP1 CALLDATASIZE SUB DUP2 ADD SWAP1 PUSH2 0x2E7 SWAP2 SWAP1 PUSH2 0x9F9 JUMP JUMPDEST PUSH2 0x814 JUMP JUMPDEST PUSH1 0x40 MLOAD PUSH2 0x2F9 SWAP2 SWAP1 PUSH2 0xBA8 JUMP JUMPDEST PUSH1 0x40 MLOAD DUP1 SWAP2 SUB SWAP1 RETURN JUMPDEST PUSH2 0x31C PUSH1 0x4 DUP1 CALLDATASIZE SUB DUP2 ADD SWAP1 PUSH2 0x317 SWAP2 SWAP1 PUSH2 0xA4C JUMP JUMPDEST PUSH2 0x841 JUMP JUMPDEST STOP JUMPDEST PUSH2 0x338 PUSH1 0x4 DUP1 CALLDATASIZE SUB DUP2 ADD SWAP1 PUSH2 0x333 SWAP2 SWAP1 PUSH2 0x98C JUMP JUMPDEST PUSH2 0x900 JUMP JUMPDEST PUSH1 0x40 MLOAD PUSH2 0x345 SWAP2 SWAP1 PUSH2 0xBA8 JUMP JUMPDEST PUSH1 0x40 MLOAD DUP1 SWAP2 SUB SWAP1 RETURN JUMPDEST PUSH2 0x368 PUSH1 0x4 DUP1 CALLDATASIZE SUB DUP2 ADD SWAP1 PUSH2 0x363 SWAP2 SWAP1 PUSH2 0xA4C JUMP JUMPDEST PUSH2 0x94C JUMP JUMPDEST PUSH1 0x40 MLOAD PUSH2 0x375 SWAP2 SWAP1 PUSH2 0xC03 JUMP JUMPDEST PUSH1 0x40 MLOAD DUP1 SWAP2 SUB SWAP1 RETURN JUMPDEST PUSH1 0x0 DUP1 DUP4 EQ DUP1 PUSH2 0x38E JUMPI POP PUSH1 0x0 DUP3 EQ JUMPDEST ISZERO PUSH2 0x39C JUMPI PUSH1 0x0 SWAP1 POP PUSH2 0x408 JUMP JUMPDEST PUSH1 0x0 DUP3 SGT ISZERO PUSH2 0x3CD JUMPI PUSH2 0x3BB DUP4 PUSH1 0x1 DUP5 PUSH2 0x3B6 SWAP2 SWAP1 PUSH2 0xF6B JUMP JUMPDEST PUSH2 0x37E JUMP JUMPDEST DUP4 PUSH2 0x3C6 SWAP2 SWAP1 PUSH2 0xC3A JUMP JUMPDEST SWAP1 POP PUSH2 0x408 JUMP JUMPDEST PUSH1 0x0 DUP3 SLT ISZERO PUSH2 0x407 JUMPI PUSH2 0x3EC DUP4 PUSH1 0x1 DUP5 PUSH2 0x3E7 SWAP2 SWAP1 PUSH2 0xF6B JUMP JUMPDEST PUSH2 0x37E JUMP JUMPDEST DUP4 PUSH2 0x3F7 SWAP2 SWAP1 PUSH2 0xC3A JUMP JUMPDEST PUSH2 0x400 SWAP1 PUSH2 0x1148 JUMP JUMPDEST SWAP1 POP PUSH2 0x408 JUMP JUMPDEST JUMPDEST SWAP3 SWAP2 POP POP JUMP JUMPDEST PUSH1 0x0 DUP1 PUSH1 0x2 DUP4 PUSH2 0x41E SWAP2 SWAP1 PUSH2 0x10E6 JUMP JUMPDEST EQ ISZERO PUSH2 0x42D JUMPI PUSH1 0x1 SWAP1 POP PUSH2 0x432 JUMP JUMPDEST PUSH1 0x0 SWAP1 POP JUMPDEST SWAP2 SWAP1 POP JUMP JUMPDEST PUSH1 0x0 DUP2 DUP4 PUSH2 0x445 SWAP2 SWAP1 PUSH2 0xDA8 JUMP JUMPDEST SWAP1 POP SWAP3 SWAP2 POP POP JUMP JUMPDEST PUSH1 0x0 PUSH1 0x1 SWAP1 POP PUSH1 0x0 PUSH1 0x2 SWAP1 POP DUP1 DUP3 DUP1 SWAP3 POP DUP2 SWAP4 POP POP POP POP POP JUMP JUMPDEST PUSH1 0x0 DUP1 DUP3 SWAP1 POP PUSH1 0x0 PUSH1 0x1 SWAP1 POP JUMPDEST PUSH1 0x0 DUP3 EQ PUSH2 0x4B0 JUMPI PUSH1 0x0 PUSH1 0xA DUP4 PUSH2 0x48B SWAP2 SWAP1 PUSH2 0x1117 JUMP JUMPDEST SWAP1 POP DUP1 DUP3 PUSH2 0x499 SWAP2 SWAP1 PUSH2 0xF11 JUMP JUMPDEST SWAP2 POP PUSH1 0xA DUP4 PUSH2 0x4A8 SWAP2 SWAP1 PUSH2 0xD24 JUMP JUMPDEST SWAP3 POP POP PUSH2 0x474 JUMP JUMPDEST DUP1 SWAP3 POP POP POP SWAP2 SWAP1 POP JUMP JUMPDEST PUSH1 0x0 DUP1 DUP3 SWAP1 POP PUSH1 0x0 DUP1 JUMPDEST PUSH1 0x0 DUP4 EQ PUSH2 0x4EE JUMPI DUP2 DUP1 PUSH2 0x4D7 SWAP1 PUSH2 0x109D JUMP JUMPDEST SWAP3 POP POP PUSH1 0xA DUP4 PUSH2 0x4E7 SWAP2 SWAP1 PUSH2 0xD24 JUMP JUMPDEST SWAP3 POP PUSH2 0x4C4 JUMP JUMPDEST PUSH1 0x0 DUP3 EQ ISZERO PUSH2 0x532 JUMPI PUSH1 0x40 MLOAD PUSH32 0x8C379A000000000000000000000000000000000000000000000000000000000 DUP2 MSTORE PUSH1 0x4 ADD PUSH2 0x529 SWAP1 PUSH2 0xBE3 JUMP JUMPDEST PUSH1 0x40 MLOAD DUP1 SWAP2 SUB SWAP1 REVERT JUMPDEST DUP5 SWAP3 POP JUMPDEST PUSH1 0x0 DUP4 EQ PUSH2 0x57D JUMPI PUSH1 0x0 PUSH1 0xA DUP5 PUSH2 0x54D SWAP2 SWAP1 PUSH2 0x1117 JUMP JUMPDEST SWAP1 POP DUP3 DUP2 PUSH2 0x55B SWAP2 SWAP1 PUSH2 0xDA8 JUMP JUMPDEST DUP3 PUSH2 0x566 SWAP2 SWAP1 PUSH2 0xCCE JUMP JUMPDEST SWAP2 POP PUSH1 0xA DUP5 PUSH2 0x575 SWAP2 SWAP1 PUSH2 0xD24 JUMP JUMPDEST SWAP4 POP POP PUSH2 0x536 JUMP JUMPDEST DUP1 DUP6 EQ PUSH2 0x58B JUMPI PUSH1 0x0 PUSH2 0x58E JUMP JUMPDEST PUSH1 0x1 JUMPDEST PUSH1 0xFF AND SWAP4 POP POP POP POP SWAP2 SWAP1 POP JUMP JUMPDEST PUSH1 0x0 DUP1 DUP3 SWAP1 POP PUSH1 0x0 JUMPDEST PUSH1 0x0 DUP3 EQ PUSH2 0x5E0 JUMPI PUSH1 0x0 PUSH1 0xA DUP4 PUSH2 0x5BB SWAP2 SWAP1 PUSH2 0x1117 JUMP JUMPDEST SWAP1 POP DUP1 DUP3 PUSH2 0x5C9 SWAP2 SWAP1 PUSH2 0xCCE JUMP JUMPDEST SWAP2 POP PUSH1 0xA DUP4 PUSH2 0x5D8 SWAP2 SWAP1 PUSH2 0xD24 JUMP JUMPDEST SWAP3 POP POP PUSH2 0x5A4 JUMP JUMPDEST DUP1 SWAP3 POP POP POP SWAP2 SWAP1 POP JUMP JUMPDEST PUSH1 0x0 PUSH1 0x3 DUP3 DUP5 DUP7 PUSH2 0x5FB SWAP2 SWAP1 PUSH2 0xCCE JUMP JUMPDEST PUSH2 0x605 SWAP2 SWAP1 PUSH2 0xCCE JUMP JUMPDEST PUSH2 0x60F SWAP2 SWAP1 PUSH2 0xD24 JUMP JUMPDEST SWAP1 POP SWAP4 SWAP3 POP POP POP JUMP JUMPDEST PUSH1 0x0 DUP1 PUSH1 0x0 DUP4 SWAP1 POP JUMPDEST PUSH1 0x0 DUP2 EQ PUSH2 0x669 JUMPI PUSH1 0x0 PUSH1 0xA DUP3 PUSH2 0x638 SWAP2 SWAP1 PUSH2 0x1117 JUMP JUMPDEST SWAP1 POP DUP1 PUSH1 0xA DUP5 PUSH2 0x648 SWAP2 SWAP1 PUSH2 0xF11 JUMP JUMPDEST PUSH2 0x652 SWAP2 SWAP1 PUSH2 0xCCE JUMP JUMPDEST SWAP3 POP PUSH1 0xA DUP3 PUSH2 0x661 SWAP2 SWAP1 PUSH2 0xD24 JUMP JUMPDEST SWAP2 POP POP PUSH2 0x621 JUMP JUMPDEST DUP2 SWAP3 POP POP POP SWAP2 SWAP1 POP JUMP JUMPDEST PUSH1 0x0 DUP1 PUSH1 0x0 SWAP1 POP JUMPDEST PUSH1 0x2 PUSH1 0x0 PUSH1 0x40 MLOAD PUSH2 0x68B SWAP1 PUSH2 0xB93 JUMP JUMPDEST SWAP1 DUP2 MSTORE PUSH1 0x20 ADD PUSH1 0x40 MLOAD DUP1 SWAP2 SUB SWAP1 KECCAK256 DUP1 SLOAD SWAP1 POP PUSH2 0x6A7 SWAP2 SWAP1 PUSH2 0xFFF JUMP JUMPDEST DUP2 LT ISZERO PUSH2 0x79D JUMPI PUSH1 0x0 PUSH1 0x40 MLOAD PUSH2 0x6BC SWAP1 PUSH2 0xB93 JUMP JUMPDEST SWAP1 DUP2 MSTORE PUSH1 0x20 ADD PUSH1 0x40 MLOAD DUP1 SWAP2 SUB SWAP1 KECCAK256 PUSH1 0x2 DUP3 PUSH2 0x6D7 SWAP2 SWAP1 PUSH2 0xCCE JUMP JUMPDEST DUP2 SLOAD DUP2 LT PUSH2 0x6E8 JUMPI PUSH2 0x6E7 PUSH2 0x11EF JUMP JUMPDEST JUMPDEST SWAP1 PUSH1 0x0 MSTORE PUSH1 0x20 PUSH1 0x0 KECCAK256 ADD SLOAD PUSH1 0x0 PUSH1 0x40 MLOAD PUSH2 0x701 SWAP1 PUSH2 0xB93 JUMP JUMPDEST SWAP1 DUP2 MSTORE PUSH1 0x20 ADD PUSH1 0x40 MLOAD DUP1 SWAP2 SUB SWAP1 KECCAK256 PUSH1 0x1 DUP4 PUSH2 0x71C SWAP2 SWAP1 PUSH2 0xCCE JUMP JUMPDEST DUP2 SLOAD DUP2 LT PUSH2 0x72D JUMPI PUSH2 0x72C PUSH2 0x11EF JUMP JUMPDEST JUMPDEST SWAP1 PUSH1 0x0 MSTORE PUSH1 0x20 PUSH1 0x0 KECCAK256 ADD SLOAD PUSH2 0x742 SWAP2 SWAP1 PUSH2 0xCCE JUMP JUMPDEST PUSH1 0x0 PUSH1 0x40 MLOAD PUSH2 0x750 SWAP1 PUSH2 0xB93 JUMP JUMPDEST SWAP1 DUP2 MSTORE PUSH1 0x20 ADD PUSH1 0x40 MLOAD DUP1 SWAP2 SUB SWAP1 KECCAK256 DUP3 DUP2 SLOAD DUP2 LT PUSH2 0x770 JUMPI PUSH2 0x76F PUSH2 0x11EF JUMP JUMPDEST JUMPDEST SWAP1 PUSH1 0x0 MSTORE PUSH1 0x20 PUSH1 0x0 KECCAK256 ADD SLOAD EQ PUSH2 0x78A JUMPI PUSH1 0x0 SWAP2 POP POP PUSH2 0x7A3 JUMP JUMPDEST DUP1 DUP1 PUSH2 0x795 SWAP1 PUSH2 0x109D JUMP JUMPDEST SWAP2 POP POP PUSH2 0x67B JUMP JUMPDEST POP PUSH1 0x1 SWAP1 POP JUMPDEST SWAP1 JUMP JUMPDEST PUSH1 0x0 DUP1 DUP3 SWAP1 POP PUSH1 0x0 JUMPDEST PUSH1 0x0 DUP3 EQ PUSH2 0x7F7 JUMPI PUSH1 0x0 PUSH1 0xA DUP4 PUSH2 0x7C6 SWAP2 SWAP1 PUSH2 0x1117 JUMP JUMPDEST SWAP1 POP DUP1 PUSH1 0xA DUP4 PUSH2 0x7D6 SWAP2 SWAP1 PUSH2 0xF11 JUMP JUMPDEST PUSH2 0x7E0 SWAP2 SWAP1 PUSH2 0xCCE JUMP JUMPDEST SWAP2 POP PUSH1 0xA DUP4 PUSH2 0x7EF SWAP2 SWAP1 PUSH2 0xD24 JUMP JUMPDEST SWAP3 POP POP PUSH2 0x7AF JUMP JUMPDEST DUP4 DUP2 EQ PUSH2 0x805 JUMPI PUSH1 0x0 PUSH2 0x808 JUMP JUMPDEST PUSH1 0x1 JUMPDEST PUSH1 0xFF AND SWAP3 POP POP POP SWAP2 SWAP1 POP JUMP JUMPDEST PUSH1 0x0 DUP1 DUP4 DUP6 SGT PUSH2 0x824 JUMPI DUP4 PUSH2 0x826 JUMP JUMPDEST DUP5 JUMPDEST SWAP1 POP DUP3 DUP2 SGT PUSH2 0x835 JUMPI DUP3 PUSH2 0x837 JUMP JUMPDEST DUP1 JUMPDEST SWAP2 POP POP SWAP4 SWAP3 POP POP POP JUMP JUMPDEST PUSH1 0x0 DUP2 EQ ISZERO PUSH2 0x885 JUMPI PUSH1 0x40 MLOAD PUSH32 0x8C379A000000000000000000000000000000000000000000000000000000000 DUP2 MSTORE PUSH1 0x4 ADD PUSH2 0x87C SWAP1 PUSH2 0xBC3 JUMP JUMPDEST PUSH1 0x40 MLOAD DUP1 SWAP2 SUB SWAP1 REVERT JUMPDEST PUSH1 0x0 DUP2 SWAP1 POP JUMPDEST PUSH1 0x0 DUP2 EQ PUSH2 0x8FC JUMPI PUSH1 0x0 PUSH1 0xA DUP3 PUSH2 0x8A2 SWAP2 SWAP1 PUSH2 0x1117 JUMP JUMPDEST SWAP1 POP PUSH1 0x0 PUSH1 0x40 MLOAD PUSH2 0x8B2 SWAP1 PUSH2 0xB93 JUMP JUMPDEST SWAP1 DUP2 MSTORE PUSH1 0x20 ADD PUSH1 0x40 MLOAD DUP1 SWAP2 SUB SWAP1 KECCAK256 DUP2 SWAP1 DUP1 PUSH1 0x1 DUP2 SLOAD ADD DUP1 DUP3 SSTORE DUP1 SWAP2 POP POP PUSH1 0x1 SWAP1 SUB SWAP1 PUSH1 0x0 MSTORE PUSH1 0x20 PUSH1 0x0 KECCAK256 ADD PUSH1 0x0 SWAP1 SWAP2 SWAP1 SWAP2 SWAP1 SWAP2 POP SSTORE PUSH1 0xA DUP3 PUSH2 0x8F4 SWAP2 SWAP1 PUSH2 0xD24 JUMP JUMPDEST SWAP2 POP POP PUSH2 0x88B JUMP JUMPDEST POP POP JUMP JUMPDEST PUSH1 0x0 DUP1 PUSH1 0x2 SWAP1 POP JUMPDEST DUP3 DUP2 SLT ISZERO PUSH2 0x941 JUMPI PUSH1 0x0 DUP2 DUP5 PUSH2 0x91E SWAP2 SWAP1 PUSH2 0x10E6 JUMP JUMPDEST EQ ISZERO PUSH2 0x92E JUMPI PUSH1 0x0 SWAP2 POP POP PUSH2 0x947 JUMP JUMPDEST DUP1 DUP1 PUSH2 0x939 SWAP1 PUSH2 0x1054 JUMP JUMPDEST SWAP2 POP POP PUSH2 0x908 JUMP JUMPDEST POP PUSH1 0x1 SWAP1 POP JUMPDEST SWAP2 SWAP1 POP JUMP JUMPDEST PUSH1 0x0 PUSH1 0x2 DUP3 PUSH2 0x95B SWAP2 SWAP1 PUSH2 0xDF3 JUMP JUMPDEST SWAP1 POP SWAP2 SWAP1 POP JUMP JUMPDEST PUSH1 0x0 DUP2 CALLDATALOAD SWAP1 POP PUSH2 0x971 DUP2 PUSH2 0x12AB JUMP JUMPDEST SWAP3 SWAP2 POP POP JUMP JUMPDEST PUSH1 0x0 DUP2 CALLDATALOAD SWAP1 POP PUSH2 0x986 DUP2 PUSH2 0x12C2 JUMP JUMPDEST SWAP3 SWAP2 POP POP JUMP JUMPDEST PUSH1 0x0 PUSH1 0x20 DUP3 DUP5 SUB SLT ISZERO PUSH2 0x9A2 JUMPI PUSH2 0x9A1 PUSH2 0x121E JUMP JUMPDEST JUMPDEST PUSH1 0x0 PUSH2 0x9B0 DUP5 DUP3 DUP6 ADD PUSH2 0x962 JUMP JUMPDEST SWAP2 POP POP SWAP3 SWAP2 POP POP JUMP JUMPDEST PUSH1 0x0 DUP1 PUSH1 0x40 DUP4 DUP6 SUB SLT ISZERO PUSH2 0x9D0 JUMPI PUSH2 0x9CF PUSH2 0x121E JUMP JUMPDEST JUMPDEST PUSH1 0x0 PUSH2 0x9DE DUP6 DUP3 DUP7 ADD PUSH2 0x962 JUMP JUMPDEST SWAP3 POP POP PUSH1 0x20 PUSH2 0x9EF DUP6 DUP3 DUP7 ADD PUSH2 0x962 JUMP JUMPDEST SWAP2 POP POP SWAP3 POP SWAP3 SWAP1 POP JUMP JUMPDEST PUSH1 0x0 DUP1 PUSH1 0x0 PUSH1 0x60 DUP5 DUP7 SUB SLT ISZERO PUSH2 0xA12 JUMPI PUSH2 0xA11 PUSH2 0x121E JUMP JUMPDEST JUMPDEST PUSH1 0x0 PUSH2 0xA20 DUP7 DUP3 DUP8 ADD PUSH2 0x962 JUMP JUMPDEST SWAP4 POP POP PUSH1 0x20 PUSH2 0xA31 DUP7 DUP3 DUP8 ADD PUSH2 0x962 JUMP JUMPDEST SWAP3 POP POP PUSH1 0x40 PUSH2 0xA42 DUP7 DUP3 DUP8 ADD PUSH2 0x962 JUMP JUMPDEST SWAP2 POP POP SWAP3 POP SWAP3 POP SWAP3 JUMP JUMPDEST PUSH1 0x0 PUSH1 0x20 DUP3 DUP5 SUB SLT ISZERO PUSH2 0xA62 JUMPI PUSH2 0xA61 PUSH2 0x121E JUMP JUMPDEST JUMPDEST PUSH1 0x0 PUSH2 0xA70 DUP5 DUP3 DUP6 ADD PUSH2 0x977 JUMP JUMPDEST SWAP2 POP POP SWAP3 SWAP2 POP POP JUMP JUMPDEST PUSH1 0x0 DUP1 PUSH1 0x40 DUP4 DUP6 SUB SLT ISZERO PUSH2 0xA90 JUMPI PUSH2 0xA8F PUSH2 0x121E JUMP JUMPDEST JUMPDEST PUSH1 0x0 PUSH2 0xA9E DUP6 DUP3 DUP7 ADD PUSH2 0x977 JUMP JUMPDEST SWAP3 POP POP PUSH1 0x20 PUSH2 0xAAF DUP6 DUP3 DUP7 ADD PUSH2 0x977 JUMP JUMPDEST SWAP2 POP POP SWAP3 POP SWAP3 SWAP1 POP JUMP JUMPDEST PUSH1 0x0 DUP1 PUSH1 0x0 PUSH1 0x60 DUP5 DUP7 SUB SLT ISZERO PUSH2 0xAD2 JUMPI PUSH2 0xAD1 PUSH2 0x121E JUMP JUMPDEST JUMPDEST PUSH1 0x0 PUSH2 0xAE0 DUP7 DUP3 DUP8 ADD PUSH2 0x977 JUMP JUMPDEST SWAP4 POP POP PUSH1 0x20 PUSH2 0xAF1 DUP7 DUP3 DUP8 ADD PUSH2 0x977 JUMP JUMPDEST SWAP3 POP POP PUSH1 0x40 PUSH2 0xB02 DUP7 DUP3 DUP8 ADD PUSH2 0x977 JUMP JUMPDEST SWAP2 POP POP SWAP3 POP SWAP3 POP SWAP3 JUMP JUMPDEST PUSH2 0xB15 DUP2 PUSH2 0x1033 JUMP JUMPDEST DUP3 MSTORE POP POP JUMP JUMPDEST PUSH1 0x0 PUSH2 0xB28 PUSH1 0x12 DUP4 PUSH2 0xC1E JUMP JUMPDEST SWAP2 POP PUSH2 0xB33 DUP3 PUSH2 0x1230 JUMP JUMPDEST PUSH1 0x20 DUP3 ADD SWAP1 POP SWAP2 SWAP1 POP JUMP JUMPDEST PUSH1 0x0 PUSH2 0xB4B PUSH1 0x6 DUP4 PUSH2 0xC2F JUMP JUMPDEST SWAP2 POP PUSH2 0xB56 DUP3 PUSH2 0x1259 JUMP JUMPDEST PUSH1 0x6 DUP3 ADD SWAP1 POP SWAP2 SWAP1 POP JUMP JUMPDEST PUSH1 0x0 PUSH2 0xB6E PUSH1 0x12 DUP4 PUSH2 0xC1E JUMP JUMPDEST SWAP2 POP PUSH2 0xB79 DUP3 PUSH2 0x1282 JUMP JUMPDEST PUSH1 0x20 DUP3 ADD SWAP1 POP SWAP2 SWAP1 POP JUMP JUMPDEST PUSH2 0xB8D DUP2 PUSH2 0x103D JUMP JUMPDEST DUP3 MSTORE POP POP JUMP JUMPDEST PUSH1 0x0 PUSH2 0xB9E DUP3 PUSH2 0xB3E JUMP JUMPDEST SWAP2 POP DUP2 SWAP1 POP SWAP2 SWAP1 POP JUMP JUMPDEST PUSH1 0x0 PUSH1 0x20 DUP3 ADD SWAP1 POP PUSH2 0xBBD PUSH1 0x0 DUP4 ADD DUP5 PUSH2 0xB0C JUMP JUMPDEST SWAP3 SWAP2 POP POP JUMP JUMPDEST PUSH1 0x0 PUSH1 0x20 DUP3 ADD SWAP1 POP DUP2 DUP2 SUB PUSH1 0x0 DUP4 ADD MSTORE PUSH2 0xBDC DUP2 PUSH2 0xB1B JUMP JUMPDEST SWAP1 POP SWAP2 SWAP1 POP JUMP JUMPDEST PUSH1 0x0 PUSH1 0x20 DUP3 ADD SWAP1 POP DUP2 DUP2 SUB PUSH1 0x0 DUP4 ADD MSTORE PUSH2 0xBFC DUP2 PUSH2 0xB61 JUMP JUMPDEST SWAP1 POP SWAP2 SWAP1 POP JUMP JUMPDEST PUSH1 0x0 PUSH1 0x20 DUP3 ADD SWAP1 POP PUSH2 0xC18 PUSH1 0x0 DUP4 ADD DUP5 PUSH2 0xB84 JUMP JUMPDEST SWAP3 SWAP2 POP POP JUMP JUMPDEST PUSH1 0x0 DUP3 DUP3 MSTORE PUSH1 0x20 DUP3 ADD SWAP1 POP SWAP3 SWAP2 POP POP JUMP JUMPDEST PUSH1 0x0 DUP2 SWAP1 POP SWAP3 SWAP2 POP POP JUMP JUMPDEST PUSH1 0x0 PUSH2 0xC45 DUP3 PUSH2 0x1033 JUMP JUMPDEST SWAP2 POP PUSH2 0xC50 DUP4 PUSH2 0x1033 JUMP JUMPDEST SWAP3 POP DUP2 PUSH32 0x7FFFFFFFFFFFFFFFFFFFFFFFFFFFFFFFFFFFFFFFFFFFFFFFFFFFFFFFFFFFFFFF SUB DUP4 SGT PUSH1 0x0 DUP4 SLT ISZERO AND ISZERO PUSH2 0xC8B JUMPI PUSH2 0xC8A PUSH2 0x1191 JUMP JUMPDEST JUMPDEST DUP2 PUSH32 0x8000000000000000000000000000000000000000000000000000000000000000 SUB DUP4 SLT PUSH1 0x0 DUP4 SLT AND ISZERO PUSH2 0xCC3 JUMPI PUSH2 0xCC2 PUSH2 0x1191 JUMP JUMPDEST JUMPDEST DUP3 DUP3 ADD SWAP1 POP SWAP3 SWAP2 POP POP JUMP JUMPDEST PUSH1 0x0 PUSH2 0xCD9 DUP3 PUSH2 0x103D JUMP JUMPDEST SWAP2 POP PUSH2 0xCE4 DUP4 PUSH2 0x103D JUMP JUMPDEST SWAP3 POP DUP3 PUSH32 0xFFFFFFFFFFFFFFFFFFFFFFFFFFFFFFFFFFFFFFFFFFFFFFFFFFFFFFFFFFFFFFFF SUB DUP3 GT ISZERO PUSH2 0xD19 JUMPI PUSH2 0xD18 PUSH2 0x1191 JUMP JUMPDEST JUMPDEST DUP3 DUP3 ADD SWAP1 POP SWAP3 SWAP2 POP POP JUMP JUMPDEST PUSH1 0x0 PUSH2 0xD2F DUP3 PUSH2 0x103D JUMP JUMPDEST SWAP2 POP PUSH2 0xD3A DUP4 PUSH2 0x103D JUMP JUMPDEST SWAP3 POP DUP3 PUSH2 0xD4A JUMPI PUSH2 0xD49 PUSH2 0x11C0 JUMP JUMPDEST JUMPDEST DUP3 DUP3 DIV SWAP1 POP SWAP3 SWAP2 POP POP JUMP JUMPDEST PUSH1 0x0 DUP1 DUP3 SWAP2 POP DUP4 SWAP1 POP JUMPDEST PUSH1 0x1 DUP6 GT ISZERO PUSH2 0xD9F JUMPI DUP1 DUP7 DIV DUP2 GT ISZERO PUSH2 0xD7B JUMPI PUSH2 0xD7A PUSH2 0x1191 JUMP JUMPDEST JUMPDEST PUSH1 0x1 DUP6 AND ISZERO PUSH2 0xD8A JUMPI DUP1 DUP3 MUL SWAP2 POP JUMPDEST DUP1 DUP2 MUL SWAP1 POP PUSH2 0xD98 DUP6 PUSH2 0x1223 JUMP JUMPDEST SWAP5 POP PUSH2 0xD5F JUMP JUMPDEST SWAP5 POP SWAP5 SWAP3 POP POP POP JUMP JUMPDEST PUSH1 0x0 PUSH2 0xDB3 DUP3 PUSH2 0x103D JUMP JUMPDEST SWAP2 POP PUSH2 0xDBE DUP4 PUSH2 0x103D JUMP JUMPDEST SWAP3 POP PUSH2 0xDEB PUSH32 0xFFFFFFFFFFFFFFFFFFFFFFFFFFFFFFFFFFFFFFFFFFFFFFFFFFFFFFFFFFFFFFFF DUP5 DUP5 PUSH2 0xE3E JUMP JUMPDEST SWAP1 POP SWAP3 SWAP2 POP POP JUMP JUMPDEST PUSH1 0x0 PUSH2 0xDFE DUP3 PUSH2 0x103D JUMP JUMPDEST SWAP2 POP PUSH2 0xE09 DUP4 PUSH2 0x1047 JUMP JUMPDEST SWAP3 POP PUSH2 0xE36 PUSH32 0xFFFFFFFFFFFFFFFFFFFFFFFFFFFFFFFFFFFFFFFFFFFFFFFFFFFFFFFFFFFFFFFF DUP5 DUP5 PUSH2 0xE3E JUMP JUMPDEST SWAP1 POP SWAP3 SWAP2 POP POP JUMP JUMPDEST PUSH1 0x0 DUP3 PUSH2 0xE4E JUMPI PUSH1 0x1 SWAP1 POP PUSH2 0xF0A JUMP JUMPDEST DUP2 PUSH2 0xE5C JUMPI PUSH1 0x0 SWAP1 POP PUSH2 0xF0A JUMP JUMPDEST DUP2 PUSH1 0x1 DUP2 EQ PUSH2 0xE72 JUMPI PUSH1 0x2 DUP2 EQ PUSH2 0xE7C JUMPI PUSH2 0xEAB JUMP JUMPDEST PUSH1 0x1 SWAP2 POP POP PUSH2 0xF0A JUMP JUMPDEST PUSH1 0xFF DUP5 GT ISZERO PUSH2 0xE8E JUMPI PUSH2 0xE8D PUSH2 0x1191 JUMP JUMPDEST JUMPDEST DUP4 PUSH1 0x2 EXP SWAP2 POP DUP5 DUP3 GT ISZERO PUSH2 0xEA5 JUMPI PUSH2 0xEA4 PUSH2 0x1191 JUMP JUMPDEST JUMPDEST POP PUSH2 0xF0A JUMP JUMPDEST POP PUSH1 0x20 DUP4 LT PUSH2 0x133 DUP4 LT AND PUSH1 0x4E DUP5 LT PUSH1 0xB DUP5 LT AND OR ISZERO PUSH2 0xEE0 JUMPI DUP3 DUP3 EXP SWAP1 POP DUP4 DUP2 GT ISZERO PUSH2 0xEDB JUMPI PUSH2 0xEDA PUSH2 0x1191 JUMP JUMPDEST JUMPDEST PUSH2 0xF0A JUMP JUMPDEST PUSH2 0xEED DUP5 DUP5 DUP5 PUSH1 0x1 PUSH2 0xD55 JUMP JUMPDEST SWAP3 POP SWAP1 POP DUP2 DUP5 DIV DUP2 GT ISZERO PUSH2 0xF04 JUMPI PUSH2 0xF03 PUSH2 0x1191 JUMP JUMPDEST JUMPDEST DUP2 DUP2 MUL SWAP1 POP JUMPDEST SWAP4 SWAP3 POP POP POP JUMP JUMPDEST PUSH1 0x0 PUSH2 0xF1C DUP3 PUSH2 0x103D JUMP JUMPDEST SWAP2 POP PUSH2 0xF27 DUP4 PUSH2 0x103D JUMP JUMPDEST SWAP3 POP DUP2 PUSH32 0xFFFFFFFFFFFFFFFFFFFFFFFFFFFFFFFFFFFFFFFFFFFFFFFFFFFFFFFFFFFFFFFF DIV DUP4 GT DUP3 ISZERO ISZERO AND ISZERO PUSH2 0xF60 JUMPI PUSH2 0xF5F PUSH2 0x1191 JUMP JUMPDEST JUMPDEST DUP3 DUP3 MUL SWAP1 POP SWAP3 SWAP2 POP POP JUMP JUMPDEST PUSH1 0x0 PUSH2 0xF76 DUP3 PUSH2 0x1033 JUMP JUMPDEST SWAP2 POP PUSH2 0xF81 DUP4 PUSH2 0x1033 JUMP JUMPDEST SWAP3 POP DUP3 PUSH32 0x8000000000000000000000000000000000000000000000000000000000000000 ADD DUP3 SLT PUSH1 0x0 DUP5 SLT ISZERO AND ISZERO PUSH2 0xFBC JUMPI PUSH2 0xFBB PUSH2 0x1191 JUMP JUMPDEST JUMPDEST DUP3 PUSH32 0x7FFFFFFFFFFFFFFFFFFFFFFFFFFFFFFFFFFFFFFFFFFFFFFFFFFFFFFFFFFFFFFF ADD DUP3 SGT PUSH1 0x0 DUP5 SLT AND ISZERO PUSH2 0xFF4 JUMPI PUSH2 0xFF3 PUSH2 0x1191 JUMP JUMPDEST JUMPDEST DUP3 DUP3 SUB SWAP1 POP SWAP3 SWAP2 POP POP JUMP JUMPDEST PUSH1 0x0 PUSH2 0x100A DUP3 PUSH2 0x103D JUMP JUMPDEST SWAP2 POP PUSH2 0x1015 DUP4 PUSH2 0x103D JUMP JUMPDEST SWAP3 POP DUP3 DUP3 LT ISZERO PUSH2 0x1028 JUMPI PUSH2 0x1027 PUSH2 0x1191 JUMP JUMPDEST JUMPDEST DUP3 DUP3 SUB SWAP1 POP SWAP3 SWAP2 POP POP JUMP JUMPDEST PUSH1 0x0 DUP2 SWAP1 POP SWAP2 SWAP1 POP JUMP JUMPDEST PUSH1 0x0 DUP2 SWAP1 POP SWAP2 SWAP1 POP JUMP JUMPDEST PUSH1 0x0 PUSH1 0xFF DUP3 AND SWAP1 POP SWAP2 SWAP1 POP JUMP JUMPDEST PUSH1 0x0 PUSH2 0x105F DUP3 PUSH2 0x1033 JUMP JUMPDEST SWAP2 POP PUSH32 0x7FFFFFFFFFFFFFFFFFFFFFFFFFFFFFFFFFFFFFFFFFFFFFFFFFFFFFFFFFFFFFFF DUP3 EQ ISZERO PUSH2 0x1092 JUMPI PUSH2 0x1091 PUSH2 0x1191 JUMP JUMPDEST JUMPDEST PUSH1 0x1 DUP3 ADD SWAP1 POP SWAP2 SWAP1 POP JUMP JUMPDEST PUSH1 0x0 PUSH2 0x10A8 DUP3 PUSH2 0x103D JUMP JUMPDEST SWAP2 POP PUSH32 0xFFFFFFFFFFFFFFFFFFFFFFFFFFFFFFFFFFFFFFFFFFFFFFFFFFFFFFFFFFFFFFFF DUP3 EQ ISZERO PUSH2 0x10DB JUMPI PUSH2 0x10DA PUSH2 0x1191 JUMP JUMPDEST JUMPDEST PUSH1 0x1 DUP3 ADD SWAP1 POP SWAP2 SWAP1 POP JUMP JUMPDEST PUSH1 0x0 PUSH2 0x10F1 DUP3 PUSH2 0x1033 JUMP JUMPDEST SWAP2 POP PUSH2 0x10FC DUP4 PUSH2 0x1033 JUMP JUMPDEST SWAP3 POP DUP3 PUSH2 0x110C JUMPI PUSH2 0x110B PUSH2 0x11C0 JUMP JUMPDEST JUMPDEST DUP3 DUP3 SMOD SWAP1 POP SWAP3 SWAP2 POP POP JUMP JUMPDEST PUSH1 0x0 PUSH2 0x1122 DUP3 PUSH2 0x103D JUMP JUMPDEST SWAP2 POP PUSH2 0x112D DUP4 PUSH2 0x103D JUMP JUMPDEST SWAP3 POP DUP3 PUSH2 0x113D JUMPI PUSH2 0x113C PUSH2 0x11C0 JUMP JUMPDEST JUMPDEST DUP3 DUP3 MOD SWAP1 POP SWAP3 SWAP2 POP POP JUMP JUMPDEST PUSH1 0x0 PUSH2 0x1153 DUP3 PUSH2 0x1033 JUMP JUMPDEST SWAP2 POP PUSH32 0x8000000000000000000000000000000000000000000000000000000000000000 DUP3 EQ ISZERO PUSH2 0x1186 JUMPI PUSH2 0x1185 PUSH2 0x1191 JUMP JUMPDEST JUMPDEST DUP2 PUSH1 0x0 SUB SWAP1 POP SWAP2 SWAP1 POP JUMP JUMPDEST PUSH32 0x4E487B7100000000000000000000000000000000000000000000000000000000 PUSH1 0x0 MSTORE PUSH1 0x11 PUSH1 0x4 MSTORE PUSH1 0x24 PUSH1 0x0 REVERT JUMPDEST PUSH32 0x4E487B7100000000000000000000000000000000000000000000000000000000 PUSH1 0x0 MSTORE PUSH1 0x12 PUSH1 0x4 MSTORE PUSH1 0x24 PUSH1 0x0 REVERT JUMPDEST PUSH32 0x4E487B7100000000000000000000000000000000000000000000000000000000 PUSH1 0x0 MSTORE PUSH1 0x32 PUSH1 0x4 MSTORE PUSH1 0x24 PUSH1 0x0 REVERT JUMPDEST PUSH1 0x0 DUP1 REVERT JUMPDEST PUSH1 0x0 DUP2 PUSH1 0x1 SHR SWAP1 POP SWAP2 SWAP1 POP JUMP JUMPDEST PUSH32 0x6E6F7420412076616C6964206E756D6265720000000000000000000000000000 PUSH1 0x0 DUP3 ADD MSTORE POP JUMP JUMPDEST PUSH32 0x6E756D4172720000000000000000000000000000000000000000000000000000 PUSH1 0x0 DUP3 ADD MSTORE POP JUMP JUMPDEST PUSH32 0x6E6F7420612076616C6964206E756D6265720000000000000000000000000000 PUSH1 0x0 DUP3 ADD MSTORE POP JUMP JUMPDEST PUSH2 0x12B4 DUP2 PUSH2 0x1033 JUMP JUMPDEST DUP2 EQ PUSH2 0x12BF JUMPI PUSH1 0x0 DUP1 REVERT JUMPDEST POP JUMP JUMPDEST PUSH2 0x12CB DUP2 PUSH2 0x103D JUMP JUMPDEST DUP2 EQ PUSH2 0x12D6 JUMPI PUSH1 0x0 DUP1 REVERT JUMPDEST POP JUMP INVALID LOG2 PUSH5 0x6970667358 0x22 SLT KECCAK256 EXTCODEHASH PUSH24 0x5F686ECAF65FCCA9D03E9A7BAF91454EA66A4760F24AA6AA DUP12 0xD2 0xD6 SWAP5 0xB6 0x4A PUSH5 0x736F6C6343 STOP ADDMOD SMOD STOP CALLER "
				},
				"gasEstimates": {
					"creation": {
						"codeDepositCost": "975800",
						"executionCost": "1014",
						"totalCost": "976814"
					},
					"external": {
						"Palindrome(uint256)": "infinite",
						"amstrong(uint256)": "infinite",
						"avg(uint256,uint256,uint256)": "infinite",
						"cube(uint256)": "infinite",
						"expo(uint256,uint256)": "infinite",
						"factorial(uint256)": "infinite",
						"fibonnical(uint256)": "infinite",
						"fibonnicalResult()": "infinite",
						"greater(int256,int256,int256)": "infinite",
						"multiple_with_no_Op(int256,int256)": "infinite",
						"oddOrEven(int256)": "infinite",
						"prime(int256)": "infinite",
						"reverseInt(uint256)": "infinite",
						"sumOfDigits(uint256)": "infinite",
						"swap()": "219"
					}
				},
				"methodIdentifiers": {
					"Palindrome(uint256)": "cdab7807",
					"amstrong(uint256)": "83d3705e",
					"avg(uint256,uint256,uint256)": "92cc2841",
					"cube(uint256)": "f4bf03c7",
					"expo(uint256,uint256)": "4f4752ba",
					"factorial(uint256)": "83714834",
					"fibonnical(uint256)": "f26c79ef",
					"fibonnicalResult()": "b4133721",
					"greater(int256,int256,int256)": "d9ea8e64",
					"multiple_with_no_Op(int256,int256)": "17d95c7e",
					"oddOrEven(int256)": "46439726",
					"prime(int256)": "f492c000",
					"reverseInt(uint256)": "9e098fc1",
					"sumOfDigits(uint256)": "8ce32d21",
					"swap()": "8119c065"
				}
			},
			"storageLayout": {
				"storage": [
					{
						"astId": 6,
						"contract": "contracts/codeEater/Asg1.sol:Asg1",
						"label": "holder",
						"offset": 0,
						"slot": "0",
						"type": "t_mapping(t_string_memory_ptr,t_array(t_uint256)dyn_storage)"
					}
				],
				"types": {
					"t_array(t_uint256)dyn_storage": {
						"base": "t_uint256",
						"encoding": "dynamic_array",
						"label": "uint256[]",
						"numberOfBytes": "32"
					},
					"t_mapping(t_string_memory_ptr,t_array(t_uint256)dyn_storage)": {
						"encoding": "mapping",
						"key": "t_string_memory_ptr",
						"label": "mapping(string => uint256[])",
						"numberOfBytes": "32",
						"value": "t_array(t_uint256)dyn_storage"
					},
					"t_string_memory_ptr": {
						"encoding": "bytes",
						"label": "string",
						"numberOfBytes": "32"
					},
					"t_uint256": {
						"encoding": "inplace",
						"label": "uint256",
						"numberOfBytes": "32"
					}
				}
			},
			"userdoc": {
				"kind": "user",
				"methods": {},
				"version": 1
			}
		}
	}
}