{
	"contracts/codeEater/twitter.sol": {
		"twitter": {
			"abi": [
				{
					"inputs": [
						{
							"internalType": "address",
							"name": "",
							"type": "address"
						},
						{
							"internalType": "uint256",
							"name": "",
							"type": "uint256"
						}
					],
					"name": "conversation",
					"outputs": [
						{
							"internalType": "uint256",
							"name": "id",
							"type": "uint256"
						},
						{
							"internalType": "address",
							"name": "_from",
							"type": "address"
						},
						{
							"internalType": "address",
							"name": "_to",
							"type": "address"
						},
						{
							"internalType": "string",
							"name": "content",
							"type": "string"
						},
						{
							"internalType": "uint256",
							"name": "createdAt",
							"type": "uint256"
						}
					],
					"stateMutability": "view",
					"type": "function"
				},
				{
					"inputs": [
						{
							"internalType": "address",
							"name": "_from",
							"type": "address"
						},
						{
							"internalType": "address",
							"name": "_to",
							"type": "address"
						},
						{
							"internalType": "string",
							"name": "_content",
							"type": "string"
						}
					],
					"name": "message",
					"outputs": [],
					"stateMutability": "nonpayable",
					"type": "function"
				},
				{
					"inputs": [
						{
							"internalType": "address",
							"name": "_from",
							"type": "address"
						},
						{
							"internalType": "string",
							"name": "content",
							"type": "string"
						}
					],
					"name": "tweet",
					"outputs": [],
					"stateMutability": "nonpayable",
					"type": "function"
				},
				{
					"inputs": [
						{
							"internalType": "uint256",
							"name": "",
							"type": "uint256"
						}
					],
					"name": "tweets",
					"outputs": [
						{
							"internalType": "uint256",
							"name": "id",
							"type": "uint256"
						},
						{
							"internalType": "address",
							"name": "author",
							"type": "address"
						},
						{
							"internalType": "string",
							"name": "content",
							"type": "string"
						},
						{
							"internalType": "uint256",
							"name": "createdAt",
							"type": "uint256"
						}
					],
					"stateMutability": "view",
					"type": "function"
				}
			],
			"devdoc": {
				"kind": "dev",
				"methods": {},
				"version": 1
			},
			"evm": {
				"assembly": "    /* \"contracts/codeEater/twitter.sol\":56:1063  contract twitter{... */\n  mstore(0x40, 0x80)\n  callvalue\n  dup1\n  iszero\n  tag_1\n  jumpi\n  0x00\n  dup1\n  revert\ntag_1:\n  pop\n  dataSize(sub_0)\n  dup1\n  dataOffset(sub_0)\n  0x00\n  codecopy\n  0x00\n  return\nstop\n\nsub_0: assembly {\n        /* \"contracts/codeEater/twitter.sol\":56:1063  contract twitter{... */\n      mstore(0x40, 0x80)\n      callvalue\n      dup1\n      iszero\n      tag_1\n      jumpi\n      0x00\n      dup1\n      revert\n    tag_1:\n      pop\n      jumpi(tag_2, lt(calldatasize, 0x04))\n      shr(0xe0, calldataload(0x00))\n      dup1\n      0x5dfcaebf\n      eq\n      tag_3\n      jumpi\n      dup1\n      0xd21d1596\n      eq\n      tag_4\n      jumpi\n      dup1\n      0xe8d857b0\n      eq\n      tag_5\n      jumpi\n      dup1\n      0xfd33c98f\n      eq\n      tag_6\n      jumpi\n    tag_2:\n      0x00\n      dup1\n      revert\n        /* \"contracts/codeEater/twitter.sol\":446:495  mapping(address => Message[]) public conversation */\n    tag_3:\n      tag_7\n      0x04\n      dup1\n      calldatasize\n      sub\n      dup2\n      add\n      swap1\n      tag_8\n      swap2\n      swap1\n      tag_9\n      jump\t// in\n    tag_8:\n      tag_10\n      jump\t// in\n    tag_7:\n      mload(0x40)\n      tag_11\n      swap6\n      swap5\n      swap4\n      swap3\n      swap2\n      swap1\n      tag_12\n      jump\t// in\n    tag_11:\n      mload(0x40)\n      dup1\n      swap2\n      sub\n      swap1\n      return\n        /* \"contracts/codeEater/twitter.sol\":520:777  function tweet(address _from, string calldata content) external {... */\n    tag_4:\n      tag_13\n      0x04\n      dup1\n      calldatasize\n      sub\n      dup2\n      add\n      swap1\n      tag_14\n      swap2\n      swap1\n      tag_15\n      jump\t// in\n    tag_14:\n      tag_16\n      jump\t// in\n    tag_13:\n      stop\n        /* \"contracts/codeEater/twitter.sol\":346:382  mapping(uint => Tweet) public tweets */\n    tag_5:\n      tag_17\n      0x04\n      dup1\n      calldatasize\n      sub\n      dup2\n      add\n      swap1\n      tag_18\n      swap2\n      swap1\n      tag_19\n      jump\t// in\n    tag_18:\n      tag_20\n      jump\t// in\n    tag_17:\n      mload(0x40)\n      tag_21\n      swap5\n      swap4\n      swap3\n      swap2\n      swap1\n      tag_22\n      jump\t// in\n    tag_21:\n      mload(0x40)\n      dup1\n      swap2\n      sub\n      swap1\n      return\n        /* \"contracts/codeEater/twitter.sol\":803:1061  function message(address _from, address _to, string calldata _content) external {... */\n    tag_6:\n      tag_23\n      0x04\n      dup1\n      calldatasize\n      sub\n      dup2\n      add\n      swap1\n      tag_24\n      swap2\n      swap1\n      tag_25\n      jump\t// in\n    tag_24:\n      tag_26\n      jump\t// in\n    tag_23:\n      stop\n        /* \"contracts/codeEater/twitter.sol\":446:495  mapping(address => Message[]) public conversation */\n    tag_10:\n      mstore(0x20, 0x02)\n      dup2\n      0x00\n      mstore\n      keccak256(0x00, 0x40)\n      dup2\n      dup2\n      sload\n      dup2\n      lt\n      tag_27\n      jumpi\n      0x00\n      dup1\n      revert\n    tag_27:\n      swap1\n      0x00\n      mstore\n      keccak256(0x00, 0x20)\n      swap1\n      0x05\n      mul\n      add\n      0x00\n      swap2\n      pop\n      swap2\n      pop\n      pop\n      dup1\n      0x00\n      add\n      sload\n      swap1\n      dup1\n      0x01\n      add\n      0x00\n      swap1\n      sload\n      swap1\n      0x0100\n      exp\n      swap1\n      div\n      0xffffffffffffffffffffffffffffffffffffffff\n      and\n      swap1\n      dup1\n      0x02\n      add\n      0x00\n      swap1\n      sload\n      swap1\n      0x0100\n      exp\n      swap1\n      div\n      0xffffffffffffffffffffffffffffffffffffffff\n      and\n      swap1\n      dup1\n      0x03\n      add\n      dup1\n      sload\n      tag_29\n      swap1\n      tag_30\n      jump\t// in\n    tag_29:\n      dup1\n      0x1f\n      add\n      0x20\n      dup1\n      swap2\n      div\n      mul\n      0x20\n      add\n      mload(0x40)\n      swap1\n      dup2\n      add\n      0x40\n      mstore\n      dup1\n      swap3\n      swap2\n      swap1\n      dup2\n      dup2\n      mstore\n      0x20\n      add\n      dup3\n      dup1\n      sload\n      tag_31\n      swap1\n      tag_30\n      jump\t// in\n    tag_31:\n      dup1\n      iszero\n      tag_32\n      jumpi\n      dup1\n      0x1f\n      lt\n      tag_33\n      jumpi\n      0x0100\n      dup1\n      dup4\n      sload\n      div\n      mul\n      dup4\n      mstore\n      swap2\n      0x20\n      add\n      swap2\n      jump(tag_32)\n    tag_33:\n      dup3\n      add\n      swap2\n      swap1\n      0x00\n      mstore\n      keccak256(0x00, 0x20)\n      swap1\n    tag_34:\n      dup2\n      sload\n      dup2\n      mstore\n      swap1\n      0x01\n      add\n      swap1\n      0x20\n      add\n      dup1\n      dup4\n      gt\n      tag_34\n      jumpi\n      dup3\n      swap1\n      sub\n      0x1f\n      and\n      dup3\n      add\n      swap2\n    tag_32:\n      pop\n      pop\n      pop\n      pop\n      pop\n      swap1\n      dup1\n      0x04\n      add\n      sload\n      swap1\n      pop\n      dup6\n      jump\t// out\n        /* \"contracts/codeEater/twitter.sol\":520:777  function tweet(address _from, string calldata content) external {... */\n    tag_16:\n        /* \"contracts/codeEater/twitter.sol\":609:619  msg.sender */\n      caller\n        /* \"contracts/codeEater/twitter.sol\":602:619  _from==msg.sender */\n      0xffffffffffffffffffffffffffffffffffffffff\n      and\n        /* \"contracts/codeEater/twitter.sol\":602:607  _from */\n      dup4\n        /* \"contracts/codeEater/twitter.sol\":602:619  _from==msg.sender */\n      0xffffffffffffffffffffffffffffffffffffffff\n      and\n      eq\n        /* \"contracts/codeEater/twitter.sol\":594:641  require(_from==msg.sender,\"You are Autherized\") */\n      tag_36\n      jumpi\n      mload(0x40)\n      0x08c379a000000000000000000000000000000000000000000000000000000000\n      dup2\n      mstore\n      0x04\n      add\n      tag_37\n      swap1\n      tag_38\n      jump\t// in\n    tag_37:\n      mload(0x40)\n      dup1\n      swap2\n      sub\n      swap1\n      revert\n    tag_36:\n        /* \"contracts/codeEater/twitter.sol\":668:714  Tweet(nextId, _from, content, block.timestamp) */\n      mload(0x40)\n      dup1\n      0x80\n      add\n      0x40\n      mstore\n      dup1\n        /* \"contracts/codeEater/twitter.sol\":674:680  nextId */\n      sload(0x03)\n        /* \"contracts/codeEater/twitter.sol\":668:714  Tweet(nextId, _from, content, block.timestamp) */\n      dup2\n      mstore\n      0x20\n      add\n        /* \"contracts/codeEater/twitter.sol\":682:687  _from */\n      dup5\n        /* \"contracts/codeEater/twitter.sol\":668:714  Tweet(nextId, _from, content, block.timestamp) */\n      0xffffffffffffffffffffffffffffffffffffffff\n      and\n      dup2\n      mstore\n      0x20\n      add\n        /* \"contracts/codeEater/twitter.sol\":689:696  content */\n      dup4\n      dup4\n        /* \"contracts/codeEater/twitter.sol\":668:714  Tweet(nextId, _from, content, block.timestamp) */\n      dup1\n      dup1\n      0x1f\n      add\n      0x20\n      dup1\n      swap2\n      div\n      mul\n      0x20\n      add\n      mload(0x40)\n      swap1\n      dup2\n      add\n      0x40\n      mstore\n      dup1\n      swap4\n      swap3\n      swap2\n      swap1\n      dup2\n      dup2\n      mstore\n      0x20\n      add\n      dup4\n      dup4\n      dup1\n      dup3\n      dup5\n      calldatacopy\n      0x00\n      dup2\n      dup5\n      add\n      mstore\n      not(0x1f)\n      0x1f\n      dup3\n      add\n      and\n      swap1\n      pop\n      dup1\n      dup4\n      add\n      swap3\n      pop\n      pop\n      pop\n      pop\n      pop\n      pop\n      pop\n      dup2\n      mstore\n      0x20\n      add\n        /* \"contracts/codeEater/twitter.sol\":698:713  block.timestamp */\n      timestamp\n        /* \"contracts/codeEater/twitter.sol\":668:714  Tweet(nextId, _from, content, block.timestamp) */\n      dup2\n      mstore\n      pop\n        /* \"contracts/codeEater/twitter.sol\":651:657  tweets */\n      0x00\n        /* \"contracts/codeEater/twitter.sol\":651:665  tweets[nextId] */\n      dup1\n        /* \"contracts/codeEater/twitter.sol\":658:664  nextId */\n      sload(0x03)\n        /* \"contracts/codeEater/twitter.sol\":651:665  tweets[nextId] */\n      dup2\n      mstore\n      0x20\n      add\n      swap1\n      dup2\n      mstore\n      0x20\n      add\n      0x00\n      keccak256\n        /* \"contracts/codeEater/twitter.sol\":651:714  tweets[nextId] = Tweet(nextId, _from, content, block.timestamp) */\n      0x00\n      dup3\n      add\n      mload\n      dup2\n      0x00\n      add\n      sstore\n      0x20\n      dup3\n      add\n      mload\n      dup2\n      0x01\n      add\n      exp(0x0100, 0x00)\n      dup2\n      sload\n      dup2\n      0xffffffffffffffffffffffffffffffffffffffff\n      mul\n      not\n      and\n      swap1\n      dup4\n      0xffffffffffffffffffffffffffffffffffffffff\n      and\n      mul\n      or\n      swap1\n      sstore\n      pop\n      0x40\n      dup3\n      add\n      mload\n      dup2\n      0x02\n      add\n      swap1\n      dup2\n      tag_39\n      swap2\n      swap1\n      tag_40\n      jump\t// in\n    tag_39:\n      pop\n      0x60\n      dup3\n      add\n      mload\n      dup2\n      0x03\n      add\n      sstore\n      swap1\n      pop\n      pop\n        /* \"contracts/codeEater/twitter.sol\":724:732  tweetsOf */\n      0x01\n        /* \"contracts/codeEater/twitter.sol\":724:739  tweetsOf[_from] */\n      0x00\n        /* \"contracts/codeEater/twitter.sol\":733:738  _from */\n      dup5\n        /* \"contracts/codeEater/twitter.sol\":724:739  tweetsOf[_from] */\n      0xffffffffffffffffffffffffffffffffffffffff\n      and\n      0xffffffffffffffffffffffffffffffffffffffff\n      and\n      dup2\n      mstore\n      0x20\n      add\n      swap1\n      dup2\n      mstore\n      0x20\n      add\n      0x00\n      keccak256\n        /* \"contracts/codeEater/twitter.sol\":745:751  nextId */\n      sload(0x03)\n        /* \"contracts/codeEater/twitter.sol\":724:752  tweetsOf[_from].push(nextId) */\n      swap1\n      dup1\n      0x01\n      dup2\n      sload\n      add\n      dup1\n      dup3\n      sstore\n      dup1\n      swap2\n      pop\n      pop\n      0x01\n      swap1\n      sub\n      swap1\n      0x00\n      mstore\n      keccak256(0x00, 0x20)\n      add\n      0x00\n      swap1\n      swap2\n      swap1\n      swap2\n      swap1\n      swap2\n      pop\n      sstore\n        /* \"contracts/codeEater/twitter.sol\":762:768  nextId */\n      0x03\n      0x00\n        /* \"contracts/codeEater/twitter.sol\":762:770  nextId++ */\n      dup2\n      sload\n      dup1\n      swap3\n      swap2\n      swap1\n      tag_42\n      swap1\n      tag_43\n      jump\t// in\n    tag_42:\n      swap2\n      swap1\n      pop\n      sstore\n      pop\n        /* \"contracts/codeEater/twitter.sol\":520:777  function tweet(address _from, string calldata content) external {... */\n      pop\n      pop\n      pop\n      jump\t// out\n        /* \"contracts/codeEater/twitter.sol\":346:382  mapping(uint => Tweet) public tweets */\n    tag_20:\n      mstore(0x20, 0x00)\n      dup1\n      0x00\n      mstore\n      keccak256(0x00, 0x40)\n      0x00\n      swap2\n      pop\n      swap1\n      pop\n      dup1\n      0x00\n      add\n      sload\n      swap1\n      dup1\n      0x01\n      add\n      0x00\n      swap1\n      sload\n      swap1\n      0x0100\n      exp\n      swap1\n      div\n      0xffffffffffffffffffffffffffffffffffffffff\n      and\n      swap1\n      dup1\n      0x02\n      add\n      dup1\n      sload\n      tag_44\n      swap1\n      tag_30\n      jump\t// in\n    tag_44:\n      dup1\n      0x1f\n      add\n      0x20\n      dup1\n      swap2\n      div\n      mul\n      0x20\n      add\n      mload(0x40)\n      swap1\n      dup2\n      add\n      0x40\n      mstore\n      dup1\n      swap3\n      swap2\n      swap1\n      dup2\n      dup2\n      mstore\n      0x20\n      add\n      dup3\n      dup1\n      sload\n      tag_45\n      swap1\n      tag_30\n      jump\t// in\n    tag_45:\n      dup1\n      iszero\n      tag_46\n      jumpi\n      dup1\n      0x1f\n      lt\n      tag_47\n      jumpi\n      0x0100\n      dup1\n      dup4\n      sload\n      div\n      mul\n      dup4\n      mstore\n      swap2\n      0x20\n      add\n      swap2\n      jump(tag_46)\n    tag_47:\n      dup3\n      add\n      swap2\n      swap1\n      0x00\n      mstore\n      keccak256(0x00, 0x20)\n      swap1\n    tag_48:\n      dup2\n      sload\n      dup2\n      mstore\n      swap1\n      0x01\n      add\n      swap1\n      0x20\n      add\n      dup1\n      dup4\n      gt\n      tag_48\n      jumpi\n      dup3\n      swap1\n      sub\n      0x1f\n      and\n      dup3\n      add\n      swap2\n    tag_46:\n      pop\n      pop\n      pop\n      pop\n      pop\n      swap1\n      dup1\n      0x03\n      add\n      sload\n      swap1\n      pop\n      dup5\n      jump\t// out\n        /* \"contracts/codeEater/twitter.sol\":803:1061  function message(address _from, address _to, string calldata _content) external {... */\n    tag_26:\n        /* \"contracts/codeEater/twitter.sol\":908:918  msg.sender */\n      caller\n        /* \"contracts/codeEater/twitter.sol\":901:918  _from==msg.sender */\n      0xffffffffffffffffffffffffffffffffffffffff\n      and\n        /* \"contracts/codeEater/twitter.sol\":901:906  _from */\n      dup5\n        /* \"contracts/codeEater/twitter.sol\":901:918  _from==msg.sender */\n      0xffffffffffffffffffffffffffffffffffffffff\n      and\n      eq\n        /* \"contracts/codeEater/twitter.sol\":893:940  require(_from==msg.sender,\"You are Autherized\") */\n      tag_50\n      jumpi\n      mload(0x40)\n      0x08c379a000000000000000000000000000000000000000000000000000000000\n      dup2\n      mstore\n      0x04\n      add\n      tag_51\n      swap1\n      tag_38\n      jump\t// in\n    tag_51:\n      mload(0x40)\n      dup1\n      swap2\n      sub\n      swap1\n      revert\n    tag_50:\n        /* \"contracts/codeEater/twitter.sol\":950:962  conversation */\n      0x02\n        /* \"contracts/codeEater/twitter.sol\":950:969  conversation[_from] */\n      0x00\n        /* \"contracts/codeEater/twitter.sol\":963:968  _from */\n      dup6\n        /* \"contracts/codeEater/twitter.sol\":950:969  conversation[_from] */\n      0xffffffffffffffffffffffffffffffffffffffff\n      and\n      0xffffffffffffffffffffffffffffffffffffffff\n      and\n      dup2\n      mstore\n      0x20\n      add\n      swap1\n      dup2\n      mstore\n      0x20\n      add\n      0x00\n      keccak256\n        /* \"contracts/codeEater/twitter.sol\":975:1032  Message(nextMsgId, _from, _to, _content, block.timestamp) */\n      mload(0x40)\n      dup1\n      0xa0\n      add\n      0x40\n      mstore\n      dup1\n        /* \"contracts/codeEater/twitter.sol\":983:992  nextMsgId */\n      sload(0x04)\n        /* \"contracts/codeEater/twitter.sol\":975:1032  Message(nextMsgId, _from, _to, _content, block.timestamp) */\n      dup2\n      mstore\n      0x20\n      add\n        /* \"contracts/codeEater/twitter.sol\":994:999  _from */\n      dup7\n        /* \"contracts/codeEater/twitter.sol\":975:1032  Message(nextMsgId, _from, _to, _content, block.timestamp) */\n      0xffffffffffffffffffffffffffffffffffffffff\n      and\n      dup2\n      mstore\n      0x20\n      add\n        /* \"contracts/codeEater/twitter.sol\":1001:1004  _to */\n      dup6\n        /* \"contracts/codeEater/twitter.sol\":975:1032  Message(nextMsgId, _from, _to, _content, block.timestamp) */\n      0xffffffffffffffffffffffffffffffffffffffff\n      and\n      dup2\n      mstore\n      0x20\n      add\n        /* \"contracts/codeEater/twitter.sol\":1006:1014  _content */\n      dup5\n      dup5\n        /* \"contracts/codeEater/twitter.sol\":975:1032  Message(nextMsgId, _from, _to, _content, block.timestamp) */\n      dup1\n      dup1\n      0x1f\n      add\n      0x20\n      dup1\n      swap2\n      div\n      mul\n      0x20\n      add\n      mload(0x40)\n      swap1\n      dup2\n      add\n      0x40\n      mstore\n      dup1\n      swap4\n      swap3\n      swap2\n      swap1\n      dup2\n      dup2\n      mstore\n      0x20\n      add\n      dup4\n      dup4\n      dup1\n      dup3\n      dup5\n      calldatacopy\n      0x00\n      dup2\n      dup5\n      add\n      mstore\n      not(0x1f)\n      0x1f\n      dup3\n      add\n      and\n      swap1\n      pop\n      dup1\n      dup4\n      add\n      swap3\n      pop\n      pop\n      pop\n      pop\n      pop\n      pop\n      pop\n      dup2\n      mstore\n      0x20\n      add\n        /* \"contracts/codeEater/twitter.sol\":1016:1031  block.timestamp */\n      timestamp\n        /* \"contracts/codeEater/twitter.sol\":975:1032  Message(nextMsgId, _from, _to, _content, block.timestamp) */\n      dup2\n      mstore\n      pop\n        /* \"contracts/codeEater/twitter.sol\":950:1033  conversation[_from].push(Message(nextMsgId, _from, _to, _content, block.timestamp)) */\n      swap1\n      dup1\n      0x01\n      dup2\n      sload\n      add\n      dup1\n      dup3\n      sstore\n      dup1\n      swap2\n      pop\n      pop\n      0x01\n      swap1\n      sub\n      swap1\n      0x00\n      mstore\n      keccak256(0x00, 0x20)\n      swap1\n      0x05\n      mul\n      add\n      0x00\n      swap1\n      swap2\n      swap1\n      swap2\n      swap1\n      swap2\n      pop\n      0x00\n      dup3\n      add\n      mload\n      dup2\n      0x00\n      add\n      sstore\n      0x20\n      dup3\n      add\n      mload\n      dup2\n      0x01\n      add\n      exp(0x0100, 0x00)\n      dup2\n      sload\n      dup2\n      0xffffffffffffffffffffffffffffffffffffffff\n      mul\n      not\n      and\n      swap1\n      dup4\n      0xffffffffffffffffffffffffffffffffffffffff\n      and\n      mul\n      or\n      swap1\n      sstore\n      pop\n      0x40\n      dup3\n      add\n      mload\n      dup2\n      0x02\n      add\n      exp(0x0100, 0x00)\n      dup2\n      sload\n      dup2\n      0xffffffffffffffffffffffffffffffffffffffff\n      mul\n      not\n      and\n      swap1\n      dup4\n      0xffffffffffffffffffffffffffffffffffffffff\n      and\n      mul\n      or\n      swap1\n      sstore\n      pop\n      0x60\n      dup3\n      add\n      mload\n      dup2\n      0x03\n      add\n      swap1\n      dup2\n      tag_53\n      swap2\n      swap1\n      tag_40\n      jump\t// in\n    tag_53:\n      pop\n      0x80\n      dup3\n      add\n      mload\n      dup2\n      0x04\n      add\n      sstore\n      pop\n      pop\n        /* \"contracts/codeEater/twitter.sol\":1043:1052  nextMsgId */\n      0x04\n      0x00\n        /* \"contracts/codeEater/twitter.sol\":1043:1054  nextMsgId++ */\n      dup2\n      sload\n      dup1\n      swap3\n      swap2\n      swap1\n      tag_54\n      swap1\n      tag_43\n      jump\t// in\n    tag_54:\n      swap2\n      swap1\n      pop\n      sstore\n      pop\n        /* \"contracts/codeEater/twitter.sol\":803:1061  function message(address _from, address _to, string calldata _content) external {... */\n      pop\n      pop\n      pop\n      pop\n      jump\t// out\n        /* \"#utility.yul\":88:205   */\n    tag_56:\n        /* \"#utility.yul\":197:198   */\n      0x00\n        /* \"#utility.yul\":194:195   */\n      dup1\n        /* \"#utility.yul\":187:199   */\n      revert\n        /* \"#utility.yul\":211:328   */\n    tag_57:\n        /* \"#utility.yul\":320:321   */\n      0x00\n        /* \"#utility.yul\":317:318   */\n      dup1\n        /* \"#utility.yul\":310:322   */\n      revert\n        /* \"#utility.yul\":334:460   */\n    tag_58:\n        /* \"#utility.yul\":371:378   */\n      0x00\n        /* \"#utility.yul\":411:453   */\n      0xffffffffffffffffffffffffffffffffffffffff\n        /* \"#utility.yul\":404:409   */\n      dup3\n        /* \"#utility.yul\":400:454   */\n      and\n        /* \"#utility.yul\":389:454   */\n      swap1\n      pop\n        /* \"#utility.yul\":334:460   */\n      swap2\n      swap1\n      pop\n      jump\t// out\n        /* \"#utility.yul\":466:562   */\n    tag_59:\n        /* \"#utility.yul\":503:510   */\n      0x00\n        /* \"#utility.yul\":532:556   */\n      tag_102\n        /* \"#utility.yul\":550:555   */\n      dup3\n        /* \"#utility.yul\":532:556   */\n      tag_58\n      jump\t// in\n    tag_102:\n        /* \"#utility.yul\":521:556   */\n      swap1\n      pop\n        /* \"#utility.yul\":466:562   */\n      swap2\n      swap1\n      pop\n      jump\t// out\n        /* \"#utility.yul\":568:690   */\n    tag_60:\n        /* \"#utility.yul\":641:665   */\n      tag_104\n        /* \"#utility.yul\":659:664   */\n      dup2\n        /* \"#utility.yul\":641:665   */\n      tag_59\n      jump\t// in\n    tag_104:\n        /* \"#utility.yul\":634:639   */\n      dup2\n        /* \"#utility.yul\":631:666   */\n      eq\n        /* \"#utility.yul\":621:684   */\n      tag_105\n      jumpi\n        /* \"#utility.yul\":680:681   */\n      0x00\n        /* \"#utility.yul\":677:678   */\n      dup1\n        /* \"#utility.yul\":670:682   */\n      revert\n        /* \"#utility.yul\":621:684   */\n    tag_105:\n        /* \"#utility.yul\":568:690   */\n      pop\n      jump\t// out\n        /* \"#utility.yul\":696:835   */\n    tag_61:\n        /* \"#utility.yul\":742:747   */\n      0x00\n        /* \"#utility.yul\":780:786   */\n      dup2\n        /* \"#utility.yul\":767:787   */\n      calldataload\n        /* \"#utility.yul\":758:787   */\n      swap1\n      pop\n        /* \"#utility.yul\":796:829   */\n      tag_107\n        /* \"#utility.yul\":823:828   */\n      dup2\n        /* \"#utility.yul\":796:829   */\n      tag_60\n      jump\t// in\n    tag_107:\n        /* \"#utility.yul\":696:835   */\n      swap3\n      swap2\n      pop\n      pop\n      jump\t// out\n        /* \"#utility.yul\":841:918   */\n    tag_62:\n        /* \"#utility.yul\":878:885   */\n      0x00\n        /* \"#utility.yul\":907:912   */\n      dup2\n        /* \"#utility.yul\":896:912   */\n      swap1\n      pop\n        /* \"#utility.yul\":841:918   */\n      swap2\n      swap1\n      pop\n      jump\t// out\n        /* \"#utility.yul\":924:1046   */\n    tag_63:\n        /* \"#utility.yul\":997:1021   */\n      tag_110\n        /* \"#utility.yul\":1015:1020   */\n      dup2\n        /* \"#utility.yul\":997:1021   */\n      tag_62\n      jump\t// in\n    tag_110:\n        /* \"#utility.yul\":990:995   */\n      dup2\n        /* \"#utility.yul\":987:1022   */\n      eq\n        /* \"#utility.yul\":977:1040   */\n      tag_111\n      jumpi\n        /* \"#utility.yul\":1036:1037   */\n      0x00\n        /* \"#utility.yul\":1033:1034   */\n      dup1\n        /* \"#utility.yul\":1026:1038   */\n      revert\n        /* \"#utility.yul\":977:1040   */\n    tag_111:\n        /* \"#utility.yul\":924:1046   */\n      pop\n      jump\t// out\n        /* \"#utility.yul\":1052:1191   */\n    tag_64:\n        /* \"#utility.yul\":1098:1103   */\n      0x00\n        /* \"#utility.yul\":1136:1142   */\n      dup2\n        /* \"#utility.yul\":1123:1143   */\n      calldataload\n        /* \"#utility.yul\":1114:1143   */\n      swap1\n      pop\n        /* \"#utility.yul\":1152:1185   */\n      tag_113\n        /* \"#utility.yul\":1179:1184   */\n      dup2\n        /* \"#utility.yul\":1152:1185   */\n      tag_63\n      jump\t// in\n    tag_113:\n        /* \"#utility.yul\":1052:1191   */\n      swap3\n      swap2\n      pop\n      pop\n      jump\t// out\n        /* \"#utility.yul\":1197:1671   */\n    tag_9:\n        /* \"#utility.yul\":1265:1271   */\n      0x00\n        /* \"#utility.yul\":1273:1279   */\n      dup1\n        /* \"#utility.yul\":1322:1324   */\n      0x40\n        /* \"#utility.yul\":1310:1319   */\n      dup4\n        /* \"#utility.yul\":1301:1308   */\n      dup6\n        /* \"#utility.yul\":1297:1320   */\n      sub\n        /* \"#utility.yul\":1293:1325   */\n      slt\n        /* \"#utility.yul\":1290:1409   */\n      iszero\n      tag_115\n      jumpi\n        /* \"#utility.yul\":1328:1407   */\n      tag_116\n      tag_56\n      jump\t// in\n    tag_116:\n        /* \"#utility.yul\":1290:1409   */\n    tag_115:\n        /* \"#utility.yul\":1448:1449   */\n      0x00\n        /* \"#utility.yul\":1473:1526   */\n      tag_117\n        /* \"#utility.yul\":1518:1525   */\n      dup6\n        /* \"#utility.yul\":1509:1515   */\n      dup3\n        /* \"#utility.yul\":1498:1507   */\n      dup7\n        /* \"#utility.yul\":1494:1516   */\n      add\n        /* \"#utility.yul\":1473:1526   */\n      tag_61\n      jump\t// in\n    tag_117:\n        /* \"#utility.yul\":1463:1526   */\n      swap3\n      pop\n        /* \"#utility.yul\":1419:1536   */\n      pop\n        /* \"#utility.yul\":1575:1577   */\n      0x20\n        /* \"#utility.yul\":1601:1654   */\n      tag_118\n        /* \"#utility.yul\":1646:1653   */\n      dup6\n        /* \"#utility.yul\":1637:1643   */\n      dup3\n        /* \"#utility.yul\":1626:1635   */\n      dup7\n        /* \"#utility.yul\":1622:1644   */\n      add\n        /* \"#utility.yul\":1601:1654   */\n      tag_64\n      jump\t// in\n    tag_118:\n        /* \"#utility.yul\":1591:1654   */\n      swap2\n      pop\n        /* \"#utility.yul\":1546:1664   */\n      pop\n        /* \"#utility.yul\":1197:1671   */\n      swap3\n      pop\n      swap3\n      swap1\n      pop\n      jump\t// out\n        /* \"#utility.yul\":1677:1795   */\n    tag_65:\n        /* \"#utility.yul\":1764:1788   */\n      tag_120\n        /* \"#utility.yul\":1782:1787   */\n      dup2\n        /* \"#utility.yul\":1764:1788   */\n      tag_62\n      jump\t// in\n    tag_120:\n        /* \"#utility.yul\":1759:1762   */\n      dup3\n        /* \"#utility.yul\":1752:1789   */\n      mstore\n        /* \"#utility.yul\":1677:1795   */\n      pop\n      pop\n      jump\t// out\n        /* \"#utility.yul\":1801:1919   */\n    tag_66:\n        /* \"#utility.yul\":1888:1912   */\n      tag_122\n        /* \"#utility.yul\":1906:1911   */\n      dup2\n        /* \"#utility.yul\":1888:1912   */\n      tag_59\n      jump\t// in\n    tag_122:\n        /* \"#utility.yul\":1883:1886   */\n      dup3\n        /* \"#utility.yul\":1876:1913   */\n      mstore\n        /* \"#utility.yul\":1801:1919   */\n      pop\n      pop\n      jump\t// out\n        /* \"#utility.yul\":1925:2024   */\n    tag_67:\n        /* \"#utility.yul\":1977:1983   */\n      0x00\n        /* \"#utility.yul\":2011:2016   */\n      dup2\n        /* \"#utility.yul\":2005:2017   */\n      mload\n        /* \"#utility.yul\":1995:2017   */\n      swap1\n      pop\n        /* \"#utility.yul\":1925:2024   */\n      swap2\n      swap1\n      pop\n      jump\t// out\n        /* \"#utility.yul\":2030:2199   */\n    tag_68:\n        /* \"#utility.yul\":2114:2125   */\n      0x00\n        /* \"#utility.yul\":2148:2154   */\n      dup3\n        /* \"#utility.yul\":2143:2146   */\n      dup3\n        /* \"#utility.yul\":2136:2155   */\n      mstore\n        /* \"#utility.yul\":2188:2192   */\n      0x20\n        /* \"#utility.yul\":2183:2186   */\n      dup3\n        /* \"#utility.yul\":2179:2193   */\n      add\n        /* \"#utility.yul\":2164:2193   */\n      swap1\n      pop\n        /* \"#utility.yul\":2030:2199   */\n      swap3\n      swap2\n      pop\n      pop\n      jump\t// out\n        /* \"#utility.yul\":2205:2451   */\n    tag_69:\n        /* \"#utility.yul\":2286:2287   */\n      0x00\n        /* \"#utility.yul\":2296:2409   */\n    tag_126:\n        /* \"#utility.yul\":2310:2316   */\n      dup4\n        /* \"#utility.yul\":2307:2308   */\n      dup2\n        /* \"#utility.yul\":2304:2317   */\n      lt\n        /* \"#utility.yul\":2296:2409   */\n      iszero\n      tag_128\n      jumpi\n        /* \"#utility.yul\":2395:2396   */\n      dup1\n        /* \"#utility.yul\":2390:2393   */\n      dup3\n        /* \"#utility.yul\":2386:2397   */\n      add\n        /* \"#utility.yul\":2380:2398   */\n      mload\n        /* \"#utility.yul\":2376:2377   */\n      dup2\n        /* \"#utility.yul\":2371:2374   */\n      dup5\n        /* \"#utility.yul\":2367:2378   */\n      add\n        /* \"#utility.yul\":2360:2399   */\n      mstore\n        /* \"#utility.yul\":2332:2334   */\n      0x20\n        /* \"#utility.yul\":2329:2330   */\n      dup2\n        /* \"#utility.yul\":2325:2335   */\n      add\n        /* \"#utility.yul\":2320:2335   */\n      swap1\n      pop\n        /* \"#utility.yul\":2296:2409   */\n      jump(tag_126)\n    tag_128:\n        /* \"#utility.yul\":2443:2444   */\n      0x00\n        /* \"#utility.yul\":2434:2440   */\n      dup5\n        /* \"#utility.yul\":2429:2432   */\n      dup5\n        /* \"#utility.yul\":2425:2441   */\n      add\n        /* \"#utility.yul\":2418:2445   */\n      mstore\n        /* \"#utility.yul\":2267:2451   */\n      pop\n        /* \"#utility.yul\":2205:2451   */\n      pop\n      pop\n      pop\n      jump\t// out\n        /* \"#utility.yul\":2457:2559   */\n    tag_70:\n        /* \"#utility.yul\":2498:2504   */\n      0x00\n        /* \"#utility.yul\":2549:2551   */\n      0x1f\n        /* \"#utility.yul\":2545:2552   */\n      not\n        /* \"#utility.yul\":2540:2542   */\n      0x1f\n        /* \"#utility.yul\":2533:2538   */\n      dup4\n        /* \"#utility.yul\":2529:2543   */\n      add\n        /* \"#utility.yul\":2525:2553   */\n      and\n        /* \"#utility.yul\":2515:2553   */\n      swap1\n      pop\n        /* \"#utility.yul\":2457:2559   */\n      swap2\n      swap1\n      pop\n      jump\t// out\n        /* \"#utility.yul\":2565:2942   */\n    tag_71:\n        /* \"#utility.yul\":2653:2656   */\n      0x00\n        /* \"#utility.yul\":2681:2720   */\n      tag_131\n        /* \"#utility.yul\":2714:2719   */\n      dup3\n        /* \"#utility.yul\":2681:2720   */\n      tag_67\n      jump\t// in\n    tag_131:\n        /* \"#utility.yul\":2736:2807   */\n      tag_132\n        /* \"#utility.yul\":2800:2806   */\n      dup2\n        /* \"#utility.yul\":2795:2798   */\n      dup6\n        /* \"#utility.yul\":2736:2807   */\n      tag_68\n      jump\t// in\n    tag_132:\n        /* \"#utility.yul\":2729:2807   */\n      swap4\n      pop\n        /* \"#utility.yul\":2816:2881   */\n      tag_133\n        /* \"#utility.yul\":2874:2880   */\n      dup2\n        /* \"#utility.yul\":2869:2872   */\n      dup6\n        /* \"#utility.yul\":2862:2866   */\n      0x20\n        /* \"#utility.yul\":2855:2860   */\n      dup7\n        /* \"#utility.yul\":2851:2867   */\n      add\n        /* \"#utility.yul\":2816:2881   */\n      tag_69\n      jump\t// in\n    tag_133:\n        /* \"#utility.yul\":2906:2935   */\n      tag_134\n        /* \"#utility.yul\":2928:2934   */\n      dup2\n        /* \"#utility.yul\":2906:2935   */\n      tag_70\n      jump\t// in\n    tag_134:\n        /* \"#utility.yul\":2901:2904   */\n      dup5\n        /* \"#utility.yul\":2897:2936   */\n      add\n        /* \"#utility.yul\":2890:2936   */\n      swap2\n      pop\n        /* \"#utility.yul\":2657:2942   */\n      pop\n        /* \"#utility.yul\":2565:2942   */\n      swap3\n      swap2\n      pop\n      pop\n      jump\t// out\n        /* \"#utility.yul\":2948:3703   */\n    tag_12:\n        /* \"#utility.yul\":3173:3177   */\n      0x00\n        /* \"#utility.yul\":3211:3214   */\n      0xa0\n        /* \"#utility.yul\":3200:3209   */\n      dup3\n        /* \"#utility.yul\":3196:3215   */\n      add\n        /* \"#utility.yul\":3188:3215   */\n      swap1\n      pop\n        /* \"#utility.yul\":3225:3296   */\n      tag_136\n        /* \"#utility.yul\":3293:3294   */\n      0x00\n        /* \"#utility.yul\":3282:3291   */\n      dup4\n        /* \"#utility.yul\":3278:3295   */\n      add\n        /* \"#utility.yul\":3269:3275   */\n      dup9\n        /* \"#utility.yul\":3225:3296   */\n      tag_65\n      jump\t// in\n    tag_136:\n        /* \"#utility.yul\":3306:3378   */\n      tag_137\n        /* \"#utility.yul\":3374:3376   */\n      0x20\n        /* \"#utility.yul\":3363:3372   */\n      dup4\n        /* \"#utility.yul\":3359:3377   */\n      add\n        /* \"#utility.yul\":3350:3356   */\n      dup8\n        /* \"#utility.yul\":3306:3378   */\n      tag_66\n      jump\t// in\n    tag_137:\n        /* \"#utility.yul\":3388:3460   */\n      tag_138\n        /* \"#utility.yul\":3456:3458   */\n      0x40\n        /* \"#utility.yul\":3445:3454   */\n      dup4\n        /* \"#utility.yul\":3441:3459   */\n      add\n        /* \"#utility.yul\":3432:3438   */\n      dup7\n        /* \"#utility.yul\":3388:3460   */\n      tag_66\n      jump\t// in\n    tag_138:\n        /* \"#utility.yul\":3507:3516   */\n      dup2\n        /* \"#utility.yul\":3501:3505   */\n      dup2\n        /* \"#utility.yul\":3497:3517   */\n      sub\n        /* \"#utility.yul\":3492:3494   */\n      0x60\n        /* \"#utility.yul\":3481:3490   */\n      dup4\n        /* \"#utility.yul\":3477:3495   */\n      add\n        /* \"#utility.yul\":3470:3518   */\n      mstore\n        /* \"#utility.yul\":3535:3613   */\n      tag_139\n        /* \"#utility.yul\":3608:3612   */\n      dup2\n        /* \"#utility.yul\":3599:3605   */\n      dup6\n        /* \"#utility.yul\":3535:3613   */\n      tag_71\n      jump\t// in\n    tag_139:\n        /* \"#utility.yul\":3527:3613   */\n      swap1\n      pop\n        /* \"#utility.yul\":3623:3696   */\n      tag_140\n        /* \"#utility.yul\":3691:3694   */\n      0x80\n        /* \"#utility.yul\":3680:3689   */\n      dup4\n        /* \"#utility.yul\":3676:3695   */\n      add\n        /* \"#utility.yul\":3667:3673   */\n      dup5\n        /* \"#utility.yul\":3623:3696   */\n      tag_65\n      jump\t// in\n    tag_140:\n        /* \"#utility.yul\":2948:3703   */\n      swap7\n      swap6\n      pop\n      pop\n      pop\n      pop\n      pop\n      pop\n      jump\t// out\n        /* \"#utility.yul\":3709:3826   */\n    tag_72:\n        /* \"#utility.yul\":3818:3819   */\n      0x00\n        /* \"#utility.yul\":3815:3816   */\n      dup1\n        /* \"#utility.yul\":3808:3820   */\n      revert\n        /* \"#utility.yul\":3832:3949   */\n    tag_73:\n        /* \"#utility.yul\":3941:3942   */\n      0x00\n        /* \"#utility.yul\":3938:3939   */\n      dup1\n        /* \"#utility.yul\":3931:3943   */\n      revert\n        /* \"#utility.yul\":3955:4072   */\n    tag_74:\n        /* \"#utility.yul\":4064:4065   */\n      0x00\n        /* \"#utility.yul\":4061:4062   */\n      dup1\n        /* \"#utility.yul\":4054:4066   */\n      revert\n        /* \"#utility.yul\":4092:4645   */\n    tag_75:\n        /* \"#utility.yul\":4150:4158   */\n      0x00\n        /* \"#utility.yul\":4160:4166   */\n      dup1\n        /* \"#utility.yul\":4210:4213   */\n      dup4\n        /* \"#utility.yul\":4203:4207   */\n      0x1f\n        /* \"#utility.yul\":4195:4201   */\n      dup5\n        /* \"#utility.yul\":4191:4208   */\n      add\n        /* \"#utility.yul\":4187:4214   */\n      slt\n        /* \"#utility.yul\":4177:4299   */\n      tag_145\n      jumpi\n        /* \"#utility.yul\":4218:4297   */\n      tag_146\n      tag_72\n      jump\t// in\n    tag_146:\n        /* \"#utility.yul\":4177:4299   */\n    tag_145:\n        /* \"#utility.yul\":4331:4337   */\n      dup3\n        /* \"#utility.yul\":4318:4338   */\n      calldataload\n        /* \"#utility.yul\":4308:4338   */\n      swap1\n      pop\n        /* \"#utility.yul\":4361:4379   */\n      0xffffffffffffffff\n        /* \"#utility.yul\":4353:4359   */\n      dup2\n        /* \"#utility.yul\":4350:4380   */\n      gt\n        /* \"#utility.yul\":4347:4464   */\n      iszero\n      tag_147\n      jumpi\n        /* \"#utility.yul\":4383:4462   */\n      tag_148\n      tag_73\n      jump\t// in\n    tag_148:\n        /* \"#utility.yul\":4347:4464   */\n    tag_147:\n        /* \"#utility.yul\":4497:4501   */\n      0x20\n        /* \"#utility.yul\":4489:4495   */\n      dup4\n        /* \"#utility.yul\":4485:4502   */\n      add\n        /* \"#utility.yul\":4473:4502   */\n      swap2\n      pop\n        /* \"#utility.yul\":4551:4554   */\n      dup4\n        /* \"#utility.yul\":4543:4547   */\n      0x01\n        /* \"#utility.yul\":4535:4541   */\n      dup3\n        /* \"#utility.yul\":4531:4548   */\n      mul\n        /* \"#utility.yul\":4521:4529   */\n      dup4\n        /* \"#utility.yul\":4517:4549   */\n      add\n        /* \"#utility.yul\":4514:4555   */\n      gt\n        /* \"#utility.yul\":4511:4639   */\n      iszero\n      tag_149\n      jumpi\n        /* \"#utility.yul\":4558:4637   */\n      tag_150\n      tag_74\n      jump\t// in\n    tag_150:\n        /* \"#utility.yul\":4511:4639   */\n    tag_149:\n        /* \"#utility.yul\":4092:4645   */\n      swap3\n      pop\n      swap3\n      swap1\n      pop\n      jump\t// out\n        /* \"#utility.yul\":4651:5325   */\n    tag_15:\n        /* \"#utility.yul\":4731:4737   */\n      0x00\n        /* \"#utility.yul\":4739:4745   */\n      dup1\n        /* \"#utility.yul\":4747:4753   */\n      0x00\n        /* \"#utility.yul\":4796:4798   */\n      0x40\n        /* \"#utility.yul\":4784:4793   */\n      dup5\n        /* \"#utility.yul\":4775:4782   */\n      dup7\n        /* \"#utility.yul\":4771:4794   */\n      sub\n        /* \"#utility.yul\":4767:4799   */\n      slt\n        /* \"#utility.yul\":4764:4883   */\n      iszero\n      tag_152\n      jumpi\n        /* \"#utility.yul\":4802:4881   */\n      tag_153\n      tag_56\n      jump\t// in\n    tag_153:\n        /* \"#utility.yul\":4764:4883   */\n    tag_152:\n        /* \"#utility.yul\":4922:4923   */\n      0x00\n        /* \"#utility.yul\":4947:5000   */\n      tag_154\n        /* \"#utility.yul\":4992:4999   */\n      dup7\n        /* \"#utility.yul\":4983:4989   */\n      dup3\n        /* \"#utility.yul\":4972:4981   */\n      dup8\n        /* \"#utility.yul\":4968:4990   */\n      add\n        /* \"#utility.yul\":4947:5000   */\n      tag_61\n      jump\t// in\n    tag_154:\n        /* \"#utility.yul\":4937:5000   */\n      swap4\n      pop\n        /* \"#utility.yul\":4893:5010   */\n      pop\n        /* \"#utility.yul\":5077:5079   */\n      0x20\n        /* \"#utility.yul\":5066:5075   */\n      dup5\n        /* \"#utility.yul\":5062:5080   */\n      add\n        /* \"#utility.yul\":5049:5081   */\n      calldataload\n        /* \"#utility.yul\":5108:5126   */\n      0xffffffffffffffff\n        /* \"#utility.yul\":5100:5106   */\n      dup2\n        /* \"#utility.yul\":5097:5127   */\n      gt\n        /* \"#utility.yul\":5094:5211   */\n      iszero\n      tag_155\n      jumpi\n        /* \"#utility.yul\":5130:5209   */\n      tag_156\n      tag_57\n      jump\t// in\n    tag_156:\n        /* \"#utility.yul\":5094:5211   */\n    tag_155:\n        /* \"#utility.yul\":5243:5308   */\n      tag_157\n        /* \"#utility.yul\":5300:5307   */\n      dup7\n        /* \"#utility.yul\":5291:5297   */\n      dup3\n        /* \"#utility.yul\":5280:5289   */\n      dup8\n        /* \"#utility.yul\":5276:5298   */\n      add\n        /* \"#utility.yul\":5243:5308   */\n      tag_75\n      jump\t// in\n    tag_157:\n        /* \"#utility.yul\":5225:5308   */\n      swap3\n      pop\n      swap3\n      pop\n        /* \"#utility.yul\":5020:5318   */\n      pop\n        /* \"#utility.yul\":4651:5325   */\n      swap3\n      pop\n      swap3\n      pop\n      swap3\n      jump\t// out\n        /* \"#utility.yul\":5331:5660   */\n    tag_19:\n        /* \"#utility.yul\":5390:5396   */\n      0x00\n        /* \"#utility.yul\":5439:5441   */\n      0x20\n        /* \"#utility.yul\":5427:5436   */\n      dup3\n        /* \"#utility.yul\":5418:5425   */\n      dup5\n        /* \"#utility.yul\":5414:5437   */\n      sub\n        /* \"#utility.yul\":5410:5442   */\n      slt\n        /* \"#utility.yul\":5407:5526   */\n      iszero\n      tag_159\n      jumpi\n        /* \"#utility.yul\":5445:5524   */\n      tag_160\n      tag_56\n      jump\t// in\n    tag_160:\n        /* \"#utility.yul\":5407:5526   */\n    tag_159:\n        /* \"#utility.yul\":5565:5566   */\n      0x00\n        /* \"#utility.yul\":5590:5643   */\n      tag_161\n        /* \"#utility.yul\":5635:5642   */\n      dup5\n        /* \"#utility.yul\":5626:5632   */\n      dup3\n        /* \"#utility.yul\":5615:5624   */\n      dup6\n        /* \"#utility.yul\":5611:5633   */\n      add\n        /* \"#utility.yul\":5590:5643   */\n      tag_64\n      jump\t// in\n    tag_161:\n        /* \"#utility.yul\":5580:5643   */\n      swap2\n      pop\n        /* \"#utility.yul\":5536:5653   */\n      pop\n        /* \"#utility.yul\":5331:5660   */\n      swap3\n      swap2\n      pop\n      pop\n      jump\t// out\n        /* \"#utility.yul\":5666:6310   */\n    tag_22:\n        /* \"#utility.yul\":5863:5867   */\n      0x00\n        /* \"#utility.yul\":5901:5904   */\n      0x80\n        /* \"#utility.yul\":5890:5899   */\n      dup3\n        /* \"#utility.yul\":5886:5905   */\n      add\n        /* \"#utility.yul\":5878:5905   */\n      swap1\n      pop\n        /* \"#utility.yul\":5915:5986   */\n      tag_163\n        /* \"#utility.yul\":5983:5984   */\n      0x00\n        /* \"#utility.yul\":5972:5981   */\n      dup4\n        /* \"#utility.yul\":5968:5985   */\n      add\n        /* \"#utility.yul\":5959:5965   */\n      dup8\n        /* \"#utility.yul\":5915:5986   */\n      tag_65\n      jump\t// in\n    tag_163:\n        /* \"#utility.yul\":5996:6068   */\n      tag_164\n        /* \"#utility.yul\":6064:6066   */\n      0x20\n        /* \"#utility.yul\":6053:6062   */\n      dup4\n        /* \"#utility.yul\":6049:6067   */\n      add\n        /* \"#utility.yul\":6040:6046   */\n      dup7\n        /* \"#utility.yul\":5996:6068   */\n      tag_66\n      jump\t// in\n    tag_164:\n        /* \"#utility.yul\":6115:6124   */\n      dup2\n        /* \"#utility.yul\":6109:6113   */\n      dup2\n        /* \"#utility.yul\":6105:6125   */\n      sub\n        /* \"#utility.yul\":6100:6102   */\n      0x40\n        /* \"#utility.yul\":6089:6098   */\n      dup4\n        /* \"#utility.yul\":6085:6103   */\n      add\n        /* \"#utility.yul\":6078:6126   */\n      mstore\n        /* \"#utility.yul\":6143:6221   */\n      tag_165\n        /* \"#utility.yul\":6216:6220   */\n      dup2\n        /* \"#utility.yul\":6207:6213   */\n      dup6\n        /* \"#utility.yul\":6143:6221   */\n      tag_71\n      jump\t// in\n    tag_165:\n        /* \"#utility.yul\":6135:6221   */\n      swap1\n      pop\n        /* \"#utility.yul\":6231:6303   */\n      tag_166\n        /* \"#utility.yul\":6299:6301   */\n      0x60\n        /* \"#utility.yul\":6288:6297   */\n      dup4\n        /* \"#utility.yul\":6284:6302   */\n      add\n        /* \"#utility.yul\":6275:6281   */\n      dup5\n        /* \"#utility.yul\":6231:6303   */\n      tag_65\n      jump\t// in\n    tag_166:\n        /* \"#utility.yul\":5666:6310   */\n      swap6\n      swap5\n      pop\n      pop\n      pop\n      pop\n      pop\n      jump\t// out\n        /* \"#utility.yul\":6316:7135   */\n    tag_25:\n        /* \"#utility.yul\":6405:6411   */\n      0x00\n        /* \"#utility.yul\":6413:6419   */\n      dup1\n        /* \"#utility.yul\":6421:6427   */\n      0x00\n        /* \"#utility.yul\":6429:6435   */\n      dup1\n        /* \"#utility.yul\":6478:6480   */\n      0x60\n        /* \"#utility.yul\":6466:6475   */\n      dup6\n        /* \"#utility.yul\":6457:6464   */\n      dup8\n        /* \"#utility.yul\":6453:6476   */\n      sub\n        /* \"#utility.yul\":6449:6481   */\n      slt\n        /* \"#utility.yul\":6446:6565   */\n      iszero\n      tag_168\n      jumpi\n        /* \"#utility.yul\":6484:6563   */\n      tag_169\n      tag_56\n      jump\t// in\n    tag_169:\n        /* \"#utility.yul\":6446:6565   */\n    tag_168:\n        /* \"#utility.yul\":6604:6605   */\n      0x00\n        /* \"#utility.yul\":6629:6682   */\n      tag_170\n        /* \"#utility.yul\":6674:6681   */\n      dup8\n        /* \"#utility.yul\":6665:6671   */\n      dup3\n        /* \"#utility.yul\":6654:6663   */\n      dup9\n        /* \"#utility.yul\":6650:6672   */\n      add\n        /* \"#utility.yul\":6629:6682   */\n      tag_61\n      jump\t// in\n    tag_170:\n        /* \"#utility.yul\":6619:6682   */\n      swap5\n      pop\n        /* \"#utility.yul\":6575:6692   */\n      pop\n        /* \"#utility.yul\":6731:6733   */\n      0x20\n        /* \"#utility.yul\":6757:6810   */\n      tag_171\n        /* \"#utility.yul\":6802:6809   */\n      dup8\n        /* \"#utility.yul\":6793:6799   */\n      dup3\n        /* \"#utility.yul\":6782:6791   */\n      dup9\n        /* \"#utility.yul\":6778:6800   */\n      add\n        /* \"#utility.yul\":6757:6810   */\n      tag_61\n      jump\t// in\n    tag_171:\n        /* \"#utility.yul\":6747:6810   */\n      swap4\n      pop\n        /* \"#utility.yul\":6702:6820   */\n      pop\n        /* \"#utility.yul\":6887:6889   */\n      0x40\n        /* \"#utility.yul\":6876:6885   */\n      dup6\n        /* \"#utility.yul\":6872:6890   */\n      add\n        /* \"#utility.yul\":6859:6891   */\n      calldataload\n        /* \"#utility.yul\":6918:6936   */\n      0xffffffffffffffff\n        /* \"#utility.yul\":6910:6916   */\n      dup2\n        /* \"#utility.yul\":6907:6937   */\n      gt\n        /* \"#utility.yul\":6904:7021   */\n      iszero\n      tag_172\n      jumpi\n        /* \"#utility.yul\":6940:7019   */\n      tag_173\n      tag_57\n      jump\t// in\n    tag_173:\n        /* \"#utility.yul\":6904:7021   */\n    tag_172:\n        /* \"#utility.yul\":7053:7118   */\n      tag_174\n        /* \"#utility.yul\":7110:7117   */\n      dup8\n        /* \"#utility.yul\":7101:7107   */\n      dup3\n        /* \"#utility.yul\":7090:7099   */\n      dup9\n        /* \"#utility.yul\":7086:7108   */\n      add\n        /* \"#utility.yul\":7053:7118   */\n      tag_75\n      jump\t// in\n    tag_174:\n        /* \"#utility.yul\":7035:7118   */\n      swap3\n      pop\n      swap3\n      pop\n        /* \"#utility.yul\":6830:7128   */\n      pop\n        /* \"#utility.yul\":6316:7135   */\n      swap3\n      swap6\n      swap2\n      swap5\n      pop\n      swap3\n      pop\n      jump\t// out\n        /* \"#utility.yul\":7141:7321   */\n    tag_76:\n        /* \"#utility.yul\":7189:7266   */\n      0x4e487b7100000000000000000000000000000000000000000000000000000000\n        /* \"#utility.yul\":7186:7187   */\n      0x00\n        /* \"#utility.yul\":7179:7267   */\n      mstore\n        /* \"#utility.yul\":7286:7290   */\n      0x22\n        /* \"#utility.yul\":7283:7284   */\n      0x04\n        /* \"#utility.yul\":7276:7291   */\n      mstore\n        /* \"#utility.yul\":7310:7314   */\n      0x24\n        /* \"#utility.yul\":7307:7308   */\n      0x00\n        /* \"#utility.yul\":7300:7315   */\n      revert\n        /* \"#utility.yul\":7327:7647   */\n    tag_30:\n        /* \"#utility.yul\":7371:7377   */\n      0x00\n        /* \"#utility.yul\":7408:7409   */\n      0x02\n        /* \"#utility.yul\":7402:7406   */\n      dup3\n        /* \"#utility.yul\":7398:7410   */\n      div\n        /* \"#utility.yul\":7388:7410   */\n      swap1\n      pop\n        /* \"#utility.yul\":7455:7456   */\n      0x01\n        /* \"#utility.yul\":7449:7453   */\n      dup3\n        /* \"#utility.yul\":7445:7457   */\n      and\n        /* \"#utility.yul\":7476:7494   */\n      dup1\n        /* \"#utility.yul\":7466:7547   */\n      tag_177\n      jumpi\n        /* \"#utility.yul\":7532:7536   */\n      0x7f\n        /* \"#utility.yul\":7524:7530   */\n      dup3\n        /* \"#utility.yul\":7520:7537   */\n      and\n        /* \"#utility.yul\":7510:7537   */\n      swap2\n      pop\n        /* \"#utility.yul\":7466:7547   */\n    tag_177:\n        /* \"#utility.yul\":7594:7596   */\n      0x20\n        /* \"#utility.yul\":7586:7592   */\n      dup3\n        /* \"#utility.yul\":7583:7597   */\n      lt\n        /* \"#utility.yul\":7563:7581   */\n      dup2\n        /* \"#utility.yul\":7560:7598   */\n      sub\n        /* \"#utility.yul\":7557:7641   */\n      tag_178\n      jumpi\n        /* \"#utility.yul\":7613:7631   */\n      tag_179\n      tag_76\n      jump\t// in\n    tag_179:\n        /* \"#utility.yul\":7557:7641   */\n    tag_178:\n        /* \"#utility.yul\":7378:7647   */\n      pop\n        /* \"#utility.yul\":7327:7647   */\n      swap2\n      swap1\n      pop\n      jump\t// out\n        /* \"#utility.yul\":7653:7821   */\n    tag_77:\n        /* \"#utility.yul\":7793:7813   */\n      0x596f752061726520417574686572697a65640000000000000000000000000000\n        /* \"#utility.yul\":7789:7790   */\n      0x00\n        /* \"#utility.yul\":7781:7787   */\n      dup3\n        /* \"#utility.yul\":7777:7791   */\n      add\n        /* \"#utility.yul\":7770:7814   */\n      mstore\n        /* \"#utility.yul\":7653:7821   */\n      pop\n      jump\t// out\n        /* \"#utility.yul\":7827:8193   */\n    tag_78:\n        /* \"#utility.yul\":7969:7972   */\n      0x00\n        /* \"#utility.yul\":7990:8057   */\n      tag_182\n        /* \"#utility.yul\":8054:8056   */\n      0x12\n        /* \"#utility.yul\":8049:8052   */\n      dup4\n        /* \"#utility.yul\":7990:8057   */\n      tag_68\n      jump\t// in\n    tag_182:\n        /* \"#utility.yul\":7983:8057   */\n      swap2\n      pop\n        /* \"#utility.yul\":8066:8159   */\n      tag_183\n        /* \"#utility.yul\":8155:8158   */\n      dup3\n        /* \"#utility.yul\":8066:8159   */\n      tag_77\n      jump\t// in\n    tag_183:\n        /* \"#utility.yul\":8184:8186   */\n      0x20\n        /* \"#utility.yul\":8179:8182   */\n      dup3\n        /* \"#utility.yul\":8175:8187   */\n      add\n        /* \"#utility.yul\":8168:8187   */\n      swap1\n      pop\n        /* \"#utility.yul\":7827:8193   */\n      swap2\n      swap1\n      pop\n      jump\t// out\n        /* \"#utility.yul\":8199:8618   */\n    tag_38:\n        /* \"#utility.yul\":8365:8369   */\n      0x00\n        /* \"#utility.yul\":8403:8405   */\n      0x20\n        /* \"#utility.yul\":8392:8401   */\n      dup3\n        /* \"#utility.yul\":8388:8406   */\n      add\n        /* \"#utility.yul\":8380:8406   */\n      swap1\n      pop\n        /* \"#utility.yul\":8452:8461   */\n      dup2\n        /* \"#utility.yul\":8446:8450   */\n      dup2\n        /* \"#utility.yul\":8442:8462   */\n      sub\n        /* \"#utility.yul\":8438:8439   */\n      0x00\n        /* \"#utility.yul\":8427:8436   */\n      dup4\n        /* \"#utility.yul\":8423:8440   */\n      add\n        /* \"#utility.yul\":8416:8463   */\n      mstore\n        /* \"#utility.yul\":8480:8611   */\n      tag_185\n        /* \"#utility.yul\":8606:8610   */\n      dup2\n        /* \"#utility.yul\":8480:8611   */\n      tag_78\n      jump\t// in\n    tag_185:\n        /* \"#utility.yul\":8472:8611   */\n      swap1\n      pop\n        /* \"#utility.yul\":8199:8618   */\n      swap2\n      swap1\n      pop\n      jump\t// out\n        /* \"#utility.yul\":8624:8804   */\n    tag_79:\n        /* \"#utility.yul\":8672:8749   */\n      0x4e487b7100000000000000000000000000000000000000000000000000000000\n        /* \"#utility.yul\":8669:8670   */\n      0x00\n        /* \"#utility.yul\":8662:8750   */\n      mstore\n        /* \"#utility.yul\":8769:8773   */\n      0x41\n        /* \"#utility.yul\":8766:8767   */\n      0x04\n        /* \"#utility.yul\":8759:8774   */\n      mstore\n        /* \"#utility.yul\":8793:8797   */\n      0x24\n        /* \"#utility.yul\":8790:8791   */\n      0x00\n        /* \"#utility.yul\":8783:8798   */\n      revert\n        /* \"#utility.yul\":8810:8951   */\n    tag_80:\n        /* \"#utility.yul\":8859:8863   */\n      0x00\n        /* \"#utility.yul\":8882:8885   */\n      dup2\n        /* \"#utility.yul\":8874:8885   */\n      swap1\n      pop\n        /* \"#utility.yul\":8905:8908   */\n      dup2\n        /* \"#utility.yul\":8902:8903   */\n      0x00\n        /* \"#utility.yul\":8895:8909   */\n      mstore\n        /* \"#utility.yul\":8939:8943   */\n      0x20\n        /* \"#utility.yul\":8936:8937   */\n      0x00\n        /* \"#utility.yul\":8926:8944   */\n      keccak256\n        /* \"#utility.yul\":8918:8944   */\n      swap1\n      pop\n        /* \"#utility.yul\":8810:8951   */\n      swap2\n      swap1\n      pop\n      jump\t// out\n        /* \"#utility.yul\":8957:9050   */\n    tag_81:\n        /* \"#utility.yul\":8994:9000   */\n      0x00\n        /* \"#utility.yul\":9041:9043   */\n      0x20\n        /* \"#utility.yul\":9036:9038   */\n      0x1f\n        /* \"#utility.yul\":9029:9034   */\n      dup4\n        /* \"#utility.yul\":9025:9039   */\n      add\n        /* \"#utility.yul\":9021:9044   */\n      div\n        /* \"#utility.yul\":9011:9044   */\n      swap1\n      pop\n        /* \"#utility.yul\":8957:9050   */\n      swap2\n      swap1\n      pop\n      jump\t// out\n        /* \"#utility.yul\":9056:9163   */\n    tag_82:\n        /* \"#utility.yul\":9100:9108   */\n      0x00\n        /* \"#utility.yul\":9150:9155   */\n      dup3\n        /* \"#utility.yul\":9144:9148   */\n      dup3\n        /* \"#utility.yul\":9140:9156   */\n      shl\n        /* \"#utility.yul\":9119:9156   */\n      swap1\n      pop\n        /* \"#utility.yul\":9056:9163   */\n      swap3\n      swap2\n      pop\n      pop\n      jump\t// out\n        /* \"#utility.yul\":9169:9562   */\n    tag_83:\n        /* \"#utility.yul\":9238:9244   */\n      0x00\n        /* \"#utility.yul\":9288:9289   */\n      0x08\n        /* \"#utility.yul\":9276:9286   */\n      dup4\n        /* \"#utility.yul\":9272:9290   */\n      mul\n        /* \"#utility.yul\":9311:9408   */\n      tag_191\n        /* \"#utility.yul\":9341:9407   */\n      0xffffffffffffffffffffffffffffffffffffffffffffffffffffffffffffffff\n        /* \"#utility.yul\":9330:9339   */\n      dup3\n        /* \"#utility.yul\":9311:9408   */\n      tag_82\n      jump\t// in\n    tag_191:\n        /* \"#utility.yul\":9429:9468   */\n      tag_192\n        /* \"#utility.yul\":9459:9467   */\n      dup7\n        /* \"#utility.yul\":9448:9457   */\n      dup4\n        /* \"#utility.yul\":9429:9468   */\n      tag_82\n      jump\t// in\n    tag_192:\n        /* \"#utility.yul\":9417:9468   */\n      swap6\n      pop\n        /* \"#utility.yul\":9501:9505   */\n      dup1\n        /* \"#utility.yul\":9497:9506   */\n      not\n        /* \"#utility.yul\":9490:9495   */\n      dup5\n        /* \"#utility.yul\":9486:9507   */\n      and\n        /* \"#utility.yul\":9477:9507   */\n      swap4\n      pop\n        /* \"#utility.yul\":9550:9554   */\n      dup1\n        /* \"#utility.yul\":9540:9548   */\n      dup7\n        /* \"#utility.yul\":9536:9555   */\n      and\n        /* \"#utility.yul\":9529:9534   */\n      dup5\n        /* \"#utility.yul\":9526:9556   */\n      or\n        /* \"#utility.yul\":9516:9556   */\n      swap3\n      pop\n        /* \"#utility.yul\":9245:9562   */\n      pop\n      pop\n        /* \"#utility.yul\":9169:9562   */\n      swap4\n      swap3\n      pop\n      pop\n      pop\n      jump\t// out\n        /* \"#utility.yul\":9568:9628   */\n    tag_84:\n        /* \"#utility.yul\":9596:9599   */\n      0x00\n        /* \"#utility.yul\":9617:9622   */\n      dup2\n        /* \"#utility.yul\":9610:9622   */\n      swap1\n      pop\n        /* \"#utility.yul\":9568:9628   */\n      swap2\n      swap1\n      pop\n      jump\t// out\n        /* \"#utility.yul\":9634:9776   */\n    tag_85:\n        /* \"#utility.yul\":9684:9693   */\n      0x00\n        /* \"#utility.yul\":9717:9770   */\n      tag_195\n        /* \"#utility.yul\":9735:9769   */\n      tag_196\n        /* \"#utility.yul\":9744:9768   */\n      tag_197\n        /* \"#utility.yul\":9762:9767   */\n      dup5\n        /* \"#utility.yul\":9744:9768   */\n      tag_62\n      jump\t// in\n    tag_197:\n        /* \"#utility.yul\":9735:9769   */\n      tag_84\n      jump\t// in\n    tag_196:\n        /* \"#utility.yul\":9717:9770   */\n      tag_62\n      jump\t// in\n    tag_195:\n        /* \"#utility.yul\":9704:9770   */\n      swap1\n      pop\n        /* \"#utility.yul\":9634:9776   */\n      swap2\n      swap1\n      pop\n      jump\t// out\n        /* \"#utility.yul\":9782:9857   */\n    tag_86:\n        /* \"#utility.yul\":9825:9828   */\n      0x00\n        /* \"#utility.yul\":9846:9851   */\n      dup2\n        /* \"#utility.yul\":9839:9851   */\n      swap1\n      pop\n        /* \"#utility.yul\":9782:9857   */\n      swap2\n      swap1\n      pop\n      jump\t// out\n        /* \"#utility.yul\":9863:10132   */\n    tag_87:\n        /* \"#utility.yul\":9973:10012   */\n      tag_200\n        /* \"#utility.yul\":10004:10011   */\n      dup4\n        /* \"#utility.yul\":9973:10012   */\n      tag_85\n      jump\t// in\n    tag_200:\n        /* \"#utility.yul\":10034:10125   */\n      tag_201\n        /* \"#utility.yul\":10083:10124   */\n      tag_202\n        /* \"#utility.yul\":10107:10123   */\n      dup3\n        /* \"#utility.yul\":10083:10124   */\n      tag_86\n      jump\t// in\n    tag_202:\n        /* \"#utility.yul\":10075:10081   */\n      dup5\n        /* \"#utility.yul\":10068:10072   */\n      dup5\n        /* \"#utility.yul\":10062:10073   */\n      sload\n        /* \"#utility.yul\":10034:10125   */\n      tag_83\n      jump\t// in\n    tag_201:\n        /* \"#utility.yul\":10028:10032   */\n      dup3\n        /* \"#utility.yul\":10021:10126   */\n      sstore\n        /* \"#utility.yul\":9939:10132   */\n      pop\n        /* \"#utility.yul\":9863:10132   */\n      pop\n      pop\n      pop\n      jump\t// out\n        /* \"#utility.yul\":10138:10211   */\n    tag_88:\n        /* \"#utility.yul\":10183:10186   */\n      0x00\n        /* \"#utility.yul\":10138:10211   */\n      swap1\n      jump\t// out\n        /* \"#utility.yul\":10217:10406   */\n    tag_89:\n        /* \"#utility.yul\":10294:10326   */\n      tag_205\n      tag_88\n      jump\t// in\n    tag_205:\n        /* \"#utility.yul\":10335:10400   */\n      tag_206\n        /* \"#utility.yul\":10393:10399   */\n      dup2\n        /* \"#utility.yul\":10385:10391   */\n      dup5\n        /* \"#utility.yul\":10379:10383   */\n      dup5\n        /* \"#utility.yul\":10335:10400   */\n      tag_87\n      jump\t// in\n    tag_206:\n        /* \"#utility.yul\":10270:10406   */\n      pop\n        /* \"#utility.yul\":10217:10406   */\n      pop\n      pop\n      jump\t// out\n        /* \"#utility.yul\":10412:10598   */\n    tag_90:\n        /* \"#utility.yul\":10472:10592   */\n    tag_208:\n        /* \"#utility.yul\":10489:10492   */\n      dup2\n        /* \"#utility.yul\":10482:10487   */\n      dup2\n        /* \"#utility.yul\":10479:10493   */\n      lt\n        /* \"#utility.yul\":10472:10592   */\n      iszero\n      tag_210\n      jumpi\n        /* \"#utility.yul\":10543:10582   */\n      tag_211\n        /* \"#utility.yul\":10580:10581   */\n      0x00\n        /* \"#utility.yul\":10573:10578   */\n      dup3\n        /* \"#utility.yul\":10543:10582   */\n      tag_89\n      jump\t// in\n    tag_211:\n        /* \"#utility.yul\":10516:10517   */\n      0x01\n        /* \"#utility.yul\":10509:10514   */\n      dup2\n        /* \"#utility.yul\":10505:10518   */\n      add\n        /* \"#utility.yul\":10496:10518   */\n      swap1\n      pop\n        /* \"#utility.yul\":10472:10592   */\n      jump(tag_208)\n    tag_210:\n        /* \"#utility.yul\":10412:10598   */\n      pop\n      pop\n      jump\t// out\n        /* \"#utility.yul\":10604:11147   */\n    tag_91:\n        /* \"#utility.yul\":10705:10707   */\n      0x1f\n        /* \"#utility.yul\":10700:10703   */\n      dup3\n        /* \"#utility.yul\":10697:10708   */\n      gt\n        /* \"#utility.yul\":10694:11140   */\n      iszero\n      tag_213\n      jumpi\n        /* \"#utility.yul\":10739:10777   */\n      tag_214\n        /* \"#utility.yul\":10771:10776   */\n      dup2\n        /* \"#utility.yul\":10739:10777   */\n      tag_80\n      jump\t// in\n    tag_214:\n        /* \"#utility.yul\":10823:10852   */\n      tag_215\n        /* \"#utility.yul\":10841:10851   */\n      dup5\n        /* \"#utility.yul\":10823:10852   */\n      tag_81\n      jump\t// in\n    tag_215:\n        /* \"#utility.yul\":10813:10821   */\n      dup2\n        /* \"#utility.yul\":10809:10853   */\n      add\n        /* \"#utility.yul\":11006:11008   */\n      0x20\n        /* \"#utility.yul\":10994:11004   */\n      dup6\n        /* \"#utility.yul\":10991:11009   */\n      lt\n        /* \"#utility.yul\":10988:11037   */\n      iszero\n      tag_216\n      jumpi\n        /* \"#utility.yul\":11027:11035   */\n      dup2\n        /* \"#utility.yul\":11012:11035   */\n      swap1\n      pop\n        /* \"#utility.yul\":10988:11037   */\n    tag_216:\n        /* \"#utility.yul\":11050:11130   */\n      tag_217\n        /* \"#utility.yul\":11106:11128   */\n      tag_218\n        /* \"#utility.yul\":11124:11127   */\n      dup6\n        /* \"#utility.yul\":11106:11128   */\n      tag_81\n      jump\t// in\n    tag_218:\n        /* \"#utility.yul\":11096:11104   */\n      dup4\n        /* \"#utility.yul\":11092:11129   */\n      add\n        /* \"#utility.yul\":11079:11090   */\n      dup3\n        /* \"#utility.yul\":11050:11130   */\n      tag_90\n      jump\t// in\n    tag_217:\n        /* \"#utility.yul\":10709:11140   */\n      pop\n      pop\n        /* \"#utility.yul\":10694:11140   */\n    tag_213:\n        /* \"#utility.yul\":10604:11147   */\n      pop\n      pop\n      pop\n      jump\t// out\n        /* \"#utility.yul\":11153:11270   */\n    tag_92:\n        /* \"#utility.yul\":11207:11215   */\n      0x00\n        /* \"#utility.yul\":11257:11262   */\n      dup3\n        /* \"#utility.yul\":11251:11255   */\n      dup3\n        /* \"#utility.yul\":11247:11263   */\n      shr\n        /* \"#utility.yul\":11226:11263   */\n      swap1\n      pop\n        /* \"#utility.yul\":11153:11270   */\n      swap3\n      swap2\n      pop\n      pop\n      jump\t// out\n        /* \"#utility.yul\":11276:11445   */\n    tag_93:\n        /* \"#utility.yul\":11320:11326   */\n      0x00\n        /* \"#utility.yul\":11353:11404   */\n      tag_221\n        /* \"#utility.yul\":11401:11402   */\n      0x00\n        /* \"#utility.yul\":11397:11403   */\n      not\n        /* \"#utility.yul\":11389:11394   */\n      dup5\n        /* \"#utility.yul\":11386:11387   */\n      0x08\n        /* \"#utility.yul\":11382:11395   */\n      mul\n        /* \"#utility.yul\":11353:11404   */\n      tag_92\n      jump\t// in\n    tag_221:\n        /* \"#utility.yul\":11349:11405   */\n      not\n        /* \"#utility.yul\":11434:11438   */\n      dup1\n        /* \"#utility.yul\":11428:11432   */\n      dup4\n        /* \"#utility.yul\":11424:11439   */\n      and\n        /* \"#utility.yul\":11414:11439   */\n      swap2\n      pop\n        /* \"#utility.yul\":11327:11445   */\n      pop\n        /* \"#utility.yul\":11276:11445   */\n      swap3\n      swap2\n      pop\n      pop\n      jump\t// out\n        /* \"#utility.yul\":11450:11745   */\n    tag_94:\n        /* \"#utility.yul\":11526:11530   */\n      0x00\n        /* \"#utility.yul\":11672:11701   */\n      tag_223\n        /* \"#utility.yul\":11697:11700   */\n      dup4\n        /* \"#utility.yul\":11691:11695   */\n      dup4\n        /* \"#utility.yul\":11672:11701   */\n      tag_93\n      jump\t// in\n    tag_223:\n        /* \"#utility.yul\":11664:11701   */\n      swap2\n      pop\n        /* \"#utility.yul\":11734:11737   */\n      dup3\n        /* \"#utility.yul\":11731:11732   */\n      0x02\n        /* \"#utility.yul\":11727:11738   */\n      mul\n        /* \"#utility.yul\":11721:11725   */\n      dup3\n        /* \"#utility.yul\":11718:11739   */\n      or\n        /* \"#utility.yul\":11710:11739   */\n      swap1\n      pop\n        /* \"#utility.yul\":11450:11745   */\n      swap3\n      swap2\n      pop\n      pop\n      jump\t// out\n        /* \"#utility.yul\":11750:13145   */\n    tag_40:\n        /* \"#utility.yul\":11867:11904   */\n      tag_225\n        /* \"#utility.yul\":11900:11903   */\n      dup3\n        /* \"#utility.yul\":11867:11904   */\n      tag_67\n      jump\t// in\n    tag_225:\n        /* \"#utility.yul\":11969:11987   */\n      0xffffffffffffffff\n        /* \"#utility.yul\":11961:11967   */\n      dup2\n        /* \"#utility.yul\":11958:11988   */\n      gt\n        /* \"#utility.yul\":11955:12011   */\n      iszero\n      tag_226\n      jumpi\n        /* \"#utility.yul\":11991:12009   */\n      tag_227\n      tag_79\n      jump\t// in\n    tag_227:\n        /* \"#utility.yul\":11955:12011   */\n    tag_226:\n        /* \"#utility.yul\":12035:12073   */\n      tag_228\n        /* \"#utility.yul\":12067:12071   */\n      dup3\n        /* \"#utility.yul\":12061:12072   */\n      sload\n        /* \"#utility.yul\":12035:12073   */\n      tag_30\n      jump\t// in\n    tag_228:\n        /* \"#utility.yul\":12120:12187   */\n      tag_229\n        /* \"#utility.yul\":12180:12186   */\n      dup3\n        /* \"#utility.yul\":12172:12178   */\n      dup3\n        /* \"#utility.yul\":12166:12170   */\n      dup6\n        /* \"#utility.yul\":12120:12187   */\n      tag_91\n      jump\t// in\n    tag_229:\n        /* \"#utility.yul\":12214:12215   */\n      0x00\n        /* \"#utility.yul\":12238:12242   */\n      0x20\n        /* \"#utility.yul\":12225:12242   */\n      swap1\n      pop\n        /* \"#utility.yul\":12270:12272   */\n      0x1f\n        /* \"#utility.yul\":12262:12268   */\n      dup4\n        /* \"#utility.yul\":12259:12273   */\n      gt\n        /* \"#utility.yul\":12287:12288   */\n      0x01\n        /* \"#utility.yul\":12282:12900   */\n      dup2\n      eq\n      tag_231\n      jumpi\n        /* \"#utility.yul\":12944:12945   */\n      0x00\n        /* \"#utility.yul\":12961:12967   */\n      dup5\n        /* \"#utility.yul\":12958:13035   */\n      iszero\n      tag_232\n      jumpi\n        /* \"#utility.yul\":13010:13019   */\n      dup3\n        /* \"#utility.yul\":13005:13008   */\n      dup8\n        /* \"#utility.yul\":13001:13020   */\n      add\n        /* \"#utility.yul\":12995:13021   */\n      mload\n        /* \"#utility.yul\":12986:13021   */\n      swap1\n      pop\n        /* \"#utility.yul\":12958:13035   */\n    tag_232:\n        /* \"#utility.yul\":13061:13128   */\n      tag_233\n        /* \"#utility.yul\":13121:13127   */\n      dup6\n        /* \"#utility.yul\":13114:13119   */\n      dup3\n        /* \"#utility.yul\":13061:13128   */\n      tag_94\n      jump\t// in\n    tag_233:\n        /* \"#utility.yul\":13055:13059   */\n      dup7\n        /* \"#utility.yul\":13048:13129   */\n      sstore\n        /* \"#utility.yul\":12917:13139   */\n      pop\n        /* \"#utility.yul\":12252:13139   */\n      jump(tag_230)\n        /* \"#utility.yul\":12282:12900   */\n    tag_231:\n        /* \"#utility.yul\":12334:12338   */\n      0x1f\n        /* \"#utility.yul\":12330:12339   */\n      not\n        /* \"#utility.yul\":12322:12328   */\n      dup5\n        /* \"#utility.yul\":12318:12340   */\n      and\n        /* \"#utility.yul\":12368:12405   */\n      tag_234\n        /* \"#utility.yul\":12400:12404   */\n      dup7\n        /* \"#utility.yul\":12368:12405   */\n      tag_80\n      jump\t// in\n    tag_234:\n        /* \"#utility.yul\":12427:12428   */\n      0x00\n        /* \"#utility.yul\":12441:12649   */\n    tag_235:\n        /* \"#utility.yul\":12455:12462   */\n      dup3\n        /* \"#utility.yul\":12452:12453   */\n      dup2\n        /* \"#utility.yul\":12449:12463   */\n      lt\n        /* \"#utility.yul\":12441:12649   */\n      iszero\n      tag_237\n      jumpi\n        /* \"#utility.yul\":12534:12543   */\n      dup5\n        /* \"#utility.yul\":12529:12532   */\n      dup10\n        /* \"#utility.yul\":12525:12544   */\n      add\n        /* \"#utility.yul\":12519:12545   */\n      mload\n        /* \"#utility.yul\":12511:12517   */\n      dup3\n        /* \"#utility.yul\":12504:12546   */\n      sstore\n        /* \"#utility.yul\":12585:12586   */\n      0x01\n        /* \"#utility.yul\":12577:12583   */\n      dup3\n        /* \"#utility.yul\":12573:12587   */\n      add\n        /* \"#utility.yul\":12563:12587   */\n      swap2\n      pop\n        /* \"#utility.yul\":12632:12634   */\n      0x20\n        /* \"#utility.yul\":12621:12630   */\n      dup6\n        /* \"#utility.yul\":12617:12635   */\n      add\n        /* \"#utility.yul\":12604:12635   */\n      swap5\n      pop\n        /* \"#utility.yul\":12478:12482   */\n      0x20\n        /* \"#utility.yul\":12475:12476   */\n      dup2\n        /* \"#utility.yul\":12471:12483   */\n      add\n        /* \"#utility.yul\":12466:12483   */\n      swap1\n      pop\n        /* \"#utility.yul\":12441:12649   */\n      jump(tag_235)\n    tag_237:\n        /* \"#utility.yul\":12677:12683   */\n      dup7\n        /* \"#utility.yul\":12668:12675   */\n      dup4\n        /* \"#utility.yul\":12665:12684   */\n      lt\n        /* \"#utility.yul\":12662:12841   */\n      iszero\n      tag_238\n      jumpi\n        /* \"#utility.yul\":12735:12744   */\n      dup5\n        /* \"#utility.yul\":12730:12733   */\n      dup10\n        /* \"#utility.yul\":12726:12745   */\n      add\n        /* \"#utility.yul\":12720:12746   */\n      mload\n        /* \"#utility.yul\":12778:12826   */\n      tag_239\n        /* \"#utility.yul\":12820:12824   */\n      0x1f\n        /* \"#utility.yul\":12812:12818   */\n      dup10\n        /* \"#utility.yul\":12808:12825   */\n      and\n        /* \"#utility.yul\":12797:12806   */\n      dup3\n        /* \"#utility.yul\":12778:12826   */\n      tag_93\n      jump\t// in\n    tag_239:\n        /* \"#utility.yul\":12770:12776   */\n      dup4\n        /* \"#utility.yul\":12763:12827   */\n      sstore\n        /* \"#utility.yul\":12685:12841   */\n      pop\n        /* \"#utility.yul\":12662:12841   */\n    tag_238:\n        /* \"#utility.yul\":12887:12888   */\n      0x01\n        /* \"#utility.yul\":12883:12884   */\n      0x02\n        /* \"#utility.yul\":12875:12881   */\n      dup9\n        /* \"#utility.yul\":12871:12885   */\n      mul\n        /* \"#utility.yul\":12867:12889   */\n      add\n        /* \"#utility.yul\":12861:12865   */\n      dup9\n        /* \"#utility.yul\":12854:12890   */\n      sstore\n        /* \"#utility.yul\":12289:12900   */\n      pop\n      pop\n      pop\n        /* \"#utility.yul\":12252:13139   */\n    tag_230:\n      pop\n        /* \"#utility.yul\":11842:13145   */\n      pop\n      pop\n      pop\n        /* \"#utility.yul\":11750:13145   */\n      pop\n      pop\n      jump\t// out\n        /* \"#utility.yul\":13151:13331   */\n    tag_95:\n        /* \"#utility.yul\":13199:13276   */\n      0x4e487b7100000000000000000000000000000000000000000000000000000000\n        /* \"#utility.yul\":13196:13197   */\n      0x00\n        /* \"#utility.yul\":13189:13277   */\n      mstore\n        /* \"#utility.yul\":13296:13300   */\n      0x11\n        /* \"#utility.yul\":13293:13294   */\n      0x04\n        /* \"#utility.yul\":13286:13301   */\n      mstore\n        /* \"#utility.yul\":13320:13324   */\n      0x24\n        /* \"#utility.yul\":13317:13318   */\n      0x00\n        /* \"#utility.yul\":13310:13325   */\n      revert\n        /* \"#utility.yul\":13337:13570   */\n    tag_43:\n        /* \"#utility.yul\":13376:13379   */\n      0x00\n        /* \"#utility.yul\":13399:13423   */\n      tag_242\n        /* \"#utility.yul\":13417:13422   */\n      dup3\n        /* \"#utility.yul\":13399:13423   */\n      tag_62\n      jump\t// in\n    tag_242:\n        /* \"#utility.yul\":13390:13423   */\n      swap2\n      pop\n        /* \"#utility.yul\":13445:13511   */\n      0xffffffffffffffffffffffffffffffffffffffffffffffffffffffffffffffff\n        /* \"#utility.yul\":13438:13443   */\n      dup3\n        /* \"#utility.yul\":13435:13512   */\n      sub\n        /* \"#utility.yul\":13432:13535   */\n      tag_243\n      jumpi\n        /* \"#utility.yul\":13515:13533   */\n      tag_244\n      tag_95\n      jump\t// in\n    tag_244:\n        /* \"#utility.yul\":13432:13535   */\n    tag_243:\n        /* \"#utility.yul\":13562:13563   */\n      0x01\n        /* \"#utility.yul\":13555:13560   */\n      dup3\n        /* \"#utility.yul\":13551:13564   */\n      add\n        /* \"#utility.yul\":13544:13564   */\n      swap1\n      pop\n        /* \"#utility.yul\":13337:13570   */\n      swap2\n      swap1\n      pop\n      jump\t// out\n\n    auxdata: 0xa2646970667358221220778e838b6c2f526815de1ba9f71abef7e5f19a56f5469e093f08ea40ff8805da64736f6c63430008110033\n}\n",
				"bytecode": {
					"linkReferences": {},
					"object": "608060405234801561001057600080fd5b50610ee0806100206000396000f3fe608060405234801561001057600080fd5b506004361061004c5760003560e01c80635dfcaebf14610051578063d21d159614610085578063e8d857b0146100a1578063fd33c98f146100d4575b600080fd5b61006b600480360381019061006691906107c0565b6100f0565b60405161007c9594939291906108ae565b60405180910390f35b61009f600480360381019061009a919061096d565b61020b565b005b6100bb60048036038101906100b691906109cd565b610403565b6040516100cb94939291906109fa565b60405180910390f35b6100ee60048036038101906100e99190610a46565b6104db565b005b6002602052816000526040600020818154811061010c57600080fd5b9060005260206000209060050201600091509150508060000154908060010160009054906101000a900473ffffffffffffffffffffffffffffffffffffffff16908060020160009054906101000a900473ffffffffffffffffffffffffffffffffffffffff169080600301805461018290610ae9565b80601f01602080910402602001604051908101604052809291908181526020018280546101ae90610ae9565b80156101fb5780601f106101d0576101008083540402835291602001916101fb565b820191906000526020600020905b8154815290600101906020018083116101de57829003601f168201915b5050505050908060040154905085565b3373ffffffffffffffffffffffffffffffffffffffff168373ffffffffffffffffffffffffffffffffffffffff1614610279576040517f08c379a000000000000000000000000000000000000000000000000000000000815260040161027090610b66565b60405180910390fd5b604051806080016040528060035481526020018473ffffffffffffffffffffffffffffffffffffffff16815260200183838080601f016020809104026020016040519081016040528093929190818152602001838380828437600081840152601f19601f8201169050808301925050505050505081526020014281525060008060035481526020019081526020016000206000820151816000015560208201518160010160006101000a81548173ffffffffffffffffffffffffffffffffffffffff021916908373ffffffffffffffffffffffffffffffffffffffff16021790555060408201518160020190816103709190610d61565b5060608201518160030155905050600160008473ffffffffffffffffffffffffffffffffffffffff1673ffffffffffffffffffffffffffffffffffffffff1681526020019081526020016000206003549080600181540180825580915050600190039060005260206000200160009091909190915055600360008154809291906103f990610e62565b9190505550505050565b60006020528060005260406000206000915090508060000154908060010160009054906101000a900473ffffffffffffffffffffffffffffffffffffffff169080600201805461045290610ae9565b80601f016020809104026020016040519081016040528092919081815260200182805461047e90610ae9565b80156104cb5780601f106104a0576101008083540402835291602001916104cb565b820191906000526020600020905b8154815290600101906020018083116104ae57829003601f168201915b5050505050908060030154905084565b3373ffffffffffffffffffffffffffffffffffffffff168473ffffffffffffffffffffffffffffffffffffffff1614610549576040517f08c379a000000000000000000000000000000000000000000000000000000000815260040161054090610b66565b60405180910390fd5b600260008573ffffffffffffffffffffffffffffffffffffffff1673ffffffffffffffffffffffffffffffffffffffff1681526020019081526020016000206040518060a0016040528060045481526020018673ffffffffffffffffffffffffffffffffffffffff1681526020018573ffffffffffffffffffffffffffffffffffffffff16815260200184848080601f016020809104026020016040519081016040528093929190818152602001838380828437600081840152601f19601f8201169050808301925050505050505081526020014281525090806001815401808255809150506001900390600052602060002090600502016000909190919091506000820151816000015560208201518160010160006101000a81548173ffffffffffffffffffffffffffffffffffffffff021916908373ffffffffffffffffffffffffffffffffffffffff16021790555060408201518160020160006101000a81548173ffffffffffffffffffffffffffffffffffffffff021916908373ffffffffffffffffffffffffffffffffffffffff16021790555060608201518160030190816106f79190610d61565b506080820151816004015550506004600081548092919061071790610e62565b919050555050505050565b600080fd5b600080fd5b600073ffffffffffffffffffffffffffffffffffffffff82169050919050565b60006107578261072c565b9050919050565b6107678161074c565b811461077257600080fd5b50565b6000813590506107848161075e565b92915050565b6000819050919050565b61079d8161078a565b81146107a857600080fd5b50565b6000813590506107ba81610794565b92915050565b600080604083850312156107d7576107d6610722565b5b60006107e585828601610775565b92505060206107f6858286016107ab565b9150509250929050565b6108098161078a565b82525050565b6108188161074c565b82525050565b600081519050919050565b600082825260208201905092915050565b60005b8381101561085857808201518184015260208101905061083d565b60008484015250505050565b6000601f19601f8301169050919050565b60006108808261081e565b61088a8185610829565b935061089a81856020860161083a565b6108a381610864565b840191505092915050565b600060a0820190506108c36000830188610800565b6108d0602083018761080f565b6108dd604083018661080f565b81810360608301526108ef8185610875565b90506108fe6080830184610800565b9695505050505050565b600080fd5b600080fd5b600080fd5b60008083601f84011261092d5761092c610908565b5b8235905067ffffffffffffffff81111561094a5761094961090d565b5b60208301915083600182028301111561096657610965610912565b5b9250929050565b60008060006040848603121561098657610985610722565b5b600061099486828701610775565b935050602084013567ffffffffffffffff8111156109b5576109b4610727565b5b6109c186828701610917565b92509250509250925092565b6000602082840312156109e3576109e2610722565b5b60006109f1848285016107ab565b91505092915050565b6000608082019050610a0f6000830187610800565b610a1c602083018661080f565b8181036040830152610a2e8185610875565b9050610a3d6060830184610800565b95945050505050565b60008060008060608587031215610a6057610a5f610722565b5b6000610a6e87828801610775565b9450506020610a7f87828801610775565b935050604085013567ffffffffffffffff811115610aa057610a9f610727565b5b610aac87828801610917565b925092505092959194509250565b7f4e487b7100000000000000000000000000000000000000000000000000000000600052602260045260246000fd5b60006002820490506001821680610b0157607f821691505b602082108103610b1457610b13610aba565b5b50919050565b7f596f752061726520417574686572697a65640000000000000000000000000000600082015250565b6000610b50601283610829565b9150610b5b82610b1a565b602082019050919050565b60006020820190508181036000830152610b7f81610b43565b9050919050565b7f4e487b7100000000000000000000000000000000000000000000000000000000600052604160045260246000fd5b60008190508160005260206000209050919050565b60006020601f8301049050919050565b600082821b905092915050565b600060088302610c177fffffffffffffffffffffffffffffffffffffffffffffffffffffffffffffffff82610bda565b610c218683610bda565b95508019841693508086168417925050509392505050565b6000819050919050565b6000610c5e610c59610c548461078a565b610c39565b61078a565b9050919050565b6000819050919050565b610c7883610c43565b610c8c610c8482610c65565b848454610be7565b825550505050565b600090565b610ca1610c94565b610cac818484610c6f565b505050565b5b81811015610cd057610cc5600082610c99565b600181019050610cb2565b5050565b601f821115610d1557610ce681610bb5565b610cef84610bca565b81016020851015610cfe578190505b610d12610d0a85610bca565b830182610cb1565b50505b505050565b600082821c905092915050565b6000610d3860001984600802610d1a565b1980831691505092915050565b6000610d518383610d27565b9150826002028217905092915050565b610d6a8261081e565b67ffffffffffffffff811115610d8357610d82610b86565b5b610d8d8254610ae9565b610d98828285610cd4565b600060209050601f831160018114610dcb5760008415610db9578287015190505b610dc38582610d45565b865550610e2b565b601f198416610dd986610bb5565b60005b82811015610e0157848901518255600182019150602085019450602081019050610ddc565b86831015610e1e5784890151610e1a601f891682610d27565b8355505b6001600288020188555050505b505050505050565b7f4e487b7100000000000000000000000000000000000000000000000000000000600052601160045260246000fd5b6000610e6d8261078a565b91507fffffffffffffffffffffffffffffffffffffffffffffffffffffffffffffffff8203610e9f57610e9e610e33565b5b60018201905091905056fea2646970667358221220778e838b6c2f526815de1ba9f71abef7e5f19a56f5469e093f08ea40ff8805da64736f6c63430008110033",
					"opcodes": "PUSH1 0x80 PUSH1 0x40 MSTORE CALLVALUE DUP1 ISZERO PUSH2 0x10 JUMPI PUSH1 0x0 DUP1 REVERT JUMPDEST POP PUSH2 0xEE0 DUP1 PUSH2 0x20 PUSH1 0x0 CODECOPY PUSH1 0x0 RETURN INVALID PUSH1 0x80 PUSH1 0x40 MSTORE CALLVALUE DUP1 ISZERO PUSH2 0x10 JUMPI PUSH1 0x0 DUP1 REVERT JUMPDEST POP PUSH1 0x4 CALLDATASIZE LT PUSH2 0x4C JUMPI PUSH1 0x0 CALLDATALOAD PUSH1 0xE0 SHR DUP1 PUSH4 0x5DFCAEBF EQ PUSH2 0x51 JUMPI DUP1 PUSH4 0xD21D1596 EQ PUSH2 0x85 JUMPI DUP1 PUSH4 0xE8D857B0 EQ PUSH2 0xA1 JUMPI DUP1 PUSH4 0xFD33C98F EQ PUSH2 0xD4 JUMPI JUMPDEST PUSH1 0x0 DUP1 REVERT JUMPDEST PUSH2 0x6B PUSH1 0x4 DUP1 CALLDATASIZE SUB DUP2 ADD SWAP1 PUSH2 0x66 SWAP2 SWAP1 PUSH2 0x7C0 JUMP JUMPDEST PUSH2 0xF0 JUMP JUMPDEST PUSH1 0x40 MLOAD PUSH2 0x7C SWAP6 SWAP5 SWAP4 SWAP3 SWAP2 SWAP1 PUSH2 0x8AE JUMP JUMPDEST PUSH1 0x40 MLOAD DUP1 SWAP2 SUB SWAP1 RETURN JUMPDEST PUSH2 0x9F PUSH1 0x4 DUP1 CALLDATASIZE SUB DUP2 ADD SWAP1 PUSH2 0x9A SWAP2 SWAP1 PUSH2 0x96D JUMP JUMPDEST PUSH2 0x20B JUMP JUMPDEST STOP JUMPDEST PUSH2 0xBB PUSH1 0x4 DUP1 CALLDATASIZE SUB DUP2 ADD SWAP1 PUSH2 0xB6 SWAP2 SWAP1 PUSH2 0x9CD JUMP JUMPDEST PUSH2 0x403 JUMP JUMPDEST PUSH1 0x40 MLOAD PUSH2 0xCB SWAP5 SWAP4 SWAP3 SWAP2 SWAP1 PUSH2 0x9FA JUMP JUMPDEST PUSH1 0x40 MLOAD DUP1 SWAP2 SUB SWAP1 RETURN JUMPDEST PUSH2 0xEE PUSH1 0x4 DUP1 CALLDATASIZE SUB DUP2 ADD SWAP1 PUSH2 0xE9 SWAP2 SWAP1 PUSH2 0xA46 JUMP JUMPDEST PUSH2 0x4DB JUMP JUMPDEST STOP JUMPDEST PUSH1 0x2 PUSH1 0x20 MSTORE DUP2 PUSH1 0x0 MSTORE PUSH1 0x40 PUSH1 0x0 KECCAK256 DUP2 DUP2 SLOAD DUP2 LT PUSH2 0x10C JUMPI PUSH1 0x0 DUP1 REVERT JUMPDEST SWAP1 PUSH1 0x0 MSTORE PUSH1 0x20 PUSH1 0x0 KECCAK256 SWAP1 PUSH1 0x5 MUL ADD PUSH1 0x0 SWAP2 POP SWAP2 POP POP DUP1 PUSH1 0x0 ADD SLOAD SWAP1 DUP1 PUSH1 0x1 ADD PUSH1 0x0 SWAP1 SLOAD SWAP1 PUSH2 0x100 EXP SWAP1 DIV PUSH20 0xFFFFFFFFFFFFFFFFFFFFFFFFFFFFFFFFFFFFFFFF AND SWAP1 DUP1 PUSH1 0x2 ADD PUSH1 0x0 SWAP1 SLOAD SWAP1 PUSH2 0x100 EXP SWAP1 DIV PUSH20 0xFFFFFFFFFFFFFFFFFFFFFFFFFFFFFFFFFFFFFFFF AND SWAP1 DUP1 PUSH1 0x3 ADD DUP1 SLOAD PUSH2 0x182 SWAP1 PUSH2 0xAE9 JUMP JUMPDEST DUP1 PUSH1 0x1F ADD PUSH1 0x20 DUP1 SWAP2 DIV MUL PUSH1 0x20 ADD PUSH1 0x40 MLOAD SWAP1 DUP2 ADD PUSH1 0x40 MSTORE DUP1 SWAP3 SWAP2 SWAP1 DUP2 DUP2 MSTORE PUSH1 0x20 ADD DUP3 DUP1 SLOAD PUSH2 0x1AE SWAP1 PUSH2 0xAE9 JUMP JUMPDEST DUP1 ISZERO PUSH2 0x1FB JUMPI DUP1 PUSH1 0x1F LT PUSH2 0x1D0 JUMPI PUSH2 0x100 DUP1 DUP4 SLOAD DIV MUL DUP4 MSTORE SWAP2 PUSH1 0x20 ADD SWAP2 PUSH2 0x1FB JUMP JUMPDEST DUP3 ADD SWAP2 SWAP1 PUSH1 0x0 MSTORE PUSH1 0x20 PUSH1 0x0 KECCAK256 SWAP1 JUMPDEST DUP2 SLOAD DUP2 MSTORE SWAP1 PUSH1 0x1 ADD SWAP1 PUSH1 0x20 ADD DUP1 DUP4 GT PUSH2 0x1DE JUMPI DUP3 SWAP1 SUB PUSH1 0x1F AND DUP3 ADD SWAP2 JUMPDEST POP POP POP POP POP SWAP1 DUP1 PUSH1 0x4 ADD SLOAD SWAP1 POP DUP6 JUMP JUMPDEST CALLER PUSH20 0xFFFFFFFFFFFFFFFFFFFFFFFFFFFFFFFFFFFFFFFF AND DUP4 PUSH20 0xFFFFFFFFFFFFFFFFFFFFFFFFFFFFFFFFFFFFFFFF AND EQ PUSH2 0x279 JUMPI PUSH1 0x40 MLOAD PUSH32 0x8C379A000000000000000000000000000000000000000000000000000000000 DUP2 MSTORE PUSH1 0x4 ADD PUSH2 0x270 SWAP1 PUSH2 0xB66 JUMP JUMPDEST PUSH1 0x40 MLOAD DUP1 SWAP2 SUB SWAP1 REVERT JUMPDEST PUSH1 0x40 MLOAD DUP1 PUSH1 0x80 ADD PUSH1 0x40 MSTORE DUP1 PUSH1 0x3 SLOAD DUP2 MSTORE PUSH1 0x20 ADD DUP5 PUSH20 0xFFFFFFFFFFFFFFFFFFFFFFFFFFFFFFFFFFFFFFFF AND DUP2 MSTORE PUSH1 0x20 ADD DUP4 DUP4 DUP1 DUP1 PUSH1 0x1F ADD PUSH1 0x20 DUP1 SWAP2 DIV MUL PUSH1 0x20 ADD PUSH1 0x40 MLOAD SWAP1 DUP2 ADD PUSH1 0x40 MSTORE DUP1 SWAP4 SWAP3 SWAP2 SWAP1 DUP2 DUP2 MSTORE PUSH1 0x20 ADD DUP4 DUP4 DUP1 DUP3 DUP5 CALLDATACOPY PUSH1 0x0 DUP2 DUP5 ADD MSTORE PUSH1 0x1F NOT PUSH1 0x1F DUP3 ADD AND SWAP1 POP DUP1 DUP4 ADD SWAP3 POP POP POP POP POP POP POP DUP2 MSTORE PUSH1 0x20 ADD TIMESTAMP DUP2 MSTORE POP PUSH1 0x0 DUP1 PUSH1 0x3 SLOAD DUP2 MSTORE PUSH1 0x20 ADD SWAP1 DUP2 MSTORE PUSH1 0x20 ADD PUSH1 0x0 KECCAK256 PUSH1 0x0 DUP3 ADD MLOAD DUP2 PUSH1 0x0 ADD SSTORE PUSH1 0x20 DUP3 ADD MLOAD DUP2 PUSH1 0x1 ADD PUSH1 0x0 PUSH2 0x100 EXP DUP2 SLOAD DUP2 PUSH20 0xFFFFFFFFFFFFFFFFFFFFFFFFFFFFFFFFFFFFFFFF MUL NOT AND SWAP1 DUP4 PUSH20 0xFFFFFFFFFFFFFFFFFFFFFFFFFFFFFFFFFFFFFFFF AND MUL OR SWAP1 SSTORE POP PUSH1 0x40 DUP3 ADD MLOAD DUP2 PUSH1 0x2 ADD SWAP1 DUP2 PUSH2 0x370 SWAP2 SWAP1 PUSH2 0xD61 JUMP JUMPDEST POP PUSH1 0x60 DUP3 ADD MLOAD DUP2 PUSH1 0x3 ADD SSTORE SWAP1 POP POP PUSH1 0x1 PUSH1 0x0 DUP5 PUSH20 0xFFFFFFFFFFFFFFFFFFFFFFFFFFFFFFFFFFFFFFFF AND PUSH20 0xFFFFFFFFFFFFFFFFFFFFFFFFFFFFFFFFFFFFFFFF AND DUP2 MSTORE PUSH1 0x20 ADD SWAP1 DUP2 MSTORE PUSH1 0x20 ADD PUSH1 0x0 KECCAK256 PUSH1 0x3 SLOAD SWAP1 DUP1 PUSH1 0x1 DUP2 SLOAD ADD DUP1 DUP3 SSTORE DUP1 SWAP2 POP POP PUSH1 0x1 SWAP1 SUB SWAP1 PUSH1 0x0 MSTORE PUSH1 0x20 PUSH1 0x0 KECCAK256 ADD PUSH1 0x0 SWAP1 SWAP2 SWAP1 SWAP2 SWAP1 SWAP2 POP SSTORE PUSH1 0x3 PUSH1 0x0 DUP2 SLOAD DUP1 SWAP3 SWAP2 SWAP1 PUSH2 0x3F9 SWAP1 PUSH2 0xE62 JUMP JUMPDEST SWAP2 SWAP1 POP SSTORE POP POP POP POP JUMP JUMPDEST PUSH1 0x0 PUSH1 0x20 MSTORE DUP1 PUSH1 0x0 MSTORE PUSH1 0x40 PUSH1 0x0 KECCAK256 PUSH1 0x0 SWAP2 POP SWAP1 POP DUP1 PUSH1 0x0 ADD SLOAD SWAP1 DUP1 PUSH1 0x1 ADD PUSH1 0x0 SWAP1 SLOAD SWAP1 PUSH2 0x100 EXP SWAP1 DIV PUSH20 0xFFFFFFFFFFFFFFFFFFFFFFFFFFFFFFFFFFFFFFFF AND SWAP1 DUP1 PUSH1 0x2 ADD DUP1 SLOAD PUSH2 0x452 SWAP1 PUSH2 0xAE9 JUMP JUMPDEST DUP1 PUSH1 0x1F ADD PUSH1 0x20 DUP1 SWAP2 DIV MUL PUSH1 0x20 ADD PUSH1 0x40 MLOAD SWAP1 DUP2 ADD PUSH1 0x40 MSTORE DUP1 SWAP3 SWAP2 SWAP1 DUP2 DUP2 MSTORE PUSH1 0x20 ADD DUP3 DUP1 SLOAD PUSH2 0x47E SWAP1 PUSH2 0xAE9 JUMP JUMPDEST DUP1 ISZERO PUSH2 0x4CB JUMPI DUP1 PUSH1 0x1F LT PUSH2 0x4A0 JUMPI PUSH2 0x100 DUP1 DUP4 SLOAD DIV MUL DUP4 MSTORE SWAP2 PUSH1 0x20 ADD SWAP2 PUSH2 0x4CB JUMP JUMPDEST DUP3 ADD SWAP2 SWAP1 PUSH1 0x0 MSTORE PUSH1 0x20 PUSH1 0x0 KECCAK256 SWAP1 JUMPDEST DUP2 SLOAD DUP2 MSTORE SWAP1 PUSH1 0x1 ADD SWAP1 PUSH1 0x20 ADD DUP1 DUP4 GT PUSH2 0x4AE JUMPI DUP3 SWAP1 SUB PUSH1 0x1F AND DUP3 ADD SWAP2 JUMPDEST POP POP POP POP POP SWAP1 DUP1 PUSH1 0x3 ADD SLOAD SWAP1 POP DUP5 JUMP JUMPDEST CALLER PUSH20 0xFFFFFFFFFFFFFFFFFFFFFFFFFFFFFFFFFFFFFFFF AND DUP5 PUSH20 0xFFFFFFFFFFFFFFFFFFFFFFFFFFFFFFFFFFFFFFFF AND EQ PUSH2 0x549 JUMPI PUSH1 0x40 MLOAD PUSH32 0x8C379A000000000000000000000000000000000000000000000000000000000 DUP2 MSTORE PUSH1 0x4 ADD PUSH2 0x540 SWAP1 PUSH2 0xB66 JUMP JUMPDEST PUSH1 0x40 MLOAD DUP1 SWAP2 SUB SWAP1 REVERT JUMPDEST PUSH1 0x2 PUSH1 0x0 DUP6 PUSH20 0xFFFFFFFFFFFFFFFFFFFFFFFFFFFFFFFFFFFFFFFF AND PUSH20 0xFFFFFFFFFFFFFFFFFFFFFFFFFFFFFFFFFFFFFFFF AND DUP2 MSTORE PUSH1 0x20 ADD SWAP1 DUP2 MSTORE PUSH1 0x20 ADD PUSH1 0x0 KECCAK256 PUSH1 0x40 MLOAD DUP1 PUSH1 0xA0 ADD PUSH1 0x40 MSTORE DUP1 PUSH1 0x4 SLOAD DUP2 MSTORE PUSH1 0x20 ADD DUP7 PUSH20 0xFFFFFFFFFFFFFFFFFFFFFFFFFFFFFFFFFFFFFFFF AND DUP2 MSTORE PUSH1 0x20 ADD DUP6 PUSH20 0xFFFFFFFFFFFFFFFFFFFFFFFFFFFFFFFFFFFFFFFF AND DUP2 MSTORE PUSH1 0x20 ADD DUP5 DUP5 DUP1 DUP1 PUSH1 0x1F ADD PUSH1 0x20 DUP1 SWAP2 DIV MUL PUSH1 0x20 ADD PUSH1 0x40 MLOAD SWAP1 DUP2 ADD PUSH1 0x40 MSTORE DUP1 SWAP4 SWAP3 SWAP2 SWAP1 DUP2 DUP2 MSTORE PUSH1 0x20 ADD DUP4 DUP4 DUP1 DUP3 DUP5 CALLDATACOPY PUSH1 0x0 DUP2 DUP5 ADD MSTORE PUSH1 0x1F NOT PUSH1 0x1F DUP3 ADD AND SWAP1 POP DUP1 DUP4 ADD SWAP3 POP POP POP POP POP POP POP DUP2 MSTORE PUSH1 0x20 ADD TIMESTAMP DUP2 MSTORE POP SWAP1 DUP1 PUSH1 0x1 DUP2 SLOAD ADD DUP1 DUP3 SSTORE DUP1 SWAP2 POP POP PUSH1 0x1 SWAP1 SUB SWAP1 PUSH1 0x0 MSTORE PUSH1 0x20 PUSH1 0x0 KECCAK256 SWAP1 PUSH1 0x5 MUL ADD PUSH1 0x0 SWAP1 SWAP2 SWAP1 SWAP2 SWAP1 SWAP2 POP PUSH1 0x0 DUP3 ADD MLOAD DUP2 PUSH1 0x0 ADD SSTORE PUSH1 0x20 DUP3 ADD MLOAD DUP2 PUSH1 0x1 ADD PUSH1 0x0 PUSH2 0x100 EXP DUP2 SLOAD DUP2 PUSH20 0xFFFFFFFFFFFFFFFFFFFFFFFFFFFFFFFFFFFFFFFF MUL NOT AND SWAP1 DUP4 PUSH20 0xFFFFFFFFFFFFFFFFFFFFFFFFFFFFFFFFFFFFFFFF AND MUL OR SWAP1 SSTORE POP PUSH1 0x40 DUP3 ADD MLOAD DUP2 PUSH1 0x2 ADD PUSH1 0x0 PUSH2 0x100 EXP DUP2 SLOAD DUP2 PUSH20 0xFFFFFFFFFFFFFFFFFFFFFFFFFFFFFFFFFFFFFFFF MUL NOT AND SWAP1 DUP4 PUSH20 0xFFFFFFFFFFFFFFFFFFFFFFFFFFFFFFFFFFFFFFFF AND MUL OR SWAP1 SSTORE POP PUSH1 0x60 DUP3 ADD MLOAD DUP2 PUSH1 0x3 ADD SWAP1 DUP2 PUSH2 0x6F7 SWAP2 SWAP1 PUSH2 0xD61 JUMP JUMPDEST POP PUSH1 0x80 DUP3 ADD MLOAD DUP2 PUSH1 0x4 ADD SSTORE POP POP PUSH1 0x4 PUSH1 0x0 DUP2 SLOAD DUP1 SWAP3 SWAP2 SWAP1 PUSH2 0x717 SWAP1 PUSH2 0xE62 JUMP JUMPDEST SWAP2 SWAP1 POP SSTORE POP POP POP POP POP JUMP JUMPDEST PUSH1 0x0 DUP1 REVERT JUMPDEST PUSH1 0x0 DUP1 REVERT JUMPDEST PUSH1 0x0 PUSH20 0xFFFFFFFFFFFFFFFFFFFFFFFFFFFFFFFFFFFFFFFF DUP3 AND SWAP1 POP SWAP2 SWAP1 POP JUMP JUMPDEST PUSH1 0x0 PUSH2 0x757 DUP3 PUSH2 0x72C JUMP JUMPDEST SWAP1 POP SWAP2 SWAP1 POP JUMP JUMPDEST PUSH2 0x767 DUP2 PUSH2 0x74C JUMP JUMPDEST DUP2 EQ PUSH2 0x772 JUMPI PUSH1 0x0 DUP1 REVERT JUMPDEST POP JUMP JUMPDEST PUSH1 0x0 DUP2 CALLDATALOAD SWAP1 POP PUSH2 0x784 DUP2 PUSH2 0x75E JUMP JUMPDEST SWAP3 SWAP2 POP POP JUMP JUMPDEST PUSH1 0x0 DUP2 SWAP1 POP SWAP2 SWAP1 POP JUMP JUMPDEST PUSH2 0x79D DUP2 PUSH2 0x78A JUMP JUMPDEST DUP2 EQ PUSH2 0x7A8 JUMPI PUSH1 0x0 DUP1 REVERT JUMPDEST POP JUMP JUMPDEST PUSH1 0x0 DUP2 CALLDATALOAD SWAP1 POP PUSH2 0x7BA DUP2 PUSH2 0x794 JUMP JUMPDEST SWAP3 SWAP2 POP POP JUMP JUMPDEST PUSH1 0x0 DUP1 PUSH1 0x40 DUP4 DUP6 SUB SLT ISZERO PUSH2 0x7D7 JUMPI PUSH2 0x7D6 PUSH2 0x722 JUMP JUMPDEST JUMPDEST PUSH1 0x0 PUSH2 0x7E5 DUP6 DUP3 DUP7 ADD PUSH2 0x775 JUMP JUMPDEST SWAP3 POP POP PUSH1 0x20 PUSH2 0x7F6 DUP6 DUP3 DUP7 ADD PUSH2 0x7AB JUMP JUMPDEST SWAP2 POP POP SWAP3 POP SWAP3 SWAP1 POP JUMP JUMPDEST PUSH2 0x809 DUP2 PUSH2 0x78A JUMP JUMPDEST DUP3 MSTORE POP POP JUMP JUMPDEST PUSH2 0x818 DUP2 PUSH2 0x74C JUMP JUMPDEST DUP3 MSTORE POP POP JUMP JUMPDEST PUSH1 0x0 DUP2 MLOAD SWAP1 POP SWAP2 SWAP1 POP JUMP JUMPDEST PUSH1 0x0 DUP3 DUP3 MSTORE PUSH1 0x20 DUP3 ADD SWAP1 POP SWAP3 SWAP2 POP POP JUMP JUMPDEST PUSH1 0x0 JUMPDEST DUP4 DUP2 LT ISZERO PUSH2 0x858 JUMPI DUP1 DUP3 ADD MLOAD DUP2 DUP5 ADD MSTORE PUSH1 0x20 DUP2 ADD SWAP1 POP PUSH2 0x83D JUMP JUMPDEST PUSH1 0x0 DUP5 DUP5 ADD MSTORE POP POP POP POP JUMP JUMPDEST PUSH1 0x0 PUSH1 0x1F NOT PUSH1 0x1F DUP4 ADD AND SWAP1 POP SWAP2 SWAP1 POP JUMP JUMPDEST PUSH1 0x0 PUSH2 0x880 DUP3 PUSH2 0x81E JUMP JUMPDEST PUSH2 0x88A DUP2 DUP6 PUSH2 0x829 JUMP JUMPDEST SWAP4 POP PUSH2 0x89A DUP2 DUP6 PUSH1 0x20 DUP7 ADD PUSH2 0x83A JUMP JUMPDEST PUSH2 0x8A3 DUP2 PUSH2 0x864 JUMP JUMPDEST DUP5 ADD SWAP2 POP POP SWAP3 SWAP2 POP POP JUMP JUMPDEST PUSH1 0x0 PUSH1 0xA0 DUP3 ADD SWAP1 POP PUSH2 0x8C3 PUSH1 0x0 DUP4 ADD DUP9 PUSH2 0x800 JUMP JUMPDEST PUSH2 0x8D0 PUSH1 0x20 DUP4 ADD DUP8 PUSH2 0x80F JUMP JUMPDEST PUSH2 0x8DD PUSH1 0x40 DUP4 ADD DUP7 PUSH2 0x80F JUMP JUMPDEST DUP2 DUP2 SUB PUSH1 0x60 DUP4 ADD MSTORE PUSH2 0x8EF DUP2 DUP6 PUSH2 0x875 JUMP JUMPDEST SWAP1 POP PUSH2 0x8FE PUSH1 0x80 DUP4 ADD DUP5 PUSH2 0x800 JUMP JUMPDEST SWAP7 SWAP6 POP POP POP POP POP POP JUMP JUMPDEST PUSH1 0x0 DUP1 REVERT JUMPDEST PUSH1 0x0 DUP1 REVERT JUMPDEST PUSH1 0x0 DUP1 REVERT JUMPDEST PUSH1 0x0 DUP1 DUP4 PUSH1 0x1F DUP5 ADD SLT PUSH2 0x92D JUMPI PUSH2 0x92C PUSH2 0x908 JUMP JUMPDEST JUMPDEST DUP3 CALLDATALOAD SWAP1 POP PUSH8 0xFFFFFFFFFFFFFFFF DUP2 GT ISZERO PUSH2 0x94A JUMPI PUSH2 0x949 PUSH2 0x90D JUMP JUMPDEST JUMPDEST PUSH1 0x20 DUP4 ADD SWAP2 POP DUP4 PUSH1 0x1 DUP3 MUL DUP4 ADD GT ISZERO PUSH2 0x966 JUMPI PUSH2 0x965 PUSH2 0x912 JUMP JUMPDEST JUMPDEST SWAP3 POP SWAP3 SWAP1 POP JUMP JUMPDEST PUSH1 0x0 DUP1 PUSH1 0x0 PUSH1 0x40 DUP5 DUP7 SUB SLT ISZERO PUSH2 0x986 JUMPI PUSH2 0x985 PUSH2 0x722 JUMP JUMPDEST JUMPDEST PUSH1 0x0 PUSH2 0x994 DUP7 DUP3 DUP8 ADD PUSH2 0x775 JUMP JUMPDEST SWAP4 POP POP PUSH1 0x20 DUP5 ADD CALLDATALOAD PUSH8 0xFFFFFFFFFFFFFFFF DUP2 GT ISZERO PUSH2 0x9B5 JUMPI PUSH2 0x9B4 PUSH2 0x727 JUMP JUMPDEST JUMPDEST PUSH2 0x9C1 DUP7 DUP3 DUP8 ADD PUSH2 0x917 JUMP JUMPDEST SWAP3 POP SWAP3 POP POP SWAP3 POP SWAP3 POP SWAP3 JUMP JUMPDEST PUSH1 0x0 PUSH1 0x20 DUP3 DUP5 SUB SLT ISZERO PUSH2 0x9E3 JUMPI PUSH2 0x9E2 PUSH2 0x722 JUMP JUMPDEST JUMPDEST PUSH1 0x0 PUSH2 0x9F1 DUP5 DUP3 DUP6 ADD PUSH2 0x7AB JUMP JUMPDEST SWAP2 POP POP SWAP3 SWAP2 POP POP JUMP JUMPDEST PUSH1 0x0 PUSH1 0x80 DUP3 ADD SWAP1 POP PUSH2 0xA0F PUSH1 0x0 DUP4 ADD DUP8 PUSH2 0x800 JUMP JUMPDEST PUSH2 0xA1C PUSH1 0x20 DUP4 ADD DUP7 PUSH2 0x80F JUMP JUMPDEST DUP2 DUP2 SUB PUSH1 0x40 DUP4 ADD MSTORE PUSH2 0xA2E DUP2 DUP6 PUSH2 0x875 JUMP JUMPDEST SWAP1 POP PUSH2 0xA3D PUSH1 0x60 DUP4 ADD DUP5 PUSH2 0x800 JUMP JUMPDEST SWAP6 SWAP5 POP POP POP POP POP JUMP JUMPDEST PUSH1 0x0 DUP1 PUSH1 0x0 DUP1 PUSH1 0x60 DUP6 DUP8 SUB SLT ISZERO PUSH2 0xA60 JUMPI PUSH2 0xA5F PUSH2 0x722 JUMP JUMPDEST JUMPDEST PUSH1 0x0 PUSH2 0xA6E DUP8 DUP3 DUP9 ADD PUSH2 0x775 JUMP JUMPDEST SWAP5 POP POP PUSH1 0x20 PUSH2 0xA7F DUP8 DUP3 DUP9 ADD PUSH2 0x775 JUMP JUMPDEST SWAP4 POP POP PUSH1 0x40 DUP6 ADD CALLDATALOAD PUSH8 0xFFFFFFFFFFFFFFFF DUP2 GT ISZERO PUSH2 0xAA0 JUMPI PUSH2 0xA9F PUSH2 0x727 JUMP JUMPDEST JUMPDEST PUSH2 0xAAC DUP8 DUP3 DUP9 ADD PUSH2 0x917 JUMP JUMPDEST SWAP3 POP SWAP3 POP POP SWAP3 SWAP6 SWAP2 SWAP5 POP SWAP3 POP JUMP JUMPDEST PUSH32 0x4E487B7100000000000000000000000000000000000000000000000000000000 PUSH1 0x0 MSTORE PUSH1 0x22 PUSH1 0x4 MSTORE PUSH1 0x24 PUSH1 0x0 REVERT JUMPDEST PUSH1 0x0 PUSH1 0x2 DUP3 DIV SWAP1 POP PUSH1 0x1 DUP3 AND DUP1 PUSH2 0xB01 JUMPI PUSH1 0x7F DUP3 AND SWAP2 POP JUMPDEST PUSH1 0x20 DUP3 LT DUP2 SUB PUSH2 0xB14 JUMPI PUSH2 0xB13 PUSH2 0xABA JUMP JUMPDEST JUMPDEST POP SWAP2 SWAP1 POP JUMP JUMPDEST PUSH32 0x596F752061726520417574686572697A65640000000000000000000000000000 PUSH1 0x0 DUP3 ADD MSTORE POP JUMP JUMPDEST PUSH1 0x0 PUSH2 0xB50 PUSH1 0x12 DUP4 PUSH2 0x829 JUMP JUMPDEST SWAP2 POP PUSH2 0xB5B DUP3 PUSH2 0xB1A JUMP JUMPDEST PUSH1 0x20 DUP3 ADD SWAP1 POP SWAP2 SWAP1 POP JUMP JUMPDEST PUSH1 0x0 PUSH1 0x20 DUP3 ADD SWAP1 POP DUP2 DUP2 SUB PUSH1 0x0 DUP4 ADD MSTORE PUSH2 0xB7F DUP2 PUSH2 0xB43 JUMP JUMPDEST SWAP1 POP SWAP2 SWAP1 POP JUMP JUMPDEST PUSH32 0x4E487B7100000000000000000000000000000000000000000000000000000000 PUSH1 0x0 MSTORE PUSH1 0x41 PUSH1 0x4 MSTORE PUSH1 0x24 PUSH1 0x0 REVERT JUMPDEST PUSH1 0x0 DUP2 SWAP1 POP DUP2 PUSH1 0x0 MSTORE PUSH1 0x20 PUSH1 0x0 KECCAK256 SWAP1 POP SWAP2 SWAP1 POP JUMP JUMPDEST PUSH1 0x0 PUSH1 0x20 PUSH1 0x1F DUP4 ADD DIV SWAP1 POP SWAP2 SWAP1 POP JUMP JUMPDEST PUSH1 0x0 DUP3 DUP3 SHL SWAP1 POP SWAP3 SWAP2 POP POP JUMP JUMPDEST PUSH1 0x0 PUSH1 0x8 DUP4 MUL PUSH2 0xC17 PUSH32 0xFFFFFFFFFFFFFFFFFFFFFFFFFFFFFFFFFFFFFFFFFFFFFFFFFFFFFFFFFFFFFFFF DUP3 PUSH2 0xBDA JUMP JUMPDEST PUSH2 0xC21 DUP7 DUP4 PUSH2 0xBDA JUMP JUMPDEST SWAP6 POP DUP1 NOT DUP5 AND SWAP4 POP DUP1 DUP7 AND DUP5 OR SWAP3 POP POP POP SWAP4 SWAP3 POP POP POP JUMP JUMPDEST PUSH1 0x0 DUP2 SWAP1 POP SWAP2 SWAP1 POP JUMP JUMPDEST PUSH1 0x0 PUSH2 0xC5E PUSH2 0xC59 PUSH2 0xC54 DUP5 PUSH2 0x78A JUMP JUMPDEST PUSH2 0xC39 JUMP JUMPDEST PUSH2 0x78A JUMP JUMPDEST SWAP1 POP SWAP2 SWAP1 POP JUMP JUMPDEST PUSH1 0x0 DUP2 SWAP1 POP SWAP2 SWAP1 POP JUMP JUMPDEST PUSH2 0xC78 DUP4 PUSH2 0xC43 JUMP JUMPDEST PUSH2 0xC8C PUSH2 0xC84 DUP3 PUSH2 0xC65 JUMP JUMPDEST DUP5 DUP5 SLOAD PUSH2 0xBE7 JUMP JUMPDEST DUP3 SSTORE POP POP POP POP JUMP JUMPDEST PUSH1 0x0 SWAP1 JUMP JUMPDEST PUSH2 0xCA1 PUSH2 0xC94 JUMP JUMPDEST PUSH2 0xCAC DUP2 DUP5 DUP5 PUSH2 0xC6F JUMP JUMPDEST POP POP POP JUMP JUMPDEST JUMPDEST DUP2 DUP2 LT ISZERO PUSH2 0xCD0 JUMPI PUSH2 0xCC5 PUSH1 0x0 DUP3 PUSH2 0xC99 JUMP JUMPDEST PUSH1 0x1 DUP2 ADD SWAP1 POP PUSH2 0xCB2 JUMP JUMPDEST POP POP JUMP JUMPDEST PUSH1 0x1F DUP3 GT ISZERO PUSH2 0xD15 JUMPI PUSH2 0xCE6 DUP2 PUSH2 0xBB5 JUMP JUMPDEST PUSH2 0xCEF DUP5 PUSH2 0xBCA JUMP JUMPDEST DUP2 ADD PUSH1 0x20 DUP6 LT ISZERO PUSH2 0xCFE JUMPI DUP2 SWAP1 POP JUMPDEST PUSH2 0xD12 PUSH2 0xD0A DUP6 PUSH2 0xBCA JUMP JUMPDEST DUP4 ADD DUP3 PUSH2 0xCB1 JUMP JUMPDEST POP POP JUMPDEST POP POP POP JUMP JUMPDEST PUSH1 0x0 DUP3 DUP3 SHR SWAP1 POP SWAP3 SWAP2 POP POP JUMP JUMPDEST PUSH1 0x0 PUSH2 0xD38 PUSH1 0x0 NOT DUP5 PUSH1 0x8 MUL PUSH2 0xD1A JUMP JUMPDEST NOT DUP1 DUP4 AND SWAP2 POP POP SWAP3 SWAP2 POP POP JUMP JUMPDEST PUSH1 0x0 PUSH2 0xD51 DUP4 DUP4 PUSH2 0xD27 JUMP JUMPDEST SWAP2 POP DUP3 PUSH1 0x2 MUL DUP3 OR SWAP1 POP SWAP3 SWAP2 POP POP JUMP JUMPDEST PUSH2 0xD6A DUP3 PUSH2 0x81E JUMP JUMPDEST PUSH8 0xFFFFFFFFFFFFFFFF DUP2 GT ISZERO PUSH2 0xD83 JUMPI PUSH2 0xD82 PUSH2 0xB86 JUMP JUMPDEST JUMPDEST PUSH2 0xD8D DUP3 SLOAD PUSH2 0xAE9 JUMP JUMPDEST PUSH2 0xD98 DUP3 DUP3 DUP6 PUSH2 0xCD4 JUMP JUMPDEST PUSH1 0x0 PUSH1 0x20 SWAP1 POP PUSH1 0x1F DUP4 GT PUSH1 0x1 DUP2 EQ PUSH2 0xDCB JUMPI PUSH1 0x0 DUP5 ISZERO PUSH2 0xDB9 JUMPI DUP3 DUP8 ADD MLOAD SWAP1 POP JUMPDEST PUSH2 0xDC3 DUP6 DUP3 PUSH2 0xD45 JUMP JUMPDEST DUP7 SSTORE POP PUSH2 0xE2B JUMP JUMPDEST PUSH1 0x1F NOT DUP5 AND PUSH2 0xDD9 DUP7 PUSH2 0xBB5 JUMP JUMPDEST PUSH1 0x0 JUMPDEST DUP3 DUP2 LT ISZERO PUSH2 0xE01 JUMPI DUP5 DUP10 ADD MLOAD DUP3 SSTORE PUSH1 0x1 DUP3 ADD SWAP2 POP PUSH1 0x20 DUP6 ADD SWAP5 POP PUSH1 0x20 DUP2 ADD SWAP1 POP PUSH2 0xDDC JUMP JUMPDEST DUP7 DUP4 LT ISZERO PUSH2 0xE1E JUMPI DUP5 DUP10 ADD MLOAD PUSH2 0xE1A PUSH1 0x1F DUP10 AND DUP3 PUSH2 0xD27 JUMP JUMPDEST DUP4 SSTORE POP JUMPDEST PUSH1 0x1 PUSH1 0x2 DUP9 MUL ADD DUP9 SSTORE POP POP POP JUMPDEST POP POP POP POP POP POP JUMP JUMPDEST PUSH32 0x4E487B7100000000000000000000000000000000000000000000000000000000 PUSH1 0x0 MSTORE PUSH1 0x11 PUSH1 0x4 MSTORE PUSH1 0x24 PUSH1 0x0 REVERT JUMPDEST PUSH1 0x0 PUSH2 0xE6D DUP3 PUSH2 0x78A JUMP JUMPDEST SWAP2 POP PUSH32 0xFFFFFFFFFFFFFFFFFFFFFFFFFFFFFFFFFFFFFFFFFFFFFFFFFFFFFFFFFFFFFFFF DUP3 SUB PUSH2 0xE9F JUMPI PUSH2 0xE9E PUSH2 0xE33 JUMP JUMPDEST JUMPDEST PUSH1 0x1 DUP3 ADD SWAP1 POP SWAP2 SWAP1 POP JUMP INVALID LOG2 PUSH5 0x6970667358 0x22 SLT KECCAK256 PUSH24 0x8E838B6C2F526815DE1BA9F71ABEF7E5F19A56F5469E093F ADDMOD 0xEA BLOCKHASH SELFDESTRUCT DUP9 SDIV 0xDA PUSH5 0x736F6C6343 STOP ADDMOD GT STOP CALLER "
				},
				"gasEstimates": {
					"creation": {
						"codeDepositCost": "761600",
						"executionCost": "792",
						"totalCost": "762392"
					},
					"external": {
						"conversation(address,uint256)": "infinite",
						"message(address,address,string)": "infinite",
						"tweet(address,string)": "infinite",
						"tweets(uint256)": "infinite"
					}
				},
				"methodIdentifiers": {
					"conversation(address,uint256)": "5dfcaebf",
					"message(address,address,string)": "fd33c98f",
					"tweet(address,string)": "d21d1596",
					"tweets(uint256)": "e8d857b0"
				}
			},
			"storageLayout": {
				"storage": [
					{
						"astId": 26,
						"contract": "contracts/codeEater/twitter.sol:twitter",
						"label": "tweets",
						"offset": 0,
						"slot": "0",
						"type": "t_mapping(t_uint256,t_struct(Tweet)10_storage)"
					},
					{
						"astId": 31,
						"contract": "contracts/codeEater/twitter.sol:twitter",
						"label": "tweetsOf",
						"offset": 0,
						"slot": "1",
						"type": "t_mapping(t_address,t_array(t_uint256)dyn_storage)"
					},
					{
						"astId": 37,
						"contract": "contracts/codeEater/twitter.sol:twitter",
						"label": "conversation",
						"offset": 0,
						"slot": "2",
						"type": "t_mapping(t_address,t_array(t_struct(Message)21_storage)dyn_storage)"
					},
					{
						"astId": 39,
						"contract": "contracts/codeEater/twitter.sol:twitter",
						"label": "nextId",
						"offset": 0,
						"slot": "3",
						"type": "t_uint256"
					},
					{
						"astId": 79,
						"contract": "contracts/codeEater/twitter.sol:twitter",
						"label": "nextMsgId",
						"offset": 0,
						"slot": "4",
						"type": "t_uint256"
					}
				],
				"types": {
					"t_address": {
						"encoding": "inplace",
						"label": "address",
						"numberOfBytes": "20"
					},
					"t_array(t_struct(Message)21_storage)dyn_storage": {
						"base": "t_struct(Message)21_storage",
						"encoding": "dynamic_array",
						"label": "struct twitter.Message[]",
						"numberOfBytes": "32"
					},
					"t_array(t_uint256)dyn_storage": {
						"base": "t_uint256",
						"encoding": "dynamic_array",
						"label": "uint256[]",
						"numberOfBytes": "32"
					},
					"t_mapping(t_address,t_array(t_struct(Message)21_storage)dyn_storage)": {
						"encoding": "mapping",
						"key": "t_address",
						"label": "mapping(address => struct twitter.Message[])",
						"numberOfBytes": "32",
						"value": "t_array(t_struct(Message)21_storage)dyn_storage"
					},
					"t_mapping(t_address,t_array(t_uint256)dyn_storage)": {
						"encoding": "mapping",
						"key": "t_address",
						"label": "mapping(address => uint256[])",
						"numberOfBytes": "32",
						"value": "t_array(t_uint256)dyn_storage"
					},
					"t_mapping(t_uint256,t_struct(Tweet)10_storage)": {
						"encoding": "mapping",
						"key": "t_uint256",
						"label": "mapping(uint256 => struct twitter.Tweet)",
						"numberOfBytes": "32",
						"value": "t_struct(Tweet)10_storage"
					},
					"t_string_storage": {
						"encoding": "bytes",
						"label": "string",
						"numberOfBytes": "32"
					},
					"t_struct(Message)21_storage": {
						"encoding": "inplace",
						"label": "struct twitter.Message",
						"members": [
							{
								"astId": 12,
								"contract": "contracts/codeEater/twitter.sol:twitter",
								"label": "id",
								"offset": 0,
								"slot": "0",
								"type": "t_uint256"
							},
							{
								"astId": 14,
								"contract": "contracts/codeEater/twitter.sol:twitter",
								"label": "_from",
								"offset": 0,
								"slot": "1",
								"type": "t_address"
							},
							{
								"astId": 16,
								"contract": "contracts/codeEater/twitter.sol:twitter",
								"label": "_to",
								"offset": 0,
								"slot": "2",
								"type": "t_address"
							},
							{
								"astId": 18,
								"contract": "contracts/codeEater/twitter.sol:twitter",
								"label": "content",
								"offset": 0,
								"slot": "3",
								"type": "t_string_storage"
							},
							{
								"astId": 20,
								"contract": "contracts/codeEater/twitter.sol:twitter",
								"label": "createdAt",
								"offset": 0,
								"slot": "4",
								"type": "t_uint256"
							}
						],
						"numberOfBytes": "160"
					},
					"t_struct(Tweet)10_storage": {
						"encoding": "inplace",
						"label": "struct twitter.Tweet",
						"members": [
							{
								"astId": 3,
								"contract": "contracts/codeEater/twitter.sol:twitter",
								"label": "id",
								"offset": 0,
								"slot": "0",
								"type": "t_uint256"
							},
							{
								"astId": 5,
								"contract": "contracts/codeEater/twitter.sol:twitter",
								"label": "author",
								"offset": 0,
								"slot": "1",
								"type": "t_address"
							},
							{
								"astId": 7,
								"contract": "contracts/codeEater/twitter.sol:twitter",
								"label": "content",
								"offset": 0,
								"slot": "2",
								"type": "t_string_storage"
							},
							{
								"astId": 9,
								"contract": "contracts/codeEater/twitter.sol:twitter",
								"label": "createdAt",
								"offset": 0,
								"slot": "3",
								"type": "t_uint256"
							}
						],
						"numberOfBytes": "128"
					},
					"t_uint256": {
						"encoding": "inplace",
						"label": "uint256",
						"numberOfBytes": "32"
					}
				}
			},
			"userdoc": {
				"kind": "user",
				"methods": {},
				"version": 1
			}
		}
	}
}