{
	"contracts/codeEater/Asg1.sol": {
		"Asg1": {
			"abi": [
				{
					"inputs": [
						{
							"internalType": "uint256",
							"name": "_inp",
							"type": "uint256"
						}
					],
					"name": "Palindrome",
					"outputs": [
						{
							"internalType": "uint256",
							"name": "",
							"type": "uint256"
						}
					],
					"stateMutability": "pure",
					"type": "function"
				},
				{
					"inputs": [
						{
							"internalType": "uint256",
							"name": "_inp",
							"type": "uint256"
						}
					],
					"name": "amstrong",
					"outputs": [
						{
							"internalType": "uint256",
							"name": "",
							"type": "uint256"
						}
					],
					"stateMutability": "pure",
					"type": "function"
				},
				{
					"inputs": [
						{
							"internalType": "uint256",
							"name": "num1",
							"type": "uint256"
						},
						{
							"internalType": "uint256",
							"name": "num2",
							"type": "uint256"
						},
						{
							"internalType": "uint256",
							"name": "num3",
							"type": "uint256"
						}
					],
					"name": "avg",
					"outputs": [
						{
							"internalType": "uint256",
							"name": "",
							"type": "uint256"
						}
					],
					"stateMutability": "pure",
					"type": "function"
				},
				{
					"inputs": [
						{
							"internalType": "uint256",
							"name": "_num1",
							"type": "uint256"
						}
					],
					"name": "cube",
					"outputs": [
						{
							"internalType": "uint256",
							"name": "",
							"type": "uint256"
						}
					],
					"stateMutability": "pure",
					"type": "function"
				},
				{
					"inputs": [
						{
							"internalType": "uint256",
							"name": "x",
							"type": "uint256"
						},
						{
							"internalType": "uint256",
							"name": "y",
							"type": "uint256"
						}
					],
					"name": "expo",
					"outputs": [
						{
							"internalType": "uint256",
							"name": "",
							"type": "uint256"
						}
					],
					"stateMutability": "pure",
					"type": "function"
				},
				{
					"inputs": [
						{
							"internalType": "uint256",
							"name": "num",
							"type": "uint256"
						}
					],
					"name": "factorial",
					"outputs": [
						{
							"internalType": "uint256",
							"name": "",
							"type": "uint256"
						}
					],
					"stateMutability": "pure",
					"type": "function"
				},
				{
					"inputs": [
						{
							"internalType": "uint256",
							"name": "num",
							"type": "uint256"
						}
					],
					"name": "fibonnical",
					"outputs": [],
					"stateMutability": "nonpayable",
					"type": "function"
				},
				{
					"inputs": [],
					"name": "fibonnicalResult",
					"outputs": [
						{
							"internalType": "uint256",
							"name": "",
							"type": "uint256"
						}
					],
					"stateMutability": "view",
					"type": "function"
				},
				{
					"inputs": [
						{
							"internalType": "int256",
							"name": "num1",
							"type": "int256"
						},
						{
							"internalType": "int256",
							"name": "num2",
							"type": "int256"
						},
						{
							"internalType": "int256",
							"name": "num3",
							"type": "int256"
						}
					],
					"name": "greater",
					"outputs": [
						{
							"internalType": "int256",
							"name": "",
							"type": "int256"
						}
					],
					"stateMutability": "pure",
					"type": "function"
				},
				{
					"inputs": [
						{
							"internalType": "int256",
							"name": "num",
							"type": "int256"
						}
					],
					"name": "oddOrEven",
					"outputs": [
						{
							"internalType": "string",
							"name": "",
							"type": "string"
						}
					],
					"stateMutability": "pure",
					"type": "function"
				},
				{
					"inputs": [
						{
							"internalType": "int256",
							"name": "num",
							"type": "int256"
						}
					],
					"name": "prime",
					"outputs": [
						{
							"internalType": "int256",
							"name": "",
							"type": "int256"
						}
					],
					"stateMutability": "pure",
					"type": "function"
				},
				{
					"inputs": [
						{
							"internalType": "uint256",
							"name": "_inp",
							"type": "uint256"
						}
					],
					"name": "reverseInt",
					"outputs": [
						{
							"internalType": "uint256",
							"name": "",
							"type": "uint256"
						}
					],
					"stateMutability": "pure",
					"type": "function"
				},
				{
					"inputs": [
						{
							"internalType": "uint256",
							"name": "_inp",
							"type": "uint256"
						}
					],
					"name": "sumOfDigits",
					"outputs": [
						{
							"internalType": "uint256",
							"name": "",
							"type": "uint256"
						}
					],
					"stateMutability": "pure",
					"type": "function"
				},
				{
					"inputs": [],
					"name": "swap",
					"outputs": [],
					"stateMutability": "pure",
					"type": "function"
				}
			],
			"devdoc": {
				"kind": "dev",
				"methods": {},
				"version": 1
			},
			"evm": {
				"assembly": "    /* \"contracts/codeEater/Asg1.sol\":56:3933  contract Asg1 {... */\n  mstore(0x40, 0x80)\n  callvalue\n  dup1\n  iszero\n  tag_1\n  jumpi\n  0x00\n  dup1\n  revert\ntag_1:\n  pop\n  dataSize(sub_0)\n  dup1\n  dataOffset(sub_0)\n  0x00\n  codecopy\n  0x00\n  return\nstop\n\nsub_0: assembly {\n        /* \"contracts/codeEater/Asg1.sol\":56:3933  contract Asg1 {... */\n      mstore(0x40, 0x80)\n      callvalue\n      dup1\n      iszero\n      tag_1\n      jumpi\n      0x00\n      dup1\n      revert\n    tag_1:\n      pop\n      jumpi(tag_2, lt(calldatasize, 0x04))\n      shr(0xe0, calldataload(0x00))\n      dup1\n      0x9e098fc1\n      gt\n      tag_17\n      jumpi\n      dup1\n      0xd9ea8e64\n      gt\n      tag_18\n      jumpi\n      dup1\n      0xd9ea8e64\n      eq\n      tag_13\n      jumpi\n      dup1\n      0xf26c79ef\n      eq\n      tag_14\n      jumpi\n      dup1\n      0xf492c000\n      eq\n      tag_15\n      jumpi\n      dup1\n      0xf4bf03c7\n      eq\n      tag_16\n      jumpi\n      jump(tag_2)\n    tag_18:\n      dup1\n      0x9e098fc1\n      eq\n      tag_10\n      jumpi\n      dup1\n      0xb4133721\n      eq\n      tag_11\n      jumpi\n      dup1\n      0xcdab7807\n      eq\n      tag_12\n      jumpi\n      jump(tag_2)\n    tag_17:\n      dup1\n      0x83714834\n      gt\n      tag_19\n      jumpi\n      dup1\n      0x83714834\n      eq\n      tag_6\n      jumpi\n      dup1\n      0x83d3705e\n      eq\n      tag_7\n      jumpi\n      dup1\n      0x8ce32d21\n      eq\n      tag_8\n      jumpi\n      dup1\n      0x92cc2841\n      eq\n      tag_9\n      jumpi\n      jump(tag_2)\n    tag_19:\n      dup1\n      0x46439726\n      eq\n      tag_3\n      jumpi\n      dup1\n      0x4f4752ba\n      eq\n      tag_4\n      jumpi\n      dup1\n      0x8119c065\n      eq\n      tag_5\n      jumpi\n    tag_2:\n      0x00\n      dup1\n      revert\n        /* \"contracts/codeEater/Asg1.sol\":233:375  function oddOrEven(int256 num) public pure returns (string memory) {... */\n    tag_3:\n      tag_20\n      0x04\n      dup1\n      calldatasize\n      sub\n      dup2\n      add\n      swap1\n      tag_21\n      swap2\n      swap1\n      tag_22\n      jump\t// in\n    tag_21:\n      tag_23\n      jump\t// in\n    tag_20:\n      mload(0x40)\n      tag_24\n      swap2\n      swap1\n      tag_25\n      jump\t// in\n    tag_24:\n      mload(0x40)\n      dup1\n      swap2\n      sub\n      swap1\n      return\n        /* \"contracts/codeEater/Asg1.sol\":566:660  function expo(uint256 x, uint256 y) public pure returns (uint256) {... */\n    tag_4:\n      tag_26\n      0x04\n      dup1\n      calldatasize\n      sub\n      dup2\n      add\n      swap1\n      tag_27\n      swap2\n      swap1\n      tag_28\n      jump\t// in\n    tag_27:\n      tag_29\n      jump\t// in\n    tag_26:\n      mload(0x40)\n      tag_30\n      swap2\n      swap1\n      tag_31\n      jump\t// in\n    tag_30:\n      mload(0x40)\n      dup1\n      swap2\n      sub\n      swap1\n      return\n        /* \"contracts/codeEater/Asg1.sol\":674:803  function swap() public pure {... */\n    tag_5:\n      tag_32\n      tag_33\n      jump\t// in\n    tag_32:\n      stop\n        /* \"contracts/codeEater/Asg1.sol\":2954:3232  function factorial(uint256 num) public pure returns (uint256) {... */\n    tag_6:\n      tag_34\n      0x04\n      dup1\n      calldatasize\n      sub\n      dup2\n      add\n      swap1\n      tag_35\n      swap2\n      swap1\n      tag_36\n      jump\t// in\n    tag_35:\n      tag_37\n      jump\t// in\n    tag_34:\n      mload(0x40)\n      tag_38\n      swap2\n      swap1\n      tag_31\n      jump\t// in\n    tag_38:\n      mload(0x40)\n      dup1\n      swap2\n      sub\n      swap1\n      return\n        /* \"contracts/codeEater/Asg1.sol\":1073:1742  function amstrong(uint256 _inp) public pure returns (uint256) {... */\n    tag_7:\n      tag_39\n      0x04\n      dup1\n      calldatasize\n      sub\n      dup2\n      add\n      swap1\n      tag_40\n      swap2\n      swap1\n      tag_36\n      jump\t// in\n    tag_40:\n      tag_41\n      jump\t// in\n    tag_39:\n      mload(0x40)\n      tag_42\n      swap2\n      swap1\n      tag_31\n      jump\t// in\n    tag_42:\n      mload(0x40)\n      dup1\n      swap2\n      sub\n      swap1\n      return\n        /* \"contracts/codeEater/Asg1.sol\":2638:2939  function sumOfDigits(uint256 _inp) external pure returns (uint256) {... */\n    tag_8:\n      tag_43\n      0x04\n      dup1\n      calldatasize\n      sub\n      dup2\n      add\n      swap1\n      tag_44\n      swap2\n      swap1\n      tag_36\n      jump\t// in\n    tag_44:\n      tag_45\n      jump\t// in\n    tag_43:\n      mload(0x40)\n      tag_46\n      swap2\n      swap1\n      tag_31\n      jump\t// in\n    tag_46:\n      mload(0x40)\n      dup1\n      swap2\n      sub\n      swap1\n      return\n        /* \"contracts/codeEater/Asg1.sol\":389:552  function avg(... */\n    tag_9:\n      tag_47\n      0x04\n      dup1\n      calldatasize\n      sub\n      dup2\n      add\n      swap1\n      tag_48\n      swap2\n      swap1\n      tag_49\n      jump\t// in\n    tag_48:\n      tag_50\n      jump\t// in\n    tag_47:\n      mload(0x40)\n      tag_51\n      swap2\n      swap1\n      tag_31\n      jump\t// in\n    tag_51:\n      mload(0x40)\n      dup1\n      swap2\n      sub\n      swap1\n      return\n        /* \"contracts/codeEater/Asg1.sol\":2323:2623  function reverseInt(uint256 _inp) external pure returns (uint256) {... */\n    tag_10:\n      tag_52\n      0x04\n      dup1\n      calldatasize\n      sub\n      dup2\n      add\n      swap1\n      tag_53\n      swap2\n      swap1\n      tag_36\n      jump\t// in\n    tag_53:\n      tag_54\n      jump\t// in\n    tag_52:\n      mload(0x40)\n      tag_55\n      swap2\n      swap1\n      tag_31\n      jump\t// in\n    tag_55:\n      mload(0x40)\n      dup1\n      swap2\n      sub\n      swap1\n      return\n        /* \"contracts/codeEater/Asg1.sol\":3550:3931  function fibonnicalResult() external view returns (uint256) {... */\n    tag_11:\n      tag_56\n      tag_57\n      jump\t// in\n    tag_56:\n      mload(0x40)\n      tag_58\n      swap2\n      swap1\n      tag_31\n      jump\t// in\n    tag_58:\n      mload(0x40)\n      dup1\n      swap2\n      sub\n      swap1\n      return\n        /* \"contracts/codeEater/Asg1.sol\":1984:2308  function Palindrome(uint256 _inp) external pure returns (uint256) {... */\n    tag_12:\n      tag_59\n      0x04\n      dup1\n      calldatasize\n      sub\n      dup2\n      add\n      swap1\n      tag_60\n      swap2\n      swap1\n      tag_36\n      jump\t// in\n    tag_60:\n      tag_61\n      jump\t// in\n    tag_59:\n      mload(0x40)\n      tag_62\n      swap2\n      swap1\n      tag_31\n      jump\t// in\n    tag_62:\n      mload(0x40)\n      dup1\n      swap2\n      sub\n      swap1\n      return\n        /* \"contracts/codeEater/Asg1.sol\":1756:1969  function greater(... */\n    tag_13:\n      tag_63\n      0x04\n      dup1\n      calldatasize\n      sub\n      dup2\n      add\n      swap1\n      tag_64\n      swap2\n      swap1\n      tag_65\n      jump\t// in\n    tag_64:\n      tag_66\n      jump\t// in\n    tag_63:\n      mload(0x40)\n      tag_67\n      swap2\n      swap1\n      tag_68\n      jump\t// in\n    tag_67:\n      mload(0x40)\n      dup1\n      swap2\n      sub\n      swap1\n      return\n        /* \"contracts/codeEater/Asg1.sol\":3247:3544  function fibonnical(uint256 num) external {... */\n    tag_14:\n      tag_69\n      0x04\n      dup1\n      calldatasize\n      sub\n      dup2\n      add\n      swap1\n      tag_70\n      swap2\n      swap1\n      tag_36\n      jump\t// in\n    tag_70:\n      tag_71\n      jump\t// in\n    tag_69:\n      stop\n        /* \"contracts/codeEater/Asg1.sol\":817:1059  function prime(int256 num) public pure returns (int256) {... */\n    tag_15:\n      tag_72\n      0x04\n      dup1\n      calldatasize\n      sub\n      dup2\n      add\n      swap1\n      tag_73\n      swap2\n      swap1\n      tag_22\n      jump\t// in\n    tag_73:\n      tag_74\n      jump\t// in\n    tag_72:\n      mload(0x40)\n      tag_75\n      swap2\n      swap1\n      tag_68\n      jump\t// in\n    tag_75:\n      mload(0x40)\n      dup1\n      swap2\n      sub\n      swap1\n      return\n        /* \"contracts/codeEater/Asg1.sol\":126:219  function cube(uint256 _num1) external pure returns (uint256) {... */\n    tag_16:\n      tag_76\n      0x04\n      dup1\n      calldatasize\n      sub\n      dup2\n      add\n      swap1\n      tag_77\n      swap2\n      swap1\n      tag_36\n      jump\t// in\n    tag_77:\n      tag_78\n      jump\t// in\n    tag_76:\n      mload(0x40)\n      tag_79\n      swap2\n      swap1\n      tag_31\n      jump\t// in\n    tag_79:\n      mload(0x40)\n      dup1\n      swap2\n      sub\n      swap1\n      return\n        /* \"contracts/codeEater/Asg1.sol\":233:375  function oddOrEven(int256 num) public pure returns (string memory) {... */\n    tag_23:\n        /* \"contracts/codeEater/Asg1.sol\":285:298  string memory */\n      0x60\n        /* \"contracts/codeEater/Asg1.sol\":325:326  0 */\n      0x00\n        /* \"contracts/codeEater/Asg1.sol\":320:321  2 */\n      0x02\n        /* \"contracts/codeEater/Asg1.sol\":314:317  num */\n      dup4\n        /* \"contracts/codeEater/Asg1.sol\":314:321  num % 2 */\n      tag_81\n      swap2\n      swap1\n      tag_82\n      jump\t// in\n    tag_81:\n        /* \"contracts/codeEater/Asg1.sol\":314:326  num % 2 == 0 */\n      sub\n        /* \"contracts/codeEater/Asg1.sol\":310:368  if (num % 2 == 0) return \"even\";... */\n      tag_83\n      jumpi\n        /* \"contracts/codeEater/Asg1.sol\":328:341  return \"even\" */\n      mload(0x40)\n      dup1\n      0x40\n      add\n      0x40\n      mstore\n      dup1\n      0x04\n      dup2\n      mstore\n      0x20\n      add\n      0x6576656e00000000000000000000000000000000000000000000000000000000\n      dup2\n      mstore\n      pop\n      swap1\n      pop\n      jump(tag_80)\n        /* \"contracts/codeEater/Asg1.sol\":310:368  if (num % 2 == 0) return \"even\";... */\n    tag_83:\n        /* \"contracts/codeEater/Asg1.sol\":356:368  return \"odd\" */\n      mload(0x40)\n      dup1\n      0x40\n      add\n      0x40\n      mstore\n      dup1\n      0x03\n      dup2\n      mstore\n      0x20\n      add\n      0x6f64640000000000000000000000000000000000000000000000000000000000\n      dup2\n      mstore\n      pop\n      swap1\n      pop\n        /* \"contracts/codeEater/Asg1.sol\":233:375  function oddOrEven(int256 num) public pure returns (string memory) {... */\n    tag_80:\n      swap2\n      swap1\n      pop\n      jump\t// out\n        /* \"contracts/codeEater/Asg1.sol\":566:660  function expo(uint256 x, uint256 y) public pure returns (uint256) {... */\n    tag_29:\n        /* \"contracts/codeEater/Asg1.sol\":623:630  uint256 */\n      0x00\n        /* \"contracts/codeEater/Asg1.sol\":652:653  y */\n      dup2\n        /* \"contracts/codeEater/Asg1.sol\":649:650  x */\n      dup4\n        /* \"contracts/codeEater/Asg1.sol\":649:653  x**y */\n      tag_86\n      swap2\n      swap1\n      tag_87\n      jump\t// in\n    tag_86:\n        /* \"contracts/codeEater/Asg1.sol\":642:653  return x**y */\n      swap1\n      pop\n        /* \"contracts/codeEater/Asg1.sol\":566:660  function expo(uint256 x, uint256 y) public pure returns (uint256) {... */\n      swap3\n      swap2\n      pop\n      pop\n      jump\t// out\n        /* \"contracts/codeEater/Asg1.sol\":674:803  function swap() public pure {... */\n    tag_33:\n        /* \"contracts/codeEater/Asg1.sol\":736:744  int256 a */\n      0x00\n        /* \"contracts/codeEater/Asg1.sol\":747:748  1 */\n      0x01\n        /* \"contracts/codeEater/Asg1.sol\":736:748  int256 a = 1 */\n      swap1\n      pop\n        /* \"contracts/codeEater/Asg1.sol\":758:766  int256 b */\n      0x00\n        /* \"contracts/codeEater/Asg1.sol\":769:770  2 */\n      0x02\n        /* \"contracts/codeEater/Asg1.sol\":758:770  int256 b = 2 */\n      swap1\n      pop\n        /* \"contracts/codeEater/Asg1.sol\":791:792  b */\n      dup1\n        /* \"contracts/codeEater/Asg1.sol\":794:795  a */\n      dup3\n        /* \"contracts/codeEater/Asg1.sol\":781:796  (a, b) = (b, a) */\n      dup1\n      swap3\n      pop\n      dup2\n      swap4\n      pop\n      pop\n      pop\n        /* \"contracts/codeEater/Asg1.sol\":702:803  {... */\n      pop\n      pop\n        /* \"contracts/codeEater/Asg1.sol\":674:803  function swap() public pure {... */\n      jump\t// out\n        /* \"contracts/codeEater/Asg1.sol\":2954:3232  function factorial(uint256 num) public pure returns (uint256) {... */\n    tag_37:\n        /* \"contracts/codeEater/Asg1.sol\":3007:3014  uint256 */\n      0x00\n        /* \"contracts/codeEater/Asg1.sol\":3026:3038  uint256 temp */\n      dup1\n        /* \"contracts/codeEater/Asg1.sol\":3041:3044  num */\n      dup3\n        /* \"contracts/codeEater/Asg1.sol\":3026:3044  uint256 temp = num */\n      swap1\n      pop\n        /* \"contracts/codeEater/Asg1.sol\":3054:3065  uint256 res */\n      0x00\n        /* \"contracts/codeEater/Asg1.sol\":3068:3069  1 */\n      0x01\n        /* \"contracts/codeEater/Asg1.sol\":3054:3069  uint256 res = 1 */\n      swap1\n      pop\n        /* \"contracts/codeEater/Asg1.sol\":3079:3206  while (temp != 0) {... */\n    tag_90:\n        /* \"contracts/codeEater/Asg1.sol\":3094:3095  0 */\n      0x00\n        /* \"contracts/codeEater/Asg1.sol\":3086:3090  temp */\n      dup3\n        /* \"contracts/codeEater/Asg1.sol\":3086:3095  temp != 0 */\n      eq\n        /* \"contracts/codeEater/Asg1.sol\":3079:3206  while (temp != 0) {... */\n      tag_91\n      jumpi\n        /* \"contracts/codeEater/Asg1.sol\":3111:3126  uint256 lastDig */\n      0x00\n        /* \"contracts/codeEater/Asg1.sol\":3136:3138  10 */\n      0x0a\n        /* \"contracts/codeEater/Asg1.sol\":3129:3133  temp */\n      dup4\n        /* \"contracts/codeEater/Asg1.sol\":3129:3138  temp % 10 */\n      tag_92\n      swap2\n      swap1\n      tag_93\n      jump\t// in\n    tag_92:\n        /* \"contracts/codeEater/Asg1.sol\":3111:3138  uint256 lastDig = temp % 10 */\n      swap1\n      pop\n        /* \"contracts/codeEater/Asg1.sol\":3164:3171  lastDig */\n      dup1\n        /* \"contracts/codeEater/Asg1.sol\":3158:3161  res */\n      dup3\n        /* \"contracts/codeEater/Asg1.sol\":3158:3171  res * lastDig */\n      tag_94\n      swap2\n      swap1\n      tag_95\n      jump\t// in\n    tag_94:\n        /* \"contracts/codeEater/Asg1.sol\":3152:3171  res = res * lastDig */\n      swap2\n      pop\n        /* \"contracts/codeEater/Asg1.sol\":3193:3195  10 */\n      0x0a\n        /* \"contracts/codeEater/Asg1.sol\":3185:3195  temp /= 10 */\n      dup4\n      tag_96\n      swap2\n      swap1\n      tag_97\n      jump\t// in\n    tag_96:\n      swap3\n      pop\n        /* \"contracts/codeEater/Asg1.sol\":3097:3206  {... */\n      pop\n        /* \"contracts/codeEater/Asg1.sol\":3079:3206  while (temp != 0) {... */\n      jump(tag_90)\n    tag_91:\n        /* \"contracts/codeEater/Asg1.sol\":3222:3225  res */\n      dup1\n        /* \"contracts/codeEater/Asg1.sol\":3215:3225  return res */\n      swap3\n      pop\n      pop\n      pop\n        /* \"contracts/codeEater/Asg1.sol\":2954:3232  function factorial(uint256 num) public pure returns (uint256) {... */\n      swap2\n      swap1\n      pop\n      jump\t// out\n        /* \"contracts/codeEater/Asg1.sol\":1073:1742  function amstrong(uint256 _inp) public pure returns (uint256) {... */\n    tag_41:\n        /* \"contracts/codeEater/Asg1.sol\":1126:1133  uint256 */\n      0x00\n        /* \"contracts/codeEater/Asg1.sol\":1176:1188  uint256 temp */\n      dup1\n        /* \"contracts/codeEater/Asg1.sol\":1191:1195  _inp */\n      dup3\n        /* \"contracts/codeEater/Asg1.sol\":1176:1195  uint256 temp = _inp */\n      swap1\n      pop\n        /* \"contracts/codeEater/Asg1.sol\":1205:1223  uint256 _inpLength */\n      0x00\n        /* \"contracts/codeEater/Asg1.sol\":1237:1260  uint256 calculatedInput */\n      dup1\n        /* \"contracts/codeEater/Asg1.sol\":1275:1354  while (temp != 0) {... */\n    tag_99:\n        /* \"contracts/codeEater/Asg1.sol\":1290:1291  0 */\n      0x00\n        /* \"contracts/codeEater/Asg1.sol\":1282:1286  temp */\n      dup4\n        /* \"contracts/codeEater/Asg1.sol\":1282:1291  temp != 0 */\n      eq\n        /* \"contracts/codeEater/Asg1.sol\":1275:1354  while (temp != 0) {... */\n      tag_100\n      jumpi\n        /* \"contracts/codeEater/Asg1.sol\":1307:1319  _inpLength++ */\n      dup2\n      dup1\n      tag_101\n      swap1\n      tag_102\n      jump\t// in\n    tag_101:\n      swap3\n      pop\n      pop\n        /* \"contracts/codeEater/Asg1.sol\":1341:1343  10 */\n      0x0a\n        /* \"contracts/codeEater/Asg1.sol\":1333:1343  temp /= 10 */\n      dup4\n      tag_103\n      swap2\n      swap1\n      tag_97\n      jump\t// in\n    tag_103:\n      swap3\n      pop\n        /* \"contracts/codeEater/Asg1.sol\":1275:1354  while (temp != 0) {... */\n      jump(tag_99)\n    tag_100:\n        /* \"contracts/codeEater/Asg1.sol\":1385:1386  0 */\n      0x00\n        /* \"contracts/codeEater/Asg1.sol\":1371:1381  _inpLength */\n      dup3\n        /* \"contracts/codeEater/Asg1.sol\":1371:1386  _inpLength != 0 */\n      sub\n        /* \"contracts/codeEater/Asg1.sol\":1363:1409  require(_inpLength != 0, \"not a valid number\") */\n      tag_104\n      jumpi\n      mload(0x40)\n      0x08c379a000000000000000000000000000000000000000000000000000000000\n      dup2\n      mstore\n      0x04\n      add\n      tag_105\n      swap1\n      tag_106\n      jump\t// in\n    tag_105:\n      mload(0x40)\n      dup1\n      swap2\n      sub\n      swap1\n      revert\n    tag_104:\n        /* \"contracts/codeEater/Asg1.sol\":1426:1430  _inp */\n      dup5\n        /* \"contracts/codeEater/Asg1.sol\":1419:1430  temp = _inp */\n      swap3\n      pop\n        /* \"contracts/codeEater/Asg1.sol\":1507:1688  while (temp != 0) {... */\n    tag_107:\n        /* \"contracts/codeEater/Asg1.sol\":1522:1523  0 */\n      0x00\n        /* \"contracts/codeEater/Asg1.sol\":1514:1518  temp */\n      dup4\n        /* \"contracts/codeEater/Asg1.sol\":1514:1523  temp != 0 */\n      eq\n        /* \"contracts/codeEater/Asg1.sol\":1507:1688  while (temp != 0) {... */\n      tag_108\n      jumpi\n        /* \"contracts/codeEater/Asg1.sol\":1539:1554  uint256 lastDig */\n      0x00\n        /* \"contracts/codeEater/Asg1.sol\":1564:1566  10 */\n      0x0a\n        /* \"contracts/codeEater/Asg1.sol\":1557:1561  temp */\n      dup5\n        /* \"contracts/codeEater/Asg1.sol\":1557:1566  temp % 10 */\n      tag_109\n      swap2\n      swap1\n      tag_93\n      jump\t// in\n    tag_109:\n        /* \"contracts/codeEater/Asg1.sol\":1539:1566  uint256 lastDig = temp % 10 */\n      swap1\n      pop\n        /* \"contracts/codeEater/Asg1.sol\":1643:1653  _inpLength */\n      dup3\n        /* \"contracts/codeEater/Asg1.sol\":1634:1641  lastDig */\n      dup2\n        /* \"contracts/codeEater/Asg1.sol\":1634:1653  lastDig**_inpLength */\n      tag_110\n      swap2\n      swap1\n      tag_87\n      jump\t// in\n    tag_110:\n        /* \"contracts/codeEater/Asg1.sol\":1616:1631  calculatedInput */\n      dup3\n        /* \"contracts/codeEater/Asg1.sol\":1616:1653  calculatedInput + lastDig**_inpLength */\n      tag_111\n      swap2\n      swap1\n      tag_112\n      jump\t// in\n    tag_111:\n        /* \"contracts/codeEater/Asg1.sol\":1598:1653  calculatedInput = calculatedInput + lastDig**_inpLength */\n      swap2\n      pop\n        /* \"contracts/codeEater/Asg1.sol\":1675:1677  10 */\n      0x0a\n        /* \"contracts/codeEater/Asg1.sol\":1667:1677  temp /= 10 */\n      dup5\n      tag_113\n      swap2\n      swap1\n      tag_97\n      jump\t// in\n    tag_113:\n      swap4\n      pop\n        /* \"contracts/codeEater/Asg1.sol\":1525:1688  {... */\n      pop\n        /* \"contracts/codeEater/Asg1.sol\":1507:1688  while (temp != 0) {... */\n      jump(tag_107)\n    tag_108:\n        /* \"contracts/codeEater/Asg1.sol\":1712:1727  calculatedInput */\n      dup1\n        /* \"contracts/codeEater/Asg1.sol\":1704:1708  _inp */\n      dup6\n        /* \"contracts/codeEater/Asg1.sol\":1704:1727  _inp == calculatedInput */\n      eq\n        /* \"contracts/codeEater/Asg1.sol\":1704:1735  _inp == calculatedInput ? 1 : 0 */\n      tag_114\n      jumpi\n        /* \"contracts/codeEater/Asg1.sol\":1734:1735  0 */\n      0x00\n        /* \"contracts/codeEater/Asg1.sol\":1704:1735  _inp == calculatedInput ? 1 : 0 */\n      jump(tag_115)\n    tag_114:\n        /* \"contracts/codeEater/Asg1.sol\":1730:1731  1 */\n      0x01\n        /* \"contracts/codeEater/Asg1.sol\":1704:1735  _inp == calculatedInput ? 1 : 0 */\n    tag_115:\n        /* \"contracts/codeEater/Asg1.sol\":1697:1735  return _inp == calculatedInput ? 1 : 0 */\n      0xff\n      and\n      swap4\n      pop\n      pop\n      pop\n      pop\n        /* \"contracts/codeEater/Asg1.sol\":1073:1742  function amstrong(uint256 _inp) public pure returns (uint256) {... */\n      swap2\n      swap1\n      pop\n      jump\t// out\n        /* \"contracts/codeEater/Asg1.sol\":2638:2939  function sumOfDigits(uint256 _inp) external pure returns (uint256) {... */\n    tag_45:\n        /* \"contracts/codeEater/Asg1.sol\":2696:2703  uint256 */\n      0x00\n        /* \"contracts/codeEater/Asg1.sol\":2715:2727  uint256 temp */\n      dup1\n        /* \"contracts/codeEater/Asg1.sol\":2730:2734  _inp */\n      dup3\n        /* \"contracts/codeEater/Asg1.sol\":2715:2734  uint256 temp = _inp */\n      swap1\n      pop\n        /* \"contracts/codeEater/Asg1.sol\":2744:2759  uint256 _inpSum */\n      0x00\n        /* \"contracts/codeEater/Asg1.sol\":2774:2909  while (temp != 0) {... */\n    tag_117:\n        /* \"contracts/codeEater/Asg1.sol\":2789:2790  0 */\n      0x00\n        /* \"contracts/codeEater/Asg1.sol\":2781:2785  temp */\n      dup3\n        /* \"contracts/codeEater/Asg1.sol\":2781:2790  temp != 0 */\n      eq\n        /* \"contracts/codeEater/Asg1.sol\":2774:2909  while (temp != 0) {... */\n      tag_118\n      jumpi\n        /* \"contracts/codeEater/Asg1.sol\":2806:2821  uint256 lastDig */\n      0x00\n        /* \"contracts/codeEater/Asg1.sol\":2831:2833  10 */\n      0x0a\n        /* \"contracts/codeEater/Asg1.sol\":2824:2828  temp */\n      dup4\n        /* \"contracts/codeEater/Asg1.sol\":2824:2833  temp % 10 */\n      tag_119\n      swap2\n      swap1\n      tag_93\n      jump\t// in\n    tag_119:\n        /* \"contracts/codeEater/Asg1.sol\":2806:2833  uint256 lastDig = temp % 10 */\n      swap1\n      pop\n        /* \"contracts/codeEater/Asg1.sol\":2867:2874  lastDig */\n      dup1\n        /* \"contracts/codeEater/Asg1.sol\":2857:2864  _inpSum */\n      dup3\n        /* \"contracts/codeEater/Asg1.sol\":2857:2874  _inpSum + lastDig */\n      tag_120\n      swap2\n      swap1\n      tag_112\n      jump\t// in\n    tag_120:\n        /* \"contracts/codeEater/Asg1.sol\":2847:2874  _inpSum = _inpSum + lastDig */\n      swap2\n      pop\n        /* \"contracts/codeEater/Asg1.sol\":2896:2898  10 */\n      0x0a\n        /* \"contracts/codeEater/Asg1.sol\":2888:2898  temp /= 10 */\n      dup4\n      tag_121\n      swap2\n      swap1\n      tag_97\n      jump\t// in\n    tag_121:\n      swap3\n      pop\n        /* \"contracts/codeEater/Asg1.sol\":2792:2909  {... */\n      pop\n        /* \"contracts/codeEater/Asg1.sol\":2774:2909  while (temp != 0) {... */\n      jump(tag_117)\n    tag_118:\n        /* \"contracts/codeEater/Asg1.sol\":2925:2932  _inpSum */\n      dup1\n        /* \"contracts/codeEater/Asg1.sol\":2918:2932  return _inpSum */\n      swap3\n      pop\n      pop\n      pop\n        /* \"contracts/codeEater/Asg1.sol\":2638:2939  function sumOfDigits(uint256 _inp) external pure returns (uint256) {... */\n      swap2\n      swap1\n      pop\n      jump\t// out\n        /* \"contracts/codeEater/Asg1.sol\":389:552  function avg(... */\n    tag_50:\n        /* \"contracts/codeEater/Asg1.sol\":495:502  uint256 */\n      0x00\n        /* \"contracts/codeEater/Asg1.sol\":544:545  3 */\n      0x03\n        /* \"contracts/codeEater/Asg1.sol\":536:540  num3 */\n      dup3\n        /* \"contracts/codeEater/Asg1.sol\":529:533  num2 */\n      dup5\n        /* \"contracts/codeEater/Asg1.sol\":522:526  num1 */\n      dup7\n        /* \"contracts/codeEater/Asg1.sol\":522:533  num1 + num2 */\n      tag_123\n      swap2\n      swap1\n      tag_112\n      jump\t// in\n    tag_123:\n        /* \"contracts/codeEater/Asg1.sol\":522:540  num1 + num2 + num3 */\n      tag_124\n      swap2\n      swap1\n      tag_112\n      jump\t// in\n    tag_124:\n        /* \"contracts/codeEater/Asg1.sol\":521:545  (num1 + num2 + num3) / 3 */\n      tag_125\n      swap2\n      swap1\n      tag_97\n      jump\t// in\n    tag_125:\n        /* \"contracts/codeEater/Asg1.sol\":514:545  return (num1 + num2 + num3) / 3 */\n      swap1\n      pop\n        /* \"contracts/codeEater/Asg1.sol\":389:552  function avg(... */\n      swap4\n      swap3\n      pop\n      pop\n      pop\n      jump\t// out\n        /* \"contracts/codeEater/Asg1.sol\":2323:2623  function reverseInt(uint256 _inp) external pure returns (uint256) {... */\n    tag_54:\n        /* \"contracts/codeEater/Asg1.sol\":2380:2387  uint256 */\n      0x00\n        /* \"contracts/codeEater/Asg1.sol\":2399:2415  uint256 reversed */\n      dup1\n        /* \"contracts/codeEater/Asg1.sol\":2425:2436  uint256 tmp */\n      0x00\n        /* \"contracts/codeEater/Asg1.sol\":2439:2443  _inp */\n      dup4\n        /* \"contracts/codeEater/Asg1.sol\":2425:2443  uint256 tmp = _inp */\n      swap1\n      pop\n        /* \"contracts/codeEater/Asg1.sol\":2453:2592  while (tmp != 0) {... */\n    tag_127:\n        /* \"contracts/codeEater/Asg1.sol\":2467:2468  0 */\n      0x00\n        /* \"contracts/codeEater/Asg1.sol\":2460:2463  tmp */\n      dup2\n        /* \"contracts/codeEater/Asg1.sol\":2460:2468  tmp != 0 */\n      eq\n        /* \"contracts/codeEater/Asg1.sol\":2453:2592  while (tmp != 0) {... */\n      tag_128\n      jumpi\n        /* \"contracts/codeEater/Asg1.sol\":2484:2499  uint256 lastDig */\n      0x00\n        /* \"contracts/codeEater/Asg1.sol\":2508:2510  10 */\n      0x0a\n        /* \"contracts/codeEater/Asg1.sol\":2502:2505  tmp */\n      dup3\n        /* \"contracts/codeEater/Asg1.sol\":2502:2510  tmp % 10 */\n      tag_129\n      swap2\n      swap1\n      tag_93\n      jump\t// in\n    tag_129:\n        /* \"contracts/codeEater/Asg1.sol\":2484:2510  uint256 lastDig = tmp % 10 */\n      swap1\n      pop\n        /* \"contracts/codeEater/Asg1.sol\":2551:2558  lastDig */\n      dup1\n        /* \"contracts/codeEater/Asg1.sol\":2546:2548  10 */\n      0x0a\n        /* \"contracts/codeEater/Asg1.sol\":2535:2543  reversed */\n      dup5\n        /* \"contracts/codeEater/Asg1.sol\":2535:2548  reversed * 10 */\n      tag_130\n      swap2\n      swap1\n      tag_95\n      jump\t// in\n    tag_130:\n        /* \"contracts/codeEater/Asg1.sol\":2535:2558  reversed * 10 + lastDig */\n      tag_131\n      swap2\n      swap1\n      tag_112\n      jump\t// in\n    tag_131:\n        /* \"contracts/codeEater/Asg1.sol\":2524:2558  reversed = reversed * 10 + lastDig */\n      swap3\n      pop\n        /* \"contracts/codeEater/Asg1.sol\":2579:2581  10 */\n      0x0a\n        /* \"contracts/codeEater/Asg1.sol\":2572:2581  tmp /= 10 */\n      dup3\n      tag_132\n      swap2\n      swap1\n      tag_97\n      jump\t// in\n    tag_132:\n      swap2\n      pop\n        /* \"contracts/codeEater/Asg1.sol\":2470:2592  {... */\n      pop\n        /* \"contracts/codeEater/Asg1.sol\":2453:2592  while (tmp != 0) {... */\n      jump(tag_127)\n    tag_128:\n        /* \"contracts/codeEater/Asg1.sol\":2608:2616  reversed */\n      dup2\n        /* \"contracts/codeEater/Asg1.sol\":2601:2616  return reversed */\n      swap3\n      pop\n      pop\n      pop\n        /* \"contracts/codeEater/Asg1.sol\":2323:2623  function reverseInt(uint256 _inp) external pure returns (uint256) {... */\n      swap2\n      swap1\n      pop\n      jump\t// out\n        /* \"contracts/codeEater/Asg1.sol\":3550:3931  function fibonnicalResult() external view returns (uint256) {... */\n    tag_57:\n        /* \"contracts/codeEater/Asg1.sol\":3601:3608  uint256 */\n      0x00\n        /* \"contracts/codeEater/Asg1.sol\":3664:3673  uint256 i */\n      dup1\n        /* \"contracts/codeEater/Asg1.sol\":3676:3677  0 */\n      0x00\n        /* \"contracts/codeEater/Asg1.sol\":3664:3677  uint256 i = 0 */\n      swap1\n      pop\n        /* \"contracts/codeEater/Asg1.sol\":3659:3906  for (uint256 i = 0; i < holder[\"numArr\"].length - 2; i++) {... */\n    tag_134:\n        /* \"contracts/codeEater/Asg1.sol\":3709:3710  2 */\n      0x02\n        /* \"contracts/codeEater/Asg1.sol\":3683:3689  holder */\n      0x00\n        /* \"contracts/codeEater/Asg1.sol\":3683:3699  holder[\"numArr\"] */\n      mload(0x40)\n      tag_137\n      swap1\n      tag_138\n      jump\t// in\n    tag_137:\n      swap1\n      dup2\n      mstore\n      0x20\n      add\n      mload(0x40)\n      dup1\n      swap2\n      sub\n      swap1\n      keccak256\n        /* \"contracts/codeEater/Asg1.sol\":3683:3706  holder[\"numArr\"].length */\n      dup1\n      sload\n      swap1\n      pop\n        /* \"contracts/codeEater/Asg1.sol\":3683:3710  holder[\"numArr\"].length - 2 */\n      tag_139\n      swap2\n      swap1\n      tag_140\n      jump\t// in\n    tag_139:\n        /* \"contracts/codeEater/Asg1.sol\":3679:3680  i */\n      dup2\n        /* \"contracts/codeEater/Asg1.sol\":3679:3710  i < holder[\"numArr\"].length - 2 */\n      lt\n        /* \"contracts/codeEater/Asg1.sol\":3659:3906  for (uint256 i = 0; i < holder[\"numArr\"].length - 2; i++) {... */\n      iszero\n      tag_135\n      jumpi\n        /* \"contracts/codeEater/Asg1.sol\":3817:3823  holder */\n      0x00\n        /* \"contracts/codeEater/Asg1.sol\":3817:3833  holder[\"numArr\"] */\n      mload(0x40)\n      tag_141\n      swap1\n      tag_138\n      jump\t// in\n    tag_141:\n      swap1\n      dup2\n      mstore\n      0x20\n      add\n      mload(0x40)\n      dup1\n      swap2\n      sub\n      swap1\n      keccak256\n        /* \"contracts/codeEater/Asg1.sol\":3838:3839  2 */\n      0x02\n        /* \"contracts/codeEater/Asg1.sol\":3834:3835  i */\n      dup3\n        /* \"contracts/codeEater/Asg1.sol\":3834:3839  i + 2 */\n      tag_142\n      swap2\n      swap1\n      tag_112\n      jump\t// in\n    tag_142:\n        /* \"contracts/codeEater/Asg1.sol\":3817:3840  holder[\"numArr\"][i + 2] */\n      dup2\n      sload\n      dup2\n      lt\n      tag_143\n      jumpi\n      tag_144\n      tag_145\n      jump\t// in\n    tag_144:\n    tag_143:\n      swap1\n      0x00\n      mstore\n      keccak256(0x00, 0x20)\n      add\n      sload\n        /* \"contracts/codeEater/Asg1.sol\":3791:3797  holder */\n      0x00\n        /* \"contracts/codeEater/Asg1.sol\":3791:3807  holder[\"numArr\"] */\n      mload(0x40)\n      tag_147\n      swap1\n      tag_138\n      jump\t// in\n    tag_147:\n      swap1\n      dup2\n      mstore\n      0x20\n      add\n      mload(0x40)\n      dup1\n      swap2\n      sub\n      swap1\n      keccak256\n        /* \"contracts/codeEater/Asg1.sol\":3812:3813  1 */\n      0x01\n        /* \"contracts/codeEater/Asg1.sol\":3808:3809  i */\n      dup4\n        /* \"contracts/codeEater/Asg1.sol\":3808:3813  i + 1 */\n      tag_148\n      swap2\n      swap1\n      tag_112\n      jump\t// in\n    tag_148:\n        /* \"contracts/codeEater/Asg1.sol\":3791:3814  holder[\"numArr\"][i + 1] */\n      dup2\n      sload\n      dup2\n      lt\n      tag_149\n      jumpi\n      tag_150\n      tag_145\n      jump\t// in\n    tag_150:\n    tag_149:\n      swap1\n      0x00\n      mstore\n      keccak256(0x00, 0x20)\n      add\n      sload\n        /* \"contracts/codeEater/Asg1.sol\":3791:3840  holder[\"numArr\"][i + 1] + holder[\"numArr\"][i + 2] */\n      tag_152\n      swap2\n      swap1\n      tag_112\n      jump\t// in\n    tag_152:\n        /* \"contracts/codeEater/Asg1.sol\":3752:3758  holder */\n      0x00\n        /* \"contracts/codeEater/Asg1.sol\":3752:3768  holder[\"numArr\"] */\n      mload(0x40)\n      tag_153\n      swap1\n      tag_138\n      jump\t// in\n    tag_153:\n      swap1\n      dup2\n      mstore\n      0x20\n      add\n      mload(0x40)\n      dup1\n      swap2\n      sub\n      swap1\n      keccak256\n        /* \"contracts/codeEater/Asg1.sol\":3769:3770  i */\n      dup3\n        /* \"contracts/codeEater/Asg1.sol\":3752:3771  holder[\"numArr\"][i] */\n      dup2\n      sload\n      dup2\n      lt\n      tag_154\n      jumpi\n      tag_155\n      tag_145\n      jump\t// in\n    tag_155:\n    tag_154:\n      swap1\n      0x00\n      mstore\n      keccak256(0x00, 0x20)\n      add\n      sload\n        /* \"contracts/codeEater/Asg1.sol\":3752:3840  holder[\"numArr\"][i] !=... */\n      eq\n        /* \"contracts/codeEater/Asg1.sol\":3731:3896  if (... */\n      tag_157\n      jumpi\n        /* \"contracts/codeEater/Asg1.sol\":3880:3881  0 */\n      0x00\n        /* \"contracts/codeEater/Asg1.sol\":3873:3881  return 0 */\n      swap2\n      pop\n      pop\n      jump(tag_133)\n        /* \"contracts/codeEater/Asg1.sol\":3731:3896  if (... */\n    tag_157:\n        /* \"contracts/codeEater/Asg1.sol\":3712:3715  i++ */\n      dup1\n      dup1\n      tag_158\n      swap1\n      tag_102\n      jump\t// in\n    tag_158:\n      swap2\n      pop\n      pop\n        /* \"contracts/codeEater/Asg1.sol\":3659:3906  for (uint256 i = 0; i < holder[\"numArr\"].length - 2; i++) {... */\n      jump(tag_134)\n    tag_135:\n      pop\n        /* \"contracts/codeEater/Asg1.sol\":3923:3924  1 */\n      0x01\n        /* \"contracts/codeEater/Asg1.sol\":3916:3924  return 1 */\n      swap1\n      pop\n        /* \"contracts/codeEater/Asg1.sol\":3550:3931  function fibonnicalResult() external view returns (uint256) {... */\n    tag_133:\n      swap1\n      jump\t// out\n        /* \"contracts/codeEater/Asg1.sol\":1984:2308  function Palindrome(uint256 _inp) external pure returns (uint256) {... */\n    tag_61:\n        /* \"contracts/codeEater/Asg1.sol\":2041:2048  uint256 */\n      0x00\n        /* \"contracts/codeEater/Asg1.sol\":2060:2072  uint256 temp */\n      dup1\n        /* \"contracts/codeEater/Asg1.sol\":2075:2079  _inp */\n      dup3\n        /* \"contracts/codeEater/Asg1.sol\":2060:2079  uint256 temp = _inp */\n      swap1\n      pop\n        /* \"contracts/codeEater/Asg1.sol\":2089:2105  uint256 reversed */\n      0x00\n        /* \"contracts/codeEater/Asg1.sol\":2119:2261  while (temp != 0) {... */\n    tag_160:\n        /* \"contracts/codeEater/Asg1.sol\":2134:2135  0 */\n      0x00\n        /* \"contracts/codeEater/Asg1.sol\":2126:2130  temp */\n      dup3\n        /* \"contracts/codeEater/Asg1.sol\":2126:2135  temp != 0 */\n      eq\n        /* \"contracts/codeEater/Asg1.sol\":2119:2261  while (temp != 0) {... */\n      tag_161\n      jumpi\n        /* \"contracts/codeEater/Asg1.sol\":2151:2166  uint256 lasDigt */\n      0x00\n        /* \"contracts/codeEater/Asg1.sol\":2176:2178  10 */\n      0x0a\n        /* \"contracts/codeEater/Asg1.sol\":2169:2173  temp */\n      dup4\n        /* \"contracts/codeEater/Asg1.sol\":2169:2178  temp % 10 */\n      tag_162\n      swap2\n      swap1\n      tag_93\n      jump\t// in\n    tag_162:\n        /* \"contracts/codeEater/Asg1.sol\":2151:2178  uint256 lasDigt = temp % 10 */\n      swap1\n      pop\n        /* \"contracts/codeEater/Asg1.sol\":2219:2226  lasDigt */\n      dup1\n        /* \"contracts/codeEater/Asg1.sol\":2214:2216  10 */\n      0x0a\n        /* \"contracts/codeEater/Asg1.sol\":2203:2211  reversed */\n      dup4\n        /* \"contracts/codeEater/Asg1.sol\":2203:2216  reversed * 10 */\n      tag_163\n      swap2\n      swap1\n      tag_95\n      jump\t// in\n    tag_163:\n        /* \"contracts/codeEater/Asg1.sol\":2203:2226  reversed * 10 + lasDigt */\n      tag_164\n      swap2\n      swap1\n      tag_112\n      jump\t// in\n    tag_164:\n        /* \"contracts/codeEater/Asg1.sol\":2192:2226  reversed = reversed * 10 + lasDigt */\n      swap2\n      pop\n        /* \"contracts/codeEater/Asg1.sol\":2248:2250  10 */\n      0x0a\n        /* \"contracts/codeEater/Asg1.sol\":2240:2250  temp /= 10 */\n      dup4\n      tag_165\n      swap2\n      swap1\n      tag_97\n      jump\t// in\n    tag_165:\n      swap3\n      pop\n        /* \"contracts/codeEater/Asg1.sol\":2137:2261  {... */\n      pop\n        /* \"contracts/codeEater/Asg1.sol\":2119:2261  while (temp != 0) {... */\n      jump(tag_160)\n    tag_161:\n        /* \"contracts/codeEater/Asg1.sol\":2289:2293  _inp */\n      dup4\n        /* \"contracts/codeEater/Asg1.sol\":2277:2285  reversed */\n      dup2\n        /* \"contracts/codeEater/Asg1.sol\":2277:2293  reversed == _inp */\n      eq\n        /* \"contracts/codeEater/Asg1.sol\":2277:2301  reversed == _inp ? 1 : 0 */\n      tag_166\n      jumpi\n        /* \"contracts/codeEater/Asg1.sol\":2300:2301  0 */\n      0x00\n        /* \"contracts/codeEater/Asg1.sol\":2277:2301  reversed == _inp ? 1 : 0 */\n      jump(tag_167)\n    tag_166:\n        /* \"contracts/codeEater/Asg1.sol\":2296:2297  1 */\n      0x01\n        /* \"contracts/codeEater/Asg1.sol\":2277:2301  reversed == _inp ? 1 : 0 */\n    tag_167:\n        /* \"contracts/codeEater/Asg1.sol\":2270:2301  return reversed == _inp ? 1 : 0 */\n      0xff\n      and\n      swap3\n      pop\n      pop\n      pop\n        /* \"contracts/codeEater/Asg1.sol\":1984:2308  function Palindrome(uint256 _inp) external pure returns (uint256) {... */\n      swap2\n      swap1\n      pop\n      jump\t// out\n        /* \"contracts/codeEater/Asg1.sol\":1756:1969  function greater(... */\n    tag_66:\n        /* \"contracts/codeEater/Asg1.sol\":1863:1869  int256 */\n      0x00\n        /* \"contracts/codeEater/Asg1.sol\":1881:1892  int256 temp */\n      dup1\n        /* \"contracts/codeEater/Asg1.sol\":1902:1906  num2 */\n      dup4\n        /* \"contracts/codeEater/Asg1.sol\":1895:1899  num1 */\n      dup6\n        /* \"contracts/codeEater/Asg1.sol\":1895:1906  num1 > num2 */\n      sgt\n        /* \"contracts/codeEater/Asg1.sol\":1895:1920  num1 > num2 ? num1 : num2 */\n      tag_169\n      jumpi\n        /* \"contracts/codeEater/Asg1.sol\":1916:1920  num2 */\n      dup4\n        /* \"contracts/codeEater/Asg1.sol\":1895:1920  num1 > num2 ? num1 : num2 */\n      jump(tag_170)\n    tag_169:\n        /* \"contracts/codeEater/Asg1.sol\":1909:1913  num1 */\n      dup5\n        /* \"contracts/codeEater/Asg1.sol\":1895:1920  num1 > num2 ? num1 : num2 */\n    tag_170:\n        /* \"contracts/codeEater/Asg1.sol\":1881:1920  int256 temp = num1 > num2 ? num1 : num2 */\n      swap1\n      pop\n        /* \"contracts/codeEater/Asg1.sol\":1944:1948  num3 */\n      dup3\n        /* \"contracts/codeEater/Asg1.sol\":1937:1941  temp */\n      dup2\n        /* \"contracts/codeEater/Asg1.sol\":1937:1948  temp > num3 */\n      sgt\n        /* \"contracts/codeEater/Asg1.sol\":1937:1962  temp > num3 ? temp : num3 */\n      tag_171\n      jumpi\n        /* \"contracts/codeEater/Asg1.sol\":1958:1962  num3 */\n      dup3\n        /* \"contracts/codeEater/Asg1.sol\":1937:1962  temp > num3 ? temp : num3 */\n      jump(tag_172)\n    tag_171:\n        /* \"contracts/codeEater/Asg1.sol\":1951:1955  temp */\n      dup1\n        /* \"contracts/codeEater/Asg1.sol\":1937:1962  temp > num3 ? temp : num3 */\n    tag_172:\n        /* \"contracts/codeEater/Asg1.sol\":1930:1962  return temp > num3 ? temp : num3 */\n      swap2\n      pop\n      pop\n        /* \"contracts/codeEater/Asg1.sol\":1756:1969  function greater(... */\n      swap4\n      swap3\n      pop\n      pop\n      pop\n      jump\t// out\n        /* \"contracts/codeEater/Asg1.sol\":3247:3544  function fibonnical(uint256 num) external {... */\n    tag_71:\n        /* \"contracts/codeEater/Asg1.sol\":3314:3315  0 */\n      0x00\n        /* \"contracts/codeEater/Asg1.sol\":3307:3310  num */\n      dup2\n        /* \"contracts/codeEater/Asg1.sol\":3307:3315  num != 0 */\n      sub\n        /* \"contracts/codeEater/Asg1.sol\":3299:3338  require(num != 0, \"not A valid number\") */\n      tag_174\n      jumpi\n      mload(0x40)\n      0x08c379a000000000000000000000000000000000000000000000000000000000\n      dup2\n      mstore\n      0x04\n      add\n      tag_175\n      swap1\n      tag_176\n      jump\t// in\n    tag_175:\n      mload(0x40)\n      dup1\n      swap2\n      sub\n      swap1\n      revert\n    tag_174:\n        /* \"contracts/codeEater/Asg1.sol\":3348:3359  uint256 tmp */\n      0x00\n        /* \"contracts/codeEater/Asg1.sol\":3362:3365  num */\n      dup2\n        /* \"contracts/codeEater/Asg1.sol\":3348:3365  uint256 tmp = num */\n      swap1\n      pop\n        /* \"contracts/codeEater/Asg1.sol\":3403:3538  while (tmp != 0) {... */\n    tag_177:\n        /* \"contracts/codeEater/Asg1.sol\":3417:3418  0 */\n      0x00\n        /* \"contracts/codeEater/Asg1.sol\":3410:3413  tmp */\n      dup2\n        /* \"contracts/codeEater/Asg1.sol\":3410:3418  tmp != 0 */\n      eq\n        /* \"contracts/codeEater/Asg1.sol\":3403:3538  while (tmp != 0) {... */\n      tag_178\n      jumpi\n        /* \"contracts/codeEater/Asg1.sol\":3434:3449  uint256 lastDig */\n      0x00\n        /* \"contracts/codeEater/Asg1.sol\":3458:3460  10 */\n      0x0a\n        /* \"contracts/codeEater/Asg1.sol\":3452:3455  tmp */\n      dup3\n        /* \"contracts/codeEater/Asg1.sol\":3452:3460  tmp % 10 */\n      tag_179\n      swap2\n      swap1\n      tag_93\n      jump\t// in\n    tag_179:\n        /* \"contracts/codeEater/Asg1.sol\":3434:3460  uint256 lastDig = tmp % 10 */\n      swap1\n      pop\n        /* \"contracts/codeEater/Asg1.sol\":3474:3480  holder */\n      0x00\n        /* \"contracts/codeEater/Asg1.sol\":3474:3490  holder[\"numArr\"] */\n      mload(0x40)\n      tag_180\n      swap1\n      tag_138\n      jump\t// in\n    tag_180:\n      swap1\n      dup2\n      mstore\n      0x20\n      add\n      mload(0x40)\n      dup1\n      swap2\n      sub\n      swap1\n      keccak256\n        /* \"contracts/codeEater/Asg1.sol\":3496:3503  lastDig */\n      dup2\n        /* \"contracts/codeEater/Asg1.sol\":3474:3504  holder[\"numArr\"].push(lastDig) */\n      swap1\n      dup1\n      0x01\n      dup2\n      sload\n      add\n      dup1\n      dup3\n      sstore\n      dup1\n      swap2\n      pop\n      pop\n      0x01\n      swap1\n      sub\n      swap1\n      0x00\n      mstore\n      keccak256(0x00, 0x20)\n      add\n      0x00\n      swap1\n      swap2\n      swap1\n      swap2\n      swap1\n      swap2\n      pop\n      sstore\n        /* \"contracts/codeEater/Asg1.sol\":3525:3527  10 */\n      0x0a\n        /* \"contracts/codeEater/Asg1.sol\":3518:3527  tmp /= 10 */\n      dup3\n      tag_182\n      swap2\n      swap1\n      tag_97\n      jump\t// in\n    tag_182:\n      swap2\n      pop\n        /* \"contracts/codeEater/Asg1.sol\":3420:3538  {... */\n      pop\n        /* \"contracts/codeEater/Asg1.sol\":3403:3538  while (tmp != 0) {... */\n      jump(tag_177)\n    tag_178:\n        /* \"contracts/codeEater/Asg1.sol\":3289:3544  {... */\n      pop\n        /* \"contracts/codeEater/Asg1.sol\":3247:3544  function fibonnical(uint256 num) external {... */\n      pop\n      jump\t// out\n        /* \"contracts/codeEater/Asg1.sol\":817:1059  function prime(int256 num) public pure returns (int256) {... */\n    tag_74:\n        /* \"contracts/codeEater/Asg1.sol\":865:871  int256 */\n      0x00\n        /* \"contracts/codeEater/Asg1.sol\":924:932  int256 i */\n      dup1\n        /* \"contracts/codeEater/Asg1.sol\":935:936  2 */\n      0x02\n        /* \"contracts/codeEater/Asg1.sol\":924:936  int256 i = 2 */\n      swap1\n      pop\n        /* \"contracts/codeEater/Asg1.sol\":919:1035  for (int256 i = 2; i < num; i++) {... */\n    tag_184:\n        /* \"contracts/codeEater/Asg1.sol\":942:945  num */\n      dup3\n        /* \"contracts/codeEater/Asg1.sol\":938:939  i */\n      dup2\n        /* \"contracts/codeEater/Asg1.sol\":938:945  i < num */\n      slt\n        /* \"contracts/codeEater/Asg1.sol\":919:1035  for (int256 i = 2; i < num; i++) {... */\n      iszero\n      tag_185\n      jumpi\n        /* \"contracts/codeEater/Asg1.sol\":981:982  0 */\n      0x00\n        /* \"contracts/codeEater/Asg1.sol\":976:977  i */\n      dup2\n        /* \"contracts/codeEater/Asg1.sol\":970:973  num */\n      dup5\n        /* \"contracts/codeEater/Asg1.sol\":970:977  num % i */\n      tag_187\n      swap2\n      swap1\n      tag_82\n      jump\t// in\n    tag_187:\n        /* \"contracts/codeEater/Asg1.sol\":970:982  num % i == 0 */\n      sub\n        /* \"contracts/codeEater/Asg1.sol\":966:1025  if (num % i == 0) {... */\n      tag_188\n      jumpi\n        /* \"contracts/codeEater/Asg1.sol\":1009:1010  0 */\n      0x00\n        /* \"contracts/codeEater/Asg1.sol\":1002:1010  return 0 */\n      swap2\n      pop\n      pop\n      jump(tag_183)\n        /* \"contracts/codeEater/Asg1.sol\":966:1025  if (num % i == 0) {... */\n    tag_188:\n        /* \"contracts/codeEater/Asg1.sol\":947:950  i++ */\n      dup1\n      dup1\n      tag_189\n      swap1\n      tag_190\n      jump\t// in\n    tag_189:\n      swap2\n      pop\n      pop\n        /* \"contracts/codeEater/Asg1.sol\":919:1035  for (int256 i = 2; i < num; i++) {... */\n      jump(tag_184)\n    tag_185:\n      pop\n        /* \"contracts/codeEater/Asg1.sol\":1051:1052  1 */\n      0x01\n        /* \"contracts/codeEater/Asg1.sol\":1044:1052  return 1 */\n      swap1\n      pop\n        /* \"contracts/codeEater/Asg1.sol\":817:1059  function prime(int256 num) public pure returns (int256) {... */\n    tag_183:\n      swap2\n      swap1\n      pop\n      jump\t// out\n        /* \"contracts/codeEater/Asg1.sol\":126:219  function cube(uint256 _num1) external pure returns (uint256) {... */\n    tag_78:\n        /* \"contracts/codeEater/Asg1.sol\":178:185  uint256 */\n      0x00\n        /* \"contracts/codeEater/Asg1.sol\":211:212  2 */\n      0x02\n        /* \"contracts/codeEater/Asg1.sol\":204:209  _num1 */\n      dup3\n        /* \"contracts/codeEater/Asg1.sol\":204:212  _num1**2 */\n      tag_192\n      swap2\n      swap1\n      tag_193\n      jump\t// in\n    tag_192:\n        /* \"contracts/codeEater/Asg1.sol\":197:212  return _num1**2 */\n      swap1\n      pop\n        /* \"contracts/codeEater/Asg1.sol\":126:219  function cube(uint256 _num1) external pure returns (uint256) {... */\n      swap2\n      swap1\n      pop\n      jump\t// out\n        /* \"#utility.yul\":88:205   */\n    tag_195:\n        /* \"#utility.yul\":197:198   */\n      0x00\n        /* \"#utility.yul\":194:195   */\n      dup1\n        /* \"#utility.yul\":187:199   */\n      revert\n        /* \"#utility.yul\":334:410   */\n    tag_197:\n        /* \"#utility.yul\":370:377   */\n      0x00\n        /* \"#utility.yul\":399:404   */\n      dup2\n        /* \"#utility.yul\":388:404   */\n      swap1\n      pop\n        /* \"#utility.yul\":334:410   */\n      swap2\n      swap1\n      pop\n      jump\t// out\n        /* \"#utility.yul\":416:536   */\n    tag_198:\n        /* \"#utility.yul\":488:511   */\n      tag_229\n        /* \"#utility.yul\":505:510   */\n      dup2\n        /* \"#utility.yul\":488:511   */\n      tag_197\n      jump\t// in\n    tag_229:\n        /* \"#utility.yul\":481:486   */\n      dup2\n        /* \"#utility.yul\":478:512   */\n      eq\n        /* \"#utility.yul\":468:530   */\n      tag_230\n      jumpi\n        /* \"#utility.yul\":526:527   */\n      0x00\n        /* \"#utility.yul\":523:524   */\n      dup1\n        /* \"#utility.yul\":516:528   */\n      revert\n        /* \"#utility.yul\":468:530   */\n    tag_230:\n        /* \"#utility.yul\":416:536   */\n      pop\n      jump\t// out\n        /* \"#utility.yul\":542:679   */\n    tag_199:\n        /* \"#utility.yul\":587:592   */\n      0x00\n        /* \"#utility.yul\":625:631   */\n      dup2\n        /* \"#utility.yul\":612:632   */\n      calldataload\n        /* \"#utility.yul\":603:632   */\n      swap1\n      pop\n        /* \"#utility.yul\":641:673   */\n      tag_232\n        /* \"#utility.yul\":667:672   */\n      dup2\n        /* \"#utility.yul\":641:673   */\n      tag_198\n      jump\t// in\n    tag_232:\n        /* \"#utility.yul\":542:679   */\n      swap3\n      swap2\n      pop\n      pop\n      jump\t// out\n        /* \"#utility.yul\":685:1012   */\n    tag_22:\n        /* \"#utility.yul\":743:749   */\n      0x00\n        /* \"#utility.yul\":792:794   */\n      0x20\n        /* \"#utility.yul\":780:789   */\n      dup3\n        /* \"#utility.yul\":771:778   */\n      dup5\n        /* \"#utility.yul\":767:790   */\n      sub\n        /* \"#utility.yul\":763:795   */\n      slt\n        /* \"#utility.yul\":760:879   */\n      iszero\n      tag_234\n      jumpi\n        /* \"#utility.yul\":798:877   */\n      tag_235\n      tag_195\n      jump\t// in\n    tag_235:\n        /* \"#utility.yul\":760:879   */\n    tag_234:\n        /* \"#utility.yul\":918:919   */\n      0x00\n        /* \"#utility.yul\":943:995   */\n      tag_236\n        /* \"#utility.yul\":987:994   */\n      dup5\n        /* \"#utility.yul\":978:984   */\n      dup3\n        /* \"#utility.yul\":967:976   */\n      dup6\n        /* \"#utility.yul\":963:985   */\n      add\n        /* \"#utility.yul\":943:995   */\n      tag_199\n      jump\t// in\n    tag_236:\n        /* \"#utility.yul\":933:995   */\n      swap2\n      pop\n        /* \"#utility.yul\":889:1005   */\n      pop\n        /* \"#utility.yul\":685:1012   */\n      swap3\n      swap2\n      pop\n      pop\n      jump\t// out\n        /* \"#utility.yul\":1018:1117   */\n    tag_200:\n        /* \"#utility.yul\":1070:1076   */\n      0x00\n        /* \"#utility.yul\":1104:1109   */\n      dup2\n        /* \"#utility.yul\":1098:1110   */\n      mload\n        /* \"#utility.yul\":1088:1110   */\n      swap1\n      pop\n        /* \"#utility.yul\":1018:1117   */\n      swap2\n      swap1\n      pop\n      jump\t// out\n        /* \"#utility.yul\":1123:1292   */\n    tag_201:\n        /* \"#utility.yul\":1207:1218   */\n      0x00\n        /* \"#utility.yul\":1241:1247   */\n      dup3\n        /* \"#utility.yul\":1236:1239   */\n      dup3\n        /* \"#utility.yul\":1229:1248   */\n      mstore\n        /* \"#utility.yul\":1281:1285   */\n      0x20\n        /* \"#utility.yul\":1276:1279   */\n      dup3\n        /* \"#utility.yul\":1272:1286   */\n      add\n        /* \"#utility.yul\":1257:1286   */\n      swap1\n      pop\n        /* \"#utility.yul\":1123:1292   */\n      swap3\n      swap2\n      pop\n      pop\n      jump\t// out\n        /* \"#utility.yul\":1298:1544   */\n    tag_202:\n        /* \"#utility.yul\":1379:1380   */\n      0x00\n        /* \"#utility.yul\":1389:1502   */\n    tag_240:\n        /* \"#utility.yul\":1403:1409   */\n      dup4\n        /* \"#utility.yul\":1400:1401   */\n      dup2\n        /* \"#utility.yul\":1397:1410   */\n      lt\n        /* \"#utility.yul\":1389:1502   */\n      iszero\n      tag_242\n      jumpi\n        /* \"#utility.yul\":1488:1489   */\n      dup1\n        /* \"#utility.yul\":1483:1486   */\n      dup3\n        /* \"#utility.yul\":1479:1490   */\n      add\n        /* \"#utility.yul\":1473:1491   */\n      mload\n        /* \"#utility.yul\":1469:1470   */\n      dup2\n        /* \"#utility.yul\":1464:1467   */\n      dup5\n        /* \"#utility.yul\":1460:1471   */\n      add\n        /* \"#utility.yul\":1453:1492   */\n      mstore\n        /* \"#utility.yul\":1425:1427   */\n      0x20\n        /* \"#utility.yul\":1422:1423   */\n      dup2\n        /* \"#utility.yul\":1418:1428   */\n      add\n        /* \"#utility.yul\":1413:1428   */\n      swap1\n      pop\n        /* \"#utility.yul\":1389:1502   */\n      jump(tag_240)\n    tag_242:\n        /* \"#utility.yul\":1536:1537   */\n      0x00\n        /* \"#utility.yul\":1527:1533   */\n      dup5\n        /* \"#utility.yul\":1522:1525   */\n      dup5\n        /* \"#utility.yul\":1518:1534   */\n      add\n        /* \"#utility.yul\":1511:1538   */\n      mstore\n        /* \"#utility.yul\":1360:1544   */\n      pop\n        /* \"#utility.yul\":1298:1544   */\n      pop\n      pop\n      pop\n      jump\t// out\n        /* \"#utility.yul\":1550:1652   */\n    tag_203:\n        /* \"#utility.yul\":1591:1597   */\n      0x00\n        /* \"#utility.yul\":1642:1644   */\n      0x1f\n        /* \"#utility.yul\":1638:1645   */\n      not\n        /* \"#utility.yul\":1633:1635   */\n      0x1f\n        /* \"#utility.yul\":1626:1631   */\n      dup4\n        /* \"#utility.yul\":1622:1636   */\n      add\n        /* \"#utility.yul\":1618:1646   */\n      and\n        /* \"#utility.yul\":1608:1646   */\n      swap1\n      pop\n        /* \"#utility.yul\":1550:1652   */\n      swap2\n      swap1\n      pop\n      jump\t// out\n        /* \"#utility.yul\":1658:2035   */\n    tag_204:\n        /* \"#utility.yul\":1746:1749   */\n      0x00\n        /* \"#utility.yul\":1774:1813   */\n      tag_245\n        /* \"#utility.yul\":1807:1812   */\n      dup3\n        /* \"#utility.yul\":1774:1813   */\n      tag_200\n      jump\t// in\n    tag_245:\n        /* \"#utility.yul\":1829:1900   */\n      tag_246\n        /* \"#utility.yul\":1893:1899   */\n      dup2\n        /* \"#utility.yul\":1888:1891   */\n      dup6\n        /* \"#utility.yul\":1829:1900   */\n      tag_201\n      jump\t// in\n    tag_246:\n        /* \"#utility.yul\":1822:1900   */\n      swap4\n      pop\n        /* \"#utility.yul\":1909:1974   */\n      tag_247\n        /* \"#utility.yul\":1967:1973   */\n      dup2\n        /* \"#utility.yul\":1962:1965   */\n      dup6\n        /* \"#utility.yul\":1955:1959   */\n      0x20\n        /* \"#utility.yul\":1948:1953   */\n      dup7\n        /* \"#utility.yul\":1944:1960   */\n      add\n        /* \"#utility.yul\":1909:1974   */\n      tag_202\n      jump\t// in\n    tag_247:\n        /* \"#utility.yul\":1999:2028   */\n      tag_248\n        /* \"#utility.yul\":2021:2027   */\n      dup2\n        /* \"#utility.yul\":1999:2028   */\n      tag_203\n      jump\t// in\n    tag_248:\n        /* \"#utility.yul\":1994:1997   */\n      dup5\n        /* \"#utility.yul\":1990:2029   */\n      add\n        /* \"#utility.yul\":1983:2029   */\n      swap2\n      pop\n        /* \"#utility.yul\":1750:2035   */\n      pop\n        /* \"#utility.yul\":1658:2035   */\n      swap3\n      swap2\n      pop\n      pop\n      jump\t// out\n        /* \"#utility.yul\":2041:2354   */\n    tag_25:\n        /* \"#utility.yul\":2154:2158   */\n      0x00\n        /* \"#utility.yul\":2192:2194   */\n      0x20\n        /* \"#utility.yul\":2181:2190   */\n      dup3\n        /* \"#utility.yul\":2177:2195   */\n      add\n        /* \"#utility.yul\":2169:2195   */\n      swap1\n      pop\n        /* \"#utility.yul\":2241:2250   */\n      dup2\n        /* \"#utility.yul\":2235:2239   */\n      dup2\n        /* \"#utility.yul\":2231:2251   */\n      sub\n        /* \"#utility.yul\":2227:2228   */\n      0x00\n        /* \"#utility.yul\":2216:2225   */\n      dup4\n        /* \"#utility.yul\":2212:2229   */\n      add\n        /* \"#utility.yul\":2205:2252   */\n      mstore\n        /* \"#utility.yul\":2269:2347   */\n      tag_250\n        /* \"#utility.yul\":2342:2346   */\n      dup2\n        /* \"#utility.yul\":2333:2339   */\n      dup5\n        /* \"#utility.yul\":2269:2347   */\n      tag_204\n      jump\t// in\n    tag_250:\n        /* \"#utility.yul\":2261:2347   */\n      swap1\n      pop\n        /* \"#utility.yul\":2041:2354   */\n      swap3\n      swap2\n      pop\n      pop\n      jump\t// out\n        /* \"#utility.yul\":2360:2437   */\n    tag_205:\n        /* \"#utility.yul\":2397:2404   */\n      0x00\n        /* \"#utility.yul\":2426:2431   */\n      dup2\n        /* \"#utility.yul\":2415:2431   */\n      swap1\n      pop\n        /* \"#utility.yul\":2360:2437   */\n      swap2\n      swap1\n      pop\n      jump\t// out\n        /* \"#utility.yul\":2443:2565   */\n    tag_206:\n        /* \"#utility.yul\":2516:2540   */\n      tag_253\n        /* \"#utility.yul\":2534:2539   */\n      dup2\n        /* \"#utility.yul\":2516:2540   */\n      tag_205\n      jump\t// in\n    tag_253:\n        /* \"#utility.yul\":2509:2514   */\n      dup2\n        /* \"#utility.yul\":2506:2541   */\n      eq\n        /* \"#utility.yul\":2496:2559   */\n      tag_254\n      jumpi\n        /* \"#utility.yul\":2555:2556   */\n      0x00\n        /* \"#utility.yul\":2552:2553   */\n      dup1\n        /* \"#utility.yul\":2545:2557   */\n      revert\n        /* \"#utility.yul\":2496:2559   */\n    tag_254:\n        /* \"#utility.yul\":2443:2565   */\n      pop\n      jump\t// out\n        /* \"#utility.yul\":2571:2710   */\n    tag_207:\n        /* \"#utility.yul\":2617:2622   */\n      0x00\n        /* \"#utility.yul\":2655:2661   */\n      dup2\n        /* \"#utility.yul\":2642:2662   */\n      calldataload\n        /* \"#utility.yul\":2633:2662   */\n      swap1\n      pop\n        /* \"#utility.yul\":2671:2704   */\n      tag_256\n        /* \"#utility.yul\":2698:2703   */\n      dup2\n        /* \"#utility.yul\":2671:2704   */\n      tag_206\n      jump\t// in\n    tag_256:\n        /* \"#utility.yul\":2571:2710   */\n      swap3\n      swap2\n      pop\n      pop\n      jump\t// out\n        /* \"#utility.yul\":2716:3190   */\n    tag_28:\n        /* \"#utility.yul\":2784:2790   */\n      0x00\n        /* \"#utility.yul\":2792:2798   */\n      dup1\n        /* \"#utility.yul\":2841:2843   */\n      0x40\n        /* \"#utility.yul\":2829:2838   */\n      dup4\n        /* \"#utility.yul\":2820:2827   */\n      dup6\n        /* \"#utility.yul\":2816:2839   */\n      sub\n        /* \"#utility.yul\":2812:2844   */\n      slt\n        /* \"#utility.yul\":2809:2928   */\n      iszero\n      tag_258\n      jumpi\n        /* \"#utility.yul\":2847:2926   */\n      tag_259\n      tag_195\n      jump\t// in\n    tag_259:\n        /* \"#utility.yul\":2809:2928   */\n    tag_258:\n        /* \"#utility.yul\":2967:2968   */\n      0x00\n        /* \"#utility.yul\":2992:3045   */\n      tag_260\n        /* \"#utility.yul\":3037:3044   */\n      dup6\n        /* \"#utility.yul\":3028:3034   */\n      dup3\n        /* \"#utility.yul\":3017:3026   */\n      dup7\n        /* \"#utility.yul\":3013:3035   */\n      add\n        /* \"#utility.yul\":2992:3045   */\n      tag_207\n      jump\t// in\n    tag_260:\n        /* \"#utility.yul\":2982:3045   */\n      swap3\n      pop\n        /* \"#utility.yul\":2938:3055   */\n      pop\n        /* \"#utility.yul\":3094:3096   */\n      0x20\n        /* \"#utility.yul\":3120:3173   */\n      tag_261\n        /* \"#utility.yul\":3165:3172   */\n      dup6\n        /* \"#utility.yul\":3156:3162   */\n      dup3\n        /* \"#utility.yul\":3145:3154   */\n      dup7\n        /* \"#utility.yul\":3141:3163   */\n      add\n        /* \"#utility.yul\":3120:3173   */\n      tag_207\n      jump\t// in\n    tag_261:\n        /* \"#utility.yul\":3110:3173   */\n      swap2\n      pop\n        /* \"#utility.yul\":3065:3183   */\n      pop\n        /* \"#utility.yul\":2716:3190   */\n      swap3\n      pop\n      swap3\n      swap1\n      pop\n      jump\t// out\n        /* \"#utility.yul\":3196:3314   */\n    tag_208:\n        /* \"#utility.yul\":3283:3307   */\n      tag_263\n        /* \"#utility.yul\":3301:3306   */\n      dup2\n        /* \"#utility.yul\":3283:3307   */\n      tag_205\n      jump\t// in\n    tag_263:\n        /* \"#utility.yul\":3278:3281   */\n      dup3\n        /* \"#utility.yul\":3271:3308   */\n      mstore\n        /* \"#utility.yul\":3196:3314   */\n      pop\n      pop\n      jump\t// out\n        /* \"#utility.yul\":3320:3542   */\n    tag_31:\n        /* \"#utility.yul\":3413:3417   */\n      0x00\n        /* \"#utility.yul\":3451:3453   */\n      0x20\n        /* \"#utility.yul\":3440:3449   */\n      dup3\n        /* \"#utility.yul\":3436:3454   */\n      add\n        /* \"#utility.yul\":3428:3454   */\n      swap1\n      pop\n        /* \"#utility.yul\":3464:3535   */\n      tag_265\n        /* \"#utility.yul\":3532:3533   */\n      0x00\n        /* \"#utility.yul\":3521:3530   */\n      dup4\n        /* \"#utility.yul\":3517:3534   */\n      add\n        /* \"#utility.yul\":3508:3514   */\n      dup5\n        /* \"#utility.yul\":3464:3535   */\n      tag_208\n      jump\t// in\n    tag_265:\n        /* \"#utility.yul\":3320:3542   */\n      swap3\n      swap2\n      pop\n      pop\n      jump\t// out\n        /* \"#utility.yul\":3548:3877   */\n    tag_36:\n        /* \"#utility.yul\":3607:3613   */\n      0x00\n        /* \"#utility.yul\":3656:3658   */\n      0x20\n        /* \"#utility.yul\":3644:3653   */\n      dup3\n        /* \"#utility.yul\":3635:3642   */\n      dup5\n        /* \"#utility.yul\":3631:3654   */\n      sub\n        /* \"#utility.yul\":3627:3659   */\n      slt\n        /* \"#utility.yul\":3624:3743   */\n      iszero\n      tag_267\n      jumpi\n        /* \"#utility.yul\":3662:3741   */\n      tag_268\n      tag_195\n      jump\t// in\n    tag_268:\n        /* \"#utility.yul\":3624:3743   */\n    tag_267:\n        /* \"#utility.yul\":3782:3783   */\n      0x00\n        /* \"#utility.yul\":3807:3860   */\n      tag_269\n        /* \"#utility.yul\":3852:3859   */\n      dup5\n        /* \"#utility.yul\":3843:3849   */\n      dup3\n        /* \"#utility.yul\":3832:3841   */\n      dup6\n        /* \"#utility.yul\":3828:3850   */\n      add\n        /* \"#utility.yul\":3807:3860   */\n      tag_207\n      jump\t// in\n    tag_269:\n        /* \"#utility.yul\":3797:3860   */\n      swap2\n      pop\n        /* \"#utility.yul\":3753:3870   */\n      pop\n        /* \"#utility.yul\":3548:3877   */\n      swap3\n      swap2\n      pop\n      pop\n      jump\t// out\n        /* \"#utility.yul\":3883:4502   */\n    tag_49:\n        /* \"#utility.yul\":3960:3966   */\n      0x00\n        /* \"#utility.yul\":3968:3974   */\n      dup1\n        /* \"#utility.yul\":3976:3982   */\n      0x00\n        /* \"#utility.yul\":4025:4027   */\n      0x60\n        /* \"#utility.yul\":4013:4022   */\n      dup5\n        /* \"#utility.yul\":4004:4011   */\n      dup7\n        /* \"#utility.yul\":4000:4023   */\n      sub\n        /* \"#utility.yul\":3996:4028   */\n      slt\n        /* \"#utility.yul\":3993:4112   */\n      iszero\n      tag_271\n      jumpi\n        /* \"#utility.yul\":4031:4110   */\n      tag_272\n      tag_195\n      jump\t// in\n    tag_272:\n        /* \"#utility.yul\":3993:4112   */\n    tag_271:\n        /* \"#utility.yul\":4151:4152   */\n      0x00\n        /* \"#utility.yul\":4176:4229   */\n      tag_273\n        /* \"#utility.yul\":4221:4228   */\n      dup7\n        /* \"#utility.yul\":4212:4218   */\n      dup3\n        /* \"#utility.yul\":4201:4210   */\n      dup8\n        /* \"#utility.yul\":4197:4219   */\n      add\n        /* \"#utility.yul\":4176:4229   */\n      tag_207\n      jump\t// in\n    tag_273:\n        /* \"#utility.yul\":4166:4229   */\n      swap4\n      pop\n        /* \"#utility.yul\":4122:4239   */\n      pop\n        /* \"#utility.yul\":4278:4280   */\n      0x20\n        /* \"#utility.yul\":4304:4357   */\n      tag_274\n        /* \"#utility.yul\":4349:4356   */\n      dup7\n        /* \"#utility.yul\":4340:4346   */\n      dup3\n        /* \"#utility.yul\":4329:4338   */\n      dup8\n        /* \"#utility.yul\":4325:4347   */\n      add\n        /* \"#utility.yul\":4304:4357   */\n      tag_207\n      jump\t// in\n    tag_274:\n        /* \"#utility.yul\":4294:4357   */\n      swap3\n      pop\n        /* \"#utility.yul\":4249:4367   */\n      pop\n        /* \"#utility.yul\":4406:4408   */\n      0x40\n        /* \"#utility.yul\":4432:4485   */\n      tag_275\n        /* \"#utility.yul\":4477:4484   */\n      dup7\n        /* \"#utility.yul\":4468:4474   */\n      dup3\n        /* \"#utility.yul\":4457:4466   */\n      dup8\n        /* \"#utility.yul\":4453:4475   */\n      add\n        /* \"#utility.yul\":4432:4485   */\n      tag_207\n      jump\t// in\n    tag_275:\n        /* \"#utility.yul\":4422:4485   */\n      swap2\n      pop\n        /* \"#utility.yul\":4377:4495   */\n      pop\n        /* \"#utility.yul\":3883:4502   */\n      swap3\n      pop\n      swap3\n      pop\n      swap3\n      jump\t// out\n        /* \"#utility.yul\":4508:5121   */\n    tag_65:\n        /* \"#utility.yul\":4582:4588   */\n      0x00\n        /* \"#utility.yul\":4590:4596   */\n      dup1\n        /* \"#utility.yul\":4598:4604   */\n      0x00\n        /* \"#utility.yul\":4647:4649   */\n      0x60\n        /* \"#utility.yul\":4635:4644   */\n      dup5\n        /* \"#utility.yul\":4626:4633   */\n      dup7\n        /* \"#utility.yul\":4622:4645   */\n      sub\n        /* \"#utility.yul\":4618:4650   */\n      slt\n        /* \"#utility.yul\":4615:4734   */\n      iszero\n      tag_277\n      jumpi\n        /* \"#utility.yul\":4653:4732   */\n      tag_278\n      tag_195\n      jump\t// in\n    tag_278:\n        /* \"#utility.yul\":4615:4734   */\n    tag_277:\n        /* \"#utility.yul\":4773:4774   */\n      0x00\n        /* \"#utility.yul\":4798:4850   */\n      tag_279\n        /* \"#utility.yul\":4842:4849   */\n      dup7\n        /* \"#utility.yul\":4833:4839   */\n      dup3\n        /* \"#utility.yul\":4822:4831   */\n      dup8\n        /* \"#utility.yul\":4818:4840   */\n      add\n        /* \"#utility.yul\":4798:4850   */\n      tag_199\n      jump\t// in\n    tag_279:\n        /* \"#utility.yul\":4788:4850   */\n      swap4\n      pop\n        /* \"#utility.yul\":4744:4860   */\n      pop\n        /* \"#utility.yul\":4899:4901   */\n      0x20\n        /* \"#utility.yul\":4925:4977   */\n      tag_280\n        /* \"#utility.yul\":4969:4976   */\n      dup7\n        /* \"#utility.yul\":4960:4966   */\n      dup3\n        /* \"#utility.yul\":4949:4958   */\n      dup8\n        /* \"#utility.yul\":4945:4967   */\n      add\n        /* \"#utility.yul\":4925:4977   */\n      tag_199\n      jump\t// in\n    tag_280:\n        /* \"#utility.yul\":4915:4977   */\n      swap3\n      pop\n        /* \"#utility.yul\":4870:4987   */\n      pop\n        /* \"#utility.yul\":5026:5028   */\n      0x40\n        /* \"#utility.yul\":5052:5104   */\n      tag_281\n        /* \"#utility.yul\":5096:5103   */\n      dup7\n        /* \"#utility.yul\":5087:5093   */\n      dup3\n        /* \"#utility.yul\":5076:5085   */\n      dup8\n        /* \"#utility.yul\":5072:5094   */\n      add\n        /* \"#utility.yul\":5052:5104   */\n      tag_199\n      jump\t// in\n    tag_281:\n        /* \"#utility.yul\":5042:5104   */\n      swap2\n      pop\n        /* \"#utility.yul\":4997:5114   */\n      pop\n        /* \"#utility.yul\":4508:5121   */\n      swap3\n      pop\n      swap3\n      pop\n      swap3\n      jump\t// out\n        /* \"#utility.yul\":5127:5242   */\n    tag_209:\n        /* \"#utility.yul\":5212:5235   */\n      tag_283\n        /* \"#utility.yul\":5229:5234   */\n      dup2\n        /* \"#utility.yul\":5212:5235   */\n      tag_197\n      jump\t// in\n    tag_283:\n        /* \"#utility.yul\":5207:5210   */\n      dup3\n        /* \"#utility.yul\":5200:5236   */\n      mstore\n        /* \"#utility.yul\":5127:5242   */\n      pop\n      pop\n      jump\t// out\n        /* \"#utility.yul\":5248:5466   */\n    tag_68:\n        /* \"#utility.yul\":5339:5343   */\n      0x00\n        /* \"#utility.yul\":5377:5379   */\n      0x20\n        /* \"#utility.yul\":5366:5375   */\n      dup3\n        /* \"#utility.yul\":5362:5380   */\n      add\n        /* \"#utility.yul\":5354:5380   */\n      swap1\n      pop\n        /* \"#utility.yul\":5390:5459   */\n      tag_285\n        /* \"#utility.yul\":5456:5457   */\n      0x00\n        /* \"#utility.yul\":5445:5454   */\n      dup4\n        /* \"#utility.yul\":5441:5458   */\n      add\n        /* \"#utility.yul\":5432:5438   */\n      dup5\n        /* \"#utility.yul\":5390:5459   */\n      tag_209\n      jump\t// in\n    tag_285:\n        /* \"#utility.yul\":5248:5466   */\n      swap3\n      swap2\n      pop\n      pop\n      jump\t// out\n        /* \"#utility.yul\":5472:5652   */\n    tag_210:\n        /* \"#utility.yul\":5520:5597   */\n      0x4e487b7100000000000000000000000000000000000000000000000000000000\n        /* \"#utility.yul\":5517:5518   */\n      0x00\n        /* \"#utility.yul\":5510:5598   */\n      mstore\n        /* \"#utility.yul\":5617:5621   */\n      0x12\n        /* \"#utility.yul\":5614:5615   */\n      0x04\n        /* \"#utility.yul\":5607:5622   */\n      mstore\n        /* \"#utility.yul\":5641:5645   */\n      0x24\n        /* \"#utility.yul\":5638:5639   */\n      0x00\n        /* \"#utility.yul\":5631:5646   */\n      revert\n        /* \"#utility.yul\":5658:5832   */\n    tag_82:\n        /* \"#utility.yul\":5689:5690   */\n      0x00\n        /* \"#utility.yul\":5706:5725   */\n      tag_288\n        /* \"#utility.yul\":5723:5724   */\n      dup3\n        /* \"#utility.yul\":5706:5725   */\n      tag_197\n      jump\t// in\n    tag_288:\n        /* \"#utility.yul\":5701:5725   */\n      swap2\n      pop\n        /* \"#utility.yul\":5739:5758   */\n      tag_289\n        /* \"#utility.yul\":5756:5757   */\n      dup4\n        /* \"#utility.yul\":5739:5758   */\n      tag_197\n      jump\t// in\n    tag_289:\n        /* \"#utility.yul\":5734:5758   */\n      swap3\n      pop\n        /* \"#utility.yul\":5777:5778   */\n      dup3\n        /* \"#utility.yul\":5767:5802   */\n      tag_290\n      jumpi\n        /* \"#utility.yul\":5782:5800   */\n      tag_291\n      tag_210\n      jump\t// in\n    tag_291:\n        /* \"#utility.yul\":5767:5802   */\n    tag_290:\n        /* \"#utility.yul\":5824:5825   */\n      dup3\n        /* \"#utility.yul\":5821:5822   */\n      dup3\n        /* \"#utility.yul\":5816:5826   */\n      smod\n        /* \"#utility.yul\":5811:5826   */\n      swap1\n      pop\n        /* \"#utility.yul\":5658:5832   */\n      swap3\n      swap2\n      pop\n      pop\n      jump\t// out\n        /* \"#utility.yul\":5838:6018   */\n    tag_211:\n        /* \"#utility.yul\":5886:5963   */\n      0x4e487b7100000000000000000000000000000000000000000000000000000000\n        /* \"#utility.yul\":5883:5884   */\n      0x00\n        /* \"#utility.yul\":5876:5964   */\n      mstore\n        /* \"#utility.yul\":5983:5987   */\n      0x11\n        /* \"#utility.yul\":5980:5981   */\n      0x04\n        /* \"#utility.yul\":5973:5988   */\n      mstore\n        /* \"#utility.yul\":6007:6011   */\n      0x24\n        /* \"#utility.yul\":6004:6005   */\n      0x00\n        /* \"#utility.yul\":5997:6012   */\n      revert\n        /* \"#utility.yul\":6024:6126   */\n    tag_212:\n        /* \"#utility.yul\":6066:6074   */\n      0x00\n        /* \"#utility.yul\":6113:6118   */\n      dup2\n        /* \"#utility.yul\":6110:6111   */\n      0x01\n        /* \"#utility.yul\":6106:6119   */\n      shr\n        /* \"#utility.yul\":6085:6119   */\n      swap1\n      pop\n        /* \"#utility.yul\":6024:6126   */\n      swap2\n      swap1\n      pop\n      jump\t// out\n        /* \"#utility.yul\":6132:6980   */\n    tag_213:\n        /* \"#utility.yul\":6193:6198   */\n      0x00\n        /* \"#utility.yul\":6200:6204   */\n      dup1\n        /* \"#utility.yul\":6224:6230   */\n      dup3\n        /* \"#utility.yul\":6215:6230   */\n      swap2\n      pop\n        /* \"#utility.yul\":6248:6253   */\n      dup4\n        /* \"#utility.yul\":6239:6253   */\n      swap1\n      pop\n        /* \"#utility.yul\":6262:6974   */\n    tag_295:\n        /* \"#utility.yul\":6283:6284   */\n      0x01\n        /* \"#utility.yul\":6273:6281   */\n      dup6\n        /* \"#utility.yul\":6270:6285   */\n      gt\n        /* \"#utility.yul\":6262:6974   */\n      iszero\n      tag_297\n      jumpi\n        /* \"#utility.yul\":6378:6382   */\n      dup1\n        /* \"#utility.yul\":6373:6376   */\n      dup7\n        /* \"#utility.yul\":6369:6383   */\n      div\n        /* \"#utility.yul\":6363:6367   */\n      dup2\n        /* \"#utility.yul\":6360:6384   */\n      gt\n        /* \"#utility.yul\":6357:6407   */\n      iszero\n      tag_298\n      jumpi\n        /* \"#utility.yul\":6387:6405   */\n      tag_299\n      tag_211\n      jump\t// in\n    tag_299:\n        /* \"#utility.yul\":6357:6407   */\n    tag_298:\n        /* \"#utility.yul\":6437:6438   */\n      0x01\n        /* \"#utility.yul\":6427:6435   */\n      dup6\n        /* \"#utility.yul\":6423:6439   */\n      and\n        /* \"#utility.yul\":6420:6871   */\n      iszero\n      tag_300\n      jumpi\n        /* \"#utility.yul\":6852:6856   */\n      dup1\n        /* \"#utility.yul\":6845:6850   */\n      dup3\n        /* \"#utility.yul\":6841:6857   */\n      mul\n        /* \"#utility.yul\":6832:6857   */\n      swap2\n      pop\n        /* \"#utility.yul\":6420:6871   */\n    tag_300:\n        /* \"#utility.yul\":6902:6906   */\n      dup1\n        /* \"#utility.yul\":6896:6900   */\n      dup2\n        /* \"#utility.yul\":6892:6907   */\n      mul\n        /* \"#utility.yul\":6884:6907   */\n      swap1\n      pop\n        /* \"#utility.yul\":6932:6964   */\n      tag_301\n        /* \"#utility.yul\":6955:6963   */\n      dup6\n        /* \"#utility.yul\":6932:6964   */\n      tag_212\n      jump\t// in\n    tag_301:\n        /* \"#utility.yul\":6920:6964   */\n      swap5\n      pop\n        /* \"#utility.yul\":6262:6974   */\n      jump(tag_295)\n    tag_297:\n        /* \"#utility.yul\":6132:6980   */\n      swap5\n      pop\n      swap5\n      swap3\n      pop\n      pop\n      pop\n      jump\t// out\n        /* \"#utility.yul\":6986:8059   */\n    tag_214:\n        /* \"#utility.yul\":7040:7045   */\n      0x00\n        /* \"#utility.yul\":7231:7239   */\n      dup3\n        /* \"#utility.yul\":7221:7261   */\n      tag_303\n      jumpi\n        /* \"#utility.yul\":7252:7253   */\n      0x01\n        /* \"#utility.yul\":7243:7253   */\n      swap1\n      pop\n        /* \"#utility.yul\":7254:7259   */\n      jump(tag_302)\n        /* \"#utility.yul\":7221:7261   */\n    tag_303:\n        /* \"#utility.yul\":7280:7284   */\n      dup2\n        /* \"#utility.yul\":7270:7306   */\n      tag_304\n      jumpi\n        /* \"#utility.yul\":7297:7298   */\n      0x00\n        /* \"#utility.yul\":7288:7298   */\n      swap1\n      pop\n        /* \"#utility.yul\":7299:7304   */\n      jump(tag_302)\n        /* \"#utility.yul\":7270:7306   */\n    tag_304:\n        /* \"#utility.yul\":7366:7370   */\n      dup2\n        /* \"#utility.yul\":7414:7415   */\n      0x01\n        /* \"#utility.yul\":7409:7436   */\n      dup2\n      eq\n      tag_306\n      jumpi\n        /* \"#utility.yul\":7450:7451   */\n      0x02\n        /* \"#utility.yul\":7445:7636   */\n      dup2\n      eq\n      tag_307\n      jumpi\n        /* \"#utility.yul\":7359:7636   */\n      jump(tag_305)\n        /* \"#utility.yul\":7409:7436   */\n    tag_306:\n        /* \"#utility.yul\":7427:7428   */\n      0x01\n        /* \"#utility.yul\":7418:7428   */\n      swap2\n      pop\n        /* \"#utility.yul\":7429:7434   */\n      pop\n      jump(tag_302)\n        /* \"#utility.yul\":7445:7636   */\n    tag_307:\n        /* \"#utility.yul\":7490:7493   */\n      0xff\n        /* \"#utility.yul\":7480:7488   */\n      dup5\n        /* \"#utility.yul\":7477:7494   */\n      gt\n        /* \"#utility.yul\":7474:7517   */\n      iszero\n      tag_308\n      jumpi\n        /* \"#utility.yul\":7497:7515   */\n      tag_309\n      tag_211\n      jump\t// in\n    tag_309:\n        /* \"#utility.yul\":7474:7517   */\n    tag_308:\n        /* \"#utility.yul\":7546:7554   */\n      dup4\n        /* \"#utility.yul\":7543:7544   */\n      0x02\n        /* \"#utility.yul\":7539:7555   */\n      exp\n        /* \"#utility.yul\":7530:7555   */\n      swap2\n      pop\n        /* \"#utility.yul\":7581:7584   */\n      dup5\n        /* \"#utility.yul\":7574:7579   */\n      dup3\n        /* \"#utility.yul\":7571:7585   */\n      gt\n        /* \"#utility.yul\":7568:7608   */\n      iszero\n      tag_310\n      jumpi\n        /* \"#utility.yul\":7588:7606   */\n      tag_311\n      tag_211\n      jump\t// in\n    tag_311:\n        /* \"#utility.yul\":7568:7608   */\n    tag_310:\n        /* \"#utility.yul\":7621:7626   */\n      pop\n      jump(tag_302)\n        /* \"#utility.yul\":7359:7636   */\n    tag_305:\n      pop\n        /* \"#utility.yul\":7745:7747   */\n      0x20\n        /* \"#utility.yul\":7735:7743   */\n      dup4\n        /* \"#utility.yul\":7732:7748   */\n      lt\n        /* \"#utility.yul\":7726:7729   */\n      0x0133\n        /* \"#utility.yul\":7720:7724   */\n      dup4\n        /* \"#utility.yul\":7717:7730   */\n      lt\n        /* \"#utility.yul\":7713:7749   */\n      and\n        /* \"#utility.yul\":7695:7697   */\n      0x4e\n        /* \"#utility.yul\":7685:7693   */\n      dup5\n        /* \"#utility.yul\":7682:7698   */\n      lt\n        /* \"#utility.yul\":7677:7679   */\n      0x0b\n        /* \"#utility.yul\":7671:7675   */\n      dup5\n        /* \"#utility.yul\":7668:7680   */\n      lt\n        /* \"#utility.yul\":7664:7699   */\n      and\n        /* \"#utility.yul\":7648:7759   */\n      or\n        /* \"#utility.yul\":7645:7891   */\n      iszero\n      tag_312\n      jumpi\n        /* \"#utility.yul\":7801:7809   */\n      dup3\n        /* \"#utility.yul\":7795:7799   */\n      dup3\n        /* \"#utility.yul\":7791:7810   */\n      exp\n        /* \"#utility.yul\":7782:7810   */\n      swap1\n      pop\n        /* \"#utility.yul\":7836:7839   */\n      dup4\n        /* \"#utility.yul\":7829:7834   */\n      dup2\n        /* \"#utility.yul\":7826:7840   */\n      gt\n        /* \"#utility.yul\":7823:7863   */\n      iszero\n      tag_313\n      jumpi\n        /* \"#utility.yul\":7843:7861   */\n      tag_314\n      tag_211\n      jump\t// in\n    tag_314:\n        /* \"#utility.yul\":7823:7863   */\n    tag_313:\n        /* \"#utility.yul\":7876:7881   */\n      jump(tag_302)\n        /* \"#utility.yul\":7645:7891   */\n    tag_312:\n        /* \"#utility.yul\":7916:7958   */\n      tag_315\n        /* \"#utility.yul\":7954:7957   */\n      dup5\n        /* \"#utility.yul\":7944:7952   */\n      dup5\n        /* \"#utility.yul\":7938:7942   */\n      dup5\n        /* \"#utility.yul\":7935:7936   */\n      0x01\n        /* \"#utility.yul\":7916:7958   */\n      tag_213\n      jump\t// in\n    tag_315:\n        /* \"#utility.yul\":7901:7958   */\n      swap3\n      pop\n      swap1\n      pop\n        /* \"#utility.yul\":7990:7994   */\n      dup2\n        /* \"#utility.yul\":7985:7988   */\n      dup5\n        /* \"#utility.yul\":7981:7995   */\n      div\n        /* \"#utility.yul\":7974:7979   */\n      dup2\n        /* \"#utility.yul\":7971:7996   */\n      gt\n        /* \"#utility.yul\":7968:8019   */\n      iszero\n      tag_316\n      jumpi\n        /* \"#utility.yul\":7999:8017   */\n      tag_317\n      tag_211\n      jump\t// in\n    tag_317:\n        /* \"#utility.yul\":7968:8019   */\n    tag_316:\n        /* \"#utility.yul\":8048:8052   */\n      dup2\n        /* \"#utility.yul\":8041:8046   */\n      dup2\n        /* \"#utility.yul\":8037:8053   */\n      mul\n        /* \"#utility.yul\":8028:8053   */\n      swap1\n      pop\n        /* \"#utility.yul\":6986:8059   */\n    tag_302:\n      swap4\n      swap3\n      pop\n      pop\n      pop\n      jump\t// out\n        /* \"#utility.yul\":8065:8350   */\n    tag_87:\n        /* \"#utility.yul\":8125:8130   */\n      0x00\n        /* \"#utility.yul\":8149:8172   */\n      tag_319\n        /* \"#utility.yul\":8167:8171   */\n      dup3\n        /* \"#utility.yul\":8149:8172   */\n      tag_205\n      jump\t// in\n    tag_319:\n        /* \"#utility.yul\":8141:8172   */\n      swap2\n      pop\n        /* \"#utility.yul\":8193:8220   */\n      tag_320\n        /* \"#utility.yul\":8211:8219   */\n      dup4\n        /* \"#utility.yul\":8193:8220   */\n      tag_205\n      jump\t// in\n    tag_320:\n        /* \"#utility.yul\":8181:8220   */\n      swap3\n      pop\n        /* \"#utility.yul\":8239:8343   */\n      tag_321\n        /* \"#utility.yul\":8276:8342   */\n      0xffffffffffffffffffffffffffffffffffffffffffffffffffffffffffffffff\n        /* \"#utility.yul\":8266:8274   */\n      dup5\n        /* \"#utility.yul\":8260:8264   */\n      dup5\n        /* \"#utility.yul\":8239:8343   */\n      tag_214\n      jump\t// in\n    tag_321:\n        /* \"#utility.yul\":8230:8343   */\n      swap1\n      pop\n        /* \"#utility.yul\":8065:8350   */\n      swap3\n      swap2\n      pop\n      pop\n      jump\t// out\n        /* \"#utility.yul\":8356:8532   */\n    tag_93:\n        /* \"#utility.yul\":8388:8389   */\n      0x00\n        /* \"#utility.yul\":8405:8425   */\n      tag_323\n        /* \"#utility.yul\":8423:8424   */\n      dup3\n        /* \"#utility.yul\":8405:8425   */\n      tag_205\n      jump\t// in\n    tag_323:\n        /* \"#utility.yul\":8400:8425   */\n      swap2\n      pop\n        /* \"#utility.yul\":8439:8459   */\n      tag_324\n        /* \"#utility.yul\":8457:8458   */\n      dup4\n        /* \"#utility.yul\":8439:8459   */\n      tag_205\n      jump\t// in\n    tag_324:\n        /* \"#utility.yul\":8434:8459   */\n      swap3\n      pop\n        /* \"#utility.yul\":8478:8479   */\n      dup3\n        /* \"#utility.yul\":8468:8503   */\n      tag_325\n      jumpi\n        /* \"#utility.yul\":8483:8501   */\n      tag_326\n      tag_210\n      jump\t// in\n    tag_326:\n        /* \"#utility.yul\":8468:8503   */\n    tag_325:\n        /* \"#utility.yul\":8524:8525   */\n      dup3\n        /* \"#utility.yul\":8521:8522   */\n      dup3\n        /* \"#utility.yul\":8517:8526   */\n      mod\n        /* \"#utility.yul\":8512:8526   */\n      swap1\n      pop\n        /* \"#utility.yul\":8356:8532   */\n      swap3\n      swap2\n      pop\n      pop\n      jump\t// out\n        /* \"#utility.yul\":8538:8948   */\n    tag_95:\n        /* \"#utility.yul\":8578:8585   */\n      0x00\n        /* \"#utility.yul\":8601:8621   */\n      tag_328\n        /* \"#utility.yul\":8619:8620   */\n      dup3\n        /* \"#utility.yul\":8601:8621   */\n      tag_205\n      jump\t// in\n    tag_328:\n        /* \"#utility.yul\":8596:8621   */\n      swap2\n      pop\n        /* \"#utility.yul\":8635:8655   */\n      tag_329\n        /* \"#utility.yul\":8653:8654   */\n      dup4\n        /* \"#utility.yul\":8635:8655   */\n      tag_205\n      jump\t// in\n    tag_329:\n        /* \"#utility.yul\":8630:8655   */\n      swap3\n      pop\n        /* \"#utility.yul\":8690:8691   */\n      dup3\n        /* \"#utility.yul\":8687:8688   */\n      dup3\n        /* \"#utility.yul\":8683:8692   */\n      mul\n        /* \"#utility.yul\":8712:8742   */\n      tag_330\n        /* \"#utility.yul\":8730:8741   */\n      dup2\n        /* \"#utility.yul\":8712:8742   */\n      tag_205\n      jump\t// in\n    tag_330:\n        /* \"#utility.yul\":8701:8742   */\n      swap2\n      pop\n        /* \"#utility.yul\":8891:8892   */\n      dup3\n        /* \"#utility.yul\":8882:8889   */\n      dup3\n        /* \"#utility.yul\":8878:8893   */\n      div\n        /* \"#utility.yul\":8875:8876   */\n      dup5\n        /* \"#utility.yul\":8872:8894   */\n      eq\n        /* \"#utility.yul\":8852:8853   */\n      dup4\n        /* \"#utility.yul\":8845:8854   */\n      iszero\n        /* \"#utility.yul\":8825:8908   */\n      or\n        /* \"#utility.yul\":8802:8941   */\n      tag_331\n      jumpi\n        /* \"#utility.yul\":8921:8939   */\n      tag_332\n      tag_211\n      jump\t// in\n    tag_332:\n        /* \"#utility.yul\":8802:8941   */\n    tag_331:\n        /* \"#utility.yul\":8586:8948   */\n      pop\n        /* \"#utility.yul\":8538:8948   */\n      swap3\n      swap2\n      pop\n      pop\n      jump\t// out\n        /* \"#utility.yul\":8954:9139   */\n    tag_97:\n        /* \"#utility.yul\":8994:8995   */\n      0x00\n        /* \"#utility.yul\":9011:9031   */\n      tag_334\n        /* \"#utility.yul\":9029:9030   */\n      dup3\n        /* \"#utility.yul\":9011:9031   */\n      tag_205\n      jump\t// in\n    tag_334:\n        /* \"#utility.yul\":9006:9031   */\n      swap2\n      pop\n        /* \"#utility.yul\":9045:9065   */\n      tag_335\n        /* \"#utility.yul\":9063:9064   */\n      dup4\n        /* \"#utility.yul\":9045:9065   */\n      tag_205\n      jump\t// in\n    tag_335:\n        /* \"#utility.yul\":9040:9065   */\n      swap3\n      pop\n        /* \"#utility.yul\":9084:9085   */\n      dup3\n        /* \"#utility.yul\":9074:9109   */\n      tag_336\n      jumpi\n        /* \"#utility.yul\":9089:9107   */\n      tag_337\n      tag_210\n      jump\t// in\n    tag_337:\n        /* \"#utility.yul\":9074:9109   */\n    tag_336:\n        /* \"#utility.yul\":9131:9132   */\n      dup3\n        /* \"#utility.yul\":9128:9129   */\n      dup3\n        /* \"#utility.yul\":9124:9133   */\n      div\n        /* \"#utility.yul\":9119:9133   */\n      swap1\n      pop\n        /* \"#utility.yul\":8954:9139   */\n      swap3\n      swap2\n      pop\n      pop\n      jump\t// out\n        /* \"#utility.yul\":9145:9378   */\n    tag_102:\n        /* \"#utility.yul\":9184:9187   */\n      0x00\n        /* \"#utility.yul\":9207:9231   */\n      tag_339\n        /* \"#utility.yul\":9225:9230   */\n      dup3\n        /* \"#utility.yul\":9207:9231   */\n      tag_205\n      jump\t// in\n    tag_339:\n        /* \"#utility.yul\":9198:9231   */\n      swap2\n      pop\n        /* \"#utility.yul\":9253:9319   */\n      0xffffffffffffffffffffffffffffffffffffffffffffffffffffffffffffffff\n        /* \"#utility.yul\":9246:9251   */\n      dup3\n        /* \"#utility.yul\":9243:9320   */\n      sub\n        /* \"#utility.yul\":9240:9343   */\n      tag_340\n      jumpi\n        /* \"#utility.yul\":9323:9341   */\n      tag_341\n      tag_211\n      jump\t// in\n    tag_341:\n        /* \"#utility.yul\":9240:9343   */\n    tag_340:\n        /* \"#utility.yul\":9370:9371   */\n      0x01\n        /* \"#utility.yul\":9363:9368   */\n      dup3\n        /* \"#utility.yul\":9359:9372   */\n      add\n        /* \"#utility.yul\":9352:9372   */\n      swap1\n      pop\n        /* \"#utility.yul\":9145:9378   */\n      swap2\n      swap1\n      pop\n      jump\t// out\n        /* \"#utility.yul\":9384:9552   */\n    tag_215:\n        /* \"#utility.yul\":9524:9544   */\n      0x6e6f7420612076616c6964206e756d6265720000000000000000000000000000\n        /* \"#utility.yul\":9520:9521   */\n      0x00\n        /* \"#utility.yul\":9512:9518   */\n      dup3\n        /* \"#utility.yul\":9508:9522   */\n      add\n        /* \"#utility.yul\":9501:9545   */\n      mstore\n        /* \"#utility.yul\":9384:9552   */\n      pop\n      jump\t// out\n        /* \"#utility.yul\":9558:9924   */\n    tag_216:\n        /* \"#utility.yul\":9700:9703   */\n      0x00\n        /* \"#utility.yul\":9721:9788   */\n      tag_344\n        /* \"#utility.yul\":9785:9787   */\n      0x12\n        /* \"#utility.yul\":9780:9783   */\n      dup4\n        /* \"#utility.yul\":9721:9788   */\n      tag_201\n      jump\t// in\n    tag_344:\n        /* \"#utility.yul\":9714:9788   */\n      swap2\n      pop\n        /* \"#utility.yul\":9797:9890   */\n      tag_345\n        /* \"#utility.yul\":9886:9889   */\n      dup3\n        /* \"#utility.yul\":9797:9890   */\n      tag_215\n      jump\t// in\n    tag_345:\n        /* \"#utility.yul\":9915:9917   */\n      0x20\n        /* \"#utility.yul\":9910:9913   */\n      dup3\n        /* \"#utility.yul\":9906:9918   */\n      add\n        /* \"#utility.yul\":9899:9918   */\n      swap1\n      pop\n        /* \"#utility.yul\":9558:9924   */\n      swap2\n      swap1\n      pop\n      jump\t// out\n        /* \"#utility.yul\":9930:10349   */\n    tag_106:\n        /* \"#utility.yul\":10096:10100   */\n      0x00\n        /* \"#utility.yul\":10134:10136   */\n      0x20\n        /* \"#utility.yul\":10123:10132   */\n      dup3\n        /* \"#utility.yul\":10119:10137   */\n      add\n        /* \"#utility.yul\":10111:10137   */\n      swap1\n      pop\n        /* \"#utility.yul\":10183:10192   */\n      dup2\n        /* \"#utility.yul\":10177:10181   */\n      dup2\n        /* \"#utility.yul\":10173:10193   */\n      sub\n        /* \"#utility.yul\":10169:10170   */\n      0x00\n        /* \"#utility.yul\":10158:10167   */\n      dup4\n        /* \"#utility.yul\":10154:10171   */\n      add\n        /* \"#utility.yul\":10147:10194   */\n      mstore\n        /* \"#utility.yul\":10211:10342   */\n      tag_347\n        /* \"#utility.yul\":10337:10341   */\n      dup2\n        /* \"#utility.yul\":10211:10342   */\n      tag_216\n      jump\t// in\n    tag_347:\n        /* \"#utility.yul\":10203:10342   */\n      swap1\n      pop\n        /* \"#utility.yul\":9930:10349   */\n      swap2\n      swap1\n      pop\n      jump\t// out\n        /* \"#utility.yul\":10355:10546   */\n    tag_112:\n        /* \"#utility.yul\":10395:10398   */\n      0x00\n        /* \"#utility.yul\":10414:10434   */\n      tag_349\n        /* \"#utility.yul\":10432:10433   */\n      dup3\n        /* \"#utility.yul\":10414:10434   */\n      tag_205\n      jump\t// in\n    tag_349:\n        /* \"#utility.yul\":10409:10434   */\n      swap2\n      pop\n        /* \"#utility.yul\":10448:10468   */\n      tag_350\n        /* \"#utility.yul\":10466:10467   */\n      dup4\n        /* \"#utility.yul\":10448:10468   */\n      tag_205\n      jump\t// in\n    tag_350:\n        /* \"#utility.yul\":10443:10468   */\n      swap3\n      pop\n        /* \"#utility.yul\":10491:10492   */\n      dup3\n        /* \"#utility.yul\":10488:10489   */\n      dup3\n        /* \"#utility.yul\":10484:10493   */\n      add\n        /* \"#utility.yul\":10477:10493   */\n      swap1\n      pop\n        /* \"#utility.yul\":10512:10515   */\n      dup1\n        /* \"#utility.yul\":10509:10510   */\n      dup3\n        /* \"#utility.yul\":10506:10516   */\n      gt\n        /* \"#utility.yul\":10503:10539   */\n      iszero\n      tag_351\n      jumpi\n        /* \"#utility.yul\":10519:10537   */\n      tag_352\n      tag_211\n      jump\t// in\n    tag_352:\n        /* \"#utility.yul\":10503:10539   */\n    tag_351:\n        /* \"#utility.yul\":10355:10546   */\n      swap3\n      swap2\n      pop\n      pop\n      jump\t// out\n        /* \"#utility.yul\":10552:10700   */\n    tag_217:\n        /* \"#utility.yul\":10654:10665   */\n      0x00\n        /* \"#utility.yul\":10691:10694   */\n      dup2\n        /* \"#utility.yul\":10676:10694   */\n      swap1\n      pop\n        /* \"#utility.yul\":10552:10700   */\n      swap3\n      swap2\n      pop\n      pop\n      jump\t// out\n        /* \"#utility.yul\":10706:10862   */\n    tag_218:\n        /* \"#utility.yul\":10846:10854   */\n      0x6e756d4172720000000000000000000000000000000000000000000000000000\n        /* \"#utility.yul\":10842:10843   */\n      0x00\n        /* \"#utility.yul\":10834:10840   */\n      dup3\n        /* \"#utility.yul\":10830:10844   */\n      add\n        /* \"#utility.yul\":10823:10855   */\n      mstore\n        /* \"#utility.yul\":10706:10862   */\n      pop\n      jump\t// out\n        /* \"#utility.yul\":10868:11268   */\n    tag_219:\n        /* \"#utility.yul\":11028:11031   */\n      0x00\n        /* \"#utility.yul\":11049:11133   */\n      tag_356\n        /* \"#utility.yul\":11131:11132   */\n      0x06\n        /* \"#utility.yul\":11126:11129   */\n      dup4\n        /* \"#utility.yul\":11049:11133   */\n      tag_217\n      jump\t// in\n    tag_356:\n        /* \"#utility.yul\":11042:11133   */\n      swap2\n      pop\n        /* \"#utility.yul\":11142:11235   */\n      tag_357\n        /* \"#utility.yul\":11231:11234   */\n      dup3\n        /* \"#utility.yul\":11142:11235   */\n      tag_218\n      jump\t// in\n    tag_357:\n        /* \"#utility.yul\":11260:11261   */\n      0x06\n        /* \"#utility.yul\":11255:11258   */\n      dup3\n        /* \"#utility.yul\":11251:11262   */\n      add\n        /* \"#utility.yul\":11244:11262   */\n      swap1\n      pop\n        /* \"#utility.yul\":10868:11268   */\n      swap2\n      swap1\n      pop\n      jump\t// out\n        /* \"#utility.yul\":11274:11655   */\n    tag_138:\n        /* \"#utility.yul\":11459:11462   */\n      0x00\n        /* \"#utility.yul\":11481:11629   */\n      tag_359\n        /* \"#utility.yul\":11625:11628   */\n      dup3\n        /* \"#utility.yul\":11481:11629   */\n      tag_219\n      jump\t// in\n    tag_359:\n        /* \"#utility.yul\":11474:11629   */\n      swap2\n      pop\n        /* \"#utility.yul\":11646:11649   */\n      dup2\n        /* \"#utility.yul\":11639:11649   */\n      swap1\n      pop\n        /* \"#utility.yul\":11274:11655   */\n      swap2\n      swap1\n      pop\n      jump\t// out\n        /* \"#utility.yul\":11661:11855   */\n    tag_140:\n        /* \"#utility.yul\":11701:11705   */\n      0x00\n        /* \"#utility.yul\":11721:11741   */\n      tag_361\n        /* \"#utility.yul\":11739:11740   */\n      dup3\n        /* \"#utility.yul\":11721:11741   */\n      tag_205\n      jump\t// in\n    tag_361:\n        /* \"#utility.yul\":11716:11741   */\n      swap2\n      pop\n        /* \"#utility.yul\":11755:11775   */\n      tag_362\n        /* \"#utility.yul\":11773:11774   */\n      dup4\n        /* \"#utility.yul\":11755:11775   */\n      tag_205\n      jump\t// in\n    tag_362:\n        /* \"#utility.yul\":11750:11775   */\n      swap3\n      pop\n        /* \"#utility.yul\":11799:11800   */\n      dup3\n        /* \"#utility.yul\":11796:11797   */\n      dup3\n        /* \"#utility.yul\":11792:11801   */\n      sub\n        /* \"#utility.yul\":11784:11801   */\n      swap1\n      pop\n        /* \"#utility.yul\":11823:11824   */\n      dup2\n        /* \"#utility.yul\":11817:11821   */\n      dup2\n        /* \"#utility.yul\":11814:11825   */\n      gt\n        /* \"#utility.yul\":11811:11848   */\n      iszero\n      tag_363\n      jumpi\n        /* \"#utility.yul\":11828:11846   */\n      tag_364\n      tag_211\n      jump\t// in\n    tag_364:\n        /* \"#utility.yul\":11811:11848   */\n    tag_363:\n        /* \"#utility.yul\":11661:11855   */\n      swap3\n      swap2\n      pop\n      pop\n      jump\t// out\n        /* \"#utility.yul\":11861:12041   */\n    tag_145:\n        /* \"#utility.yul\":11909:11986   */\n      0x4e487b7100000000000000000000000000000000000000000000000000000000\n        /* \"#utility.yul\":11906:11907   */\n      0x00\n        /* \"#utility.yul\":11899:11987   */\n      mstore\n        /* \"#utility.yul\":12006:12010   */\n      0x32\n        /* \"#utility.yul\":12003:12004   */\n      0x04\n        /* \"#utility.yul\":11996:12011   */\n      mstore\n        /* \"#utility.yul\":12030:12034   */\n      0x24\n        /* \"#utility.yul\":12027:12028   */\n      0x00\n        /* \"#utility.yul\":12020:12035   */\n      revert\n        /* \"#utility.yul\":12047:12215   */\n    tag_220:\n        /* \"#utility.yul\":12187:12207   */\n      0x6e6f7420412076616c6964206e756d6265720000000000000000000000000000\n        /* \"#utility.yul\":12183:12184   */\n      0x00\n        /* \"#utility.yul\":12175:12181   */\n      dup3\n        /* \"#utility.yul\":12171:12185   */\n      add\n        /* \"#utility.yul\":12164:12208   */\n      mstore\n        /* \"#utility.yul\":12047:12215   */\n      pop\n      jump\t// out\n        /* \"#utility.yul\":12221:12587   */\n    tag_221:\n        /* \"#utility.yul\":12363:12366   */\n      0x00\n        /* \"#utility.yul\":12384:12451   */\n      tag_368\n        /* \"#utility.yul\":12448:12450   */\n      0x12\n        /* \"#utility.yul\":12443:12446   */\n      dup4\n        /* \"#utility.yul\":12384:12451   */\n      tag_201\n      jump\t// in\n    tag_368:\n        /* \"#utility.yul\":12377:12451   */\n      swap2\n      pop\n        /* \"#utility.yul\":12460:12553   */\n      tag_369\n        /* \"#utility.yul\":12549:12552   */\n      dup3\n        /* \"#utility.yul\":12460:12553   */\n      tag_220\n      jump\t// in\n    tag_369:\n        /* \"#utility.yul\":12578:12580   */\n      0x20\n        /* \"#utility.yul\":12573:12576   */\n      dup3\n        /* \"#utility.yul\":12569:12581   */\n      add\n        /* \"#utility.yul\":12562:12581   */\n      swap1\n      pop\n        /* \"#utility.yul\":12221:12587   */\n      swap2\n      swap1\n      pop\n      jump\t// out\n        /* \"#utility.yul\":12593:13012   */\n    tag_176:\n        /* \"#utility.yul\":12759:12763   */\n      0x00\n        /* \"#utility.yul\":12797:12799   */\n      0x20\n        /* \"#utility.yul\":12786:12795   */\n      dup3\n        /* \"#utility.yul\":12782:12800   */\n      add\n        /* \"#utility.yul\":12774:12800   */\n      swap1\n      pop\n        /* \"#utility.yul\":12846:12855   */\n      dup2\n        /* \"#utility.yul\":12840:12844   */\n      dup2\n        /* \"#utility.yul\":12836:12856   */\n      sub\n        /* \"#utility.yul\":12832:12833   */\n      0x00\n        /* \"#utility.yul\":12821:12830   */\n      dup4\n        /* \"#utility.yul\":12817:12834   */\n      add\n        /* \"#utility.yul\":12810:12857   */\n      mstore\n        /* \"#utility.yul\":12874:13005   */\n      tag_371\n        /* \"#utility.yul\":13000:13004   */\n      dup2\n        /* \"#utility.yul\":12874:13005   */\n      tag_221\n      jump\t// in\n    tag_371:\n        /* \"#utility.yul\":12866:13005   */\n      swap1\n      pop\n        /* \"#utility.yul\":12593:13012   */\n      swap2\n      swap1\n      pop\n      jump\t// out\n        /* \"#utility.yul\":13018:13249   */\n    tag_190:\n        /* \"#utility.yul\":13056:13059   */\n      0x00\n        /* \"#utility.yul\":13079:13102   */\n      tag_373\n        /* \"#utility.yul\":13096:13101   */\n      dup3\n        /* \"#utility.yul\":13079:13102   */\n      tag_197\n      jump\t// in\n    tag_373:\n        /* \"#utility.yul\":13070:13102   */\n      swap2\n      pop\n        /* \"#utility.yul\":13124:13190   */\n      0x7fffffffffffffffffffffffffffffffffffffffffffffffffffffffffffffff\n        /* \"#utility.yul\":13117:13122   */\n      dup3\n        /* \"#utility.yul\":13114:13191   */\n      sub\n        /* \"#utility.yul\":13111:13214   */\n      tag_374\n      jumpi\n        /* \"#utility.yul\":13194:13212   */\n      tag_375\n      tag_211\n      jump\t// in\n    tag_375:\n        /* \"#utility.yul\":13111:13214   */\n    tag_374:\n        /* \"#utility.yul\":13241:13242   */\n      0x01\n        /* \"#utility.yul\":13234:13239   */\n      dup3\n        /* \"#utility.yul\":13230:13243   */\n      add\n        /* \"#utility.yul\":13223:13243   */\n      swap1\n      pop\n        /* \"#utility.yul\":13018:13249   */\n      swap2\n      swap1\n      pop\n      jump\t// out\n        /* \"#utility.yul\":13255:13341   */\n    tag_222:\n        /* \"#utility.yul\":13290:13297   */\n      0x00\n        /* \"#utility.yul\":13330:13334   */\n      0xff\n        /* \"#utility.yul\":13323:13328   */\n      dup3\n        /* \"#utility.yul\":13319:13335   */\n      and\n        /* \"#utility.yul\":13308:13335   */\n      swap1\n      pop\n        /* \"#utility.yul\":13255:13341   */\n      swap2\n      swap1\n      pop\n      jump\t// out\n        /* \"#utility.yul\":13347:13628   */\n    tag_193:\n        /* \"#utility.yul\":13405:13410   */\n      0x00\n        /* \"#utility.yul\":13429:13452   */\n      tag_378\n        /* \"#utility.yul\":13447:13451   */\n      dup3\n        /* \"#utility.yul\":13429:13452   */\n      tag_205\n      jump\t// in\n    tag_378:\n        /* \"#utility.yul\":13421:13452   */\n      swap2\n      pop\n        /* \"#utility.yul\":13473:13498   */\n      tag_379\n        /* \"#utility.yul\":13489:13497   */\n      dup4\n        /* \"#utility.yul\":13473:13498   */\n      tag_222\n      jump\t// in\n    tag_379:\n        /* \"#utility.yul\":13461:13498   */\n      swap3\n      pop\n        /* \"#utility.yul\":13517:13621   */\n      tag_380\n        /* \"#utility.yul\":13554:13620   */\n      0xffffffffffffffffffffffffffffffffffffffffffffffffffffffffffffffff\n        /* \"#utility.yul\":13544:13552   */\n      dup5\n        /* \"#utility.yul\":13538:13542   */\n      dup5\n        /* \"#utility.yul\":13517:13621   */\n      tag_214\n      jump\t// in\n    tag_380:\n        /* \"#utility.yul\":13508:13621   */\n      swap1\n      pop\n        /* \"#utility.yul\":13347:13628   */\n      swap3\n      swap2\n      pop\n      pop\n      jump\t// out\n\n    auxdata: 0xa2646970667358221220ea1fecd84eb2b8b8a2049f0e99e9cdc8d5065ae7a8ff6346c9b1b31734255c6964736f6c63430008110033\n}\n",
				"bytecode": {
					"linkReferences": {},
					"object": "608060405234801561001057600080fd5b5061115d806100206000396000f3fe608060405234801561001057600080fd5b50600436106100ea5760003560e01c80639e098fc11161008c578063d9ea8e6411610066578063d9ea8e6414610297578063f26c79ef146102c7578063f492c000146102e3578063f4bf03c714610313576100ea565b80639e098fc114610219578063b413372114610249578063cdab780714610267576100ea565b806383714834116100c8578063837148341461015957806383d3705e146101895780638ce32d21146101b957806392cc2841146101e9576100ea565b806346439726146100ef5780634f4752ba1461011f5780638119c0651461014f575b600080fd5b61010960048036038101906101049190610937565b610343565b60405161011691906109f4565b60405180910390f35b61013960048036038101906101349190610a4c565b6103d4565b6040516101469190610a9b565b60405180910390f35b6101576103ea565b005b610173600480360381019061016e9190610ab6565b610404565b6040516101809190610a9b565b60405180910390f35b6101a3600480360381019061019e9190610ab6565b610457565b6040516101b09190610a9b565b60405180910390f35b6101d360048036038101906101ce9190610ab6565b610537565b6040516101e09190610a9b565b60405180910390f35b61020360048036038101906101fe9190610ae3565b610586565b6040516102109190610a9b565b60405180910390f35b610233600480360381019061022e9190610ab6565b6105b4565b6040516102409190610a9b565b60405180910390f35b61025161060f565b60405161025e9190610a9b565b60405180910390f35b610281600480360381019061027c9190610ab6565b610742565b60405161028e9190610a9b565b60405180910390f35b6102b160048036038101906102ac9190610b36565b6107b0565b6040516102be9190610b98565b60405180910390f35b6102e160048036038101906102dc9190610ab6565b6107dd565b005b6102fd60048036038101906102f89190610937565b61089b565b60405161030a9190610b98565b60405180910390f35b61032d60048036038101906103289190610ab6565b6108e6565b60405161033a9190610a9b565b60405180910390f35b606060006002836103549190610be2565b03610396576040518060400160405280600481526020017f6576656e0000000000000000000000000000000000000000000000000000000081525090506103cf565b6040518060400160405280600381526020017f6f6464000000000000000000000000000000000000000000000000000000000081525090505b919050565b600081836103e29190610d75565b905092915050565b600060019050600060029050808280925081935050505050565b6000808290506000600190505b6000821461044d576000600a836104289190610dc0565b905080826104369190610df1565b9150600a836104459190610e33565b925050610411565b8092505050919050565b6000808290506000805b6000831461048b57818061047490610e64565b925050600a836104849190610e33565b9250610461565b600082036104ce576040517f08c379a00000000000000000000000000000000000000000000000000000000081526004016104c590610ef8565b60405180910390fd5b8492505b60008314610519576000600a846104e99190610dc0565b905082816104f79190610d75565b826105029190610f18565b9150600a846105119190610e33565b9350506104d2565b80851461052757600061052a565b60015b60ff169350505050919050565b60008082905060005b6000821461057c576000600a836105579190610dc0565b905080826105659190610f18565b9150600a836105749190610e33565b925050610540565b8092505050919050565b600060038284866105979190610f18565b6105a19190610f18565b6105ab9190610e33565b90509392505050565b60008060008390505b60008114610605576000600a826105d49190610dc0565b905080600a846105e49190610df1565b6105ee9190610f18565b9250600a826105fd9190610e33565b9150506105bd565b8192505050919050565b600080600090505b6002600060405161062790610fa3565b9081526020016040518091039020805490506106439190610fb8565b81101561073957600060405161065890610fa3565b90815260200160405180910390206002826106739190610f18565b8154811061068457610683610fec565b5b9060005260206000200154600060405161069d90610fa3565b90815260200160405180910390206001836106b89190610f18565b815481106106c9576106c8610fec565b5b90600052602060002001546106de9190610f18565b60006040516106ec90610fa3565b9081526020016040518091039020828154811061070c5761070b610fec565b5b90600052602060002001541461072657600091505061073f565b808061073190610e64565b915050610617565b50600190505b90565b60008082905060005b60008214610793576000600a836107629190610dc0565b905080600a836107729190610df1565b61077c9190610f18565b9150600a8361078b9190610e33565b92505061074b565b8381146107a15760006107a4565b60015b60ff1692505050919050565b6000808385136107c057836107c2565b845b90508281136107d157826107d3565b805b9150509392505050565b60008103610820576040517f08c379a000000000000000000000000000000000000000000000000000000000815260040161081790611067565b60405180910390fd5b60008190505b60008114610897576000600a8261083d9190610dc0565b9050600060405161084d90610fa3565b9081526020016040518091039020819080600181540180825580915050600190039060005260206000200160009091909190915055600a8261088f9190610e33565b915050610826565b5050565b600080600290505b828112156108db57600081846108b99190610be2565b036108c85760009150506108e1565b80806108d390611087565b9150506108a3565b50600190505b919050565b60006002826108f591906110dc565b9050919050565b600080fd5b6000819050919050565b61091481610901565b811461091f57600080fd5b50565b6000813590506109318161090b565b92915050565b60006020828403121561094d5761094c6108fc565b5b600061095b84828501610922565b91505092915050565b600081519050919050565b600082825260208201905092915050565b60005b8381101561099e578082015181840152602081019050610983565b60008484015250505050565b6000601f19601f8301169050919050565b60006109c682610964565b6109d0818561096f565b93506109e0818560208601610980565b6109e9816109aa565b840191505092915050565b60006020820190508181036000830152610a0e81846109bb565b905092915050565b6000819050919050565b610a2981610a16565b8114610a3457600080fd5b50565b600081359050610a4681610a20565b92915050565b60008060408385031215610a6357610a626108fc565b5b6000610a7185828601610a37565b9250506020610a8285828601610a37565b9150509250929050565b610a9581610a16565b82525050565b6000602082019050610ab06000830184610a8c565b92915050565b600060208284031215610acc57610acb6108fc565b5b6000610ada84828501610a37565b91505092915050565b600080600060608486031215610afc57610afb6108fc565b5b6000610b0a86828701610a37565b9350506020610b1b86828701610a37565b9250506040610b2c86828701610a37565b9150509250925092565b600080600060608486031215610b4f57610b4e6108fc565b5b6000610b5d86828701610922565b9350506020610b6e86828701610922565b9250506040610b7f86828701610922565b9150509250925092565b610b9281610901565b82525050565b6000602082019050610bad6000830184610b89565b92915050565b7f4e487b7100000000000000000000000000000000000000000000000000000000600052601260045260246000fd5b6000610bed82610901565b9150610bf883610901565b925082610c0857610c07610bb3565b5b828207905092915050565b7f4e487b7100000000000000000000000000000000000000000000000000000000600052601160045260246000fd5b60008160011c9050919050565b6000808291508390505b6001851115610c9957808604811115610c7557610c74610c13565b5b6001851615610c845780820291505b8081029050610c9285610c42565b9450610c59565b94509492505050565b600082610cb25760019050610d6e565b81610cc05760009050610d6e565b8160018114610cd65760028114610ce057610d0f565b6001915050610d6e565b60ff841115610cf257610cf1610c13565b5b8360020a915084821115610d0957610d08610c13565b5b50610d6e565b5060208310610133831016604e8410600b8410161715610d445782820a905083811115610d3f57610d3e610c13565b5b610d6e565b610d518484846001610c4f565b92509050818404811115610d6857610d67610c13565b5b81810290505b9392505050565b6000610d8082610a16565b9150610d8b83610a16565b9250610db87fffffffffffffffffffffffffffffffffffffffffffffffffffffffffffffffff8484610ca2565b905092915050565b6000610dcb82610a16565b9150610dd683610a16565b925082610de657610de5610bb3565b5b828206905092915050565b6000610dfc82610a16565b9150610e0783610a16565b9250828202610e1581610a16565b91508282048414831517610e2c57610e2b610c13565b5b5092915050565b6000610e3e82610a16565b9150610e4983610a16565b925082610e5957610e58610bb3565b5b828204905092915050565b6000610e6f82610a16565b91507fffffffffffffffffffffffffffffffffffffffffffffffffffffffffffffffff8203610ea157610ea0610c13565b5b600182019050919050565b7f6e6f7420612076616c6964206e756d6265720000000000000000000000000000600082015250565b6000610ee260128361096f565b9150610eed82610eac565b602082019050919050565b60006020820190508181036000830152610f1181610ed5565b9050919050565b6000610f2382610a16565b9150610f2e83610a16565b9250828201905080821115610f4657610f45610c13565b5b92915050565b600081905092915050565b7f6e756d4172720000000000000000000000000000000000000000000000000000600082015250565b6000610f8d600683610f4c565b9150610f9882610f57565b600682019050919050565b6000610fae82610f80565b9150819050919050565b6000610fc382610a16565b9150610fce83610a16565b9250828203905081811115610fe657610fe5610c13565b5b92915050565b7f4e487b7100000000000000000000000000000000000000000000000000000000600052603260045260246000fd5b7f6e6f7420412076616c6964206e756d6265720000000000000000000000000000600082015250565b600061105160128361096f565b915061105c8261101b565b602082019050919050565b6000602082019050818103600083015261108081611044565b9050919050565b600061109282610901565b91507f7fffffffffffffffffffffffffffffffffffffffffffffffffffffffffffffff82036110c4576110c3610c13565b5b600182019050919050565b600060ff82169050919050565b60006110e782610a16565b91506110f2836110cf565b925061111f7fffffffffffffffffffffffffffffffffffffffffffffffffffffffffffffffff8484610ca2565b90509291505056fea2646970667358221220ea1fecd84eb2b8b8a2049f0e99e9cdc8d5065ae7a8ff6346c9b1b31734255c6964736f6c63430008110033",
					"opcodes": "PUSH1 0x80 PUSH1 0x40 MSTORE CALLVALUE DUP1 ISZERO PUSH2 0x10 JUMPI PUSH1 0x0 DUP1 REVERT JUMPDEST POP PUSH2 0x115D DUP1 PUSH2 0x20 PUSH1 0x0 CODECOPY PUSH1 0x0 RETURN INVALID PUSH1 0x80 PUSH1 0x40 MSTORE CALLVALUE DUP1 ISZERO PUSH2 0x10 JUMPI PUSH1 0x0 DUP1 REVERT JUMPDEST POP PUSH1 0x4 CALLDATASIZE LT PUSH2 0xEA JUMPI PUSH1 0x0 CALLDATALOAD PUSH1 0xE0 SHR DUP1 PUSH4 0x9E098FC1 GT PUSH2 0x8C JUMPI DUP1 PUSH4 0xD9EA8E64 GT PUSH2 0x66 JUMPI DUP1 PUSH4 0xD9EA8E64 EQ PUSH2 0x297 JUMPI DUP1 PUSH4 0xF26C79EF EQ PUSH2 0x2C7 JUMPI DUP1 PUSH4 0xF492C000 EQ PUSH2 0x2E3 JUMPI DUP1 PUSH4 0xF4BF03C7 EQ PUSH2 0x313 JUMPI PUSH2 0xEA JUMP JUMPDEST DUP1 PUSH4 0x9E098FC1 EQ PUSH2 0x219 JUMPI DUP1 PUSH4 0xB4133721 EQ PUSH2 0x249 JUMPI DUP1 PUSH4 0xCDAB7807 EQ PUSH2 0x267 JUMPI PUSH2 0xEA JUMP JUMPDEST DUP1 PUSH4 0x83714834 GT PUSH2 0xC8 JUMPI DUP1 PUSH4 0x83714834 EQ PUSH2 0x159 JUMPI DUP1 PUSH4 0x83D3705E EQ PUSH2 0x189 JUMPI DUP1 PUSH4 0x8CE32D21 EQ PUSH2 0x1B9 JUMPI DUP1 PUSH4 0x92CC2841 EQ PUSH2 0x1E9 JUMPI PUSH2 0xEA JUMP JUMPDEST DUP1 PUSH4 0x46439726 EQ PUSH2 0xEF JUMPI DUP1 PUSH4 0x4F4752BA EQ PUSH2 0x11F JUMPI DUP1 PUSH4 0x8119C065 EQ PUSH2 0x14F JUMPI JUMPDEST PUSH1 0x0 DUP1 REVERT JUMPDEST PUSH2 0x109 PUSH1 0x4 DUP1 CALLDATASIZE SUB DUP2 ADD SWAP1 PUSH2 0x104 SWAP2 SWAP1 PUSH2 0x937 JUMP JUMPDEST PUSH2 0x343 JUMP JUMPDEST PUSH1 0x40 MLOAD PUSH2 0x116 SWAP2 SWAP1 PUSH2 0x9F4 JUMP JUMPDEST PUSH1 0x40 MLOAD DUP1 SWAP2 SUB SWAP1 RETURN JUMPDEST PUSH2 0x139 PUSH1 0x4 DUP1 CALLDATASIZE SUB DUP2 ADD SWAP1 PUSH2 0x134 SWAP2 SWAP1 PUSH2 0xA4C JUMP JUMPDEST PUSH2 0x3D4 JUMP JUMPDEST PUSH1 0x40 MLOAD PUSH2 0x146 SWAP2 SWAP1 PUSH2 0xA9B JUMP JUMPDEST PUSH1 0x40 MLOAD DUP1 SWAP2 SUB SWAP1 RETURN JUMPDEST PUSH2 0x157 PUSH2 0x3EA JUMP JUMPDEST STOP JUMPDEST PUSH2 0x173 PUSH1 0x4 DUP1 CALLDATASIZE SUB DUP2 ADD SWAP1 PUSH2 0x16E SWAP2 SWAP1 PUSH2 0xAB6 JUMP JUMPDEST PUSH2 0x404 JUMP JUMPDEST PUSH1 0x40 MLOAD PUSH2 0x180 SWAP2 SWAP1 PUSH2 0xA9B JUMP JUMPDEST PUSH1 0x40 MLOAD DUP1 SWAP2 SUB SWAP1 RETURN JUMPDEST PUSH2 0x1A3 PUSH1 0x4 DUP1 CALLDATASIZE SUB DUP2 ADD SWAP1 PUSH2 0x19E SWAP2 SWAP1 PUSH2 0xAB6 JUMP JUMPDEST PUSH2 0x457 JUMP JUMPDEST PUSH1 0x40 MLOAD PUSH2 0x1B0 SWAP2 SWAP1 PUSH2 0xA9B JUMP JUMPDEST PUSH1 0x40 MLOAD DUP1 SWAP2 SUB SWAP1 RETURN JUMPDEST PUSH2 0x1D3 PUSH1 0x4 DUP1 CALLDATASIZE SUB DUP2 ADD SWAP1 PUSH2 0x1CE SWAP2 SWAP1 PUSH2 0xAB6 JUMP JUMPDEST PUSH2 0x537 JUMP JUMPDEST PUSH1 0x40 MLOAD PUSH2 0x1E0 SWAP2 SWAP1 PUSH2 0xA9B JUMP JUMPDEST PUSH1 0x40 MLOAD DUP1 SWAP2 SUB SWAP1 RETURN JUMPDEST PUSH2 0x203 PUSH1 0x4 DUP1 CALLDATASIZE SUB DUP2 ADD SWAP1 PUSH2 0x1FE SWAP2 SWAP1 PUSH2 0xAE3 JUMP JUMPDEST PUSH2 0x586 JUMP JUMPDEST PUSH1 0x40 MLOAD PUSH2 0x210 SWAP2 SWAP1 PUSH2 0xA9B JUMP JUMPDEST PUSH1 0x40 MLOAD DUP1 SWAP2 SUB SWAP1 RETURN JUMPDEST PUSH2 0x233 PUSH1 0x4 DUP1 CALLDATASIZE SUB DUP2 ADD SWAP1 PUSH2 0x22E SWAP2 SWAP1 PUSH2 0xAB6 JUMP JUMPDEST PUSH2 0x5B4 JUMP JUMPDEST PUSH1 0x40 MLOAD PUSH2 0x240 SWAP2 SWAP1 PUSH2 0xA9B JUMP JUMPDEST PUSH1 0x40 MLOAD DUP1 SWAP2 SUB SWAP1 RETURN JUMPDEST PUSH2 0x251 PUSH2 0x60F JUMP JUMPDEST PUSH1 0x40 MLOAD PUSH2 0x25E SWAP2 SWAP1 PUSH2 0xA9B JUMP JUMPDEST PUSH1 0x40 MLOAD DUP1 SWAP2 SUB SWAP1 RETURN JUMPDEST PUSH2 0x281 PUSH1 0x4 DUP1 CALLDATASIZE SUB DUP2 ADD SWAP1 PUSH2 0x27C SWAP2 SWAP1 PUSH2 0xAB6 JUMP JUMPDEST PUSH2 0x742 JUMP JUMPDEST PUSH1 0x40 MLOAD PUSH2 0x28E SWAP2 SWAP1 PUSH2 0xA9B JUMP JUMPDEST PUSH1 0x40 MLOAD DUP1 SWAP2 SUB SWAP1 RETURN JUMPDEST PUSH2 0x2B1 PUSH1 0x4 DUP1 CALLDATASIZE SUB DUP2 ADD SWAP1 PUSH2 0x2AC SWAP2 SWAP1 PUSH2 0xB36 JUMP JUMPDEST PUSH2 0x7B0 JUMP JUMPDEST PUSH1 0x40 MLOAD PUSH2 0x2BE SWAP2 SWAP1 PUSH2 0xB98 JUMP JUMPDEST PUSH1 0x40 MLOAD DUP1 SWAP2 SUB SWAP1 RETURN JUMPDEST PUSH2 0x2E1 PUSH1 0x4 DUP1 CALLDATASIZE SUB DUP2 ADD SWAP1 PUSH2 0x2DC SWAP2 SWAP1 PUSH2 0xAB6 JUMP JUMPDEST PUSH2 0x7DD JUMP JUMPDEST STOP JUMPDEST PUSH2 0x2FD PUSH1 0x4 DUP1 CALLDATASIZE SUB DUP2 ADD SWAP1 PUSH2 0x2F8 SWAP2 SWAP1 PUSH2 0x937 JUMP JUMPDEST PUSH2 0x89B JUMP JUMPDEST PUSH1 0x40 MLOAD PUSH2 0x30A SWAP2 SWAP1 PUSH2 0xB98 JUMP JUMPDEST PUSH1 0x40 MLOAD DUP1 SWAP2 SUB SWAP1 RETURN JUMPDEST PUSH2 0x32D PUSH1 0x4 DUP1 CALLDATASIZE SUB DUP2 ADD SWAP1 PUSH2 0x328 SWAP2 SWAP1 PUSH2 0xAB6 JUMP JUMPDEST PUSH2 0x8E6 JUMP JUMPDEST PUSH1 0x40 MLOAD PUSH2 0x33A SWAP2 SWAP1 PUSH2 0xA9B JUMP JUMPDEST PUSH1 0x40 MLOAD DUP1 SWAP2 SUB SWAP1 RETURN JUMPDEST PUSH1 0x60 PUSH1 0x0 PUSH1 0x2 DUP4 PUSH2 0x354 SWAP2 SWAP1 PUSH2 0xBE2 JUMP JUMPDEST SUB PUSH2 0x396 JUMPI PUSH1 0x40 MLOAD DUP1 PUSH1 0x40 ADD PUSH1 0x40 MSTORE DUP1 PUSH1 0x4 DUP2 MSTORE PUSH1 0x20 ADD PUSH32 0x6576656E00000000000000000000000000000000000000000000000000000000 DUP2 MSTORE POP SWAP1 POP PUSH2 0x3CF JUMP JUMPDEST PUSH1 0x40 MLOAD DUP1 PUSH1 0x40 ADD PUSH1 0x40 MSTORE DUP1 PUSH1 0x3 DUP2 MSTORE PUSH1 0x20 ADD PUSH32 0x6F64640000000000000000000000000000000000000000000000000000000000 DUP2 MSTORE POP SWAP1 POP JUMPDEST SWAP2 SWAP1 POP JUMP JUMPDEST PUSH1 0x0 DUP2 DUP4 PUSH2 0x3E2 SWAP2 SWAP1 PUSH2 0xD75 JUMP JUMPDEST SWAP1 POP SWAP3 SWAP2 POP POP JUMP JUMPDEST PUSH1 0x0 PUSH1 0x1 SWAP1 POP PUSH1 0x0 PUSH1 0x2 SWAP1 POP DUP1 DUP3 DUP1 SWAP3 POP DUP2 SWAP4 POP POP POP POP POP JUMP JUMPDEST PUSH1 0x0 DUP1 DUP3 SWAP1 POP PUSH1 0x0 PUSH1 0x1 SWAP1 POP JUMPDEST PUSH1 0x0 DUP3 EQ PUSH2 0x44D JUMPI PUSH1 0x0 PUSH1 0xA DUP4 PUSH2 0x428 SWAP2 SWAP1 PUSH2 0xDC0 JUMP JUMPDEST SWAP1 POP DUP1 DUP3 PUSH2 0x436 SWAP2 SWAP1 PUSH2 0xDF1 JUMP JUMPDEST SWAP2 POP PUSH1 0xA DUP4 PUSH2 0x445 SWAP2 SWAP1 PUSH2 0xE33 JUMP JUMPDEST SWAP3 POP POP PUSH2 0x411 JUMP JUMPDEST DUP1 SWAP3 POP POP POP SWAP2 SWAP1 POP JUMP JUMPDEST PUSH1 0x0 DUP1 DUP3 SWAP1 POP PUSH1 0x0 DUP1 JUMPDEST PUSH1 0x0 DUP4 EQ PUSH2 0x48B JUMPI DUP2 DUP1 PUSH2 0x474 SWAP1 PUSH2 0xE64 JUMP JUMPDEST SWAP3 POP POP PUSH1 0xA DUP4 PUSH2 0x484 SWAP2 SWAP1 PUSH2 0xE33 JUMP JUMPDEST SWAP3 POP PUSH2 0x461 JUMP JUMPDEST PUSH1 0x0 DUP3 SUB PUSH2 0x4CE JUMPI PUSH1 0x40 MLOAD PUSH32 0x8C379A000000000000000000000000000000000000000000000000000000000 DUP2 MSTORE PUSH1 0x4 ADD PUSH2 0x4C5 SWAP1 PUSH2 0xEF8 JUMP JUMPDEST PUSH1 0x40 MLOAD DUP1 SWAP2 SUB SWAP1 REVERT JUMPDEST DUP5 SWAP3 POP JUMPDEST PUSH1 0x0 DUP4 EQ PUSH2 0x519 JUMPI PUSH1 0x0 PUSH1 0xA DUP5 PUSH2 0x4E9 SWAP2 SWAP1 PUSH2 0xDC0 JUMP JUMPDEST SWAP1 POP DUP3 DUP2 PUSH2 0x4F7 SWAP2 SWAP1 PUSH2 0xD75 JUMP JUMPDEST DUP3 PUSH2 0x502 SWAP2 SWAP1 PUSH2 0xF18 JUMP JUMPDEST SWAP2 POP PUSH1 0xA DUP5 PUSH2 0x511 SWAP2 SWAP1 PUSH2 0xE33 JUMP JUMPDEST SWAP4 POP POP PUSH2 0x4D2 JUMP JUMPDEST DUP1 DUP6 EQ PUSH2 0x527 JUMPI PUSH1 0x0 PUSH2 0x52A JUMP JUMPDEST PUSH1 0x1 JUMPDEST PUSH1 0xFF AND SWAP4 POP POP POP POP SWAP2 SWAP1 POP JUMP JUMPDEST PUSH1 0x0 DUP1 DUP3 SWAP1 POP PUSH1 0x0 JUMPDEST PUSH1 0x0 DUP3 EQ PUSH2 0x57C JUMPI PUSH1 0x0 PUSH1 0xA DUP4 PUSH2 0x557 SWAP2 SWAP1 PUSH2 0xDC0 JUMP JUMPDEST SWAP1 POP DUP1 DUP3 PUSH2 0x565 SWAP2 SWAP1 PUSH2 0xF18 JUMP JUMPDEST SWAP2 POP PUSH1 0xA DUP4 PUSH2 0x574 SWAP2 SWAP1 PUSH2 0xE33 JUMP JUMPDEST SWAP3 POP POP PUSH2 0x540 JUMP JUMPDEST DUP1 SWAP3 POP POP POP SWAP2 SWAP1 POP JUMP JUMPDEST PUSH1 0x0 PUSH1 0x3 DUP3 DUP5 DUP7 PUSH2 0x597 SWAP2 SWAP1 PUSH2 0xF18 JUMP JUMPDEST PUSH2 0x5A1 SWAP2 SWAP1 PUSH2 0xF18 JUMP JUMPDEST PUSH2 0x5AB SWAP2 SWAP1 PUSH2 0xE33 JUMP JUMPDEST SWAP1 POP SWAP4 SWAP3 POP POP POP JUMP JUMPDEST PUSH1 0x0 DUP1 PUSH1 0x0 DUP4 SWAP1 POP JUMPDEST PUSH1 0x0 DUP2 EQ PUSH2 0x605 JUMPI PUSH1 0x0 PUSH1 0xA DUP3 PUSH2 0x5D4 SWAP2 SWAP1 PUSH2 0xDC0 JUMP JUMPDEST SWAP1 POP DUP1 PUSH1 0xA DUP5 PUSH2 0x5E4 SWAP2 SWAP1 PUSH2 0xDF1 JUMP JUMPDEST PUSH2 0x5EE SWAP2 SWAP1 PUSH2 0xF18 JUMP JUMPDEST SWAP3 POP PUSH1 0xA DUP3 PUSH2 0x5FD SWAP2 SWAP1 PUSH2 0xE33 JUMP JUMPDEST SWAP2 POP POP PUSH2 0x5BD JUMP JUMPDEST DUP2 SWAP3 POP POP POP SWAP2 SWAP1 POP JUMP JUMPDEST PUSH1 0x0 DUP1 PUSH1 0x0 SWAP1 POP JUMPDEST PUSH1 0x2 PUSH1 0x0 PUSH1 0x40 MLOAD PUSH2 0x627 SWAP1 PUSH2 0xFA3 JUMP JUMPDEST SWAP1 DUP2 MSTORE PUSH1 0x20 ADD PUSH1 0x40 MLOAD DUP1 SWAP2 SUB SWAP1 KECCAK256 DUP1 SLOAD SWAP1 POP PUSH2 0x643 SWAP2 SWAP1 PUSH2 0xFB8 JUMP JUMPDEST DUP2 LT ISZERO PUSH2 0x739 JUMPI PUSH1 0x0 PUSH1 0x40 MLOAD PUSH2 0x658 SWAP1 PUSH2 0xFA3 JUMP JUMPDEST SWAP1 DUP2 MSTORE PUSH1 0x20 ADD PUSH1 0x40 MLOAD DUP1 SWAP2 SUB SWAP1 KECCAK256 PUSH1 0x2 DUP3 PUSH2 0x673 SWAP2 SWAP1 PUSH2 0xF18 JUMP JUMPDEST DUP2 SLOAD DUP2 LT PUSH2 0x684 JUMPI PUSH2 0x683 PUSH2 0xFEC JUMP JUMPDEST JUMPDEST SWAP1 PUSH1 0x0 MSTORE PUSH1 0x20 PUSH1 0x0 KECCAK256 ADD SLOAD PUSH1 0x0 PUSH1 0x40 MLOAD PUSH2 0x69D SWAP1 PUSH2 0xFA3 JUMP JUMPDEST SWAP1 DUP2 MSTORE PUSH1 0x20 ADD PUSH1 0x40 MLOAD DUP1 SWAP2 SUB SWAP1 KECCAK256 PUSH1 0x1 DUP4 PUSH2 0x6B8 SWAP2 SWAP1 PUSH2 0xF18 JUMP JUMPDEST DUP2 SLOAD DUP2 LT PUSH2 0x6C9 JUMPI PUSH2 0x6C8 PUSH2 0xFEC JUMP JUMPDEST JUMPDEST SWAP1 PUSH1 0x0 MSTORE PUSH1 0x20 PUSH1 0x0 KECCAK256 ADD SLOAD PUSH2 0x6DE SWAP2 SWAP1 PUSH2 0xF18 JUMP JUMPDEST PUSH1 0x0 PUSH1 0x40 MLOAD PUSH2 0x6EC SWAP1 PUSH2 0xFA3 JUMP JUMPDEST SWAP1 DUP2 MSTORE PUSH1 0x20 ADD PUSH1 0x40 MLOAD DUP1 SWAP2 SUB SWAP1 KECCAK256 DUP3 DUP2 SLOAD DUP2 LT PUSH2 0x70C JUMPI PUSH2 0x70B PUSH2 0xFEC JUMP JUMPDEST JUMPDEST SWAP1 PUSH1 0x0 MSTORE PUSH1 0x20 PUSH1 0x0 KECCAK256 ADD SLOAD EQ PUSH2 0x726 JUMPI PUSH1 0x0 SWAP2 POP POP PUSH2 0x73F JUMP JUMPDEST DUP1 DUP1 PUSH2 0x731 SWAP1 PUSH2 0xE64 JUMP JUMPDEST SWAP2 POP POP PUSH2 0x617 JUMP JUMPDEST POP PUSH1 0x1 SWAP1 POP JUMPDEST SWAP1 JUMP JUMPDEST PUSH1 0x0 DUP1 DUP3 SWAP1 POP PUSH1 0x0 JUMPDEST PUSH1 0x0 DUP3 EQ PUSH2 0x793 JUMPI PUSH1 0x0 PUSH1 0xA DUP4 PUSH2 0x762 SWAP2 SWAP1 PUSH2 0xDC0 JUMP JUMPDEST SWAP1 POP DUP1 PUSH1 0xA DUP4 PUSH2 0x772 SWAP2 SWAP1 PUSH2 0xDF1 JUMP JUMPDEST PUSH2 0x77C SWAP2 SWAP1 PUSH2 0xF18 JUMP JUMPDEST SWAP2 POP PUSH1 0xA DUP4 PUSH2 0x78B SWAP2 SWAP1 PUSH2 0xE33 JUMP JUMPDEST SWAP3 POP POP PUSH2 0x74B JUMP JUMPDEST DUP4 DUP2 EQ PUSH2 0x7A1 JUMPI PUSH1 0x0 PUSH2 0x7A4 JUMP JUMPDEST PUSH1 0x1 JUMPDEST PUSH1 0xFF AND SWAP3 POP POP POP SWAP2 SWAP1 POP JUMP JUMPDEST PUSH1 0x0 DUP1 DUP4 DUP6 SGT PUSH2 0x7C0 JUMPI DUP4 PUSH2 0x7C2 JUMP JUMPDEST DUP5 JUMPDEST SWAP1 POP DUP3 DUP2 SGT PUSH2 0x7D1 JUMPI DUP3 PUSH2 0x7D3 JUMP JUMPDEST DUP1 JUMPDEST SWAP2 POP POP SWAP4 SWAP3 POP POP POP JUMP JUMPDEST PUSH1 0x0 DUP2 SUB PUSH2 0x820 JUMPI PUSH1 0x40 MLOAD PUSH32 0x8C379A000000000000000000000000000000000000000000000000000000000 DUP2 MSTORE PUSH1 0x4 ADD PUSH2 0x817 SWAP1 PUSH2 0x1067 JUMP JUMPDEST PUSH1 0x40 MLOAD DUP1 SWAP2 SUB SWAP1 REVERT JUMPDEST PUSH1 0x0 DUP2 SWAP1 POP JUMPDEST PUSH1 0x0 DUP2 EQ PUSH2 0x897 JUMPI PUSH1 0x0 PUSH1 0xA DUP3 PUSH2 0x83D SWAP2 SWAP1 PUSH2 0xDC0 JUMP JUMPDEST SWAP1 POP PUSH1 0x0 PUSH1 0x40 MLOAD PUSH2 0x84D SWAP1 PUSH2 0xFA3 JUMP JUMPDEST SWAP1 DUP2 MSTORE PUSH1 0x20 ADD PUSH1 0x40 MLOAD DUP1 SWAP2 SUB SWAP1 KECCAK256 DUP2 SWAP1 DUP1 PUSH1 0x1 DUP2 SLOAD ADD DUP1 DUP3 SSTORE DUP1 SWAP2 POP POP PUSH1 0x1 SWAP1 SUB SWAP1 PUSH1 0x0 MSTORE PUSH1 0x20 PUSH1 0x0 KECCAK256 ADD PUSH1 0x0 SWAP1 SWAP2 SWAP1 SWAP2 SWAP1 SWAP2 POP SSTORE PUSH1 0xA DUP3 PUSH2 0x88F SWAP2 SWAP1 PUSH2 0xE33 JUMP JUMPDEST SWAP2 POP POP PUSH2 0x826 JUMP JUMPDEST POP POP JUMP JUMPDEST PUSH1 0x0 DUP1 PUSH1 0x2 SWAP1 POP JUMPDEST DUP3 DUP2 SLT ISZERO PUSH2 0x8DB JUMPI PUSH1 0x0 DUP2 DUP5 PUSH2 0x8B9 SWAP2 SWAP1 PUSH2 0xBE2 JUMP JUMPDEST SUB PUSH2 0x8C8 JUMPI PUSH1 0x0 SWAP2 POP POP PUSH2 0x8E1 JUMP JUMPDEST DUP1 DUP1 PUSH2 0x8D3 SWAP1 PUSH2 0x1087 JUMP JUMPDEST SWAP2 POP POP PUSH2 0x8A3 JUMP JUMPDEST POP PUSH1 0x1 SWAP1 POP JUMPDEST SWAP2 SWAP1 POP JUMP JUMPDEST PUSH1 0x0 PUSH1 0x2 DUP3 PUSH2 0x8F5 SWAP2 SWAP1 PUSH2 0x10DC JUMP JUMPDEST SWAP1 POP SWAP2 SWAP1 POP JUMP JUMPDEST PUSH1 0x0 DUP1 REVERT JUMPDEST PUSH1 0x0 DUP2 SWAP1 POP SWAP2 SWAP1 POP JUMP JUMPDEST PUSH2 0x914 DUP2 PUSH2 0x901 JUMP JUMPDEST DUP2 EQ PUSH2 0x91F JUMPI PUSH1 0x0 DUP1 REVERT JUMPDEST POP JUMP JUMPDEST PUSH1 0x0 DUP2 CALLDATALOAD SWAP1 POP PUSH2 0x931 DUP2 PUSH2 0x90B JUMP JUMPDEST SWAP3 SWAP2 POP POP JUMP JUMPDEST PUSH1 0x0 PUSH1 0x20 DUP3 DUP5 SUB SLT ISZERO PUSH2 0x94D JUMPI PUSH2 0x94C PUSH2 0x8FC JUMP JUMPDEST JUMPDEST PUSH1 0x0 PUSH2 0x95B DUP5 DUP3 DUP6 ADD PUSH2 0x922 JUMP JUMPDEST SWAP2 POP POP SWAP3 SWAP2 POP POP JUMP JUMPDEST PUSH1 0x0 DUP2 MLOAD SWAP1 POP SWAP2 SWAP1 POP JUMP JUMPDEST PUSH1 0x0 DUP3 DUP3 MSTORE PUSH1 0x20 DUP3 ADD SWAP1 POP SWAP3 SWAP2 POP POP JUMP JUMPDEST PUSH1 0x0 JUMPDEST DUP4 DUP2 LT ISZERO PUSH2 0x99E JUMPI DUP1 DUP3 ADD MLOAD DUP2 DUP5 ADD MSTORE PUSH1 0x20 DUP2 ADD SWAP1 POP PUSH2 0x983 JUMP JUMPDEST PUSH1 0x0 DUP5 DUP5 ADD MSTORE POP POP POP POP JUMP JUMPDEST PUSH1 0x0 PUSH1 0x1F NOT PUSH1 0x1F DUP4 ADD AND SWAP1 POP SWAP2 SWAP1 POP JUMP JUMPDEST PUSH1 0x0 PUSH2 0x9C6 DUP3 PUSH2 0x964 JUMP JUMPDEST PUSH2 0x9D0 DUP2 DUP6 PUSH2 0x96F JUMP JUMPDEST SWAP4 POP PUSH2 0x9E0 DUP2 DUP6 PUSH1 0x20 DUP7 ADD PUSH2 0x980 JUMP JUMPDEST PUSH2 0x9E9 DUP2 PUSH2 0x9AA JUMP JUMPDEST DUP5 ADD SWAP2 POP POP SWAP3 SWAP2 POP POP JUMP JUMPDEST PUSH1 0x0 PUSH1 0x20 DUP3 ADD SWAP1 POP DUP2 DUP2 SUB PUSH1 0x0 DUP4 ADD MSTORE PUSH2 0xA0E DUP2 DUP5 PUSH2 0x9BB JUMP JUMPDEST SWAP1 POP SWAP3 SWAP2 POP POP JUMP JUMPDEST PUSH1 0x0 DUP2 SWAP1 POP SWAP2 SWAP1 POP JUMP JUMPDEST PUSH2 0xA29 DUP2 PUSH2 0xA16 JUMP JUMPDEST DUP2 EQ PUSH2 0xA34 JUMPI PUSH1 0x0 DUP1 REVERT JUMPDEST POP JUMP JUMPDEST PUSH1 0x0 DUP2 CALLDATALOAD SWAP1 POP PUSH2 0xA46 DUP2 PUSH2 0xA20 JUMP JUMPDEST SWAP3 SWAP2 POP POP JUMP JUMPDEST PUSH1 0x0 DUP1 PUSH1 0x40 DUP4 DUP6 SUB SLT ISZERO PUSH2 0xA63 JUMPI PUSH2 0xA62 PUSH2 0x8FC JUMP JUMPDEST JUMPDEST PUSH1 0x0 PUSH2 0xA71 DUP6 DUP3 DUP7 ADD PUSH2 0xA37 JUMP JUMPDEST SWAP3 POP POP PUSH1 0x20 PUSH2 0xA82 DUP6 DUP3 DUP7 ADD PUSH2 0xA37 JUMP JUMPDEST SWAP2 POP POP SWAP3 POP SWAP3 SWAP1 POP JUMP JUMPDEST PUSH2 0xA95 DUP2 PUSH2 0xA16 JUMP JUMPDEST DUP3 MSTORE POP POP JUMP JUMPDEST PUSH1 0x0 PUSH1 0x20 DUP3 ADD SWAP1 POP PUSH2 0xAB0 PUSH1 0x0 DUP4 ADD DUP5 PUSH2 0xA8C JUMP JUMPDEST SWAP3 SWAP2 POP POP JUMP JUMPDEST PUSH1 0x0 PUSH1 0x20 DUP3 DUP5 SUB SLT ISZERO PUSH2 0xACC JUMPI PUSH2 0xACB PUSH2 0x8FC JUMP JUMPDEST JUMPDEST PUSH1 0x0 PUSH2 0xADA DUP5 DUP3 DUP6 ADD PUSH2 0xA37 JUMP JUMPDEST SWAP2 POP POP SWAP3 SWAP2 POP POP JUMP JUMPDEST PUSH1 0x0 DUP1 PUSH1 0x0 PUSH1 0x60 DUP5 DUP7 SUB SLT ISZERO PUSH2 0xAFC JUMPI PUSH2 0xAFB PUSH2 0x8FC JUMP JUMPDEST JUMPDEST PUSH1 0x0 PUSH2 0xB0A DUP7 DUP3 DUP8 ADD PUSH2 0xA37 JUMP JUMPDEST SWAP4 POP POP PUSH1 0x20 PUSH2 0xB1B DUP7 DUP3 DUP8 ADD PUSH2 0xA37 JUMP JUMPDEST SWAP3 POP POP PUSH1 0x40 PUSH2 0xB2C DUP7 DUP3 DUP8 ADD PUSH2 0xA37 JUMP JUMPDEST SWAP2 POP POP SWAP3 POP SWAP3 POP SWAP3 JUMP JUMPDEST PUSH1 0x0 DUP1 PUSH1 0x0 PUSH1 0x60 DUP5 DUP7 SUB SLT ISZERO PUSH2 0xB4F JUMPI PUSH2 0xB4E PUSH2 0x8FC JUMP JUMPDEST JUMPDEST PUSH1 0x0 PUSH2 0xB5D DUP7 DUP3 DUP8 ADD PUSH2 0x922 JUMP JUMPDEST SWAP4 POP POP PUSH1 0x20 PUSH2 0xB6E DUP7 DUP3 DUP8 ADD PUSH2 0x922 JUMP JUMPDEST SWAP3 POP POP PUSH1 0x40 PUSH2 0xB7F DUP7 DUP3 DUP8 ADD PUSH2 0x922 JUMP JUMPDEST SWAP2 POP POP SWAP3 POP SWAP3 POP SWAP3 JUMP JUMPDEST PUSH2 0xB92 DUP2 PUSH2 0x901 JUMP JUMPDEST DUP3 MSTORE POP POP JUMP JUMPDEST PUSH1 0x0 PUSH1 0x20 DUP3 ADD SWAP1 POP PUSH2 0xBAD PUSH1 0x0 DUP4 ADD DUP5 PUSH2 0xB89 JUMP JUMPDEST SWAP3 SWAP2 POP POP JUMP JUMPDEST PUSH32 0x4E487B7100000000000000000000000000000000000000000000000000000000 PUSH1 0x0 MSTORE PUSH1 0x12 PUSH1 0x4 MSTORE PUSH1 0x24 PUSH1 0x0 REVERT JUMPDEST PUSH1 0x0 PUSH2 0xBED DUP3 PUSH2 0x901 JUMP JUMPDEST SWAP2 POP PUSH2 0xBF8 DUP4 PUSH2 0x901 JUMP JUMPDEST SWAP3 POP DUP3 PUSH2 0xC08 JUMPI PUSH2 0xC07 PUSH2 0xBB3 JUMP JUMPDEST JUMPDEST DUP3 DUP3 SMOD SWAP1 POP SWAP3 SWAP2 POP POP JUMP JUMPDEST PUSH32 0x4E487B7100000000000000000000000000000000000000000000000000000000 PUSH1 0x0 MSTORE PUSH1 0x11 PUSH1 0x4 MSTORE PUSH1 0x24 PUSH1 0x0 REVERT JUMPDEST PUSH1 0x0 DUP2 PUSH1 0x1 SHR SWAP1 POP SWAP2 SWAP1 POP JUMP JUMPDEST PUSH1 0x0 DUP1 DUP3 SWAP2 POP DUP4 SWAP1 POP JUMPDEST PUSH1 0x1 DUP6 GT ISZERO PUSH2 0xC99 JUMPI DUP1 DUP7 DIV DUP2 GT ISZERO PUSH2 0xC75 JUMPI PUSH2 0xC74 PUSH2 0xC13 JUMP JUMPDEST JUMPDEST PUSH1 0x1 DUP6 AND ISZERO PUSH2 0xC84 JUMPI DUP1 DUP3 MUL SWAP2 POP JUMPDEST DUP1 DUP2 MUL SWAP1 POP PUSH2 0xC92 DUP6 PUSH2 0xC42 JUMP JUMPDEST SWAP5 POP PUSH2 0xC59 JUMP JUMPDEST SWAP5 POP SWAP5 SWAP3 POP POP POP JUMP JUMPDEST PUSH1 0x0 DUP3 PUSH2 0xCB2 JUMPI PUSH1 0x1 SWAP1 POP PUSH2 0xD6E JUMP JUMPDEST DUP2 PUSH2 0xCC0 JUMPI PUSH1 0x0 SWAP1 POP PUSH2 0xD6E JUMP JUMPDEST DUP2 PUSH1 0x1 DUP2 EQ PUSH2 0xCD6 JUMPI PUSH1 0x2 DUP2 EQ PUSH2 0xCE0 JUMPI PUSH2 0xD0F JUMP JUMPDEST PUSH1 0x1 SWAP2 POP POP PUSH2 0xD6E JUMP JUMPDEST PUSH1 0xFF DUP5 GT ISZERO PUSH2 0xCF2 JUMPI PUSH2 0xCF1 PUSH2 0xC13 JUMP JUMPDEST JUMPDEST DUP4 PUSH1 0x2 EXP SWAP2 POP DUP5 DUP3 GT ISZERO PUSH2 0xD09 JUMPI PUSH2 0xD08 PUSH2 0xC13 JUMP JUMPDEST JUMPDEST POP PUSH2 0xD6E JUMP JUMPDEST POP PUSH1 0x20 DUP4 LT PUSH2 0x133 DUP4 LT AND PUSH1 0x4E DUP5 LT PUSH1 0xB DUP5 LT AND OR ISZERO PUSH2 0xD44 JUMPI DUP3 DUP3 EXP SWAP1 POP DUP4 DUP2 GT ISZERO PUSH2 0xD3F JUMPI PUSH2 0xD3E PUSH2 0xC13 JUMP JUMPDEST JUMPDEST PUSH2 0xD6E JUMP JUMPDEST PUSH2 0xD51 DUP5 DUP5 DUP5 PUSH1 0x1 PUSH2 0xC4F JUMP JUMPDEST SWAP3 POP SWAP1 POP DUP2 DUP5 DIV DUP2 GT ISZERO PUSH2 0xD68 JUMPI PUSH2 0xD67 PUSH2 0xC13 JUMP JUMPDEST JUMPDEST DUP2 DUP2 MUL SWAP1 POP JUMPDEST SWAP4 SWAP3 POP POP POP JUMP JUMPDEST PUSH1 0x0 PUSH2 0xD80 DUP3 PUSH2 0xA16 JUMP JUMPDEST SWAP2 POP PUSH2 0xD8B DUP4 PUSH2 0xA16 JUMP JUMPDEST SWAP3 POP PUSH2 0xDB8 PUSH32 0xFFFFFFFFFFFFFFFFFFFFFFFFFFFFFFFFFFFFFFFFFFFFFFFFFFFFFFFFFFFFFFFF DUP5 DUP5 PUSH2 0xCA2 JUMP JUMPDEST SWAP1 POP SWAP3 SWAP2 POP POP JUMP JUMPDEST PUSH1 0x0 PUSH2 0xDCB DUP3 PUSH2 0xA16 JUMP JUMPDEST SWAP2 POP PUSH2 0xDD6 DUP4 PUSH2 0xA16 JUMP JUMPDEST SWAP3 POP DUP3 PUSH2 0xDE6 JUMPI PUSH2 0xDE5 PUSH2 0xBB3 JUMP JUMPDEST JUMPDEST DUP3 DUP3 MOD SWAP1 POP SWAP3 SWAP2 POP POP JUMP JUMPDEST PUSH1 0x0 PUSH2 0xDFC DUP3 PUSH2 0xA16 JUMP JUMPDEST SWAP2 POP PUSH2 0xE07 DUP4 PUSH2 0xA16 JUMP JUMPDEST SWAP3 POP DUP3 DUP3 MUL PUSH2 0xE15 DUP2 PUSH2 0xA16 JUMP JUMPDEST SWAP2 POP DUP3 DUP3 DIV DUP5 EQ DUP4 ISZERO OR PUSH2 0xE2C JUMPI PUSH2 0xE2B PUSH2 0xC13 JUMP JUMPDEST JUMPDEST POP SWAP3 SWAP2 POP POP JUMP JUMPDEST PUSH1 0x0 PUSH2 0xE3E DUP3 PUSH2 0xA16 JUMP JUMPDEST SWAP2 POP PUSH2 0xE49 DUP4 PUSH2 0xA16 JUMP JUMPDEST SWAP3 POP DUP3 PUSH2 0xE59 JUMPI PUSH2 0xE58 PUSH2 0xBB3 JUMP JUMPDEST JUMPDEST DUP3 DUP3 DIV SWAP1 POP SWAP3 SWAP2 POP POP JUMP JUMPDEST PUSH1 0x0 PUSH2 0xE6F DUP3 PUSH2 0xA16 JUMP JUMPDEST SWAP2 POP PUSH32 0xFFFFFFFFFFFFFFFFFFFFFFFFFFFFFFFFFFFFFFFFFFFFFFFFFFFFFFFFFFFFFFFF DUP3 SUB PUSH2 0xEA1 JUMPI PUSH2 0xEA0 PUSH2 0xC13 JUMP JUMPDEST JUMPDEST PUSH1 0x1 DUP3 ADD SWAP1 POP SWAP2 SWAP1 POP JUMP JUMPDEST PUSH32 0x6E6F7420612076616C6964206E756D6265720000000000000000000000000000 PUSH1 0x0 DUP3 ADD MSTORE POP JUMP JUMPDEST PUSH1 0x0 PUSH2 0xEE2 PUSH1 0x12 DUP4 PUSH2 0x96F JUMP JUMPDEST SWAP2 POP PUSH2 0xEED DUP3 PUSH2 0xEAC JUMP JUMPDEST PUSH1 0x20 DUP3 ADD SWAP1 POP SWAP2 SWAP1 POP JUMP JUMPDEST PUSH1 0x0 PUSH1 0x20 DUP3 ADD SWAP1 POP DUP2 DUP2 SUB PUSH1 0x0 DUP4 ADD MSTORE PUSH2 0xF11 DUP2 PUSH2 0xED5 JUMP JUMPDEST SWAP1 POP SWAP2 SWAP1 POP JUMP JUMPDEST PUSH1 0x0 PUSH2 0xF23 DUP3 PUSH2 0xA16 JUMP JUMPDEST SWAP2 POP PUSH2 0xF2E DUP4 PUSH2 0xA16 JUMP JUMPDEST SWAP3 POP DUP3 DUP3 ADD SWAP1 POP DUP1 DUP3 GT ISZERO PUSH2 0xF46 JUMPI PUSH2 0xF45 PUSH2 0xC13 JUMP JUMPDEST JUMPDEST SWAP3 SWAP2 POP POP JUMP JUMPDEST PUSH1 0x0 DUP2 SWAP1 POP SWAP3 SWAP2 POP POP JUMP JUMPDEST PUSH32 0x6E756D4172720000000000000000000000000000000000000000000000000000 PUSH1 0x0 DUP3 ADD MSTORE POP JUMP JUMPDEST PUSH1 0x0 PUSH2 0xF8D PUSH1 0x6 DUP4 PUSH2 0xF4C JUMP JUMPDEST SWAP2 POP PUSH2 0xF98 DUP3 PUSH2 0xF57 JUMP JUMPDEST PUSH1 0x6 DUP3 ADD SWAP1 POP SWAP2 SWAP1 POP JUMP JUMPDEST PUSH1 0x0 PUSH2 0xFAE DUP3 PUSH2 0xF80 JUMP JUMPDEST SWAP2 POP DUP2 SWAP1 POP SWAP2 SWAP1 POP JUMP JUMPDEST PUSH1 0x0 PUSH2 0xFC3 DUP3 PUSH2 0xA16 JUMP JUMPDEST SWAP2 POP PUSH2 0xFCE DUP4 PUSH2 0xA16 JUMP JUMPDEST SWAP3 POP DUP3 DUP3 SUB SWAP1 POP DUP2 DUP2 GT ISZERO PUSH2 0xFE6 JUMPI PUSH2 0xFE5 PUSH2 0xC13 JUMP JUMPDEST JUMPDEST SWAP3 SWAP2 POP POP JUMP JUMPDEST PUSH32 0x4E487B7100000000000000000000000000000000000000000000000000000000 PUSH1 0x0 MSTORE PUSH1 0x32 PUSH1 0x4 MSTORE PUSH1 0x24 PUSH1 0x0 REVERT JUMPDEST PUSH32 0x6E6F7420412076616C6964206E756D6265720000000000000000000000000000 PUSH1 0x0 DUP3 ADD MSTORE POP JUMP JUMPDEST PUSH1 0x0 PUSH2 0x1051 PUSH1 0x12 DUP4 PUSH2 0x96F JUMP JUMPDEST SWAP2 POP PUSH2 0x105C DUP3 PUSH2 0x101B JUMP JUMPDEST PUSH1 0x20 DUP3 ADD SWAP1 POP SWAP2 SWAP1 POP JUMP JUMPDEST PUSH1 0x0 PUSH1 0x20 DUP3 ADD SWAP1 POP DUP2 DUP2 SUB PUSH1 0x0 DUP4 ADD MSTORE PUSH2 0x1080 DUP2 PUSH2 0x1044 JUMP JUMPDEST SWAP1 POP SWAP2 SWAP1 POP JUMP JUMPDEST PUSH1 0x0 PUSH2 0x1092 DUP3 PUSH2 0x901 JUMP JUMPDEST SWAP2 POP PUSH32 0x7FFFFFFFFFFFFFFFFFFFFFFFFFFFFFFFFFFFFFFFFFFFFFFFFFFFFFFFFFFFFFFF DUP3 SUB PUSH2 0x10C4 JUMPI PUSH2 0x10C3 PUSH2 0xC13 JUMP JUMPDEST JUMPDEST PUSH1 0x1 DUP3 ADD SWAP1 POP SWAP2 SWAP1 POP JUMP JUMPDEST PUSH1 0x0 PUSH1 0xFF DUP3 AND SWAP1 POP SWAP2 SWAP1 POP JUMP JUMPDEST PUSH1 0x0 PUSH2 0x10E7 DUP3 PUSH2 0xA16 JUMP JUMPDEST SWAP2 POP PUSH2 0x10F2 DUP4 PUSH2 0x10CF JUMP JUMPDEST SWAP3 POP PUSH2 0x111F PUSH32 0xFFFFFFFFFFFFFFFFFFFFFFFFFFFFFFFFFFFFFFFFFFFFFFFFFFFFFFFFFFFFFFFF DUP5 DUP5 PUSH2 0xCA2 JUMP JUMPDEST SWAP1 POP SWAP3 SWAP2 POP POP JUMP INVALID LOG2 PUSH5 0x6970667358 0x22 SLT KECCAK256 0xEA 0x1F 0xEC 0xD8 0x4E 0xB2 0xB8 0xB8 LOG2 DIV SWAP16 0xE SWAP10 0xE9 0xCD 0xC8 0xD5 MOD GAS 0xE7 0xA8 SELFDESTRUCT PUSH4 0x46C9B1B3 OR CALLVALUE 0x25 0x5C PUSH10 0x64736F6C634300081100 CALLER "
				},
				"gasEstimates": {
					"creation": {
						"codeDepositCost": "889000",
						"executionCost": "922",
						"totalCost": "889922"
					},
					"external": {
						"Palindrome(uint256)": "infinite",
						"amstrong(uint256)": "infinite",
						"avg(uint256,uint256,uint256)": "infinite",
						"cube(uint256)": "infinite",
						"expo(uint256,uint256)": "infinite",
						"factorial(uint256)": "infinite",
						"fibonnical(uint256)": "infinite",
						"fibonnicalResult()": "infinite",
						"greater(int256,int256,int256)": "infinite",
						"oddOrEven(int256)": "infinite",
						"prime(int256)": "infinite",
						"reverseInt(uint256)": "infinite",
						"sumOfDigits(uint256)": "infinite",
						"swap()": "264"
					}
				},
				"methodIdentifiers": {
					"Palindrome(uint256)": "cdab7807",
					"amstrong(uint256)": "83d3705e",
					"avg(uint256,uint256,uint256)": "92cc2841",
					"cube(uint256)": "f4bf03c7",
					"expo(uint256,uint256)": "4f4752ba",
					"factorial(uint256)": "83714834",
					"fibonnical(uint256)": "f26c79ef",
					"fibonnicalResult()": "b4133721",
					"greater(int256,int256,int256)": "d9ea8e64",
					"oddOrEven(int256)": "46439726",
					"prime(int256)": "f492c000",
					"reverseInt(uint256)": "9e098fc1",
					"sumOfDigits(uint256)": "8ce32d21",
					"swap()": "8119c065"
				}
			},
			"storageLayout": {
				"storage": [
					{
						"astId": 6,
						"contract": "contracts/codeEater/Asg1.sol:Asg1",
						"label": "holder",
						"offset": 0,
						"slot": "0",
						"type": "t_mapping(t_string_memory_ptr,t_array(t_uint256)dyn_storage)"
					}
				],
				"types": {
					"t_array(t_uint256)dyn_storage": {
						"base": "t_uint256",
						"encoding": "dynamic_array",
						"label": "uint256[]",
						"numberOfBytes": "32"
					},
					"t_mapping(t_string_memory_ptr,t_array(t_uint256)dyn_storage)": {
						"encoding": "mapping",
						"key": "t_string_memory_ptr",
						"label": "mapping(string => uint256[])",
						"numberOfBytes": "32",
						"value": "t_array(t_uint256)dyn_storage"
					},
					"t_string_memory_ptr": {
						"encoding": "bytes",
						"label": "string",
						"numberOfBytes": "32"
					},
					"t_uint256": {
						"encoding": "inplace",
						"label": "uint256",
						"numberOfBytes": "32"
					}
				}
			},
			"userdoc": {
				"kind": "user",
				"methods": {},
				"version": 1
			}
		}
	}
}