{
	"contracts/codeEater/Asg1.sol": {
		"Asg1": {
			"abi": [
				{
					"inputs": [
						{
							"internalType": "uint256",
							"name": "_inp",
							"type": "uint256"
						}
					],
					"name": "Palindrome",
					"outputs": [
						{
							"internalType": "uint256",
							"name": "",
							"type": "uint256"
						}
					],
					"stateMutability": "pure",
					"type": "function"
				},
				{
					"inputs": [
						{
							"internalType": "uint256",
							"name": "_inp",
							"type": "uint256"
						}
					],
					"name": "amstrong",
					"outputs": [
						{
							"internalType": "uint256",
							"name": "",
							"type": "uint256"
						}
					],
					"stateMutability": "pure",
					"type": "function"
				},
				{
					"inputs": [
						{
							"internalType": "uint256",
							"name": "num1",
							"type": "uint256"
						},
						{
							"internalType": "uint256",
							"name": "num2",
							"type": "uint256"
						},
						{
							"internalType": "uint256",
							"name": "num3",
							"type": "uint256"
						}
					],
					"name": "avg",
					"outputs": [
						{
							"internalType": "uint256",
							"name": "",
							"type": "uint256"
						}
					],
					"stateMutability": "pure",
					"type": "function"
				},
				{
					"inputs": [
						{
							"internalType": "uint256",
							"name": "_num1",
							"type": "uint256"
						}
					],
					"name": "cube",
					"outputs": [
						{
							"internalType": "uint256",
							"name": "",
							"type": "uint256"
						}
					],
					"stateMutability": "pure",
					"type": "function"
				},
				{
					"inputs": [
						{
							"internalType": "uint256",
							"name": "x",
							"type": "uint256"
						},
						{
							"internalType": "uint256",
							"name": "y",
							"type": "uint256"
						}
					],
					"name": "expo",
					"outputs": [
						{
							"internalType": "uint256",
							"name": "",
							"type": "uint256"
						}
					],
					"stateMutability": "pure",
					"type": "function"
				},
				{
					"inputs": [
						{
							"internalType": "uint256",
							"name": "num",
							"type": "uint256"
						}
					],
					"name": "factorial",
					"outputs": [
						{
							"internalType": "uint256",
							"name": "",
							"type": "uint256"
						}
					],
					"stateMutability": "pure",
					"type": "function"
				},
				{
					"inputs": [
						{
							"internalType": "uint256",
							"name": "num",
							"type": "uint256"
						}
					],
					"name": "fibonnical",
					"outputs": [],
					"stateMutability": "nonpayable",
					"type": "function"
				},
				{
					"inputs": [],
					"name": "fibonnicalResult",
					"outputs": [
						{
							"internalType": "uint256",
							"name": "",
							"type": "uint256"
						}
					],
					"stateMutability": "view",
					"type": "function"
				},
				{
					"inputs": [
						{
							"internalType": "int256",
							"name": "num1",
							"type": "int256"
						},
						{
							"internalType": "int256",
							"name": "num2",
							"type": "int256"
						},
						{
							"internalType": "int256",
							"name": "num3",
							"type": "int256"
						}
					],
					"name": "greater",
					"outputs": [
						{
							"internalType": "int256",
							"name": "",
							"type": "int256"
						}
					],
					"stateMutability": "pure",
					"type": "function"
				},
				{
					"inputs": [
						{
							"internalType": "int256",
							"name": "num",
							"type": "int256"
						}
					],
					"name": "oddOrEven",
					"outputs": [
						{
							"internalType": "uint256",
							"name": "",
							"type": "uint256"
						}
					],
					"stateMutability": "pure",
					"type": "function"
				},
				{
					"inputs": [
						{
							"internalType": "int256",
							"name": "num",
							"type": "int256"
						}
					],
					"name": "prime",
					"outputs": [
						{
							"internalType": "int256",
							"name": "",
							"type": "int256"
						}
					],
					"stateMutability": "pure",
					"type": "function"
				},
				{
					"inputs": [
						{
							"internalType": "uint256",
							"name": "_inp",
							"type": "uint256"
						}
					],
					"name": "reverseInt",
					"outputs": [
						{
							"internalType": "uint256",
							"name": "",
							"type": "uint256"
						}
					],
					"stateMutability": "pure",
					"type": "function"
				},
				{
					"inputs": [
						{
							"internalType": "uint256",
							"name": "_inp",
							"type": "uint256"
						}
					],
					"name": "sumOfDigits",
					"outputs": [
						{
							"internalType": "uint256",
							"name": "",
							"type": "uint256"
						}
					],
					"stateMutability": "pure",
					"type": "function"
				},
				{
					"inputs": [],
					"name": "swap",
					"outputs": [],
					"stateMutability": "pure",
					"type": "function"
				}
			],
			"devdoc": {
				"kind": "dev",
				"methods": {},
				"version": 1
			},
			"evm": {
				"assembly": "    /* \"contracts/codeEater/Asg1.sol\":56:3486  contract Asg1{... */\n  mstore(0x40, 0x80)\n  callvalue\n  dup1\n  iszero\n  tag_1\n  jumpi\n  0x00\n  dup1\n  revert\ntag_1:\n  pop\n  dataSize(sub_0)\n  dup1\n  dataOffset(sub_0)\n  0x00\n  codecopy\n  0x00\n  return\nstop\n\nsub_0: assembly {\n        /* \"contracts/codeEater/Asg1.sol\":56:3486  contract Asg1{... */\n      mstore(0x40, 0x80)\n      callvalue\n      dup1\n      iszero\n      tag_1\n      jumpi\n      0x00\n      dup1\n      revert\n    tag_1:\n      pop\n      jumpi(tag_2, lt(calldatasize, 0x04))\n      shr(0xe0, calldataload(0x00))\n      dup1\n      0x9e098fc1\n      gt\n      tag_17\n      jumpi\n      dup1\n      0xd9ea8e64\n      gt\n      tag_18\n      jumpi\n      dup1\n      0xd9ea8e64\n      eq\n      tag_13\n      jumpi\n      dup1\n      0xf26c79ef\n      eq\n      tag_14\n      jumpi\n      dup1\n      0xf492c000\n      eq\n      tag_15\n      jumpi\n      dup1\n      0xf4bf03c7\n      eq\n      tag_16\n      jumpi\n      jump(tag_2)\n    tag_18:\n      dup1\n      0x9e098fc1\n      eq\n      tag_10\n      jumpi\n      dup1\n      0xb4133721\n      eq\n      tag_11\n      jumpi\n      dup1\n      0xcdab7807\n      eq\n      tag_12\n      jumpi\n      jump(tag_2)\n    tag_17:\n      dup1\n      0x83714834\n      gt\n      tag_19\n      jumpi\n      dup1\n      0x83714834\n      eq\n      tag_6\n      jumpi\n      dup1\n      0x83d3705e\n      eq\n      tag_7\n      jumpi\n      dup1\n      0x8ce32d21\n      eq\n      tag_8\n      jumpi\n      dup1\n      0x92cc2841\n      eq\n      tag_9\n      jumpi\n      jump(tag_2)\n    tag_19:\n      dup1\n      0x46439726\n      eq\n      tag_3\n      jumpi\n      dup1\n      0x4f4752ba\n      eq\n      tag_4\n      jumpi\n      dup1\n      0x8119c065\n      eq\n      tag_5\n      jumpi\n    tag_2:\n      0x00\n      dup1\n      revert\n        /* \"contracts/codeEater/Asg1.sol\":210:325  function oddOrEven(int num) pure public returns(uint){... */\n    tag_3:\n      tag_20\n      0x04\n      dup1\n      calldatasize\n      sub\n      dup2\n      add\n      swap1\n      tag_21\n      swap2\n      swap1\n      tag_22\n      jump\t// in\n    tag_21:\n      tag_23\n      jump\t// in\n    tag_20:\n      mload(0x40)\n      tag_24\n      swap2\n      swap1\n      tag_25\n      jump\t// in\n    tag_24:\n      mload(0x40)\n      dup1\n      swap2\n      sub\n      swap1\n      return\n        /* \"contracts/codeEater/Asg1.sol\":459:542  function expo(uint x, uint y) pure public returns(uint){... */\n    tag_4:\n      tag_26\n      0x04\n      dup1\n      calldatasize\n      sub\n      dup2\n      add\n      swap1\n      tag_27\n      swap2\n      swap1\n      tag_28\n      jump\t// in\n    tag_27:\n      tag_29\n      jump\t// in\n    tag_26:\n      mload(0x40)\n      tag_30\n      swap2\n      swap1\n      tag_25\n      jump\t// in\n    tag_30:\n      mload(0x40)\n      dup1\n      swap2\n      sub\n      swap1\n      return\n        /* \"contracts/codeEater/Asg1.sol\":551:683  function swap() pure public{... */\n    tag_5:\n      tag_31\n      tag_32\n      jump\t// in\n    tag_31:\n      stop\n        /* \"contracts/codeEater/Asg1.sol\":2621:2872  function factorial(uint num) public pure returns(uint){... */\n    tag_6:\n      tag_33\n      0x04\n      dup1\n      calldatasize\n      sub\n      dup2\n      add\n      swap1\n      tag_34\n      swap2\n      swap1\n      tag_35\n      jump\t// in\n    tag_34:\n      tag_36\n      jump\t// in\n    tag_33:\n      mload(0x40)\n      tag_37\n      swap2\n      swap1\n      tag_25\n      jump\t// in\n    tag_37:\n      mload(0x40)\n      dup1\n      swap2\n      sub\n      swap1\n      return\n        /* \"contracts/codeEater/Asg1.sol\":929:1557  function amstrong(uint _inp) public pure returns(uint){... */\n    tag_7:\n      tag_38\n      0x04\n      dup1\n      calldatasize\n      sub\n      dup2\n      add\n      swap1\n      tag_39\n      swap2\n      swap1\n      tag_35\n      jump\t// in\n    tag_39:\n      tag_40\n      jump\t// in\n    tag_38:\n      mload(0x40)\n      tag_41\n      swap2\n      swap1\n      tag_25\n      jump\t// in\n    tag_41:\n      mload(0x40)\n      dup1\n      swap2\n      sub\n      swap1\n      return\n        /* \"contracts/codeEater/Asg1.sol\":2333:2611  function sumOfDigits(uint _inp) external pure returns(uint){... */\n    tag_8:\n      tag_42\n      0x04\n      dup1\n      calldatasize\n      sub\n      dup2\n      add\n      swap1\n      tag_43\n      swap2\n      swap1\n      tag_35\n      jump\t// in\n    tag_43:\n      tag_44\n      jump\t// in\n    tag_42:\n      mload(0x40)\n      tag_45\n      swap2\n      swap1\n      tag_25\n      jump\t// in\n    tag_45:\n      mload(0x40)\n      dup1\n      swap2\n      sub\n      swap1\n      return\n        /* \"contracts/codeEater/Asg1.sol\":334:450  function avg(uint num1, uint num2, uint num3) public pure returns(uint){... */\n    tag_9:\n      tag_46\n      0x04\n      dup1\n      calldatasize\n      sub\n      dup2\n      add\n      swap1\n      tag_47\n      swap2\n      swap1\n      tag_48\n      jump\t// in\n    tag_47:\n      tag_49\n      jump\t// in\n    tag_46:\n      mload(0x40)\n      tag_50\n      swap2\n      swap1\n      tag_25\n      jump\t// in\n    tag_50:\n      mload(0x40)\n      dup1\n      swap2\n      sub\n      swap1\n      return\n        /* \"contracts/codeEater/Asg1.sol\":2049:2323  function reverseInt(uint _inp) external pure returns(uint){... */\n    tag_10:\n      tag_51\n      0x04\n      dup1\n      calldatasize\n      sub\n      dup2\n      add\n      swap1\n      tag_52\n      swap2\n      swap1\n      tag_35\n      jump\t// in\n    tag_52:\n      tag_53\n      jump\t// in\n    tag_51:\n      mload(0x40)\n      tag_54\n      swap2\n      swap1\n      tag_25\n      jump\t// in\n    tag_54:\n      mload(0x40)\n      dup1\n      swap2\n      sub\n      swap1\n      return\n        /* \"contracts/codeEater/Asg1.sol\":3173:3483  function fibonnicalResult() external view returns(uint){... */\n    tag_11:\n      tag_55\n      tag_56\n      jump\t// in\n    tag_55:\n      mload(0x40)\n      tag_57\n      swap2\n      swap1\n      tag_25\n      jump\t// in\n    tag_57:\n      mload(0x40)\n      dup1\n      swap2\n      sub\n      swap1\n      return\n        /* \"contracts/codeEater/Asg1.sol\":1739:2035  function Palindrome(uint _inp) external pure returns(uint){... */\n    tag_12:\n      tag_58\n      0x04\n      dup1\n      calldatasize\n      sub\n      dup2\n      add\n      swap1\n      tag_59\n      swap2\n      swap1\n      tag_35\n      jump\t// in\n    tag_59:\n      tag_60\n      jump\t// in\n    tag_58:\n      mload(0x40)\n      tag_61\n      swap2\n      swap1\n      tag_25\n      jump\t// in\n    tag_61:\n      mload(0x40)\n      dup1\n      swap2\n      sub\n      swap1\n      return\n        /* \"contracts/codeEater/Asg1.sol\":1566:1729  function greater(int num1, int num2, int num3) public pure returns(int){... */\n    tag_13:\n      tag_62\n      0x04\n      dup1\n      calldatasize\n      sub\n      dup2\n      add\n      swap1\n      tag_63\n      swap2\n      swap1\n      tag_64\n      jump\t// in\n    tag_63:\n      tag_65\n      jump\t// in\n    tag_62:\n      mload(0x40)\n      tag_66\n      swap2\n      swap1\n      tag_67\n      jump\t// in\n    tag_66:\n      mload(0x40)\n      dup1\n      swap2\n      sub\n      swap1\n      return\n        /* \"contracts/codeEater/Asg1.sol\":2882:3168  function fibonnical(uint num) external {... */\n    tag_14:\n      tag_68\n      0x04\n      dup1\n      calldatasize\n      sub\n      dup2\n      add\n      swap1\n      tag_69\n      swap2\n      swap1\n      tag_35\n      jump\t// in\n    tag_69:\n      tag_70\n      jump\t// in\n    tag_68:\n      stop\n        /* \"contracts/codeEater/Asg1.sol\":692:920  function prime(int num) public pure returns(int){... */\n    tag_15:\n      tag_71\n      0x04\n      dup1\n      calldatasize\n      sub\n      dup2\n      add\n      swap1\n      tag_72\n      swap2\n      swap1\n      tag_22\n      jump\t// in\n    tag_72:\n      tag_73\n      jump\t// in\n    tag_71:\n      mload(0x40)\n      tag_74\n      swap2\n      swap1\n      tag_67\n      jump\t// in\n    tag_74:\n      mload(0x40)\n      dup1\n      swap2\n      sub\n      swap1\n      return\n        /* \"contracts/codeEater/Asg1.sol\":116:201  function cube(uint _num1) external pure returns(uint){... */\n    tag_16:\n      tag_75\n      0x04\n      dup1\n      calldatasize\n      sub\n      dup2\n      add\n      swap1\n      tag_76\n      swap2\n      swap1\n      tag_35\n      jump\t// in\n    tag_76:\n      tag_77\n      jump\t// in\n    tag_75:\n      mload(0x40)\n      tag_78\n      swap2\n      swap1\n      tag_25\n      jump\t// in\n    tag_78:\n      mload(0x40)\n      dup1\n      swap2\n      sub\n      swap1\n      return\n        /* \"contracts/codeEater/Asg1.sol\":210:325  function oddOrEven(int num) pure public returns(uint){... */\n    tag_23:\n        /* \"contracts/codeEater/Asg1.sol\":258:262  uint */\n      0x00\n        /* \"contracts/codeEater/Asg1.sol\":283:284  0 */\n      dup1\n        /* \"contracts/codeEater/Asg1.sol\":280:281  2 */\n      0x02\n        /* \"contracts/codeEater/Asg1.sol\":276:279  num */\n      dup4\n        /* \"contracts/codeEater/Asg1.sol\":276:281  num%2 */\n      tag_80\n      swap2\n      swap1\n      tag_81\n      jump\t// in\n    tag_80:\n        /* \"contracts/codeEater/Asg1.sol\":276:284  num%2==0 */\n      sub\n        /* \"contracts/codeEater/Asg1.sol\":273:318  if(num%2==0)  return 1;... */\n      tag_82\n      jumpi\n        /* \"contracts/codeEater/Asg1.sol\":294:295  1 */\n      0x01\n        /* \"contracts/codeEater/Asg1.sol\":287:295  return 1 */\n      swap1\n      pop\n      jump(tag_79)\n        /* \"contracts/codeEater/Asg1.sol\":273:318  if(num%2==0)  return 1;... */\n    tag_82:\n        /* \"contracts/codeEater/Asg1.sol\":317:318  0 */\n      0x00\n        /* \"contracts/codeEater/Asg1.sol\":310:318  return 0 */\n      swap1\n      pop\n        /* \"contracts/codeEater/Asg1.sol\":210:325  function oddOrEven(int num) pure public returns(uint){... */\n    tag_79:\n      swap2\n      swap1\n      pop\n      jump\t// out\n        /* \"contracts/codeEater/Asg1.sol\":459:542  function expo(uint x, uint y) pure public returns(uint){... */\n    tag_29:\n        /* \"contracts/codeEater/Asg1.sol\":509:513  uint */\n      0x00\n        /* \"contracts/codeEater/Asg1.sol\":534:535  y */\n      dup2\n        /* \"contracts/codeEater/Asg1.sol\":531:532  x */\n      dup4\n        /* \"contracts/codeEater/Asg1.sol\":531:535  x**y */\n      tag_85\n      swap2\n      swap1\n      tag_86\n      jump\t// in\n    tag_85:\n        /* \"contracts/codeEater/Asg1.sol\":524:535  return x**y */\n      swap1\n      pop\n        /* \"contracts/codeEater/Asg1.sol\":459:542  function expo(uint x, uint y) pure public returns(uint){... */\n      swap3\n      swap2\n      pop\n      pop\n      jump\t// out\n        /* \"contracts/codeEater/Asg1.sol\":551:683  function swap() pure public{... */\n    tag_32:\n        /* \"contracts/codeEater/Asg1.sol\":612:618  int  a */\n      0x00\n        /* \"contracts/codeEater/Asg1.sol\":621:622  1 */\n      0x01\n        /* \"contracts/codeEater/Asg1.sol\":612:622  int  a = 1 */\n      swap1\n      pop\n        /* \"contracts/codeEater/Asg1.sol\":632:638  int  b */\n      0x00\n        /* \"contracts/codeEater/Asg1.sol\":641:642  2 */\n      0x02\n        /* \"contracts/codeEater/Asg1.sol\":632:642  int  b = 2 */\n      swap1\n      pop\n        /* \"contracts/codeEater/Asg1.sol\":671:672  b */\n      dup1\n        /* \"contracts/codeEater/Asg1.sol\":674:675  a */\n      dup3\n        /* \"contracts/codeEater/Asg1.sol\":661:676  (a, b) = (b, a) */\n      dup1\n      swap3\n      pop\n      dup2\n      swap4\n      pop\n      pop\n      pop\n        /* \"contracts/codeEater/Asg1.sol\":578:683  {... */\n      pop\n      pop\n        /* \"contracts/codeEater/Asg1.sol\":551:683  function swap() pure public{... */\n      jump\t// out\n        /* \"contracts/codeEater/Asg1.sol\":2621:2872  function factorial(uint num) public pure returns(uint){... */\n    tag_36:\n        /* \"contracts/codeEater/Asg1.sol\":2670:2674  uint */\n      0x00\n        /* \"contracts/codeEater/Asg1.sol\":2685:2694  uint temp */\n      dup1\n        /* \"contracts/codeEater/Asg1.sol\":2697:2700  num */\n      dup3\n        /* \"contracts/codeEater/Asg1.sol\":2685:2700  uint temp = num */\n      swap1\n      pop\n        /* \"contracts/codeEater/Asg1.sol\":2710:2718  uint res */\n      0x00\n        /* \"contracts/codeEater/Asg1.sol\":2719:2720  1 */\n      0x01\n        /* \"contracts/codeEater/Asg1.sol\":2710:2720  uint res=1 */\n      swap1\n      pop\n        /* \"contracts/codeEater/Asg1.sol\":2730:2846  while(temp!=0){... */\n    tag_89:\n        /* \"contracts/codeEater/Asg1.sol\":2742:2743  0 */\n      0x00\n        /* \"contracts/codeEater/Asg1.sol\":2736:2740  temp */\n      dup3\n        /* \"contracts/codeEater/Asg1.sol\":2736:2743  temp!=0 */\n      eq\n        /* \"contracts/codeEater/Asg1.sol\":2730:2846  while(temp!=0){... */\n      tag_90\n      jumpi\n        /* \"contracts/codeEater/Asg1.sol\":2758:2770  uint lastDig */\n      0x00\n        /* \"contracts/codeEater/Asg1.sol\":2778:2780  10 */\n      0x0a\n        /* \"contracts/codeEater/Asg1.sol\":2773:2777  temp */\n      dup4\n        /* \"contracts/codeEater/Asg1.sol\":2773:2780  temp%10 */\n      tag_91\n      swap2\n      swap1\n      tag_92\n      jump\t// in\n    tag_91:\n        /* \"contracts/codeEater/Asg1.sol\":2758:2780  uint lastDig = temp%10 */\n      swap1\n      pop\n        /* \"contracts/codeEater/Asg1.sol\":2806:2813  lastDig */\n      dup1\n        /* \"contracts/codeEater/Asg1.sol\":2800:2803  res */\n      dup3\n        /* \"contracts/codeEater/Asg1.sol\":2800:2813  res * lastDig */\n      tag_93\n      swap2\n      swap1\n      tag_94\n      jump\t// in\n    tag_93:\n        /* \"contracts/codeEater/Asg1.sol\":2794:2813  res = res * lastDig */\n      swap2\n      pop\n        /* \"contracts/codeEater/Asg1.sol\":2833:2835  10 */\n      0x0a\n        /* \"contracts/codeEater/Asg1.sol\":2827:2835  temp/=10 */\n      dup4\n      tag_95\n      swap2\n      swap1\n      tag_96\n      jump\t// in\n    tag_95:\n      swap3\n      pop\n        /* \"contracts/codeEater/Asg1.sol\":2744:2846  {... */\n      pop\n        /* \"contracts/codeEater/Asg1.sol\":2730:2846  while(temp!=0){... */\n      jump(tag_89)\n    tag_90:\n        /* \"contracts/codeEater/Asg1.sol\":2862:2865  res */\n      dup1\n        /* \"contracts/codeEater/Asg1.sol\":2855:2865  return res */\n      swap3\n      pop\n      pop\n      pop\n        /* \"contracts/codeEater/Asg1.sol\":2621:2872  function factorial(uint num) public pure returns(uint){... */\n      swap2\n      swap1\n      pop\n      jump\t// out\n        /* \"contracts/codeEater/Asg1.sol\":929:1557  function amstrong(uint _inp) public pure returns(uint){... */\n    tag_40:\n        /* \"contracts/codeEater/Asg1.sol\":978:982  uint */\n      0x00\n        /* \"contracts/codeEater/Asg1.sol\":1024:1033  uint temp */\n      dup1\n        /* \"contracts/codeEater/Asg1.sol\":1036:1040  _inp */\n      dup3\n        /* \"contracts/codeEater/Asg1.sol\":1024:1040  uint temp = _inp */\n      swap1\n      pop\n        /* \"contracts/codeEater/Asg1.sol\":1050:1065  uint _inpLength */\n      0x00\n        /* \"contracts/codeEater/Asg1.sol\":1077:1097  uint calculatedInput */\n      dup1\n        /* \"contracts/codeEater/Asg1.sol\":1110:1183  while(temp!=0){... */\n    tag_98:\n        /* \"contracts/codeEater/Asg1.sol\":1122:1123  0 */\n      0x00\n        /* \"contracts/codeEater/Asg1.sol\":1116:1120  temp */\n      dup4\n        /* \"contracts/codeEater/Asg1.sol\":1116:1123  temp!=0 */\n      eq\n        /* \"contracts/codeEater/Asg1.sol\":1110:1183  while(temp!=0){... */\n      tag_99\n      jumpi\n        /* \"contracts/codeEater/Asg1.sol\":1138:1150  _inpLength++ */\n      dup2\n      dup1\n      tag_100\n      swap1\n      tag_101\n      jump\t// in\n    tag_100:\n      swap3\n      pop\n      pop\n        /* \"contracts/codeEater/Asg1.sol\":1170:1172  10 */\n      0x0a\n        /* \"contracts/codeEater/Asg1.sol\":1164:1172  temp/=10 */\n      dup4\n      tag_102\n      swap2\n      swap1\n      tag_96\n      jump\t// in\n    tag_102:\n      swap3\n      pop\n        /* \"contracts/codeEater/Asg1.sol\":1110:1183  while(temp!=0){... */\n      jump(tag_98)\n    tag_99:\n        /* \"contracts/codeEater/Asg1.sol\":1214:1215  0 */\n      0x00\n        /* \"contracts/codeEater/Asg1.sol\":1200:1210  _inpLength */\n      dup3\n        /* \"contracts/codeEater/Asg1.sol\":1200:1215  _inpLength != 0 */\n      sub\n        /* \"contracts/codeEater/Asg1.sol\":1192:1237  require(_inpLength != 0,\"not a valid number\") */\n      tag_103\n      jumpi\n      mload(0x40)\n      0x08c379a000000000000000000000000000000000000000000000000000000000\n      dup2\n      mstore\n      0x04\n      add\n      tag_104\n      swap1\n      tag_105\n      jump\t// in\n    tag_104:\n      mload(0x40)\n      dup1\n      swap2\n      sub\n      swap1\n      revert\n    tag_103:\n        /* \"contracts/codeEater/Asg1.sol\":1254:1258  _inp */\n      dup5\n        /* \"contracts/codeEater/Asg1.sol\":1247:1258  temp = _inp */\n      swap3\n      pop\n        /* \"contracts/codeEater/Asg1.sol\":1334:1502  while(temp!=0){... */\n    tag_106:\n        /* \"contracts/codeEater/Asg1.sol\":1346:1347  0 */\n      0x00\n        /* \"contracts/codeEater/Asg1.sol\":1340:1344  temp */\n      dup4\n        /* \"contracts/codeEater/Asg1.sol\":1340:1347  temp!=0 */\n      eq\n        /* \"contracts/codeEater/Asg1.sol\":1334:1502  while(temp!=0){... */\n      tag_107\n      jumpi\n        /* \"contracts/codeEater/Asg1.sol\":1362:1374  uint lastDig */\n      0x00\n        /* \"contracts/codeEater/Asg1.sol\":1382:1384  10 */\n      0x0a\n        /* \"contracts/codeEater/Asg1.sol\":1377:1381  temp */\n      dup5\n        /* \"contracts/codeEater/Asg1.sol\":1377:1384  temp%10 */\n      tag_108\n      swap2\n      swap1\n      tag_92\n      jump\t// in\n    tag_108:\n        /* \"contracts/codeEater/Asg1.sol\":1362:1384  uint lastDig = temp%10 */\n      swap1\n      pop\n        /* \"contracts/codeEater/Asg1.sol\":1459:1469  _inpLength */\n      dup3\n        /* \"contracts/codeEater/Asg1.sol\":1450:1457  lastDig */\n      dup2\n        /* \"contracts/codeEater/Asg1.sol\":1450:1469  lastDig**_inpLength */\n      tag_109\n      swap2\n      swap1\n      tag_86\n      jump\t// in\n    tag_109:\n        /* \"contracts/codeEater/Asg1.sol\":1432:1447  calculatedInput */\n      dup3\n        /* \"contracts/codeEater/Asg1.sol\":1432:1469  calculatedInput + lastDig**_inpLength */\n      tag_110\n      swap2\n      swap1\n      tag_111\n      jump\t// in\n    tag_110:\n        /* \"contracts/codeEater/Asg1.sol\":1415:1469  calculatedInput= calculatedInput + lastDig**_inpLength */\n      swap2\n      pop\n        /* \"contracts/codeEater/Asg1.sol\":1489:1491  10 */\n      0x0a\n        /* \"contracts/codeEater/Asg1.sol\":1483:1491  temp/=10 */\n      dup5\n      tag_112\n      swap2\n      swap1\n      tag_96\n      jump\t// in\n    tag_112:\n      swap4\n      pop\n        /* \"contracts/codeEater/Asg1.sol\":1348:1502  {... */\n      pop\n        /* \"contracts/codeEater/Asg1.sol\":1334:1502  while(temp!=0){... */\n      jump(tag_106)\n    tag_107:\n        /* \"contracts/codeEater/Asg1.sol\":1526:1541  calculatedInput */\n      dup1\n        /* \"contracts/codeEater/Asg1.sol\":1518:1522  _inp */\n      dup6\n        /* \"contracts/codeEater/Asg1.sol\":1518:1541  _inp == calculatedInput */\n      eq\n        /* \"contracts/codeEater/Asg1.sol\":1518:1549  _inp == calculatedInput ? 1 : 0 */\n      tag_113\n      jumpi\n        /* \"contracts/codeEater/Asg1.sol\":1548:1549  0 */\n      0x00\n        /* \"contracts/codeEater/Asg1.sol\":1518:1549  _inp == calculatedInput ? 1 : 0 */\n      jump(tag_114)\n    tag_113:\n        /* \"contracts/codeEater/Asg1.sol\":1544:1545  1 */\n      0x01\n        /* \"contracts/codeEater/Asg1.sol\":1518:1549  _inp == calculatedInput ? 1 : 0 */\n    tag_114:\n        /* \"contracts/codeEater/Asg1.sol\":1511:1549  return _inp == calculatedInput ? 1 : 0 */\n      0xff\n      and\n      swap4\n      pop\n      pop\n      pop\n      pop\n        /* \"contracts/codeEater/Asg1.sol\":929:1557  function amstrong(uint _inp) public pure returns(uint){... */\n      swap2\n      swap1\n      pop\n      jump\t// out\n        /* \"contracts/codeEater/Asg1.sol\":2333:2611  function sumOfDigits(uint _inp) external pure returns(uint){... */\n    tag_44:\n        /* \"contracts/codeEater/Asg1.sol\":2387:2391  uint */\n      0x00\n        /* \"contracts/codeEater/Asg1.sol\":2402:2411  uint temp */\n      dup1\n        /* \"contracts/codeEater/Asg1.sol\":2414:2418  _inp */\n      dup3\n        /* \"contracts/codeEater/Asg1.sol\":2402:2418  uint temp = _inp */\n      swap1\n      pop\n        /* \"contracts/codeEater/Asg1.sol\":2428:2440  uint _inpSum */\n      0x00\n        /* \"contracts/codeEater/Asg1.sol\":2456:2580  while(temp!=0){... */\n    tag_116:\n        /* \"contracts/codeEater/Asg1.sol\":2468:2469  0 */\n      0x00\n        /* \"contracts/codeEater/Asg1.sol\":2462:2466  temp */\n      dup3\n        /* \"contracts/codeEater/Asg1.sol\":2462:2469  temp!=0 */\n      eq\n        /* \"contracts/codeEater/Asg1.sol\":2456:2580  while(temp!=0){... */\n      tag_117\n      jumpi\n        /* \"contracts/codeEater/Asg1.sol\":2484:2496  uint lastDig */\n      0x00\n        /* \"contracts/codeEater/Asg1.sol\":2504:2506  10 */\n      0x0a\n        /* \"contracts/codeEater/Asg1.sol\":2499:2503  temp */\n      dup4\n        /* \"contracts/codeEater/Asg1.sol\":2499:2506  temp%10 */\n      tag_118\n      swap2\n      swap1\n      tag_92\n      jump\t// in\n    tag_118:\n        /* \"contracts/codeEater/Asg1.sol\":2484:2506  uint lastDig = temp%10 */\n      swap1\n      pop\n        /* \"contracts/codeEater/Asg1.sol\":2540:2547  lastDig */\n      dup1\n        /* \"contracts/codeEater/Asg1.sol\":2530:2537  _inpSum */\n      dup3\n        /* \"contracts/codeEater/Asg1.sol\":2530:2547  _inpSum + lastDig */\n      tag_119\n      swap2\n      swap1\n      tag_111\n      jump\t// in\n    tag_119:\n        /* \"contracts/codeEater/Asg1.sol\":2520:2547  _inpSum = _inpSum + lastDig */\n      swap2\n      pop\n        /* \"contracts/codeEater/Asg1.sol\":2567:2569  10 */\n      0x0a\n        /* \"contracts/codeEater/Asg1.sol\":2561:2569  temp/=10 */\n      dup4\n      tag_120\n      swap2\n      swap1\n      tag_96\n      jump\t// in\n    tag_120:\n      swap3\n      pop\n        /* \"contracts/codeEater/Asg1.sol\":2470:2580  {... */\n      pop\n        /* \"contracts/codeEater/Asg1.sol\":2456:2580  while(temp!=0){... */\n      jump(tag_116)\n    tag_117:\n        /* \"contracts/codeEater/Asg1.sol\":2596:2603  _inpSum */\n      dup1\n        /* \"contracts/codeEater/Asg1.sol\":2589:2603  return _inpSum */\n      swap3\n      pop\n      pop\n      pop\n        /* \"contracts/codeEater/Asg1.sol\":2333:2611  function sumOfDigits(uint _inp) external pure returns(uint){... */\n      swap2\n      swap1\n      pop\n      jump\t// out\n        /* \"contracts/codeEater/Asg1.sol\":334:450  function avg(uint num1, uint num2, uint num3) public pure returns(uint){... */\n    tag_49:\n        /* \"contracts/codeEater/Asg1.sol\":400:404  uint */\n      0x00\n        /* \"contracts/codeEater/Asg1.sol\":442:443  3 */\n      0x03\n        /* \"contracts/codeEater/Asg1.sol\":436:440  num3 */\n      dup3\n        /* \"contracts/codeEater/Asg1.sol\":430:434  num2 */\n      dup5\n        /* \"contracts/codeEater/Asg1.sol\":424:428  num1 */\n      dup7\n        /* \"contracts/codeEater/Asg1.sol\":424:434  num1+ num2 */\n      tag_122\n      swap2\n      swap1\n      tag_111\n      jump\t// in\n    tag_122:\n        /* \"contracts/codeEater/Asg1.sol\":424:440  num1+ num2+ num3 */\n      tag_123\n      swap2\n      swap1\n      tag_111\n      jump\t// in\n    tag_123:\n        /* \"contracts/codeEater/Asg1.sol\":422:443  ( num1+ num2+ num3)/3 */\n      tag_124\n      swap2\n      swap1\n      tag_96\n      jump\t// in\n    tag_124:\n        /* \"contracts/codeEater/Asg1.sol\":415:443  return ( num1+ num2+ num3)/3 */\n      swap1\n      pop\n        /* \"contracts/codeEater/Asg1.sol\":334:450  function avg(uint num1, uint num2, uint num3) public pure returns(uint){... */\n      swap4\n      swap3\n      pop\n      pop\n      pop\n      jump\t// out\n        /* \"contracts/codeEater/Asg1.sol\":2049:2323  function reverseInt(uint _inp) external pure returns(uint){... */\n    tag_53:\n        /* \"contracts/codeEater/Asg1.sol\":2102:2106  uint */\n      0x00\n        /* \"contracts/codeEater/Asg1.sol\":2117:2130  uint reversed */\n      dup1\n        /* \"contracts/codeEater/Asg1.sol\":2140:2148  uint tmp */\n      0x00\n        /* \"contracts/codeEater/Asg1.sol\":2151:2155  _inp */\n      dup4\n        /* \"contracts/codeEater/Asg1.sol\":2140:2155  uint tmp = _inp */\n      swap1\n      pop\n        /* \"contracts/codeEater/Asg1.sol\":2165:2292  while(tmp!=0){... */\n    tag_126:\n        /* \"contracts/codeEater/Asg1.sol\":2176:2177  0 */\n      0x00\n        /* \"contracts/codeEater/Asg1.sol\":2171:2174  tmp */\n      dup2\n        /* \"contracts/codeEater/Asg1.sol\":2171:2177  tmp!=0 */\n      eq\n        /* \"contracts/codeEater/Asg1.sol\":2165:2292  while(tmp!=0){... */\n      tag_127\n      jumpi\n        /* \"contracts/codeEater/Asg1.sol\":2192:2204  uint lastDig */\n      0x00\n        /* \"contracts/codeEater/Asg1.sol\":2211:2213  10 */\n      0x0a\n        /* \"contracts/codeEater/Asg1.sol\":2207:2210  tmp */\n      dup3\n        /* \"contracts/codeEater/Asg1.sol\":2207:2213  tmp%10 */\n      tag_128\n      swap2\n      swap1\n      tag_92\n      jump\t// in\n    tag_128:\n        /* \"contracts/codeEater/Asg1.sol\":2192:2213  uint lastDig = tmp%10 */\n      swap1\n      pop\n        /* \"contracts/codeEater/Asg1.sol\":2253:2260  lastDig */\n      dup1\n        /* \"contracts/codeEater/Asg1.sol\":2248:2250  10 */\n      0x0a\n        /* \"contracts/codeEater/Asg1.sol\":2238:2246  reversed */\n      dup5\n        /* \"contracts/codeEater/Asg1.sol\":2238:2250  reversed *10 */\n      tag_129\n      swap2\n      swap1\n      tag_94\n      jump\t// in\n    tag_129:\n        /* \"contracts/codeEater/Asg1.sol\":2238:2260  reversed *10 + lastDig */\n      tag_130\n      swap2\n      swap1\n      tag_111\n      jump\t// in\n    tag_130:\n        /* \"contracts/codeEater/Asg1.sol\":2227:2260  reversed = reversed *10 + lastDig */\n      swap3\n      pop\n        /* \"contracts/codeEater/Asg1.sol\":2279:2281  10 */\n      0x0a\n        /* \"contracts/codeEater/Asg1.sol\":2274:2281  tmp/=10 */\n      dup3\n      tag_131\n      swap2\n      swap1\n      tag_96\n      jump\t// in\n    tag_131:\n      swap2\n      pop\n        /* \"contracts/codeEater/Asg1.sol\":2178:2292  {... */\n      pop\n        /* \"contracts/codeEater/Asg1.sol\":2165:2292  while(tmp!=0){... */\n      jump(tag_126)\n    tag_127:\n        /* \"contracts/codeEater/Asg1.sol\":2308:2316  reversed */\n      dup2\n        /* \"contracts/codeEater/Asg1.sol\":2301:2316  return reversed */\n      swap3\n      pop\n      pop\n      pop\n        /* \"contracts/codeEater/Asg1.sol\":2049:2323  function reverseInt(uint _inp) external pure returns(uint){... */\n      swap2\n      swap1\n      pop\n      jump\t// out\n        /* \"contracts/codeEater/Asg1.sol\":3173:3483  function fibonnicalResult() external view returns(uint){... */\n    tag_56:\n        /* \"contracts/codeEater/Asg1.sol\":3223:3227  uint */\n      0x00\n        /* \"contracts/codeEater/Asg1.sol\":3282:3288  uint i */\n      dup1\n        /* \"contracts/codeEater/Asg1.sol\":3289:3290  0 */\n      0x00\n        /* \"contracts/codeEater/Asg1.sol\":3282:3290  uint i=0 */\n      swap1\n      pop\n        /* \"contracts/codeEater/Asg1.sol\":3277:3458  for (uint i=0; i<holder[\"numArr\"].length-2; i++){... */\n    tag_133:\n        /* \"contracts/codeEater/Asg1.sol\":3318:3319  2 */\n      0x02\n        /* \"contracts/codeEater/Asg1.sol\":3294:3300  holder */\n      0x00\n        /* \"contracts/codeEater/Asg1.sol\":3294:3310  holder[\"numArr\"] */\n      mload(0x40)\n      tag_136\n      swap1\n      tag_137\n      jump\t// in\n    tag_136:\n      swap1\n      dup2\n      mstore\n      0x20\n      add\n      mload(0x40)\n      dup1\n      swap2\n      sub\n      swap1\n      keccak256\n        /* \"contracts/codeEater/Asg1.sol\":3294:3317  holder[\"numArr\"].length */\n      dup1\n      sload\n      swap1\n      pop\n        /* \"contracts/codeEater/Asg1.sol\":3294:3319  holder[\"numArr\"].length-2 */\n      tag_138\n      swap2\n      swap1\n      tag_139\n      jump\t// in\n    tag_138:\n        /* \"contracts/codeEater/Asg1.sol\":3292:3293  i */\n      dup2\n        /* \"contracts/codeEater/Asg1.sol\":3292:3319  i<holder[\"numArr\"].length-2 */\n      lt\n        /* \"contracts/codeEater/Asg1.sol\":3277:3458  for (uint i=0; i<holder[\"numArr\"].length-2; i++){... */\n      iszero\n      tag_134\n      jumpi\n        /* \"contracts/codeEater/Asg1.sol\":3385:3391  holder */\n      0x00\n        /* \"contracts/codeEater/Asg1.sol\":3385:3401  holder[\"numArr\"] */\n      mload(0x40)\n      tag_140\n      swap1\n      tag_137\n      jump\t// in\n    tag_140:\n      swap1\n      dup2\n      mstore\n      0x20\n      add\n      mload(0x40)\n      dup1\n      swap2\n      sub\n      swap1\n      keccak256\n        /* \"contracts/codeEater/Asg1.sol\":3404:3405  2 */\n      0x02\n        /* \"contracts/codeEater/Asg1.sol\":3402:3403  i */\n      dup3\n        /* \"contracts/codeEater/Asg1.sol\":3402:3405  i+2 */\n      tag_141\n      swap2\n      swap1\n      tag_111\n      jump\t// in\n    tag_141:\n        /* \"contracts/codeEater/Asg1.sol\":3385:3406  holder[\"numArr\"][i+2] */\n      dup2\n      sload\n      dup2\n      lt\n      tag_142\n      jumpi\n      tag_143\n      tag_144\n      jump\t// in\n    tag_143:\n    tag_142:\n      swap1\n      0x00\n      mstore\n      keccak256(0x00, 0x20)\n      add\n      sload\n        /* \"contracts/codeEater/Asg1.sol\":3363:3369  holder */\n      0x00\n        /* \"contracts/codeEater/Asg1.sol\":3363:3379  holder[\"numArr\"] */\n      mload(0x40)\n      tag_146\n      swap1\n      tag_137\n      jump\t// in\n    tag_146:\n      swap1\n      dup2\n      mstore\n      0x20\n      add\n      mload(0x40)\n      dup1\n      swap2\n      sub\n      swap1\n      keccak256\n        /* \"contracts/codeEater/Asg1.sol\":3382:3383  1 */\n      0x01\n        /* \"contracts/codeEater/Asg1.sol\":3380:3381  i */\n      dup4\n        /* \"contracts/codeEater/Asg1.sol\":3380:3383  i+1 */\n      tag_147\n      swap2\n      swap1\n      tag_111\n      jump\t// in\n    tag_147:\n        /* \"contracts/codeEater/Asg1.sol\":3363:3384  holder[\"numArr\"][i+1] */\n      dup2\n      sload\n      dup2\n      lt\n      tag_148\n      jumpi\n      tag_149\n      tag_144\n      jump\t// in\n    tag_149:\n    tag_148:\n      swap1\n      0x00\n      mstore\n      keccak256(0x00, 0x20)\n      add\n      sload\n        /* \"contracts/codeEater/Asg1.sol\":3363:3406  holder[\"numArr\"][i+1]+holder[\"numArr\"][i+2] */\n      tag_151\n      swap2\n      swap1\n      tag_111\n      jump\t// in\n    tag_151:\n        /* \"contracts/codeEater/Asg1.sol\":3342:3348  holder */\n      0x00\n        /* \"contracts/codeEater/Asg1.sol\":3342:3358  holder[\"numArr\"] */\n      mload(0x40)\n      tag_152\n      swap1\n      tag_137\n      jump\t// in\n    tag_152:\n      swap1\n      dup2\n      mstore\n      0x20\n      add\n      mload(0x40)\n      dup1\n      swap2\n      sub\n      swap1\n      keccak256\n        /* \"contracts/codeEater/Asg1.sol\":3359:3360  i */\n      dup3\n        /* \"contracts/codeEater/Asg1.sol\":3342:3361  holder[\"numArr\"][i] */\n      dup2\n      sload\n      dup2\n      lt\n      tag_153\n      jumpi\n      tag_154\n      tag_144\n      jump\t// in\n    tag_154:\n    tag_153:\n      swap1\n      0x00\n      mstore\n      keccak256(0x00, 0x20)\n      add\n      sload\n        /* \"contracts/codeEater/Asg1.sol\":3342:3406  holder[\"numArr\"][i]!=holder[\"numArr\"][i+1]+holder[\"numArr\"][i+2] */\n      eq\n        /* \"contracts/codeEater/Asg1.sol\":3339:3448  if(holder[\"numArr\"][i]!=holder[\"numArr\"][i+1]+holder[\"numArr\"][i+2]){... */\n      tag_156\n      jumpi\n        /* \"contracts/codeEater/Asg1.sol\":3432:3433  0 */\n      0x00\n        /* \"contracts/codeEater/Asg1.sol\":3425:3433  return 0 */\n      swap2\n      pop\n      pop\n      jump(tag_132)\n        /* \"contracts/codeEater/Asg1.sol\":3339:3448  if(holder[\"numArr\"][i]!=holder[\"numArr\"][i+1]+holder[\"numArr\"][i+2]){... */\n    tag_156:\n        /* \"contracts/codeEater/Asg1.sol\":3321:3324  i++ */\n      dup1\n      dup1\n      tag_157\n      swap1\n      tag_101\n      jump\t// in\n    tag_157:\n      swap2\n      pop\n      pop\n        /* \"contracts/codeEater/Asg1.sol\":3277:3458  for (uint i=0; i<holder[\"numArr\"].length-2; i++){... */\n      jump(tag_133)\n    tag_134:\n      pop\n        /* \"contracts/codeEater/Asg1.sol\":3475:3476  1 */\n      0x01\n        /* \"contracts/codeEater/Asg1.sol\":3468:3476  return 1 */\n      swap1\n      pop\n        /* \"contracts/codeEater/Asg1.sol\":3173:3483  function fibonnicalResult() external view returns(uint){... */\n    tag_132:\n      swap1\n      jump\t// out\n        /* \"contracts/codeEater/Asg1.sol\":1739:2035  function Palindrome(uint _inp) external pure returns(uint){... */\n    tag_60:\n        /* \"contracts/codeEater/Asg1.sol\":1792:1796  uint */\n      0x00\n        /* \"contracts/codeEater/Asg1.sol\":1807:1816  uint temp */\n      dup1\n        /* \"contracts/codeEater/Asg1.sol\":1819:1823  _inp */\n      dup3\n        /* \"contracts/codeEater/Asg1.sol\":1807:1823  uint temp = _inp */\n      swap1\n      pop\n        /* \"contracts/codeEater/Asg1.sol\":1833:1846  uint reversed */\n      0x00\n        /* \"contracts/codeEater/Asg1.sol\":1859:1988  while(temp!=0){... */\n    tag_159:\n        /* \"contracts/codeEater/Asg1.sol\":1871:1872  0 */\n      0x00\n        /* \"contracts/codeEater/Asg1.sol\":1865:1869  temp */\n      dup3\n        /* \"contracts/codeEater/Asg1.sol\":1865:1872  temp!=0 */\n      eq\n        /* \"contracts/codeEater/Asg1.sol\":1859:1988  while(temp!=0){... */\n      tag_160\n      jumpi\n        /* \"contracts/codeEater/Asg1.sol\":1887:1899  uint lasDigt */\n      0x00\n        /* \"contracts/codeEater/Asg1.sol\":1907:1909  10 */\n      0x0a\n        /* \"contracts/codeEater/Asg1.sol\":1902:1906  temp */\n      dup4\n        /* \"contracts/codeEater/Asg1.sol\":1902:1909  temp%10 */\n      tag_161\n      swap2\n      swap1\n      tag_92\n      jump\t// in\n    tag_161:\n        /* \"contracts/codeEater/Asg1.sol\":1887:1909  uint lasDigt = temp%10 */\n      swap1\n      pop\n        /* \"contracts/codeEater/Asg1.sol\":1948:1955  lasDigt */\n      dup1\n        /* \"contracts/codeEater/Asg1.sol\":1943:1945  10 */\n      0x0a\n        /* \"contracts/codeEater/Asg1.sol\":1934:1942  reversed */\n      dup4\n        /* \"contracts/codeEater/Asg1.sol\":1934:1945  reversed*10 */\n      tag_162\n      swap2\n      swap1\n      tag_94\n      jump\t// in\n    tag_162:\n        /* \"contracts/codeEater/Asg1.sol\":1934:1955  reversed*10 + lasDigt */\n      tag_163\n      swap2\n      swap1\n      tag_111\n      jump\t// in\n    tag_163:\n        /* \"contracts/codeEater/Asg1.sol\":1923:1955  reversed = reversed*10 + lasDigt */\n      swap2\n      pop\n        /* \"contracts/codeEater/Asg1.sol\":1975:1977  10 */\n      0x0a\n        /* \"contracts/codeEater/Asg1.sol\":1969:1977  temp/=10 */\n      dup4\n      tag_164\n      swap2\n      swap1\n      tag_96\n      jump\t// in\n    tag_164:\n      swap3\n      pop\n        /* \"contracts/codeEater/Asg1.sol\":1873:1988  {... */\n      pop\n        /* \"contracts/codeEater/Asg1.sol\":1859:1988  while(temp!=0){... */\n      jump(tag_159)\n    tag_160:\n        /* \"contracts/codeEater/Asg1.sol\":2016:2020  _inp */\n      dup4\n        /* \"contracts/codeEater/Asg1.sol\":2004:2012  reversed */\n      dup2\n        /* \"contracts/codeEater/Asg1.sol\":2004:2020  reversed == _inp */\n      eq\n        /* \"contracts/codeEater/Asg1.sol\":2004:2028  reversed == _inp ? 1 : 0 */\n      tag_165\n      jumpi\n        /* \"contracts/codeEater/Asg1.sol\":2027:2028  0 */\n      0x00\n        /* \"contracts/codeEater/Asg1.sol\":2004:2028  reversed == _inp ? 1 : 0 */\n      jump(tag_166)\n    tag_165:\n        /* \"contracts/codeEater/Asg1.sol\":2023:2024  1 */\n      0x01\n        /* \"contracts/codeEater/Asg1.sol\":2004:2028  reversed == _inp ? 1 : 0 */\n    tag_166:\n        /* \"contracts/codeEater/Asg1.sol\":1997:2028  return reversed == _inp ? 1 : 0 */\n      0xff\n      and\n      swap3\n      pop\n      pop\n      pop\n        /* \"contracts/codeEater/Asg1.sol\":1739:2035  function Palindrome(uint _inp) external pure returns(uint){... */\n      swap2\n      swap1\n      pop\n      jump\t// out\n        /* \"contracts/codeEater/Asg1.sol\":1566:1729  function greater(int num1, int num2, int num3) public pure returns(int){... */\n    tag_65:\n        /* \"contracts/codeEater/Asg1.sol\":1633:1636  int */\n      0x00\n        /* \"contracts/codeEater/Asg1.sol\":1647:1655  int temp */\n      dup1\n        /* \"contracts/codeEater/Asg1.sol\":1663:1667  num2 */\n      dup4\n        /* \"contracts/codeEater/Asg1.sol\":1658:1662  num1 */\n      dup6\n        /* \"contracts/codeEater/Asg1.sol\":1658:1667  num1>num2 */\n      sgt\n        /* \"contracts/codeEater/Asg1.sol\":1658:1681  num1>num2 ? num1 : num2 */\n      tag_168\n      jumpi\n        /* \"contracts/codeEater/Asg1.sol\":1677:1681  num2 */\n      dup4\n        /* \"contracts/codeEater/Asg1.sol\":1658:1681  num1>num2 ? num1 : num2 */\n      jump(tag_169)\n    tag_168:\n        /* \"contracts/codeEater/Asg1.sol\":1670:1674  num1 */\n      dup5\n        /* \"contracts/codeEater/Asg1.sol\":1658:1681  num1>num2 ? num1 : num2 */\n    tag_169:\n        /* \"contracts/codeEater/Asg1.sol\":1647:1681  int temp = num1>num2 ? num1 : num2 */\n      swap1\n      pop\n        /* \"contracts/codeEater/Asg1.sol\":1704:1708  num3 */\n      dup3\n        /* \"contracts/codeEater/Asg1.sol\":1699:1703  temp */\n      dup2\n        /* \"contracts/codeEater/Asg1.sol\":1699:1708  temp>num3 */\n      sgt\n        /* \"contracts/codeEater/Asg1.sol\":1699:1722  temp>num3 ? temp : num3 */\n      tag_170\n      jumpi\n        /* \"contracts/codeEater/Asg1.sol\":1718:1722  num3 */\n      dup3\n        /* \"contracts/codeEater/Asg1.sol\":1699:1722  temp>num3 ? temp : num3 */\n      jump(tag_171)\n    tag_170:\n        /* \"contracts/codeEater/Asg1.sol\":1711:1715  temp */\n      dup1\n        /* \"contracts/codeEater/Asg1.sol\":1699:1722  temp>num3 ? temp : num3 */\n    tag_171:\n        /* \"contracts/codeEater/Asg1.sol\":1692:1722  return temp>num3 ? temp : num3 */\n      swap2\n      pop\n      pop\n        /* \"contracts/codeEater/Asg1.sol\":1566:1729  function greater(int num1, int num2, int num3) public pure returns(int){... */\n      swap4\n      swap3\n      pop\n      pop\n      pop\n      jump\t// out\n        /* \"contracts/codeEater/Asg1.sol\":2882:3168  function fibonnical(uint num) external {... */\n    tag_70:\n        /* \"contracts/codeEater/Asg1.sol\":2944:2945  0 */\n      0x00\n        /* \"contracts/codeEater/Asg1.sol\":2939:2942  num */\n      dup2\n        /* \"contracts/codeEater/Asg1.sol\":2939:2945  num!=0 */\n      sub\n        /* \"contracts/codeEater/Asg1.sol\":2931:2967  require(num!=0,\"not A valid number\") */\n      tag_173\n      jumpi\n      mload(0x40)\n      0x08c379a000000000000000000000000000000000000000000000000000000000\n      dup2\n      mstore\n      0x04\n      add\n      tag_174\n      swap1\n      tag_175\n      jump\t// in\n    tag_174:\n      mload(0x40)\n      dup1\n      swap2\n      sub\n      swap1\n      revert\n    tag_173:\n        /* \"contracts/codeEater/Asg1.sol\":2977:2985  uint tmp */\n      0x00\n        /* \"contracts/codeEater/Asg1.sol\":2988:2991  num */\n      dup2\n        /* \"contracts/codeEater/Asg1.sol\":2977:2991  uint tmp = num */\n      swap1\n      pop\n        /* \"contracts/codeEater/Asg1.sol\":3037:3161  while(tmp!=0){... */\n    tag_176:\n        /* \"contracts/codeEater/Asg1.sol\":3048:3049  0 */\n      0x00\n        /* \"contracts/codeEater/Asg1.sol\":3043:3046  tmp */\n      dup2\n        /* \"contracts/codeEater/Asg1.sol\":3043:3049  tmp!=0 */\n      eq\n        /* \"contracts/codeEater/Asg1.sol\":3037:3161  while(tmp!=0){... */\n      tag_177\n      jumpi\n        /* \"contracts/codeEater/Asg1.sol\":3064:3076  uint lastDig */\n      0x00\n        /* \"contracts/codeEater/Asg1.sol\":3083:3085  10 */\n      0x0a\n        /* \"contracts/codeEater/Asg1.sol\":3079:3082  tmp */\n      dup3\n        /* \"contracts/codeEater/Asg1.sol\":3079:3085  tmp%10 */\n      tag_178\n      swap2\n      swap1\n      tag_92\n      jump\t// in\n    tag_178:\n        /* \"contracts/codeEater/Asg1.sol\":3064:3085  uint lastDig = tmp%10 */\n      swap1\n      pop\n        /* \"contracts/codeEater/Asg1.sol\":3099:3105  holder */\n      0x00\n        /* \"contracts/codeEater/Asg1.sol\":3099:3115  holder[\"numArr\"] */\n      mload(0x40)\n      tag_179\n      swap1\n      tag_137\n      jump\t// in\n    tag_179:\n      swap1\n      dup2\n      mstore\n      0x20\n      add\n      mload(0x40)\n      dup1\n      swap2\n      sub\n      swap1\n      keccak256\n        /* \"contracts/codeEater/Asg1.sol\":3121:3128  lastDig */\n      dup2\n        /* \"contracts/codeEater/Asg1.sol\":3099:3129  holder[\"numArr\"].push(lastDig) */\n      swap1\n      dup1\n      0x01\n      dup2\n      sload\n      add\n      dup1\n      dup3\n      sstore\n      dup1\n      swap2\n      pop\n      pop\n      0x01\n      swap1\n      sub\n      swap1\n      0x00\n      mstore\n      keccak256(0x00, 0x20)\n      add\n      0x00\n      swap1\n      swap2\n      swap1\n      swap2\n      swap1\n      swap2\n      pop\n      sstore\n        /* \"contracts/codeEater/Asg1.sol\":3148:3150  10 */\n      0x0a\n        /* \"contracts/codeEater/Asg1.sol\":3143:3150  tmp/=10 */\n      dup3\n      tag_181\n      swap2\n      swap1\n      tag_96\n      jump\t// in\n    tag_181:\n      swap2\n      pop\n        /* \"contracts/codeEater/Asg1.sol\":3050:3161  {... */\n      pop\n        /* \"contracts/codeEater/Asg1.sol\":3037:3161  while(tmp!=0){... */\n      jump(tag_176)\n    tag_177:\n        /* \"contracts/codeEater/Asg1.sol\":2921:3168  {... */\n      pop\n        /* \"contracts/codeEater/Asg1.sol\":2882:3168  function fibonnical(uint num) external {... */\n      pop\n      jump\t// out\n        /* \"contracts/codeEater/Asg1.sol\":692:920  function prime(int num) public pure returns(int){... */\n    tag_73:\n        /* \"contracts/codeEater/Asg1.sol\":736:739  int */\n      0x00\n        /* \"contracts/codeEater/Asg1.sol\":790:795  int i */\n      dup1\n        /* \"contracts/codeEater/Asg1.sol\":798:799  2 */\n      0x02\n        /* \"contracts/codeEater/Asg1.sol\":790:799  int i = 2 */\n      swap1\n      pop\n        /* \"contracts/codeEater/Asg1.sol\":786:896  for(int i = 2; i < num; i++){... */\n    tag_183:\n        /* \"contracts/codeEater/Asg1.sol\":805:808  num */\n      dup3\n        /* \"contracts/codeEater/Asg1.sol\":801:802  i */\n      dup2\n        /* \"contracts/codeEater/Asg1.sol\":801:808  i < num */\n      slt\n        /* \"contracts/codeEater/Asg1.sol\":786:896  for(int i = 2; i < num; i++){... */\n      iszero\n      tag_184\n      jumpi\n        /* \"contracts/codeEater/Asg1.sol\":842:843  0 */\n      0x00\n        /* \"contracts/codeEater/Asg1.sol\":837:838  i */\n      dup2\n        /* \"contracts/codeEater/Asg1.sol\":831:834  num */\n      dup5\n        /* \"contracts/codeEater/Asg1.sol\":831:838  num % i */\n      tag_186\n      swap2\n      swap1\n      tag_81\n      jump\t// in\n    tag_186:\n        /* \"contracts/codeEater/Asg1.sol\":831:843  num % i == 0 */\n      sub\n        /* \"contracts/codeEater/Asg1.sol\":828:886  if(num % i == 0) {... */\n      tag_187\n      jumpi\n        /* \"contracts/codeEater/Asg1.sol\":870:871  0 */\n      0x00\n        /* \"contracts/codeEater/Asg1.sol\":863:871  return 0 */\n      swap2\n      pop\n      pop\n      jump(tag_182)\n        /* \"contracts/codeEater/Asg1.sol\":828:886  if(num % i == 0) {... */\n    tag_187:\n        /* \"contracts/codeEater/Asg1.sol\":810:813  i++ */\n      dup1\n      dup1\n      tag_188\n      swap1\n      tag_189\n      jump\t// in\n    tag_188:\n      swap2\n      pop\n      pop\n        /* \"contracts/codeEater/Asg1.sol\":786:896  for(int i = 2; i < num; i++){... */\n      jump(tag_183)\n    tag_184:\n      pop\n        /* \"contracts/codeEater/Asg1.sol\":912:913  1 */\n      0x01\n        /* \"contracts/codeEater/Asg1.sol\":905:913  return 1 */\n      swap1\n      pop\n        /* \"contracts/codeEater/Asg1.sol\":692:920  function prime(int num) public pure returns(int){... */\n    tag_182:\n      swap2\n      swap1\n      pop\n      jump\t// out\n        /* \"contracts/codeEater/Asg1.sol\":116:201  function cube(uint _num1) external pure returns(uint){... */\n    tag_77:\n        /* \"contracts/codeEater/Asg1.sol\":164:168  uint */\n      0x00\n        /* \"contracts/codeEater/Asg1.sol\":193:194  2 */\n      0x02\n        /* \"contracts/codeEater/Asg1.sol\":186:191  _num1 */\n      dup3\n        /* \"contracts/codeEater/Asg1.sol\":186:194  _num1**2 */\n      tag_191\n      swap2\n      swap1\n      tag_192\n      jump\t// in\n    tag_191:\n        /* \"contracts/codeEater/Asg1.sol\":179:194  return _num1**2 */\n      swap1\n      pop\n        /* \"contracts/codeEater/Asg1.sol\":116:201  function cube(uint _num1) external pure returns(uint){... */\n      swap2\n      swap1\n      pop\n      jump\t// out\n        /* \"#utility.yul\":88:205   */\n    tag_194:\n        /* \"#utility.yul\":197:198   */\n      0x00\n        /* \"#utility.yul\":194:195   */\n      dup1\n        /* \"#utility.yul\":187:199   */\n      revert\n        /* \"#utility.yul\":334:410   */\n    tag_196:\n        /* \"#utility.yul\":370:377   */\n      0x00\n        /* \"#utility.yul\":399:404   */\n      dup2\n        /* \"#utility.yul\":388:404   */\n      swap1\n      pop\n        /* \"#utility.yul\":334:410   */\n      swap2\n      swap1\n      pop\n      jump\t// out\n        /* \"#utility.yul\":416:536   */\n    tag_197:\n        /* \"#utility.yul\":488:511   */\n      tag_224\n        /* \"#utility.yul\":505:510   */\n      dup2\n        /* \"#utility.yul\":488:511   */\n      tag_196\n      jump\t// in\n    tag_224:\n        /* \"#utility.yul\":481:486   */\n      dup2\n        /* \"#utility.yul\":478:512   */\n      eq\n        /* \"#utility.yul\":468:530   */\n      tag_225\n      jumpi\n        /* \"#utility.yul\":526:527   */\n      0x00\n        /* \"#utility.yul\":523:524   */\n      dup1\n        /* \"#utility.yul\":516:528   */\n      revert\n        /* \"#utility.yul\":468:530   */\n    tag_225:\n        /* \"#utility.yul\":416:536   */\n      pop\n      jump\t// out\n        /* \"#utility.yul\":542:679   */\n    tag_198:\n        /* \"#utility.yul\":587:592   */\n      0x00\n        /* \"#utility.yul\":625:631   */\n      dup2\n        /* \"#utility.yul\":612:632   */\n      calldataload\n        /* \"#utility.yul\":603:632   */\n      swap1\n      pop\n        /* \"#utility.yul\":641:673   */\n      tag_227\n        /* \"#utility.yul\":667:672   */\n      dup2\n        /* \"#utility.yul\":641:673   */\n      tag_197\n      jump\t// in\n    tag_227:\n        /* \"#utility.yul\":542:679   */\n      swap3\n      swap2\n      pop\n      pop\n      jump\t// out\n        /* \"#utility.yul\":685:1012   */\n    tag_22:\n        /* \"#utility.yul\":743:749   */\n      0x00\n        /* \"#utility.yul\":792:794   */\n      0x20\n        /* \"#utility.yul\":780:789   */\n      dup3\n        /* \"#utility.yul\":771:778   */\n      dup5\n        /* \"#utility.yul\":767:790   */\n      sub\n        /* \"#utility.yul\":763:795   */\n      slt\n        /* \"#utility.yul\":760:879   */\n      iszero\n      tag_229\n      jumpi\n        /* \"#utility.yul\":798:877   */\n      tag_230\n      tag_194\n      jump\t// in\n    tag_230:\n        /* \"#utility.yul\":760:879   */\n    tag_229:\n        /* \"#utility.yul\":918:919   */\n      0x00\n        /* \"#utility.yul\":943:995   */\n      tag_231\n        /* \"#utility.yul\":987:994   */\n      dup5\n        /* \"#utility.yul\":978:984   */\n      dup3\n        /* \"#utility.yul\":967:976   */\n      dup6\n        /* \"#utility.yul\":963:985   */\n      add\n        /* \"#utility.yul\":943:995   */\n      tag_198\n      jump\t// in\n    tag_231:\n        /* \"#utility.yul\":933:995   */\n      swap2\n      pop\n        /* \"#utility.yul\":889:1005   */\n      pop\n        /* \"#utility.yul\":685:1012   */\n      swap3\n      swap2\n      pop\n      pop\n      jump\t// out\n        /* \"#utility.yul\":1018:1095   */\n    tag_199:\n        /* \"#utility.yul\":1055:1062   */\n      0x00\n        /* \"#utility.yul\":1084:1089   */\n      dup2\n        /* \"#utility.yul\":1073:1089   */\n      swap1\n      pop\n        /* \"#utility.yul\":1018:1095   */\n      swap2\n      swap1\n      pop\n      jump\t// out\n        /* \"#utility.yul\":1101:1219   */\n    tag_200:\n        /* \"#utility.yul\":1188:1212   */\n      tag_234\n        /* \"#utility.yul\":1206:1211   */\n      dup2\n        /* \"#utility.yul\":1188:1212   */\n      tag_199\n      jump\t// in\n    tag_234:\n        /* \"#utility.yul\":1183:1186   */\n      dup3\n        /* \"#utility.yul\":1176:1213   */\n      mstore\n        /* \"#utility.yul\":1101:1219   */\n      pop\n      pop\n      jump\t// out\n        /* \"#utility.yul\":1225:1447   */\n    tag_25:\n        /* \"#utility.yul\":1318:1322   */\n      0x00\n        /* \"#utility.yul\":1356:1358   */\n      0x20\n        /* \"#utility.yul\":1345:1354   */\n      dup3\n        /* \"#utility.yul\":1341:1359   */\n      add\n        /* \"#utility.yul\":1333:1359   */\n      swap1\n      pop\n        /* \"#utility.yul\":1369:1440   */\n      tag_236\n        /* \"#utility.yul\":1437:1438   */\n      0x00\n        /* \"#utility.yul\":1426:1435   */\n      dup4\n        /* \"#utility.yul\":1422:1439   */\n      add\n        /* \"#utility.yul\":1413:1419   */\n      dup5\n        /* \"#utility.yul\":1369:1440   */\n      tag_200\n      jump\t// in\n    tag_236:\n        /* \"#utility.yul\":1225:1447   */\n      swap3\n      swap2\n      pop\n      pop\n      jump\t// out\n        /* \"#utility.yul\":1453:1575   */\n    tag_201:\n        /* \"#utility.yul\":1526:1550   */\n      tag_238\n        /* \"#utility.yul\":1544:1549   */\n      dup2\n        /* \"#utility.yul\":1526:1550   */\n      tag_199\n      jump\t// in\n    tag_238:\n        /* \"#utility.yul\":1519:1524   */\n      dup2\n        /* \"#utility.yul\":1516:1551   */\n      eq\n        /* \"#utility.yul\":1506:1569   */\n      tag_239\n      jumpi\n        /* \"#utility.yul\":1565:1566   */\n      0x00\n        /* \"#utility.yul\":1562:1563   */\n      dup1\n        /* \"#utility.yul\":1555:1567   */\n      revert\n        /* \"#utility.yul\":1506:1569   */\n    tag_239:\n        /* \"#utility.yul\":1453:1575   */\n      pop\n      jump\t// out\n        /* \"#utility.yul\":1581:1720   */\n    tag_202:\n        /* \"#utility.yul\":1627:1632   */\n      0x00\n        /* \"#utility.yul\":1665:1671   */\n      dup2\n        /* \"#utility.yul\":1652:1672   */\n      calldataload\n        /* \"#utility.yul\":1643:1672   */\n      swap1\n      pop\n        /* \"#utility.yul\":1681:1714   */\n      tag_241\n        /* \"#utility.yul\":1708:1713   */\n      dup2\n        /* \"#utility.yul\":1681:1714   */\n      tag_201\n      jump\t// in\n    tag_241:\n        /* \"#utility.yul\":1581:1720   */\n      swap3\n      swap2\n      pop\n      pop\n      jump\t// out\n        /* \"#utility.yul\":1726:2200   */\n    tag_28:\n        /* \"#utility.yul\":1794:1800   */\n      0x00\n        /* \"#utility.yul\":1802:1808   */\n      dup1\n        /* \"#utility.yul\":1851:1853   */\n      0x40\n        /* \"#utility.yul\":1839:1848   */\n      dup4\n        /* \"#utility.yul\":1830:1837   */\n      dup6\n        /* \"#utility.yul\":1826:1849   */\n      sub\n        /* \"#utility.yul\":1822:1854   */\n      slt\n        /* \"#utility.yul\":1819:1938   */\n      iszero\n      tag_243\n      jumpi\n        /* \"#utility.yul\":1857:1936   */\n      tag_244\n      tag_194\n      jump\t// in\n    tag_244:\n        /* \"#utility.yul\":1819:1938   */\n    tag_243:\n        /* \"#utility.yul\":1977:1978   */\n      0x00\n        /* \"#utility.yul\":2002:2055   */\n      tag_245\n        /* \"#utility.yul\":2047:2054   */\n      dup6\n        /* \"#utility.yul\":2038:2044   */\n      dup3\n        /* \"#utility.yul\":2027:2036   */\n      dup7\n        /* \"#utility.yul\":2023:2045   */\n      add\n        /* \"#utility.yul\":2002:2055   */\n      tag_202\n      jump\t// in\n    tag_245:\n        /* \"#utility.yul\":1992:2055   */\n      swap3\n      pop\n        /* \"#utility.yul\":1948:2065   */\n      pop\n        /* \"#utility.yul\":2104:2106   */\n      0x20\n        /* \"#utility.yul\":2130:2183   */\n      tag_246\n        /* \"#utility.yul\":2175:2182   */\n      dup6\n        /* \"#utility.yul\":2166:2172   */\n      dup3\n        /* \"#utility.yul\":2155:2164   */\n      dup7\n        /* \"#utility.yul\":2151:2173   */\n      add\n        /* \"#utility.yul\":2130:2183   */\n      tag_202\n      jump\t// in\n    tag_246:\n        /* \"#utility.yul\":2120:2183   */\n      swap2\n      pop\n        /* \"#utility.yul\":2075:2193   */\n      pop\n        /* \"#utility.yul\":1726:2200   */\n      swap3\n      pop\n      swap3\n      swap1\n      pop\n      jump\t// out\n        /* \"#utility.yul\":2206:2535   */\n    tag_35:\n        /* \"#utility.yul\":2265:2271   */\n      0x00\n        /* \"#utility.yul\":2314:2316   */\n      0x20\n        /* \"#utility.yul\":2302:2311   */\n      dup3\n        /* \"#utility.yul\":2293:2300   */\n      dup5\n        /* \"#utility.yul\":2289:2312   */\n      sub\n        /* \"#utility.yul\":2285:2317   */\n      slt\n        /* \"#utility.yul\":2282:2401   */\n      iszero\n      tag_248\n      jumpi\n        /* \"#utility.yul\":2320:2399   */\n      tag_249\n      tag_194\n      jump\t// in\n    tag_249:\n        /* \"#utility.yul\":2282:2401   */\n    tag_248:\n        /* \"#utility.yul\":2440:2441   */\n      0x00\n        /* \"#utility.yul\":2465:2518   */\n      tag_250\n        /* \"#utility.yul\":2510:2517   */\n      dup5\n        /* \"#utility.yul\":2501:2507   */\n      dup3\n        /* \"#utility.yul\":2490:2499   */\n      dup6\n        /* \"#utility.yul\":2486:2508   */\n      add\n        /* \"#utility.yul\":2465:2518   */\n      tag_202\n      jump\t// in\n    tag_250:\n        /* \"#utility.yul\":2455:2518   */\n      swap2\n      pop\n        /* \"#utility.yul\":2411:2528   */\n      pop\n        /* \"#utility.yul\":2206:2535   */\n      swap3\n      swap2\n      pop\n      pop\n      jump\t// out\n        /* \"#utility.yul\":2541:3160   */\n    tag_48:\n        /* \"#utility.yul\":2618:2624   */\n      0x00\n        /* \"#utility.yul\":2626:2632   */\n      dup1\n        /* \"#utility.yul\":2634:2640   */\n      0x00\n        /* \"#utility.yul\":2683:2685   */\n      0x60\n        /* \"#utility.yul\":2671:2680   */\n      dup5\n        /* \"#utility.yul\":2662:2669   */\n      dup7\n        /* \"#utility.yul\":2658:2681   */\n      sub\n        /* \"#utility.yul\":2654:2686   */\n      slt\n        /* \"#utility.yul\":2651:2770   */\n      iszero\n      tag_252\n      jumpi\n        /* \"#utility.yul\":2689:2768   */\n      tag_253\n      tag_194\n      jump\t// in\n    tag_253:\n        /* \"#utility.yul\":2651:2770   */\n    tag_252:\n        /* \"#utility.yul\":2809:2810   */\n      0x00\n        /* \"#utility.yul\":2834:2887   */\n      tag_254\n        /* \"#utility.yul\":2879:2886   */\n      dup7\n        /* \"#utility.yul\":2870:2876   */\n      dup3\n        /* \"#utility.yul\":2859:2868   */\n      dup8\n        /* \"#utility.yul\":2855:2877   */\n      add\n        /* \"#utility.yul\":2834:2887   */\n      tag_202\n      jump\t// in\n    tag_254:\n        /* \"#utility.yul\":2824:2887   */\n      swap4\n      pop\n        /* \"#utility.yul\":2780:2897   */\n      pop\n        /* \"#utility.yul\":2936:2938   */\n      0x20\n        /* \"#utility.yul\":2962:3015   */\n      tag_255\n        /* \"#utility.yul\":3007:3014   */\n      dup7\n        /* \"#utility.yul\":2998:3004   */\n      dup3\n        /* \"#utility.yul\":2987:2996   */\n      dup8\n        /* \"#utility.yul\":2983:3005   */\n      add\n        /* \"#utility.yul\":2962:3015   */\n      tag_202\n      jump\t// in\n    tag_255:\n        /* \"#utility.yul\":2952:3015   */\n      swap3\n      pop\n        /* \"#utility.yul\":2907:3025   */\n      pop\n        /* \"#utility.yul\":3064:3066   */\n      0x40\n        /* \"#utility.yul\":3090:3143   */\n      tag_256\n        /* \"#utility.yul\":3135:3142   */\n      dup7\n        /* \"#utility.yul\":3126:3132   */\n      dup3\n        /* \"#utility.yul\":3115:3124   */\n      dup8\n        /* \"#utility.yul\":3111:3133   */\n      add\n        /* \"#utility.yul\":3090:3143   */\n      tag_202\n      jump\t// in\n    tag_256:\n        /* \"#utility.yul\":3080:3143   */\n      swap2\n      pop\n        /* \"#utility.yul\":3035:3153   */\n      pop\n        /* \"#utility.yul\":2541:3160   */\n      swap3\n      pop\n      swap3\n      pop\n      swap3\n      jump\t// out\n        /* \"#utility.yul\":3166:3779   */\n    tag_64:\n        /* \"#utility.yul\":3240:3246   */\n      0x00\n        /* \"#utility.yul\":3248:3254   */\n      dup1\n        /* \"#utility.yul\":3256:3262   */\n      0x00\n        /* \"#utility.yul\":3305:3307   */\n      0x60\n        /* \"#utility.yul\":3293:3302   */\n      dup5\n        /* \"#utility.yul\":3284:3291   */\n      dup7\n        /* \"#utility.yul\":3280:3303   */\n      sub\n        /* \"#utility.yul\":3276:3308   */\n      slt\n        /* \"#utility.yul\":3273:3392   */\n      iszero\n      tag_258\n      jumpi\n        /* \"#utility.yul\":3311:3390   */\n      tag_259\n      tag_194\n      jump\t// in\n    tag_259:\n        /* \"#utility.yul\":3273:3392   */\n    tag_258:\n        /* \"#utility.yul\":3431:3432   */\n      0x00\n        /* \"#utility.yul\":3456:3508   */\n      tag_260\n        /* \"#utility.yul\":3500:3507   */\n      dup7\n        /* \"#utility.yul\":3491:3497   */\n      dup3\n        /* \"#utility.yul\":3480:3489   */\n      dup8\n        /* \"#utility.yul\":3476:3498   */\n      add\n        /* \"#utility.yul\":3456:3508   */\n      tag_198\n      jump\t// in\n    tag_260:\n        /* \"#utility.yul\":3446:3508   */\n      swap4\n      pop\n        /* \"#utility.yul\":3402:3518   */\n      pop\n        /* \"#utility.yul\":3557:3559   */\n      0x20\n        /* \"#utility.yul\":3583:3635   */\n      tag_261\n        /* \"#utility.yul\":3627:3634   */\n      dup7\n        /* \"#utility.yul\":3618:3624   */\n      dup3\n        /* \"#utility.yul\":3607:3616   */\n      dup8\n        /* \"#utility.yul\":3603:3625   */\n      add\n        /* \"#utility.yul\":3583:3635   */\n      tag_198\n      jump\t// in\n    tag_261:\n        /* \"#utility.yul\":3573:3635   */\n      swap3\n      pop\n        /* \"#utility.yul\":3528:3645   */\n      pop\n        /* \"#utility.yul\":3684:3686   */\n      0x40\n        /* \"#utility.yul\":3710:3762   */\n      tag_262\n        /* \"#utility.yul\":3754:3761   */\n      dup7\n        /* \"#utility.yul\":3745:3751   */\n      dup3\n        /* \"#utility.yul\":3734:3743   */\n      dup8\n        /* \"#utility.yul\":3730:3752   */\n      add\n        /* \"#utility.yul\":3710:3762   */\n      tag_198\n      jump\t// in\n    tag_262:\n        /* \"#utility.yul\":3700:3762   */\n      swap2\n      pop\n        /* \"#utility.yul\":3655:3772   */\n      pop\n        /* \"#utility.yul\":3166:3779   */\n      swap3\n      pop\n      swap3\n      pop\n      swap3\n      jump\t// out\n        /* \"#utility.yul\":3785:3900   */\n    tag_203:\n        /* \"#utility.yul\":3870:3893   */\n      tag_264\n        /* \"#utility.yul\":3887:3892   */\n      dup2\n        /* \"#utility.yul\":3870:3893   */\n      tag_196\n      jump\t// in\n    tag_264:\n        /* \"#utility.yul\":3865:3868   */\n      dup3\n        /* \"#utility.yul\":3858:3894   */\n      mstore\n        /* \"#utility.yul\":3785:3900   */\n      pop\n      pop\n      jump\t// out\n        /* \"#utility.yul\":3906:4124   */\n    tag_67:\n        /* \"#utility.yul\":3997:4001   */\n      0x00\n        /* \"#utility.yul\":4035:4037   */\n      0x20\n        /* \"#utility.yul\":4024:4033   */\n      dup3\n        /* \"#utility.yul\":4020:4038   */\n      add\n        /* \"#utility.yul\":4012:4038   */\n      swap1\n      pop\n        /* \"#utility.yul\":4048:4117   */\n      tag_266\n        /* \"#utility.yul\":4114:4115   */\n      0x00\n        /* \"#utility.yul\":4103:4112   */\n      dup4\n        /* \"#utility.yul\":4099:4116   */\n      add\n        /* \"#utility.yul\":4090:4096   */\n      dup5\n        /* \"#utility.yul\":4048:4117   */\n      tag_203\n      jump\t// in\n    tag_266:\n        /* \"#utility.yul\":3906:4124   */\n      swap3\n      swap2\n      pop\n      pop\n      jump\t// out\n        /* \"#utility.yul\":4130:4310   */\n    tag_204:\n        /* \"#utility.yul\":4178:4255   */\n      0x4e487b7100000000000000000000000000000000000000000000000000000000\n        /* \"#utility.yul\":4175:4176   */\n      0x00\n        /* \"#utility.yul\":4168:4256   */\n      mstore\n        /* \"#utility.yul\":4275:4279   */\n      0x12\n        /* \"#utility.yul\":4272:4273   */\n      0x04\n        /* \"#utility.yul\":4265:4280   */\n      mstore\n        /* \"#utility.yul\":4299:4303   */\n      0x24\n        /* \"#utility.yul\":4296:4297   */\n      0x00\n        /* \"#utility.yul\":4289:4304   */\n      revert\n        /* \"#utility.yul\":4316:4490   */\n    tag_81:\n        /* \"#utility.yul\":4347:4348   */\n      0x00\n        /* \"#utility.yul\":4364:4383   */\n      tag_269\n        /* \"#utility.yul\":4381:4382   */\n      dup3\n        /* \"#utility.yul\":4364:4383   */\n      tag_196\n      jump\t// in\n    tag_269:\n        /* \"#utility.yul\":4359:4383   */\n      swap2\n      pop\n        /* \"#utility.yul\":4397:4416   */\n      tag_270\n        /* \"#utility.yul\":4414:4415   */\n      dup4\n        /* \"#utility.yul\":4397:4416   */\n      tag_196\n      jump\t// in\n    tag_270:\n        /* \"#utility.yul\":4392:4416   */\n      swap3\n      pop\n        /* \"#utility.yul\":4435:4436   */\n      dup3\n        /* \"#utility.yul\":4425:4460   */\n      tag_271\n      jumpi\n        /* \"#utility.yul\":4440:4458   */\n      tag_272\n      tag_204\n      jump\t// in\n    tag_272:\n        /* \"#utility.yul\":4425:4460   */\n    tag_271:\n        /* \"#utility.yul\":4482:4483   */\n      dup3\n        /* \"#utility.yul\":4479:4480   */\n      dup3\n        /* \"#utility.yul\":4474:4484   */\n      smod\n        /* \"#utility.yul\":4469:4484   */\n      swap1\n      pop\n        /* \"#utility.yul\":4316:4490   */\n      swap3\n      swap2\n      pop\n      pop\n      jump\t// out\n        /* \"#utility.yul\":4496:4676   */\n    tag_205:\n        /* \"#utility.yul\":4544:4621   */\n      0x4e487b7100000000000000000000000000000000000000000000000000000000\n        /* \"#utility.yul\":4541:4542   */\n      0x00\n        /* \"#utility.yul\":4534:4622   */\n      mstore\n        /* \"#utility.yul\":4641:4645   */\n      0x11\n        /* \"#utility.yul\":4638:4639   */\n      0x04\n        /* \"#utility.yul\":4631:4646   */\n      mstore\n        /* \"#utility.yul\":4665:4669   */\n      0x24\n        /* \"#utility.yul\":4662:4663   */\n      0x00\n        /* \"#utility.yul\":4655:4670   */\n      revert\n        /* \"#utility.yul\":4682:4784   */\n    tag_206:\n        /* \"#utility.yul\":4724:4732   */\n      0x00\n        /* \"#utility.yul\":4771:4776   */\n      dup2\n        /* \"#utility.yul\":4768:4769   */\n      0x01\n        /* \"#utility.yul\":4764:4777   */\n      shr\n        /* \"#utility.yul\":4743:4777   */\n      swap1\n      pop\n        /* \"#utility.yul\":4682:4784   */\n      swap2\n      swap1\n      pop\n      jump\t// out\n        /* \"#utility.yul\":4790:5638   */\n    tag_207:\n        /* \"#utility.yul\":4851:4856   */\n      0x00\n        /* \"#utility.yul\":4858:4862   */\n      dup1\n        /* \"#utility.yul\":4882:4888   */\n      dup3\n        /* \"#utility.yul\":4873:4888   */\n      swap2\n      pop\n        /* \"#utility.yul\":4906:4911   */\n      dup4\n        /* \"#utility.yul\":4897:4911   */\n      swap1\n      pop\n        /* \"#utility.yul\":4920:5632   */\n    tag_276:\n        /* \"#utility.yul\":4941:4942   */\n      0x01\n        /* \"#utility.yul\":4931:4939   */\n      dup6\n        /* \"#utility.yul\":4928:4943   */\n      gt\n        /* \"#utility.yul\":4920:5632   */\n      iszero\n      tag_278\n      jumpi\n        /* \"#utility.yul\":5036:5040   */\n      dup1\n        /* \"#utility.yul\":5031:5034   */\n      dup7\n        /* \"#utility.yul\":5027:5041   */\n      div\n        /* \"#utility.yul\":5021:5025   */\n      dup2\n        /* \"#utility.yul\":5018:5042   */\n      gt\n        /* \"#utility.yul\":5015:5065   */\n      iszero\n      tag_279\n      jumpi\n        /* \"#utility.yul\":5045:5063   */\n      tag_280\n      tag_205\n      jump\t// in\n    tag_280:\n        /* \"#utility.yul\":5015:5065   */\n    tag_279:\n        /* \"#utility.yul\":5095:5096   */\n      0x01\n        /* \"#utility.yul\":5085:5093   */\n      dup6\n        /* \"#utility.yul\":5081:5097   */\n      and\n        /* \"#utility.yul\":5078:5529   */\n      iszero\n      tag_281\n      jumpi\n        /* \"#utility.yul\":5510:5514   */\n      dup1\n        /* \"#utility.yul\":5503:5508   */\n      dup3\n        /* \"#utility.yul\":5499:5515   */\n      mul\n        /* \"#utility.yul\":5490:5515   */\n      swap2\n      pop\n        /* \"#utility.yul\":5078:5529   */\n    tag_281:\n        /* \"#utility.yul\":5560:5564   */\n      dup1\n        /* \"#utility.yul\":5554:5558   */\n      dup2\n        /* \"#utility.yul\":5550:5565   */\n      mul\n        /* \"#utility.yul\":5542:5565   */\n      swap1\n      pop\n        /* \"#utility.yul\":5590:5622   */\n      tag_282\n        /* \"#utility.yul\":5613:5621   */\n      dup6\n        /* \"#utility.yul\":5590:5622   */\n      tag_206\n      jump\t// in\n    tag_282:\n        /* \"#utility.yul\":5578:5622   */\n      swap5\n      pop\n        /* \"#utility.yul\":4920:5632   */\n      jump(tag_276)\n    tag_278:\n        /* \"#utility.yul\":4790:5638   */\n      swap5\n      pop\n      swap5\n      swap3\n      pop\n      pop\n      pop\n      jump\t// out\n        /* \"#utility.yul\":5644:6717   */\n    tag_208:\n        /* \"#utility.yul\":5698:5703   */\n      0x00\n        /* \"#utility.yul\":5889:5897   */\n      dup3\n        /* \"#utility.yul\":5879:5919   */\n      tag_284\n      jumpi\n        /* \"#utility.yul\":5910:5911   */\n      0x01\n        /* \"#utility.yul\":5901:5911   */\n      swap1\n      pop\n        /* \"#utility.yul\":5912:5917   */\n      jump(tag_283)\n        /* \"#utility.yul\":5879:5919   */\n    tag_284:\n        /* \"#utility.yul\":5938:5942   */\n      dup2\n        /* \"#utility.yul\":5928:5964   */\n      tag_285\n      jumpi\n        /* \"#utility.yul\":5955:5956   */\n      0x00\n        /* \"#utility.yul\":5946:5956   */\n      swap1\n      pop\n        /* \"#utility.yul\":5957:5962   */\n      jump(tag_283)\n        /* \"#utility.yul\":5928:5964   */\n    tag_285:\n        /* \"#utility.yul\":6024:6028   */\n      dup2\n        /* \"#utility.yul\":6072:6073   */\n      0x01\n        /* \"#utility.yul\":6067:6094   */\n      dup2\n      eq\n      tag_287\n      jumpi\n        /* \"#utility.yul\":6108:6109   */\n      0x02\n        /* \"#utility.yul\":6103:6294   */\n      dup2\n      eq\n      tag_288\n      jumpi\n        /* \"#utility.yul\":6017:6294   */\n      jump(tag_286)\n        /* \"#utility.yul\":6067:6094   */\n    tag_287:\n        /* \"#utility.yul\":6085:6086   */\n      0x01\n        /* \"#utility.yul\":6076:6086   */\n      swap2\n      pop\n        /* \"#utility.yul\":6087:6092   */\n      pop\n      jump(tag_283)\n        /* \"#utility.yul\":6103:6294   */\n    tag_288:\n        /* \"#utility.yul\":6148:6151   */\n      0xff\n        /* \"#utility.yul\":6138:6146   */\n      dup5\n        /* \"#utility.yul\":6135:6152   */\n      gt\n        /* \"#utility.yul\":6132:6175   */\n      iszero\n      tag_289\n      jumpi\n        /* \"#utility.yul\":6155:6173   */\n      tag_290\n      tag_205\n      jump\t// in\n    tag_290:\n        /* \"#utility.yul\":6132:6175   */\n    tag_289:\n        /* \"#utility.yul\":6204:6212   */\n      dup4\n        /* \"#utility.yul\":6201:6202   */\n      0x02\n        /* \"#utility.yul\":6197:6213   */\n      exp\n        /* \"#utility.yul\":6188:6213   */\n      swap2\n      pop\n        /* \"#utility.yul\":6239:6242   */\n      dup5\n        /* \"#utility.yul\":6232:6237   */\n      dup3\n        /* \"#utility.yul\":6229:6243   */\n      gt\n        /* \"#utility.yul\":6226:6266   */\n      iszero\n      tag_291\n      jumpi\n        /* \"#utility.yul\":6246:6264   */\n      tag_292\n      tag_205\n      jump\t// in\n    tag_292:\n        /* \"#utility.yul\":6226:6266   */\n    tag_291:\n        /* \"#utility.yul\":6279:6284   */\n      pop\n      jump(tag_283)\n        /* \"#utility.yul\":6017:6294   */\n    tag_286:\n      pop\n        /* \"#utility.yul\":6403:6405   */\n      0x20\n        /* \"#utility.yul\":6393:6401   */\n      dup4\n        /* \"#utility.yul\":6390:6406   */\n      lt\n        /* \"#utility.yul\":6384:6387   */\n      0x0133\n        /* \"#utility.yul\":6378:6382   */\n      dup4\n        /* \"#utility.yul\":6375:6388   */\n      lt\n        /* \"#utility.yul\":6371:6407   */\n      and\n        /* \"#utility.yul\":6353:6355   */\n      0x4e\n        /* \"#utility.yul\":6343:6351   */\n      dup5\n        /* \"#utility.yul\":6340:6356   */\n      lt\n        /* \"#utility.yul\":6335:6337   */\n      0x0b\n        /* \"#utility.yul\":6329:6333   */\n      dup5\n        /* \"#utility.yul\":6326:6338   */\n      lt\n        /* \"#utility.yul\":6322:6357   */\n      and\n        /* \"#utility.yul\":6306:6417   */\n      or\n        /* \"#utility.yul\":6303:6549   */\n      iszero\n      tag_293\n      jumpi\n        /* \"#utility.yul\":6459:6467   */\n      dup3\n        /* \"#utility.yul\":6453:6457   */\n      dup3\n        /* \"#utility.yul\":6449:6468   */\n      exp\n        /* \"#utility.yul\":6440:6468   */\n      swap1\n      pop\n        /* \"#utility.yul\":6494:6497   */\n      dup4\n        /* \"#utility.yul\":6487:6492   */\n      dup2\n        /* \"#utility.yul\":6484:6498   */\n      gt\n        /* \"#utility.yul\":6481:6521   */\n      iszero\n      tag_294\n      jumpi\n        /* \"#utility.yul\":6501:6519   */\n      tag_295\n      tag_205\n      jump\t// in\n    tag_295:\n        /* \"#utility.yul\":6481:6521   */\n    tag_294:\n        /* \"#utility.yul\":6534:6539   */\n      jump(tag_283)\n        /* \"#utility.yul\":6303:6549   */\n    tag_293:\n        /* \"#utility.yul\":6574:6616   */\n      tag_296\n        /* \"#utility.yul\":6612:6615   */\n      dup5\n        /* \"#utility.yul\":6602:6610   */\n      dup5\n        /* \"#utility.yul\":6596:6600   */\n      dup5\n        /* \"#utility.yul\":6593:6594   */\n      0x01\n        /* \"#utility.yul\":6574:6616   */\n      tag_207\n      jump\t// in\n    tag_296:\n        /* \"#utility.yul\":6559:6616   */\n      swap3\n      pop\n      swap1\n      pop\n        /* \"#utility.yul\":6648:6652   */\n      dup2\n        /* \"#utility.yul\":6643:6646   */\n      dup5\n        /* \"#utility.yul\":6639:6653   */\n      div\n        /* \"#utility.yul\":6632:6637   */\n      dup2\n        /* \"#utility.yul\":6629:6654   */\n      gt\n        /* \"#utility.yul\":6626:6677   */\n      iszero\n      tag_297\n      jumpi\n        /* \"#utility.yul\":6657:6675   */\n      tag_298\n      tag_205\n      jump\t// in\n    tag_298:\n        /* \"#utility.yul\":6626:6677   */\n    tag_297:\n        /* \"#utility.yul\":6706:6710   */\n      dup2\n        /* \"#utility.yul\":6699:6704   */\n      dup2\n        /* \"#utility.yul\":6695:6711   */\n      mul\n        /* \"#utility.yul\":6686:6711   */\n      swap1\n      pop\n        /* \"#utility.yul\":5644:6717   */\n    tag_283:\n      swap4\n      swap3\n      pop\n      pop\n      pop\n      jump\t// out\n        /* \"#utility.yul\":6723:7008   */\n    tag_86:\n        /* \"#utility.yul\":6783:6788   */\n      0x00\n        /* \"#utility.yul\":6807:6830   */\n      tag_300\n        /* \"#utility.yul\":6825:6829   */\n      dup3\n        /* \"#utility.yul\":6807:6830   */\n      tag_199\n      jump\t// in\n    tag_300:\n        /* \"#utility.yul\":6799:6830   */\n      swap2\n      pop\n        /* \"#utility.yul\":6851:6878   */\n      tag_301\n        /* \"#utility.yul\":6869:6877   */\n      dup4\n        /* \"#utility.yul\":6851:6878   */\n      tag_199\n      jump\t// in\n    tag_301:\n        /* \"#utility.yul\":6839:6878   */\n      swap3\n      pop\n        /* \"#utility.yul\":6897:7001   */\n      tag_302\n        /* \"#utility.yul\":6934:7000   */\n      0xffffffffffffffffffffffffffffffffffffffffffffffffffffffffffffffff\n        /* \"#utility.yul\":6924:6932   */\n      dup5\n        /* \"#utility.yul\":6918:6922   */\n      dup5\n        /* \"#utility.yul\":6897:7001   */\n      tag_208\n      jump\t// in\n    tag_302:\n        /* \"#utility.yul\":6888:7001   */\n      swap1\n      pop\n        /* \"#utility.yul\":6723:7008   */\n      swap3\n      swap2\n      pop\n      pop\n      jump\t// out\n        /* \"#utility.yul\":7014:7190   */\n    tag_92:\n        /* \"#utility.yul\":7046:7047   */\n      0x00\n        /* \"#utility.yul\":7063:7083   */\n      tag_304\n        /* \"#utility.yul\":7081:7082   */\n      dup3\n        /* \"#utility.yul\":7063:7083   */\n      tag_199\n      jump\t// in\n    tag_304:\n        /* \"#utility.yul\":7058:7083   */\n      swap2\n      pop\n        /* \"#utility.yul\":7097:7117   */\n      tag_305\n        /* \"#utility.yul\":7115:7116   */\n      dup4\n        /* \"#utility.yul\":7097:7117   */\n      tag_199\n      jump\t// in\n    tag_305:\n        /* \"#utility.yul\":7092:7117   */\n      swap3\n      pop\n        /* \"#utility.yul\":7136:7137   */\n      dup3\n        /* \"#utility.yul\":7126:7161   */\n      tag_306\n      jumpi\n        /* \"#utility.yul\":7141:7159   */\n      tag_307\n      tag_204\n      jump\t// in\n    tag_307:\n        /* \"#utility.yul\":7126:7161   */\n    tag_306:\n        /* \"#utility.yul\":7182:7183   */\n      dup3\n        /* \"#utility.yul\":7179:7180   */\n      dup3\n        /* \"#utility.yul\":7175:7184   */\n      mod\n        /* \"#utility.yul\":7170:7184   */\n      swap1\n      pop\n        /* \"#utility.yul\":7014:7190   */\n      swap3\n      swap2\n      pop\n      pop\n      jump\t// out\n        /* \"#utility.yul\":7196:7606   */\n    tag_94:\n        /* \"#utility.yul\":7236:7243   */\n      0x00\n        /* \"#utility.yul\":7259:7279   */\n      tag_309\n        /* \"#utility.yul\":7277:7278   */\n      dup3\n        /* \"#utility.yul\":7259:7279   */\n      tag_199\n      jump\t// in\n    tag_309:\n        /* \"#utility.yul\":7254:7279   */\n      swap2\n      pop\n        /* \"#utility.yul\":7293:7313   */\n      tag_310\n        /* \"#utility.yul\":7311:7312   */\n      dup4\n        /* \"#utility.yul\":7293:7313   */\n      tag_199\n      jump\t// in\n    tag_310:\n        /* \"#utility.yul\":7288:7313   */\n      swap3\n      pop\n        /* \"#utility.yul\":7348:7349   */\n      dup3\n        /* \"#utility.yul\":7345:7346   */\n      dup3\n        /* \"#utility.yul\":7341:7350   */\n      mul\n        /* \"#utility.yul\":7370:7400   */\n      tag_311\n        /* \"#utility.yul\":7388:7399   */\n      dup2\n        /* \"#utility.yul\":7370:7400   */\n      tag_199\n      jump\t// in\n    tag_311:\n        /* \"#utility.yul\":7359:7400   */\n      swap2\n      pop\n        /* \"#utility.yul\":7549:7550   */\n      dup3\n        /* \"#utility.yul\":7540:7547   */\n      dup3\n        /* \"#utility.yul\":7536:7551   */\n      div\n        /* \"#utility.yul\":7533:7534   */\n      dup5\n        /* \"#utility.yul\":7530:7552   */\n      eq\n        /* \"#utility.yul\":7510:7511   */\n      dup4\n        /* \"#utility.yul\":7503:7512   */\n      iszero\n        /* \"#utility.yul\":7483:7566   */\n      or\n        /* \"#utility.yul\":7460:7599   */\n      tag_312\n      jumpi\n        /* \"#utility.yul\":7579:7597   */\n      tag_313\n      tag_205\n      jump\t// in\n    tag_313:\n        /* \"#utility.yul\":7460:7599   */\n    tag_312:\n        /* \"#utility.yul\":7244:7606   */\n      pop\n        /* \"#utility.yul\":7196:7606   */\n      swap3\n      swap2\n      pop\n      pop\n      jump\t// out\n        /* \"#utility.yul\":7612:7797   */\n    tag_96:\n        /* \"#utility.yul\":7652:7653   */\n      0x00\n        /* \"#utility.yul\":7669:7689   */\n      tag_315\n        /* \"#utility.yul\":7687:7688   */\n      dup3\n        /* \"#utility.yul\":7669:7689   */\n      tag_199\n      jump\t// in\n    tag_315:\n        /* \"#utility.yul\":7664:7689   */\n      swap2\n      pop\n        /* \"#utility.yul\":7703:7723   */\n      tag_316\n        /* \"#utility.yul\":7721:7722   */\n      dup4\n        /* \"#utility.yul\":7703:7723   */\n      tag_199\n      jump\t// in\n    tag_316:\n        /* \"#utility.yul\":7698:7723   */\n      swap3\n      pop\n        /* \"#utility.yul\":7742:7743   */\n      dup3\n        /* \"#utility.yul\":7732:7767   */\n      tag_317\n      jumpi\n        /* \"#utility.yul\":7747:7765   */\n      tag_318\n      tag_204\n      jump\t// in\n    tag_318:\n        /* \"#utility.yul\":7732:7767   */\n    tag_317:\n        /* \"#utility.yul\":7789:7790   */\n      dup3\n        /* \"#utility.yul\":7786:7787   */\n      dup3\n        /* \"#utility.yul\":7782:7791   */\n      div\n        /* \"#utility.yul\":7777:7791   */\n      swap1\n      pop\n        /* \"#utility.yul\":7612:7797   */\n      swap3\n      swap2\n      pop\n      pop\n      jump\t// out\n        /* \"#utility.yul\":7803:8036   */\n    tag_101:\n        /* \"#utility.yul\":7842:7845   */\n      0x00\n        /* \"#utility.yul\":7865:7889   */\n      tag_320\n        /* \"#utility.yul\":7883:7888   */\n      dup3\n        /* \"#utility.yul\":7865:7889   */\n      tag_199\n      jump\t// in\n    tag_320:\n        /* \"#utility.yul\":7856:7889   */\n      swap2\n      pop\n        /* \"#utility.yul\":7911:7977   */\n      0xffffffffffffffffffffffffffffffffffffffffffffffffffffffffffffffff\n        /* \"#utility.yul\":7904:7909   */\n      dup3\n        /* \"#utility.yul\":7901:7978   */\n      sub\n        /* \"#utility.yul\":7898:8001   */\n      tag_321\n      jumpi\n        /* \"#utility.yul\":7981:7999   */\n      tag_322\n      tag_205\n      jump\t// in\n    tag_322:\n        /* \"#utility.yul\":7898:8001   */\n    tag_321:\n        /* \"#utility.yul\":8028:8029   */\n      0x01\n        /* \"#utility.yul\":8021:8026   */\n      dup3\n        /* \"#utility.yul\":8017:8030   */\n      add\n        /* \"#utility.yul\":8010:8030   */\n      swap1\n      pop\n        /* \"#utility.yul\":7803:8036   */\n      swap2\n      swap1\n      pop\n      jump\t// out\n        /* \"#utility.yul\":8042:8211   */\n    tag_209:\n        /* \"#utility.yul\":8126:8137   */\n      0x00\n        /* \"#utility.yul\":8160:8166   */\n      dup3\n        /* \"#utility.yul\":8155:8158   */\n      dup3\n        /* \"#utility.yul\":8148:8167   */\n      mstore\n        /* \"#utility.yul\":8200:8204   */\n      0x20\n        /* \"#utility.yul\":8195:8198   */\n      dup3\n        /* \"#utility.yul\":8191:8205   */\n      add\n        /* \"#utility.yul\":8176:8205   */\n      swap1\n      pop\n        /* \"#utility.yul\":8042:8211   */\n      swap3\n      swap2\n      pop\n      pop\n      jump\t// out\n        /* \"#utility.yul\":8217:8385   */\n    tag_210:\n        /* \"#utility.yul\":8357:8377   */\n      0x6e6f7420612076616c6964206e756d6265720000000000000000000000000000\n        /* \"#utility.yul\":8353:8354   */\n      0x00\n        /* \"#utility.yul\":8345:8351   */\n      dup3\n        /* \"#utility.yul\":8341:8355   */\n      add\n        /* \"#utility.yul\":8334:8378   */\n      mstore\n        /* \"#utility.yul\":8217:8385   */\n      pop\n      jump\t// out\n        /* \"#utility.yul\":8391:8757   */\n    tag_211:\n        /* \"#utility.yul\":8533:8536   */\n      0x00\n        /* \"#utility.yul\":8554:8621   */\n      tag_326\n        /* \"#utility.yul\":8618:8620   */\n      0x12\n        /* \"#utility.yul\":8613:8616   */\n      dup4\n        /* \"#utility.yul\":8554:8621   */\n      tag_209\n      jump\t// in\n    tag_326:\n        /* \"#utility.yul\":8547:8621   */\n      swap2\n      pop\n        /* \"#utility.yul\":8630:8723   */\n      tag_327\n        /* \"#utility.yul\":8719:8722   */\n      dup3\n        /* \"#utility.yul\":8630:8723   */\n      tag_210\n      jump\t// in\n    tag_327:\n        /* \"#utility.yul\":8748:8750   */\n      0x20\n        /* \"#utility.yul\":8743:8746   */\n      dup3\n        /* \"#utility.yul\":8739:8751   */\n      add\n        /* \"#utility.yul\":8732:8751   */\n      swap1\n      pop\n        /* \"#utility.yul\":8391:8757   */\n      swap2\n      swap1\n      pop\n      jump\t// out\n        /* \"#utility.yul\":8763:9182   */\n    tag_105:\n        /* \"#utility.yul\":8929:8933   */\n      0x00\n        /* \"#utility.yul\":8967:8969   */\n      0x20\n        /* \"#utility.yul\":8956:8965   */\n      dup3\n        /* \"#utility.yul\":8952:8970   */\n      add\n        /* \"#utility.yul\":8944:8970   */\n      swap1\n      pop\n        /* \"#utility.yul\":9016:9025   */\n      dup2\n        /* \"#utility.yul\":9010:9014   */\n      dup2\n        /* \"#utility.yul\":9006:9026   */\n      sub\n        /* \"#utility.yul\":9002:9003   */\n      0x00\n        /* \"#utility.yul\":8991:9000   */\n      dup4\n        /* \"#utility.yul\":8987:9004   */\n      add\n        /* \"#utility.yul\":8980:9027   */\n      mstore\n        /* \"#utility.yul\":9044:9175   */\n      tag_329\n        /* \"#utility.yul\":9170:9174   */\n      dup2\n        /* \"#utility.yul\":9044:9175   */\n      tag_211\n      jump\t// in\n    tag_329:\n        /* \"#utility.yul\":9036:9175   */\n      swap1\n      pop\n        /* \"#utility.yul\":8763:9182   */\n      swap2\n      swap1\n      pop\n      jump\t// out\n        /* \"#utility.yul\":9188:9379   */\n    tag_111:\n        /* \"#utility.yul\":9228:9231   */\n      0x00\n        /* \"#utility.yul\":9247:9267   */\n      tag_331\n        /* \"#utility.yul\":9265:9266   */\n      dup3\n        /* \"#utility.yul\":9247:9267   */\n      tag_199\n      jump\t// in\n    tag_331:\n        /* \"#utility.yul\":9242:9267   */\n      swap2\n      pop\n        /* \"#utility.yul\":9281:9301   */\n      tag_332\n        /* \"#utility.yul\":9299:9300   */\n      dup4\n        /* \"#utility.yul\":9281:9301   */\n      tag_199\n      jump\t// in\n    tag_332:\n        /* \"#utility.yul\":9276:9301   */\n      swap3\n      pop\n        /* \"#utility.yul\":9324:9325   */\n      dup3\n        /* \"#utility.yul\":9321:9322   */\n      dup3\n        /* \"#utility.yul\":9317:9326   */\n      add\n        /* \"#utility.yul\":9310:9326   */\n      swap1\n      pop\n        /* \"#utility.yul\":9345:9348   */\n      dup1\n        /* \"#utility.yul\":9342:9343   */\n      dup3\n        /* \"#utility.yul\":9339:9349   */\n      gt\n        /* \"#utility.yul\":9336:9372   */\n      iszero\n      tag_333\n      jumpi\n        /* \"#utility.yul\":9352:9370   */\n      tag_334\n      tag_205\n      jump\t// in\n    tag_334:\n        /* \"#utility.yul\":9336:9372   */\n    tag_333:\n        /* \"#utility.yul\":9188:9379   */\n      swap3\n      swap2\n      pop\n      pop\n      jump\t// out\n        /* \"#utility.yul\":9385:9533   */\n    tag_212:\n        /* \"#utility.yul\":9487:9498   */\n      0x00\n        /* \"#utility.yul\":9524:9527   */\n      dup2\n        /* \"#utility.yul\":9509:9527   */\n      swap1\n      pop\n        /* \"#utility.yul\":9385:9533   */\n      swap3\n      swap2\n      pop\n      pop\n      jump\t// out\n        /* \"#utility.yul\":9539:9695   */\n    tag_213:\n        /* \"#utility.yul\":9679:9687   */\n      0x6e756d4172720000000000000000000000000000000000000000000000000000\n        /* \"#utility.yul\":9675:9676   */\n      0x00\n        /* \"#utility.yul\":9667:9673   */\n      dup3\n        /* \"#utility.yul\":9663:9677   */\n      add\n        /* \"#utility.yul\":9656:9688   */\n      mstore\n        /* \"#utility.yul\":9539:9695   */\n      pop\n      jump\t// out\n        /* \"#utility.yul\":9701:10101   */\n    tag_214:\n        /* \"#utility.yul\":9861:9864   */\n      0x00\n        /* \"#utility.yul\":9882:9966   */\n      tag_338\n        /* \"#utility.yul\":9964:9965   */\n      0x06\n        /* \"#utility.yul\":9959:9962   */\n      dup4\n        /* \"#utility.yul\":9882:9966   */\n      tag_212\n      jump\t// in\n    tag_338:\n        /* \"#utility.yul\":9875:9966   */\n      swap2\n      pop\n        /* \"#utility.yul\":9975:10068   */\n      tag_339\n        /* \"#utility.yul\":10064:10067   */\n      dup3\n        /* \"#utility.yul\":9975:10068   */\n      tag_213\n      jump\t// in\n    tag_339:\n        /* \"#utility.yul\":10093:10094   */\n      0x06\n        /* \"#utility.yul\":10088:10091   */\n      dup3\n        /* \"#utility.yul\":10084:10095   */\n      add\n        /* \"#utility.yul\":10077:10095   */\n      swap1\n      pop\n        /* \"#utility.yul\":9701:10101   */\n      swap2\n      swap1\n      pop\n      jump\t// out\n        /* \"#utility.yul\":10107:10488   */\n    tag_137:\n        /* \"#utility.yul\":10292:10295   */\n      0x00\n        /* \"#utility.yul\":10314:10462   */\n      tag_341\n        /* \"#utility.yul\":10458:10461   */\n      dup3\n        /* \"#utility.yul\":10314:10462   */\n      tag_214\n      jump\t// in\n    tag_341:\n        /* \"#utility.yul\":10307:10462   */\n      swap2\n      pop\n        /* \"#utility.yul\":10479:10482   */\n      dup2\n        /* \"#utility.yul\":10472:10482   */\n      swap1\n      pop\n        /* \"#utility.yul\":10107:10488   */\n      swap2\n      swap1\n      pop\n      jump\t// out\n        /* \"#utility.yul\":10494:10688   */\n    tag_139:\n        /* \"#utility.yul\":10534:10538   */\n      0x00\n        /* \"#utility.yul\":10554:10574   */\n      tag_343\n        /* \"#utility.yul\":10572:10573   */\n      dup3\n        /* \"#utility.yul\":10554:10574   */\n      tag_199\n      jump\t// in\n    tag_343:\n        /* \"#utility.yul\":10549:10574   */\n      swap2\n      pop\n        /* \"#utility.yul\":10588:10608   */\n      tag_344\n        /* \"#utility.yul\":10606:10607   */\n      dup4\n        /* \"#utility.yul\":10588:10608   */\n      tag_199\n      jump\t// in\n    tag_344:\n        /* \"#utility.yul\":10583:10608   */\n      swap3\n      pop\n        /* \"#utility.yul\":10632:10633   */\n      dup3\n        /* \"#utility.yul\":10629:10630   */\n      dup3\n        /* \"#utility.yul\":10625:10634   */\n      sub\n        /* \"#utility.yul\":10617:10634   */\n      swap1\n      pop\n        /* \"#utility.yul\":10656:10657   */\n      dup2\n        /* \"#utility.yul\":10650:10654   */\n      dup2\n        /* \"#utility.yul\":10647:10658   */\n      gt\n        /* \"#utility.yul\":10644:10681   */\n      iszero\n      tag_345\n      jumpi\n        /* \"#utility.yul\":10661:10679   */\n      tag_346\n      tag_205\n      jump\t// in\n    tag_346:\n        /* \"#utility.yul\":10644:10681   */\n    tag_345:\n        /* \"#utility.yul\":10494:10688   */\n      swap3\n      swap2\n      pop\n      pop\n      jump\t// out\n        /* \"#utility.yul\":10694:10874   */\n    tag_144:\n        /* \"#utility.yul\":10742:10819   */\n      0x4e487b7100000000000000000000000000000000000000000000000000000000\n        /* \"#utility.yul\":10739:10740   */\n      0x00\n        /* \"#utility.yul\":10732:10820   */\n      mstore\n        /* \"#utility.yul\":10839:10843   */\n      0x32\n        /* \"#utility.yul\":10836:10837   */\n      0x04\n        /* \"#utility.yul\":10829:10844   */\n      mstore\n        /* \"#utility.yul\":10863:10867   */\n      0x24\n        /* \"#utility.yul\":10860:10861   */\n      0x00\n        /* \"#utility.yul\":10853:10868   */\n      revert\n        /* \"#utility.yul\":10880:11048   */\n    tag_215:\n        /* \"#utility.yul\":11020:11040   */\n      0x6e6f7420412076616c6964206e756d6265720000000000000000000000000000\n        /* \"#utility.yul\":11016:11017   */\n      0x00\n        /* \"#utility.yul\":11008:11014   */\n      dup3\n        /* \"#utility.yul\":11004:11018   */\n      add\n        /* \"#utility.yul\":10997:11041   */\n      mstore\n        /* \"#utility.yul\":10880:11048   */\n      pop\n      jump\t// out\n        /* \"#utility.yul\":11054:11420   */\n    tag_216:\n        /* \"#utility.yul\":11196:11199   */\n      0x00\n        /* \"#utility.yul\":11217:11284   */\n      tag_350\n        /* \"#utility.yul\":11281:11283   */\n      0x12\n        /* \"#utility.yul\":11276:11279   */\n      dup4\n        /* \"#utility.yul\":11217:11284   */\n      tag_209\n      jump\t// in\n    tag_350:\n        /* \"#utility.yul\":11210:11284   */\n      swap2\n      pop\n        /* \"#utility.yul\":11293:11386   */\n      tag_351\n        /* \"#utility.yul\":11382:11385   */\n      dup3\n        /* \"#utility.yul\":11293:11386   */\n      tag_215\n      jump\t// in\n    tag_351:\n        /* \"#utility.yul\":11411:11413   */\n      0x20\n        /* \"#utility.yul\":11406:11409   */\n      dup3\n        /* \"#utility.yul\":11402:11414   */\n      add\n        /* \"#utility.yul\":11395:11414   */\n      swap1\n      pop\n        /* \"#utility.yul\":11054:11420   */\n      swap2\n      swap1\n      pop\n      jump\t// out\n        /* \"#utility.yul\":11426:11845   */\n    tag_175:\n        /* \"#utility.yul\":11592:11596   */\n      0x00\n        /* \"#utility.yul\":11630:11632   */\n      0x20\n        /* \"#utility.yul\":11619:11628   */\n      dup3\n        /* \"#utility.yul\":11615:11633   */\n      add\n        /* \"#utility.yul\":11607:11633   */\n      swap1\n      pop\n        /* \"#utility.yul\":11679:11688   */\n      dup2\n        /* \"#utility.yul\":11673:11677   */\n      dup2\n        /* \"#utility.yul\":11669:11689   */\n      sub\n        /* \"#utility.yul\":11665:11666   */\n      0x00\n        /* \"#utility.yul\":11654:11663   */\n      dup4\n        /* \"#utility.yul\":11650:11667   */\n      add\n        /* \"#utility.yul\":11643:11690   */\n      mstore\n        /* \"#utility.yul\":11707:11838   */\n      tag_353\n        /* \"#utility.yul\":11833:11837   */\n      dup2\n        /* \"#utility.yul\":11707:11838   */\n      tag_216\n      jump\t// in\n    tag_353:\n        /* \"#utility.yul\":11699:11838   */\n      swap1\n      pop\n        /* \"#utility.yul\":11426:11845   */\n      swap2\n      swap1\n      pop\n      jump\t// out\n        /* \"#utility.yul\":11851:12082   */\n    tag_189:\n        /* \"#utility.yul\":11889:11892   */\n      0x00\n        /* \"#utility.yul\":11912:11935   */\n      tag_355\n        /* \"#utility.yul\":11929:11934   */\n      dup3\n        /* \"#utility.yul\":11912:11935   */\n      tag_196\n      jump\t// in\n    tag_355:\n        /* \"#utility.yul\":11903:11935   */\n      swap2\n      pop\n        /* \"#utility.yul\":11957:12023   */\n      0x7fffffffffffffffffffffffffffffffffffffffffffffffffffffffffffffff\n        /* \"#utility.yul\":11950:11955   */\n      dup3\n        /* \"#utility.yul\":11947:12024   */\n      sub\n        /* \"#utility.yul\":11944:12047   */\n      tag_356\n      jumpi\n        /* \"#utility.yul\":12027:12045   */\n      tag_357\n      tag_205\n      jump\t// in\n    tag_357:\n        /* \"#utility.yul\":11944:12047   */\n    tag_356:\n        /* \"#utility.yul\":12074:12075   */\n      0x01\n        /* \"#utility.yul\":12067:12072   */\n      dup3\n        /* \"#utility.yul\":12063:12076   */\n      add\n        /* \"#utility.yul\":12056:12076   */\n      swap1\n      pop\n        /* \"#utility.yul\":11851:12082   */\n      swap2\n      swap1\n      pop\n      jump\t// out\n        /* \"#utility.yul\":12088:12174   */\n    tag_217:\n        /* \"#utility.yul\":12123:12130   */\n      0x00\n        /* \"#utility.yul\":12163:12167   */\n      0xff\n        /* \"#utility.yul\":12156:12161   */\n      dup3\n        /* \"#utility.yul\":12152:12168   */\n      and\n        /* \"#utility.yul\":12141:12168   */\n      swap1\n      pop\n        /* \"#utility.yul\":12088:12174   */\n      swap2\n      swap1\n      pop\n      jump\t// out\n        /* \"#utility.yul\":12180:12461   */\n    tag_192:\n        /* \"#utility.yul\":12238:12243   */\n      0x00\n        /* \"#utility.yul\":12262:12285   */\n      tag_360\n        /* \"#utility.yul\":12280:12284   */\n      dup3\n        /* \"#utility.yul\":12262:12285   */\n      tag_199\n      jump\t// in\n    tag_360:\n        /* \"#utility.yul\":12254:12285   */\n      swap2\n      pop\n        /* \"#utility.yul\":12306:12331   */\n      tag_361\n        /* \"#utility.yul\":12322:12330   */\n      dup4\n        /* \"#utility.yul\":12306:12331   */\n      tag_217\n      jump\t// in\n    tag_361:\n        /* \"#utility.yul\":12294:12331   */\n      swap3\n      pop\n        /* \"#utility.yul\":12350:12454   */\n      tag_362\n        /* \"#utility.yul\":12387:12453   */\n      0xffffffffffffffffffffffffffffffffffffffffffffffffffffffffffffffff\n        /* \"#utility.yul\":12377:12385   */\n      dup5\n        /* \"#utility.yul\":12371:12375   */\n      dup5\n        /* \"#utility.yul\":12350:12454   */\n      tag_208\n      jump\t// in\n    tag_362:\n        /* \"#utility.yul\":12341:12454   */\n      swap1\n      pop\n        /* \"#utility.yul\":12180:12461   */\n      swap3\n      swap2\n      pop\n      pop\n      jump\t// out\n\n    auxdata: 0xa2646970667358221220d0a79d21829e545541c895b21b1887e00509bc036e3e1b6323cf25d2f055279764736f6c63430008110033\n}\n",
				"bytecode": {
					"linkReferences": {},
					"object": "608060405234801561001057600080fd5b50611053806100206000396000f3fe608060405234801561001057600080fd5b50600436106100ea5760003560e01c80639e098fc11161008c578063d9ea8e6411610066578063d9ea8e6414610297578063f26c79ef146102c7578063f492c000146102e3578063f4bf03c714610313576100ea565b80639e098fc114610219578063b413372114610249578063cdab780714610267576100ea565b806383714834116100c8578063837148341461015957806383d3705e146101895780638ce32d21146101b957806392cc2841146101e9576100ea565b806346439726146100ef5780634f4752ba1461011f5780638119c0651461014f575b600080fd5b610109600480360381019061010491906108ce565b610343565b6040516101169190610914565b60405180910390f35b6101396004803603810190610134919061095b565b61036b565b6040516101469190610914565b60405180910390f35b610157610381565b005b610173600480360381019061016e919061099b565b61039b565b6040516101809190610914565b60405180910390f35b6101a3600480360381019061019e919061099b565b6103ee565b6040516101b09190610914565b60405180910390f35b6101d360048036038101906101ce919061099b565b6104ce565b6040516101e09190610914565b60405180910390f35b61020360048036038101906101fe91906109c8565b61051d565b6040516102109190610914565b60405180910390f35b610233600480360381019061022e919061099b565b61054b565b6040516102409190610914565b60405180910390f35b6102516105a6565b60405161025e9190610914565b60405180910390f35b610281600480360381019061027c919061099b565b6106d9565b60405161028e9190610914565b60405180910390f35b6102b160048036038101906102ac9190610a1b565b610747565b6040516102be9190610a7d565b60405180910390f35b6102e160048036038101906102dc919061099b565b610774565b005b6102fd60048036038101906102f891906108ce565b610832565b60405161030a9190610a7d565b60405180910390f35b61032d6004803603810190610328919061099b565b61087d565b60405161033a9190610914565b60405180910390f35b6000806002836103539190610ac7565b036103615760019050610366565b600090505b919050565b600081836103799190610c5a565b905092915050565b600060019050600060029050808280925081935050505050565b6000808290506000600190505b600082146103e4576000600a836103bf9190610ca5565b905080826103cd9190610cd6565b9150600a836103dc9190610d18565b9250506103a8565b8092505050919050565b6000808290506000805b6000831461042257818061040b90610d49565b925050600a8361041b9190610d18565b92506103f8565b60008203610465576040517f08c379a000000000000000000000000000000000000000000000000000000000815260040161045c90610dee565b60405180910390fd5b8492505b600083146104b0576000600a846104809190610ca5565b9050828161048e9190610c5a565b826104999190610e0e565b9150600a846104a89190610d18565b935050610469565b8085146104be5760006104c1565b60015b60ff169350505050919050565b60008082905060005b60008214610513576000600a836104ee9190610ca5565b905080826104fc9190610e0e565b9150600a8361050b9190610d18565b9250506104d7565b8092505050919050565b6000600382848661052e9190610e0e565b6105389190610e0e565b6105429190610d18565b90509392505050565b60008060008390505b6000811461059c576000600a8261056b9190610ca5565b905080600a8461057b9190610cd6565b6105859190610e0e565b9250600a826105949190610d18565b915050610554565b8192505050919050565b600080600090505b600260006040516105be90610e99565b9081526020016040518091039020805490506105da9190610eae565b8110156106d05760006040516105ef90610e99565b908152602001604051809103902060028261060a9190610e0e565b8154811061061b5761061a610ee2565b5b9060005260206000200154600060405161063490610e99565b908152602001604051809103902060018361064f9190610e0e565b815481106106605761065f610ee2565b5b90600052602060002001546106759190610e0e565b600060405161068390610e99565b908152602001604051809103902082815481106106a3576106a2610ee2565b5b9060005260206000200154146106bd5760009150506106d6565b80806106c890610d49565b9150506105ae565b50600190505b90565b60008082905060005b6000821461072a576000600a836106f99190610ca5565b905080600a836107099190610cd6565b6107139190610e0e565b9150600a836107229190610d18565b9250506106e2565b83811461073857600061073b565b60015b60ff1692505050919050565b6000808385136107575783610759565b845b9050828113610768578261076a565b805b9150509392505050565b600081036107b7576040517f08c379a00000000000000000000000000000000000000000000000000000000081526004016107ae90610f5d565b60405180910390fd5b60008190505b6000811461082e576000600a826107d49190610ca5565b905060006040516107e490610e99565b9081526020016040518091039020819080600181540180825580915050600190039060005260206000200160009091909190915055600a826108269190610d18565b9150506107bd565b5050565b600080600290505b8281121561087257600081846108509190610ac7565b0361085f576000915050610878565b808061086a90610f7d565b91505061083a565b50600190505b919050565b600060028261088c9190610fd2565b9050919050565b600080fd5b6000819050919050565b6108ab81610898565b81146108b657600080fd5b50565b6000813590506108c8816108a2565b92915050565b6000602082840312156108e4576108e3610893565b5b60006108f2848285016108b9565b91505092915050565b6000819050919050565b61090e816108fb565b82525050565b60006020820190506109296000830184610905565b92915050565b610938816108fb565b811461094357600080fd5b50565b6000813590506109558161092f565b92915050565b6000806040838503121561097257610971610893565b5b600061098085828601610946565b925050602061099185828601610946565b9150509250929050565b6000602082840312156109b1576109b0610893565b5b60006109bf84828501610946565b91505092915050565b6000806000606084860312156109e1576109e0610893565b5b60006109ef86828701610946565b9350506020610a0086828701610946565b9250506040610a1186828701610946565b9150509250925092565b600080600060608486031215610a3457610a33610893565b5b6000610a42868287016108b9565b9350506020610a53868287016108b9565b9250506040610a64868287016108b9565b9150509250925092565b610a7781610898565b82525050565b6000602082019050610a926000830184610a6e565b92915050565b7f4e487b7100000000000000000000000000000000000000000000000000000000600052601260045260246000fd5b6000610ad282610898565b9150610add83610898565b925082610aed57610aec610a98565b5b828207905092915050565b7f4e487b7100000000000000000000000000000000000000000000000000000000600052601160045260246000fd5b60008160011c9050919050565b6000808291508390505b6001851115610b7e57808604811115610b5a57610b59610af8565b5b6001851615610b695780820291505b8081029050610b7785610b27565b9450610b3e565b94509492505050565b600082610b975760019050610c53565b81610ba55760009050610c53565b8160018114610bbb5760028114610bc557610bf4565b6001915050610c53565b60ff841115610bd757610bd6610af8565b5b8360020a915084821115610bee57610bed610af8565b5b50610c53565b5060208310610133831016604e8410600b8410161715610c295782820a905083811115610c2457610c23610af8565b5b610c53565b610c368484846001610b34565b92509050818404811115610c4d57610c4c610af8565b5b81810290505b9392505050565b6000610c65826108fb565b9150610c70836108fb565b9250610c9d7fffffffffffffffffffffffffffffffffffffffffffffffffffffffffffffffff8484610b87565b905092915050565b6000610cb0826108fb565b9150610cbb836108fb565b925082610ccb57610cca610a98565b5b828206905092915050565b6000610ce1826108fb565b9150610cec836108fb565b9250828202610cfa816108fb565b91508282048414831517610d1157610d10610af8565b5b5092915050565b6000610d23826108fb565b9150610d2e836108fb565b925082610d3e57610d3d610a98565b5b828204905092915050565b6000610d54826108fb565b91507fffffffffffffffffffffffffffffffffffffffffffffffffffffffffffffffff8203610d8657610d85610af8565b5b600182019050919050565b600082825260208201905092915050565b7f6e6f7420612076616c6964206e756d6265720000000000000000000000000000600082015250565b6000610dd8601283610d91565b9150610de382610da2565b602082019050919050565b60006020820190508181036000830152610e0781610dcb565b9050919050565b6000610e19826108fb565b9150610e24836108fb565b9250828201905080821115610e3c57610e3b610af8565b5b92915050565b600081905092915050565b7f6e756d4172720000000000000000000000000000000000000000000000000000600082015250565b6000610e83600683610e42565b9150610e8e82610e4d565b600682019050919050565b6000610ea482610e76565b9150819050919050565b6000610eb9826108fb565b9150610ec4836108fb565b9250828203905081811115610edc57610edb610af8565b5b92915050565b7f4e487b7100000000000000000000000000000000000000000000000000000000600052603260045260246000fd5b7f6e6f7420412076616c6964206e756d6265720000000000000000000000000000600082015250565b6000610f47601283610d91565b9150610f5282610f11565b602082019050919050565b60006020820190508181036000830152610f7681610f3a565b9050919050565b6000610f8882610898565b91507f7fffffffffffffffffffffffffffffffffffffffffffffffffffffffffffffff8203610fba57610fb9610af8565b5b600182019050919050565b600060ff82169050919050565b6000610fdd826108fb565b9150610fe883610fc5565b92506110157fffffffffffffffffffffffffffffffffffffffffffffffffffffffffffffffff8484610b87565b90509291505056fea2646970667358221220d0a79d21829e545541c895b21b1887e00509bc036e3e1b6323cf25d2f055279764736f6c63430008110033",
					"opcodes": "PUSH1 0x80 PUSH1 0x40 MSTORE CALLVALUE DUP1 ISZERO PUSH2 0x10 JUMPI PUSH1 0x0 DUP1 REVERT JUMPDEST POP PUSH2 0x1053 DUP1 PUSH2 0x20 PUSH1 0x0 CODECOPY PUSH1 0x0 RETURN INVALID PUSH1 0x80 PUSH1 0x40 MSTORE CALLVALUE DUP1 ISZERO PUSH2 0x10 JUMPI PUSH1 0x0 DUP1 REVERT JUMPDEST POP PUSH1 0x4 CALLDATASIZE LT PUSH2 0xEA JUMPI PUSH1 0x0 CALLDATALOAD PUSH1 0xE0 SHR DUP1 PUSH4 0x9E098FC1 GT PUSH2 0x8C JUMPI DUP1 PUSH4 0xD9EA8E64 GT PUSH2 0x66 JUMPI DUP1 PUSH4 0xD9EA8E64 EQ PUSH2 0x297 JUMPI DUP1 PUSH4 0xF26C79EF EQ PUSH2 0x2C7 JUMPI DUP1 PUSH4 0xF492C000 EQ PUSH2 0x2E3 JUMPI DUP1 PUSH4 0xF4BF03C7 EQ PUSH2 0x313 JUMPI PUSH2 0xEA JUMP JUMPDEST DUP1 PUSH4 0x9E098FC1 EQ PUSH2 0x219 JUMPI DUP1 PUSH4 0xB4133721 EQ PUSH2 0x249 JUMPI DUP1 PUSH4 0xCDAB7807 EQ PUSH2 0x267 JUMPI PUSH2 0xEA JUMP JUMPDEST DUP1 PUSH4 0x83714834 GT PUSH2 0xC8 JUMPI DUP1 PUSH4 0x83714834 EQ PUSH2 0x159 JUMPI DUP1 PUSH4 0x83D3705E EQ PUSH2 0x189 JUMPI DUP1 PUSH4 0x8CE32D21 EQ PUSH2 0x1B9 JUMPI DUP1 PUSH4 0x92CC2841 EQ PUSH2 0x1E9 JUMPI PUSH2 0xEA JUMP JUMPDEST DUP1 PUSH4 0x46439726 EQ PUSH2 0xEF JUMPI DUP1 PUSH4 0x4F4752BA EQ PUSH2 0x11F JUMPI DUP1 PUSH4 0x8119C065 EQ PUSH2 0x14F JUMPI JUMPDEST PUSH1 0x0 DUP1 REVERT JUMPDEST PUSH2 0x109 PUSH1 0x4 DUP1 CALLDATASIZE SUB DUP2 ADD SWAP1 PUSH2 0x104 SWAP2 SWAP1 PUSH2 0x8CE JUMP JUMPDEST PUSH2 0x343 JUMP JUMPDEST PUSH1 0x40 MLOAD PUSH2 0x116 SWAP2 SWAP1 PUSH2 0x914 JUMP JUMPDEST PUSH1 0x40 MLOAD DUP1 SWAP2 SUB SWAP1 RETURN JUMPDEST PUSH2 0x139 PUSH1 0x4 DUP1 CALLDATASIZE SUB DUP2 ADD SWAP1 PUSH2 0x134 SWAP2 SWAP1 PUSH2 0x95B JUMP JUMPDEST PUSH2 0x36B JUMP JUMPDEST PUSH1 0x40 MLOAD PUSH2 0x146 SWAP2 SWAP1 PUSH2 0x914 JUMP JUMPDEST PUSH1 0x40 MLOAD DUP1 SWAP2 SUB SWAP1 RETURN JUMPDEST PUSH2 0x157 PUSH2 0x381 JUMP JUMPDEST STOP JUMPDEST PUSH2 0x173 PUSH1 0x4 DUP1 CALLDATASIZE SUB DUP2 ADD SWAP1 PUSH2 0x16E SWAP2 SWAP1 PUSH2 0x99B JUMP JUMPDEST PUSH2 0x39B JUMP JUMPDEST PUSH1 0x40 MLOAD PUSH2 0x180 SWAP2 SWAP1 PUSH2 0x914 JUMP JUMPDEST PUSH1 0x40 MLOAD DUP1 SWAP2 SUB SWAP1 RETURN JUMPDEST PUSH2 0x1A3 PUSH1 0x4 DUP1 CALLDATASIZE SUB DUP2 ADD SWAP1 PUSH2 0x19E SWAP2 SWAP1 PUSH2 0x99B JUMP JUMPDEST PUSH2 0x3EE JUMP JUMPDEST PUSH1 0x40 MLOAD PUSH2 0x1B0 SWAP2 SWAP1 PUSH2 0x914 JUMP JUMPDEST PUSH1 0x40 MLOAD DUP1 SWAP2 SUB SWAP1 RETURN JUMPDEST PUSH2 0x1D3 PUSH1 0x4 DUP1 CALLDATASIZE SUB DUP2 ADD SWAP1 PUSH2 0x1CE SWAP2 SWAP1 PUSH2 0x99B JUMP JUMPDEST PUSH2 0x4CE JUMP JUMPDEST PUSH1 0x40 MLOAD PUSH2 0x1E0 SWAP2 SWAP1 PUSH2 0x914 JUMP JUMPDEST PUSH1 0x40 MLOAD DUP1 SWAP2 SUB SWAP1 RETURN JUMPDEST PUSH2 0x203 PUSH1 0x4 DUP1 CALLDATASIZE SUB DUP2 ADD SWAP1 PUSH2 0x1FE SWAP2 SWAP1 PUSH2 0x9C8 JUMP JUMPDEST PUSH2 0x51D JUMP JUMPDEST PUSH1 0x40 MLOAD PUSH2 0x210 SWAP2 SWAP1 PUSH2 0x914 JUMP JUMPDEST PUSH1 0x40 MLOAD DUP1 SWAP2 SUB SWAP1 RETURN JUMPDEST PUSH2 0x233 PUSH1 0x4 DUP1 CALLDATASIZE SUB DUP2 ADD SWAP1 PUSH2 0x22E SWAP2 SWAP1 PUSH2 0x99B JUMP JUMPDEST PUSH2 0x54B JUMP JUMPDEST PUSH1 0x40 MLOAD PUSH2 0x240 SWAP2 SWAP1 PUSH2 0x914 JUMP JUMPDEST PUSH1 0x40 MLOAD DUP1 SWAP2 SUB SWAP1 RETURN JUMPDEST PUSH2 0x251 PUSH2 0x5A6 JUMP JUMPDEST PUSH1 0x40 MLOAD PUSH2 0x25E SWAP2 SWAP1 PUSH2 0x914 JUMP JUMPDEST PUSH1 0x40 MLOAD DUP1 SWAP2 SUB SWAP1 RETURN JUMPDEST PUSH2 0x281 PUSH1 0x4 DUP1 CALLDATASIZE SUB DUP2 ADD SWAP1 PUSH2 0x27C SWAP2 SWAP1 PUSH2 0x99B JUMP JUMPDEST PUSH2 0x6D9 JUMP JUMPDEST PUSH1 0x40 MLOAD PUSH2 0x28E SWAP2 SWAP1 PUSH2 0x914 JUMP JUMPDEST PUSH1 0x40 MLOAD DUP1 SWAP2 SUB SWAP1 RETURN JUMPDEST PUSH2 0x2B1 PUSH1 0x4 DUP1 CALLDATASIZE SUB DUP2 ADD SWAP1 PUSH2 0x2AC SWAP2 SWAP1 PUSH2 0xA1B JUMP JUMPDEST PUSH2 0x747 JUMP JUMPDEST PUSH1 0x40 MLOAD PUSH2 0x2BE SWAP2 SWAP1 PUSH2 0xA7D JUMP JUMPDEST PUSH1 0x40 MLOAD DUP1 SWAP2 SUB SWAP1 RETURN JUMPDEST PUSH2 0x2E1 PUSH1 0x4 DUP1 CALLDATASIZE SUB DUP2 ADD SWAP1 PUSH2 0x2DC SWAP2 SWAP1 PUSH2 0x99B JUMP JUMPDEST PUSH2 0x774 JUMP JUMPDEST STOP JUMPDEST PUSH2 0x2FD PUSH1 0x4 DUP1 CALLDATASIZE SUB DUP2 ADD SWAP1 PUSH2 0x2F8 SWAP2 SWAP1 PUSH2 0x8CE JUMP JUMPDEST PUSH2 0x832 JUMP JUMPDEST PUSH1 0x40 MLOAD PUSH2 0x30A SWAP2 SWAP1 PUSH2 0xA7D JUMP JUMPDEST PUSH1 0x40 MLOAD DUP1 SWAP2 SUB SWAP1 RETURN JUMPDEST PUSH2 0x32D PUSH1 0x4 DUP1 CALLDATASIZE SUB DUP2 ADD SWAP1 PUSH2 0x328 SWAP2 SWAP1 PUSH2 0x99B JUMP JUMPDEST PUSH2 0x87D JUMP JUMPDEST PUSH1 0x40 MLOAD PUSH2 0x33A SWAP2 SWAP1 PUSH2 0x914 JUMP JUMPDEST PUSH1 0x40 MLOAD DUP1 SWAP2 SUB SWAP1 RETURN JUMPDEST PUSH1 0x0 DUP1 PUSH1 0x2 DUP4 PUSH2 0x353 SWAP2 SWAP1 PUSH2 0xAC7 JUMP JUMPDEST SUB PUSH2 0x361 JUMPI PUSH1 0x1 SWAP1 POP PUSH2 0x366 JUMP JUMPDEST PUSH1 0x0 SWAP1 POP JUMPDEST SWAP2 SWAP1 POP JUMP JUMPDEST PUSH1 0x0 DUP2 DUP4 PUSH2 0x379 SWAP2 SWAP1 PUSH2 0xC5A JUMP JUMPDEST SWAP1 POP SWAP3 SWAP2 POP POP JUMP JUMPDEST PUSH1 0x0 PUSH1 0x1 SWAP1 POP PUSH1 0x0 PUSH1 0x2 SWAP1 POP DUP1 DUP3 DUP1 SWAP3 POP DUP2 SWAP4 POP POP POP POP POP JUMP JUMPDEST PUSH1 0x0 DUP1 DUP3 SWAP1 POP PUSH1 0x0 PUSH1 0x1 SWAP1 POP JUMPDEST PUSH1 0x0 DUP3 EQ PUSH2 0x3E4 JUMPI PUSH1 0x0 PUSH1 0xA DUP4 PUSH2 0x3BF SWAP2 SWAP1 PUSH2 0xCA5 JUMP JUMPDEST SWAP1 POP DUP1 DUP3 PUSH2 0x3CD SWAP2 SWAP1 PUSH2 0xCD6 JUMP JUMPDEST SWAP2 POP PUSH1 0xA DUP4 PUSH2 0x3DC SWAP2 SWAP1 PUSH2 0xD18 JUMP JUMPDEST SWAP3 POP POP PUSH2 0x3A8 JUMP JUMPDEST DUP1 SWAP3 POP POP POP SWAP2 SWAP1 POP JUMP JUMPDEST PUSH1 0x0 DUP1 DUP3 SWAP1 POP PUSH1 0x0 DUP1 JUMPDEST PUSH1 0x0 DUP4 EQ PUSH2 0x422 JUMPI DUP2 DUP1 PUSH2 0x40B SWAP1 PUSH2 0xD49 JUMP JUMPDEST SWAP3 POP POP PUSH1 0xA DUP4 PUSH2 0x41B SWAP2 SWAP1 PUSH2 0xD18 JUMP JUMPDEST SWAP3 POP PUSH2 0x3F8 JUMP JUMPDEST PUSH1 0x0 DUP3 SUB PUSH2 0x465 JUMPI PUSH1 0x40 MLOAD PUSH32 0x8C379A000000000000000000000000000000000000000000000000000000000 DUP2 MSTORE PUSH1 0x4 ADD PUSH2 0x45C SWAP1 PUSH2 0xDEE JUMP JUMPDEST PUSH1 0x40 MLOAD DUP1 SWAP2 SUB SWAP1 REVERT JUMPDEST DUP5 SWAP3 POP JUMPDEST PUSH1 0x0 DUP4 EQ PUSH2 0x4B0 JUMPI PUSH1 0x0 PUSH1 0xA DUP5 PUSH2 0x480 SWAP2 SWAP1 PUSH2 0xCA5 JUMP JUMPDEST SWAP1 POP DUP3 DUP2 PUSH2 0x48E SWAP2 SWAP1 PUSH2 0xC5A JUMP JUMPDEST DUP3 PUSH2 0x499 SWAP2 SWAP1 PUSH2 0xE0E JUMP JUMPDEST SWAP2 POP PUSH1 0xA DUP5 PUSH2 0x4A8 SWAP2 SWAP1 PUSH2 0xD18 JUMP JUMPDEST SWAP4 POP POP PUSH2 0x469 JUMP JUMPDEST DUP1 DUP6 EQ PUSH2 0x4BE JUMPI PUSH1 0x0 PUSH2 0x4C1 JUMP JUMPDEST PUSH1 0x1 JUMPDEST PUSH1 0xFF AND SWAP4 POP POP POP POP SWAP2 SWAP1 POP JUMP JUMPDEST PUSH1 0x0 DUP1 DUP3 SWAP1 POP PUSH1 0x0 JUMPDEST PUSH1 0x0 DUP3 EQ PUSH2 0x513 JUMPI PUSH1 0x0 PUSH1 0xA DUP4 PUSH2 0x4EE SWAP2 SWAP1 PUSH2 0xCA5 JUMP JUMPDEST SWAP1 POP DUP1 DUP3 PUSH2 0x4FC SWAP2 SWAP1 PUSH2 0xE0E JUMP JUMPDEST SWAP2 POP PUSH1 0xA DUP4 PUSH2 0x50B SWAP2 SWAP1 PUSH2 0xD18 JUMP JUMPDEST SWAP3 POP POP PUSH2 0x4D7 JUMP JUMPDEST DUP1 SWAP3 POP POP POP SWAP2 SWAP1 POP JUMP JUMPDEST PUSH1 0x0 PUSH1 0x3 DUP3 DUP5 DUP7 PUSH2 0x52E SWAP2 SWAP1 PUSH2 0xE0E JUMP JUMPDEST PUSH2 0x538 SWAP2 SWAP1 PUSH2 0xE0E JUMP JUMPDEST PUSH2 0x542 SWAP2 SWAP1 PUSH2 0xD18 JUMP JUMPDEST SWAP1 POP SWAP4 SWAP3 POP POP POP JUMP JUMPDEST PUSH1 0x0 DUP1 PUSH1 0x0 DUP4 SWAP1 POP JUMPDEST PUSH1 0x0 DUP2 EQ PUSH2 0x59C JUMPI PUSH1 0x0 PUSH1 0xA DUP3 PUSH2 0x56B SWAP2 SWAP1 PUSH2 0xCA5 JUMP JUMPDEST SWAP1 POP DUP1 PUSH1 0xA DUP5 PUSH2 0x57B SWAP2 SWAP1 PUSH2 0xCD6 JUMP JUMPDEST PUSH2 0x585 SWAP2 SWAP1 PUSH2 0xE0E JUMP JUMPDEST SWAP3 POP PUSH1 0xA DUP3 PUSH2 0x594 SWAP2 SWAP1 PUSH2 0xD18 JUMP JUMPDEST SWAP2 POP POP PUSH2 0x554 JUMP JUMPDEST DUP2 SWAP3 POP POP POP SWAP2 SWAP1 POP JUMP JUMPDEST PUSH1 0x0 DUP1 PUSH1 0x0 SWAP1 POP JUMPDEST PUSH1 0x2 PUSH1 0x0 PUSH1 0x40 MLOAD PUSH2 0x5BE SWAP1 PUSH2 0xE99 JUMP JUMPDEST SWAP1 DUP2 MSTORE PUSH1 0x20 ADD PUSH1 0x40 MLOAD DUP1 SWAP2 SUB SWAP1 KECCAK256 DUP1 SLOAD SWAP1 POP PUSH2 0x5DA SWAP2 SWAP1 PUSH2 0xEAE JUMP JUMPDEST DUP2 LT ISZERO PUSH2 0x6D0 JUMPI PUSH1 0x0 PUSH1 0x40 MLOAD PUSH2 0x5EF SWAP1 PUSH2 0xE99 JUMP JUMPDEST SWAP1 DUP2 MSTORE PUSH1 0x20 ADD PUSH1 0x40 MLOAD DUP1 SWAP2 SUB SWAP1 KECCAK256 PUSH1 0x2 DUP3 PUSH2 0x60A SWAP2 SWAP1 PUSH2 0xE0E JUMP JUMPDEST DUP2 SLOAD DUP2 LT PUSH2 0x61B JUMPI PUSH2 0x61A PUSH2 0xEE2 JUMP JUMPDEST JUMPDEST SWAP1 PUSH1 0x0 MSTORE PUSH1 0x20 PUSH1 0x0 KECCAK256 ADD SLOAD PUSH1 0x0 PUSH1 0x40 MLOAD PUSH2 0x634 SWAP1 PUSH2 0xE99 JUMP JUMPDEST SWAP1 DUP2 MSTORE PUSH1 0x20 ADD PUSH1 0x40 MLOAD DUP1 SWAP2 SUB SWAP1 KECCAK256 PUSH1 0x1 DUP4 PUSH2 0x64F SWAP2 SWAP1 PUSH2 0xE0E JUMP JUMPDEST DUP2 SLOAD DUP2 LT PUSH2 0x660 JUMPI PUSH2 0x65F PUSH2 0xEE2 JUMP JUMPDEST JUMPDEST SWAP1 PUSH1 0x0 MSTORE PUSH1 0x20 PUSH1 0x0 KECCAK256 ADD SLOAD PUSH2 0x675 SWAP2 SWAP1 PUSH2 0xE0E JUMP JUMPDEST PUSH1 0x0 PUSH1 0x40 MLOAD PUSH2 0x683 SWAP1 PUSH2 0xE99 JUMP JUMPDEST SWAP1 DUP2 MSTORE PUSH1 0x20 ADD PUSH1 0x40 MLOAD DUP1 SWAP2 SUB SWAP1 KECCAK256 DUP3 DUP2 SLOAD DUP2 LT PUSH2 0x6A3 JUMPI PUSH2 0x6A2 PUSH2 0xEE2 JUMP JUMPDEST JUMPDEST SWAP1 PUSH1 0x0 MSTORE PUSH1 0x20 PUSH1 0x0 KECCAK256 ADD SLOAD EQ PUSH2 0x6BD JUMPI PUSH1 0x0 SWAP2 POP POP PUSH2 0x6D6 JUMP JUMPDEST DUP1 DUP1 PUSH2 0x6C8 SWAP1 PUSH2 0xD49 JUMP JUMPDEST SWAP2 POP POP PUSH2 0x5AE JUMP JUMPDEST POP PUSH1 0x1 SWAP1 POP JUMPDEST SWAP1 JUMP JUMPDEST PUSH1 0x0 DUP1 DUP3 SWAP1 POP PUSH1 0x0 JUMPDEST PUSH1 0x0 DUP3 EQ PUSH2 0x72A JUMPI PUSH1 0x0 PUSH1 0xA DUP4 PUSH2 0x6F9 SWAP2 SWAP1 PUSH2 0xCA5 JUMP JUMPDEST SWAP1 POP DUP1 PUSH1 0xA DUP4 PUSH2 0x709 SWAP2 SWAP1 PUSH2 0xCD6 JUMP JUMPDEST PUSH2 0x713 SWAP2 SWAP1 PUSH2 0xE0E JUMP JUMPDEST SWAP2 POP PUSH1 0xA DUP4 PUSH2 0x722 SWAP2 SWAP1 PUSH2 0xD18 JUMP JUMPDEST SWAP3 POP POP PUSH2 0x6E2 JUMP JUMPDEST DUP4 DUP2 EQ PUSH2 0x738 JUMPI PUSH1 0x0 PUSH2 0x73B JUMP JUMPDEST PUSH1 0x1 JUMPDEST PUSH1 0xFF AND SWAP3 POP POP POP SWAP2 SWAP1 POP JUMP JUMPDEST PUSH1 0x0 DUP1 DUP4 DUP6 SGT PUSH2 0x757 JUMPI DUP4 PUSH2 0x759 JUMP JUMPDEST DUP5 JUMPDEST SWAP1 POP DUP3 DUP2 SGT PUSH2 0x768 JUMPI DUP3 PUSH2 0x76A JUMP JUMPDEST DUP1 JUMPDEST SWAP2 POP POP SWAP4 SWAP3 POP POP POP JUMP JUMPDEST PUSH1 0x0 DUP2 SUB PUSH2 0x7B7 JUMPI PUSH1 0x40 MLOAD PUSH32 0x8C379A000000000000000000000000000000000000000000000000000000000 DUP2 MSTORE PUSH1 0x4 ADD PUSH2 0x7AE SWAP1 PUSH2 0xF5D JUMP JUMPDEST PUSH1 0x40 MLOAD DUP1 SWAP2 SUB SWAP1 REVERT JUMPDEST PUSH1 0x0 DUP2 SWAP1 POP JUMPDEST PUSH1 0x0 DUP2 EQ PUSH2 0x82E JUMPI PUSH1 0x0 PUSH1 0xA DUP3 PUSH2 0x7D4 SWAP2 SWAP1 PUSH2 0xCA5 JUMP JUMPDEST SWAP1 POP PUSH1 0x0 PUSH1 0x40 MLOAD PUSH2 0x7E4 SWAP1 PUSH2 0xE99 JUMP JUMPDEST SWAP1 DUP2 MSTORE PUSH1 0x20 ADD PUSH1 0x40 MLOAD DUP1 SWAP2 SUB SWAP1 KECCAK256 DUP2 SWAP1 DUP1 PUSH1 0x1 DUP2 SLOAD ADD DUP1 DUP3 SSTORE DUP1 SWAP2 POP POP PUSH1 0x1 SWAP1 SUB SWAP1 PUSH1 0x0 MSTORE PUSH1 0x20 PUSH1 0x0 KECCAK256 ADD PUSH1 0x0 SWAP1 SWAP2 SWAP1 SWAP2 SWAP1 SWAP2 POP SSTORE PUSH1 0xA DUP3 PUSH2 0x826 SWAP2 SWAP1 PUSH2 0xD18 JUMP JUMPDEST SWAP2 POP POP PUSH2 0x7BD JUMP JUMPDEST POP POP JUMP JUMPDEST PUSH1 0x0 DUP1 PUSH1 0x2 SWAP1 POP JUMPDEST DUP3 DUP2 SLT ISZERO PUSH2 0x872 JUMPI PUSH1 0x0 DUP2 DUP5 PUSH2 0x850 SWAP2 SWAP1 PUSH2 0xAC7 JUMP JUMPDEST SUB PUSH2 0x85F JUMPI PUSH1 0x0 SWAP2 POP POP PUSH2 0x878 JUMP JUMPDEST DUP1 DUP1 PUSH2 0x86A SWAP1 PUSH2 0xF7D JUMP JUMPDEST SWAP2 POP POP PUSH2 0x83A JUMP JUMPDEST POP PUSH1 0x1 SWAP1 POP JUMPDEST SWAP2 SWAP1 POP JUMP JUMPDEST PUSH1 0x0 PUSH1 0x2 DUP3 PUSH2 0x88C SWAP2 SWAP1 PUSH2 0xFD2 JUMP JUMPDEST SWAP1 POP SWAP2 SWAP1 POP JUMP JUMPDEST PUSH1 0x0 DUP1 REVERT JUMPDEST PUSH1 0x0 DUP2 SWAP1 POP SWAP2 SWAP1 POP JUMP JUMPDEST PUSH2 0x8AB DUP2 PUSH2 0x898 JUMP JUMPDEST DUP2 EQ PUSH2 0x8B6 JUMPI PUSH1 0x0 DUP1 REVERT JUMPDEST POP JUMP JUMPDEST PUSH1 0x0 DUP2 CALLDATALOAD SWAP1 POP PUSH2 0x8C8 DUP2 PUSH2 0x8A2 JUMP JUMPDEST SWAP3 SWAP2 POP POP JUMP JUMPDEST PUSH1 0x0 PUSH1 0x20 DUP3 DUP5 SUB SLT ISZERO PUSH2 0x8E4 JUMPI PUSH2 0x8E3 PUSH2 0x893 JUMP JUMPDEST JUMPDEST PUSH1 0x0 PUSH2 0x8F2 DUP5 DUP3 DUP6 ADD PUSH2 0x8B9 JUMP JUMPDEST SWAP2 POP POP SWAP3 SWAP2 POP POP JUMP JUMPDEST PUSH1 0x0 DUP2 SWAP1 POP SWAP2 SWAP1 POP JUMP JUMPDEST PUSH2 0x90E DUP2 PUSH2 0x8FB JUMP JUMPDEST DUP3 MSTORE POP POP JUMP JUMPDEST PUSH1 0x0 PUSH1 0x20 DUP3 ADD SWAP1 POP PUSH2 0x929 PUSH1 0x0 DUP4 ADD DUP5 PUSH2 0x905 JUMP JUMPDEST SWAP3 SWAP2 POP POP JUMP JUMPDEST PUSH2 0x938 DUP2 PUSH2 0x8FB JUMP JUMPDEST DUP2 EQ PUSH2 0x943 JUMPI PUSH1 0x0 DUP1 REVERT JUMPDEST POP JUMP JUMPDEST PUSH1 0x0 DUP2 CALLDATALOAD SWAP1 POP PUSH2 0x955 DUP2 PUSH2 0x92F JUMP JUMPDEST SWAP3 SWAP2 POP POP JUMP JUMPDEST PUSH1 0x0 DUP1 PUSH1 0x40 DUP4 DUP6 SUB SLT ISZERO PUSH2 0x972 JUMPI PUSH2 0x971 PUSH2 0x893 JUMP JUMPDEST JUMPDEST PUSH1 0x0 PUSH2 0x980 DUP6 DUP3 DUP7 ADD PUSH2 0x946 JUMP JUMPDEST SWAP3 POP POP PUSH1 0x20 PUSH2 0x991 DUP6 DUP3 DUP7 ADD PUSH2 0x946 JUMP JUMPDEST SWAP2 POP POP SWAP3 POP SWAP3 SWAP1 POP JUMP JUMPDEST PUSH1 0x0 PUSH1 0x20 DUP3 DUP5 SUB SLT ISZERO PUSH2 0x9B1 JUMPI PUSH2 0x9B0 PUSH2 0x893 JUMP JUMPDEST JUMPDEST PUSH1 0x0 PUSH2 0x9BF DUP5 DUP3 DUP6 ADD PUSH2 0x946 JUMP JUMPDEST SWAP2 POP POP SWAP3 SWAP2 POP POP JUMP JUMPDEST PUSH1 0x0 DUP1 PUSH1 0x0 PUSH1 0x60 DUP5 DUP7 SUB SLT ISZERO PUSH2 0x9E1 JUMPI PUSH2 0x9E0 PUSH2 0x893 JUMP JUMPDEST JUMPDEST PUSH1 0x0 PUSH2 0x9EF DUP7 DUP3 DUP8 ADD PUSH2 0x946 JUMP JUMPDEST SWAP4 POP POP PUSH1 0x20 PUSH2 0xA00 DUP7 DUP3 DUP8 ADD PUSH2 0x946 JUMP JUMPDEST SWAP3 POP POP PUSH1 0x40 PUSH2 0xA11 DUP7 DUP3 DUP8 ADD PUSH2 0x946 JUMP JUMPDEST SWAP2 POP POP SWAP3 POP SWAP3 POP SWAP3 JUMP JUMPDEST PUSH1 0x0 DUP1 PUSH1 0x0 PUSH1 0x60 DUP5 DUP7 SUB SLT ISZERO PUSH2 0xA34 JUMPI PUSH2 0xA33 PUSH2 0x893 JUMP JUMPDEST JUMPDEST PUSH1 0x0 PUSH2 0xA42 DUP7 DUP3 DUP8 ADD PUSH2 0x8B9 JUMP JUMPDEST SWAP4 POP POP PUSH1 0x20 PUSH2 0xA53 DUP7 DUP3 DUP8 ADD PUSH2 0x8B9 JUMP JUMPDEST SWAP3 POP POP PUSH1 0x40 PUSH2 0xA64 DUP7 DUP3 DUP8 ADD PUSH2 0x8B9 JUMP JUMPDEST SWAP2 POP POP SWAP3 POP SWAP3 POP SWAP3 JUMP JUMPDEST PUSH2 0xA77 DUP2 PUSH2 0x898 JUMP JUMPDEST DUP3 MSTORE POP POP JUMP JUMPDEST PUSH1 0x0 PUSH1 0x20 DUP3 ADD SWAP1 POP PUSH2 0xA92 PUSH1 0x0 DUP4 ADD DUP5 PUSH2 0xA6E JUMP JUMPDEST SWAP3 SWAP2 POP POP JUMP JUMPDEST PUSH32 0x4E487B7100000000000000000000000000000000000000000000000000000000 PUSH1 0x0 MSTORE PUSH1 0x12 PUSH1 0x4 MSTORE PUSH1 0x24 PUSH1 0x0 REVERT JUMPDEST PUSH1 0x0 PUSH2 0xAD2 DUP3 PUSH2 0x898 JUMP JUMPDEST SWAP2 POP PUSH2 0xADD DUP4 PUSH2 0x898 JUMP JUMPDEST SWAP3 POP DUP3 PUSH2 0xAED JUMPI PUSH2 0xAEC PUSH2 0xA98 JUMP JUMPDEST JUMPDEST DUP3 DUP3 SMOD SWAP1 POP SWAP3 SWAP2 POP POP JUMP JUMPDEST PUSH32 0x4E487B7100000000000000000000000000000000000000000000000000000000 PUSH1 0x0 MSTORE PUSH1 0x11 PUSH1 0x4 MSTORE PUSH1 0x24 PUSH1 0x0 REVERT JUMPDEST PUSH1 0x0 DUP2 PUSH1 0x1 SHR SWAP1 POP SWAP2 SWAP1 POP JUMP JUMPDEST PUSH1 0x0 DUP1 DUP3 SWAP2 POP DUP4 SWAP1 POP JUMPDEST PUSH1 0x1 DUP6 GT ISZERO PUSH2 0xB7E JUMPI DUP1 DUP7 DIV DUP2 GT ISZERO PUSH2 0xB5A JUMPI PUSH2 0xB59 PUSH2 0xAF8 JUMP JUMPDEST JUMPDEST PUSH1 0x1 DUP6 AND ISZERO PUSH2 0xB69 JUMPI DUP1 DUP3 MUL SWAP2 POP JUMPDEST DUP1 DUP2 MUL SWAP1 POP PUSH2 0xB77 DUP6 PUSH2 0xB27 JUMP JUMPDEST SWAP5 POP PUSH2 0xB3E JUMP JUMPDEST SWAP5 POP SWAP5 SWAP3 POP POP POP JUMP JUMPDEST PUSH1 0x0 DUP3 PUSH2 0xB97 JUMPI PUSH1 0x1 SWAP1 POP PUSH2 0xC53 JUMP JUMPDEST DUP2 PUSH2 0xBA5 JUMPI PUSH1 0x0 SWAP1 POP PUSH2 0xC53 JUMP JUMPDEST DUP2 PUSH1 0x1 DUP2 EQ PUSH2 0xBBB JUMPI PUSH1 0x2 DUP2 EQ PUSH2 0xBC5 JUMPI PUSH2 0xBF4 JUMP JUMPDEST PUSH1 0x1 SWAP2 POP POP PUSH2 0xC53 JUMP JUMPDEST PUSH1 0xFF DUP5 GT ISZERO PUSH2 0xBD7 JUMPI PUSH2 0xBD6 PUSH2 0xAF8 JUMP JUMPDEST JUMPDEST DUP4 PUSH1 0x2 EXP SWAP2 POP DUP5 DUP3 GT ISZERO PUSH2 0xBEE JUMPI PUSH2 0xBED PUSH2 0xAF8 JUMP JUMPDEST JUMPDEST POP PUSH2 0xC53 JUMP JUMPDEST POP PUSH1 0x20 DUP4 LT PUSH2 0x133 DUP4 LT AND PUSH1 0x4E DUP5 LT PUSH1 0xB DUP5 LT AND OR ISZERO PUSH2 0xC29 JUMPI DUP3 DUP3 EXP SWAP1 POP DUP4 DUP2 GT ISZERO PUSH2 0xC24 JUMPI PUSH2 0xC23 PUSH2 0xAF8 JUMP JUMPDEST JUMPDEST PUSH2 0xC53 JUMP JUMPDEST PUSH2 0xC36 DUP5 DUP5 DUP5 PUSH1 0x1 PUSH2 0xB34 JUMP JUMPDEST SWAP3 POP SWAP1 POP DUP2 DUP5 DIV DUP2 GT ISZERO PUSH2 0xC4D JUMPI PUSH2 0xC4C PUSH2 0xAF8 JUMP JUMPDEST JUMPDEST DUP2 DUP2 MUL SWAP1 POP JUMPDEST SWAP4 SWAP3 POP POP POP JUMP JUMPDEST PUSH1 0x0 PUSH2 0xC65 DUP3 PUSH2 0x8FB JUMP JUMPDEST SWAP2 POP PUSH2 0xC70 DUP4 PUSH2 0x8FB JUMP JUMPDEST SWAP3 POP PUSH2 0xC9D PUSH32 0xFFFFFFFFFFFFFFFFFFFFFFFFFFFFFFFFFFFFFFFFFFFFFFFFFFFFFFFFFFFFFFFF DUP5 DUP5 PUSH2 0xB87 JUMP JUMPDEST SWAP1 POP SWAP3 SWAP2 POP POP JUMP JUMPDEST PUSH1 0x0 PUSH2 0xCB0 DUP3 PUSH2 0x8FB JUMP JUMPDEST SWAP2 POP PUSH2 0xCBB DUP4 PUSH2 0x8FB JUMP JUMPDEST SWAP3 POP DUP3 PUSH2 0xCCB JUMPI PUSH2 0xCCA PUSH2 0xA98 JUMP JUMPDEST JUMPDEST DUP3 DUP3 MOD SWAP1 POP SWAP3 SWAP2 POP POP JUMP JUMPDEST PUSH1 0x0 PUSH2 0xCE1 DUP3 PUSH2 0x8FB JUMP JUMPDEST SWAP2 POP PUSH2 0xCEC DUP4 PUSH2 0x8FB JUMP JUMPDEST SWAP3 POP DUP3 DUP3 MUL PUSH2 0xCFA DUP2 PUSH2 0x8FB JUMP JUMPDEST SWAP2 POP DUP3 DUP3 DIV DUP5 EQ DUP4 ISZERO OR PUSH2 0xD11 JUMPI PUSH2 0xD10 PUSH2 0xAF8 JUMP JUMPDEST JUMPDEST POP SWAP3 SWAP2 POP POP JUMP JUMPDEST PUSH1 0x0 PUSH2 0xD23 DUP3 PUSH2 0x8FB JUMP JUMPDEST SWAP2 POP PUSH2 0xD2E DUP4 PUSH2 0x8FB JUMP JUMPDEST SWAP3 POP DUP3 PUSH2 0xD3E JUMPI PUSH2 0xD3D PUSH2 0xA98 JUMP JUMPDEST JUMPDEST DUP3 DUP3 DIV SWAP1 POP SWAP3 SWAP2 POP POP JUMP JUMPDEST PUSH1 0x0 PUSH2 0xD54 DUP3 PUSH2 0x8FB JUMP JUMPDEST SWAP2 POP PUSH32 0xFFFFFFFFFFFFFFFFFFFFFFFFFFFFFFFFFFFFFFFFFFFFFFFFFFFFFFFFFFFFFFFF DUP3 SUB PUSH2 0xD86 JUMPI PUSH2 0xD85 PUSH2 0xAF8 JUMP JUMPDEST JUMPDEST PUSH1 0x1 DUP3 ADD SWAP1 POP SWAP2 SWAP1 POP JUMP JUMPDEST PUSH1 0x0 DUP3 DUP3 MSTORE PUSH1 0x20 DUP3 ADD SWAP1 POP SWAP3 SWAP2 POP POP JUMP JUMPDEST PUSH32 0x6E6F7420612076616C6964206E756D6265720000000000000000000000000000 PUSH1 0x0 DUP3 ADD MSTORE POP JUMP JUMPDEST PUSH1 0x0 PUSH2 0xDD8 PUSH1 0x12 DUP4 PUSH2 0xD91 JUMP JUMPDEST SWAP2 POP PUSH2 0xDE3 DUP3 PUSH2 0xDA2 JUMP JUMPDEST PUSH1 0x20 DUP3 ADD SWAP1 POP SWAP2 SWAP1 POP JUMP JUMPDEST PUSH1 0x0 PUSH1 0x20 DUP3 ADD SWAP1 POP DUP2 DUP2 SUB PUSH1 0x0 DUP4 ADD MSTORE PUSH2 0xE07 DUP2 PUSH2 0xDCB JUMP JUMPDEST SWAP1 POP SWAP2 SWAP1 POP JUMP JUMPDEST PUSH1 0x0 PUSH2 0xE19 DUP3 PUSH2 0x8FB JUMP JUMPDEST SWAP2 POP PUSH2 0xE24 DUP4 PUSH2 0x8FB JUMP JUMPDEST SWAP3 POP DUP3 DUP3 ADD SWAP1 POP DUP1 DUP3 GT ISZERO PUSH2 0xE3C JUMPI PUSH2 0xE3B PUSH2 0xAF8 JUMP JUMPDEST JUMPDEST SWAP3 SWAP2 POP POP JUMP JUMPDEST PUSH1 0x0 DUP2 SWAP1 POP SWAP3 SWAP2 POP POP JUMP JUMPDEST PUSH32 0x6E756D4172720000000000000000000000000000000000000000000000000000 PUSH1 0x0 DUP3 ADD MSTORE POP JUMP JUMPDEST PUSH1 0x0 PUSH2 0xE83 PUSH1 0x6 DUP4 PUSH2 0xE42 JUMP JUMPDEST SWAP2 POP PUSH2 0xE8E DUP3 PUSH2 0xE4D JUMP JUMPDEST PUSH1 0x6 DUP3 ADD SWAP1 POP SWAP2 SWAP1 POP JUMP JUMPDEST PUSH1 0x0 PUSH2 0xEA4 DUP3 PUSH2 0xE76 JUMP JUMPDEST SWAP2 POP DUP2 SWAP1 POP SWAP2 SWAP1 POP JUMP JUMPDEST PUSH1 0x0 PUSH2 0xEB9 DUP3 PUSH2 0x8FB JUMP JUMPDEST SWAP2 POP PUSH2 0xEC4 DUP4 PUSH2 0x8FB JUMP JUMPDEST SWAP3 POP DUP3 DUP3 SUB SWAP1 POP DUP2 DUP2 GT ISZERO PUSH2 0xEDC JUMPI PUSH2 0xEDB PUSH2 0xAF8 JUMP JUMPDEST JUMPDEST SWAP3 SWAP2 POP POP JUMP JUMPDEST PUSH32 0x4E487B7100000000000000000000000000000000000000000000000000000000 PUSH1 0x0 MSTORE PUSH1 0x32 PUSH1 0x4 MSTORE PUSH1 0x24 PUSH1 0x0 REVERT JUMPDEST PUSH32 0x6E6F7420412076616C6964206E756D6265720000000000000000000000000000 PUSH1 0x0 DUP3 ADD MSTORE POP JUMP JUMPDEST PUSH1 0x0 PUSH2 0xF47 PUSH1 0x12 DUP4 PUSH2 0xD91 JUMP JUMPDEST SWAP2 POP PUSH2 0xF52 DUP3 PUSH2 0xF11 JUMP JUMPDEST PUSH1 0x20 DUP3 ADD SWAP1 POP SWAP2 SWAP1 POP JUMP JUMPDEST PUSH1 0x0 PUSH1 0x20 DUP3 ADD SWAP1 POP DUP2 DUP2 SUB PUSH1 0x0 DUP4 ADD MSTORE PUSH2 0xF76 DUP2 PUSH2 0xF3A JUMP JUMPDEST SWAP1 POP SWAP2 SWAP1 POP JUMP JUMPDEST PUSH1 0x0 PUSH2 0xF88 DUP3 PUSH2 0x898 JUMP JUMPDEST SWAP2 POP PUSH32 0x7FFFFFFFFFFFFFFFFFFFFFFFFFFFFFFFFFFFFFFFFFFFFFFFFFFFFFFFFFFFFFFF DUP3 SUB PUSH2 0xFBA JUMPI PUSH2 0xFB9 PUSH2 0xAF8 JUMP JUMPDEST JUMPDEST PUSH1 0x1 DUP3 ADD SWAP1 POP SWAP2 SWAP1 POP JUMP JUMPDEST PUSH1 0x0 PUSH1 0xFF DUP3 AND SWAP1 POP SWAP2 SWAP1 POP JUMP JUMPDEST PUSH1 0x0 PUSH2 0xFDD DUP3 PUSH2 0x8FB JUMP JUMPDEST SWAP2 POP PUSH2 0xFE8 DUP4 PUSH2 0xFC5 JUMP JUMPDEST SWAP3 POP PUSH2 0x1015 PUSH32 0xFFFFFFFFFFFFFFFFFFFFFFFFFFFFFFFFFFFFFFFFFFFFFFFFFFFFFFFFFFFFFFFF DUP5 DUP5 PUSH2 0xB87 JUMP JUMPDEST SWAP1 POP SWAP3 SWAP2 POP POP JUMP INVALID LOG2 PUSH5 0x6970667358 0x22 SLT KECCAK256 0xD0 0xA7 SWAP14 0x21 DUP3 SWAP15 SLOAD SSTORE COINBASE 0xC8 SWAP6 0xB2 SHL XOR DUP8 0xE0 SDIV MULMOD 0xBC SUB PUSH15 0x3E1B6323CF25D2F055279764736F6C PUSH4 0x43000811 STOP CALLER "
				},
				"gasEstimates": {
					"creation": {
						"codeDepositCost": "835800",
						"executionCost": "870",
						"totalCost": "836670"
					},
					"external": {
						"Palindrome(uint256)": "infinite",
						"amstrong(uint256)": "infinite",
						"avg(uint256,uint256,uint256)": "infinite",
						"cube(uint256)": "infinite",
						"expo(uint256,uint256)": "infinite",
						"factorial(uint256)": "infinite",
						"fibonnical(uint256)": "infinite",
						"fibonnicalResult()": "infinite",
						"greater(int256,int256,int256)": "infinite",
						"oddOrEven(int256)": "infinite",
						"prime(int256)": "infinite",
						"reverseInt(uint256)": "infinite",
						"sumOfDigits(uint256)": "infinite",
						"swap()": "264"
					}
				},
				"methodIdentifiers": {
					"Palindrome(uint256)": "cdab7807",
					"amstrong(uint256)": "83d3705e",
					"avg(uint256,uint256,uint256)": "92cc2841",
					"cube(uint256)": "f4bf03c7",
					"expo(uint256,uint256)": "4f4752ba",
					"factorial(uint256)": "83714834",
					"fibonnical(uint256)": "f26c79ef",
					"fibonnicalResult()": "b4133721",
					"greater(int256,int256,int256)": "d9ea8e64",
					"oddOrEven(int256)": "46439726",
					"prime(int256)": "f492c000",
					"reverseInt(uint256)": "9e098fc1",
					"sumOfDigits(uint256)": "8ce32d21",
					"swap()": "8119c065"
				}
			},
			"storageLayout": {
				"storage": [
					{
						"astId": 6,
						"contract": "contracts/codeEater/Asg1.sol:Asg1",
						"label": "holder",
						"offset": 0,
						"slot": "0",
						"type": "t_mapping(t_string_memory_ptr,t_array(t_uint256)dyn_storage)"
					}
				],
				"types": {
					"t_array(t_uint256)dyn_storage": {
						"base": "t_uint256",
						"encoding": "dynamic_array",
						"label": "uint256[]",
						"numberOfBytes": "32"
					},
					"t_mapping(t_string_memory_ptr,t_array(t_uint256)dyn_storage)": {
						"encoding": "mapping",
						"key": "t_string_memory_ptr",
						"label": "mapping(string => uint256[])",
						"numberOfBytes": "32",
						"value": "t_array(t_uint256)dyn_storage"
					},
					"t_string_memory_ptr": {
						"encoding": "bytes",
						"label": "string",
						"numberOfBytes": "32"
					},
					"t_uint256": {
						"encoding": "inplace",
						"label": "uint256",
						"numberOfBytes": "32"
					}
				}
			},
			"userdoc": {
				"kind": "user",
				"methods": {},
				"version": 1
			}
		}
	}
}