{
	"contracts/codeEater/class.sol": {
		"Child": {
			"abi": [
				{
					"inputs": [
						{
							"internalType": "int256",
							"name": "_a",
							"type": "int256"
						},
						{
							"internalType": "int256",
							"name": "_b",
							"type": "int256"
						}
					],
					"name": "add",
					"outputs": [
						{
							"internalType": "int256",
							"name": "",
							"type": "int256"
						}
					],
					"stateMutability": "view",
					"type": "function"
				},
				{
					"inputs": [],
					"name": "getBook",
					"outputs": [
						{
							"internalType": "uint256",
							"name": "",
							"type": "uint256"
						},
						{
							"internalType": "uint256",
							"name": "",
							"type": "uint256"
						},
						{
							"internalType": "uint256",
							"name": "",
							"type": "uint256"
						}
					],
					"stateMutability": "view",
					"type": "function"
				},
				{
					"inputs": [
						{
							"internalType": "uint256",
							"name": "_length",
							"type": "uint256"
						},
						{
							"internalType": "uint256",
							"name": "_breath",
							"type": "uint256"
						},
						{
							"internalType": "uint256",
							"name": "_height",
							"type": "uint256"
						}
					],
					"name": "setBook",
					"outputs": [],
					"stateMutability": "nonpayable",
					"type": "function"
				}
			],
			"devdoc": {
				"kind": "dev",
				"methods": {},
				"version": 1
			},
			"evm": {
				"assembly": "    /* \"contracts/codeEater/class.sol\":460:601  contract Child is Book{... */\n  mstore(0x40, 0x80)\n    /* \"contracts/codeEater/class.sol\":159:169  new Poly() */\n  mload(0x40)\n  tag_1\n  swap1\n  tag_2\n  jump\t// in\ntag_1:\n  mload(0x40)\n  dup1\n  swap2\n  sub\n  swap1\n  0x00\n  create\n  dup1\n  iszero\n  dup1\n  iszero\n  tag_3\n  jumpi\n  returndatasize\n  0x00\n  dup1\n  returndatacopy\n  revert(0x00, returndatasize)\ntag_3:\n  pop\n    /* \"contracts/codeEater/class.sol\":148:169  Poly obj = new Poly() */\n  0x03\n  exp(0x0100, 0x00)\n  dup2\n  sload\n  dup2\n  0xffffffffffffffffffffffffffffffffffffffff\n  mul\n  not\n  and\n  swap1\n  dup4\n  0xffffffffffffffffffffffffffffffffffffffff\n  and\n  mul\n  or\n  swap1\n  sstore\n  pop\n    /* \"contracts/codeEater/class.sol\":495:496  2 */\n  0x02\n    /* \"contracts/codeEater/class.sol\":488:496  int aa=2 */\n  0x04\n  sstore\n    /* \"contracts/codeEater/class.sol\":460:601  contract Child is Book{... */\n  callvalue\n  dup1\n  iszero\n  tag_4\n  jumpi\n  0x00\n  dup1\n  revert\ntag_4:\n  pop\n  jump(tag_5)\ntag_2:\n  dataSize(sub_1)\n  dup1\n  dataOffset(sub_1)\n  dup4\n  codecopy\n  add\n  swap1\n  jump\t// out\ntag_5:\n  dataSize(sub_0)\n  dup1\n  dataOffset(sub_0)\n  0x00\n  codecopy\n  0x00\n  return\nstop\n\nsub_0: assembly {\n        /* \"contracts/codeEater/class.sol\":460:601  contract Child is Book{... */\n      mstore(0x40, 0x80)\n      callvalue\n      dup1\n      iszero\n      tag_1\n      jumpi\n      0x00\n      dup1\n      revert\n    tag_1:\n      pop\n      jumpi(tag_2, lt(calldatasize, 0x04))\n      shr(0xe0, calldataload(0x00))\n      dup1\n      0x3b0c197e\n      eq\n      tag_3\n      jumpi\n      dup1\n      0x7cd93b4c\n      eq\n      tag_4\n      jumpi\n      dup1\n      0xa5f3c23b\n      eq\n      tag_5\n      jumpi\n    tag_2:\n      0x00\n      dup1\n      revert\n        /* \"contracts/codeEater/class.sol\":301:395  function getBook() view public returns(uint,uint,uint){... */\n    tag_3:\n      tag_6\n      tag_7\n      jump\t// in\n    tag_6:\n      mload(0x40)\n      tag_8\n      swap4\n      swap3\n      swap2\n      swap1\n      tag_9\n      jump\t// in\n    tag_8:\n      mload(0x40)\n      dup1\n      swap2\n      sub\n      swap1\n      return\n        /* \"contracts/codeEater/class.sol\":172:300  function setBook(uint _length, uint _breath, uint _height) public{... */\n    tag_4:\n      tag_10\n      0x04\n      dup1\n      calldatasize\n      sub\n      dup2\n      add\n      swap1\n      tag_11\n      swap2\n      swap1\n      tag_12\n      jump\t// in\n    tag_11:\n      tag_13\n      jump\t// in\n    tag_10:\n      stop\n        /* \"contracts/codeEater/class.sol\":502:598  function  add(int _a, int _b) public override view returns(int){... */\n    tag_5:\n      tag_14\n      0x04\n      dup1\n      calldatasize\n      sub\n      dup2\n      add\n      swap1\n      tag_15\n      swap2\n      swap1\n      tag_16\n      jump\t// in\n    tag_15:\n      tag_17\n      jump\t// in\n    tag_14:\n      mload(0x40)\n      tag_18\n      swap2\n      swap1\n      tag_19\n      jump\t// in\n    tag_18:\n      mload(0x40)\n      dup1\n      swap2\n      sub\n      swap1\n      return\n        /* \"contracts/codeEater/class.sol\":301:395  function getBook() view public returns(uint,uint,uint){... */\n    tag_7:\n        /* \"contracts/codeEater/class.sol\":340:344  uint */\n      0x00\n        /* \"contracts/codeEater/class.sol\":345:349  uint */\n      dup1\n        /* \"contracts/codeEater/class.sol\":350:354  uint */\n      0x00\n        /* \"contracts/codeEater/class.sol\":369:375  length */\n      dup1\n      sload\n        /* \"contracts/codeEater/class.sol\":377:383  breath */\n      sload(0x01)\n        /* \"contracts/codeEater/class.sol\":385:391  height */\n      sload(0x02)\n        /* \"contracts/codeEater/class.sol\":361:392  return (length, breath, height) */\n      swap3\n      pop\n      swap3\n      pop\n      swap3\n      pop\n        /* \"contracts/codeEater/class.sol\":301:395  function getBook() view public returns(uint,uint,uint){... */\n      swap1\n      swap2\n      swap3\n      jump\t// out\n        /* \"contracts/codeEater/class.sol\":172:300  function setBook(uint _length, uint _breath, uint _height) public{... */\n    tag_13:\n        /* \"contracts/codeEater/class.sol\":250:257  _length */\n      dup3\n        /* \"contracts/codeEater/class.sol\":243:249  length */\n      0x00\n        /* \"contracts/codeEater/class.sol\":243:257  length=_length */\n      dup2\n      swap1\n      sstore\n      pop\n        /* \"contracts/codeEater/class.sol\":270:277  _breath */\n      dup2\n        /* \"contracts/codeEater/class.sol\":263:269  breath */\n      0x01\n        /* \"contracts/codeEater/class.sol\":263:277  breath=_breath */\n      dup2\n      swap1\n      sstore\n      pop\n        /* \"contracts/codeEater/class.sol\":290:297  _height */\n      dup1\n        /* \"contracts/codeEater/class.sol\":283:289  height */\n      0x02\n        /* \"contracts/codeEater/class.sol\":283:297  height=_height */\n      dup2\n      swap1\n      sstore\n      pop\n        /* \"contracts/codeEater/class.sol\":172:300  function setBook(uint _length, uint _breath, uint _height) public{... */\n      pop\n      pop\n      pop\n      jump\t// out\n        /* \"contracts/codeEater/class.sol\":502:598  function  add(int _a, int _b) public override view returns(int){... */\n    tag_17:\n        /* \"contracts/codeEater/class.sol\":561:564  int */\n      0x00\n        /* \"contracts/codeEater/class.sol\":588:590  aa */\n      sload(0x04)\n        /* \"contracts/codeEater/class.sol\":582:584  _a */\n      dup4\n        /* \"contracts/codeEater/class.sol\":582:590  _a  + aa */\n      tag_23\n      swap2\n      swap1\n      tag_24\n      jump\t// in\n    tag_23:\n        /* \"contracts/codeEater/class.sol\":575:591  return(_a  + aa) */\n      swap1\n      pop\n        /* \"contracts/codeEater/class.sol\":502:598  function  add(int _a, int _b) public override view returns(int){... */\n      swap3\n      swap2\n      pop\n      pop\n      jump\t// out\n        /* \"#utility.yul\":7:84   */\n    tag_25:\n        /* \"#utility.yul\":44:51   */\n      0x00\n        /* \"#utility.yul\":73:78   */\n      dup2\n        /* \"#utility.yul\":62:78   */\n      swap1\n      pop\n        /* \"#utility.yul\":7:84   */\n      swap2\n      swap1\n      pop\n      jump\t// out\n        /* \"#utility.yul\":90:208   */\n    tag_26:\n        /* \"#utility.yul\":177:201   */\n      tag_40\n        /* \"#utility.yul\":195:200   */\n      dup2\n        /* \"#utility.yul\":177:201   */\n      tag_25\n      jump\t// in\n    tag_40:\n        /* \"#utility.yul\":172:175   */\n      dup3\n        /* \"#utility.yul\":165:202   */\n      mstore\n        /* \"#utility.yul\":90:208   */\n      pop\n      pop\n      jump\t// out\n        /* \"#utility.yul\":214:656   */\n    tag_9:\n        /* \"#utility.yul\":363:367   */\n      0x00\n        /* \"#utility.yul\":401:403   */\n      0x60\n        /* \"#utility.yul\":390:399   */\n      dup3\n        /* \"#utility.yul\":386:404   */\n      add\n        /* \"#utility.yul\":378:404   */\n      swap1\n      pop\n        /* \"#utility.yul\":414:485   */\n      tag_42\n        /* \"#utility.yul\":482:483   */\n      0x00\n        /* \"#utility.yul\":471:480   */\n      dup4\n        /* \"#utility.yul\":467:484   */\n      add\n        /* \"#utility.yul\":458:464   */\n      dup7\n        /* \"#utility.yul\":414:485   */\n      tag_26\n      jump\t// in\n    tag_42:\n        /* \"#utility.yul\":495:567   */\n      tag_43\n        /* \"#utility.yul\":563:565   */\n      0x20\n        /* \"#utility.yul\":552:561   */\n      dup4\n        /* \"#utility.yul\":548:566   */\n      add\n        /* \"#utility.yul\":539:545   */\n      dup6\n        /* \"#utility.yul\":495:567   */\n      tag_26\n      jump\t// in\n    tag_43:\n        /* \"#utility.yul\":577:649   */\n      tag_44\n        /* \"#utility.yul\":645:647   */\n      0x40\n        /* \"#utility.yul\":634:643   */\n      dup4\n        /* \"#utility.yul\":630:648   */\n      add\n        /* \"#utility.yul\":621:627   */\n      dup5\n        /* \"#utility.yul\":577:649   */\n      tag_26\n      jump\t// in\n    tag_44:\n        /* \"#utility.yul\":214:656   */\n      swap5\n      swap4\n      pop\n      pop\n      pop\n      pop\n      jump\t// out\n        /* \"#utility.yul\":743:860   */\n    tag_28:\n        /* \"#utility.yul\":852:853   */\n      0x00\n        /* \"#utility.yul\":849:850   */\n      dup1\n        /* \"#utility.yul\":842:854   */\n      revert\n        /* \"#utility.yul\":989:1111   */\n    tag_30:\n        /* \"#utility.yul\":1062:1086   */\n      tag_49\n        /* \"#utility.yul\":1080:1085   */\n      dup2\n        /* \"#utility.yul\":1062:1086   */\n      tag_25\n      jump\t// in\n    tag_49:\n        /* \"#utility.yul\":1055:1060   */\n      dup2\n        /* \"#utility.yul\":1052:1087   */\n      eq\n        /* \"#utility.yul\":1042:1105   */\n      tag_50\n      jumpi\n        /* \"#utility.yul\":1101:1102   */\n      0x00\n        /* \"#utility.yul\":1098:1099   */\n      dup1\n        /* \"#utility.yul\":1091:1103   */\n      revert\n        /* \"#utility.yul\":1042:1105   */\n    tag_50:\n        /* \"#utility.yul\":989:1111   */\n      pop\n      jump\t// out\n        /* \"#utility.yul\":1117:1256   */\n    tag_31:\n        /* \"#utility.yul\":1163:1168   */\n      0x00\n        /* \"#utility.yul\":1201:1207   */\n      dup2\n        /* \"#utility.yul\":1188:1208   */\n      calldataload\n        /* \"#utility.yul\":1179:1208   */\n      swap1\n      pop\n        /* \"#utility.yul\":1217:1250   */\n      tag_52\n        /* \"#utility.yul\":1244:1249   */\n      dup2\n        /* \"#utility.yul\":1217:1250   */\n      tag_30\n      jump\t// in\n    tag_52:\n        /* \"#utility.yul\":1117:1256   */\n      swap3\n      swap2\n      pop\n      pop\n      jump\t// out\n        /* \"#utility.yul\":1262:1881   */\n    tag_12:\n        /* \"#utility.yul\":1339:1345   */\n      0x00\n        /* \"#utility.yul\":1347:1353   */\n      dup1\n        /* \"#utility.yul\":1355:1361   */\n      0x00\n        /* \"#utility.yul\":1404:1406   */\n      0x60\n        /* \"#utility.yul\":1392:1401   */\n      dup5\n        /* \"#utility.yul\":1383:1390   */\n      dup7\n        /* \"#utility.yul\":1379:1402   */\n      sub\n        /* \"#utility.yul\":1375:1407   */\n      slt\n        /* \"#utility.yul\":1372:1491   */\n      iszero\n      tag_54\n      jumpi\n        /* \"#utility.yul\":1410:1489   */\n      tag_55\n      tag_28\n      jump\t// in\n    tag_55:\n        /* \"#utility.yul\":1372:1491   */\n    tag_54:\n        /* \"#utility.yul\":1530:1531   */\n      0x00\n        /* \"#utility.yul\":1555:1608   */\n      tag_56\n        /* \"#utility.yul\":1600:1607   */\n      dup7\n        /* \"#utility.yul\":1591:1597   */\n      dup3\n        /* \"#utility.yul\":1580:1589   */\n      dup8\n        /* \"#utility.yul\":1576:1598   */\n      add\n        /* \"#utility.yul\":1555:1608   */\n      tag_31\n      jump\t// in\n    tag_56:\n        /* \"#utility.yul\":1545:1608   */\n      swap4\n      pop\n        /* \"#utility.yul\":1501:1618   */\n      pop\n        /* \"#utility.yul\":1657:1659   */\n      0x20\n        /* \"#utility.yul\":1683:1736   */\n      tag_57\n        /* \"#utility.yul\":1728:1735   */\n      dup7\n        /* \"#utility.yul\":1719:1725   */\n      dup3\n        /* \"#utility.yul\":1708:1717   */\n      dup8\n        /* \"#utility.yul\":1704:1726   */\n      add\n        /* \"#utility.yul\":1683:1736   */\n      tag_31\n      jump\t// in\n    tag_57:\n        /* \"#utility.yul\":1673:1736   */\n      swap3\n      pop\n        /* \"#utility.yul\":1628:1746   */\n      pop\n        /* \"#utility.yul\":1785:1787   */\n      0x40\n        /* \"#utility.yul\":1811:1864   */\n      tag_58\n        /* \"#utility.yul\":1856:1863   */\n      dup7\n        /* \"#utility.yul\":1847:1853   */\n      dup3\n        /* \"#utility.yul\":1836:1845   */\n      dup8\n        /* \"#utility.yul\":1832:1854   */\n      add\n        /* \"#utility.yul\":1811:1864   */\n      tag_31\n      jump\t// in\n    tag_58:\n        /* \"#utility.yul\":1801:1864   */\n      swap2\n      pop\n        /* \"#utility.yul\":1756:1874   */\n      pop\n        /* \"#utility.yul\":1262:1881   */\n      swap3\n      pop\n      swap3\n      pop\n      swap3\n      jump\t// out\n        /* \"#utility.yul\":1887:1963   */\n    tag_32:\n        /* \"#utility.yul\":1923:1930   */\n      0x00\n        /* \"#utility.yul\":1952:1957   */\n      dup2\n        /* \"#utility.yul\":1941:1957   */\n      swap1\n      pop\n        /* \"#utility.yul\":1887:1963   */\n      swap2\n      swap1\n      pop\n      jump\t// out\n        /* \"#utility.yul\":1969:2089   */\n    tag_33:\n        /* \"#utility.yul\":2041:2064   */\n      tag_61\n        /* \"#utility.yul\":2058:2063   */\n      dup2\n        /* \"#utility.yul\":2041:2064   */\n      tag_32\n      jump\t// in\n    tag_61:\n        /* \"#utility.yul\":2034:2039   */\n      dup2\n        /* \"#utility.yul\":2031:2065   */\n      eq\n        /* \"#utility.yul\":2021:2083   */\n      tag_62\n      jumpi\n        /* \"#utility.yul\":2079:2080   */\n      0x00\n        /* \"#utility.yul\":2076:2077   */\n      dup1\n        /* \"#utility.yul\":2069:2081   */\n      revert\n        /* \"#utility.yul\":2021:2083   */\n    tag_62:\n        /* \"#utility.yul\":1969:2089   */\n      pop\n      jump\t// out\n        /* \"#utility.yul\":2095:2232   */\n    tag_34:\n        /* \"#utility.yul\":2140:2145   */\n      0x00\n        /* \"#utility.yul\":2178:2184   */\n      dup2\n        /* \"#utility.yul\":2165:2185   */\n      calldataload\n        /* \"#utility.yul\":2156:2185   */\n      swap1\n      pop\n        /* \"#utility.yul\":2194:2226   */\n      tag_64\n        /* \"#utility.yul\":2220:2225   */\n      dup2\n        /* \"#utility.yul\":2194:2226   */\n      tag_33\n      jump\t// in\n    tag_64:\n        /* \"#utility.yul\":2095:2232   */\n      swap3\n      swap2\n      pop\n      pop\n      jump\t// out\n        /* \"#utility.yul\":2238:2708   */\n    tag_16:\n        /* \"#utility.yul\":2304:2310   */\n      0x00\n        /* \"#utility.yul\":2312:2318   */\n      dup1\n        /* \"#utility.yul\":2361:2363   */\n      0x40\n        /* \"#utility.yul\":2349:2358   */\n      dup4\n        /* \"#utility.yul\":2340:2347   */\n      dup6\n        /* \"#utility.yul\":2336:2359   */\n      sub\n        /* \"#utility.yul\":2332:2364   */\n      slt\n        /* \"#utility.yul\":2329:2448   */\n      iszero\n      tag_66\n      jumpi\n        /* \"#utility.yul\":2367:2446   */\n      tag_67\n      tag_28\n      jump\t// in\n    tag_67:\n        /* \"#utility.yul\":2329:2448   */\n    tag_66:\n        /* \"#utility.yul\":2487:2488   */\n      0x00\n        /* \"#utility.yul\":2512:2564   */\n      tag_68\n        /* \"#utility.yul\":2556:2563   */\n      dup6\n        /* \"#utility.yul\":2547:2553   */\n      dup3\n        /* \"#utility.yul\":2536:2545   */\n      dup7\n        /* \"#utility.yul\":2532:2554   */\n      add\n        /* \"#utility.yul\":2512:2564   */\n      tag_34\n      jump\t// in\n    tag_68:\n        /* \"#utility.yul\":2502:2564   */\n      swap3\n      pop\n        /* \"#utility.yul\":2458:2574   */\n      pop\n        /* \"#utility.yul\":2613:2615   */\n      0x20\n        /* \"#utility.yul\":2639:2691   */\n      tag_69\n        /* \"#utility.yul\":2683:2690   */\n      dup6\n        /* \"#utility.yul\":2674:2680   */\n      dup3\n        /* \"#utility.yul\":2663:2672   */\n      dup7\n        /* \"#utility.yul\":2659:2681   */\n      add\n        /* \"#utility.yul\":2639:2691   */\n      tag_34\n      jump\t// in\n    tag_69:\n        /* \"#utility.yul\":2629:2691   */\n      swap2\n      pop\n        /* \"#utility.yul\":2584:2701   */\n      pop\n        /* \"#utility.yul\":2238:2708   */\n      swap3\n      pop\n      swap3\n      swap1\n      pop\n      jump\t// out\n        /* \"#utility.yul\":2714:2829   */\n    tag_35:\n        /* \"#utility.yul\":2799:2822   */\n      tag_71\n        /* \"#utility.yul\":2816:2821   */\n      dup2\n        /* \"#utility.yul\":2799:2822   */\n      tag_32\n      jump\t// in\n    tag_71:\n        /* \"#utility.yul\":2794:2797   */\n      dup3\n        /* \"#utility.yul\":2787:2823   */\n      mstore\n        /* \"#utility.yul\":2714:2829   */\n      pop\n      pop\n      jump\t// out\n        /* \"#utility.yul\":2835:3053   */\n    tag_19:\n        /* \"#utility.yul\":2926:2930   */\n      0x00\n        /* \"#utility.yul\":2964:2966   */\n      0x20\n        /* \"#utility.yul\":2953:2962   */\n      dup3\n        /* \"#utility.yul\":2949:2967   */\n      add\n        /* \"#utility.yul\":2941:2967   */\n      swap1\n      pop\n        /* \"#utility.yul\":2977:3046   */\n      tag_73\n        /* \"#utility.yul\":3043:3044   */\n      0x00\n        /* \"#utility.yul\":3032:3041   */\n      dup4\n        /* \"#utility.yul\":3028:3045   */\n      add\n        /* \"#utility.yul\":3019:3025   */\n      dup5\n        /* \"#utility.yul\":2977:3046   */\n      tag_35\n      jump\t// in\n    tag_73:\n        /* \"#utility.yul\":2835:3053   */\n      swap3\n      swap2\n      pop\n      pop\n      jump\t// out\n        /* \"#utility.yul\":3059:3239   */\n    tag_36:\n        /* \"#utility.yul\":3107:3184   */\n      0x4e487b7100000000000000000000000000000000000000000000000000000000\n        /* \"#utility.yul\":3104:3105   */\n      0x00\n        /* \"#utility.yul\":3097:3185   */\n      mstore\n        /* \"#utility.yul\":3204:3208   */\n      0x11\n        /* \"#utility.yul\":3201:3202   */\n      0x04\n        /* \"#utility.yul\":3194:3209   */\n      mstore\n        /* \"#utility.yul\":3228:3232   */\n      0x24\n        /* \"#utility.yul\":3225:3226   */\n      0x00\n        /* \"#utility.yul\":3218:3233   */\n      revert\n        /* \"#utility.yul\":3245:3620   */\n    tag_24:\n        /* \"#utility.yul\":3284:3287   */\n      0x00\n        /* \"#utility.yul\":3303:3322   */\n      tag_76\n        /* \"#utility.yul\":3320:3321   */\n      dup3\n        /* \"#utility.yul\":3303:3322   */\n      tag_32\n      jump\t// in\n    tag_76:\n        /* \"#utility.yul\":3298:3322   */\n      swap2\n      pop\n        /* \"#utility.yul\":3336:3355   */\n      tag_77\n        /* \"#utility.yul\":3353:3354   */\n      dup4\n        /* \"#utility.yul\":3336:3355   */\n      tag_32\n      jump\t// in\n    tag_77:\n        /* \"#utility.yul\":3331:3355   */\n      swap3\n      pop\n        /* \"#utility.yul\":3378:3379   */\n      dup3\n        /* \"#utility.yul\":3375:3376   */\n      dup3\n        /* \"#utility.yul\":3371:3380   */\n      add\n        /* \"#utility.yul\":3364:3380   */\n      swap1\n      pop\n        /* \"#utility.yul\":3576:3577   */\n      dup3\n        /* \"#utility.yul\":3571:3574   */\n      dup2\n        /* \"#utility.yul\":3567:3578   */\n      slt\n        /* \"#utility.yul\":3560:3579   */\n      iszero\n        /* \"#utility.yul\":3556:3557   */\n      0x00\n        /* \"#utility.yul\":3553:3554   */\n      dup4\n        /* \"#utility.yul\":3549:3558   */\n      slt\n        /* \"#utility.yul\":3545:3580   */\n      and\n        /* \"#utility.yul\":3528:3529   */\n      dup4\n        /* \"#utility.yul\":3523:3526   */\n      dup3\n        /* \"#utility.yul\":3519:3530   */\n      slt\n        /* \"#utility.yul\":3514:3515   */\n      0x00\n        /* \"#utility.yul\":3511:3512   */\n      dup5\n        /* \"#utility.yul\":3507:3516   */\n      slt\n        /* \"#utility.yul\":3500:3517   */\n      iszero\n        /* \"#utility.yul\":3496:3531   */\n      and\n        /* \"#utility.yul\":3480:3590   */\n      or\n        /* \"#utility.yul\":3477:3613   */\n      iszero\n      tag_78\n      jumpi\n        /* \"#utility.yul\":3593:3611   */\n      tag_79\n      tag_36\n      jump\t// in\n    tag_79:\n        /* \"#utility.yul\":3477:3613   */\n    tag_78:\n        /* \"#utility.yul\":3245:3620   */\n      swap3\n      swap2\n      pop\n      pop\n      jump\t// out\n\n    auxdata: 0xa26469706673582212209a608b876926ea933557f33f5de7a47ca4e75a73142a9df6940ae144b5e57bba64736f6c63430008110033\n}\n\nsub_1: assembly {\n        /* \"contracts/codeEater/polymorphism.sol\":56:148  contract Poly{... */\n      mstore(0x40, 0x80)\n      callvalue\n      dup1\n      iszero\n      tag_1\n      jumpi\n      0x00\n      dup1\n      revert\n    tag_1:\n      pop\n      dataSize(sub_0)\n      dup1\n      dataOffset(sub_0)\n      0x00\n      codecopy\n      0x00\n      return\n    stop\n\n    sub_0: assembly {\n            /* \"contracts/codeEater/polymorphism.sol\":56:148  contract Poly{... */\n          mstore(0x40, 0x80)\n          callvalue\n          dup1\n          iszero\n          tag_1\n          jumpi\n          0x00\n          dup1\n          revert\n        tag_1:\n          pop\n          jumpi(tag_2, lt(calldatasize, 0x04))\n          shr(0xe0, calldataload(0x00))\n          dup1\n          0xa5f3c23b\n          eq\n          tag_3\n          jumpi\n        tag_2:\n          0x00\n          dup1\n          revert\n            /* \"contracts/codeEater/polymorphism.sol\":72:146  function add(int _a, int _b) public pure returns(int){... */\n        tag_3:\n          tag_4\n          0x04\n          dup1\n          calldatasize\n          sub\n          dup2\n          add\n          swap1\n          tag_5\n          swap2\n          swap1\n          tag_6\n          jump\t// in\n        tag_5:\n          tag_7\n          jump\t// in\n        tag_4:\n          mload(0x40)\n          tag_8\n          swap2\n          swap1\n          tag_9\n          jump\t// in\n        tag_8:\n          mload(0x40)\n          dup1\n          swap2\n          sub\n          swap1\n          return\n        tag_7:\n            /* \"contracts/codeEater/polymorphism.sol\":121:124  int */\n          0x00\n            /* \"contracts/codeEater/polymorphism.sol\":141:143  _b */\n          dup2\n            /* \"contracts/codeEater/polymorphism.sol\":138:140  _a */\n          dup4\n            /* \"contracts/codeEater/polymorphism.sol\":138:143  _a+_b */\n          tag_11\n          swap2\n          swap1\n          tag_12\n          jump\t// in\n        tag_11:\n            /* \"contracts/codeEater/polymorphism.sol\":131:143  return _a+_b */\n          swap1\n          pop\n            /* \"contracts/codeEater/polymorphism.sol\":72:146  function add(int _a, int _b) public pure returns(int){... */\n          swap3\n          swap2\n          pop\n          pop\n          jump\t// out\n            /* \"#utility.yul\":88:205   */\n        tag_14:\n            /* \"#utility.yul\":197:198   */\n          0x00\n            /* \"#utility.yul\":194:195   */\n          dup1\n            /* \"#utility.yul\":187:199   */\n          revert\n            /* \"#utility.yul\":334:410   */\n        tag_16:\n            /* \"#utility.yul\":370:377   */\n          0x00\n            /* \"#utility.yul\":399:404   */\n          dup2\n            /* \"#utility.yul\":388:404   */\n          swap1\n          pop\n            /* \"#utility.yul\":334:410   */\n          swap2\n          swap1\n          pop\n          jump\t// out\n            /* \"#utility.yul\":416:536   */\n        tag_17:\n            /* \"#utility.yul\":488:511   */\n          tag_27\n            /* \"#utility.yul\":505:510   */\n          dup2\n            /* \"#utility.yul\":488:511   */\n          tag_16\n          jump\t// in\n        tag_27:\n            /* \"#utility.yul\":481:486   */\n          dup2\n            /* \"#utility.yul\":478:512   */\n          eq\n            /* \"#utility.yul\":468:530   */\n          tag_28\n          jumpi\n            /* \"#utility.yul\":526:527   */\n          0x00\n            /* \"#utility.yul\":523:524   */\n          dup1\n            /* \"#utility.yul\":516:528   */\n          revert\n            /* \"#utility.yul\":468:530   */\n        tag_28:\n            /* \"#utility.yul\":416:536   */\n          pop\n          jump\t// out\n            /* \"#utility.yul\":542:679   */\n        tag_18:\n            /* \"#utility.yul\":587:592   */\n          0x00\n            /* \"#utility.yul\":625:631   */\n          dup2\n            /* \"#utility.yul\":612:632   */\n          calldataload\n            /* \"#utility.yul\":603:632   */\n          swap1\n          pop\n            /* \"#utility.yul\":641:673   */\n          tag_30\n            /* \"#utility.yul\":667:672   */\n          dup2\n            /* \"#utility.yul\":641:673   */\n          tag_17\n          jump\t// in\n        tag_30:\n            /* \"#utility.yul\":542:679   */\n          swap3\n          swap2\n          pop\n          pop\n          jump\t// out\n            /* \"#utility.yul\":685:1155   */\n        tag_6:\n            /* \"#utility.yul\":751:757   */\n          0x00\n            /* \"#utility.yul\":759:765   */\n          dup1\n            /* \"#utility.yul\":808:810   */\n          0x40\n            /* \"#utility.yul\":796:805   */\n          dup4\n            /* \"#utility.yul\":787:794   */\n          dup6\n            /* \"#utility.yul\":783:806   */\n          sub\n            /* \"#utility.yul\":779:811   */\n          slt\n            /* \"#utility.yul\":776:895   */\n          iszero\n          tag_32\n          jumpi\n            /* \"#utility.yul\":814:893   */\n          tag_33\n          tag_14\n          jump\t// in\n        tag_33:\n            /* \"#utility.yul\":776:895   */\n        tag_32:\n            /* \"#utility.yul\":934:935   */\n          0x00\n            /* \"#utility.yul\":959:1011   */\n          tag_34\n            /* \"#utility.yul\":1003:1010   */\n          dup6\n            /* \"#utility.yul\":994:1000   */\n          dup3\n            /* \"#utility.yul\":983:992   */\n          dup7\n            /* \"#utility.yul\":979:1001   */\n          add\n            /* \"#utility.yul\":959:1011   */\n          tag_18\n          jump\t// in\n        tag_34:\n            /* \"#utility.yul\":949:1011   */\n          swap3\n          pop\n            /* \"#utility.yul\":905:1021   */\n          pop\n            /* \"#utility.yul\":1060:1062   */\n          0x20\n            /* \"#utility.yul\":1086:1138   */\n          tag_35\n            /* \"#utility.yul\":1130:1137   */\n          dup6\n            /* \"#utility.yul\":1121:1127   */\n          dup3\n            /* \"#utility.yul\":1110:1119   */\n          dup7\n            /* \"#utility.yul\":1106:1128   */\n          add\n            /* \"#utility.yul\":1086:1138   */\n          tag_18\n          jump\t// in\n        tag_35:\n            /* \"#utility.yul\":1076:1138   */\n          swap2\n          pop\n            /* \"#utility.yul\":1031:1148   */\n          pop\n            /* \"#utility.yul\":685:1155   */\n          swap3\n          pop\n          swap3\n          swap1\n          pop\n          jump\t// out\n            /* \"#utility.yul\":1161:1276   */\n        tag_19:\n            /* \"#utility.yul\":1246:1269   */\n          tag_37\n            /* \"#utility.yul\":1263:1268   */\n          dup2\n            /* \"#utility.yul\":1246:1269   */\n          tag_16\n          jump\t// in\n        tag_37:\n            /* \"#utility.yul\":1241:1244   */\n          dup3\n            /* \"#utility.yul\":1234:1270   */\n          mstore\n            /* \"#utility.yul\":1161:1276   */\n          pop\n          pop\n          jump\t// out\n            /* \"#utility.yul\":1282:1500   */\n        tag_9:\n            /* \"#utility.yul\":1373:1377   */\n          0x00\n            /* \"#utility.yul\":1411:1413   */\n          0x20\n            /* \"#utility.yul\":1400:1409   */\n          dup3\n            /* \"#utility.yul\":1396:1414   */\n          add\n            /* \"#utility.yul\":1388:1414   */\n          swap1\n          pop\n            /* \"#utility.yul\":1424:1493   */\n          tag_39\n            /* \"#utility.yul\":1490:1491   */\n          0x00\n            /* \"#utility.yul\":1479:1488   */\n          dup4\n            /* \"#utility.yul\":1475:1492   */\n          add\n            /* \"#utility.yul\":1466:1472   */\n          dup5\n            /* \"#utility.yul\":1424:1493   */\n          tag_19\n          jump\t// in\n        tag_39:\n            /* \"#utility.yul\":1282:1500   */\n          swap3\n          swap2\n          pop\n          pop\n          jump\t// out\n            /* \"#utility.yul\":1506:1686   */\n        tag_20:\n            /* \"#utility.yul\":1554:1631   */\n          0x4e487b7100000000000000000000000000000000000000000000000000000000\n            /* \"#utility.yul\":1551:1552   */\n          0x00\n            /* \"#utility.yul\":1544:1632   */\n          mstore\n            /* \"#utility.yul\":1651:1655   */\n          0x11\n            /* \"#utility.yul\":1648:1649   */\n          0x04\n            /* \"#utility.yul\":1641:1656   */\n          mstore\n            /* \"#utility.yul\":1675:1679   */\n          0x24\n            /* \"#utility.yul\":1672:1673   */\n          0x00\n            /* \"#utility.yul\":1665:1680   */\n          revert\n            /* \"#utility.yul\":1692:2067   */\n        tag_12:\n            /* \"#utility.yul\":1731:1734   */\n          0x00\n            /* \"#utility.yul\":1750:1769   */\n          tag_42\n            /* \"#utility.yul\":1767:1768   */\n          dup3\n            /* \"#utility.yul\":1750:1769   */\n          tag_16\n          jump\t// in\n        tag_42:\n            /* \"#utility.yul\":1745:1769   */\n          swap2\n          pop\n            /* \"#utility.yul\":1783:1802   */\n          tag_43\n            /* \"#utility.yul\":1800:1801   */\n          dup4\n            /* \"#utility.yul\":1783:1802   */\n          tag_16\n          jump\t// in\n        tag_43:\n            /* \"#utility.yul\":1778:1802   */\n          swap3\n          pop\n            /* \"#utility.yul\":1825:1826   */\n          dup3\n            /* \"#utility.yul\":1822:1823   */\n          dup3\n            /* \"#utility.yul\":1818:1827   */\n          add\n            /* \"#utility.yul\":1811:1827   */\n          swap1\n          pop\n            /* \"#utility.yul\":2023:2024   */\n          dup3\n            /* \"#utility.yul\":2018:2021   */\n          dup2\n            /* \"#utility.yul\":2014:2025   */\n          slt\n            /* \"#utility.yul\":2007:2026   */\n          iszero\n            /* \"#utility.yul\":2003:2004   */\n          0x00\n            /* \"#utility.yul\":2000:2001   */\n          dup4\n            /* \"#utility.yul\":1996:2005   */\n          slt\n            /* \"#utility.yul\":1992:2027   */\n          and\n            /* \"#utility.yul\":1975:1976   */\n          dup4\n            /* \"#utility.yul\":1970:1973   */\n          dup3\n            /* \"#utility.yul\":1966:1977   */\n          slt\n            /* \"#utility.yul\":1961:1962   */\n          0x00\n            /* \"#utility.yul\":1958:1959   */\n          dup5\n            /* \"#utility.yul\":1954:1963   */\n          slt\n            /* \"#utility.yul\":1947:1964   */\n          iszero\n            /* \"#utility.yul\":1943:1978   */\n          and\n            /* \"#utility.yul\":1927:2037   */\n          or\n            /* \"#utility.yul\":1924:2060   */\n          iszero\n          tag_44\n          jumpi\n            /* \"#utility.yul\":2040:2058   */\n          tag_45\n          tag_20\n          jump\t// in\n        tag_45:\n            /* \"#utility.yul\":1924:2060   */\n        tag_44:\n            /* \"#utility.yul\":1692:2067   */\n          swap3\n          swap2\n          pop\n          pop\n          jump\t// out\n\n        auxdata: 0xa2646970667358221220164558e04a9e6259d87cd167bf7215b3f9060b85ab726d16b38c9c4fd3e1b48164736f6c63430008110033\n    }\n}\n",
				"bytecode": {
					"linkReferences": {},
					"object": "608060405260405161001090610084565b604051809103906000f08015801561002c573d6000803e3d6000fd5b50600360006101000a81548173ffffffffffffffffffffffffffffffffffffffff021916908373ffffffffffffffffffffffffffffffffffffffff160217905550600260045534801561007e57600080fd5b50610091565b6101e4806103b983390190565b610319806100a06000396000f3fe608060405234801561001057600080fd5b50600436106100415760003560e01c80633b0c197e146100465780637cd93b4c14610066578063a5f3c23b14610082575b600080fd5b61004e6100b2565b60405161005d93929190610115565b60405180910390f35b610080600480360381019061007b919061017d565b6100ca565b005b61009c60048036038101906100979190610206565b6100e4565b6040516100a99190610255565b60405180910390f35b60008060008054600154600254925092509250909192565b826000819055508160018190555080600281905550505050565b6000600454836100f4919061029f565b905092915050565b6000819050919050565b61010f816100fc565b82525050565b600060608201905061012a6000830186610106565b6101376020830185610106565b6101446040830184610106565b949350505050565b600080fd5b61015a816100fc565b811461016557600080fd5b50565b60008135905061017781610151565b92915050565b6000806000606084860312156101965761019561014c565b5b60006101a486828701610168565b93505060206101b586828701610168565b92505060406101c686828701610168565b9150509250925092565b6000819050919050565b6101e3816101d0565b81146101ee57600080fd5b50565b600081359050610200816101da565b92915050565b6000806040838503121561021d5761021c61014c565b5b600061022b858286016101f1565b925050602061023c858286016101f1565b9150509250929050565b61024f816101d0565b82525050565b600060208201905061026a6000830184610246565b92915050565b7f4e487b7100000000000000000000000000000000000000000000000000000000600052601160045260246000fd5b60006102aa826101d0565b91506102b5836101d0565b9250828201905082811215600083121683821260008412151617156102dd576102dc610270565b5b9291505056fea26469706673582212209a608b876926ea933557f33f5de7a47ca4e75a73142a9df6940ae144b5e57bba64736f6c63430008110033608060405234801561001057600080fd5b506101c4806100206000396000f3fe608060405234801561001057600080fd5b506004361061002b5760003560e01c8063a5f3c23b14610030575b600080fd5b61004a600480360381019061004591906100b1565b610060565b6040516100579190610100565b60405180910390f35b6000818361006e919061014a565b905092915050565b600080fd5b6000819050919050565b61008e8161007b565b811461009957600080fd5b50565b6000813590506100ab81610085565b92915050565b600080604083850312156100c8576100c7610076565b5b60006100d68582860161009c565b92505060206100e78582860161009c565b9150509250929050565b6100fa8161007b565b82525050565b600060208201905061011560008301846100f1565b92915050565b7f4e487b7100000000000000000000000000000000000000000000000000000000600052601160045260246000fd5b60006101558261007b565b91506101608361007b565b9250828201905082811215600083121683821260008412151617156101885761018761011b565b5b9291505056fea2646970667358221220164558e04a9e6259d87cd167bf7215b3f9060b85ab726d16b38c9c4fd3e1b48164736f6c63430008110033",
					"opcodes": "PUSH1 0x80 PUSH1 0x40 MSTORE PUSH1 0x40 MLOAD PUSH2 0x10 SWAP1 PUSH2 0x84 JUMP JUMPDEST PUSH1 0x40 MLOAD DUP1 SWAP2 SUB SWAP1 PUSH1 0x0 CREATE DUP1 ISZERO DUP1 ISZERO PUSH2 0x2C JUMPI RETURNDATASIZE PUSH1 0x0 DUP1 RETURNDATACOPY RETURNDATASIZE PUSH1 0x0 REVERT JUMPDEST POP PUSH1 0x3 PUSH1 0x0 PUSH2 0x100 EXP DUP2 SLOAD DUP2 PUSH20 0xFFFFFFFFFFFFFFFFFFFFFFFFFFFFFFFFFFFFFFFF MUL NOT AND SWAP1 DUP4 PUSH20 0xFFFFFFFFFFFFFFFFFFFFFFFFFFFFFFFFFFFFFFFF AND MUL OR SWAP1 SSTORE POP PUSH1 0x2 PUSH1 0x4 SSTORE CALLVALUE DUP1 ISZERO PUSH2 0x7E JUMPI PUSH1 0x0 DUP1 REVERT JUMPDEST POP PUSH2 0x91 JUMP JUMPDEST PUSH2 0x1E4 DUP1 PUSH2 0x3B9 DUP4 CODECOPY ADD SWAP1 JUMP JUMPDEST PUSH2 0x319 DUP1 PUSH2 0xA0 PUSH1 0x0 CODECOPY PUSH1 0x0 RETURN INVALID PUSH1 0x80 PUSH1 0x40 MSTORE CALLVALUE DUP1 ISZERO PUSH2 0x10 JUMPI PUSH1 0x0 DUP1 REVERT JUMPDEST POP PUSH1 0x4 CALLDATASIZE LT PUSH2 0x41 JUMPI PUSH1 0x0 CALLDATALOAD PUSH1 0xE0 SHR DUP1 PUSH4 0x3B0C197E EQ PUSH2 0x46 JUMPI DUP1 PUSH4 0x7CD93B4C EQ PUSH2 0x66 JUMPI DUP1 PUSH4 0xA5F3C23B EQ PUSH2 0x82 JUMPI JUMPDEST PUSH1 0x0 DUP1 REVERT JUMPDEST PUSH2 0x4E PUSH2 0xB2 JUMP JUMPDEST PUSH1 0x40 MLOAD PUSH2 0x5D SWAP4 SWAP3 SWAP2 SWAP1 PUSH2 0x115 JUMP JUMPDEST PUSH1 0x40 MLOAD DUP1 SWAP2 SUB SWAP1 RETURN JUMPDEST PUSH2 0x80 PUSH1 0x4 DUP1 CALLDATASIZE SUB DUP2 ADD SWAP1 PUSH2 0x7B SWAP2 SWAP1 PUSH2 0x17D JUMP JUMPDEST PUSH2 0xCA JUMP JUMPDEST STOP JUMPDEST PUSH2 0x9C PUSH1 0x4 DUP1 CALLDATASIZE SUB DUP2 ADD SWAP1 PUSH2 0x97 SWAP2 SWAP1 PUSH2 0x206 JUMP JUMPDEST PUSH2 0xE4 JUMP JUMPDEST PUSH1 0x40 MLOAD PUSH2 0xA9 SWAP2 SWAP1 PUSH2 0x255 JUMP JUMPDEST PUSH1 0x40 MLOAD DUP1 SWAP2 SUB SWAP1 RETURN JUMPDEST PUSH1 0x0 DUP1 PUSH1 0x0 DUP1 SLOAD PUSH1 0x1 SLOAD PUSH1 0x2 SLOAD SWAP3 POP SWAP3 POP SWAP3 POP SWAP1 SWAP2 SWAP3 JUMP JUMPDEST DUP3 PUSH1 0x0 DUP2 SWAP1 SSTORE POP DUP2 PUSH1 0x1 DUP2 SWAP1 SSTORE POP DUP1 PUSH1 0x2 DUP2 SWAP1 SSTORE POP POP POP POP JUMP JUMPDEST PUSH1 0x0 PUSH1 0x4 SLOAD DUP4 PUSH2 0xF4 SWAP2 SWAP1 PUSH2 0x29F JUMP JUMPDEST SWAP1 POP SWAP3 SWAP2 POP POP JUMP JUMPDEST PUSH1 0x0 DUP2 SWAP1 POP SWAP2 SWAP1 POP JUMP JUMPDEST PUSH2 0x10F DUP2 PUSH2 0xFC JUMP JUMPDEST DUP3 MSTORE POP POP JUMP JUMPDEST PUSH1 0x0 PUSH1 0x60 DUP3 ADD SWAP1 POP PUSH2 0x12A PUSH1 0x0 DUP4 ADD DUP7 PUSH2 0x106 JUMP JUMPDEST PUSH2 0x137 PUSH1 0x20 DUP4 ADD DUP6 PUSH2 0x106 JUMP JUMPDEST PUSH2 0x144 PUSH1 0x40 DUP4 ADD DUP5 PUSH2 0x106 JUMP JUMPDEST SWAP5 SWAP4 POP POP POP POP JUMP JUMPDEST PUSH1 0x0 DUP1 REVERT JUMPDEST PUSH2 0x15A DUP2 PUSH2 0xFC JUMP JUMPDEST DUP2 EQ PUSH2 0x165 JUMPI PUSH1 0x0 DUP1 REVERT JUMPDEST POP JUMP JUMPDEST PUSH1 0x0 DUP2 CALLDATALOAD SWAP1 POP PUSH2 0x177 DUP2 PUSH2 0x151 JUMP JUMPDEST SWAP3 SWAP2 POP POP JUMP JUMPDEST PUSH1 0x0 DUP1 PUSH1 0x0 PUSH1 0x60 DUP5 DUP7 SUB SLT ISZERO PUSH2 0x196 JUMPI PUSH2 0x195 PUSH2 0x14C JUMP JUMPDEST JUMPDEST PUSH1 0x0 PUSH2 0x1A4 DUP7 DUP3 DUP8 ADD PUSH2 0x168 JUMP JUMPDEST SWAP4 POP POP PUSH1 0x20 PUSH2 0x1B5 DUP7 DUP3 DUP8 ADD PUSH2 0x168 JUMP JUMPDEST SWAP3 POP POP PUSH1 0x40 PUSH2 0x1C6 DUP7 DUP3 DUP8 ADD PUSH2 0x168 JUMP JUMPDEST SWAP2 POP POP SWAP3 POP SWAP3 POP SWAP3 JUMP JUMPDEST PUSH1 0x0 DUP2 SWAP1 POP SWAP2 SWAP1 POP JUMP JUMPDEST PUSH2 0x1E3 DUP2 PUSH2 0x1D0 JUMP JUMPDEST DUP2 EQ PUSH2 0x1EE JUMPI PUSH1 0x0 DUP1 REVERT JUMPDEST POP JUMP JUMPDEST PUSH1 0x0 DUP2 CALLDATALOAD SWAP1 POP PUSH2 0x200 DUP2 PUSH2 0x1DA JUMP JUMPDEST SWAP3 SWAP2 POP POP JUMP JUMPDEST PUSH1 0x0 DUP1 PUSH1 0x40 DUP4 DUP6 SUB SLT ISZERO PUSH2 0x21D JUMPI PUSH2 0x21C PUSH2 0x14C JUMP JUMPDEST JUMPDEST PUSH1 0x0 PUSH2 0x22B DUP6 DUP3 DUP7 ADD PUSH2 0x1F1 JUMP JUMPDEST SWAP3 POP POP PUSH1 0x20 PUSH2 0x23C DUP6 DUP3 DUP7 ADD PUSH2 0x1F1 JUMP JUMPDEST SWAP2 POP POP SWAP3 POP SWAP3 SWAP1 POP JUMP JUMPDEST PUSH2 0x24F DUP2 PUSH2 0x1D0 JUMP JUMPDEST DUP3 MSTORE POP POP JUMP JUMPDEST PUSH1 0x0 PUSH1 0x20 DUP3 ADD SWAP1 POP PUSH2 0x26A PUSH1 0x0 DUP4 ADD DUP5 PUSH2 0x246 JUMP JUMPDEST SWAP3 SWAP2 POP POP JUMP JUMPDEST PUSH32 0x4E487B7100000000000000000000000000000000000000000000000000000000 PUSH1 0x0 MSTORE PUSH1 0x11 PUSH1 0x4 MSTORE PUSH1 0x24 PUSH1 0x0 REVERT JUMPDEST PUSH1 0x0 PUSH2 0x2AA DUP3 PUSH2 0x1D0 JUMP JUMPDEST SWAP2 POP PUSH2 0x2B5 DUP4 PUSH2 0x1D0 JUMP JUMPDEST SWAP3 POP DUP3 DUP3 ADD SWAP1 POP DUP3 DUP2 SLT ISZERO PUSH1 0x0 DUP4 SLT AND DUP4 DUP3 SLT PUSH1 0x0 DUP5 SLT ISZERO AND OR ISZERO PUSH2 0x2DD JUMPI PUSH2 0x2DC PUSH2 0x270 JUMP JUMPDEST JUMPDEST SWAP3 SWAP2 POP POP JUMP INVALID LOG2 PUSH5 0x6970667358 0x22 SLT KECCAK256 SWAP11 PUSH1 0x8B DUP8 PUSH10 0x26EA933557F33F5DE7A4 PUSH29 0xA4E75A73142A9DF6940AE144B5E57BBA64736F6C634300081100336080 PUSH1 0x40 MSTORE CALLVALUE DUP1 ISZERO PUSH2 0x10 JUMPI PUSH1 0x0 DUP1 REVERT JUMPDEST POP PUSH2 0x1C4 DUP1 PUSH2 0x20 PUSH1 0x0 CODECOPY PUSH1 0x0 RETURN INVALID PUSH1 0x80 PUSH1 0x40 MSTORE CALLVALUE DUP1 ISZERO PUSH2 0x10 JUMPI PUSH1 0x0 DUP1 REVERT JUMPDEST POP PUSH1 0x4 CALLDATASIZE LT PUSH2 0x2B JUMPI PUSH1 0x0 CALLDATALOAD PUSH1 0xE0 SHR DUP1 PUSH4 0xA5F3C23B EQ PUSH2 0x30 JUMPI JUMPDEST PUSH1 0x0 DUP1 REVERT JUMPDEST PUSH2 0x4A PUSH1 0x4 DUP1 CALLDATASIZE SUB DUP2 ADD SWAP1 PUSH2 0x45 SWAP2 SWAP1 PUSH2 0xB1 JUMP JUMPDEST PUSH2 0x60 JUMP JUMPDEST PUSH1 0x40 MLOAD PUSH2 0x57 SWAP2 SWAP1 PUSH2 0x100 JUMP JUMPDEST PUSH1 0x40 MLOAD DUP1 SWAP2 SUB SWAP1 RETURN JUMPDEST PUSH1 0x0 DUP2 DUP4 PUSH2 0x6E SWAP2 SWAP1 PUSH2 0x14A JUMP JUMPDEST SWAP1 POP SWAP3 SWAP2 POP POP JUMP JUMPDEST PUSH1 0x0 DUP1 REVERT JUMPDEST PUSH1 0x0 DUP2 SWAP1 POP SWAP2 SWAP1 POP JUMP JUMPDEST PUSH2 0x8E DUP2 PUSH2 0x7B JUMP JUMPDEST DUP2 EQ PUSH2 0x99 JUMPI PUSH1 0x0 DUP1 REVERT JUMPDEST POP JUMP JUMPDEST PUSH1 0x0 DUP2 CALLDATALOAD SWAP1 POP PUSH2 0xAB DUP2 PUSH2 0x85 JUMP JUMPDEST SWAP3 SWAP2 POP POP JUMP JUMPDEST PUSH1 0x0 DUP1 PUSH1 0x40 DUP4 DUP6 SUB SLT ISZERO PUSH2 0xC8 JUMPI PUSH2 0xC7 PUSH2 0x76 JUMP JUMPDEST JUMPDEST PUSH1 0x0 PUSH2 0xD6 DUP6 DUP3 DUP7 ADD PUSH2 0x9C JUMP JUMPDEST SWAP3 POP POP PUSH1 0x20 PUSH2 0xE7 DUP6 DUP3 DUP7 ADD PUSH2 0x9C JUMP JUMPDEST SWAP2 POP POP SWAP3 POP SWAP3 SWAP1 POP JUMP JUMPDEST PUSH2 0xFA DUP2 PUSH2 0x7B JUMP JUMPDEST DUP3 MSTORE POP POP JUMP JUMPDEST PUSH1 0x0 PUSH1 0x20 DUP3 ADD SWAP1 POP PUSH2 0x115 PUSH1 0x0 DUP4 ADD DUP5 PUSH2 0xF1 JUMP JUMPDEST SWAP3 SWAP2 POP POP JUMP JUMPDEST PUSH32 0x4E487B7100000000000000000000000000000000000000000000000000000000 PUSH1 0x0 MSTORE PUSH1 0x11 PUSH1 0x4 MSTORE PUSH1 0x24 PUSH1 0x0 REVERT JUMPDEST PUSH1 0x0 PUSH2 0x155 DUP3 PUSH2 0x7B JUMP JUMPDEST SWAP2 POP PUSH2 0x160 DUP4 PUSH2 0x7B JUMP JUMPDEST SWAP3 POP DUP3 DUP3 ADD SWAP1 POP DUP3 DUP2 SLT ISZERO PUSH1 0x0 DUP4 SLT AND DUP4 DUP3 SLT PUSH1 0x0 DUP5 SLT ISZERO AND OR ISZERO PUSH2 0x188 JUMPI PUSH2 0x187 PUSH2 0x11B JUMP JUMPDEST JUMPDEST SWAP3 SWAP2 POP POP JUMP INVALID LOG2 PUSH5 0x6970667358 0x22 SLT KECCAK256 AND GASLIMIT PC 0xE0 0x4A SWAP15 PUSH3 0x59D87C 0xD1 PUSH8 0xBF7215B3F9060B85 0xAB PUSH19 0x6D16B38C9C4FD3E1B48164736F6C6343000811 STOP CALLER "
				},
				"gasEstimates": {
					"creation": {
						"codeDepositCost": "158600",
						"executionCost": "infinite",
						"totalCost": "infinite"
					},
					"external": {
						"add(int256,int256)": "infinite",
						"getBook()": "infinite",
						"setBook(uint256,uint256,uint256)": "infinite"
					}
				},
				"methodIdentifiers": {
					"add(int256,int256)": "a5f3c23b",
					"getBook()": "3b0c197e",
					"setBook(uint256,uint256,uint256)": "7cd93b4c"
				}
			},
			"storageLayout": {
				"storage": [
					{
						"astId": 4,
						"contract": "contracts/codeEater/class.sol:Child",
						"label": "length",
						"offset": 0,
						"slot": "0",
						"type": "t_uint256"
					},
					{
						"astId": 6,
						"contract": "contracts/codeEater/class.sol:Child",
						"label": "breath",
						"offset": 0,
						"slot": "1",
						"type": "t_uint256"
					},
					{
						"astId": 8,
						"contract": "contracts/codeEater/class.sol:Child",
						"label": "height",
						"offset": 0,
						"slot": "2",
						"type": "t_uint256"
					},
					{
						"astId": 15,
						"contract": "contracts/codeEater/class.sol:Child",
						"label": "obj",
						"offset": 0,
						"slot": "3",
						"type": "t_contract(Poly)101"
					},
					{
						"astId": 67,
						"contract": "contracts/codeEater/class.sol:Child",
						"label": "aa",
						"offset": 0,
						"slot": "4",
						"type": "t_int256"
					}
				],
				"types": {
					"t_contract(Poly)101": {
						"encoding": "inplace",
						"label": "contract Poly",
						"numberOfBytes": "20"
					},
					"t_int256": {
						"encoding": "inplace",
						"label": "int256",
						"numberOfBytes": "32"
					},
					"t_uint256": {
						"encoding": "inplace",
						"label": "uint256",
						"numberOfBytes": "32"
					}
				}
			},
			"userdoc": {
				"kind": "user",
				"methods": {},
				"version": 1
			}
		}
	}
}