{
	"data": {
		"bytecode": {
			"linkReferences": {},
			"object": "608060405234801561001057600080fd5b5061115d806100206000396000f3fe608060405234801561001057600080fd5b50600436106100ea5760003560e01c80639e098fc11161008c578063d9ea8e6411610066578063d9ea8e6414610297578063f26c79ef146102c7578063f492c000146102e3578063f4bf03c714610313576100ea565b80639e098fc114610219578063b413372114610249578063cdab780714610267576100ea565b806383714834116100c8578063837148341461015957806383d3705e146101895780638ce32d21146101b957806392cc2841146101e9576100ea565b806346439726146100ef5780634f4752ba1461011f5780638119c0651461014f575b600080fd5b61010960048036038101906101049190610937565b610343565b60405161011691906109f4565b60405180910390f35b61013960048036038101906101349190610a4c565b6103d4565b6040516101469190610a9b565b60405180910390f35b6101576103ea565b005b610173600480360381019061016e9190610ab6565b610404565b6040516101809190610a9b565b60405180910390f35b6101a3600480360381019061019e9190610ab6565b610457565b6040516101b09190610a9b565b60405180910390f35b6101d360048036038101906101ce9190610ab6565b610537565b6040516101e09190610a9b565b60405180910390f35b61020360048036038101906101fe9190610ae3565b610586565b6040516102109190610a9b565b60405180910390f35b610233600480360381019061022e9190610ab6565b6105b4565b6040516102409190610a9b565b60405180910390f35b61025161060f565b60405161025e9190610a9b565b60405180910390f35b610281600480360381019061027c9190610ab6565b610742565b60405161028e9190610a9b565b60405180910390f35b6102b160048036038101906102ac9190610b36565b6107b0565b6040516102be9190610b98565b60405180910390f35b6102e160048036038101906102dc9190610ab6565b6107dd565b005b6102fd60048036038101906102f89190610937565b61089b565b60405161030a9190610b98565b60405180910390f35b61032d60048036038101906103289190610ab6565b6108e6565b60405161033a9190610a9b565b60405180910390f35b606060006002836103549190610be2565b03610396576040518060400160405280600481526020017f6576656e0000000000000000000000000000000000000000000000000000000081525090506103cf565b6040518060400160405280600381526020017f6f6464000000000000000000000000000000000000000000000000000000000081525090505b919050565b600081836103e29190610d75565b905092915050565b600060019050600060029050808280925081935050505050565b6000808290506000600190505b6000821461044d576000600a836104289190610dc0565b905080826104369190610df1565b9150600a836104459190610e33565b925050610411565b8092505050919050565b6000808290506000805b6000831461048b57818061047490610e64565b925050600a836104849190610e33565b9250610461565b600082036104ce576040517f08c379a00000000000000000000000000000000000000000000000000000000081526004016104c590610ef8565b60405180910390fd5b8492505b60008314610519576000600a846104e99190610dc0565b905082816104f79190610d75565b826105029190610f18565b9150600a846105119190610e33565b9350506104d2565b80851461052757600061052a565b60015b60ff169350505050919050565b60008082905060005b6000821461057c576000600a836105579190610dc0565b905080826105659190610f18565b9150600a836105749190610e33565b925050610540565b8092505050919050565b600060038284866105979190610f18565b6105a19190610f18565b6105ab9190610e33565b90509392505050565b60008060008390505b60008114610605576000600a826105d49190610dc0565b905080600a846105e49190610df1565b6105ee9190610f18565b9250600a826105fd9190610e33565b9150506105bd565b8192505050919050565b600080600090505b6002600060405161062790610fa3565b9081526020016040518091039020805490506106439190610fb8565b81101561073957600060405161065890610fa3565b90815260200160405180910390206002826106739190610f18565b8154811061068457610683610fec565b5b9060005260206000200154600060405161069d90610fa3565b90815260200160405180910390206001836106b89190610f18565b815481106106c9576106c8610fec565b5b90600052602060002001546106de9190610f18565b60006040516106ec90610fa3565b9081526020016040518091039020828154811061070c5761070b610fec565b5b90600052602060002001541461072657600091505061073f565b808061073190610e64565b915050610617565b50600190505b90565b60008082905060005b60008214610793576000600a836107629190610dc0565b905080600a836107729190610df1565b61077c9190610f18565b9150600a8361078b9190610e33565b92505061074b565b8381146107a15760006107a4565b60015b60ff1692505050919050565b6000808385136107c057836107c2565b845b90508281136107d157826107d3565b805b9150509392505050565b60008103610820576040517f08c379a000000000000000000000000000000000000000000000000000000000815260040161081790611067565b60405180910390fd5b60008190505b60008114610897576000600a8261083d9190610dc0565b9050600060405161084d90610fa3565b9081526020016040518091039020819080600181540180825580915050600190039060005260206000200160009091909190915055600a8261088f9190610e33565b915050610826565b5050565b600080600290505b828112156108db57600081846108b99190610be2565b036108c85760009150506108e1565b80806108d390611087565b9150506108a3565b50600190505b919050565b60006002826108f591906110dc565b9050919050565b600080fd5b6000819050919050565b61091481610901565b811461091f57600080fd5b50565b6000813590506109318161090b565b92915050565b60006020828403121561094d5761094c6108fc565b5b600061095b84828501610922565b91505092915050565b600081519050919050565b600082825260208201905092915050565b60005b8381101561099e578082015181840152602081019050610983565b60008484015250505050565b6000601f19601f8301169050919050565b60006109c682610964565b6109d0818561096f565b93506109e0818560208601610980565b6109e9816109aa565b840191505092915050565b60006020820190508181036000830152610a0e81846109bb565b905092915050565b6000819050919050565b610a2981610a16565b8114610a3457600080fd5b50565b600081359050610a4681610a20565b92915050565b60008060408385031215610a6357610a626108fc565b5b6000610a7185828601610a37565b9250506020610a8285828601610a37565b9150509250929050565b610a9581610a16565b82525050565b6000602082019050610ab06000830184610a8c565b92915050565b600060208284031215610acc57610acb6108fc565b5b6000610ada84828501610a37565b91505092915050565b600080600060608486031215610afc57610afb6108fc565b5b6000610b0a86828701610a37565b9350506020610b1b86828701610a37565b9250506040610b2c86828701610a37565b9150509250925092565b600080600060608486031215610b4f57610b4e6108fc565b5b6000610b5d86828701610922565b9350506020610b6e86828701610922565b9250506040610b7f86828701610922565b9150509250925092565b610b9281610901565b82525050565b6000602082019050610bad6000830184610b89565b92915050565b7f4e487b7100000000000000000000000000000000000000000000000000000000600052601260045260246000fd5b6000610bed82610901565b9150610bf883610901565b925082610c0857610c07610bb3565b5b828207905092915050565b7f4e487b7100000000000000000000000000000000000000000000000000000000600052601160045260246000fd5b60008160011c9050919050565b6000808291508390505b6001851115610c9957808604811115610c7557610c74610c13565b5b6001851615610c845780820291505b8081029050610c9285610c42565b9450610c59565b94509492505050565b600082610cb25760019050610d6e565b81610cc05760009050610d6e565b8160018114610cd65760028114610ce057610d0f565b6001915050610d6e565b60ff841115610cf257610cf1610c13565b5b8360020a915084821115610d0957610d08610c13565b5b50610d6e565b5060208310610133831016604e8410600b8410161715610d445782820a905083811115610d3f57610d3e610c13565b5b610d6e565b610d518484846001610c4f565b92509050818404811115610d6857610d67610c13565b5b81810290505b9392505050565b6000610d8082610a16565b9150610d8b83610a16565b9250610db87fffffffffffffffffffffffffffffffffffffffffffffffffffffffffffffffff8484610ca2565b905092915050565b6000610dcb82610a16565b9150610dd683610a16565b925082610de657610de5610bb3565b5b828206905092915050565b6000610dfc82610a16565b9150610e0783610a16565b9250828202610e1581610a16565b91508282048414831517610e2c57610e2b610c13565b5b5092915050565b6000610e3e82610a16565b9150610e4983610a16565b925082610e5957610e58610bb3565b5b828204905092915050565b6000610e6f82610a16565b91507fffffffffffffffffffffffffffffffffffffffffffffffffffffffffffffffff8203610ea157610ea0610c13565b5b600182019050919050565b7f6e6f7420612076616c6964206e756d6265720000000000000000000000000000600082015250565b6000610ee260128361096f565b9150610eed82610eac565b602082019050919050565b60006020820190508181036000830152610f1181610ed5565b9050919050565b6000610f2382610a16565b9150610f2e83610a16565b9250828201905080821115610f4657610f45610c13565b5b92915050565b600081905092915050565b7f6e756d4172720000000000000000000000000000000000000000000000000000600082015250565b6000610f8d600683610f4c565b9150610f9882610f57565b600682019050919050565b6000610fae82610f80565b9150819050919050565b6000610fc382610a16565b9150610fce83610a16565b9250828203905081811115610fe657610fe5610c13565b5b92915050565b7f4e487b7100000000000000000000000000000000000000000000000000000000600052603260045260246000fd5b7f6e6f7420412076616c6964206e756d6265720000000000000000000000000000600082015250565b600061105160128361096f565b915061105c8261101b565b602082019050919050565b6000602082019050818103600083015261108081611044565b9050919050565b600061109282610901565b91507f7fffffffffffffffffffffffffffffffffffffffffffffffffffffffffffffff82036110c4576110c3610c13565b5b600182019050919050565b600060ff82169050919050565b60006110e782610a16565b91506110f2836110cf565b925061111f7fffffffffffffffffffffffffffffffffffffffffffffffffffffffffffffffff8484610ca2565b90509291505056fea2646970667358221220ea1fecd84eb2b8b8a2049f0e99e9cdc8d5065ae7a8ff6346c9b1b31734255c6964736f6c63430008110033",
			"opcodes": "PUSH1 0x80 PUSH1 0x40 MSTORE CALLVALUE DUP1 ISZERO PUSH2 0x10 JUMPI PUSH1 0x0 DUP1 REVERT JUMPDEST POP PUSH2 0x115D DUP1 PUSH2 0x20 PUSH1 0x0 CODECOPY PUSH1 0x0 RETURN INVALID PUSH1 0x80 PUSH1 0x40 MSTORE CALLVALUE DUP1 ISZERO PUSH2 0x10 JUMPI PUSH1 0x0 DUP1 REVERT JUMPDEST POP PUSH1 0x4 CALLDATASIZE LT PUSH2 0xEA JUMPI PUSH1 0x0 CALLDATALOAD PUSH1 0xE0 SHR DUP1 PUSH4 0x9E098FC1 GT PUSH2 0x8C JUMPI DUP1 PUSH4 0xD9EA8E64 GT PUSH2 0x66 JUMPI DUP1 PUSH4 0xD9EA8E64 EQ PUSH2 0x297 JUMPI DUP1 PUSH4 0xF26C79EF EQ PUSH2 0x2C7 JUMPI DUP1 PUSH4 0xF492C000 EQ PUSH2 0x2E3 JUMPI DUP1 PUSH4 0xF4BF03C7 EQ PUSH2 0x313 JUMPI PUSH2 0xEA JUMP JUMPDEST DUP1 PUSH4 0x9E098FC1 EQ PUSH2 0x219 JUMPI DUP1 PUSH4 0xB4133721 EQ PUSH2 0x249 JUMPI DUP1 PUSH4 0xCDAB7807 EQ PUSH2 0x267 JUMPI PUSH2 0xEA JUMP JUMPDEST DUP1 PUSH4 0x83714834 GT PUSH2 0xC8 JUMPI DUP1 PUSH4 0x83714834 EQ PUSH2 0x159 JUMPI DUP1 PUSH4 0x83D3705E EQ PUSH2 0x189 JUMPI DUP1 PUSH4 0x8CE32D21 EQ PUSH2 0x1B9 JUMPI DUP1 PUSH4 0x92CC2841 EQ PUSH2 0x1E9 JUMPI PUSH2 0xEA JUMP JUMPDEST DUP1 PUSH4 0x46439726 EQ PUSH2 0xEF JUMPI DUP1 PUSH4 0x4F4752BA EQ PUSH2 0x11F JUMPI DUP1 PUSH4 0x8119C065 EQ PUSH2 0x14F JUMPI JUMPDEST PUSH1 0x0 DUP1 REVERT JUMPDEST PUSH2 0x109 PUSH1 0x4 DUP1 CALLDATASIZE SUB DUP2 ADD SWAP1 PUSH2 0x104 SWAP2 SWAP1 PUSH2 0x937 JUMP JUMPDEST PUSH2 0x343 JUMP JUMPDEST PUSH1 0x40 MLOAD PUSH2 0x116 SWAP2 SWAP1 PUSH2 0x9F4 JUMP JUMPDEST PUSH1 0x40 MLOAD DUP1 SWAP2 SUB SWAP1 RETURN JUMPDEST PUSH2 0x139 PUSH1 0x4 DUP1 CALLDATASIZE SUB DUP2 ADD SWAP1 PUSH2 0x134 SWAP2 SWAP1 PUSH2 0xA4C JUMP JUMPDEST PUSH2 0x3D4 JUMP JUMPDEST PUSH1 0x40 MLOAD PUSH2 0x146 SWAP2 SWAP1 PUSH2 0xA9B JUMP JUMPDEST PUSH1 0x40 MLOAD DUP1 SWAP2 SUB SWAP1 RETURN JUMPDEST PUSH2 0x157 PUSH2 0x3EA JUMP JUMPDEST STOP JUMPDEST PUSH2 0x173 PUSH1 0x4 DUP1 CALLDATASIZE SUB DUP2 ADD SWAP1 PUSH2 0x16E SWAP2 SWAP1 PUSH2 0xAB6 JUMP JUMPDEST PUSH2 0x404 JUMP JUMPDEST PUSH1 0x40 MLOAD PUSH2 0x180 SWAP2 SWAP1 PUSH2 0xA9B JUMP JUMPDEST PUSH1 0x40 MLOAD DUP1 SWAP2 SUB SWAP1 RETURN JUMPDEST PUSH2 0x1A3 PUSH1 0x4 DUP1 CALLDATASIZE SUB DUP2 ADD SWAP1 PUSH2 0x19E SWAP2 SWAP1 PUSH2 0xAB6 JUMP JUMPDEST PUSH2 0x457 JUMP JUMPDEST PUSH1 0x40 MLOAD PUSH2 0x1B0 SWAP2 SWAP1 PUSH2 0xA9B JUMP JUMPDEST PUSH1 0x40 MLOAD DUP1 SWAP2 SUB SWAP1 RETURN JUMPDEST PUSH2 0x1D3 PUSH1 0x4 DUP1 CALLDATASIZE SUB DUP2 ADD SWAP1 PUSH2 0x1CE SWAP2 SWAP1 PUSH2 0xAB6 JUMP JUMPDEST PUSH2 0x537 JUMP JUMPDEST PUSH1 0x40 MLOAD PUSH2 0x1E0 SWAP2 SWAP1 PUSH2 0xA9B JUMP JUMPDEST PUSH1 0x40 MLOAD DUP1 SWAP2 SUB SWAP1 RETURN JUMPDEST PUSH2 0x203 PUSH1 0x4 DUP1 CALLDATASIZE SUB DUP2 ADD SWAP1 PUSH2 0x1FE SWAP2 SWAP1 PUSH2 0xAE3 JUMP JUMPDEST PUSH2 0x586 JUMP JUMPDEST PUSH1 0x40 MLOAD PUSH2 0x210 SWAP2 SWAP1 PUSH2 0xA9B JUMP JUMPDEST PUSH1 0x40 MLOAD DUP1 SWAP2 SUB SWAP1 RETURN JUMPDEST PUSH2 0x233 PUSH1 0x4 DUP1 CALLDATASIZE SUB DUP2 ADD SWAP1 PUSH2 0x22E SWAP2 SWAP1 PUSH2 0xAB6 JUMP JUMPDEST PUSH2 0x5B4 JUMP JUMPDEST PUSH1 0x40 MLOAD PUSH2 0x240 SWAP2 SWAP1 PUSH2 0xA9B JUMP JUMPDEST PUSH1 0x40 MLOAD DUP1 SWAP2 SUB SWAP1 RETURN JUMPDEST PUSH2 0x251 PUSH2 0x60F JUMP JUMPDEST PUSH1 0x40 MLOAD PUSH2 0x25E SWAP2 SWAP1 PUSH2 0xA9B JUMP JUMPDEST PUSH1 0x40 MLOAD DUP1 SWAP2 SUB SWAP1 RETURN JUMPDEST PUSH2 0x281 PUSH1 0x4 DUP1 CALLDATASIZE SUB DUP2 ADD SWAP1 PUSH2 0x27C SWAP2 SWAP1 PUSH2 0xAB6 JUMP JUMPDEST PUSH2 0x742 JUMP JUMPDEST PUSH1 0x40 MLOAD PUSH2 0x28E SWAP2 SWAP1 PUSH2 0xA9B JUMP JUMPDEST PUSH1 0x40 MLOAD DUP1 SWAP2 SUB SWAP1 RETURN JUMPDEST PUSH2 0x2B1 PUSH1 0x4 DUP1 CALLDATASIZE SUB DUP2 ADD SWAP1 PUSH2 0x2AC SWAP2 SWAP1 PUSH2 0xB36 JUMP JUMPDEST PUSH2 0x7B0 JUMP JUMPDEST PUSH1 0x40 MLOAD PUSH2 0x2BE SWAP2 SWAP1 PUSH2 0xB98 JUMP JUMPDEST PUSH1 0x40 MLOAD DUP1 SWAP2 SUB SWAP1 RETURN JUMPDEST PUSH2 0x2E1 PUSH1 0x4 DUP1 CALLDATASIZE SUB DUP2 ADD SWAP1 PUSH2 0x2DC SWAP2 SWAP1 PUSH2 0xAB6 JUMP JUMPDEST PUSH2 0x7DD JUMP JUMPDEST STOP JUMPDEST PUSH2 0x2FD PUSH1 0x4 DUP1 CALLDATASIZE SUB DUP2 ADD SWAP1 PUSH2 0x2F8 SWAP2 SWAP1 PUSH2 0x937 JUMP JUMPDEST PUSH2 0x89B JUMP JUMPDEST PUSH1 0x40 MLOAD PUSH2 0x30A SWAP2 SWAP1 PUSH2 0xB98 JUMP JUMPDEST PUSH1 0x40 MLOAD DUP1 SWAP2 SUB SWAP1 RETURN JUMPDEST PUSH2 0x32D PUSH1 0x4 DUP1 CALLDATASIZE SUB DUP2 ADD SWAP1 PUSH2 0x328 SWAP2 SWAP1 PUSH2 0xAB6 JUMP JUMPDEST PUSH2 0x8E6 JUMP JUMPDEST PUSH1 0x40 MLOAD PUSH2 0x33A SWAP2 SWAP1 PUSH2 0xA9B JUMP JUMPDEST PUSH1 0x40 MLOAD DUP1 SWAP2 SUB SWAP1 RETURN JUMPDEST PUSH1 0x60 PUSH1 0x0 PUSH1 0x2 DUP4 PUSH2 0x354 SWAP2 SWAP1 PUSH2 0xBE2 JUMP JUMPDEST SUB PUSH2 0x396 JUMPI PUSH1 0x40 MLOAD DUP1 PUSH1 0x40 ADD PUSH1 0x40 MSTORE DUP1 PUSH1 0x4 DUP2 MSTORE PUSH1 0x20 ADD PUSH32 0x6576656E00000000000000000000000000000000000000000000000000000000 DUP2 MSTORE POP SWAP1 POP PUSH2 0x3CF JUMP JUMPDEST PUSH1 0x40 MLOAD DUP1 PUSH1 0x40 ADD PUSH1 0x40 MSTORE DUP1 PUSH1 0x3 DUP2 MSTORE PUSH1 0x20 ADD PUSH32 0x6F64640000000000000000000000000000000000000000000000000000000000 DUP2 MSTORE POP SWAP1 POP JUMPDEST SWAP2 SWAP1 POP JUMP JUMPDEST PUSH1 0x0 DUP2 DUP4 PUSH2 0x3E2 SWAP2 SWAP1 PUSH2 0xD75 JUMP JUMPDEST SWAP1 POP SWAP3 SWAP2 POP POP JUMP JUMPDEST PUSH1 0x0 PUSH1 0x1 SWAP1 POP PUSH1 0x0 PUSH1 0x2 SWAP1 POP DUP1 DUP3 DUP1 SWAP3 POP DUP2 SWAP4 POP POP POP POP POP JUMP JUMPDEST PUSH1 0x0 DUP1 DUP3 SWAP1 POP PUSH1 0x0 PUSH1 0x1 SWAP1 POP JUMPDEST PUSH1 0x0 DUP3 EQ PUSH2 0x44D JUMPI PUSH1 0x0 PUSH1 0xA DUP4 PUSH2 0x428 SWAP2 SWAP1 PUSH2 0xDC0 JUMP JUMPDEST SWAP1 POP DUP1 DUP3 PUSH2 0x436 SWAP2 SWAP1 PUSH2 0xDF1 JUMP JUMPDEST SWAP2 POP PUSH1 0xA DUP4 PUSH2 0x445 SWAP2 SWAP1 PUSH2 0xE33 JUMP JUMPDEST SWAP3 POP POP PUSH2 0x411 JUMP JUMPDEST DUP1 SWAP3 POP POP POP SWAP2 SWAP1 POP JUMP JUMPDEST PUSH1 0x0 DUP1 DUP3 SWAP1 POP PUSH1 0x0 DUP1 JUMPDEST PUSH1 0x0 DUP4 EQ PUSH2 0x48B JUMPI DUP2 DUP1 PUSH2 0x474 SWAP1 PUSH2 0xE64 JUMP JUMPDEST SWAP3 POP POP PUSH1 0xA DUP4 PUSH2 0x484 SWAP2 SWAP1 PUSH2 0xE33 JUMP JUMPDEST SWAP3 POP PUSH2 0x461 JUMP JUMPDEST PUSH1 0x0 DUP3 SUB PUSH2 0x4CE JUMPI PUSH1 0x40 MLOAD PUSH32 0x8C379A000000000000000000000000000000000000000000000000000000000 DUP2 MSTORE PUSH1 0x4 ADD PUSH2 0x4C5 SWAP1 PUSH2 0xEF8 JUMP JUMPDEST PUSH1 0x40 MLOAD DUP1 SWAP2 SUB SWAP1 REVERT JUMPDEST DUP5 SWAP3 POP JUMPDEST PUSH1 0x0 DUP4 EQ PUSH2 0x519 JUMPI PUSH1 0x0 PUSH1 0xA DUP5 PUSH2 0x4E9 SWAP2 SWAP1 PUSH2 0xDC0 JUMP JUMPDEST SWAP1 POP DUP3 DUP2 PUSH2 0x4F7 SWAP2 SWAP1 PUSH2 0xD75 JUMP JUMPDEST DUP3 PUSH2 0x502 SWAP2 SWAP1 PUSH2 0xF18 JUMP JUMPDEST SWAP2 POP PUSH1 0xA DUP5 PUSH2 0x511 SWAP2 SWAP1 PUSH2 0xE33 JUMP JUMPDEST SWAP4 POP POP PUSH2 0x4D2 JUMP JUMPDEST DUP1 DUP6 EQ PUSH2 0x527 JUMPI PUSH1 0x0 PUSH2 0x52A JUMP JUMPDEST PUSH1 0x1 JUMPDEST PUSH1 0xFF AND SWAP4 POP POP POP POP SWAP2 SWAP1 POP JUMP JUMPDEST PUSH1 0x0 DUP1 DUP3 SWAP1 POP PUSH1 0x0 JUMPDEST PUSH1 0x0 DUP3 EQ PUSH2 0x57C JUMPI PUSH1 0x0 PUSH1 0xA DUP4 PUSH2 0x557 SWAP2 SWAP1 PUSH2 0xDC0 JUMP JUMPDEST SWAP1 POP DUP1 DUP3 PUSH2 0x565 SWAP2 SWAP1 PUSH2 0xF18 JUMP JUMPDEST SWAP2 POP PUSH1 0xA DUP4 PUSH2 0x574 SWAP2 SWAP1 PUSH2 0xE33 JUMP JUMPDEST SWAP3 POP POP PUSH2 0x540 JUMP JUMPDEST DUP1 SWAP3 POP POP POP SWAP2 SWAP1 POP JUMP JUMPDEST PUSH1 0x0 PUSH1 0x3 DUP3 DUP5 DUP7 PUSH2 0x597 SWAP2 SWAP1 PUSH2 0xF18 JUMP JUMPDEST PUSH2 0x5A1 SWAP2 SWAP1 PUSH2 0xF18 JUMP JUMPDEST PUSH2 0x5AB SWAP2 SWAP1 PUSH2 0xE33 JUMP JUMPDEST SWAP1 POP SWAP4 SWAP3 POP POP POP JUMP JUMPDEST PUSH1 0x0 DUP1 PUSH1 0x0 DUP4 SWAP1 POP JUMPDEST PUSH1 0x0 DUP2 EQ PUSH2 0x605 JUMPI PUSH1 0x0 PUSH1 0xA DUP3 PUSH2 0x5D4 SWAP2 SWAP1 PUSH2 0xDC0 JUMP JUMPDEST SWAP1 POP DUP1 PUSH1 0xA DUP5 PUSH2 0x5E4 SWAP2 SWAP1 PUSH2 0xDF1 JUMP JUMPDEST PUSH2 0x5EE SWAP2 SWAP1 PUSH2 0xF18 JUMP JUMPDEST SWAP3 POP PUSH1 0xA DUP3 PUSH2 0x5FD SWAP2 SWAP1 PUSH2 0xE33 JUMP JUMPDEST SWAP2 POP POP PUSH2 0x5BD JUMP JUMPDEST DUP2 SWAP3 POP POP POP SWAP2 SWAP1 POP JUMP JUMPDEST PUSH1 0x0 DUP1 PUSH1 0x0 SWAP1 POP JUMPDEST PUSH1 0x2 PUSH1 0x0 PUSH1 0x40 MLOAD PUSH2 0x627 SWAP1 PUSH2 0xFA3 JUMP JUMPDEST SWAP1 DUP2 MSTORE PUSH1 0x20 ADD PUSH1 0x40 MLOAD DUP1 SWAP2 SUB SWAP1 KECCAK256 DUP1 SLOAD SWAP1 POP PUSH2 0x643 SWAP2 SWAP1 PUSH2 0xFB8 JUMP JUMPDEST DUP2 LT ISZERO PUSH2 0x739 JUMPI PUSH1 0x0 PUSH1 0x40 MLOAD PUSH2 0x658 SWAP1 PUSH2 0xFA3 JUMP JUMPDEST SWAP1 DUP2 MSTORE PUSH1 0x20 ADD PUSH1 0x40 MLOAD DUP1 SWAP2 SUB SWAP1 KECCAK256 PUSH1 0x2 DUP3 PUSH2 0x673 SWAP2 SWAP1 PUSH2 0xF18 JUMP JUMPDEST DUP2 SLOAD DUP2 LT PUSH2 0x684 JUMPI PUSH2 0x683 PUSH2 0xFEC JUMP JUMPDEST JUMPDEST SWAP1 PUSH1 0x0 MSTORE PUSH1 0x20 PUSH1 0x0 KECCAK256 ADD SLOAD PUSH1 0x0 PUSH1 0x40 MLOAD PUSH2 0x69D SWAP1 PUSH2 0xFA3 JUMP JUMPDEST SWAP1 DUP2 MSTORE PUSH1 0x20 ADD PUSH1 0x40 MLOAD DUP1 SWAP2 SUB SWAP1 KECCAK256 PUSH1 0x1 DUP4 PUSH2 0x6B8 SWAP2 SWAP1 PUSH2 0xF18 JUMP JUMPDEST DUP2 SLOAD DUP2 LT PUSH2 0x6C9 JUMPI PUSH2 0x6C8 PUSH2 0xFEC JUMP JUMPDEST JUMPDEST SWAP1 PUSH1 0x0 MSTORE PUSH1 0x20 PUSH1 0x0 KECCAK256 ADD SLOAD PUSH2 0x6DE SWAP2 SWAP1 PUSH2 0xF18 JUMP JUMPDEST PUSH1 0x0 PUSH1 0x40 MLOAD PUSH2 0x6EC SWAP1 PUSH2 0xFA3 JUMP JUMPDEST SWAP1 DUP2 MSTORE PUSH1 0x20 ADD PUSH1 0x40 MLOAD DUP1 SWAP2 SUB SWAP1 KECCAK256 DUP3 DUP2 SLOAD DUP2 LT PUSH2 0x70C JUMPI PUSH2 0x70B PUSH2 0xFEC JUMP JUMPDEST JUMPDEST SWAP1 PUSH1 0x0 MSTORE PUSH1 0x20 PUSH1 0x0 KECCAK256 ADD SLOAD EQ PUSH2 0x726 JUMPI PUSH1 0x0 SWAP2 POP POP PUSH2 0x73F JUMP JUMPDEST DUP1 DUP1 PUSH2 0x731 SWAP1 PUSH2 0xE64 JUMP JUMPDEST SWAP2 POP POP PUSH2 0x617 JUMP JUMPDEST POP PUSH1 0x1 SWAP1 POP JUMPDEST SWAP1 JUMP JUMPDEST PUSH1 0x0 DUP1 DUP3 SWAP1 POP PUSH1 0x0 JUMPDEST PUSH1 0x0 DUP3 EQ PUSH2 0x793 JUMPI PUSH1 0x0 PUSH1 0xA DUP4 PUSH2 0x762 SWAP2 SWAP1 PUSH2 0xDC0 JUMP JUMPDEST SWAP1 POP DUP1 PUSH1 0xA DUP4 PUSH2 0x772 SWAP2 SWAP1 PUSH2 0xDF1 JUMP JUMPDEST PUSH2 0x77C SWAP2 SWAP1 PUSH2 0xF18 JUMP JUMPDEST SWAP2 POP PUSH1 0xA DUP4 PUSH2 0x78B SWAP2 SWAP1 PUSH2 0xE33 JUMP JUMPDEST SWAP3 POP POP PUSH2 0x74B JUMP JUMPDEST DUP4 DUP2 EQ PUSH2 0x7A1 JUMPI PUSH1 0x0 PUSH2 0x7A4 JUMP JUMPDEST PUSH1 0x1 JUMPDEST PUSH1 0xFF AND SWAP3 POP POP POP SWAP2 SWAP1 POP JUMP JUMPDEST PUSH1 0x0 DUP1 DUP4 DUP6 SGT PUSH2 0x7C0 JUMPI DUP4 PUSH2 0x7C2 JUMP JUMPDEST DUP5 JUMPDEST SWAP1 POP DUP3 DUP2 SGT PUSH2 0x7D1 JUMPI DUP3 PUSH2 0x7D3 JUMP JUMPDEST DUP1 JUMPDEST SWAP2 POP POP SWAP4 SWAP3 POP POP POP JUMP JUMPDEST PUSH1 0x0 DUP2 SUB PUSH2 0x820 JUMPI PUSH1 0x40 MLOAD PUSH32 0x8C379A000000000000000000000000000000000000000000000000000000000 DUP2 MSTORE PUSH1 0x4 ADD PUSH2 0x817 SWAP1 PUSH2 0x1067 JUMP JUMPDEST PUSH1 0x40 MLOAD DUP1 SWAP2 SUB SWAP1 REVERT JUMPDEST PUSH1 0x0 DUP2 SWAP1 POP JUMPDEST PUSH1 0x0 DUP2 EQ PUSH2 0x897 JUMPI PUSH1 0x0 PUSH1 0xA DUP3 PUSH2 0x83D SWAP2 SWAP1 PUSH2 0xDC0 JUMP JUMPDEST SWAP1 POP PUSH1 0x0 PUSH1 0x40 MLOAD PUSH2 0x84D SWAP1 PUSH2 0xFA3 JUMP JUMPDEST SWAP1 DUP2 MSTORE PUSH1 0x20 ADD PUSH1 0x40 MLOAD DUP1 SWAP2 SUB SWAP1 KECCAK256 DUP2 SWAP1 DUP1 PUSH1 0x1 DUP2 SLOAD ADD DUP1 DUP3 SSTORE DUP1 SWAP2 POP POP PUSH1 0x1 SWAP1 SUB SWAP1 PUSH1 0x0 MSTORE PUSH1 0x20 PUSH1 0x0 KECCAK256 ADD PUSH1 0x0 SWAP1 SWAP2 SWAP1 SWAP2 SWAP1 SWAP2 POP SSTORE PUSH1 0xA DUP3 PUSH2 0x88F SWAP2 SWAP1 PUSH2 0xE33 JUMP JUMPDEST SWAP2 POP POP PUSH2 0x826 JUMP JUMPDEST POP POP JUMP JUMPDEST PUSH1 0x0 DUP1 PUSH1 0x2 SWAP1 POP JUMPDEST DUP3 DUP2 SLT ISZERO PUSH2 0x8DB JUMPI PUSH1 0x0 DUP2 DUP5 PUSH2 0x8B9 SWAP2 SWAP1 PUSH2 0xBE2 JUMP JUMPDEST SUB PUSH2 0x8C8 JUMPI PUSH1 0x0 SWAP2 POP POP PUSH2 0x8E1 JUMP JUMPDEST DUP1 DUP1 PUSH2 0x8D3 SWAP1 PUSH2 0x1087 JUMP JUMPDEST SWAP2 POP POP PUSH2 0x8A3 JUMP JUMPDEST POP PUSH1 0x1 SWAP1 POP JUMPDEST SWAP2 SWAP1 POP JUMP JUMPDEST PUSH1 0x0 PUSH1 0x2 DUP3 PUSH2 0x8F5 SWAP2 SWAP1 PUSH2 0x10DC JUMP JUMPDEST SWAP1 POP SWAP2 SWAP1 POP JUMP JUMPDEST PUSH1 0x0 DUP1 REVERT JUMPDEST PUSH1 0x0 DUP2 SWAP1 POP SWAP2 SWAP1 POP JUMP JUMPDEST PUSH2 0x914 DUP2 PUSH2 0x901 JUMP JUMPDEST DUP2 EQ PUSH2 0x91F JUMPI PUSH1 0x0 DUP1 REVERT JUMPDEST POP JUMP JUMPDEST PUSH1 0x0 DUP2 CALLDATALOAD SWAP1 POP PUSH2 0x931 DUP2 PUSH2 0x90B JUMP JUMPDEST SWAP3 SWAP2 POP POP JUMP JUMPDEST PUSH1 0x0 PUSH1 0x20 DUP3 DUP5 SUB SLT ISZERO PUSH2 0x94D JUMPI PUSH2 0x94C PUSH2 0x8FC JUMP JUMPDEST JUMPDEST PUSH1 0x0 PUSH2 0x95B DUP5 DUP3 DUP6 ADD PUSH2 0x922 JUMP JUMPDEST SWAP2 POP POP SWAP3 SWAP2 POP POP JUMP JUMPDEST PUSH1 0x0 DUP2 MLOAD SWAP1 POP SWAP2 SWAP1 POP JUMP JUMPDEST PUSH1 0x0 DUP3 DUP3 MSTORE PUSH1 0x20 DUP3 ADD SWAP1 POP SWAP3 SWAP2 POP POP JUMP JUMPDEST PUSH1 0x0 JUMPDEST DUP4 DUP2 LT ISZERO PUSH2 0x99E JUMPI DUP1 DUP3 ADD MLOAD DUP2 DUP5 ADD MSTORE PUSH1 0x20 DUP2 ADD SWAP1 POP PUSH2 0x983 JUMP JUMPDEST PUSH1 0x0 DUP5 DUP5 ADD MSTORE POP POP POP POP JUMP JUMPDEST PUSH1 0x0 PUSH1 0x1F NOT PUSH1 0x1F DUP4 ADD AND SWAP1 POP SWAP2 SWAP1 POP JUMP JUMPDEST PUSH1 0x0 PUSH2 0x9C6 DUP3 PUSH2 0x964 JUMP JUMPDEST PUSH2 0x9D0 DUP2 DUP6 PUSH2 0x96F JUMP JUMPDEST SWAP4 POP PUSH2 0x9E0 DUP2 DUP6 PUSH1 0x20 DUP7 ADD PUSH2 0x980 JUMP JUMPDEST PUSH2 0x9E9 DUP2 PUSH2 0x9AA JUMP JUMPDEST DUP5 ADD SWAP2 POP POP SWAP3 SWAP2 POP POP JUMP JUMPDEST PUSH1 0x0 PUSH1 0x20 DUP3 ADD SWAP1 POP DUP2 DUP2 SUB PUSH1 0x0 DUP4 ADD MSTORE PUSH2 0xA0E DUP2 DUP5 PUSH2 0x9BB JUMP JUMPDEST SWAP1 POP SWAP3 SWAP2 POP POP JUMP JUMPDEST PUSH1 0x0 DUP2 SWAP1 POP SWAP2 SWAP1 POP JUMP JUMPDEST PUSH2 0xA29 DUP2 PUSH2 0xA16 JUMP JUMPDEST DUP2 EQ PUSH2 0xA34 JUMPI PUSH1 0x0 DUP1 REVERT JUMPDEST POP JUMP JUMPDEST PUSH1 0x0 DUP2 CALLDATALOAD SWAP1 POP PUSH2 0xA46 DUP2 PUSH2 0xA20 JUMP JUMPDEST SWAP3 SWAP2 POP POP JUMP JUMPDEST PUSH1 0x0 DUP1 PUSH1 0x40 DUP4 DUP6 SUB SLT ISZERO PUSH2 0xA63 JUMPI PUSH2 0xA62 PUSH2 0x8FC JUMP JUMPDEST JUMPDEST PUSH1 0x0 PUSH2 0xA71 DUP6 DUP3 DUP7 ADD PUSH2 0xA37 JUMP JUMPDEST SWAP3 POP POP PUSH1 0x20 PUSH2 0xA82 DUP6 DUP3 DUP7 ADD PUSH2 0xA37 JUMP JUMPDEST SWAP2 POP POP SWAP3 POP SWAP3 SWAP1 POP JUMP JUMPDEST PUSH2 0xA95 DUP2 PUSH2 0xA16 JUMP JUMPDEST DUP3 MSTORE POP POP JUMP JUMPDEST PUSH1 0x0 PUSH1 0x20 DUP3 ADD SWAP1 POP PUSH2 0xAB0 PUSH1 0x0 DUP4 ADD DUP5 PUSH2 0xA8C JUMP JUMPDEST SWAP3 SWAP2 POP POP JUMP JUMPDEST PUSH1 0x0 PUSH1 0x20 DUP3 DUP5 SUB SLT ISZERO PUSH2 0xACC JUMPI PUSH2 0xACB PUSH2 0x8FC JUMP JUMPDEST JUMPDEST PUSH1 0x0 PUSH2 0xADA DUP5 DUP3 DUP6 ADD PUSH2 0xA37 JUMP JUMPDEST SWAP2 POP POP SWAP3 SWAP2 POP POP JUMP JUMPDEST PUSH1 0x0 DUP1 PUSH1 0x0 PUSH1 0x60 DUP5 DUP7 SUB SLT ISZERO PUSH2 0xAFC JUMPI PUSH2 0xAFB PUSH2 0x8FC JUMP JUMPDEST JUMPDEST PUSH1 0x0 PUSH2 0xB0A DUP7 DUP3 DUP8 ADD PUSH2 0xA37 JUMP JUMPDEST SWAP4 POP POP PUSH1 0x20 PUSH2 0xB1B DUP7 DUP3 DUP8 ADD PUSH2 0xA37 JUMP JUMPDEST SWAP3 POP POP PUSH1 0x40 PUSH2 0xB2C DUP7 DUP3 DUP8 ADD PUSH2 0xA37 JUMP JUMPDEST SWAP2 POP POP SWAP3 POP SWAP3 POP SWAP3 JUMP JUMPDEST PUSH1 0x0 DUP1 PUSH1 0x0 PUSH1 0x60 DUP5 DUP7 SUB SLT ISZERO PUSH2 0xB4F JUMPI PUSH2 0xB4E PUSH2 0x8FC JUMP JUMPDEST JUMPDEST PUSH1 0x0 PUSH2 0xB5D DUP7 DUP3 DUP8 ADD PUSH2 0x922 JUMP JUMPDEST SWAP4 POP POP PUSH1 0x20 PUSH2 0xB6E DUP7 DUP3 DUP8 ADD PUSH2 0x922 JUMP JUMPDEST SWAP3 POP POP PUSH1 0x40 PUSH2 0xB7F DUP7 DUP3 DUP8 ADD PUSH2 0x922 JUMP JUMPDEST SWAP2 POP POP SWAP3 POP SWAP3 POP SWAP3 JUMP JUMPDEST PUSH2 0xB92 DUP2 PUSH2 0x901 JUMP JUMPDEST DUP3 MSTORE POP POP JUMP JUMPDEST PUSH1 0x0 PUSH1 0x20 DUP3 ADD SWAP1 POP PUSH2 0xBAD PUSH1 0x0 DUP4 ADD DUP5 PUSH2 0xB89 JUMP JUMPDEST SWAP3 SWAP2 POP POP JUMP JUMPDEST PUSH32 0x4E487B7100000000000000000000000000000000000000000000000000000000 PUSH1 0x0 MSTORE PUSH1 0x12 PUSH1 0x4 MSTORE PUSH1 0x24 PUSH1 0x0 REVERT JUMPDEST PUSH1 0x0 PUSH2 0xBED DUP3 PUSH2 0x901 JUMP JUMPDEST SWAP2 POP PUSH2 0xBF8 DUP4 PUSH2 0x901 JUMP JUMPDEST SWAP3 POP DUP3 PUSH2 0xC08 JUMPI PUSH2 0xC07 PUSH2 0xBB3 JUMP JUMPDEST JUMPDEST DUP3 DUP3 SMOD SWAP1 POP SWAP3 SWAP2 POP POP JUMP JUMPDEST PUSH32 0x4E487B7100000000000000000000000000000000000000000000000000000000 PUSH1 0x0 MSTORE PUSH1 0x11 PUSH1 0x4 MSTORE PUSH1 0x24 PUSH1 0x0 REVERT JUMPDEST PUSH1 0x0 DUP2 PUSH1 0x1 SHR SWAP1 POP SWAP2 SWAP1 POP JUMP JUMPDEST PUSH1 0x0 DUP1 DUP3 SWAP2 POP DUP4 SWAP1 POP JUMPDEST PUSH1 0x1 DUP6 GT ISZERO PUSH2 0xC99 JUMPI DUP1 DUP7 DIV DUP2 GT ISZERO PUSH2 0xC75 JUMPI PUSH2 0xC74 PUSH2 0xC13 JUMP JUMPDEST JUMPDEST PUSH1 0x1 DUP6 AND ISZERO PUSH2 0xC84 JUMPI DUP1 DUP3 MUL SWAP2 POP JUMPDEST DUP1 DUP2 MUL SWAP1 POP PUSH2 0xC92 DUP6 PUSH2 0xC42 JUMP JUMPDEST SWAP5 POP PUSH2 0xC59 JUMP JUMPDEST SWAP5 POP SWAP5 SWAP3 POP POP POP JUMP JUMPDEST PUSH1 0x0 DUP3 PUSH2 0xCB2 JUMPI PUSH1 0x1 SWAP1 POP PUSH2 0xD6E JUMP JUMPDEST DUP2 PUSH2 0xCC0 JUMPI PUSH1 0x0 SWAP1 POP PUSH2 0xD6E JUMP JUMPDEST DUP2 PUSH1 0x1 DUP2 EQ PUSH2 0xCD6 JUMPI PUSH1 0x2 DUP2 EQ PUSH2 0xCE0 JUMPI PUSH2 0xD0F JUMP JUMPDEST PUSH1 0x1 SWAP2 POP POP PUSH2 0xD6E JUMP JUMPDEST PUSH1 0xFF DUP5 GT ISZERO PUSH2 0xCF2 JUMPI PUSH2 0xCF1 PUSH2 0xC13 JUMP JUMPDEST JUMPDEST DUP4 PUSH1 0x2 EXP SWAP2 POP DUP5 DUP3 GT ISZERO PUSH2 0xD09 JUMPI PUSH2 0xD08 PUSH2 0xC13 JUMP JUMPDEST JUMPDEST POP PUSH2 0xD6E JUMP JUMPDEST POP PUSH1 0x20 DUP4 LT PUSH2 0x133 DUP4 LT AND PUSH1 0x4E DUP5 LT PUSH1 0xB DUP5 LT AND OR ISZERO PUSH2 0xD44 JUMPI DUP3 DUP3 EXP SWAP1 POP DUP4 DUP2 GT ISZERO PUSH2 0xD3F JUMPI PUSH2 0xD3E PUSH2 0xC13 JUMP JUMPDEST JUMPDEST PUSH2 0xD6E JUMP JUMPDEST PUSH2 0xD51 DUP5 DUP5 DUP5 PUSH1 0x1 PUSH2 0xC4F JUMP JUMPDEST SWAP3 POP SWAP1 POP DUP2 DUP5 DIV DUP2 GT ISZERO PUSH2 0xD68 JUMPI PUSH2 0xD67 PUSH2 0xC13 JUMP JUMPDEST JUMPDEST DUP2 DUP2 MUL SWAP1 POP JUMPDEST SWAP4 SWAP3 POP POP POP JUMP JUMPDEST PUSH1 0x0 PUSH2 0xD80 DUP3 PUSH2 0xA16 JUMP JUMPDEST SWAP2 POP PUSH2 0xD8B DUP4 PUSH2 0xA16 JUMP JUMPDEST SWAP3 POP PUSH2 0xDB8 PUSH32 0xFFFFFFFFFFFFFFFFFFFFFFFFFFFFFFFFFFFFFFFFFFFFFFFFFFFFFFFFFFFFFFFF DUP5 DUP5 PUSH2 0xCA2 JUMP JUMPDEST SWAP1 POP SWAP3 SWAP2 POP POP JUMP JUMPDEST PUSH1 0x0 PUSH2 0xDCB DUP3 PUSH2 0xA16 JUMP JUMPDEST SWAP2 POP PUSH2 0xDD6 DUP4 PUSH2 0xA16 JUMP JUMPDEST SWAP3 POP DUP3 PUSH2 0xDE6 JUMPI PUSH2 0xDE5 PUSH2 0xBB3 JUMP JUMPDEST JUMPDEST DUP3 DUP3 MOD SWAP1 POP SWAP3 SWAP2 POP POP JUMP JUMPDEST PUSH1 0x0 PUSH2 0xDFC DUP3 PUSH2 0xA16 JUMP JUMPDEST SWAP2 POP PUSH2 0xE07 DUP4 PUSH2 0xA16 JUMP JUMPDEST SWAP3 POP DUP3 DUP3 MUL PUSH2 0xE15 DUP2 PUSH2 0xA16 JUMP JUMPDEST SWAP2 POP DUP3 DUP3 DIV DUP5 EQ DUP4 ISZERO OR PUSH2 0xE2C JUMPI PUSH2 0xE2B PUSH2 0xC13 JUMP JUMPDEST JUMPDEST POP SWAP3 SWAP2 POP POP JUMP JUMPDEST PUSH1 0x0 PUSH2 0xE3E DUP3 PUSH2 0xA16 JUMP JUMPDEST SWAP2 POP PUSH2 0xE49 DUP4 PUSH2 0xA16 JUMP JUMPDEST SWAP3 POP DUP3 PUSH2 0xE59 JUMPI PUSH2 0xE58 PUSH2 0xBB3 JUMP JUMPDEST JUMPDEST DUP3 DUP3 DIV SWAP1 POP SWAP3 SWAP2 POP POP JUMP JUMPDEST PUSH1 0x0 PUSH2 0xE6F DUP3 PUSH2 0xA16 JUMP JUMPDEST SWAP2 POP PUSH32 0xFFFFFFFFFFFFFFFFFFFFFFFFFFFFFFFFFFFFFFFFFFFFFFFFFFFFFFFFFFFFFFFF DUP3 SUB PUSH2 0xEA1 JUMPI PUSH2 0xEA0 PUSH2 0xC13 JUMP JUMPDEST JUMPDEST PUSH1 0x1 DUP3 ADD SWAP1 POP SWAP2 SWAP1 POP JUMP JUMPDEST PUSH32 0x6E6F7420612076616C6964206E756D6265720000000000000000000000000000 PUSH1 0x0 DUP3 ADD MSTORE POP JUMP JUMPDEST PUSH1 0x0 PUSH2 0xEE2 PUSH1 0x12 DUP4 PUSH2 0x96F JUMP JUMPDEST SWAP2 POP PUSH2 0xEED DUP3 PUSH2 0xEAC JUMP JUMPDEST PUSH1 0x20 DUP3 ADD SWAP1 POP SWAP2 SWAP1 POP JUMP JUMPDEST PUSH1 0x0 PUSH1 0x20 DUP3 ADD SWAP1 POP DUP2 DUP2 SUB PUSH1 0x0 DUP4 ADD MSTORE PUSH2 0xF11 DUP2 PUSH2 0xED5 JUMP JUMPDEST SWAP1 POP SWAP2 SWAP1 POP JUMP JUMPDEST PUSH1 0x0 PUSH2 0xF23 DUP3 PUSH2 0xA16 JUMP JUMPDEST SWAP2 POP PUSH2 0xF2E DUP4 PUSH2 0xA16 JUMP JUMPDEST SWAP3 POP DUP3 DUP3 ADD SWAP1 POP DUP1 DUP3 GT ISZERO PUSH2 0xF46 JUMPI PUSH2 0xF45 PUSH2 0xC13 JUMP JUMPDEST JUMPDEST SWAP3 SWAP2 POP POP JUMP JUMPDEST PUSH1 0x0 DUP2 SWAP1 POP SWAP3 SWAP2 POP POP JUMP JUMPDEST PUSH32 0x6E756D4172720000000000000000000000000000000000000000000000000000 PUSH1 0x0 DUP3 ADD MSTORE POP JUMP JUMPDEST PUSH1 0x0 PUSH2 0xF8D PUSH1 0x6 DUP4 PUSH2 0xF4C JUMP JUMPDEST SWAP2 POP PUSH2 0xF98 DUP3 PUSH2 0xF57 JUMP JUMPDEST PUSH1 0x6 DUP3 ADD SWAP1 POP SWAP2 SWAP1 POP JUMP JUMPDEST PUSH1 0x0 PUSH2 0xFAE DUP3 PUSH2 0xF80 JUMP JUMPDEST SWAP2 POP DUP2 SWAP1 POP SWAP2 SWAP1 POP JUMP JUMPDEST PUSH1 0x0 PUSH2 0xFC3 DUP3 PUSH2 0xA16 JUMP JUMPDEST SWAP2 POP PUSH2 0xFCE DUP4 PUSH2 0xA16 JUMP JUMPDEST SWAP3 POP DUP3 DUP3 SUB SWAP1 POP DUP2 DUP2 GT ISZERO PUSH2 0xFE6 JUMPI PUSH2 0xFE5 PUSH2 0xC13 JUMP JUMPDEST JUMPDEST SWAP3 SWAP2 POP POP JUMP JUMPDEST PUSH32 0x4E487B7100000000000000000000000000000000000000000000000000000000 PUSH1 0x0 MSTORE PUSH1 0x32 PUSH1 0x4 MSTORE PUSH1 0x24 PUSH1 0x0 REVERT JUMPDEST PUSH32 0x6E6F7420412076616C6964206E756D6265720000000000000000000000000000 PUSH1 0x0 DUP3 ADD MSTORE POP JUMP JUMPDEST PUSH1 0x0 PUSH2 0x1051 PUSH1 0x12 DUP4 PUSH2 0x96F JUMP JUMPDEST SWAP2 POP PUSH2 0x105C DUP3 PUSH2 0x101B JUMP JUMPDEST PUSH1 0x20 DUP3 ADD SWAP1 POP SWAP2 SWAP1 POP JUMP JUMPDEST PUSH1 0x0 PUSH1 0x20 DUP3 ADD SWAP1 POP DUP2 DUP2 SUB PUSH1 0x0 DUP4 ADD MSTORE PUSH2 0x1080 DUP2 PUSH2 0x1044 JUMP JUMPDEST SWAP1 POP SWAP2 SWAP1 POP JUMP JUMPDEST PUSH1 0x0 PUSH2 0x1092 DUP3 PUSH2 0x901 JUMP JUMPDEST SWAP2 POP PUSH32 0x7FFFFFFFFFFFFFFFFFFFFFFFFFFFFFFFFFFFFFFFFFFFFFFFFFFFFFFFFFFFFFFF DUP3 SUB PUSH2 0x10C4 JUMPI PUSH2 0x10C3 PUSH2 0xC13 JUMP JUMPDEST JUMPDEST PUSH1 0x1 DUP3 ADD SWAP1 POP SWAP2 SWAP1 POP JUMP JUMPDEST PUSH1 0x0 PUSH1 0xFF DUP3 AND SWAP1 POP SWAP2 SWAP1 POP JUMP JUMPDEST PUSH1 0x0 PUSH2 0x10E7 DUP3 PUSH2 0xA16 JUMP JUMPDEST SWAP2 POP PUSH2 0x10F2 DUP4 PUSH2 0x10CF JUMP JUMPDEST SWAP3 POP PUSH2 0x111F PUSH32 0xFFFFFFFFFFFFFFFFFFFFFFFFFFFFFFFFFFFFFFFFFFFFFFFFFFFFFFFFFFFFFFFF DUP5 DUP5 PUSH2 0xCA2 JUMP JUMPDEST SWAP1 POP SWAP3 SWAP2 POP POP JUMP INVALID LOG2 PUSH5 0x6970667358 0x22 SLT KECCAK256 0xEA 0x1F 0xEC 0xD8 0x4E 0xB2 0xB8 0xB8 LOG2 DIV SWAP16 0xE SWAP10 0xE9 0xCD 0xC8 0xD5 MOD GAS 0xE7 0xA8 SELFDESTRUCT PUSH4 0x46C9B1B3 OR CALLVALUE 0x25 0x5C PUSH10 0x64736F6C634300081100 CALLER "
		},
		"gasEstimates": {
			"creation": {
				"codeDepositCost": "889000",
				"executionCost": "922",
				"totalCost": "889922"
			},
			"external": {
				"Palindrome(uint256)": "infinite",
				"amstrong(uint256)": "infinite",
				"avg(uint256,uint256,uint256)": "infinite",
				"cube(uint256)": "infinite",
				"expo(uint256,uint256)": "infinite",
				"factorial(uint256)": "infinite",
				"fibonnical(uint256)": "infinite",
				"fibonnicalResult()": "infinite",
				"greater(int256,int256,int256)": "infinite",
				"oddOrEven(int256)": "infinite",
				"prime(int256)": "infinite",
				"reverseInt(uint256)": "infinite",
				"sumOfDigits(uint256)": "infinite",
				"swap()": "264"
			}
		},
		"methodIdentifiers": {
			"Palindrome(uint256)": "cdab7807",
			"amstrong(uint256)": "83d3705e",
			"avg(uint256,uint256,uint256)": "92cc2841",
			"cube(uint256)": "f4bf03c7",
			"expo(uint256,uint256)": "4f4752ba",
			"factorial(uint256)": "83714834",
			"fibonnical(uint256)": "f26c79ef",
			"fibonnicalResult()": "b4133721",
			"greater(int256,int256,int256)": "d9ea8e64",
			"oddOrEven(int256)": "46439726",
			"prime(int256)": "f492c000",
			"reverseInt(uint256)": "9e098fc1",
			"sumOfDigits(uint256)": "8ce32d21",
			"swap()": "8119c065"
		}
	},
	"abi": [
		{
			"inputs": [
				{
					"internalType": "uint256",
					"name": "_inp",
					"type": "uint256"
				}
			],
			"name": "Palindrome",
			"outputs": [
				{
					"internalType": "uint256",
					"name": "",
					"type": "uint256"
				}
			],
			"stateMutability": "pure",
			"type": "function"
		},
		{
			"inputs": [
				{
					"internalType": "uint256",
					"name": "_inp",
					"type": "uint256"
				}
			],
			"name": "amstrong",
			"outputs": [
				{
					"internalType": "uint256",
					"name": "",
					"type": "uint256"
				}
			],
			"stateMutability": "pure",
			"type": "function"
		},
		{
			"inputs": [
				{
					"internalType": "uint256",
					"name": "num1",
					"type": "uint256"
				},
				{
					"internalType": "uint256",
					"name": "num2",
					"type": "uint256"
				},
				{
					"internalType": "uint256",
					"name": "num3",
					"type": "uint256"
				}
			],
			"name": "avg",
			"outputs": [
				{
					"internalType": "uint256",
					"name": "",
					"type": "uint256"
				}
			],
			"stateMutability": "pure",
			"type": "function"
		},
		{
			"inputs": [
				{
					"internalType": "uint256",
					"name": "_num1",
					"type": "uint256"
				}
			],
			"name": "cube",
			"outputs": [
				{
					"internalType": "uint256",
					"name": "",
					"type": "uint256"
				}
			],
			"stateMutability": "pure",
			"type": "function"
		},
		{
			"inputs": [
				{
					"internalType": "uint256",
					"name": "x",
					"type": "uint256"
				},
				{
					"internalType": "uint256",
					"name": "y",
					"type": "uint256"
				}
			],
			"name": "expo",
			"outputs": [
				{
					"internalType": "uint256",
					"name": "",
					"type": "uint256"
				}
			],
			"stateMutability": "pure",
			"type": "function"
		},
		{
			"inputs": [
				{
					"internalType": "uint256",
					"name": "num",
					"type": "uint256"
				}
			],
			"name": "factorial",
			"outputs": [
				{
					"internalType": "uint256",
					"name": "",
					"type": "uint256"
				}
			],
			"stateMutability": "pure",
			"type": "function"
		},
		{
			"inputs": [
				{
					"internalType": "uint256",
					"name": "num",
					"type": "uint256"
				}
			],
			"name": "fibonnical",
			"outputs": [],
			"stateMutability": "nonpayable",
			"type": "function"
		},
		{
			"inputs": [],
			"name": "fibonnicalResult",
			"outputs": [
				{
					"internalType": "uint256",
					"name": "",
					"type": "uint256"
				}
			],
			"stateMutability": "view",
			"type": "function"
		},
		{
			"inputs": [
				{
					"internalType": "int256",
					"name": "num1",
					"type": "int256"
				},
				{
					"internalType": "int256",
					"name": "num2",
					"type": "int256"
				},
				{
					"internalType": "int256",
					"name": "num3",
					"type": "int256"
				}
			],
			"name": "greater",
			"outputs": [
				{
					"internalType": "int256",
					"name": "",
					"type": "int256"
				}
			],
			"stateMutability": "pure",
			"type": "function"
		},
		{
			"inputs": [
				{
					"internalType": "int256",
					"name": "num",
					"type": "int256"
				}
			],
			"name": "oddOrEven",
			"outputs": [
				{
					"internalType": "string",
					"name": "",
					"type": "string"
				}
			],
			"stateMutability": "pure",
			"type": "function"
		},
		{
			"inputs": [
				{
					"internalType": "int256",
					"name": "num",
					"type": "int256"
				}
			],
			"name": "prime",
			"outputs": [
				{
					"internalType": "int256",
					"name": "",
					"type": "int256"
				}
			],
			"stateMutability": "pure",
			"type": "function"
		},
		{
			"inputs": [
				{
					"internalType": "uint256",
					"name": "_inp",
					"type": "uint256"
				}
			],
			"name": "reverseInt",
			"outputs": [
				{
					"internalType": "uint256",
					"name": "",
					"type": "uint256"
				}
			],
			"stateMutability": "pure",
			"type": "function"
		},
		{
			"inputs": [
				{
					"internalType": "uint256",
					"name": "_inp",
					"type": "uint256"
				}
			],
			"name": "sumOfDigits",
			"outputs": [
				{
					"internalType": "uint256",
					"name": "",
					"type": "uint256"
				}
			],
			"stateMutability": "pure",
			"type": "function"
		},
		{
			"inputs": [],
			"name": "swap",
			"outputs": [],
			"stateMutability": "pure",
			"type": "function"
		}
	]
}