{
	"data": {
		"bytecode": {
			"linkReferences": {},
			"object": "608060405234801561001057600080fd5b50611221806100206000396000f3fe608060405234801561001057600080fd5b50600436106100f55760003560e01c806392cc284111610097578063d9ea8e6411610066578063d9ea8e64146102d2578063f26c79ef14610302578063f492c0001461031e578063f4bf03c71461034e576100f5565b806392cc2841146102245780639e098fc114610254578063b413372114610284578063cdab7807146102a2576100f5565b80638119c065116100d35780638119c0651461018a578063837148341461019457806383d3705e146101c45780638ce32d21146101f4576100f5565b806317d95c7e146100fa578063464397261461012a5780634f4752ba1461015a575b600080fd5b610114600480360381019061010f919061098d565b61037e565b60405161012191906109dc565b60405180910390f35b610144600480360381019061013f91906109f7565b610402565b6040516101519190610a3d565b60405180910390f35b610174600480360381019061016f9190610a84565b61042a565b6040516101819190610a3d565b60405180910390f35b610192610440565b005b6101ae60048036038101906101a99190610ac4565b61045a565b6040516101bb9190610a3d565b60405180910390f35b6101de60048036038101906101d99190610ac4565b6104ad565b6040516101eb9190610a3d565b60405180910390f35b61020e60048036038101906102099190610ac4565b61058d565b60405161021b9190610a3d565b60405180910390f35b61023e60048036038101906102399190610af1565b6105dc565b60405161024b9190610a3d565b60405180910390f35b61026e60048036038101906102699190610ac4565b61060a565b60405161027b9190610a3d565b60405180910390f35b61028c610665565b6040516102999190610a3d565b60405180910390f35b6102bc60048036038101906102b79190610ac4565b610798565b6040516102c99190610a3d565b60405180910390f35b6102ec60048036038101906102e79190610b44565b610806565b6040516102f991906109dc565b60405180910390f35b61031c60048036038101906103179190610ac4565b610833565b005b610338600480360381019061033391906109f7565b6108f1565b60405161034591906109dc565b60405180910390f35b61036860048036038101906103639190610ac4565b61093c565b6040516103759190610a3d565b60405180910390f35b60008083148061038e5750600082145b1561039c57600090506103fc565b60008213156103cd576103bb836001846103b69190610bc6565b61037e565b836103c69190610c09565b90506103fc565b60008212156103fb576103e0838361037e565b836103eb9190610c09565b6103f490610c4d565b90506103fc565b5b92915050565b6000806002836104129190610cc4565b036104205760019050610425565b600090505b919050565b600081836104389190610e28565b905092915050565b600060019050600060029050808280925081935050505050565b6000808290506000600190505b600082146104a3576000600a8361047e9190610e73565b9050808261048c9190610ea4565b9150600a8361049b9190610ee6565b925050610467565b8092505050919050565b6000808290506000805b600083146104e15781806104ca90610f17565b925050600a836104da9190610ee6565b92506104b7565b60008203610524576040517f08c379a000000000000000000000000000000000000000000000000000000000815260040161051b90610fbc565b60405180910390fd5b8492505b6000831461056f576000600a8461053f9190610e73565b9050828161054d9190610e28565b826105589190610fdc565b9150600a846105679190610ee6565b935050610528565b80851461057d576000610580565b60015b60ff169350505050919050565b60008082905060005b600082146105d2576000600a836105ad9190610e73565b905080826105bb9190610fdc565b9150600a836105ca9190610ee6565b925050610596565b8092505050919050565b600060038284866105ed9190610fdc565b6105f79190610fdc565b6106019190610ee6565b90509392505050565b60008060008390505b6000811461065b576000600a8261062a9190610e73565b905080600a8461063a9190610ea4565b6106449190610fdc565b9250600a826106539190610ee6565b915050610613565b8192505050919050565b600080600090505b6002600060405161067d90611067565b908152602001604051809103902080549050610699919061107c565b81101561078f5760006040516106ae90611067565b90815260200160405180910390206002826106c99190610fdc565b815481106106da576106d96110b0565b5b906000526020600020015460006040516106f390611067565b908152602001604051809103902060018361070e9190610fdc565b8154811061071f5761071e6110b0565b5b90600052602060002001546107349190610fdc565b600060405161074290611067565b90815260200160405180910390208281548110610762576107616110b0565b5b90600052602060002001541461077c576000915050610795565b808061078790610f17565b91505061066d565b50600190505b90565b60008082905060005b600082146107e9576000600a836107b89190610e73565b905080600a836107c89190610ea4565b6107d29190610fdc565b9150600a836107e19190610ee6565b9250506107a1565b8381146107f75760006107fa565b60015b60ff1692505050919050565b6000808385136108165783610818565b845b90508281136108275782610829565b805b9150509392505050565b60008103610876576040517f08c379a000000000000000000000000000000000000000000000000000000000815260040161086d9061112b565b60405180910390fd5b60008190505b600081146108ed576000600a826108939190610e73565b905060006040516108a390611067565b9081526020016040518091039020819080600181540180825580915050600190039060005260206000200160009091909190915055600a826108e59190610ee6565b91505061087c565b5050565b600080600290505b82811215610931576000818461090f9190610cc4565b0361091e576000915050610937565b80806109299061114b565b9150506108f9565b50600190505b919050565b600060028261094b91906111a0565b9050919050565b600080fd5b6000819050919050565b61096a81610957565b811461097557600080fd5b50565b60008135905061098781610961565b92915050565b600080604083850312156109a4576109a3610952565b5b60006109b285828601610978565b92505060206109c385828601610978565b9150509250929050565b6109d681610957565b82525050565b60006020820190506109f160008301846109cd565b92915050565b600060208284031215610a0d57610a0c610952565b5b6000610a1b84828501610978565b91505092915050565b6000819050919050565b610a3781610a24565b82525050565b6000602082019050610a526000830184610a2e565b92915050565b610a6181610a24565b8114610a6c57600080fd5b50565b600081359050610a7e81610a58565b92915050565b60008060408385031215610a9b57610a9a610952565b5b6000610aa985828601610a6f565b9250506020610aba85828601610a6f565b9150509250929050565b600060208284031215610ada57610ad9610952565b5b6000610ae884828501610a6f565b91505092915050565b600080600060608486031215610b0a57610b09610952565b5b6000610b1886828701610a6f565b9350506020610b2986828701610a6f565b9250506040610b3a86828701610a6f565b9150509250925092565b600080600060608486031215610b5d57610b5c610952565b5b6000610b6b86828701610978565b9350506020610b7c86828701610978565b9250506040610b8d86828701610978565b9150509250925092565b7f4e487b7100000000000000000000000000000000000000000000000000000000600052601160045260246000fd5b6000610bd182610957565b9150610bdc83610957565b9250828203905081811260008412168282136000851215161715610c0357610c02610b97565b5b92915050565b6000610c1482610957565b9150610c1f83610957565b925082820190508281121560008312168382126000841215161715610c4757610c46610b97565b5b92915050565b6000610c5882610957565b91507f80000000000000000000000000000000000000000000000000000000000000008203610c8a57610c89610b97565b5b816000039050919050565b7f4e487b7100000000000000000000000000000000000000000000000000000000600052601260045260246000fd5b6000610ccf82610957565b9150610cda83610957565b925082610cea57610ce9610c95565b5b828207905092915050565b60008160011c9050919050565b6000808291508390505b6001851115610d4c57808604811115610d2857610d27610b97565b5b6001851615610d375780820291505b8081029050610d4585610cf5565b9450610d0c565b94509492505050565b600082610d655760019050610e21565b81610d735760009050610e21565b8160018114610d895760028114610d9357610dc2565b6001915050610e21565b60ff841115610da557610da4610b97565b5b8360020a915084821115610dbc57610dbb610b97565b5b50610e21565b5060208310610133831016604e8410600b8410161715610df75782820a905083811115610df257610df1610b97565b5b610e21565b610e048484846001610d02565b92509050818404811115610e1b57610e1a610b97565b5b81810290505b9392505050565b6000610e3382610a24565b9150610e3e83610a24565b9250610e6b7fffffffffffffffffffffffffffffffffffffffffffffffffffffffffffffffff8484610d55565b905092915050565b6000610e7e82610a24565b9150610e8983610a24565b925082610e9957610e98610c95565b5b828206905092915050565b6000610eaf82610a24565b9150610eba83610a24565b9250828202610ec881610a24565b91508282048414831517610edf57610ede610b97565b5b5092915050565b6000610ef182610a24565b9150610efc83610a24565b925082610f0c57610f0b610c95565b5b828204905092915050565b6000610f2282610a24565b91507fffffffffffffffffffffffffffffffffffffffffffffffffffffffffffffffff8203610f5457610f53610b97565b5b600182019050919050565b600082825260208201905092915050565b7f6e6f7420612076616c6964206e756d6265720000000000000000000000000000600082015250565b6000610fa6601283610f5f565b9150610fb182610f70565b602082019050919050565b60006020820190508181036000830152610fd581610f99565b9050919050565b6000610fe782610a24565b9150610ff283610a24565b925082820190508082111561100a57611009610b97565b5b92915050565b600081905092915050565b7f6e756d4172720000000000000000000000000000000000000000000000000000600082015250565b6000611051600683611010565b915061105c8261101b565b600682019050919050565b600061107282611044565b9150819050919050565b600061108782610a24565b915061109283610a24565b92508282039050818111156110aa576110a9610b97565b5b92915050565b7f4e487b7100000000000000000000000000000000000000000000000000000000600052603260045260246000fd5b7f6e6f7420412076616c6964206e756d6265720000000000000000000000000000600082015250565b6000611115601283610f5f565b9150611120826110df565b602082019050919050565b6000602082019050818103600083015261114481611108565b9050919050565b600061115682610957565b91507f7fffffffffffffffffffffffffffffffffffffffffffffffffffffffffffffff820361118857611187610b97565b5b600182019050919050565b600060ff82169050919050565b60006111ab82610a24565b91506111b683611193565b92506111e37fffffffffffffffffffffffffffffffffffffffffffffffffffffffffffffffff8484610d55565b90509291505056fea2646970667358221220835f19ce7ea98c26bef9ac1c7772404b749d27cbeb2f0bfa5381a205ea79594c64736f6c63430008110033",
			"opcodes": "PUSH1 0x80 PUSH1 0x40 MSTORE CALLVALUE DUP1 ISZERO PUSH2 0x10 JUMPI PUSH1 0x0 DUP1 REVERT JUMPDEST POP PUSH2 0x1221 DUP1 PUSH2 0x20 PUSH1 0x0 CODECOPY PUSH1 0x0 RETURN INVALID PUSH1 0x80 PUSH1 0x40 MSTORE CALLVALUE DUP1 ISZERO PUSH2 0x10 JUMPI PUSH1 0x0 DUP1 REVERT JUMPDEST POP PUSH1 0x4 CALLDATASIZE LT PUSH2 0xF5 JUMPI PUSH1 0x0 CALLDATALOAD PUSH1 0xE0 SHR DUP1 PUSH4 0x92CC2841 GT PUSH2 0x97 JUMPI DUP1 PUSH4 0xD9EA8E64 GT PUSH2 0x66 JUMPI DUP1 PUSH4 0xD9EA8E64 EQ PUSH2 0x2D2 JUMPI DUP1 PUSH4 0xF26C79EF EQ PUSH2 0x302 JUMPI DUP1 PUSH4 0xF492C000 EQ PUSH2 0x31E JUMPI DUP1 PUSH4 0xF4BF03C7 EQ PUSH2 0x34E JUMPI PUSH2 0xF5 JUMP JUMPDEST DUP1 PUSH4 0x92CC2841 EQ PUSH2 0x224 JUMPI DUP1 PUSH4 0x9E098FC1 EQ PUSH2 0x254 JUMPI DUP1 PUSH4 0xB4133721 EQ PUSH2 0x284 JUMPI DUP1 PUSH4 0xCDAB7807 EQ PUSH2 0x2A2 JUMPI PUSH2 0xF5 JUMP JUMPDEST DUP1 PUSH4 0x8119C065 GT PUSH2 0xD3 JUMPI DUP1 PUSH4 0x8119C065 EQ PUSH2 0x18A JUMPI DUP1 PUSH4 0x83714834 EQ PUSH2 0x194 JUMPI DUP1 PUSH4 0x83D3705E EQ PUSH2 0x1C4 JUMPI DUP1 PUSH4 0x8CE32D21 EQ PUSH2 0x1F4 JUMPI PUSH2 0xF5 JUMP JUMPDEST DUP1 PUSH4 0x17D95C7E EQ PUSH2 0xFA JUMPI DUP1 PUSH4 0x46439726 EQ PUSH2 0x12A JUMPI DUP1 PUSH4 0x4F4752BA EQ PUSH2 0x15A JUMPI JUMPDEST PUSH1 0x0 DUP1 REVERT JUMPDEST PUSH2 0x114 PUSH1 0x4 DUP1 CALLDATASIZE SUB DUP2 ADD SWAP1 PUSH2 0x10F SWAP2 SWAP1 PUSH2 0x98D JUMP JUMPDEST PUSH2 0x37E JUMP JUMPDEST PUSH1 0x40 MLOAD PUSH2 0x121 SWAP2 SWAP1 PUSH2 0x9DC JUMP JUMPDEST PUSH1 0x40 MLOAD DUP1 SWAP2 SUB SWAP1 RETURN JUMPDEST PUSH2 0x144 PUSH1 0x4 DUP1 CALLDATASIZE SUB DUP2 ADD SWAP1 PUSH2 0x13F SWAP2 SWAP1 PUSH2 0x9F7 JUMP JUMPDEST PUSH2 0x402 JUMP JUMPDEST PUSH1 0x40 MLOAD PUSH2 0x151 SWAP2 SWAP1 PUSH2 0xA3D JUMP JUMPDEST PUSH1 0x40 MLOAD DUP1 SWAP2 SUB SWAP1 RETURN JUMPDEST PUSH2 0x174 PUSH1 0x4 DUP1 CALLDATASIZE SUB DUP2 ADD SWAP1 PUSH2 0x16F SWAP2 SWAP1 PUSH2 0xA84 JUMP JUMPDEST PUSH2 0x42A JUMP JUMPDEST PUSH1 0x40 MLOAD PUSH2 0x181 SWAP2 SWAP1 PUSH2 0xA3D JUMP JUMPDEST PUSH1 0x40 MLOAD DUP1 SWAP2 SUB SWAP1 RETURN JUMPDEST PUSH2 0x192 PUSH2 0x440 JUMP JUMPDEST STOP JUMPDEST PUSH2 0x1AE PUSH1 0x4 DUP1 CALLDATASIZE SUB DUP2 ADD SWAP1 PUSH2 0x1A9 SWAP2 SWAP1 PUSH2 0xAC4 JUMP JUMPDEST PUSH2 0x45A JUMP JUMPDEST PUSH1 0x40 MLOAD PUSH2 0x1BB SWAP2 SWAP1 PUSH2 0xA3D JUMP JUMPDEST PUSH1 0x40 MLOAD DUP1 SWAP2 SUB SWAP1 RETURN JUMPDEST PUSH2 0x1DE PUSH1 0x4 DUP1 CALLDATASIZE SUB DUP2 ADD SWAP1 PUSH2 0x1D9 SWAP2 SWAP1 PUSH2 0xAC4 JUMP JUMPDEST PUSH2 0x4AD JUMP JUMPDEST PUSH1 0x40 MLOAD PUSH2 0x1EB SWAP2 SWAP1 PUSH2 0xA3D JUMP JUMPDEST PUSH1 0x40 MLOAD DUP1 SWAP2 SUB SWAP1 RETURN JUMPDEST PUSH2 0x20E PUSH1 0x4 DUP1 CALLDATASIZE SUB DUP2 ADD SWAP1 PUSH2 0x209 SWAP2 SWAP1 PUSH2 0xAC4 JUMP JUMPDEST PUSH2 0x58D JUMP JUMPDEST PUSH1 0x40 MLOAD PUSH2 0x21B SWAP2 SWAP1 PUSH2 0xA3D JUMP JUMPDEST PUSH1 0x40 MLOAD DUP1 SWAP2 SUB SWAP1 RETURN JUMPDEST PUSH2 0x23E PUSH1 0x4 DUP1 CALLDATASIZE SUB DUP2 ADD SWAP1 PUSH2 0x239 SWAP2 SWAP1 PUSH2 0xAF1 JUMP JUMPDEST PUSH2 0x5DC JUMP JUMPDEST PUSH1 0x40 MLOAD PUSH2 0x24B SWAP2 SWAP1 PUSH2 0xA3D JUMP JUMPDEST PUSH1 0x40 MLOAD DUP1 SWAP2 SUB SWAP1 RETURN JUMPDEST PUSH2 0x26E PUSH1 0x4 DUP1 CALLDATASIZE SUB DUP2 ADD SWAP1 PUSH2 0x269 SWAP2 SWAP1 PUSH2 0xAC4 JUMP JUMPDEST PUSH2 0x60A JUMP JUMPDEST PUSH1 0x40 MLOAD PUSH2 0x27B SWAP2 SWAP1 PUSH2 0xA3D JUMP JUMPDEST PUSH1 0x40 MLOAD DUP1 SWAP2 SUB SWAP1 RETURN JUMPDEST PUSH2 0x28C PUSH2 0x665 JUMP JUMPDEST PUSH1 0x40 MLOAD PUSH2 0x299 SWAP2 SWAP1 PUSH2 0xA3D JUMP JUMPDEST PUSH1 0x40 MLOAD DUP1 SWAP2 SUB SWAP1 RETURN JUMPDEST PUSH2 0x2BC PUSH1 0x4 DUP1 CALLDATASIZE SUB DUP2 ADD SWAP1 PUSH2 0x2B7 SWAP2 SWAP1 PUSH2 0xAC4 JUMP JUMPDEST PUSH2 0x798 JUMP JUMPDEST PUSH1 0x40 MLOAD PUSH2 0x2C9 SWAP2 SWAP1 PUSH2 0xA3D JUMP JUMPDEST PUSH1 0x40 MLOAD DUP1 SWAP2 SUB SWAP1 RETURN JUMPDEST PUSH2 0x2EC PUSH1 0x4 DUP1 CALLDATASIZE SUB DUP2 ADD SWAP1 PUSH2 0x2E7 SWAP2 SWAP1 PUSH2 0xB44 JUMP JUMPDEST PUSH2 0x806 JUMP JUMPDEST PUSH1 0x40 MLOAD PUSH2 0x2F9 SWAP2 SWAP1 PUSH2 0x9DC JUMP JUMPDEST PUSH1 0x40 MLOAD DUP1 SWAP2 SUB SWAP1 RETURN JUMPDEST PUSH2 0x31C PUSH1 0x4 DUP1 CALLDATASIZE SUB DUP2 ADD SWAP1 PUSH2 0x317 SWAP2 SWAP1 PUSH2 0xAC4 JUMP JUMPDEST PUSH2 0x833 JUMP JUMPDEST STOP JUMPDEST PUSH2 0x338 PUSH1 0x4 DUP1 CALLDATASIZE SUB DUP2 ADD SWAP1 PUSH2 0x333 SWAP2 SWAP1 PUSH2 0x9F7 JUMP JUMPDEST PUSH2 0x8F1 JUMP JUMPDEST PUSH1 0x40 MLOAD PUSH2 0x345 SWAP2 SWAP1 PUSH2 0x9DC JUMP JUMPDEST PUSH1 0x40 MLOAD DUP1 SWAP2 SUB SWAP1 RETURN JUMPDEST PUSH2 0x368 PUSH1 0x4 DUP1 CALLDATASIZE SUB DUP2 ADD SWAP1 PUSH2 0x363 SWAP2 SWAP1 PUSH2 0xAC4 JUMP JUMPDEST PUSH2 0x93C JUMP JUMPDEST PUSH1 0x40 MLOAD PUSH2 0x375 SWAP2 SWAP1 PUSH2 0xA3D JUMP JUMPDEST PUSH1 0x40 MLOAD DUP1 SWAP2 SUB SWAP1 RETURN JUMPDEST PUSH1 0x0 DUP1 DUP4 EQ DUP1 PUSH2 0x38E JUMPI POP PUSH1 0x0 DUP3 EQ JUMPDEST ISZERO PUSH2 0x39C JUMPI PUSH1 0x0 SWAP1 POP PUSH2 0x3FC JUMP JUMPDEST PUSH1 0x0 DUP3 SGT ISZERO PUSH2 0x3CD JUMPI PUSH2 0x3BB DUP4 PUSH1 0x1 DUP5 PUSH2 0x3B6 SWAP2 SWAP1 PUSH2 0xBC6 JUMP JUMPDEST PUSH2 0x37E JUMP JUMPDEST DUP4 PUSH2 0x3C6 SWAP2 SWAP1 PUSH2 0xC09 JUMP JUMPDEST SWAP1 POP PUSH2 0x3FC JUMP JUMPDEST PUSH1 0x0 DUP3 SLT ISZERO PUSH2 0x3FB JUMPI PUSH2 0x3E0 DUP4 DUP4 PUSH2 0x37E JUMP JUMPDEST DUP4 PUSH2 0x3EB SWAP2 SWAP1 PUSH2 0xC09 JUMP JUMPDEST PUSH2 0x3F4 SWAP1 PUSH2 0xC4D JUMP JUMPDEST SWAP1 POP PUSH2 0x3FC JUMP JUMPDEST JUMPDEST SWAP3 SWAP2 POP POP JUMP JUMPDEST PUSH1 0x0 DUP1 PUSH1 0x2 DUP4 PUSH2 0x412 SWAP2 SWAP1 PUSH2 0xCC4 JUMP JUMPDEST SUB PUSH2 0x420 JUMPI PUSH1 0x1 SWAP1 POP PUSH2 0x425 JUMP JUMPDEST PUSH1 0x0 SWAP1 POP JUMPDEST SWAP2 SWAP1 POP JUMP JUMPDEST PUSH1 0x0 DUP2 DUP4 PUSH2 0x438 SWAP2 SWAP1 PUSH2 0xE28 JUMP JUMPDEST SWAP1 POP SWAP3 SWAP2 POP POP JUMP JUMPDEST PUSH1 0x0 PUSH1 0x1 SWAP1 POP PUSH1 0x0 PUSH1 0x2 SWAP1 POP DUP1 DUP3 DUP1 SWAP3 POP DUP2 SWAP4 POP POP POP POP POP JUMP JUMPDEST PUSH1 0x0 DUP1 DUP3 SWAP1 POP PUSH1 0x0 PUSH1 0x1 SWAP1 POP JUMPDEST PUSH1 0x0 DUP3 EQ PUSH2 0x4A3 JUMPI PUSH1 0x0 PUSH1 0xA DUP4 PUSH2 0x47E SWAP2 SWAP1 PUSH2 0xE73 JUMP JUMPDEST SWAP1 POP DUP1 DUP3 PUSH2 0x48C SWAP2 SWAP1 PUSH2 0xEA4 JUMP JUMPDEST SWAP2 POP PUSH1 0xA DUP4 PUSH2 0x49B SWAP2 SWAP1 PUSH2 0xEE6 JUMP JUMPDEST SWAP3 POP POP PUSH2 0x467 JUMP JUMPDEST DUP1 SWAP3 POP POP POP SWAP2 SWAP1 POP JUMP JUMPDEST PUSH1 0x0 DUP1 DUP3 SWAP1 POP PUSH1 0x0 DUP1 JUMPDEST PUSH1 0x0 DUP4 EQ PUSH2 0x4E1 JUMPI DUP2 DUP1 PUSH2 0x4CA SWAP1 PUSH2 0xF17 JUMP JUMPDEST SWAP3 POP POP PUSH1 0xA DUP4 PUSH2 0x4DA SWAP2 SWAP1 PUSH2 0xEE6 JUMP JUMPDEST SWAP3 POP PUSH2 0x4B7 JUMP JUMPDEST PUSH1 0x0 DUP3 SUB PUSH2 0x524 JUMPI PUSH1 0x40 MLOAD PUSH32 0x8C379A000000000000000000000000000000000000000000000000000000000 DUP2 MSTORE PUSH1 0x4 ADD PUSH2 0x51B SWAP1 PUSH2 0xFBC JUMP JUMPDEST PUSH1 0x40 MLOAD DUP1 SWAP2 SUB SWAP1 REVERT JUMPDEST DUP5 SWAP3 POP JUMPDEST PUSH1 0x0 DUP4 EQ PUSH2 0x56F JUMPI PUSH1 0x0 PUSH1 0xA DUP5 PUSH2 0x53F SWAP2 SWAP1 PUSH2 0xE73 JUMP JUMPDEST SWAP1 POP DUP3 DUP2 PUSH2 0x54D SWAP2 SWAP1 PUSH2 0xE28 JUMP JUMPDEST DUP3 PUSH2 0x558 SWAP2 SWAP1 PUSH2 0xFDC JUMP JUMPDEST SWAP2 POP PUSH1 0xA DUP5 PUSH2 0x567 SWAP2 SWAP1 PUSH2 0xEE6 JUMP JUMPDEST SWAP4 POP POP PUSH2 0x528 JUMP JUMPDEST DUP1 DUP6 EQ PUSH2 0x57D JUMPI PUSH1 0x0 PUSH2 0x580 JUMP JUMPDEST PUSH1 0x1 JUMPDEST PUSH1 0xFF AND SWAP4 POP POP POP POP SWAP2 SWAP1 POP JUMP JUMPDEST PUSH1 0x0 DUP1 DUP3 SWAP1 POP PUSH1 0x0 JUMPDEST PUSH1 0x0 DUP3 EQ PUSH2 0x5D2 JUMPI PUSH1 0x0 PUSH1 0xA DUP4 PUSH2 0x5AD SWAP2 SWAP1 PUSH2 0xE73 JUMP JUMPDEST SWAP1 POP DUP1 DUP3 PUSH2 0x5BB SWAP2 SWAP1 PUSH2 0xFDC JUMP JUMPDEST SWAP2 POP PUSH1 0xA DUP4 PUSH2 0x5CA SWAP2 SWAP1 PUSH2 0xEE6 JUMP JUMPDEST SWAP3 POP POP PUSH2 0x596 JUMP JUMPDEST DUP1 SWAP3 POP POP POP SWAP2 SWAP1 POP JUMP JUMPDEST PUSH1 0x0 PUSH1 0x3 DUP3 DUP5 DUP7 PUSH2 0x5ED SWAP2 SWAP1 PUSH2 0xFDC JUMP JUMPDEST PUSH2 0x5F7 SWAP2 SWAP1 PUSH2 0xFDC JUMP JUMPDEST PUSH2 0x601 SWAP2 SWAP1 PUSH2 0xEE6 JUMP JUMPDEST SWAP1 POP SWAP4 SWAP3 POP POP POP JUMP JUMPDEST PUSH1 0x0 DUP1 PUSH1 0x0 DUP4 SWAP1 POP JUMPDEST PUSH1 0x0 DUP2 EQ PUSH2 0x65B JUMPI PUSH1 0x0 PUSH1 0xA DUP3 PUSH2 0x62A SWAP2 SWAP1 PUSH2 0xE73 JUMP JUMPDEST SWAP1 POP DUP1 PUSH1 0xA DUP5 PUSH2 0x63A SWAP2 SWAP1 PUSH2 0xEA4 JUMP JUMPDEST PUSH2 0x644 SWAP2 SWAP1 PUSH2 0xFDC JUMP JUMPDEST SWAP3 POP PUSH1 0xA DUP3 PUSH2 0x653 SWAP2 SWAP1 PUSH2 0xEE6 JUMP JUMPDEST SWAP2 POP POP PUSH2 0x613 JUMP JUMPDEST DUP2 SWAP3 POP POP POP SWAP2 SWAP1 POP JUMP JUMPDEST PUSH1 0x0 DUP1 PUSH1 0x0 SWAP1 POP JUMPDEST PUSH1 0x2 PUSH1 0x0 PUSH1 0x40 MLOAD PUSH2 0x67D SWAP1 PUSH2 0x1067 JUMP JUMPDEST SWAP1 DUP2 MSTORE PUSH1 0x20 ADD PUSH1 0x40 MLOAD DUP1 SWAP2 SUB SWAP1 KECCAK256 DUP1 SLOAD SWAP1 POP PUSH2 0x699 SWAP2 SWAP1 PUSH2 0x107C JUMP JUMPDEST DUP2 LT ISZERO PUSH2 0x78F JUMPI PUSH1 0x0 PUSH1 0x40 MLOAD PUSH2 0x6AE SWAP1 PUSH2 0x1067 JUMP JUMPDEST SWAP1 DUP2 MSTORE PUSH1 0x20 ADD PUSH1 0x40 MLOAD DUP1 SWAP2 SUB SWAP1 KECCAK256 PUSH1 0x2 DUP3 PUSH2 0x6C9 SWAP2 SWAP1 PUSH2 0xFDC JUMP JUMPDEST DUP2 SLOAD DUP2 LT PUSH2 0x6DA JUMPI PUSH2 0x6D9 PUSH2 0x10B0 JUMP JUMPDEST JUMPDEST SWAP1 PUSH1 0x0 MSTORE PUSH1 0x20 PUSH1 0x0 KECCAK256 ADD SLOAD PUSH1 0x0 PUSH1 0x40 MLOAD PUSH2 0x6F3 SWAP1 PUSH2 0x1067 JUMP JUMPDEST SWAP1 DUP2 MSTORE PUSH1 0x20 ADD PUSH1 0x40 MLOAD DUP1 SWAP2 SUB SWAP1 KECCAK256 PUSH1 0x1 DUP4 PUSH2 0x70E SWAP2 SWAP1 PUSH2 0xFDC JUMP JUMPDEST DUP2 SLOAD DUP2 LT PUSH2 0x71F JUMPI PUSH2 0x71E PUSH2 0x10B0 JUMP JUMPDEST JUMPDEST SWAP1 PUSH1 0x0 MSTORE PUSH1 0x20 PUSH1 0x0 KECCAK256 ADD SLOAD PUSH2 0x734 SWAP2 SWAP1 PUSH2 0xFDC JUMP JUMPDEST PUSH1 0x0 PUSH1 0x40 MLOAD PUSH2 0x742 SWAP1 PUSH2 0x1067 JUMP JUMPDEST SWAP1 DUP2 MSTORE PUSH1 0x20 ADD PUSH1 0x40 MLOAD DUP1 SWAP2 SUB SWAP1 KECCAK256 DUP3 DUP2 SLOAD DUP2 LT PUSH2 0x762 JUMPI PUSH2 0x761 PUSH2 0x10B0 JUMP JUMPDEST JUMPDEST SWAP1 PUSH1 0x0 MSTORE PUSH1 0x20 PUSH1 0x0 KECCAK256 ADD SLOAD EQ PUSH2 0x77C JUMPI PUSH1 0x0 SWAP2 POP POP PUSH2 0x795 JUMP JUMPDEST DUP1 DUP1 PUSH2 0x787 SWAP1 PUSH2 0xF17 JUMP JUMPDEST SWAP2 POP POP PUSH2 0x66D JUMP JUMPDEST POP PUSH1 0x1 SWAP1 POP JUMPDEST SWAP1 JUMP JUMPDEST PUSH1 0x0 DUP1 DUP3 SWAP1 POP PUSH1 0x0 JUMPDEST PUSH1 0x0 DUP3 EQ PUSH2 0x7E9 JUMPI PUSH1 0x0 PUSH1 0xA DUP4 PUSH2 0x7B8 SWAP2 SWAP1 PUSH2 0xE73 JUMP JUMPDEST SWAP1 POP DUP1 PUSH1 0xA DUP4 PUSH2 0x7C8 SWAP2 SWAP1 PUSH2 0xEA4 JUMP JUMPDEST PUSH2 0x7D2 SWAP2 SWAP1 PUSH2 0xFDC JUMP JUMPDEST SWAP2 POP PUSH1 0xA DUP4 PUSH2 0x7E1 SWAP2 SWAP1 PUSH2 0xEE6 JUMP JUMPDEST SWAP3 POP POP PUSH2 0x7A1 JUMP JUMPDEST DUP4 DUP2 EQ PUSH2 0x7F7 JUMPI PUSH1 0x0 PUSH2 0x7FA JUMP JUMPDEST PUSH1 0x1 JUMPDEST PUSH1 0xFF AND SWAP3 POP POP POP SWAP2 SWAP1 POP JUMP JUMPDEST PUSH1 0x0 DUP1 DUP4 DUP6 SGT PUSH2 0x816 JUMPI DUP4 PUSH2 0x818 JUMP JUMPDEST DUP5 JUMPDEST SWAP1 POP DUP3 DUP2 SGT PUSH2 0x827 JUMPI DUP3 PUSH2 0x829 JUMP JUMPDEST DUP1 JUMPDEST SWAP2 POP POP SWAP4 SWAP3 POP POP POP JUMP JUMPDEST PUSH1 0x0 DUP2 SUB PUSH2 0x876 JUMPI PUSH1 0x40 MLOAD PUSH32 0x8C379A000000000000000000000000000000000000000000000000000000000 DUP2 MSTORE PUSH1 0x4 ADD PUSH2 0x86D SWAP1 PUSH2 0x112B JUMP JUMPDEST PUSH1 0x40 MLOAD DUP1 SWAP2 SUB SWAP1 REVERT JUMPDEST PUSH1 0x0 DUP2 SWAP1 POP JUMPDEST PUSH1 0x0 DUP2 EQ PUSH2 0x8ED JUMPI PUSH1 0x0 PUSH1 0xA DUP3 PUSH2 0x893 SWAP2 SWAP1 PUSH2 0xE73 JUMP JUMPDEST SWAP1 POP PUSH1 0x0 PUSH1 0x40 MLOAD PUSH2 0x8A3 SWAP1 PUSH2 0x1067 JUMP JUMPDEST SWAP1 DUP2 MSTORE PUSH1 0x20 ADD PUSH1 0x40 MLOAD DUP1 SWAP2 SUB SWAP1 KECCAK256 DUP2 SWAP1 DUP1 PUSH1 0x1 DUP2 SLOAD ADD DUP1 DUP3 SSTORE DUP1 SWAP2 POP POP PUSH1 0x1 SWAP1 SUB SWAP1 PUSH1 0x0 MSTORE PUSH1 0x20 PUSH1 0x0 KECCAK256 ADD PUSH1 0x0 SWAP1 SWAP2 SWAP1 SWAP2 SWAP1 SWAP2 POP SSTORE PUSH1 0xA DUP3 PUSH2 0x8E5 SWAP2 SWAP1 PUSH2 0xEE6 JUMP JUMPDEST SWAP2 POP POP PUSH2 0x87C JUMP JUMPDEST POP POP JUMP JUMPDEST PUSH1 0x0 DUP1 PUSH1 0x2 SWAP1 POP JUMPDEST DUP3 DUP2 SLT ISZERO PUSH2 0x931 JUMPI PUSH1 0x0 DUP2 DUP5 PUSH2 0x90F SWAP2 SWAP1 PUSH2 0xCC4 JUMP JUMPDEST SUB PUSH2 0x91E JUMPI PUSH1 0x0 SWAP2 POP POP PUSH2 0x937 JUMP JUMPDEST DUP1 DUP1 PUSH2 0x929 SWAP1 PUSH2 0x114B JUMP JUMPDEST SWAP2 POP POP PUSH2 0x8F9 JUMP JUMPDEST POP PUSH1 0x1 SWAP1 POP JUMPDEST SWAP2 SWAP1 POP JUMP JUMPDEST PUSH1 0x0 PUSH1 0x2 DUP3 PUSH2 0x94B SWAP2 SWAP1 PUSH2 0x11A0 JUMP JUMPDEST SWAP1 POP SWAP2 SWAP1 POP JUMP JUMPDEST PUSH1 0x0 DUP1 REVERT JUMPDEST PUSH1 0x0 DUP2 SWAP1 POP SWAP2 SWAP1 POP JUMP JUMPDEST PUSH2 0x96A DUP2 PUSH2 0x957 JUMP JUMPDEST DUP2 EQ PUSH2 0x975 JUMPI PUSH1 0x0 DUP1 REVERT JUMPDEST POP JUMP JUMPDEST PUSH1 0x0 DUP2 CALLDATALOAD SWAP1 POP PUSH2 0x987 DUP2 PUSH2 0x961 JUMP JUMPDEST SWAP3 SWAP2 POP POP JUMP JUMPDEST PUSH1 0x0 DUP1 PUSH1 0x40 DUP4 DUP6 SUB SLT ISZERO PUSH2 0x9A4 JUMPI PUSH2 0x9A3 PUSH2 0x952 JUMP JUMPDEST JUMPDEST PUSH1 0x0 PUSH2 0x9B2 DUP6 DUP3 DUP7 ADD PUSH2 0x978 JUMP JUMPDEST SWAP3 POP POP PUSH1 0x20 PUSH2 0x9C3 DUP6 DUP3 DUP7 ADD PUSH2 0x978 JUMP JUMPDEST SWAP2 POP POP SWAP3 POP SWAP3 SWAP1 POP JUMP JUMPDEST PUSH2 0x9D6 DUP2 PUSH2 0x957 JUMP JUMPDEST DUP3 MSTORE POP POP JUMP JUMPDEST PUSH1 0x0 PUSH1 0x20 DUP3 ADD SWAP1 POP PUSH2 0x9F1 PUSH1 0x0 DUP4 ADD DUP5 PUSH2 0x9CD JUMP JUMPDEST SWAP3 SWAP2 POP POP JUMP JUMPDEST PUSH1 0x0 PUSH1 0x20 DUP3 DUP5 SUB SLT ISZERO PUSH2 0xA0D JUMPI PUSH2 0xA0C PUSH2 0x952 JUMP JUMPDEST JUMPDEST PUSH1 0x0 PUSH2 0xA1B DUP5 DUP3 DUP6 ADD PUSH2 0x978 JUMP JUMPDEST SWAP2 POP POP SWAP3 SWAP2 POP POP JUMP JUMPDEST PUSH1 0x0 DUP2 SWAP1 POP SWAP2 SWAP1 POP JUMP JUMPDEST PUSH2 0xA37 DUP2 PUSH2 0xA24 JUMP JUMPDEST DUP3 MSTORE POP POP JUMP JUMPDEST PUSH1 0x0 PUSH1 0x20 DUP3 ADD SWAP1 POP PUSH2 0xA52 PUSH1 0x0 DUP4 ADD DUP5 PUSH2 0xA2E JUMP JUMPDEST SWAP3 SWAP2 POP POP JUMP JUMPDEST PUSH2 0xA61 DUP2 PUSH2 0xA24 JUMP JUMPDEST DUP2 EQ PUSH2 0xA6C JUMPI PUSH1 0x0 DUP1 REVERT JUMPDEST POP JUMP JUMPDEST PUSH1 0x0 DUP2 CALLDATALOAD SWAP1 POP PUSH2 0xA7E DUP2 PUSH2 0xA58 JUMP JUMPDEST SWAP3 SWAP2 POP POP JUMP JUMPDEST PUSH1 0x0 DUP1 PUSH1 0x40 DUP4 DUP6 SUB SLT ISZERO PUSH2 0xA9B JUMPI PUSH2 0xA9A PUSH2 0x952 JUMP JUMPDEST JUMPDEST PUSH1 0x0 PUSH2 0xAA9 DUP6 DUP3 DUP7 ADD PUSH2 0xA6F JUMP JUMPDEST SWAP3 POP POP PUSH1 0x20 PUSH2 0xABA DUP6 DUP3 DUP7 ADD PUSH2 0xA6F JUMP JUMPDEST SWAP2 POP POP SWAP3 POP SWAP3 SWAP1 POP JUMP JUMPDEST PUSH1 0x0 PUSH1 0x20 DUP3 DUP5 SUB SLT ISZERO PUSH2 0xADA JUMPI PUSH2 0xAD9 PUSH2 0x952 JUMP JUMPDEST JUMPDEST PUSH1 0x0 PUSH2 0xAE8 DUP5 DUP3 DUP6 ADD PUSH2 0xA6F JUMP JUMPDEST SWAP2 POP POP SWAP3 SWAP2 POP POP JUMP JUMPDEST PUSH1 0x0 DUP1 PUSH1 0x0 PUSH1 0x60 DUP5 DUP7 SUB SLT ISZERO PUSH2 0xB0A JUMPI PUSH2 0xB09 PUSH2 0x952 JUMP JUMPDEST JUMPDEST PUSH1 0x0 PUSH2 0xB18 DUP7 DUP3 DUP8 ADD PUSH2 0xA6F JUMP JUMPDEST SWAP4 POP POP PUSH1 0x20 PUSH2 0xB29 DUP7 DUP3 DUP8 ADD PUSH2 0xA6F JUMP JUMPDEST SWAP3 POP POP PUSH1 0x40 PUSH2 0xB3A DUP7 DUP3 DUP8 ADD PUSH2 0xA6F JUMP JUMPDEST SWAP2 POP POP SWAP3 POP SWAP3 POP SWAP3 JUMP JUMPDEST PUSH1 0x0 DUP1 PUSH1 0x0 PUSH1 0x60 DUP5 DUP7 SUB SLT ISZERO PUSH2 0xB5D JUMPI PUSH2 0xB5C PUSH2 0x952 JUMP JUMPDEST JUMPDEST PUSH1 0x0 PUSH2 0xB6B DUP7 DUP3 DUP8 ADD PUSH2 0x978 JUMP JUMPDEST SWAP4 POP POP PUSH1 0x20 PUSH2 0xB7C DUP7 DUP3 DUP8 ADD PUSH2 0x978 JUMP JUMPDEST SWAP3 POP POP PUSH1 0x40 PUSH2 0xB8D DUP7 DUP3 DUP8 ADD PUSH2 0x978 JUMP JUMPDEST SWAP2 POP POP SWAP3 POP SWAP3 POP SWAP3 JUMP JUMPDEST PUSH32 0x4E487B7100000000000000000000000000000000000000000000000000000000 PUSH1 0x0 MSTORE PUSH1 0x11 PUSH1 0x4 MSTORE PUSH1 0x24 PUSH1 0x0 REVERT JUMPDEST PUSH1 0x0 PUSH2 0xBD1 DUP3 PUSH2 0x957 JUMP JUMPDEST SWAP2 POP PUSH2 0xBDC DUP4 PUSH2 0x957 JUMP JUMPDEST SWAP3 POP DUP3 DUP3 SUB SWAP1 POP DUP2 DUP2 SLT PUSH1 0x0 DUP5 SLT AND DUP3 DUP3 SGT PUSH1 0x0 DUP6 SLT ISZERO AND OR ISZERO PUSH2 0xC03 JUMPI PUSH2 0xC02 PUSH2 0xB97 JUMP JUMPDEST JUMPDEST SWAP3 SWAP2 POP POP JUMP JUMPDEST PUSH1 0x0 PUSH2 0xC14 DUP3 PUSH2 0x957 JUMP JUMPDEST SWAP2 POP PUSH2 0xC1F DUP4 PUSH2 0x957 JUMP JUMPDEST SWAP3 POP DUP3 DUP3 ADD SWAP1 POP DUP3 DUP2 SLT ISZERO PUSH1 0x0 DUP4 SLT AND DUP4 DUP3 SLT PUSH1 0x0 DUP5 SLT ISZERO AND OR ISZERO PUSH2 0xC47 JUMPI PUSH2 0xC46 PUSH2 0xB97 JUMP JUMPDEST JUMPDEST SWAP3 SWAP2 POP POP JUMP JUMPDEST PUSH1 0x0 PUSH2 0xC58 DUP3 PUSH2 0x957 JUMP JUMPDEST SWAP2 POP PUSH32 0x8000000000000000000000000000000000000000000000000000000000000000 DUP3 SUB PUSH2 0xC8A JUMPI PUSH2 0xC89 PUSH2 0xB97 JUMP JUMPDEST JUMPDEST DUP2 PUSH1 0x0 SUB SWAP1 POP SWAP2 SWAP1 POP JUMP JUMPDEST PUSH32 0x4E487B7100000000000000000000000000000000000000000000000000000000 PUSH1 0x0 MSTORE PUSH1 0x12 PUSH1 0x4 MSTORE PUSH1 0x24 PUSH1 0x0 REVERT JUMPDEST PUSH1 0x0 PUSH2 0xCCF DUP3 PUSH2 0x957 JUMP JUMPDEST SWAP2 POP PUSH2 0xCDA DUP4 PUSH2 0x957 JUMP JUMPDEST SWAP3 POP DUP3 PUSH2 0xCEA JUMPI PUSH2 0xCE9 PUSH2 0xC95 JUMP JUMPDEST JUMPDEST DUP3 DUP3 SMOD SWAP1 POP SWAP3 SWAP2 POP POP JUMP JUMPDEST PUSH1 0x0 DUP2 PUSH1 0x1 SHR SWAP1 POP SWAP2 SWAP1 POP JUMP JUMPDEST PUSH1 0x0 DUP1 DUP3 SWAP2 POP DUP4 SWAP1 POP JUMPDEST PUSH1 0x1 DUP6 GT ISZERO PUSH2 0xD4C JUMPI DUP1 DUP7 DIV DUP2 GT ISZERO PUSH2 0xD28 JUMPI PUSH2 0xD27 PUSH2 0xB97 JUMP JUMPDEST JUMPDEST PUSH1 0x1 DUP6 AND ISZERO PUSH2 0xD37 JUMPI DUP1 DUP3 MUL SWAP2 POP JUMPDEST DUP1 DUP2 MUL SWAP1 POP PUSH2 0xD45 DUP6 PUSH2 0xCF5 JUMP JUMPDEST SWAP5 POP PUSH2 0xD0C JUMP JUMPDEST SWAP5 POP SWAP5 SWAP3 POP POP POP JUMP JUMPDEST PUSH1 0x0 DUP3 PUSH2 0xD65 JUMPI PUSH1 0x1 SWAP1 POP PUSH2 0xE21 JUMP JUMPDEST DUP2 PUSH2 0xD73 JUMPI PUSH1 0x0 SWAP1 POP PUSH2 0xE21 JUMP JUMPDEST DUP2 PUSH1 0x1 DUP2 EQ PUSH2 0xD89 JUMPI PUSH1 0x2 DUP2 EQ PUSH2 0xD93 JUMPI PUSH2 0xDC2 JUMP JUMPDEST PUSH1 0x1 SWAP2 POP POP PUSH2 0xE21 JUMP JUMPDEST PUSH1 0xFF DUP5 GT ISZERO PUSH2 0xDA5 JUMPI PUSH2 0xDA4 PUSH2 0xB97 JUMP JUMPDEST JUMPDEST DUP4 PUSH1 0x2 EXP SWAP2 POP DUP5 DUP3 GT ISZERO PUSH2 0xDBC JUMPI PUSH2 0xDBB PUSH2 0xB97 JUMP JUMPDEST JUMPDEST POP PUSH2 0xE21 JUMP JUMPDEST POP PUSH1 0x20 DUP4 LT PUSH2 0x133 DUP4 LT AND PUSH1 0x4E DUP5 LT PUSH1 0xB DUP5 LT AND OR ISZERO PUSH2 0xDF7 JUMPI DUP3 DUP3 EXP SWAP1 POP DUP4 DUP2 GT ISZERO PUSH2 0xDF2 JUMPI PUSH2 0xDF1 PUSH2 0xB97 JUMP JUMPDEST JUMPDEST PUSH2 0xE21 JUMP JUMPDEST PUSH2 0xE04 DUP5 DUP5 DUP5 PUSH1 0x1 PUSH2 0xD02 JUMP JUMPDEST SWAP3 POP SWAP1 POP DUP2 DUP5 DIV DUP2 GT ISZERO PUSH2 0xE1B JUMPI PUSH2 0xE1A PUSH2 0xB97 JUMP JUMPDEST JUMPDEST DUP2 DUP2 MUL SWAP1 POP JUMPDEST SWAP4 SWAP3 POP POP POP JUMP JUMPDEST PUSH1 0x0 PUSH2 0xE33 DUP3 PUSH2 0xA24 JUMP JUMPDEST SWAP2 POP PUSH2 0xE3E DUP4 PUSH2 0xA24 JUMP JUMPDEST SWAP3 POP PUSH2 0xE6B PUSH32 0xFFFFFFFFFFFFFFFFFFFFFFFFFFFFFFFFFFFFFFFFFFFFFFFFFFFFFFFFFFFFFFFF DUP5 DUP5 PUSH2 0xD55 JUMP JUMPDEST SWAP1 POP SWAP3 SWAP2 POP POP JUMP JUMPDEST PUSH1 0x0 PUSH2 0xE7E DUP3 PUSH2 0xA24 JUMP JUMPDEST SWAP2 POP PUSH2 0xE89 DUP4 PUSH2 0xA24 JUMP JUMPDEST SWAP3 POP DUP3 PUSH2 0xE99 JUMPI PUSH2 0xE98 PUSH2 0xC95 JUMP JUMPDEST JUMPDEST DUP3 DUP3 MOD SWAP1 POP SWAP3 SWAP2 POP POP JUMP JUMPDEST PUSH1 0x0 PUSH2 0xEAF DUP3 PUSH2 0xA24 JUMP JUMPDEST SWAP2 POP PUSH2 0xEBA DUP4 PUSH2 0xA24 JUMP JUMPDEST SWAP3 POP DUP3 DUP3 MUL PUSH2 0xEC8 DUP2 PUSH2 0xA24 JUMP JUMPDEST SWAP2 POP DUP3 DUP3 DIV DUP5 EQ DUP4 ISZERO OR PUSH2 0xEDF JUMPI PUSH2 0xEDE PUSH2 0xB97 JUMP JUMPDEST JUMPDEST POP SWAP3 SWAP2 POP POP JUMP JUMPDEST PUSH1 0x0 PUSH2 0xEF1 DUP3 PUSH2 0xA24 JUMP JUMPDEST SWAP2 POP PUSH2 0xEFC DUP4 PUSH2 0xA24 JUMP JUMPDEST SWAP3 POP DUP3 PUSH2 0xF0C JUMPI PUSH2 0xF0B PUSH2 0xC95 JUMP JUMPDEST JUMPDEST DUP3 DUP3 DIV SWAP1 POP SWAP3 SWAP2 POP POP JUMP JUMPDEST PUSH1 0x0 PUSH2 0xF22 DUP3 PUSH2 0xA24 JUMP JUMPDEST SWAP2 POP PUSH32 0xFFFFFFFFFFFFFFFFFFFFFFFFFFFFFFFFFFFFFFFFFFFFFFFFFFFFFFFFFFFFFFFF DUP3 SUB PUSH2 0xF54 JUMPI PUSH2 0xF53 PUSH2 0xB97 JUMP JUMPDEST JUMPDEST PUSH1 0x1 DUP3 ADD SWAP1 POP SWAP2 SWAP1 POP JUMP JUMPDEST PUSH1 0x0 DUP3 DUP3 MSTORE PUSH1 0x20 DUP3 ADD SWAP1 POP SWAP3 SWAP2 POP POP JUMP JUMPDEST PUSH32 0x6E6F7420612076616C6964206E756D6265720000000000000000000000000000 PUSH1 0x0 DUP3 ADD MSTORE POP JUMP JUMPDEST PUSH1 0x0 PUSH2 0xFA6 PUSH1 0x12 DUP4 PUSH2 0xF5F JUMP JUMPDEST SWAP2 POP PUSH2 0xFB1 DUP3 PUSH2 0xF70 JUMP JUMPDEST PUSH1 0x20 DUP3 ADD SWAP1 POP SWAP2 SWAP1 POP JUMP JUMPDEST PUSH1 0x0 PUSH1 0x20 DUP3 ADD SWAP1 POP DUP2 DUP2 SUB PUSH1 0x0 DUP4 ADD MSTORE PUSH2 0xFD5 DUP2 PUSH2 0xF99 JUMP JUMPDEST SWAP1 POP SWAP2 SWAP1 POP JUMP JUMPDEST PUSH1 0x0 PUSH2 0xFE7 DUP3 PUSH2 0xA24 JUMP JUMPDEST SWAP2 POP PUSH2 0xFF2 DUP4 PUSH2 0xA24 JUMP JUMPDEST SWAP3 POP DUP3 DUP3 ADD SWAP1 POP DUP1 DUP3 GT ISZERO PUSH2 0x100A JUMPI PUSH2 0x1009 PUSH2 0xB97 JUMP JUMPDEST JUMPDEST SWAP3 SWAP2 POP POP JUMP JUMPDEST PUSH1 0x0 DUP2 SWAP1 POP SWAP3 SWAP2 POP POP JUMP JUMPDEST PUSH32 0x6E756D4172720000000000000000000000000000000000000000000000000000 PUSH1 0x0 DUP3 ADD MSTORE POP JUMP JUMPDEST PUSH1 0x0 PUSH2 0x1051 PUSH1 0x6 DUP4 PUSH2 0x1010 JUMP JUMPDEST SWAP2 POP PUSH2 0x105C DUP3 PUSH2 0x101B JUMP JUMPDEST PUSH1 0x6 DUP3 ADD SWAP1 POP SWAP2 SWAP1 POP JUMP JUMPDEST PUSH1 0x0 PUSH2 0x1072 DUP3 PUSH2 0x1044 JUMP JUMPDEST SWAP2 POP DUP2 SWAP1 POP SWAP2 SWAP1 POP JUMP JUMPDEST PUSH1 0x0 PUSH2 0x1087 DUP3 PUSH2 0xA24 JUMP JUMPDEST SWAP2 POP PUSH2 0x1092 DUP4 PUSH2 0xA24 JUMP JUMPDEST SWAP3 POP DUP3 DUP3 SUB SWAP1 POP DUP2 DUP2 GT ISZERO PUSH2 0x10AA JUMPI PUSH2 0x10A9 PUSH2 0xB97 JUMP JUMPDEST JUMPDEST SWAP3 SWAP2 POP POP JUMP JUMPDEST PUSH32 0x4E487B7100000000000000000000000000000000000000000000000000000000 PUSH1 0x0 MSTORE PUSH1 0x32 PUSH1 0x4 MSTORE PUSH1 0x24 PUSH1 0x0 REVERT JUMPDEST PUSH32 0x6E6F7420412076616C6964206E756D6265720000000000000000000000000000 PUSH1 0x0 DUP3 ADD MSTORE POP JUMP JUMPDEST PUSH1 0x0 PUSH2 0x1115 PUSH1 0x12 DUP4 PUSH2 0xF5F JUMP JUMPDEST SWAP2 POP PUSH2 0x1120 DUP3 PUSH2 0x10DF JUMP JUMPDEST PUSH1 0x20 DUP3 ADD SWAP1 POP SWAP2 SWAP1 POP JUMP JUMPDEST PUSH1 0x0 PUSH1 0x20 DUP3 ADD SWAP1 POP DUP2 DUP2 SUB PUSH1 0x0 DUP4 ADD MSTORE PUSH2 0x1144 DUP2 PUSH2 0x1108 JUMP JUMPDEST SWAP1 POP SWAP2 SWAP1 POP JUMP JUMPDEST PUSH1 0x0 PUSH2 0x1156 DUP3 PUSH2 0x957 JUMP JUMPDEST SWAP2 POP PUSH32 0x7FFFFFFFFFFFFFFFFFFFFFFFFFFFFFFFFFFFFFFFFFFFFFFFFFFFFFFFFFFFFFFF DUP3 SUB PUSH2 0x1188 JUMPI PUSH2 0x1187 PUSH2 0xB97 JUMP JUMPDEST JUMPDEST PUSH1 0x1 DUP3 ADD SWAP1 POP SWAP2 SWAP1 POP JUMP JUMPDEST PUSH1 0x0 PUSH1 0xFF DUP3 AND SWAP1 POP SWAP2 SWAP1 POP JUMP JUMPDEST PUSH1 0x0 PUSH2 0x11AB DUP3 PUSH2 0xA24 JUMP JUMPDEST SWAP2 POP PUSH2 0x11B6 DUP4 PUSH2 0x1193 JUMP JUMPDEST SWAP3 POP PUSH2 0x11E3 PUSH32 0xFFFFFFFFFFFFFFFFFFFFFFFFFFFFFFFFFFFFFFFFFFFFFFFFFFFFFFFFFFFFFFFF DUP5 DUP5 PUSH2 0xD55 JUMP JUMPDEST SWAP1 POP SWAP3 SWAP2 POP POP JUMP INVALID LOG2 PUSH5 0x6970667358 0x22 SLT KECCAK256 DUP4 0x5F NOT 0xCE PUSH31 0xA98C26BEF9AC1C7772404B749D27CBEB2F0BFA5381A205EA79594C64736F6C PUSH4 0x43000811 STOP CALLER "
		},
		"gasEstimates": {
			"creation": {
				"codeDepositCost": "928200",
				"executionCost": "968",
				"totalCost": "929168"
			},
			"external": {
				"Palindrome(uint256)": "infinite",
				"amstrong(uint256)": "infinite",
				"avg(uint256,uint256,uint256)": "infinite",
				"cube(uint256)": "infinite",
				"expo(uint256,uint256)": "infinite",
				"factorial(uint256)": "infinite",
				"fibonnical(uint256)": "infinite",
				"fibonnicalResult()": "infinite",
				"greater(int256,int256,int256)": "infinite",
				"multiple_with_no_Op(int256,int256)": "infinite",
				"oddOrEven(int256)": "infinite",
				"prime(int256)": "infinite",
				"reverseInt(uint256)": "infinite",
				"sumOfDigits(uint256)": "infinite",
				"swap()": "219"
			}
		},
		"methodIdentifiers": {
			"Palindrome(uint256)": "cdab7807",
			"amstrong(uint256)": "83d3705e",
			"avg(uint256,uint256,uint256)": "92cc2841",
			"cube(uint256)": "f4bf03c7",
			"expo(uint256,uint256)": "4f4752ba",
			"factorial(uint256)": "83714834",
			"fibonnical(uint256)": "f26c79ef",
			"fibonnicalResult()": "b4133721",
			"greater(int256,int256,int256)": "d9ea8e64",
			"multiple_with_no_Op(int256,int256)": "17d95c7e",
			"oddOrEven(int256)": "46439726",
			"prime(int256)": "f492c000",
			"reverseInt(uint256)": "9e098fc1",
			"sumOfDigits(uint256)": "8ce32d21",
			"swap()": "8119c065"
		}
	},
	"abi": [
		{
			"inputs": [
				{
					"internalType": "uint256",
					"name": "_inp",
					"type": "uint256"
				}
			],
			"name": "Palindrome",
			"outputs": [
				{
					"internalType": "uint256",
					"name": "",
					"type": "uint256"
				}
			],
			"stateMutability": "pure",
			"type": "function"
		},
		{
			"inputs": [
				{
					"internalType": "uint256",
					"name": "_inp",
					"type": "uint256"
				}
			],
			"name": "amstrong",
			"outputs": [
				{
					"internalType": "uint256",
					"name": "",
					"type": "uint256"
				}
			],
			"stateMutability": "pure",
			"type": "function"
		},
		{
			"inputs": [
				{
					"internalType": "uint256",
					"name": "num1",
					"type": "uint256"
				},
				{
					"internalType": "uint256",
					"name": "num2",
					"type": "uint256"
				},
				{
					"internalType": "uint256",
					"name": "num3",
					"type": "uint256"
				}
			],
			"name": "avg",
			"outputs": [
				{
					"internalType": "uint256",
					"name": "",
					"type": "uint256"
				}
			],
			"stateMutability": "pure",
			"type": "function"
		},
		{
			"inputs": [
				{
					"internalType": "uint256",
					"name": "_num1",
					"type": "uint256"
				}
			],
			"name": "cube",
			"outputs": [
				{
					"internalType": "uint256",
					"name": "",
					"type": "uint256"
				}
			],
			"stateMutability": "pure",
			"type": "function"
		},
		{
			"inputs": [
				{
					"internalType": "uint256",
					"name": "x",
					"type": "uint256"
				},
				{
					"internalType": "uint256",
					"name": "y",
					"type": "uint256"
				}
			],
			"name": "expo",
			"outputs": [
				{
					"internalType": "uint256",
					"name": "",
					"type": "uint256"
				}
			],
			"stateMutability": "pure",
			"type": "function"
		},
		{
			"inputs": [
				{
					"internalType": "uint256",
					"name": "num",
					"type": "uint256"
				}
			],
			"name": "factorial",
			"outputs": [
				{
					"internalType": "uint256",
					"name": "",
					"type": "uint256"
				}
			],
			"stateMutability": "pure",
			"type": "function"
		},
		{
			"inputs": [
				{
					"internalType": "uint256",
					"name": "num",
					"type": "uint256"
				}
			],
			"name": "fibonnical",
			"outputs": [],
			"stateMutability": "nonpayable",
			"type": "function"
		},
		{
			"inputs": [],
			"name": "fibonnicalResult",
			"outputs": [
				{
					"internalType": "uint256",
					"name": "",
					"type": "uint256"
				}
			],
			"stateMutability": "view",
			"type": "function"
		},
		{
			"inputs": [
				{
					"internalType": "int256",
					"name": "num1",
					"type": "int256"
				},
				{
					"internalType": "int256",
					"name": "num2",
					"type": "int256"
				},
				{
					"internalType": "int256",
					"name": "num3",
					"type": "int256"
				}
			],
			"name": "greater",
			"outputs": [
				{
					"internalType": "int256",
					"name": "",
					"type": "int256"
				}
			],
			"stateMutability": "pure",
			"type": "function"
		},
		{
			"inputs": [
				{
					"internalType": "int256",
					"name": "x",
					"type": "int256"
				},
				{
					"internalType": "int256",
					"name": "y",
					"type": "int256"
				}
			],
			"name": "multiple_with_no_Op",
			"outputs": [
				{
					"internalType": "int256",
					"name": "",
					"type": "int256"
				}
			],
			"stateMutability": "pure",
			"type": "function"
		},
		{
			"inputs": [
				{
					"internalType": "int256",
					"name": "num",
					"type": "int256"
				}
			],
			"name": "oddOrEven",
			"outputs": [
				{
					"internalType": "uint256",
					"name": "",
					"type": "uint256"
				}
			],
			"stateMutability": "pure",
			"type": "function"
		},
		{
			"inputs": [
				{
					"internalType": "int256",
					"name": "num",
					"type": "int256"
				}
			],
			"name": "prime",
			"outputs": [
				{
					"internalType": "int256",
					"name": "",
					"type": "int256"
				}
			],
			"stateMutability": "pure",
			"type": "function"
		},
		{
			"inputs": [
				{
					"internalType": "uint256",
					"name": "_inp",
					"type": "uint256"
				}
			],
			"name": "reverseInt",
			"outputs": [
				{
					"internalType": "uint256",
					"name": "",
					"type": "uint256"
				}
			],
			"stateMutability": "pure",
			"type": "function"
		},
		{
			"inputs": [
				{
					"internalType": "uint256",
					"name": "_inp",
					"type": "uint256"
				}
			],
			"name": "sumOfDigits",
			"outputs": [
				{
					"internalType": "uint256",
					"name": "",
					"type": "uint256"
				}
			],
			"stateMutability": "pure",
			"type": "function"
		},
		{
			"inputs": [],
			"name": "swap",
			"outputs": [],
			"stateMutability": "pure",
			"type": "function"
		}
	]
}