{
	"data": {
		"bytecode": {
			"linkReferences": {},
			"object": "608060405234801561001057600080fd5b50611053806100206000396000f3fe608060405234801561001057600080fd5b50600436106100ea5760003560e01c80639e098fc11161008c578063d9ea8e6411610066578063d9ea8e6414610297578063f26c79ef146102c7578063f492c000146102e3578063f4bf03c714610313576100ea565b80639e098fc114610219578063b413372114610249578063cdab780714610267576100ea565b806383714834116100c8578063837148341461015957806383d3705e146101895780638ce32d21146101b957806392cc2841146101e9576100ea565b806346439726146100ef5780634f4752ba1461011f5780638119c0651461014f575b600080fd5b610109600480360381019061010491906108ce565b610343565b6040516101169190610914565b60405180910390f35b6101396004803603810190610134919061095b565b61036b565b6040516101469190610914565b60405180910390f35b610157610381565b005b610173600480360381019061016e919061099b565b61039b565b6040516101809190610914565b60405180910390f35b6101a3600480360381019061019e919061099b565b6103ee565b6040516101b09190610914565b60405180910390f35b6101d360048036038101906101ce919061099b565b6104ce565b6040516101e09190610914565b60405180910390f35b61020360048036038101906101fe91906109c8565b61051d565b6040516102109190610914565b60405180910390f35b610233600480360381019061022e919061099b565b61054b565b6040516102409190610914565b60405180910390f35b6102516105a6565b60405161025e9190610914565b60405180910390f35b610281600480360381019061027c919061099b565b6106d9565b60405161028e9190610914565b60405180910390f35b6102b160048036038101906102ac9190610a1b565b610747565b6040516102be9190610a7d565b60405180910390f35b6102e160048036038101906102dc919061099b565b610774565b005b6102fd60048036038101906102f891906108ce565b610832565b60405161030a9190610a7d565b60405180910390f35b61032d6004803603810190610328919061099b565b61087d565b60405161033a9190610914565b60405180910390f35b6000806002836103539190610ac7565b036103615760019050610366565b600090505b919050565b600081836103799190610c5a565b905092915050565b600060019050600060029050808280925081935050505050565b6000808290506000600190505b600082146103e4576000600a836103bf9190610ca5565b905080826103cd9190610cd6565b9150600a836103dc9190610d18565b9250506103a8565b8092505050919050565b6000808290506000805b6000831461042257818061040b90610d49565b925050600a8361041b9190610d18565b92506103f8565b60008203610465576040517f08c379a000000000000000000000000000000000000000000000000000000000815260040161045c90610dee565b60405180910390fd5b8492505b600083146104b0576000600a846104809190610ca5565b9050828161048e9190610c5a565b826104999190610e0e565b9150600a846104a89190610d18565b935050610469565b8085146104be5760006104c1565b60015b60ff169350505050919050565b60008082905060005b60008214610513576000600a836104ee9190610ca5565b905080826104fc9190610e0e565b9150600a8361050b9190610d18565b9250506104d7565b8092505050919050565b6000600382848661052e9190610e0e565b6105389190610e0e565b6105429190610d18565b90509392505050565b60008060008390505b6000811461059c576000600a8261056b9190610ca5565b905080600a8461057b9190610cd6565b6105859190610e0e565b9250600a826105949190610d18565b915050610554565b8192505050919050565b600080600090505b600260006040516105be90610e99565b9081526020016040518091039020805490506105da9190610eae565b8110156106d05760006040516105ef90610e99565b908152602001604051809103902060028261060a9190610e0e565b8154811061061b5761061a610ee2565b5b9060005260206000200154600060405161063490610e99565b908152602001604051809103902060018361064f9190610e0e565b815481106106605761065f610ee2565b5b90600052602060002001546106759190610e0e565b600060405161068390610e99565b908152602001604051809103902082815481106106a3576106a2610ee2565b5b9060005260206000200154146106bd5760009150506106d6565b80806106c890610d49565b9150506105ae565b50600190505b90565b60008082905060005b6000821461072a576000600a836106f99190610ca5565b905080600a836107099190610cd6565b6107139190610e0e565b9150600a836107229190610d18565b9250506106e2565b83811461073857600061073b565b60015b60ff1692505050919050565b6000808385136107575783610759565b845b9050828113610768578261076a565b805b9150509392505050565b600081036107b7576040517f08c379a00000000000000000000000000000000000000000000000000000000081526004016107ae90610f5d565b60405180910390fd5b60008190505b6000811461082e576000600a826107d49190610ca5565b905060006040516107e490610e99565b9081526020016040518091039020819080600181540180825580915050600190039060005260206000200160009091909190915055600a826108269190610d18565b9150506107bd565b5050565b600080600290505b8281121561087257600081846108509190610ac7565b0361085f576000915050610878565b808061086a90610f7d565b91505061083a565b50600190505b919050565b600060028261088c9190610fd2565b9050919050565b600080fd5b6000819050919050565b6108ab81610898565b81146108b657600080fd5b50565b6000813590506108c8816108a2565b92915050565b6000602082840312156108e4576108e3610893565b5b60006108f2848285016108b9565b91505092915050565b6000819050919050565b61090e816108fb565b82525050565b60006020820190506109296000830184610905565b92915050565b610938816108fb565b811461094357600080fd5b50565b6000813590506109558161092f565b92915050565b6000806040838503121561097257610971610893565b5b600061098085828601610946565b925050602061099185828601610946565b9150509250929050565b6000602082840312156109b1576109b0610893565b5b60006109bf84828501610946565b91505092915050565b6000806000606084860312156109e1576109e0610893565b5b60006109ef86828701610946565b9350506020610a0086828701610946565b9250506040610a1186828701610946565b9150509250925092565b600080600060608486031215610a3457610a33610893565b5b6000610a42868287016108b9565b9350506020610a53868287016108b9565b9250506040610a64868287016108b9565b9150509250925092565b610a7781610898565b82525050565b6000602082019050610a926000830184610a6e565b92915050565b7f4e487b7100000000000000000000000000000000000000000000000000000000600052601260045260246000fd5b6000610ad282610898565b9150610add83610898565b925082610aed57610aec610a98565b5b828207905092915050565b7f4e487b7100000000000000000000000000000000000000000000000000000000600052601160045260246000fd5b60008160011c9050919050565b6000808291508390505b6001851115610b7e57808604811115610b5a57610b59610af8565b5b6001851615610b695780820291505b8081029050610b7785610b27565b9450610b3e565b94509492505050565b600082610b975760019050610c53565b81610ba55760009050610c53565b8160018114610bbb5760028114610bc557610bf4565b6001915050610c53565b60ff841115610bd757610bd6610af8565b5b8360020a915084821115610bee57610bed610af8565b5b50610c53565b5060208310610133831016604e8410600b8410161715610c295782820a905083811115610c2457610c23610af8565b5b610c53565b610c368484846001610b34565b92509050818404811115610c4d57610c4c610af8565b5b81810290505b9392505050565b6000610c65826108fb565b9150610c70836108fb565b9250610c9d7fffffffffffffffffffffffffffffffffffffffffffffffffffffffffffffffff8484610b87565b905092915050565b6000610cb0826108fb565b9150610cbb836108fb565b925082610ccb57610cca610a98565b5b828206905092915050565b6000610ce1826108fb565b9150610cec836108fb565b9250828202610cfa816108fb565b91508282048414831517610d1157610d10610af8565b5b5092915050565b6000610d23826108fb565b9150610d2e836108fb565b925082610d3e57610d3d610a98565b5b828204905092915050565b6000610d54826108fb565b91507fffffffffffffffffffffffffffffffffffffffffffffffffffffffffffffffff8203610d8657610d85610af8565b5b600182019050919050565b600082825260208201905092915050565b7f6e6f7420612076616c6964206e756d6265720000000000000000000000000000600082015250565b6000610dd8601283610d91565b9150610de382610da2565b602082019050919050565b60006020820190508181036000830152610e0781610dcb565b9050919050565b6000610e19826108fb565b9150610e24836108fb565b9250828201905080821115610e3c57610e3b610af8565b5b92915050565b600081905092915050565b7f6e756d4172720000000000000000000000000000000000000000000000000000600082015250565b6000610e83600683610e42565b9150610e8e82610e4d565b600682019050919050565b6000610ea482610e76565b9150819050919050565b6000610eb9826108fb565b9150610ec4836108fb565b9250828203905081811115610edc57610edb610af8565b5b92915050565b7f4e487b7100000000000000000000000000000000000000000000000000000000600052603260045260246000fd5b7f6e6f7420412076616c6964206e756d6265720000000000000000000000000000600082015250565b6000610f47601283610d91565b9150610f5282610f11565b602082019050919050565b60006020820190508181036000830152610f7681610f3a565b9050919050565b6000610f8882610898565b91507f7fffffffffffffffffffffffffffffffffffffffffffffffffffffffffffffff8203610fba57610fb9610af8565b5b600182019050919050565b600060ff82169050919050565b6000610fdd826108fb565b9150610fe883610fc5565b92506110157fffffffffffffffffffffffffffffffffffffffffffffffffffffffffffffffff8484610b87565b90509291505056fea2646970667358221220d0a79d21829e545541c895b21b1887e00509bc036e3e1b6323cf25d2f055279764736f6c63430008110033",
			"opcodes": "PUSH1 0x80 PUSH1 0x40 MSTORE CALLVALUE DUP1 ISZERO PUSH2 0x10 JUMPI PUSH1 0x0 DUP1 REVERT JUMPDEST POP PUSH2 0x1053 DUP1 PUSH2 0x20 PUSH1 0x0 CODECOPY PUSH1 0x0 RETURN INVALID PUSH1 0x80 PUSH1 0x40 MSTORE CALLVALUE DUP1 ISZERO PUSH2 0x10 JUMPI PUSH1 0x0 DUP1 REVERT JUMPDEST POP PUSH1 0x4 CALLDATASIZE LT PUSH2 0xEA JUMPI PUSH1 0x0 CALLDATALOAD PUSH1 0xE0 SHR DUP1 PUSH4 0x9E098FC1 GT PUSH2 0x8C JUMPI DUP1 PUSH4 0xD9EA8E64 GT PUSH2 0x66 JUMPI DUP1 PUSH4 0xD9EA8E64 EQ PUSH2 0x297 JUMPI DUP1 PUSH4 0xF26C79EF EQ PUSH2 0x2C7 JUMPI DUP1 PUSH4 0xF492C000 EQ PUSH2 0x2E3 JUMPI DUP1 PUSH4 0xF4BF03C7 EQ PUSH2 0x313 JUMPI PUSH2 0xEA JUMP JUMPDEST DUP1 PUSH4 0x9E098FC1 EQ PUSH2 0x219 JUMPI DUP1 PUSH4 0xB4133721 EQ PUSH2 0x249 JUMPI DUP1 PUSH4 0xCDAB7807 EQ PUSH2 0x267 JUMPI PUSH2 0xEA JUMP JUMPDEST DUP1 PUSH4 0x83714834 GT PUSH2 0xC8 JUMPI DUP1 PUSH4 0x83714834 EQ PUSH2 0x159 JUMPI DUP1 PUSH4 0x83D3705E EQ PUSH2 0x189 JUMPI DUP1 PUSH4 0x8CE32D21 EQ PUSH2 0x1B9 JUMPI DUP1 PUSH4 0x92CC2841 EQ PUSH2 0x1E9 JUMPI PUSH2 0xEA JUMP JUMPDEST DUP1 PUSH4 0x46439726 EQ PUSH2 0xEF JUMPI DUP1 PUSH4 0x4F4752BA EQ PUSH2 0x11F JUMPI DUP1 PUSH4 0x8119C065 EQ PUSH2 0x14F JUMPI JUMPDEST PUSH1 0x0 DUP1 REVERT JUMPDEST PUSH2 0x109 PUSH1 0x4 DUP1 CALLDATASIZE SUB DUP2 ADD SWAP1 PUSH2 0x104 SWAP2 SWAP1 PUSH2 0x8CE JUMP JUMPDEST PUSH2 0x343 JUMP JUMPDEST PUSH1 0x40 MLOAD PUSH2 0x116 SWAP2 SWAP1 PUSH2 0x914 JUMP JUMPDEST PUSH1 0x40 MLOAD DUP1 SWAP2 SUB SWAP1 RETURN JUMPDEST PUSH2 0x139 PUSH1 0x4 DUP1 CALLDATASIZE SUB DUP2 ADD SWAP1 PUSH2 0x134 SWAP2 SWAP1 PUSH2 0x95B JUMP JUMPDEST PUSH2 0x36B JUMP JUMPDEST PUSH1 0x40 MLOAD PUSH2 0x146 SWAP2 SWAP1 PUSH2 0x914 JUMP JUMPDEST PUSH1 0x40 MLOAD DUP1 SWAP2 SUB SWAP1 RETURN JUMPDEST PUSH2 0x157 PUSH2 0x381 JUMP JUMPDEST STOP JUMPDEST PUSH2 0x173 PUSH1 0x4 DUP1 CALLDATASIZE SUB DUP2 ADD SWAP1 PUSH2 0x16E SWAP2 SWAP1 PUSH2 0x99B JUMP JUMPDEST PUSH2 0x39B JUMP JUMPDEST PUSH1 0x40 MLOAD PUSH2 0x180 SWAP2 SWAP1 PUSH2 0x914 JUMP JUMPDEST PUSH1 0x40 MLOAD DUP1 SWAP2 SUB SWAP1 RETURN JUMPDEST PUSH2 0x1A3 PUSH1 0x4 DUP1 CALLDATASIZE SUB DUP2 ADD SWAP1 PUSH2 0x19E SWAP2 SWAP1 PUSH2 0x99B JUMP JUMPDEST PUSH2 0x3EE JUMP JUMPDEST PUSH1 0x40 MLOAD PUSH2 0x1B0 SWAP2 SWAP1 PUSH2 0x914 JUMP JUMPDEST PUSH1 0x40 MLOAD DUP1 SWAP2 SUB SWAP1 RETURN JUMPDEST PUSH2 0x1D3 PUSH1 0x4 DUP1 CALLDATASIZE SUB DUP2 ADD SWAP1 PUSH2 0x1CE SWAP2 SWAP1 PUSH2 0x99B JUMP JUMPDEST PUSH2 0x4CE JUMP JUMPDEST PUSH1 0x40 MLOAD PUSH2 0x1E0 SWAP2 SWAP1 PUSH2 0x914 JUMP JUMPDEST PUSH1 0x40 MLOAD DUP1 SWAP2 SUB SWAP1 RETURN JUMPDEST PUSH2 0x203 PUSH1 0x4 DUP1 CALLDATASIZE SUB DUP2 ADD SWAP1 PUSH2 0x1FE SWAP2 SWAP1 PUSH2 0x9C8 JUMP JUMPDEST PUSH2 0x51D JUMP JUMPDEST PUSH1 0x40 MLOAD PUSH2 0x210 SWAP2 SWAP1 PUSH2 0x914 JUMP JUMPDEST PUSH1 0x40 MLOAD DUP1 SWAP2 SUB SWAP1 RETURN JUMPDEST PUSH2 0x233 PUSH1 0x4 DUP1 CALLDATASIZE SUB DUP2 ADD SWAP1 PUSH2 0x22E SWAP2 SWAP1 PUSH2 0x99B JUMP JUMPDEST PUSH2 0x54B JUMP JUMPDEST PUSH1 0x40 MLOAD PUSH2 0x240 SWAP2 SWAP1 PUSH2 0x914 JUMP JUMPDEST PUSH1 0x40 MLOAD DUP1 SWAP2 SUB SWAP1 RETURN JUMPDEST PUSH2 0x251 PUSH2 0x5A6 JUMP JUMPDEST PUSH1 0x40 MLOAD PUSH2 0x25E SWAP2 SWAP1 PUSH2 0x914 JUMP JUMPDEST PUSH1 0x40 MLOAD DUP1 SWAP2 SUB SWAP1 RETURN JUMPDEST PUSH2 0x281 PUSH1 0x4 DUP1 CALLDATASIZE SUB DUP2 ADD SWAP1 PUSH2 0x27C SWAP2 SWAP1 PUSH2 0x99B JUMP JUMPDEST PUSH2 0x6D9 JUMP JUMPDEST PUSH1 0x40 MLOAD PUSH2 0x28E SWAP2 SWAP1 PUSH2 0x914 JUMP JUMPDEST PUSH1 0x40 MLOAD DUP1 SWAP2 SUB SWAP1 RETURN JUMPDEST PUSH2 0x2B1 PUSH1 0x4 DUP1 CALLDATASIZE SUB DUP2 ADD SWAP1 PUSH2 0x2AC SWAP2 SWAP1 PUSH2 0xA1B JUMP JUMPDEST PUSH2 0x747 JUMP JUMPDEST PUSH1 0x40 MLOAD PUSH2 0x2BE SWAP2 SWAP1 PUSH2 0xA7D JUMP JUMPDEST PUSH1 0x40 MLOAD DUP1 SWAP2 SUB SWAP1 RETURN JUMPDEST PUSH2 0x2E1 PUSH1 0x4 DUP1 CALLDATASIZE SUB DUP2 ADD SWAP1 PUSH2 0x2DC SWAP2 SWAP1 PUSH2 0x99B JUMP JUMPDEST PUSH2 0x774 JUMP JUMPDEST STOP JUMPDEST PUSH2 0x2FD PUSH1 0x4 DUP1 CALLDATASIZE SUB DUP2 ADD SWAP1 PUSH2 0x2F8 SWAP2 SWAP1 PUSH2 0x8CE JUMP JUMPDEST PUSH2 0x832 JUMP JUMPDEST PUSH1 0x40 MLOAD PUSH2 0x30A SWAP2 SWAP1 PUSH2 0xA7D JUMP JUMPDEST PUSH1 0x40 MLOAD DUP1 SWAP2 SUB SWAP1 RETURN JUMPDEST PUSH2 0x32D PUSH1 0x4 DUP1 CALLDATASIZE SUB DUP2 ADD SWAP1 PUSH2 0x328 SWAP2 SWAP1 PUSH2 0x99B JUMP JUMPDEST PUSH2 0x87D JUMP JUMPDEST PUSH1 0x40 MLOAD PUSH2 0x33A SWAP2 SWAP1 PUSH2 0x914 JUMP JUMPDEST PUSH1 0x40 MLOAD DUP1 SWAP2 SUB SWAP1 RETURN JUMPDEST PUSH1 0x0 DUP1 PUSH1 0x2 DUP4 PUSH2 0x353 SWAP2 SWAP1 PUSH2 0xAC7 JUMP JUMPDEST SUB PUSH2 0x361 JUMPI PUSH1 0x1 SWAP1 POP PUSH2 0x366 JUMP JUMPDEST PUSH1 0x0 SWAP1 POP JUMPDEST SWAP2 SWAP1 POP JUMP JUMPDEST PUSH1 0x0 DUP2 DUP4 PUSH2 0x379 SWAP2 SWAP1 PUSH2 0xC5A JUMP JUMPDEST SWAP1 POP SWAP3 SWAP2 POP POP JUMP JUMPDEST PUSH1 0x0 PUSH1 0x1 SWAP1 POP PUSH1 0x0 PUSH1 0x2 SWAP1 POP DUP1 DUP3 DUP1 SWAP3 POP DUP2 SWAP4 POP POP POP POP POP JUMP JUMPDEST PUSH1 0x0 DUP1 DUP3 SWAP1 POP PUSH1 0x0 PUSH1 0x1 SWAP1 POP JUMPDEST PUSH1 0x0 DUP3 EQ PUSH2 0x3E4 JUMPI PUSH1 0x0 PUSH1 0xA DUP4 PUSH2 0x3BF SWAP2 SWAP1 PUSH2 0xCA5 JUMP JUMPDEST SWAP1 POP DUP1 DUP3 PUSH2 0x3CD SWAP2 SWAP1 PUSH2 0xCD6 JUMP JUMPDEST SWAP2 POP PUSH1 0xA DUP4 PUSH2 0x3DC SWAP2 SWAP1 PUSH2 0xD18 JUMP JUMPDEST SWAP3 POP POP PUSH2 0x3A8 JUMP JUMPDEST DUP1 SWAP3 POP POP POP SWAP2 SWAP1 POP JUMP JUMPDEST PUSH1 0x0 DUP1 DUP3 SWAP1 POP PUSH1 0x0 DUP1 JUMPDEST PUSH1 0x0 DUP4 EQ PUSH2 0x422 JUMPI DUP2 DUP1 PUSH2 0x40B SWAP1 PUSH2 0xD49 JUMP JUMPDEST SWAP3 POP POP PUSH1 0xA DUP4 PUSH2 0x41B SWAP2 SWAP1 PUSH2 0xD18 JUMP JUMPDEST SWAP3 POP PUSH2 0x3F8 JUMP JUMPDEST PUSH1 0x0 DUP3 SUB PUSH2 0x465 JUMPI PUSH1 0x40 MLOAD PUSH32 0x8C379A000000000000000000000000000000000000000000000000000000000 DUP2 MSTORE PUSH1 0x4 ADD PUSH2 0x45C SWAP1 PUSH2 0xDEE JUMP JUMPDEST PUSH1 0x40 MLOAD DUP1 SWAP2 SUB SWAP1 REVERT JUMPDEST DUP5 SWAP3 POP JUMPDEST PUSH1 0x0 DUP4 EQ PUSH2 0x4B0 JUMPI PUSH1 0x0 PUSH1 0xA DUP5 PUSH2 0x480 SWAP2 SWAP1 PUSH2 0xCA5 JUMP JUMPDEST SWAP1 POP DUP3 DUP2 PUSH2 0x48E SWAP2 SWAP1 PUSH2 0xC5A JUMP JUMPDEST DUP3 PUSH2 0x499 SWAP2 SWAP1 PUSH2 0xE0E JUMP JUMPDEST SWAP2 POP PUSH1 0xA DUP5 PUSH2 0x4A8 SWAP2 SWAP1 PUSH2 0xD18 JUMP JUMPDEST SWAP4 POP POP PUSH2 0x469 JUMP JUMPDEST DUP1 DUP6 EQ PUSH2 0x4BE JUMPI PUSH1 0x0 PUSH2 0x4C1 JUMP JUMPDEST PUSH1 0x1 JUMPDEST PUSH1 0xFF AND SWAP4 POP POP POP POP SWAP2 SWAP1 POP JUMP JUMPDEST PUSH1 0x0 DUP1 DUP3 SWAP1 POP PUSH1 0x0 JUMPDEST PUSH1 0x0 DUP3 EQ PUSH2 0x513 JUMPI PUSH1 0x0 PUSH1 0xA DUP4 PUSH2 0x4EE SWAP2 SWAP1 PUSH2 0xCA5 JUMP JUMPDEST SWAP1 POP DUP1 DUP3 PUSH2 0x4FC SWAP2 SWAP1 PUSH2 0xE0E JUMP JUMPDEST SWAP2 POP PUSH1 0xA DUP4 PUSH2 0x50B SWAP2 SWAP1 PUSH2 0xD18 JUMP JUMPDEST SWAP3 POP POP PUSH2 0x4D7 JUMP JUMPDEST DUP1 SWAP3 POP POP POP SWAP2 SWAP1 POP JUMP JUMPDEST PUSH1 0x0 PUSH1 0x3 DUP3 DUP5 DUP7 PUSH2 0x52E SWAP2 SWAP1 PUSH2 0xE0E JUMP JUMPDEST PUSH2 0x538 SWAP2 SWAP1 PUSH2 0xE0E JUMP JUMPDEST PUSH2 0x542 SWAP2 SWAP1 PUSH2 0xD18 JUMP JUMPDEST SWAP1 POP SWAP4 SWAP3 POP POP POP JUMP JUMPDEST PUSH1 0x0 DUP1 PUSH1 0x0 DUP4 SWAP1 POP JUMPDEST PUSH1 0x0 DUP2 EQ PUSH2 0x59C JUMPI PUSH1 0x0 PUSH1 0xA DUP3 PUSH2 0x56B SWAP2 SWAP1 PUSH2 0xCA5 JUMP JUMPDEST SWAP1 POP DUP1 PUSH1 0xA DUP5 PUSH2 0x57B SWAP2 SWAP1 PUSH2 0xCD6 JUMP JUMPDEST PUSH2 0x585 SWAP2 SWAP1 PUSH2 0xE0E JUMP JUMPDEST SWAP3 POP PUSH1 0xA DUP3 PUSH2 0x594 SWAP2 SWAP1 PUSH2 0xD18 JUMP JUMPDEST SWAP2 POP POP PUSH2 0x554 JUMP JUMPDEST DUP2 SWAP3 POP POP POP SWAP2 SWAP1 POP JUMP JUMPDEST PUSH1 0x0 DUP1 PUSH1 0x0 SWAP1 POP JUMPDEST PUSH1 0x2 PUSH1 0x0 PUSH1 0x40 MLOAD PUSH2 0x5BE SWAP1 PUSH2 0xE99 JUMP JUMPDEST SWAP1 DUP2 MSTORE PUSH1 0x20 ADD PUSH1 0x40 MLOAD DUP1 SWAP2 SUB SWAP1 KECCAK256 DUP1 SLOAD SWAP1 POP PUSH2 0x5DA SWAP2 SWAP1 PUSH2 0xEAE JUMP JUMPDEST DUP2 LT ISZERO PUSH2 0x6D0 JUMPI PUSH1 0x0 PUSH1 0x40 MLOAD PUSH2 0x5EF SWAP1 PUSH2 0xE99 JUMP JUMPDEST SWAP1 DUP2 MSTORE PUSH1 0x20 ADD PUSH1 0x40 MLOAD DUP1 SWAP2 SUB SWAP1 KECCAK256 PUSH1 0x2 DUP3 PUSH2 0x60A SWAP2 SWAP1 PUSH2 0xE0E JUMP JUMPDEST DUP2 SLOAD DUP2 LT PUSH2 0x61B JUMPI PUSH2 0x61A PUSH2 0xEE2 JUMP JUMPDEST JUMPDEST SWAP1 PUSH1 0x0 MSTORE PUSH1 0x20 PUSH1 0x0 KECCAK256 ADD SLOAD PUSH1 0x0 PUSH1 0x40 MLOAD PUSH2 0x634 SWAP1 PUSH2 0xE99 JUMP JUMPDEST SWAP1 DUP2 MSTORE PUSH1 0x20 ADD PUSH1 0x40 MLOAD DUP1 SWAP2 SUB SWAP1 KECCAK256 PUSH1 0x1 DUP4 PUSH2 0x64F SWAP2 SWAP1 PUSH2 0xE0E JUMP JUMPDEST DUP2 SLOAD DUP2 LT PUSH2 0x660 JUMPI PUSH2 0x65F PUSH2 0xEE2 JUMP JUMPDEST JUMPDEST SWAP1 PUSH1 0x0 MSTORE PUSH1 0x20 PUSH1 0x0 KECCAK256 ADD SLOAD PUSH2 0x675 SWAP2 SWAP1 PUSH2 0xE0E JUMP JUMPDEST PUSH1 0x0 PUSH1 0x40 MLOAD PUSH2 0x683 SWAP1 PUSH2 0xE99 JUMP JUMPDEST SWAP1 DUP2 MSTORE PUSH1 0x20 ADD PUSH1 0x40 MLOAD DUP1 SWAP2 SUB SWAP1 KECCAK256 DUP3 DUP2 SLOAD DUP2 LT PUSH2 0x6A3 JUMPI PUSH2 0x6A2 PUSH2 0xEE2 JUMP JUMPDEST JUMPDEST SWAP1 PUSH1 0x0 MSTORE PUSH1 0x20 PUSH1 0x0 KECCAK256 ADD SLOAD EQ PUSH2 0x6BD JUMPI PUSH1 0x0 SWAP2 POP POP PUSH2 0x6D6 JUMP JUMPDEST DUP1 DUP1 PUSH2 0x6C8 SWAP1 PUSH2 0xD49 JUMP JUMPDEST SWAP2 POP POP PUSH2 0x5AE JUMP JUMPDEST POP PUSH1 0x1 SWAP1 POP JUMPDEST SWAP1 JUMP JUMPDEST PUSH1 0x0 DUP1 DUP3 SWAP1 POP PUSH1 0x0 JUMPDEST PUSH1 0x0 DUP3 EQ PUSH2 0x72A JUMPI PUSH1 0x0 PUSH1 0xA DUP4 PUSH2 0x6F9 SWAP2 SWAP1 PUSH2 0xCA5 JUMP JUMPDEST SWAP1 POP DUP1 PUSH1 0xA DUP4 PUSH2 0x709 SWAP2 SWAP1 PUSH2 0xCD6 JUMP JUMPDEST PUSH2 0x713 SWAP2 SWAP1 PUSH2 0xE0E JUMP JUMPDEST SWAP2 POP PUSH1 0xA DUP4 PUSH2 0x722 SWAP2 SWAP1 PUSH2 0xD18 JUMP JUMPDEST SWAP3 POP POP PUSH2 0x6E2 JUMP JUMPDEST DUP4 DUP2 EQ PUSH2 0x738 JUMPI PUSH1 0x0 PUSH2 0x73B JUMP JUMPDEST PUSH1 0x1 JUMPDEST PUSH1 0xFF AND SWAP3 POP POP POP SWAP2 SWAP1 POP JUMP JUMPDEST PUSH1 0x0 DUP1 DUP4 DUP6 SGT PUSH2 0x757 JUMPI DUP4 PUSH2 0x759 JUMP JUMPDEST DUP5 JUMPDEST SWAP1 POP DUP3 DUP2 SGT PUSH2 0x768 JUMPI DUP3 PUSH2 0x76A JUMP JUMPDEST DUP1 JUMPDEST SWAP2 POP POP SWAP4 SWAP3 POP POP POP JUMP JUMPDEST PUSH1 0x0 DUP2 SUB PUSH2 0x7B7 JUMPI PUSH1 0x40 MLOAD PUSH32 0x8C379A000000000000000000000000000000000000000000000000000000000 DUP2 MSTORE PUSH1 0x4 ADD PUSH2 0x7AE SWAP1 PUSH2 0xF5D JUMP JUMPDEST PUSH1 0x40 MLOAD DUP1 SWAP2 SUB SWAP1 REVERT JUMPDEST PUSH1 0x0 DUP2 SWAP1 POP JUMPDEST PUSH1 0x0 DUP2 EQ PUSH2 0x82E JUMPI PUSH1 0x0 PUSH1 0xA DUP3 PUSH2 0x7D4 SWAP2 SWAP1 PUSH2 0xCA5 JUMP JUMPDEST SWAP1 POP PUSH1 0x0 PUSH1 0x40 MLOAD PUSH2 0x7E4 SWAP1 PUSH2 0xE99 JUMP JUMPDEST SWAP1 DUP2 MSTORE PUSH1 0x20 ADD PUSH1 0x40 MLOAD DUP1 SWAP2 SUB SWAP1 KECCAK256 DUP2 SWAP1 DUP1 PUSH1 0x1 DUP2 SLOAD ADD DUP1 DUP3 SSTORE DUP1 SWAP2 POP POP PUSH1 0x1 SWAP1 SUB SWAP1 PUSH1 0x0 MSTORE PUSH1 0x20 PUSH1 0x0 KECCAK256 ADD PUSH1 0x0 SWAP1 SWAP2 SWAP1 SWAP2 SWAP1 SWAP2 POP SSTORE PUSH1 0xA DUP3 PUSH2 0x826 SWAP2 SWAP1 PUSH2 0xD18 JUMP JUMPDEST SWAP2 POP POP PUSH2 0x7BD JUMP JUMPDEST POP POP JUMP JUMPDEST PUSH1 0x0 DUP1 PUSH1 0x2 SWAP1 POP JUMPDEST DUP3 DUP2 SLT ISZERO PUSH2 0x872 JUMPI PUSH1 0x0 DUP2 DUP5 PUSH2 0x850 SWAP2 SWAP1 PUSH2 0xAC7 JUMP JUMPDEST SUB PUSH2 0x85F JUMPI PUSH1 0x0 SWAP2 POP POP PUSH2 0x878 JUMP JUMPDEST DUP1 DUP1 PUSH2 0x86A SWAP1 PUSH2 0xF7D JUMP JUMPDEST SWAP2 POP POP PUSH2 0x83A JUMP JUMPDEST POP PUSH1 0x1 SWAP1 POP JUMPDEST SWAP2 SWAP1 POP JUMP JUMPDEST PUSH1 0x0 PUSH1 0x2 DUP3 PUSH2 0x88C SWAP2 SWAP1 PUSH2 0xFD2 JUMP JUMPDEST SWAP1 POP SWAP2 SWAP1 POP JUMP JUMPDEST PUSH1 0x0 DUP1 REVERT JUMPDEST PUSH1 0x0 DUP2 SWAP1 POP SWAP2 SWAP1 POP JUMP JUMPDEST PUSH2 0x8AB DUP2 PUSH2 0x898 JUMP JUMPDEST DUP2 EQ PUSH2 0x8B6 JUMPI PUSH1 0x0 DUP1 REVERT JUMPDEST POP JUMP JUMPDEST PUSH1 0x0 DUP2 CALLDATALOAD SWAP1 POP PUSH2 0x8C8 DUP2 PUSH2 0x8A2 JUMP JUMPDEST SWAP3 SWAP2 POP POP JUMP JUMPDEST PUSH1 0x0 PUSH1 0x20 DUP3 DUP5 SUB SLT ISZERO PUSH2 0x8E4 JUMPI PUSH2 0x8E3 PUSH2 0x893 JUMP JUMPDEST JUMPDEST PUSH1 0x0 PUSH2 0x8F2 DUP5 DUP3 DUP6 ADD PUSH2 0x8B9 JUMP JUMPDEST SWAP2 POP POP SWAP3 SWAP2 POP POP JUMP JUMPDEST PUSH1 0x0 DUP2 SWAP1 POP SWAP2 SWAP1 POP JUMP JUMPDEST PUSH2 0x90E DUP2 PUSH2 0x8FB JUMP JUMPDEST DUP3 MSTORE POP POP JUMP JUMPDEST PUSH1 0x0 PUSH1 0x20 DUP3 ADD SWAP1 POP PUSH2 0x929 PUSH1 0x0 DUP4 ADD DUP5 PUSH2 0x905 JUMP JUMPDEST SWAP3 SWAP2 POP POP JUMP JUMPDEST PUSH2 0x938 DUP2 PUSH2 0x8FB JUMP JUMPDEST DUP2 EQ PUSH2 0x943 JUMPI PUSH1 0x0 DUP1 REVERT JUMPDEST POP JUMP JUMPDEST PUSH1 0x0 DUP2 CALLDATALOAD SWAP1 POP PUSH2 0x955 DUP2 PUSH2 0x92F JUMP JUMPDEST SWAP3 SWAP2 POP POP JUMP JUMPDEST PUSH1 0x0 DUP1 PUSH1 0x40 DUP4 DUP6 SUB SLT ISZERO PUSH2 0x972 JUMPI PUSH2 0x971 PUSH2 0x893 JUMP JUMPDEST JUMPDEST PUSH1 0x0 PUSH2 0x980 DUP6 DUP3 DUP7 ADD PUSH2 0x946 JUMP JUMPDEST SWAP3 POP POP PUSH1 0x20 PUSH2 0x991 DUP6 DUP3 DUP7 ADD PUSH2 0x946 JUMP JUMPDEST SWAP2 POP POP SWAP3 POP SWAP3 SWAP1 POP JUMP JUMPDEST PUSH1 0x0 PUSH1 0x20 DUP3 DUP5 SUB SLT ISZERO PUSH2 0x9B1 JUMPI PUSH2 0x9B0 PUSH2 0x893 JUMP JUMPDEST JUMPDEST PUSH1 0x0 PUSH2 0x9BF DUP5 DUP3 DUP6 ADD PUSH2 0x946 JUMP JUMPDEST SWAP2 POP POP SWAP3 SWAP2 POP POP JUMP JUMPDEST PUSH1 0x0 DUP1 PUSH1 0x0 PUSH1 0x60 DUP5 DUP7 SUB SLT ISZERO PUSH2 0x9E1 JUMPI PUSH2 0x9E0 PUSH2 0x893 JUMP JUMPDEST JUMPDEST PUSH1 0x0 PUSH2 0x9EF DUP7 DUP3 DUP8 ADD PUSH2 0x946 JUMP JUMPDEST SWAP4 POP POP PUSH1 0x20 PUSH2 0xA00 DUP7 DUP3 DUP8 ADD PUSH2 0x946 JUMP JUMPDEST SWAP3 POP POP PUSH1 0x40 PUSH2 0xA11 DUP7 DUP3 DUP8 ADD PUSH2 0x946 JUMP JUMPDEST SWAP2 POP POP SWAP3 POP SWAP3 POP SWAP3 JUMP JUMPDEST PUSH1 0x0 DUP1 PUSH1 0x0 PUSH1 0x60 DUP5 DUP7 SUB SLT ISZERO PUSH2 0xA34 JUMPI PUSH2 0xA33 PUSH2 0x893 JUMP JUMPDEST JUMPDEST PUSH1 0x0 PUSH2 0xA42 DUP7 DUP3 DUP8 ADD PUSH2 0x8B9 JUMP JUMPDEST SWAP4 POP POP PUSH1 0x20 PUSH2 0xA53 DUP7 DUP3 DUP8 ADD PUSH2 0x8B9 JUMP JUMPDEST SWAP3 POP POP PUSH1 0x40 PUSH2 0xA64 DUP7 DUP3 DUP8 ADD PUSH2 0x8B9 JUMP JUMPDEST SWAP2 POP POP SWAP3 POP SWAP3 POP SWAP3 JUMP JUMPDEST PUSH2 0xA77 DUP2 PUSH2 0x898 JUMP JUMPDEST DUP3 MSTORE POP POP JUMP JUMPDEST PUSH1 0x0 PUSH1 0x20 DUP3 ADD SWAP1 POP PUSH2 0xA92 PUSH1 0x0 DUP4 ADD DUP5 PUSH2 0xA6E JUMP JUMPDEST SWAP3 SWAP2 POP POP JUMP JUMPDEST PUSH32 0x4E487B7100000000000000000000000000000000000000000000000000000000 PUSH1 0x0 MSTORE PUSH1 0x12 PUSH1 0x4 MSTORE PUSH1 0x24 PUSH1 0x0 REVERT JUMPDEST PUSH1 0x0 PUSH2 0xAD2 DUP3 PUSH2 0x898 JUMP JUMPDEST SWAP2 POP PUSH2 0xADD DUP4 PUSH2 0x898 JUMP JUMPDEST SWAP3 POP DUP3 PUSH2 0xAED JUMPI PUSH2 0xAEC PUSH2 0xA98 JUMP JUMPDEST JUMPDEST DUP3 DUP3 SMOD SWAP1 POP SWAP3 SWAP2 POP POP JUMP JUMPDEST PUSH32 0x4E487B7100000000000000000000000000000000000000000000000000000000 PUSH1 0x0 MSTORE PUSH1 0x11 PUSH1 0x4 MSTORE PUSH1 0x24 PUSH1 0x0 REVERT JUMPDEST PUSH1 0x0 DUP2 PUSH1 0x1 SHR SWAP1 POP SWAP2 SWAP1 POP JUMP JUMPDEST PUSH1 0x0 DUP1 DUP3 SWAP2 POP DUP4 SWAP1 POP JUMPDEST PUSH1 0x1 DUP6 GT ISZERO PUSH2 0xB7E JUMPI DUP1 DUP7 DIV DUP2 GT ISZERO PUSH2 0xB5A JUMPI PUSH2 0xB59 PUSH2 0xAF8 JUMP JUMPDEST JUMPDEST PUSH1 0x1 DUP6 AND ISZERO PUSH2 0xB69 JUMPI DUP1 DUP3 MUL SWAP2 POP JUMPDEST DUP1 DUP2 MUL SWAP1 POP PUSH2 0xB77 DUP6 PUSH2 0xB27 JUMP JUMPDEST SWAP5 POP PUSH2 0xB3E JUMP JUMPDEST SWAP5 POP SWAP5 SWAP3 POP POP POP JUMP JUMPDEST PUSH1 0x0 DUP3 PUSH2 0xB97 JUMPI PUSH1 0x1 SWAP1 POP PUSH2 0xC53 JUMP JUMPDEST DUP2 PUSH2 0xBA5 JUMPI PUSH1 0x0 SWAP1 POP PUSH2 0xC53 JUMP JUMPDEST DUP2 PUSH1 0x1 DUP2 EQ PUSH2 0xBBB JUMPI PUSH1 0x2 DUP2 EQ PUSH2 0xBC5 JUMPI PUSH2 0xBF4 JUMP JUMPDEST PUSH1 0x1 SWAP2 POP POP PUSH2 0xC53 JUMP JUMPDEST PUSH1 0xFF DUP5 GT ISZERO PUSH2 0xBD7 JUMPI PUSH2 0xBD6 PUSH2 0xAF8 JUMP JUMPDEST JUMPDEST DUP4 PUSH1 0x2 EXP SWAP2 POP DUP5 DUP3 GT ISZERO PUSH2 0xBEE JUMPI PUSH2 0xBED PUSH2 0xAF8 JUMP JUMPDEST JUMPDEST POP PUSH2 0xC53 JUMP JUMPDEST POP PUSH1 0x20 DUP4 LT PUSH2 0x133 DUP4 LT AND PUSH1 0x4E DUP5 LT PUSH1 0xB DUP5 LT AND OR ISZERO PUSH2 0xC29 JUMPI DUP3 DUP3 EXP SWAP1 POP DUP4 DUP2 GT ISZERO PUSH2 0xC24 JUMPI PUSH2 0xC23 PUSH2 0xAF8 JUMP JUMPDEST JUMPDEST PUSH2 0xC53 JUMP JUMPDEST PUSH2 0xC36 DUP5 DUP5 DUP5 PUSH1 0x1 PUSH2 0xB34 JUMP JUMPDEST SWAP3 POP SWAP1 POP DUP2 DUP5 DIV DUP2 GT ISZERO PUSH2 0xC4D JUMPI PUSH2 0xC4C PUSH2 0xAF8 JUMP JUMPDEST JUMPDEST DUP2 DUP2 MUL SWAP1 POP JUMPDEST SWAP4 SWAP3 POP POP POP JUMP JUMPDEST PUSH1 0x0 PUSH2 0xC65 DUP3 PUSH2 0x8FB JUMP JUMPDEST SWAP2 POP PUSH2 0xC70 DUP4 PUSH2 0x8FB JUMP JUMPDEST SWAP3 POP PUSH2 0xC9D PUSH32 0xFFFFFFFFFFFFFFFFFFFFFFFFFFFFFFFFFFFFFFFFFFFFFFFFFFFFFFFFFFFFFFFF DUP5 DUP5 PUSH2 0xB87 JUMP JUMPDEST SWAP1 POP SWAP3 SWAP2 POP POP JUMP JUMPDEST PUSH1 0x0 PUSH2 0xCB0 DUP3 PUSH2 0x8FB JUMP JUMPDEST SWAP2 POP PUSH2 0xCBB DUP4 PUSH2 0x8FB JUMP JUMPDEST SWAP3 POP DUP3 PUSH2 0xCCB JUMPI PUSH2 0xCCA PUSH2 0xA98 JUMP JUMPDEST JUMPDEST DUP3 DUP3 MOD SWAP1 POP SWAP3 SWAP2 POP POP JUMP JUMPDEST PUSH1 0x0 PUSH2 0xCE1 DUP3 PUSH2 0x8FB JUMP JUMPDEST SWAP2 POP PUSH2 0xCEC DUP4 PUSH2 0x8FB JUMP JUMPDEST SWAP3 POP DUP3 DUP3 MUL PUSH2 0xCFA DUP2 PUSH2 0x8FB JUMP JUMPDEST SWAP2 POP DUP3 DUP3 DIV DUP5 EQ DUP4 ISZERO OR PUSH2 0xD11 JUMPI PUSH2 0xD10 PUSH2 0xAF8 JUMP JUMPDEST JUMPDEST POP SWAP3 SWAP2 POP POP JUMP JUMPDEST PUSH1 0x0 PUSH2 0xD23 DUP3 PUSH2 0x8FB JUMP JUMPDEST SWAP2 POP PUSH2 0xD2E DUP4 PUSH2 0x8FB JUMP JUMPDEST SWAP3 POP DUP3 PUSH2 0xD3E JUMPI PUSH2 0xD3D PUSH2 0xA98 JUMP JUMPDEST JUMPDEST DUP3 DUP3 DIV SWAP1 POP SWAP3 SWAP2 POP POP JUMP JUMPDEST PUSH1 0x0 PUSH2 0xD54 DUP3 PUSH2 0x8FB JUMP JUMPDEST SWAP2 POP PUSH32 0xFFFFFFFFFFFFFFFFFFFFFFFFFFFFFFFFFFFFFFFFFFFFFFFFFFFFFFFFFFFFFFFF DUP3 SUB PUSH2 0xD86 JUMPI PUSH2 0xD85 PUSH2 0xAF8 JUMP JUMPDEST JUMPDEST PUSH1 0x1 DUP3 ADD SWAP1 POP SWAP2 SWAP1 POP JUMP JUMPDEST PUSH1 0x0 DUP3 DUP3 MSTORE PUSH1 0x20 DUP3 ADD SWAP1 POP SWAP3 SWAP2 POP POP JUMP JUMPDEST PUSH32 0x6E6F7420612076616C6964206E756D6265720000000000000000000000000000 PUSH1 0x0 DUP3 ADD MSTORE POP JUMP JUMPDEST PUSH1 0x0 PUSH2 0xDD8 PUSH1 0x12 DUP4 PUSH2 0xD91 JUMP JUMPDEST SWAP2 POP PUSH2 0xDE3 DUP3 PUSH2 0xDA2 JUMP JUMPDEST PUSH1 0x20 DUP3 ADD SWAP1 POP SWAP2 SWAP1 POP JUMP JUMPDEST PUSH1 0x0 PUSH1 0x20 DUP3 ADD SWAP1 POP DUP2 DUP2 SUB PUSH1 0x0 DUP4 ADD MSTORE PUSH2 0xE07 DUP2 PUSH2 0xDCB JUMP JUMPDEST SWAP1 POP SWAP2 SWAP1 POP JUMP JUMPDEST PUSH1 0x0 PUSH2 0xE19 DUP3 PUSH2 0x8FB JUMP JUMPDEST SWAP2 POP PUSH2 0xE24 DUP4 PUSH2 0x8FB JUMP JUMPDEST SWAP3 POP DUP3 DUP3 ADD SWAP1 POP DUP1 DUP3 GT ISZERO PUSH2 0xE3C JUMPI PUSH2 0xE3B PUSH2 0xAF8 JUMP JUMPDEST JUMPDEST SWAP3 SWAP2 POP POP JUMP JUMPDEST PUSH1 0x0 DUP2 SWAP1 POP SWAP3 SWAP2 POP POP JUMP JUMPDEST PUSH32 0x6E756D4172720000000000000000000000000000000000000000000000000000 PUSH1 0x0 DUP3 ADD MSTORE POP JUMP JUMPDEST PUSH1 0x0 PUSH2 0xE83 PUSH1 0x6 DUP4 PUSH2 0xE42 JUMP JUMPDEST SWAP2 POP PUSH2 0xE8E DUP3 PUSH2 0xE4D JUMP JUMPDEST PUSH1 0x6 DUP3 ADD SWAP1 POP SWAP2 SWAP1 POP JUMP JUMPDEST PUSH1 0x0 PUSH2 0xEA4 DUP3 PUSH2 0xE76 JUMP JUMPDEST SWAP2 POP DUP2 SWAP1 POP SWAP2 SWAP1 POP JUMP JUMPDEST PUSH1 0x0 PUSH2 0xEB9 DUP3 PUSH2 0x8FB JUMP JUMPDEST SWAP2 POP PUSH2 0xEC4 DUP4 PUSH2 0x8FB JUMP JUMPDEST SWAP3 POP DUP3 DUP3 SUB SWAP1 POP DUP2 DUP2 GT ISZERO PUSH2 0xEDC JUMPI PUSH2 0xEDB PUSH2 0xAF8 JUMP JUMPDEST JUMPDEST SWAP3 SWAP2 POP POP JUMP JUMPDEST PUSH32 0x4E487B7100000000000000000000000000000000000000000000000000000000 PUSH1 0x0 MSTORE PUSH1 0x32 PUSH1 0x4 MSTORE PUSH1 0x24 PUSH1 0x0 REVERT JUMPDEST PUSH32 0x6E6F7420412076616C6964206E756D6265720000000000000000000000000000 PUSH1 0x0 DUP3 ADD MSTORE POP JUMP JUMPDEST PUSH1 0x0 PUSH2 0xF47 PUSH1 0x12 DUP4 PUSH2 0xD91 JUMP JUMPDEST SWAP2 POP PUSH2 0xF52 DUP3 PUSH2 0xF11 JUMP JUMPDEST PUSH1 0x20 DUP3 ADD SWAP1 POP SWAP2 SWAP1 POP JUMP JUMPDEST PUSH1 0x0 PUSH1 0x20 DUP3 ADD SWAP1 POP DUP2 DUP2 SUB PUSH1 0x0 DUP4 ADD MSTORE PUSH2 0xF76 DUP2 PUSH2 0xF3A JUMP JUMPDEST SWAP1 POP SWAP2 SWAP1 POP JUMP JUMPDEST PUSH1 0x0 PUSH2 0xF88 DUP3 PUSH2 0x898 JUMP JUMPDEST SWAP2 POP PUSH32 0x7FFFFFFFFFFFFFFFFFFFFFFFFFFFFFFFFFFFFFFFFFFFFFFFFFFFFFFFFFFFFFFF DUP3 SUB PUSH2 0xFBA JUMPI PUSH2 0xFB9 PUSH2 0xAF8 JUMP JUMPDEST JUMPDEST PUSH1 0x1 DUP3 ADD SWAP1 POP SWAP2 SWAP1 POP JUMP JUMPDEST PUSH1 0x0 PUSH1 0xFF DUP3 AND SWAP1 POP SWAP2 SWAP1 POP JUMP JUMPDEST PUSH1 0x0 PUSH2 0xFDD DUP3 PUSH2 0x8FB JUMP JUMPDEST SWAP2 POP PUSH2 0xFE8 DUP4 PUSH2 0xFC5 JUMP JUMPDEST SWAP3 POP PUSH2 0x1015 PUSH32 0xFFFFFFFFFFFFFFFFFFFFFFFFFFFFFFFFFFFFFFFFFFFFFFFFFFFFFFFFFFFFFFFF DUP5 DUP5 PUSH2 0xB87 JUMP JUMPDEST SWAP1 POP SWAP3 SWAP2 POP POP JUMP INVALID LOG2 PUSH5 0x6970667358 0x22 SLT KECCAK256 0xD0 0xA7 SWAP14 0x21 DUP3 SWAP15 SLOAD SSTORE COINBASE 0xC8 SWAP6 0xB2 SHL XOR DUP8 0xE0 SDIV MULMOD 0xBC SUB PUSH15 0x3E1B6323CF25D2F055279764736F6C PUSH4 0x43000811 STOP CALLER "
		},
		"gasEstimates": {
			"creation": {
				"codeDepositCost": "835800",
				"executionCost": "870",
				"totalCost": "836670"
			},
			"external": {
				"Palindrome(uint256)": "infinite",
				"amstrong(uint256)": "infinite",
				"avg(uint256,uint256,uint256)": "infinite",
				"cube(uint256)": "infinite",
				"expo(uint256,uint256)": "infinite",
				"factorial(uint256)": "infinite",
				"fibonnical(uint256)": "infinite",
				"fibonnicalResult()": "infinite",
				"greater(int256,int256,int256)": "infinite",
				"oddOrEven(int256)": "infinite",
				"prime(int256)": "infinite",
				"reverseInt(uint256)": "infinite",
				"sumOfDigits(uint256)": "infinite",
				"swap()": "264"
			}
		},
		"methodIdentifiers": {
			"Palindrome(uint256)": "cdab7807",
			"amstrong(uint256)": "83d3705e",
			"avg(uint256,uint256,uint256)": "92cc2841",
			"cube(uint256)": "f4bf03c7",
			"expo(uint256,uint256)": "4f4752ba",
			"factorial(uint256)": "83714834",
			"fibonnical(uint256)": "f26c79ef",
			"fibonnicalResult()": "b4133721",
			"greater(int256,int256,int256)": "d9ea8e64",
			"oddOrEven(int256)": "46439726",
			"prime(int256)": "f492c000",
			"reverseInt(uint256)": "9e098fc1",
			"sumOfDigits(uint256)": "8ce32d21",
			"swap()": "8119c065"
		}
	},
	"abi": [
		{
			"inputs": [
				{
					"internalType": "uint256",
					"name": "_inp",
					"type": "uint256"
				}
			],
			"name": "Palindrome",
			"outputs": [
				{
					"internalType": "uint256",
					"name": "",
					"type": "uint256"
				}
			],
			"stateMutability": "pure",
			"type": "function"
		},
		{
			"inputs": [
				{
					"internalType": "uint256",
					"name": "_inp",
					"type": "uint256"
				}
			],
			"name": "amstrong",
			"outputs": [
				{
					"internalType": "uint256",
					"name": "",
					"type": "uint256"
				}
			],
			"stateMutability": "pure",
			"type": "function"
		},
		{
			"inputs": [
				{
					"internalType": "uint256",
					"name": "num1",
					"type": "uint256"
				},
				{
					"internalType": "uint256",
					"name": "num2",
					"type": "uint256"
				},
				{
					"internalType": "uint256",
					"name": "num3",
					"type": "uint256"
				}
			],
			"name": "avg",
			"outputs": [
				{
					"internalType": "uint256",
					"name": "",
					"type": "uint256"
				}
			],
			"stateMutability": "pure",
			"type": "function"
		},
		{
			"inputs": [
				{
					"internalType": "uint256",
					"name": "_num1",
					"type": "uint256"
				}
			],
			"name": "cube",
			"outputs": [
				{
					"internalType": "uint256",
					"name": "",
					"type": "uint256"
				}
			],
			"stateMutability": "pure",
			"type": "function"
		},
		{
			"inputs": [
				{
					"internalType": "uint256",
					"name": "x",
					"type": "uint256"
				},
				{
					"internalType": "uint256",
					"name": "y",
					"type": "uint256"
				}
			],
			"name": "expo",
			"outputs": [
				{
					"internalType": "uint256",
					"name": "",
					"type": "uint256"
				}
			],
			"stateMutability": "pure",
			"type": "function"
		},
		{
			"inputs": [
				{
					"internalType": "uint256",
					"name": "num",
					"type": "uint256"
				}
			],
			"name": "factorial",
			"outputs": [
				{
					"internalType": "uint256",
					"name": "",
					"type": "uint256"
				}
			],
			"stateMutability": "pure",
			"type": "function"
		},
		{
			"inputs": [
				{
					"internalType": "uint256",
					"name": "num",
					"type": "uint256"
				}
			],
			"name": "fibonnical",
			"outputs": [],
			"stateMutability": "nonpayable",
			"type": "function"
		},
		{
			"inputs": [],
			"name": "fibonnicalResult",
			"outputs": [
				{
					"internalType": "uint256",
					"name": "",
					"type": "uint256"
				}
			],
			"stateMutability": "view",
			"type": "function"
		},
		{
			"inputs": [
				{
					"internalType": "int256",
					"name": "num1",
					"type": "int256"
				},
				{
					"internalType": "int256",
					"name": "num2",
					"type": "int256"
				},
				{
					"internalType": "int256",
					"name": "num3",
					"type": "int256"
				}
			],
			"name": "greater",
			"outputs": [
				{
					"internalType": "int256",
					"name": "",
					"type": "int256"
				}
			],
			"stateMutability": "pure",
			"type": "function"
		},
		{
			"inputs": [
				{
					"internalType": "int256",
					"name": "num",
					"type": "int256"
				}
			],
			"name": "oddOrEven",
			"outputs": [
				{
					"internalType": "uint256",
					"name": "",
					"type": "uint256"
				}
			],
			"stateMutability": "pure",
			"type": "function"
		},
		{
			"inputs": [
				{
					"internalType": "int256",
					"name": "num",
					"type": "int256"
				}
			],
			"name": "prime",
			"outputs": [
				{
					"internalType": "int256",
					"name": "",
					"type": "int256"
				}
			],
			"stateMutability": "pure",
			"type": "function"
		},
		{
			"inputs": [
				{
					"internalType": "uint256",
					"name": "_inp",
					"type": "uint256"
				}
			],
			"name": "reverseInt",
			"outputs": [
				{
					"internalType": "uint256",
					"name": "",
					"type": "uint256"
				}
			],
			"stateMutability": "pure",
			"type": "function"
		},
		{
			"inputs": [
				{
					"internalType": "uint256",
					"name": "_inp",
					"type": "uint256"
				}
			],
			"name": "sumOfDigits",
			"outputs": [
				{
					"internalType": "uint256",
					"name": "",
					"type": "uint256"
				}
			],
			"stateMutability": "pure",
			"type": "function"
		},
		{
			"inputs": [],
			"name": "swap",
			"outputs": [],
			"stateMutability": "pure",
			"type": "function"
		}
	]
}