{
	"data": {
		"bytecode": {
			"linkReferences": {},
			"object": "608060405234801561001057600080fd5b5061130f806100206000396000f3fe608060405234801561001057600080fd5b50600436106100f55760003560e01c806392cc284111610097578063d9ea8e6411610066578063d9ea8e64146102d2578063f26c79ef14610302578063f492c0001461031e578063f4bf03c71461034e576100f5565b806392cc2841146102245780639e098fc114610254578063b413372114610284578063cdab7807146102a2576100f5565b80638119c065116100d35780638119c0651461018a578063837148341461019457806383d3705e146101c45780638ce32d21146101f4576100f5565b806317d95c7e146100fa578063464397261461012a5780634f4752ba1461015a575b600080fd5b610114600480360381019061010f91906109b9565b61037e565b6040516101219190610ba8565b60405180910390f35b610144600480360381019061013f919061098c565b61040e565b6040516101519190610c03565b60405180910390f35b610174600480360381019061016f9190610a79565b610437565b6040516101819190610c03565b60405180910390f35b61019261044d565b005b6101ae60048036038101906101a99190610a4c565b610467565b6040516101bb9190610c03565b60405180910390f35b6101de60048036038101906101d99190610a4c565b6104ba565b6040516101eb9190610c03565b60405180910390f35b61020e60048036038101906102099190610a4c565b61059b565b60405161021b9190610c03565b60405180910390f35b61023e60048036038101906102399190610ab9565b6105ea565b60405161024b9190610c03565b60405180910390f35b61026e60048036038101906102699190610a4c565b610618565b60405161027b9190610c03565b60405180910390f35b61028c610673565b6040516102999190610c03565b60405180910390f35b6102bc60048036038101906102b79190610a4c565b6107a6565b6040516102c99190610c03565b60405180910390f35b6102ec60048036038101906102e791906109f9565b610814565b6040516102f99190610ba8565b60405180910390f35b61031c60048036038101906103179190610a4c565b610841565b005b6103386004803603810190610333919061098c565b610900565b6040516103459190610ba8565b60405180910390f35b61036860048036038101906103639190610a4c565b61094c565b6040516103759190610c03565b60405180910390f35b60008083148061038e5750600082145b1561039c5760009050610408565b60008213156103cd576103bb836001846103b69190610f6b565b61037e565b836103c69190610c3a565b9050610408565b6000821215610407576103ec836001846103e79190610f6b565b61037e565b836103f79190610c3a565b61040090611148565b9050610408565b5b92915050565b60008060028361041e91906110e6565b141561042d5760019050610432565b600090505b919050565b600081836104459190610da8565b905092915050565b600060019050600060029050808280925081935050505050565b6000808290506000600190505b600082146104b0576000600a8361048b9190611117565b905080826104999190610f11565b9150600a836104a89190610d24565b925050610474565b8092505050919050565b6000808290506000805b600083146104ee5781806104d79061109d565b925050600a836104e79190610d24565b92506104c4565b6000821415610532576040517f08c379a000000000000000000000000000000000000000000000000000000000815260040161052990610be3565b60405180910390fd5b8492505b6000831461057d576000600a8461054d9190611117565b9050828161055b9190610da8565b826105669190610cce565b9150600a846105759190610d24565b935050610536565b80851461058b57600061058e565b60015b60ff169350505050919050565b60008082905060005b600082146105e0576000600a836105bb9190611117565b905080826105c99190610cce565b9150600a836105d89190610d24565b9250506105a4565b8092505050919050565b600060038284866105fb9190610cce565b6106059190610cce565b61060f9190610d24565b90509392505050565b60008060008390505b60008114610669576000600a826106389190611117565b905080600a846106489190610f11565b6106529190610cce565b9250600a826106619190610d24565b915050610621565b8192505050919050565b600080600090505b6002600060405161068b90610b93565b9081526020016040518091039020805490506106a79190610fff565b81101561079d5760006040516106bc90610b93565b90815260200160405180910390206002826106d79190610cce565b815481106106e8576106e76111ef565b5b9060005260206000200154600060405161070190610b93565b908152602001604051809103902060018361071c9190610cce565b8154811061072d5761072c6111ef565b5b90600052602060002001546107429190610cce565b600060405161075090610b93565b908152602001604051809103902082815481106107705761076f6111ef565b5b90600052602060002001541461078a5760009150506107a3565b80806107959061109d565b91505061067b565b50600190505b90565b60008082905060005b600082146107f7576000600a836107c69190611117565b905080600a836107d69190610f11565b6107e09190610cce565b9150600a836107ef9190610d24565b9250506107af565b838114610805576000610808565b60015b60ff1692505050919050565b6000808385136108245783610826565b845b90508281136108355782610837565b805b9150509392505050565b6000811415610885576040517f08c379a000000000000000000000000000000000000000000000000000000000815260040161087c90610bc3565b60405180910390fd5b60008190505b600081146108fc576000600a826108a29190611117565b905060006040516108b290610b93565b9081526020016040518091039020819080600181540180825580915050600190039060005260206000200160009091909190915055600a826108f49190610d24565b91505061088b565b5050565b600080600290505b82811215610941576000818461091e91906110e6565b141561092e576000915050610947565b808061093990611054565b915050610908565b50600190505b919050565b600060028261095b9190610df3565b9050919050565b600081359050610971816112ab565b92915050565b600081359050610986816112c2565b92915050565b6000602082840312156109a2576109a161121e565b5b60006109b084828501610962565b91505092915050565b600080604083850312156109d0576109cf61121e565b5b60006109de85828601610962565b92505060206109ef85828601610962565b9150509250929050565b600080600060608486031215610a1257610a1161121e565b5b6000610a2086828701610962565b9350506020610a3186828701610962565b9250506040610a4286828701610962565b9150509250925092565b600060208284031215610a6257610a6161121e565b5b6000610a7084828501610977565b91505092915050565b60008060408385031215610a9057610a8f61121e565b5b6000610a9e85828601610977565b9250506020610aaf85828601610977565b9150509250929050565b600080600060608486031215610ad257610ad161121e565b5b6000610ae086828701610977565b9350506020610af186828701610977565b9250506040610b0286828701610977565b9150509250925092565b610b1581611033565b82525050565b6000610b28601283610c1e565b9150610b3382611230565b602082019050919050565b6000610b4b600683610c2f565b9150610b5682611259565b600682019050919050565b6000610b6e601283610c1e565b9150610b7982611282565b602082019050919050565b610b8d8161103d565b82525050565b6000610b9e82610b3e565b9150819050919050565b6000602082019050610bbd6000830184610b0c565b92915050565b60006020820190508181036000830152610bdc81610b1b565b9050919050565b60006020820190508181036000830152610bfc81610b61565b9050919050565b6000602082019050610c186000830184610b84565b92915050565b600082825260208201905092915050565b600081905092915050565b6000610c4582611033565b9150610c5083611033565b9250817f7fffffffffffffffffffffffffffffffffffffffffffffffffffffffffffffff03831360008312151615610c8b57610c8a611191565b5b817f8000000000000000000000000000000000000000000000000000000000000000038312600083121615610cc357610cc2611191565b5b828201905092915050565b6000610cd98261103d565b9150610ce48361103d565b9250827fffffffffffffffffffffffffffffffffffffffffffffffffffffffffffffffff03821115610d1957610d18611191565b5b828201905092915050565b6000610d2f8261103d565b9150610d3a8361103d565b925082610d4a57610d496111c0565b5b828204905092915050565b6000808291508390505b6001851115610d9f57808604811115610d7b57610d7a611191565b5b6001851615610d8a5780820291505b8081029050610d9885611223565b9450610d5f565b94509492505050565b6000610db38261103d565b9150610dbe8361103d565b9250610deb7fffffffffffffffffffffffffffffffffffffffffffffffffffffffffffffffff8484610e3e565b905092915050565b6000610dfe8261103d565b9150610e0983611047565b9250610e367fffffffffffffffffffffffffffffffffffffffffffffffffffffffffffffffff8484610e3e565b905092915050565b600082610e4e5760019050610f0a565b81610e5c5760009050610f0a565b8160018114610e725760028114610e7c57610eab565b6001915050610f0a565b60ff841115610e8e57610e8d611191565b5b8360020a915084821115610ea557610ea4611191565b5b50610f0a565b5060208310610133831016604e8410600b8410161715610ee05782820a905083811115610edb57610eda611191565b5b610f0a565b610eed8484846001610d55565b92509050818404811115610f0457610f03611191565b5b81810290505b9392505050565b6000610f1c8261103d565b9150610f278361103d565b9250817fffffffffffffffffffffffffffffffffffffffffffffffffffffffffffffffff0483118215151615610f6057610f5f611191565b5b828202905092915050565b6000610f7682611033565b9150610f8183611033565b9250827f800000000000000000000000000000000000000000000000000000000000000001821260008412151615610fbc57610fbb611191565b5b827f7fffffffffffffffffffffffffffffffffffffffffffffffffffffffffffffff018213600084121615610ff457610ff3611191565b5b828203905092915050565b600061100a8261103d565b91506110158361103d565b92508282101561102857611027611191565b5b828203905092915050565b6000819050919050565b6000819050919050565b600060ff82169050919050565b600061105f82611033565b91507f7fffffffffffffffffffffffffffffffffffffffffffffffffffffffffffffff82141561109257611091611191565b5b600182019050919050565b60006110a88261103d565b91507fffffffffffffffffffffffffffffffffffffffffffffffffffffffffffffffff8214156110db576110da611191565b5b600182019050919050565b60006110f182611033565b91506110fc83611033565b92508261110c5761110b6111c0565b5b828207905092915050565b60006111228261103d565b915061112d8361103d565b92508261113d5761113c6111c0565b5b828206905092915050565b600061115382611033565b91507f800000000000000000000000000000000000000000000000000000000000000082141561118657611185611191565b5b816000039050919050565b7f4e487b7100000000000000000000000000000000000000000000000000000000600052601160045260246000fd5b7f4e487b7100000000000000000000000000000000000000000000000000000000600052601260045260246000fd5b7f4e487b7100000000000000000000000000000000000000000000000000000000600052603260045260246000fd5b600080fd5b60008160011c9050919050565b7f6e6f7420412076616c6964206e756d6265720000000000000000000000000000600082015250565b7f6e756d4172720000000000000000000000000000000000000000000000000000600082015250565b7f6e6f7420612076616c6964206e756d6265720000000000000000000000000000600082015250565b6112b481611033565b81146112bf57600080fd5b50565b6112cb8161103d565b81146112d657600080fd5b5056fea26469706673582212203f775f686ecaf65fcca9d03e9a7baf91454ea66a4760f24aa6aa8bd2d694b64a64736f6c63430008070033",
			"opcodes": "PUSH1 0x80 PUSH1 0x40 MSTORE CALLVALUE DUP1 ISZERO PUSH2 0x10 JUMPI PUSH1 0x0 DUP1 REVERT JUMPDEST POP PUSH2 0x130F DUP1 PUSH2 0x20 PUSH1 0x0 CODECOPY PUSH1 0x0 RETURN INVALID PUSH1 0x80 PUSH1 0x40 MSTORE CALLVALUE DUP1 ISZERO PUSH2 0x10 JUMPI PUSH1 0x0 DUP1 REVERT JUMPDEST POP PUSH1 0x4 CALLDATASIZE LT PUSH2 0xF5 JUMPI PUSH1 0x0 CALLDATALOAD PUSH1 0xE0 SHR DUP1 PUSH4 0x92CC2841 GT PUSH2 0x97 JUMPI DUP1 PUSH4 0xD9EA8E64 GT PUSH2 0x66 JUMPI DUP1 PUSH4 0xD9EA8E64 EQ PUSH2 0x2D2 JUMPI DUP1 PUSH4 0xF26C79EF EQ PUSH2 0x302 JUMPI DUP1 PUSH4 0xF492C000 EQ PUSH2 0x31E JUMPI DUP1 PUSH4 0xF4BF03C7 EQ PUSH2 0x34E JUMPI PUSH2 0xF5 JUMP JUMPDEST DUP1 PUSH4 0x92CC2841 EQ PUSH2 0x224 JUMPI DUP1 PUSH4 0x9E098FC1 EQ PUSH2 0x254 JUMPI DUP1 PUSH4 0xB4133721 EQ PUSH2 0x284 JUMPI DUP1 PUSH4 0xCDAB7807 EQ PUSH2 0x2A2 JUMPI PUSH2 0xF5 JUMP JUMPDEST DUP1 PUSH4 0x8119C065 GT PUSH2 0xD3 JUMPI DUP1 PUSH4 0x8119C065 EQ PUSH2 0x18A JUMPI DUP1 PUSH4 0x83714834 EQ PUSH2 0x194 JUMPI DUP1 PUSH4 0x83D3705E EQ PUSH2 0x1C4 JUMPI DUP1 PUSH4 0x8CE32D21 EQ PUSH2 0x1F4 JUMPI PUSH2 0xF5 JUMP JUMPDEST DUP1 PUSH4 0x17D95C7E EQ PUSH2 0xFA JUMPI DUP1 PUSH4 0x46439726 EQ PUSH2 0x12A JUMPI DUP1 PUSH4 0x4F4752BA EQ PUSH2 0x15A JUMPI JUMPDEST PUSH1 0x0 DUP1 REVERT JUMPDEST PUSH2 0x114 PUSH1 0x4 DUP1 CALLDATASIZE SUB DUP2 ADD SWAP1 PUSH2 0x10F SWAP2 SWAP1 PUSH2 0x9B9 JUMP JUMPDEST PUSH2 0x37E JUMP JUMPDEST PUSH1 0x40 MLOAD PUSH2 0x121 SWAP2 SWAP1 PUSH2 0xBA8 JUMP JUMPDEST PUSH1 0x40 MLOAD DUP1 SWAP2 SUB SWAP1 RETURN JUMPDEST PUSH2 0x144 PUSH1 0x4 DUP1 CALLDATASIZE SUB DUP2 ADD SWAP1 PUSH2 0x13F SWAP2 SWAP1 PUSH2 0x98C JUMP JUMPDEST PUSH2 0x40E JUMP JUMPDEST PUSH1 0x40 MLOAD PUSH2 0x151 SWAP2 SWAP1 PUSH2 0xC03 JUMP JUMPDEST PUSH1 0x40 MLOAD DUP1 SWAP2 SUB SWAP1 RETURN JUMPDEST PUSH2 0x174 PUSH1 0x4 DUP1 CALLDATASIZE SUB DUP2 ADD SWAP1 PUSH2 0x16F SWAP2 SWAP1 PUSH2 0xA79 JUMP JUMPDEST PUSH2 0x437 JUMP JUMPDEST PUSH1 0x40 MLOAD PUSH2 0x181 SWAP2 SWAP1 PUSH2 0xC03 JUMP JUMPDEST PUSH1 0x40 MLOAD DUP1 SWAP2 SUB SWAP1 RETURN JUMPDEST PUSH2 0x192 PUSH2 0x44D JUMP JUMPDEST STOP JUMPDEST PUSH2 0x1AE PUSH1 0x4 DUP1 CALLDATASIZE SUB DUP2 ADD SWAP1 PUSH2 0x1A9 SWAP2 SWAP1 PUSH2 0xA4C JUMP JUMPDEST PUSH2 0x467 JUMP JUMPDEST PUSH1 0x40 MLOAD PUSH2 0x1BB SWAP2 SWAP1 PUSH2 0xC03 JUMP JUMPDEST PUSH1 0x40 MLOAD DUP1 SWAP2 SUB SWAP1 RETURN JUMPDEST PUSH2 0x1DE PUSH1 0x4 DUP1 CALLDATASIZE SUB DUP2 ADD SWAP1 PUSH2 0x1D9 SWAP2 SWAP1 PUSH2 0xA4C JUMP JUMPDEST PUSH2 0x4BA JUMP JUMPDEST PUSH1 0x40 MLOAD PUSH2 0x1EB SWAP2 SWAP1 PUSH2 0xC03 JUMP JUMPDEST PUSH1 0x40 MLOAD DUP1 SWAP2 SUB SWAP1 RETURN JUMPDEST PUSH2 0x20E PUSH1 0x4 DUP1 CALLDATASIZE SUB DUP2 ADD SWAP1 PUSH2 0x209 SWAP2 SWAP1 PUSH2 0xA4C JUMP JUMPDEST PUSH2 0x59B JUMP JUMPDEST PUSH1 0x40 MLOAD PUSH2 0x21B SWAP2 SWAP1 PUSH2 0xC03 JUMP JUMPDEST PUSH1 0x40 MLOAD DUP1 SWAP2 SUB SWAP1 RETURN JUMPDEST PUSH2 0x23E PUSH1 0x4 DUP1 CALLDATASIZE SUB DUP2 ADD SWAP1 PUSH2 0x239 SWAP2 SWAP1 PUSH2 0xAB9 JUMP JUMPDEST PUSH2 0x5EA JUMP JUMPDEST PUSH1 0x40 MLOAD PUSH2 0x24B SWAP2 SWAP1 PUSH2 0xC03 JUMP JUMPDEST PUSH1 0x40 MLOAD DUP1 SWAP2 SUB SWAP1 RETURN JUMPDEST PUSH2 0x26E PUSH1 0x4 DUP1 CALLDATASIZE SUB DUP2 ADD SWAP1 PUSH2 0x269 SWAP2 SWAP1 PUSH2 0xA4C JUMP JUMPDEST PUSH2 0x618 JUMP JUMPDEST PUSH1 0x40 MLOAD PUSH2 0x27B SWAP2 SWAP1 PUSH2 0xC03 JUMP JUMPDEST PUSH1 0x40 MLOAD DUP1 SWAP2 SUB SWAP1 RETURN JUMPDEST PUSH2 0x28C PUSH2 0x673 JUMP JUMPDEST PUSH1 0x40 MLOAD PUSH2 0x299 SWAP2 SWAP1 PUSH2 0xC03 JUMP JUMPDEST PUSH1 0x40 MLOAD DUP1 SWAP2 SUB SWAP1 RETURN JUMPDEST PUSH2 0x2BC PUSH1 0x4 DUP1 CALLDATASIZE SUB DUP2 ADD SWAP1 PUSH2 0x2B7 SWAP2 SWAP1 PUSH2 0xA4C JUMP JUMPDEST PUSH2 0x7A6 JUMP JUMPDEST PUSH1 0x40 MLOAD PUSH2 0x2C9 SWAP2 SWAP1 PUSH2 0xC03 JUMP JUMPDEST PUSH1 0x40 MLOAD DUP1 SWAP2 SUB SWAP1 RETURN JUMPDEST PUSH2 0x2EC PUSH1 0x4 DUP1 CALLDATASIZE SUB DUP2 ADD SWAP1 PUSH2 0x2E7 SWAP2 SWAP1 PUSH2 0x9F9 JUMP JUMPDEST PUSH2 0x814 JUMP JUMPDEST PUSH1 0x40 MLOAD PUSH2 0x2F9 SWAP2 SWAP1 PUSH2 0xBA8 JUMP JUMPDEST PUSH1 0x40 MLOAD DUP1 SWAP2 SUB SWAP1 RETURN JUMPDEST PUSH2 0x31C PUSH1 0x4 DUP1 CALLDATASIZE SUB DUP2 ADD SWAP1 PUSH2 0x317 SWAP2 SWAP1 PUSH2 0xA4C JUMP JUMPDEST PUSH2 0x841 JUMP JUMPDEST STOP JUMPDEST PUSH2 0x338 PUSH1 0x4 DUP1 CALLDATASIZE SUB DUP2 ADD SWAP1 PUSH2 0x333 SWAP2 SWAP1 PUSH2 0x98C JUMP JUMPDEST PUSH2 0x900 JUMP JUMPDEST PUSH1 0x40 MLOAD PUSH2 0x345 SWAP2 SWAP1 PUSH2 0xBA8 JUMP JUMPDEST PUSH1 0x40 MLOAD DUP1 SWAP2 SUB SWAP1 RETURN JUMPDEST PUSH2 0x368 PUSH1 0x4 DUP1 CALLDATASIZE SUB DUP2 ADD SWAP1 PUSH2 0x363 SWAP2 SWAP1 PUSH2 0xA4C JUMP JUMPDEST PUSH2 0x94C JUMP JUMPDEST PUSH1 0x40 MLOAD PUSH2 0x375 SWAP2 SWAP1 PUSH2 0xC03 JUMP JUMPDEST PUSH1 0x40 MLOAD DUP1 SWAP2 SUB SWAP1 RETURN JUMPDEST PUSH1 0x0 DUP1 DUP4 EQ DUP1 PUSH2 0x38E JUMPI POP PUSH1 0x0 DUP3 EQ JUMPDEST ISZERO PUSH2 0x39C JUMPI PUSH1 0x0 SWAP1 POP PUSH2 0x408 JUMP JUMPDEST PUSH1 0x0 DUP3 SGT ISZERO PUSH2 0x3CD JUMPI PUSH2 0x3BB DUP4 PUSH1 0x1 DUP5 PUSH2 0x3B6 SWAP2 SWAP1 PUSH2 0xF6B JUMP JUMPDEST PUSH2 0x37E JUMP JUMPDEST DUP4 PUSH2 0x3C6 SWAP2 SWAP1 PUSH2 0xC3A JUMP JUMPDEST SWAP1 POP PUSH2 0x408 JUMP JUMPDEST PUSH1 0x0 DUP3 SLT ISZERO PUSH2 0x407 JUMPI PUSH2 0x3EC DUP4 PUSH1 0x1 DUP5 PUSH2 0x3E7 SWAP2 SWAP1 PUSH2 0xF6B JUMP JUMPDEST PUSH2 0x37E JUMP JUMPDEST DUP4 PUSH2 0x3F7 SWAP2 SWAP1 PUSH2 0xC3A JUMP JUMPDEST PUSH2 0x400 SWAP1 PUSH2 0x1148 JUMP JUMPDEST SWAP1 POP PUSH2 0x408 JUMP JUMPDEST JUMPDEST SWAP3 SWAP2 POP POP JUMP JUMPDEST PUSH1 0x0 DUP1 PUSH1 0x2 DUP4 PUSH2 0x41E SWAP2 SWAP1 PUSH2 0x10E6 JUMP JUMPDEST EQ ISZERO PUSH2 0x42D JUMPI PUSH1 0x1 SWAP1 POP PUSH2 0x432 JUMP JUMPDEST PUSH1 0x0 SWAP1 POP JUMPDEST SWAP2 SWAP1 POP JUMP JUMPDEST PUSH1 0x0 DUP2 DUP4 PUSH2 0x445 SWAP2 SWAP1 PUSH2 0xDA8 JUMP JUMPDEST SWAP1 POP SWAP3 SWAP2 POP POP JUMP JUMPDEST PUSH1 0x0 PUSH1 0x1 SWAP1 POP PUSH1 0x0 PUSH1 0x2 SWAP1 POP DUP1 DUP3 DUP1 SWAP3 POP DUP2 SWAP4 POP POP POP POP POP JUMP JUMPDEST PUSH1 0x0 DUP1 DUP3 SWAP1 POP PUSH1 0x0 PUSH1 0x1 SWAP1 POP JUMPDEST PUSH1 0x0 DUP3 EQ PUSH2 0x4B0 JUMPI PUSH1 0x0 PUSH1 0xA DUP4 PUSH2 0x48B SWAP2 SWAP1 PUSH2 0x1117 JUMP JUMPDEST SWAP1 POP DUP1 DUP3 PUSH2 0x499 SWAP2 SWAP1 PUSH2 0xF11 JUMP JUMPDEST SWAP2 POP PUSH1 0xA DUP4 PUSH2 0x4A8 SWAP2 SWAP1 PUSH2 0xD24 JUMP JUMPDEST SWAP3 POP POP PUSH2 0x474 JUMP JUMPDEST DUP1 SWAP3 POP POP POP SWAP2 SWAP1 POP JUMP JUMPDEST PUSH1 0x0 DUP1 DUP3 SWAP1 POP PUSH1 0x0 DUP1 JUMPDEST PUSH1 0x0 DUP4 EQ PUSH2 0x4EE JUMPI DUP2 DUP1 PUSH2 0x4D7 SWAP1 PUSH2 0x109D JUMP JUMPDEST SWAP3 POP POP PUSH1 0xA DUP4 PUSH2 0x4E7 SWAP2 SWAP1 PUSH2 0xD24 JUMP JUMPDEST SWAP3 POP PUSH2 0x4C4 JUMP JUMPDEST PUSH1 0x0 DUP3 EQ ISZERO PUSH2 0x532 JUMPI PUSH1 0x40 MLOAD PUSH32 0x8C379A000000000000000000000000000000000000000000000000000000000 DUP2 MSTORE PUSH1 0x4 ADD PUSH2 0x529 SWAP1 PUSH2 0xBE3 JUMP JUMPDEST PUSH1 0x40 MLOAD DUP1 SWAP2 SUB SWAP1 REVERT JUMPDEST DUP5 SWAP3 POP JUMPDEST PUSH1 0x0 DUP4 EQ PUSH2 0x57D JUMPI PUSH1 0x0 PUSH1 0xA DUP5 PUSH2 0x54D SWAP2 SWAP1 PUSH2 0x1117 JUMP JUMPDEST SWAP1 POP DUP3 DUP2 PUSH2 0x55B SWAP2 SWAP1 PUSH2 0xDA8 JUMP JUMPDEST DUP3 PUSH2 0x566 SWAP2 SWAP1 PUSH2 0xCCE JUMP JUMPDEST SWAP2 POP PUSH1 0xA DUP5 PUSH2 0x575 SWAP2 SWAP1 PUSH2 0xD24 JUMP JUMPDEST SWAP4 POP POP PUSH2 0x536 JUMP JUMPDEST DUP1 DUP6 EQ PUSH2 0x58B JUMPI PUSH1 0x0 PUSH2 0x58E JUMP JUMPDEST PUSH1 0x1 JUMPDEST PUSH1 0xFF AND SWAP4 POP POP POP POP SWAP2 SWAP1 POP JUMP JUMPDEST PUSH1 0x0 DUP1 DUP3 SWAP1 POP PUSH1 0x0 JUMPDEST PUSH1 0x0 DUP3 EQ PUSH2 0x5E0 JUMPI PUSH1 0x0 PUSH1 0xA DUP4 PUSH2 0x5BB SWAP2 SWAP1 PUSH2 0x1117 JUMP JUMPDEST SWAP1 POP DUP1 DUP3 PUSH2 0x5C9 SWAP2 SWAP1 PUSH2 0xCCE JUMP JUMPDEST SWAP2 POP PUSH1 0xA DUP4 PUSH2 0x5D8 SWAP2 SWAP1 PUSH2 0xD24 JUMP JUMPDEST SWAP3 POP POP PUSH2 0x5A4 JUMP JUMPDEST DUP1 SWAP3 POP POP POP SWAP2 SWAP1 POP JUMP JUMPDEST PUSH1 0x0 PUSH1 0x3 DUP3 DUP5 DUP7 PUSH2 0x5FB SWAP2 SWAP1 PUSH2 0xCCE JUMP JUMPDEST PUSH2 0x605 SWAP2 SWAP1 PUSH2 0xCCE JUMP JUMPDEST PUSH2 0x60F SWAP2 SWAP1 PUSH2 0xD24 JUMP JUMPDEST SWAP1 POP SWAP4 SWAP3 POP POP POP JUMP JUMPDEST PUSH1 0x0 DUP1 PUSH1 0x0 DUP4 SWAP1 POP JUMPDEST PUSH1 0x0 DUP2 EQ PUSH2 0x669 JUMPI PUSH1 0x0 PUSH1 0xA DUP3 PUSH2 0x638 SWAP2 SWAP1 PUSH2 0x1117 JUMP JUMPDEST SWAP1 POP DUP1 PUSH1 0xA DUP5 PUSH2 0x648 SWAP2 SWAP1 PUSH2 0xF11 JUMP JUMPDEST PUSH2 0x652 SWAP2 SWAP1 PUSH2 0xCCE JUMP JUMPDEST SWAP3 POP PUSH1 0xA DUP3 PUSH2 0x661 SWAP2 SWAP1 PUSH2 0xD24 JUMP JUMPDEST SWAP2 POP POP PUSH2 0x621 JUMP JUMPDEST DUP2 SWAP3 POP POP POP SWAP2 SWAP1 POP JUMP JUMPDEST PUSH1 0x0 DUP1 PUSH1 0x0 SWAP1 POP JUMPDEST PUSH1 0x2 PUSH1 0x0 PUSH1 0x40 MLOAD PUSH2 0x68B SWAP1 PUSH2 0xB93 JUMP JUMPDEST SWAP1 DUP2 MSTORE PUSH1 0x20 ADD PUSH1 0x40 MLOAD DUP1 SWAP2 SUB SWAP1 KECCAK256 DUP1 SLOAD SWAP1 POP PUSH2 0x6A7 SWAP2 SWAP1 PUSH2 0xFFF JUMP JUMPDEST DUP2 LT ISZERO PUSH2 0x79D JUMPI PUSH1 0x0 PUSH1 0x40 MLOAD PUSH2 0x6BC SWAP1 PUSH2 0xB93 JUMP JUMPDEST SWAP1 DUP2 MSTORE PUSH1 0x20 ADD PUSH1 0x40 MLOAD DUP1 SWAP2 SUB SWAP1 KECCAK256 PUSH1 0x2 DUP3 PUSH2 0x6D7 SWAP2 SWAP1 PUSH2 0xCCE JUMP JUMPDEST DUP2 SLOAD DUP2 LT PUSH2 0x6E8 JUMPI PUSH2 0x6E7 PUSH2 0x11EF JUMP JUMPDEST JUMPDEST SWAP1 PUSH1 0x0 MSTORE PUSH1 0x20 PUSH1 0x0 KECCAK256 ADD SLOAD PUSH1 0x0 PUSH1 0x40 MLOAD PUSH2 0x701 SWAP1 PUSH2 0xB93 JUMP JUMPDEST SWAP1 DUP2 MSTORE PUSH1 0x20 ADD PUSH1 0x40 MLOAD DUP1 SWAP2 SUB SWAP1 KECCAK256 PUSH1 0x1 DUP4 PUSH2 0x71C SWAP2 SWAP1 PUSH2 0xCCE JUMP JUMPDEST DUP2 SLOAD DUP2 LT PUSH2 0x72D JUMPI PUSH2 0x72C PUSH2 0x11EF JUMP JUMPDEST JUMPDEST SWAP1 PUSH1 0x0 MSTORE PUSH1 0x20 PUSH1 0x0 KECCAK256 ADD SLOAD PUSH2 0x742 SWAP2 SWAP1 PUSH2 0xCCE JUMP JUMPDEST PUSH1 0x0 PUSH1 0x40 MLOAD PUSH2 0x750 SWAP1 PUSH2 0xB93 JUMP JUMPDEST SWAP1 DUP2 MSTORE PUSH1 0x20 ADD PUSH1 0x40 MLOAD DUP1 SWAP2 SUB SWAP1 KECCAK256 DUP3 DUP2 SLOAD DUP2 LT PUSH2 0x770 JUMPI PUSH2 0x76F PUSH2 0x11EF JUMP JUMPDEST JUMPDEST SWAP1 PUSH1 0x0 MSTORE PUSH1 0x20 PUSH1 0x0 KECCAK256 ADD SLOAD EQ PUSH2 0x78A JUMPI PUSH1 0x0 SWAP2 POP POP PUSH2 0x7A3 JUMP JUMPDEST DUP1 DUP1 PUSH2 0x795 SWAP1 PUSH2 0x109D JUMP JUMPDEST SWAP2 POP POP PUSH2 0x67B JUMP JUMPDEST POP PUSH1 0x1 SWAP1 POP JUMPDEST SWAP1 JUMP JUMPDEST PUSH1 0x0 DUP1 DUP3 SWAP1 POP PUSH1 0x0 JUMPDEST PUSH1 0x0 DUP3 EQ PUSH2 0x7F7 JUMPI PUSH1 0x0 PUSH1 0xA DUP4 PUSH2 0x7C6 SWAP2 SWAP1 PUSH2 0x1117 JUMP JUMPDEST SWAP1 POP DUP1 PUSH1 0xA DUP4 PUSH2 0x7D6 SWAP2 SWAP1 PUSH2 0xF11 JUMP JUMPDEST PUSH2 0x7E0 SWAP2 SWAP1 PUSH2 0xCCE JUMP JUMPDEST SWAP2 POP PUSH1 0xA DUP4 PUSH2 0x7EF SWAP2 SWAP1 PUSH2 0xD24 JUMP JUMPDEST SWAP3 POP POP PUSH2 0x7AF JUMP JUMPDEST DUP4 DUP2 EQ PUSH2 0x805 JUMPI PUSH1 0x0 PUSH2 0x808 JUMP JUMPDEST PUSH1 0x1 JUMPDEST PUSH1 0xFF AND SWAP3 POP POP POP SWAP2 SWAP1 POP JUMP JUMPDEST PUSH1 0x0 DUP1 DUP4 DUP6 SGT PUSH2 0x824 JUMPI DUP4 PUSH2 0x826 JUMP JUMPDEST DUP5 JUMPDEST SWAP1 POP DUP3 DUP2 SGT PUSH2 0x835 JUMPI DUP3 PUSH2 0x837 JUMP JUMPDEST DUP1 JUMPDEST SWAP2 POP POP SWAP4 SWAP3 POP POP POP JUMP JUMPDEST PUSH1 0x0 DUP2 EQ ISZERO PUSH2 0x885 JUMPI PUSH1 0x40 MLOAD PUSH32 0x8C379A000000000000000000000000000000000000000000000000000000000 DUP2 MSTORE PUSH1 0x4 ADD PUSH2 0x87C SWAP1 PUSH2 0xBC3 JUMP JUMPDEST PUSH1 0x40 MLOAD DUP1 SWAP2 SUB SWAP1 REVERT JUMPDEST PUSH1 0x0 DUP2 SWAP1 POP JUMPDEST PUSH1 0x0 DUP2 EQ PUSH2 0x8FC JUMPI PUSH1 0x0 PUSH1 0xA DUP3 PUSH2 0x8A2 SWAP2 SWAP1 PUSH2 0x1117 JUMP JUMPDEST SWAP1 POP PUSH1 0x0 PUSH1 0x40 MLOAD PUSH2 0x8B2 SWAP1 PUSH2 0xB93 JUMP JUMPDEST SWAP1 DUP2 MSTORE PUSH1 0x20 ADD PUSH1 0x40 MLOAD DUP1 SWAP2 SUB SWAP1 KECCAK256 DUP2 SWAP1 DUP1 PUSH1 0x1 DUP2 SLOAD ADD DUP1 DUP3 SSTORE DUP1 SWAP2 POP POP PUSH1 0x1 SWAP1 SUB SWAP1 PUSH1 0x0 MSTORE PUSH1 0x20 PUSH1 0x0 KECCAK256 ADD PUSH1 0x0 SWAP1 SWAP2 SWAP1 SWAP2 SWAP1 SWAP2 POP SSTORE PUSH1 0xA DUP3 PUSH2 0x8F4 SWAP2 SWAP1 PUSH2 0xD24 JUMP JUMPDEST SWAP2 POP POP PUSH2 0x88B JUMP JUMPDEST POP POP JUMP JUMPDEST PUSH1 0x0 DUP1 PUSH1 0x2 SWAP1 POP JUMPDEST DUP3 DUP2 SLT ISZERO PUSH2 0x941 JUMPI PUSH1 0x0 DUP2 DUP5 PUSH2 0x91E SWAP2 SWAP1 PUSH2 0x10E6 JUMP JUMPDEST EQ ISZERO PUSH2 0x92E JUMPI PUSH1 0x0 SWAP2 POP POP PUSH2 0x947 JUMP JUMPDEST DUP1 DUP1 PUSH2 0x939 SWAP1 PUSH2 0x1054 JUMP JUMPDEST SWAP2 POP POP PUSH2 0x908 JUMP JUMPDEST POP PUSH1 0x1 SWAP1 POP JUMPDEST SWAP2 SWAP1 POP JUMP JUMPDEST PUSH1 0x0 PUSH1 0x2 DUP3 PUSH2 0x95B SWAP2 SWAP1 PUSH2 0xDF3 JUMP JUMPDEST SWAP1 POP SWAP2 SWAP1 POP JUMP JUMPDEST PUSH1 0x0 DUP2 CALLDATALOAD SWAP1 POP PUSH2 0x971 DUP2 PUSH2 0x12AB JUMP JUMPDEST SWAP3 SWAP2 POP POP JUMP JUMPDEST PUSH1 0x0 DUP2 CALLDATALOAD SWAP1 POP PUSH2 0x986 DUP2 PUSH2 0x12C2 JUMP JUMPDEST SWAP3 SWAP2 POP POP JUMP JUMPDEST PUSH1 0x0 PUSH1 0x20 DUP3 DUP5 SUB SLT ISZERO PUSH2 0x9A2 JUMPI PUSH2 0x9A1 PUSH2 0x121E JUMP JUMPDEST JUMPDEST PUSH1 0x0 PUSH2 0x9B0 DUP5 DUP3 DUP6 ADD PUSH2 0x962 JUMP JUMPDEST SWAP2 POP POP SWAP3 SWAP2 POP POP JUMP JUMPDEST PUSH1 0x0 DUP1 PUSH1 0x40 DUP4 DUP6 SUB SLT ISZERO PUSH2 0x9D0 JUMPI PUSH2 0x9CF PUSH2 0x121E JUMP JUMPDEST JUMPDEST PUSH1 0x0 PUSH2 0x9DE DUP6 DUP3 DUP7 ADD PUSH2 0x962 JUMP JUMPDEST SWAP3 POP POP PUSH1 0x20 PUSH2 0x9EF DUP6 DUP3 DUP7 ADD PUSH2 0x962 JUMP JUMPDEST SWAP2 POP POP SWAP3 POP SWAP3 SWAP1 POP JUMP JUMPDEST PUSH1 0x0 DUP1 PUSH1 0x0 PUSH1 0x60 DUP5 DUP7 SUB SLT ISZERO PUSH2 0xA12 JUMPI PUSH2 0xA11 PUSH2 0x121E JUMP JUMPDEST JUMPDEST PUSH1 0x0 PUSH2 0xA20 DUP7 DUP3 DUP8 ADD PUSH2 0x962 JUMP JUMPDEST SWAP4 POP POP PUSH1 0x20 PUSH2 0xA31 DUP7 DUP3 DUP8 ADD PUSH2 0x962 JUMP JUMPDEST SWAP3 POP POP PUSH1 0x40 PUSH2 0xA42 DUP7 DUP3 DUP8 ADD PUSH2 0x962 JUMP JUMPDEST SWAP2 POP POP SWAP3 POP SWAP3 POP SWAP3 JUMP JUMPDEST PUSH1 0x0 PUSH1 0x20 DUP3 DUP5 SUB SLT ISZERO PUSH2 0xA62 JUMPI PUSH2 0xA61 PUSH2 0x121E JUMP JUMPDEST JUMPDEST PUSH1 0x0 PUSH2 0xA70 DUP5 DUP3 DUP6 ADD PUSH2 0x977 JUMP JUMPDEST SWAP2 POP POP SWAP3 SWAP2 POP POP JUMP JUMPDEST PUSH1 0x0 DUP1 PUSH1 0x40 DUP4 DUP6 SUB SLT ISZERO PUSH2 0xA90 JUMPI PUSH2 0xA8F PUSH2 0x121E JUMP JUMPDEST JUMPDEST PUSH1 0x0 PUSH2 0xA9E DUP6 DUP3 DUP7 ADD PUSH2 0x977 JUMP JUMPDEST SWAP3 POP POP PUSH1 0x20 PUSH2 0xAAF DUP6 DUP3 DUP7 ADD PUSH2 0x977 JUMP JUMPDEST SWAP2 POP POP SWAP3 POP SWAP3 SWAP1 POP JUMP JUMPDEST PUSH1 0x0 DUP1 PUSH1 0x0 PUSH1 0x60 DUP5 DUP7 SUB SLT ISZERO PUSH2 0xAD2 JUMPI PUSH2 0xAD1 PUSH2 0x121E JUMP JUMPDEST JUMPDEST PUSH1 0x0 PUSH2 0xAE0 DUP7 DUP3 DUP8 ADD PUSH2 0x977 JUMP JUMPDEST SWAP4 POP POP PUSH1 0x20 PUSH2 0xAF1 DUP7 DUP3 DUP8 ADD PUSH2 0x977 JUMP JUMPDEST SWAP3 POP POP PUSH1 0x40 PUSH2 0xB02 DUP7 DUP3 DUP8 ADD PUSH2 0x977 JUMP JUMPDEST SWAP2 POP POP SWAP3 POP SWAP3 POP SWAP3 JUMP JUMPDEST PUSH2 0xB15 DUP2 PUSH2 0x1033 JUMP JUMPDEST DUP3 MSTORE POP POP JUMP JUMPDEST PUSH1 0x0 PUSH2 0xB28 PUSH1 0x12 DUP4 PUSH2 0xC1E JUMP JUMPDEST SWAP2 POP PUSH2 0xB33 DUP3 PUSH2 0x1230 JUMP JUMPDEST PUSH1 0x20 DUP3 ADD SWAP1 POP SWAP2 SWAP1 POP JUMP JUMPDEST PUSH1 0x0 PUSH2 0xB4B PUSH1 0x6 DUP4 PUSH2 0xC2F JUMP JUMPDEST SWAP2 POP PUSH2 0xB56 DUP3 PUSH2 0x1259 JUMP JUMPDEST PUSH1 0x6 DUP3 ADD SWAP1 POP SWAP2 SWAP1 POP JUMP JUMPDEST PUSH1 0x0 PUSH2 0xB6E PUSH1 0x12 DUP4 PUSH2 0xC1E JUMP JUMPDEST SWAP2 POP PUSH2 0xB79 DUP3 PUSH2 0x1282 JUMP JUMPDEST PUSH1 0x20 DUP3 ADD SWAP1 POP SWAP2 SWAP1 POP JUMP JUMPDEST PUSH2 0xB8D DUP2 PUSH2 0x103D JUMP JUMPDEST DUP3 MSTORE POP POP JUMP JUMPDEST PUSH1 0x0 PUSH2 0xB9E DUP3 PUSH2 0xB3E JUMP JUMPDEST SWAP2 POP DUP2 SWAP1 POP SWAP2 SWAP1 POP JUMP JUMPDEST PUSH1 0x0 PUSH1 0x20 DUP3 ADD SWAP1 POP PUSH2 0xBBD PUSH1 0x0 DUP4 ADD DUP5 PUSH2 0xB0C JUMP JUMPDEST SWAP3 SWAP2 POP POP JUMP JUMPDEST PUSH1 0x0 PUSH1 0x20 DUP3 ADD SWAP1 POP DUP2 DUP2 SUB PUSH1 0x0 DUP4 ADD MSTORE PUSH2 0xBDC DUP2 PUSH2 0xB1B JUMP JUMPDEST SWAP1 POP SWAP2 SWAP1 POP JUMP JUMPDEST PUSH1 0x0 PUSH1 0x20 DUP3 ADD SWAP1 POP DUP2 DUP2 SUB PUSH1 0x0 DUP4 ADD MSTORE PUSH2 0xBFC DUP2 PUSH2 0xB61 JUMP JUMPDEST SWAP1 POP SWAP2 SWAP1 POP JUMP JUMPDEST PUSH1 0x0 PUSH1 0x20 DUP3 ADD SWAP1 POP PUSH2 0xC18 PUSH1 0x0 DUP4 ADD DUP5 PUSH2 0xB84 JUMP JUMPDEST SWAP3 SWAP2 POP POP JUMP JUMPDEST PUSH1 0x0 DUP3 DUP3 MSTORE PUSH1 0x20 DUP3 ADD SWAP1 POP SWAP3 SWAP2 POP POP JUMP JUMPDEST PUSH1 0x0 DUP2 SWAP1 POP SWAP3 SWAP2 POP POP JUMP JUMPDEST PUSH1 0x0 PUSH2 0xC45 DUP3 PUSH2 0x1033 JUMP JUMPDEST SWAP2 POP PUSH2 0xC50 DUP4 PUSH2 0x1033 JUMP JUMPDEST SWAP3 POP DUP2 PUSH32 0x7FFFFFFFFFFFFFFFFFFFFFFFFFFFFFFFFFFFFFFFFFFFFFFFFFFFFFFFFFFFFFFF SUB DUP4 SGT PUSH1 0x0 DUP4 SLT ISZERO AND ISZERO PUSH2 0xC8B JUMPI PUSH2 0xC8A PUSH2 0x1191 JUMP JUMPDEST JUMPDEST DUP2 PUSH32 0x8000000000000000000000000000000000000000000000000000000000000000 SUB DUP4 SLT PUSH1 0x0 DUP4 SLT AND ISZERO PUSH2 0xCC3 JUMPI PUSH2 0xCC2 PUSH2 0x1191 JUMP JUMPDEST JUMPDEST DUP3 DUP3 ADD SWAP1 POP SWAP3 SWAP2 POP POP JUMP JUMPDEST PUSH1 0x0 PUSH2 0xCD9 DUP3 PUSH2 0x103D JUMP JUMPDEST SWAP2 POP PUSH2 0xCE4 DUP4 PUSH2 0x103D JUMP JUMPDEST SWAP3 POP DUP3 PUSH32 0xFFFFFFFFFFFFFFFFFFFFFFFFFFFFFFFFFFFFFFFFFFFFFFFFFFFFFFFFFFFFFFFF SUB DUP3 GT ISZERO PUSH2 0xD19 JUMPI PUSH2 0xD18 PUSH2 0x1191 JUMP JUMPDEST JUMPDEST DUP3 DUP3 ADD SWAP1 POP SWAP3 SWAP2 POP POP JUMP JUMPDEST PUSH1 0x0 PUSH2 0xD2F DUP3 PUSH2 0x103D JUMP JUMPDEST SWAP2 POP PUSH2 0xD3A DUP4 PUSH2 0x103D JUMP JUMPDEST SWAP3 POP DUP3 PUSH2 0xD4A JUMPI PUSH2 0xD49 PUSH2 0x11C0 JUMP JUMPDEST JUMPDEST DUP3 DUP3 DIV SWAP1 POP SWAP3 SWAP2 POP POP JUMP JUMPDEST PUSH1 0x0 DUP1 DUP3 SWAP2 POP DUP4 SWAP1 POP JUMPDEST PUSH1 0x1 DUP6 GT ISZERO PUSH2 0xD9F JUMPI DUP1 DUP7 DIV DUP2 GT ISZERO PUSH2 0xD7B JUMPI PUSH2 0xD7A PUSH2 0x1191 JUMP JUMPDEST JUMPDEST PUSH1 0x1 DUP6 AND ISZERO PUSH2 0xD8A JUMPI DUP1 DUP3 MUL SWAP2 POP JUMPDEST DUP1 DUP2 MUL SWAP1 POP PUSH2 0xD98 DUP6 PUSH2 0x1223 JUMP JUMPDEST SWAP5 POP PUSH2 0xD5F JUMP JUMPDEST SWAP5 POP SWAP5 SWAP3 POP POP POP JUMP JUMPDEST PUSH1 0x0 PUSH2 0xDB3 DUP3 PUSH2 0x103D JUMP JUMPDEST SWAP2 POP PUSH2 0xDBE DUP4 PUSH2 0x103D JUMP JUMPDEST SWAP3 POP PUSH2 0xDEB PUSH32 0xFFFFFFFFFFFFFFFFFFFFFFFFFFFFFFFFFFFFFFFFFFFFFFFFFFFFFFFFFFFFFFFF DUP5 DUP5 PUSH2 0xE3E JUMP JUMPDEST SWAP1 POP SWAP3 SWAP2 POP POP JUMP JUMPDEST PUSH1 0x0 PUSH2 0xDFE DUP3 PUSH2 0x103D JUMP JUMPDEST SWAP2 POP PUSH2 0xE09 DUP4 PUSH2 0x1047 JUMP JUMPDEST SWAP3 POP PUSH2 0xE36 PUSH32 0xFFFFFFFFFFFFFFFFFFFFFFFFFFFFFFFFFFFFFFFFFFFFFFFFFFFFFFFFFFFFFFFF DUP5 DUP5 PUSH2 0xE3E JUMP JUMPDEST SWAP1 POP SWAP3 SWAP2 POP POP JUMP JUMPDEST PUSH1 0x0 DUP3 PUSH2 0xE4E JUMPI PUSH1 0x1 SWAP1 POP PUSH2 0xF0A JUMP JUMPDEST DUP2 PUSH2 0xE5C JUMPI PUSH1 0x0 SWAP1 POP PUSH2 0xF0A JUMP JUMPDEST DUP2 PUSH1 0x1 DUP2 EQ PUSH2 0xE72 JUMPI PUSH1 0x2 DUP2 EQ PUSH2 0xE7C JUMPI PUSH2 0xEAB JUMP JUMPDEST PUSH1 0x1 SWAP2 POP POP PUSH2 0xF0A JUMP JUMPDEST PUSH1 0xFF DUP5 GT ISZERO PUSH2 0xE8E JUMPI PUSH2 0xE8D PUSH2 0x1191 JUMP JUMPDEST JUMPDEST DUP4 PUSH1 0x2 EXP SWAP2 POP DUP5 DUP3 GT ISZERO PUSH2 0xEA5 JUMPI PUSH2 0xEA4 PUSH2 0x1191 JUMP JUMPDEST JUMPDEST POP PUSH2 0xF0A JUMP JUMPDEST POP PUSH1 0x20 DUP4 LT PUSH2 0x133 DUP4 LT AND PUSH1 0x4E DUP5 LT PUSH1 0xB DUP5 LT AND OR ISZERO PUSH2 0xEE0 JUMPI DUP3 DUP3 EXP SWAP1 POP DUP4 DUP2 GT ISZERO PUSH2 0xEDB JUMPI PUSH2 0xEDA PUSH2 0x1191 JUMP JUMPDEST JUMPDEST PUSH2 0xF0A JUMP JUMPDEST PUSH2 0xEED DUP5 DUP5 DUP5 PUSH1 0x1 PUSH2 0xD55 JUMP JUMPDEST SWAP3 POP SWAP1 POP DUP2 DUP5 DIV DUP2 GT ISZERO PUSH2 0xF04 JUMPI PUSH2 0xF03 PUSH2 0x1191 JUMP JUMPDEST JUMPDEST DUP2 DUP2 MUL SWAP1 POP JUMPDEST SWAP4 SWAP3 POP POP POP JUMP JUMPDEST PUSH1 0x0 PUSH2 0xF1C DUP3 PUSH2 0x103D JUMP JUMPDEST SWAP2 POP PUSH2 0xF27 DUP4 PUSH2 0x103D JUMP JUMPDEST SWAP3 POP DUP2 PUSH32 0xFFFFFFFFFFFFFFFFFFFFFFFFFFFFFFFFFFFFFFFFFFFFFFFFFFFFFFFFFFFFFFFF DIV DUP4 GT DUP3 ISZERO ISZERO AND ISZERO PUSH2 0xF60 JUMPI PUSH2 0xF5F PUSH2 0x1191 JUMP JUMPDEST JUMPDEST DUP3 DUP3 MUL SWAP1 POP SWAP3 SWAP2 POP POP JUMP JUMPDEST PUSH1 0x0 PUSH2 0xF76 DUP3 PUSH2 0x1033 JUMP JUMPDEST SWAP2 POP PUSH2 0xF81 DUP4 PUSH2 0x1033 JUMP JUMPDEST SWAP3 POP DUP3 PUSH32 0x8000000000000000000000000000000000000000000000000000000000000000 ADD DUP3 SLT PUSH1 0x0 DUP5 SLT ISZERO AND ISZERO PUSH2 0xFBC JUMPI PUSH2 0xFBB PUSH2 0x1191 JUMP JUMPDEST JUMPDEST DUP3 PUSH32 0x7FFFFFFFFFFFFFFFFFFFFFFFFFFFFFFFFFFFFFFFFFFFFFFFFFFFFFFFFFFFFFFF ADD DUP3 SGT PUSH1 0x0 DUP5 SLT AND ISZERO PUSH2 0xFF4 JUMPI PUSH2 0xFF3 PUSH2 0x1191 JUMP JUMPDEST JUMPDEST DUP3 DUP3 SUB SWAP1 POP SWAP3 SWAP2 POP POP JUMP JUMPDEST PUSH1 0x0 PUSH2 0x100A DUP3 PUSH2 0x103D JUMP JUMPDEST SWAP2 POP PUSH2 0x1015 DUP4 PUSH2 0x103D JUMP JUMPDEST SWAP3 POP DUP3 DUP3 LT ISZERO PUSH2 0x1028 JUMPI PUSH2 0x1027 PUSH2 0x1191 JUMP JUMPDEST JUMPDEST DUP3 DUP3 SUB SWAP1 POP SWAP3 SWAP2 POP POP JUMP JUMPDEST PUSH1 0x0 DUP2 SWAP1 POP SWAP2 SWAP1 POP JUMP JUMPDEST PUSH1 0x0 DUP2 SWAP1 POP SWAP2 SWAP1 POP JUMP JUMPDEST PUSH1 0x0 PUSH1 0xFF DUP3 AND SWAP1 POP SWAP2 SWAP1 POP JUMP JUMPDEST PUSH1 0x0 PUSH2 0x105F DUP3 PUSH2 0x1033 JUMP JUMPDEST SWAP2 POP PUSH32 0x7FFFFFFFFFFFFFFFFFFFFFFFFFFFFFFFFFFFFFFFFFFFFFFFFFFFFFFFFFFFFFFF DUP3 EQ ISZERO PUSH2 0x1092 JUMPI PUSH2 0x1091 PUSH2 0x1191 JUMP JUMPDEST JUMPDEST PUSH1 0x1 DUP3 ADD SWAP1 POP SWAP2 SWAP1 POP JUMP JUMPDEST PUSH1 0x0 PUSH2 0x10A8 DUP3 PUSH2 0x103D JUMP JUMPDEST SWAP2 POP PUSH32 0xFFFFFFFFFFFFFFFFFFFFFFFFFFFFFFFFFFFFFFFFFFFFFFFFFFFFFFFFFFFFFFFF DUP3 EQ ISZERO PUSH2 0x10DB JUMPI PUSH2 0x10DA PUSH2 0x1191 JUMP JUMPDEST JUMPDEST PUSH1 0x1 DUP3 ADD SWAP1 POP SWAP2 SWAP1 POP JUMP JUMPDEST PUSH1 0x0 PUSH2 0x10F1 DUP3 PUSH2 0x1033 JUMP JUMPDEST SWAP2 POP PUSH2 0x10FC DUP4 PUSH2 0x1033 JUMP JUMPDEST SWAP3 POP DUP3 PUSH2 0x110C JUMPI PUSH2 0x110B PUSH2 0x11C0 JUMP JUMPDEST JUMPDEST DUP3 DUP3 SMOD SWAP1 POP SWAP3 SWAP2 POP POP JUMP JUMPDEST PUSH1 0x0 PUSH2 0x1122 DUP3 PUSH2 0x103D JUMP JUMPDEST SWAP2 POP PUSH2 0x112D DUP4 PUSH2 0x103D JUMP JUMPDEST SWAP3 POP DUP3 PUSH2 0x113D JUMPI PUSH2 0x113C PUSH2 0x11C0 JUMP JUMPDEST JUMPDEST DUP3 DUP3 MOD SWAP1 POP SWAP3 SWAP2 POP POP JUMP JUMPDEST PUSH1 0x0 PUSH2 0x1153 DUP3 PUSH2 0x1033 JUMP JUMPDEST SWAP2 POP PUSH32 0x8000000000000000000000000000000000000000000000000000000000000000 DUP3 EQ ISZERO PUSH2 0x1186 JUMPI PUSH2 0x1185 PUSH2 0x1191 JUMP JUMPDEST JUMPDEST DUP2 PUSH1 0x0 SUB SWAP1 POP SWAP2 SWAP1 POP JUMP JUMPDEST PUSH32 0x4E487B7100000000000000000000000000000000000000000000000000000000 PUSH1 0x0 MSTORE PUSH1 0x11 PUSH1 0x4 MSTORE PUSH1 0x24 PUSH1 0x0 REVERT JUMPDEST PUSH32 0x4E487B7100000000000000000000000000000000000000000000000000000000 PUSH1 0x0 MSTORE PUSH1 0x12 PUSH1 0x4 MSTORE PUSH1 0x24 PUSH1 0x0 REVERT JUMPDEST PUSH32 0x4E487B7100000000000000000000000000000000000000000000000000000000 PUSH1 0x0 MSTORE PUSH1 0x32 PUSH1 0x4 MSTORE PUSH1 0x24 PUSH1 0x0 REVERT JUMPDEST PUSH1 0x0 DUP1 REVERT JUMPDEST PUSH1 0x0 DUP2 PUSH1 0x1 SHR SWAP1 POP SWAP2 SWAP1 POP JUMP JUMPDEST PUSH32 0x6E6F7420412076616C6964206E756D6265720000000000000000000000000000 PUSH1 0x0 DUP3 ADD MSTORE POP JUMP JUMPDEST PUSH32 0x6E756D4172720000000000000000000000000000000000000000000000000000 PUSH1 0x0 DUP3 ADD MSTORE POP JUMP JUMPDEST PUSH32 0x6E6F7420612076616C6964206E756D6265720000000000000000000000000000 PUSH1 0x0 DUP3 ADD MSTORE POP JUMP JUMPDEST PUSH2 0x12B4 DUP2 PUSH2 0x1033 JUMP JUMPDEST DUP2 EQ PUSH2 0x12BF JUMPI PUSH1 0x0 DUP1 REVERT JUMPDEST POP JUMP JUMPDEST PUSH2 0x12CB DUP2 PUSH2 0x103D JUMP JUMPDEST DUP2 EQ PUSH2 0x12D6 JUMPI PUSH1 0x0 DUP1 REVERT JUMPDEST POP JUMP INVALID LOG2 PUSH5 0x6970667358 0x22 SLT KECCAK256 EXTCODEHASH PUSH24 0x5F686ECAF65FCCA9D03E9A7BAF91454EA66A4760F24AA6AA DUP12 0xD2 0xD6 SWAP5 0xB6 0x4A PUSH5 0x736F6C6343 STOP ADDMOD SMOD STOP CALLER "
		},
		"gasEstimates": {
			"creation": {
				"codeDepositCost": "975800",
				"executionCost": "1014",
				"totalCost": "976814"
			},
			"external": {
				"Palindrome(uint256)": "infinite",
				"amstrong(uint256)": "infinite",
				"avg(uint256,uint256,uint256)": "infinite",
				"cube(uint256)": "infinite",
				"expo(uint256,uint256)": "infinite",
				"factorial(uint256)": "infinite",
				"fibonnical(uint256)": "infinite",
				"fibonnicalResult()": "infinite",
				"greater(int256,int256,int256)": "infinite",
				"multiple_with_no_Op(int256,int256)": "infinite",
				"oddOrEven(int256)": "infinite",
				"prime(int256)": "infinite",
				"reverseInt(uint256)": "infinite",
				"sumOfDigits(uint256)": "infinite",
				"swap()": "219"
			}
		},
		"methodIdentifiers": {
			"Palindrome(uint256)": "cdab7807",
			"amstrong(uint256)": "83d3705e",
			"avg(uint256,uint256,uint256)": "92cc2841",
			"cube(uint256)": "f4bf03c7",
			"expo(uint256,uint256)": "4f4752ba",
			"factorial(uint256)": "83714834",
			"fibonnical(uint256)": "f26c79ef",
			"fibonnicalResult()": "b4133721",
			"greater(int256,int256,int256)": "d9ea8e64",
			"multiple_with_no_Op(int256,int256)": "17d95c7e",
			"oddOrEven(int256)": "46439726",
			"prime(int256)": "f492c000",
			"reverseInt(uint256)": "9e098fc1",
			"sumOfDigits(uint256)": "8ce32d21",
			"swap()": "8119c065"
		}
	},
	"abi": [
		{
			"inputs": [
				{
					"internalType": "uint256",
					"name": "_inp",
					"type": "uint256"
				}
			],
			"name": "Palindrome",
			"outputs": [
				{
					"internalType": "uint256",
					"name": "",
					"type": "uint256"
				}
			],
			"stateMutability": "pure",
			"type": "function"
		},
		{
			"inputs": [
				{
					"internalType": "uint256",
					"name": "_inp",
					"type": "uint256"
				}
			],
			"name": "amstrong",
			"outputs": [
				{
					"internalType": "uint256",
					"name": "",
					"type": "uint256"
				}
			],
			"stateMutability": "pure",
			"type": "function"
		},
		{
			"inputs": [
				{
					"internalType": "uint256",
					"name": "num1",
					"type": "uint256"
				},
				{
					"internalType": "uint256",
					"name": "num2",
					"type": "uint256"
				},
				{
					"internalType": "uint256",
					"name": "num3",
					"type": "uint256"
				}
			],
			"name": "avg",
			"outputs": [
				{
					"internalType": "uint256",
					"name": "",
					"type": "uint256"
				}
			],
			"stateMutability": "pure",
			"type": "function"
		},
		{
			"inputs": [
				{
					"internalType": "uint256",
					"name": "_num1",
					"type": "uint256"
				}
			],
			"name": "cube",
			"outputs": [
				{
					"internalType": "uint256",
					"name": "",
					"type": "uint256"
				}
			],
			"stateMutability": "pure",
			"type": "function"
		},
		{
			"inputs": [
				{
					"internalType": "uint256",
					"name": "x",
					"type": "uint256"
				},
				{
					"internalType": "uint256",
					"name": "y",
					"type": "uint256"
				}
			],
			"name": "expo",
			"outputs": [
				{
					"internalType": "uint256",
					"name": "",
					"type": "uint256"
				}
			],
			"stateMutability": "pure",
			"type": "function"
		},
		{
			"inputs": [
				{
					"internalType": "uint256",
					"name": "num",
					"type": "uint256"
				}
			],
			"name": "factorial",
			"outputs": [
				{
					"internalType": "uint256",
					"name": "",
					"type": "uint256"
				}
			],
			"stateMutability": "pure",
			"type": "function"
		},
		{
			"inputs": [
				{
					"internalType": "uint256",
					"name": "num",
					"type": "uint256"
				}
			],
			"name": "fibonnical",
			"outputs": [],
			"stateMutability": "nonpayable",
			"type": "function"
		},
		{
			"inputs": [],
			"name": "fibonnicalResult",
			"outputs": [
				{
					"internalType": "uint256",
					"name": "",
					"type": "uint256"
				}
			],
			"stateMutability": "view",
			"type": "function"
		},
		{
			"inputs": [
				{
					"internalType": "int256",
					"name": "num1",
					"type": "int256"
				},
				{
					"internalType": "int256",
					"name": "num2",
					"type": "int256"
				},
				{
					"internalType": "int256",
					"name": "num3",
					"type": "int256"
				}
			],
			"name": "greater",
			"outputs": [
				{
					"internalType": "int256",
					"name": "",
					"type": "int256"
				}
			],
			"stateMutability": "pure",
			"type": "function"
		},
		{
			"inputs": [
				{
					"internalType": "int256",
					"name": "x",
					"type": "int256"
				},
				{
					"internalType": "int256",
					"name": "y",
					"type": "int256"
				}
			],
			"name": "multiple_with_no_Op",
			"outputs": [
				{
					"internalType": "int256",
					"name": "",
					"type": "int256"
				}
			],
			"stateMutability": "pure",
			"type": "function"
		},
		{
			"inputs": [
				{
					"internalType": "int256",
					"name": "num",
					"type": "int256"
				}
			],
			"name": "oddOrEven",
			"outputs": [
				{
					"internalType": "uint256",
					"name": "",
					"type": "uint256"
				}
			],
			"stateMutability": "pure",
			"type": "function"
		},
		{
			"inputs": [
				{
					"internalType": "int256",
					"name": "num",
					"type": "int256"
				}
			],
			"name": "prime",
			"outputs": [
				{
					"internalType": "int256",
					"name": "",
					"type": "int256"
				}
			],
			"stateMutability": "pure",
			"type": "function"
		},
		{
			"inputs": [
				{
					"internalType": "uint256",
					"name": "_inp",
					"type": "uint256"
				}
			],
			"name": "reverseInt",
			"outputs": [
				{
					"internalType": "uint256",
					"name": "",
					"type": "uint256"
				}
			],
			"stateMutability": "pure",
			"type": "function"
		},
		{
			"inputs": [
				{
					"internalType": "uint256",
					"name": "_inp",
					"type": "uint256"
				}
			],
			"name": "sumOfDigits",
			"outputs": [
				{
					"internalType": "uint256",
					"name": "",
					"type": "uint256"
				}
			],
			"stateMutability": "pure",
			"type": "function"
		},
		{
			"inputs": [],
			"name": "swap",
			"outputs": [],
			"stateMutability": "pure",
			"type": "function"
		}
	]
}