{
	"data": {
		"bytecode": {
			"linkReferences": {},
			"object": "608060405234801561001057600080fd5b50612968806100206000396000f3fe608060405234801561001057600080fd5b50600436106101585760003560e01c806387c5d5cc116100c3578063b780e5071161007c578063b780e507146103a3578063c34052e0146103c1578063df1420e3146103f1578063df3dafad1461040d578063e9ab789e1461043d578063eaf24c151461044757610158565b806387c5d5cc146102f3578063880ad0af146103235780638d6b3b231461032d578063999989021461034b578063b02a0fda14610369578063b536c4261461039957610158565b8063378ee55711610115578063378ee5571461023357806359e57373146102635780635e34f9511461028157806368f40b04146102b15780636e9d8b9c146102cd578063797f6f7f146102d757610158565b806306694a0a1461015d57806311456b471461018d57806317d7de7c146101a9578063266001d3146101c7578063275a6de9146101f75780632bb5a9e614610215575b600080fd5b610177600480360381019061017291906117ee565b610479565b60405161018491906118f5565b60405180910390f35b6101a760048036038101906101a291906119cc565b610544565b005b6101b161057c565b6040516101be9190611b56565b60405180910390f35b6101e160048036038101906101dc9190611bd3565b610655565b6040516101ee9190611c9e565b60405180910390f35b6101ff610687565b60405161020c9190611d29565b60405180910390f35b61021d610784565b60405161022a9190611d66565b60405180910390f35b61024d60048036038101906102489190611dad565b610815565b60405161025a91906118f5565b60405180910390f35b61026b61088f565b6040516102789190611c9e565b60405180910390f35b61029b60048036038101906102969190611e0f565b6109bc565b6040516102a89190611e4b565b60405180910390f35b6102cb60048036038101906102c69190611e66565b610a31565b005b6102d5610b02565b005b6102f160048036038101906102ec9190611eda565b610b2f565b005b61030d60048036038101906103089190611bd3565b610d38565b60405161031a9190611d66565b60405180910390f35b61032b610da5565b005b610335610e50565b6040516103429190612040565b60405180910390f35b610353610f48565b6040516103609190611d29565b60405180910390f35b610383600480360381019061037e9190612113565b610fad565b60405161039091906121c4565b60405180910390f35b6103a16110d8565b005b6103ab61110a565b6040516103b8919061227b565b60405180910390f35b6103db60048036038101906103d69190612296565b611192565b6040516103e89190611d66565b60405180910390f35b61040b60048036038101906104069190611e66565b611229565b005b610427600480360381019061042291906117ee565b6112d3565b6040516104349190611e4b565b60405180910390f35b610445611327565b005b610461600480360381019061045c9190612296565b6114a3565b604051610470939291906122d2565b60405180910390f35b60606000825167ffffffffffffffff81111561049857610497611675565b5b6040519080825280602002602001820160405280156104c65781602001602082028036833780820191505090505b50905060005b835181101561053a578381600186516104e5919061233f565b6104ef919061233f565b81518110610500576104ff612373565b5b602002602001015182828151811061051b5761051a612373565b5b6020026020010181815250508080610532906123a2565b9150506104cc565b5080915050919050565b60218190806001815401808255809150506001900390600052602060002001600090919091909150908161057891906125f6565b5050565b60606021805480602002602001604051908101604052809291908181526020016000905b8282101561064c5783829060005260206000200180546105bf90612419565b80601f01602080910402602001604051908101604052809291908181526020018280546105eb90612419565b80156106385780601f1061060d57610100808354040283529160200191610638565b820191906000526020600020905b81548152906001019060200180831161061b57829003601f168201915b5050505050815260200190600101906105a0565b50505050905090565b60608484848460405160200161066e94939291906126f8565b6040516020818303038152906040529050949350505050565b61068f61155b565b601f60003373ffffffffffffffffffffffffffffffffffffffff1673ffffffffffffffffffffffffffffffffffffffff1681526020019081526020016000206040518060600160405290816000820180546106e990612419565b80601f016020809104026020016040519081016040528092919081815260200182805461071590612419565b80156107625780601f1061073757610100808354040283529160200191610762565b820191906000526020600020905b81548152906001019060200180831161074557829003601f168201915b5050505050815260200160018201548152602001600282015481525050905090565b6000602060003373ffffffffffffffffffffffffffffffffffffffff1673ffffffffffffffffffffffffffffffffffffffff16815260200190815260200160002060003373ffffffffffffffffffffffffffffffffffffffff1673ffffffffffffffffffffffffffffffffffffffff16815260200190815260200160002060009054906101000a900460ff16905090565b60606000600a67ffffffffffffffff81111561083457610833611675565b5b6040519080825280602002602001820160405280156108625781602001602082028036833780820191505090505b5090508381848151811061087957610878612373565b5b6020026020010181815250508091505092915050565b6060600060028111156108a5576108a4612720565b5b602260009054906101000a900460ff1660028111156108c7576108c6612720565b5b03610909576040518060400160405280600581526020017f534d414c4c00000000000000000000000000000000000000000000000000000081525090506109b9565b60028081111561091c5761091b612720565b5b602260009054906101000a900460ff16600281111561093e5761093d612720565b5b03610980576040518060400160405280600581526020017f4c4152474500000000000000000000000000000000000000000000000000000081525090506109b9565b6040518060400160405280600681526020017f4d454449554d000000000000000000000000000000000000000000000000000081525090505b90565b6000806000905060005b6004811015610a275760008114806109f457508381600481106109ec576109eb612373565b5b602002013582125b15610a1457838160048110610a0c57610a0b612373565b5b602002013591505b8080610a1f906123a2565b9150506109c6565b5080915050919050565b604051806060016040528085858080601f016020809104026020016040519081016040528093929190818152602001838380828437600081840152601f19601f82011690508083019250505050505050815260200183815260200182815250601f60003373ffffffffffffffffffffffffffffffffffffffff1673ffffffffffffffffffffffffffffffffffffffff1681526020019081526020016000206000820151816000019081610ae491906125f6565b50602082015181600101556040820151816002015590505050505050565b6001602260006101000a81548160ff02191690836002811115610b2857610b27612720565b5b0217905550565b604051602001610b3e9061279b565b604051602081830303815290604052805190602001208383604051602001610b679291906127b0565b6040516020818303038152906040528051906020012003610bdb5780601e60003373ffffffffffffffffffffffffffffffffffffffff1673ffffffffffffffffffffffffffffffffffffffff168152602001908152602001600020600060038110610bd557610bd4612373565b5b01819055505b604051602001610bea90612815565b604051602081830303815290604052805190602001208383604051602001610c139291906127b0565b6040516020818303038152906040528051906020012003610c875780601e60003373ffffffffffffffffffffffffffffffffffffffff1673ffffffffffffffffffffffffffffffffffffffff168152602001908152602001600020600160038110610c8157610c80612373565b5b01819055505b604051602001610c9690612876565b604051602081830303815290604052805190602001208383604051602001610cbf9291906127b0565b6040516020818303038152906040528051906020012003610d335780601e60003373ffffffffffffffffffffffffffffffffffffffff1673ffffffffffffffffffffffffffffffffffffffff168152602001908152602001600020600260038110610d2d57610d2c612373565b5b01819055505b505050565b60008282604051602001610d4d9291906127b0565b604051602081830303815290604052805190602001208585604051602001610d769291906127b0565b6040516020818303038152906040528051906020012014610d98576000610d9b565b60015b9050949350505050565b600160206000735b38da6a701c568545dcfcb03fcb875f56beddc473ffffffffffffffffffffffffffffffffffffffff1673ffffffffffffffffffffffffffffffffffffffff16815260200190815260200160002060003373ffffffffffffffffffffffffffffffffffffffff1673ffffffffffffffffffffffffffffffffffffffff16815260200190815260200160002060006101000a81548160ff021916908315150217905550565b610e5861157c565b6000600a80602002604051908101604052809291906000905b82821015610f3f57838260030201604051806060016040529081600082018054610e9a90612419565b80601f0160208091040260200160405190810160405280929190818152602001828054610ec690612419565b8015610f135780601f10610ee857610100808354040283529160200191610f13565b820191906000526020600020905b815481529060010190602001808311610ef657829003601f168201915b505050505081526020016001820154815260200160028201548152505081526020019060010190610e71565b50505050905090565b610f5061155b565b600060405180606001604052806040518060400160405280600581526020017f7961736572000000000000000000000000000000000000000000000000000000815250815260200160018152602001601d81525090508091505090565b610fb56115aa565b60005b60016005610fc6919061233f565b8110156110cf5760005b60016005610fde919061233f565b8110156110bb5783600182610ff3919061288b565b6005811061100457611003612373565b5b602002015184826005811061101c5761101b612373565b5b602002015113156110a85783600182611035919061288b565b6005811061104657611045612373565b5b602002015184826005811061105e5761105d612373565b5b602002015185836005811061107657611075612373565b5b6020020186600185611088919061288b565b6005811061109957611098612373565b5b60200201828152508281525050505b80806110b3906123a2565b915050610fd0565b5080806110c7906123a2565b915050610fb8565b50819050919050565b60218054806110ea576110e96128bf565b5b60019003818190600052602060002001600061110691906115cc565b9055565b61111261160c565b601e60003373ffffffffffffffffffffffffffffffffffffffff1673ffffffffffffffffffffffffffffffffffffffff168152602001908152602001600020600380602002604051908101604052809291908260038015611188576020028201915b815481526020019060010190808311611174575b5050505050905090565b6000806040518060a00160405280600160ff168152602001600260ff168152602001600360ff168152602001600460ff168152602001600560ff16815250905060005b600581101561121d57838282600581106111f2576111f1612373565b5b602002015160ff160361120a57600192505050611224565b8080611215906123a2565b9150506111d5565b5060009150505b919050565b604051806060016040528085858080601f016020809104026020016040519081016040528093929190818152602001838380828437600081840152601f19601f82011690508083019250505050505050815260200183815260200182815250600083600a811061129c5761129b612373565b5b6003020160008201518160000190816112b591906125f6565b50602082015181600101556040820151816002015590505050505050565b60008060005b835181101561131d578381815181106112f5576112f4612373565b5b60200260200101518261130891906128ee565b91508080611315906123a2565b9150506112d9565b5080915050919050565b600060206000735b38da6a701c568545dcfcb03fcb875f56beddc473ffffffffffffffffffffffffffffffffffffffff1673ffffffffffffffffffffffffffffffffffffffff1681526020019081526020016000206000735b38da6a701c568545dcfcb03fcb875f56beddc473ffffffffffffffffffffffffffffffffffffffff1673ffffffffffffffffffffffffffffffffffffffff16815260200190815260200160002060006101000a81548160ff021916908315150217905550600060206000735b38da6a701c568545dcfcb03fcb875f56beddc473ffffffffffffffffffffffffffffffffffffffff1673ffffffffffffffffffffffffffffffffffffffff168152602001908152602001600020600073ab8483f64d9c6d1ecf9b849ae677dd3315835cb273ffffffffffffffffffffffffffffffffffffffff1673ffffffffffffffffffffffffffffffffffffffff16815260200190815260200160002060006101000a81548160ff021916908315150217905550565b600081600a81106114b357600080fd5b600302016000915090508060000180546114cc90612419565b80601f01602080910402602001604051908101604052809291908181526020018280546114f890612419565b80156115455780601f1061151a57610100808354040283529160200191611545565b820191906000526020600020905b81548152906001019060200180831161152857829003601f168201915b5050505050908060010154908060020154905083565b60405180606001604052806060815260200160008152602001600081525090565b604051806101400160405280600a905b61159461155b565b81526020019060019003908161158c5790505090565b6040518060a00160405280600590602082028036833780820191505090505090565b5080546115d890612419565b6000825580601f106115ea5750611609565b601f016020900490600052602060002090810190611608919061162e565b5b50565b6040518060600160405280600390602082028036833780820191505090505090565b5b8082111561164757600081600090555060010161162f565b5090565b6000604051905090565b600080fd5b600080fd5b600080fd5b6000601f19601f8301169050919050565b7f4e487b7100000000000000000000000000000000000000000000000000000000600052604160045260246000fd5b6116ad82611664565b810181811067ffffffffffffffff821117156116cc576116cb611675565b5b80604052505050565b60006116df61164b565b90506116eb82826116a4565b919050565b600067ffffffffffffffff82111561170b5761170a611675565b5b602082029050602081019050919050565b600080fd5b6000819050919050565b61173481611721565b811461173f57600080fd5b50565b6000813590506117518161172b565b92915050565b600061176a611765846116f0565b6116d5565b9050808382526020820190506020840283018581111561178d5761178c61171c565b5b835b818110156117b657806117a28882611742565b84526020840193505060208101905061178f565b5050509392505050565b600082601f8301126117d5576117d461165f565b5b81356117e5848260208601611757565b91505092915050565b60006020828403121561180457611803611655565b5b600082013567ffffffffffffffff8111156118225761182161165a565b5b61182e848285016117c0565b91505092915050565b600081519050919050565b600082825260208201905092915050565b6000819050602082019050919050565b61186c81611721565b82525050565b600061187e8383611863565b60208301905092915050565b6000602082019050919050565b60006118a282611837565b6118ac8185611842565b93506118b783611853565b8060005b838110156118e85781516118cf8882611872565b97506118da8361188a565b9250506001810190506118bb565b5085935050505092915050565b6000602082019050818103600083015261190f8184611897565b905092915050565b600080fd5b600067ffffffffffffffff82111561193757611936611675565b5b61194082611664565b9050602081019050919050565b82818337600083830152505050565b600061196f61196a8461191c565b6116d5565b90508281526020810184848401111561198b5761198a611917565b5b61199684828561194d565b509392505050565b600082601f8301126119b3576119b261165f565b5b81356119c384826020860161195c565b91505092915050565b6000602082840312156119e2576119e1611655565b5b600082013567ffffffffffffffff811115611a00576119ff61165a565b5b611a0c8482850161199e565b91505092915050565b600081519050919050565b600082825260208201905092915050565b6000819050602082019050919050565b600081519050919050565b600082825260208201905092915050565b60005b83811015611a7b578082015181840152602081019050611a60565b60008484015250505050565b6000611a9282611a41565b611a9c8185611a4c565b9350611aac818560208601611a5d565b611ab581611664565b840191505092915050565b6000611acc8383611a87565b905092915050565b6000602082019050919050565b6000611aec82611a15565b611af68185611a20565b935083602082028501611b0885611a31565b8060005b85811015611b445784840389528151611b258582611ac0565b9450611b3083611ad4565b925060208a01995050600181019050611b0c565b50829750879550505050505092915050565b60006020820190508181036000830152611b708184611ae1565b905092915050565b600080fd5b60008083601f840112611b9357611b9261165f565b5b8235905067ffffffffffffffff811115611bb057611baf611b78565b5b602083019150836001820283011115611bcc57611bcb61171c565b5b9250929050565b60008060008060408587031215611bed57611bec611655565b5b600085013567ffffffffffffffff811115611c0b57611c0a61165a565b5b611c1787828801611b7d565b9450945050602085013567ffffffffffffffff811115611c3a57611c3961165a565b5b611c4687828801611b7d565b925092505092959194509250565b600082825260208201905092915050565b6000611c7082611a41565b611c7a8185611c54565b9350611c8a818560208601611a5d565b611c9381611664565b840191505092915050565b60006020820190508181036000830152611cb88184611c65565b905092915050565b6000819050919050565b611cd381611cc0565b82525050565b60006060830160008301518482036000860152611cf68282611a87565b9150506020830151611d0b6020860182611cca565b506040830151611d1e6040860182611cca565b508091505092915050565b60006020820190508181036000830152611d438184611cd9565b905092915050565b60008115159050919050565b611d6081611d4b565b82525050565b6000602082019050611d7b6000830184611d57565b92915050565b611d8a81611cc0565b8114611d9557600080fd5b50565b600081359050611da781611d81565b92915050565b60008060408385031215611dc457611dc3611655565b5b6000611dd285828601611742565b9250506020611de385828601611d98565b9150509250929050565b600081905082602060040282011115611e0957611e0861171c565b5b92915050565b600060808284031215611e2557611e24611655565b5b6000611e3384828501611ded565b91505092915050565b611e4581611721565b82525050565b6000602082019050611e606000830184611e3c565b92915050565b60008060008060608587031215611e8057611e7f611655565b5b600085013567ffffffffffffffff811115611e9e57611e9d61165a565b5b611eaa87828801611b7d565b94509450506020611ebd87828801611d98565b9250506040611ece87828801611d98565b91505092959194509250565b600080600060408486031215611ef357611ef2611655565b5b600084013567ffffffffffffffff811115611f1157611f1061165a565b5b611f1d86828701611b7d565b93509350506020611f3086828701611d98565b9150509250925092565b6000600a9050919050565b600081905092915050565b6000819050919050565b60006060830160008301518482036000860152611f778282611a87565b9150506020830151611f8c6020860182611cca565b506040830151611f9f6040860182611cca565b508091505092915050565b6000611fb68383611f5a565b905092915050565b6000602082019050919050565b6000611fd682611f3a565b611fe08185611f45565b935083602082028501611ff285611f50565b8060005b8581101561202e578484038952815161200f8582611faa565b945061201a83611fbe565b925060208a01995050600181019050611ff6565b50829750879550505050505092915050565b6000602082019050818103600083015261205a8184611fcb565b905092915050565b600067ffffffffffffffff82111561207d5761207c611675565b5b602082029050919050565b600061209b61209684612062565b6116d5565b905080602084028301858111156120b5576120b461171c565b5b835b818110156120de57806120ca8882611742565b8452602084019350506020810190506120b7565b5050509392505050565b600082601f8301126120fd576120fc61165f565b5b600561210a848285612088565b91505092915050565b600060a0828403121561212957612128611655565b5b6000612137848285016120e8565b91505092915050565b600060059050919050565b600081905092915050565b6000819050919050565b6000602082019050919050565b61217681612140565b612180818461214b565b925061218b82612156565b8060005b838110156121bc5781516121a38782611872565b96506121ae83612160565b92505060018101905061218f565b505050505050565b600060a0820190506121d9600083018461216d565b92915050565b600060039050919050565b600081905092915050565b6000819050919050565b600061220b8383611cca565b60208301905092915050565b6000602082019050919050565b61222d816121df565b61223781846121ea565b9250612242826121f5565b8060005b8381101561227357815161225a87826121ff565b965061226583612217565b925050600181019050612246565b505050505050565b60006060820190506122906000830184612224565b92915050565b6000602082840312156122ac576122ab611655565b5b60006122ba84828501611d98565b91505092915050565b6122cc81611cc0565b82525050565b600060608201905081810360008301526122ec8186611c65565b90506122fb60208301856122c3565b61230860408301846122c3565b949350505050565b7f4e487b7100000000000000000000000000000000000000000000000000000000600052601160045260246000fd5b600061234a82611cc0565b915061235583611cc0565b925082820390508181111561236d5761236c612310565b5b92915050565b7f4e487b7100000000000000000000000000000000000000000000000000000000600052603260045260246000fd5b60006123ad82611cc0565b91507fffffffffffffffffffffffffffffffffffffffffffffffffffffffffffffffff82036123df576123de612310565b5b600182019050919050565b7f4e487b7100000000000000000000000000000000000000000000000000000000600052602260045260246000fd5b6000600282049050600182168061243157607f821691505b602082108103612444576124436123ea565b5b50919050565b60008190508160005260206000209050919050565b60006020601f8301049050919050565b600082821b905092915050565b6000600883026124ac7fffffffffffffffffffffffffffffffffffffffffffffffffffffffffffffffff8261246f565b6124b6868361246f565b95508019841693508086168417925050509392505050565b6000819050919050565b60006124f36124ee6124e984611cc0565b6124ce565b611cc0565b9050919050565b6000819050919050565b61250d836124d8565b612521612519826124fa565b84845461247c565b825550505050565b600090565b612536612529565b612541818484612504565b505050565b5b818110156125655761255a60008261252e565b600181019050612547565b5050565b601f8211156125aa5761257b8161244a565b6125848461245f565b81016020851015612593578190505b6125a761259f8561245f565b830182612546565b50505b505050565b600082821c905092915050565b60006125cd600019846008026125af565b1980831691505092915050565b60006125e683836125bc565b9150826002028217905092915050565b6125ff82611a41565b67ffffffffffffffff81111561261857612617611675565b5b6126228254612419565b61262d828285612569565b600060209050601f831160018114612660576000841561264e578287015190505b61265885826125da565b8655506126c0565b601f19841661266e8661244a565b60005b8281101561269657848901518255600182019150602085019450602081019050612671565b868310156126b357848901516126af601f8916826125bc565b8355505b6001600288020188555050505b505050505050565b600081905092915050565b60006126df83856126c8565b93506126ec83858461194d565b82840190509392505050565b60006127058286886126d3565b91506127128284866126d3565b915081905095945050505050565b7f4e487b7100000000000000000000000000000000000000000000000000000000600052602160045260246000fd5b7f6d61746873000000000000000000000000000000000000000000000000000000600082015250565b60006127856005836126c8565b91506127908261274f565b600582019050919050565b60006127a682612778565b9150819050919050565b60006127bd8284866126d3565b91508190509392505050565b7f656e676c69736800000000000000000000000000000000000000000000000000600082015250565b60006127ff6007836126c8565b915061280a826127c9565b600782019050919050565b6000612820826127f2565b9150819050919050565b7f686973746f727900000000000000000000000000000000000000000000000000600082015250565b60006128606007836126c8565b915061286b8261282a565b600782019050919050565b600061288182612853565b9150819050919050565b600061289682611cc0565b91506128a183611cc0565b92508282019050808211156128b9576128b8612310565b5b92915050565b7f4e487b7100000000000000000000000000000000000000000000000000000000600052603160045260246000fd5b60006128f982611721565b915061290483611721565b92508282019050828112156000831216838212600084121516171561292c5761292b612310565b5b9291505056fea264697066735822122027c1eab156dcbfba76ebeb3d37acc11580227b219a1acaf4678af618d7ed673764736f6c63430008110033",
			"opcodes": "PUSH1 0x80 PUSH1 0x40 MSTORE CALLVALUE DUP1 ISZERO PUSH2 0x10 JUMPI PUSH1 0x0 DUP1 REVERT JUMPDEST POP PUSH2 0x2968 DUP1 PUSH2 0x20 PUSH1 0x0 CODECOPY PUSH1 0x0 RETURN INVALID PUSH1 0x80 PUSH1 0x40 MSTORE CALLVALUE DUP1 ISZERO PUSH2 0x10 JUMPI PUSH1 0x0 DUP1 REVERT JUMPDEST POP PUSH1 0x4 CALLDATASIZE LT PUSH2 0x158 JUMPI PUSH1 0x0 CALLDATALOAD PUSH1 0xE0 SHR DUP1 PUSH4 0x87C5D5CC GT PUSH2 0xC3 JUMPI DUP1 PUSH4 0xB780E507 GT PUSH2 0x7C JUMPI DUP1 PUSH4 0xB780E507 EQ PUSH2 0x3A3 JUMPI DUP1 PUSH4 0xC34052E0 EQ PUSH2 0x3C1 JUMPI DUP1 PUSH4 0xDF1420E3 EQ PUSH2 0x3F1 JUMPI DUP1 PUSH4 0xDF3DAFAD EQ PUSH2 0x40D JUMPI DUP1 PUSH4 0xE9AB789E EQ PUSH2 0x43D JUMPI DUP1 PUSH4 0xEAF24C15 EQ PUSH2 0x447 JUMPI PUSH2 0x158 JUMP JUMPDEST DUP1 PUSH4 0x87C5D5CC EQ PUSH2 0x2F3 JUMPI DUP1 PUSH4 0x880AD0AF EQ PUSH2 0x323 JUMPI DUP1 PUSH4 0x8D6B3B23 EQ PUSH2 0x32D JUMPI DUP1 PUSH4 0x99998902 EQ PUSH2 0x34B JUMPI DUP1 PUSH4 0xB02A0FDA EQ PUSH2 0x369 JUMPI DUP1 PUSH4 0xB536C426 EQ PUSH2 0x399 JUMPI PUSH2 0x158 JUMP JUMPDEST DUP1 PUSH4 0x378EE557 GT PUSH2 0x115 JUMPI DUP1 PUSH4 0x378EE557 EQ PUSH2 0x233 JUMPI DUP1 PUSH4 0x59E57373 EQ PUSH2 0x263 JUMPI DUP1 PUSH4 0x5E34F951 EQ PUSH2 0x281 JUMPI DUP1 PUSH4 0x68F40B04 EQ PUSH2 0x2B1 JUMPI DUP1 PUSH4 0x6E9D8B9C EQ PUSH2 0x2CD JUMPI DUP1 PUSH4 0x797F6F7F EQ PUSH2 0x2D7 JUMPI PUSH2 0x158 JUMP JUMPDEST DUP1 PUSH4 0x6694A0A EQ PUSH2 0x15D JUMPI DUP1 PUSH4 0x11456B47 EQ PUSH2 0x18D JUMPI DUP1 PUSH4 0x17D7DE7C EQ PUSH2 0x1A9 JUMPI DUP1 PUSH4 0x266001D3 EQ PUSH2 0x1C7 JUMPI DUP1 PUSH4 0x275A6DE9 EQ PUSH2 0x1F7 JUMPI DUP1 PUSH4 0x2BB5A9E6 EQ PUSH2 0x215 JUMPI JUMPDEST PUSH1 0x0 DUP1 REVERT JUMPDEST PUSH2 0x177 PUSH1 0x4 DUP1 CALLDATASIZE SUB DUP2 ADD SWAP1 PUSH2 0x172 SWAP2 SWAP1 PUSH2 0x17EE JUMP JUMPDEST PUSH2 0x479 JUMP JUMPDEST PUSH1 0x40 MLOAD PUSH2 0x184 SWAP2 SWAP1 PUSH2 0x18F5 JUMP JUMPDEST PUSH1 0x40 MLOAD DUP1 SWAP2 SUB SWAP1 RETURN JUMPDEST PUSH2 0x1A7 PUSH1 0x4 DUP1 CALLDATASIZE SUB DUP2 ADD SWAP1 PUSH2 0x1A2 SWAP2 SWAP1 PUSH2 0x19CC JUMP JUMPDEST PUSH2 0x544 JUMP JUMPDEST STOP JUMPDEST PUSH2 0x1B1 PUSH2 0x57C JUMP JUMPDEST PUSH1 0x40 MLOAD PUSH2 0x1BE SWAP2 SWAP1 PUSH2 0x1B56 JUMP JUMPDEST PUSH1 0x40 MLOAD DUP1 SWAP2 SUB SWAP1 RETURN JUMPDEST PUSH2 0x1E1 PUSH1 0x4 DUP1 CALLDATASIZE SUB DUP2 ADD SWAP1 PUSH2 0x1DC SWAP2 SWAP1 PUSH2 0x1BD3 JUMP JUMPDEST PUSH2 0x655 JUMP JUMPDEST PUSH1 0x40 MLOAD PUSH2 0x1EE SWAP2 SWAP1 PUSH2 0x1C9E JUMP JUMPDEST PUSH1 0x40 MLOAD DUP1 SWAP2 SUB SWAP1 RETURN JUMPDEST PUSH2 0x1FF PUSH2 0x687 JUMP JUMPDEST PUSH1 0x40 MLOAD PUSH2 0x20C SWAP2 SWAP1 PUSH2 0x1D29 JUMP JUMPDEST PUSH1 0x40 MLOAD DUP1 SWAP2 SUB SWAP1 RETURN JUMPDEST PUSH2 0x21D PUSH2 0x784 JUMP JUMPDEST PUSH1 0x40 MLOAD PUSH2 0x22A SWAP2 SWAP1 PUSH2 0x1D66 JUMP JUMPDEST PUSH1 0x40 MLOAD DUP1 SWAP2 SUB SWAP1 RETURN JUMPDEST PUSH2 0x24D PUSH1 0x4 DUP1 CALLDATASIZE SUB DUP2 ADD SWAP1 PUSH2 0x248 SWAP2 SWAP1 PUSH2 0x1DAD JUMP JUMPDEST PUSH2 0x815 JUMP JUMPDEST PUSH1 0x40 MLOAD PUSH2 0x25A SWAP2 SWAP1 PUSH2 0x18F5 JUMP JUMPDEST PUSH1 0x40 MLOAD DUP1 SWAP2 SUB SWAP1 RETURN JUMPDEST PUSH2 0x26B PUSH2 0x88F JUMP JUMPDEST PUSH1 0x40 MLOAD PUSH2 0x278 SWAP2 SWAP1 PUSH2 0x1C9E JUMP JUMPDEST PUSH1 0x40 MLOAD DUP1 SWAP2 SUB SWAP1 RETURN JUMPDEST PUSH2 0x29B PUSH1 0x4 DUP1 CALLDATASIZE SUB DUP2 ADD SWAP1 PUSH2 0x296 SWAP2 SWAP1 PUSH2 0x1E0F JUMP JUMPDEST PUSH2 0x9BC JUMP JUMPDEST PUSH1 0x40 MLOAD PUSH2 0x2A8 SWAP2 SWAP1 PUSH2 0x1E4B JUMP JUMPDEST PUSH1 0x40 MLOAD DUP1 SWAP2 SUB SWAP1 RETURN JUMPDEST PUSH2 0x2CB PUSH1 0x4 DUP1 CALLDATASIZE SUB DUP2 ADD SWAP1 PUSH2 0x2C6 SWAP2 SWAP1 PUSH2 0x1E66 JUMP JUMPDEST PUSH2 0xA31 JUMP JUMPDEST STOP JUMPDEST PUSH2 0x2D5 PUSH2 0xB02 JUMP JUMPDEST STOP JUMPDEST PUSH2 0x2F1 PUSH1 0x4 DUP1 CALLDATASIZE SUB DUP2 ADD SWAP1 PUSH2 0x2EC SWAP2 SWAP1 PUSH2 0x1EDA JUMP JUMPDEST PUSH2 0xB2F JUMP JUMPDEST STOP JUMPDEST PUSH2 0x30D PUSH1 0x4 DUP1 CALLDATASIZE SUB DUP2 ADD SWAP1 PUSH2 0x308 SWAP2 SWAP1 PUSH2 0x1BD3 JUMP JUMPDEST PUSH2 0xD38 JUMP JUMPDEST PUSH1 0x40 MLOAD PUSH2 0x31A SWAP2 SWAP1 PUSH2 0x1D66 JUMP JUMPDEST PUSH1 0x40 MLOAD DUP1 SWAP2 SUB SWAP1 RETURN JUMPDEST PUSH2 0x32B PUSH2 0xDA5 JUMP JUMPDEST STOP JUMPDEST PUSH2 0x335 PUSH2 0xE50 JUMP JUMPDEST PUSH1 0x40 MLOAD PUSH2 0x342 SWAP2 SWAP1 PUSH2 0x2040 JUMP JUMPDEST PUSH1 0x40 MLOAD DUP1 SWAP2 SUB SWAP1 RETURN JUMPDEST PUSH2 0x353 PUSH2 0xF48 JUMP JUMPDEST PUSH1 0x40 MLOAD PUSH2 0x360 SWAP2 SWAP1 PUSH2 0x1D29 JUMP JUMPDEST PUSH1 0x40 MLOAD DUP1 SWAP2 SUB SWAP1 RETURN JUMPDEST PUSH2 0x383 PUSH1 0x4 DUP1 CALLDATASIZE SUB DUP2 ADD SWAP1 PUSH2 0x37E SWAP2 SWAP1 PUSH2 0x2113 JUMP JUMPDEST PUSH2 0xFAD JUMP JUMPDEST PUSH1 0x40 MLOAD PUSH2 0x390 SWAP2 SWAP1 PUSH2 0x21C4 JUMP JUMPDEST PUSH1 0x40 MLOAD DUP1 SWAP2 SUB SWAP1 RETURN JUMPDEST PUSH2 0x3A1 PUSH2 0x10D8 JUMP JUMPDEST STOP JUMPDEST PUSH2 0x3AB PUSH2 0x110A JUMP JUMPDEST PUSH1 0x40 MLOAD PUSH2 0x3B8 SWAP2 SWAP1 PUSH2 0x227B JUMP JUMPDEST PUSH1 0x40 MLOAD DUP1 SWAP2 SUB SWAP1 RETURN JUMPDEST PUSH2 0x3DB PUSH1 0x4 DUP1 CALLDATASIZE SUB DUP2 ADD SWAP1 PUSH2 0x3D6 SWAP2 SWAP1 PUSH2 0x2296 JUMP JUMPDEST PUSH2 0x1192 JUMP JUMPDEST PUSH1 0x40 MLOAD PUSH2 0x3E8 SWAP2 SWAP1 PUSH2 0x1D66 JUMP JUMPDEST PUSH1 0x40 MLOAD DUP1 SWAP2 SUB SWAP1 RETURN JUMPDEST PUSH2 0x40B PUSH1 0x4 DUP1 CALLDATASIZE SUB DUP2 ADD SWAP1 PUSH2 0x406 SWAP2 SWAP1 PUSH2 0x1E66 JUMP JUMPDEST PUSH2 0x1229 JUMP JUMPDEST STOP JUMPDEST PUSH2 0x427 PUSH1 0x4 DUP1 CALLDATASIZE SUB DUP2 ADD SWAP1 PUSH2 0x422 SWAP2 SWAP1 PUSH2 0x17EE JUMP JUMPDEST PUSH2 0x12D3 JUMP JUMPDEST PUSH1 0x40 MLOAD PUSH2 0x434 SWAP2 SWAP1 PUSH2 0x1E4B JUMP JUMPDEST PUSH1 0x40 MLOAD DUP1 SWAP2 SUB SWAP1 RETURN JUMPDEST PUSH2 0x445 PUSH2 0x1327 JUMP JUMPDEST STOP JUMPDEST PUSH2 0x461 PUSH1 0x4 DUP1 CALLDATASIZE SUB DUP2 ADD SWAP1 PUSH2 0x45C SWAP2 SWAP1 PUSH2 0x2296 JUMP JUMPDEST PUSH2 0x14A3 JUMP JUMPDEST PUSH1 0x40 MLOAD PUSH2 0x470 SWAP4 SWAP3 SWAP2 SWAP1 PUSH2 0x22D2 JUMP JUMPDEST PUSH1 0x40 MLOAD DUP1 SWAP2 SUB SWAP1 RETURN JUMPDEST PUSH1 0x60 PUSH1 0x0 DUP3 MLOAD PUSH8 0xFFFFFFFFFFFFFFFF DUP2 GT ISZERO PUSH2 0x498 JUMPI PUSH2 0x497 PUSH2 0x1675 JUMP JUMPDEST JUMPDEST PUSH1 0x40 MLOAD SWAP1 DUP1 DUP3 MSTORE DUP1 PUSH1 0x20 MUL PUSH1 0x20 ADD DUP3 ADD PUSH1 0x40 MSTORE DUP1 ISZERO PUSH2 0x4C6 JUMPI DUP2 PUSH1 0x20 ADD PUSH1 0x20 DUP3 MUL DUP1 CALLDATASIZE DUP4 CALLDATACOPY DUP1 DUP3 ADD SWAP2 POP POP SWAP1 POP JUMPDEST POP SWAP1 POP PUSH1 0x0 JUMPDEST DUP4 MLOAD DUP2 LT ISZERO PUSH2 0x53A JUMPI DUP4 DUP2 PUSH1 0x1 DUP7 MLOAD PUSH2 0x4E5 SWAP2 SWAP1 PUSH2 0x233F JUMP JUMPDEST PUSH2 0x4EF SWAP2 SWAP1 PUSH2 0x233F JUMP JUMPDEST DUP2 MLOAD DUP2 LT PUSH2 0x500 JUMPI PUSH2 0x4FF PUSH2 0x2373 JUMP JUMPDEST JUMPDEST PUSH1 0x20 MUL PUSH1 0x20 ADD ADD MLOAD DUP3 DUP3 DUP2 MLOAD DUP2 LT PUSH2 0x51B JUMPI PUSH2 0x51A PUSH2 0x2373 JUMP JUMPDEST JUMPDEST PUSH1 0x20 MUL PUSH1 0x20 ADD ADD DUP2 DUP2 MSTORE POP POP DUP1 DUP1 PUSH2 0x532 SWAP1 PUSH2 0x23A2 JUMP JUMPDEST SWAP2 POP POP PUSH2 0x4CC JUMP JUMPDEST POP DUP1 SWAP2 POP POP SWAP2 SWAP1 POP JUMP JUMPDEST PUSH1 0x21 DUP2 SWAP1 DUP1 PUSH1 0x1 DUP2 SLOAD ADD DUP1 DUP3 SSTORE DUP1 SWAP2 POP POP PUSH1 0x1 SWAP1 SUB SWAP1 PUSH1 0x0 MSTORE PUSH1 0x20 PUSH1 0x0 KECCAK256 ADD PUSH1 0x0 SWAP1 SWAP2 SWAP1 SWAP2 SWAP1 SWAP2 POP SWAP1 DUP2 PUSH2 0x578 SWAP2 SWAP1 PUSH2 0x25F6 JUMP JUMPDEST POP POP JUMP JUMPDEST PUSH1 0x60 PUSH1 0x21 DUP1 SLOAD DUP1 PUSH1 0x20 MUL PUSH1 0x20 ADD PUSH1 0x40 MLOAD SWAP1 DUP2 ADD PUSH1 0x40 MSTORE DUP1 SWAP3 SWAP2 SWAP1 DUP2 DUP2 MSTORE PUSH1 0x20 ADD PUSH1 0x0 SWAP1 JUMPDEST DUP3 DUP3 LT ISZERO PUSH2 0x64C JUMPI DUP4 DUP3 SWAP1 PUSH1 0x0 MSTORE PUSH1 0x20 PUSH1 0x0 KECCAK256 ADD DUP1 SLOAD PUSH2 0x5BF SWAP1 PUSH2 0x2419 JUMP JUMPDEST DUP1 PUSH1 0x1F ADD PUSH1 0x20 DUP1 SWAP2 DIV MUL PUSH1 0x20 ADD PUSH1 0x40 MLOAD SWAP1 DUP2 ADD PUSH1 0x40 MSTORE DUP1 SWAP3 SWAP2 SWAP1 DUP2 DUP2 MSTORE PUSH1 0x20 ADD DUP3 DUP1 SLOAD PUSH2 0x5EB SWAP1 PUSH2 0x2419 JUMP JUMPDEST DUP1 ISZERO PUSH2 0x638 JUMPI DUP1 PUSH1 0x1F LT PUSH2 0x60D JUMPI PUSH2 0x100 DUP1 DUP4 SLOAD DIV MUL DUP4 MSTORE SWAP2 PUSH1 0x20 ADD SWAP2 PUSH2 0x638 JUMP JUMPDEST DUP3 ADD SWAP2 SWAP1 PUSH1 0x0 MSTORE PUSH1 0x20 PUSH1 0x0 KECCAK256 SWAP1 JUMPDEST DUP2 SLOAD DUP2 MSTORE SWAP1 PUSH1 0x1 ADD SWAP1 PUSH1 0x20 ADD DUP1 DUP4 GT PUSH2 0x61B JUMPI DUP3 SWAP1 SUB PUSH1 0x1F AND DUP3 ADD SWAP2 JUMPDEST POP POP POP POP POP DUP2 MSTORE PUSH1 0x20 ADD SWAP1 PUSH1 0x1 ADD SWAP1 PUSH2 0x5A0 JUMP JUMPDEST POP POP POP POP SWAP1 POP SWAP1 JUMP JUMPDEST PUSH1 0x60 DUP5 DUP5 DUP5 DUP5 PUSH1 0x40 MLOAD PUSH1 0x20 ADD PUSH2 0x66E SWAP5 SWAP4 SWAP3 SWAP2 SWAP1 PUSH2 0x26F8 JUMP JUMPDEST PUSH1 0x40 MLOAD PUSH1 0x20 DUP2 DUP4 SUB SUB DUP2 MSTORE SWAP1 PUSH1 0x40 MSTORE SWAP1 POP SWAP5 SWAP4 POP POP POP POP JUMP JUMPDEST PUSH2 0x68F PUSH2 0x155B JUMP JUMPDEST PUSH1 0x1F PUSH1 0x0 CALLER PUSH20 0xFFFFFFFFFFFFFFFFFFFFFFFFFFFFFFFFFFFFFFFF AND PUSH20 0xFFFFFFFFFFFFFFFFFFFFFFFFFFFFFFFFFFFFFFFF AND DUP2 MSTORE PUSH1 0x20 ADD SWAP1 DUP2 MSTORE PUSH1 0x20 ADD PUSH1 0x0 KECCAK256 PUSH1 0x40 MLOAD DUP1 PUSH1 0x60 ADD PUSH1 0x40 MSTORE SWAP1 DUP2 PUSH1 0x0 DUP3 ADD DUP1 SLOAD PUSH2 0x6E9 SWAP1 PUSH2 0x2419 JUMP JUMPDEST DUP1 PUSH1 0x1F ADD PUSH1 0x20 DUP1 SWAP2 DIV MUL PUSH1 0x20 ADD PUSH1 0x40 MLOAD SWAP1 DUP2 ADD PUSH1 0x40 MSTORE DUP1 SWAP3 SWAP2 SWAP1 DUP2 DUP2 MSTORE PUSH1 0x20 ADD DUP3 DUP1 SLOAD PUSH2 0x715 SWAP1 PUSH2 0x2419 JUMP JUMPDEST DUP1 ISZERO PUSH2 0x762 JUMPI DUP1 PUSH1 0x1F LT PUSH2 0x737 JUMPI PUSH2 0x100 DUP1 DUP4 SLOAD DIV MUL DUP4 MSTORE SWAP2 PUSH1 0x20 ADD SWAP2 PUSH2 0x762 JUMP JUMPDEST DUP3 ADD SWAP2 SWAP1 PUSH1 0x0 MSTORE PUSH1 0x20 PUSH1 0x0 KECCAK256 SWAP1 JUMPDEST DUP2 SLOAD DUP2 MSTORE SWAP1 PUSH1 0x1 ADD SWAP1 PUSH1 0x20 ADD DUP1 DUP4 GT PUSH2 0x745 JUMPI DUP3 SWAP1 SUB PUSH1 0x1F AND DUP3 ADD SWAP2 JUMPDEST POP POP POP POP POP DUP2 MSTORE PUSH1 0x20 ADD PUSH1 0x1 DUP3 ADD SLOAD DUP2 MSTORE PUSH1 0x20 ADD PUSH1 0x2 DUP3 ADD SLOAD DUP2 MSTORE POP POP SWAP1 POP SWAP1 JUMP JUMPDEST PUSH1 0x0 PUSH1 0x20 PUSH1 0x0 CALLER PUSH20 0xFFFFFFFFFFFFFFFFFFFFFFFFFFFFFFFFFFFFFFFF AND PUSH20 0xFFFFFFFFFFFFFFFFFFFFFFFFFFFFFFFFFFFFFFFF AND DUP2 MSTORE PUSH1 0x20 ADD SWAP1 DUP2 MSTORE PUSH1 0x20 ADD PUSH1 0x0 KECCAK256 PUSH1 0x0 CALLER PUSH20 0xFFFFFFFFFFFFFFFFFFFFFFFFFFFFFFFFFFFFFFFF AND PUSH20 0xFFFFFFFFFFFFFFFFFFFFFFFFFFFFFFFFFFFFFFFF AND DUP2 MSTORE PUSH1 0x20 ADD SWAP1 DUP2 MSTORE PUSH1 0x20 ADD PUSH1 0x0 KECCAK256 PUSH1 0x0 SWAP1 SLOAD SWAP1 PUSH2 0x100 EXP SWAP1 DIV PUSH1 0xFF AND SWAP1 POP SWAP1 JUMP JUMPDEST PUSH1 0x60 PUSH1 0x0 PUSH1 0xA PUSH8 0xFFFFFFFFFFFFFFFF DUP2 GT ISZERO PUSH2 0x834 JUMPI PUSH2 0x833 PUSH2 0x1675 JUMP JUMPDEST JUMPDEST PUSH1 0x40 MLOAD SWAP1 DUP1 DUP3 MSTORE DUP1 PUSH1 0x20 MUL PUSH1 0x20 ADD DUP3 ADD PUSH1 0x40 MSTORE DUP1 ISZERO PUSH2 0x862 JUMPI DUP2 PUSH1 0x20 ADD PUSH1 0x20 DUP3 MUL DUP1 CALLDATASIZE DUP4 CALLDATACOPY DUP1 DUP3 ADD SWAP2 POP POP SWAP1 POP JUMPDEST POP SWAP1 POP DUP4 DUP2 DUP5 DUP2 MLOAD DUP2 LT PUSH2 0x879 JUMPI PUSH2 0x878 PUSH2 0x2373 JUMP JUMPDEST JUMPDEST PUSH1 0x20 MUL PUSH1 0x20 ADD ADD DUP2 DUP2 MSTORE POP POP DUP1 SWAP2 POP POP SWAP3 SWAP2 POP POP JUMP JUMPDEST PUSH1 0x60 PUSH1 0x0 PUSH1 0x2 DUP2 GT ISZERO PUSH2 0x8A5 JUMPI PUSH2 0x8A4 PUSH2 0x2720 JUMP JUMPDEST JUMPDEST PUSH1 0x22 PUSH1 0x0 SWAP1 SLOAD SWAP1 PUSH2 0x100 EXP SWAP1 DIV PUSH1 0xFF AND PUSH1 0x2 DUP2 GT ISZERO PUSH2 0x8C7 JUMPI PUSH2 0x8C6 PUSH2 0x2720 JUMP JUMPDEST JUMPDEST SUB PUSH2 0x909 JUMPI PUSH1 0x40 MLOAD DUP1 PUSH1 0x40 ADD PUSH1 0x40 MSTORE DUP1 PUSH1 0x5 DUP2 MSTORE PUSH1 0x20 ADD PUSH32 0x534D414C4C000000000000000000000000000000000000000000000000000000 DUP2 MSTORE POP SWAP1 POP PUSH2 0x9B9 JUMP JUMPDEST PUSH1 0x2 DUP1 DUP2 GT ISZERO PUSH2 0x91C JUMPI PUSH2 0x91B PUSH2 0x2720 JUMP JUMPDEST JUMPDEST PUSH1 0x22 PUSH1 0x0 SWAP1 SLOAD SWAP1 PUSH2 0x100 EXP SWAP1 DIV PUSH1 0xFF AND PUSH1 0x2 DUP2 GT ISZERO PUSH2 0x93E JUMPI PUSH2 0x93D PUSH2 0x2720 JUMP JUMPDEST JUMPDEST SUB PUSH2 0x980 JUMPI PUSH1 0x40 MLOAD DUP1 PUSH1 0x40 ADD PUSH1 0x40 MSTORE DUP1 PUSH1 0x5 DUP2 MSTORE PUSH1 0x20 ADD PUSH32 0x4C41524745000000000000000000000000000000000000000000000000000000 DUP2 MSTORE POP SWAP1 POP PUSH2 0x9B9 JUMP JUMPDEST PUSH1 0x40 MLOAD DUP1 PUSH1 0x40 ADD PUSH1 0x40 MSTORE DUP1 PUSH1 0x6 DUP2 MSTORE PUSH1 0x20 ADD PUSH32 0x4D454449554D0000000000000000000000000000000000000000000000000000 DUP2 MSTORE POP SWAP1 POP JUMPDEST SWAP1 JUMP JUMPDEST PUSH1 0x0 DUP1 PUSH1 0x0 SWAP1 POP PUSH1 0x0 JUMPDEST PUSH1 0x4 DUP2 LT ISZERO PUSH2 0xA27 JUMPI PUSH1 0x0 DUP2 EQ DUP1 PUSH2 0x9F4 JUMPI POP DUP4 DUP2 PUSH1 0x4 DUP2 LT PUSH2 0x9EC JUMPI PUSH2 0x9EB PUSH2 0x2373 JUMP JUMPDEST JUMPDEST PUSH1 0x20 MUL ADD CALLDATALOAD DUP3 SLT JUMPDEST ISZERO PUSH2 0xA14 JUMPI DUP4 DUP2 PUSH1 0x4 DUP2 LT PUSH2 0xA0C JUMPI PUSH2 0xA0B PUSH2 0x2373 JUMP JUMPDEST JUMPDEST PUSH1 0x20 MUL ADD CALLDATALOAD SWAP2 POP JUMPDEST DUP1 DUP1 PUSH2 0xA1F SWAP1 PUSH2 0x23A2 JUMP JUMPDEST SWAP2 POP POP PUSH2 0x9C6 JUMP JUMPDEST POP DUP1 SWAP2 POP POP SWAP2 SWAP1 POP JUMP JUMPDEST PUSH1 0x40 MLOAD DUP1 PUSH1 0x60 ADD PUSH1 0x40 MSTORE DUP1 DUP6 DUP6 DUP1 DUP1 PUSH1 0x1F ADD PUSH1 0x20 DUP1 SWAP2 DIV MUL PUSH1 0x20 ADD PUSH1 0x40 MLOAD SWAP1 DUP2 ADD PUSH1 0x40 MSTORE DUP1 SWAP4 SWAP3 SWAP2 SWAP1 DUP2 DUP2 MSTORE PUSH1 0x20 ADD DUP4 DUP4 DUP1 DUP3 DUP5 CALLDATACOPY PUSH1 0x0 DUP2 DUP5 ADD MSTORE PUSH1 0x1F NOT PUSH1 0x1F DUP3 ADD AND SWAP1 POP DUP1 DUP4 ADD SWAP3 POP POP POP POP POP POP POP DUP2 MSTORE PUSH1 0x20 ADD DUP4 DUP2 MSTORE PUSH1 0x20 ADD DUP3 DUP2 MSTORE POP PUSH1 0x1F PUSH1 0x0 CALLER PUSH20 0xFFFFFFFFFFFFFFFFFFFFFFFFFFFFFFFFFFFFFFFF AND PUSH20 0xFFFFFFFFFFFFFFFFFFFFFFFFFFFFFFFFFFFFFFFF AND DUP2 MSTORE PUSH1 0x20 ADD SWAP1 DUP2 MSTORE PUSH1 0x20 ADD PUSH1 0x0 KECCAK256 PUSH1 0x0 DUP3 ADD MLOAD DUP2 PUSH1 0x0 ADD SWAP1 DUP2 PUSH2 0xAE4 SWAP2 SWAP1 PUSH2 0x25F6 JUMP JUMPDEST POP PUSH1 0x20 DUP3 ADD MLOAD DUP2 PUSH1 0x1 ADD SSTORE PUSH1 0x40 DUP3 ADD MLOAD DUP2 PUSH1 0x2 ADD SSTORE SWAP1 POP POP POP POP POP POP JUMP JUMPDEST PUSH1 0x1 PUSH1 0x22 PUSH1 0x0 PUSH2 0x100 EXP DUP2 SLOAD DUP2 PUSH1 0xFF MUL NOT AND SWAP1 DUP4 PUSH1 0x2 DUP2 GT ISZERO PUSH2 0xB28 JUMPI PUSH2 0xB27 PUSH2 0x2720 JUMP JUMPDEST JUMPDEST MUL OR SWAP1 SSTORE POP JUMP JUMPDEST PUSH1 0x40 MLOAD PUSH1 0x20 ADD PUSH2 0xB3E SWAP1 PUSH2 0x279B JUMP JUMPDEST PUSH1 0x40 MLOAD PUSH1 0x20 DUP2 DUP4 SUB SUB DUP2 MSTORE SWAP1 PUSH1 0x40 MSTORE DUP1 MLOAD SWAP1 PUSH1 0x20 ADD KECCAK256 DUP4 DUP4 PUSH1 0x40 MLOAD PUSH1 0x20 ADD PUSH2 0xB67 SWAP3 SWAP2 SWAP1 PUSH2 0x27B0 JUMP JUMPDEST PUSH1 0x40 MLOAD PUSH1 0x20 DUP2 DUP4 SUB SUB DUP2 MSTORE SWAP1 PUSH1 0x40 MSTORE DUP1 MLOAD SWAP1 PUSH1 0x20 ADD KECCAK256 SUB PUSH2 0xBDB JUMPI DUP1 PUSH1 0x1E PUSH1 0x0 CALLER PUSH20 0xFFFFFFFFFFFFFFFFFFFFFFFFFFFFFFFFFFFFFFFF AND PUSH20 0xFFFFFFFFFFFFFFFFFFFFFFFFFFFFFFFFFFFFFFFF AND DUP2 MSTORE PUSH1 0x20 ADD SWAP1 DUP2 MSTORE PUSH1 0x20 ADD PUSH1 0x0 KECCAK256 PUSH1 0x0 PUSH1 0x3 DUP2 LT PUSH2 0xBD5 JUMPI PUSH2 0xBD4 PUSH2 0x2373 JUMP JUMPDEST JUMPDEST ADD DUP2 SWAP1 SSTORE POP JUMPDEST PUSH1 0x40 MLOAD PUSH1 0x20 ADD PUSH2 0xBEA SWAP1 PUSH2 0x2815 JUMP JUMPDEST PUSH1 0x40 MLOAD PUSH1 0x20 DUP2 DUP4 SUB SUB DUP2 MSTORE SWAP1 PUSH1 0x40 MSTORE DUP1 MLOAD SWAP1 PUSH1 0x20 ADD KECCAK256 DUP4 DUP4 PUSH1 0x40 MLOAD PUSH1 0x20 ADD PUSH2 0xC13 SWAP3 SWAP2 SWAP1 PUSH2 0x27B0 JUMP JUMPDEST PUSH1 0x40 MLOAD PUSH1 0x20 DUP2 DUP4 SUB SUB DUP2 MSTORE SWAP1 PUSH1 0x40 MSTORE DUP1 MLOAD SWAP1 PUSH1 0x20 ADD KECCAK256 SUB PUSH2 0xC87 JUMPI DUP1 PUSH1 0x1E PUSH1 0x0 CALLER PUSH20 0xFFFFFFFFFFFFFFFFFFFFFFFFFFFFFFFFFFFFFFFF AND PUSH20 0xFFFFFFFFFFFFFFFFFFFFFFFFFFFFFFFFFFFFFFFF AND DUP2 MSTORE PUSH1 0x20 ADD SWAP1 DUP2 MSTORE PUSH1 0x20 ADD PUSH1 0x0 KECCAK256 PUSH1 0x1 PUSH1 0x3 DUP2 LT PUSH2 0xC81 JUMPI PUSH2 0xC80 PUSH2 0x2373 JUMP JUMPDEST JUMPDEST ADD DUP2 SWAP1 SSTORE POP JUMPDEST PUSH1 0x40 MLOAD PUSH1 0x20 ADD PUSH2 0xC96 SWAP1 PUSH2 0x2876 JUMP JUMPDEST PUSH1 0x40 MLOAD PUSH1 0x20 DUP2 DUP4 SUB SUB DUP2 MSTORE SWAP1 PUSH1 0x40 MSTORE DUP1 MLOAD SWAP1 PUSH1 0x20 ADD KECCAK256 DUP4 DUP4 PUSH1 0x40 MLOAD PUSH1 0x20 ADD PUSH2 0xCBF SWAP3 SWAP2 SWAP1 PUSH2 0x27B0 JUMP JUMPDEST PUSH1 0x40 MLOAD PUSH1 0x20 DUP2 DUP4 SUB SUB DUP2 MSTORE SWAP1 PUSH1 0x40 MSTORE DUP1 MLOAD SWAP1 PUSH1 0x20 ADD KECCAK256 SUB PUSH2 0xD33 JUMPI DUP1 PUSH1 0x1E PUSH1 0x0 CALLER PUSH20 0xFFFFFFFFFFFFFFFFFFFFFFFFFFFFFFFFFFFFFFFF AND PUSH20 0xFFFFFFFFFFFFFFFFFFFFFFFFFFFFFFFFFFFFFFFF AND DUP2 MSTORE PUSH1 0x20 ADD SWAP1 DUP2 MSTORE PUSH1 0x20 ADD PUSH1 0x0 KECCAK256 PUSH1 0x2 PUSH1 0x3 DUP2 LT PUSH2 0xD2D JUMPI PUSH2 0xD2C PUSH2 0x2373 JUMP JUMPDEST JUMPDEST ADD DUP2 SWAP1 SSTORE POP JUMPDEST POP POP POP JUMP JUMPDEST PUSH1 0x0 DUP3 DUP3 PUSH1 0x40 MLOAD PUSH1 0x20 ADD PUSH2 0xD4D SWAP3 SWAP2 SWAP1 PUSH2 0x27B0 JUMP JUMPDEST PUSH1 0x40 MLOAD PUSH1 0x20 DUP2 DUP4 SUB SUB DUP2 MSTORE SWAP1 PUSH1 0x40 MSTORE DUP1 MLOAD SWAP1 PUSH1 0x20 ADD KECCAK256 DUP6 DUP6 PUSH1 0x40 MLOAD PUSH1 0x20 ADD PUSH2 0xD76 SWAP3 SWAP2 SWAP1 PUSH2 0x27B0 JUMP JUMPDEST PUSH1 0x40 MLOAD PUSH1 0x20 DUP2 DUP4 SUB SUB DUP2 MSTORE SWAP1 PUSH1 0x40 MSTORE DUP1 MLOAD SWAP1 PUSH1 0x20 ADD KECCAK256 EQ PUSH2 0xD98 JUMPI PUSH1 0x0 PUSH2 0xD9B JUMP JUMPDEST PUSH1 0x1 JUMPDEST SWAP1 POP SWAP5 SWAP4 POP POP POP POP JUMP JUMPDEST PUSH1 0x1 PUSH1 0x20 PUSH1 0x0 PUSH20 0x5B38DA6A701C568545DCFCB03FCB875F56BEDDC4 PUSH20 0xFFFFFFFFFFFFFFFFFFFFFFFFFFFFFFFFFFFFFFFF AND PUSH20 0xFFFFFFFFFFFFFFFFFFFFFFFFFFFFFFFFFFFFFFFF AND DUP2 MSTORE PUSH1 0x20 ADD SWAP1 DUP2 MSTORE PUSH1 0x20 ADD PUSH1 0x0 KECCAK256 PUSH1 0x0 CALLER PUSH20 0xFFFFFFFFFFFFFFFFFFFFFFFFFFFFFFFFFFFFFFFF AND PUSH20 0xFFFFFFFFFFFFFFFFFFFFFFFFFFFFFFFFFFFFFFFF AND DUP2 MSTORE PUSH1 0x20 ADD SWAP1 DUP2 MSTORE PUSH1 0x20 ADD PUSH1 0x0 KECCAK256 PUSH1 0x0 PUSH2 0x100 EXP DUP2 SLOAD DUP2 PUSH1 0xFF MUL NOT AND SWAP1 DUP4 ISZERO ISZERO MUL OR SWAP1 SSTORE POP JUMP JUMPDEST PUSH2 0xE58 PUSH2 0x157C JUMP JUMPDEST PUSH1 0x0 PUSH1 0xA DUP1 PUSH1 0x20 MUL PUSH1 0x40 MLOAD SWAP1 DUP2 ADD PUSH1 0x40 MSTORE DUP1 SWAP3 SWAP2 SWAP1 PUSH1 0x0 SWAP1 JUMPDEST DUP3 DUP3 LT ISZERO PUSH2 0xF3F JUMPI DUP4 DUP3 PUSH1 0x3 MUL ADD PUSH1 0x40 MLOAD DUP1 PUSH1 0x60 ADD PUSH1 0x40 MSTORE SWAP1 DUP2 PUSH1 0x0 DUP3 ADD DUP1 SLOAD PUSH2 0xE9A SWAP1 PUSH2 0x2419 JUMP JUMPDEST DUP1 PUSH1 0x1F ADD PUSH1 0x20 DUP1 SWAP2 DIV MUL PUSH1 0x20 ADD PUSH1 0x40 MLOAD SWAP1 DUP2 ADD PUSH1 0x40 MSTORE DUP1 SWAP3 SWAP2 SWAP1 DUP2 DUP2 MSTORE PUSH1 0x20 ADD DUP3 DUP1 SLOAD PUSH2 0xEC6 SWAP1 PUSH2 0x2419 JUMP JUMPDEST DUP1 ISZERO PUSH2 0xF13 JUMPI DUP1 PUSH1 0x1F LT PUSH2 0xEE8 JUMPI PUSH2 0x100 DUP1 DUP4 SLOAD DIV MUL DUP4 MSTORE SWAP2 PUSH1 0x20 ADD SWAP2 PUSH2 0xF13 JUMP JUMPDEST DUP3 ADD SWAP2 SWAP1 PUSH1 0x0 MSTORE PUSH1 0x20 PUSH1 0x0 KECCAK256 SWAP1 JUMPDEST DUP2 SLOAD DUP2 MSTORE SWAP1 PUSH1 0x1 ADD SWAP1 PUSH1 0x20 ADD DUP1 DUP4 GT PUSH2 0xEF6 JUMPI DUP3 SWAP1 SUB PUSH1 0x1F AND DUP3 ADD SWAP2 JUMPDEST POP POP POP POP POP DUP2 MSTORE PUSH1 0x20 ADD PUSH1 0x1 DUP3 ADD SLOAD DUP2 MSTORE PUSH1 0x20 ADD PUSH1 0x2 DUP3 ADD SLOAD DUP2 MSTORE POP POP DUP2 MSTORE PUSH1 0x20 ADD SWAP1 PUSH1 0x1 ADD SWAP1 PUSH2 0xE71 JUMP JUMPDEST POP POP POP POP SWAP1 POP SWAP1 JUMP JUMPDEST PUSH2 0xF50 PUSH2 0x155B JUMP JUMPDEST PUSH1 0x0 PUSH1 0x40 MLOAD DUP1 PUSH1 0x60 ADD PUSH1 0x40 MSTORE DUP1 PUSH1 0x40 MLOAD DUP1 PUSH1 0x40 ADD PUSH1 0x40 MSTORE DUP1 PUSH1 0x5 DUP2 MSTORE PUSH1 0x20 ADD PUSH32 0x7961736572000000000000000000000000000000000000000000000000000000 DUP2 MSTORE POP DUP2 MSTORE PUSH1 0x20 ADD PUSH1 0x1 DUP2 MSTORE PUSH1 0x20 ADD PUSH1 0x1D DUP2 MSTORE POP SWAP1 POP DUP1 SWAP2 POP POP SWAP1 JUMP JUMPDEST PUSH2 0xFB5 PUSH2 0x15AA JUMP JUMPDEST PUSH1 0x0 JUMPDEST PUSH1 0x1 PUSH1 0x5 PUSH2 0xFC6 SWAP2 SWAP1 PUSH2 0x233F JUMP JUMPDEST DUP2 LT ISZERO PUSH2 0x10CF JUMPI PUSH1 0x0 JUMPDEST PUSH1 0x1 PUSH1 0x5 PUSH2 0xFDE SWAP2 SWAP1 PUSH2 0x233F JUMP JUMPDEST DUP2 LT ISZERO PUSH2 0x10BB JUMPI DUP4 PUSH1 0x1 DUP3 PUSH2 0xFF3 SWAP2 SWAP1 PUSH2 0x288B JUMP JUMPDEST PUSH1 0x5 DUP2 LT PUSH2 0x1004 JUMPI PUSH2 0x1003 PUSH2 0x2373 JUMP JUMPDEST JUMPDEST PUSH1 0x20 MUL ADD MLOAD DUP5 DUP3 PUSH1 0x5 DUP2 LT PUSH2 0x101C JUMPI PUSH2 0x101B PUSH2 0x2373 JUMP JUMPDEST JUMPDEST PUSH1 0x20 MUL ADD MLOAD SGT ISZERO PUSH2 0x10A8 JUMPI DUP4 PUSH1 0x1 DUP3 PUSH2 0x1035 SWAP2 SWAP1 PUSH2 0x288B JUMP JUMPDEST PUSH1 0x5 DUP2 LT PUSH2 0x1046 JUMPI PUSH2 0x1045 PUSH2 0x2373 JUMP JUMPDEST JUMPDEST PUSH1 0x20 MUL ADD MLOAD DUP5 DUP3 PUSH1 0x5 DUP2 LT PUSH2 0x105E JUMPI PUSH2 0x105D PUSH2 0x2373 JUMP JUMPDEST JUMPDEST PUSH1 0x20 MUL ADD MLOAD DUP6 DUP4 PUSH1 0x5 DUP2 LT PUSH2 0x1076 JUMPI PUSH2 0x1075 PUSH2 0x2373 JUMP JUMPDEST JUMPDEST PUSH1 0x20 MUL ADD DUP7 PUSH1 0x1 DUP6 PUSH2 0x1088 SWAP2 SWAP1 PUSH2 0x288B JUMP JUMPDEST PUSH1 0x5 DUP2 LT PUSH2 0x1099 JUMPI PUSH2 0x1098 PUSH2 0x2373 JUMP JUMPDEST JUMPDEST PUSH1 0x20 MUL ADD DUP3 DUP2 MSTORE POP DUP3 DUP2 MSTORE POP POP POP JUMPDEST DUP1 DUP1 PUSH2 0x10B3 SWAP1 PUSH2 0x23A2 JUMP JUMPDEST SWAP2 POP POP PUSH2 0xFD0 JUMP JUMPDEST POP DUP1 DUP1 PUSH2 0x10C7 SWAP1 PUSH2 0x23A2 JUMP JUMPDEST SWAP2 POP POP PUSH2 0xFB8 JUMP JUMPDEST POP DUP2 SWAP1 POP SWAP2 SWAP1 POP JUMP JUMPDEST PUSH1 0x21 DUP1 SLOAD DUP1 PUSH2 0x10EA JUMPI PUSH2 0x10E9 PUSH2 0x28BF JUMP JUMPDEST JUMPDEST PUSH1 0x1 SWAP1 SUB DUP2 DUP2 SWAP1 PUSH1 0x0 MSTORE PUSH1 0x20 PUSH1 0x0 KECCAK256 ADD PUSH1 0x0 PUSH2 0x1106 SWAP2 SWAP1 PUSH2 0x15CC JUMP JUMPDEST SWAP1 SSTORE JUMP JUMPDEST PUSH2 0x1112 PUSH2 0x160C JUMP JUMPDEST PUSH1 0x1E PUSH1 0x0 CALLER PUSH20 0xFFFFFFFFFFFFFFFFFFFFFFFFFFFFFFFFFFFFFFFF AND PUSH20 0xFFFFFFFFFFFFFFFFFFFFFFFFFFFFFFFFFFFFFFFF AND DUP2 MSTORE PUSH1 0x20 ADD SWAP1 DUP2 MSTORE PUSH1 0x20 ADD PUSH1 0x0 KECCAK256 PUSH1 0x3 DUP1 PUSH1 0x20 MUL PUSH1 0x40 MLOAD SWAP1 DUP2 ADD PUSH1 0x40 MSTORE DUP1 SWAP3 SWAP2 SWAP1 DUP3 PUSH1 0x3 DUP1 ISZERO PUSH2 0x1188 JUMPI PUSH1 0x20 MUL DUP3 ADD SWAP2 JUMPDEST DUP2 SLOAD DUP2 MSTORE PUSH1 0x20 ADD SWAP1 PUSH1 0x1 ADD SWAP1 DUP1 DUP4 GT PUSH2 0x1174 JUMPI JUMPDEST POP POP POP POP POP SWAP1 POP SWAP1 JUMP JUMPDEST PUSH1 0x0 DUP1 PUSH1 0x40 MLOAD DUP1 PUSH1 0xA0 ADD PUSH1 0x40 MSTORE DUP1 PUSH1 0x1 PUSH1 0xFF AND DUP2 MSTORE PUSH1 0x20 ADD PUSH1 0x2 PUSH1 0xFF AND DUP2 MSTORE PUSH1 0x20 ADD PUSH1 0x3 PUSH1 0xFF AND DUP2 MSTORE PUSH1 0x20 ADD PUSH1 0x4 PUSH1 0xFF AND DUP2 MSTORE PUSH1 0x20 ADD PUSH1 0x5 PUSH1 0xFF AND DUP2 MSTORE POP SWAP1 POP PUSH1 0x0 JUMPDEST PUSH1 0x5 DUP2 LT ISZERO PUSH2 0x121D JUMPI DUP4 DUP3 DUP3 PUSH1 0x5 DUP2 LT PUSH2 0x11F2 JUMPI PUSH2 0x11F1 PUSH2 0x2373 JUMP JUMPDEST JUMPDEST PUSH1 0x20 MUL ADD MLOAD PUSH1 0xFF AND SUB PUSH2 0x120A JUMPI PUSH1 0x1 SWAP3 POP POP POP PUSH2 0x1224 JUMP JUMPDEST DUP1 DUP1 PUSH2 0x1215 SWAP1 PUSH2 0x23A2 JUMP JUMPDEST SWAP2 POP POP PUSH2 0x11D5 JUMP JUMPDEST POP PUSH1 0x0 SWAP2 POP POP JUMPDEST SWAP2 SWAP1 POP JUMP JUMPDEST PUSH1 0x40 MLOAD DUP1 PUSH1 0x60 ADD PUSH1 0x40 MSTORE DUP1 DUP6 DUP6 DUP1 DUP1 PUSH1 0x1F ADD PUSH1 0x20 DUP1 SWAP2 DIV MUL PUSH1 0x20 ADD PUSH1 0x40 MLOAD SWAP1 DUP2 ADD PUSH1 0x40 MSTORE DUP1 SWAP4 SWAP3 SWAP2 SWAP1 DUP2 DUP2 MSTORE PUSH1 0x20 ADD DUP4 DUP4 DUP1 DUP3 DUP5 CALLDATACOPY PUSH1 0x0 DUP2 DUP5 ADD MSTORE PUSH1 0x1F NOT PUSH1 0x1F DUP3 ADD AND SWAP1 POP DUP1 DUP4 ADD SWAP3 POP POP POP POP POP POP POP DUP2 MSTORE PUSH1 0x20 ADD DUP4 DUP2 MSTORE PUSH1 0x20 ADD DUP3 DUP2 MSTORE POP PUSH1 0x0 DUP4 PUSH1 0xA DUP2 LT PUSH2 0x129C JUMPI PUSH2 0x129B PUSH2 0x2373 JUMP JUMPDEST JUMPDEST PUSH1 0x3 MUL ADD PUSH1 0x0 DUP3 ADD MLOAD DUP2 PUSH1 0x0 ADD SWAP1 DUP2 PUSH2 0x12B5 SWAP2 SWAP1 PUSH2 0x25F6 JUMP JUMPDEST POP PUSH1 0x20 DUP3 ADD MLOAD DUP2 PUSH1 0x1 ADD SSTORE PUSH1 0x40 DUP3 ADD MLOAD DUP2 PUSH1 0x2 ADD SSTORE SWAP1 POP POP POP POP POP POP JUMP JUMPDEST PUSH1 0x0 DUP1 PUSH1 0x0 JUMPDEST DUP4 MLOAD DUP2 LT ISZERO PUSH2 0x131D JUMPI DUP4 DUP2 DUP2 MLOAD DUP2 LT PUSH2 0x12F5 JUMPI PUSH2 0x12F4 PUSH2 0x2373 JUMP JUMPDEST JUMPDEST PUSH1 0x20 MUL PUSH1 0x20 ADD ADD MLOAD DUP3 PUSH2 0x1308 SWAP2 SWAP1 PUSH2 0x28EE JUMP JUMPDEST SWAP2 POP DUP1 DUP1 PUSH2 0x1315 SWAP1 PUSH2 0x23A2 JUMP JUMPDEST SWAP2 POP POP PUSH2 0x12D9 JUMP JUMPDEST POP DUP1 SWAP2 POP POP SWAP2 SWAP1 POP JUMP JUMPDEST PUSH1 0x0 PUSH1 0x20 PUSH1 0x0 PUSH20 0x5B38DA6A701C568545DCFCB03FCB875F56BEDDC4 PUSH20 0xFFFFFFFFFFFFFFFFFFFFFFFFFFFFFFFFFFFFFFFF AND PUSH20 0xFFFFFFFFFFFFFFFFFFFFFFFFFFFFFFFFFFFFFFFF AND DUP2 MSTORE PUSH1 0x20 ADD SWAP1 DUP2 MSTORE PUSH1 0x20 ADD PUSH1 0x0 KECCAK256 PUSH1 0x0 PUSH20 0x5B38DA6A701C568545DCFCB03FCB875F56BEDDC4 PUSH20 0xFFFFFFFFFFFFFFFFFFFFFFFFFFFFFFFFFFFFFFFF AND PUSH20 0xFFFFFFFFFFFFFFFFFFFFFFFFFFFFFFFFFFFFFFFF AND DUP2 MSTORE PUSH1 0x20 ADD SWAP1 DUP2 MSTORE PUSH1 0x20 ADD PUSH1 0x0 KECCAK256 PUSH1 0x0 PUSH2 0x100 EXP DUP2 SLOAD DUP2 PUSH1 0xFF MUL NOT AND SWAP1 DUP4 ISZERO ISZERO MUL OR SWAP1 SSTORE POP PUSH1 0x0 PUSH1 0x20 PUSH1 0x0 PUSH20 0x5B38DA6A701C568545DCFCB03FCB875F56BEDDC4 PUSH20 0xFFFFFFFFFFFFFFFFFFFFFFFFFFFFFFFFFFFFFFFF AND PUSH20 0xFFFFFFFFFFFFFFFFFFFFFFFFFFFFFFFFFFFFFFFF AND DUP2 MSTORE PUSH1 0x20 ADD SWAP1 DUP2 MSTORE PUSH1 0x20 ADD PUSH1 0x0 KECCAK256 PUSH1 0x0 PUSH20 0xAB8483F64D9C6D1ECF9B849AE677DD3315835CB2 PUSH20 0xFFFFFFFFFFFFFFFFFFFFFFFFFFFFFFFFFFFFFFFF AND PUSH20 0xFFFFFFFFFFFFFFFFFFFFFFFFFFFFFFFFFFFFFFFF AND DUP2 MSTORE PUSH1 0x20 ADD SWAP1 DUP2 MSTORE PUSH1 0x20 ADD PUSH1 0x0 KECCAK256 PUSH1 0x0 PUSH2 0x100 EXP DUP2 SLOAD DUP2 PUSH1 0xFF MUL NOT AND SWAP1 DUP4 ISZERO ISZERO MUL OR SWAP1 SSTORE POP JUMP JUMPDEST PUSH1 0x0 DUP2 PUSH1 0xA DUP2 LT PUSH2 0x14B3 JUMPI PUSH1 0x0 DUP1 REVERT JUMPDEST PUSH1 0x3 MUL ADD PUSH1 0x0 SWAP2 POP SWAP1 POP DUP1 PUSH1 0x0 ADD DUP1 SLOAD PUSH2 0x14CC SWAP1 PUSH2 0x2419 JUMP JUMPDEST DUP1 PUSH1 0x1F ADD PUSH1 0x20 DUP1 SWAP2 DIV MUL PUSH1 0x20 ADD PUSH1 0x40 MLOAD SWAP1 DUP2 ADD PUSH1 0x40 MSTORE DUP1 SWAP3 SWAP2 SWAP1 DUP2 DUP2 MSTORE PUSH1 0x20 ADD DUP3 DUP1 SLOAD PUSH2 0x14F8 SWAP1 PUSH2 0x2419 JUMP JUMPDEST DUP1 ISZERO PUSH2 0x1545 JUMPI DUP1 PUSH1 0x1F LT PUSH2 0x151A JUMPI PUSH2 0x100 DUP1 DUP4 SLOAD DIV MUL DUP4 MSTORE SWAP2 PUSH1 0x20 ADD SWAP2 PUSH2 0x1545 JUMP JUMPDEST DUP3 ADD SWAP2 SWAP1 PUSH1 0x0 MSTORE PUSH1 0x20 PUSH1 0x0 KECCAK256 SWAP1 JUMPDEST DUP2 SLOAD DUP2 MSTORE SWAP1 PUSH1 0x1 ADD SWAP1 PUSH1 0x20 ADD DUP1 DUP4 GT PUSH2 0x1528 JUMPI DUP3 SWAP1 SUB PUSH1 0x1F AND DUP3 ADD SWAP2 JUMPDEST POP POP POP POP POP SWAP1 DUP1 PUSH1 0x1 ADD SLOAD SWAP1 DUP1 PUSH1 0x2 ADD SLOAD SWAP1 POP DUP4 JUMP JUMPDEST PUSH1 0x40 MLOAD DUP1 PUSH1 0x60 ADD PUSH1 0x40 MSTORE DUP1 PUSH1 0x60 DUP2 MSTORE PUSH1 0x20 ADD PUSH1 0x0 DUP2 MSTORE PUSH1 0x20 ADD PUSH1 0x0 DUP2 MSTORE POP SWAP1 JUMP JUMPDEST PUSH1 0x40 MLOAD DUP1 PUSH2 0x140 ADD PUSH1 0x40 MSTORE DUP1 PUSH1 0xA SWAP1 JUMPDEST PUSH2 0x1594 PUSH2 0x155B JUMP JUMPDEST DUP2 MSTORE PUSH1 0x20 ADD SWAP1 PUSH1 0x1 SWAP1 SUB SWAP1 DUP2 PUSH2 0x158C JUMPI SWAP1 POP POP SWAP1 JUMP JUMPDEST PUSH1 0x40 MLOAD DUP1 PUSH1 0xA0 ADD PUSH1 0x40 MSTORE DUP1 PUSH1 0x5 SWAP1 PUSH1 0x20 DUP3 MUL DUP1 CALLDATASIZE DUP4 CALLDATACOPY DUP1 DUP3 ADD SWAP2 POP POP SWAP1 POP POP SWAP1 JUMP JUMPDEST POP DUP1 SLOAD PUSH2 0x15D8 SWAP1 PUSH2 0x2419 JUMP JUMPDEST PUSH1 0x0 DUP3 SSTORE DUP1 PUSH1 0x1F LT PUSH2 0x15EA JUMPI POP PUSH2 0x1609 JUMP JUMPDEST PUSH1 0x1F ADD PUSH1 0x20 SWAP1 DIV SWAP1 PUSH1 0x0 MSTORE PUSH1 0x20 PUSH1 0x0 KECCAK256 SWAP1 DUP2 ADD SWAP1 PUSH2 0x1608 SWAP2 SWAP1 PUSH2 0x162E JUMP JUMPDEST JUMPDEST POP JUMP JUMPDEST PUSH1 0x40 MLOAD DUP1 PUSH1 0x60 ADD PUSH1 0x40 MSTORE DUP1 PUSH1 0x3 SWAP1 PUSH1 0x20 DUP3 MUL DUP1 CALLDATASIZE DUP4 CALLDATACOPY DUP1 DUP3 ADD SWAP2 POP POP SWAP1 POP POP SWAP1 JUMP JUMPDEST JUMPDEST DUP1 DUP3 GT ISZERO PUSH2 0x1647 JUMPI PUSH1 0x0 DUP2 PUSH1 0x0 SWAP1 SSTORE POP PUSH1 0x1 ADD PUSH2 0x162F JUMP JUMPDEST POP SWAP1 JUMP JUMPDEST PUSH1 0x0 PUSH1 0x40 MLOAD SWAP1 POP SWAP1 JUMP JUMPDEST PUSH1 0x0 DUP1 REVERT JUMPDEST PUSH1 0x0 DUP1 REVERT JUMPDEST PUSH1 0x0 DUP1 REVERT JUMPDEST PUSH1 0x0 PUSH1 0x1F NOT PUSH1 0x1F DUP4 ADD AND SWAP1 POP SWAP2 SWAP1 POP JUMP JUMPDEST PUSH32 0x4E487B7100000000000000000000000000000000000000000000000000000000 PUSH1 0x0 MSTORE PUSH1 0x41 PUSH1 0x4 MSTORE PUSH1 0x24 PUSH1 0x0 REVERT JUMPDEST PUSH2 0x16AD DUP3 PUSH2 0x1664 JUMP JUMPDEST DUP2 ADD DUP2 DUP2 LT PUSH8 0xFFFFFFFFFFFFFFFF DUP3 GT OR ISZERO PUSH2 0x16CC JUMPI PUSH2 0x16CB PUSH2 0x1675 JUMP JUMPDEST JUMPDEST DUP1 PUSH1 0x40 MSTORE POP POP POP JUMP JUMPDEST PUSH1 0x0 PUSH2 0x16DF PUSH2 0x164B JUMP JUMPDEST SWAP1 POP PUSH2 0x16EB DUP3 DUP3 PUSH2 0x16A4 JUMP JUMPDEST SWAP2 SWAP1 POP JUMP JUMPDEST PUSH1 0x0 PUSH8 0xFFFFFFFFFFFFFFFF DUP3 GT ISZERO PUSH2 0x170B JUMPI PUSH2 0x170A PUSH2 0x1675 JUMP JUMPDEST JUMPDEST PUSH1 0x20 DUP3 MUL SWAP1 POP PUSH1 0x20 DUP2 ADD SWAP1 POP SWAP2 SWAP1 POP JUMP JUMPDEST PUSH1 0x0 DUP1 REVERT JUMPDEST PUSH1 0x0 DUP2 SWAP1 POP SWAP2 SWAP1 POP JUMP JUMPDEST PUSH2 0x1734 DUP2 PUSH2 0x1721 JUMP JUMPDEST DUP2 EQ PUSH2 0x173F JUMPI PUSH1 0x0 DUP1 REVERT JUMPDEST POP JUMP JUMPDEST PUSH1 0x0 DUP2 CALLDATALOAD SWAP1 POP PUSH2 0x1751 DUP2 PUSH2 0x172B JUMP JUMPDEST SWAP3 SWAP2 POP POP JUMP JUMPDEST PUSH1 0x0 PUSH2 0x176A PUSH2 0x1765 DUP5 PUSH2 0x16F0 JUMP JUMPDEST PUSH2 0x16D5 JUMP JUMPDEST SWAP1 POP DUP1 DUP4 DUP3 MSTORE PUSH1 0x20 DUP3 ADD SWAP1 POP PUSH1 0x20 DUP5 MUL DUP4 ADD DUP6 DUP2 GT ISZERO PUSH2 0x178D JUMPI PUSH2 0x178C PUSH2 0x171C JUMP JUMPDEST JUMPDEST DUP4 JUMPDEST DUP2 DUP2 LT ISZERO PUSH2 0x17B6 JUMPI DUP1 PUSH2 0x17A2 DUP9 DUP3 PUSH2 0x1742 JUMP JUMPDEST DUP5 MSTORE PUSH1 0x20 DUP5 ADD SWAP4 POP POP PUSH1 0x20 DUP2 ADD SWAP1 POP PUSH2 0x178F JUMP JUMPDEST POP POP POP SWAP4 SWAP3 POP POP POP JUMP JUMPDEST PUSH1 0x0 DUP3 PUSH1 0x1F DUP4 ADD SLT PUSH2 0x17D5 JUMPI PUSH2 0x17D4 PUSH2 0x165F JUMP JUMPDEST JUMPDEST DUP2 CALLDATALOAD PUSH2 0x17E5 DUP5 DUP3 PUSH1 0x20 DUP7 ADD PUSH2 0x1757 JUMP JUMPDEST SWAP2 POP POP SWAP3 SWAP2 POP POP JUMP JUMPDEST PUSH1 0x0 PUSH1 0x20 DUP3 DUP5 SUB SLT ISZERO PUSH2 0x1804 JUMPI PUSH2 0x1803 PUSH2 0x1655 JUMP JUMPDEST JUMPDEST PUSH1 0x0 DUP3 ADD CALLDATALOAD PUSH8 0xFFFFFFFFFFFFFFFF DUP2 GT ISZERO PUSH2 0x1822 JUMPI PUSH2 0x1821 PUSH2 0x165A JUMP JUMPDEST JUMPDEST PUSH2 0x182E DUP5 DUP3 DUP6 ADD PUSH2 0x17C0 JUMP JUMPDEST SWAP2 POP POP SWAP3 SWAP2 POP POP JUMP JUMPDEST PUSH1 0x0 DUP2 MLOAD SWAP1 POP SWAP2 SWAP1 POP JUMP JUMPDEST PUSH1 0x0 DUP3 DUP3 MSTORE PUSH1 0x20 DUP3 ADD SWAP1 POP SWAP3 SWAP2 POP POP JUMP JUMPDEST PUSH1 0x0 DUP2 SWAP1 POP PUSH1 0x20 DUP3 ADD SWAP1 POP SWAP2 SWAP1 POP JUMP JUMPDEST PUSH2 0x186C DUP2 PUSH2 0x1721 JUMP JUMPDEST DUP3 MSTORE POP POP JUMP JUMPDEST PUSH1 0x0 PUSH2 0x187E DUP4 DUP4 PUSH2 0x1863 JUMP JUMPDEST PUSH1 0x20 DUP4 ADD SWAP1 POP SWAP3 SWAP2 POP POP JUMP JUMPDEST PUSH1 0x0 PUSH1 0x20 DUP3 ADD SWAP1 POP SWAP2 SWAP1 POP JUMP JUMPDEST PUSH1 0x0 PUSH2 0x18A2 DUP3 PUSH2 0x1837 JUMP JUMPDEST PUSH2 0x18AC DUP2 DUP6 PUSH2 0x1842 JUMP JUMPDEST SWAP4 POP PUSH2 0x18B7 DUP4 PUSH2 0x1853 JUMP JUMPDEST DUP1 PUSH1 0x0 JUMPDEST DUP4 DUP2 LT ISZERO PUSH2 0x18E8 JUMPI DUP2 MLOAD PUSH2 0x18CF DUP9 DUP3 PUSH2 0x1872 JUMP JUMPDEST SWAP8 POP PUSH2 0x18DA DUP4 PUSH2 0x188A JUMP JUMPDEST SWAP3 POP POP PUSH1 0x1 DUP2 ADD SWAP1 POP PUSH2 0x18BB JUMP JUMPDEST POP DUP6 SWAP4 POP POP POP POP SWAP3 SWAP2 POP POP JUMP JUMPDEST PUSH1 0x0 PUSH1 0x20 DUP3 ADD SWAP1 POP DUP2 DUP2 SUB PUSH1 0x0 DUP4 ADD MSTORE PUSH2 0x190F DUP2 DUP5 PUSH2 0x1897 JUMP JUMPDEST SWAP1 POP SWAP3 SWAP2 POP POP JUMP JUMPDEST PUSH1 0x0 DUP1 REVERT JUMPDEST PUSH1 0x0 PUSH8 0xFFFFFFFFFFFFFFFF DUP3 GT ISZERO PUSH2 0x1937 JUMPI PUSH2 0x1936 PUSH2 0x1675 JUMP JUMPDEST JUMPDEST PUSH2 0x1940 DUP3 PUSH2 0x1664 JUMP JUMPDEST SWAP1 POP PUSH1 0x20 DUP2 ADD SWAP1 POP SWAP2 SWAP1 POP JUMP JUMPDEST DUP3 DUP2 DUP4 CALLDATACOPY PUSH1 0x0 DUP4 DUP4 ADD MSTORE POP POP POP JUMP JUMPDEST PUSH1 0x0 PUSH2 0x196F PUSH2 0x196A DUP5 PUSH2 0x191C JUMP JUMPDEST PUSH2 0x16D5 JUMP JUMPDEST SWAP1 POP DUP3 DUP2 MSTORE PUSH1 0x20 DUP2 ADD DUP5 DUP5 DUP5 ADD GT ISZERO PUSH2 0x198B JUMPI PUSH2 0x198A PUSH2 0x1917 JUMP JUMPDEST JUMPDEST PUSH2 0x1996 DUP5 DUP3 DUP6 PUSH2 0x194D JUMP JUMPDEST POP SWAP4 SWAP3 POP POP POP JUMP JUMPDEST PUSH1 0x0 DUP3 PUSH1 0x1F DUP4 ADD SLT PUSH2 0x19B3 JUMPI PUSH2 0x19B2 PUSH2 0x165F JUMP JUMPDEST JUMPDEST DUP2 CALLDATALOAD PUSH2 0x19C3 DUP5 DUP3 PUSH1 0x20 DUP7 ADD PUSH2 0x195C JUMP JUMPDEST SWAP2 POP POP SWAP3 SWAP2 POP POP JUMP JUMPDEST PUSH1 0x0 PUSH1 0x20 DUP3 DUP5 SUB SLT ISZERO PUSH2 0x19E2 JUMPI PUSH2 0x19E1 PUSH2 0x1655 JUMP JUMPDEST JUMPDEST PUSH1 0x0 DUP3 ADD CALLDATALOAD PUSH8 0xFFFFFFFFFFFFFFFF DUP2 GT ISZERO PUSH2 0x1A00 JUMPI PUSH2 0x19FF PUSH2 0x165A JUMP JUMPDEST JUMPDEST PUSH2 0x1A0C DUP5 DUP3 DUP6 ADD PUSH2 0x199E JUMP JUMPDEST SWAP2 POP POP SWAP3 SWAP2 POP POP JUMP JUMPDEST PUSH1 0x0 DUP2 MLOAD SWAP1 POP SWAP2 SWAP1 POP JUMP JUMPDEST PUSH1 0x0 DUP3 DUP3 MSTORE PUSH1 0x20 DUP3 ADD SWAP1 POP SWAP3 SWAP2 POP POP JUMP JUMPDEST PUSH1 0x0 DUP2 SWAP1 POP PUSH1 0x20 DUP3 ADD SWAP1 POP SWAP2 SWAP1 POP JUMP JUMPDEST PUSH1 0x0 DUP2 MLOAD SWAP1 POP SWAP2 SWAP1 POP JUMP JUMPDEST PUSH1 0x0 DUP3 DUP3 MSTORE PUSH1 0x20 DUP3 ADD SWAP1 POP SWAP3 SWAP2 POP POP JUMP JUMPDEST PUSH1 0x0 JUMPDEST DUP4 DUP2 LT ISZERO PUSH2 0x1A7B JUMPI DUP1 DUP3 ADD MLOAD DUP2 DUP5 ADD MSTORE PUSH1 0x20 DUP2 ADD SWAP1 POP PUSH2 0x1A60 JUMP JUMPDEST PUSH1 0x0 DUP5 DUP5 ADD MSTORE POP POP POP POP JUMP JUMPDEST PUSH1 0x0 PUSH2 0x1A92 DUP3 PUSH2 0x1A41 JUMP JUMPDEST PUSH2 0x1A9C DUP2 DUP6 PUSH2 0x1A4C JUMP JUMPDEST SWAP4 POP PUSH2 0x1AAC DUP2 DUP6 PUSH1 0x20 DUP7 ADD PUSH2 0x1A5D JUMP JUMPDEST PUSH2 0x1AB5 DUP2 PUSH2 0x1664 JUMP JUMPDEST DUP5 ADD SWAP2 POP POP SWAP3 SWAP2 POP POP JUMP JUMPDEST PUSH1 0x0 PUSH2 0x1ACC DUP4 DUP4 PUSH2 0x1A87 JUMP JUMPDEST SWAP1 POP SWAP3 SWAP2 POP POP JUMP JUMPDEST PUSH1 0x0 PUSH1 0x20 DUP3 ADD SWAP1 POP SWAP2 SWAP1 POP JUMP JUMPDEST PUSH1 0x0 PUSH2 0x1AEC DUP3 PUSH2 0x1A15 JUMP JUMPDEST PUSH2 0x1AF6 DUP2 DUP6 PUSH2 0x1A20 JUMP JUMPDEST SWAP4 POP DUP4 PUSH1 0x20 DUP3 MUL DUP6 ADD PUSH2 0x1B08 DUP6 PUSH2 0x1A31 JUMP JUMPDEST DUP1 PUSH1 0x0 JUMPDEST DUP6 DUP2 LT ISZERO PUSH2 0x1B44 JUMPI DUP5 DUP5 SUB DUP10 MSTORE DUP2 MLOAD PUSH2 0x1B25 DUP6 DUP3 PUSH2 0x1AC0 JUMP JUMPDEST SWAP5 POP PUSH2 0x1B30 DUP4 PUSH2 0x1AD4 JUMP JUMPDEST SWAP3 POP PUSH1 0x20 DUP11 ADD SWAP10 POP POP PUSH1 0x1 DUP2 ADD SWAP1 POP PUSH2 0x1B0C JUMP JUMPDEST POP DUP3 SWAP8 POP DUP8 SWAP6 POP POP POP POP POP POP SWAP3 SWAP2 POP POP JUMP JUMPDEST PUSH1 0x0 PUSH1 0x20 DUP3 ADD SWAP1 POP DUP2 DUP2 SUB PUSH1 0x0 DUP4 ADD MSTORE PUSH2 0x1B70 DUP2 DUP5 PUSH2 0x1AE1 JUMP JUMPDEST SWAP1 POP SWAP3 SWAP2 POP POP JUMP JUMPDEST PUSH1 0x0 DUP1 REVERT JUMPDEST PUSH1 0x0 DUP1 DUP4 PUSH1 0x1F DUP5 ADD SLT PUSH2 0x1B93 JUMPI PUSH2 0x1B92 PUSH2 0x165F JUMP JUMPDEST JUMPDEST DUP3 CALLDATALOAD SWAP1 POP PUSH8 0xFFFFFFFFFFFFFFFF DUP2 GT ISZERO PUSH2 0x1BB0 JUMPI PUSH2 0x1BAF PUSH2 0x1B78 JUMP JUMPDEST JUMPDEST PUSH1 0x20 DUP4 ADD SWAP2 POP DUP4 PUSH1 0x1 DUP3 MUL DUP4 ADD GT ISZERO PUSH2 0x1BCC JUMPI PUSH2 0x1BCB PUSH2 0x171C JUMP JUMPDEST JUMPDEST SWAP3 POP SWAP3 SWAP1 POP JUMP JUMPDEST PUSH1 0x0 DUP1 PUSH1 0x0 DUP1 PUSH1 0x40 DUP6 DUP8 SUB SLT ISZERO PUSH2 0x1BED JUMPI PUSH2 0x1BEC PUSH2 0x1655 JUMP JUMPDEST JUMPDEST PUSH1 0x0 DUP6 ADD CALLDATALOAD PUSH8 0xFFFFFFFFFFFFFFFF DUP2 GT ISZERO PUSH2 0x1C0B JUMPI PUSH2 0x1C0A PUSH2 0x165A JUMP JUMPDEST JUMPDEST PUSH2 0x1C17 DUP8 DUP3 DUP9 ADD PUSH2 0x1B7D JUMP JUMPDEST SWAP5 POP SWAP5 POP POP PUSH1 0x20 DUP6 ADD CALLDATALOAD PUSH8 0xFFFFFFFFFFFFFFFF DUP2 GT ISZERO PUSH2 0x1C3A JUMPI PUSH2 0x1C39 PUSH2 0x165A JUMP JUMPDEST JUMPDEST PUSH2 0x1C46 DUP8 DUP3 DUP9 ADD PUSH2 0x1B7D JUMP JUMPDEST SWAP3 POP SWAP3 POP POP SWAP3 SWAP6 SWAP2 SWAP5 POP SWAP3 POP JUMP JUMPDEST PUSH1 0x0 DUP3 DUP3 MSTORE PUSH1 0x20 DUP3 ADD SWAP1 POP SWAP3 SWAP2 POP POP JUMP JUMPDEST PUSH1 0x0 PUSH2 0x1C70 DUP3 PUSH2 0x1A41 JUMP JUMPDEST PUSH2 0x1C7A DUP2 DUP6 PUSH2 0x1C54 JUMP JUMPDEST SWAP4 POP PUSH2 0x1C8A DUP2 DUP6 PUSH1 0x20 DUP7 ADD PUSH2 0x1A5D JUMP JUMPDEST PUSH2 0x1C93 DUP2 PUSH2 0x1664 JUMP JUMPDEST DUP5 ADD SWAP2 POP POP SWAP3 SWAP2 POP POP JUMP JUMPDEST PUSH1 0x0 PUSH1 0x20 DUP3 ADD SWAP1 POP DUP2 DUP2 SUB PUSH1 0x0 DUP4 ADD MSTORE PUSH2 0x1CB8 DUP2 DUP5 PUSH2 0x1C65 JUMP JUMPDEST SWAP1 POP SWAP3 SWAP2 POP POP JUMP JUMPDEST PUSH1 0x0 DUP2 SWAP1 POP SWAP2 SWAP1 POP JUMP JUMPDEST PUSH2 0x1CD3 DUP2 PUSH2 0x1CC0 JUMP JUMPDEST DUP3 MSTORE POP POP JUMP JUMPDEST PUSH1 0x0 PUSH1 0x60 DUP4 ADD PUSH1 0x0 DUP4 ADD MLOAD DUP5 DUP3 SUB PUSH1 0x0 DUP7 ADD MSTORE PUSH2 0x1CF6 DUP3 DUP3 PUSH2 0x1A87 JUMP JUMPDEST SWAP2 POP POP PUSH1 0x20 DUP4 ADD MLOAD PUSH2 0x1D0B PUSH1 0x20 DUP7 ADD DUP3 PUSH2 0x1CCA JUMP JUMPDEST POP PUSH1 0x40 DUP4 ADD MLOAD PUSH2 0x1D1E PUSH1 0x40 DUP7 ADD DUP3 PUSH2 0x1CCA JUMP JUMPDEST POP DUP1 SWAP2 POP POP SWAP3 SWAP2 POP POP JUMP JUMPDEST PUSH1 0x0 PUSH1 0x20 DUP3 ADD SWAP1 POP DUP2 DUP2 SUB PUSH1 0x0 DUP4 ADD MSTORE PUSH2 0x1D43 DUP2 DUP5 PUSH2 0x1CD9 JUMP JUMPDEST SWAP1 POP SWAP3 SWAP2 POP POP JUMP JUMPDEST PUSH1 0x0 DUP2 ISZERO ISZERO SWAP1 POP SWAP2 SWAP1 POP JUMP JUMPDEST PUSH2 0x1D60 DUP2 PUSH2 0x1D4B JUMP JUMPDEST DUP3 MSTORE POP POP JUMP JUMPDEST PUSH1 0x0 PUSH1 0x20 DUP3 ADD SWAP1 POP PUSH2 0x1D7B PUSH1 0x0 DUP4 ADD DUP5 PUSH2 0x1D57 JUMP JUMPDEST SWAP3 SWAP2 POP POP JUMP JUMPDEST PUSH2 0x1D8A DUP2 PUSH2 0x1CC0 JUMP JUMPDEST DUP2 EQ PUSH2 0x1D95 JUMPI PUSH1 0x0 DUP1 REVERT JUMPDEST POP JUMP JUMPDEST PUSH1 0x0 DUP2 CALLDATALOAD SWAP1 POP PUSH2 0x1DA7 DUP2 PUSH2 0x1D81 JUMP JUMPDEST SWAP3 SWAP2 POP POP JUMP JUMPDEST PUSH1 0x0 DUP1 PUSH1 0x40 DUP4 DUP6 SUB SLT ISZERO PUSH2 0x1DC4 JUMPI PUSH2 0x1DC3 PUSH2 0x1655 JUMP JUMPDEST JUMPDEST PUSH1 0x0 PUSH2 0x1DD2 DUP6 DUP3 DUP7 ADD PUSH2 0x1742 JUMP JUMPDEST SWAP3 POP POP PUSH1 0x20 PUSH2 0x1DE3 DUP6 DUP3 DUP7 ADD PUSH2 0x1D98 JUMP JUMPDEST SWAP2 POP POP SWAP3 POP SWAP3 SWAP1 POP JUMP JUMPDEST PUSH1 0x0 DUP2 SWAP1 POP DUP3 PUSH1 0x20 PUSH1 0x4 MUL DUP3 ADD GT ISZERO PUSH2 0x1E09 JUMPI PUSH2 0x1E08 PUSH2 0x171C JUMP JUMPDEST JUMPDEST SWAP3 SWAP2 POP POP JUMP JUMPDEST PUSH1 0x0 PUSH1 0x80 DUP3 DUP5 SUB SLT ISZERO PUSH2 0x1E25 JUMPI PUSH2 0x1E24 PUSH2 0x1655 JUMP JUMPDEST JUMPDEST PUSH1 0x0 PUSH2 0x1E33 DUP5 DUP3 DUP6 ADD PUSH2 0x1DED JUMP JUMPDEST SWAP2 POP POP SWAP3 SWAP2 POP POP JUMP JUMPDEST PUSH2 0x1E45 DUP2 PUSH2 0x1721 JUMP JUMPDEST DUP3 MSTORE POP POP JUMP JUMPDEST PUSH1 0x0 PUSH1 0x20 DUP3 ADD SWAP1 POP PUSH2 0x1E60 PUSH1 0x0 DUP4 ADD DUP5 PUSH2 0x1E3C JUMP JUMPDEST SWAP3 SWAP2 POP POP JUMP JUMPDEST PUSH1 0x0 DUP1 PUSH1 0x0 DUP1 PUSH1 0x60 DUP6 DUP8 SUB SLT ISZERO PUSH2 0x1E80 JUMPI PUSH2 0x1E7F PUSH2 0x1655 JUMP JUMPDEST JUMPDEST PUSH1 0x0 DUP6 ADD CALLDATALOAD PUSH8 0xFFFFFFFFFFFFFFFF DUP2 GT ISZERO PUSH2 0x1E9E JUMPI PUSH2 0x1E9D PUSH2 0x165A JUMP JUMPDEST JUMPDEST PUSH2 0x1EAA DUP8 DUP3 DUP9 ADD PUSH2 0x1B7D JUMP JUMPDEST SWAP5 POP SWAP5 POP POP PUSH1 0x20 PUSH2 0x1EBD DUP8 DUP3 DUP9 ADD PUSH2 0x1D98 JUMP JUMPDEST SWAP3 POP POP PUSH1 0x40 PUSH2 0x1ECE DUP8 DUP3 DUP9 ADD PUSH2 0x1D98 JUMP JUMPDEST SWAP2 POP POP SWAP3 SWAP6 SWAP2 SWAP5 POP SWAP3 POP JUMP JUMPDEST PUSH1 0x0 DUP1 PUSH1 0x0 PUSH1 0x40 DUP5 DUP7 SUB SLT ISZERO PUSH2 0x1EF3 JUMPI PUSH2 0x1EF2 PUSH2 0x1655 JUMP JUMPDEST JUMPDEST PUSH1 0x0 DUP5 ADD CALLDATALOAD PUSH8 0xFFFFFFFFFFFFFFFF DUP2 GT ISZERO PUSH2 0x1F11 JUMPI PUSH2 0x1F10 PUSH2 0x165A JUMP JUMPDEST JUMPDEST PUSH2 0x1F1D DUP7 DUP3 DUP8 ADD PUSH2 0x1B7D JUMP JUMPDEST SWAP4 POP SWAP4 POP POP PUSH1 0x20 PUSH2 0x1F30 DUP7 DUP3 DUP8 ADD PUSH2 0x1D98 JUMP JUMPDEST SWAP2 POP POP SWAP3 POP SWAP3 POP SWAP3 JUMP JUMPDEST PUSH1 0x0 PUSH1 0xA SWAP1 POP SWAP2 SWAP1 POP JUMP JUMPDEST PUSH1 0x0 DUP2 SWAP1 POP SWAP3 SWAP2 POP POP JUMP JUMPDEST PUSH1 0x0 DUP2 SWAP1 POP SWAP2 SWAP1 POP JUMP JUMPDEST PUSH1 0x0 PUSH1 0x60 DUP4 ADD PUSH1 0x0 DUP4 ADD MLOAD DUP5 DUP3 SUB PUSH1 0x0 DUP7 ADD MSTORE PUSH2 0x1F77 DUP3 DUP3 PUSH2 0x1A87 JUMP JUMPDEST SWAP2 POP POP PUSH1 0x20 DUP4 ADD MLOAD PUSH2 0x1F8C PUSH1 0x20 DUP7 ADD DUP3 PUSH2 0x1CCA JUMP JUMPDEST POP PUSH1 0x40 DUP4 ADD MLOAD PUSH2 0x1F9F PUSH1 0x40 DUP7 ADD DUP3 PUSH2 0x1CCA JUMP JUMPDEST POP DUP1 SWAP2 POP POP SWAP3 SWAP2 POP POP JUMP JUMPDEST PUSH1 0x0 PUSH2 0x1FB6 DUP4 DUP4 PUSH2 0x1F5A JUMP JUMPDEST SWAP1 POP SWAP3 SWAP2 POP POP JUMP JUMPDEST PUSH1 0x0 PUSH1 0x20 DUP3 ADD SWAP1 POP SWAP2 SWAP1 POP JUMP JUMPDEST PUSH1 0x0 PUSH2 0x1FD6 DUP3 PUSH2 0x1F3A JUMP JUMPDEST PUSH2 0x1FE0 DUP2 DUP6 PUSH2 0x1F45 JUMP JUMPDEST SWAP4 POP DUP4 PUSH1 0x20 DUP3 MUL DUP6 ADD PUSH2 0x1FF2 DUP6 PUSH2 0x1F50 JUMP JUMPDEST DUP1 PUSH1 0x0 JUMPDEST DUP6 DUP2 LT ISZERO PUSH2 0x202E JUMPI DUP5 DUP5 SUB DUP10 MSTORE DUP2 MLOAD PUSH2 0x200F DUP6 DUP3 PUSH2 0x1FAA JUMP JUMPDEST SWAP5 POP PUSH2 0x201A DUP4 PUSH2 0x1FBE JUMP JUMPDEST SWAP3 POP PUSH1 0x20 DUP11 ADD SWAP10 POP POP PUSH1 0x1 DUP2 ADD SWAP1 POP PUSH2 0x1FF6 JUMP JUMPDEST POP DUP3 SWAP8 POP DUP8 SWAP6 POP POP POP POP POP POP SWAP3 SWAP2 POP POP JUMP JUMPDEST PUSH1 0x0 PUSH1 0x20 DUP3 ADD SWAP1 POP DUP2 DUP2 SUB PUSH1 0x0 DUP4 ADD MSTORE PUSH2 0x205A DUP2 DUP5 PUSH2 0x1FCB JUMP JUMPDEST SWAP1 POP SWAP3 SWAP2 POP POP JUMP JUMPDEST PUSH1 0x0 PUSH8 0xFFFFFFFFFFFFFFFF DUP3 GT ISZERO PUSH2 0x207D JUMPI PUSH2 0x207C PUSH2 0x1675 JUMP JUMPDEST JUMPDEST PUSH1 0x20 DUP3 MUL SWAP1 POP SWAP2 SWAP1 POP JUMP JUMPDEST PUSH1 0x0 PUSH2 0x209B PUSH2 0x2096 DUP5 PUSH2 0x2062 JUMP JUMPDEST PUSH2 0x16D5 JUMP JUMPDEST SWAP1 POP DUP1 PUSH1 0x20 DUP5 MUL DUP4 ADD DUP6 DUP2 GT ISZERO PUSH2 0x20B5 JUMPI PUSH2 0x20B4 PUSH2 0x171C JUMP JUMPDEST JUMPDEST DUP4 JUMPDEST DUP2 DUP2 LT ISZERO PUSH2 0x20DE JUMPI DUP1 PUSH2 0x20CA DUP9 DUP3 PUSH2 0x1742 JUMP JUMPDEST DUP5 MSTORE PUSH1 0x20 DUP5 ADD SWAP4 POP POP PUSH1 0x20 DUP2 ADD SWAP1 POP PUSH2 0x20B7 JUMP JUMPDEST POP POP POP SWAP4 SWAP3 POP POP POP JUMP JUMPDEST PUSH1 0x0 DUP3 PUSH1 0x1F DUP4 ADD SLT PUSH2 0x20FD JUMPI PUSH2 0x20FC PUSH2 0x165F JUMP JUMPDEST JUMPDEST PUSH1 0x5 PUSH2 0x210A DUP5 DUP3 DUP6 PUSH2 0x2088 JUMP JUMPDEST SWAP2 POP POP SWAP3 SWAP2 POP POP JUMP JUMPDEST PUSH1 0x0 PUSH1 0xA0 DUP3 DUP5 SUB SLT ISZERO PUSH2 0x2129 JUMPI PUSH2 0x2128 PUSH2 0x1655 JUMP JUMPDEST JUMPDEST PUSH1 0x0 PUSH2 0x2137 DUP5 DUP3 DUP6 ADD PUSH2 0x20E8 JUMP JUMPDEST SWAP2 POP POP SWAP3 SWAP2 POP POP JUMP JUMPDEST PUSH1 0x0 PUSH1 0x5 SWAP1 POP SWAP2 SWAP1 POP JUMP JUMPDEST PUSH1 0x0 DUP2 SWAP1 POP SWAP3 SWAP2 POP POP JUMP JUMPDEST PUSH1 0x0 DUP2 SWAP1 POP SWAP2 SWAP1 POP JUMP JUMPDEST PUSH1 0x0 PUSH1 0x20 DUP3 ADD SWAP1 POP SWAP2 SWAP1 POP JUMP JUMPDEST PUSH2 0x2176 DUP2 PUSH2 0x2140 JUMP JUMPDEST PUSH2 0x2180 DUP2 DUP5 PUSH2 0x214B JUMP JUMPDEST SWAP3 POP PUSH2 0x218B DUP3 PUSH2 0x2156 JUMP JUMPDEST DUP1 PUSH1 0x0 JUMPDEST DUP4 DUP2 LT ISZERO PUSH2 0x21BC JUMPI DUP2 MLOAD PUSH2 0x21A3 DUP8 DUP3 PUSH2 0x1872 JUMP JUMPDEST SWAP7 POP PUSH2 0x21AE DUP4 PUSH2 0x2160 JUMP JUMPDEST SWAP3 POP POP PUSH1 0x1 DUP2 ADD SWAP1 POP PUSH2 0x218F JUMP JUMPDEST POP POP POP POP POP POP JUMP JUMPDEST PUSH1 0x0 PUSH1 0xA0 DUP3 ADD SWAP1 POP PUSH2 0x21D9 PUSH1 0x0 DUP4 ADD DUP5 PUSH2 0x216D JUMP JUMPDEST SWAP3 SWAP2 POP POP JUMP JUMPDEST PUSH1 0x0 PUSH1 0x3 SWAP1 POP SWAP2 SWAP1 POP JUMP JUMPDEST PUSH1 0x0 DUP2 SWAP1 POP SWAP3 SWAP2 POP POP JUMP JUMPDEST PUSH1 0x0 DUP2 SWAP1 POP SWAP2 SWAP1 POP JUMP JUMPDEST PUSH1 0x0 PUSH2 0x220B DUP4 DUP4 PUSH2 0x1CCA JUMP JUMPDEST PUSH1 0x20 DUP4 ADD SWAP1 POP SWAP3 SWAP2 POP POP JUMP JUMPDEST PUSH1 0x0 PUSH1 0x20 DUP3 ADD SWAP1 POP SWAP2 SWAP1 POP JUMP JUMPDEST PUSH2 0x222D DUP2 PUSH2 0x21DF JUMP JUMPDEST PUSH2 0x2237 DUP2 DUP5 PUSH2 0x21EA JUMP JUMPDEST SWAP3 POP PUSH2 0x2242 DUP3 PUSH2 0x21F5 JUMP JUMPDEST DUP1 PUSH1 0x0 JUMPDEST DUP4 DUP2 LT ISZERO PUSH2 0x2273 JUMPI DUP2 MLOAD PUSH2 0x225A DUP8 DUP3 PUSH2 0x21FF JUMP JUMPDEST SWAP7 POP PUSH2 0x2265 DUP4 PUSH2 0x2217 JUMP JUMPDEST SWAP3 POP POP PUSH1 0x1 DUP2 ADD SWAP1 POP PUSH2 0x2246 JUMP JUMPDEST POP POP POP POP POP POP JUMP JUMPDEST PUSH1 0x0 PUSH1 0x60 DUP3 ADD SWAP1 POP PUSH2 0x2290 PUSH1 0x0 DUP4 ADD DUP5 PUSH2 0x2224 JUMP JUMPDEST SWAP3 SWAP2 POP POP JUMP JUMPDEST PUSH1 0x0 PUSH1 0x20 DUP3 DUP5 SUB SLT ISZERO PUSH2 0x22AC JUMPI PUSH2 0x22AB PUSH2 0x1655 JUMP JUMPDEST JUMPDEST PUSH1 0x0 PUSH2 0x22BA DUP5 DUP3 DUP6 ADD PUSH2 0x1D98 JUMP JUMPDEST SWAP2 POP POP SWAP3 SWAP2 POP POP JUMP JUMPDEST PUSH2 0x22CC DUP2 PUSH2 0x1CC0 JUMP JUMPDEST DUP3 MSTORE POP POP JUMP JUMPDEST PUSH1 0x0 PUSH1 0x60 DUP3 ADD SWAP1 POP DUP2 DUP2 SUB PUSH1 0x0 DUP4 ADD MSTORE PUSH2 0x22EC DUP2 DUP7 PUSH2 0x1C65 JUMP JUMPDEST SWAP1 POP PUSH2 0x22FB PUSH1 0x20 DUP4 ADD DUP6 PUSH2 0x22C3 JUMP JUMPDEST PUSH2 0x2308 PUSH1 0x40 DUP4 ADD DUP5 PUSH2 0x22C3 JUMP JUMPDEST SWAP5 SWAP4 POP POP POP POP JUMP JUMPDEST PUSH32 0x4E487B7100000000000000000000000000000000000000000000000000000000 PUSH1 0x0 MSTORE PUSH1 0x11 PUSH1 0x4 MSTORE PUSH1 0x24 PUSH1 0x0 REVERT JUMPDEST PUSH1 0x0 PUSH2 0x234A DUP3 PUSH2 0x1CC0 JUMP JUMPDEST SWAP2 POP PUSH2 0x2355 DUP4 PUSH2 0x1CC0 JUMP JUMPDEST SWAP3 POP DUP3 DUP3 SUB SWAP1 POP DUP2 DUP2 GT ISZERO PUSH2 0x236D JUMPI PUSH2 0x236C PUSH2 0x2310 JUMP JUMPDEST JUMPDEST SWAP3 SWAP2 POP POP JUMP JUMPDEST PUSH32 0x4E487B7100000000000000000000000000000000000000000000000000000000 PUSH1 0x0 MSTORE PUSH1 0x32 PUSH1 0x4 MSTORE PUSH1 0x24 PUSH1 0x0 REVERT JUMPDEST PUSH1 0x0 PUSH2 0x23AD DUP3 PUSH2 0x1CC0 JUMP JUMPDEST SWAP2 POP PUSH32 0xFFFFFFFFFFFFFFFFFFFFFFFFFFFFFFFFFFFFFFFFFFFFFFFFFFFFFFFFFFFFFFFF DUP3 SUB PUSH2 0x23DF JUMPI PUSH2 0x23DE PUSH2 0x2310 JUMP JUMPDEST JUMPDEST PUSH1 0x1 DUP3 ADD SWAP1 POP SWAP2 SWAP1 POP JUMP JUMPDEST PUSH32 0x4E487B7100000000000000000000000000000000000000000000000000000000 PUSH1 0x0 MSTORE PUSH1 0x22 PUSH1 0x4 MSTORE PUSH1 0x24 PUSH1 0x0 REVERT JUMPDEST PUSH1 0x0 PUSH1 0x2 DUP3 DIV SWAP1 POP PUSH1 0x1 DUP3 AND DUP1 PUSH2 0x2431 JUMPI PUSH1 0x7F DUP3 AND SWAP2 POP JUMPDEST PUSH1 0x20 DUP3 LT DUP2 SUB PUSH2 0x2444 JUMPI PUSH2 0x2443 PUSH2 0x23EA JUMP JUMPDEST JUMPDEST POP SWAP2 SWAP1 POP JUMP JUMPDEST PUSH1 0x0 DUP2 SWAP1 POP DUP2 PUSH1 0x0 MSTORE PUSH1 0x20 PUSH1 0x0 KECCAK256 SWAP1 POP SWAP2 SWAP1 POP JUMP JUMPDEST PUSH1 0x0 PUSH1 0x20 PUSH1 0x1F DUP4 ADD DIV SWAP1 POP SWAP2 SWAP1 POP JUMP JUMPDEST PUSH1 0x0 DUP3 DUP3 SHL SWAP1 POP SWAP3 SWAP2 POP POP JUMP JUMPDEST PUSH1 0x0 PUSH1 0x8 DUP4 MUL PUSH2 0x24AC PUSH32 0xFFFFFFFFFFFFFFFFFFFFFFFFFFFFFFFFFFFFFFFFFFFFFFFFFFFFFFFFFFFFFFFF DUP3 PUSH2 0x246F JUMP JUMPDEST PUSH2 0x24B6 DUP7 DUP4 PUSH2 0x246F JUMP JUMPDEST SWAP6 POP DUP1 NOT DUP5 AND SWAP4 POP DUP1 DUP7 AND DUP5 OR SWAP3 POP POP POP SWAP4 SWAP3 POP POP POP JUMP JUMPDEST PUSH1 0x0 DUP2 SWAP1 POP SWAP2 SWAP1 POP JUMP JUMPDEST PUSH1 0x0 PUSH2 0x24F3 PUSH2 0x24EE PUSH2 0x24E9 DUP5 PUSH2 0x1CC0 JUMP JUMPDEST PUSH2 0x24CE JUMP JUMPDEST PUSH2 0x1CC0 JUMP JUMPDEST SWAP1 POP SWAP2 SWAP1 POP JUMP JUMPDEST PUSH1 0x0 DUP2 SWAP1 POP SWAP2 SWAP1 POP JUMP JUMPDEST PUSH2 0x250D DUP4 PUSH2 0x24D8 JUMP JUMPDEST PUSH2 0x2521 PUSH2 0x2519 DUP3 PUSH2 0x24FA JUMP JUMPDEST DUP5 DUP5 SLOAD PUSH2 0x247C JUMP JUMPDEST DUP3 SSTORE POP POP POP POP JUMP JUMPDEST PUSH1 0x0 SWAP1 JUMP JUMPDEST PUSH2 0x2536 PUSH2 0x2529 JUMP JUMPDEST PUSH2 0x2541 DUP2 DUP5 DUP5 PUSH2 0x2504 JUMP JUMPDEST POP POP POP JUMP JUMPDEST JUMPDEST DUP2 DUP2 LT ISZERO PUSH2 0x2565 JUMPI PUSH2 0x255A PUSH1 0x0 DUP3 PUSH2 0x252E JUMP JUMPDEST PUSH1 0x1 DUP2 ADD SWAP1 POP PUSH2 0x2547 JUMP JUMPDEST POP POP JUMP JUMPDEST PUSH1 0x1F DUP3 GT ISZERO PUSH2 0x25AA JUMPI PUSH2 0x257B DUP2 PUSH2 0x244A JUMP JUMPDEST PUSH2 0x2584 DUP5 PUSH2 0x245F JUMP JUMPDEST DUP2 ADD PUSH1 0x20 DUP6 LT ISZERO PUSH2 0x2593 JUMPI DUP2 SWAP1 POP JUMPDEST PUSH2 0x25A7 PUSH2 0x259F DUP6 PUSH2 0x245F JUMP JUMPDEST DUP4 ADD DUP3 PUSH2 0x2546 JUMP JUMPDEST POP POP JUMPDEST POP POP POP JUMP JUMPDEST PUSH1 0x0 DUP3 DUP3 SHR SWAP1 POP SWAP3 SWAP2 POP POP JUMP JUMPDEST PUSH1 0x0 PUSH2 0x25CD PUSH1 0x0 NOT DUP5 PUSH1 0x8 MUL PUSH2 0x25AF JUMP JUMPDEST NOT DUP1 DUP4 AND SWAP2 POP POP SWAP3 SWAP2 POP POP JUMP JUMPDEST PUSH1 0x0 PUSH2 0x25E6 DUP4 DUP4 PUSH2 0x25BC JUMP JUMPDEST SWAP2 POP DUP3 PUSH1 0x2 MUL DUP3 OR SWAP1 POP SWAP3 SWAP2 POP POP JUMP JUMPDEST PUSH2 0x25FF DUP3 PUSH2 0x1A41 JUMP JUMPDEST PUSH8 0xFFFFFFFFFFFFFFFF DUP2 GT ISZERO PUSH2 0x2618 JUMPI PUSH2 0x2617 PUSH2 0x1675 JUMP JUMPDEST JUMPDEST PUSH2 0x2622 DUP3 SLOAD PUSH2 0x2419 JUMP JUMPDEST PUSH2 0x262D DUP3 DUP3 DUP6 PUSH2 0x2569 JUMP JUMPDEST PUSH1 0x0 PUSH1 0x20 SWAP1 POP PUSH1 0x1F DUP4 GT PUSH1 0x1 DUP2 EQ PUSH2 0x2660 JUMPI PUSH1 0x0 DUP5 ISZERO PUSH2 0x264E JUMPI DUP3 DUP8 ADD MLOAD SWAP1 POP JUMPDEST PUSH2 0x2658 DUP6 DUP3 PUSH2 0x25DA JUMP JUMPDEST DUP7 SSTORE POP PUSH2 0x26C0 JUMP JUMPDEST PUSH1 0x1F NOT DUP5 AND PUSH2 0x266E DUP7 PUSH2 0x244A JUMP JUMPDEST PUSH1 0x0 JUMPDEST DUP3 DUP2 LT ISZERO PUSH2 0x2696 JUMPI DUP5 DUP10 ADD MLOAD DUP3 SSTORE PUSH1 0x1 DUP3 ADD SWAP2 POP PUSH1 0x20 DUP6 ADD SWAP5 POP PUSH1 0x20 DUP2 ADD SWAP1 POP PUSH2 0x2671 JUMP JUMPDEST DUP7 DUP4 LT ISZERO PUSH2 0x26B3 JUMPI DUP5 DUP10 ADD MLOAD PUSH2 0x26AF PUSH1 0x1F DUP10 AND DUP3 PUSH2 0x25BC JUMP JUMPDEST DUP4 SSTORE POP JUMPDEST PUSH1 0x1 PUSH1 0x2 DUP9 MUL ADD DUP9 SSTORE POP POP POP JUMPDEST POP POP POP POP POP POP JUMP JUMPDEST PUSH1 0x0 DUP2 SWAP1 POP SWAP3 SWAP2 POP POP JUMP JUMPDEST PUSH1 0x0 PUSH2 0x26DF DUP4 DUP6 PUSH2 0x26C8 JUMP JUMPDEST SWAP4 POP PUSH2 0x26EC DUP4 DUP6 DUP5 PUSH2 0x194D JUMP JUMPDEST DUP3 DUP5 ADD SWAP1 POP SWAP4 SWAP3 POP POP POP JUMP JUMPDEST PUSH1 0x0 PUSH2 0x2705 DUP3 DUP7 DUP9 PUSH2 0x26D3 JUMP JUMPDEST SWAP2 POP PUSH2 0x2712 DUP3 DUP5 DUP7 PUSH2 0x26D3 JUMP JUMPDEST SWAP2 POP DUP2 SWAP1 POP SWAP6 SWAP5 POP POP POP POP POP JUMP JUMPDEST PUSH32 0x4E487B7100000000000000000000000000000000000000000000000000000000 PUSH1 0x0 MSTORE PUSH1 0x21 PUSH1 0x4 MSTORE PUSH1 0x24 PUSH1 0x0 REVERT JUMPDEST PUSH32 0x6D61746873000000000000000000000000000000000000000000000000000000 PUSH1 0x0 DUP3 ADD MSTORE POP JUMP JUMPDEST PUSH1 0x0 PUSH2 0x2785 PUSH1 0x5 DUP4 PUSH2 0x26C8 JUMP JUMPDEST SWAP2 POP PUSH2 0x2790 DUP3 PUSH2 0x274F JUMP JUMPDEST PUSH1 0x5 DUP3 ADD SWAP1 POP SWAP2 SWAP1 POP JUMP JUMPDEST PUSH1 0x0 PUSH2 0x27A6 DUP3 PUSH2 0x2778 JUMP JUMPDEST SWAP2 POP DUP2 SWAP1 POP SWAP2 SWAP1 POP JUMP JUMPDEST PUSH1 0x0 PUSH2 0x27BD DUP3 DUP5 DUP7 PUSH2 0x26D3 JUMP JUMPDEST SWAP2 POP DUP2 SWAP1 POP SWAP4 SWAP3 POP POP POP JUMP JUMPDEST PUSH32 0x656E676C69736800000000000000000000000000000000000000000000000000 PUSH1 0x0 DUP3 ADD MSTORE POP JUMP JUMPDEST PUSH1 0x0 PUSH2 0x27FF PUSH1 0x7 DUP4 PUSH2 0x26C8 JUMP JUMPDEST SWAP2 POP PUSH2 0x280A DUP3 PUSH2 0x27C9 JUMP JUMPDEST PUSH1 0x7 DUP3 ADD SWAP1 POP SWAP2 SWAP1 POP JUMP JUMPDEST PUSH1 0x0 PUSH2 0x2820 DUP3 PUSH2 0x27F2 JUMP JUMPDEST SWAP2 POP DUP2 SWAP1 POP SWAP2 SWAP1 POP JUMP JUMPDEST PUSH32 0x686973746F727900000000000000000000000000000000000000000000000000 PUSH1 0x0 DUP3 ADD MSTORE POP JUMP JUMPDEST PUSH1 0x0 PUSH2 0x2860 PUSH1 0x7 DUP4 PUSH2 0x26C8 JUMP JUMPDEST SWAP2 POP PUSH2 0x286B DUP3 PUSH2 0x282A JUMP JUMPDEST PUSH1 0x7 DUP3 ADD SWAP1 POP SWAP2 SWAP1 POP JUMP JUMPDEST PUSH1 0x0 PUSH2 0x2881 DUP3 PUSH2 0x2853 JUMP JUMPDEST SWAP2 POP DUP2 SWAP1 POP SWAP2 SWAP1 POP JUMP JUMPDEST PUSH1 0x0 PUSH2 0x2896 DUP3 PUSH2 0x1CC0 JUMP JUMPDEST SWAP2 POP PUSH2 0x28A1 DUP4 PUSH2 0x1CC0 JUMP JUMPDEST SWAP3 POP DUP3 DUP3 ADD SWAP1 POP DUP1 DUP3 GT ISZERO PUSH2 0x28B9 JUMPI PUSH2 0x28B8 PUSH2 0x2310 JUMP JUMPDEST JUMPDEST SWAP3 SWAP2 POP POP JUMP JUMPDEST PUSH32 0x4E487B7100000000000000000000000000000000000000000000000000000000 PUSH1 0x0 MSTORE PUSH1 0x31 PUSH1 0x4 MSTORE PUSH1 0x24 PUSH1 0x0 REVERT JUMPDEST PUSH1 0x0 PUSH2 0x28F9 DUP3 PUSH2 0x1721 JUMP JUMPDEST SWAP2 POP PUSH2 0x2904 DUP4 PUSH2 0x1721 JUMP JUMPDEST SWAP3 POP DUP3 DUP3 ADD SWAP1 POP DUP3 DUP2 SLT ISZERO PUSH1 0x0 DUP4 SLT AND DUP4 DUP3 SLT PUSH1 0x0 DUP5 SLT ISZERO AND OR ISZERO PUSH2 0x292C JUMPI PUSH2 0x292B PUSH2 0x2310 JUMP JUMPDEST JUMPDEST SWAP3 SWAP2 POP POP JUMP INVALID LOG2 PUSH5 0x6970667358 0x22 SLT KECCAK256 0x27 0xC1 0xEA 0xB1 JUMP 0xDC 0xBF 0xBA PUSH23 0xEBEB3D37ACC11580227B219A1ACAF4678AF618D7ED6737 PUSH5 0x736F6C6343 STOP ADDMOD GT STOP CALLER "
		},
		"gasEstimates": {
			"creation": {
				"codeDepositCost": "2120000",
				"executionCost": "2258",
				"totalCost": "2122258"
			},
			"external": {
				"GetHouseVal()": "infinite",
				"addName(string)": "infinite",
				"compareStr(string,string)": "infinite",
				"concatenate(string,string)": "infinite",
				"contains(uint256)": "infinite",
				"createOwnershipData()": "49148",
				"delName()": "infinite",
				"getMarks()": "infinite",
				"getName()": "infinite",
				"getTenStudentsRecord()": "infinite",
				"insertArr(int256,uint256)": "infinite",
				"largest(int256[4])": "infinite",
				"ownershipStatus()": "2791",
				"reverseArray(int256[])": "infinite",
				"setHouseVal()": "24542",
				"setTenStudentsRecord(string,uint256,uint256)": "infinite",
				"sortArray(int256[5])": "infinite",
				"stdGetter()": "infinite",
				"stdSetter(string,uint256,uint256)": "infinite",
				"studentStruct()": "infinite",
				"sumArr(int256[])": "infinite",
				"tenStudentsRecord(uint256)": "infinite",
				"transferOwnership()": "24635",
				"updateMarks(string,uint256)": "infinite"
			}
		},
		"methodIdentifiers": {
			"GetHouseVal()": "59e57373",
			"addName(string)": "11456b47",
			"compareStr(string,string)": "87c5d5cc",
			"concatenate(string,string)": "266001d3",
			"contains(uint256)": "c34052e0",
			"createOwnershipData()": "e9ab789e",
			"delName()": "b536c426",
			"getMarks()": "b780e507",
			"getName()": "17d7de7c",
			"getTenStudentsRecord()": "8d6b3b23",
			"insertArr(int256,uint256)": "378ee557",
			"largest(int256[4])": "5e34f951",
			"ownershipStatus()": "2bb5a9e6",
			"reverseArray(int256[])": "06694a0a",
			"setHouseVal()": "6e9d8b9c",
			"setTenStudentsRecord(string,uint256,uint256)": "df1420e3",
			"sortArray(int256[5])": "b02a0fda",
			"stdGetter()": "275a6de9",
			"stdSetter(string,uint256,uint256)": "68f40b04",
			"studentStruct()": "99998902",
			"sumArr(int256[])": "df3dafad",
			"tenStudentsRecord(uint256)": "eaf24c15",
			"transferOwnership()": "880ad0af",
			"updateMarks(string,uint256)": "797f6f7f"
		}
	},
	"abi": [
		{
			"inputs": [],
			"name": "GetHouseVal",
			"outputs": [
				{
					"internalType": "string",
					"name": "",
					"type": "string"
				}
			],
			"stateMutability": "view",
			"type": "function"
		},
		{
			"inputs": [
				{
					"internalType": "string",
					"name": "_name",
					"type": "string"
				}
			],
			"name": "addName",
			"outputs": [],
			"stateMutability": "nonpayable",
			"type": "function"
		},
		{
			"inputs": [
				{
					"internalType": "string",
					"name": "_str1",
					"type": "string"
				},
				{
					"internalType": "string",
					"name": "_str2",
					"type": "string"
				}
			],
			"name": "compareStr",
			"outputs": [
				{
					"internalType": "bool",
					"name": "",
					"type": "bool"
				}
			],
			"stateMutability": "pure",
			"type": "function"
		},
		{
			"inputs": [
				{
					"internalType": "string",
					"name": "_str1",
					"type": "string"
				},
				{
					"internalType": "string",
					"name": "_str2",
					"type": "string"
				}
			],
			"name": "concatenate",
			"outputs": [
				{
					"internalType": "string",
					"name": "",
					"type": "string"
				}
			],
			"stateMutability": "pure",
			"type": "function"
		},
		{
			"inputs": [
				{
					"internalType": "uint256",
					"name": "_num",
					"type": "uint256"
				}
			],
			"name": "contains",
			"outputs": [
				{
					"internalType": "bool",
					"name": "",
					"type": "bool"
				}
			],
			"stateMutability": "pure",
			"type": "function"
		},
		{
			"inputs": [],
			"name": "createOwnershipData",
			"outputs": [],
			"stateMutability": "nonpayable",
			"type": "function"
		},
		{
			"inputs": [],
			"name": "delName",
			"outputs": [],
			"stateMutability": "nonpayable",
			"type": "function"
		},
		{
			"inputs": [],
			"name": "getMarks",
			"outputs": [
				{
					"internalType": "uint256[3]",
					"name": "",
					"type": "uint256[3]"
				}
			],
			"stateMutability": "view",
			"type": "function"
		},
		{
			"inputs": [],
			"name": "getName",
			"outputs": [
				{
					"internalType": "string[]",
					"name": "",
					"type": "string[]"
				}
			],
			"stateMutability": "view",
			"type": "function"
		},
		{
			"inputs": [],
			"name": "getTenStudentsRecord",
			"outputs": [
				{
					"components": [
						{
							"internalType": "string",
							"name": "name",
							"type": "string"
						},
						{
							"internalType": "uint256",
							"name": "rollNumber",
							"type": "uint256"
						},
						{
							"internalType": "uint256",
							"name": "age",
							"type": "uint256"
						}
					],
					"internalType": "struct Asg2.student[10]",
					"name": "",
					"type": "tuple[10]"
				}
			],
			"stateMutability": "view",
			"type": "function"
		},
		{
			"inputs": [
				{
					"internalType": "int256",
					"name": "_num",
					"type": "int256"
				},
				{
					"internalType": "uint256",
					"name": "_index",
					"type": "uint256"
				}
			],
			"name": "insertArr",
			"outputs": [
				{
					"internalType": "int256[]",
					"name": "",
					"type": "int256[]"
				}
			],
			"stateMutability": "pure",
			"type": "function"
		},
		{
			"inputs": [
				{
					"internalType": "int256[4]",
					"name": "_arr",
					"type": "int256[4]"
				}
			],
			"name": "largest",
			"outputs": [
				{
					"internalType": "int256",
					"name": "",
					"type": "int256"
				}
			],
			"stateMutability": "pure",
			"type": "function"
		},
		{
			"inputs": [],
			"name": "ownershipStatus",
			"outputs": [
				{
					"internalType": "bool",
					"name": "",
					"type": "bool"
				}
			],
			"stateMutability": "view",
			"type": "function"
		},
		{
			"inputs": [
				{
					"internalType": "int256[]",
					"name": "_arr",
					"type": "int256[]"
				}
			],
			"name": "reverseArray",
			"outputs": [
				{
					"internalType": "int256[]",
					"name": "",
					"type": "int256[]"
				}
			],
			"stateMutability": "pure",
			"type": "function"
		},
		{
			"inputs": [],
			"name": "setHouseVal",
			"outputs": [],
			"stateMutability": "nonpayable",
			"type": "function"
		},
		{
			"inputs": [
				{
					"internalType": "string",
					"name": "_name",
					"type": "string"
				},
				{
					"internalType": "uint256",
					"name": "_roll",
					"type": "uint256"
				},
				{
					"internalType": "uint256",
					"name": "_age",
					"type": "uint256"
				}
			],
			"name": "setTenStudentsRecord",
			"outputs": [],
			"stateMutability": "nonpayable",
			"type": "function"
		},
		{
			"inputs": [
				{
					"internalType": "int256[5]",
					"name": "_arr",
					"type": "int256[5]"
				}
			],
			"name": "sortArray",
			"outputs": [
				{
					"internalType": "int256[5]",
					"name": "",
					"type": "int256[5]"
				}
			],
			"stateMutability": "pure",
			"type": "function"
		},
		{
			"inputs": [],
			"name": "stdGetter",
			"outputs": [
				{
					"components": [
						{
							"internalType": "string",
							"name": "name",
							"type": "string"
						},
						{
							"internalType": "uint256",
							"name": "rollNumber",
							"type": "uint256"
						},
						{
							"internalType": "uint256",
							"name": "age",
							"type": "uint256"
						}
					],
					"internalType": "struct Asg2.student",
					"name": "",
					"type": "tuple"
				}
			],
			"stateMutability": "view",
			"type": "function"
		},
		{
			"inputs": [
				{
					"internalType": "string",
					"name": "_name",
					"type": "string"
				},
				{
					"internalType": "uint256",
					"name": "_roll",
					"type": "uint256"
				},
				{
					"internalType": "uint256",
					"name": "_age",
					"type": "uint256"
				}
			],
			"name": "stdSetter",
			"outputs": [],
			"stateMutability": "nonpayable",
			"type": "function"
		},
		{
			"inputs": [],
			"name": "studentStruct",
			"outputs": [
				{
					"components": [
						{
							"internalType": "string",
							"name": "name",
							"type": "string"
						},
						{
							"internalType": "uint256",
							"name": "rollNumber",
							"type": "uint256"
						},
						{
							"internalType": "uint256",
							"name": "age",
							"type": "uint256"
						}
					],
					"internalType": "struct Asg2.student",
					"name": "",
					"type": "tuple"
				}
			],
			"stateMutability": "pure",
			"type": "function"
		},
		{
			"inputs": [
				{
					"internalType": "int256[]",
					"name": "_arr",
					"type": "int256[]"
				}
			],
			"name": "sumArr",
			"outputs": [
				{
					"internalType": "int256",
					"name": "",
					"type": "int256"
				}
			],
			"stateMutability": "pure",
			"type": "function"
		},
		{
			"inputs": [
				{
					"internalType": "uint256",
					"name": "",
					"type": "uint256"
				}
			],
			"name": "tenStudentsRecord",
			"outputs": [
				{
					"internalType": "string",
					"name": "name",
					"type": "string"
				},
				{
					"internalType": "uint256",
					"name": "rollNumber",
					"type": "uint256"
				},
				{
					"internalType": "uint256",
					"name": "age",
					"type": "uint256"
				}
			],
			"stateMutability": "view",
			"type": "function"
		},
		{
			"inputs": [],
			"name": "transferOwnership",
			"outputs": [],
			"stateMutability": "nonpayable",
			"type": "function"
		},
		{
			"inputs": [
				{
					"internalType": "string",
					"name": "subject",
					"type": "string"
				},
				{
					"internalType": "uint256",
					"name": "mark",
					"type": "uint256"
				}
			],
			"name": "updateMarks",
			"outputs": [],
			"stateMutability": "nonpayable",
			"type": "function"
		}
	]
}