{
	"data": {
		"bytecode": {
			"linkReferences": {},
			"object": "608060405234801561001057600080fd5b50611f0c806100206000396000f3fe608060405234801561001057600080fd5b50600436106101005760003560e01c806387c5d5cc11610097578063b780e50711610066578063b780e507146102c1578063c34052e0146102df578063df3dafad1461030f578063e9ab789e1461033f57610100565b806387c5d5cc14610239578063880ad0af146102695780639999890214610273578063b02a0fda1461029157610100565b8063378ee557116100d3578063378ee557146101a15780635e34f951146101d157806368f40b0414610201578063797f6f7f1461021d57610100565b806306694a0a14610105578063266001d314610135578063275a6de9146101655780632bb5a9e614610183575b600080fd5b61011f600480360381019061011a9190611138565b610349565b60405161012c919061123f565b60405180910390f35b61014f600480360381019061014a91906112bc565b610414565b60405161015c91906113bc565b60405180910390f35b61016d610446565b60405161017a9190611491565b60405180910390f35b61018b610543565b60405161019891906114ce565b60405180910390f35b6101bb60048036038101906101b69190611515565b6105d4565b6040516101c8919061123f565b60405180910390f35b6101eb60048036038101906101e69190611577565b61064e565b6040516101f891906115b3565b60405180910390f35b61021b600480360381019061021691906115ce565b6106c3565b005b61023760048036038101906102329190611642565b610794565b005b610253600480360381019061024e91906112bc565b61099a565b60405161026091906114ce565b60405180910390f35b610271610a07565b005b61027b610ab2565b6040516102889190611491565b60405180910390f35b6102ab60048036038101906102a69190611753565b610b17565b6040516102b89190611804565b60405180910390f35b6102c9610c42565b6040516102d691906118bb565b60405180910390f35b6102f960048036038101906102f491906118d6565b610cc9565b60405161030691906114ce565b60405180910390f35b61032960048036038101906103249190611138565b610d60565b60405161033691906115b3565b60405180910390f35b610347610db4565b005b60606000825167ffffffffffffffff81111561036857610367610fbf565b5b6040519080825280602002602001820160405280156103965781602001602082028036833780820191505090505b50905060005b835181101561040a578381600186516103b59190611932565b6103bf9190611932565b815181106103d0576103cf611966565b5b60200260200101518282815181106103eb576103ea611966565b5b602002602001018181525050808061040290611995565b91505061039c565b5080915050919050565b60608484848460405160200161042d9493929190611a1c565b6040516020818303038152906040529050949350505050565b61044e610f30565b600160003373ffffffffffffffffffffffffffffffffffffffff1673ffffffffffffffffffffffffffffffffffffffff1681526020019081526020016000206040518060600160405290816000820180546104a890611a73565b80601f01602080910402602001604051908101604052809291908181526020018280546104d490611a73565b80156105215780601f106104f657610100808354040283529160200191610521565b820191906000526020600020905b81548152906001019060200180831161050457829003601f168201915b5050505050815260200160018201548152602001600282015481525050905090565b6000600260003373ffffffffffffffffffffffffffffffffffffffff1673ffffffffffffffffffffffffffffffffffffffff16815260200190815260200160002060003373ffffffffffffffffffffffffffffffffffffffff1673ffffffffffffffffffffffffffffffffffffffff16815260200190815260200160002060009054906101000a900460ff16905090565b60606000600a67ffffffffffffffff8111156105f3576105f2610fbf565b5b6040519080825280602002602001820160405280156106215781602001602082028036833780820191505090505b5090508381848151811061063857610637611966565b5b6020026020010181815250508091505092915050565b6000806000905060005b60048110156106b9576000811480610686575083816004811061067e5761067d611966565b5b602002013582125b156106a65783816004811061069e5761069d611966565b5b602002013591505b80806106b190611995565b915050610658565b5080915050919050565b604051806060016040528085858080601f016020809104026020016040519081016040528093929190818152602001838380828437600081840152601f19601f82011690508083019250505050505050815260200183815260200182815250600160003373ffffffffffffffffffffffffffffffffffffffff1673ffffffffffffffffffffffffffffffffffffffff16815260200190815260200160002060008201518160000190816107769190611c50565b50602082015181600101556040820151816002015590505050505050565b6040516020016107a390611d6e565b6040516020818303038152906040528051906020012083836040516020016107cc929190611d83565b604051602081830303815290604052805190602001200361083f57806000803373ffffffffffffffffffffffffffffffffffffffff1673ffffffffffffffffffffffffffffffffffffffff16815260200190815260200160002060006003811061083957610838611966565b5b01819055505b60405160200161084e90611de8565b604051602081830303815290604052805190602001208383604051602001610877929190611d83565b60405160208183030381529060405280519060200120036108ea57806000803373ffffffffffffffffffffffffffffffffffffffff1673ffffffffffffffffffffffffffffffffffffffff1681526020019081526020016000206001600381106108e4576108e3611966565b5b01819055505b6040516020016108f990611e49565b604051602081830303815290604052805190602001208383604051602001610922929190611d83565b604051602081830303815290604052805190602001200361099557806000803373ffffffffffffffffffffffffffffffffffffffff1673ffffffffffffffffffffffffffffffffffffffff16815260200190815260200160002060026003811061098f5761098e611966565b5b01819055505b505050565b600082826040516020016109af929190611d83565b6040516020818303038152906040528051906020012085856040516020016109d8929190611d83565b60405160208183030381529060405280519060200120146109fa5760006109fd565b60015b9050949350505050565b600160026000735b38da6a701c568545dcfcb03fcb875f56beddc473ffffffffffffffffffffffffffffffffffffffff1673ffffffffffffffffffffffffffffffffffffffff16815260200190815260200160002060003373ffffffffffffffffffffffffffffffffffffffff1673ffffffffffffffffffffffffffffffffffffffff16815260200190815260200160002060006101000a81548160ff021916908315150217905550565b610aba610f30565b600060405180606001604052806040518060400160405280600581526020017f7961736572000000000000000000000000000000000000000000000000000000815250815260200160018152602001601d81525090508091505090565b610b1f610f51565b60005b60016005610b309190611932565b811015610c395760005b60016005610b489190611932565b811015610c255783600182610b5d9190611e5e565b60058110610b6e57610b6d611966565b5b6020020151848260058110610b8657610b85611966565b5b60200201511315610c125783600182610b9f9190611e5e565b60058110610bb057610baf611966565b5b6020020151848260058110610bc857610bc7611966565b5b6020020151858360058110610be057610bdf611966565b5b6020020186600185610bf29190611e5e565b60058110610c0357610c02611966565b5b60200201828152508281525050505b8080610c1d90611995565b915050610b3a565b508080610c3190611995565b915050610b22565b50819050919050565b610c4a610f73565b6000803373ffffffffffffffffffffffffffffffffffffffff1673ffffffffffffffffffffffffffffffffffffffff168152602001908152602001600020600380602002604051908101604052809291908260038015610cbf576020028201915b815481526020019060010190808311610cab575b5050505050905090565b6000806040518060a00160405280600160ff168152602001600260ff168152602001600360ff168152602001600460ff168152602001600560ff16815250905060005b6005811015610d545783828260058110610d2957610d28611966565b5b602002015160ff1603610d4157600192505050610d5b565b8080610d4c90611995565b915050610d0c565b5060009150505b919050565b60008060005b8351811015610daa57838181518110610d8257610d81611966565b5b602002602001015182610d959190611e92565b91508080610da290611995565b915050610d66565b5080915050919050565b600060026000735b38da6a701c568545dcfcb03fcb875f56beddc473ffffffffffffffffffffffffffffffffffffffff1673ffffffffffffffffffffffffffffffffffffffff1681526020019081526020016000206000735b38da6a701c568545dcfcb03fcb875f56beddc473ffffffffffffffffffffffffffffffffffffffff1673ffffffffffffffffffffffffffffffffffffffff16815260200190815260200160002060006101000a81548160ff021916908315150217905550600060026000735b38da6a701c568545dcfcb03fcb875f56beddc473ffffffffffffffffffffffffffffffffffffffff1673ffffffffffffffffffffffffffffffffffffffff168152602001908152602001600020600073ab8483f64d9c6d1ecf9b849ae677dd3315835cb273ffffffffffffffffffffffffffffffffffffffff1673ffffffffffffffffffffffffffffffffffffffff16815260200190815260200160002060006101000a81548160ff021916908315150217905550565b60405180606001604052806060815260200160008152602001600081525090565b6040518060a00160405280600590602082028036833780820191505090505090565b6040518060600160405280600390602082028036833780820191505090505090565b6000604051905090565b600080fd5b600080fd5b600080fd5b6000601f19601f8301169050919050565b7f4e487b7100000000000000000000000000000000000000000000000000000000600052604160045260246000fd5b610ff782610fae565b810181811067ffffffffffffffff8211171561101657611015610fbf565b5b80604052505050565b6000611029610f95565b90506110358282610fee565b919050565b600067ffffffffffffffff82111561105557611054610fbf565b5b602082029050602081019050919050565b600080fd5b6000819050919050565b61107e8161106b565b811461108957600080fd5b50565b60008135905061109b81611075565b92915050565b60006110b46110af8461103a565b61101f565b905080838252602082019050602084028301858111156110d7576110d6611066565b5b835b8181101561110057806110ec888261108c565b8452602084019350506020810190506110d9565b5050509392505050565b600082601f83011261111f5761111e610fa9565b5b813561112f8482602086016110a1565b91505092915050565b60006020828403121561114e5761114d610f9f565b5b600082013567ffffffffffffffff81111561116c5761116b610fa4565b5b6111788482850161110a565b91505092915050565b600081519050919050565b600082825260208201905092915050565b6000819050602082019050919050565b6111b68161106b565b82525050565b60006111c883836111ad565b60208301905092915050565b6000602082019050919050565b60006111ec82611181565b6111f6818561118c565b93506112018361119d565b8060005b8381101561123257815161121988826111bc565b9750611224836111d4565b925050600181019050611205565b5085935050505092915050565b6000602082019050818103600083015261125981846111e1565b905092915050565b600080fd5b60008083601f84011261127c5761127b610fa9565b5b8235905067ffffffffffffffff81111561129957611298611261565b5b6020830191508360018202830111156112b5576112b4611066565b5b9250929050565b600080600080604085870312156112d6576112d5610f9f565b5b600085013567ffffffffffffffff8111156112f4576112f3610fa4565b5b61130087828801611266565b9450945050602085013567ffffffffffffffff81111561132357611322610fa4565b5b61132f87828801611266565b925092505092959194509250565b600081519050919050565b600082825260208201905092915050565b60005b8381101561137757808201518184015260208101905061135c565b60008484015250505050565b600061138e8261133d565b6113988185611348565b93506113a8818560208601611359565b6113b181610fae565b840191505092915050565b600060208201905081810360008301526113d68184611383565b905092915050565b600082825260208201905092915050565b60006113fa8261133d565b61140481856113de565b9350611414818560208601611359565b61141d81610fae565b840191505092915050565b6000819050919050565b61143b81611428565b82525050565b6000606083016000830151848203600086015261145e82826113ef565b91505060208301516114736020860182611432565b5060408301516114866040860182611432565b508091505092915050565b600060208201905081810360008301526114ab8184611441565b905092915050565b60008115159050919050565b6114c8816114b3565b82525050565b60006020820190506114e360008301846114bf565b92915050565b6114f281611428565b81146114fd57600080fd5b50565b60008135905061150f816114e9565b92915050565b6000806040838503121561152c5761152b610f9f565b5b600061153a8582860161108c565b925050602061154b85828601611500565b9150509250929050565b60008190508260206004028201111561157157611570611066565b5b92915050565b60006080828403121561158d5761158c610f9f565b5b600061159b84828501611555565b91505092915050565b6115ad8161106b565b82525050565b60006020820190506115c860008301846115a4565b92915050565b600080600080606085870312156115e8576115e7610f9f565b5b600085013567ffffffffffffffff81111561160657611605610fa4565b5b61161287828801611266565b9450945050602061162587828801611500565b925050604061163687828801611500565b91505092959194509250565b60008060006040848603121561165b5761165a610f9f565b5b600084013567ffffffffffffffff81111561167957611678610fa4565b5b61168586828701611266565b9350935050602061169886828701611500565b9150509250925092565b600067ffffffffffffffff8211156116bd576116bc610fbf565b5b602082029050919050565b60006116db6116d6846116a2565b61101f565b905080602084028301858111156116f5576116f4611066565b5b835b8181101561171e578061170a888261108c565b8452602084019350506020810190506116f7565b5050509392505050565b600082601f83011261173d5761173c610fa9565b5b600561174a8482856116c8565b91505092915050565b600060a0828403121561176957611768610f9f565b5b600061177784828501611728565b91505092915050565b600060059050919050565b600081905092915050565b6000819050919050565b6000602082019050919050565b6117b681611780565b6117c0818461178b565b92506117cb82611796565b8060005b838110156117fc5781516117e387826111bc565b96506117ee836117a0565b9250506001810190506117cf565b505050505050565b600060a08201905061181960008301846117ad565b92915050565b600060039050919050565b600081905092915050565b6000819050919050565b600061184b8383611432565b60208301905092915050565b6000602082019050919050565b61186d8161181f565b611877818461182a565b925061188282611835565b8060005b838110156118b357815161189a878261183f565b96506118a583611857565b925050600181019050611886565b505050505050565b60006060820190506118d06000830184611864565b92915050565b6000602082840312156118ec576118eb610f9f565b5b60006118fa84828501611500565b91505092915050565b7f4e487b7100000000000000000000000000000000000000000000000000000000600052601160045260246000fd5b600061193d82611428565b915061194883611428565b92508282039050818111156119605761195f611903565b5b92915050565b7f4e487b7100000000000000000000000000000000000000000000000000000000600052603260045260246000fd5b60006119a082611428565b91507fffffffffffffffffffffffffffffffffffffffffffffffffffffffffffffffff82036119d2576119d1611903565b5b600182019050919050565b600081905092915050565b82818337600083830152505050565b6000611a0383856119dd565b9350611a108385846119e8565b82840190509392505050565b6000611a298286886119f7565b9150611a368284866119f7565b915081905095945050505050565b7f4e487b7100000000000000000000000000000000000000000000000000000000600052602260045260246000fd5b60006002820490506001821680611a8b57607f821691505b602082108103611a9e57611a9d611a44565b5b50919050565b60008190508160005260206000209050919050565b60006020601f8301049050919050565b600082821b905092915050565b600060088302611b067fffffffffffffffffffffffffffffffffffffffffffffffffffffffffffffffff82611ac9565b611b108683611ac9565b95508019841693508086168417925050509392505050565b6000819050919050565b6000611b4d611b48611b4384611428565b611b28565b611428565b9050919050565b6000819050919050565b611b6783611b32565b611b7b611b7382611b54565b848454611ad6565b825550505050565b600090565b611b90611b83565b611b9b818484611b5e565b505050565b5b81811015611bbf57611bb4600082611b88565b600181019050611ba1565b5050565b601f821115611c0457611bd581611aa4565b611bde84611ab9565b81016020851015611bed578190505b611c01611bf985611ab9565b830182611ba0565b50505b505050565b600082821c905092915050565b6000611c2760001984600802611c09565b1980831691505092915050565b6000611c408383611c16565b9150826002028217905092915050565b611c598261133d565b67ffffffffffffffff811115611c7257611c71610fbf565b5b611c7c8254611a73565b611c87828285611bc3565b600060209050601f831160018114611cba5760008415611ca8578287015190505b611cb28582611c34565b865550611d1a565b601f198416611cc886611aa4565b60005b82811015611cf057848901518255600182019150602085019450602081019050611ccb565b86831015611d0d5784890151611d09601f891682611c16565b8355505b6001600288020188555050505b505050505050565b7f6d61746873000000000000000000000000000000000000000000000000000000600082015250565b6000611d586005836119dd565b9150611d6382611d22565b600582019050919050565b6000611d7982611d4b565b9150819050919050565b6000611d908284866119f7565b91508190509392505050565b7f656e676c69736800000000000000000000000000000000000000000000000000600082015250565b6000611dd26007836119dd565b9150611ddd82611d9c565b600782019050919050565b6000611df382611dc5565b9150819050919050565b7f686973746f727900000000000000000000000000000000000000000000000000600082015250565b6000611e336007836119dd565b9150611e3e82611dfd565b600782019050919050565b6000611e5482611e26565b9150819050919050565b6000611e6982611428565b9150611e7483611428565b9250828201905080821115611e8c57611e8b611903565b5b92915050565b6000611e9d8261106b565b9150611ea88361106b565b925082820190508281121560008312168382126000841215161715611ed057611ecf611903565b5b9291505056fea2646970667358221220c83d62b6cb987229d9aa5f6dc01eaa4f49a2b7b21a3ad57e31995d0f0117378564736f6c63430008110033",
			"opcodes": "PUSH1 0x80 PUSH1 0x40 MSTORE CALLVALUE DUP1 ISZERO PUSH2 0x10 JUMPI PUSH1 0x0 DUP1 REVERT JUMPDEST POP PUSH2 0x1F0C DUP1 PUSH2 0x20 PUSH1 0x0 CODECOPY PUSH1 0x0 RETURN INVALID PUSH1 0x80 PUSH1 0x40 MSTORE CALLVALUE DUP1 ISZERO PUSH2 0x10 JUMPI PUSH1 0x0 DUP1 REVERT JUMPDEST POP PUSH1 0x4 CALLDATASIZE LT PUSH2 0x100 JUMPI PUSH1 0x0 CALLDATALOAD PUSH1 0xE0 SHR DUP1 PUSH4 0x87C5D5CC GT PUSH2 0x97 JUMPI DUP1 PUSH4 0xB780E507 GT PUSH2 0x66 JUMPI DUP1 PUSH4 0xB780E507 EQ PUSH2 0x2C1 JUMPI DUP1 PUSH4 0xC34052E0 EQ PUSH2 0x2DF JUMPI DUP1 PUSH4 0xDF3DAFAD EQ PUSH2 0x30F JUMPI DUP1 PUSH4 0xE9AB789E EQ PUSH2 0x33F JUMPI PUSH2 0x100 JUMP JUMPDEST DUP1 PUSH4 0x87C5D5CC EQ PUSH2 0x239 JUMPI DUP1 PUSH4 0x880AD0AF EQ PUSH2 0x269 JUMPI DUP1 PUSH4 0x99998902 EQ PUSH2 0x273 JUMPI DUP1 PUSH4 0xB02A0FDA EQ PUSH2 0x291 JUMPI PUSH2 0x100 JUMP JUMPDEST DUP1 PUSH4 0x378EE557 GT PUSH2 0xD3 JUMPI DUP1 PUSH4 0x378EE557 EQ PUSH2 0x1A1 JUMPI DUP1 PUSH4 0x5E34F951 EQ PUSH2 0x1D1 JUMPI DUP1 PUSH4 0x68F40B04 EQ PUSH2 0x201 JUMPI DUP1 PUSH4 0x797F6F7F EQ PUSH2 0x21D JUMPI PUSH2 0x100 JUMP JUMPDEST DUP1 PUSH4 0x6694A0A EQ PUSH2 0x105 JUMPI DUP1 PUSH4 0x266001D3 EQ PUSH2 0x135 JUMPI DUP1 PUSH4 0x275A6DE9 EQ PUSH2 0x165 JUMPI DUP1 PUSH4 0x2BB5A9E6 EQ PUSH2 0x183 JUMPI JUMPDEST PUSH1 0x0 DUP1 REVERT JUMPDEST PUSH2 0x11F PUSH1 0x4 DUP1 CALLDATASIZE SUB DUP2 ADD SWAP1 PUSH2 0x11A SWAP2 SWAP1 PUSH2 0x1138 JUMP JUMPDEST PUSH2 0x349 JUMP JUMPDEST PUSH1 0x40 MLOAD PUSH2 0x12C SWAP2 SWAP1 PUSH2 0x123F JUMP JUMPDEST PUSH1 0x40 MLOAD DUP1 SWAP2 SUB SWAP1 RETURN JUMPDEST PUSH2 0x14F PUSH1 0x4 DUP1 CALLDATASIZE SUB DUP2 ADD SWAP1 PUSH2 0x14A SWAP2 SWAP1 PUSH2 0x12BC JUMP JUMPDEST PUSH2 0x414 JUMP JUMPDEST PUSH1 0x40 MLOAD PUSH2 0x15C SWAP2 SWAP1 PUSH2 0x13BC JUMP JUMPDEST PUSH1 0x40 MLOAD DUP1 SWAP2 SUB SWAP1 RETURN JUMPDEST PUSH2 0x16D PUSH2 0x446 JUMP JUMPDEST PUSH1 0x40 MLOAD PUSH2 0x17A SWAP2 SWAP1 PUSH2 0x1491 JUMP JUMPDEST PUSH1 0x40 MLOAD DUP1 SWAP2 SUB SWAP1 RETURN JUMPDEST PUSH2 0x18B PUSH2 0x543 JUMP JUMPDEST PUSH1 0x40 MLOAD PUSH2 0x198 SWAP2 SWAP1 PUSH2 0x14CE JUMP JUMPDEST PUSH1 0x40 MLOAD DUP1 SWAP2 SUB SWAP1 RETURN JUMPDEST PUSH2 0x1BB PUSH1 0x4 DUP1 CALLDATASIZE SUB DUP2 ADD SWAP1 PUSH2 0x1B6 SWAP2 SWAP1 PUSH2 0x1515 JUMP JUMPDEST PUSH2 0x5D4 JUMP JUMPDEST PUSH1 0x40 MLOAD PUSH2 0x1C8 SWAP2 SWAP1 PUSH2 0x123F JUMP JUMPDEST PUSH1 0x40 MLOAD DUP1 SWAP2 SUB SWAP1 RETURN JUMPDEST PUSH2 0x1EB PUSH1 0x4 DUP1 CALLDATASIZE SUB DUP2 ADD SWAP1 PUSH2 0x1E6 SWAP2 SWAP1 PUSH2 0x1577 JUMP JUMPDEST PUSH2 0x64E JUMP JUMPDEST PUSH1 0x40 MLOAD PUSH2 0x1F8 SWAP2 SWAP1 PUSH2 0x15B3 JUMP JUMPDEST PUSH1 0x40 MLOAD DUP1 SWAP2 SUB SWAP1 RETURN JUMPDEST PUSH2 0x21B PUSH1 0x4 DUP1 CALLDATASIZE SUB DUP2 ADD SWAP1 PUSH2 0x216 SWAP2 SWAP1 PUSH2 0x15CE JUMP JUMPDEST PUSH2 0x6C3 JUMP JUMPDEST STOP JUMPDEST PUSH2 0x237 PUSH1 0x4 DUP1 CALLDATASIZE SUB DUP2 ADD SWAP1 PUSH2 0x232 SWAP2 SWAP1 PUSH2 0x1642 JUMP JUMPDEST PUSH2 0x794 JUMP JUMPDEST STOP JUMPDEST PUSH2 0x253 PUSH1 0x4 DUP1 CALLDATASIZE SUB DUP2 ADD SWAP1 PUSH2 0x24E SWAP2 SWAP1 PUSH2 0x12BC JUMP JUMPDEST PUSH2 0x99A JUMP JUMPDEST PUSH1 0x40 MLOAD PUSH2 0x260 SWAP2 SWAP1 PUSH2 0x14CE JUMP JUMPDEST PUSH1 0x40 MLOAD DUP1 SWAP2 SUB SWAP1 RETURN JUMPDEST PUSH2 0x271 PUSH2 0xA07 JUMP JUMPDEST STOP JUMPDEST PUSH2 0x27B PUSH2 0xAB2 JUMP JUMPDEST PUSH1 0x40 MLOAD PUSH2 0x288 SWAP2 SWAP1 PUSH2 0x1491 JUMP JUMPDEST PUSH1 0x40 MLOAD DUP1 SWAP2 SUB SWAP1 RETURN JUMPDEST PUSH2 0x2AB PUSH1 0x4 DUP1 CALLDATASIZE SUB DUP2 ADD SWAP1 PUSH2 0x2A6 SWAP2 SWAP1 PUSH2 0x1753 JUMP JUMPDEST PUSH2 0xB17 JUMP JUMPDEST PUSH1 0x40 MLOAD PUSH2 0x2B8 SWAP2 SWAP1 PUSH2 0x1804 JUMP JUMPDEST PUSH1 0x40 MLOAD DUP1 SWAP2 SUB SWAP1 RETURN JUMPDEST PUSH2 0x2C9 PUSH2 0xC42 JUMP JUMPDEST PUSH1 0x40 MLOAD PUSH2 0x2D6 SWAP2 SWAP1 PUSH2 0x18BB JUMP JUMPDEST PUSH1 0x40 MLOAD DUP1 SWAP2 SUB SWAP1 RETURN JUMPDEST PUSH2 0x2F9 PUSH1 0x4 DUP1 CALLDATASIZE SUB DUP2 ADD SWAP1 PUSH2 0x2F4 SWAP2 SWAP1 PUSH2 0x18D6 JUMP JUMPDEST PUSH2 0xCC9 JUMP JUMPDEST PUSH1 0x40 MLOAD PUSH2 0x306 SWAP2 SWAP1 PUSH2 0x14CE JUMP JUMPDEST PUSH1 0x40 MLOAD DUP1 SWAP2 SUB SWAP1 RETURN JUMPDEST PUSH2 0x329 PUSH1 0x4 DUP1 CALLDATASIZE SUB DUP2 ADD SWAP1 PUSH2 0x324 SWAP2 SWAP1 PUSH2 0x1138 JUMP JUMPDEST PUSH2 0xD60 JUMP JUMPDEST PUSH1 0x40 MLOAD PUSH2 0x336 SWAP2 SWAP1 PUSH2 0x15B3 JUMP JUMPDEST PUSH1 0x40 MLOAD DUP1 SWAP2 SUB SWAP1 RETURN JUMPDEST PUSH2 0x347 PUSH2 0xDB4 JUMP JUMPDEST STOP JUMPDEST PUSH1 0x60 PUSH1 0x0 DUP3 MLOAD PUSH8 0xFFFFFFFFFFFFFFFF DUP2 GT ISZERO PUSH2 0x368 JUMPI PUSH2 0x367 PUSH2 0xFBF JUMP JUMPDEST JUMPDEST PUSH1 0x40 MLOAD SWAP1 DUP1 DUP3 MSTORE DUP1 PUSH1 0x20 MUL PUSH1 0x20 ADD DUP3 ADD PUSH1 0x40 MSTORE DUP1 ISZERO PUSH2 0x396 JUMPI DUP2 PUSH1 0x20 ADD PUSH1 0x20 DUP3 MUL DUP1 CALLDATASIZE DUP4 CALLDATACOPY DUP1 DUP3 ADD SWAP2 POP POP SWAP1 POP JUMPDEST POP SWAP1 POP PUSH1 0x0 JUMPDEST DUP4 MLOAD DUP2 LT ISZERO PUSH2 0x40A JUMPI DUP4 DUP2 PUSH1 0x1 DUP7 MLOAD PUSH2 0x3B5 SWAP2 SWAP1 PUSH2 0x1932 JUMP JUMPDEST PUSH2 0x3BF SWAP2 SWAP1 PUSH2 0x1932 JUMP JUMPDEST DUP2 MLOAD DUP2 LT PUSH2 0x3D0 JUMPI PUSH2 0x3CF PUSH2 0x1966 JUMP JUMPDEST JUMPDEST PUSH1 0x20 MUL PUSH1 0x20 ADD ADD MLOAD DUP3 DUP3 DUP2 MLOAD DUP2 LT PUSH2 0x3EB JUMPI PUSH2 0x3EA PUSH2 0x1966 JUMP JUMPDEST JUMPDEST PUSH1 0x20 MUL PUSH1 0x20 ADD ADD DUP2 DUP2 MSTORE POP POP DUP1 DUP1 PUSH2 0x402 SWAP1 PUSH2 0x1995 JUMP JUMPDEST SWAP2 POP POP PUSH2 0x39C JUMP JUMPDEST POP DUP1 SWAP2 POP POP SWAP2 SWAP1 POP JUMP JUMPDEST PUSH1 0x60 DUP5 DUP5 DUP5 DUP5 PUSH1 0x40 MLOAD PUSH1 0x20 ADD PUSH2 0x42D SWAP5 SWAP4 SWAP3 SWAP2 SWAP1 PUSH2 0x1A1C JUMP JUMPDEST PUSH1 0x40 MLOAD PUSH1 0x20 DUP2 DUP4 SUB SUB DUP2 MSTORE SWAP1 PUSH1 0x40 MSTORE SWAP1 POP SWAP5 SWAP4 POP POP POP POP JUMP JUMPDEST PUSH2 0x44E PUSH2 0xF30 JUMP JUMPDEST PUSH1 0x1 PUSH1 0x0 CALLER PUSH20 0xFFFFFFFFFFFFFFFFFFFFFFFFFFFFFFFFFFFFFFFF AND PUSH20 0xFFFFFFFFFFFFFFFFFFFFFFFFFFFFFFFFFFFFFFFF AND DUP2 MSTORE PUSH1 0x20 ADD SWAP1 DUP2 MSTORE PUSH1 0x20 ADD PUSH1 0x0 KECCAK256 PUSH1 0x40 MLOAD DUP1 PUSH1 0x60 ADD PUSH1 0x40 MSTORE SWAP1 DUP2 PUSH1 0x0 DUP3 ADD DUP1 SLOAD PUSH2 0x4A8 SWAP1 PUSH2 0x1A73 JUMP JUMPDEST DUP1 PUSH1 0x1F ADD PUSH1 0x20 DUP1 SWAP2 DIV MUL PUSH1 0x20 ADD PUSH1 0x40 MLOAD SWAP1 DUP2 ADD PUSH1 0x40 MSTORE DUP1 SWAP3 SWAP2 SWAP1 DUP2 DUP2 MSTORE PUSH1 0x20 ADD DUP3 DUP1 SLOAD PUSH2 0x4D4 SWAP1 PUSH2 0x1A73 JUMP JUMPDEST DUP1 ISZERO PUSH2 0x521 JUMPI DUP1 PUSH1 0x1F LT PUSH2 0x4F6 JUMPI PUSH2 0x100 DUP1 DUP4 SLOAD DIV MUL DUP4 MSTORE SWAP2 PUSH1 0x20 ADD SWAP2 PUSH2 0x521 JUMP JUMPDEST DUP3 ADD SWAP2 SWAP1 PUSH1 0x0 MSTORE PUSH1 0x20 PUSH1 0x0 KECCAK256 SWAP1 JUMPDEST DUP2 SLOAD DUP2 MSTORE SWAP1 PUSH1 0x1 ADD SWAP1 PUSH1 0x20 ADD DUP1 DUP4 GT PUSH2 0x504 JUMPI DUP3 SWAP1 SUB PUSH1 0x1F AND DUP3 ADD SWAP2 JUMPDEST POP POP POP POP POP DUP2 MSTORE PUSH1 0x20 ADD PUSH1 0x1 DUP3 ADD SLOAD DUP2 MSTORE PUSH1 0x20 ADD PUSH1 0x2 DUP3 ADD SLOAD DUP2 MSTORE POP POP SWAP1 POP SWAP1 JUMP JUMPDEST PUSH1 0x0 PUSH1 0x2 PUSH1 0x0 CALLER PUSH20 0xFFFFFFFFFFFFFFFFFFFFFFFFFFFFFFFFFFFFFFFF AND PUSH20 0xFFFFFFFFFFFFFFFFFFFFFFFFFFFFFFFFFFFFFFFF AND DUP2 MSTORE PUSH1 0x20 ADD SWAP1 DUP2 MSTORE PUSH1 0x20 ADD PUSH1 0x0 KECCAK256 PUSH1 0x0 CALLER PUSH20 0xFFFFFFFFFFFFFFFFFFFFFFFFFFFFFFFFFFFFFFFF AND PUSH20 0xFFFFFFFFFFFFFFFFFFFFFFFFFFFFFFFFFFFFFFFF AND DUP2 MSTORE PUSH1 0x20 ADD SWAP1 DUP2 MSTORE PUSH1 0x20 ADD PUSH1 0x0 KECCAK256 PUSH1 0x0 SWAP1 SLOAD SWAP1 PUSH2 0x100 EXP SWAP1 DIV PUSH1 0xFF AND SWAP1 POP SWAP1 JUMP JUMPDEST PUSH1 0x60 PUSH1 0x0 PUSH1 0xA PUSH8 0xFFFFFFFFFFFFFFFF DUP2 GT ISZERO PUSH2 0x5F3 JUMPI PUSH2 0x5F2 PUSH2 0xFBF JUMP JUMPDEST JUMPDEST PUSH1 0x40 MLOAD SWAP1 DUP1 DUP3 MSTORE DUP1 PUSH1 0x20 MUL PUSH1 0x20 ADD DUP3 ADD PUSH1 0x40 MSTORE DUP1 ISZERO PUSH2 0x621 JUMPI DUP2 PUSH1 0x20 ADD PUSH1 0x20 DUP3 MUL DUP1 CALLDATASIZE DUP4 CALLDATACOPY DUP1 DUP3 ADD SWAP2 POP POP SWAP1 POP JUMPDEST POP SWAP1 POP DUP4 DUP2 DUP5 DUP2 MLOAD DUP2 LT PUSH2 0x638 JUMPI PUSH2 0x637 PUSH2 0x1966 JUMP JUMPDEST JUMPDEST PUSH1 0x20 MUL PUSH1 0x20 ADD ADD DUP2 DUP2 MSTORE POP POP DUP1 SWAP2 POP POP SWAP3 SWAP2 POP POP JUMP JUMPDEST PUSH1 0x0 DUP1 PUSH1 0x0 SWAP1 POP PUSH1 0x0 JUMPDEST PUSH1 0x4 DUP2 LT ISZERO PUSH2 0x6B9 JUMPI PUSH1 0x0 DUP2 EQ DUP1 PUSH2 0x686 JUMPI POP DUP4 DUP2 PUSH1 0x4 DUP2 LT PUSH2 0x67E JUMPI PUSH2 0x67D PUSH2 0x1966 JUMP JUMPDEST JUMPDEST PUSH1 0x20 MUL ADD CALLDATALOAD DUP3 SLT JUMPDEST ISZERO PUSH2 0x6A6 JUMPI DUP4 DUP2 PUSH1 0x4 DUP2 LT PUSH2 0x69E JUMPI PUSH2 0x69D PUSH2 0x1966 JUMP JUMPDEST JUMPDEST PUSH1 0x20 MUL ADD CALLDATALOAD SWAP2 POP JUMPDEST DUP1 DUP1 PUSH2 0x6B1 SWAP1 PUSH2 0x1995 JUMP JUMPDEST SWAP2 POP POP PUSH2 0x658 JUMP JUMPDEST POP DUP1 SWAP2 POP POP SWAP2 SWAP1 POP JUMP JUMPDEST PUSH1 0x40 MLOAD DUP1 PUSH1 0x60 ADD PUSH1 0x40 MSTORE DUP1 DUP6 DUP6 DUP1 DUP1 PUSH1 0x1F ADD PUSH1 0x20 DUP1 SWAP2 DIV MUL PUSH1 0x20 ADD PUSH1 0x40 MLOAD SWAP1 DUP2 ADD PUSH1 0x40 MSTORE DUP1 SWAP4 SWAP3 SWAP2 SWAP1 DUP2 DUP2 MSTORE PUSH1 0x20 ADD DUP4 DUP4 DUP1 DUP3 DUP5 CALLDATACOPY PUSH1 0x0 DUP2 DUP5 ADD MSTORE PUSH1 0x1F NOT PUSH1 0x1F DUP3 ADD AND SWAP1 POP DUP1 DUP4 ADD SWAP3 POP POP POP POP POP POP POP DUP2 MSTORE PUSH1 0x20 ADD DUP4 DUP2 MSTORE PUSH1 0x20 ADD DUP3 DUP2 MSTORE POP PUSH1 0x1 PUSH1 0x0 CALLER PUSH20 0xFFFFFFFFFFFFFFFFFFFFFFFFFFFFFFFFFFFFFFFF AND PUSH20 0xFFFFFFFFFFFFFFFFFFFFFFFFFFFFFFFFFFFFFFFF AND DUP2 MSTORE PUSH1 0x20 ADD SWAP1 DUP2 MSTORE PUSH1 0x20 ADD PUSH1 0x0 KECCAK256 PUSH1 0x0 DUP3 ADD MLOAD DUP2 PUSH1 0x0 ADD SWAP1 DUP2 PUSH2 0x776 SWAP2 SWAP1 PUSH2 0x1C50 JUMP JUMPDEST POP PUSH1 0x20 DUP3 ADD MLOAD DUP2 PUSH1 0x1 ADD SSTORE PUSH1 0x40 DUP3 ADD MLOAD DUP2 PUSH1 0x2 ADD SSTORE SWAP1 POP POP POP POP POP POP JUMP JUMPDEST PUSH1 0x40 MLOAD PUSH1 0x20 ADD PUSH2 0x7A3 SWAP1 PUSH2 0x1D6E JUMP JUMPDEST PUSH1 0x40 MLOAD PUSH1 0x20 DUP2 DUP4 SUB SUB DUP2 MSTORE SWAP1 PUSH1 0x40 MSTORE DUP1 MLOAD SWAP1 PUSH1 0x20 ADD KECCAK256 DUP4 DUP4 PUSH1 0x40 MLOAD PUSH1 0x20 ADD PUSH2 0x7CC SWAP3 SWAP2 SWAP1 PUSH2 0x1D83 JUMP JUMPDEST PUSH1 0x40 MLOAD PUSH1 0x20 DUP2 DUP4 SUB SUB DUP2 MSTORE SWAP1 PUSH1 0x40 MSTORE DUP1 MLOAD SWAP1 PUSH1 0x20 ADD KECCAK256 SUB PUSH2 0x83F JUMPI DUP1 PUSH1 0x0 DUP1 CALLER PUSH20 0xFFFFFFFFFFFFFFFFFFFFFFFFFFFFFFFFFFFFFFFF AND PUSH20 0xFFFFFFFFFFFFFFFFFFFFFFFFFFFFFFFFFFFFFFFF AND DUP2 MSTORE PUSH1 0x20 ADD SWAP1 DUP2 MSTORE PUSH1 0x20 ADD PUSH1 0x0 KECCAK256 PUSH1 0x0 PUSH1 0x3 DUP2 LT PUSH2 0x839 JUMPI PUSH2 0x838 PUSH2 0x1966 JUMP JUMPDEST JUMPDEST ADD DUP2 SWAP1 SSTORE POP JUMPDEST PUSH1 0x40 MLOAD PUSH1 0x20 ADD PUSH2 0x84E SWAP1 PUSH2 0x1DE8 JUMP JUMPDEST PUSH1 0x40 MLOAD PUSH1 0x20 DUP2 DUP4 SUB SUB DUP2 MSTORE SWAP1 PUSH1 0x40 MSTORE DUP1 MLOAD SWAP1 PUSH1 0x20 ADD KECCAK256 DUP4 DUP4 PUSH1 0x40 MLOAD PUSH1 0x20 ADD PUSH2 0x877 SWAP3 SWAP2 SWAP1 PUSH2 0x1D83 JUMP JUMPDEST PUSH1 0x40 MLOAD PUSH1 0x20 DUP2 DUP4 SUB SUB DUP2 MSTORE SWAP1 PUSH1 0x40 MSTORE DUP1 MLOAD SWAP1 PUSH1 0x20 ADD KECCAK256 SUB PUSH2 0x8EA JUMPI DUP1 PUSH1 0x0 DUP1 CALLER PUSH20 0xFFFFFFFFFFFFFFFFFFFFFFFFFFFFFFFFFFFFFFFF AND PUSH20 0xFFFFFFFFFFFFFFFFFFFFFFFFFFFFFFFFFFFFFFFF AND DUP2 MSTORE PUSH1 0x20 ADD SWAP1 DUP2 MSTORE PUSH1 0x20 ADD PUSH1 0x0 KECCAK256 PUSH1 0x1 PUSH1 0x3 DUP2 LT PUSH2 0x8E4 JUMPI PUSH2 0x8E3 PUSH2 0x1966 JUMP JUMPDEST JUMPDEST ADD DUP2 SWAP1 SSTORE POP JUMPDEST PUSH1 0x40 MLOAD PUSH1 0x20 ADD PUSH2 0x8F9 SWAP1 PUSH2 0x1E49 JUMP JUMPDEST PUSH1 0x40 MLOAD PUSH1 0x20 DUP2 DUP4 SUB SUB DUP2 MSTORE SWAP1 PUSH1 0x40 MSTORE DUP1 MLOAD SWAP1 PUSH1 0x20 ADD KECCAK256 DUP4 DUP4 PUSH1 0x40 MLOAD PUSH1 0x20 ADD PUSH2 0x922 SWAP3 SWAP2 SWAP1 PUSH2 0x1D83 JUMP JUMPDEST PUSH1 0x40 MLOAD PUSH1 0x20 DUP2 DUP4 SUB SUB DUP2 MSTORE SWAP1 PUSH1 0x40 MSTORE DUP1 MLOAD SWAP1 PUSH1 0x20 ADD KECCAK256 SUB PUSH2 0x995 JUMPI DUP1 PUSH1 0x0 DUP1 CALLER PUSH20 0xFFFFFFFFFFFFFFFFFFFFFFFFFFFFFFFFFFFFFFFF AND PUSH20 0xFFFFFFFFFFFFFFFFFFFFFFFFFFFFFFFFFFFFFFFF AND DUP2 MSTORE PUSH1 0x20 ADD SWAP1 DUP2 MSTORE PUSH1 0x20 ADD PUSH1 0x0 KECCAK256 PUSH1 0x2 PUSH1 0x3 DUP2 LT PUSH2 0x98F JUMPI PUSH2 0x98E PUSH2 0x1966 JUMP JUMPDEST JUMPDEST ADD DUP2 SWAP1 SSTORE POP JUMPDEST POP POP POP JUMP JUMPDEST PUSH1 0x0 DUP3 DUP3 PUSH1 0x40 MLOAD PUSH1 0x20 ADD PUSH2 0x9AF SWAP3 SWAP2 SWAP1 PUSH2 0x1D83 JUMP JUMPDEST PUSH1 0x40 MLOAD PUSH1 0x20 DUP2 DUP4 SUB SUB DUP2 MSTORE SWAP1 PUSH1 0x40 MSTORE DUP1 MLOAD SWAP1 PUSH1 0x20 ADD KECCAK256 DUP6 DUP6 PUSH1 0x40 MLOAD PUSH1 0x20 ADD PUSH2 0x9D8 SWAP3 SWAP2 SWAP1 PUSH2 0x1D83 JUMP JUMPDEST PUSH1 0x40 MLOAD PUSH1 0x20 DUP2 DUP4 SUB SUB DUP2 MSTORE SWAP1 PUSH1 0x40 MSTORE DUP1 MLOAD SWAP1 PUSH1 0x20 ADD KECCAK256 EQ PUSH2 0x9FA JUMPI PUSH1 0x0 PUSH2 0x9FD JUMP JUMPDEST PUSH1 0x1 JUMPDEST SWAP1 POP SWAP5 SWAP4 POP POP POP POP JUMP JUMPDEST PUSH1 0x1 PUSH1 0x2 PUSH1 0x0 PUSH20 0x5B38DA6A701C568545DCFCB03FCB875F56BEDDC4 PUSH20 0xFFFFFFFFFFFFFFFFFFFFFFFFFFFFFFFFFFFFFFFF AND PUSH20 0xFFFFFFFFFFFFFFFFFFFFFFFFFFFFFFFFFFFFFFFF AND DUP2 MSTORE PUSH1 0x20 ADD SWAP1 DUP2 MSTORE PUSH1 0x20 ADD PUSH1 0x0 KECCAK256 PUSH1 0x0 CALLER PUSH20 0xFFFFFFFFFFFFFFFFFFFFFFFFFFFFFFFFFFFFFFFF AND PUSH20 0xFFFFFFFFFFFFFFFFFFFFFFFFFFFFFFFFFFFFFFFF AND DUP2 MSTORE PUSH1 0x20 ADD SWAP1 DUP2 MSTORE PUSH1 0x20 ADD PUSH1 0x0 KECCAK256 PUSH1 0x0 PUSH2 0x100 EXP DUP2 SLOAD DUP2 PUSH1 0xFF MUL NOT AND SWAP1 DUP4 ISZERO ISZERO MUL OR SWAP1 SSTORE POP JUMP JUMPDEST PUSH2 0xABA PUSH2 0xF30 JUMP JUMPDEST PUSH1 0x0 PUSH1 0x40 MLOAD DUP1 PUSH1 0x60 ADD PUSH1 0x40 MSTORE DUP1 PUSH1 0x40 MLOAD DUP1 PUSH1 0x40 ADD PUSH1 0x40 MSTORE DUP1 PUSH1 0x5 DUP2 MSTORE PUSH1 0x20 ADD PUSH32 0x7961736572000000000000000000000000000000000000000000000000000000 DUP2 MSTORE POP DUP2 MSTORE PUSH1 0x20 ADD PUSH1 0x1 DUP2 MSTORE PUSH1 0x20 ADD PUSH1 0x1D DUP2 MSTORE POP SWAP1 POP DUP1 SWAP2 POP POP SWAP1 JUMP JUMPDEST PUSH2 0xB1F PUSH2 0xF51 JUMP JUMPDEST PUSH1 0x0 JUMPDEST PUSH1 0x1 PUSH1 0x5 PUSH2 0xB30 SWAP2 SWAP1 PUSH2 0x1932 JUMP JUMPDEST DUP2 LT ISZERO PUSH2 0xC39 JUMPI PUSH1 0x0 JUMPDEST PUSH1 0x1 PUSH1 0x5 PUSH2 0xB48 SWAP2 SWAP1 PUSH2 0x1932 JUMP JUMPDEST DUP2 LT ISZERO PUSH2 0xC25 JUMPI DUP4 PUSH1 0x1 DUP3 PUSH2 0xB5D SWAP2 SWAP1 PUSH2 0x1E5E JUMP JUMPDEST PUSH1 0x5 DUP2 LT PUSH2 0xB6E JUMPI PUSH2 0xB6D PUSH2 0x1966 JUMP JUMPDEST JUMPDEST PUSH1 0x20 MUL ADD MLOAD DUP5 DUP3 PUSH1 0x5 DUP2 LT PUSH2 0xB86 JUMPI PUSH2 0xB85 PUSH2 0x1966 JUMP JUMPDEST JUMPDEST PUSH1 0x20 MUL ADD MLOAD SGT ISZERO PUSH2 0xC12 JUMPI DUP4 PUSH1 0x1 DUP3 PUSH2 0xB9F SWAP2 SWAP1 PUSH2 0x1E5E JUMP JUMPDEST PUSH1 0x5 DUP2 LT PUSH2 0xBB0 JUMPI PUSH2 0xBAF PUSH2 0x1966 JUMP JUMPDEST JUMPDEST PUSH1 0x20 MUL ADD MLOAD DUP5 DUP3 PUSH1 0x5 DUP2 LT PUSH2 0xBC8 JUMPI PUSH2 0xBC7 PUSH2 0x1966 JUMP JUMPDEST JUMPDEST PUSH1 0x20 MUL ADD MLOAD DUP6 DUP4 PUSH1 0x5 DUP2 LT PUSH2 0xBE0 JUMPI PUSH2 0xBDF PUSH2 0x1966 JUMP JUMPDEST JUMPDEST PUSH1 0x20 MUL ADD DUP7 PUSH1 0x1 DUP6 PUSH2 0xBF2 SWAP2 SWAP1 PUSH2 0x1E5E JUMP JUMPDEST PUSH1 0x5 DUP2 LT PUSH2 0xC03 JUMPI PUSH2 0xC02 PUSH2 0x1966 JUMP JUMPDEST JUMPDEST PUSH1 0x20 MUL ADD DUP3 DUP2 MSTORE POP DUP3 DUP2 MSTORE POP POP POP JUMPDEST DUP1 DUP1 PUSH2 0xC1D SWAP1 PUSH2 0x1995 JUMP JUMPDEST SWAP2 POP POP PUSH2 0xB3A JUMP JUMPDEST POP DUP1 DUP1 PUSH2 0xC31 SWAP1 PUSH2 0x1995 JUMP JUMPDEST SWAP2 POP POP PUSH2 0xB22 JUMP JUMPDEST POP DUP2 SWAP1 POP SWAP2 SWAP1 POP JUMP JUMPDEST PUSH2 0xC4A PUSH2 0xF73 JUMP JUMPDEST PUSH1 0x0 DUP1 CALLER PUSH20 0xFFFFFFFFFFFFFFFFFFFFFFFFFFFFFFFFFFFFFFFF AND PUSH20 0xFFFFFFFFFFFFFFFFFFFFFFFFFFFFFFFFFFFFFFFF AND DUP2 MSTORE PUSH1 0x20 ADD SWAP1 DUP2 MSTORE PUSH1 0x20 ADD PUSH1 0x0 KECCAK256 PUSH1 0x3 DUP1 PUSH1 0x20 MUL PUSH1 0x40 MLOAD SWAP1 DUP2 ADD PUSH1 0x40 MSTORE DUP1 SWAP3 SWAP2 SWAP1 DUP3 PUSH1 0x3 DUP1 ISZERO PUSH2 0xCBF JUMPI PUSH1 0x20 MUL DUP3 ADD SWAP2 JUMPDEST DUP2 SLOAD DUP2 MSTORE PUSH1 0x20 ADD SWAP1 PUSH1 0x1 ADD SWAP1 DUP1 DUP4 GT PUSH2 0xCAB JUMPI JUMPDEST POP POP POP POP POP SWAP1 POP SWAP1 JUMP JUMPDEST PUSH1 0x0 DUP1 PUSH1 0x40 MLOAD DUP1 PUSH1 0xA0 ADD PUSH1 0x40 MSTORE DUP1 PUSH1 0x1 PUSH1 0xFF AND DUP2 MSTORE PUSH1 0x20 ADD PUSH1 0x2 PUSH1 0xFF AND DUP2 MSTORE PUSH1 0x20 ADD PUSH1 0x3 PUSH1 0xFF AND DUP2 MSTORE PUSH1 0x20 ADD PUSH1 0x4 PUSH1 0xFF AND DUP2 MSTORE PUSH1 0x20 ADD PUSH1 0x5 PUSH1 0xFF AND DUP2 MSTORE POP SWAP1 POP PUSH1 0x0 JUMPDEST PUSH1 0x5 DUP2 LT ISZERO PUSH2 0xD54 JUMPI DUP4 DUP3 DUP3 PUSH1 0x5 DUP2 LT PUSH2 0xD29 JUMPI PUSH2 0xD28 PUSH2 0x1966 JUMP JUMPDEST JUMPDEST PUSH1 0x20 MUL ADD MLOAD PUSH1 0xFF AND SUB PUSH2 0xD41 JUMPI PUSH1 0x1 SWAP3 POP POP POP PUSH2 0xD5B JUMP JUMPDEST DUP1 DUP1 PUSH2 0xD4C SWAP1 PUSH2 0x1995 JUMP JUMPDEST SWAP2 POP POP PUSH2 0xD0C JUMP JUMPDEST POP PUSH1 0x0 SWAP2 POP POP JUMPDEST SWAP2 SWAP1 POP JUMP JUMPDEST PUSH1 0x0 DUP1 PUSH1 0x0 JUMPDEST DUP4 MLOAD DUP2 LT ISZERO PUSH2 0xDAA JUMPI DUP4 DUP2 DUP2 MLOAD DUP2 LT PUSH2 0xD82 JUMPI PUSH2 0xD81 PUSH2 0x1966 JUMP JUMPDEST JUMPDEST PUSH1 0x20 MUL PUSH1 0x20 ADD ADD MLOAD DUP3 PUSH2 0xD95 SWAP2 SWAP1 PUSH2 0x1E92 JUMP JUMPDEST SWAP2 POP DUP1 DUP1 PUSH2 0xDA2 SWAP1 PUSH2 0x1995 JUMP JUMPDEST SWAP2 POP POP PUSH2 0xD66 JUMP JUMPDEST POP DUP1 SWAP2 POP POP SWAP2 SWAP1 POP JUMP JUMPDEST PUSH1 0x0 PUSH1 0x2 PUSH1 0x0 PUSH20 0x5B38DA6A701C568545DCFCB03FCB875F56BEDDC4 PUSH20 0xFFFFFFFFFFFFFFFFFFFFFFFFFFFFFFFFFFFFFFFF AND PUSH20 0xFFFFFFFFFFFFFFFFFFFFFFFFFFFFFFFFFFFFFFFF AND DUP2 MSTORE PUSH1 0x20 ADD SWAP1 DUP2 MSTORE PUSH1 0x20 ADD PUSH1 0x0 KECCAK256 PUSH1 0x0 PUSH20 0x5B38DA6A701C568545DCFCB03FCB875F56BEDDC4 PUSH20 0xFFFFFFFFFFFFFFFFFFFFFFFFFFFFFFFFFFFFFFFF AND PUSH20 0xFFFFFFFFFFFFFFFFFFFFFFFFFFFFFFFFFFFFFFFF AND DUP2 MSTORE PUSH1 0x20 ADD SWAP1 DUP2 MSTORE PUSH1 0x20 ADD PUSH1 0x0 KECCAK256 PUSH1 0x0 PUSH2 0x100 EXP DUP2 SLOAD DUP2 PUSH1 0xFF MUL NOT AND SWAP1 DUP4 ISZERO ISZERO MUL OR SWAP1 SSTORE POP PUSH1 0x0 PUSH1 0x2 PUSH1 0x0 PUSH20 0x5B38DA6A701C568545DCFCB03FCB875F56BEDDC4 PUSH20 0xFFFFFFFFFFFFFFFFFFFFFFFFFFFFFFFFFFFFFFFF AND PUSH20 0xFFFFFFFFFFFFFFFFFFFFFFFFFFFFFFFFFFFFFFFF AND DUP2 MSTORE PUSH1 0x20 ADD SWAP1 DUP2 MSTORE PUSH1 0x20 ADD PUSH1 0x0 KECCAK256 PUSH1 0x0 PUSH20 0xAB8483F64D9C6D1ECF9B849AE677DD3315835CB2 PUSH20 0xFFFFFFFFFFFFFFFFFFFFFFFFFFFFFFFFFFFFFFFF AND PUSH20 0xFFFFFFFFFFFFFFFFFFFFFFFFFFFFFFFFFFFFFFFF AND DUP2 MSTORE PUSH1 0x20 ADD SWAP1 DUP2 MSTORE PUSH1 0x20 ADD PUSH1 0x0 KECCAK256 PUSH1 0x0 PUSH2 0x100 EXP DUP2 SLOAD DUP2 PUSH1 0xFF MUL NOT AND SWAP1 DUP4 ISZERO ISZERO MUL OR SWAP1 SSTORE POP JUMP JUMPDEST PUSH1 0x40 MLOAD DUP1 PUSH1 0x60 ADD PUSH1 0x40 MSTORE DUP1 PUSH1 0x60 DUP2 MSTORE PUSH1 0x20 ADD PUSH1 0x0 DUP2 MSTORE PUSH1 0x20 ADD PUSH1 0x0 DUP2 MSTORE POP SWAP1 JUMP JUMPDEST PUSH1 0x40 MLOAD DUP1 PUSH1 0xA0 ADD PUSH1 0x40 MSTORE DUP1 PUSH1 0x5 SWAP1 PUSH1 0x20 DUP3 MUL DUP1 CALLDATASIZE DUP4 CALLDATACOPY DUP1 DUP3 ADD SWAP2 POP POP SWAP1 POP POP SWAP1 JUMP JUMPDEST PUSH1 0x40 MLOAD DUP1 PUSH1 0x60 ADD PUSH1 0x40 MSTORE DUP1 PUSH1 0x3 SWAP1 PUSH1 0x20 DUP3 MUL DUP1 CALLDATASIZE DUP4 CALLDATACOPY DUP1 DUP3 ADD SWAP2 POP POP SWAP1 POP POP SWAP1 JUMP JUMPDEST PUSH1 0x0 PUSH1 0x40 MLOAD SWAP1 POP SWAP1 JUMP JUMPDEST PUSH1 0x0 DUP1 REVERT JUMPDEST PUSH1 0x0 DUP1 REVERT JUMPDEST PUSH1 0x0 DUP1 REVERT JUMPDEST PUSH1 0x0 PUSH1 0x1F NOT PUSH1 0x1F DUP4 ADD AND SWAP1 POP SWAP2 SWAP1 POP JUMP JUMPDEST PUSH32 0x4E487B7100000000000000000000000000000000000000000000000000000000 PUSH1 0x0 MSTORE PUSH1 0x41 PUSH1 0x4 MSTORE PUSH1 0x24 PUSH1 0x0 REVERT JUMPDEST PUSH2 0xFF7 DUP3 PUSH2 0xFAE JUMP JUMPDEST DUP2 ADD DUP2 DUP2 LT PUSH8 0xFFFFFFFFFFFFFFFF DUP3 GT OR ISZERO PUSH2 0x1016 JUMPI PUSH2 0x1015 PUSH2 0xFBF JUMP JUMPDEST JUMPDEST DUP1 PUSH1 0x40 MSTORE POP POP POP JUMP JUMPDEST PUSH1 0x0 PUSH2 0x1029 PUSH2 0xF95 JUMP JUMPDEST SWAP1 POP PUSH2 0x1035 DUP3 DUP3 PUSH2 0xFEE JUMP JUMPDEST SWAP2 SWAP1 POP JUMP JUMPDEST PUSH1 0x0 PUSH8 0xFFFFFFFFFFFFFFFF DUP3 GT ISZERO PUSH2 0x1055 JUMPI PUSH2 0x1054 PUSH2 0xFBF JUMP JUMPDEST JUMPDEST PUSH1 0x20 DUP3 MUL SWAP1 POP PUSH1 0x20 DUP2 ADD SWAP1 POP SWAP2 SWAP1 POP JUMP JUMPDEST PUSH1 0x0 DUP1 REVERT JUMPDEST PUSH1 0x0 DUP2 SWAP1 POP SWAP2 SWAP1 POP JUMP JUMPDEST PUSH2 0x107E DUP2 PUSH2 0x106B JUMP JUMPDEST DUP2 EQ PUSH2 0x1089 JUMPI PUSH1 0x0 DUP1 REVERT JUMPDEST POP JUMP JUMPDEST PUSH1 0x0 DUP2 CALLDATALOAD SWAP1 POP PUSH2 0x109B DUP2 PUSH2 0x1075 JUMP JUMPDEST SWAP3 SWAP2 POP POP JUMP JUMPDEST PUSH1 0x0 PUSH2 0x10B4 PUSH2 0x10AF DUP5 PUSH2 0x103A JUMP JUMPDEST PUSH2 0x101F JUMP JUMPDEST SWAP1 POP DUP1 DUP4 DUP3 MSTORE PUSH1 0x20 DUP3 ADD SWAP1 POP PUSH1 0x20 DUP5 MUL DUP4 ADD DUP6 DUP2 GT ISZERO PUSH2 0x10D7 JUMPI PUSH2 0x10D6 PUSH2 0x1066 JUMP JUMPDEST JUMPDEST DUP4 JUMPDEST DUP2 DUP2 LT ISZERO PUSH2 0x1100 JUMPI DUP1 PUSH2 0x10EC DUP9 DUP3 PUSH2 0x108C JUMP JUMPDEST DUP5 MSTORE PUSH1 0x20 DUP5 ADD SWAP4 POP POP PUSH1 0x20 DUP2 ADD SWAP1 POP PUSH2 0x10D9 JUMP JUMPDEST POP POP POP SWAP4 SWAP3 POP POP POP JUMP JUMPDEST PUSH1 0x0 DUP3 PUSH1 0x1F DUP4 ADD SLT PUSH2 0x111F JUMPI PUSH2 0x111E PUSH2 0xFA9 JUMP JUMPDEST JUMPDEST DUP2 CALLDATALOAD PUSH2 0x112F DUP5 DUP3 PUSH1 0x20 DUP7 ADD PUSH2 0x10A1 JUMP JUMPDEST SWAP2 POP POP SWAP3 SWAP2 POP POP JUMP JUMPDEST PUSH1 0x0 PUSH1 0x20 DUP3 DUP5 SUB SLT ISZERO PUSH2 0x114E JUMPI PUSH2 0x114D PUSH2 0xF9F JUMP JUMPDEST JUMPDEST PUSH1 0x0 DUP3 ADD CALLDATALOAD PUSH8 0xFFFFFFFFFFFFFFFF DUP2 GT ISZERO PUSH2 0x116C JUMPI PUSH2 0x116B PUSH2 0xFA4 JUMP JUMPDEST JUMPDEST PUSH2 0x1178 DUP5 DUP3 DUP6 ADD PUSH2 0x110A JUMP JUMPDEST SWAP2 POP POP SWAP3 SWAP2 POP POP JUMP JUMPDEST PUSH1 0x0 DUP2 MLOAD SWAP1 POP SWAP2 SWAP1 POP JUMP JUMPDEST PUSH1 0x0 DUP3 DUP3 MSTORE PUSH1 0x20 DUP3 ADD SWAP1 POP SWAP3 SWAP2 POP POP JUMP JUMPDEST PUSH1 0x0 DUP2 SWAP1 POP PUSH1 0x20 DUP3 ADD SWAP1 POP SWAP2 SWAP1 POP JUMP JUMPDEST PUSH2 0x11B6 DUP2 PUSH2 0x106B JUMP JUMPDEST DUP3 MSTORE POP POP JUMP JUMPDEST PUSH1 0x0 PUSH2 0x11C8 DUP4 DUP4 PUSH2 0x11AD JUMP JUMPDEST PUSH1 0x20 DUP4 ADD SWAP1 POP SWAP3 SWAP2 POP POP JUMP JUMPDEST PUSH1 0x0 PUSH1 0x20 DUP3 ADD SWAP1 POP SWAP2 SWAP1 POP JUMP JUMPDEST PUSH1 0x0 PUSH2 0x11EC DUP3 PUSH2 0x1181 JUMP JUMPDEST PUSH2 0x11F6 DUP2 DUP6 PUSH2 0x118C JUMP JUMPDEST SWAP4 POP PUSH2 0x1201 DUP4 PUSH2 0x119D JUMP JUMPDEST DUP1 PUSH1 0x0 JUMPDEST DUP4 DUP2 LT ISZERO PUSH2 0x1232 JUMPI DUP2 MLOAD PUSH2 0x1219 DUP9 DUP3 PUSH2 0x11BC JUMP JUMPDEST SWAP8 POP PUSH2 0x1224 DUP4 PUSH2 0x11D4 JUMP JUMPDEST SWAP3 POP POP PUSH1 0x1 DUP2 ADD SWAP1 POP PUSH2 0x1205 JUMP JUMPDEST POP DUP6 SWAP4 POP POP POP POP SWAP3 SWAP2 POP POP JUMP JUMPDEST PUSH1 0x0 PUSH1 0x20 DUP3 ADD SWAP1 POP DUP2 DUP2 SUB PUSH1 0x0 DUP4 ADD MSTORE PUSH2 0x1259 DUP2 DUP5 PUSH2 0x11E1 JUMP JUMPDEST SWAP1 POP SWAP3 SWAP2 POP POP JUMP JUMPDEST PUSH1 0x0 DUP1 REVERT JUMPDEST PUSH1 0x0 DUP1 DUP4 PUSH1 0x1F DUP5 ADD SLT PUSH2 0x127C JUMPI PUSH2 0x127B PUSH2 0xFA9 JUMP JUMPDEST JUMPDEST DUP3 CALLDATALOAD SWAP1 POP PUSH8 0xFFFFFFFFFFFFFFFF DUP2 GT ISZERO PUSH2 0x1299 JUMPI PUSH2 0x1298 PUSH2 0x1261 JUMP JUMPDEST JUMPDEST PUSH1 0x20 DUP4 ADD SWAP2 POP DUP4 PUSH1 0x1 DUP3 MUL DUP4 ADD GT ISZERO PUSH2 0x12B5 JUMPI PUSH2 0x12B4 PUSH2 0x1066 JUMP JUMPDEST JUMPDEST SWAP3 POP SWAP3 SWAP1 POP JUMP JUMPDEST PUSH1 0x0 DUP1 PUSH1 0x0 DUP1 PUSH1 0x40 DUP6 DUP8 SUB SLT ISZERO PUSH2 0x12D6 JUMPI PUSH2 0x12D5 PUSH2 0xF9F JUMP JUMPDEST JUMPDEST PUSH1 0x0 DUP6 ADD CALLDATALOAD PUSH8 0xFFFFFFFFFFFFFFFF DUP2 GT ISZERO PUSH2 0x12F4 JUMPI PUSH2 0x12F3 PUSH2 0xFA4 JUMP JUMPDEST JUMPDEST PUSH2 0x1300 DUP8 DUP3 DUP9 ADD PUSH2 0x1266 JUMP JUMPDEST SWAP5 POP SWAP5 POP POP PUSH1 0x20 DUP6 ADD CALLDATALOAD PUSH8 0xFFFFFFFFFFFFFFFF DUP2 GT ISZERO PUSH2 0x1323 JUMPI PUSH2 0x1322 PUSH2 0xFA4 JUMP JUMPDEST JUMPDEST PUSH2 0x132F DUP8 DUP3 DUP9 ADD PUSH2 0x1266 JUMP JUMPDEST SWAP3 POP SWAP3 POP POP SWAP3 SWAP6 SWAP2 SWAP5 POP SWAP3 POP JUMP JUMPDEST PUSH1 0x0 DUP2 MLOAD SWAP1 POP SWAP2 SWAP1 POP JUMP JUMPDEST PUSH1 0x0 DUP3 DUP3 MSTORE PUSH1 0x20 DUP3 ADD SWAP1 POP SWAP3 SWAP2 POP POP JUMP JUMPDEST PUSH1 0x0 JUMPDEST DUP4 DUP2 LT ISZERO PUSH2 0x1377 JUMPI DUP1 DUP3 ADD MLOAD DUP2 DUP5 ADD MSTORE PUSH1 0x20 DUP2 ADD SWAP1 POP PUSH2 0x135C JUMP JUMPDEST PUSH1 0x0 DUP5 DUP5 ADD MSTORE POP POP POP POP JUMP JUMPDEST PUSH1 0x0 PUSH2 0x138E DUP3 PUSH2 0x133D JUMP JUMPDEST PUSH2 0x1398 DUP2 DUP6 PUSH2 0x1348 JUMP JUMPDEST SWAP4 POP PUSH2 0x13A8 DUP2 DUP6 PUSH1 0x20 DUP7 ADD PUSH2 0x1359 JUMP JUMPDEST PUSH2 0x13B1 DUP2 PUSH2 0xFAE JUMP JUMPDEST DUP5 ADD SWAP2 POP POP SWAP3 SWAP2 POP POP JUMP JUMPDEST PUSH1 0x0 PUSH1 0x20 DUP3 ADD SWAP1 POP DUP2 DUP2 SUB PUSH1 0x0 DUP4 ADD MSTORE PUSH2 0x13D6 DUP2 DUP5 PUSH2 0x1383 JUMP JUMPDEST SWAP1 POP SWAP3 SWAP2 POP POP JUMP JUMPDEST PUSH1 0x0 DUP3 DUP3 MSTORE PUSH1 0x20 DUP3 ADD SWAP1 POP SWAP3 SWAP2 POP POP JUMP JUMPDEST PUSH1 0x0 PUSH2 0x13FA DUP3 PUSH2 0x133D JUMP JUMPDEST PUSH2 0x1404 DUP2 DUP6 PUSH2 0x13DE JUMP JUMPDEST SWAP4 POP PUSH2 0x1414 DUP2 DUP6 PUSH1 0x20 DUP7 ADD PUSH2 0x1359 JUMP JUMPDEST PUSH2 0x141D DUP2 PUSH2 0xFAE JUMP JUMPDEST DUP5 ADD SWAP2 POP POP SWAP3 SWAP2 POP POP JUMP JUMPDEST PUSH1 0x0 DUP2 SWAP1 POP SWAP2 SWAP1 POP JUMP JUMPDEST PUSH2 0x143B DUP2 PUSH2 0x1428 JUMP JUMPDEST DUP3 MSTORE POP POP JUMP JUMPDEST PUSH1 0x0 PUSH1 0x60 DUP4 ADD PUSH1 0x0 DUP4 ADD MLOAD DUP5 DUP3 SUB PUSH1 0x0 DUP7 ADD MSTORE PUSH2 0x145E DUP3 DUP3 PUSH2 0x13EF JUMP JUMPDEST SWAP2 POP POP PUSH1 0x20 DUP4 ADD MLOAD PUSH2 0x1473 PUSH1 0x20 DUP7 ADD DUP3 PUSH2 0x1432 JUMP JUMPDEST POP PUSH1 0x40 DUP4 ADD MLOAD PUSH2 0x1486 PUSH1 0x40 DUP7 ADD DUP3 PUSH2 0x1432 JUMP JUMPDEST POP DUP1 SWAP2 POP POP SWAP3 SWAP2 POP POP JUMP JUMPDEST PUSH1 0x0 PUSH1 0x20 DUP3 ADD SWAP1 POP DUP2 DUP2 SUB PUSH1 0x0 DUP4 ADD MSTORE PUSH2 0x14AB DUP2 DUP5 PUSH2 0x1441 JUMP JUMPDEST SWAP1 POP SWAP3 SWAP2 POP POP JUMP JUMPDEST PUSH1 0x0 DUP2 ISZERO ISZERO SWAP1 POP SWAP2 SWAP1 POP JUMP JUMPDEST PUSH2 0x14C8 DUP2 PUSH2 0x14B3 JUMP JUMPDEST DUP3 MSTORE POP POP JUMP JUMPDEST PUSH1 0x0 PUSH1 0x20 DUP3 ADD SWAP1 POP PUSH2 0x14E3 PUSH1 0x0 DUP4 ADD DUP5 PUSH2 0x14BF JUMP JUMPDEST SWAP3 SWAP2 POP POP JUMP JUMPDEST PUSH2 0x14F2 DUP2 PUSH2 0x1428 JUMP JUMPDEST DUP2 EQ PUSH2 0x14FD JUMPI PUSH1 0x0 DUP1 REVERT JUMPDEST POP JUMP JUMPDEST PUSH1 0x0 DUP2 CALLDATALOAD SWAP1 POP PUSH2 0x150F DUP2 PUSH2 0x14E9 JUMP JUMPDEST SWAP3 SWAP2 POP POP JUMP JUMPDEST PUSH1 0x0 DUP1 PUSH1 0x40 DUP4 DUP6 SUB SLT ISZERO PUSH2 0x152C JUMPI PUSH2 0x152B PUSH2 0xF9F JUMP JUMPDEST JUMPDEST PUSH1 0x0 PUSH2 0x153A DUP6 DUP3 DUP7 ADD PUSH2 0x108C JUMP JUMPDEST SWAP3 POP POP PUSH1 0x20 PUSH2 0x154B DUP6 DUP3 DUP7 ADD PUSH2 0x1500 JUMP JUMPDEST SWAP2 POP POP SWAP3 POP SWAP3 SWAP1 POP JUMP JUMPDEST PUSH1 0x0 DUP2 SWAP1 POP DUP3 PUSH1 0x20 PUSH1 0x4 MUL DUP3 ADD GT ISZERO PUSH2 0x1571 JUMPI PUSH2 0x1570 PUSH2 0x1066 JUMP JUMPDEST JUMPDEST SWAP3 SWAP2 POP POP JUMP JUMPDEST PUSH1 0x0 PUSH1 0x80 DUP3 DUP5 SUB SLT ISZERO PUSH2 0x158D JUMPI PUSH2 0x158C PUSH2 0xF9F JUMP JUMPDEST JUMPDEST PUSH1 0x0 PUSH2 0x159B DUP5 DUP3 DUP6 ADD PUSH2 0x1555 JUMP JUMPDEST SWAP2 POP POP SWAP3 SWAP2 POP POP JUMP JUMPDEST PUSH2 0x15AD DUP2 PUSH2 0x106B JUMP JUMPDEST DUP3 MSTORE POP POP JUMP JUMPDEST PUSH1 0x0 PUSH1 0x20 DUP3 ADD SWAP1 POP PUSH2 0x15C8 PUSH1 0x0 DUP4 ADD DUP5 PUSH2 0x15A4 JUMP JUMPDEST SWAP3 SWAP2 POP POP JUMP JUMPDEST PUSH1 0x0 DUP1 PUSH1 0x0 DUP1 PUSH1 0x60 DUP6 DUP8 SUB SLT ISZERO PUSH2 0x15E8 JUMPI PUSH2 0x15E7 PUSH2 0xF9F JUMP JUMPDEST JUMPDEST PUSH1 0x0 DUP6 ADD CALLDATALOAD PUSH8 0xFFFFFFFFFFFFFFFF DUP2 GT ISZERO PUSH2 0x1606 JUMPI PUSH2 0x1605 PUSH2 0xFA4 JUMP JUMPDEST JUMPDEST PUSH2 0x1612 DUP8 DUP3 DUP9 ADD PUSH2 0x1266 JUMP JUMPDEST SWAP5 POP SWAP5 POP POP PUSH1 0x20 PUSH2 0x1625 DUP8 DUP3 DUP9 ADD PUSH2 0x1500 JUMP JUMPDEST SWAP3 POP POP PUSH1 0x40 PUSH2 0x1636 DUP8 DUP3 DUP9 ADD PUSH2 0x1500 JUMP JUMPDEST SWAP2 POP POP SWAP3 SWAP6 SWAP2 SWAP5 POP SWAP3 POP JUMP JUMPDEST PUSH1 0x0 DUP1 PUSH1 0x0 PUSH1 0x40 DUP5 DUP7 SUB SLT ISZERO PUSH2 0x165B JUMPI PUSH2 0x165A PUSH2 0xF9F JUMP JUMPDEST JUMPDEST PUSH1 0x0 DUP5 ADD CALLDATALOAD PUSH8 0xFFFFFFFFFFFFFFFF DUP2 GT ISZERO PUSH2 0x1679 JUMPI PUSH2 0x1678 PUSH2 0xFA4 JUMP JUMPDEST JUMPDEST PUSH2 0x1685 DUP7 DUP3 DUP8 ADD PUSH2 0x1266 JUMP JUMPDEST SWAP4 POP SWAP4 POP POP PUSH1 0x20 PUSH2 0x1698 DUP7 DUP3 DUP8 ADD PUSH2 0x1500 JUMP JUMPDEST SWAP2 POP POP SWAP3 POP SWAP3 POP SWAP3 JUMP JUMPDEST PUSH1 0x0 PUSH8 0xFFFFFFFFFFFFFFFF DUP3 GT ISZERO PUSH2 0x16BD JUMPI PUSH2 0x16BC PUSH2 0xFBF JUMP JUMPDEST JUMPDEST PUSH1 0x20 DUP3 MUL SWAP1 POP SWAP2 SWAP1 POP JUMP JUMPDEST PUSH1 0x0 PUSH2 0x16DB PUSH2 0x16D6 DUP5 PUSH2 0x16A2 JUMP JUMPDEST PUSH2 0x101F JUMP JUMPDEST SWAP1 POP DUP1 PUSH1 0x20 DUP5 MUL DUP4 ADD DUP6 DUP2 GT ISZERO PUSH2 0x16F5 JUMPI PUSH2 0x16F4 PUSH2 0x1066 JUMP JUMPDEST JUMPDEST DUP4 JUMPDEST DUP2 DUP2 LT ISZERO PUSH2 0x171E JUMPI DUP1 PUSH2 0x170A DUP9 DUP3 PUSH2 0x108C JUMP JUMPDEST DUP5 MSTORE PUSH1 0x20 DUP5 ADD SWAP4 POP POP PUSH1 0x20 DUP2 ADD SWAP1 POP PUSH2 0x16F7 JUMP JUMPDEST POP POP POP SWAP4 SWAP3 POP POP POP JUMP JUMPDEST PUSH1 0x0 DUP3 PUSH1 0x1F DUP4 ADD SLT PUSH2 0x173D JUMPI PUSH2 0x173C PUSH2 0xFA9 JUMP JUMPDEST JUMPDEST PUSH1 0x5 PUSH2 0x174A DUP5 DUP3 DUP6 PUSH2 0x16C8 JUMP JUMPDEST SWAP2 POP POP SWAP3 SWAP2 POP POP JUMP JUMPDEST PUSH1 0x0 PUSH1 0xA0 DUP3 DUP5 SUB SLT ISZERO PUSH2 0x1769 JUMPI PUSH2 0x1768 PUSH2 0xF9F JUMP JUMPDEST JUMPDEST PUSH1 0x0 PUSH2 0x1777 DUP5 DUP3 DUP6 ADD PUSH2 0x1728 JUMP JUMPDEST SWAP2 POP POP SWAP3 SWAP2 POP POP JUMP JUMPDEST PUSH1 0x0 PUSH1 0x5 SWAP1 POP SWAP2 SWAP1 POP JUMP JUMPDEST PUSH1 0x0 DUP2 SWAP1 POP SWAP3 SWAP2 POP POP JUMP JUMPDEST PUSH1 0x0 DUP2 SWAP1 POP SWAP2 SWAP1 POP JUMP JUMPDEST PUSH1 0x0 PUSH1 0x20 DUP3 ADD SWAP1 POP SWAP2 SWAP1 POP JUMP JUMPDEST PUSH2 0x17B6 DUP2 PUSH2 0x1780 JUMP JUMPDEST PUSH2 0x17C0 DUP2 DUP5 PUSH2 0x178B JUMP JUMPDEST SWAP3 POP PUSH2 0x17CB DUP3 PUSH2 0x1796 JUMP JUMPDEST DUP1 PUSH1 0x0 JUMPDEST DUP4 DUP2 LT ISZERO PUSH2 0x17FC JUMPI DUP2 MLOAD PUSH2 0x17E3 DUP8 DUP3 PUSH2 0x11BC JUMP JUMPDEST SWAP7 POP PUSH2 0x17EE DUP4 PUSH2 0x17A0 JUMP JUMPDEST SWAP3 POP POP PUSH1 0x1 DUP2 ADD SWAP1 POP PUSH2 0x17CF JUMP JUMPDEST POP POP POP POP POP POP JUMP JUMPDEST PUSH1 0x0 PUSH1 0xA0 DUP3 ADD SWAP1 POP PUSH2 0x1819 PUSH1 0x0 DUP4 ADD DUP5 PUSH2 0x17AD JUMP JUMPDEST SWAP3 SWAP2 POP POP JUMP JUMPDEST PUSH1 0x0 PUSH1 0x3 SWAP1 POP SWAP2 SWAP1 POP JUMP JUMPDEST PUSH1 0x0 DUP2 SWAP1 POP SWAP3 SWAP2 POP POP JUMP JUMPDEST PUSH1 0x0 DUP2 SWAP1 POP SWAP2 SWAP1 POP JUMP JUMPDEST PUSH1 0x0 PUSH2 0x184B DUP4 DUP4 PUSH2 0x1432 JUMP JUMPDEST PUSH1 0x20 DUP4 ADD SWAP1 POP SWAP3 SWAP2 POP POP JUMP JUMPDEST PUSH1 0x0 PUSH1 0x20 DUP3 ADD SWAP1 POP SWAP2 SWAP1 POP JUMP JUMPDEST PUSH2 0x186D DUP2 PUSH2 0x181F JUMP JUMPDEST PUSH2 0x1877 DUP2 DUP5 PUSH2 0x182A JUMP JUMPDEST SWAP3 POP PUSH2 0x1882 DUP3 PUSH2 0x1835 JUMP JUMPDEST DUP1 PUSH1 0x0 JUMPDEST DUP4 DUP2 LT ISZERO PUSH2 0x18B3 JUMPI DUP2 MLOAD PUSH2 0x189A DUP8 DUP3 PUSH2 0x183F JUMP JUMPDEST SWAP7 POP PUSH2 0x18A5 DUP4 PUSH2 0x1857 JUMP JUMPDEST SWAP3 POP POP PUSH1 0x1 DUP2 ADD SWAP1 POP PUSH2 0x1886 JUMP JUMPDEST POP POP POP POP POP POP JUMP JUMPDEST PUSH1 0x0 PUSH1 0x60 DUP3 ADD SWAP1 POP PUSH2 0x18D0 PUSH1 0x0 DUP4 ADD DUP5 PUSH2 0x1864 JUMP JUMPDEST SWAP3 SWAP2 POP POP JUMP JUMPDEST PUSH1 0x0 PUSH1 0x20 DUP3 DUP5 SUB SLT ISZERO PUSH2 0x18EC JUMPI PUSH2 0x18EB PUSH2 0xF9F JUMP JUMPDEST JUMPDEST PUSH1 0x0 PUSH2 0x18FA DUP5 DUP3 DUP6 ADD PUSH2 0x1500 JUMP JUMPDEST SWAP2 POP POP SWAP3 SWAP2 POP POP JUMP JUMPDEST PUSH32 0x4E487B7100000000000000000000000000000000000000000000000000000000 PUSH1 0x0 MSTORE PUSH1 0x11 PUSH1 0x4 MSTORE PUSH1 0x24 PUSH1 0x0 REVERT JUMPDEST PUSH1 0x0 PUSH2 0x193D DUP3 PUSH2 0x1428 JUMP JUMPDEST SWAP2 POP PUSH2 0x1948 DUP4 PUSH2 0x1428 JUMP JUMPDEST SWAP3 POP DUP3 DUP3 SUB SWAP1 POP DUP2 DUP2 GT ISZERO PUSH2 0x1960 JUMPI PUSH2 0x195F PUSH2 0x1903 JUMP JUMPDEST JUMPDEST SWAP3 SWAP2 POP POP JUMP JUMPDEST PUSH32 0x4E487B7100000000000000000000000000000000000000000000000000000000 PUSH1 0x0 MSTORE PUSH1 0x32 PUSH1 0x4 MSTORE PUSH1 0x24 PUSH1 0x0 REVERT JUMPDEST PUSH1 0x0 PUSH2 0x19A0 DUP3 PUSH2 0x1428 JUMP JUMPDEST SWAP2 POP PUSH32 0xFFFFFFFFFFFFFFFFFFFFFFFFFFFFFFFFFFFFFFFFFFFFFFFFFFFFFFFFFFFFFFFF DUP3 SUB PUSH2 0x19D2 JUMPI PUSH2 0x19D1 PUSH2 0x1903 JUMP JUMPDEST JUMPDEST PUSH1 0x1 DUP3 ADD SWAP1 POP SWAP2 SWAP1 POP JUMP JUMPDEST PUSH1 0x0 DUP2 SWAP1 POP SWAP3 SWAP2 POP POP JUMP JUMPDEST DUP3 DUP2 DUP4 CALLDATACOPY PUSH1 0x0 DUP4 DUP4 ADD MSTORE POP POP POP JUMP JUMPDEST PUSH1 0x0 PUSH2 0x1A03 DUP4 DUP6 PUSH2 0x19DD JUMP JUMPDEST SWAP4 POP PUSH2 0x1A10 DUP4 DUP6 DUP5 PUSH2 0x19E8 JUMP JUMPDEST DUP3 DUP5 ADD SWAP1 POP SWAP4 SWAP3 POP POP POP JUMP JUMPDEST PUSH1 0x0 PUSH2 0x1A29 DUP3 DUP7 DUP9 PUSH2 0x19F7 JUMP JUMPDEST SWAP2 POP PUSH2 0x1A36 DUP3 DUP5 DUP7 PUSH2 0x19F7 JUMP JUMPDEST SWAP2 POP DUP2 SWAP1 POP SWAP6 SWAP5 POP POP POP POP POP JUMP JUMPDEST PUSH32 0x4E487B7100000000000000000000000000000000000000000000000000000000 PUSH1 0x0 MSTORE PUSH1 0x22 PUSH1 0x4 MSTORE PUSH1 0x24 PUSH1 0x0 REVERT JUMPDEST PUSH1 0x0 PUSH1 0x2 DUP3 DIV SWAP1 POP PUSH1 0x1 DUP3 AND DUP1 PUSH2 0x1A8B JUMPI PUSH1 0x7F DUP3 AND SWAP2 POP JUMPDEST PUSH1 0x20 DUP3 LT DUP2 SUB PUSH2 0x1A9E JUMPI PUSH2 0x1A9D PUSH2 0x1A44 JUMP JUMPDEST JUMPDEST POP SWAP2 SWAP1 POP JUMP JUMPDEST PUSH1 0x0 DUP2 SWAP1 POP DUP2 PUSH1 0x0 MSTORE PUSH1 0x20 PUSH1 0x0 KECCAK256 SWAP1 POP SWAP2 SWAP1 POP JUMP JUMPDEST PUSH1 0x0 PUSH1 0x20 PUSH1 0x1F DUP4 ADD DIV SWAP1 POP SWAP2 SWAP1 POP JUMP JUMPDEST PUSH1 0x0 DUP3 DUP3 SHL SWAP1 POP SWAP3 SWAP2 POP POP JUMP JUMPDEST PUSH1 0x0 PUSH1 0x8 DUP4 MUL PUSH2 0x1B06 PUSH32 0xFFFFFFFFFFFFFFFFFFFFFFFFFFFFFFFFFFFFFFFFFFFFFFFFFFFFFFFFFFFFFFFF DUP3 PUSH2 0x1AC9 JUMP JUMPDEST PUSH2 0x1B10 DUP7 DUP4 PUSH2 0x1AC9 JUMP JUMPDEST SWAP6 POP DUP1 NOT DUP5 AND SWAP4 POP DUP1 DUP7 AND DUP5 OR SWAP3 POP POP POP SWAP4 SWAP3 POP POP POP JUMP JUMPDEST PUSH1 0x0 DUP2 SWAP1 POP SWAP2 SWAP1 POP JUMP JUMPDEST PUSH1 0x0 PUSH2 0x1B4D PUSH2 0x1B48 PUSH2 0x1B43 DUP5 PUSH2 0x1428 JUMP JUMPDEST PUSH2 0x1B28 JUMP JUMPDEST PUSH2 0x1428 JUMP JUMPDEST SWAP1 POP SWAP2 SWAP1 POP JUMP JUMPDEST PUSH1 0x0 DUP2 SWAP1 POP SWAP2 SWAP1 POP JUMP JUMPDEST PUSH2 0x1B67 DUP4 PUSH2 0x1B32 JUMP JUMPDEST PUSH2 0x1B7B PUSH2 0x1B73 DUP3 PUSH2 0x1B54 JUMP JUMPDEST DUP5 DUP5 SLOAD PUSH2 0x1AD6 JUMP JUMPDEST DUP3 SSTORE POP POP POP POP JUMP JUMPDEST PUSH1 0x0 SWAP1 JUMP JUMPDEST PUSH2 0x1B90 PUSH2 0x1B83 JUMP JUMPDEST PUSH2 0x1B9B DUP2 DUP5 DUP5 PUSH2 0x1B5E JUMP JUMPDEST POP POP POP JUMP JUMPDEST JUMPDEST DUP2 DUP2 LT ISZERO PUSH2 0x1BBF JUMPI PUSH2 0x1BB4 PUSH1 0x0 DUP3 PUSH2 0x1B88 JUMP JUMPDEST PUSH1 0x1 DUP2 ADD SWAP1 POP PUSH2 0x1BA1 JUMP JUMPDEST POP POP JUMP JUMPDEST PUSH1 0x1F DUP3 GT ISZERO PUSH2 0x1C04 JUMPI PUSH2 0x1BD5 DUP2 PUSH2 0x1AA4 JUMP JUMPDEST PUSH2 0x1BDE DUP5 PUSH2 0x1AB9 JUMP JUMPDEST DUP2 ADD PUSH1 0x20 DUP6 LT ISZERO PUSH2 0x1BED JUMPI DUP2 SWAP1 POP JUMPDEST PUSH2 0x1C01 PUSH2 0x1BF9 DUP6 PUSH2 0x1AB9 JUMP JUMPDEST DUP4 ADD DUP3 PUSH2 0x1BA0 JUMP JUMPDEST POP POP JUMPDEST POP POP POP JUMP JUMPDEST PUSH1 0x0 DUP3 DUP3 SHR SWAP1 POP SWAP3 SWAP2 POP POP JUMP JUMPDEST PUSH1 0x0 PUSH2 0x1C27 PUSH1 0x0 NOT DUP5 PUSH1 0x8 MUL PUSH2 0x1C09 JUMP JUMPDEST NOT DUP1 DUP4 AND SWAP2 POP POP SWAP3 SWAP2 POP POP JUMP JUMPDEST PUSH1 0x0 PUSH2 0x1C40 DUP4 DUP4 PUSH2 0x1C16 JUMP JUMPDEST SWAP2 POP DUP3 PUSH1 0x2 MUL DUP3 OR SWAP1 POP SWAP3 SWAP2 POP POP JUMP JUMPDEST PUSH2 0x1C59 DUP3 PUSH2 0x133D JUMP JUMPDEST PUSH8 0xFFFFFFFFFFFFFFFF DUP2 GT ISZERO PUSH2 0x1C72 JUMPI PUSH2 0x1C71 PUSH2 0xFBF JUMP JUMPDEST JUMPDEST PUSH2 0x1C7C DUP3 SLOAD PUSH2 0x1A73 JUMP JUMPDEST PUSH2 0x1C87 DUP3 DUP3 DUP6 PUSH2 0x1BC3 JUMP JUMPDEST PUSH1 0x0 PUSH1 0x20 SWAP1 POP PUSH1 0x1F DUP4 GT PUSH1 0x1 DUP2 EQ PUSH2 0x1CBA JUMPI PUSH1 0x0 DUP5 ISZERO PUSH2 0x1CA8 JUMPI DUP3 DUP8 ADD MLOAD SWAP1 POP JUMPDEST PUSH2 0x1CB2 DUP6 DUP3 PUSH2 0x1C34 JUMP JUMPDEST DUP7 SSTORE POP PUSH2 0x1D1A JUMP JUMPDEST PUSH1 0x1F NOT DUP5 AND PUSH2 0x1CC8 DUP7 PUSH2 0x1AA4 JUMP JUMPDEST PUSH1 0x0 JUMPDEST DUP3 DUP2 LT ISZERO PUSH2 0x1CF0 JUMPI DUP5 DUP10 ADD MLOAD DUP3 SSTORE PUSH1 0x1 DUP3 ADD SWAP2 POP PUSH1 0x20 DUP6 ADD SWAP5 POP PUSH1 0x20 DUP2 ADD SWAP1 POP PUSH2 0x1CCB JUMP JUMPDEST DUP7 DUP4 LT ISZERO PUSH2 0x1D0D JUMPI DUP5 DUP10 ADD MLOAD PUSH2 0x1D09 PUSH1 0x1F DUP10 AND DUP3 PUSH2 0x1C16 JUMP JUMPDEST DUP4 SSTORE POP JUMPDEST PUSH1 0x1 PUSH1 0x2 DUP9 MUL ADD DUP9 SSTORE POP POP POP JUMPDEST POP POP POP POP POP POP JUMP JUMPDEST PUSH32 0x6D61746873000000000000000000000000000000000000000000000000000000 PUSH1 0x0 DUP3 ADD MSTORE POP JUMP JUMPDEST PUSH1 0x0 PUSH2 0x1D58 PUSH1 0x5 DUP4 PUSH2 0x19DD JUMP JUMPDEST SWAP2 POP PUSH2 0x1D63 DUP3 PUSH2 0x1D22 JUMP JUMPDEST PUSH1 0x5 DUP3 ADD SWAP1 POP SWAP2 SWAP1 POP JUMP JUMPDEST PUSH1 0x0 PUSH2 0x1D79 DUP3 PUSH2 0x1D4B JUMP JUMPDEST SWAP2 POP DUP2 SWAP1 POP SWAP2 SWAP1 POP JUMP JUMPDEST PUSH1 0x0 PUSH2 0x1D90 DUP3 DUP5 DUP7 PUSH2 0x19F7 JUMP JUMPDEST SWAP2 POP DUP2 SWAP1 POP SWAP4 SWAP3 POP POP POP JUMP JUMPDEST PUSH32 0x656E676C69736800000000000000000000000000000000000000000000000000 PUSH1 0x0 DUP3 ADD MSTORE POP JUMP JUMPDEST PUSH1 0x0 PUSH2 0x1DD2 PUSH1 0x7 DUP4 PUSH2 0x19DD JUMP JUMPDEST SWAP2 POP PUSH2 0x1DDD DUP3 PUSH2 0x1D9C JUMP JUMPDEST PUSH1 0x7 DUP3 ADD SWAP1 POP SWAP2 SWAP1 POP JUMP JUMPDEST PUSH1 0x0 PUSH2 0x1DF3 DUP3 PUSH2 0x1DC5 JUMP JUMPDEST SWAP2 POP DUP2 SWAP1 POP SWAP2 SWAP1 POP JUMP JUMPDEST PUSH32 0x686973746F727900000000000000000000000000000000000000000000000000 PUSH1 0x0 DUP3 ADD MSTORE POP JUMP JUMPDEST PUSH1 0x0 PUSH2 0x1E33 PUSH1 0x7 DUP4 PUSH2 0x19DD JUMP JUMPDEST SWAP2 POP PUSH2 0x1E3E DUP3 PUSH2 0x1DFD JUMP JUMPDEST PUSH1 0x7 DUP3 ADD SWAP1 POP SWAP2 SWAP1 POP JUMP JUMPDEST PUSH1 0x0 PUSH2 0x1E54 DUP3 PUSH2 0x1E26 JUMP JUMPDEST SWAP2 POP DUP2 SWAP1 POP SWAP2 SWAP1 POP JUMP JUMPDEST PUSH1 0x0 PUSH2 0x1E69 DUP3 PUSH2 0x1428 JUMP JUMPDEST SWAP2 POP PUSH2 0x1E74 DUP4 PUSH2 0x1428 JUMP JUMPDEST SWAP3 POP DUP3 DUP3 ADD SWAP1 POP DUP1 DUP3 GT ISZERO PUSH2 0x1E8C JUMPI PUSH2 0x1E8B PUSH2 0x1903 JUMP JUMPDEST JUMPDEST SWAP3 SWAP2 POP POP JUMP JUMPDEST PUSH1 0x0 PUSH2 0x1E9D DUP3 PUSH2 0x106B JUMP JUMPDEST SWAP2 POP PUSH2 0x1EA8 DUP4 PUSH2 0x106B JUMP JUMPDEST SWAP3 POP DUP3 DUP3 ADD SWAP1 POP DUP3 DUP2 SLT ISZERO PUSH1 0x0 DUP4 SLT AND DUP4 DUP3 SLT PUSH1 0x0 DUP5 SLT ISZERO AND OR ISZERO PUSH2 0x1ED0 JUMPI PUSH2 0x1ECF PUSH2 0x1903 JUMP JUMPDEST JUMPDEST SWAP3 SWAP2 POP POP JUMP INVALID LOG2 PUSH5 0x6970667358 0x22 SLT KECCAK256 0xC8 RETURNDATASIZE PUSH3 0xB6CB98 PUSH19 0x29D9AA5F6DC01EAA4F49A2B7B21A3AD57E3199 0x5D 0xF ADD OR CALLDATACOPY DUP6 PUSH5 0x736F6C6343 STOP ADDMOD GT STOP CALLER "
		},
		"gasEstimates": {
			"creation": {
				"codeDepositCost": "1589600",
				"executionCost": "1666",
				"totalCost": "1591266"
			},
			"external": {
				"compareStr(string,string)": "infinite",
				"concatenate(string,string)": "infinite",
				"contains(uint256)": "infinite",
				"createOwnershipData()": "49126",
				"getMarks()": "infinite",
				"insertArr(int256,uint256)": "infinite",
				"largest(int256[4])": "infinite",
				"ownershipStatus()": "2747",
				"reverseArray(int256[])": "infinite",
				"sortArray(int256[5])": "infinite",
				"stdGetter()": "infinite",
				"stdSetter(string,uint256,uint256)": "infinite",
				"studentStruct()": "infinite",
				"sumArr(int256[])": "infinite",
				"transferOwnership()": "24635",
				"updateMarks(string,uint256)": "infinite"
			}
		},
		"methodIdentifiers": {
			"compareStr(string,string)": "87c5d5cc",
			"concatenate(string,string)": "266001d3",
			"contains(uint256)": "c34052e0",
			"createOwnershipData()": "e9ab789e",
			"getMarks()": "b780e507",
			"insertArr(int256,uint256)": "378ee557",
			"largest(int256[4])": "5e34f951",
			"ownershipStatus()": "2bb5a9e6",
			"reverseArray(int256[])": "06694a0a",
			"sortArray(int256[5])": "b02a0fda",
			"stdGetter()": "275a6de9",
			"stdSetter(string,uint256,uint256)": "68f40b04",
			"studentStruct()": "99998902",
			"sumArr(int256[])": "df3dafad",
			"transferOwnership()": "880ad0af",
			"updateMarks(string,uint256)": "797f6f7f"
		}
	},
	"abi": [
		{
			"inputs": [
				{
					"internalType": "string",
					"name": "_str1",
					"type": "string"
				},
				{
					"internalType": "string",
					"name": "_str2",
					"type": "string"
				}
			],
			"name": "compareStr",
			"outputs": [
				{
					"internalType": "bool",
					"name": "",
					"type": "bool"
				}
			],
			"stateMutability": "pure",
			"type": "function"
		},
		{
			"inputs": [
				{
					"internalType": "string",
					"name": "_str1",
					"type": "string"
				},
				{
					"internalType": "string",
					"name": "_str2",
					"type": "string"
				}
			],
			"name": "concatenate",
			"outputs": [
				{
					"internalType": "string",
					"name": "",
					"type": "string"
				}
			],
			"stateMutability": "pure",
			"type": "function"
		},
		{
			"inputs": [
				{
					"internalType": "uint256",
					"name": "_num",
					"type": "uint256"
				}
			],
			"name": "contains",
			"outputs": [
				{
					"internalType": "bool",
					"name": "",
					"type": "bool"
				}
			],
			"stateMutability": "pure",
			"type": "function"
		},
		{
			"inputs": [],
			"name": "createOwnershipData",
			"outputs": [],
			"stateMutability": "nonpayable",
			"type": "function"
		},
		{
			"inputs": [],
			"name": "getMarks",
			"outputs": [
				{
					"internalType": "uint256[3]",
					"name": "",
					"type": "uint256[3]"
				}
			],
			"stateMutability": "view",
			"type": "function"
		},
		{
			"inputs": [
				{
					"internalType": "int256",
					"name": "_num",
					"type": "int256"
				},
				{
					"internalType": "uint256",
					"name": "_index",
					"type": "uint256"
				}
			],
			"name": "insertArr",
			"outputs": [
				{
					"internalType": "int256[]",
					"name": "",
					"type": "int256[]"
				}
			],
			"stateMutability": "pure",
			"type": "function"
		},
		{
			"inputs": [
				{
					"internalType": "int256[4]",
					"name": "_arr",
					"type": "int256[4]"
				}
			],
			"name": "largest",
			"outputs": [
				{
					"internalType": "int256",
					"name": "",
					"type": "int256"
				}
			],
			"stateMutability": "pure",
			"type": "function"
		},
		{
			"inputs": [],
			"name": "ownershipStatus",
			"outputs": [
				{
					"internalType": "bool",
					"name": "",
					"type": "bool"
				}
			],
			"stateMutability": "view",
			"type": "function"
		},
		{
			"inputs": [
				{
					"internalType": "int256[]",
					"name": "_arr",
					"type": "int256[]"
				}
			],
			"name": "reverseArray",
			"outputs": [
				{
					"internalType": "int256[]",
					"name": "",
					"type": "int256[]"
				}
			],
			"stateMutability": "pure",
			"type": "function"
		},
		{
			"inputs": [
				{
					"internalType": "int256[5]",
					"name": "_arr",
					"type": "int256[5]"
				}
			],
			"name": "sortArray",
			"outputs": [
				{
					"internalType": "int256[5]",
					"name": "",
					"type": "int256[5]"
				}
			],
			"stateMutability": "pure",
			"type": "function"
		},
		{
			"inputs": [],
			"name": "stdGetter",
			"outputs": [
				{
					"components": [
						{
							"internalType": "string",
							"name": "name",
							"type": "string"
						},
						{
							"internalType": "uint256",
							"name": "rollNumber",
							"type": "uint256"
						},
						{
							"internalType": "uint256",
							"name": "age",
							"type": "uint256"
						}
					],
					"internalType": "struct Asg2.student",
					"name": "",
					"type": "tuple"
				}
			],
			"stateMutability": "view",
			"type": "function"
		},
		{
			"inputs": [
				{
					"internalType": "string",
					"name": "_name",
					"type": "string"
				},
				{
					"internalType": "uint256",
					"name": "_roll",
					"type": "uint256"
				},
				{
					"internalType": "uint256",
					"name": "_age",
					"type": "uint256"
				}
			],
			"name": "stdSetter",
			"outputs": [],
			"stateMutability": "nonpayable",
			"type": "function"
		},
		{
			"inputs": [],
			"name": "studentStruct",
			"outputs": [
				{
					"components": [
						{
							"internalType": "string",
							"name": "name",
							"type": "string"
						},
						{
							"internalType": "uint256",
							"name": "rollNumber",
							"type": "uint256"
						},
						{
							"internalType": "uint256",
							"name": "age",
							"type": "uint256"
						}
					],
					"internalType": "struct Asg2.student",
					"name": "",
					"type": "tuple"
				}
			],
			"stateMutability": "pure",
			"type": "function"
		},
		{
			"inputs": [
				{
					"internalType": "int256[]",
					"name": "_arr",
					"type": "int256[]"
				}
			],
			"name": "sumArr",
			"outputs": [
				{
					"internalType": "int256",
					"name": "",
					"type": "int256"
				}
			],
			"stateMutability": "pure",
			"type": "function"
		},
		{
			"inputs": [],
			"name": "transferOwnership",
			"outputs": [],
			"stateMutability": "nonpayable",
			"type": "function"
		},
		{
			"inputs": [
				{
					"internalType": "string",
					"name": "subject",
					"type": "string"
				},
				{
					"internalType": "uint256",
					"name": "mark",
					"type": "uint256"
				}
			],
			"name": "updateMarks",
			"outputs": [],
			"stateMutability": "nonpayable",
			"type": "function"
		}
	]
}