{
	"data": {
		"bytecode": {
			"linkReferences": {},
			"object": "608060405234801561001057600080fd5b506126f1806100206000396000f3fe608060405234801561001057600080fd5b506004361061014d5760003560e01c8063797f6f7f116100c3578063b780e5071161007c578063b780e5071461037a578063c34052e014610398578063d74070a6146103c8578063df3dafad146103e4578063e9ab789e14610414578063eaf24c151461041e5761014d565b8063797f6f7f146102cc57806387c5d5cc146102e8578063880ad0af146103185780639999890214610322578063b02a0fda14610340578063b536c426146103705761014d565b80632bb5a9e6116101155780632bb5a9e61461020a578063378ee5571461022857806359e57373146102585780635e34f9511461027657806368f40b04146102a65780636e9d8b9c146102c25761014d565b806306694a0a1461015257806311456b471461018257806317d7de7c1461019e578063266001d3146101bc578063275a6de9146101ec575b600080fd5b61016c6004803603810190610167919061169f565b610450565b60405161017991906117a6565b60405180910390f35b61019c6004803603810190610197919061187d565b61051b565b005b6101a6610553565b6040516101b39190611a07565b60405180910390f35b6101d660048036038101906101d19190611a84565b61062c565b6040516101e39190611b4f565b60405180910390f35b6101f461065e565b6040516102019190611bda565b60405180910390f35b61021261075b565b60405161021f9190611c17565b60405180910390f35b610242600480360381019061023d9190611c5e565b6107ec565b60405161024f91906117a6565b60405180910390f35b610260610866565b60405161026d9190611b4f565b60405180910390f35b610290600480360381019061028b9190611cc0565b610993565b60405161029d9190611cfc565b60405180910390f35b6102c060048036038101906102bb9190611d17565b610a08565b005b6102ca610ad9565b005b6102e660048036038101906102e19190611d8b565b610b06565b005b61030260048036038101906102fd9190611a84565b610d0f565b60405161030f9190611c17565b60405180910390f35b610320610d7c565b005b61032a610e27565b6040516103379190611bda565b60405180910390f35b61035a60048036038101906103559190611e9c565b610e8c565b6040516103679190611f4d565b60405180910390f35b610378610fb7565b005b610382610fe9565b60405161038f9190612004565b60405180910390f35b6103b260048036038101906103ad919061201f565b611071565b6040516103bf9190611c17565b60405180910390f35b6103e260048036038101906103dd9190611d17565b611108565b005b6103fe60048036038101906103f9919061169f565b6111b2565b60405161040b9190611cfc565b60405180910390f35b61041c611206565b005b6104386004803603810190610433919061201f565b611382565b6040516104479392919061205b565b60405180910390f35b60606000825167ffffffffffffffff81111561046f5761046e611526565b5b60405190808252806020026020018201604052801561049d5781602001602082028036833780820191505090505b50905060005b8351811015610511578381600186516104bc91906120c8565b6104c691906120c8565b815181106104d7576104d66120fc565b5b60200260200101518282815181106104f2576104f16120fc565b5b60200260200101818152505080806105099061212b565b9150506104a3565b5080915050919050565b60218190806001815401808255809150506001900390600052602060002001600090919091909150908161054f919061237f565b5050565b60606021805480602002602001604051908101604052809291908181526020016000905b82821015610623578382906000526020600020018054610596906121a2565b80601f01602080910402602001604051908101604052809291908181526020018280546105c2906121a2565b801561060f5780601f106105e45761010080835404028352916020019161060f565b820191906000526020600020905b8154815290600101906020018083116105f257829003601f168201915b505050505081526020019060010190610577565b50505050905090565b6060848484846040516020016106459493929190612481565b6040516020818303038152906040529050949350505050565b61066661143a565b601f60003373ffffffffffffffffffffffffffffffffffffffff1673ffffffffffffffffffffffffffffffffffffffff1681526020019081526020016000206040518060600160405290816000820180546106c0906121a2565b80601f01602080910402602001604051908101604052809291908181526020018280546106ec906121a2565b80156107395780601f1061070e57610100808354040283529160200191610739565b820191906000526020600020905b81548152906001019060200180831161071c57829003601f168201915b5050505050815260200160018201548152602001600282015481525050905090565b6000602060003373ffffffffffffffffffffffffffffffffffffffff1673ffffffffffffffffffffffffffffffffffffffff16815260200190815260200160002060003373ffffffffffffffffffffffffffffffffffffffff1673ffffffffffffffffffffffffffffffffffffffff16815260200190815260200160002060009054906101000a900460ff16905090565b60606000600a67ffffffffffffffff81111561080b5761080a611526565b5b6040519080825280602002602001820160405280156108395781602001602082028036833780820191505090505b509050838184815181106108505761084f6120fc565b5b6020026020010181815250508091505092915050565b60606000600281111561087c5761087b6124a9565b5b602260009054906101000a900460ff16600281111561089e5761089d6124a9565b5b036108e0576040518060400160405280600581526020017f534d414c4c0000000000000000000000000000000000000000000000000000008152509050610990565b6002808111156108f3576108f26124a9565b5b602260009054906101000a900460ff166002811115610915576109146124a9565b5b03610957576040518060400160405280600581526020017f4c415247450000000000000000000000000000000000000000000000000000008152509050610990565b6040518060400160405280600681526020017f4d454449554d000000000000000000000000000000000000000000000000000081525090505b90565b6000806000905060005b60048110156109fe5760008114806109cb57508381600481106109c3576109c26120fc565b5b602002013582125b156109eb578381600481106109e3576109e26120fc565b5b602002013591505b80806109f69061212b565b91505061099d565b5080915050919050565b604051806060016040528085858080601f016020809104026020016040519081016040528093929190818152602001838380828437600081840152601f19601f82011690508083019250505050505050815260200183815260200182815250601f60003373ffffffffffffffffffffffffffffffffffffffff1673ffffffffffffffffffffffffffffffffffffffff1681526020019081526020016000206000820151816000019081610abb919061237f565b50602082015181600101556040820151816002015590505050505050565b6001602260006101000a81548160ff02191690836002811115610aff57610afe6124a9565b5b0217905550565b604051602001610b1590612524565b604051602081830303815290604052805190602001208383604051602001610b3e929190612539565b6040516020818303038152906040528051906020012003610bb25780601e60003373ffffffffffffffffffffffffffffffffffffffff1673ffffffffffffffffffffffffffffffffffffffff168152602001908152602001600020600060038110610bac57610bab6120fc565b5b01819055505b604051602001610bc19061259e565b604051602081830303815290604052805190602001208383604051602001610bea929190612539565b6040516020818303038152906040528051906020012003610c5e5780601e60003373ffffffffffffffffffffffffffffffffffffffff1673ffffffffffffffffffffffffffffffffffffffff168152602001908152602001600020600160038110610c5857610c576120fc565b5b01819055505b604051602001610c6d906125ff565b604051602081830303815290604052805190602001208383604051602001610c96929190612539565b6040516020818303038152906040528051906020012003610d0a5780601e60003373ffffffffffffffffffffffffffffffffffffffff1673ffffffffffffffffffffffffffffffffffffffff168152602001908152602001600020600260038110610d0457610d036120fc565b5b01819055505b505050565b60008282604051602001610d24929190612539565b604051602081830303815290604052805190602001208585604051602001610d4d929190612539565b6040516020818303038152906040528051906020012014610d6f576000610d72565b60015b9050949350505050565b600160206000735b38da6a701c568545dcfcb03fcb875f56beddc473ffffffffffffffffffffffffffffffffffffffff1673ffffffffffffffffffffffffffffffffffffffff16815260200190815260200160002060003373ffffffffffffffffffffffffffffffffffffffff1673ffffffffffffffffffffffffffffffffffffffff16815260200190815260200160002060006101000a81548160ff021916908315150217905550565b610e2f61143a565b600060405180606001604052806040518060400160405280600581526020017f7961736572000000000000000000000000000000000000000000000000000000815250815260200160018152602001601d81525090508091505090565b610e9461145b565b60005b60016005610ea591906120c8565b811015610fae5760005b60016005610ebd91906120c8565b811015610f9a5783600182610ed29190612614565b60058110610ee357610ee26120fc565b5b6020020151848260058110610efb57610efa6120fc565b5b60200201511315610f875783600182610f149190612614565b60058110610f2557610f246120fc565b5b6020020151848260058110610f3d57610f3c6120fc565b5b6020020151858360058110610f5557610f546120fc565b5b6020020186600185610f679190612614565b60058110610f7857610f776120fc565b5b60200201828152508281525050505b8080610f929061212b565b915050610eaf565b508080610fa69061212b565b915050610e97565b50819050919050565b6021805480610fc957610fc8612648565b5b600190038181906000526020600020016000610fe5919061147d565b9055565b610ff16114bd565b601e60003373ffffffffffffffffffffffffffffffffffffffff1673ffffffffffffffffffffffffffffffffffffffff168152602001908152602001600020600380602002604051908101604052809291908260038015611067576020028201915b815481526020019060010190808311611053575b5050505050905090565b6000806040518060a00160405280600160ff168152602001600260ff168152602001600360ff168152602001600460ff168152602001600560ff16815250905060005b60058110156110fc57838282600581106110d1576110d06120fc565b5b602002015160ff16036110e957600192505050611103565b80806110f49061212b565b9150506110b4565b5060009150505b919050565b604051806060016040528085858080601f016020809104026020016040519081016040528093929190818152602001838380828437600081840152601f19601f82011690508083019250505050505050815260200183815260200182815250600083600a811061117b5761117a6120fc565b5b600302016000820151816000019081611194919061237f565b50602082015181600101556040820151816002015590505050505050565b60008060005b83518110156111fc578381815181106111d4576111d36120fc565b5b6020026020010151826111e79190612677565b915080806111f49061212b565b9150506111b8565b5080915050919050565b600060206000735b38da6a701c568545dcfcb03fcb875f56beddc473ffffffffffffffffffffffffffffffffffffffff1673ffffffffffffffffffffffffffffffffffffffff1681526020019081526020016000206000735b38da6a701c568545dcfcb03fcb875f56beddc473ffffffffffffffffffffffffffffffffffffffff1673ffffffffffffffffffffffffffffffffffffffff16815260200190815260200160002060006101000a81548160ff021916908315150217905550600060206000735b38da6a701c568545dcfcb03fcb875f56beddc473ffffffffffffffffffffffffffffffffffffffff1673ffffffffffffffffffffffffffffffffffffffff168152602001908152602001600020600073ab8483f64d9c6d1ecf9b849ae677dd3315835cb273ffffffffffffffffffffffffffffffffffffffff1673ffffffffffffffffffffffffffffffffffffffff16815260200190815260200160002060006101000a81548160ff021916908315150217905550565b600081600a811061139257600080fd5b600302016000915090508060000180546113ab906121a2565b80601f01602080910402602001604051908101604052809291908181526020018280546113d7906121a2565b80156114245780601f106113f957610100808354040283529160200191611424565b820191906000526020600020905b81548152906001019060200180831161140757829003601f168201915b5050505050908060010154908060020154905083565b60405180606001604052806060815260200160008152602001600081525090565b6040518060a00160405280600590602082028036833780820191505090505090565b508054611489906121a2565b6000825580601f1061149b57506114ba565b601f0160209004906000526020600020908101906114b991906114df565b5b50565b6040518060600160405280600390602082028036833780820191505090505090565b5b808211156114f85760008160009055506001016114e0565b5090565b6000604051905090565b600080fd5b600080fd5b600080fd5b6000601f19601f8301169050919050565b7f4e487b7100000000000000000000000000000000000000000000000000000000600052604160045260246000fd5b61155e82611515565b810181811067ffffffffffffffff8211171561157d5761157c611526565b5b80604052505050565b60006115906114fc565b905061159c8282611555565b919050565b600067ffffffffffffffff8211156115bc576115bb611526565b5b602082029050602081019050919050565b600080fd5b6000819050919050565b6115e5816115d2565b81146115f057600080fd5b50565b600081359050611602816115dc565b92915050565b600061161b611616846115a1565b611586565b9050808382526020820190506020840283018581111561163e5761163d6115cd565b5b835b81811015611667578061165388826115f3565b845260208401935050602081019050611640565b5050509392505050565b600082601f83011261168657611685611510565b5b8135611696848260208601611608565b91505092915050565b6000602082840312156116b5576116b4611506565b5b600082013567ffffffffffffffff8111156116d3576116d261150b565b5b6116df84828501611671565b91505092915050565b600081519050919050565b600082825260208201905092915050565b6000819050602082019050919050565b61171d816115d2565b82525050565b600061172f8383611714565b60208301905092915050565b6000602082019050919050565b6000611753826116e8565b61175d81856116f3565b935061176883611704565b8060005b838110156117995781516117808882611723565b975061178b8361173b565b92505060018101905061176c565b5085935050505092915050565b600060208201905081810360008301526117c08184611748565b905092915050565b600080fd5b600067ffffffffffffffff8211156117e8576117e7611526565b5b6117f182611515565b9050602081019050919050565b82818337600083830152505050565b600061182061181b846117cd565b611586565b90508281526020810184848401111561183c5761183b6117c8565b5b6118478482856117fe565b509392505050565b600082601f83011261186457611863611510565b5b813561187484826020860161180d565b91505092915050565b60006020828403121561189357611892611506565b5b600082013567ffffffffffffffff8111156118b1576118b061150b565b5b6118bd8482850161184f565b91505092915050565b600081519050919050565b600082825260208201905092915050565b6000819050602082019050919050565b600081519050919050565b600082825260208201905092915050565b60005b8381101561192c578082015181840152602081019050611911565b60008484015250505050565b6000611943826118f2565b61194d81856118fd565b935061195d81856020860161190e565b61196681611515565b840191505092915050565b600061197d8383611938565b905092915050565b6000602082019050919050565b600061199d826118c6565b6119a781856118d1565b9350836020820285016119b9856118e2565b8060005b858110156119f557848403895281516119d68582611971565b94506119e183611985565b925060208a019950506001810190506119bd565b50829750879550505050505092915050565b60006020820190508181036000830152611a218184611992565b905092915050565b600080fd5b60008083601f840112611a4457611a43611510565b5b8235905067ffffffffffffffff811115611a6157611a60611a29565b5b602083019150836001820283011115611a7d57611a7c6115cd565b5b9250929050565b60008060008060408587031215611a9e57611a9d611506565b5b600085013567ffffffffffffffff811115611abc57611abb61150b565b5b611ac887828801611a2e565b9450945050602085013567ffffffffffffffff811115611aeb57611aea61150b565b5b611af787828801611a2e565b925092505092959194509250565b600082825260208201905092915050565b6000611b21826118f2565b611b2b8185611b05565b9350611b3b81856020860161190e565b611b4481611515565b840191505092915050565b60006020820190508181036000830152611b698184611b16565b905092915050565b6000819050919050565b611b8481611b71565b82525050565b60006060830160008301518482036000860152611ba78282611938565b9150506020830151611bbc6020860182611b7b565b506040830151611bcf6040860182611b7b565b508091505092915050565b60006020820190508181036000830152611bf48184611b8a565b905092915050565b60008115159050919050565b611c1181611bfc565b82525050565b6000602082019050611c2c6000830184611c08565b92915050565b611c3b81611b71565b8114611c4657600080fd5b50565b600081359050611c5881611c32565b92915050565b60008060408385031215611c7557611c74611506565b5b6000611c83858286016115f3565b9250506020611c9485828601611c49565b9150509250929050565b600081905082602060040282011115611cba57611cb96115cd565b5b92915050565b600060808284031215611cd657611cd5611506565b5b6000611ce484828501611c9e565b91505092915050565b611cf6816115d2565b82525050565b6000602082019050611d116000830184611ced565b92915050565b60008060008060608587031215611d3157611d30611506565b5b600085013567ffffffffffffffff811115611d4f57611d4e61150b565b5b611d5b87828801611a2e565b94509450506020611d6e87828801611c49565b9250506040611d7f87828801611c49565b91505092959194509250565b600080600060408486031215611da457611da3611506565b5b600084013567ffffffffffffffff811115611dc257611dc161150b565b5b611dce86828701611a2e565b93509350506020611de186828701611c49565b9150509250925092565b600067ffffffffffffffff821115611e0657611e05611526565b5b602082029050919050565b6000611e24611e1f84611deb565b611586565b90508060208402830185811115611e3e57611e3d6115cd565b5b835b81811015611e675780611e5388826115f3565b845260208401935050602081019050611e40565b5050509392505050565b600082601f830112611e8657611e85611510565b5b6005611e93848285611e11565b91505092915050565b600060a08284031215611eb257611eb1611506565b5b6000611ec084828501611e71565b91505092915050565b600060059050919050565b600081905092915050565b6000819050919050565b6000602082019050919050565b611eff81611ec9565b611f098184611ed4565b9250611f1482611edf565b8060005b83811015611f45578151611f2c8782611723565b9650611f3783611ee9565b925050600181019050611f18565b505050505050565b600060a082019050611f626000830184611ef6565b92915050565b600060039050919050565b600081905092915050565b6000819050919050565b6000611f948383611b7b565b60208301905092915050565b6000602082019050919050565b611fb681611f68565b611fc08184611f73565b9250611fcb82611f7e565b8060005b83811015611ffc578151611fe38782611f88565b9650611fee83611fa0565b925050600181019050611fcf565b505050505050565b60006060820190506120196000830184611fad565b92915050565b60006020828403121561203557612034611506565b5b600061204384828501611c49565b91505092915050565b61205581611b71565b82525050565b600060608201905081810360008301526120758186611b16565b9050612084602083018561204c565b612091604083018461204c565b949350505050565b7f4e487b7100000000000000000000000000000000000000000000000000000000600052601160045260246000fd5b60006120d382611b71565b91506120de83611b71565b92508282039050818111156120f6576120f5612099565b5b92915050565b7f4e487b7100000000000000000000000000000000000000000000000000000000600052603260045260246000fd5b600061213682611b71565b91507fffffffffffffffffffffffffffffffffffffffffffffffffffffffffffffffff820361216857612167612099565b5b600182019050919050565b7f4e487b7100000000000000000000000000000000000000000000000000000000600052602260045260246000fd5b600060028204905060018216806121ba57607f821691505b6020821081036121cd576121cc612173565b5b50919050565b60008190508160005260206000209050919050565b60006020601f8301049050919050565b600082821b905092915050565b6000600883026122357fffffffffffffffffffffffffffffffffffffffffffffffffffffffffffffffff826121f8565b61223f86836121f8565b95508019841693508086168417925050509392505050565b6000819050919050565b600061227c61227761227284611b71565b612257565b611b71565b9050919050565b6000819050919050565b61229683612261565b6122aa6122a282612283565b848454612205565b825550505050565b600090565b6122bf6122b2565b6122ca81848461228d565b505050565b5b818110156122ee576122e36000826122b7565b6001810190506122d0565b5050565b601f82111561233357612304816121d3565b61230d846121e8565b8101602085101561231c578190505b612330612328856121e8565b8301826122cf565b50505b505050565b600082821c905092915050565b600061235660001984600802612338565b1980831691505092915050565b600061236f8383612345565b9150826002028217905092915050565b612388826118f2565b67ffffffffffffffff8111156123a1576123a0611526565b5b6123ab82546121a2565b6123b68282856122f2565b600060209050601f8311600181146123e957600084156123d7578287015190505b6123e18582612363565b865550612449565b601f1984166123f7866121d3565b60005b8281101561241f578489015182556001820191506020850194506020810190506123fa565b8683101561243c5784890151612438601f891682612345565b8355505b6001600288020188555050505b505050505050565b600081905092915050565b60006124688385612451565b93506124758385846117fe565b82840190509392505050565b600061248e82868861245c565b915061249b82848661245c565b915081905095945050505050565b7f4e487b7100000000000000000000000000000000000000000000000000000000600052602160045260246000fd5b7f6d61746873000000000000000000000000000000000000000000000000000000600082015250565b600061250e600583612451565b9150612519826124d8565b600582019050919050565b600061252f82612501565b9150819050919050565b600061254682848661245c565b91508190509392505050565b7f656e676c69736800000000000000000000000000000000000000000000000000600082015250565b6000612588600783612451565b915061259382612552565b600782019050919050565b60006125a98261257b565b9150819050919050565b7f686973746f727900000000000000000000000000000000000000000000000000600082015250565b60006125e9600783612451565b91506125f4826125b3565b600782019050919050565b600061260a826125dc565b9150819050919050565b600061261f82611b71565b915061262a83611b71565b925082820190508082111561264257612641612099565b5b92915050565b7f4e487b7100000000000000000000000000000000000000000000000000000000600052603160045260246000fd5b6000612682826115d2565b915061268d836115d2565b9250828201905082811215600083121683821260008412151617156126b5576126b4612099565b5b9291505056fea2646970667358221220cb93ae9f6e7980389e1ac11739603a1fc5501c17dc3c9fc544c6735bb9978a3864736f6c63430008110033",
			"opcodes": "PUSH1 0x80 PUSH1 0x40 MSTORE CALLVALUE DUP1 ISZERO PUSH2 0x10 JUMPI PUSH1 0x0 DUP1 REVERT JUMPDEST POP PUSH2 0x26F1 DUP1 PUSH2 0x20 PUSH1 0x0 CODECOPY PUSH1 0x0 RETURN INVALID PUSH1 0x80 PUSH1 0x40 MSTORE CALLVALUE DUP1 ISZERO PUSH2 0x10 JUMPI PUSH1 0x0 DUP1 REVERT JUMPDEST POP PUSH1 0x4 CALLDATASIZE LT PUSH2 0x14D JUMPI PUSH1 0x0 CALLDATALOAD PUSH1 0xE0 SHR DUP1 PUSH4 0x797F6F7F GT PUSH2 0xC3 JUMPI DUP1 PUSH4 0xB780E507 GT PUSH2 0x7C JUMPI DUP1 PUSH4 0xB780E507 EQ PUSH2 0x37A JUMPI DUP1 PUSH4 0xC34052E0 EQ PUSH2 0x398 JUMPI DUP1 PUSH4 0xD74070A6 EQ PUSH2 0x3C8 JUMPI DUP1 PUSH4 0xDF3DAFAD EQ PUSH2 0x3E4 JUMPI DUP1 PUSH4 0xE9AB789E EQ PUSH2 0x414 JUMPI DUP1 PUSH4 0xEAF24C15 EQ PUSH2 0x41E JUMPI PUSH2 0x14D JUMP JUMPDEST DUP1 PUSH4 0x797F6F7F EQ PUSH2 0x2CC JUMPI DUP1 PUSH4 0x87C5D5CC EQ PUSH2 0x2E8 JUMPI DUP1 PUSH4 0x880AD0AF EQ PUSH2 0x318 JUMPI DUP1 PUSH4 0x99998902 EQ PUSH2 0x322 JUMPI DUP1 PUSH4 0xB02A0FDA EQ PUSH2 0x340 JUMPI DUP1 PUSH4 0xB536C426 EQ PUSH2 0x370 JUMPI PUSH2 0x14D JUMP JUMPDEST DUP1 PUSH4 0x2BB5A9E6 GT PUSH2 0x115 JUMPI DUP1 PUSH4 0x2BB5A9E6 EQ PUSH2 0x20A JUMPI DUP1 PUSH4 0x378EE557 EQ PUSH2 0x228 JUMPI DUP1 PUSH4 0x59E57373 EQ PUSH2 0x258 JUMPI DUP1 PUSH4 0x5E34F951 EQ PUSH2 0x276 JUMPI DUP1 PUSH4 0x68F40B04 EQ PUSH2 0x2A6 JUMPI DUP1 PUSH4 0x6E9D8B9C EQ PUSH2 0x2C2 JUMPI PUSH2 0x14D JUMP JUMPDEST DUP1 PUSH4 0x6694A0A EQ PUSH2 0x152 JUMPI DUP1 PUSH4 0x11456B47 EQ PUSH2 0x182 JUMPI DUP1 PUSH4 0x17D7DE7C EQ PUSH2 0x19E JUMPI DUP1 PUSH4 0x266001D3 EQ PUSH2 0x1BC JUMPI DUP1 PUSH4 0x275A6DE9 EQ PUSH2 0x1EC JUMPI JUMPDEST PUSH1 0x0 DUP1 REVERT JUMPDEST PUSH2 0x16C PUSH1 0x4 DUP1 CALLDATASIZE SUB DUP2 ADD SWAP1 PUSH2 0x167 SWAP2 SWAP1 PUSH2 0x169F JUMP JUMPDEST PUSH2 0x450 JUMP JUMPDEST PUSH1 0x40 MLOAD PUSH2 0x179 SWAP2 SWAP1 PUSH2 0x17A6 JUMP JUMPDEST PUSH1 0x40 MLOAD DUP1 SWAP2 SUB SWAP1 RETURN JUMPDEST PUSH2 0x19C PUSH1 0x4 DUP1 CALLDATASIZE SUB DUP2 ADD SWAP1 PUSH2 0x197 SWAP2 SWAP1 PUSH2 0x187D JUMP JUMPDEST PUSH2 0x51B JUMP JUMPDEST STOP JUMPDEST PUSH2 0x1A6 PUSH2 0x553 JUMP JUMPDEST PUSH1 0x40 MLOAD PUSH2 0x1B3 SWAP2 SWAP1 PUSH2 0x1A07 JUMP JUMPDEST PUSH1 0x40 MLOAD DUP1 SWAP2 SUB SWAP1 RETURN JUMPDEST PUSH2 0x1D6 PUSH1 0x4 DUP1 CALLDATASIZE SUB DUP2 ADD SWAP1 PUSH2 0x1D1 SWAP2 SWAP1 PUSH2 0x1A84 JUMP JUMPDEST PUSH2 0x62C JUMP JUMPDEST PUSH1 0x40 MLOAD PUSH2 0x1E3 SWAP2 SWAP1 PUSH2 0x1B4F JUMP JUMPDEST PUSH1 0x40 MLOAD DUP1 SWAP2 SUB SWAP1 RETURN JUMPDEST PUSH2 0x1F4 PUSH2 0x65E JUMP JUMPDEST PUSH1 0x40 MLOAD PUSH2 0x201 SWAP2 SWAP1 PUSH2 0x1BDA JUMP JUMPDEST PUSH1 0x40 MLOAD DUP1 SWAP2 SUB SWAP1 RETURN JUMPDEST PUSH2 0x212 PUSH2 0x75B JUMP JUMPDEST PUSH1 0x40 MLOAD PUSH2 0x21F SWAP2 SWAP1 PUSH2 0x1C17 JUMP JUMPDEST PUSH1 0x40 MLOAD DUP1 SWAP2 SUB SWAP1 RETURN JUMPDEST PUSH2 0x242 PUSH1 0x4 DUP1 CALLDATASIZE SUB DUP2 ADD SWAP1 PUSH2 0x23D SWAP2 SWAP1 PUSH2 0x1C5E JUMP JUMPDEST PUSH2 0x7EC JUMP JUMPDEST PUSH1 0x40 MLOAD PUSH2 0x24F SWAP2 SWAP1 PUSH2 0x17A6 JUMP JUMPDEST PUSH1 0x40 MLOAD DUP1 SWAP2 SUB SWAP1 RETURN JUMPDEST PUSH2 0x260 PUSH2 0x866 JUMP JUMPDEST PUSH1 0x40 MLOAD PUSH2 0x26D SWAP2 SWAP1 PUSH2 0x1B4F JUMP JUMPDEST PUSH1 0x40 MLOAD DUP1 SWAP2 SUB SWAP1 RETURN JUMPDEST PUSH2 0x290 PUSH1 0x4 DUP1 CALLDATASIZE SUB DUP2 ADD SWAP1 PUSH2 0x28B SWAP2 SWAP1 PUSH2 0x1CC0 JUMP JUMPDEST PUSH2 0x993 JUMP JUMPDEST PUSH1 0x40 MLOAD PUSH2 0x29D SWAP2 SWAP1 PUSH2 0x1CFC JUMP JUMPDEST PUSH1 0x40 MLOAD DUP1 SWAP2 SUB SWAP1 RETURN JUMPDEST PUSH2 0x2C0 PUSH1 0x4 DUP1 CALLDATASIZE SUB DUP2 ADD SWAP1 PUSH2 0x2BB SWAP2 SWAP1 PUSH2 0x1D17 JUMP JUMPDEST PUSH2 0xA08 JUMP JUMPDEST STOP JUMPDEST PUSH2 0x2CA PUSH2 0xAD9 JUMP JUMPDEST STOP JUMPDEST PUSH2 0x2E6 PUSH1 0x4 DUP1 CALLDATASIZE SUB DUP2 ADD SWAP1 PUSH2 0x2E1 SWAP2 SWAP1 PUSH2 0x1D8B JUMP JUMPDEST PUSH2 0xB06 JUMP JUMPDEST STOP JUMPDEST PUSH2 0x302 PUSH1 0x4 DUP1 CALLDATASIZE SUB DUP2 ADD SWAP1 PUSH2 0x2FD SWAP2 SWAP1 PUSH2 0x1A84 JUMP JUMPDEST PUSH2 0xD0F JUMP JUMPDEST PUSH1 0x40 MLOAD PUSH2 0x30F SWAP2 SWAP1 PUSH2 0x1C17 JUMP JUMPDEST PUSH1 0x40 MLOAD DUP1 SWAP2 SUB SWAP1 RETURN JUMPDEST PUSH2 0x320 PUSH2 0xD7C JUMP JUMPDEST STOP JUMPDEST PUSH2 0x32A PUSH2 0xE27 JUMP JUMPDEST PUSH1 0x40 MLOAD PUSH2 0x337 SWAP2 SWAP1 PUSH2 0x1BDA JUMP JUMPDEST PUSH1 0x40 MLOAD DUP1 SWAP2 SUB SWAP1 RETURN JUMPDEST PUSH2 0x35A PUSH1 0x4 DUP1 CALLDATASIZE SUB DUP2 ADD SWAP1 PUSH2 0x355 SWAP2 SWAP1 PUSH2 0x1E9C JUMP JUMPDEST PUSH2 0xE8C JUMP JUMPDEST PUSH1 0x40 MLOAD PUSH2 0x367 SWAP2 SWAP1 PUSH2 0x1F4D JUMP JUMPDEST PUSH1 0x40 MLOAD DUP1 SWAP2 SUB SWAP1 RETURN JUMPDEST PUSH2 0x378 PUSH2 0xFB7 JUMP JUMPDEST STOP JUMPDEST PUSH2 0x382 PUSH2 0xFE9 JUMP JUMPDEST PUSH1 0x40 MLOAD PUSH2 0x38F SWAP2 SWAP1 PUSH2 0x2004 JUMP JUMPDEST PUSH1 0x40 MLOAD DUP1 SWAP2 SUB SWAP1 RETURN JUMPDEST PUSH2 0x3B2 PUSH1 0x4 DUP1 CALLDATASIZE SUB DUP2 ADD SWAP1 PUSH2 0x3AD SWAP2 SWAP1 PUSH2 0x201F JUMP JUMPDEST PUSH2 0x1071 JUMP JUMPDEST PUSH1 0x40 MLOAD PUSH2 0x3BF SWAP2 SWAP1 PUSH2 0x1C17 JUMP JUMPDEST PUSH1 0x40 MLOAD DUP1 SWAP2 SUB SWAP1 RETURN JUMPDEST PUSH2 0x3E2 PUSH1 0x4 DUP1 CALLDATASIZE SUB DUP2 ADD SWAP1 PUSH2 0x3DD SWAP2 SWAP1 PUSH2 0x1D17 JUMP JUMPDEST PUSH2 0x1108 JUMP JUMPDEST STOP JUMPDEST PUSH2 0x3FE PUSH1 0x4 DUP1 CALLDATASIZE SUB DUP2 ADD SWAP1 PUSH2 0x3F9 SWAP2 SWAP1 PUSH2 0x169F JUMP JUMPDEST PUSH2 0x11B2 JUMP JUMPDEST PUSH1 0x40 MLOAD PUSH2 0x40B SWAP2 SWAP1 PUSH2 0x1CFC JUMP JUMPDEST PUSH1 0x40 MLOAD DUP1 SWAP2 SUB SWAP1 RETURN JUMPDEST PUSH2 0x41C PUSH2 0x1206 JUMP JUMPDEST STOP JUMPDEST PUSH2 0x438 PUSH1 0x4 DUP1 CALLDATASIZE SUB DUP2 ADD SWAP1 PUSH2 0x433 SWAP2 SWAP1 PUSH2 0x201F JUMP JUMPDEST PUSH2 0x1382 JUMP JUMPDEST PUSH1 0x40 MLOAD PUSH2 0x447 SWAP4 SWAP3 SWAP2 SWAP1 PUSH2 0x205B JUMP JUMPDEST PUSH1 0x40 MLOAD DUP1 SWAP2 SUB SWAP1 RETURN JUMPDEST PUSH1 0x60 PUSH1 0x0 DUP3 MLOAD PUSH8 0xFFFFFFFFFFFFFFFF DUP2 GT ISZERO PUSH2 0x46F JUMPI PUSH2 0x46E PUSH2 0x1526 JUMP JUMPDEST JUMPDEST PUSH1 0x40 MLOAD SWAP1 DUP1 DUP3 MSTORE DUP1 PUSH1 0x20 MUL PUSH1 0x20 ADD DUP3 ADD PUSH1 0x40 MSTORE DUP1 ISZERO PUSH2 0x49D JUMPI DUP2 PUSH1 0x20 ADD PUSH1 0x20 DUP3 MUL DUP1 CALLDATASIZE DUP4 CALLDATACOPY DUP1 DUP3 ADD SWAP2 POP POP SWAP1 POP JUMPDEST POP SWAP1 POP PUSH1 0x0 JUMPDEST DUP4 MLOAD DUP2 LT ISZERO PUSH2 0x511 JUMPI DUP4 DUP2 PUSH1 0x1 DUP7 MLOAD PUSH2 0x4BC SWAP2 SWAP1 PUSH2 0x20C8 JUMP JUMPDEST PUSH2 0x4C6 SWAP2 SWAP1 PUSH2 0x20C8 JUMP JUMPDEST DUP2 MLOAD DUP2 LT PUSH2 0x4D7 JUMPI PUSH2 0x4D6 PUSH2 0x20FC JUMP JUMPDEST JUMPDEST PUSH1 0x20 MUL PUSH1 0x20 ADD ADD MLOAD DUP3 DUP3 DUP2 MLOAD DUP2 LT PUSH2 0x4F2 JUMPI PUSH2 0x4F1 PUSH2 0x20FC JUMP JUMPDEST JUMPDEST PUSH1 0x20 MUL PUSH1 0x20 ADD ADD DUP2 DUP2 MSTORE POP POP DUP1 DUP1 PUSH2 0x509 SWAP1 PUSH2 0x212B JUMP JUMPDEST SWAP2 POP POP PUSH2 0x4A3 JUMP JUMPDEST POP DUP1 SWAP2 POP POP SWAP2 SWAP1 POP JUMP JUMPDEST PUSH1 0x21 DUP2 SWAP1 DUP1 PUSH1 0x1 DUP2 SLOAD ADD DUP1 DUP3 SSTORE DUP1 SWAP2 POP POP PUSH1 0x1 SWAP1 SUB SWAP1 PUSH1 0x0 MSTORE PUSH1 0x20 PUSH1 0x0 KECCAK256 ADD PUSH1 0x0 SWAP1 SWAP2 SWAP1 SWAP2 SWAP1 SWAP2 POP SWAP1 DUP2 PUSH2 0x54F SWAP2 SWAP1 PUSH2 0x237F JUMP JUMPDEST POP POP JUMP JUMPDEST PUSH1 0x60 PUSH1 0x21 DUP1 SLOAD DUP1 PUSH1 0x20 MUL PUSH1 0x20 ADD PUSH1 0x40 MLOAD SWAP1 DUP2 ADD PUSH1 0x40 MSTORE DUP1 SWAP3 SWAP2 SWAP1 DUP2 DUP2 MSTORE PUSH1 0x20 ADD PUSH1 0x0 SWAP1 JUMPDEST DUP3 DUP3 LT ISZERO PUSH2 0x623 JUMPI DUP4 DUP3 SWAP1 PUSH1 0x0 MSTORE PUSH1 0x20 PUSH1 0x0 KECCAK256 ADD DUP1 SLOAD PUSH2 0x596 SWAP1 PUSH2 0x21A2 JUMP JUMPDEST DUP1 PUSH1 0x1F ADD PUSH1 0x20 DUP1 SWAP2 DIV MUL PUSH1 0x20 ADD PUSH1 0x40 MLOAD SWAP1 DUP2 ADD PUSH1 0x40 MSTORE DUP1 SWAP3 SWAP2 SWAP1 DUP2 DUP2 MSTORE PUSH1 0x20 ADD DUP3 DUP1 SLOAD PUSH2 0x5C2 SWAP1 PUSH2 0x21A2 JUMP JUMPDEST DUP1 ISZERO PUSH2 0x60F JUMPI DUP1 PUSH1 0x1F LT PUSH2 0x5E4 JUMPI PUSH2 0x100 DUP1 DUP4 SLOAD DIV MUL DUP4 MSTORE SWAP2 PUSH1 0x20 ADD SWAP2 PUSH2 0x60F JUMP JUMPDEST DUP3 ADD SWAP2 SWAP1 PUSH1 0x0 MSTORE PUSH1 0x20 PUSH1 0x0 KECCAK256 SWAP1 JUMPDEST DUP2 SLOAD DUP2 MSTORE SWAP1 PUSH1 0x1 ADD SWAP1 PUSH1 0x20 ADD DUP1 DUP4 GT PUSH2 0x5F2 JUMPI DUP3 SWAP1 SUB PUSH1 0x1F AND DUP3 ADD SWAP2 JUMPDEST POP POP POP POP POP DUP2 MSTORE PUSH1 0x20 ADD SWAP1 PUSH1 0x1 ADD SWAP1 PUSH2 0x577 JUMP JUMPDEST POP POP POP POP SWAP1 POP SWAP1 JUMP JUMPDEST PUSH1 0x60 DUP5 DUP5 DUP5 DUP5 PUSH1 0x40 MLOAD PUSH1 0x20 ADD PUSH2 0x645 SWAP5 SWAP4 SWAP3 SWAP2 SWAP1 PUSH2 0x2481 JUMP JUMPDEST PUSH1 0x40 MLOAD PUSH1 0x20 DUP2 DUP4 SUB SUB DUP2 MSTORE SWAP1 PUSH1 0x40 MSTORE SWAP1 POP SWAP5 SWAP4 POP POP POP POP JUMP JUMPDEST PUSH2 0x666 PUSH2 0x143A JUMP JUMPDEST PUSH1 0x1F PUSH1 0x0 CALLER PUSH20 0xFFFFFFFFFFFFFFFFFFFFFFFFFFFFFFFFFFFFFFFF AND PUSH20 0xFFFFFFFFFFFFFFFFFFFFFFFFFFFFFFFFFFFFFFFF AND DUP2 MSTORE PUSH1 0x20 ADD SWAP1 DUP2 MSTORE PUSH1 0x20 ADD PUSH1 0x0 KECCAK256 PUSH1 0x40 MLOAD DUP1 PUSH1 0x60 ADD PUSH1 0x40 MSTORE SWAP1 DUP2 PUSH1 0x0 DUP3 ADD DUP1 SLOAD PUSH2 0x6C0 SWAP1 PUSH2 0x21A2 JUMP JUMPDEST DUP1 PUSH1 0x1F ADD PUSH1 0x20 DUP1 SWAP2 DIV MUL PUSH1 0x20 ADD PUSH1 0x40 MLOAD SWAP1 DUP2 ADD PUSH1 0x40 MSTORE DUP1 SWAP3 SWAP2 SWAP1 DUP2 DUP2 MSTORE PUSH1 0x20 ADD DUP3 DUP1 SLOAD PUSH2 0x6EC SWAP1 PUSH2 0x21A2 JUMP JUMPDEST DUP1 ISZERO PUSH2 0x739 JUMPI DUP1 PUSH1 0x1F LT PUSH2 0x70E JUMPI PUSH2 0x100 DUP1 DUP4 SLOAD DIV MUL DUP4 MSTORE SWAP2 PUSH1 0x20 ADD SWAP2 PUSH2 0x739 JUMP JUMPDEST DUP3 ADD SWAP2 SWAP1 PUSH1 0x0 MSTORE PUSH1 0x20 PUSH1 0x0 KECCAK256 SWAP1 JUMPDEST DUP2 SLOAD DUP2 MSTORE SWAP1 PUSH1 0x1 ADD SWAP1 PUSH1 0x20 ADD DUP1 DUP4 GT PUSH2 0x71C JUMPI DUP3 SWAP1 SUB PUSH1 0x1F AND DUP3 ADD SWAP2 JUMPDEST POP POP POP POP POP DUP2 MSTORE PUSH1 0x20 ADD PUSH1 0x1 DUP3 ADD SLOAD DUP2 MSTORE PUSH1 0x20 ADD PUSH1 0x2 DUP3 ADD SLOAD DUP2 MSTORE POP POP SWAP1 POP SWAP1 JUMP JUMPDEST PUSH1 0x0 PUSH1 0x20 PUSH1 0x0 CALLER PUSH20 0xFFFFFFFFFFFFFFFFFFFFFFFFFFFFFFFFFFFFFFFF AND PUSH20 0xFFFFFFFFFFFFFFFFFFFFFFFFFFFFFFFFFFFFFFFF AND DUP2 MSTORE PUSH1 0x20 ADD SWAP1 DUP2 MSTORE PUSH1 0x20 ADD PUSH1 0x0 KECCAK256 PUSH1 0x0 CALLER PUSH20 0xFFFFFFFFFFFFFFFFFFFFFFFFFFFFFFFFFFFFFFFF AND PUSH20 0xFFFFFFFFFFFFFFFFFFFFFFFFFFFFFFFFFFFFFFFF AND DUP2 MSTORE PUSH1 0x20 ADD SWAP1 DUP2 MSTORE PUSH1 0x20 ADD PUSH1 0x0 KECCAK256 PUSH1 0x0 SWAP1 SLOAD SWAP1 PUSH2 0x100 EXP SWAP1 DIV PUSH1 0xFF AND SWAP1 POP SWAP1 JUMP JUMPDEST PUSH1 0x60 PUSH1 0x0 PUSH1 0xA PUSH8 0xFFFFFFFFFFFFFFFF DUP2 GT ISZERO PUSH2 0x80B JUMPI PUSH2 0x80A PUSH2 0x1526 JUMP JUMPDEST JUMPDEST PUSH1 0x40 MLOAD SWAP1 DUP1 DUP3 MSTORE DUP1 PUSH1 0x20 MUL PUSH1 0x20 ADD DUP3 ADD PUSH1 0x40 MSTORE DUP1 ISZERO PUSH2 0x839 JUMPI DUP2 PUSH1 0x20 ADD PUSH1 0x20 DUP3 MUL DUP1 CALLDATASIZE DUP4 CALLDATACOPY DUP1 DUP3 ADD SWAP2 POP POP SWAP1 POP JUMPDEST POP SWAP1 POP DUP4 DUP2 DUP5 DUP2 MLOAD DUP2 LT PUSH2 0x850 JUMPI PUSH2 0x84F PUSH2 0x20FC JUMP JUMPDEST JUMPDEST PUSH1 0x20 MUL PUSH1 0x20 ADD ADD DUP2 DUP2 MSTORE POP POP DUP1 SWAP2 POP POP SWAP3 SWAP2 POP POP JUMP JUMPDEST PUSH1 0x60 PUSH1 0x0 PUSH1 0x2 DUP2 GT ISZERO PUSH2 0x87C JUMPI PUSH2 0x87B PUSH2 0x24A9 JUMP JUMPDEST JUMPDEST PUSH1 0x22 PUSH1 0x0 SWAP1 SLOAD SWAP1 PUSH2 0x100 EXP SWAP1 DIV PUSH1 0xFF AND PUSH1 0x2 DUP2 GT ISZERO PUSH2 0x89E JUMPI PUSH2 0x89D PUSH2 0x24A9 JUMP JUMPDEST JUMPDEST SUB PUSH2 0x8E0 JUMPI PUSH1 0x40 MLOAD DUP1 PUSH1 0x40 ADD PUSH1 0x40 MSTORE DUP1 PUSH1 0x5 DUP2 MSTORE PUSH1 0x20 ADD PUSH32 0x534D414C4C000000000000000000000000000000000000000000000000000000 DUP2 MSTORE POP SWAP1 POP PUSH2 0x990 JUMP JUMPDEST PUSH1 0x2 DUP1 DUP2 GT ISZERO PUSH2 0x8F3 JUMPI PUSH2 0x8F2 PUSH2 0x24A9 JUMP JUMPDEST JUMPDEST PUSH1 0x22 PUSH1 0x0 SWAP1 SLOAD SWAP1 PUSH2 0x100 EXP SWAP1 DIV PUSH1 0xFF AND PUSH1 0x2 DUP2 GT ISZERO PUSH2 0x915 JUMPI PUSH2 0x914 PUSH2 0x24A9 JUMP JUMPDEST JUMPDEST SUB PUSH2 0x957 JUMPI PUSH1 0x40 MLOAD DUP1 PUSH1 0x40 ADD PUSH1 0x40 MSTORE DUP1 PUSH1 0x5 DUP2 MSTORE PUSH1 0x20 ADD PUSH32 0x4C41524745000000000000000000000000000000000000000000000000000000 DUP2 MSTORE POP SWAP1 POP PUSH2 0x990 JUMP JUMPDEST PUSH1 0x40 MLOAD DUP1 PUSH1 0x40 ADD PUSH1 0x40 MSTORE DUP1 PUSH1 0x6 DUP2 MSTORE PUSH1 0x20 ADD PUSH32 0x4D454449554D0000000000000000000000000000000000000000000000000000 DUP2 MSTORE POP SWAP1 POP JUMPDEST SWAP1 JUMP JUMPDEST PUSH1 0x0 DUP1 PUSH1 0x0 SWAP1 POP PUSH1 0x0 JUMPDEST PUSH1 0x4 DUP2 LT ISZERO PUSH2 0x9FE JUMPI PUSH1 0x0 DUP2 EQ DUP1 PUSH2 0x9CB JUMPI POP DUP4 DUP2 PUSH1 0x4 DUP2 LT PUSH2 0x9C3 JUMPI PUSH2 0x9C2 PUSH2 0x20FC JUMP JUMPDEST JUMPDEST PUSH1 0x20 MUL ADD CALLDATALOAD DUP3 SLT JUMPDEST ISZERO PUSH2 0x9EB JUMPI DUP4 DUP2 PUSH1 0x4 DUP2 LT PUSH2 0x9E3 JUMPI PUSH2 0x9E2 PUSH2 0x20FC JUMP JUMPDEST JUMPDEST PUSH1 0x20 MUL ADD CALLDATALOAD SWAP2 POP JUMPDEST DUP1 DUP1 PUSH2 0x9F6 SWAP1 PUSH2 0x212B JUMP JUMPDEST SWAP2 POP POP PUSH2 0x99D JUMP JUMPDEST POP DUP1 SWAP2 POP POP SWAP2 SWAP1 POP JUMP JUMPDEST PUSH1 0x40 MLOAD DUP1 PUSH1 0x60 ADD PUSH1 0x40 MSTORE DUP1 DUP6 DUP6 DUP1 DUP1 PUSH1 0x1F ADD PUSH1 0x20 DUP1 SWAP2 DIV MUL PUSH1 0x20 ADD PUSH1 0x40 MLOAD SWAP1 DUP2 ADD PUSH1 0x40 MSTORE DUP1 SWAP4 SWAP3 SWAP2 SWAP1 DUP2 DUP2 MSTORE PUSH1 0x20 ADD DUP4 DUP4 DUP1 DUP3 DUP5 CALLDATACOPY PUSH1 0x0 DUP2 DUP5 ADD MSTORE PUSH1 0x1F NOT PUSH1 0x1F DUP3 ADD AND SWAP1 POP DUP1 DUP4 ADD SWAP3 POP POP POP POP POP POP POP DUP2 MSTORE PUSH1 0x20 ADD DUP4 DUP2 MSTORE PUSH1 0x20 ADD DUP3 DUP2 MSTORE POP PUSH1 0x1F PUSH1 0x0 CALLER PUSH20 0xFFFFFFFFFFFFFFFFFFFFFFFFFFFFFFFFFFFFFFFF AND PUSH20 0xFFFFFFFFFFFFFFFFFFFFFFFFFFFFFFFFFFFFFFFF AND DUP2 MSTORE PUSH1 0x20 ADD SWAP1 DUP2 MSTORE PUSH1 0x20 ADD PUSH1 0x0 KECCAK256 PUSH1 0x0 DUP3 ADD MLOAD DUP2 PUSH1 0x0 ADD SWAP1 DUP2 PUSH2 0xABB SWAP2 SWAP1 PUSH2 0x237F JUMP JUMPDEST POP PUSH1 0x20 DUP3 ADD MLOAD DUP2 PUSH1 0x1 ADD SSTORE PUSH1 0x40 DUP3 ADD MLOAD DUP2 PUSH1 0x2 ADD SSTORE SWAP1 POP POP POP POP POP POP JUMP JUMPDEST PUSH1 0x1 PUSH1 0x22 PUSH1 0x0 PUSH2 0x100 EXP DUP2 SLOAD DUP2 PUSH1 0xFF MUL NOT AND SWAP1 DUP4 PUSH1 0x2 DUP2 GT ISZERO PUSH2 0xAFF JUMPI PUSH2 0xAFE PUSH2 0x24A9 JUMP JUMPDEST JUMPDEST MUL OR SWAP1 SSTORE POP JUMP JUMPDEST PUSH1 0x40 MLOAD PUSH1 0x20 ADD PUSH2 0xB15 SWAP1 PUSH2 0x2524 JUMP JUMPDEST PUSH1 0x40 MLOAD PUSH1 0x20 DUP2 DUP4 SUB SUB DUP2 MSTORE SWAP1 PUSH1 0x40 MSTORE DUP1 MLOAD SWAP1 PUSH1 0x20 ADD KECCAK256 DUP4 DUP4 PUSH1 0x40 MLOAD PUSH1 0x20 ADD PUSH2 0xB3E SWAP3 SWAP2 SWAP1 PUSH2 0x2539 JUMP JUMPDEST PUSH1 0x40 MLOAD PUSH1 0x20 DUP2 DUP4 SUB SUB DUP2 MSTORE SWAP1 PUSH1 0x40 MSTORE DUP1 MLOAD SWAP1 PUSH1 0x20 ADD KECCAK256 SUB PUSH2 0xBB2 JUMPI DUP1 PUSH1 0x1E PUSH1 0x0 CALLER PUSH20 0xFFFFFFFFFFFFFFFFFFFFFFFFFFFFFFFFFFFFFFFF AND PUSH20 0xFFFFFFFFFFFFFFFFFFFFFFFFFFFFFFFFFFFFFFFF AND DUP2 MSTORE PUSH1 0x20 ADD SWAP1 DUP2 MSTORE PUSH1 0x20 ADD PUSH1 0x0 KECCAK256 PUSH1 0x0 PUSH1 0x3 DUP2 LT PUSH2 0xBAC JUMPI PUSH2 0xBAB PUSH2 0x20FC JUMP JUMPDEST JUMPDEST ADD DUP2 SWAP1 SSTORE POP JUMPDEST PUSH1 0x40 MLOAD PUSH1 0x20 ADD PUSH2 0xBC1 SWAP1 PUSH2 0x259E JUMP JUMPDEST PUSH1 0x40 MLOAD PUSH1 0x20 DUP2 DUP4 SUB SUB DUP2 MSTORE SWAP1 PUSH1 0x40 MSTORE DUP1 MLOAD SWAP1 PUSH1 0x20 ADD KECCAK256 DUP4 DUP4 PUSH1 0x40 MLOAD PUSH1 0x20 ADD PUSH2 0xBEA SWAP3 SWAP2 SWAP1 PUSH2 0x2539 JUMP JUMPDEST PUSH1 0x40 MLOAD PUSH1 0x20 DUP2 DUP4 SUB SUB DUP2 MSTORE SWAP1 PUSH1 0x40 MSTORE DUP1 MLOAD SWAP1 PUSH1 0x20 ADD KECCAK256 SUB PUSH2 0xC5E JUMPI DUP1 PUSH1 0x1E PUSH1 0x0 CALLER PUSH20 0xFFFFFFFFFFFFFFFFFFFFFFFFFFFFFFFFFFFFFFFF AND PUSH20 0xFFFFFFFFFFFFFFFFFFFFFFFFFFFFFFFFFFFFFFFF AND DUP2 MSTORE PUSH1 0x20 ADD SWAP1 DUP2 MSTORE PUSH1 0x20 ADD PUSH1 0x0 KECCAK256 PUSH1 0x1 PUSH1 0x3 DUP2 LT PUSH2 0xC58 JUMPI PUSH2 0xC57 PUSH2 0x20FC JUMP JUMPDEST JUMPDEST ADD DUP2 SWAP1 SSTORE POP JUMPDEST PUSH1 0x40 MLOAD PUSH1 0x20 ADD PUSH2 0xC6D SWAP1 PUSH2 0x25FF JUMP JUMPDEST PUSH1 0x40 MLOAD PUSH1 0x20 DUP2 DUP4 SUB SUB DUP2 MSTORE SWAP1 PUSH1 0x40 MSTORE DUP1 MLOAD SWAP1 PUSH1 0x20 ADD KECCAK256 DUP4 DUP4 PUSH1 0x40 MLOAD PUSH1 0x20 ADD PUSH2 0xC96 SWAP3 SWAP2 SWAP1 PUSH2 0x2539 JUMP JUMPDEST PUSH1 0x40 MLOAD PUSH1 0x20 DUP2 DUP4 SUB SUB DUP2 MSTORE SWAP1 PUSH1 0x40 MSTORE DUP1 MLOAD SWAP1 PUSH1 0x20 ADD KECCAK256 SUB PUSH2 0xD0A JUMPI DUP1 PUSH1 0x1E PUSH1 0x0 CALLER PUSH20 0xFFFFFFFFFFFFFFFFFFFFFFFFFFFFFFFFFFFFFFFF AND PUSH20 0xFFFFFFFFFFFFFFFFFFFFFFFFFFFFFFFFFFFFFFFF AND DUP2 MSTORE PUSH1 0x20 ADD SWAP1 DUP2 MSTORE PUSH1 0x20 ADD PUSH1 0x0 KECCAK256 PUSH1 0x2 PUSH1 0x3 DUP2 LT PUSH2 0xD04 JUMPI PUSH2 0xD03 PUSH2 0x20FC JUMP JUMPDEST JUMPDEST ADD DUP2 SWAP1 SSTORE POP JUMPDEST POP POP POP JUMP JUMPDEST PUSH1 0x0 DUP3 DUP3 PUSH1 0x40 MLOAD PUSH1 0x20 ADD PUSH2 0xD24 SWAP3 SWAP2 SWAP1 PUSH2 0x2539 JUMP JUMPDEST PUSH1 0x40 MLOAD PUSH1 0x20 DUP2 DUP4 SUB SUB DUP2 MSTORE SWAP1 PUSH1 0x40 MSTORE DUP1 MLOAD SWAP1 PUSH1 0x20 ADD KECCAK256 DUP6 DUP6 PUSH1 0x40 MLOAD PUSH1 0x20 ADD PUSH2 0xD4D SWAP3 SWAP2 SWAP1 PUSH2 0x2539 JUMP JUMPDEST PUSH1 0x40 MLOAD PUSH1 0x20 DUP2 DUP4 SUB SUB DUP2 MSTORE SWAP1 PUSH1 0x40 MSTORE DUP1 MLOAD SWAP1 PUSH1 0x20 ADD KECCAK256 EQ PUSH2 0xD6F JUMPI PUSH1 0x0 PUSH2 0xD72 JUMP JUMPDEST PUSH1 0x1 JUMPDEST SWAP1 POP SWAP5 SWAP4 POP POP POP POP JUMP JUMPDEST PUSH1 0x1 PUSH1 0x20 PUSH1 0x0 PUSH20 0x5B38DA6A701C568545DCFCB03FCB875F56BEDDC4 PUSH20 0xFFFFFFFFFFFFFFFFFFFFFFFFFFFFFFFFFFFFFFFF AND PUSH20 0xFFFFFFFFFFFFFFFFFFFFFFFFFFFFFFFFFFFFFFFF AND DUP2 MSTORE PUSH1 0x20 ADD SWAP1 DUP2 MSTORE PUSH1 0x20 ADD PUSH1 0x0 KECCAK256 PUSH1 0x0 CALLER PUSH20 0xFFFFFFFFFFFFFFFFFFFFFFFFFFFFFFFFFFFFFFFF AND PUSH20 0xFFFFFFFFFFFFFFFFFFFFFFFFFFFFFFFFFFFFFFFF AND DUP2 MSTORE PUSH1 0x20 ADD SWAP1 DUP2 MSTORE PUSH1 0x20 ADD PUSH1 0x0 KECCAK256 PUSH1 0x0 PUSH2 0x100 EXP DUP2 SLOAD DUP2 PUSH1 0xFF MUL NOT AND SWAP1 DUP4 ISZERO ISZERO MUL OR SWAP1 SSTORE POP JUMP JUMPDEST PUSH2 0xE2F PUSH2 0x143A JUMP JUMPDEST PUSH1 0x0 PUSH1 0x40 MLOAD DUP1 PUSH1 0x60 ADD PUSH1 0x40 MSTORE DUP1 PUSH1 0x40 MLOAD DUP1 PUSH1 0x40 ADD PUSH1 0x40 MSTORE DUP1 PUSH1 0x5 DUP2 MSTORE PUSH1 0x20 ADD PUSH32 0x7961736572000000000000000000000000000000000000000000000000000000 DUP2 MSTORE POP DUP2 MSTORE PUSH1 0x20 ADD PUSH1 0x1 DUP2 MSTORE PUSH1 0x20 ADD PUSH1 0x1D DUP2 MSTORE POP SWAP1 POP DUP1 SWAP2 POP POP SWAP1 JUMP JUMPDEST PUSH2 0xE94 PUSH2 0x145B JUMP JUMPDEST PUSH1 0x0 JUMPDEST PUSH1 0x1 PUSH1 0x5 PUSH2 0xEA5 SWAP2 SWAP1 PUSH2 0x20C8 JUMP JUMPDEST DUP2 LT ISZERO PUSH2 0xFAE JUMPI PUSH1 0x0 JUMPDEST PUSH1 0x1 PUSH1 0x5 PUSH2 0xEBD SWAP2 SWAP1 PUSH2 0x20C8 JUMP JUMPDEST DUP2 LT ISZERO PUSH2 0xF9A JUMPI DUP4 PUSH1 0x1 DUP3 PUSH2 0xED2 SWAP2 SWAP1 PUSH2 0x2614 JUMP JUMPDEST PUSH1 0x5 DUP2 LT PUSH2 0xEE3 JUMPI PUSH2 0xEE2 PUSH2 0x20FC JUMP JUMPDEST JUMPDEST PUSH1 0x20 MUL ADD MLOAD DUP5 DUP3 PUSH1 0x5 DUP2 LT PUSH2 0xEFB JUMPI PUSH2 0xEFA PUSH2 0x20FC JUMP JUMPDEST JUMPDEST PUSH1 0x20 MUL ADD MLOAD SGT ISZERO PUSH2 0xF87 JUMPI DUP4 PUSH1 0x1 DUP3 PUSH2 0xF14 SWAP2 SWAP1 PUSH2 0x2614 JUMP JUMPDEST PUSH1 0x5 DUP2 LT PUSH2 0xF25 JUMPI PUSH2 0xF24 PUSH2 0x20FC JUMP JUMPDEST JUMPDEST PUSH1 0x20 MUL ADD MLOAD DUP5 DUP3 PUSH1 0x5 DUP2 LT PUSH2 0xF3D JUMPI PUSH2 0xF3C PUSH2 0x20FC JUMP JUMPDEST JUMPDEST PUSH1 0x20 MUL ADD MLOAD DUP6 DUP4 PUSH1 0x5 DUP2 LT PUSH2 0xF55 JUMPI PUSH2 0xF54 PUSH2 0x20FC JUMP JUMPDEST JUMPDEST PUSH1 0x20 MUL ADD DUP7 PUSH1 0x1 DUP6 PUSH2 0xF67 SWAP2 SWAP1 PUSH2 0x2614 JUMP JUMPDEST PUSH1 0x5 DUP2 LT PUSH2 0xF78 JUMPI PUSH2 0xF77 PUSH2 0x20FC JUMP JUMPDEST JUMPDEST PUSH1 0x20 MUL ADD DUP3 DUP2 MSTORE POP DUP3 DUP2 MSTORE POP POP POP JUMPDEST DUP1 DUP1 PUSH2 0xF92 SWAP1 PUSH2 0x212B JUMP JUMPDEST SWAP2 POP POP PUSH2 0xEAF JUMP JUMPDEST POP DUP1 DUP1 PUSH2 0xFA6 SWAP1 PUSH2 0x212B JUMP JUMPDEST SWAP2 POP POP PUSH2 0xE97 JUMP JUMPDEST POP DUP2 SWAP1 POP SWAP2 SWAP1 POP JUMP JUMPDEST PUSH1 0x21 DUP1 SLOAD DUP1 PUSH2 0xFC9 JUMPI PUSH2 0xFC8 PUSH2 0x2648 JUMP JUMPDEST JUMPDEST PUSH1 0x1 SWAP1 SUB DUP2 DUP2 SWAP1 PUSH1 0x0 MSTORE PUSH1 0x20 PUSH1 0x0 KECCAK256 ADD PUSH1 0x0 PUSH2 0xFE5 SWAP2 SWAP1 PUSH2 0x147D JUMP JUMPDEST SWAP1 SSTORE JUMP JUMPDEST PUSH2 0xFF1 PUSH2 0x14BD JUMP JUMPDEST PUSH1 0x1E PUSH1 0x0 CALLER PUSH20 0xFFFFFFFFFFFFFFFFFFFFFFFFFFFFFFFFFFFFFFFF AND PUSH20 0xFFFFFFFFFFFFFFFFFFFFFFFFFFFFFFFFFFFFFFFF AND DUP2 MSTORE PUSH1 0x20 ADD SWAP1 DUP2 MSTORE PUSH1 0x20 ADD PUSH1 0x0 KECCAK256 PUSH1 0x3 DUP1 PUSH1 0x20 MUL PUSH1 0x40 MLOAD SWAP1 DUP2 ADD PUSH1 0x40 MSTORE DUP1 SWAP3 SWAP2 SWAP1 DUP3 PUSH1 0x3 DUP1 ISZERO PUSH2 0x1067 JUMPI PUSH1 0x20 MUL DUP3 ADD SWAP2 JUMPDEST DUP2 SLOAD DUP2 MSTORE PUSH1 0x20 ADD SWAP1 PUSH1 0x1 ADD SWAP1 DUP1 DUP4 GT PUSH2 0x1053 JUMPI JUMPDEST POP POP POP POP POP SWAP1 POP SWAP1 JUMP JUMPDEST PUSH1 0x0 DUP1 PUSH1 0x40 MLOAD DUP1 PUSH1 0xA0 ADD PUSH1 0x40 MSTORE DUP1 PUSH1 0x1 PUSH1 0xFF AND DUP2 MSTORE PUSH1 0x20 ADD PUSH1 0x2 PUSH1 0xFF AND DUP2 MSTORE PUSH1 0x20 ADD PUSH1 0x3 PUSH1 0xFF AND DUP2 MSTORE PUSH1 0x20 ADD PUSH1 0x4 PUSH1 0xFF AND DUP2 MSTORE PUSH1 0x20 ADD PUSH1 0x5 PUSH1 0xFF AND DUP2 MSTORE POP SWAP1 POP PUSH1 0x0 JUMPDEST PUSH1 0x5 DUP2 LT ISZERO PUSH2 0x10FC JUMPI DUP4 DUP3 DUP3 PUSH1 0x5 DUP2 LT PUSH2 0x10D1 JUMPI PUSH2 0x10D0 PUSH2 0x20FC JUMP JUMPDEST JUMPDEST PUSH1 0x20 MUL ADD MLOAD PUSH1 0xFF AND SUB PUSH2 0x10E9 JUMPI PUSH1 0x1 SWAP3 POP POP POP PUSH2 0x1103 JUMP JUMPDEST DUP1 DUP1 PUSH2 0x10F4 SWAP1 PUSH2 0x212B JUMP JUMPDEST SWAP2 POP POP PUSH2 0x10B4 JUMP JUMPDEST POP PUSH1 0x0 SWAP2 POP POP JUMPDEST SWAP2 SWAP1 POP JUMP JUMPDEST PUSH1 0x40 MLOAD DUP1 PUSH1 0x60 ADD PUSH1 0x40 MSTORE DUP1 DUP6 DUP6 DUP1 DUP1 PUSH1 0x1F ADD PUSH1 0x20 DUP1 SWAP2 DIV MUL PUSH1 0x20 ADD PUSH1 0x40 MLOAD SWAP1 DUP2 ADD PUSH1 0x40 MSTORE DUP1 SWAP4 SWAP3 SWAP2 SWAP1 DUP2 DUP2 MSTORE PUSH1 0x20 ADD DUP4 DUP4 DUP1 DUP3 DUP5 CALLDATACOPY PUSH1 0x0 DUP2 DUP5 ADD MSTORE PUSH1 0x1F NOT PUSH1 0x1F DUP3 ADD AND SWAP1 POP DUP1 DUP4 ADD SWAP3 POP POP POP POP POP POP POP DUP2 MSTORE PUSH1 0x20 ADD DUP4 DUP2 MSTORE PUSH1 0x20 ADD DUP3 DUP2 MSTORE POP PUSH1 0x0 DUP4 PUSH1 0xA DUP2 LT PUSH2 0x117B JUMPI PUSH2 0x117A PUSH2 0x20FC JUMP JUMPDEST JUMPDEST PUSH1 0x3 MUL ADD PUSH1 0x0 DUP3 ADD MLOAD DUP2 PUSH1 0x0 ADD SWAP1 DUP2 PUSH2 0x1194 SWAP2 SWAP1 PUSH2 0x237F JUMP JUMPDEST POP PUSH1 0x20 DUP3 ADD MLOAD DUP2 PUSH1 0x1 ADD SSTORE PUSH1 0x40 DUP3 ADD MLOAD DUP2 PUSH1 0x2 ADD SSTORE SWAP1 POP POP POP POP POP POP JUMP JUMPDEST PUSH1 0x0 DUP1 PUSH1 0x0 JUMPDEST DUP4 MLOAD DUP2 LT ISZERO PUSH2 0x11FC JUMPI DUP4 DUP2 DUP2 MLOAD DUP2 LT PUSH2 0x11D4 JUMPI PUSH2 0x11D3 PUSH2 0x20FC JUMP JUMPDEST JUMPDEST PUSH1 0x20 MUL PUSH1 0x20 ADD ADD MLOAD DUP3 PUSH2 0x11E7 SWAP2 SWAP1 PUSH2 0x2677 JUMP JUMPDEST SWAP2 POP DUP1 DUP1 PUSH2 0x11F4 SWAP1 PUSH2 0x212B JUMP JUMPDEST SWAP2 POP POP PUSH2 0x11B8 JUMP JUMPDEST POP DUP1 SWAP2 POP POP SWAP2 SWAP1 POP JUMP JUMPDEST PUSH1 0x0 PUSH1 0x20 PUSH1 0x0 PUSH20 0x5B38DA6A701C568545DCFCB03FCB875F56BEDDC4 PUSH20 0xFFFFFFFFFFFFFFFFFFFFFFFFFFFFFFFFFFFFFFFF AND PUSH20 0xFFFFFFFFFFFFFFFFFFFFFFFFFFFFFFFFFFFFFFFF AND DUP2 MSTORE PUSH1 0x20 ADD SWAP1 DUP2 MSTORE PUSH1 0x20 ADD PUSH1 0x0 KECCAK256 PUSH1 0x0 PUSH20 0x5B38DA6A701C568545DCFCB03FCB875F56BEDDC4 PUSH20 0xFFFFFFFFFFFFFFFFFFFFFFFFFFFFFFFFFFFFFFFF AND PUSH20 0xFFFFFFFFFFFFFFFFFFFFFFFFFFFFFFFFFFFFFFFF AND DUP2 MSTORE PUSH1 0x20 ADD SWAP1 DUP2 MSTORE PUSH1 0x20 ADD PUSH1 0x0 KECCAK256 PUSH1 0x0 PUSH2 0x100 EXP DUP2 SLOAD DUP2 PUSH1 0xFF MUL NOT AND SWAP1 DUP4 ISZERO ISZERO MUL OR SWAP1 SSTORE POP PUSH1 0x0 PUSH1 0x20 PUSH1 0x0 PUSH20 0x5B38DA6A701C568545DCFCB03FCB875F56BEDDC4 PUSH20 0xFFFFFFFFFFFFFFFFFFFFFFFFFFFFFFFFFFFFFFFF AND PUSH20 0xFFFFFFFFFFFFFFFFFFFFFFFFFFFFFFFFFFFFFFFF AND DUP2 MSTORE PUSH1 0x20 ADD SWAP1 DUP2 MSTORE PUSH1 0x20 ADD PUSH1 0x0 KECCAK256 PUSH1 0x0 PUSH20 0xAB8483F64D9C6D1ECF9B849AE677DD3315835CB2 PUSH20 0xFFFFFFFFFFFFFFFFFFFFFFFFFFFFFFFFFFFFFFFF AND PUSH20 0xFFFFFFFFFFFFFFFFFFFFFFFFFFFFFFFFFFFFFFFF AND DUP2 MSTORE PUSH1 0x20 ADD SWAP1 DUP2 MSTORE PUSH1 0x20 ADD PUSH1 0x0 KECCAK256 PUSH1 0x0 PUSH2 0x100 EXP DUP2 SLOAD DUP2 PUSH1 0xFF MUL NOT AND SWAP1 DUP4 ISZERO ISZERO MUL OR SWAP1 SSTORE POP JUMP JUMPDEST PUSH1 0x0 DUP2 PUSH1 0xA DUP2 LT PUSH2 0x1392 JUMPI PUSH1 0x0 DUP1 REVERT JUMPDEST PUSH1 0x3 MUL ADD PUSH1 0x0 SWAP2 POP SWAP1 POP DUP1 PUSH1 0x0 ADD DUP1 SLOAD PUSH2 0x13AB SWAP1 PUSH2 0x21A2 JUMP JUMPDEST DUP1 PUSH1 0x1F ADD PUSH1 0x20 DUP1 SWAP2 DIV MUL PUSH1 0x20 ADD PUSH1 0x40 MLOAD SWAP1 DUP2 ADD PUSH1 0x40 MSTORE DUP1 SWAP3 SWAP2 SWAP1 DUP2 DUP2 MSTORE PUSH1 0x20 ADD DUP3 DUP1 SLOAD PUSH2 0x13D7 SWAP1 PUSH2 0x21A2 JUMP JUMPDEST DUP1 ISZERO PUSH2 0x1424 JUMPI DUP1 PUSH1 0x1F LT PUSH2 0x13F9 JUMPI PUSH2 0x100 DUP1 DUP4 SLOAD DIV MUL DUP4 MSTORE SWAP2 PUSH1 0x20 ADD SWAP2 PUSH2 0x1424 JUMP JUMPDEST DUP3 ADD SWAP2 SWAP1 PUSH1 0x0 MSTORE PUSH1 0x20 PUSH1 0x0 KECCAK256 SWAP1 JUMPDEST DUP2 SLOAD DUP2 MSTORE SWAP1 PUSH1 0x1 ADD SWAP1 PUSH1 0x20 ADD DUP1 DUP4 GT PUSH2 0x1407 JUMPI DUP3 SWAP1 SUB PUSH1 0x1F AND DUP3 ADD SWAP2 JUMPDEST POP POP POP POP POP SWAP1 DUP1 PUSH1 0x1 ADD SLOAD SWAP1 DUP1 PUSH1 0x2 ADD SLOAD SWAP1 POP DUP4 JUMP JUMPDEST PUSH1 0x40 MLOAD DUP1 PUSH1 0x60 ADD PUSH1 0x40 MSTORE DUP1 PUSH1 0x60 DUP2 MSTORE PUSH1 0x20 ADD PUSH1 0x0 DUP2 MSTORE PUSH1 0x20 ADD PUSH1 0x0 DUP2 MSTORE POP SWAP1 JUMP JUMPDEST PUSH1 0x40 MLOAD DUP1 PUSH1 0xA0 ADD PUSH1 0x40 MSTORE DUP1 PUSH1 0x5 SWAP1 PUSH1 0x20 DUP3 MUL DUP1 CALLDATASIZE DUP4 CALLDATACOPY DUP1 DUP3 ADD SWAP2 POP POP SWAP1 POP POP SWAP1 JUMP JUMPDEST POP DUP1 SLOAD PUSH2 0x1489 SWAP1 PUSH2 0x21A2 JUMP JUMPDEST PUSH1 0x0 DUP3 SSTORE DUP1 PUSH1 0x1F LT PUSH2 0x149B JUMPI POP PUSH2 0x14BA JUMP JUMPDEST PUSH1 0x1F ADD PUSH1 0x20 SWAP1 DIV SWAP1 PUSH1 0x0 MSTORE PUSH1 0x20 PUSH1 0x0 KECCAK256 SWAP1 DUP2 ADD SWAP1 PUSH2 0x14B9 SWAP2 SWAP1 PUSH2 0x14DF JUMP JUMPDEST JUMPDEST POP JUMP JUMPDEST PUSH1 0x40 MLOAD DUP1 PUSH1 0x60 ADD PUSH1 0x40 MSTORE DUP1 PUSH1 0x3 SWAP1 PUSH1 0x20 DUP3 MUL DUP1 CALLDATASIZE DUP4 CALLDATACOPY DUP1 DUP3 ADD SWAP2 POP POP SWAP1 POP POP SWAP1 JUMP JUMPDEST JUMPDEST DUP1 DUP3 GT ISZERO PUSH2 0x14F8 JUMPI PUSH1 0x0 DUP2 PUSH1 0x0 SWAP1 SSTORE POP PUSH1 0x1 ADD PUSH2 0x14E0 JUMP JUMPDEST POP SWAP1 JUMP JUMPDEST PUSH1 0x0 PUSH1 0x40 MLOAD SWAP1 POP SWAP1 JUMP JUMPDEST PUSH1 0x0 DUP1 REVERT JUMPDEST PUSH1 0x0 DUP1 REVERT JUMPDEST PUSH1 0x0 DUP1 REVERT JUMPDEST PUSH1 0x0 PUSH1 0x1F NOT PUSH1 0x1F DUP4 ADD AND SWAP1 POP SWAP2 SWAP1 POP JUMP JUMPDEST PUSH32 0x4E487B7100000000000000000000000000000000000000000000000000000000 PUSH1 0x0 MSTORE PUSH1 0x41 PUSH1 0x4 MSTORE PUSH1 0x24 PUSH1 0x0 REVERT JUMPDEST PUSH2 0x155E DUP3 PUSH2 0x1515 JUMP JUMPDEST DUP2 ADD DUP2 DUP2 LT PUSH8 0xFFFFFFFFFFFFFFFF DUP3 GT OR ISZERO PUSH2 0x157D JUMPI PUSH2 0x157C PUSH2 0x1526 JUMP JUMPDEST JUMPDEST DUP1 PUSH1 0x40 MSTORE POP POP POP JUMP JUMPDEST PUSH1 0x0 PUSH2 0x1590 PUSH2 0x14FC JUMP JUMPDEST SWAP1 POP PUSH2 0x159C DUP3 DUP3 PUSH2 0x1555 JUMP JUMPDEST SWAP2 SWAP1 POP JUMP JUMPDEST PUSH1 0x0 PUSH8 0xFFFFFFFFFFFFFFFF DUP3 GT ISZERO PUSH2 0x15BC JUMPI PUSH2 0x15BB PUSH2 0x1526 JUMP JUMPDEST JUMPDEST PUSH1 0x20 DUP3 MUL SWAP1 POP PUSH1 0x20 DUP2 ADD SWAP1 POP SWAP2 SWAP1 POP JUMP JUMPDEST PUSH1 0x0 DUP1 REVERT JUMPDEST PUSH1 0x0 DUP2 SWAP1 POP SWAP2 SWAP1 POP JUMP JUMPDEST PUSH2 0x15E5 DUP2 PUSH2 0x15D2 JUMP JUMPDEST DUP2 EQ PUSH2 0x15F0 JUMPI PUSH1 0x0 DUP1 REVERT JUMPDEST POP JUMP JUMPDEST PUSH1 0x0 DUP2 CALLDATALOAD SWAP1 POP PUSH2 0x1602 DUP2 PUSH2 0x15DC JUMP JUMPDEST SWAP3 SWAP2 POP POP JUMP JUMPDEST PUSH1 0x0 PUSH2 0x161B PUSH2 0x1616 DUP5 PUSH2 0x15A1 JUMP JUMPDEST PUSH2 0x1586 JUMP JUMPDEST SWAP1 POP DUP1 DUP4 DUP3 MSTORE PUSH1 0x20 DUP3 ADD SWAP1 POP PUSH1 0x20 DUP5 MUL DUP4 ADD DUP6 DUP2 GT ISZERO PUSH2 0x163E JUMPI PUSH2 0x163D PUSH2 0x15CD JUMP JUMPDEST JUMPDEST DUP4 JUMPDEST DUP2 DUP2 LT ISZERO PUSH2 0x1667 JUMPI DUP1 PUSH2 0x1653 DUP9 DUP3 PUSH2 0x15F3 JUMP JUMPDEST DUP5 MSTORE PUSH1 0x20 DUP5 ADD SWAP4 POP POP PUSH1 0x20 DUP2 ADD SWAP1 POP PUSH2 0x1640 JUMP JUMPDEST POP POP POP SWAP4 SWAP3 POP POP POP JUMP JUMPDEST PUSH1 0x0 DUP3 PUSH1 0x1F DUP4 ADD SLT PUSH2 0x1686 JUMPI PUSH2 0x1685 PUSH2 0x1510 JUMP JUMPDEST JUMPDEST DUP2 CALLDATALOAD PUSH2 0x1696 DUP5 DUP3 PUSH1 0x20 DUP7 ADD PUSH2 0x1608 JUMP JUMPDEST SWAP2 POP POP SWAP3 SWAP2 POP POP JUMP JUMPDEST PUSH1 0x0 PUSH1 0x20 DUP3 DUP5 SUB SLT ISZERO PUSH2 0x16B5 JUMPI PUSH2 0x16B4 PUSH2 0x1506 JUMP JUMPDEST JUMPDEST PUSH1 0x0 DUP3 ADD CALLDATALOAD PUSH8 0xFFFFFFFFFFFFFFFF DUP2 GT ISZERO PUSH2 0x16D3 JUMPI PUSH2 0x16D2 PUSH2 0x150B JUMP JUMPDEST JUMPDEST PUSH2 0x16DF DUP5 DUP3 DUP6 ADD PUSH2 0x1671 JUMP JUMPDEST SWAP2 POP POP SWAP3 SWAP2 POP POP JUMP JUMPDEST PUSH1 0x0 DUP2 MLOAD SWAP1 POP SWAP2 SWAP1 POP JUMP JUMPDEST PUSH1 0x0 DUP3 DUP3 MSTORE PUSH1 0x20 DUP3 ADD SWAP1 POP SWAP3 SWAP2 POP POP JUMP JUMPDEST PUSH1 0x0 DUP2 SWAP1 POP PUSH1 0x20 DUP3 ADD SWAP1 POP SWAP2 SWAP1 POP JUMP JUMPDEST PUSH2 0x171D DUP2 PUSH2 0x15D2 JUMP JUMPDEST DUP3 MSTORE POP POP JUMP JUMPDEST PUSH1 0x0 PUSH2 0x172F DUP4 DUP4 PUSH2 0x1714 JUMP JUMPDEST PUSH1 0x20 DUP4 ADD SWAP1 POP SWAP3 SWAP2 POP POP JUMP JUMPDEST PUSH1 0x0 PUSH1 0x20 DUP3 ADD SWAP1 POP SWAP2 SWAP1 POP JUMP JUMPDEST PUSH1 0x0 PUSH2 0x1753 DUP3 PUSH2 0x16E8 JUMP JUMPDEST PUSH2 0x175D DUP2 DUP6 PUSH2 0x16F3 JUMP JUMPDEST SWAP4 POP PUSH2 0x1768 DUP4 PUSH2 0x1704 JUMP JUMPDEST DUP1 PUSH1 0x0 JUMPDEST DUP4 DUP2 LT ISZERO PUSH2 0x1799 JUMPI DUP2 MLOAD PUSH2 0x1780 DUP9 DUP3 PUSH2 0x1723 JUMP JUMPDEST SWAP8 POP PUSH2 0x178B DUP4 PUSH2 0x173B JUMP JUMPDEST SWAP3 POP POP PUSH1 0x1 DUP2 ADD SWAP1 POP PUSH2 0x176C JUMP JUMPDEST POP DUP6 SWAP4 POP POP POP POP SWAP3 SWAP2 POP POP JUMP JUMPDEST PUSH1 0x0 PUSH1 0x20 DUP3 ADD SWAP1 POP DUP2 DUP2 SUB PUSH1 0x0 DUP4 ADD MSTORE PUSH2 0x17C0 DUP2 DUP5 PUSH2 0x1748 JUMP JUMPDEST SWAP1 POP SWAP3 SWAP2 POP POP JUMP JUMPDEST PUSH1 0x0 DUP1 REVERT JUMPDEST PUSH1 0x0 PUSH8 0xFFFFFFFFFFFFFFFF DUP3 GT ISZERO PUSH2 0x17E8 JUMPI PUSH2 0x17E7 PUSH2 0x1526 JUMP JUMPDEST JUMPDEST PUSH2 0x17F1 DUP3 PUSH2 0x1515 JUMP JUMPDEST SWAP1 POP PUSH1 0x20 DUP2 ADD SWAP1 POP SWAP2 SWAP1 POP JUMP JUMPDEST DUP3 DUP2 DUP4 CALLDATACOPY PUSH1 0x0 DUP4 DUP4 ADD MSTORE POP POP POP JUMP JUMPDEST PUSH1 0x0 PUSH2 0x1820 PUSH2 0x181B DUP5 PUSH2 0x17CD JUMP JUMPDEST PUSH2 0x1586 JUMP JUMPDEST SWAP1 POP DUP3 DUP2 MSTORE PUSH1 0x20 DUP2 ADD DUP5 DUP5 DUP5 ADD GT ISZERO PUSH2 0x183C JUMPI PUSH2 0x183B PUSH2 0x17C8 JUMP JUMPDEST JUMPDEST PUSH2 0x1847 DUP5 DUP3 DUP6 PUSH2 0x17FE JUMP JUMPDEST POP SWAP4 SWAP3 POP POP POP JUMP JUMPDEST PUSH1 0x0 DUP3 PUSH1 0x1F DUP4 ADD SLT PUSH2 0x1864 JUMPI PUSH2 0x1863 PUSH2 0x1510 JUMP JUMPDEST JUMPDEST DUP2 CALLDATALOAD PUSH2 0x1874 DUP5 DUP3 PUSH1 0x20 DUP7 ADD PUSH2 0x180D JUMP JUMPDEST SWAP2 POP POP SWAP3 SWAP2 POP POP JUMP JUMPDEST PUSH1 0x0 PUSH1 0x20 DUP3 DUP5 SUB SLT ISZERO PUSH2 0x1893 JUMPI PUSH2 0x1892 PUSH2 0x1506 JUMP JUMPDEST JUMPDEST PUSH1 0x0 DUP3 ADD CALLDATALOAD PUSH8 0xFFFFFFFFFFFFFFFF DUP2 GT ISZERO PUSH2 0x18B1 JUMPI PUSH2 0x18B0 PUSH2 0x150B JUMP JUMPDEST JUMPDEST PUSH2 0x18BD DUP5 DUP3 DUP6 ADD PUSH2 0x184F JUMP JUMPDEST SWAP2 POP POP SWAP3 SWAP2 POP POP JUMP JUMPDEST PUSH1 0x0 DUP2 MLOAD SWAP1 POP SWAP2 SWAP1 POP JUMP JUMPDEST PUSH1 0x0 DUP3 DUP3 MSTORE PUSH1 0x20 DUP3 ADD SWAP1 POP SWAP3 SWAP2 POP POP JUMP JUMPDEST PUSH1 0x0 DUP2 SWAP1 POP PUSH1 0x20 DUP3 ADD SWAP1 POP SWAP2 SWAP1 POP JUMP JUMPDEST PUSH1 0x0 DUP2 MLOAD SWAP1 POP SWAP2 SWAP1 POP JUMP JUMPDEST PUSH1 0x0 DUP3 DUP3 MSTORE PUSH1 0x20 DUP3 ADD SWAP1 POP SWAP3 SWAP2 POP POP JUMP JUMPDEST PUSH1 0x0 JUMPDEST DUP4 DUP2 LT ISZERO PUSH2 0x192C JUMPI DUP1 DUP3 ADD MLOAD DUP2 DUP5 ADD MSTORE PUSH1 0x20 DUP2 ADD SWAP1 POP PUSH2 0x1911 JUMP JUMPDEST PUSH1 0x0 DUP5 DUP5 ADD MSTORE POP POP POP POP JUMP JUMPDEST PUSH1 0x0 PUSH2 0x1943 DUP3 PUSH2 0x18F2 JUMP JUMPDEST PUSH2 0x194D DUP2 DUP6 PUSH2 0x18FD JUMP JUMPDEST SWAP4 POP PUSH2 0x195D DUP2 DUP6 PUSH1 0x20 DUP7 ADD PUSH2 0x190E JUMP JUMPDEST PUSH2 0x1966 DUP2 PUSH2 0x1515 JUMP JUMPDEST DUP5 ADD SWAP2 POP POP SWAP3 SWAP2 POP POP JUMP JUMPDEST PUSH1 0x0 PUSH2 0x197D DUP4 DUP4 PUSH2 0x1938 JUMP JUMPDEST SWAP1 POP SWAP3 SWAP2 POP POP JUMP JUMPDEST PUSH1 0x0 PUSH1 0x20 DUP3 ADD SWAP1 POP SWAP2 SWAP1 POP JUMP JUMPDEST PUSH1 0x0 PUSH2 0x199D DUP3 PUSH2 0x18C6 JUMP JUMPDEST PUSH2 0x19A7 DUP2 DUP6 PUSH2 0x18D1 JUMP JUMPDEST SWAP4 POP DUP4 PUSH1 0x20 DUP3 MUL DUP6 ADD PUSH2 0x19B9 DUP6 PUSH2 0x18E2 JUMP JUMPDEST DUP1 PUSH1 0x0 JUMPDEST DUP6 DUP2 LT ISZERO PUSH2 0x19F5 JUMPI DUP5 DUP5 SUB DUP10 MSTORE DUP2 MLOAD PUSH2 0x19D6 DUP6 DUP3 PUSH2 0x1971 JUMP JUMPDEST SWAP5 POP PUSH2 0x19E1 DUP4 PUSH2 0x1985 JUMP JUMPDEST SWAP3 POP PUSH1 0x20 DUP11 ADD SWAP10 POP POP PUSH1 0x1 DUP2 ADD SWAP1 POP PUSH2 0x19BD JUMP JUMPDEST POP DUP3 SWAP8 POP DUP8 SWAP6 POP POP POP POP POP POP SWAP3 SWAP2 POP POP JUMP JUMPDEST PUSH1 0x0 PUSH1 0x20 DUP3 ADD SWAP1 POP DUP2 DUP2 SUB PUSH1 0x0 DUP4 ADD MSTORE PUSH2 0x1A21 DUP2 DUP5 PUSH2 0x1992 JUMP JUMPDEST SWAP1 POP SWAP3 SWAP2 POP POP JUMP JUMPDEST PUSH1 0x0 DUP1 REVERT JUMPDEST PUSH1 0x0 DUP1 DUP4 PUSH1 0x1F DUP5 ADD SLT PUSH2 0x1A44 JUMPI PUSH2 0x1A43 PUSH2 0x1510 JUMP JUMPDEST JUMPDEST DUP3 CALLDATALOAD SWAP1 POP PUSH8 0xFFFFFFFFFFFFFFFF DUP2 GT ISZERO PUSH2 0x1A61 JUMPI PUSH2 0x1A60 PUSH2 0x1A29 JUMP JUMPDEST JUMPDEST PUSH1 0x20 DUP4 ADD SWAP2 POP DUP4 PUSH1 0x1 DUP3 MUL DUP4 ADD GT ISZERO PUSH2 0x1A7D JUMPI PUSH2 0x1A7C PUSH2 0x15CD JUMP JUMPDEST JUMPDEST SWAP3 POP SWAP3 SWAP1 POP JUMP JUMPDEST PUSH1 0x0 DUP1 PUSH1 0x0 DUP1 PUSH1 0x40 DUP6 DUP8 SUB SLT ISZERO PUSH2 0x1A9E JUMPI PUSH2 0x1A9D PUSH2 0x1506 JUMP JUMPDEST JUMPDEST PUSH1 0x0 DUP6 ADD CALLDATALOAD PUSH8 0xFFFFFFFFFFFFFFFF DUP2 GT ISZERO PUSH2 0x1ABC JUMPI PUSH2 0x1ABB PUSH2 0x150B JUMP JUMPDEST JUMPDEST PUSH2 0x1AC8 DUP8 DUP3 DUP9 ADD PUSH2 0x1A2E JUMP JUMPDEST SWAP5 POP SWAP5 POP POP PUSH1 0x20 DUP6 ADD CALLDATALOAD PUSH8 0xFFFFFFFFFFFFFFFF DUP2 GT ISZERO PUSH2 0x1AEB JUMPI PUSH2 0x1AEA PUSH2 0x150B JUMP JUMPDEST JUMPDEST PUSH2 0x1AF7 DUP8 DUP3 DUP9 ADD PUSH2 0x1A2E JUMP JUMPDEST SWAP3 POP SWAP3 POP POP SWAP3 SWAP6 SWAP2 SWAP5 POP SWAP3 POP JUMP JUMPDEST PUSH1 0x0 DUP3 DUP3 MSTORE PUSH1 0x20 DUP3 ADD SWAP1 POP SWAP3 SWAP2 POP POP JUMP JUMPDEST PUSH1 0x0 PUSH2 0x1B21 DUP3 PUSH2 0x18F2 JUMP JUMPDEST PUSH2 0x1B2B DUP2 DUP6 PUSH2 0x1B05 JUMP JUMPDEST SWAP4 POP PUSH2 0x1B3B DUP2 DUP6 PUSH1 0x20 DUP7 ADD PUSH2 0x190E JUMP JUMPDEST PUSH2 0x1B44 DUP2 PUSH2 0x1515 JUMP JUMPDEST DUP5 ADD SWAP2 POP POP SWAP3 SWAP2 POP POP JUMP JUMPDEST PUSH1 0x0 PUSH1 0x20 DUP3 ADD SWAP1 POP DUP2 DUP2 SUB PUSH1 0x0 DUP4 ADD MSTORE PUSH2 0x1B69 DUP2 DUP5 PUSH2 0x1B16 JUMP JUMPDEST SWAP1 POP SWAP3 SWAP2 POP POP JUMP JUMPDEST PUSH1 0x0 DUP2 SWAP1 POP SWAP2 SWAP1 POP JUMP JUMPDEST PUSH2 0x1B84 DUP2 PUSH2 0x1B71 JUMP JUMPDEST DUP3 MSTORE POP POP JUMP JUMPDEST PUSH1 0x0 PUSH1 0x60 DUP4 ADD PUSH1 0x0 DUP4 ADD MLOAD DUP5 DUP3 SUB PUSH1 0x0 DUP7 ADD MSTORE PUSH2 0x1BA7 DUP3 DUP3 PUSH2 0x1938 JUMP JUMPDEST SWAP2 POP POP PUSH1 0x20 DUP4 ADD MLOAD PUSH2 0x1BBC PUSH1 0x20 DUP7 ADD DUP3 PUSH2 0x1B7B JUMP JUMPDEST POP PUSH1 0x40 DUP4 ADD MLOAD PUSH2 0x1BCF PUSH1 0x40 DUP7 ADD DUP3 PUSH2 0x1B7B JUMP JUMPDEST POP DUP1 SWAP2 POP POP SWAP3 SWAP2 POP POP JUMP JUMPDEST PUSH1 0x0 PUSH1 0x20 DUP3 ADD SWAP1 POP DUP2 DUP2 SUB PUSH1 0x0 DUP4 ADD MSTORE PUSH2 0x1BF4 DUP2 DUP5 PUSH2 0x1B8A JUMP JUMPDEST SWAP1 POP SWAP3 SWAP2 POP POP JUMP JUMPDEST PUSH1 0x0 DUP2 ISZERO ISZERO SWAP1 POP SWAP2 SWAP1 POP JUMP JUMPDEST PUSH2 0x1C11 DUP2 PUSH2 0x1BFC JUMP JUMPDEST DUP3 MSTORE POP POP JUMP JUMPDEST PUSH1 0x0 PUSH1 0x20 DUP3 ADD SWAP1 POP PUSH2 0x1C2C PUSH1 0x0 DUP4 ADD DUP5 PUSH2 0x1C08 JUMP JUMPDEST SWAP3 SWAP2 POP POP JUMP JUMPDEST PUSH2 0x1C3B DUP2 PUSH2 0x1B71 JUMP JUMPDEST DUP2 EQ PUSH2 0x1C46 JUMPI PUSH1 0x0 DUP1 REVERT JUMPDEST POP JUMP JUMPDEST PUSH1 0x0 DUP2 CALLDATALOAD SWAP1 POP PUSH2 0x1C58 DUP2 PUSH2 0x1C32 JUMP JUMPDEST SWAP3 SWAP2 POP POP JUMP JUMPDEST PUSH1 0x0 DUP1 PUSH1 0x40 DUP4 DUP6 SUB SLT ISZERO PUSH2 0x1C75 JUMPI PUSH2 0x1C74 PUSH2 0x1506 JUMP JUMPDEST JUMPDEST PUSH1 0x0 PUSH2 0x1C83 DUP6 DUP3 DUP7 ADD PUSH2 0x15F3 JUMP JUMPDEST SWAP3 POP POP PUSH1 0x20 PUSH2 0x1C94 DUP6 DUP3 DUP7 ADD PUSH2 0x1C49 JUMP JUMPDEST SWAP2 POP POP SWAP3 POP SWAP3 SWAP1 POP JUMP JUMPDEST PUSH1 0x0 DUP2 SWAP1 POP DUP3 PUSH1 0x20 PUSH1 0x4 MUL DUP3 ADD GT ISZERO PUSH2 0x1CBA JUMPI PUSH2 0x1CB9 PUSH2 0x15CD JUMP JUMPDEST JUMPDEST SWAP3 SWAP2 POP POP JUMP JUMPDEST PUSH1 0x0 PUSH1 0x80 DUP3 DUP5 SUB SLT ISZERO PUSH2 0x1CD6 JUMPI PUSH2 0x1CD5 PUSH2 0x1506 JUMP JUMPDEST JUMPDEST PUSH1 0x0 PUSH2 0x1CE4 DUP5 DUP3 DUP6 ADD PUSH2 0x1C9E JUMP JUMPDEST SWAP2 POP POP SWAP3 SWAP2 POP POP JUMP JUMPDEST PUSH2 0x1CF6 DUP2 PUSH2 0x15D2 JUMP JUMPDEST DUP3 MSTORE POP POP JUMP JUMPDEST PUSH1 0x0 PUSH1 0x20 DUP3 ADD SWAP1 POP PUSH2 0x1D11 PUSH1 0x0 DUP4 ADD DUP5 PUSH2 0x1CED JUMP JUMPDEST SWAP3 SWAP2 POP POP JUMP JUMPDEST PUSH1 0x0 DUP1 PUSH1 0x0 DUP1 PUSH1 0x60 DUP6 DUP8 SUB SLT ISZERO PUSH2 0x1D31 JUMPI PUSH2 0x1D30 PUSH2 0x1506 JUMP JUMPDEST JUMPDEST PUSH1 0x0 DUP6 ADD CALLDATALOAD PUSH8 0xFFFFFFFFFFFFFFFF DUP2 GT ISZERO PUSH2 0x1D4F JUMPI PUSH2 0x1D4E PUSH2 0x150B JUMP JUMPDEST JUMPDEST PUSH2 0x1D5B DUP8 DUP3 DUP9 ADD PUSH2 0x1A2E JUMP JUMPDEST SWAP5 POP SWAP5 POP POP PUSH1 0x20 PUSH2 0x1D6E DUP8 DUP3 DUP9 ADD PUSH2 0x1C49 JUMP JUMPDEST SWAP3 POP POP PUSH1 0x40 PUSH2 0x1D7F DUP8 DUP3 DUP9 ADD PUSH2 0x1C49 JUMP JUMPDEST SWAP2 POP POP SWAP3 SWAP6 SWAP2 SWAP5 POP SWAP3 POP JUMP JUMPDEST PUSH1 0x0 DUP1 PUSH1 0x0 PUSH1 0x40 DUP5 DUP7 SUB SLT ISZERO PUSH2 0x1DA4 JUMPI PUSH2 0x1DA3 PUSH2 0x1506 JUMP JUMPDEST JUMPDEST PUSH1 0x0 DUP5 ADD CALLDATALOAD PUSH8 0xFFFFFFFFFFFFFFFF DUP2 GT ISZERO PUSH2 0x1DC2 JUMPI PUSH2 0x1DC1 PUSH2 0x150B JUMP JUMPDEST JUMPDEST PUSH2 0x1DCE DUP7 DUP3 DUP8 ADD PUSH2 0x1A2E JUMP JUMPDEST SWAP4 POP SWAP4 POP POP PUSH1 0x20 PUSH2 0x1DE1 DUP7 DUP3 DUP8 ADD PUSH2 0x1C49 JUMP JUMPDEST SWAP2 POP POP SWAP3 POP SWAP3 POP SWAP3 JUMP JUMPDEST PUSH1 0x0 PUSH8 0xFFFFFFFFFFFFFFFF DUP3 GT ISZERO PUSH2 0x1E06 JUMPI PUSH2 0x1E05 PUSH2 0x1526 JUMP JUMPDEST JUMPDEST PUSH1 0x20 DUP3 MUL SWAP1 POP SWAP2 SWAP1 POP JUMP JUMPDEST PUSH1 0x0 PUSH2 0x1E24 PUSH2 0x1E1F DUP5 PUSH2 0x1DEB JUMP JUMPDEST PUSH2 0x1586 JUMP JUMPDEST SWAP1 POP DUP1 PUSH1 0x20 DUP5 MUL DUP4 ADD DUP6 DUP2 GT ISZERO PUSH2 0x1E3E JUMPI PUSH2 0x1E3D PUSH2 0x15CD JUMP JUMPDEST JUMPDEST DUP4 JUMPDEST DUP2 DUP2 LT ISZERO PUSH2 0x1E67 JUMPI DUP1 PUSH2 0x1E53 DUP9 DUP3 PUSH2 0x15F3 JUMP JUMPDEST DUP5 MSTORE PUSH1 0x20 DUP5 ADD SWAP4 POP POP PUSH1 0x20 DUP2 ADD SWAP1 POP PUSH2 0x1E40 JUMP JUMPDEST POP POP POP SWAP4 SWAP3 POP POP POP JUMP JUMPDEST PUSH1 0x0 DUP3 PUSH1 0x1F DUP4 ADD SLT PUSH2 0x1E86 JUMPI PUSH2 0x1E85 PUSH2 0x1510 JUMP JUMPDEST JUMPDEST PUSH1 0x5 PUSH2 0x1E93 DUP5 DUP3 DUP6 PUSH2 0x1E11 JUMP JUMPDEST SWAP2 POP POP SWAP3 SWAP2 POP POP JUMP JUMPDEST PUSH1 0x0 PUSH1 0xA0 DUP3 DUP5 SUB SLT ISZERO PUSH2 0x1EB2 JUMPI PUSH2 0x1EB1 PUSH2 0x1506 JUMP JUMPDEST JUMPDEST PUSH1 0x0 PUSH2 0x1EC0 DUP5 DUP3 DUP6 ADD PUSH2 0x1E71 JUMP JUMPDEST SWAP2 POP POP SWAP3 SWAP2 POP POP JUMP JUMPDEST PUSH1 0x0 PUSH1 0x5 SWAP1 POP SWAP2 SWAP1 POP JUMP JUMPDEST PUSH1 0x0 DUP2 SWAP1 POP SWAP3 SWAP2 POP POP JUMP JUMPDEST PUSH1 0x0 DUP2 SWAP1 POP SWAP2 SWAP1 POP JUMP JUMPDEST PUSH1 0x0 PUSH1 0x20 DUP3 ADD SWAP1 POP SWAP2 SWAP1 POP JUMP JUMPDEST PUSH2 0x1EFF DUP2 PUSH2 0x1EC9 JUMP JUMPDEST PUSH2 0x1F09 DUP2 DUP5 PUSH2 0x1ED4 JUMP JUMPDEST SWAP3 POP PUSH2 0x1F14 DUP3 PUSH2 0x1EDF JUMP JUMPDEST DUP1 PUSH1 0x0 JUMPDEST DUP4 DUP2 LT ISZERO PUSH2 0x1F45 JUMPI DUP2 MLOAD PUSH2 0x1F2C DUP8 DUP3 PUSH2 0x1723 JUMP JUMPDEST SWAP7 POP PUSH2 0x1F37 DUP4 PUSH2 0x1EE9 JUMP JUMPDEST SWAP3 POP POP PUSH1 0x1 DUP2 ADD SWAP1 POP PUSH2 0x1F18 JUMP JUMPDEST POP POP POP POP POP POP JUMP JUMPDEST PUSH1 0x0 PUSH1 0xA0 DUP3 ADD SWAP1 POP PUSH2 0x1F62 PUSH1 0x0 DUP4 ADD DUP5 PUSH2 0x1EF6 JUMP JUMPDEST SWAP3 SWAP2 POP POP JUMP JUMPDEST PUSH1 0x0 PUSH1 0x3 SWAP1 POP SWAP2 SWAP1 POP JUMP JUMPDEST PUSH1 0x0 DUP2 SWAP1 POP SWAP3 SWAP2 POP POP JUMP JUMPDEST PUSH1 0x0 DUP2 SWAP1 POP SWAP2 SWAP1 POP JUMP JUMPDEST PUSH1 0x0 PUSH2 0x1F94 DUP4 DUP4 PUSH2 0x1B7B JUMP JUMPDEST PUSH1 0x20 DUP4 ADD SWAP1 POP SWAP3 SWAP2 POP POP JUMP JUMPDEST PUSH1 0x0 PUSH1 0x20 DUP3 ADD SWAP1 POP SWAP2 SWAP1 POP JUMP JUMPDEST PUSH2 0x1FB6 DUP2 PUSH2 0x1F68 JUMP JUMPDEST PUSH2 0x1FC0 DUP2 DUP5 PUSH2 0x1F73 JUMP JUMPDEST SWAP3 POP PUSH2 0x1FCB DUP3 PUSH2 0x1F7E JUMP JUMPDEST DUP1 PUSH1 0x0 JUMPDEST DUP4 DUP2 LT ISZERO PUSH2 0x1FFC JUMPI DUP2 MLOAD PUSH2 0x1FE3 DUP8 DUP3 PUSH2 0x1F88 JUMP JUMPDEST SWAP7 POP PUSH2 0x1FEE DUP4 PUSH2 0x1FA0 JUMP JUMPDEST SWAP3 POP POP PUSH1 0x1 DUP2 ADD SWAP1 POP PUSH2 0x1FCF JUMP JUMPDEST POP POP POP POP POP POP JUMP JUMPDEST PUSH1 0x0 PUSH1 0x60 DUP3 ADD SWAP1 POP PUSH2 0x2019 PUSH1 0x0 DUP4 ADD DUP5 PUSH2 0x1FAD JUMP JUMPDEST SWAP3 SWAP2 POP POP JUMP JUMPDEST PUSH1 0x0 PUSH1 0x20 DUP3 DUP5 SUB SLT ISZERO PUSH2 0x2035 JUMPI PUSH2 0x2034 PUSH2 0x1506 JUMP JUMPDEST JUMPDEST PUSH1 0x0 PUSH2 0x2043 DUP5 DUP3 DUP6 ADD PUSH2 0x1C49 JUMP JUMPDEST SWAP2 POP POP SWAP3 SWAP2 POP POP JUMP JUMPDEST PUSH2 0x2055 DUP2 PUSH2 0x1B71 JUMP JUMPDEST DUP3 MSTORE POP POP JUMP JUMPDEST PUSH1 0x0 PUSH1 0x60 DUP3 ADD SWAP1 POP DUP2 DUP2 SUB PUSH1 0x0 DUP4 ADD MSTORE PUSH2 0x2075 DUP2 DUP7 PUSH2 0x1B16 JUMP JUMPDEST SWAP1 POP PUSH2 0x2084 PUSH1 0x20 DUP4 ADD DUP6 PUSH2 0x204C JUMP JUMPDEST PUSH2 0x2091 PUSH1 0x40 DUP4 ADD DUP5 PUSH2 0x204C JUMP JUMPDEST SWAP5 SWAP4 POP POP POP POP JUMP JUMPDEST PUSH32 0x4E487B7100000000000000000000000000000000000000000000000000000000 PUSH1 0x0 MSTORE PUSH1 0x11 PUSH1 0x4 MSTORE PUSH1 0x24 PUSH1 0x0 REVERT JUMPDEST PUSH1 0x0 PUSH2 0x20D3 DUP3 PUSH2 0x1B71 JUMP JUMPDEST SWAP2 POP PUSH2 0x20DE DUP4 PUSH2 0x1B71 JUMP JUMPDEST SWAP3 POP DUP3 DUP3 SUB SWAP1 POP DUP2 DUP2 GT ISZERO PUSH2 0x20F6 JUMPI PUSH2 0x20F5 PUSH2 0x2099 JUMP JUMPDEST JUMPDEST SWAP3 SWAP2 POP POP JUMP JUMPDEST PUSH32 0x4E487B7100000000000000000000000000000000000000000000000000000000 PUSH1 0x0 MSTORE PUSH1 0x32 PUSH1 0x4 MSTORE PUSH1 0x24 PUSH1 0x0 REVERT JUMPDEST PUSH1 0x0 PUSH2 0x2136 DUP3 PUSH2 0x1B71 JUMP JUMPDEST SWAP2 POP PUSH32 0xFFFFFFFFFFFFFFFFFFFFFFFFFFFFFFFFFFFFFFFFFFFFFFFFFFFFFFFFFFFFFFFF DUP3 SUB PUSH2 0x2168 JUMPI PUSH2 0x2167 PUSH2 0x2099 JUMP JUMPDEST JUMPDEST PUSH1 0x1 DUP3 ADD SWAP1 POP SWAP2 SWAP1 POP JUMP JUMPDEST PUSH32 0x4E487B7100000000000000000000000000000000000000000000000000000000 PUSH1 0x0 MSTORE PUSH1 0x22 PUSH1 0x4 MSTORE PUSH1 0x24 PUSH1 0x0 REVERT JUMPDEST PUSH1 0x0 PUSH1 0x2 DUP3 DIV SWAP1 POP PUSH1 0x1 DUP3 AND DUP1 PUSH2 0x21BA JUMPI PUSH1 0x7F DUP3 AND SWAP2 POP JUMPDEST PUSH1 0x20 DUP3 LT DUP2 SUB PUSH2 0x21CD JUMPI PUSH2 0x21CC PUSH2 0x2173 JUMP JUMPDEST JUMPDEST POP SWAP2 SWAP1 POP JUMP JUMPDEST PUSH1 0x0 DUP2 SWAP1 POP DUP2 PUSH1 0x0 MSTORE PUSH1 0x20 PUSH1 0x0 KECCAK256 SWAP1 POP SWAP2 SWAP1 POP JUMP JUMPDEST PUSH1 0x0 PUSH1 0x20 PUSH1 0x1F DUP4 ADD DIV SWAP1 POP SWAP2 SWAP1 POP JUMP JUMPDEST PUSH1 0x0 DUP3 DUP3 SHL SWAP1 POP SWAP3 SWAP2 POP POP JUMP JUMPDEST PUSH1 0x0 PUSH1 0x8 DUP4 MUL PUSH2 0x2235 PUSH32 0xFFFFFFFFFFFFFFFFFFFFFFFFFFFFFFFFFFFFFFFFFFFFFFFFFFFFFFFFFFFFFFFF DUP3 PUSH2 0x21F8 JUMP JUMPDEST PUSH2 0x223F DUP7 DUP4 PUSH2 0x21F8 JUMP JUMPDEST SWAP6 POP DUP1 NOT DUP5 AND SWAP4 POP DUP1 DUP7 AND DUP5 OR SWAP3 POP POP POP SWAP4 SWAP3 POP POP POP JUMP JUMPDEST PUSH1 0x0 DUP2 SWAP1 POP SWAP2 SWAP1 POP JUMP JUMPDEST PUSH1 0x0 PUSH2 0x227C PUSH2 0x2277 PUSH2 0x2272 DUP5 PUSH2 0x1B71 JUMP JUMPDEST PUSH2 0x2257 JUMP JUMPDEST PUSH2 0x1B71 JUMP JUMPDEST SWAP1 POP SWAP2 SWAP1 POP JUMP JUMPDEST PUSH1 0x0 DUP2 SWAP1 POP SWAP2 SWAP1 POP JUMP JUMPDEST PUSH2 0x2296 DUP4 PUSH2 0x2261 JUMP JUMPDEST PUSH2 0x22AA PUSH2 0x22A2 DUP3 PUSH2 0x2283 JUMP JUMPDEST DUP5 DUP5 SLOAD PUSH2 0x2205 JUMP JUMPDEST DUP3 SSTORE POP POP POP POP JUMP JUMPDEST PUSH1 0x0 SWAP1 JUMP JUMPDEST PUSH2 0x22BF PUSH2 0x22B2 JUMP JUMPDEST PUSH2 0x22CA DUP2 DUP5 DUP5 PUSH2 0x228D JUMP JUMPDEST POP POP POP JUMP JUMPDEST JUMPDEST DUP2 DUP2 LT ISZERO PUSH2 0x22EE JUMPI PUSH2 0x22E3 PUSH1 0x0 DUP3 PUSH2 0x22B7 JUMP JUMPDEST PUSH1 0x1 DUP2 ADD SWAP1 POP PUSH2 0x22D0 JUMP JUMPDEST POP POP JUMP JUMPDEST PUSH1 0x1F DUP3 GT ISZERO PUSH2 0x2333 JUMPI PUSH2 0x2304 DUP2 PUSH2 0x21D3 JUMP JUMPDEST PUSH2 0x230D DUP5 PUSH2 0x21E8 JUMP JUMPDEST DUP2 ADD PUSH1 0x20 DUP6 LT ISZERO PUSH2 0x231C JUMPI DUP2 SWAP1 POP JUMPDEST PUSH2 0x2330 PUSH2 0x2328 DUP6 PUSH2 0x21E8 JUMP JUMPDEST DUP4 ADD DUP3 PUSH2 0x22CF JUMP JUMPDEST POP POP JUMPDEST POP POP POP JUMP JUMPDEST PUSH1 0x0 DUP3 DUP3 SHR SWAP1 POP SWAP3 SWAP2 POP POP JUMP JUMPDEST PUSH1 0x0 PUSH2 0x2356 PUSH1 0x0 NOT DUP5 PUSH1 0x8 MUL PUSH2 0x2338 JUMP JUMPDEST NOT DUP1 DUP4 AND SWAP2 POP POP SWAP3 SWAP2 POP POP JUMP JUMPDEST PUSH1 0x0 PUSH2 0x236F DUP4 DUP4 PUSH2 0x2345 JUMP JUMPDEST SWAP2 POP DUP3 PUSH1 0x2 MUL DUP3 OR SWAP1 POP SWAP3 SWAP2 POP POP JUMP JUMPDEST PUSH2 0x2388 DUP3 PUSH2 0x18F2 JUMP JUMPDEST PUSH8 0xFFFFFFFFFFFFFFFF DUP2 GT ISZERO PUSH2 0x23A1 JUMPI PUSH2 0x23A0 PUSH2 0x1526 JUMP JUMPDEST JUMPDEST PUSH2 0x23AB DUP3 SLOAD PUSH2 0x21A2 JUMP JUMPDEST PUSH2 0x23B6 DUP3 DUP3 DUP6 PUSH2 0x22F2 JUMP JUMPDEST PUSH1 0x0 PUSH1 0x20 SWAP1 POP PUSH1 0x1F DUP4 GT PUSH1 0x1 DUP2 EQ PUSH2 0x23E9 JUMPI PUSH1 0x0 DUP5 ISZERO PUSH2 0x23D7 JUMPI DUP3 DUP8 ADD MLOAD SWAP1 POP JUMPDEST PUSH2 0x23E1 DUP6 DUP3 PUSH2 0x2363 JUMP JUMPDEST DUP7 SSTORE POP PUSH2 0x2449 JUMP JUMPDEST PUSH1 0x1F NOT DUP5 AND PUSH2 0x23F7 DUP7 PUSH2 0x21D3 JUMP JUMPDEST PUSH1 0x0 JUMPDEST DUP3 DUP2 LT ISZERO PUSH2 0x241F JUMPI DUP5 DUP10 ADD MLOAD DUP3 SSTORE PUSH1 0x1 DUP3 ADD SWAP2 POP PUSH1 0x20 DUP6 ADD SWAP5 POP PUSH1 0x20 DUP2 ADD SWAP1 POP PUSH2 0x23FA JUMP JUMPDEST DUP7 DUP4 LT ISZERO PUSH2 0x243C JUMPI DUP5 DUP10 ADD MLOAD PUSH2 0x2438 PUSH1 0x1F DUP10 AND DUP3 PUSH2 0x2345 JUMP JUMPDEST DUP4 SSTORE POP JUMPDEST PUSH1 0x1 PUSH1 0x2 DUP9 MUL ADD DUP9 SSTORE POP POP POP JUMPDEST POP POP POP POP POP POP JUMP JUMPDEST PUSH1 0x0 DUP2 SWAP1 POP SWAP3 SWAP2 POP POP JUMP JUMPDEST PUSH1 0x0 PUSH2 0x2468 DUP4 DUP6 PUSH2 0x2451 JUMP JUMPDEST SWAP4 POP PUSH2 0x2475 DUP4 DUP6 DUP5 PUSH2 0x17FE JUMP JUMPDEST DUP3 DUP5 ADD SWAP1 POP SWAP4 SWAP3 POP POP POP JUMP JUMPDEST PUSH1 0x0 PUSH2 0x248E DUP3 DUP7 DUP9 PUSH2 0x245C JUMP JUMPDEST SWAP2 POP PUSH2 0x249B DUP3 DUP5 DUP7 PUSH2 0x245C JUMP JUMPDEST SWAP2 POP DUP2 SWAP1 POP SWAP6 SWAP5 POP POP POP POP POP JUMP JUMPDEST PUSH32 0x4E487B7100000000000000000000000000000000000000000000000000000000 PUSH1 0x0 MSTORE PUSH1 0x21 PUSH1 0x4 MSTORE PUSH1 0x24 PUSH1 0x0 REVERT JUMPDEST PUSH32 0x6D61746873000000000000000000000000000000000000000000000000000000 PUSH1 0x0 DUP3 ADD MSTORE POP JUMP JUMPDEST PUSH1 0x0 PUSH2 0x250E PUSH1 0x5 DUP4 PUSH2 0x2451 JUMP JUMPDEST SWAP2 POP PUSH2 0x2519 DUP3 PUSH2 0x24D8 JUMP JUMPDEST PUSH1 0x5 DUP3 ADD SWAP1 POP SWAP2 SWAP1 POP JUMP JUMPDEST PUSH1 0x0 PUSH2 0x252F DUP3 PUSH2 0x2501 JUMP JUMPDEST SWAP2 POP DUP2 SWAP1 POP SWAP2 SWAP1 POP JUMP JUMPDEST PUSH1 0x0 PUSH2 0x2546 DUP3 DUP5 DUP7 PUSH2 0x245C JUMP JUMPDEST SWAP2 POP DUP2 SWAP1 POP SWAP4 SWAP3 POP POP POP JUMP JUMPDEST PUSH32 0x656E676C69736800000000000000000000000000000000000000000000000000 PUSH1 0x0 DUP3 ADD MSTORE POP JUMP JUMPDEST PUSH1 0x0 PUSH2 0x2588 PUSH1 0x7 DUP4 PUSH2 0x2451 JUMP JUMPDEST SWAP2 POP PUSH2 0x2593 DUP3 PUSH2 0x2552 JUMP JUMPDEST PUSH1 0x7 DUP3 ADD SWAP1 POP SWAP2 SWAP1 POP JUMP JUMPDEST PUSH1 0x0 PUSH2 0x25A9 DUP3 PUSH2 0x257B JUMP JUMPDEST SWAP2 POP DUP2 SWAP1 POP SWAP2 SWAP1 POP JUMP JUMPDEST PUSH32 0x686973746F727900000000000000000000000000000000000000000000000000 PUSH1 0x0 DUP3 ADD MSTORE POP JUMP JUMPDEST PUSH1 0x0 PUSH2 0x25E9 PUSH1 0x7 DUP4 PUSH2 0x2451 JUMP JUMPDEST SWAP2 POP PUSH2 0x25F4 DUP3 PUSH2 0x25B3 JUMP JUMPDEST PUSH1 0x7 DUP3 ADD SWAP1 POP SWAP2 SWAP1 POP JUMP JUMPDEST PUSH1 0x0 PUSH2 0x260A DUP3 PUSH2 0x25DC JUMP JUMPDEST SWAP2 POP DUP2 SWAP1 POP SWAP2 SWAP1 POP JUMP JUMPDEST PUSH1 0x0 PUSH2 0x261F DUP3 PUSH2 0x1B71 JUMP JUMPDEST SWAP2 POP PUSH2 0x262A DUP4 PUSH2 0x1B71 JUMP JUMPDEST SWAP3 POP DUP3 DUP3 ADD SWAP1 POP DUP1 DUP3 GT ISZERO PUSH2 0x2642 JUMPI PUSH2 0x2641 PUSH2 0x2099 JUMP JUMPDEST JUMPDEST SWAP3 SWAP2 POP POP JUMP JUMPDEST PUSH32 0x4E487B7100000000000000000000000000000000000000000000000000000000 PUSH1 0x0 MSTORE PUSH1 0x31 PUSH1 0x4 MSTORE PUSH1 0x24 PUSH1 0x0 REVERT JUMPDEST PUSH1 0x0 PUSH2 0x2682 DUP3 PUSH2 0x15D2 JUMP JUMPDEST SWAP2 POP PUSH2 0x268D DUP4 PUSH2 0x15D2 JUMP JUMPDEST SWAP3 POP DUP3 DUP3 ADD SWAP1 POP DUP3 DUP2 SLT ISZERO PUSH1 0x0 DUP4 SLT AND DUP4 DUP3 SLT PUSH1 0x0 DUP5 SLT ISZERO AND OR ISZERO PUSH2 0x26B5 JUMPI PUSH2 0x26B4 PUSH2 0x2099 JUMP JUMPDEST JUMPDEST SWAP3 SWAP2 POP POP JUMP INVALID LOG2 PUSH5 0x6970667358 0x22 SLT KECCAK256 0xCB SWAP4 0xAE SWAP16 PUSH15 0x7980389E1AC11739603A1FC5501C17 0xDC EXTCODECOPY SWAP16 0xC5 DIFFICULTY 0xC6 PUSH20 0x5BB9978A3864736F6C6343000811003300000000 "
		},
		"gasEstimates": {
			"creation": {
				"codeDepositCost": "1993800",
				"executionCost": "2113",
				"totalCost": "1995913"
			},
			"external": {
				"GetHouseVal()": "infinite",
				"addName(string)": "infinite",
				"compareStr(string,string)": "infinite",
				"concatenate(string,string)": "infinite",
				"contains(uint256)": "infinite",
				"createOwnershipData()": "49148",
				"delName()": "infinite",
				"getMarks()": "infinite",
				"getName()": "infinite",
				"insertArr(int256,uint256)": "infinite",
				"largest(int256[4])": "infinite",
				"ownershipStatus()": "2680",
				"reverseArray(int256[])": "infinite",
				"setHouseVal()": "24564",
				"sortArray(int256[5])": "infinite",
				"stdGetter()": "infinite",
				"stdSetter(string,uint256,uint256)": "infinite",
				"studentStruct()": "infinite",
				"sumArr(int256[])": "infinite",
				"tenStudentsRecord(uint256)": "infinite",
				"transferOwnership()": "24657",
				"updateMarks(string,uint256)": "infinite",
				"updateTenStudentsRecord(string,uint256,uint256)": "infinite"
			}
		},
		"methodIdentifiers": {
			"GetHouseVal()": "59e57373",
			"addName(string)": "11456b47",
			"compareStr(string,string)": "87c5d5cc",
			"concatenate(string,string)": "266001d3",
			"contains(uint256)": "c34052e0",
			"createOwnershipData()": "e9ab789e",
			"delName()": "b536c426",
			"getMarks()": "b780e507",
			"getName()": "17d7de7c",
			"insertArr(int256,uint256)": "378ee557",
			"largest(int256[4])": "5e34f951",
			"ownershipStatus()": "2bb5a9e6",
			"reverseArray(int256[])": "06694a0a",
			"setHouseVal()": "6e9d8b9c",
			"sortArray(int256[5])": "b02a0fda",
			"stdGetter()": "275a6de9",
			"stdSetter(string,uint256,uint256)": "68f40b04",
			"studentStruct()": "99998902",
			"sumArr(int256[])": "df3dafad",
			"tenStudentsRecord(uint256)": "eaf24c15",
			"transferOwnership()": "880ad0af",
			"updateMarks(string,uint256)": "797f6f7f",
			"updateTenStudentsRecord(string,uint256,uint256)": "d74070a6"
		}
	},
	"abi": [
		{
			"inputs": [],
			"name": "GetHouseVal",
			"outputs": [
				{
					"internalType": "string",
					"name": "",
					"type": "string"
				}
			],
			"stateMutability": "view",
			"type": "function"
		},
		{
			"inputs": [
				{
					"internalType": "string",
					"name": "_name",
					"type": "string"
				}
			],
			"name": "addName",
			"outputs": [],
			"stateMutability": "nonpayable",
			"type": "function"
		},
		{
			"inputs": [
				{
					"internalType": "string",
					"name": "_str1",
					"type": "string"
				},
				{
					"internalType": "string",
					"name": "_str2",
					"type": "string"
				}
			],
			"name": "compareStr",
			"outputs": [
				{
					"internalType": "bool",
					"name": "",
					"type": "bool"
				}
			],
			"stateMutability": "pure",
			"type": "function"
		},
		{
			"inputs": [
				{
					"internalType": "string",
					"name": "_str1",
					"type": "string"
				},
				{
					"internalType": "string",
					"name": "_str2",
					"type": "string"
				}
			],
			"name": "concatenate",
			"outputs": [
				{
					"internalType": "string",
					"name": "",
					"type": "string"
				}
			],
			"stateMutability": "pure",
			"type": "function"
		},
		{
			"inputs": [
				{
					"internalType": "uint256",
					"name": "_num",
					"type": "uint256"
				}
			],
			"name": "contains",
			"outputs": [
				{
					"internalType": "bool",
					"name": "",
					"type": "bool"
				}
			],
			"stateMutability": "pure",
			"type": "function"
		},
		{
			"inputs": [],
			"name": "createOwnershipData",
			"outputs": [],
			"stateMutability": "nonpayable",
			"type": "function"
		},
		{
			"inputs": [],
			"name": "delName",
			"outputs": [],
			"stateMutability": "nonpayable",
			"type": "function"
		},
		{
			"inputs": [],
			"name": "getMarks",
			"outputs": [
				{
					"internalType": "uint256[3]",
					"name": "",
					"type": "uint256[3]"
				}
			],
			"stateMutability": "view",
			"type": "function"
		},
		{
			"inputs": [],
			"name": "getName",
			"outputs": [
				{
					"internalType": "string[]",
					"name": "",
					"type": "string[]"
				}
			],
			"stateMutability": "view",
			"type": "function"
		},
		{
			"inputs": [
				{
					"internalType": "int256",
					"name": "_num",
					"type": "int256"
				},
				{
					"internalType": "uint256",
					"name": "_index",
					"type": "uint256"
				}
			],
			"name": "insertArr",
			"outputs": [
				{
					"internalType": "int256[]",
					"name": "",
					"type": "int256[]"
				}
			],
			"stateMutability": "pure",
			"type": "function"
		},
		{
			"inputs": [
				{
					"internalType": "int256[4]",
					"name": "_arr",
					"type": "int256[4]"
				}
			],
			"name": "largest",
			"outputs": [
				{
					"internalType": "int256",
					"name": "",
					"type": "int256"
				}
			],
			"stateMutability": "pure",
			"type": "function"
		},
		{
			"inputs": [],
			"name": "ownershipStatus",
			"outputs": [
				{
					"internalType": "bool",
					"name": "",
					"type": "bool"
				}
			],
			"stateMutability": "view",
			"type": "function"
		},
		{
			"inputs": [
				{
					"internalType": "int256[]",
					"name": "_arr",
					"type": "int256[]"
				}
			],
			"name": "reverseArray",
			"outputs": [
				{
					"internalType": "int256[]",
					"name": "",
					"type": "int256[]"
				}
			],
			"stateMutability": "pure",
			"type": "function"
		},
		{
			"inputs": [],
			"name": "setHouseVal",
			"outputs": [],
			"stateMutability": "nonpayable",
			"type": "function"
		},
		{
			"inputs": [
				{
					"internalType": "int256[5]",
					"name": "_arr",
					"type": "int256[5]"
				}
			],
			"name": "sortArray",
			"outputs": [
				{
					"internalType": "int256[5]",
					"name": "",
					"type": "int256[5]"
				}
			],
			"stateMutability": "pure",
			"type": "function"
		},
		{
			"inputs": [],
			"name": "stdGetter",
			"outputs": [
				{
					"components": [
						{
							"internalType": "string",
							"name": "name",
							"type": "string"
						},
						{
							"internalType": "uint256",
							"name": "rollNumber",
							"type": "uint256"
						},
						{
							"internalType": "uint256",
							"name": "age",
							"type": "uint256"
						}
					],
					"internalType": "struct Asg2.student",
					"name": "",
					"type": "tuple"
				}
			],
			"stateMutability": "view",
			"type": "function"
		},
		{
			"inputs": [
				{
					"internalType": "string",
					"name": "_name",
					"type": "string"
				},
				{
					"internalType": "uint256",
					"name": "_roll",
					"type": "uint256"
				},
				{
					"internalType": "uint256",
					"name": "_age",
					"type": "uint256"
				}
			],
			"name": "stdSetter",
			"outputs": [],
			"stateMutability": "nonpayable",
			"type": "function"
		},
		{
			"inputs": [],
			"name": "studentStruct",
			"outputs": [
				{
					"components": [
						{
							"internalType": "string",
							"name": "name",
							"type": "string"
						},
						{
							"internalType": "uint256",
							"name": "rollNumber",
							"type": "uint256"
						},
						{
							"internalType": "uint256",
							"name": "age",
							"type": "uint256"
						}
					],
					"internalType": "struct Asg2.student",
					"name": "",
					"type": "tuple"
				}
			],
			"stateMutability": "pure",
			"type": "function"
		},
		{
			"inputs": [
				{
					"internalType": "int256[]",
					"name": "_arr",
					"type": "int256[]"
				}
			],
			"name": "sumArr",
			"outputs": [
				{
					"internalType": "int256",
					"name": "",
					"type": "int256"
				}
			],
			"stateMutability": "pure",
			"type": "function"
		},
		{
			"inputs": [
				{
					"internalType": "uint256",
					"name": "",
					"type": "uint256"
				}
			],
			"name": "tenStudentsRecord",
			"outputs": [
				{
					"internalType": "string",
					"name": "name",
					"type": "string"
				},
				{
					"internalType": "uint256",
					"name": "rollNumber",
					"type": "uint256"
				},
				{
					"internalType": "uint256",
					"name": "age",
					"type": "uint256"
				}
			],
			"stateMutability": "view",
			"type": "function"
		},
		{
			"inputs": [],
			"name": "transferOwnership",
			"outputs": [],
			"stateMutability": "nonpayable",
			"type": "function"
		},
		{
			"inputs": [
				{
					"internalType": "string",
					"name": "subject",
					"type": "string"
				},
				{
					"internalType": "uint256",
					"name": "mark",
					"type": "uint256"
				}
			],
			"name": "updateMarks",
			"outputs": [],
			"stateMutability": "nonpayable",
			"type": "function"
		},
		{
			"inputs": [
				{
					"internalType": "string",
					"name": "_name",
					"type": "string"
				},
				{
					"internalType": "uint256",
					"name": "_roll",
					"type": "uint256"
				},
				{
					"internalType": "uint256",
					"name": "_age",
					"type": "uint256"
				}
			],
			"name": "updateTenStudentsRecord",
			"outputs": [],
			"stateMutability": "nonpayable",
			"type": "function"
		}
	]
}