{
	"data": {
		"bytecode": {
			"linkReferences": {},
			"object": "608060405234801561001057600080fd5b50610a0c806100206000396000f3fe608060405234801561001057600080fd5b50600436106100885760003560e01c8063bbf609231161005b578063bbf609231461014e578063bc4609c61461017e578063ca93381a146101af578063d7be85ca146101df57610088565b806312145cd91461008d5780635a087416146100be57806382ee7780146100ee57806383d3705e1461011e575b600080fd5b6100a760048036038101906100a2919061042e565b61020f565b6040516100b592919061047d565b60405180910390f35b6100d860048036038101906100d391906104a6565b610229565b6040516100e591906104d3565b60405180910390f35b610108600480360381019061010391906104a6565b61023f565b60405161011591906104d3565b60405180910390f35b610138600480360381019061013391906104a6565b610268565b60405161014591906104d3565b60405180910390f35b6101686004803603810190610163919061042e565b610348565b60405161017591906104d3565b60405180910390f35b6101986004803603810190610193919061042e565b61035e565b6040516101a692919061047d565b60405180910390f35b6101c960048036038101906101c49190610524565b61037a565b6040516101d69190610560565b60405180910390f35b6101f960048036038101906101f4919061057b565b6103c5565b60405161020691906104d3565b60405180910390f35b600080828480945081955050508383915091509250929050565b6000600382610238919061073d565b9050919050565b60008060028361024f91906107b7565b1461025b57600061025e565b60015b60ff169050919050565b6000808290506000805b6000831461029c578180610285906107e8565b925050600a836102959190610830565b9250610272565b600082036102df576040517f08c379a00000000000000000000000000000000000000000000000000000000081526004016102d6906108be565b60405180910390fd5b8492505b6000831461032a576000600a846102fa91906107b7565b9050828161030891906108de565b826103139190610929565b9150600a846103229190610830565b9350506102e3565b80851461033857600061033b565b60015b60ff169350505050919050565b6000818361035691906108de565b905092915050565b6000806000849050839450809350848492509250509250929050565b600080600290505b828112156103ba5760008184610398919061095d565b036103a75760009150506103c0565b80806103b29061098e565b915050610382565b50600190505b919050565b600060038284866103d69190610929565b6103e09190610929565b6103ea9190610830565b90509392505050565b600080fd5b6000819050919050565b61040b816103f8565b811461041657600080fd5b50565b60008135905061042881610402565b92915050565b60008060408385031215610445576104446103f3565b5b600061045385828601610419565b925050602061046485828601610419565b9150509250929050565b610477816103f8565b82525050565b6000604082019050610492600083018561046e565b61049f602083018461046e565b9392505050565b6000602082840312156104bc576104bb6103f3565b5b60006104ca84828501610419565b91505092915050565b60006020820190506104e8600083018461046e565b92915050565b6000819050919050565b610501816104ee565b811461050c57600080fd5b50565b60008135905061051e816104f8565b92915050565b60006020828403121561053a576105396103f3565b5b60006105488482850161050f565b91505092915050565b61055a816104ee565b82525050565b60006020820190506105756000830184610551565b92915050565b600080600060608486031215610594576105936103f3565b5b60006105a286828701610419565b93505060206105b386828701610419565b92505060406105c486828701610419565b9150509250925092565b7f4e487b7100000000000000000000000000000000000000000000000000000000600052601160045260246000fd5b60008160011c9050919050565b6000808291508390505b6001851115610654578086048111156106305761062f6105ce565b5b600185161561063f5780820291505b808102905061064d856105fd565b9450610614565b94509492505050565b60008261066d5760019050610729565b8161067b5760009050610729565b8160018114610691576002811461069b576106ca565b6001915050610729565b60ff8411156106ad576106ac6105ce565b5b8360020a9150848211156106c4576106c36105ce565b5b50610729565b5060208310610133831016604e8410600b84101617156106ff5782820a9050838111156106fa576106f96105ce565b5b610729565b61070c848484600161060a565b92509050818404811115610723576107226105ce565b5b81810290505b9392505050565b600060ff82169050919050565b6000610748826103f8565b915061075383610730565b92506107807fffffffffffffffffffffffffffffffffffffffffffffffffffffffffffffffff848461065d565b905092915050565b7f4e487b7100000000000000000000000000000000000000000000000000000000600052601260045260246000fd5b60006107c2826103f8565b91506107cd836103f8565b9250826107dd576107dc610788565b5b828206905092915050565b60006107f3826103f8565b91507fffffffffffffffffffffffffffffffffffffffffffffffffffffffffffffffff8203610825576108246105ce565b5b600182019050919050565b600061083b826103f8565b9150610846836103f8565b92508261085657610855610788565b5b828204905092915050565b600082825260208201905092915050565b7f6e6f7420612076616c6964206e756d6265720000000000000000000000000000600082015250565b60006108a8601283610861565b91506108b382610872565b602082019050919050565b600060208201905081810360008301526108d78161089b565b9050919050565b60006108e9826103f8565b91506108f4836103f8565b92506109217fffffffffffffffffffffffffffffffffffffffffffffffffffffffffffffffff848461065d565b905092915050565b6000610934826103f8565b915061093f836103f8565b9250828201905080821115610957576109566105ce565b5b92915050565b6000610968826104ee565b9150610973836104ee565b92508261098357610982610788565b5b828207905092915050565b6000610999826104ee565b91507f7fffffffffffffffffffffffffffffffffffffffffffffffffffffffffffffff82036109cb576109ca6105ce565b5b60018201905091905056fea2646970667358221220cf99ddc7591a271daf45ffba493678127236b420d3d6794ed613cd4f1338953c64736f6c63430008110033",
			"opcodes": "PUSH1 0x80 PUSH1 0x40 MSTORE CALLVALUE DUP1 ISZERO PUSH2 0x10 JUMPI PUSH1 0x0 DUP1 REVERT JUMPDEST POP PUSH2 0xA0C DUP1 PUSH2 0x20 PUSH1 0x0 CODECOPY PUSH1 0x0 RETURN INVALID PUSH1 0x80 PUSH1 0x40 MSTORE CALLVALUE DUP1 ISZERO PUSH2 0x10 JUMPI PUSH1 0x0 DUP1 REVERT JUMPDEST POP PUSH1 0x4 CALLDATASIZE LT PUSH2 0x88 JUMPI PUSH1 0x0 CALLDATALOAD PUSH1 0xE0 SHR DUP1 PUSH4 0xBBF60923 GT PUSH2 0x5B JUMPI DUP1 PUSH4 0xBBF60923 EQ PUSH2 0x14E JUMPI DUP1 PUSH4 0xBC4609C6 EQ PUSH2 0x17E JUMPI DUP1 PUSH4 0xCA93381A EQ PUSH2 0x1AF JUMPI DUP1 PUSH4 0xD7BE85CA EQ PUSH2 0x1DF JUMPI PUSH2 0x88 JUMP JUMPDEST DUP1 PUSH4 0x12145CD9 EQ PUSH2 0x8D JUMPI DUP1 PUSH4 0x5A087416 EQ PUSH2 0xBE JUMPI DUP1 PUSH4 0x82EE7780 EQ PUSH2 0xEE JUMPI DUP1 PUSH4 0x83D3705E EQ PUSH2 0x11E JUMPI JUMPDEST PUSH1 0x0 DUP1 REVERT JUMPDEST PUSH2 0xA7 PUSH1 0x4 DUP1 CALLDATASIZE SUB DUP2 ADD SWAP1 PUSH2 0xA2 SWAP2 SWAP1 PUSH2 0x42E JUMP JUMPDEST PUSH2 0x20F JUMP JUMPDEST PUSH1 0x40 MLOAD PUSH2 0xB5 SWAP3 SWAP2 SWAP1 PUSH2 0x47D JUMP JUMPDEST PUSH1 0x40 MLOAD DUP1 SWAP2 SUB SWAP1 RETURN JUMPDEST PUSH2 0xD8 PUSH1 0x4 DUP1 CALLDATASIZE SUB DUP2 ADD SWAP1 PUSH2 0xD3 SWAP2 SWAP1 PUSH2 0x4A6 JUMP JUMPDEST PUSH2 0x229 JUMP JUMPDEST PUSH1 0x40 MLOAD PUSH2 0xE5 SWAP2 SWAP1 PUSH2 0x4D3 JUMP JUMPDEST PUSH1 0x40 MLOAD DUP1 SWAP2 SUB SWAP1 RETURN JUMPDEST PUSH2 0x108 PUSH1 0x4 DUP1 CALLDATASIZE SUB DUP2 ADD SWAP1 PUSH2 0x103 SWAP2 SWAP1 PUSH2 0x4A6 JUMP JUMPDEST PUSH2 0x23F JUMP JUMPDEST PUSH1 0x40 MLOAD PUSH2 0x115 SWAP2 SWAP1 PUSH2 0x4D3 JUMP JUMPDEST PUSH1 0x40 MLOAD DUP1 SWAP2 SUB SWAP1 RETURN JUMPDEST PUSH2 0x138 PUSH1 0x4 DUP1 CALLDATASIZE SUB DUP2 ADD SWAP1 PUSH2 0x133 SWAP2 SWAP1 PUSH2 0x4A6 JUMP JUMPDEST PUSH2 0x268 JUMP JUMPDEST PUSH1 0x40 MLOAD PUSH2 0x145 SWAP2 SWAP1 PUSH2 0x4D3 JUMP JUMPDEST PUSH1 0x40 MLOAD DUP1 SWAP2 SUB SWAP1 RETURN JUMPDEST PUSH2 0x168 PUSH1 0x4 DUP1 CALLDATASIZE SUB DUP2 ADD SWAP1 PUSH2 0x163 SWAP2 SWAP1 PUSH2 0x42E JUMP JUMPDEST PUSH2 0x348 JUMP JUMPDEST PUSH1 0x40 MLOAD PUSH2 0x175 SWAP2 SWAP1 PUSH2 0x4D3 JUMP JUMPDEST PUSH1 0x40 MLOAD DUP1 SWAP2 SUB SWAP1 RETURN JUMPDEST PUSH2 0x198 PUSH1 0x4 DUP1 CALLDATASIZE SUB DUP2 ADD SWAP1 PUSH2 0x193 SWAP2 SWAP1 PUSH2 0x42E JUMP JUMPDEST PUSH2 0x35E JUMP JUMPDEST PUSH1 0x40 MLOAD PUSH2 0x1A6 SWAP3 SWAP2 SWAP1 PUSH2 0x47D JUMP JUMPDEST PUSH1 0x40 MLOAD DUP1 SWAP2 SUB SWAP1 RETURN JUMPDEST PUSH2 0x1C9 PUSH1 0x4 DUP1 CALLDATASIZE SUB DUP2 ADD SWAP1 PUSH2 0x1C4 SWAP2 SWAP1 PUSH2 0x524 JUMP JUMPDEST PUSH2 0x37A JUMP JUMPDEST PUSH1 0x40 MLOAD PUSH2 0x1D6 SWAP2 SWAP1 PUSH2 0x560 JUMP JUMPDEST PUSH1 0x40 MLOAD DUP1 SWAP2 SUB SWAP1 RETURN JUMPDEST PUSH2 0x1F9 PUSH1 0x4 DUP1 CALLDATASIZE SUB DUP2 ADD SWAP1 PUSH2 0x1F4 SWAP2 SWAP1 PUSH2 0x57B JUMP JUMPDEST PUSH2 0x3C5 JUMP JUMPDEST PUSH1 0x40 MLOAD PUSH2 0x206 SWAP2 SWAP1 PUSH2 0x4D3 JUMP JUMPDEST PUSH1 0x40 MLOAD DUP1 SWAP2 SUB SWAP1 RETURN JUMPDEST PUSH1 0x0 DUP1 DUP3 DUP5 DUP1 SWAP5 POP DUP2 SWAP6 POP POP POP DUP4 DUP4 SWAP2 POP SWAP2 POP SWAP3 POP SWAP3 SWAP1 POP JUMP JUMPDEST PUSH1 0x0 PUSH1 0x3 DUP3 PUSH2 0x238 SWAP2 SWAP1 PUSH2 0x73D JUMP JUMPDEST SWAP1 POP SWAP2 SWAP1 POP JUMP JUMPDEST PUSH1 0x0 DUP1 PUSH1 0x2 DUP4 PUSH2 0x24F SWAP2 SWAP1 PUSH2 0x7B7 JUMP JUMPDEST EQ PUSH2 0x25B JUMPI PUSH1 0x0 PUSH2 0x25E JUMP JUMPDEST PUSH1 0x1 JUMPDEST PUSH1 0xFF AND SWAP1 POP SWAP2 SWAP1 POP JUMP JUMPDEST PUSH1 0x0 DUP1 DUP3 SWAP1 POP PUSH1 0x0 DUP1 JUMPDEST PUSH1 0x0 DUP4 EQ PUSH2 0x29C JUMPI DUP2 DUP1 PUSH2 0x285 SWAP1 PUSH2 0x7E8 JUMP JUMPDEST SWAP3 POP POP PUSH1 0xA DUP4 PUSH2 0x295 SWAP2 SWAP1 PUSH2 0x830 JUMP JUMPDEST SWAP3 POP PUSH2 0x272 JUMP JUMPDEST PUSH1 0x0 DUP3 SUB PUSH2 0x2DF JUMPI PUSH1 0x40 MLOAD PUSH32 0x8C379A000000000000000000000000000000000000000000000000000000000 DUP2 MSTORE PUSH1 0x4 ADD PUSH2 0x2D6 SWAP1 PUSH2 0x8BE JUMP JUMPDEST PUSH1 0x40 MLOAD DUP1 SWAP2 SUB SWAP1 REVERT JUMPDEST DUP5 SWAP3 POP JUMPDEST PUSH1 0x0 DUP4 EQ PUSH2 0x32A JUMPI PUSH1 0x0 PUSH1 0xA DUP5 PUSH2 0x2FA SWAP2 SWAP1 PUSH2 0x7B7 JUMP JUMPDEST SWAP1 POP DUP3 DUP2 PUSH2 0x308 SWAP2 SWAP1 PUSH2 0x8DE JUMP JUMPDEST DUP3 PUSH2 0x313 SWAP2 SWAP1 PUSH2 0x929 JUMP JUMPDEST SWAP2 POP PUSH1 0xA DUP5 PUSH2 0x322 SWAP2 SWAP1 PUSH2 0x830 JUMP JUMPDEST SWAP4 POP POP PUSH2 0x2E3 JUMP JUMPDEST DUP1 DUP6 EQ PUSH2 0x338 JUMPI PUSH1 0x0 PUSH2 0x33B JUMP JUMPDEST PUSH1 0x1 JUMPDEST PUSH1 0xFF AND SWAP4 POP POP POP POP SWAP2 SWAP1 POP JUMP JUMPDEST PUSH1 0x0 DUP2 DUP4 PUSH2 0x356 SWAP2 SWAP1 PUSH2 0x8DE JUMP JUMPDEST SWAP1 POP SWAP3 SWAP2 POP POP JUMP JUMPDEST PUSH1 0x0 DUP1 PUSH1 0x0 DUP5 SWAP1 POP DUP4 SWAP5 POP DUP1 SWAP4 POP DUP5 DUP5 SWAP3 POP SWAP3 POP POP SWAP3 POP SWAP3 SWAP1 POP JUMP JUMPDEST PUSH1 0x0 DUP1 PUSH1 0x2 SWAP1 POP JUMPDEST DUP3 DUP2 SLT ISZERO PUSH2 0x3BA JUMPI PUSH1 0x0 DUP2 DUP5 PUSH2 0x398 SWAP2 SWAP1 PUSH2 0x95D JUMP JUMPDEST SUB PUSH2 0x3A7 JUMPI PUSH1 0x0 SWAP2 POP POP PUSH2 0x3C0 JUMP JUMPDEST DUP1 DUP1 PUSH2 0x3B2 SWAP1 PUSH2 0x98E JUMP JUMPDEST SWAP2 POP POP PUSH2 0x382 JUMP JUMPDEST POP PUSH1 0x1 SWAP1 POP JUMPDEST SWAP2 SWAP1 POP JUMP JUMPDEST PUSH1 0x0 PUSH1 0x3 DUP3 DUP5 DUP7 PUSH2 0x3D6 SWAP2 SWAP1 PUSH2 0x929 JUMP JUMPDEST PUSH2 0x3E0 SWAP2 SWAP1 PUSH2 0x929 JUMP JUMPDEST PUSH2 0x3EA SWAP2 SWAP1 PUSH2 0x830 JUMP JUMPDEST SWAP1 POP SWAP4 SWAP3 POP POP POP JUMP JUMPDEST PUSH1 0x0 DUP1 REVERT JUMPDEST PUSH1 0x0 DUP2 SWAP1 POP SWAP2 SWAP1 POP JUMP JUMPDEST PUSH2 0x40B DUP2 PUSH2 0x3F8 JUMP JUMPDEST DUP2 EQ PUSH2 0x416 JUMPI PUSH1 0x0 DUP1 REVERT JUMPDEST POP JUMP JUMPDEST PUSH1 0x0 DUP2 CALLDATALOAD SWAP1 POP PUSH2 0x428 DUP2 PUSH2 0x402 JUMP JUMPDEST SWAP3 SWAP2 POP POP JUMP JUMPDEST PUSH1 0x0 DUP1 PUSH1 0x40 DUP4 DUP6 SUB SLT ISZERO PUSH2 0x445 JUMPI PUSH2 0x444 PUSH2 0x3F3 JUMP JUMPDEST JUMPDEST PUSH1 0x0 PUSH2 0x453 DUP6 DUP3 DUP7 ADD PUSH2 0x419 JUMP JUMPDEST SWAP3 POP POP PUSH1 0x20 PUSH2 0x464 DUP6 DUP3 DUP7 ADD PUSH2 0x419 JUMP JUMPDEST SWAP2 POP POP SWAP3 POP SWAP3 SWAP1 POP JUMP JUMPDEST PUSH2 0x477 DUP2 PUSH2 0x3F8 JUMP JUMPDEST DUP3 MSTORE POP POP JUMP JUMPDEST PUSH1 0x0 PUSH1 0x40 DUP3 ADD SWAP1 POP PUSH2 0x492 PUSH1 0x0 DUP4 ADD DUP6 PUSH2 0x46E JUMP JUMPDEST PUSH2 0x49F PUSH1 0x20 DUP4 ADD DUP5 PUSH2 0x46E JUMP JUMPDEST SWAP4 SWAP3 POP POP POP JUMP JUMPDEST PUSH1 0x0 PUSH1 0x20 DUP3 DUP5 SUB SLT ISZERO PUSH2 0x4BC JUMPI PUSH2 0x4BB PUSH2 0x3F3 JUMP JUMPDEST JUMPDEST PUSH1 0x0 PUSH2 0x4CA DUP5 DUP3 DUP6 ADD PUSH2 0x419 JUMP JUMPDEST SWAP2 POP POP SWAP3 SWAP2 POP POP JUMP JUMPDEST PUSH1 0x0 PUSH1 0x20 DUP3 ADD SWAP1 POP PUSH2 0x4E8 PUSH1 0x0 DUP4 ADD DUP5 PUSH2 0x46E JUMP JUMPDEST SWAP3 SWAP2 POP POP JUMP JUMPDEST PUSH1 0x0 DUP2 SWAP1 POP SWAP2 SWAP1 POP JUMP JUMPDEST PUSH2 0x501 DUP2 PUSH2 0x4EE JUMP JUMPDEST DUP2 EQ PUSH2 0x50C JUMPI PUSH1 0x0 DUP1 REVERT JUMPDEST POP JUMP JUMPDEST PUSH1 0x0 DUP2 CALLDATALOAD SWAP1 POP PUSH2 0x51E DUP2 PUSH2 0x4F8 JUMP JUMPDEST SWAP3 SWAP2 POP POP JUMP JUMPDEST PUSH1 0x0 PUSH1 0x20 DUP3 DUP5 SUB SLT ISZERO PUSH2 0x53A JUMPI PUSH2 0x539 PUSH2 0x3F3 JUMP JUMPDEST JUMPDEST PUSH1 0x0 PUSH2 0x548 DUP5 DUP3 DUP6 ADD PUSH2 0x50F JUMP JUMPDEST SWAP2 POP POP SWAP3 SWAP2 POP POP JUMP JUMPDEST PUSH2 0x55A DUP2 PUSH2 0x4EE JUMP JUMPDEST DUP3 MSTORE POP POP JUMP JUMPDEST PUSH1 0x0 PUSH1 0x20 DUP3 ADD SWAP1 POP PUSH2 0x575 PUSH1 0x0 DUP4 ADD DUP5 PUSH2 0x551 JUMP JUMPDEST SWAP3 SWAP2 POP POP JUMP JUMPDEST PUSH1 0x0 DUP1 PUSH1 0x0 PUSH1 0x60 DUP5 DUP7 SUB SLT ISZERO PUSH2 0x594 JUMPI PUSH2 0x593 PUSH2 0x3F3 JUMP JUMPDEST JUMPDEST PUSH1 0x0 PUSH2 0x5A2 DUP7 DUP3 DUP8 ADD PUSH2 0x419 JUMP JUMPDEST SWAP4 POP POP PUSH1 0x20 PUSH2 0x5B3 DUP7 DUP3 DUP8 ADD PUSH2 0x419 JUMP JUMPDEST SWAP3 POP POP PUSH1 0x40 PUSH2 0x5C4 DUP7 DUP3 DUP8 ADD PUSH2 0x419 JUMP JUMPDEST SWAP2 POP POP SWAP3 POP SWAP3 POP SWAP3 JUMP JUMPDEST PUSH32 0x4E487B7100000000000000000000000000000000000000000000000000000000 PUSH1 0x0 MSTORE PUSH1 0x11 PUSH1 0x4 MSTORE PUSH1 0x24 PUSH1 0x0 REVERT JUMPDEST PUSH1 0x0 DUP2 PUSH1 0x1 SHR SWAP1 POP SWAP2 SWAP1 POP JUMP JUMPDEST PUSH1 0x0 DUP1 DUP3 SWAP2 POP DUP4 SWAP1 POP JUMPDEST PUSH1 0x1 DUP6 GT ISZERO PUSH2 0x654 JUMPI DUP1 DUP7 DIV DUP2 GT ISZERO PUSH2 0x630 JUMPI PUSH2 0x62F PUSH2 0x5CE JUMP JUMPDEST JUMPDEST PUSH1 0x1 DUP6 AND ISZERO PUSH2 0x63F JUMPI DUP1 DUP3 MUL SWAP2 POP JUMPDEST DUP1 DUP2 MUL SWAP1 POP PUSH2 0x64D DUP6 PUSH2 0x5FD JUMP JUMPDEST SWAP5 POP PUSH2 0x614 JUMP JUMPDEST SWAP5 POP SWAP5 SWAP3 POP POP POP JUMP JUMPDEST PUSH1 0x0 DUP3 PUSH2 0x66D JUMPI PUSH1 0x1 SWAP1 POP PUSH2 0x729 JUMP JUMPDEST DUP2 PUSH2 0x67B JUMPI PUSH1 0x0 SWAP1 POP PUSH2 0x729 JUMP JUMPDEST DUP2 PUSH1 0x1 DUP2 EQ PUSH2 0x691 JUMPI PUSH1 0x2 DUP2 EQ PUSH2 0x69B JUMPI PUSH2 0x6CA JUMP JUMPDEST PUSH1 0x1 SWAP2 POP POP PUSH2 0x729 JUMP JUMPDEST PUSH1 0xFF DUP5 GT ISZERO PUSH2 0x6AD JUMPI PUSH2 0x6AC PUSH2 0x5CE JUMP JUMPDEST JUMPDEST DUP4 PUSH1 0x2 EXP SWAP2 POP DUP5 DUP3 GT ISZERO PUSH2 0x6C4 JUMPI PUSH2 0x6C3 PUSH2 0x5CE JUMP JUMPDEST JUMPDEST POP PUSH2 0x729 JUMP JUMPDEST POP PUSH1 0x20 DUP4 LT PUSH2 0x133 DUP4 LT AND PUSH1 0x4E DUP5 LT PUSH1 0xB DUP5 LT AND OR ISZERO PUSH2 0x6FF JUMPI DUP3 DUP3 EXP SWAP1 POP DUP4 DUP2 GT ISZERO PUSH2 0x6FA JUMPI PUSH2 0x6F9 PUSH2 0x5CE JUMP JUMPDEST JUMPDEST PUSH2 0x729 JUMP JUMPDEST PUSH2 0x70C DUP5 DUP5 DUP5 PUSH1 0x1 PUSH2 0x60A JUMP JUMPDEST SWAP3 POP SWAP1 POP DUP2 DUP5 DIV DUP2 GT ISZERO PUSH2 0x723 JUMPI PUSH2 0x722 PUSH2 0x5CE JUMP JUMPDEST JUMPDEST DUP2 DUP2 MUL SWAP1 POP JUMPDEST SWAP4 SWAP3 POP POP POP JUMP JUMPDEST PUSH1 0x0 PUSH1 0xFF DUP3 AND SWAP1 POP SWAP2 SWAP1 POP JUMP JUMPDEST PUSH1 0x0 PUSH2 0x748 DUP3 PUSH2 0x3F8 JUMP JUMPDEST SWAP2 POP PUSH2 0x753 DUP4 PUSH2 0x730 JUMP JUMPDEST SWAP3 POP PUSH2 0x780 PUSH32 0xFFFFFFFFFFFFFFFFFFFFFFFFFFFFFFFFFFFFFFFFFFFFFFFFFFFFFFFFFFFFFFFF DUP5 DUP5 PUSH2 0x65D JUMP JUMPDEST SWAP1 POP SWAP3 SWAP2 POP POP JUMP JUMPDEST PUSH32 0x4E487B7100000000000000000000000000000000000000000000000000000000 PUSH1 0x0 MSTORE PUSH1 0x12 PUSH1 0x4 MSTORE PUSH1 0x24 PUSH1 0x0 REVERT JUMPDEST PUSH1 0x0 PUSH2 0x7C2 DUP3 PUSH2 0x3F8 JUMP JUMPDEST SWAP2 POP PUSH2 0x7CD DUP4 PUSH2 0x3F8 JUMP JUMPDEST SWAP3 POP DUP3 PUSH2 0x7DD JUMPI PUSH2 0x7DC PUSH2 0x788 JUMP JUMPDEST JUMPDEST DUP3 DUP3 MOD SWAP1 POP SWAP3 SWAP2 POP POP JUMP JUMPDEST PUSH1 0x0 PUSH2 0x7F3 DUP3 PUSH2 0x3F8 JUMP JUMPDEST SWAP2 POP PUSH32 0xFFFFFFFFFFFFFFFFFFFFFFFFFFFFFFFFFFFFFFFFFFFFFFFFFFFFFFFFFFFFFFFF DUP3 SUB PUSH2 0x825 JUMPI PUSH2 0x824 PUSH2 0x5CE JUMP JUMPDEST JUMPDEST PUSH1 0x1 DUP3 ADD SWAP1 POP SWAP2 SWAP1 POP JUMP JUMPDEST PUSH1 0x0 PUSH2 0x83B DUP3 PUSH2 0x3F8 JUMP JUMPDEST SWAP2 POP PUSH2 0x846 DUP4 PUSH2 0x3F8 JUMP JUMPDEST SWAP3 POP DUP3 PUSH2 0x856 JUMPI PUSH2 0x855 PUSH2 0x788 JUMP JUMPDEST JUMPDEST DUP3 DUP3 DIV SWAP1 POP SWAP3 SWAP2 POP POP JUMP JUMPDEST PUSH1 0x0 DUP3 DUP3 MSTORE PUSH1 0x20 DUP3 ADD SWAP1 POP SWAP3 SWAP2 POP POP JUMP JUMPDEST PUSH32 0x6E6F7420612076616C6964206E756D6265720000000000000000000000000000 PUSH1 0x0 DUP3 ADD MSTORE POP JUMP JUMPDEST PUSH1 0x0 PUSH2 0x8A8 PUSH1 0x12 DUP4 PUSH2 0x861 JUMP JUMPDEST SWAP2 POP PUSH2 0x8B3 DUP3 PUSH2 0x872 JUMP JUMPDEST PUSH1 0x20 DUP3 ADD SWAP1 POP SWAP2 SWAP1 POP JUMP JUMPDEST PUSH1 0x0 PUSH1 0x20 DUP3 ADD SWAP1 POP DUP2 DUP2 SUB PUSH1 0x0 DUP4 ADD MSTORE PUSH2 0x8D7 DUP2 PUSH2 0x89B JUMP JUMPDEST SWAP1 POP SWAP2 SWAP1 POP JUMP JUMPDEST PUSH1 0x0 PUSH2 0x8E9 DUP3 PUSH2 0x3F8 JUMP JUMPDEST SWAP2 POP PUSH2 0x8F4 DUP4 PUSH2 0x3F8 JUMP JUMPDEST SWAP3 POP PUSH2 0x921 PUSH32 0xFFFFFFFFFFFFFFFFFFFFFFFFFFFFFFFFFFFFFFFFFFFFFFFFFFFFFFFFFFFFFFFF DUP5 DUP5 PUSH2 0x65D JUMP JUMPDEST SWAP1 POP SWAP3 SWAP2 POP POP JUMP JUMPDEST PUSH1 0x0 PUSH2 0x934 DUP3 PUSH2 0x3F8 JUMP JUMPDEST SWAP2 POP PUSH2 0x93F DUP4 PUSH2 0x3F8 JUMP JUMPDEST SWAP3 POP DUP3 DUP3 ADD SWAP1 POP DUP1 DUP3 GT ISZERO PUSH2 0x957 JUMPI PUSH2 0x956 PUSH2 0x5CE JUMP JUMPDEST JUMPDEST SWAP3 SWAP2 POP POP JUMP JUMPDEST PUSH1 0x0 PUSH2 0x968 DUP3 PUSH2 0x4EE JUMP JUMPDEST SWAP2 POP PUSH2 0x973 DUP4 PUSH2 0x4EE JUMP JUMPDEST SWAP3 POP DUP3 PUSH2 0x983 JUMPI PUSH2 0x982 PUSH2 0x788 JUMP JUMPDEST JUMPDEST DUP3 DUP3 SMOD SWAP1 POP SWAP3 SWAP2 POP POP JUMP JUMPDEST PUSH1 0x0 PUSH2 0x999 DUP3 PUSH2 0x4EE JUMP JUMPDEST SWAP2 POP PUSH32 0x7FFFFFFFFFFFFFFFFFFFFFFFFFFFFFFFFFFFFFFFFFFFFFFFFFFFFFFFFFFFFFFF DUP3 SUB PUSH2 0x9CB JUMPI PUSH2 0x9CA PUSH2 0x5CE JUMP JUMPDEST JUMPDEST PUSH1 0x1 DUP3 ADD SWAP1 POP SWAP2 SWAP1 POP JUMP INVALID LOG2 PUSH5 0x6970667358 0x22 SLT KECCAK256 0xCF SWAP10 0xDD 0xC7 MSIZE BYTE 0x27 SAR 0xAF GASLIMIT SELFDESTRUCT 0xBA 0x49 CALLDATASIZE PUSH25 0x127236B420D3D6794ED613CD4F1338953C64736F6C63430008 GT STOP CALLER "
		},
		"gasEstimates": {
			"creation": {
				"codeDepositCost": "514400",
				"executionCost": "549",
				"totalCost": "514949"
			},
			"external": {
				"Cube(uint256)": "infinite",
				"advance_swap(uint256,uint256)": "infinite",
				"amstrong(uint256)": "infinite",
				"avgOf3(uint256,uint256,uint256)": "infinite",
				"evenOrOdd(uint256)": "infinite",
				"normal_swap(uint256,uint256)": "infinite",
				"powerOfInputs(uint256,uint256)": "infinite",
				"primeOrNot(int256)": "infinite"
			}
		},
		"methodIdentifiers": {
			"Cube(uint256)": "5a087416",
			"advance_swap(uint256,uint256)": "12145cd9",
			"amstrong(uint256)": "83d3705e",
			"avgOf3(uint256,uint256,uint256)": "d7be85ca",
			"evenOrOdd(uint256)": "82ee7780",
			"normal_swap(uint256,uint256)": "bc4609c6",
			"powerOfInputs(uint256,uint256)": "bbf60923",
			"primeOrNot(int256)": "ca93381a"
		}
	},
	"abi": [
		{
			"inputs": [
				{
					"internalType": "uint256",
					"name": "_num",
					"type": "uint256"
				}
			],
			"name": "Cube",
			"outputs": [
				{
					"internalType": "uint256",
					"name": "",
					"type": "uint256"
				}
			],
			"stateMutability": "pure",
			"type": "function"
		},
		{
			"inputs": [
				{
					"internalType": "uint256",
					"name": "_num1",
					"type": "uint256"
				},
				{
					"internalType": "uint256",
					"name": "_num2",
					"type": "uint256"
				}
			],
			"name": "advance_swap",
			"outputs": [
				{
					"internalType": "uint256",
					"name": "",
					"type": "uint256"
				},
				{
					"internalType": "uint256",
					"name": "",
					"type": "uint256"
				}
			],
			"stateMutability": "pure",
			"type": "function"
		},
		{
			"inputs": [
				{
					"internalType": "uint256",
					"name": "_inp",
					"type": "uint256"
				}
			],
			"name": "amstrong",
			"outputs": [
				{
					"internalType": "uint256",
					"name": "",
					"type": "uint256"
				}
			],
			"stateMutability": "pure",
			"type": "function"
		},
		{
			"inputs": [
				{
					"internalType": "uint256",
					"name": "_num1",
					"type": "uint256"
				},
				{
					"internalType": "uint256",
					"name": "_num2",
					"type": "uint256"
				},
				{
					"internalType": "uint256",
					"name": "_num3",
					"type": "uint256"
				}
			],
			"name": "avgOf3",
			"outputs": [
				{
					"internalType": "uint256",
					"name": "",
					"type": "uint256"
				}
			],
			"stateMutability": "pure",
			"type": "function"
		},
		{
			"inputs": [
				{
					"internalType": "uint256",
					"name": "_num",
					"type": "uint256"
				}
			],
			"name": "evenOrOdd",
			"outputs": [
				{
					"internalType": "uint256",
					"name": "",
					"type": "uint256"
				}
			],
			"stateMutability": "pure",
			"type": "function"
		},
		{
			"inputs": [
				{
					"internalType": "uint256",
					"name": "_num1",
					"type": "uint256"
				},
				{
					"internalType": "uint256",
					"name": "_num2",
					"type": "uint256"
				}
			],
			"name": "normal_swap",
			"outputs": [
				{
					"internalType": "uint256",
					"name": "",
					"type": "uint256"
				},
				{
					"internalType": "uint256",
					"name": "",
					"type": "uint256"
				}
			],
			"stateMutability": "pure",
			"type": "function"
		},
		{
			"inputs": [
				{
					"internalType": "uint256",
					"name": "_num1",
					"type": "uint256"
				},
				{
					"internalType": "uint256",
					"name": "_num2",
					"type": "uint256"
				}
			],
			"name": "powerOfInputs",
			"outputs": [
				{
					"internalType": "uint256",
					"name": "",
					"type": "uint256"
				}
			],
			"stateMutability": "pure",
			"type": "function"
		},
		{
			"inputs": [
				{
					"internalType": "int256",
					"name": "num",
					"type": "int256"
				}
			],
			"name": "primeOrNot",
			"outputs": [
				{
					"internalType": "int256",
					"name": "",
					"type": "int256"
				}
			],
			"stateMutability": "pure",
			"type": "function"
		}
	]
}