{
	"data": {
		"bytecode": {
			"linkReferences": {},
			"object": "608060405234801561001057600080fd5b50610ae8806100206000396000f3fe608060405234801561001057600080fd5b50600436106100415760003560e01c806303ab7a3414610046578063db5ddf1914610076578063e150228214610092575b600080fd5b610060600480360381019061005b919061030f565b6100c2565b60405161006d9190610371565b60405180910390f35b610090600480360381019061008b9190610508565b610138565b005b6100ac60048036038101906100a79190610577565b610197565b6040516100b99190610682565b60405180910390f35b6000808490508380156100d25750825b156100eb576064816100e491906106d3565b905061011e565b83806100f45750825b1561010d5760328161010691906106d3565b905061011d565b60148161011a91906106d3565b90505b5b60028161012b919061076a565b9050809150509392505050565b604051806060016040528084815260200183815260200182815250600080848152602001908152602001600020600082015181600001908161017a91906109e0565b506020820151816001015560408201518160020155905050505050565b61019f610269565b6000808381526020019081526020016000206040518060600160405290816000820180546101cc90610803565b80601f01602080910402602001604051908101604052809291908181526020018280546101f890610803565b80156102455780601f1061021a57610100808354040283529160200191610245565b820191906000526020600020905b81548152906001019060200180831161022857829003601f168201915b50505050508152602001600182015481526020016002820154815250509050919050565b60405180606001604052806060815260200160008152602001600081525090565b6000604051905090565b600080fd5b600080fd5b600081600f0b9050919050565b6102b48161029e565b81146102bf57600080fd5b50565b6000813590506102d1816102ab565b92915050565b60008115159050919050565b6102ec816102d7565b81146102f757600080fd5b50565b600081359050610309816102e3565b92915050565b60008060006060848603121561032857610327610294565b5b6000610336868287016102c2565b9350506020610347868287016102fa565b9250506040610358868287016102fa565b9150509250925092565b61036b8161029e565b82525050565b60006020820190506103866000830184610362565b92915050565b600080fd5b600080fd5b6000601f19601f8301169050919050565b7f4e487b7100000000000000000000000000000000000000000000000000000000600052604160045260246000fd5b6103df82610396565b810181811067ffffffffffffffff821117156103fe576103fd6103a7565b5b80604052505050565b600061041161028a565b905061041d82826103d6565b919050565b600067ffffffffffffffff82111561043d5761043c6103a7565b5b61044682610396565b9050602081019050919050565b82818337600083830152505050565b600061047561047084610422565b610407565b90508281526020810184848401111561049157610490610391565b5b61049c848285610453565b509392505050565b600082601f8301126104b9576104b861038c565b5b81356104c9848260208601610462565b91505092915050565b6000819050919050565b6104e5816104d2565b81146104f057600080fd5b50565b600081359050610502816104dc565b92915050565b60008060006060848603121561052157610520610294565b5b600084013567ffffffffffffffff81111561053f5761053e610299565b5b61054b868287016104a4565b935050602061055c868287016104f3565b925050604061056d868287016104f3565b9150509250925092565b60006020828403121561058d5761058c610294565b5b600061059b848285016104f3565b91505092915050565b600081519050919050565b600082825260208201905092915050565b60005b838110156105de5780820151818401526020810190506105c3565b60008484015250505050565b60006105f5826105a4565b6105ff81856105af565b935061060f8185602086016105c0565b61061881610396565b840191505092915050565b61062c816104d2565b82525050565b6000606083016000830151848203600086015261064f82826105ea565b91505060208301516106646020860182610623565b5060408301516106776040860182610623565b508091505092915050565b6000602082019050818103600083015261069c8184610632565b905092915050565b7f4e487b7100000000000000000000000000000000000000000000000000000000600052601160045260246000fd5b60006106de8261029e565b91506106e98361029e565b925082820190507fffffffffffffffffffffffffffffffff8000000000000000000000000000000081126f7fffffffffffffffffffffffffffffff82131715610735576107346106a4565b5b92915050565b7f4e487b7100000000000000000000000000000000000000000000000000000000600052601260045260246000fd5b60006107758261029e565b91506107808361029e565b9250826107905761078f61073b565b5b600160000383147fffffffffffffffffffffffffffffffff80000000000000000000000000000000831416156107c9576107c86106a4565b5b828205905092915050565b7f4e487b7100000000000000000000000000000000000000000000000000000000600052602260045260246000fd5b6000600282049050600182168061081b57607f821691505b60208210810361082e5761082d6107d4565b5b50919050565b60008190508160005260206000209050919050565b60006020601f8301049050919050565b600082821b905092915050565b6000600883026108967fffffffffffffffffffffffffffffffffffffffffffffffffffffffffffffffff82610859565b6108a08683610859565b95508019841693508086168417925050509392505050565b6000819050919050565b60006108dd6108d86108d3846104d2565b6108b8565b6104d2565b9050919050565b6000819050919050565b6108f7836108c2565b61090b610903826108e4565b848454610866565b825550505050565b600090565b610920610913565b61092b8184846108ee565b505050565b5b8181101561094f57610944600082610918565b600181019050610931565b5050565b601f8211156109945761096581610834565b61096e84610849565b8101602085101561097d578190505b61099161098985610849565b830182610930565b50505b505050565b600082821c905092915050565b60006109b760001984600802610999565b1980831691505092915050565b60006109d083836109a6565b9150826002028217905092915050565b6109e9826105a4565b67ffffffffffffffff811115610a0257610a016103a7565b5b610a0c8254610803565b610a17828285610953565b600060209050601f831160018114610a4a5760008415610a38578287015190505b610a4285826109c4565b865550610aaa565b601f198416610a5886610834565b60005b82811015610a8057848901518255600182019150602085019450602081019050610a5b565b86831015610a9d5784890151610a99601f8916826109a6565b8355505b6001600288020188555050505b50505050505056fea2646970667358221220ad023a93cbabe57940a4ff619981d3d424b47c3c3125127698bb21b6d2b299c264736f6c63430008110033",
			"opcodes": "PUSH1 0x80 PUSH1 0x40 MSTORE CALLVALUE DUP1 ISZERO PUSH2 0x10 JUMPI PUSH1 0x0 DUP1 REVERT JUMPDEST POP PUSH2 0xAE8 DUP1 PUSH2 0x20 PUSH1 0x0 CODECOPY PUSH1 0x0 RETURN INVALID PUSH1 0x80 PUSH1 0x40 MSTORE CALLVALUE DUP1 ISZERO PUSH2 0x10 JUMPI PUSH1 0x0 DUP1 REVERT JUMPDEST POP PUSH1 0x4 CALLDATASIZE LT PUSH2 0x41 JUMPI PUSH1 0x0 CALLDATALOAD PUSH1 0xE0 SHR DUP1 PUSH4 0x3AB7A34 EQ PUSH2 0x46 JUMPI DUP1 PUSH4 0xDB5DDF19 EQ PUSH2 0x76 JUMPI DUP1 PUSH4 0xE1502282 EQ PUSH2 0x92 JUMPI JUMPDEST PUSH1 0x0 DUP1 REVERT JUMPDEST PUSH2 0x60 PUSH1 0x4 DUP1 CALLDATASIZE SUB DUP2 ADD SWAP1 PUSH2 0x5B SWAP2 SWAP1 PUSH2 0x30F JUMP JUMPDEST PUSH2 0xC2 JUMP JUMPDEST PUSH1 0x40 MLOAD PUSH2 0x6D SWAP2 SWAP1 PUSH2 0x371 JUMP JUMPDEST PUSH1 0x40 MLOAD DUP1 SWAP2 SUB SWAP1 RETURN JUMPDEST PUSH2 0x90 PUSH1 0x4 DUP1 CALLDATASIZE SUB DUP2 ADD SWAP1 PUSH2 0x8B SWAP2 SWAP1 PUSH2 0x508 JUMP JUMPDEST PUSH2 0x138 JUMP JUMPDEST STOP JUMPDEST PUSH2 0xAC PUSH1 0x4 DUP1 CALLDATASIZE SUB DUP2 ADD SWAP1 PUSH2 0xA7 SWAP2 SWAP1 PUSH2 0x577 JUMP JUMPDEST PUSH2 0x197 JUMP JUMPDEST PUSH1 0x40 MLOAD PUSH2 0xB9 SWAP2 SWAP1 PUSH2 0x682 JUMP JUMPDEST PUSH1 0x40 MLOAD DUP1 SWAP2 SUB SWAP1 RETURN JUMPDEST PUSH1 0x0 DUP1 DUP5 SWAP1 POP DUP4 DUP1 ISZERO PUSH2 0xD2 JUMPI POP DUP3 JUMPDEST ISZERO PUSH2 0xEB JUMPI PUSH1 0x64 DUP2 PUSH2 0xE4 SWAP2 SWAP1 PUSH2 0x6D3 JUMP JUMPDEST SWAP1 POP PUSH2 0x11E JUMP JUMPDEST DUP4 DUP1 PUSH2 0xF4 JUMPI POP DUP3 JUMPDEST ISZERO PUSH2 0x10D JUMPI PUSH1 0x32 DUP2 PUSH2 0x106 SWAP2 SWAP1 PUSH2 0x6D3 JUMP JUMPDEST SWAP1 POP PUSH2 0x11D JUMP JUMPDEST PUSH1 0x14 DUP2 PUSH2 0x11A SWAP2 SWAP1 PUSH2 0x6D3 JUMP JUMPDEST SWAP1 POP JUMPDEST JUMPDEST PUSH1 0x2 DUP2 PUSH2 0x12B SWAP2 SWAP1 PUSH2 0x76A JUMP JUMPDEST SWAP1 POP DUP1 SWAP2 POP POP SWAP4 SWAP3 POP POP POP JUMP JUMPDEST PUSH1 0x40 MLOAD DUP1 PUSH1 0x60 ADD PUSH1 0x40 MSTORE DUP1 DUP5 DUP2 MSTORE PUSH1 0x20 ADD DUP4 DUP2 MSTORE PUSH1 0x20 ADD DUP3 DUP2 MSTORE POP PUSH1 0x0 DUP1 DUP5 DUP2 MSTORE PUSH1 0x20 ADD SWAP1 DUP2 MSTORE PUSH1 0x20 ADD PUSH1 0x0 KECCAK256 PUSH1 0x0 DUP3 ADD MLOAD DUP2 PUSH1 0x0 ADD SWAP1 DUP2 PUSH2 0x17A SWAP2 SWAP1 PUSH2 0x9E0 JUMP JUMPDEST POP PUSH1 0x20 DUP3 ADD MLOAD DUP2 PUSH1 0x1 ADD SSTORE PUSH1 0x40 DUP3 ADD MLOAD DUP2 PUSH1 0x2 ADD SSTORE SWAP1 POP POP POP POP POP JUMP JUMPDEST PUSH2 0x19F PUSH2 0x269 JUMP JUMPDEST PUSH1 0x0 DUP1 DUP4 DUP2 MSTORE PUSH1 0x20 ADD SWAP1 DUP2 MSTORE PUSH1 0x20 ADD PUSH1 0x0 KECCAK256 PUSH1 0x40 MLOAD DUP1 PUSH1 0x60 ADD PUSH1 0x40 MSTORE SWAP1 DUP2 PUSH1 0x0 DUP3 ADD DUP1 SLOAD PUSH2 0x1CC SWAP1 PUSH2 0x803 JUMP JUMPDEST DUP1 PUSH1 0x1F ADD PUSH1 0x20 DUP1 SWAP2 DIV MUL PUSH1 0x20 ADD PUSH1 0x40 MLOAD SWAP1 DUP2 ADD PUSH1 0x40 MSTORE DUP1 SWAP3 SWAP2 SWAP1 DUP2 DUP2 MSTORE PUSH1 0x20 ADD DUP3 DUP1 SLOAD PUSH2 0x1F8 SWAP1 PUSH2 0x803 JUMP JUMPDEST DUP1 ISZERO PUSH2 0x245 JUMPI DUP1 PUSH1 0x1F LT PUSH2 0x21A JUMPI PUSH2 0x100 DUP1 DUP4 SLOAD DIV MUL DUP4 MSTORE SWAP2 PUSH1 0x20 ADD SWAP2 PUSH2 0x245 JUMP JUMPDEST DUP3 ADD SWAP2 SWAP1 PUSH1 0x0 MSTORE PUSH1 0x20 PUSH1 0x0 KECCAK256 SWAP1 JUMPDEST DUP2 SLOAD DUP2 MSTORE SWAP1 PUSH1 0x1 ADD SWAP1 PUSH1 0x20 ADD DUP1 DUP4 GT PUSH2 0x228 JUMPI DUP3 SWAP1 SUB PUSH1 0x1F AND DUP3 ADD SWAP2 JUMPDEST POP POP POP POP POP DUP2 MSTORE PUSH1 0x20 ADD PUSH1 0x1 DUP3 ADD SLOAD DUP2 MSTORE PUSH1 0x20 ADD PUSH1 0x2 DUP3 ADD SLOAD DUP2 MSTORE POP POP SWAP1 POP SWAP2 SWAP1 POP JUMP JUMPDEST PUSH1 0x40 MLOAD DUP1 PUSH1 0x60 ADD PUSH1 0x40 MSTORE DUP1 PUSH1 0x60 DUP2 MSTORE PUSH1 0x20 ADD PUSH1 0x0 DUP2 MSTORE PUSH1 0x20 ADD PUSH1 0x0 DUP2 MSTORE POP SWAP1 JUMP JUMPDEST PUSH1 0x0 PUSH1 0x40 MLOAD SWAP1 POP SWAP1 JUMP JUMPDEST PUSH1 0x0 DUP1 REVERT JUMPDEST PUSH1 0x0 DUP1 REVERT JUMPDEST PUSH1 0x0 DUP2 PUSH1 0xF SIGNEXTEND SWAP1 POP SWAP2 SWAP1 POP JUMP JUMPDEST PUSH2 0x2B4 DUP2 PUSH2 0x29E JUMP JUMPDEST DUP2 EQ PUSH2 0x2BF JUMPI PUSH1 0x0 DUP1 REVERT JUMPDEST POP JUMP JUMPDEST PUSH1 0x0 DUP2 CALLDATALOAD SWAP1 POP PUSH2 0x2D1 DUP2 PUSH2 0x2AB JUMP JUMPDEST SWAP3 SWAP2 POP POP JUMP JUMPDEST PUSH1 0x0 DUP2 ISZERO ISZERO SWAP1 POP SWAP2 SWAP1 POP JUMP JUMPDEST PUSH2 0x2EC DUP2 PUSH2 0x2D7 JUMP JUMPDEST DUP2 EQ PUSH2 0x2F7 JUMPI PUSH1 0x0 DUP1 REVERT JUMPDEST POP JUMP JUMPDEST PUSH1 0x0 DUP2 CALLDATALOAD SWAP1 POP PUSH2 0x309 DUP2 PUSH2 0x2E3 JUMP JUMPDEST SWAP3 SWAP2 POP POP JUMP JUMPDEST PUSH1 0x0 DUP1 PUSH1 0x0 PUSH1 0x60 DUP5 DUP7 SUB SLT ISZERO PUSH2 0x328 JUMPI PUSH2 0x327 PUSH2 0x294 JUMP JUMPDEST JUMPDEST PUSH1 0x0 PUSH2 0x336 DUP7 DUP3 DUP8 ADD PUSH2 0x2C2 JUMP JUMPDEST SWAP4 POP POP PUSH1 0x20 PUSH2 0x347 DUP7 DUP3 DUP8 ADD PUSH2 0x2FA JUMP JUMPDEST SWAP3 POP POP PUSH1 0x40 PUSH2 0x358 DUP7 DUP3 DUP8 ADD PUSH2 0x2FA JUMP JUMPDEST SWAP2 POP POP SWAP3 POP SWAP3 POP SWAP3 JUMP JUMPDEST PUSH2 0x36B DUP2 PUSH2 0x29E JUMP JUMPDEST DUP3 MSTORE POP POP JUMP JUMPDEST PUSH1 0x0 PUSH1 0x20 DUP3 ADD SWAP1 POP PUSH2 0x386 PUSH1 0x0 DUP4 ADD DUP5 PUSH2 0x362 JUMP JUMPDEST SWAP3 SWAP2 POP POP JUMP JUMPDEST PUSH1 0x0 DUP1 REVERT JUMPDEST PUSH1 0x0 DUP1 REVERT JUMPDEST PUSH1 0x0 PUSH1 0x1F NOT PUSH1 0x1F DUP4 ADD AND SWAP1 POP SWAP2 SWAP1 POP JUMP JUMPDEST PUSH32 0x4E487B7100000000000000000000000000000000000000000000000000000000 PUSH1 0x0 MSTORE PUSH1 0x41 PUSH1 0x4 MSTORE PUSH1 0x24 PUSH1 0x0 REVERT JUMPDEST PUSH2 0x3DF DUP3 PUSH2 0x396 JUMP JUMPDEST DUP2 ADD DUP2 DUP2 LT PUSH8 0xFFFFFFFFFFFFFFFF DUP3 GT OR ISZERO PUSH2 0x3FE JUMPI PUSH2 0x3FD PUSH2 0x3A7 JUMP JUMPDEST JUMPDEST DUP1 PUSH1 0x40 MSTORE POP POP POP JUMP JUMPDEST PUSH1 0x0 PUSH2 0x411 PUSH2 0x28A JUMP JUMPDEST SWAP1 POP PUSH2 0x41D DUP3 DUP3 PUSH2 0x3D6 JUMP JUMPDEST SWAP2 SWAP1 POP JUMP JUMPDEST PUSH1 0x0 PUSH8 0xFFFFFFFFFFFFFFFF DUP3 GT ISZERO PUSH2 0x43D JUMPI PUSH2 0x43C PUSH2 0x3A7 JUMP JUMPDEST JUMPDEST PUSH2 0x446 DUP3 PUSH2 0x396 JUMP JUMPDEST SWAP1 POP PUSH1 0x20 DUP2 ADD SWAP1 POP SWAP2 SWAP1 POP JUMP JUMPDEST DUP3 DUP2 DUP4 CALLDATACOPY PUSH1 0x0 DUP4 DUP4 ADD MSTORE POP POP POP JUMP JUMPDEST PUSH1 0x0 PUSH2 0x475 PUSH2 0x470 DUP5 PUSH2 0x422 JUMP JUMPDEST PUSH2 0x407 JUMP JUMPDEST SWAP1 POP DUP3 DUP2 MSTORE PUSH1 0x20 DUP2 ADD DUP5 DUP5 DUP5 ADD GT ISZERO PUSH2 0x491 JUMPI PUSH2 0x490 PUSH2 0x391 JUMP JUMPDEST JUMPDEST PUSH2 0x49C DUP5 DUP3 DUP6 PUSH2 0x453 JUMP JUMPDEST POP SWAP4 SWAP3 POP POP POP JUMP JUMPDEST PUSH1 0x0 DUP3 PUSH1 0x1F DUP4 ADD SLT PUSH2 0x4B9 JUMPI PUSH2 0x4B8 PUSH2 0x38C JUMP JUMPDEST JUMPDEST DUP2 CALLDATALOAD PUSH2 0x4C9 DUP5 DUP3 PUSH1 0x20 DUP7 ADD PUSH2 0x462 JUMP JUMPDEST SWAP2 POP POP SWAP3 SWAP2 POP POP JUMP JUMPDEST PUSH1 0x0 DUP2 SWAP1 POP SWAP2 SWAP1 POP JUMP JUMPDEST PUSH2 0x4E5 DUP2 PUSH2 0x4D2 JUMP JUMPDEST DUP2 EQ PUSH2 0x4F0 JUMPI PUSH1 0x0 DUP1 REVERT JUMPDEST POP JUMP JUMPDEST PUSH1 0x0 DUP2 CALLDATALOAD SWAP1 POP PUSH2 0x502 DUP2 PUSH2 0x4DC JUMP JUMPDEST SWAP3 SWAP2 POP POP JUMP JUMPDEST PUSH1 0x0 DUP1 PUSH1 0x0 PUSH1 0x60 DUP5 DUP7 SUB SLT ISZERO PUSH2 0x521 JUMPI PUSH2 0x520 PUSH2 0x294 JUMP JUMPDEST JUMPDEST PUSH1 0x0 DUP5 ADD CALLDATALOAD PUSH8 0xFFFFFFFFFFFFFFFF DUP2 GT ISZERO PUSH2 0x53F JUMPI PUSH2 0x53E PUSH2 0x299 JUMP JUMPDEST JUMPDEST PUSH2 0x54B DUP7 DUP3 DUP8 ADD PUSH2 0x4A4 JUMP JUMPDEST SWAP4 POP POP PUSH1 0x20 PUSH2 0x55C DUP7 DUP3 DUP8 ADD PUSH2 0x4F3 JUMP JUMPDEST SWAP3 POP POP PUSH1 0x40 PUSH2 0x56D DUP7 DUP3 DUP8 ADD PUSH2 0x4F3 JUMP JUMPDEST SWAP2 POP POP SWAP3 POP SWAP3 POP SWAP3 JUMP JUMPDEST PUSH1 0x0 PUSH1 0x20 DUP3 DUP5 SUB SLT ISZERO PUSH2 0x58D JUMPI PUSH2 0x58C PUSH2 0x294 JUMP JUMPDEST JUMPDEST PUSH1 0x0 PUSH2 0x59B DUP5 DUP3 DUP6 ADD PUSH2 0x4F3 JUMP JUMPDEST SWAP2 POP POP SWAP3 SWAP2 POP POP JUMP JUMPDEST PUSH1 0x0 DUP2 MLOAD SWAP1 POP SWAP2 SWAP1 POP JUMP JUMPDEST PUSH1 0x0 DUP3 DUP3 MSTORE PUSH1 0x20 DUP3 ADD SWAP1 POP SWAP3 SWAP2 POP POP JUMP JUMPDEST PUSH1 0x0 JUMPDEST DUP4 DUP2 LT ISZERO PUSH2 0x5DE JUMPI DUP1 DUP3 ADD MLOAD DUP2 DUP5 ADD MSTORE PUSH1 0x20 DUP2 ADD SWAP1 POP PUSH2 0x5C3 JUMP JUMPDEST PUSH1 0x0 DUP5 DUP5 ADD MSTORE POP POP POP POP JUMP JUMPDEST PUSH1 0x0 PUSH2 0x5F5 DUP3 PUSH2 0x5A4 JUMP JUMPDEST PUSH2 0x5FF DUP2 DUP6 PUSH2 0x5AF JUMP JUMPDEST SWAP4 POP PUSH2 0x60F DUP2 DUP6 PUSH1 0x20 DUP7 ADD PUSH2 0x5C0 JUMP JUMPDEST PUSH2 0x618 DUP2 PUSH2 0x396 JUMP JUMPDEST DUP5 ADD SWAP2 POP POP SWAP3 SWAP2 POP POP JUMP JUMPDEST PUSH2 0x62C DUP2 PUSH2 0x4D2 JUMP JUMPDEST DUP3 MSTORE POP POP JUMP JUMPDEST PUSH1 0x0 PUSH1 0x60 DUP4 ADD PUSH1 0x0 DUP4 ADD MLOAD DUP5 DUP3 SUB PUSH1 0x0 DUP7 ADD MSTORE PUSH2 0x64F DUP3 DUP3 PUSH2 0x5EA JUMP JUMPDEST SWAP2 POP POP PUSH1 0x20 DUP4 ADD MLOAD PUSH2 0x664 PUSH1 0x20 DUP7 ADD DUP3 PUSH2 0x623 JUMP JUMPDEST POP PUSH1 0x40 DUP4 ADD MLOAD PUSH2 0x677 PUSH1 0x40 DUP7 ADD DUP3 PUSH2 0x623 JUMP JUMPDEST POP DUP1 SWAP2 POP POP SWAP3 SWAP2 POP POP JUMP JUMPDEST PUSH1 0x0 PUSH1 0x20 DUP3 ADD SWAP1 POP DUP2 DUP2 SUB PUSH1 0x0 DUP4 ADD MSTORE PUSH2 0x69C DUP2 DUP5 PUSH2 0x632 JUMP JUMPDEST SWAP1 POP SWAP3 SWAP2 POP POP JUMP JUMPDEST PUSH32 0x4E487B7100000000000000000000000000000000000000000000000000000000 PUSH1 0x0 MSTORE PUSH1 0x11 PUSH1 0x4 MSTORE PUSH1 0x24 PUSH1 0x0 REVERT JUMPDEST PUSH1 0x0 PUSH2 0x6DE DUP3 PUSH2 0x29E JUMP JUMPDEST SWAP2 POP PUSH2 0x6E9 DUP4 PUSH2 0x29E JUMP JUMPDEST SWAP3 POP DUP3 DUP3 ADD SWAP1 POP PUSH32 0xFFFFFFFFFFFFFFFFFFFFFFFFFFFFFFFF80000000000000000000000000000000 DUP2 SLT PUSH16 0x7FFFFFFFFFFFFFFFFFFFFFFFFFFFFFFF DUP3 SGT OR ISZERO PUSH2 0x735 JUMPI PUSH2 0x734 PUSH2 0x6A4 JUMP JUMPDEST JUMPDEST SWAP3 SWAP2 POP POP JUMP JUMPDEST PUSH32 0x4E487B7100000000000000000000000000000000000000000000000000000000 PUSH1 0x0 MSTORE PUSH1 0x12 PUSH1 0x4 MSTORE PUSH1 0x24 PUSH1 0x0 REVERT JUMPDEST PUSH1 0x0 PUSH2 0x775 DUP3 PUSH2 0x29E JUMP JUMPDEST SWAP2 POP PUSH2 0x780 DUP4 PUSH2 0x29E JUMP JUMPDEST SWAP3 POP DUP3 PUSH2 0x790 JUMPI PUSH2 0x78F PUSH2 0x73B JUMP JUMPDEST JUMPDEST PUSH1 0x1 PUSH1 0x0 SUB DUP4 EQ PUSH32 0xFFFFFFFFFFFFFFFFFFFFFFFFFFFFFFFF80000000000000000000000000000000 DUP4 EQ AND ISZERO PUSH2 0x7C9 JUMPI PUSH2 0x7C8 PUSH2 0x6A4 JUMP JUMPDEST JUMPDEST DUP3 DUP3 SDIV SWAP1 POP SWAP3 SWAP2 POP POP JUMP JUMPDEST PUSH32 0x4E487B7100000000000000000000000000000000000000000000000000000000 PUSH1 0x0 MSTORE PUSH1 0x22 PUSH1 0x4 MSTORE PUSH1 0x24 PUSH1 0x0 REVERT JUMPDEST PUSH1 0x0 PUSH1 0x2 DUP3 DIV SWAP1 POP PUSH1 0x1 DUP3 AND DUP1 PUSH2 0x81B JUMPI PUSH1 0x7F DUP3 AND SWAP2 POP JUMPDEST PUSH1 0x20 DUP3 LT DUP2 SUB PUSH2 0x82E JUMPI PUSH2 0x82D PUSH2 0x7D4 JUMP JUMPDEST JUMPDEST POP SWAP2 SWAP1 POP JUMP JUMPDEST PUSH1 0x0 DUP2 SWAP1 POP DUP2 PUSH1 0x0 MSTORE PUSH1 0x20 PUSH1 0x0 KECCAK256 SWAP1 POP SWAP2 SWAP1 POP JUMP JUMPDEST PUSH1 0x0 PUSH1 0x20 PUSH1 0x1F DUP4 ADD DIV SWAP1 POP SWAP2 SWAP1 POP JUMP JUMPDEST PUSH1 0x0 DUP3 DUP3 SHL SWAP1 POP SWAP3 SWAP2 POP POP JUMP JUMPDEST PUSH1 0x0 PUSH1 0x8 DUP4 MUL PUSH2 0x896 PUSH32 0xFFFFFFFFFFFFFFFFFFFFFFFFFFFFFFFFFFFFFFFFFFFFFFFFFFFFFFFFFFFFFFFF DUP3 PUSH2 0x859 JUMP JUMPDEST PUSH2 0x8A0 DUP7 DUP4 PUSH2 0x859 JUMP JUMPDEST SWAP6 POP DUP1 NOT DUP5 AND SWAP4 POP DUP1 DUP7 AND DUP5 OR SWAP3 POP POP POP SWAP4 SWAP3 POP POP POP JUMP JUMPDEST PUSH1 0x0 DUP2 SWAP1 POP SWAP2 SWAP1 POP JUMP JUMPDEST PUSH1 0x0 PUSH2 0x8DD PUSH2 0x8D8 PUSH2 0x8D3 DUP5 PUSH2 0x4D2 JUMP JUMPDEST PUSH2 0x8B8 JUMP JUMPDEST PUSH2 0x4D2 JUMP JUMPDEST SWAP1 POP SWAP2 SWAP1 POP JUMP JUMPDEST PUSH1 0x0 DUP2 SWAP1 POP SWAP2 SWAP1 POP JUMP JUMPDEST PUSH2 0x8F7 DUP4 PUSH2 0x8C2 JUMP JUMPDEST PUSH2 0x90B PUSH2 0x903 DUP3 PUSH2 0x8E4 JUMP JUMPDEST DUP5 DUP5 SLOAD PUSH2 0x866 JUMP JUMPDEST DUP3 SSTORE POP POP POP POP JUMP JUMPDEST PUSH1 0x0 SWAP1 JUMP JUMPDEST PUSH2 0x920 PUSH2 0x913 JUMP JUMPDEST PUSH2 0x92B DUP2 DUP5 DUP5 PUSH2 0x8EE JUMP JUMPDEST POP POP POP JUMP JUMPDEST JUMPDEST DUP2 DUP2 LT ISZERO PUSH2 0x94F JUMPI PUSH2 0x944 PUSH1 0x0 DUP3 PUSH2 0x918 JUMP JUMPDEST PUSH1 0x1 DUP2 ADD SWAP1 POP PUSH2 0x931 JUMP JUMPDEST POP POP JUMP JUMPDEST PUSH1 0x1F DUP3 GT ISZERO PUSH2 0x994 JUMPI PUSH2 0x965 DUP2 PUSH2 0x834 JUMP JUMPDEST PUSH2 0x96E DUP5 PUSH2 0x849 JUMP JUMPDEST DUP2 ADD PUSH1 0x20 DUP6 LT ISZERO PUSH2 0x97D JUMPI DUP2 SWAP1 POP JUMPDEST PUSH2 0x991 PUSH2 0x989 DUP6 PUSH2 0x849 JUMP JUMPDEST DUP4 ADD DUP3 PUSH2 0x930 JUMP JUMPDEST POP POP JUMPDEST POP POP POP JUMP JUMPDEST PUSH1 0x0 DUP3 DUP3 SHR SWAP1 POP SWAP3 SWAP2 POP POP JUMP JUMPDEST PUSH1 0x0 PUSH2 0x9B7 PUSH1 0x0 NOT DUP5 PUSH1 0x8 MUL PUSH2 0x999 JUMP JUMPDEST NOT DUP1 DUP4 AND SWAP2 POP POP SWAP3 SWAP2 POP POP JUMP JUMPDEST PUSH1 0x0 PUSH2 0x9D0 DUP4 DUP4 PUSH2 0x9A6 JUMP JUMPDEST SWAP2 POP DUP3 PUSH1 0x2 MUL DUP3 OR SWAP1 POP SWAP3 SWAP2 POP POP JUMP JUMPDEST PUSH2 0x9E9 DUP3 PUSH2 0x5A4 JUMP JUMPDEST PUSH8 0xFFFFFFFFFFFFFFFF DUP2 GT ISZERO PUSH2 0xA02 JUMPI PUSH2 0xA01 PUSH2 0x3A7 JUMP JUMPDEST JUMPDEST PUSH2 0xA0C DUP3 SLOAD PUSH2 0x803 JUMP JUMPDEST PUSH2 0xA17 DUP3 DUP3 DUP6 PUSH2 0x953 JUMP JUMPDEST PUSH1 0x0 PUSH1 0x20 SWAP1 POP PUSH1 0x1F DUP4 GT PUSH1 0x1 DUP2 EQ PUSH2 0xA4A JUMPI PUSH1 0x0 DUP5 ISZERO PUSH2 0xA38 JUMPI DUP3 DUP8 ADD MLOAD SWAP1 POP JUMPDEST PUSH2 0xA42 DUP6 DUP3 PUSH2 0x9C4 JUMP JUMPDEST DUP7 SSTORE POP PUSH2 0xAAA JUMP JUMPDEST PUSH1 0x1F NOT DUP5 AND PUSH2 0xA58 DUP7 PUSH2 0x834 JUMP JUMPDEST PUSH1 0x0 JUMPDEST DUP3 DUP2 LT ISZERO PUSH2 0xA80 JUMPI DUP5 DUP10 ADD MLOAD DUP3 SSTORE PUSH1 0x1 DUP3 ADD SWAP2 POP PUSH1 0x20 DUP6 ADD SWAP5 POP PUSH1 0x20 DUP2 ADD SWAP1 POP PUSH2 0xA5B JUMP JUMPDEST DUP7 DUP4 LT ISZERO PUSH2 0xA9D JUMPI DUP5 DUP10 ADD MLOAD PUSH2 0xA99 PUSH1 0x1F DUP10 AND DUP3 PUSH2 0x9A6 JUMP JUMPDEST DUP4 SSTORE POP JUMPDEST PUSH1 0x1 PUSH1 0x2 DUP9 MUL ADD DUP9 SSTORE POP POP POP JUMPDEST POP POP POP POP POP POP JUMP INVALID LOG2 PUSH5 0x6970667358 0x22 SLT KECCAK256 0xAD MUL GASPRICE SWAP4 0xCB 0xAB 0xE5 PUSH26 0x40A4FF619981D3D424B47C3C3125127698BB21B6D2B299C26473 PUSH16 0x6C634300081100330000000000000000 "
		},
		"gasEstimates": {
			"creation": {
				"codeDepositCost": "558400",
				"executionCost": "594",
				"totalCost": "558994"
			},
			"external": {
				"getScholarship(int128,bool,bool)": "infinite",
				"getStd(uint256)": "infinite",
				"setStd(string,uint256,uint256)": "infinite"
			}
		},
		"methodIdentifiers": {
			"getScholarship(int128,bool,bool)": "03ab7a34",
			"getStd(uint256)": "e1502282",
			"setStd(string,uint256,uint256)": "db5ddf19"
		}
	},
	"abi": [
		{
			"inputs": [
				{
					"internalType": "int128",
					"name": "marksPercentage",
					"type": "int128"
				},
				{
					"internalType": "bool",
					"name": "isVillage",
					"type": "bool"
				},
				{
					"internalType": "bool",
					"name": "isPoor",
					"type": "bool"
				}
			],
			"name": "getScholarship",
			"outputs": [
				{
					"internalType": "int128",
					"name": "",
					"type": "int128"
				}
			],
			"stateMutability": "pure",
			"type": "function"
		},
		{
			"inputs": [
				{
					"internalType": "uint256",
					"name": "roll",
					"type": "uint256"
				}
			],
			"name": "getStd",
			"outputs": [
				{
					"components": [
						{
							"internalType": "string",
							"name": "name",
							"type": "string"
						},
						{
							"internalType": "uint256",
							"name": "roll",
							"type": "uint256"
						},
						{
							"internalType": "uint256",
							"name": "age",
							"type": "uint256"
						}
					],
					"internalType": "struct AbstractStd.Student",
					"name": "",
					"type": "tuple"
				}
			],
			"stateMutability": "view",
			"type": "function"
		},
		{
			"inputs": [
				{
					"internalType": "string",
					"name": "name",
					"type": "string"
				},
				{
					"internalType": "uint256",
					"name": "roll",
					"type": "uint256"
				},
				{
					"internalType": "uint256",
					"name": "age",
					"type": "uint256"
				}
			],
			"name": "setStd",
			"outputs": [],
			"stateMutability": "nonpayable",
			"type": "function"
		}
	]
}