{
	"contracts/solidityLanguage/Asg2.sol": {
		"Asg2": {
			"abi": [
				{
					"inputs": [
						{
							"internalType": "string",
							"name": "_str1",
							"type": "string"
						},
						{
							"internalType": "string",
							"name": "_str2",
							"type": "string"
						}
					],
					"name": "compareStr",
					"outputs": [
						{
							"internalType": "bool",
							"name": "",
							"type": "bool"
						}
					],
					"stateMutability": "pure",
					"type": "function"
				},
				{
					"inputs": [
						{
							"internalType": "string",
							"name": "_str1",
							"type": "string"
						},
						{
							"internalType": "string",
							"name": "_str2",
							"type": "string"
						}
					],
					"name": "concatenate",
					"outputs": [
						{
							"internalType": "string",
							"name": "",
							"type": "string"
						}
					],
					"stateMutability": "pure",
					"type": "function"
				},
				{
					"inputs": [
						{
							"internalType": "uint256",
							"name": "_num",
							"type": "uint256"
						}
					],
					"name": "contains",
					"outputs": [
						{
							"internalType": "bool",
							"name": "",
							"type": "bool"
						}
					],
					"stateMutability": "pure",
					"type": "function"
				},
				{
					"inputs": [
						{
							"internalType": "int256",
							"name": "_num",
							"type": "int256"
						},
						{
							"internalType": "uint256",
							"name": "_index",
							"type": "uint256"
						}
					],
					"name": "insertArr",
					"outputs": [
						{
							"internalType": "int256[]",
							"name": "",
							"type": "int256[]"
						}
					],
					"stateMutability": "pure",
					"type": "function"
				},
				{
					"inputs": [
						{
							"internalType": "int256[4]",
							"name": "_arr",
							"type": "int256[4]"
						}
					],
					"name": "largest",
					"outputs": [
						{
							"internalType": "int256",
							"name": "",
							"type": "int256"
						}
					],
					"stateMutability": "pure",
					"type": "function"
				},
				{
					"inputs": [
						{
							"internalType": "int256[]",
							"name": "_arr",
							"type": "int256[]"
						}
					],
					"name": "reverseArray",
					"outputs": [
						{
							"internalType": "int256[]",
							"name": "",
							"type": "int256[]"
						}
					],
					"stateMutability": "pure",
					"type": "function"
				},
				{
					"inputs": [
						{
							"internalType": "int256[5]",
							"name": "_arr",
							"type": "int256[5]"
						}
					],
					"name": "sortArray",
					"outputs": [
						{
							"internalType": "int256[5]",
							"name": "",
							"type": "int256[5]"
						}
					],
					"stateMutability": "pure",
					"type": "function"
				},
				{
					"inputs": [],
					"name": "studentStruct",
					"outputs": [
						{
							"components": [
								{
									"internalType": "string",
									"name": "name",
									"type": "string"
								},
								{
									"internalType": "uint256",
									"name": "age",
									"type": "uint256"
								}
							],
							"internalType": "struct Asg2.student",
							"name": "",
							"type": "tuple"
						}
					],
					"stateMutability": "pure",
					"type": "function"
				},
				{
					"inputs": [
						{
							"internalType": "int256[]",
							"name": "_arr",
							"type": "int256[]"
						}
					],
					"name": "sumArr",
					"outputs": [
						{
							"internalType": "int256",
							"name": "",
							"type": "int256"
						}
					],
					"stateMutability": "pure",
					"type": "function"
				}
			],
			"devdoc": {
				"kind": "dev",
				"methods": {},
				"version": 1
			},
			"evm": {
				"assembly": "    /* \"contracts/solidityLanguage/Asg2.sol\":56:2323  contract Asg2{... */\n  mstore(0x40, 0x80)\n  callvalue\n  dup1\n  iszero\n  tag_1\n  jumpi\n  0x00\n  dup1\n  revert\ntag_1:\n  pop\n  dataSize(sub_0)\n  dup1\n  dataOffset(sub_0)\n  0x00\n  codecopy\n  0x00\n  return\nstop\n\nsub_0: assembly {\n        /* \"contracts/solidityLanguage/Asg2.sol\":56:2323  contract Asg2{... */\n      mstore(0x40, 0x80)\n      callvalue\n      dup1\n      iszero\n      tag_1\n      jumpi\n      0x00\n      dup1\n      revert\n    tag_1:\n      pop\n      jumpi(tag_2, lt(calldatasize, 0x04))\n      shr(0xe0, calldataload(0x00))\n      dup1\n      0x87c5d5cc\n      gt\n      tag_12\n      jumpi\n      dup1\n      0x87c5d5cc\n      eq\n      tag_7\n      jumpi\n      dup1\n      0x99998902\n      eq\n      tag_8\n      jumpi\n      dup1\n      0xb02a0fda\n      eq\n      tag_9\n      jumpi\n      dup1\n      0xc34052e0\n      eq\n      tag_10\n      jumpi\n      dup1\n      0xdf3dafad\n      eq\n      tag_11\n      jumpi\n      jump(tag_2)\n    tag_12:\n      dup1\n      0x06694a0a\n      eq\n      tag_3\n      jumpi\n      dup1\n      0x266001d3\n      eq\n      tag_4\n      jumpi\n      dup1\n      0x378ee557\n      eq\n      tag_5\n      jumpi\n      dup1\n      0x5e34f951\n      eq\n      tag_6\n      jumpi\n    tag_2:\n      0x00\n      dup1\n      revert\n        /* \"contracts/solidityLanguage/Asg2.sol\":1403:1682  function reverseArray(int[] memory _arr) external pure returns(int[] memory){... */\n    tag_3:\n      tag_13\n      0x04\n      dup1\n      calldatasize\n      sub\n      dup2\n      add\n      swap1\n      tag_14\n      swap2\n      swap1\n      tag_15\n      jump\t// in\n    tag_14:\n      tag_16\n      jump\t// in\n    tag_13:\n      mload(0x40)\n      tag_17\n      swap2\n      swap1\n      tag_18\n      jump\t// in\n    tag_17:\n      mload(0x40)\n      dup1\n      swap2\n      sub\n      swap1\n      return\n        /* \"contracts/solidityLanguage/Asg2.sol\":83:236  function concatenate(string calldata _str1, string calldata _str2) external pure returns(string memory){... */\n    tag_4:\n      tag_19\n      0x04\n      dup1\n      calldatasize\n      sub\n      dup2\n      add\n      swap1\n      tag_20\n      swap2\n      swap1\n      tag_21\n      jump\t// in\n    tag_20:\n      tag_22\n      jump\t// in\n    tag_19:\n      mload(0x40)\n      tag_23\n      swap2\n      swap1\n      tag_24\n      jump\t// in\n    tag_23:\n      mload(0x40)\n      dup1\n      swap2\n      sub\n      swap1\n      return\n        /* \"contracts/solidityLanguage/Asg2.sol\":1695:1872  function insertArr(int _num, uint _index) external pure returns(int[] memory){... */\n    tag_5:\n      tag_25\n      0x04\n      dup1\n      calldatasize\n      sub\n      dup2\n      add\n      swap1\n      tag_26\n      swap2\n      swap1\n      tag_27\n      jump\t// in\n    tag_26:\n      tag_28\n      jump\t// in\n    tag_25:\n      mload(0x40)\n      tag_29\n      swap2\n      swap1\n      tag_18\n      jump\t// in\n    tag_29:\n      mload(0x40)\n      dup1\n      swap2\n      sub\n      swap1\n      return\n        /* \"contracts/solidityLanguage/Asg2.sol\":730:982  function largest(int[4] calldata _arr) external pure returns(int){... */\n    tag_6:\n      tag_30\n      0x04\n      dup1\n      calldatasize\n      sub\n      dup2\n      add\n      swap1\n      tag_31\n      swap2\n      swap1\n      tag_32\n      jump\t// in\n    tag_31:\n      tag_33\n      jump\t// in\n    tag_30:\n      mload(0x40)\n      tag_34\n      swap2\n      swap1\n      tag_35\n      jump\t// in\n    tag_34:\n      mload(0x40)\n      dup1\n      swap2\n      sub\n      swap1\n      return\n        /* \"contracts/solidityLanguage/Asg2.sol\":249:451  function compareStr(string calldata _str1, string calldata _str2) external pure returns(bool){... */\n    tag_7:\n      tag_36\n      0x04\n      dup1\n      calldatasize\n      sub\n      dup2\n      add\n      swap1\n      tag_37\n      swap2\n      swap1\n      tag_21\n      jump\t// in\n    tag_37:\n      tag_38\n      jump\t// in\n    tag_36:\n      mload(0x40)\n      tag_39\n      swap2\n      swap1\n      tag_40\n      jump\t// in\n    tag_39:\n      mload(0x40)\n      dup1\n      swap2\n      sub\n      swap1\n      return\n        /* \"contracts/solidityLanguage/Asg2.sol\":2170:2312  function studentStruct() external pure returns(student memory){... */\n    tag_8:\n      tag_41\n      tag_42\n      jump\t// in\n    tag_41:\n      mload(0x40)\n      tag_43\n      swap2\n      swap1\n      tag_44\n      jump\t// in\n    tag_43:\n      mload(0x40)\n      dup1\n      swap2\n      sub\n      swap1\n      return\n        /* \"contracts/solidityLanguage/Asg2.sol\":995:1390  function sortArray(int[5] memory _arr) external pure returns(int[5] memory){... */\n    tag_9:\n      tag_45\n      0x04\n      dup1\n      calldatasize\n      sub\n      dup2\n      add\n      swap1\n      tag_46\n      swap2\n      swap1\n      tag_47\n      jump\t// in\n    tag_46:\n      tag_48\n      jump\t// in\n    tag_45:\n      mload(0x40)\n      tag_49\n      swap2\n      swap1\n      tag_50\n      jump\t// in\n    tag_49:\n      mload(0x40)\n      dup1\n      swap2\n      sub\n      swap1\n      return\n        /* \"contracts/solidityLanguage/Asg2.sol\":464:717  function contains(uint _num) external pure returns(bool){... */\n    tag_10:\n      tag_51\n      0x04\n      dup1\n      calldatasize\n      sub\n      dup2\n      add\n      swap1\n      tag_52\n      swap2\n      swap1\n      tag_53\n      jump\t// in\n    tag_52:\n      tag_54\n      jump\t// in\n    tag_51:\n      mload(0x40)\n      tag_55\n      swap2\n      swap1\n      tag_40\n      jump\t// in\n    tag_55:\n      mload(0x40)\n      dup1\n      swap2\n      sub\n      swap1\n      return\n        /* \"contracts/solidityLanguage/Asg2.sol\":1885:2076  function sumArr(int[] memory _arr) external pure returns(int){... */\n    tag_11:\n      tag_56\n      0x04\n      dup1\n      calldatasize\n      sub\n      dup2\n      add\n      swap1\n      tag_57\n      swap2\n      swap1\n      tag_15\n      jump\t// in\n    tag_57:\n      tag_58\n      jump\t// in\n    tag_56:\n      mload(0x40)\n      tag_59\n      swap2\n      swap1\n      tag_35\n      jump\t// in\n    tag_59:\n      mload(0x40)\n      dup1\n      swap2\n      sub\n      swap1\n      return\n        /* \"contracts/solidityLanguage/Asg2.sol\":1403:1682  function reverseArray(int[] memory _arr) external pure returns(int[] memory){... */\n    tag_16:\n        /* \"contracts/solidityLanguage/Asg2.sol\":1466:1478  int[] memory */\n      0x60\n        /* \"contracts/solidityLanguage/Asg2.sol\":1489:1513  int[] memory _reverseArr */\n      0x00\n        /* \"contracts/solidityLanguage/Asg2.sol\":1526:1530  _arr */\n      dup3\n        /* \"contracts/solidityLanguage/Asg2.sol\":1526:1537  _arr.length */\n      mload\n        /* \"contracts/solidityLanguage/Asg2.sol\":1516:1538  new int[](_arr.length) */\n      0xffffffffffffffff\n      dup2\n      gt\n      iszero\n      tag_61\n      jumpi\n      tag_62\n      tag_63\n      jump\t// in\n    tag_62:\n    tag_61:\n      mload(0x40)\n      swap1\n      dup1\n      dup3\n      mstore\n      dup1\n      0x20\n      mul\n      0x20\n      add\n      dup3\n      add\n      0x40\n      mstore\n      dup1\n      iszero\n      tag_64\n      jumpi\n      dup2\n      0x20\n      add\n      0x20\n      dup3\n      mul\n      dup1\n      calldatasize\n      dup4\n      calldatacopy\n      dup1\n      dup3\n      add\n      swap2\n      pop\n      pop\n      swap1\n      pop\n    tag_64:\n      pop\n        /* \"contracts/solidityLanguage/Asg2.sol\":1489:1538  int[] memory _reverseArr = new int[](_arr.length) */\n      swap1\n      pop\n        /* \"contracts/solidityLanguage/Asg2.sol\":1552:1558  uint i */\n      0x00\n        /* \"contracts/solidityLanguage/Asg2.sol\":1548:1648  for(uint i =0; i<_arr.length; i++){... */\n    tag_65:\n        /* \"contracts/solidityLanguage/Asg2.sol\":1565:1569  _arr */\n      dup4\n        /* \"contracts/solidityLanguage/Asg2.sol\":1565:1576  _arr.length */\n      mload\n        /* \"contracts/solidityLanguage/Asg2.sol\":1563:1564  i */\n      dup2\n        /* \"contracts/solidityLanguage/Asg2.sol\":1563:1576  i<_arr.length */\n      lt\n        /* \"contracts/solidityLanguage/Asg2.sol\":1548:1648  for(uint i =0; i<_arr.length; i++){... */\n      iszero\n      tag_66\n      jumpi\n        /* \"contracts/solidityLanguage/Asg2.sol\":1613:1617  _arr */\n      dup4\n        /* \"contracts/solidityLanguage/Asg2.sol\":1635:1636  i */\n      dup2\n        /* \"contracts/solidityLanguage/Asg2.sol\":1632:1633  1 */\n      0x01\n        /* \"contracts/solidityLanguage/Asg2.sol\":1618:1622  _arr */\n      dup7\n        /* \"contracts/solidityLanguage/Asg2.sol\":1618:1629  _arr.length */\n      mload\n        /* \"contracts/solidityLanguage/Asg2.sol\":1618:1633  _arr.length - 1 */\n      tag_68\n      swap2\n      swap1\n      tag_69\n      jump\t// in\n    tag_68:\n        /* \"contracts/solidityLanguage/Asg2.sol\":1618:1636  _arr.length - 1 -i */\n      tag_70\n      swap2\n      swap1\n      tag_69\n      jump\t// in\n    tag_70:\n        /* \"contracts/solidityLanguage/Asg2.sol\":1613:1637  _arr[_arr.length - 1 -i] */\n      dup2\n      mload\n      dup2\n      lt\n      tag_71\n      jumpi\n      tag_72\n      tag_73\n      jump\t// in\n    tag_72:\n    tag_71:\n      0x20\n      mul\n      0x20\n      add\n      add\n      mload\n        /* \"contracts/solidityLanguage/Asg2.sol\":1596:1607  _reverseArr */\n      dup3\n        /* \"contracts/solidityLanguage/Asg2.sol\":1608:1609  i */\n      dup3\n        /* \"contracts/solidityLanguage/Asg2.sol\":1596:1610  _reverseArr[i] */\n      dup2\n      mload\n      dup2\n      lt\n      tag_74\n      jumpi\n      tag_75\n      tag_73\n      jump\t// in\n    tag_75:\n    tag_74:\n      0x20\n      mul\n      0x20\n      add\n      add\n        /* \"contracts/solidityLanguage/Asg2.sol\":1596:1637  _reverseArr[i] = _arr[_arr.length - 1 -i] */\n      dup2\n      dup2\n      mstore\n      pop\n      pop\n        /* \"contracts/solidityLanguage/Asg2.sol\":1578:1581  i++ */\n      dup1\n      dup1\n      tag_76\n      swap1\n      tag_77\n      jump\t// in\n    tag_76:\n      swap2\n      pop\n      pop\n        /* \"contracts/solidityLanguage/Asg2.sol\":1548:1648  for(uint i =0; i<_arr.length; i++){... */\n      jump(tag_65)\n    tag_66:\n      pop\n        /* \"contracts/solidityLanguage/Asg2.sol\":1664:1675  _reverseArr */\n      dup1\n        /* \"contracts/solidityLanguage/Asg2.sol\":1657:1675  return _reverseArr */\n      swap2\n      pop\n      pop\n        /* \"contracts/solidityLanguage/Asg2.sol\":1403:1682  function reverseArray(int[] memory _arr) external pure returns(int[] memory){... */\n      swap2\n      swap1\n      pop\n      jump\t// out\n        /* \"contracts/solidityLanguage/Asg2.sol\":83:236  function concatenate(string calldata _str1, string calldata _str2) external pure returns(string memory){... */\n    tag_22:\n        /* \"contracts/solidityLanguage/Asg2.sol\":172:185  string memory */\n      0x60\n        /* \"contracts/solidityLanguage/Asg2.sol\":217:222  _str1 */\n      dup5\n      dup5\n        /* \"contracts/solidityLanguage/Asg2.sol\":223:228  _str2 */\n      dup5\n      dup5\n        /* \"contracts/solidityLanguage/Asg2.sol\":203:229  string.concat(_str1,_str2) */\n      add(0x20, mload(0x40))\n      tag_79\n      swap5\n      swap4\n      swap3\n      swap2\n      swap1\n      tag_80\n      jump\t// in\n    tag_79:\n      mload(0x40)\n      0x20\n      dup2\n      dup4\n      sub\n      sub\n      dup2\n      mstore\n      swap1\n      0x40\n      mstore\n        /* \"contracts/solidityLanguage/Asg2.sol\":196:229  return string.concat(_str1,_str2) */\n      swap1\n      pop\n        /* \"contracts/solidityLanguage/Asg2.sol\":83:236  function concatenate(string calldata _str1, string calldata _str2) external pure returns(string memory){... */\n      swap5\n      swap4\n      pop\n      pop\n      pop\n      pop\n      jump\t// out\n        /* \"contracts/solidityLanguage/Asg2.sol\":1695:1872  function insertArr(int _num, uint _index) external pure returns(int[] memory){... */\n    tag_28:\n        /* \"contracts/solidityLanguage/Asg2.sol\":1759:1771  int[] memory */\n      0x60\n        /* \"contracts/solidityLanguage/Asg2.sol\":1782:1799  int[] memory _arr */\n      0x00\n        /* \"contracts/solidityLanguage/Asg2.sol\":1812:1814  10 */\n      0x0a\n        /* \"contracts/solidityLanguage/Asg2.sol\":1802:1815  new int[](10) */\n      0xffffffffffffffff\n      dup2\n      gt\n      iszero\n      tag_82\n      jumpi\n      tag_83\n      tag_63\n      jump\t// in\n    tag_83:\n    tag_82:\n      mload(0x40)\n      swap1\n      dup1\n      dup3\n      mstore\n      dup1\n      0x20\n      mul\n      0x20\n      add\n      dup3\n      add\n      0x40\n      mstore\n      dup1\n      iszero\n      tag_84\n      jumpi\n      dup2\n      0x20\n      add\n      0x20\n      dup3\n      mul\n      dup1\n      calldatasize\n      dup4\n      calldatacopy\n      dup1\n      dup3\n      add\n      swap2\n      pop\n      pop\n      swap1\n      pop\n    tag_84:\n      pop\n        /* \"contracts/solidityLanguage/Asg2.sol\":1782:1815  int[] memory _arr = new int[](10) */\n      swap1\n      pop\n        /* \"contracts/solidityLanguage/Asg2.sol\":1840:1844  _num */\n      dup4\n        /* \"contracts/solidityLanguage/Asg2.sol\":1825:1829  _arr */\n      dup2\n        /* \"contracts/solidityLanguage/Asg2.sol\":1830:1836  _index */\n      dup5\n        /* \"contracts/solidityLanguage/Asg2.sol\":1825:1837  _arr[_index] */\n      dup2\n      mload\n      dup2\n      lt\n      tag_85\n      jumpi\n      tag_86\n      tag_73\n      jump\t// in\n    tag_86:\n    tag_85:\n      0x20\n      mul\n      0x20\n      add\n      add\n        /* \"contracts/solidityLanguage/Asg2.sol\":1825:1844  _arr[_index] = _num */\n      dup2\n      dup2\n      mstore\n      pop\n      pop\n        /* \"contracts/solidityLanguage/Asg2.sol\":1861:1865  _arr */\n      dup1\n        /* \"contracts/solidityLanguage/Asg2.sol\":1854:1865  return _arr */\n      swap2\n      pop\n      pop\n        /* \"contracts/solidityLanguage/Asg2.sol\":1695:1872  function insertArr(int _num, uint _index) external pure returns(int[] memory){... */\n      swap3\n      swap2\n      pop\n      pop\n      jump\t// out\n        /* \"contracts/solidityLanguage/Asg2.sol\":730:982  function largest(int[4] calldata _arr) external pure returns(int){... */\n    tag_33:\n        /* \"contracts/solidityLanguage/Asg2.sol\":791:794  int */\n      0x00\n        /* \"contracts/solidityLanguage/Asg2.sol\":805:814  int large */\n      dup1\n        /* \"contracts/solidityLanguage/Asg2.sol\":817:818  0 */\n      0x00\n        /* \"contracts/solidityLanguage/Asg2.sol\":805:818  int large = 0 */\n      swap1\n      pop\n        /* \"contracts/solidityLanguage/Asg2.sol\":832:838  uint i */\n      0x00\n        /* \"contracts/solidityLanguage/Asg2.sol\":828:954  for(uint i=0; i<_arr.length; i++){... */\n    tag_88:\n        /* \"contracts/solidityLanguage/Asg2.sol\":844:855  _arr.length */\n      0x04\n        /* \"contracts/solidityLanguage/Asg2.sol\":842:843  i */\n      dup2\n        /* \"contracts/solidityLanguage/Asg2.sol\":842:855  i<_arr.length */\n      lt\n        /* \"contracts/solidityLanguage/Asg2.sol\":828:954  for(uint i=0; i<_arr.length; i++){... */\n      iszero\n      tag_89\n      jumpi\n        /* \"contracts/solidityLanguage/Asg2.sol\":881:882  0 */\n      0x00\n        /* \"contracts/solidityLanguage/Asg2.sol\":878:879  i */\n      dup2\n        /* \"contracts/solidityLanguage/Asg2.sol\":878:882  i==0 */\n      eq\n        /* \"contracts/solidityLanguage/Asg2.sol\":878:899  i==0||large < _arr[i] */\n      dup1\n      tag_91\n      jumpi\n      pop\n        /* \"contracts/solidityLanguage/Asg2.sol\":892:896  _arr */\n      dup4\n        /* \"contracts/solidityLanguage/Asg2.sol\":897:898  i */\n      dup2\n        /* \"contracts/solidityLanguage/Asg2.sol\":892:899  _arr[i] */\n      0x04\n      dup2\n      lt\n      tag_92\n      jumpi\n      tag_93\n      tag_73\n      jump\t// in\n    tag_93:\n    tag_92:\n      0x20\n      mul\n      add\n      calldataload\n        /* \"contracts/solidityLanguage/Asg2.sol\":884:889  large */\n      dup3\n        /* \"contracts/solidityLanguage/Asg2.sol\":884:899  large < _arr[i] */\n      slt\n        /* \"contracts/solidityLanguage/Asg2.sol\":878:899  i==0||large < _arr[i] */\n    tag_91:\n        /* \"contracts/solidityLanguage/Asg2.sol\":875:944  if(i==0||large < _arr[i]){... */\n      iszero\n      tag_94\n      jumpi\n        /* \"contracts/solidityLanguage/Asg2.sol\":922:926  _arr */\n      dup4\n        /* \"contracts/solidityLanguage/Asg2.sol\":927:928  i */\n      dup2\n        /* \"contracts/solidityLanguage/Asg2.sol\":922:929  _arr[i] */\n      0x04\n      dup2\n      lt\n      tag_95\n      jumpi\n      tag_96\n      tag_73\n      jump\t// in\n    tag_96:\n    tag_95:\n      0x20\n      mul\n      add\n      calldataload\n        /* \"contracts/solidityLanguage/Asg2.sol\":914:929  large = _arr[i] */\n      swap2\n      pop\n        /* \"contracts/solidityLanguage/Asg2.sol\":875:944  if(i==0||large < _arr[i]){... */\n    tag_94:\n        /* \"contracts/solidityLanguage/Asg2.sol\":857:860  i++ */\n      dup1\n      dup1\n      tag_97\n      swap1\n      tag_77\n      jump\t// in\n    tag_97:\n      swap2\n      pop\n      pop\n        /* \"contracts/solidityLanguage/Asg2.sol\":828:954  for(uint i=0; i<_arr.length; i++){... */\n      jump(tag_88)\n    tag_89:\n      pop\n        /* \"contracts/solidityLanguage/Asg2.sol\":970:975  large */\n      dup1\n        /* \"contracts/solidityLanguage/Asg2.sol\":963:975  return large */\n      swap2\n      pop\n      pop\n        /* \"contracts/solidityLanguage/Asg2.sol\":730:982  function largest(int[4] calldata _arr) external pure returns(int){... */\n      swap2\n      swap1\n      pop\n      jump\t// out\n        /* \"contracts/solidityLanguage/Asg2.sol\":249:451  function compareStr(string calldata _str1, string calldata _str2) external pure returns(bool){... */\n    tag_38:\n        /* \"contracts/solidityLanguage/Asg2.sol\":337:341  bool */\n      0x00\n        /* \"contracts/solidityLanguage/Asg2.sol\":422:427  _str2 */\n      dup3\n      dup3\n        /* \"contracts/solidityLanguage/Asg2.sol\":405:428  abi.encodePacked(_str2) */\n      add(0x20, mload(0x40))\n      tag_99\n      swap3\n      swap2\n      swap1\n      tag_100\n      jump\t// in\n    tag_99:\n      mload(0x40)\n      0x20\n      dup2\n      dup4\n      sub\n      sub\n      dup2\n      mstore\n      swap1\n      0x40\n      mstore\n        /* \"contracts/solidityLanguage/Asg2.sol\":395:429  keccak256(abi.encodePacked(_str2)) */\n      dup1\n      mload\n      swap1\n      0x20\n      add\n      keccak256\n        /* \"contracts/solidityLanguage/Asg2.sol\":386:391  _str1 */\n      dup6\n      dup6\n        /* \"contracts/solidityLanguage/Asg2.sol\":369:392  abi.encodePacked(_str1) */\n      add(0x20, mload(0x40))\n      tag_101\n      swap3\n      swap2\n      swap1\n      tag_100\n      jump\t// in\n    tag_101:\n      mload(0x40)\n      0x20\n      dup2\n      dup4\n      sub\n      sub\n      dup2\n      mstore\n      swap1\n      0x40\n      mstore\n        /* \"contracts/solidityLanguage/Asg2.sol\":359:393  keccak256(abi.encodePacked(_str1)) */\n      dup1\n      mload\n      swap1\n      0x20\n      add\n      keccak256\n        /* \"contracts/solidityLanguage/Asg2.sol\":359:429  keccak256(abi.encodePacked(_str1))==keccak256(abi.encodePacked(_str2)) */\n      eq\n        /* \"contracts/solidityLanguage/Asg2.sol\":359:444  keccak256(abi.encodePacked(_str1))==keccak256(abi.encodePacked(_str2)) ? true : false */\n      tag_102\n      jumpi\n        /* \"contracts/solidityLanguage/Asg2.sol\":439:444  false */\n      0x00\n        /* \"contracts/solidityLanguage/Asg2.sol\":359:444  keccak256(abi.encodePacked(_str1))==keccak256(abi.encodePacked(_str2)) ? true : false */\n      jump(tag_103)\n    tag_102:\n        /* \"contracts/solidityLanguage/Asg2.sol\":432:436  true */\n      0x01\n        /* \"contracts/solidityLanguage/Asg2.sol\":359:444  keccak256(abi.encodePacked(_str1))==keccak256(abi.encodePacked(_str2)) ? true : false */\n    tag_103:\n        /* \"contracts/solidityLanguage/Asg2.sol\":352:444  return keccak256(abi.encodePacked(_str1))==keccak256(abi.encodePacked(_str2)) ? true : false */\n      swap1\n      pop\n        /* \"contracts/solidityLanguage/Asg2.sol\":249:451  function compareStr(string calldata _str1, string calldata _str2) external pure returns(bool){... */\n      swap5\n      swap4\n      pop\n      pop\n      pop\n      pop\n      jump\t// out\n        /* \"contracts/solidityLanguage/Asg2.sol\":2170:2312  function studentStruct() external pure returns(student memory){... */\n    tag_42:\n        /* \"contracts/solidityLanguage/Asg2.sol\":2217:2231  student memory */\n      tag_104\n      tag_105\n      jump\t// in\n    tag_104:\n        /* \"contracts/solidityLanguage/Asg2.sol\":2243:2262  student memory std1 */\n      0x00\n        /* \"contracts/solidityLanguage/Asg2.sol\":2265:2284  student(\"yaser\",29) */\n      mload(0x40)\n      dup1\n      0x40\n      add\n      0x40\n      mstore\n      dup1\n      mload(0x40)\n      dup1\n      0x40\n      add\n      0x40\n      mstore\n      dup1\n      0x05\n      dup2\n      mstore\n      0x20\n      add\n      0x7961736572000000000000000000000000000000000000000000000000000000\n      dup2\n      mstore\n      pop\n      dup2\n      mstore\n      0x20\n      add\n        /* \"contracts/solidityLanguage/Asg2.sol\":2281:2283  29 */\n      0x1d\n        /* \"contracts/solidityLanguage/Asg2.sol\":2265:2284  student(\"yaser\",29) */\n      dup2\n      mstore\n      pop\n        /* \"contracts/solidityLanguage/Asg2.sol\":2243:2284  student memory std1 = student(\"yaser\",29) */\n      swap1\n      pop\n        /* \"contracts/solidityLanguage/Asg2.sol\":2301:2305  std1 */\n      dup1\n        /* \"contracts/solidityLanguage/Asg2.sol\":2294:2305  return std1 */\n      swap2\n      pop\n      pop\n        /* \"contracts/solidityLanguage/Asg2.sol\":2170:2312  function studentStruct() external pure returns(student memory){... */\n      swap1\n      jump\t// out\n        /* \"contracts/solidityLanguage/Asg2.sol\":995:1390  function sortArray(int[5] memory _arr) external pure returns(int[5] memory){... */\n    tag_48:\n        /* \"contracts/solidityLanguage/Asg2.sol\":1056:1069  int[5] memory */\n      tag_107\n      tag_108\n      jump\t// in\n    tag_107:\n        /* \"contracts/solidityLanguage/Asg2.sol\":1134:1140  uint i */\n      0x00\n        /* \"contracts/solidityLanguage/Asg2.sol\":1130:1363  for(uint i =0; i<_arr.length-1; i++){... */\n    tag_110:\n        /* \"contracts/solidityLanguage/Asg2.sol\":1159:1160  1 */\n      0x01\n        /* \"contracts/solidityLanguage/Asg2.sol\":1147:1158  _arr.length */\n      0x05\n        /* \"contracts/solidityLanguage/Asg2.sol\":1147:1160  _arr.length-1 */\n      tag_113\n      swap2\n      swap1\n      tag_69\n      jump\t// in\n    tag_113:\n        /* \"contracts/solidityLanguage/Asg2.sol\":1145:1146  i */\n      dup2\n        /* \"contracts/solidityLanguage/Asg2.sol\":1145:1160  i<_arr.length-1 */\n      lt\n        /* \"contracts/solidityLanguage/Asg2.sol\":1130:1363  for(uint i =0; i<_arr.length-1; i++){... */\n      iszero\n      tag_111\n      jumpi\n        /* \"contracts/solidityLanguage/Asg2.sol\":1184:1190  uint j */\n      0x00\n        /* \"contracts/solidityLanguage/Asg2.sol\":1180:1353  for(uint j =0; j<_arr.length-1; j++){... */\n    tag_114:\n        /* \"contracts/solidityLanguage/Asg2.sol\":1209:1210  1 */\n      0x01\n        /* \"contracts/solidityLanguage/Asg2.sol\":1197:1208  _arr.length */\n      0x05\n        /* \"contracts/solidityLanguage/Asg2.sol\":1197:1210  _arr.length-1 */\n      tag_117\n      swap2\n      swap1\n      tag_69\n      jump\t// in\n    tag_117:\n        /* \"contracts/solidityLanguage/Asg2.sol\":1195:1196  j */\n      dup2\n        /* \"contracts/solidityLanguage/Asg2.sol\":1195:1210  j<_arr.length-1 */\n      lt\n        /* \"contracts/solidityLanguage/Asg2.sol\":1180:1353  for(uint j =0; j<_arr.length-1; j++){... */\n      iszero\n      tag_115\n      jumpi\n        /* \"contracts/solidityLanguage/Asg2.sol\":1246:1250  _arr */\n      dup4\n        /* \"contracts/solidityLanguage/Asg2.sol\":1253:1254  1 */\n      0x01\n        /* \"contracts/solidityLanguage/Asg2.sol\":1251:1252  j */\n      dup3\n        /* \"contracts/solidityLanguage/Asg2.sol\":1251:1254  j+1 */\n      tag_118\n      swap2\n      swap1\n      tag_119\n      jump\t// in\n    tag_118:\n        /* \"contracts/solidityLanguage/Asg2.sol\":1246:1255  _arr[j+1] */\n      0x05\n      dup2\n      lt\n      tag_120\n      jumpi\n      tag_121\n      tag_73\n      jump\t// in\n    tag_121:\n    tag_120:\n      0x20\n      mul\n      add\n      mload\n        /* \"contracts/solidityLanguage/Asg2.sol\":1237:1241  _arr */\n      dup5\n        /* \"contracts/solidityLanguage/Asg2.sol\":1242:1243  j */\n      dup3\n        /* \"contracts/solidityLanguage/Asg2.sol\":1237:1244  _arr[j] */\n      0x05\n      dup2\n      lt\n      tag_122\n      jumpi\n      tag_123\n      tag_73\n      jump\t// in\n    tag_123:\n    tag_122:\n      0x20\n      mul\n      add\n      mload\n        /* \"contracts/solidityLanguage/Asg2.sol\":1237:1255  _arr[j]> _arr[j+1] */\n      sgt\n        /* \"contracts/solidityLanguage/Asg2.sol\":1234:1339  if(_arr[j]> _arr[j+1]){... */\n      iszero\n      tag_124\n      jumpi\n        /* \"contracts/solidityLanguage/Asg2.sol\":1302:1306  _arr */\n      dup4\n        /* \"contracts/solidityLanguage/Asg2.sol\":1309:1310  1 */\n      0x01\n        /* \"contracts/solidityLanguage/Asg2.sol\":1307:1308  j */\n      dup3\n        /* \"contracts/solidityLanguage/Asg2.sol\":1307:1310  j+1 */\n      tag_125\n      swap2\n      swap1\n      tag_119\n      jump\t// in\n    tag_125:\n        /* \"contracts/solidityLanguage/Asg2.sol\":1302:1311  _arr[j+1] */\n      0x05\n      dup2\n      lt\n      tag_126\n      jumpi\n      tag_127\n      tag_73\n      jump\t// in\n    tag_127:\n    tag_126:\n      0x20\n      mul\n      add\n      mload\n        /* \"contracts/solidityLanguage/Asg2.sol\":1312:1316  _arr */\n      dup5\n        /* \"contracts/solidityLanguage/Asg2.sol\":1317:1318  j */\n      dup3\n        /* \"contracts/solidityLanguage/Asg2.sol\":1312:1319  _arr[j] */\n      0x05\n      dup2\n      lt\n      tag_128\n      jumpi\n      tag_129\n      tag_73\n      jump\t// in\n    tag_129:\n    tag_128:\n      0x20\n      mul\n      add\n      mload\n        /* \"contracts/solidityLanguage/Asg2.sol\":1279:1283  _arr */\n      dup6\n        /* \"contracts/solidityLanguage/Asg2.sol\":1284:1285  j */\n      dup4\n        /* \"contracts/solidityLanguage/Asg2.sol\":1279:1286  _arr[j] */\n      0x05\n      dup2\n      lt\n      tag_130\n      jumpi\n      tag_131\n      tag_73\n      jump\t// in\n    tag_131:\n    tag_130:\n      0x20\n      mul\n      add\n        /* \"contracts/solidityLanguage/Asg2.sol\":1288:1292  _arr */\n      dup7\n        /* \"contracts/solidityLanguage/Asg2.sol\":1295:1296  1 */\n      0x01\n        /* \"contracts/solidityLanguage/Asg2.sol\":1293:1294  j */\n      dup6\n        /* \"contracts/solidityLanguage/Asg2.sol\":1293:1296  j+1 */\n      tag_132\n      swap2\n      swap1\n      tag_119\n      jump\t// in\n    tag_132:\n        /* \"contracts/solidityLanguage/Asg2.sol\":1288:1297  _arr[j+1] */\n      0x05\n      dup2\n      lt\n      tag_133\n      jumpi\n      tag_134\n      tag_73\n      jump\t// in\n    tag_134:\n    tag_133:\n      0x20\n      mul\n      add\n        /* \"contracts/solidityLanguage/Asg2.sol\":1278:1320  (_arr[j], _arr[j+1]) = (_arr[j+1],_arr[j]) */\n      dup3\n      dup2\n      mstore\n      pop\n      dup3\n      dup2\n      mstore\n      pop\n      pop\n      pop\n        /* \"contracts/solidityLanguage/Asg2.sol\":1234:1339  if(_arr[j]> _arr[j+1]){... */\n    tag_124:\n        /* \"contracts/solidityLanguage/Asg2.sol\":1212:1215  j++ */\n      dup1\n      dup1\n      tag_135\n      swap1\n      tag_77\n      jump\t// in\n    tag_135:\n      swap2\n      pop\n      pop\n        /* \"contracts/solidityLanguage/Asg2.sol\":1180:1353  for(uint j =0; j<_arr.length-1; j++){... */\n      jump(tag_114)\n    tag_115:\n      pop\n        /* \"contracts/solidityLanguage/Asg2.sol\":1162:1165  i++ */\n      dup1\n      dup1\n      tag_136\n      swap1\n      tag_77\n      jump\t// in\n    tag_136:\n      swap2\n      pop\n      pop\n        /* \"contracts/solidityLanguage/Asg2.sol\":1130:1363  for(uint i =0; i<_arr.length-1; i++){... */\n      jump(tag_110)\n    tag_111:\n      pop\n        /* \"contracts/solidityLanguage/Asg2.sol\":1379:1383  _arr */\n      dup2\n        /* \"contracts/solidityLanguage/Asg2.sol\":1372:1383  return _arr */\n      swap1\n      pop\n        /* \"contracts/solidityLanguage/Asg2.sol\":995:1390  function sortArray(int[5] memory _arr) external pure returns(int[5] memory){... */\n      swap2\n      swap1\n      pop\n      jump\t// out\n        /* \"contracts/solidityLanguage/Asg2.sol\":464:717  function contains(uint _num) external pure returns(bool){... */\n    tag_54:\n        /* \"contracts/solidityLanguage/Asg2.sol\":515:519  bool */\n      0x00\n        /* \"contracts/solidityLanguage/Asg2.sol\":530:549  uint8[5] memory arr */\n      dup1\n        /* \"contracts/solidityLanguage/Asg2.sol\":530:563  uint8[5] memory arr = [1,2,3,4,5] */\n      mload(0x40)\n      dup1\n      0xa0\n      add\n      0x40\n      mstore\n      dup1\n        /* \"contracts/solidityLanguage/Asg2.sol\":553:554  1 */\n      0x01\n        /* \"contracts/solidityLanguage/Asg2.sol\":530:563  uint8[5] memory arr = [1,2,3,4,5] */\n      0xff\n      and\n      dup2\n      mstore\n      0x20\n      add\n        /* \"contracts/solidityLanguage/Asg2.sol\":555:556  2 */\n      0x02\n        /* \"contracts/solidityLanguage/Asg2.sol\":530:563  uint8[5] memory arr = [1,2,3,4,5] */\n      0xff\n      and\n      dup2\n      mstore\n      0x20\n      add\n        /* \"contracts/solidityLanguage/Asg2.sol\":557:558  3 */\n      0x03\n        /* \"contracts/solidityLanguage/Asg2.sol\":530:563  uint8[5] memory arr = [1,2,3,4,5] */\n      0xff\n      and\n      dup2\n      mstore\n      0x20\n      add\n        /* \"contracts/solidityLanguage/Asg2.sol\":559:560  4 */\n      0x04\n        /* \"contracts/solidityLanguage/Asg2.sol\":530:563  uint8[5] memory arr = [1,2,3,4,5] */\n      0xff\n      and\n      dup2\n      mstore\n      0x20\n      add\n        /* \"contracts/solidityLanguage/Asg2.sol\":561:562  5 */\n      0x05\n        /* \"contracts/solidityLanguage/Asg2.sol\":530:563  uint8[5] memory arr = [1,2,3,4,5] */\n      0xff\n      and\n      dup2\n      mstore\n      pop\n      swap1\n      pop\n        /* \"contracts/solidityLanguage/Asg2.sol\":577:583  uint i */\n      0x00\n        /* \"contracts/solidityLanguage/Asg2.sol\":573:689  for(uint i=0; i<arr.length; i++){... */\n    tag_138:\n        /* \"contracts/solidityLanguage/Asg2.sol\":589:599  arr.length */\n      0x05\n        /* \"contracts/solidityLanguage/Asg2.sol\":587:588  i */\n      dup2\n        /* \"contracts/solidityLanguage/Asg2.sol\":587:599  i<arr.length */\n      lt\n        /* \"contracts/solidityLanguage/Asg2.sol\":573:689  for(uint i=0; i<arr.length; i++){... */\n      iszero\n      tag_139\n      jumpi\n        /* \"contracts/solidityLanguage/Asg2.sol\":630:634  _num */\n      dup4\n        /* \"contracts/solidityLanguage/Asg2.sol\":622:625  arr */\n      dup3\n        /* \"contracts/solidityLanguage/Asg2.sol\":626:627  i */\n      dup3\n        /* \"contracts/solidityLanguage/Asg2.sol\":622:628  arr[i] */\n      0x05\n      dup2\n      lt\n      tag_141\n      jumpi\n      tag_142\n      tag_73\n      jump\t// in\n    tag_142:\n    tag_141:\n      0x20\n      mul\n      add\n      mload\n        /* \"contracts/solidityLanguage/Asg2.sol\":622:634  arr[i]==_num */\n      0xff\n      and\n      sub\n        /* \"contracts/solidityLanguage/Asg2.sol\":619:679  if(arr[i]==_num){... */\n      tag_143\n      jumpi\n        /* \"contracts/solidityLanguage/Asg2.sol\":660:664  true */\n      0x01\n        /* \"contracts/solidityLanguage/Asg2.sol\":653:664  return true */\n      swap3\n      pop\n      pop\n      pop\n      jump(tag_137)\n        /* \"contracts/solidityLanguage/Asg2.sol\":619:679  if(arr[i]==_num){... */\n    tag_143:\n        /* \"contracts/solidityLanguage/Asg2.sol\":601:604  i++ */\n      dup1\n      dup1\n      tag_144\n      swap1\n      tag_77\n      jump\t// in\n    tag_144:\n      swap2\n      pop\n      pop\n        /* \"contracts/solidityLanguage/Asg2.sol\":573:689  for(uint i=0; i<arr.length; i++){... */\n      jump(tag_138)\n    tag_139:\n      pop\n        /* \"contracts/solidityLanguage/Asg2.sol\":705:710  false */\n      0x00\n        /* \"contracts/solidityLanguage/Asg2.sol\":698:710  return false */\n      swap2\n      pop\n      pop\n        /* \"contracts/solidityLanguage/Asg2.sol\":464:717  function contains(uint _num) external pure returns(bool){... */\n    tag_137:\n      swap2\n      swap1\n      pop\n      jump\t// out\n        /* \"contracts/solidityLanguage/Asg2.sol\":1885:2076  function sumArr(int[] memory _arr) external pure returns(int){... */\n    tag_58:\n        /* \"contracts/solidityLanguage/Asg2.sol\":1942:1945  int */\n      0x00\n        /* \"contracts/solidityLanguage/Asg2.sol\":1956:1963  int res */\n      dup1\n        /* \"contracts/solidityLanguage/Asg2.sol\":1977:1983  uint i */\n      0x00\n        /* \"contracts/solidityLanguage/Asg2.sol\":1973:2050  for(uint i =0; i<_arr.length;i++){... */\n    tag_146:\n        /* \"contracts/solidityLanguage/Asg2.sol\":1990:1994  _arr */\n      dup4\n        /* \"contracts/solidityLanguage/Asg2.sol\":1990:2001  _arr.length */\n      mload\n        /* \"contracts/solidityLanguage/Asg2.sol\":1988:1989  i */\n      dup2\n        /* \"contracts/solidityLanguage/Asg2.sol\":1988:2001  i<_arr.length */\n      lt\n        /* \"contracts/solidityLanguage/Asg2.sol\":1973:2050  for(uint i =0; i<_arr.length;i++){... */\n      iszero\n      tag_147\n      jumpi\n        /* \"contracts/solidityLanguage/Asg2.sol\":2032:2036  _arr */\n      dup4\n        /* \"contracts/solidityLanguage/Asg2.sol\":2037:2038  i */\n      dup2\n        /* \"contracts/solidityLanguage/Asg2.sol\":2032:2039  _arr[i] */\n      dup2\n      mload\n      dup2\n      lt\n      tag_149\n      jumpi\n      tag_150\n      tag_73\n      jump\t// in\n    tag_150:\n    tag_149:\n      0x20\n      mul\n      0x20\n      add\n      add\n      mload\n        /* \"contracts/solidityLanguage/Asg2.sol\":2026:2029  res */\n      dup3\n        /* \"contracts/solidityLanguage/Asg2.sol\":2026:2039  res + _arr[i] */\n      tag_151\n      swap2\n      swap1\n      tag_152\n      jump\t// in\n    tag_151:\n        /* \"contracts/solidityLanguage/Asg2.sol\":2020:2039  res = res + _arr[i] */\n      swap2\n      pop\n        /* \"contracts/solidityLanguage/Asg2.sol\":2002:2005  i++ */\n      dup1\n      dup1\n      tag_153\n      swap1\n      tag_77\n      jump\t// in\n    tag_153:\n      swap2\n      pop\n      pop\n        /* \"contracts/solidityLanguage/Asg2.sol\":1973:2050  for(uint i =0; i<_arr.length;i++){... */\n      jump(tag_146)\n    tag_147:\n      pop\n        /* \"contracts/solidityLanguage/Asg2.sol\":2066:2069  res */\n      dup1\n        /* \"contracts/solidityLanguage/Asg2.sol\":2059:2069  return res */\n      swap2\n      pop\n      pop\n        /* \"contracts/solidityLanguage/Asg2.sol\":1885:2076  function sumArr(int[] memory _arr) external pure returns(int){... */\n      swap2\n      swap1\n      pop\n      jump\t// out\n    tag_105:\n      mload(0x40)\n      dup1\n      0x40\n      add\n      0x40\n      mstore\n      dup1\n      0x60\n      dup2\n      mstore\n      0x20\n      add\n      0x00\n      dup2\n      mstore\n      pop\n      swap1\n      jump\t// out\n    tag_108:\n      mload(0x40)\n      dup1\n      0xa0\n      add\n      0x40\n      mstore\n      dup1\n      0x05\n      swap1\n      0x20\n      dup3\n      mul\n      dup1\n      calldatasize\n      dup4\n      calldatacopy\n      dup1\n      dup3\n      add\n      swap2\n      pop\n      pop\n      swap1\n      pop\n      pop\n      swap1\n      jump\t// out\n        /* \"#utility.yul\":7:82   */\n    tag_154:\n        /* \"#utility.yul\":40:46   */\n      0x00\n        /* \"#utility.yul\":73:75   */\n      0x40\n        /* \"#utility.yul\":67:76   */\n      mload\n        /* \"#utility.yul\":57:76   */\n      swap1\n      pop\n        /* \"#utility.yul\":7:82   */\n      swap1\n      jump\t// out\n        /* \"#utility.yul\":88:205   */\n    tag_155:\n        /* \"#utility.yul\":197:198   */\n      0x00\n        /* \"#utility.yul\":194:195   */\n      dup1\n        /* \"#utility.yul\":187:199   */\n      revert\n        /* \"#utility.yul\":211:328   */\n    tag_156:\n        /* \"#utility.yul\":320:321   */\n      0x00\n        /* \"#utility.yul\":317:318   */\n      dup1\n        /* \"#utility.yul\":310:322   */\n      revert\n        /* \"#utility.yul\":334:451   */\n    tag_157:\n        /* \"#utility.yul\":443:444   */\n      0x00\n        /* \"#utility.yul\":440:441   */\n      dup1\n        /* \"#utility.yul\":433:445   */\n      revert\n        /* \"#utility.yul\":457:559   */\n    tag_158:\n        /* \"#utility.yul\":498:504   */\n      0x00\n        /* \"#utility.yul\":549:551   */\n      0x1f\n        /* \"#utility.yul\":545:552   */\n      not\n        /* \"#utility.yul\":540:542   */\n      0x1f\n        /* \"#utility.yul\":533:538   */\n      dup4\n        /* \"#utility.yul\":529:543   */\n      add\n        /* \"#utility.yul\":525:553   */\n      and\n        /* \"#utility.yul\":515:553   */\n      swap1\n      pop\n        /* \"#utility.yul\":457:559   */\n      swap2\n      swap1\n      pop\n      jump\t// out\n        /* \"#utility.yul\":565:745   */\n    tag_63:\n        /* \"#utility.yul\":613:690   */\n      0x4e487b7100000000000000000000000000000000000000000000000000000000\n        /* \"#utility.yul\":610:611   */\n      0x00\n        /* \"#utility.yul\":603:691   */\n      mstore\n        /* \"#utility.yul\":710:714   */\n      0x41\n        /* \"#utility.yul\":707:708   */\n      0x04\n        /* \"#utility.yul\":700:715   */\n      mstore\n        /* \"#utility.yul\":734:738   */\n      0x24\n        /* \"#utility.yul\":731:732   */\n      0x00\n        /* \"#utility.yul\":724:739   */\n      revert\n        /* \"#utility.yul\":751:1032   */\n    tag_159:\n        /* \"#utility.yul\":834:861   */\n      tag_212\n        /* \"#utility.yul\":856:860   */\n      dup3\n        /* \"#utility.yul\":834:861   */\n      tag_158\n      jump\t// in\n    tag_212:\n        /* \"#utility.yul\":826:832   */\n      dup2\n        /* \"#utility.yul\":822:862   */\n      add\n        /* \"#utility.yul\":964:970   */\n      dup2\n        /* \"#utility.yul\":952:962   */\n      dup2\n        /* \"#utility.yul\":949:971   */\n      lt\n        /* \"#utility.yul\":928:946   */\n      0xffffffffffffffff\n        /* \"#utility.yul\":916:926   */\n      dup3\n        /* \"#utility.yul\":913:947   */\n      gt\n        /* \"#utility.yul\":910:972   */\n      or\n        /* \"#utility.yul\":907:995   */\n      iszero\n      tag_213\n      jumpi\n        /* \"#utility.yul\":975:993   */\n      tag_214\n      tag_63\n      jump\t// in\n    tag_214:\n        /* \"#utility.yul\":907:995   */\n    tag_213:\n        /* \"#utility.yul\":1015:1025   */\n      dup1\n        /* \"#utility.yul\":1011:1013   */\n      0x40\n        /* \"#utility.yul\":1004:1026   */\n      mstore\n        /* \"#utility.yul\":794:1032   */\n      pop\n        /* \"#utility.yul\":751:1032   */\n      pop\n      pop\n      jump\t// out\n        /* \"#utility.yul\":1038:1167   */\n    tag_160:\n        /* \"#utility.yul\":1072:1078   */\n      0x00\n        /* \"#utility.yul\":1099:1119   */\n      tag_216\n      tag_154\n      jump\t// in\n    tag_216:\n        /* \"#utility.yul\":1089:1119   */\n      swap1\n      pop\n        /* \"#utility.yul\":1128:1161   */\n      tag_217\n        /* \"#utility.yul\":1156:1160   */\n      dup3\n        /* \"#utility.yul\":1148:1154   */\n      dup3\n        /* \"#utility.yul\":1128:1161   */\n      tag_159\n      jump\t// in\n    tag_217:\n        /* \"#utility.yul\":1038:1167   */\n      swap2\n      swap1\n      pop\n      jump\t// out\n        /* \"#utility.yul\":1173:1483   */\n    tag_161:\n        /* \"#utility.yul\":1249:1253   */\n      0x00\n        /* \"#utility.yul\":1339:1357   */\n      0xffffffffffffffff\n        /* \"#utility.yul\":1331:1337   */\n      dup3\n        /* \"#utility.yul\":1328:1358   */\n      gt\n        /* \"#utility.yul\":1325:1381   */\n      iszero\n      tag_219\n      jumpi\n        /* \"#utility.yul\":1361:1379   */\n      tag_220\n      tag_63\n      jump\t// in\n    tag_220:\n        /* \"#utility.yul\":1325:1381   */\n    tag_219:\n        /* \"#utility.yul\":1411:1415   */\n      0x20\n        /* \"#utility.yul\":1403:1409   */\n      dup3\n        /* \"#utility.yul\":1399:1416   */\n      mul\n        /* \"#utility.yul\":1391:1416   */\n      swap1\n      pop\n        /* \"#utility.yul\":1471:1475   */\n      0x20\n        /* \"#utility.yul\":1465:1469   */\n      dup2\n        /* \"#utility.yul\":1461:1476   */\n      add\n        /* \"#utility.yul\":1453:1476   */\n      swap1\n      pop\n        /* \"#utility.yul\":1173:1483   */\n      swap2\n      swap1\n      pop\n      jump\t// out\n        /* \"#utility.yul\":1489:1606   */\n    tag_162:\n        /* \"#utility.yul\":1598:1599   */\n      0x00\n        /* \"#utility.yul\":1595:1596   */\n      dup1\n        /* \"#utility.yul\":1588:1600   */\n      revert\n        /* \"#utility.yul\":1612:1688   */\n    tag_163:\n        /* \"#utility.yul\":1648:1655   */\n      0x00\n        /* \"#utility.yul\":1677:1682   */\n      dup2\n        /* \"#utility.yul\":1666:1682   */\n      swap1\n      pop\n        /* \"#utility.yul\":1612:1688   */\n      swap2\n      swap1\n      pop\n      jump\t// out\n        /* \"#utility.yul\":1694:1814   */\n    tag_164:\n        /* \"#utility.yul\":1766:1789   */\n      tag_224\n        /* \"#utility.yul\":1783:1788   */\n      dup2\n        /* \"#utility.yul\":1766:1789   */\n      tag_163\n      jump\t// in\n    tag_224:\n        /* \"#utility.yul\":1759:1764   */\n      dup2\n        /* \"#utility.yul\":1756:1790   */\n      eq\n        /* \"#utility.yul\":1746:1808   */\n      tag_225\n      jumpi\n        /* \"#utility.yul\":1804:1805   */\n      0x00\n        /* \"#utility.yul\":1801:1802   */\n      dup1\n        /* \"#utility.yul\":1794:1806   */\n      revert\n        /* \"#utility.yul\":1746:1808   */\n    tag_225:\n        /* \"#utility.yul\":1694:1814   */\n      pop\n      jump\t// out\n        /* \"#utility.yul\":1820:1957   */\n    tag_165:\n        /* \"#utility.yul\":1865:1870   */\n      0x00\n        /* \"#utility.yul\":1903:1909   */\n      dup2\n        /* \"#utility.yul\":1890:1910   */\n      calldataload\n        /* \"#utility.yul\":1881:1910   */\n      swap1\n      pop\n        /* \"#utility.yul\":1919:1951   */\n      tag_227\n        /* \"#utility.yul\":1945:1950   */\n      dup2\n        /* \"#utility.yul\":1919:1951   */\n      tag_164\n      jump\t// in\n    tag_227:\n        /* \"#utility.yul\":1820:1957   */\n      swap3\n      swap2\n      pop\n      pop\n      jump\t// out\n        /* \"#utility.yul\":1979:2686   */\n    tag_166:\n        /* \"#utility.yul\":2074:2079   */\n      0x00\n        /* \"#utility.yul\":2099:2179   */\n      tag_229\n        /* \"#utility.yul\":2115:2178   */\n      tag_230\n        /* \"#utility.yul\":2171:2177   */\n      dup5\n        /* \"#utility.yul\":2115:2178   */\n      tag_161\n      jump\t// in\n    tag_230:\n        /* \"#utility.yul\":2099:2179   */\n      tag_160\n      jump\t// in\n    tag_229:\n        /* \"#utility.yul\":2090:2179   */\n      swap1\n      pop\n        /* \"#utility.yul\":2199:2204   */\n      dup1\n        /* \"#utility.yul\":2228:2234   */\n      dup4\n        /* \"#utility.yul\":2221:2226   */\n      dup3\n        /* \"#utility.yul\":2214:2235   */\n      mstore\n        /* \"#utility.yul\":2262:2266   */\n      0x20\n        /* \"#utility.yul\":2255:2260   */\n      dup3\n        /* \"#utility.yul\":2251:2267   */\n      add\n        /* \"#utility.yul\":2244:2267   */\n      swap1\n      pop\n        /* \"#utility.yul\":2315:2319   */\n      0x20\n        /* \"#utility.yul\":2307:2313   */\n      dup5\n        /* \"#utility.yul\":2303:2320   */\n      mul\n        /* \"#utility.yul\":2295:2301   */\n      dup4\n        /* \"#utility.yul\":2291:2321   */\n      add\n        /* \"#utility.yul\":2344:2347   */\n      dup6\n        /* \"#utility.yul\":2336:2342   */\n      dup2\n        /* \"#utility.yul\":2333:2348   */\n      gt\n        /* \"#utility.yul\":2330:2452   */\n      iszero\n      tag_231\n      jumpi\n        /* \"#utility.yul\":2363:2442   */\n      tag_232\n      tag_162\n      jump\t// in\n    tag_232:\n        /* \"#utility.yul\":2330:2452   */\n    tag_231:\n        /* \"#utility.yul\":2478:2484   */\n      dup4\n        /* \"#utility.yul\":2461:2680   */\n    tag_233:\n        /* \"#utility.yul\":2495:2501   */\n      dup2\n        /* \"#utility.yul\":2490:2493   */\n      dup2\n        /* \"#utility.yul\":2487:2502   */\n      lt\n        /* \"#utility.yul\":2461:2680   */\n      iszero\n      tag_235\n      jumpi\n        /* \"#utility.yul\":2570:2573   */\n      dup1\n        /* \"#utility.yul\":2599:2635   */\n      tag_236\n        /* \"#utility.yul\":2631:2634   */\n      dup9\n        /* \"#utility.yul\":2619:2629   */\n      dup3\n        /* \"#utility.yul\":2599:2635   */\n      tag_165\n      jump\t// in\n    tag_236:\n        /* \"#utility.yul\":2594:2597   */\n      dup5\n        /* \"#utility.yul\":2587:2636   */\n      mstore\n        /* \"#utility.yul\":2665:2669   */\n      0x20\n        /* \"#utility.yul\":2660:2663   */\n      dup5\n        /* \"#utility.yul\":2656:2670   */\n      add\n        /* \"#utility.yul\":2649:2670   */\n      swap4\n      pop\n        /* \"#utility.yul\":2537:2680   */\n      pop\n        /* \"#utility.yul\":2521:2525   */\n      0x20\n        /* \"#utility.yul\":2516:2519   */\n      dup2\n        /* \"#utility.yul\":2512:2526   */\n      add\n        /* \"#utility.yul\":2505:2526   */\n      swap1\n      pop\n        /* \"#utility.yul\":2461:2680   */\n      jump(tag_233)\n    tag_235:\n        /* \"#utility.yul\":2465:2486   */\n      pop\n        /* \"#utility.yul\":2080:2686   */\n      pop\n      pop\n        /* \"#utility.yul\":1979:2686   */\n      swap4\n      swap3\n      pop\n      pop\n      pop\n      jump\t// out\n        /* \"#utility.yul\":2708:3076   */\n    tag_167:\n        /* \"#utility.yul\":2778:2783   */\n      0x00\n        /* \"#utility.yul\":2827:2830   */\n      dup3\n        /* \"#utility.yul\":2820:2824   */\n      0x1f\n        /* \"#utility.yul\":2812:2818   */\n      dup4\n        /* \"#utility.yul\":2808:2825   */\n      add\n        /* \"#utility.yul\":2804:2831   */\n      slt\n        /* \"#utility.yul\":2794:2916   */\n      tag_238\n      jumpi\n        /* \"#utility.yul\":2835:2914   */\n      tag_239\n      tag_157\n      jump\t// in\n    tag_239:\n        /* \"#utility.yul\":2794:2916   */\n    tag_238:\n        /* \"#utility.yul\":2952:2958   */\n      dup2\n        /* \"#utility.yul\":2939:2959   */\n      calldataload\n        /* \"#utility.yul\":2977:3070   */\n      tag_240\n        /* \"#utility.yul\":3066:3069   */\n      dup5\n        /* \"#utility.yul\":3058:3064   */\n      dup3\n        /* \"#utility.yul\":3051:3055   */\n      0x20\n        /* \"#utility.yul\":3043:3049   */\n      dup7\n        /* \"#utility.yul\":3039:3056   */\n      add\n        /* \"#utility.yul\":2977:3070   */\n      tag_166\n      jump\t// in\n    tag_240:\n        /* \"#utility.yul\":2968:3070   */\n      swap2\n      pop\n        /* \"#utility.yul\":2784:3076   */\n      pop\n        /* \"#utility.yul\":2708:3076   */\n      swap3\n      swap2\n      pop\n      pop\n      jump\t// out\n        /* \"#utility.yul\":3082:3619   */\n    tag_15:\n        /* \"#utility.yul\":3165:3171   */\n      0x00\n        /* \"#utility.yul\":3214:3216   */\n      0x20\n        /* \"#utility.yul\":3202:3211   */\n      dup3\n        /* \"#utility.yul\":3193:3200   */\n      dup5\n        /* \"#utility.yul\":3189:3212   */\n      sub\n        /* \"#utility.yul\":3185:3217   */\n      slt\n        /* \"#utility.yul\":3182:3301   */\n      iszero\n      tag_242\n      jumpi\n        /* \"#utility.yul\":3220:3299   */\n      tag_243\n      tag_155\n      jump\t// in\n    tag_243:\n        /* \"#utility.yul\":3182:3301   */\n    tag_242:\n        /* \"#utility.yul\":3368:3369   */\n      0x00\n        /* \"#utility.yul\":3357:3366   */\n      dup3\n        /* \"#utility.yul\":3353:3370   */\n      add\n        /* \"#utility.yul\":3340:3371   */\n      calldataload\n        /* \"#utility.yul\":3398:3416   */\n      0xffffffffffffffff\n        /* \"#utility.yul\":3390:3396   */\n      dup2\n        /* \"#utility.yul\":3387:3417   */\n      gt\n        /* \"#utility.yul\":3384:3501   */\n      iszero\n      tag_244\n      jumpi\n        /* \"#utility.yul\":3420:3499   */\n      tag_245\n      tag_156\n      jump\t// in\n    tag_245:\n        /* \"#utility.yul\":3384:3501   */\n    tag_244:\n        /* \"#utility.yul\":3525:3602   */\n      tag_246\n        /* \"#utility.yul\":3594:3601   */\n      dup5\n        /* \"#utility.yul\":3585:3591   */\n      dup3\n        /* \"#utility.yul\":3574:3583   */\n      dup6\n        /* \"#utility.yul\":3570:3592   */\n      add\n        /* \"#utility.yul\":3525:3602   */\n      tag_167\n      jump\t// in\n    tag_246:\n        /* \"#utility.yul\":3515:3602   */\n      swap2\n      pop\n        /* \"#utility.yul\":3311:3612   */\n      pop\n        /* \"#utility.yul\":3082:3619   */\n      swap3\n      swap2\n      pop\n      pop\n      jump\t// out\n        /* \"#utility.yul\":3625:3738   */\n    tag_168:\n        /* \"#utility.yul\":3691:3697   */\n      0x00\n        /* \"#utility.yul\":3725:3730   */\n      dup2\n        /* \"#utility.yul\":3719:3731   */\n      mload\n        /* \"#utility.yul\":3709:3731   */\n      swap1\n      pop\n        /* \"#utility.yul\":3625:3738   */\n      swap2\n      swap1\n      pop\n      jump\t// out\n        /* \"#utility.yul\":3744:3927   */\n    tag_169:\n        /* \"#utility.yul\":3842:3853   */\n      0x00\n        /* \"#utility.yul\":3876:3882   */\n      dup3\n        /* \"#utility.yul\":3871:3874   */\n      dup3\n        /* \"#utility.yul\":3864:3883   */\n      mstore\n        /* \"#utility.yul\":3916:3920   */\n      0x20\n        /* \"#utility.yul\":3911:3914   */\n      dup3\n        /* \"#utility.yul\":3907:3921   */\n      add\n        /* \"#utility.yul\":3892:3921   */\n      swap1\n      pop\n        /* \"#utility.yul\":3744:3927   */\n      swap3\n      swap2\n      pop\n      pop\n      jump\t// out\n        /* \"#utility.yul\":3933:4064   */\n    tag_170:\n        /* \"#utility.yul\":3999:4003   */\n      0x00\n        /* \"#utility.yul\":4022:4025   */\n      dup2\n        /* \"#utility.yul\":4014:4025   */\n      swap1\n      pop\n        /* \"#utility.yul\":4052:4056   */\n      0x20\n        /* \"#utility.yul\":4047:4050   */\n      dup3\n        /* \"#utility.yul\":4043:4057   */\n      add\n        /* \"#utility.yul\":4035:4057   */\n      swap1\n      pop\n        /* \"#utility.yul\":3933:4064   */\n      swap2\n      swap1\n      pop\n      jump\t// out\n        /* \"#utility.yul\":4070:4175   */\n    tag_171:\n        /* \"#utility.yul\":4145:4168   */\n      tag_251\n        /* \"#utility.yul\":4162:4167   */\n      dup2\n        /* \"#utility.yul\":4145:4168   */\n      tag_163\n      jump\t// in\n    tag_251:\n        /* \"#utility.yul\":4140:4143   */\n      dup3\n        /* \"#utility.yul\":4133:4169   */\n      mstore\n        /* \"#utility.yul\":4070:4175   */\n      pop\n      pop\n      jump\t// out\n        /* \"#utility.yul\":4181:4356   */\n    tag_172:\n        /* \"#utility.yul\":4248:4258   */\n      0x00\n        /* \"#utility.yul\":4269:4313   */\n      tag_253\n        /* \"#utility.yul\":4309:4312   */\n      dup4\n        /* \"#utility.yul\":4301:4307   */\n      dup4\n        /* \"#utility.yul\":4269:4313   */\n      tag_171\n      jump\t// in\n    tag_253:\n        /* \"#utility.yul\":4345:4349   */\n      0x20\n        /* \"#utility.yul\":4340:4343   */\n      dup4\n        /* \"#utility.yul\":4336:4350   */\n      add\n        /* \"#utility.yul\":4322:4350   */\n      swap1\n      pop\n        /* \"#utility.yul\":4181:4356   */\n      swap3\n      swap2\n      pop\n      pop\n      jump\t// out\n        /* \"#utility.yul\":4362:4474   */\n    tag_173:\n        /* \"#utility.yul\":4431:4435   */\n      0x00\n        /* \"#utility.yul\":4463:4467   */\n      0x20\n        /* \"#utility.yul\":4458:4461   */\n      dup3\n        /* \"#utility.yul\":4454:4468   */\n      add\n        /* \"#utility.yul\":4446:4468   */\n      swap1\n      pop\n        /* \"#utility.yul\":4362:4474   */\n      swap2\n      swap1\n      pop\n      jump\t// out\n        /* \"#utility.yul\":4508:5232   */\n    tag_174:\n        /* \"#utility.yul\":4625:4628   */\n      0x00\n        /* \"#utility.yul\":4654:4707   */\n      tag_256\n        /* \"#utility.yul\":4701:4706   */\n      dup3\n        /* \"#utility.yul\":4654:4707   */\n      tag_168\n      jump\t// in\n    tag_256:\n        /* \"#utility.yul\":4723:4808   */\n      tag_257\n        /* \"#utility.yul\":4801:4807   */\n      dup2\n        /* \"#utility.yul\":4796:4799   */\n      dup6\n        /* \"#utility.yul\":4723:4808   */\n      tag_169\n      jump\t// in\n    tag_257:\n        /* \"#utility.yul\":4716:4808   */\n      swap4\n      pop\n        /* \"#utility.yul\":4832:4887   */\n      tag_258\n        /* \"#utility.yul\":4881:4886   */\n      dup4\n        /* \"#utility.yul\":4832:4887   */\n      tag_170\n      jump\t// in\n    tag_258:\n        /* \"#utility.yul\":4910:4917   */\n      dup1\n        /* \"#utility.yul\":4941:4942   */\n      0x00\n        /* \"#utility.yul\":4926:5207   */\n    tag_259:\n        /* \"#utility.yul\":4951:4957   */\n      dup4\n        /* \"#utility.yul\":4948:4949   */\n      dup2\n        /* \"#utility.yul\":4945:4958   */\n      lt\n        /* \"#utility.yul\":4926:5207   */\n      iszero\n      tag_261\n      jumpi\n        /* \"#utility.yul\":5027:5033   */\n      dup2\n        /* \"#utility.yul\":5021:5034   */\n      mload\n        /* \"#utility.yul\":5054:5115   */\n      tag_262\n        /* \"#utility.yul\":5111:5114   */\n      dup9\n        /* \"#utility.yul\":5096:5109   */\n      dup3\n        /* \"#utility.yul\":5054:5115   */\n      tag_172\n      jump\t// in\n    tag_262:\n        /* \"#utility.yul\":5047:5115   */\n      swap8\n      pop\n        /* \"#utility.yul\":5138:5197   */\n      tag_263\n        /* \"#utility.yul\":5190:5196   */\n      dup4\n        /* \"#utility.yul\":5138:5197   */\n      tag_173\n      jump\t// in\n    tag_263:\n        /* \"#utility.yul\":5128:5197   */\n      swap3\n      pop\n        /* \"#utility.yul\":4986:5207   */\n      pop\n        /* \"#utility.yul\":4973:4974   */\n      0x01\n        /* \"#utility.yul\":4970:4971   */\n      dup2\n        /* \"#utility.yul\":4966:4975   */\n      add\n        /* \"#utility.yul\":4961:4975   */\n      swap1\n      pop\n        /* \"#utility.yul\":4926:5207   */\n      jump(tag_259)\n    tag_261:\n        /* \"#utility.yul\":4930:4944   */\n      pop\n        /* \"#utility.yul\":5223:5226   */\n      dup6\n        /* \"#utility.yul\":5216:5226   */\n      swap4\n      pop\n        /* \"#utility.yul\":4630:5232   */\n      pop\n      pop\n      pop\n        /* \"#utility.yul\":4508:5232   */\n      swap3\n      swap2\n      pop\n      pop\n      jump\t// out\n        /* \"#utility.yul\":5238:5607   */\n    tag_18:\n        /* \"#utility.yul\":5379:5383   */\n      0x00\n        /* \"#utility.yul\":5417:5419   */\n      0x20\n        /* \"#utility.yul\":5406:5415   */\n      dup3\n        /* \"#utility.yul\":5402:5420   */\n      add\n        /* \"#utility.yul\":5394:5420   */\n      swap1\n      pop\n        /* \"#utility.yul\":5466:5475   */\n      dup2\n        /* \"#utility.yul\":5460:5464   */\n      dup2\n        /* \"#utility.yul\":5456:5476   */\n      sub\n        /* \"#utility.yul\":5452:5453   */\n      0x00\n        /* \"#utility.yul\":5441:5450   */\n      dup4\n        /* \"#utility.yul\":5437:5454   */\n      add\n        /* \"#utility.yul\":5430:5477   */\n      mstore\n        /* \"#utility.yul\":5494:5600   */\n      tag_265\n        /* \"#utility.yul\":5595:5599   */\n      dup2\n        /* \"#utility.yul\":5586:5592   */\n      dup5\n        /* \"#utility.yul\":5494:5600   */\n      tag_174\n      jump\t// in\n    tag_265:\n        /* \"#utility.yul\":5486:5600   */\n      swap1\n      pop\n        /* \"#utility.yul\":5238:5607   */\n      swap3\n      swap2\n      pop\n      pop\n      jump\t// out\n        /* \"#utility.yul\":5613:5730   */\n    tag_175:\n        /* \"#utility.yul\":5722:5723   */\n      0x00\n        /* \"#utility.yul\":5719:5720   */\n      dup1\n        /* \"#utility.yul\":5712:5724   */\n      revert\n        /* \"#utility.yul\":5750:6303   */\n    tag_176:\n        /* \"#utility.yul\":5808:5816   */\n      0x00\n        /* \"#utility.yul\":5818:5824   */\n      dup1\n        /* \"#utility.yul\":5868:5871   */\n      dup4\n        /* \"#utility.yul\":5861:5865   */\n      0x1f\n        /* \"#utility.yul\":5853:5859   */\n      dup5\n        /* \"#utility.yul\":5849:5866   */\n      add\n        /* \"#utility.yul\":5845:5872   */\n      slt\n        /* \"#utility.yul\":5835:5957   */\n      tag_268\n      jumpi\n        /* \"#utility.yul\":5876:5955   */\n      tag_269\n      tag_157\n      jump\t// in\n    tag_269:\n        /* \"#utility.yul\":5835:5957   */\n    tag_268:\n        /* \"#utility.yul\":5989:5995   */\n      dup3\n        /* \"#utility.yul\":5976:5996   */\n      calldataload\n        /* \"#utility.yul\":5966:5996   */\n      swap1\n      pop\n        /* \"#utility.yul\":6019:6037   */\n      0xffffffffffffffff\n        /* \"#utility.yul\":6011:6017   */\n      dup2\n        /* \"#utility.yul\":6008:6038   */\n      gt\n        /* \"#utility.yul\":6005:6122   */\n      iszero\n      tag_270\n      jumpi\n        /* \"#utility.yul\":6041:6120   */\n      tag_271\n      tag_175\n      jump\t// in\n    tag_271:\n        /* \"#utility.yul\":6005:6122   */\n    tag_270:\n        /* \"#utility.yul\":6155:6159   */\n      0x20\n        /* \"#utility.yul\":6147:6153   */\n      dup4\n        /* \"#utility.yul\":6143:6160   */\n      add\n        /* \"#utility.yul\":6131:6160   */\n      swap2\n      pop\n        /* \"#utility.yul\":6209:6212   */\n      dup4\n        /* \"#utility.yul\":6201:6205   */\n      0x01\n        /* \"#utility.yul\":6193:6199   */\n      dup3\n        /* \"#utility.yul\":6189:6206   */\n      mul\n        /* \"#utility.yul\":6179:6187   */\n      dup4\n        /* \"#utility.yul\":6175:6207   */\n      add\n        /* \"#utility.yul\":6172:6213   */\n      gt\n        /* \"#utility.yul\":6169:6297   */\n      iszero\n      tag_272\n      jumpi\n        /* \"#utility.yul\":6216:6295   */\n      tag_273\n      tag_162\n      jump\t// in\n    tag_273:\n        /* \"#utility.yul\":6169:6297   */\n    tag_272:\n        /* \"#utility.yul\":5750:6303   */\n      swap3\n      pop\n      swap3\n      swap1\n      pop\n      jump\t// out\n        /* \"#utility.yul\":6309:7183   */\n    tag_21:\n        /* \"#utility.yul\":6401:6407   */\n      0x00\n        /* \"#utility.yul\":6409:6415   */\n      dup1\n        /* \"#utility.yul\":6417:6423   */\n      0x00\n        /* \"#utility.yul\":6425:6431   */\n      dup1\n        /* \"#utility.yul\":6474:6476   */\n      0x40\n        /* \"#utility.yul\":6462:6471   */\n      dup6\n        /* \"#utility.yul\":6453:6460   */\n      dup8\n        /* \"#utility.yul\":6449:6472   */\n      sub\n        /* \"#utility.yul\":6445:6477   */\n      slt\n        /* \"#utility.yul\":6442:6561   */\n      iszero\n      tag_275\n      jumpi\n        /* \"#utility.yul\":6480:6559   */\n      tag_276\n      tag_155\n      jump\t// in\n    tag_276:\n        /* \"#utility.yul\":6442:6561   */\n    tag_275:\n        /* \"#utility.yul\":6628:6629   */\n      0x00\n        /* \"#utility.yul\":6617:6626   */\n      dup6\n        /* \"#utility.yul\":6613:6630   */\n      add\n        /* \"#utility.yul\":6600:6631   */\n      calldataload\n        /* \"#utility.yul\":6658:6676   */\n      0xffffffffffffffff\n        /* \"#utility.yul\":6650:6656   */\n      dup2\n        /* \"#utility.yul\":6647:6677   */\n      gt\n        /* \"#utility.yul\":6644:6761   */\n      iszero\n      tag_277\n      jumpi\n        /* \"#utility.yul\":6680:6759   */\n      tag_278\n      tag_156\n      jump\t// in\n    tag_278:\n        /* \"#utility.yul\":6644:6761   */\n    tag_277:\n        /* \"#utility.yul\":6793:6858   */\n      tag_279\n        /* \"#utility.yul\":6850:6857   */\n      dup8\n        /* \"#utility.yul\":6841:6847   */\n      dup3\n        /* \"#utility.yul\":6830:6839   */\n      dup9\n        /* \"#utility.yul\":6826:6848   */\n      add\n        /* \"#utility.yul\":6793:6858   */\n      tag_176\n      jump\t// in\n    tag_279:\n        /* \"#utility.yul\":6775:6858   */\n      swap5\n      pop\n      swap5\n      pop\n        /* \"#utility.yul\":6571:6868   */\n      pop\n        /* \"#utility.yul\":6935:6937   */\n      0x20\n        /* \"#utility.yul\":6924:6933   */\n      dup6\n        /* \"#utility.yul\":6920:6938   */\n      add\n        /* \"#utility.yul\":6907:6939   */\n      calldataload\n        /* \"#utility.yul\":6966:6984   */\n      0xffffffffffffffff\n        /* \"#utility.yul\":6958:6964   */\n      dup2\n        /* \"#utility.yul\":6955:6985   */\n      gt\n        /* \"#utility.yul\":6952:7069   */\n      iszero\n      tag_280\n      jumpi\n        /* \"#utility.yul\":6988:7067   */\n      tag_281\n      tag_156\n      jump\t// in\n    tag_281:\n        /* \"#utility.yul\":6952:7069   */\n    tag_280:\n        /* \"#utility.yul\":7101:7166   */\n      tag_282\n        /* \"#utility.yul\":7158:7165   */\n      dup8\n        /* \"#utility.yul\":7149:7155   */\n      dup3\n        /* \"#utility.yul\":7138:7147   */\n      dup9\n        /* \"#utility.yul\":7134:7156   */\n      add\n        /* \"#utility.yul\":7101:7166   */\n      tag_176\n      jump\t// in\n    tag_282:\n        /* \"#utility.yul\":7083:7166   */\n      swap3\n      pop\n      swap3\n      pop\n        /* \"#utility.yul\":6878:7176   */\n      pop\n        /* \"#utility.yul\":6309:7183   */\n      swap3\n      swap6\n      swap2\n      swap5\n      pop\n      swap3\n      pop\n      jump\t// out\n        /* \"#utility.yul\":7189:7288   */\n    tag_177:\n        /* \"#utility.yul\":7241:7247   */\n      0x00\n        /* \"#utility.yul\":7275:7280   */\n      dup2\n        /* \"#utility.yul\":7269:7281   */\n      mload\n        /* \"#utility.yul\":7259:7281   */\n      swap1\n      pop\n        /* \"#utility.yul\":7189:7288   */\n      swap2\n      swap1\n      pop\n      jump\t// out\n        /* \"#utility.yul\":7294:7463   */\n    tag_178:\n        /* \"#utility.yul\":7378:7389   */\n      0x00\n        /* \"#utility.yul\":7412:7418   */\n      dup3\n        /* \"#utility.yul\":7407:7410   */\n      dup3\n        /* \"#utility.yul\":7400:7419   */\n      mstore\n        /* \"#utility.yul\":7452:7456   */\n      0x20\n        /* \"#utility.yul\":7447:7450   */\n      dup3\n        /* \"#utility.yul\":7443:7457   */\n      add\n        /* \"#utility.yul\":7428:7457   */\n      swap1\n      pop\n        /* \"#utility.yul\":7294:7463   */\n      swap3\n      swap2\n      pop\n      pop\n      jump\t// out\n        /* \"#utility.yul\":7469:7715   */\n    tag_179:\n        /* \"#utility.yul\":7550:7551   */\n      0x00\n        /* \"#utility.yul\":7560:7673   */\n    tag_286:\n        /* \"#utility.yul\":7574:7580   */\n      dup4\n        /* \"#utility.yul\":7571:7572   */\n      dup2\n        /* \"#utility.yul\":7568:7581   */\n      lt\n        /* \"#utility.yul\":7560:7673   */\n      iszero\n      tag_288\n      jumpi\n        /* \"#utility.yul\":7659:7660   */\n      dup1\n        /* \"#utility.yul\":7654:7657   */\n      dup3\n        /* \"#utility.yul\":7650:7661   */\n      add\n        /* \"#utility.yul\":7644:7662   */\n      mload\n        /* \"#utility.yul\":7640:7641   */\n      dup2\n        /* \"#utility.yul\":7635:7638   */\n      dup5\n        /* \"#utility.yul\":7631:7642   */\n      add\n        /* \"#utility.yul\":7624:7663   */\n      mstore\n        /* \"#utility.yul\":7596:7598   */\n      0x20\n        /* \"#utility.yul\":7593:7594   */\n      dup2\n        /* \"#utility.yul\":7589:7599   */\n      add\n        /* \"#utility.yul\":7584:7599   */\n      swap1\n      pop\n        /* \"#utility.yul\":7560:7673   */\n      jump(tag_286)\n    tag_288:\n        /* \"#utility.yul\":7707:7708   */\n      0x00\n        /* \"#utility.yul\":7698:7704   */\n      dup5\n        /* \"#utility.yul\":7693:7696   */\n      dup5\n        /* \"#utility.yul\":7689:7705   */\n      add\n        /* \"#utility.yul\":7682:7709   */\n      mstore\n        /* \"#utility.yul\":7531:7715   */\n      pop\n        /* \"#utility.yul\":7469:7715   */\n      pop\n      pop\n      pop\n      jump\t// out\n        /* \"#utility.yul\":7721:8098   */\n    tag_180:\n        /* \"#utility.yul\":7809:7812   */\n      0x00\n        /* \"#utility.yul\":7837:7876   */\n      tag_290\n        /* \"#utility.yul\":7870:7875   */\n      dup3\n        /* \"#utility.yul\":7837:7876   */\n      tag_177\n      jump\t// in\n    tag_290:\n        /* \"#utility.yul\":7892:7963   */\n      tag_291\n        /* \"#utility.yul\":7956:7962   */\n      dup2\n        /* \"#utility.yul\":7951:7954   */\n      dup6\n        /* \"#utility.yul\":7892:7963   */\n      tag_178\n      jump\t// in\n    tag_291:\n        /* \"#utility.yul\":7885:7963   */\n      swap4\n      pop\n        /* \"#utility.yul\":7972:8037   */\n      tag_292\n        /* \"#utility.yul\":8030:8036   */\n      dup2\n        /* \"#utility.yul\":8025:8028   */\n      dup6\n        /* \"#utility.yul\":8018:8022   */\n      0x20\n        /* \"#utility.yul\":8011:8016   */\n      dup7\n        /* \"#utility.yul\":8007:8023   */\n      add\n        /* \"#utility.yul\":7972:8037   */\n      tag_179\n      jump\t// in\n    tag_292:\n        /* \"#utility.yul\":8062:8091   */\n      tag_293\n        /* \"#utility.yul\":8084:8090   */\n      dup2\n        /* \"#utility.yul\":8062:8091   */\n      tag_158\n      jump\t// in\n    tag_293:\n        /* \"#utility.yul\":8057:8060   */\n      dup5\n        /* \"#utility.yul\":8053:8092   */\n      add\n        /* \"#utility.yul\":8046:8092   */\n      swap2\n      pop\n        /* \"#utility.yul\":7813:8098   */\n      pop\n        /* \"#utility.yul\":7721:8098   */\n      swap3\n      swap2\n      pop\n      pop\n      jump\t// out\n        /* \"#utility.yul\":8104:8417   */\n    tag_24:\n        /* \"#utility.yul\":8217:8221   */\n      0x00\n        /* \"#utility.yul\":8255:8257   */\n      0x20\n        /* \"#utility.yul\":8244:8253   */\n      dup3\n        /* \"#utility.yul\":8240:8258   */\n      add\n        /* \"#utility.yul\":8232:8258   */\n      swap1\n      pop\n        /* \"#utility.yul\":8304:8313   */\n      dup2\n        /* \"#utility.yul\":8298:8302   */\n      dup2\n        /* \"#utility.yul\":8294:8314   */\n      sub\n        /* \"#utility.yul\":8290:8291   */\n      0x00\n        /* \"#utility.yul\":8279:8288   */\n      dup4\n        /* \"#utility.yul\":8275:8292   */\n      add\n        /* \"#utility.yul\":8268:8315   */\n      mstore\n        /* \"#utility.yul\":8332:8410   */\n      tag_295\n        /* \"#utility.yul\":8405:8409   */\n      dup2\n        /* \"#utility.yul\":8396:8402   */\n      dup5\n        /* \"#utility.yul\":8332:8410   */\n      tag_180\n      jump\t// in\n    tag_295:\n        /* \"#utility.yul\":8324:8410   */\n      swap1\n      pop\n        /* \"#utility.yul\":8104:8417   */\n      swap3\n      swap2\n      pop\n      pop\n      jump\t// out\n        /* \"#utility.yul\":8423:8500   */\n    tag_181:\n        /* \"#utility.yul\":8460:8467   */\n      0x00\n        /* \"#utility.yul\":8489:8494   */\n      dup2\n        /* \"#utility.yul\":8478:8494   */\n      swap1\n      pop\n        /* \"#utility.yul\":8423:8500   */\n      swap2\n      swap1\n      pop\n      jump\t// out\n        /* \"#utility.yul\":8506:8628   */\n    tag_182:\n        /* \"#utility.yul\":8579:8603   */\n      tag_298\n        /* \"#utility.yul\":8597:8602   */\n      dup2\n        /* \"#utility.yul\":8579:8603   */\n      tag_181\n      jump\t// in\n    tag_298:\n        /* \"#utility.yul\":8572:8577   */\n      dup2\n        /* \"#utility.yul\":8569:8604   */\n      eq\n        /* \"#utility.yul\":8559:8622   */\n      tag_299\n      jumpi\n        /* \"#utility.yul\":8618:8619   */\n      0x00\n        /* \"#utility.yul\":8615:8616   */\n      dup1\n        /* \"#utility.yul\":8608:8620   */\n      revert\n        /* \"#utility.yul\":8559:8622   */\n    tag_299:\n        /* \"#utility.yul\":8506:8628   */\n      pop\n      jump\t// out\n        /* \"#utility.yul\":8634:8773   */\n    tag_183:\n        /* \"#utility.yul\":8680:8685   */\n      0x00\n        /* \"#utility.yul\":8718:8724   */\n      dup2\n        /* \"#utility.yul\":8705:8725   */\n      calldataload\n        /* \"#utility.yul\":8696:8725   */\n      swap1\n      pop\n        /* \"#utility.yul\":8734:8767   */\n      tag_301\n        /* \"#utility.yul\":8761:8766   */\n      dup2\n        /* \"#utility.yul\":8734:8767   */\n      tag_182\n      jump\t// in\n    tag_301:\n        /* \"#utility.yul\":8634:8773   */\n      swap3\n      swap2\n      pop\n      pop\n      jump\t// out\n        /* \"#utility.yul\":8779:9251   */\n    tag_27:\n        /* \"#utility.yul\":8846:8852   */\n      0x00\n        /* \"#utility.yul\":8854:8860   */\n      dup1\n        /* \"#utility.yul\":8903:8905   */\n      0x40\n        /* \"#utility.yul\":8891:8900   */\n      dup4\n        /* \"#utility.yul\":8882:8889   */\n      dup6\n        /* \"#utility.yul\":8878:8901   */\n      sub\n        /* \"#utility.yul\":8874:8906   */\n      slt\n        /* \"#utility.yul\":8871:8990   */\n      iszero\n      tag_303\n      jumpi\n        /* \"#utility.yul\":8909:8988   */\n      tag_304\n      tag_155\n      jump\t// in\n    tag_304:\n        /* \"#utility.yul\":8871:8990   */\n    tag_303:\n        /* \"#utility.yul\":9029:9030   */\n      0x00\n        /* \"#utility.yul\":9054:9106   */\n      tag_305\n        /* \"#utility.yul\":9098:9105   */\n      dup6\n        /* \"#utility.yul\":9089:9095   */\n      dup3\n        /* \"#utility.yul\":9078:9087   */\n      dup7\n        /* \"#utility.yul\":9074:9096   */\n      add\n        /* \"#utility.yul\":9054:9106   */\n      tag_165\n      jump\t// in\n    tag_305:\n        /* \"#utility.yul\":9044:9106   */\n      swap3\n      pop\n        /* \"#utility.yul\":9000:9116   */\n      pop\n        /* \"#utility.yul\":9155:9157   */\n      0x20\n        /* \"#utility.yul\":9181:9234   */\n      tag_306\n        /* \"#utility.yul\":9226:9233   */\n      dup6\n        /* \"#utility.yul\":9217:9223   */\n      dup3\n        /* \"#utility.yul\":9206:9215   */\n      dup7\n        /* \"#utility.yul\":9202:9224   */\n      add\n        /* \"#utility.yul\":9181:9234   */\n      tag_183\n      jump\t// in\n    tag_306:\n        /* \"#utility.yul\":9171:9234   */\n      swap2\n      pop\n        /* \"#utility.yul\":9126:9244   */\n      pop\n        /* \"#utility.yul\":8779:9251   */\n      swap3\n      pop\n      swap3\n      swap1\n      pop\n      jump\t// out\n        /* \"#utility.yul\":9274:9522   */\n    tag_184:\n        /* \"#utility.yul\":9344:9352   */\n      0x00\n        /* \"#utility.yul\":9375:9381   */\n      dup2\n        /* \"#utility.yul\":9363:9381   */\n      swap1\n      pop\n        /* \"#utility.yul\":9428:9431   */\n      dup3\n        /* \"#utility.yul\":9420:9424   */\n      0x20\n        /* \"#utility.yul\":9414:9418   */\n      0x04\n        /* \"#utility.yul\":9410:9425   */\n      mul\n        /* \"#utility.yul\":9400:9408   */\n      dup3\n        /* \"#utility.yul\":9396:9426   */\n      add\n        /* \"#utility.yul\":9393:9432   */\n      gt\n        /* \"#utility.yul\":9390:9516   */\n      iszero\n      tag_308\n      jumpi\n        /* \"#utility.yul\":9435:9514   */\n      tag_309\n      tag_162\n      jump\t// in\n    tag_309:\n        /* \"#utility.yul\":9390:9516   */\n    tag_308:\n        /* \"#utility.yul\":9274:9522   */\n      swap3\n      swap2\n      pop\n      pop\n      jump\t// out\n        /* \"#utility.yul\":9528:9906   */\n    tag_32:\n        /* \"#utility.yul\":9611:9617   */\n      0x00\n        /* \"#utility.yul\":9660:9663   */\n      0x80\n        /* \"#utility.yul\":9648:9657   */\n      dup3\n        /* \"#utility.yul\":9639:9646   */\n      dup5\n        /* \"#utility.yul\":9635:9658   */\n      sub\n        /* \"#utility.yul\":9631:9664   */\n      slt\n        /* \"#utility.yul\":9628:9748   */\n      iszero\n      tag_311\n      jumpi\n        /* \"#utility.yul\":9667:9746   */\n      tag_312\n      tag_155\n      jump\t// in\n    tag_312:\n        /* \"#utility.yul\":9628:9748   */\n    tag_311:\n        /* \"#utility.yul\":9787:9788   */\n      0x00\n        /* \"#utility.yul\":9812:9889   */\n      tag_313\n        /* \"#utility.yul\":9881:9888   */\n      dup5\n        /* \"#utility.yul\":9872:9878   */\n      dup3\n        /* \"#utility.yul\":9861:9870   */\n      dup6\n        /* \"#utility.yul\":9857:9879   */\n      add\n        /* \"#utility.yul\":9812:9889   */\n      tag_184\n      jump\t// in\n    tag_313:\n        /* \"#utility.yul\":9802:9889   */\n      swap2\n      pop\n        /* \"#utility.yul\":9758:9899   */\n      pop\n        /* \"#utility.yul\":9528:9906   */\n      swap3\n      swap2\n      pop\n      pop\n      jump\t// out\n        /* \"#utility.yul\":9912:10027   */\n    tag_185:\n        /* \"#utility.yul\":9997:10020   */\n      tag_315\n        /* \"#utility.yul\":10014:10019   */\n      dup2\n        /* \"#utility.yul\":9997:10020   */\n      tag_163\n      jump\t// in\n    tag_315:\n        /* \"#utility.yul\":9992:9995   */\n      dup3\n        /* \"#utility.yul\":9985:10021   */\n      mstore\n        /* \"#utility.yul\":9912:10027   */\n      pop\n      pop\n      jump\t// out\n        /* \"#utility.yul\":10033:10251   */\n    tag_35:\n        /* \"#utility.yul\":10124:10128   */\n      0x00\n        /* \"#utility.yul\":10162:10164   */\n      0x20\n        /* \"#utility.yul\":10151:10160   */\n      dup3\n        /* \"#utility.yul\":10147:10165   */\n      add\n        /* \"#utility.yul\":10139:10165   */\n      swap1\n      pop\n        /* \"#utility.yul\":10175:10244   */\n      tag_317\n        /* \"#utility.yul\":10241:10242   */\n      0x00\n        /* \"#utility.yul\":10230:10239   */\n      dup4\n        /* \"#utility.yul\":10226:10243   */\n      add\n        /* \"#utility.yul\":10217:10223   */\n      dup5\n        /* \"#utility.yul\":10175:10244   */\n      tag_185\n      jump\t// in\n    tag_317:\n        /* \"#utility.yul\":10033:10251   */\n      swap3\n      swap2\n      pop\n      pop\n      jump\t// out\n        /* \"#utility.yul\":10257:10347   */\n    tag_186:\n        /* \"#utility.yul\":10291:10298   */\n      0x00\n        /* \"#utility.yul\":10334:10339   */\n      dup2\n        /* \"#utility.yul\":10327:10340   */\n      iszero\n        /* \"#utility.yul\":10320:10341   */\n      iszero\n        /* \"#utility.yul\":10309:10341   */\n      swap1\n      pop\n        /* \"#utility.yul\":10257:10347   */\n      swap2\n      swap1\n      pop\n      jump\t// out\n        /* \"#utility.yul\":10353:10462   */\n    tag_187:\n        /* \"#utility.yul\":10434:10455   */\n      tag_320\n        /* \"#utility.yul\":10449:10454   */\n      dup2\n        /* \"#utility.yul\":10434:10455   */\n      tag_186\n      jump\t// in\n    tag_320:\n        /* \"#utility.yul\":10429:10432   */\n      dup3\n        /* \"#utility.yul\":10422:10456   */\n      mstore\n        /* \"#utility.yul\":10353:10462   */\n      pop\n      pop\n      jump\t// out\n        /* \"#utility.yul\":10468:10678   */\n    tag_40:\n        /* \"#utility.yul\":10555:10559   */\n      0x00\n        /* \"#utility.yul\":10593:10595   */\n      0x20\n        /* \"#utility.yul\":10582:10591   */\n      dup3\n        /* \"#utility.yul\":10578:10596   */\n      add\n        /* \"#utility.yul\":10570:10596   */\n      swap1\n      pop\n        /* \"#utility.yul\":10606:10671   */\n      tag_322\n        /* \"#utility.yul\":10668:10669   */\n      0x00\n        /* \"#utility.yul\":10657:10666   */\n      dup4\n        /* \"#utility.yul\":10653:10670   */\n      add\n        /* \"#utility.yul\":10644:10650   */\n      dup5\n        /* \"#utility.yul\":10606:10671   */\n      tag_187\n      jump\t// in\n    tag_322:\n        /* \"#utility.yul\":10468:10678   */\n      swap3\n      swap2\n      pop\n      pop\n      jump\t// out\n        /* \"#utility.yul\":10684:10843   */\n    tag_188:\n        /* \"#utility.yul\":10758:10769   */\n      0x00\n        /* \"#utility.yul\":10792:10798   */\n      dup3\n        /* \"#utility.yul\":10787:10790   */\n      dup3\n        /* \"#utility.yul\":10780:10799   */\n      mstore\n        /* \"#utility.yul\":10832:10836   */\n      0x20\n        /* \"#utility.yul\":10827:10830   */\n      dup3\n        /* \"#utility.yul\":10823:10837   */\n      add\n        /* \"#utility.yul\":10808:10837   */\n      swap1\n      pop\n        /* \"#utility.yul\":10684:10843   */\n      swap3\n      swap2\n      pop\n      pop\n      jump\t// out\n        /* \"#utility.yul\":10849:11206   */\n    tag_189:\n        /* \"#utility.yul\":10927:10930   */\n      0x00\n        /* \"#utility.yul\":10955:10994   */\n      tag_325\n        /* \"#utility.yul\":10988:10993   */\n      dup3\n        /* \"#utility.yul\":10955:10994   */\n      tag_177\n      jump\t// in\n    tag_325:\n        /* \"#utility.yul\":11010:11071   */\n      tag_326\n        /* \"#utility.yul\":11064:11070   */\n      dup2\n        /* \"#utility.yul\":11059:11062   */\n      dup6\n        /* \"#utility.yul\":11010:11071   */\n      tag_188\n      jump\t// in\n    tag_326:\n        /* \"#utility.yul\":11003:11071   */\n      swap4\n      pop\n        /* \"#utility.yul\":11080:11145   */\n      tag_327\n        /* \"#utility.yul\":11138:11144   */\n      dup2\n        /* \"#utility.yul\":11133:11136   */\n      dup6\n        /* \"#utility.yul\":11126:11130   */\n      0x20\n        /* \"#utility.yul\":11119:11124   */\n      dup7\n        /* \"#utility.yul\":11115:11131   */\n      add\n        /* \"#utility.yul\":11080:11145   */\n      tag_179\n      jump\t// in\n    tag_327:\n        /* \"#utility.yul\":11170:11199   */\n      tag_328\n        /* \"#utility.yul\":11192:11198   */\n      dup2\n        /* \"#utility.yul\":11170:11199   */\n      tag_158\n      jump\t// in\n    tag_328:\n        /* \"#utility.yul\":11165:11168   */\n      dup5\n        /* \"#utility.yul\":11161:11200   */\n      add\n        /* \"#utility.yul\":11154:11200   */\n      swap2\n      pop\n        /* \"#utility.yul\":10931:11206   */\n      pop\n        /* \"#utility.yul\":10849:11206   */\n      swap3\n      swap2\n      pop\n      pop\n      jump\t// out\n        /* \"#utility.yul\":11212:11320   */\n    tag_190:\n        /* \"#utility.yul\":11289:11313   */\n      tag_330\n        /* \"#utility.yul\":11307:11312   */\n      dup2\n        /* \"#utility.yul\":11289:11313   */\n      tag_181\n      jump\t// in\n    tag_330:\n        /* \"#utility.yul\":11284:11287   */\n      dup3\n        /* \"#utility.yul\":11277:11314   */\n      mstore\n        /* \"#utility.yul\":11212:11320   */\n      pop\n      pop\n      jump\t// out\n        /* \"#utility.yul\":11376:11979   */\n    tag_191:\n        /* \"#utility.yul\":11493:11496   */\n      0x00\n        /* \"#utility.yul\":11529:11533   */\n      0x40\n        /* \"#utility.yul\":11524:11527   */\n      dup4\n        /* \"#utility.yul\":11520:11534   */\n      add\n        /* \"#utility.yul\":11616:11620   */\n      0x00\n        /* \"#utility.yul\":11609:11614   */\n      dup4\n        /* \"#utility.yul\":11605:11621   */\n      add\n        /* \"#utility.yul\":11599:11622   */\n      mload\n        /* \"#utility.yul\":11669:11672   */\n      dup5\n        /* \"#utility.yul\":11663:11667   */\n      dup3\n        /* \"#utility.yul\":11659:11673   */\n      sub\n        /* \"#utility.yul\":11652:11656   */\n      0x00\n        /* \"#utility.yul\":11647:11650   */\n      dup7\n        /* \"#utility.yul\":11643:11657   */\n      add\n        /* \"#utility.yul\":11636:11674   */\n      mstore\n        /* \"#utility.yul\":11695:11768   */\n      tag_332\n        /* \"#utility.yul\":11763:11767   */\n      dup3\n        /* \"#utility.yul\":11749:11761   */\n      dup3\n        /* \"#utility.yul\":11695:11768   */\n      tag_189\n      jump\t// in\n    tag_332:\n        /* \"#utility.yul\":11687:11768   */\n      swap2\n      pop\n        /* \"#utility.yul\":11544:11779   */\n      pop\n        /* \"#utility.yul\":11860:11864   */\n      0x20\n        /* \"#utility.yul\":11853:11858   */\n      dup4\n        /* \"#utility.yul\":11849:11865   */\n      add\n        /* \"#utility.yul\":11843:11866   */\n      mload\n        /* \"#utility.yul\":11879:11942   */\n      tag_333\n        /* \"#utility.yul\":11936:11940   */\n      0x20\n        /* \"#utility.yul\":11931:11934   */\n      dup7\n        /* \"#utility.yul\":11927:11941   */\n      add\n        /* \"#utility.yul\":11913:11925   */\n      dup3\n        /* \"#utility.yul\":11879:11942   */\n      tag_190\n      jump\t// in\n    tag_333:\n        /* \"#utility.yul\":11789:11952   */\n      pop\n        /* \"#utility.yul\":11969:11973   */\n      dup1\n        /* \"#utility.yul\":11962:11973   */\n      swap2\n      pop\n        /* \"#utility.yul\":11498:11979   */\n      pop\n        /* \"#utility.yul\":11376:11979   */\n      swap3\n      swap2\n      pop\n      pop\n      jump\t// out\n        /* \"#utility.yul\":11985:12354   */\n    tag_44:\n        /* \"#utility.yul\":12126:12130   */\n      0x00\n        /* \"#utility.yul\":12164:12166   */\n      0x20\n        /* \"#utility.yul\":12153:12162   */\n      dup3\n        /* \"#utility.yul\":12149:12167   */\n      add\n        /* \"#utility.yul\":12141:12167   */\n      swap1\n      pop\n        /* \"#utility.yul\":12213:12222   */\n      dup2\n        /* \"#utility.yul\":12207:12211   */\n      dup2\n        /* \"#utility.yul\":12203:12223   */\n      sub\n        /* \"#utility.yul\":12199:12200   */\n      0x00\n        /* \"#utility.yul\":12188:12197   */\n      dup4\n        /* \"#utility.yul\":12184:12201   */\n      add\n        /* \"#utility.yul\":12177:12224   */\n      mstore\n        /* \"#utility.yul\":12241:12347   */\n      tag_335\n        /* \"#utility.yul\":12342:12346   */\n      dup2\n        /* \"#utility.yul\":12333:12339   */\n      dup5\n        /* \"#utility.yul\":12241:12347   */\n      tag_191\n      jump\t// in\n    tag_335:\n        /* \"#utility.yul\":12233:12347   */\n      swap1\n      pop\n        /* \"#utility.yul\":11985:12354   */\n      swap3\n      swap2\n      pop\n      pop\n      jump\t// out\n        /* \"#utility.yul\":12360:12608   */\n    tag_192:\n        /* \"#utility.yul\":12434:12438   */\n      0x00\n        /* \"#utility.yul\":12524:12542   */\n      0xffffffffffffffff\n        /* \"#utility.yul\":12516:12522   */\n      dup3\n        /* \"#utility.yul\":12513:12543   */\n      gt\n        /* \"#utility.yul\":12510:12566   */\n      iszero\n      tag_337\n      jumpi\n        /* \"#utility.yul\":12546:12564   */\n      tag_338\n      tag_63\n      jump\t// in\n    tag_338:\n        /* \"#utility.yul\":12510:12566   */\n    tag_337:\n        /* \"#utility.yul\":12596:12600   */\n      0x20\n        /* \"#utility.yul\":12588:12594   */\n      dup3\n        /* \"#utility.yul\":12584:12601   */\n      mul\n        /* \"#utility.yul\":12576:12601   */\n      swap1\n      pop\n        /* \"#utility.yul\":12360:12608   */\n      swap2\n      swap1\n      pop\n      jump\t// out\n        /* \"#utility.yul\":12631:13271   */\n    tag_193:\n        /* \"#utility.yul\":12724:12729   */\n      0x00\n        /* \"#utility.yul\":12749:12827   */\n      tag_340\n        /* \"#utility.yul\":12765:12826   */\n      tag_341\n        /* \"#utility.yul\":12819:12825   */\n      dup5\n        /* \"#utility.yul\":12765:12826   */\n      tag_192\n      jump\t// in\n    tag_341:\n        /* \"#utility.yul\":12749:12827   */\n      tag_160\n      jump\t// in\n    tag_340:\n        /* \"#utility.yul\":12740:12827   */\n      swap1\n      pop\n        /* \"#utility.yul\":12847:12852   */\n      dup1\n        /* \"#utility.yul\":12900:12904   */\n      0x20\n        /* \"#utility.yul\":12892:12898   */\n      dup5\n        /* \"#utility.yul\":12888:12905   */\n      mul\n        /* \"#utility.yul\":12880:12886   */\n      dup4\n        /* \"#utility.yul\":12876:12906   */\n      add\n        /* \"#utility.yul\":12929:12932   */\n      dup6\n        /* \"#utility.yul\":12921:12927   */\n      dup2\n        /* \"#utility.yul\":12918:12933   */\n      gt\n        /* \"#utility.yul\":12915:13037   */\n      iszero\n      tag_342\n      jumpi\n        /* \"#utility.yul\":12948:13027   */\n      tag_343\n      tag_162\n      jump\t// in\n    tag_343:\n        /* \"#utility.yul\":12915:13037   */\n    tag_342:\n        /* \"#utility.yul\":13063:13069   */\n      dup4\n        /* \"#utility.yul\":13046:13265   */\n    tag_344:\n        /* \"#utility.yul\":13080:13086   */\n      dup2\n        /* \"#utility.yul\":13075:13078   */\n      dup2\n        /* \"#utility.yul\":13072:13087   */\n      lt\n        /* \"#utility.yul\":13046:13265   */\n      iszero\n      tag_346\n      jumpi\n        /* \"#utility.yul\":13155:13158   */\n      dup1\n        /* \"#utility.yul\":13184:13220   */\n      tag_347\n        /* \"#utility.yul\":13216:13219   */\n      dup9\n        /* \"#utility.yul\":13204:13214   */\n      dup3\n        /* \"#utility.yul\":13184:13220   */\n      tag_165\n      jump\t// in\n    tag_347:\n        /* \"#utility.yul\":13179:13182   */\n      dup5\n        /* \"#utility.yul\":13172:13221   */\n      mstore\n        /* \"#utility.yul\":13250:13254   */\n      0x20\n        /* \"#utility.yul\":13245:13248   */\n      dup5\n        /* \"#utility.yul\":13241:13255   */\n      add\n        /* \"#utility.yul\":13234:13255   */\n      swap4\n      pop\n        /* \"#utility.yul\":13122:13265   */\n      pop\n        /* \"#utility.yul\":13106:13110   */\n      0x20\n        /* \"#utility.yul\":13101:13104   */\n      dup2\n        /* \"#utility.yul\":13097:13111   */\n      add\n        /* \"#utility.yul\":13090:13111   */\n      swap1\n      pop\n        /* \"#utility.yul\":13046:13265   */\n      jump(tag_344)\n    tag_346:\n        /* \"#utility.yul\":13050:13071   */\n      pop\n        /* \"#utility.yul\":12730:13271   */\n      pop\n      pop\n        /* \"#utility.yul\":12631:13271   */\n      swap4\n      swap3\n      pop\n      pop\n      pop\n      jump\t// out\n        /* \"#utility.yul\":13294:13631   */\n    tag_194:\n        /* \"#utility.yul\":13362:13367   */\n      0x00\n        /* \"#utility.yul\":13411:13414   */\n      dup3\n        /* \"#utility.yul\":13404:13408   */\n      0x1f\n        /* \"#utility.yul\":13396:13402   */\n      dup4\n        /* \"#utility.yul\":13392:13409   */\n      add\n        /* \"#utility.yul\":13388:13415   */\n      slt\n        /* \"#utility.yul\":13378:13500   */\n      tag_349\n      jumpi\n        /* \"#utility.yul\":13419:13498   */\n      tag_350\n      tag_157\n      jump\t// in\n    tag_350:\n        /* \"#utility.yul\":13378:13500   */\n    tag_349:\n        /* \"#utility.yul\":13523:13527   */\n      0x05\n        /* \"#utility.yul\":13545:13625   */\n      tag_351\n        /* \"#utility.yul\":13621:13624   */\n      dup5\n        /* \"#utility.yul\":13613:13619   */\n      dup3\n        /* \"#utility.yul\":13605:13611   */\n      dup6\n        /* \"#utility.yul\":13545:13625   */\n      tag_193\n      jump\t// in\n    tag_351:\n        /* \"#utility.yul\":13536:13625   */\n      swap2\n      pop\n        /* \"#utility.yul\":13368:13631   */\n      pop\n        /* \"#utility.yul\":13294:13631   */\n      swap3\n      swap2\n      pop\n      pop\n      jump\t// out\n        /* \"#utility.yul\":13637:14011   */\n    tag_47:\n        /* \"#utility.yul\":13718:13724   */\n      0x00\n        /* \"#utility.yul\":13767:13770   */\n      0xa0\n        /* \"#utility.yul\":13755:13764   */\n      dup3\n        /* \"#utility.yul\":13746:13753   */\n      dup5\n        /* \"#utility.yul\":13742:13765   */\n      sub\n        /* \"#utility.yul\":13738:13771   */\n      slt\n        /* \"#utility.yul\":13735:13855   */\n      iszero\n      tag_353\n      jumpi\n        /* \"#utility.yul\":13774:13853   */\n      tag_354\n      tag_155\n      jump\t// in\n    tag_354:\n        /* \"#utility.yul\":13735:13855   */\n    tag_353:\n        /* \"#utility.yul\":13894:13895   */\n      0x00\n        /* \"#utility.yul\":13919:13994   */\n      tag_355\n        /* \"#utility.yul\":13986:13993   */\n      dup5\n        /* \"#utility.yul\":13977:13983   */\n      dup3\n        /* \"#utility.yul\":13966:13975   */\n      dup6\n        /* \"#utility.yul\":13962:13984   */\n      add\n        /* \"#utility.yul\":13919:13994   */\n      tag_194\n      jump\t// in\n    tag_355:\n        /* \"#utility.yul\":13909:13994   */\n      swap2\n      pop\n        /* \"#utility.yul\":13865:14004   */\n      pop\n        /* \"#utility.yul\":13637:14011   */\n      swap3\n      swap2\n      pop\n      pop\n      jump\t// out\n        /* \"#utility.yul\":14017:14120   */\n    tag_195:\n        /* \"#utility.yul\":14081:14087   */\n      0x00\n        /* \"#utility.yul\":14109:14113   */\n      0x05\n        /* \"#utility.yul\":14099:14113   */\n      swap1\n      pop\n        /* \"#utility.yul\":14017:14120   */\n      swap2\n      swap1\n      pop\n      jump\t// out\n        /* \"#utility.yul\":14126:14268   */\n    tag_196:\n        /* \"#utility.yul\":14222:14233   */\n      0x00\n        /* \"#utility.yul\":14259:14262   */\n      dup2\n        /* \"#utility.yul\":14244:14262   */\n      swap1\n      pop\n        /* \"#utility.yul\":14126:14268   */\n      swap3\n      swap2\n      pop\n      pop\n      jump\t// out\n        /* \"#utility.yul\":14274:14371   */\n    tag_197:\n        /* \"#utility.yul\":14338:14342   */\n      0x00\n        /* \"#utility.yul\":14361:14364   */\n      dup2\n        /* \"#utility.yul\":14353:14364   */\n      swap1\n      pop\n        /* \"#utility.yul\":14274:14371   */\n      swap2\n      swap1\n      pop\n      jump\t// out\n        /* \"#utility.yul\":14377:14487   */\n    tag_198:\n        /* \"#utility.yul\":14444:14448   */\n      0x00\n        /* \"#utility.yul\":14476:14480   */\n      0x20\n        /* \"#utility.yul\":14471:14474   */\n      dup3\n        /* \"#utility.yul\":14467:14481   */\n      add\n        /* \"#utility.yul\":14459:14481   */\n      swap1\n      pop\n        /* \"#utility.yul\":14377:14487   */\n      swap2\n      swap1\n      pop\n      jump\t// out\n        /* \"#utility.yul\":14523:15209   */\n    tag_199:\n        /* \"#utility.yul\":14657:14708   */\n      tag_361\n        /* \"#utility.yul\":14702:14707   */\n      dup2\n        /* \"#utility.yul\":14657:14708   */\n      tag_195\n      jump\t// in\n    tag_361:\n        /* \"#utility.yul\":14724:14807   */\n      tag_362\n        /* \"#utility.yul\":14800:14806   */\n      dup2\n        /* \"#utility.yul\":14795:14798   */\n      dup5\n        /* \"#utility.yul\":14724:14807   */\n      tag_196\n      jump\t// in\n    tag_362:\n        /* \"#utility.yul\":14717:14807   */\n      swap3\n      pop\n        /* \"#utility.yul\":14831:14884   */\n      tag_363\n        /* \"#utility.yul\":14878:14883   */\n      dup3\n        /* \"#utility.yul\":14831:14884   */\n      tag_197\n      jump\t// in\n    tag_363:\n        /* \"#utility.yul\":14907:14914   */\n      dup1\n        /* \"#utility.yul\":14938:14939   */\n      0x00\n        /* \"#utility.yul\":14923:15202   */\n    tag_364:\n        /* \"#utility.yul\":14948:14954   */\n      dup4\n        /* \"#utility.yul\":14945:14946   */\n      dup2\n        /* \"#utility.yul\":14942:14955   */\n      lt\n        /* \"#utility.yul\":14923:15202   */\n      iszero\n      tag_366\n      jumpi\n        /* \"#utility.yul\":15024:15030   */\n      dup2\n        /* \"#utility.yul\":15018:15031   */\n      mload\n        /* \"#utility.yul\":15051:15112   */\n      tag_367\n        /* \"#utility.yul\":15108:15111   */\n      dup8\n        /* \"#utility.yul\":15093:15106   */\n      dup3\n        /* \"#utility.yul\":15051:15112   */\n      tag_172\n      jump\t// in\n    tag_367:\n        /* \"#utility.yul\":15044:15112   */\n      swap7\n      pop\n        /* \"#utility.yul\":15135:15192   */\n      tag_368\n        /* \"#utility.yul\":15185:15191   */\n      dup4\n        /* \"#utility.yul\":15135:15192   */\n      tag_198\n      jump\t// in\n    tag_368:\n        /* \"#utility.yul\":15125:15192   */\n      swap3\n      pop\n        /* \"#utility.yul\":14983:15202   */\n      pop\n        /* \"#utility.yul\":14970:14971   */\n      0x01\n        /* \"#utility.yul\":14967:14968   */\n      dup2\n        /* \"#utility.yul\":14963:14972   */\n      add\n        /* \"#utility.yul\":14958:14972   */\n      swap1\n      pop\n        /* \"#utility.yul\":14923:15202   */\n      jump(tag_364)\n    tag_366:\n        /* \"#utility.yul\":14927:14941   */\n      pop\n        /* \"#utility.yul\":14633:15209   */\n      pop\n      pop\n      pop\n        /* \"#utility.yul\":14523:15209   */\n      pop\n      pop\n      jump\t// out\n        /* \"#utility.yul\":15215:15526   */\n    tag_50:\n        /* \"#utility.yul\":15352:15356   */\n      0x00\n        /* \"#utility.yul\":15390:15393   */\n      0xa0\n        /* \"#utility.yul\":15379:15388   */\n      dup3\n        /* \"#utility.yul\":15375:15394   */\n      add\n        /* \"#utility.yul\":15367:15394   */\n      swap1\n      pop\n        /* \"#utility.yul\":15404:15519   */\n      tag_370\n        /* \"#utility.yul\":15516:15517   */\n      0x00\n        /* \"#utility.yul\":15505:15514   */\n      dup4\n        /* \"#utility.yul\":15501:15518   */\n      add\n        /* \"#utility.yul\":15492:15498   */\n      dup5\n        /* \"#utility.yul\":15404:15519   */\n      tag_199\n      jump\t// in\n    tag_370:\n        /* \"#utility.yul\":15215:15526   */\n      swap3\n      swap2\n      pop\n      pop\n      jump\t// out\n        /* \"#utility.yul\":15532:15861   */\n    tag_53:\n        /* \"#utility.yul\":15591:15597   */\n      0x00\n        /* \"#utility.yul\":15640:15642   */\n      0x20\n        /* \"#utility.yul\":15628:15637   */\n      dup3\n        /* \"#utility.yul\":15619:15626   */\n      dup5\n        /* \"#utility.yul\":15615:15638   */\n      sub\n        /* \"#utility.yul\":15611:15643   */\n      slt\n        /* \"#utility.yul\":15608:15727   */\n      iszero\n      tag_372\n      jumpi\n        /* \"#utility.yul\":15646:15725   */\n      tag_373\n      tag_155\n      jump\t// in\n    tag_373:\n        /* \"#utility.yul\":15608:15727   */\n    tag_372:\n        /* \"#utility.yul\":15766:15767   */\n      0x00\n        /* \"#utility.yul\":15791:15844   */\n      tag_374\n        /* \"#utility.yul\":15836:15843   */\n      dup5\n        /* \"#utility.yul\":15827:15833   */\n      dup3\n        /* \"#utility.yul\":15816:15825   */\n      dup6\n        /* \"#utility.yul\":15812:15834   */\n      add\n        /* \"#utility.yul\":15791:15844   */\n      tag_183\n      jump\t// in\n    tag_374:\n        /* \"#utility.yul\":15781:15844   */\n      swap2\n      pop\n        /* \"#utility.yul\":15737:15854   */\n      pop\n        /* \"#utility.yul\":15532:15861   */\n      swap3\n      swap2\n      pop\n      pop\n      jump\t// out\n        /* \"#utility.yul\":15867:16047   */\n    tag_200:\n        /* \"#utility.yul\":15915:15992   */\n      0x4e487b7100000000000000000000000000000000000000000000000000000000\n        /* \"#utility.yul\":15912:15913   */\n      0x00\n        /* \"#utility.yul\":15905:15993   */\n      mstore\n        /* \"#utility.yul\":16012:16016   */\n      0x11\n        /* \"#utility.yul\":16009:16010   */\n      0x04\n        /* \"#utility.yul\":16002:16017   */\n      mstore\n        /* \"#utility.yul\":16036:16040   */\n      0x24\n        /* \"#utility.yul\":16033:16034   */\n      0x00\n        /* \"#utility.yul\":16026:16041   */\n      revert\n        /* \"#utility.yul\":16053:16247   */\n    tag_69:\n        /* \"#utility.yul\":16093:16097   */\n      0x00\n        /* \"#utility.yul\":16113:16133   */\n      tag_377\n        /* \"#utility.yul\":16131:16132   */\n      dup3\n        /* \"#utility.yul\":16113:16133   */\n      tag_181\n      jump\t// in\n    tag_377:\n        /* \"#utility.yul\":16108:16133   */\n      swap2\n      pop\n        /* \"#utility.yul\":16147:16167   */\n      tag_378\n        /* \"#utility.yul\":16165:16166   */\n      dup4\n        /* \"#utility.yul\":16147:16167   */\n      tag_181\n      jump\t// in\n    tag_378:\n        /* \"#utility.yul\":16142:16167   */\n      swap3\n      pop\n        /* \"#utility.yul\":16191:16192   */\n      dup3\n        /* \"#utility.yul\":16188:16189   */\n      dup3\n        /* \"#utility.yul\":16184:16193   */\n      sub\n        /* \"#utility.yul\":16176:16193   */\n      swap1\n      pop\n        /* \"#utility.yul\":16215:16216   */\n      dup2\n        /* \"#utility.yul\":16209:16213   */\n      dup2\n        /* \"#utility.yul\":16206:16217   */\n      gt\n        /* \"#utility.yul\":16203:16240   */\n      iszero\n      tag_379\n      jumpi\n        /* \"#utility.yul\":16220:16238   */\n      tag_380\n      tag_200\n      jump\t// in\n    tag_380:\n        /* \"#utility.yul\":16203:16240   */\n    tag_379:\n        /* \"#utility.yul\":16053:16247   */\n      swap3\n      swap2\n      pop\n      pop\n      jump\t// out\n        /* \"#utility.yul\":16253:16433   */\n    tag_73:\n        /* \"#utility.yul\":16301:16378   */\n      0x4e487b7100000000000000000000000000000000000000000000000000000000\n        /* \"#utility.yul\":16298:16299   */\n      0x00\n        /* \"#utility.yul\":16291:16379   */\n      mstore\n        /* \"#utility.yul\":16398:16402   */\n      0x32\n        /* \"#utility.yul\":16395:16396   */\n      0x04\n        /* \"#utility.yul\":16388:16403   */\n      mstore\n        /* \"#utility.yul\":16422:16426   */\n      0x24\n        /* \"#utility.yul\":16419:16420   */\n      0x00\n        /* \"#utility.yul\":16412:16427   */\n      revert\n        /* \"#utility.yul\":16439:16672   */\n    tag_77:\n        /* \"#utility.yul\":16478:16481   */\n      0x00\n        /* \"#utility.yul\":16501:16525   */\n      tag_383\n        /* \"#utility.yul\":16519:16524   */\n      dup3\n        /* \"#utility.yul\":16501:16525   */\n      tag_181\n      jump\t// in\n    tag_383:\n        /* \"#utility.yul\":16492:16525   */\n      swap2\n      pop\n        /* \"#utility.yul\":16547:16613   */\n      0xffffffffffffffffffffffffffffffffffffffffffffffffffffffffffffffff\n        /* \"#utility.yul\":16540:16545   */\n      dup3\n        /* \"#utility.yul\":16537:16614   */\n      sub\n        /* \"#utility.yul\":16534:16637   */\n      tag_384\n      jumpi\n        /* \"#utility.yul\":16617:16635   */\n      tag_385\n      tag_200\n      jump\t// in\n    tag_385:\n        /* \"#utility.yul\":16534:16637   */\n    tag_384:\n        /* \"#utility.yul\":16664:16665   */\n      0x01\n        /* \"#utility.yul\":16657:16662   */\n      dup3\n        /* \"#utility.yul\":16653:16666   */\n      add\n        /* \"#utility.yul\":16646:16666   */\n      swap1\n      pop\n        /* \"#utility.yul\":16439:16672   */\n      swap2\n      swap1\n      pop\n      jump\t// out\n        /* \"#utility.yul\":16678:16826   */\n    tag_201:\n        /* \"#utility.yul\":16780:16791   */\n      0x00\n        /* \"#utility.yul\":16817:16820   */\n      dup2\n        /* \"#utility.yul\":16802:16820   */\n      swap1\n      pop\n        /* \"#utility.yul\":16678:16826   */\n      swap3\n      swap2\n      pop\n      pop\n      jump\t// out\n        /* \"#utility.yul\":16832:16978   */\n    tag_202:\n        /* \"#utility.yul\":16929:16935   */\n      dup3\n        /* \"#utility.yul\":16924:16927   */\n      dup2\n        /* \"#utility.yul\":16919:16922   */\n      dup4\n        /* \"#utility.yul\":16906:16936   */\n      calldatacopy\n        /* \"#utility.yul\":16970:16971   */\n      0x00\n        /* \"#utility.yul\":16961:16967   */\n      dup4\n        /* \"#utility.yul\":16956:16959   */\n      dup4\n        /* \"#utility.yul\":16952:16968   */\n      add\n        /* \"#utility.yul\":16945:16972   */\n      mstore\n        /* \"#utility.yul\":16832:16978   */\n      pop\n      pop\n      pop\n      jump\t// out\n        /* \"#utility.yul\":17008:17338   */\n    tag_203:\n        /* \"#utility.yul\":17124:17127   */\n      0x00\n        /* \"#utility.yul\":17145:17234   */\n      tag_389\n        /* \"#utility.yul\":17227:17233   */\n      dup4\n        /* \"#utility.yul\":17222:17225   */\n      dup6\n        /* \"#utility.yul\":17145:17234   */\n      tag_201\n      jump\t// in\n    tag_389:\n        /* \"#utility.yul\":17138:17234   */\n      swap4\n      pop\n        /* \"#utility.yul\":17244:17300   */\n      tag_390\n        /* \"#utility.yul\":17293:17299   */\n      dup4\n        /* \"#utility.yul\":17288:17291   */\n      dup6\n        /* \"#utility.yul\":17281:17286   */\n      dup5\n        /* \"#utility.yul\":17244:17300   */\n      tag_202\n      jump\t// in\n    tag_390:\n        /* \"#utility.yul\":17325:17331   */\n      dup3\n        /* \"#utility.yul\":17320:17323   */\n      dup5\n        /* \"#utility.yul\":17316:17332   */\n      add\n        /* \"#utility.yul\":17309:17332   */\n      swap1\n      pop\n        /* \"#utility.yul\":17008:17338   */\n      swap4\n      swap3\n      pop\n      pop\n      pop\n      jump\t// out\n        /* \"#utility.yul\":17344:17819   */\n    tag_80:\n        /* \"#utility.yul\":17544:17547   */\n      0x00\n        /* \"#utility.yul\":17566:17671   */\n      tag_392\n        /* \"#utility.yul\":17667:17670   */\n      dup3\n        /* \"#utility.yul\":17658:17664   */\n      dup7\n        /* \"#utility.yul\":17650:17656   */\n      dup9\n        /* \"#utility.yul\":17566:17671   */\n      tag_203\n      jump\t// in\n    tag_392:\n        /* \"#utility.yul\":17559:17671   */\n      swap2\n      pop\n        /* \"#utility.yul\":17688:17793   */\n      tag_393\n        /* \"#utility.yul\":17789:17792   */\n      dup3\n        /* \"#utility.yul\":17780:17786   */\n      dup5\n        /* \"#utility.yul\":17772:17778   */\n      dup7\n        /* \"#utility.yul\":17688:17793   */\n      tag_203\n      jump\t// in\n    tag_393:\n        /* \"#utility.yul\":17681:17793   */\n      swap2\n      pop\n        /* \"#utility.yul\":17810:17813   */\n      dup2\n        /* \"#utility.yul\":17803:17813   */\n      swap1\n      pop\n        /* \"#utility.yul\":17344:17819   */\n      swap6\n      swap5\n      pop\n      pop\n      pop\n      pop\n      pop\n      jump\t// out\n        /* \"#utility.yul\":17825:18120   */\n    tag_100:\n        /* \"#utility.yul\":17967:17970   */\n      0x00\n        /* \"#utility.yul\":17989:18094   */\n      tag_395\n        /* \"#utility.yul\":18090:18093   */\n      dup3\n        /* \"#utility.yul\":18081:18087   */\n      dup5\n        /* \"#utility.yul\":18073:18079   */\n      dup7\n        /* \"#utility.yul\":17989:18094   */\n      tag_203\n      jump\t// in\n    tag_395:\n        /* \"#utility.yul\":17982:18094   */\n      swap2\n      pop\n        /* \"#utility.yul\":18111:18114   */\n      dup2\n        /* \"#utility.yul\":18104:18114   */\n      swap1\n      pop\n        /* \"#utility.yul\":17825:18120   */\n      swap4\n      swap3\n      pop\n      pop\n      pop\n      jump\t// out\n        /* \"#utility.yul\":18126:18317   */\n    tag_119:\n        /* \"#utility.yul\":18166:18169   */\n      0x00\n        /* \"#utility.yul\":18185:18205   */\n      tag_397\n        /* \"#utility.yul\":18203:18204   */\n      dup3\n        /* \"#utility.yul\":18185:18205   */\n      tag_181\n      jump\t// in\n    tag_397:\n        /* \"#utility.yul\":18180:18205   */\n      swap2\n      pop\n        /* \"#utility.yul\":18219:18239   */\n      tag_398\n        /* \"#utility.yul\":18237:18238   */\n      dup4\n        /* \"#utility.yul\":18219:18239   */\n      tag_181\n      jump\t// in\n    tag_398:\n        /* \"#utility.yul\":18214:18239   */\n      swap3\n      pop\n        /* \"#utility.yul\":18262:18263   */\n      dup3\n        /* \"#utility.yul\":18259:18260   */\n      dup3\n        /* \"#utility.yul\":18255:18264   */\n      add\n        /* \"#utility.yul\":18248:18264   */\n      swap1\n      pop\n        /* \"#utility.yul\":18283:18286   */\n      dup1\n        /* \"#utility.yul\":18280:18281   */\n      dup3\n        /* \"#utility.yul\":18277:18287   */\n      gt\n        /* \"#utility.yul\":18274:18310   */\n      iszero\n      tag_399\n      jumpi\n        /* \"#utility.yul\":18290:18308   */\n      tag_400\n      tag_200\n      jump\t// in\n    tag_400:\n        /* \"#utility.yul\":18274:18310   */\n    tag_399:\n        /* \"#utility.yul\":18126:18317   */\n      swap3\n      swap2\n      pop\n      pop\n      jump\t// out\n        /* \"#utility.yul\":18323:18698   */\n    tag_152:\n        /* \"#utility.yul\":18362:18365   */\n      0x00\n        /* \"#utility.yul\":18381:18400   */\n      tag_402\n        /* \"#utility.yul\":18398:18399   */\n      dup3\n        /* \"#utility.yul\":18381:18400   */\n      tag_163\n      jump\t// in\n    tag_402:\n        /* \"#utility.yul\":18376:18400   */\n      swap2\n      pop\n        /* \"#utility.yul\":18414:18433   */\n      tag_403\n        /* \"#utility.yul\":18431:18432   */\n      dup4\n        /* \"#utility.yul\":18414:18433   */\n      tag_163\n      jump\t// in\n    tag_403:\n        /* \"#utility.yul\":18409:18433   */\n      swap3\n      pop\n        /* \"#utility.yul\":18456:18457   */\n      dup3\n        /* \"#utility.yul\":18453:18454   */\n      dup3\n        /* \"#utility.yul\":18449:18458   */\n      add\n        /* \"#utility.yul\":18442:18458   */\n      swap1\n      pop\n        /* \"#utility.yul\":18654:18655   */\n      dup3\n        /* \"#utility.yul\":18649:18652   */\n      dup2\n        /* \"#utility.yul\":18645:18656   */\n      slt\n        /* \"#utility.yul\":18638:18657   */\n      iszero\n        /* \"#utility.yul\":18634:18635   */\n      0x00\n        /* \"#utility.yul\":18631:18632   */\n      dup4\n        /* \"#utility.yul\":18627:18636   */\n      slt\n        /* \"#utility.yul\":18623:18658   */\n      and\n        /* \"#utility.yul\":18606:18607   */\n      dup4\n        /* \"#utility.yul\":18601:18604   */\n      dup3\n        /* \"#utility.yul\":18597:18608   */\n      slt\n        /* \"#utility.yul\":18592:18593   */\n      0x00\n        /* \"#utility.yul\":18589:18590   */\n      dup5\n        /* \"#utility.yul\":18585:18594   */\n      slt\n        /* \"#utility.yul\":18578:18595   */\n      iszero\n        /* \"#utility.yul\":18574:18609   */\n      and\n        /* \"#utility.yul\":18558:18668   */\n      or\n        /* \"#utility.yul\":18555:18691   */\n      iszero\n      tag_404\n      jumpi\n        /* \"#utility.yul\":18671:18689   */\n      tag_405\n      tag_200\n      jump\t// in\n    tag_405:\n        /* \"#utility.yul\":18555:18691   */\n    tag_404:\n        /* \"#utility.yul\":18323:18698   */\n      swap3\n      swap2\n      pop\n      pop\n      jump\t// out\n\n    auxdata: 0xa2646970667358221220cbf088929bcd14f80097b8de5b866ea6bbc99bfd5458ba6afc4ece04c375aedf64736f6c63430008110033\n}\n",
				"bytecode": {
					"linkReferences": {},
					"object": "608060405234801561001057600080fd5b50611117806100206000396000f3fe608060405234801561001057600080fd5b50600436106100935760003560e01c806387c5d5cc1161006657806387c5d5cc146101585780639999890214610188578063b02a0fda146101a6578063c34052e0146101d6578063df3dafad1461020657610093565b806306694a0a14610098578063266001d3146100c8578063378ee557146100f85780635e34f95114610128575b600080fd5b6100b260048036038101906100ad91906108e2565b610236565b6040516100bf91906109e9565b60405180910390f35b6100e260048036038101906100dd9190610a66565b610301565b6040516100ef9190610b66565b60405180910390f35b610112600480360381019061010d9190610bbe565b610333565b60405161011f91906109e9565b60405180910390f35b610142600480360381019061013d9190610c20565b6103ad565b60405161014f9190610c5c565b60405180910390f35b610172600480360381019061016d9190610a66565b610422565b60405161017f9190610c92565b60405180910390f35b61019061048f565b60405161019d9190610d43565b60405180910390f35b6101c060048036038101906101bb9190610e16565b6104ed565b6040516101cd9190610ec7565b60405180910390f35b6101f060048036038101906101eb9190610ee2565b610618565b6040516101fd9190610c92565b60405180910390f35b610220600480360381019061021b91906108e2565b6106af565b60405161022d9190610c5c565b60405180910390f35b60606000825167ffffffffffffffff81111561025557610254610769565b5b6040519080825280602002602001820160405280156102835781602001602082028036833780820191505090505b50905060005b83518110156102f7578381600186516102a29190610f3e565b6102ac9190610f3e565b815181106102bd576102bc610f72565b5b60200260200101518282815181106102d8576102d7610f72565b5b60200260200101818152505080806102ef90610fa1565b915050610289565b5080915050919050565b60608484848460405160200161031a9493929190611028565b6040516020818303038152906040529050949350505050565b60606000600a67ffffffffffffffff81111561035257610351610769565b5b6040519080825280602002602001820160405280156103805781602001602082028036833780820191505090505b5090508381848151811061039757610396610f72565b5b6020026020010181815250508091505092915050565b6000806000905060005b60048110156104185760008114806103e557508381600481106103dd576103dc610f72565b5b602002013582125b15610405578381600481106103fd576103fc610f72565b5b602002013591505b808061041090610fa1565b9150506103b7565b5080915050919050565b60008282604051602001610437929190611050565b604051602081830303815290604052805190602001208585604051602001610460929190611050565b6040516020818303038152906040528051906020012014610482576000610485565b60015b9050949350505050565b610497610703565b600060405180604001604052806040518060400160405280600581526020017f79617365720000000000000000000000000000000000000000000000000000008152508152602001601d81525090508091505090565b6104f561071d565b60005b600160056105069190610f3e565b81101561060f5760005b6001600561051e9190610f3e565b8110156105fb57836001826105339190611069565b6005811061054457610543610f72565b5b602002015184826005811061055c5761055b610f72565b5b602002015113156105e857836001826105759190611069565b6005811061058657610585610f72565b5b602002015184826005811061059e5761059d610f72565b5b60200201518583600581106105b6576105b5610f72565b5b60200201866001856105c89190611069565b600581106105d9576105d8610f72565b5b60200201828152508281525050505b80806105f390610fa1565b915050610510565b50808061060790610fa1565b9150506104f8565b50819050919050565b6000806040518060a00160405280600160ff168152602001600260ff168152602001600360ff168152602001600460ff168152602001600560ff16815250905060005b60058110156106a3578382826005811061067857610677610f72565b5b602002015160ff1603610690576001925050506106aa565b808061069b90610fa1565b91505061065b565b5060009150505b919050565b60008060005b83518110156106f9578381815181106106d1576106d0610f72565b5b6020026020010151826106e4919061109d565b915080806106f190610fa1565b9150506106b5565b5080915050919050565b604051806040016040528060608152602001600081525090565b6040518060a00160405280600590602082028036833780820191505090505090565b6000604051905090565b600080fd5b600080fd5b600080fd5b6000601f19601f8301169050919050565b7f4e487b7100000000000000000000000000000000000000000000000000000000600052604160045260246000fd5b6107a182610758565b810181811067ffffffffffffffff821117156107c0576107bf610769565b5b80604052505050565b60006107d361073f565b90506107df8282610798565b919050565b600067ffffffffffffffff8211156107ff576107fe610769565b5b602082029050602081019050919050565b600080fd5b6000819050919050565b61082881610815565b811461083357600080fd5b50565b6000813590506108458161081f565b92915050565b600061085e610859846107e4565b6107c9565b9050808382526020820190506020840283018581111561088157610880610810565b5b835b818110156108aa57806108968882610836565b845260208401935050602081019050610883565b5050509392505050565b600082601f8301126108c9576108c8610753565b5b81356108d984826020860161084b565b91505092915050565b6000602082840312156108f8576108f7610749565b5b600082013567ffffffffffffffff8111156109165761091561074e565b5b610922848285016108b4565b91505092915050565b600081519050919050565b600082825260208201905092915050565b6000819050602082019050919050565b61096081610815565b82525050565b60006109728383610957565b60208301905092915050565b6000602082019050919050565b60006109968261092b565b6109a08185610936565b93506109ab83610947565b8060005b838110156109dc5781516109c38882610966565b97506109ce8361097e565b9250506001810190506109af565b5085935050505092915050565b60006020820190508181036000830152610a03818461098b565b905092915050565b600080fd5b60008083601f840112610a2657610a25610753565b5b8235905067ffffffffffffffff811115610a4357610a42610a0b565b5b602083019150836001820283011115610a5f57610a5e610810565b5b9250929050565b60008060008060408587031215610a8057610a7f610749565b5b600085013567ffffffffffffffff811115610a9e57610a9d61074e565b5b610aaa87828801610a10565b9450945050602085013567ffffffffffffffff811115610acd57610acc61074e565b5b610ad987828801610a10565b925092505092959194509250565b600081519050919050565b600082825260208201905092915050565b60005b83811015610b21578082015181840152602081019050610b06565b60008484015250505050565b6000610b3882610ae7565b610b428185610af2565b9350610b52818560208601610b03565b610b5b81610758565b840191505092915050565b60006020820190508181036000830152610b808184610b2d565b905092915050565b6000819050919050565b610b9b81610b88565b8114610ba657600080fd5b50565b600081359050610bb881610b92565b92915050565b60008060408385031215610bd557610bd4610749565b5b6000610be385828601610836565b9250506020610bf485828601610ba9565b9150509250929050565b600081905082602060040282011115610c1a57610c19610810565b5b92915050565b600060808284031215610c3657610c35610749565b5b6000610c4484828501610bfe565b91505092915050565b610c5681610815565b82525050565b6000602082019050610c716000830184610c4d565b92915050565b60008115159050919050565b610c8c81610c77565b82525050565b6000602082019050610ca76000830184610c83565b92915050565b600082825260208201905092915050565b6000610cc982610ae7565b610cd38185610cad565b9350610ce3818560208601610b03565b610cec81610758565b840191505092915050565b610d0081610b88565b82525050565b60006040830160008301518482036000860152610d238282610cbe565b9150506020830151610d386020860182610cf7565b508091505092915050565b60006020820190508181036000830152610d5d8184610d06565b905092915050565b600067ffffffffffffffff821115610d8057610d7f610769565b5b602082029050919050565b6000610d9e610d9984610d65565b6107c9565b90508060208402830185811115610db857610db7610810565b5b835b81811015610de15780610dcd8882610836565b845260208401935050602081019050610dba565b5050509392505050565b600082601f830112610e0057610dff610753565b5b6005610e0d848285610d8b565b91505092915050565b600060a08284031215610e2c57610e2b610749565b5b6000610e3a84828501610deb565b91505092915050565b600060059050919050565b600081905092915050565b6000819050919050565b6000602082019050919050565b610e7981610e43565b610e838184610e4e565b9250610e8e82610e59565b8060005b83811015610ebf578151610ea68782610966565b9650610eb183610e63565b925050600181019050610e92565b505050505050565b600060a082019050610edc6000830184610e70565b92915050565b600060208284031215610ef857610ef7610749565b5b6000610f0684828501610ba9565b91505092915050565b7f4e487b7100000000000000000000000000000000000000000000000000000000600052601160045260246000fd5b6000610f4982610b88565b9150610f5483610b88565b9250828203905081811115610f6c57610f6b610f0f565b5b92915050565b7f4e487b7100000000000000000000000000000000000000000000000000000000600052603260045260246000fd5b6000610fac82610b88565b91507fffffffffffffffffffffffffffffffffffffffffffffffffffffffffffffffff8203610fde57610fdd610f0f565b5b600182019050919050565b600081905092915050565b82818337600083830152505050565b600061100f8385610fe9565b935061101c838584610ff4565b82840190509392505050565b6000611035828688611003565b9150611042828486611003565b915081905095945050505050565b600061105d828486611003565b91508190509392505050565b600061107482610b88565b915061107f83610b88565b925082820190508082111561109757611096610f0f565b5b92915050565b60006110a882610815565b91506110b383610815565b9250828201905082811215600083121683821260008412151617156110db576110da610f0f565b5b9291505056fea2646970667358221220cbf088929bcd14f80097b8de5b866ea6bbc99bfd5458ba6afc4ece04c375aedf64736f6c63430008110033",
					"opcodes": "PUSH1 0x80 PUSH1 0x40 MSTORE CALLVALUE DUP1 ISZERO PUSH2 0x10 JUMPI PUSH1 0x0 DUP1 REVERT JUMPDEST POP PUSH2 0x1117 DUP1 PUSH2 0x20 PUSH1 0x0 CODECOPY PUSH1 0x0 RETURN INVALID PUSH1 0x80 PUSH1 0x40 MSTORE CALLVALUE DUP1 ISZERO PUSH2 0x10 JUMPI PUSH1 0x0 DUP1 REVERT JUMPDEST POP PUSH1 0x4 CALLDATASIZE LT PUSH2 0x93 JUMPI PUSH1 0x0 CALLDATALOAD PUSH1 0xE0 SHR DUP1 PUSH4 0x87C5D5CC GT PUSH2 0x66 JUMPI DUP1 PUSH4 0x87C5D5CC EQ PUSH2 0x158 JUMPI DUP1 PUSH4 0x99998902 EQ PUSH2 0x188 JUMPI DUP1 PUSH4 0xB02A0FDA EQ PUSH2 0x1A6 JUMPI DUP1 PUSH4 0xC34052E0 EQ PUSH2 0x1D6 JUMPI DUP1 PUSH4 0xDF3DAFAD EQ PUSH2 0x206 JUMPI PUSH2 0x93 JUMP JUMPDEST DUP1 PUSH4 0x6694A0A EQ PUSH2 0x98 JUMPI DUP1 PUSH4 0x266001D3 EQ PUSH2 0xC8 JUMPI DUP1 PUSH4 0x378EE557 EQ PUSH2 0xF8 JUMPI DUP1 PUSH4 0x5E34F951 EQ PUSH2 0x128 JUMPI JUMPDEST PUSH1 0x0 DUP1 REVERT JUMPDEST PUSH2 0xB2 PUSH1 0x4 DUP1 CALLDATASIZE SUB DUP2 ADD SWAP1 PUSH2 0xAD SWAP2 SWAP1 PUSH2 0x8E2 JUMP JUMPDEST PUSH2 0x236 JUMP JUMPDEST PUSH1 0x40 MLOAD PUSH2 0xBF SWAP2 SWAP1 PUSH2 0x9E9 JUMP JUMPDEST PUSH1 0x40 MLOAD DUP1 SWAP2 SUB SWAP1 RETURN JUMPDEST PUSH2 0xE2 PUSH1 0x4 DUP1 CALLDATASIZE SUB DUP2 ADD SWAP1 PUSH2 0xDD SWAP2 SWAP1 PUSH2 0xA66 JUMP JUMPDEST PUSH2 0x301 JUMP JUMPDEST PUSH1 0x40 MLOAD PUSH2 0xEF SWAP2 SWAP1 PUSH2 0xB66 JUMP JUMPDEST PUSH1 0x40 MLOAD DUP1 SWAP2 SUB SWAP1 RETURN JUMPDEST PUSH2 0x112 PUSH1 0x4 DUP1 CALLDATASIZE SUB DUP2 ADD SWAP1 PUSH2 0x10D SWAP2 SWAP1 PUSH2 0xBBE JUMP JUMPDEST PUSH2 0x333 JUMP JUMPDEST PUSH1 0x40 MLOAD PUSH2 0x11F SWAP2 SWAP1 PUSH2 0x9E9 JUMP JUMPDEST PUSH1 0x40 MLOAD DUP1 SWAP2 SUB SWAP1 RETURN JUMPDEST PUSH2 0x142 PUSH1 0x4 DUP1 CALLDATASIZE SUB DUP2 ADD SWAP1 PUSH2 0x13D SWAP2 SWAP1 PUSH2 0xC20 JUMP JUMPDEST PUSH2 0x3AD JUMP JUMPDEST PUSH1 0x40 MLOAD PUSH2 0x14F SWAP2 SWAP1 PUSH2 0xC5C JUMP JUMPDEST PUSH1 0x40 MLOAD DUP1 SWAP2 SUB SWAP1 RETURN JUMPDEST PUSH2 0x172 PUSH1 0x4 DUP1 CALLDATASIZE SUB DUP2 ADD SWAP1 PUSH2 0x16D SWAP2 SWAP1 PUSH2 0xA66 JUMP JUMPDEST PUSH2 0x422 JUMP JUMPDEST PUSH1 0x40 MLOAD PUSH2 0x17F SWAP2 SWAP1 PUSH2 0xC92 JUMP JUMPDEST PUSH1 0x40 MLOAD DUP1 SWAP2 SUB SWAP1 RETURN JUMPDEST PUSH2 0x190 PUSH2 0x48F JUMP JUMPDEST PUSH1 0x40 MLOAD PUSH2 0x19D SWAP2 SWAP1 PUSH2 0xD43 JUMP JUMPDEST PUSH1 0x40 MLOAD DUP1 SWAP2 SUB SWAP1 RETURN JUMPDEST PUSH2 0x1C0 PUSH1 0x4 DUP1 CALLDATASIZE SUB DUP2 ADD SWAP1 PUSH2 0x1BB SWAP2 SWAP1 PUSH2 0xE16 JUMP JUMPDEST PUSH2 0x4ED JUMP JUMPDEST PUSH1 0x40 MLOAD PUSH2 0x1CD SWAP2 SWAP1 PUSH2 0xEC7 JUMP JUMPDEST PUSH1 0x40 MLOAD DUP1 SWAP2 SUB SWAP1 RETURN JUMPDEST PUSH2 0x1F0 PUSH1 0x4 DUP1 CALLDATASIZE SUB DUP2 ADD SWAP1 PUSH2 0x1EB SWAP2 SWAP1 PUSH2 0xEE2 JUMP JUMPDEST PUSH2 0x618 JUMP JUMPDEST PUSH1 0x40 MLOAD PUSH2 0x1FD SWAP2 SWAP1 PUSH2 0xC92 JUMP JUMPDEST PUSH1 0x40 MLOAD DUP1 SWAP2 SUB SWAP1 RETURN JUMPDEST PUSH2 0x220 PUSH1 0x4 DUP1 CALLDATASIZE SUB DUP2 ADD SWAP1 PUSH2 0x21B SWAP2 SWAP1 PUSH2 0x8E2 JUMP JUMPDEST PUSH2 0x6AF JUMP JUMPDEST PUSH1 0x40 MLOAD PUSH2 0x22D SWAP2 SWAP1 PUSH2 0xC5C JUMP JUMPDEST PUSH1 0x40 MLOAD DUP1 SWAP2 SUB SWAP1 RETURN JUMPDEST PUSH1 0x60 PUSH1 0x0 DUP3 MLOAD PUSH8 0xFFFFFFFFFFFFFFFF DUP2 GT ISZERO PUSH2 0x255 JUMPI PUSH2 0x254 PUSH2 0x769 JUMP JUMPDEST JUMPDEST PUSH1 0x40 MLOAD SWAP1 DUP1 DUP3 MSTORE DUP1 PUSH1 0x20 MUL PUSH1 0x20 ADD DUP3 ADD PUSH1 0x40 MSTORE DUP1 ISZERO PUSH2 0x283 JUMPI DUP2 PUSH1 0x20 ADD PUSH1 0x20 DUP3 MUL DUP1 CALLDATASIZE DUP4 CALLDATACOPY DUP1 DUP3 ADD SWAP2 POP POP SWAP1 POP JUMPDEST POP SWAP1 POP PUSH1 0x0 JUMPDEST DUP4 MLOAD DUP2 LT ISZERO PUSH2 0x2F7 JUMPI DUP4 DUP2 PUSH1 0x1 DUP7 MLOAD PUSH2 0x2A2 SWAP2 SWAP1 PUSH2 0xF3E JUMP JUMPDEST PUSH2 0x2AC SWAP2 SWAP1 PUSH2 0xF3E JUMP JUMPDEST DUP2 MLOAD DUP2 LT PUSH2 0x2BD JUMPI PUSH2 0x2BC PUSH2 0xF72 JUMP JUMPDEST JUMPDEST PUSH1 0x20 MUL PUSH1 0x20 ADD ADD MLOAD DUP3 DUP3 DUP2 MLOAD DUP2 LT PUSH2 0x2D8 JUMPI PUSH2 0x2D7 PUSH2 0xF72 JUMP JUMPDEST JUMPDEST PUSH1 0x20 MUL PUSH1 0x20 ADD ADD DUP2 DUP2 MSTORE POP POP DUP1 DUP1 PUSH2 0x2EF SWAP1 PUSH2 0xFA1 JUMP JUMPDEST SWAP2 POP POP PUSH2 0x289 JUMP JUMPDEST POP DUP1 SWAP2 POP POP SWAP2 SWAP1 POP JUMP JUMPDEST PUSH1 0x60 DUP5 DUP5 DUP5 DUP5 PUSH1 0x40 MLOAD PUSH1 0x20 ADD PUSH2 0x31A SWAP5 SWAP4 SWAP3 SWAP2 SWAP1 PUSH2 0x1028 JUMP JUMPDEST PUSH1 0x40 MLOAD PUSH1 0x20 DUP2 DUP4 SUB SUB DUP2 MSTORE SWAP1 PUSH1 0x40 MSTORE SWAP1 POP SWAP5 SWAP4 POP POP POP POP JUMP JUMPDEST PUSH1 0x60 PUSH1 0x0 PUSH1 0xA PUSH8 0xFFFFFFFFFFFFFFFF DUP2 GT ISZERO PUSH2 0x352 JUMPI PUSH2 0x351 PUSH2 0x769 JUMP JUMPDEST JUMPDEST PUSH1 0x40 MLOAD SWAP1 DUP1 DUP3 MSTORE DUP1 PUSH1 0x20 MUL PUSH1 0x20 ADD DUP3 ADD PUSH1 0x40 MSTORE DUP1 ISZERO PUSH2 0x380 JUMPI DUP2 PUSH1 0x20 ADD PUSH1 0x20 DUP3 MUL DUP1 CALLDATASIZE DUP4 CALLDATACOPY DUP1 DUP3 ADD SWAP2 POP POP SWAP1 POP JUMPDEST POP SWAP1 POP DUP4 DUP2 DUP5 DUP2 MLOAD DUP2 LT PUSH2 0x397 JUMPI PUSH2 0x396 PUSH2 0xF72 JUMP JUMPDEST JUMPDEST PUSH1 0x20 MUL PUSH1 0x20 ADD ADD DUP2 DUP2 MSTORE POP POP DUP1 SWAP2 POP POP SWAP3 SWAP2 POP POP JUMP JUMPDEST PUSH1 0x0 DUP1 PUSH1 0x0 SWAP1 POP PUSH1 0x0 JUMPDEST PUSH1 0x4 DUP2 LT ISZERO PUSH2 0x418 JUMPI PUSH1 0x0 DUP2 EQ DUP1 PUSH2 0x3E5 JUMPI POP DUP4 DUP2 PUSH1 0x4 DUP2 LT PUSH2 0x3DD JUMPI PUSH2 0x3DC PUSH2 0xF72 JUMP JUMPDEST JUMPDEST PUSH1 0x20 MUL ADD CALLDATALOAD DUP3 SLT JUMPDEST ISZERO PUSH2 0x405 JUMPI DUP4 DUP2 PUSH1 0x4 DUP2 LT PUSH2 0x3FD JUMPI PUSH2 0x3FC PUSH2 0xF72 JUMP JUMPDEST JUMPDEST PUSH1 0x20 MUL ADD CALLDATALOAD SWAP2 POP JUMPDEST DUP1 DUP1 PUSH2 0x410 SWAP1 PUSH2 0xFA1 JUMP JUMPDEST SWAP2 POP POP PUSH2 0x3B7 JUMP JUMPDEST POP DUP1 SWAP2 POP POP SWAP2 SWAP1 POP JUMP JUMPDEST PUSH1 0x0 DUP3 DUP3 PUSH1 0x40 MLOAD PUSH1 0x20 ADD PUSH2 0x437 SWAP3 SWAP2 SWAP1 PUSH2 0x1050 JUMP JUMPDEST PUSH1 0x40 MLOAD PUSH1 0x20 DUP2 DUP4 SUB SUB DUP2 MSTORE SWAP1 PUSH1 0x40 MSTORE DUP1 MLOAD SWAP1 PUSH1 0x20 ADD KECCAK256 DUP6 DUP6 PUSH1 0x40 MLOAD PUSH1 0x20 ADD PUSH2 0x460 SWAP3 SWAP2 SWAP1 PUSH2 0x1050 JUMP JUMPDEST PUSH1 0x40 MLOAD PUSH1 0x20 DUP2 DUP4 SUB SUB DUP2 MSTORE SWAP1 PUSH1 0x40 MSTORE DUP1 MLOAD SWAP1 PUSH1 0x20 ADD KECCAK256 EQ PUSH2 0x482 JUMPI PUSH1 0x0 PUSH2 0x485 JUMP JUMPDEST PUSH1 0x1 JUMPDEST SWAP1 POP SWAP5 SWAP4 POP POP POP POP JUMP JUMPDEST PUSH2 0x497 PUSH2 0x703 JUMP JUMPDEST PUSH1 0x0 PUSH1 0x40 MLOAD DUP1 PUSH1 0x40 ADD PUSH1 0x40 MSTORE DUP1 PUSH1 0x40 MLOAD DUP1 PUSH1 0x40 ADD PUSH1 0x40 MSTORE DUP1 PUSH1 0x5 DUP2 MSTORE PUSH1 0x20 ADD PUSH32 0x7961736572000000000000000000000000000000000000000000000000000000 DUP2 MSTORE POP DUP2 MSTORE PUSH1 0x20 ADD PUSH1 0x1D DUP2 MSTORE POP SWAP1 POP DUP1 SWAP2 POP POP SWAP1 JUMP JUMPDEST PUSH2 0x4F5 PUSH2 0x71D JUMP JUMPDEST PUSH1 0x0 JUMPDEST PUSH1 0x1 PUSH1 0x5 PUSH2 0x506 SWAP2 SWAP1 PUSH2 0xF3E JUMP JUMPDEST DUP2 LT ISZERO PUSH2 0x60F JUMPI PUSH1 0x0 JUMPDEST PUSH1 0x1 PUSH1 0x5 PUSH2 0x51E SWAP2 SWAP1 PUSH2 0xF3E JUMP JUMPDEST DUP2 LT ISZERO PUSH2 0x5FB JUMPI DUP4 PUSH1 0x1 DUP3 PUSH2 0x533 SWAP2 SWAP1 PUSH2 0x1069 JUMP JUMPDEST PUSH1 0x5 DUP2 LT PUSH2 0x544 JUMPI PUSH2 0x543 PUSH2 0xF72 JUMP JUMPDEST JUMPDEST PUSH1 0x20 MUL ADD MLOAD DUP5 DUP3 PUSH1 0x5 DUP2 LT PUSH2 0x55C JUMPI PUSH2 0x55B PUSH2 0xF72 JUMP JUMPDEST JUMPDEST PUSH1 0x20 MUL ADD MLOAD SGT ISZERO PUSH2 0x5E8 JUMPI DUP4 PUSH1 0x1 DUP3 PUSH2 0x575 SWAP2 SWAP1 PUSH2 0x1069 JUMP JUMPDEST PUSH1 0x5 DUP2 LT PUSH2 0x586 JUMPI PUSH2 0x585 PUSH2 0xF72 JUMP JUMPDEST JUMPDEST PUSH1 0x20 MUL ADD MLOAD DUP5 DUP3 PUSH1 0x5 DUP2 LT PUSH2 0x59E JUMPI PUSH2 0x59D PUSH2 0xF72 JUMP JUMPDEST JUMPDEST PUSH1 0x20 MUL ADD MLOAD DUP6 DUP4 PUSH1 0x5 DUP2 LT PUSH2 0x5B6 JUMPI PUSH2 0x5B5 PUSH2 0xF72 JUMP JUMPDEST JUMPDEST PUSH1 0x20 MUL ADD DUP7 PUSH1 0x1 DUP6 PUSH2 0x5C8 SWAP2 SWAP1 PUSH2 0x1069 JUMP JUMPDEST PUSH1 0x5 DUP2 LT PUSH2 0x5D9 JUMPI PUSH2 0x5D8 PUSH2 0xF72 JUMP JUMPDEST JUMPDEST PUSH1 0x20 MUL ADD DUP3 DUP2 MSTORE POP DUP3 DUP2 MSTORE POP POP POP JUMPDEST DUP1 DUP1 PUSH2 0x5F3 SWAP1 PUSH2 0xFA1 JUMP JUMPDEST SWAP2 POP POP PUSH2 0x510 JUMP JUMPDEST POP DUP1 DUP1 PUSH2 0x607 SWAP1 PUSH2 0xFA1 JUMP JUMPDEST SWAP2 POP POP PUSH2 0x4F8 JUMP JUMPDEST POP DUP2 SWAP1 POP SWAP2 SWAP1 POP JUMP JUMPDEST PUSH1 0x0 DUP1 PUSH1 0x40 MLOAD DUP1 PUSH1 0xA0 ADD PUSH1 0x40 MSTORE DUP1 PUSH1 0x1 PUSH1 0xFF AND DUP2 MSTORE PUSH1 0x20 ADD PUSH1 0x2 PUSH1 0xFF AND DUP2 MSTORE PUSH1 0x20 ADD PUSH1 0x3 PUSH1 0xFF AND DUP2 MSTORE PUSH1 0x20 ADD PUSH1 0x4 PUSH1 0xFF AND DUP2 MSTORE PUSH1 0x20 ADD PUSH1 0x5 PUSH1 0xFF AND DUP2 MSTORE POP SWAP1 POP PUSH1 0x0 JUMPDEST PUSH1 0x5 DUP2 LT ISZERO PUSH2 0x6A3 JUMPI DUP4 DUP3 DUP3 PUSH1 0x5 DUP2 LT PUSH2 0x678 JUMPI PUSH2 0x677 PUSH2 0xF72 JUMP JUMPDEST JUMPDEST PUSH1 0x20 MUL ADD MLOAD PUSH1 0xFF AND SUB PUSH2 0x690 JUMPI PUSH1 0x1 SWAP3 POP POP POP PUSH2 0x6AA JUMP JUMPDEST DUP1 DUP1 PUSH2 0x69B SWAP1 PUSH2 0xFA1 JUMP JUMPDEST SWAP2 POP POP PUSH2 0x65B JUMP JUMPDEST POP PUSH1 0x0 SWAP2 POP POP JUMPDEST SWAP2 SWAP1 POP JUMP JUMPDEST PUSH1 0x0 DUP1 PUSH1 0x0 JUMPDEST DUP4 MLOAD DUP2 LT ISZERO PUSH2 0x6F9 JUMPI DUP4 DUP2 DUP2 MLOAD DUP2 LT PUSH2 0x6D1 JUMPI PUSH2 0x6D0 PUSH2 0xF72 JUMP JUMPDEST JUMPDEST PUSH1 0x20 MUL PUSH1 0x20 ADD ADD MLOAD DUP3 PUSH2 0x6E4 SWAP2 SWAP1 PUSH2 0x109D JUMP JUMPDEST SWAP2 POP DUP1 DUP1 PUSH2 0x6F1 SWAP1 PUSH2 0xFA1 JUMP JUMPDEST SWAP2 POP POP PUSH2 0x6B5 JUMP JUMPDEST POP DUP1 SWAP2 POP POP SWAP2 SWAP1 POP JUMP JUMPDEST PUSH1 0x40 MLOAD DUP1 PUSH1 0x40 ADD PUSH1 0x40 MSTORE DUP1 PUSH1 0x60 DUP2 MSTORE PUSH1 0x20 ADD PUSH1 0x0 DUP2 MSTORE POP SWAP1 JUMP JUMPDEST PUSH1 0x40 MLOAD DUP1 PUSH1 0xA0 ADD PUSH1 0x40 MSTORE DUP1 PUSH1 0x5 SWAP1 PUSH1 0x20 DUP3 MUL DUP1 CALLDATASIZE DUP4 CALLDATACOPY DUP1 DUP3 ADD SWAP2 POP POP SWAP1 POP POP SWAP1 JUMP JUMPDEST PUSH1 0x0 PUSH1 0x40 MLOAD SWAP1 POP SWAP1 JUMP JUMPDEST PUSH1 0x0 DUP1 REVERT JUMPDEST PUSH1 0x0 DUP1 REVERT JUMPDEST PUSH1 0x0 DUP1 REVERT JUMPDEST PUSH1 0x0 PUSH1 0x1F NOT PUSH1 0x1F DUP4 ADD AND SWAP1 POP SWAP2 SWAP1 POP JUMP JUMPDEST PUSH32 0x4E487B7100000000000000000000000000000000000000000000000000000000 PUSH1 0x0 MSTORE PUSH1 0x41 PUSH1 0x4 MSTORE PUSH1 0x24 PUSH1 0x0 REVERT JUMPDEST PUSH2 0x7A1 DUP3 PUSH2 0x758 JUMP JUMPDEST DUP2 ADD DUP2 DUP2 LT PUSH8 0xFFFFFFFFFFFFFFFF DUP3 GT OR ISZERO PUSH2 0x7C0 JUMPI PUSH2 0x7BF PUSH2 0x769 JUMP JUMPDEST JUMPDEST DUP1 PUSH1 0x40 MSTORE POP POP POP JUMP JUMPDEST PUSH1 0x0 PUSH2 0x7D3 PUSH2 0x73F JUMP JUMPDEST SWAP1 POP PUSH2 0x7DF DUP3 DUP3 PUSH2 0x798 JUMP JUMPDEST SWAP2 SWAP1 POP JUMP JUMPDEST PUSH1 0x0 PUSH8 0xFFFFFFFFFFFFFFFF DUP3 GT ISZERO PUSH2 0x7FF JUMPI PUSH2 0x7FE PUSH2 0x769 JUMP JUMPDEST JUMPDEST PUSH1 0x20 DUP3 MUL SWAP1 POP PUSH1 0x20 DUP2 ADD SWAP1 POP SWAP2 SWAP1 POP JUMP JUMPDEST PUSH1 0x0 DUP1 REVERT JUMPDEST PUSH1 0x0 DUP2 SWAP1 POP SWAP2 SWAP1 POP JUMP JUMPDEST PUSH2 0x828 DUP2 PUSH2 0x815 JUMP JUMPDEST DUP2 EQ PUSH2 0x833 JUMPI PUSH1 0x0 DUP1 REVERT JUMPDEST POP JUMP JUMPDEST PUSH1 0x0 DUP2 CALLDATALOAD SWAP1 POP PUSH2 0x845 DUP2 PUSH2 0x81F JUMP JUMPDEST SWAP3 SWAP2 POP POP JUMP JUMPDEST PUSH1 0x0 PUSH2 0x85E PUSH2 0x859 DUP5 PUSH2 0x7E4 JUMP JUMPDEST PUSH2 0x7C9 JUMP JUMPDEST SWAP1 POP DUP1 DUP4 DUP3 MSTORE PUSH1 0x20 DUP3 ADD SWAP1 POP PUSH1 0x20 DUP5 MUL DUP4 ADD DUP6 DUP2 GT ISZERO PUSH2 0x881 JUMPI PUSH2 0x880 PUSH2 0x810 JUMP JUMPDEST JUMPDEST DUP4 JUMPDEST DUP2 DUP2 LT ISZERO PUSH2 0x8AA JUMPI DUP1 PUSH2 0x896 DUP9 DUP3 PUSH2 0x836 JUMP JUMPDEST DUP5 MSTORE PUSH1 0x20 DUP5 ADD SWAP4 POP POP PUSH1 0x20 DUP2 ADD SWAP1 POP PUSH2 0x883 JUMP JUMPDEST POP POP POP SWAP4 SWAP3 POP POP POP JUMP JUMPDEST PUSH1 0x0 DUP3 PUSH1 0x1F DUP4 ADD SLT PUSH2 0x8C9 JUMPI PUSH2 0x8C8 PUSH2 0x753 JUMP JUMPDEST JUMPDEST DUP2 CALLDATALOAD PUSH2 0x8D9 DUP5 DUP3 PUSH1 0x20 DUP7 ADD PUSH2 0x84B JUMP JUMPDEST SWAP2 POP POP SWAP3 SWAP2 POP POP JUMP JUMPDEST PUSH1 0x0 PUSH1 0x20 DUP3 DUP5 SUB SLT ISZERO PUSH2 0x8F8 JUMPI PUSH2 0x8F7 PUSH2 0x749 JUMP JUMPDEST JUMPDEST PUSH1 0x0 DUP3 ADD CALLDATALOAD PUSH8 0xFFFFFFFFFFFFFFFF DUP2 GT ISZERO PUSH2 0x916 JUMPI PUSH2 0x915 PUSH2 0x74E JUMP JUMPDEST JUMPDEST PUSH2 0x922 DUP5 DUP3 DUP6 ADD PUSH2 0x8B4 JUMP JUMPDEST SWAP2 POP POP SWAP3 SWAP2 POP POP JUMP JUMPDEST PUSH1 0x0 DUP2 MLOAD SWAP1 POP SWAP2 SWAP1 POP JUMP JUMPDEST PUSH1 0x0 DUP3 DUP3 MSTORE PUSH1 0x20 DUP3 ADD SWAP1 POP SWAP3 SWAP2 POP POP JUMP JUMPDEST PUSH1 0x0 DUP2 SWAP1 POP PUSH1 0x20 DUP3 ADD SWAP1 POP SWAP2 SWAP1 POP JUMP JUMPDEST PUSH2 0x960 DUP2 PUSH2 0x815 JUMP JUMPDEST DUP3 MSTORE POP POP JUMP JUMPDEST PUSH1 0x0 PUSH2 0x972 DUP4 DUP4 PUSH2 0x957 JUMP JUMPDEST PUSH1 0x20 DUP4 ADD SWAP1 POP SWAP3 SWAP2 POP POP JUMP JUMPDEST PUSH1 0x0 PUSH1 0x20 DUP3 ADD SWAP1 POP SWAP2 SWAP1 POP JUMP JUMPDEST PUSH1 0x0 PUSH2 0x996 DUP3 PUSH2 0x92B JUMP JUMPDEST PUSH2 0x9A0 DUP2 DUP6 PUSH2 0x936 JUMP JUMPDEST SWAP4 POP PUSH2 0x9AB DUP4 PUSH2 0x947 JUMP JUMPDEST DUP1 PUSH1 0x0 JUMPDEST DUP4 DUP2 LT ISZERO PUSH2 0x9DC JUMPI DUP2 MLOAD PUSH2 0x9C3 DUP9 DUP3 PUSH2 0x966 JUMP JUMPDEST SWAP8 POP PUSH2 0x9CE DUP4 PUSH2 0x97E JUMP JUMPDEST SWAP3 POP POP PUSH1 0x1 DUP2 ADD SWAP1 POP PUSH2 0x9AF JUMP JUMPDEST POP DUP6 SWAP4 POP POP POP POP SWAP3 SWAP2 POP POP JUMP JUMPDEST PUSH1 0x0 PUSH1 0x20 DUP3 ADD SWAP1 POP DUP2 DUP2 SUB PUSH1 0x0 DUP4 ADD MSTORE PUSH2 0xA03 DUP2 DUP5 PUSH2 0x98B JUMP JUMPDEST SWAP1 POP SWAP3 SWAP2 POP POP JUMP JUMPDEST PUSH1 0x0 DUP1 REVERT JUMPDEST PUSH1 0x0 DUP1 DUP4 PUSH1 0x1F DUP5 ADD SLT PUSH2 0xA26 JUMPI PUSH2 0xA25 PUSH2 0x753 JUMP JUMPDEST JUMPDEST DUP3 CALLDATALOAD SWAP1 POP PUSH8 0xFFFFFFFFFFFFFFFF DUP2 GT ISZERO PUSH2 0xA43 JUMPI PUSH2 0xA42 PUSH2 0xA0B JUMP JUMPDEST JUMPDEST PUSH1 0x20 DUP4 ADD SWAP2 POP DUP4 PUSH1 0x1 DUP3 MUL DUP4 ADD GT ISZERO PUSH2 0xA5F JUMPI PUSH2 0xA5E PUSH2 0x810 JUMP JUMPDEST JUMPDEST SWAP3 POP SWAP3 SWAP1 POP JUMP JUMPDEST PUSH1 0x0 DUP1 PUSH1 0x0 DUP1 PUSH1 0x40 DUP6 DUP8 SUB SLT ISZERO PUSH2 0xA80 JUMPI PUSH2 0xA7F PUSH2 0x749 JUMP JUMPDEST JUMPDEST PUSH1 0x0 DUP6 ADD CALLDATALOAD PUSH8 0xFFFFFFFFFFFFFFFF DUP2 GT ISZERO PUSH2 0xA9E JUMPI PUSH2 0xA9D PUSH2 0x74E JUMP JUMPDEST JUMPDEST PUSH2 0xAAA DUP8 DUP3 DUP9 ADD PUSH2 0xA10 JUMP JUMPDEST SWAP5 POP SWAP5 POP POP PUSH1 0x20 DUP6 ADD CALLDATALOAD PUSH8 0xFFFFFFFFFFFFFFFF DUP2 GT ISZERO PUSH2 0xACD JUMPI PUSH2 0xACC PUSH2 0x74E JUMP JUMPDEST JUMPDEST PUSH2 0xAD9 DUP8 DUP3 DUP9 ADD PUSH2 0xA10 JUMP JUMPDEST SWAP3 POP SWAP3 POP POP SWAP3 SWAP6 SWAP2 SWAP5 POP SWAP3 POP JUMP JUMPDEST PUSH1 0x0 DUP2 MLOAD SWAP1 POP SWAP2 SWAP1 POP JUMP JUMPDEST PUSH1 0x0 DUP3 DUP3 MSTORE PUSH1 0x20 DUP3 ADD SWAP1 POP SWAP3 SWAP2 POP POP JUMP JUMPDEST PUSH1 0x0 JUMPDEST DUP4 DUP2 LT ISZERO PUSH2 0xB21 JUMPI DUP1 DUP3 ADD MLOAD DUP2 DUP5 ADD MSTORE PUSH1 0x20 DUP2 ADD SWAP1 POP PUSH2 0xB06 JUMP JUMPDEST PUSH1 0x0 DUP5 DUP5 ADD MSTORE POP POP POP POP JUMP JUMPDEST PUSH1 0x0 PUSH2 0xB38 DUP3 PUSH2 0xAE7 JUMP JUMPDEST PUSH2 0xB42 DUP2 DUP6 PUSH2 0xAF2 JUMP JUMPDEST SWAP4 POP PUSH2 0xB52 DUP2 DUP6 PUSH1 0x20 DUP7 ADD PUSH2 0xB03 JUMP JUMPDEST PUSH2 0xB5B DUP2 PUSH2 0x758 JUMP JUMPDEST DUP5 ADD SWAP2 POP POP SWAP3 SWAP2 POP POP JUMP JUMPDEST PUSH1 0x0 PUSH1 0x20 DUP3 ADD SWAP1 POP DUP2 DUP2 SUB PUSH1 0x0 DUP4 ADD MSTORE PUSH2 0xB80 DUP2 DUP5 PUSH2 0xB2D JUMP JUMPDEST SWAP1 POP SWAP3 SWAP2 POP POP JUMP JUMPDEST PUSH1 0x0 DUP2 SWAP1 POP SWAP2 SWAP1 POP JUMP JUMPDEST PUSH2 0xB9B DUP2 PUSH2 0xB88 JUMP JUMPDEST DUP2 EQ PUSH2 0xBA6 JUMPI PUSH1 0x0 DUP1 REVERT JUMPDEST POP JUMP JUMPDEST PUSH1 0x0 DUP2 CALLDATALOAD SWAP1 POP PUSH2 0xBB8 DUP2 PUSH2 0xB92 JUMP JUMPDEST SWAP3 SWAP2 POP POP JUMP JUMPDEST PUSH1 0x0 DUP1 PUSH1 0x40 DUP4 DUP6 SUB SLT ISZERO PUSH2 0xBD5 JUMPI PUSH2 0xBD4 PUSH2 0x749 JUMP JUMPDEST JUMPDEST PUSH1 0x0 PUSH2 0xBE3 DUP6 DUP3 DUP7 ADD PUSH2 0x836 JUMP JUMPDEST SWAP3 POP POP PUSH1 0x20 PUSH2 0xBF4 DUP6 DUP3 DUP7 ADD PUSH2 0xBA9 JUMP JUMPDEST SWAP2 POP POP SWAP3 POP SWAP3 SWAP1 POP JUMP JUMPDEST PUSH1 0x0 DUP2 SWAP1 POP DUP3 PUSH1 0x20 PUSH1 0x4 MUL DUP3 ADD GT ISZERO PUSH2 0xC1A JUMPI PUSH2 0xC19 PUSH2 0x810 JUMP JUMPDEST JUMPDEST SWAP3 SWAP2 POP POP JUMP JUMPDEST PUSH1 0x0 PUSH1 0x80 DUP3 DUP5 SUB SLT ISZERO PUSH2 0xC36 JUMPI PUSH2 0xC35 PUSH2 0x749 JUMP JUMPDEST JUMPDEST PUSH1 0x0 PUSH2 0xC44 DUP5 DUP3 DUP6 ADD PUSH2 0xBFE JUMP JUMPDEST SWAP2 POP POP SWAP3 SWAP2 POP POP JUMP JUMPDEST PUSH2 0xC56 DUP2 PUSH2 0x815 JUMP JUMPDEST DUP3 MSTORE POP POP JUMP JUMPDEST PUSH1 0x0 PUSH1 0x20 DUP3 ADD SWAP1 POP PUSH2 0xC71 PUSH1 0x0 DUP4 ADD DUP5 PUSH2 0xC4D JUMP JUMPDEST SWAP3 SWAP2 POP POP JUMP JUMPDEST PUSH1 0x0 DUP2 ISZERO ISZERO SWAP1 POP SWAP2 SWAP1 POP JUMP JUMPDEST PUSH2 0xC8C DUP2 PUSH2 0xC77 JUMP JUMPDEST DUP3 MSTORE POP POP JUMP JUMPDEST PUSH1 0x0 PUSH1 0x20 DUP3 ADD SWAP1 POP PUSH2 0xCA7 PUSH1 0x0 DUP4 ADD DUP5 PUSH2 0xC83 JUMP JUMPDEST SWAP3 SWAP2 POP POP JUMP JUMPDEST PUSH1 0x0 DUP3 DUP3 MSTORE PUSH1 0x20 DUP3 ADD SWAP1 POP SWAP3 SWAP2 POP POP JUMP JUMPDEST PUSH1 0x0 PUSH2 0xCC9 DUP3 PUSH2 0xAE7 JUMP JUMPDEST PUSH2 0xCD3 DUP2 DUP6 PUSH2 0xCAD JUMP JUMPDEST SWAP4 POP PUSH2 0xCE3 DUP2 DUP6 PUSH1 0x20 DUP7 ADD PUSH2 0xB03 JUMP JUMPDEST PUSH2 0xCEC DUP2 PUSH2 0x758 JUMP JUMPDEST DUP5 ADD SWAP2 POP POP SWAP3 SWAP2 POP POP JUMP JUMPDEST PUSH2 0xD00 DUP2 PUSH2 0xB88 JUMP JUMPDEST DUP3 MSTORE POP POP JUMP JUMPDEST PUSH1 0x0 PUSH1 0x40 DUP4 ADD PUSH1 0x0 DUP4 ADD MLOAD DUP5 DUP3 SUB PUSH1 0x0 DUP7 ADD MSTORE PUSH2 0xD23 DUP3 DUP3 PUSH2 0xCBE JUMP JUMPDEST SWAP2 POP POP PUSH1 0x20 DUP4 ADD MLOAD PUSH2 0xD38 PUSH1 0x20 DUP7 ADD DUP3 PUSH2 0xCF7 JUMP JUMPDEST POP DUP1 SWAP2 POP POP SWAP3 SWAP2 POP POP JUMP JUMPDEST PUSH1 0x0 PUSH1 0x20 DUP3 ADD SWAP1 POP DUP2 DUP2 SUB PUSH1 0x0 DUP4 ADD MSTORE PUSH2 0xD5D DUP2 DUP5 PUSH2 0xD06 JUMP JUMPDEST SWAP1 POP SWAP3 SWAP2 POP POP JUMP JUMPDEST PUSH1 0x0 PUSH8 0xFFFFFFFFFFFFFFFF DUP3 GT ISZERO PUSH2 0xD80 JUMPI PUSH2 0xD7F PUSH2 0x769 JUMP JUMPDEST JUMPDEST PUSH1 0x20 DUP3 MUL SWAP1 POP SWAP2 SWAP1 POP JUMP JUMPDEST PUSH1 0x0 PUSH2 0xD9E PUSH2 0xD99 DUP5 PUSH2 0xD65 JUMP JUMPDEST PUSH2 0x7C9 JUMP JUMPDEST SWAP1 POP DUP1 PUSH1 0x20 DUP5 MUL DUP4 ADD DUP6 DUP2 GT ISZERO PUSH2 0xDB8 JUMPI PUSH2 0xDB7 PUSH2 0x810 JUMP JUMPDEST JUMPDEST DUP4 JUMPDEST DUP2 DUP2 LT ISZERO PUSH2 0xDE1 JUMPI DUP1 PUSH2 0xDCD DUP9 DUP3 PUSH2 0x836 JUMP JUMPDEST DUP5 MSTORE PUSH1 0x20 DUP5 ADD SWAP4 POP POP PUSH1 0x20 DUP2 ADD SWAP1 POP PUSH2 0xDBA JUMP JUMPDEST POP POP POP SWAP4 SWAP3 POP POP POP JUMP JUMPDEST PUSH1 0x0 DUP3 PUSH1 0x1F DUP4 ADD SLT PUSH2 0xE00 JUMPI PUSH2 0xDFF PUSH2 0x753 JUMP JUMPDEST JUMPDEST PUSH1 0x5 PUSH2 0xE0D DUP5 DUP3 DUP6 PUSH2 0xD8B JUMP JUMPDEST SWAP2 POP POP SWAP3 SWAP2 POP POP JUMP JUMPDEST PUSH1 0x0 PUSH1 0xA0 DUP3 DUP5 SUB SLT ISZERO PUSH2 0xE2C JUMPI PUSH2 0xE2B PUSH2 0x749 JUMP JUMPDEST JUMPDEST PUSH1 0x0 PUSH2 0xE3A DUP5 DUP3 DUP6 ADD PUSH2 0xDEB JUMP JUMPDEST SWAP2 POP POP SWAP3 SWAP2 POP POP JUMP JUMPDEST PUSH1 0x0 PUSH1 0x5 SWAP1 POP SWAP2 SWAP1 POP JUMP JUMPDEST PUSH1 0x0 DUP2 SWAP1 POP SWAP3 SWAP2 POP POP JUMP JUMPDEST PUSH1 0x0 DUP2 SWAP1 POP SWAP2 SWAP1 POP JUMP JUMPDEST PUSH1 0x0 PUSH1 0x20 DUP3 ADD SWAP1 POP SWAP2 SWAP1 POP JUMP JUMPDEST PUSH2 0xE79 DUP2 PUSH2 0xE43 JUMP JUMPDEST PUSH2 0xE83 DUP2 DUP5 PUSH2 0xE4E JUMP JUMPDEST SWAP3 POP PUSH2 0xE8E DUP3 PUSH2 0xE59 JUMP JUMPDEST DUP1 PUSH1 0x0 JUMPDEST DUP4 DUP2 LT ISZERO PUSH2 0xEBF JUMPI DUP2 MLOAD PUSH2 0xEA6 DUP8 DUP3 PUSH2 0x966 JUMP JUMPDEST SWAP7 POP PUSH2 0xEB1 DUP4 PUSH2 0xE63 JUMP JUMPDEST SWAP3 POP POP PUSH1 0x1 DUP2 ADD SWAP1 POP PUSH2 0xE92 JUMP JUMPDEST POP POP POP POP POP POP JUMP JUMPDEST PUSH1 0x0 PUSH1 0xA0 DUP3 ADD SWAP1 POP PUSH2 0xEDC PUSH1 0x0 DUP4 ADD DUP5 PUSH2 0xE70 JUMP JUMPDEST SWAP3 SWAP2 POP POP JUMP JUMPDEST PUSH1 0x0 PUSH1 0x20 DUP3 DUP5 SUB SLT ISZERO PUSH2 0xEF8 JUMPI PUSH2 0xEF7 PUSH2 0x749 JUMP JUMPDEST JUMPDEST PUSH1 0x0 PUSH2 0xF06 DUP5 DUP3 DUP6 ADD PUSH2 0xBA9 JUMP JUMPDEST SWAP2 POP POP SWAP3 SWAP2 POP POP JUMP JUMPDEST PUSH32 0x4E487B7100000000000000000000000000000000000000000000000000000000 PUSH1 0x0 MSTORE PUSH1 0x11 PUSH1 0x4 MSTORE PUSH1 0x24 PUSH1 0x0 REVERT JUMPDEST PUSH1 0x0 PUSH2 0xF49 DUP3 PUSH2 0xB88 JUMP JUMPDEST SWAP2 POP PUSH2 0xF54 DUP4 PUSH2 0xB88 JUMP JUMPDEST SWAP3 POP DUP3 DUP3 SUB SWAP1 POP DUP2 DUP2 GT ISZERO PUSH2 0xF6C JUMPI PUSH2 0xF6B PUSH2 0xF0F JUMP JUMPDEST JUMPDEST SWAP3 SWAP2 POP POP JUMP JUMPDEST PUSH32 0x4E487B7100000000000000000000000000000000000000000000000000000000 PUSH1 0x0 MSTORE PUSH1 0x32 PUSH1 0x4 MSTORE PUSH1 0x24 PUSH1 0x0 REVERT JUMPDEST PUSH1 0x0 PUSH2 0xFAC DUP3 PUSH2 0xB88 JUMP JUMPDEST SWAP2 POP PUSH32 0xFFFFFFFFFFFFFFFFFFFFFFFFFFFFFFFFFFFFFFFFFFFFFFFFFFFFFFFFFFFFFFFF DUP3 SUB PUSH2 0xFDE JUMPI PUSH2 0xFDD PUSH2 0xF0F JUMP JUMPDEST JUMPDEST PUSH1 0x1 DUP3 ADD SWAP1 POP SWAP2 SWAP1 POP JUMP JUMPDEST PUSH1 0x0 DUP2 SWAP1 POP SWAP3 SWAP2 POP POP JUMP JUMPDEST DUP3 DUP2 DUP4 CALLDATACOPY PUSH1 0x0 DUP4 DUP4 ADD MSTORE POP POP POP JUMP JUMPDEST PUSH1 0x0 PUSH2 0x100F DUP4 DUP6 PUSH2 0xFE9 JUMP JUMPDEST SWAP4 POP PUSH2 0x101C DUP4 DUP6 DUP5 PUSH2 0xFF4 JUMP JUMPDEST DUP3 DUP5 ADD SWAP1 POP SWAP4 SWAP3 POP POP POP JUMP JUMPDEST PUSH1 0x0 PUSH2 0x1035 DUP3 DUP7 DUP9 PUSH2 0x1003 JUMP JUMPDEST SWAP2 POP PUSH2 0x1042 DUP3 DUP5 DUP7 PUSH2 0x1003 JUMP JUMPDEST SWAP2 POP DUP2 SWAP1 POP SWAP6 SWAP5 POP POP POP POP POP JUMP JUMPDEST PUSH1 0x0 PUSH2 0x105D DUP3 DUP5 DUP7 PUSH2 0x1003 JUMP JUMPDEST SWAP2 POP DUP2 SWAP1 POP SWAP4 SWAP3 POP POP POP JUMP JUMPDEST PUSH1 0x0 PUSH2 0x1074 DUP3 PUSH2 0xB88 JUMP JUMPDEST SWAP2 POP PUSH2 0x107F DUP4 PUSH2 0xB88 JUMP JUMPDEST SWAP3 POP DUP3 DUP3 ADD SWAP1 POP DUP1 DUP3 GT ISZERO PUSH2 0x1097 JUMPI PUSH2 0x1096 PUSH2 0xF0F JUMP JUMPDEST JUMPDEST SWAP3 SWAP2 POP POP JUMP JUMPDEST PUSH1 0x0 PUSH2 0x10A8 DUP3 PUSH2 0x815 JUMP JUMPDEST SWAP2 POP PUSH2 0x10B3 DUP4 PUSH2 0x815 JUMP JUMPDEST SWAP3 POP DUP3 DUP3 ADD SWAP1 POP DUP3 DUP2 SLT ISZERO PUSH1 0x0 DUP4 SLT AND DUP4 DUP3 SLT PUSH1 0x0 DUP5 SLT ISZERO AND OR ISZERO PUSH2 0x10DB JUMPI PUSH2 0x10DA PUSH2 0xF0F JUMP JUMPDEST JUMPDEST SWAP3 SWAP2 POP POP JUMP INVALID LOG2 PUSH5 0x6970667358 0x22 SLT KECCAK256 0xCB CREATE DUP9 SWAP3 SWAP12 0xCD EQ 0xF8 STOP SWAP8 0xB8 0xDE JUMPDEST DUP7 PUSH15 0xA6BBC99BFD5458BA6AFC4ECE04C375 0xAE 0xDF PUSH5 0x736F6C6343 STOP ADDMOD GT STOP CALLER "
				},
				"gasEstimates": {
					"creation": {
						"codeDepositCost": "875000",
						"executionCost": "909",
						"totalCost": "875909"
					},
					"external": {
						"compareStr(string,string)": "infinite",
						"concatenate(string,string)": "infinite",
						"contains(uint256)": "infinite",
						"insertArr(int256,uint256)": "infinite",
						"largest(int256[4])": "infinite",
						"reverseArray(int256[])": "infinite",
						"sortArray(int256[5])": "infinite",
						"studentStruct()": "infinite",
						"sumArr(int256[])": "infinite"
					}
				},
				"methodIdentifiers": {
					"compareStr(string,string)": "87c5d5cc",
					"concatenate(string,string)": "266001d3",
					"contains(uint256)": "c34052e0",
					"insertArr(int256,uint256)": "378ee557",
					"largest(int256[4])": "5e34f951",
					"reverseArray(int256[])": "06694a0a",
					"sortArray(int256[5])": "b02a0fda",
					"studentStruct()": "99998902",
					"sumArr(int256[])": "df3dafad"
				}
			},
			"storageLayout": {
				"storage": [],
				"types": null
			},
			"userdoc": {
				"kind": "user",
				"methods": {},
				"version": 1
			}
		}
	}
}