{
	"contracts/revision/Assg_2.sol": {
		"Assign_2": {
			"abi": [
				{
					"inputs": [
						{
							"internalType": "string",
							"name": "_str1",
							"type": "string"
						},
						{
							"internalType": "string",
							"name": "_str2",
							"type": "string"
						}
					],
					"name": "compare2Strings",
					"outputs": [
						{
							"internalType": "bool",
							"name": "",
							"type": "bool"
						}
					],
					"stateMutability": "pure",
					"type": "function"
				},
				{
					"inputs": [
						{
							"internalType": "string",
							"name": "_str1",
							"type": "string"
						},
						{
							"internalType": "string",
							"name": "_str2",
							"type": "string"
						}
					],
					"name": "concat2Strings",
					"outputs": [
						{
							"internalType": "string",
							"name": "",
							"type": "string"
						}
					],
					"stateMutability": "pure",
					"type": "function"
				},
				{
					"inputs": [
						{
							"internalType": "int256",
							"name": "_num",
							"type": "int256"
						},
						{
							"internalType": "int256[]",
							"name": "_arr",
							"type": "int256[]"
						}
					],
					"name": "find",
					"outputs": [
						{
							"internalType": "bool",
							"name": "",
							"type": "bool"
						}
					],
					"stateMutability": "pure",
					"type": "function"
				}
			],
			"devdoc": {
				"kind": "dev",
				"methods": {},
				"version": 1
			},
			"evm": {
				"assembly": "    /* \"contracts/revision/Assg_2.sol\":56:779  contract Assign_2{... */\n  mstore(0x40, 0x80)\n  callvalue\n  dup1\n  iszero\n  tag_1\n  jumpi\n  0x00\n  dup1\n  revert\ntag_1:\n  pop\n  dataSize(sub_0)\n  dup1\n  dataOffset(sub_0)\n  0x00\n  codecopy\n  0x00\n  return\nstop\n\nsub_0: assembly {\n        /* \"contracts/revision/Assg_2.sol\":56:779  contract Assign_2{... */\n      mstore(0x40, 0x80)\n      callvalue\n      dup1\n      iszero\n      tag_1\n      jumpi\n      0x00\n      dup1\n      revert\n    tag_1:\n      pop\n      jumpi(tag_2, lt(calldatasize, 0x04))\n      shr(0xe0, calldataload(0x00))\n      dup1\n      0x094825b9\n      eq\n      tag_3\n      jumpi\n      dup1\n      0x4309fba7\n      eq\n      tag_4\n      jumpi\n      dup1\n      0xf9cb5bd8\n      eq\n      tag_5\n      jumpi\n    tag_2:\n      0x00\n      dup1\n      revert\n        /* \"contracts/revision/Assg_2.sol\":519:775  function find(int _num, int[] memory _arr) external pure returns (bool) {... */\n    tag_3:\n      tag_6\n      0x04\n      dup1\n      calldatasize\n      sub\n      dup2\n      add\n      swap1\n      tag_7\n      swap2\n      swap1\n      tag_8\n      jump\t// in\n    tag_7:\n      tag_9\n      jump\t// in\n    tag_6:\n      mload(0x40)\n      tag_10\n      swap2\n      swap1\n      tag_11\n      jump\t// in\n    tag_10:\n      mload(0x40)\n      dup1\n      swap2\n      sub\n      swap1\n      return\n        /* \"contracts/revision/Assg_2.sol\":105:261  function concat2Strings(string calldata _str1, string calldata _str2) pure external returns(string memory){... */\n    tag_4:\n      tag_12\n      0x04\n      dup1\n      calldatasize\n      sub\n      dup2\n      add\n      swap1\n      tag_13\n      swap2\n      swap1\n      tag_14\n      jump\t// in\n    tag_13:\n      tag_15\n      jump\t// in\n    tag_12:\n      mload(0x40)\n      tag_16\n      swap2\n      swap1\n      tag_17\n      jump\t// in\n    tag_16:\n      mload(0x40)\n      dup1\n      swap2\n      sub\n      swap1\n      return\n        /* \"contracts/revision/Assg_2.sol\":293:487  function compare2Strings(string calldata _str1, string calldata _str2) pure external returns(bool){... */\n    tag_5:\n      tag_18\n      0x04\n      dup1\n      calldatasize\n      sub\n      dup2\n      add\n      swap1\n      tag_19\n      swap2\n      swap1\n      tag_14\n      jump\t// in\n    tag_19:\n      tag_20\n      jump\t// in\n    tag_18:\n      mload(0x40)\n      tag_21\n      swap2\n      swap1\n      tag_11\n      jump\t// in\n    tag_21:\n      mload(0x40)\n      dup1\n      swap2\n      sub\n      swap1\n      return\n        /* \"contracts/revision/Assg_2.sol\":519:775  function find(int _num, int[] memory _arr) external pure returns (bool) {... */\n    tag_9:\n        /* \"contracts/revision/Assg_2.sol\":585:589  bool */\n      0x00\n        /* \"contracts/revision/Assg_2.sol\":601:613  bool isFound */\n      dup1\n        /* \"contracts/revision/Assg_2.sol\":628:634  uint i */\n      0x00\n        /* \"contracts/revision/Assg_2.sol\":623:745  for (uint i=0; i<_arr.length; i++){... */\n    tag_23:\n        /* \"contracts/revision/Assg_2.sol\":640:644  _arr */\n      dup4\n        /* \"contracts/revision/Assg_2.sol\":640:651  _arr.length */\n      mload\n        /* \"contracts/revision/Assg_2.sol\":638:639  i */\n      dup2\n        /* \"contracts/revision/Assg_2.sol\":638:651  i<_arr.length */\n      lt\n        /* \"contracts/revision/Assg_2.sol\":623:745  for (uint i=0; i<_arr.length; i++){... */\n      iszero\n      tag_24\n      jumpi\n        /* \"contracts/revision/Assg_2.sol\":683:687  _num */\n      dup5\n        /* \"contracts/revision/Assg_2.sol\":674:678  _arr */\n      dup5\n        /* \"contracts/revision/Assg_2.sol\":679:680  i */\n      dup3\n        /* \"contracts/revision/Assg_2.sol\":674:681  _arr[i] */\n      dup2\n      mload\n      dup2\n      lt\n      tag_26\n      jumpi\n      tag_27\n      tag_28\n      jump\t// in\n    tag_27:\n    tag_26:\n      0x20\n      mul\n      0x20\n      add\n      add\n      mload\n        /* \"contracts/revision/Assg_2.sol\":674:687  _arr[i]==_num */\n      sub\n        /* \"contracts/revision/Assg_2.sol\":671:735  if(_arr[i]==_num){... */\n      tag_29\n      jumpi\n        /* \"contracts/revision/Assg_2.sol\":716:720  true */\n      0x01\n        /* \"contracts/revision/Assg_2.sol\":706:720  isFound = true */\n      swap2\n      pop\n        /* \"contracts/revision/Assg_2.sol\":671:735  if(_arr[i]==_num){... */\n    tag_29:\n        /* \"contracts/revision/Assg_2.sol\":653:656  i++ */\n      dup1\n      dup1\n      tag_30\n      swap1\n      tag_31\n      jump\t// in\n    tag_30:\n      swap2\n      pop\n      pop\n        /* \"contracts/revision/Assg_2.sol\":623:745  for (uint i=0; i<_arr.length; i++){... */\n      jump(tag_23)\n    tag_24:\n      pop\n        /* \"contracts/revision/Assg_2.sol\":761:768  isFound */\n      dup1\n        /* \"contracts/revision/Assg_2.sol\":754:768  return isFound */\n      swap2\n      pop\n      pop\n        /* \"contracts/revision/Assg_2.sol\":519:775  function find(int _num, int[] memory _arr) external pure returns (bool) {... */\n      swap3\n      swap2\n      pop\n      pop\n      jump\t// out\n        /* \"contracts/revision/Assg_2.sol\":105:261  function concat2Strings(string calldata _str1, string calldata _str2) pure external returns(string memory){... */\n    tag_15:\n        /* \"contracts/revision/Assg_2.sol\":197:210  string memory */\n      0x60\n        /* \"contracts/revision/Assg_2.sol\":242:247  _str1 */\n      dup5\n      dup5\n        /* \"contracts/revision/Assg_2.sol\":248:253  _str2 */\n      dup5\n      dup5\n        /* \"contracts/revision/Assg_2.sol\":228:254  string.concat(_str1,_str2) */\n      add(0x20, mload(0x40))\n      tag_33\n      swap5\n      swap4\n      swap3\n      swap2\n      swap1\n      tag_34\n      jump\t// in\n    tag_33:\n      mload(0x40)\n      0x20\n      dup2\n      dup4\n      sub\n      sub\n      dup2\n      mstore\n      swap1\n      0x40\n      mstore\n        /* \"contracts/revision/Assg_2.sol\":221:254  return string.concat(_str1,_str2) */\n      swap1\n      pop\n        /* \"contracts/revision/Assg_2.sol\":105:261  function concat2Strings(string calldata _str1, string calldata _str2) pure external returns(string memory){... */\n      swap5\n      swap4\n      pop\n      pop\n      pop\n      pop\n      jump\t// out\n        /* \"contracts/revision/Assg_2.sol\":293:487  function compare2Strings(string calldata _str1, string calldata _str2) pure external returns(bool){... */\n    tag_20:\n        /* \"contracts/revision/Assg_2.sol\":386:390  bool */\n      0x00\n        /* \"contracts/revision/Assg_2.sol\":473:478  _str2 */\n      dup3\n      dup3\n        /* \"contracts/revision/Assg_2.sol\":456:479  abi.encodePacked(_str2) */\n      add(0x20, mload(0x40))\n      tag_36\n      swap3\n      swap2\n      swap1\n      tag_37\n      jump\t// in\n    tag_36:\n      mload(0x40)\n      0x20\n      dup2\n      dup4\n      sub\n      sub\n      dup2\n      mstore\n      swap1\n      0x40\n      mstore\n        /* \"contracts/revision/Assg_2.sol\":446:480  keccak256(abi.encodePacked(_str2)) */\n      dup1\n      mload\n      swap1\n      0x20\n      add\n      keccak256\n        /* \"contracts/revision/Assg_2.sol\":435:440  _str1 */\n      dup6\n      dup6\n        /* \"contracts/revision/Assg_2.sol\":418:441  abi.encodePacked(_str1) */\n      add(0x20, mload(0x40))\n      tag_38\n      swap3\n      swap2\n      swap1\n      tag_37\n      jump\t// in\n    tag_38:\n      mload(0x40)\n      0x20\n      dup2\n      dup4\n      sub\n      sub\n      dup2\n      mstore\n      swap1\n      0x40\n      mstore\n        /* \"contracts/revision/Assg_2.sol\":408:442  keccak256(abi.encodePacked(_str1)) */\n      dup1\n      mload\n      swap1\n      0x20\n      add\n      keccak256\n        /* \"contracts/revision/Assg_2.sol\":408:480  keccak256(abi.encodePacked(_str1)) == keccak256(abi.encodePacked(_str2)) */\n      eq\n        /* \"contracts/revision/Assg_2.sol\":401:480  return keccak256(abi.encodePacked(_str1)) == keccak256(abi.encodePacked(_str2)) */\n      swap1\n      pop\n        /* \"contracts/revision/Assg_2.sol\":293:487  function compare2Strings(string calldata _str1, string calldata _str2) pure external returns(bool){... */\n      swap5\n      swap4\n      pop\n      pop\n      pop\n      pop\n      jump\t// out\n        /* \"#utility.yul\":7:82   */\n    tag_39:\n        /* \"#utility.yul\":40:46   */\n      0x00\n        /* \"#utility.yul\":73:75   */\n      0x40\n        /* \"#utility.yul\":67:76   */\n      mload\n        /* \"#utility.yul\":57:76   */\n      swap1\n      pop\n        /* \"#utility.yul\":7:82   */\n      swap1\n      jump\t// out\n        /* \"#utility.yul\":88:205   */\n    tag_40:\n        /* \"#utility.yul\":197:198   */\n      0x00\n        /* \"#utility.yul\":194:195   */\n      dup1\n        /* \"#utility.yul\":187:199   */\n      revert\n        /* \"#utility.yul\":211:328   */\n    tag_41:\n        /* \"#utility.yul\":320:321   */\n      0x00\n        /* \"#utility.yul\":317:318   */\n      dup1\n        /* \"#utility.yul\":310:322   */\n      revert\n        /* \"#utility.yul\":334:410   */\n    tag_42:\n        /* \"#utility.yul\":370:377   */\n      0x00\n        /* \"#utility.yul\":399:404   */\n      dup2\n        /* \"#utility.yul\":388:404   */\n      swap1\n      pop\n        /* \"#utility.yul\":334:410   */\n      swap2\n      swap1\n      pop\n      jump\t// out\n        /* \"#utility.yul\":416:536   */\n    tag_43:\n        /* \"#utility.yul\":488:511   */\n      tag_73\n        /* \"#utility.yul\":505:510   */\n      dup2\n        /* \"#utility.yul\":488:511   */\n      tag_42\n      jump\t// in\n    tag_73:\n        /* \"#utility.yul\":481:486   */\n      dup2\n        /* \"#utility.yul\":478:512   */\n      eq\n        /* \"#utility.yul\":468:530   */\n      tag_74\n      jumpi\n        /* \"#utility.yul\":526:527   */\n      0x00\n        /* \"#utility.yul\":523:524   */\n      dup1\n        /* \"#utility.yul\":516:528   */\n      revert\n        /* \"#utility.yul\":468:530   */\n    tag_74:\n        /* \"#utility.yul\":416:536   */\n      pop\n      jump\t// out\n        /* \"#utility.yul\":542:679   */\n    tag_44:\n        /* \"#utility.yul\":587:592   */\n      0x00\n        /* \"#utility.yul\":625:631   */\n      dup2\n        /* \"#utility.yul\":612:632   */\n      calldataload\n        /* \"#utility.yul\":603:632   */\n      swap1\n      pop\n        /* \"#utility.yul\":641:673   */\n      tag_76\n        /* \"#utility.yul\":667:672   */\n      dup2\n        /* \"#utility.yul\":641:673   */\n      tag_43\n      jump\t// in\n    tag_76:\n        /* \"#utility.yul\":542:679   */\n      swap3\n      swap2\n      pop\n      pop\n      jump\t// out\n        /* \"#utility.yul\":685:802   */\n    tag_45:\n        /* \"#utility.yul\":794:795   */\n      0x00\n        /* \"#utility.yul\":791:792   */\n      dup1\n        /* \"#utility.yul\":784:796   */\n      revert\n        /* \"#utility.yul\":808:910   */\n    tag_46:\n        /* \"#utility.yul\":849:855   */\n      0x00\n        /* \"#utility.yul\":900:902   */\n      0x1f\n        /* \"#utility.yul\":896:903   */\n      not\n        /* \"#utility.yul\":891:893   */\n      0x1f\n        /* \"#utility.yul\":884:889   */\n      dup4\n        /* \"#utility.yul\":880:894   */\n      add\n        /* \"#utility.yul\":876:904   */\n      and\n        /* \"#utility.yul\":866:904   */\n      swap1\n      pop\n        /* \"#utility.yul\":808:910   */\n      swap2\n      swap1\n      pop\n      jump\t// out\n        /* \"#utility.yul\":916:1096   */\n    tag_47:\n        /* \"#utility.yul\":964:1041   */\n      0x4e487b7100000000000000000000000000000000000000000000000000000000\n        /* \"#utility.yul\":961:962   */\n      0x00\n        /* \"#utility.yul\":954:1042   */\n      mstore\n        /* \"#utility.yul\":1061:1065   */\n      0x41\n        /* \"#utility.yul\":1058:1059   */\n      0x04\n        /* \"#utility.yul\":1051:1066   */\n      mstore\n        /* \"#utility.yul\":1085:1089   */\n      0x24\n        /* \"#utility.yul\":1082:1083   */\n      0x00\n        /* \"#utility.yul\":1075:1090   */\n      revert\n        /* \"#utility.yul\":1102:1383   */\n    tag_48:\n        /* \"#utility.yul\":1185:1212   */\n      tag_81\n        /* \"#utility.yul\":1207:1211   */\n      dup3\n        /* \"#utility.yul\":1185:1212   */\n      tag_46\n      jump\t// in\n    tag_81:\n        /* \"#utility.yul\":1177:1183   */\n      dup2\n        /* \"#utility.yul\":1173:1213   */\n      add\n        /* \"#utility.yul\":1315:1321   */\n      dup2\n        /* \"#utility.yul\":1303:1313   */\n      dup2\n        /* \"#utility.yul\":1300:1322   */\n      lt\n        /* \"#utility.yul\":1279:1297   */\n      0xffffffffffffffff\n        /* \"#utility.yul\":1267:1277   */\n      dup3\n        /* \"#utility.yul\":1264:1298   */\n      gt\n        /* \"#utility.yul\":1261:1323   */\n      or\n        /* \"#utility.yul\":1258:1346   */\n      iszero\n      tag_82\n      jumpi\n        /* \"#utility.yul\":1326:1344   */\n      tag_83\n      tag_47\n      jump\t// in\n    tag_83:\n        /* \"#utility.yul\":1258:1346   */\n    tag_82:\n        /* \"#utility.yul\":1366:1376   */\n      dup1\n        /* \"#utility.yul\":1362:1364   */\n      0x40\n        /* \"#utility.yul\":1355:1377   */\n      mstore\n        /* \"#utility.yul\":1145:1383   */\n      pop\n        /* \"#utility.yul\":1102:1383   */\n      pop\n      pop\n      jump\t// out\n        /* \"#utility.yul\":1389:1518   */\n    tag_49:\n        /* \"#utility.yul\":1423:1429   */\n      0x00\n        /* \"#utility.yul\":1450:1470   */\n      tag_85\n      tag_39\n      jump\t// in\n    tag_85:\n        /* \"#utility.yul\":1440:1470   */\n      swap1\n      pop\n        /* \"#utility.yul\":1479:1512   */\n      tag_86\n        /* \"#utility.yul\":1507:1511   */\n      dup3\n        /* \"#utility.yul\":1499:1505   */\n      dup3\n        /* \"#utility.yul\":1479:1512   */\n      tag_48\n      jump\t// in\n    tag_86:\n        /* \"#utility.yul\":1389:1518   */\n      swap2\n      swap1\n      pop\n      jump\t// out\n        /* \"#utility.yul\":1524:1834   */\n    tag_50:\n        /* \"#utility.yul\":1600:1604   */\n      0x00\n        /* \"#utility.yul\":1690:1708   */\n      0xffffffffffffffff\n        /* \"#utility.yul\":1682:1688   */\n      dup3\n        /* \"#utility.yul\":1679:1709   */\n      gt\n        /* \"#utility.yul\":1676:1732   */\n      iszero\n      tag_88\n      jumpi\n        /* \"#utility.yul\":1712:1730   */\n      tag_89\n      tag_47\n      jump\t// in\n    tag_89:\n        /* \"#utility.yul\":1676:1732   */\n    tag_88:\n        /* \"#utility.yul\":1762:1766   */\n      0x20\n        /* \"#utility.yul\":1754:1760   */\n      dup3\n        /* \"#utility.yul\":1750:1767   */\n      mul\n        /* \"#utility.yul\":1742:1767   */\n      swap1\n      pop\n        /* \"#utility.yul\":1822:1826   */\n      0x20\n        /* \"#utility.yul\":1816:1820   */\n      dup2\n        /* \"#utility.yul\":1812:1827   */\n      add\n        /* \"#utility.yul\":1804:1827   */\n      swap1\n      pop\n        /* \"#utility.yul\":1524:1834   */\n      swap2\n      swap1\n      pop\n      jump\t// out\n        /* \"#utility.yul\":1840:1957   */\n    tag_51:\n        /* \"#utility.yul\":1949:1950   */\n      0x00\n        /* \"#utility.yul\":1946:1947   */\n      dup1\n        /* \"#utility.yul\":1939:1951   */\n      revert\n        /* \"#utility.yul\":1979:2686   */\n    tag_52:\n        /* \"#utility.yul\":2074:2079   */\n      0x00\n        /* \"#utility.yul\":2099:2179   */\n      tag_92\n        /* \"#utility.yul\":2115:2178   */\n      tag_93\n        /* \"#utility.yul\":2171:2177   */\n      dup5\n        /* \"#utility.yul\":2115:2178   */\n      tag_50\n      jump\t// in\n    tag_93:\n        /* \"#utility.yul\":2099:2179   */\n      tag_49\n      jump\t// in\n    tag_92:\n        /* \"#utility.yul\":2090:2179   */\n      swap1\n      pop\n        /* \"#utility.yul\":2199:2204   */\n      dup1\n        /* \"#utility.yul\":2228:2234   */\n      dup4\n        /* \"#utility.yul\":2221:2226   */\n      dup3\n        /* \"#utility.yul\":2214:2235   */\n      mstore\n        /* \"#utility.yul\":2262:2266   */\n      0x20\n        /* \"#utility.yul\":2255:2260   */\n      dup3\n        /* \"#utility.yul\":2251:2267   */\n      add\n        /* \"#utility.yul\":2244:2267   */\n      swap1\n      pop\n        /* \"#utility.yul\":2315:2319   */\n      0x20\n        /* \"#utility.yul\":2307:2313   */\n      dup5\n        /* \"#utility.yul\":2303:2320   */\n      mul\n        /* \"#utility.yul\":2295:2301   */\n      dup4\n        /* \"#utility.yul\":2291:2321   */\n      add\n        /* \"#utility.yul\":2344:2347   */\n      dup6\n        /* \"#utility.yul\":2336:2342   */\n      dup2\n        /* \"#utility.yul\":2333:2348   */\n      gt\n        /* \"#utility.yul\":2330:2452   */\n      iszero\n      tag_94\n      jumpi\n        /* \"#utility.yul\":2363:2442   */\n      tag_95\n      tag_51\n      jump\t// in\n    tag_95:\n        /* \"#utility.yul\":2330:2452   */\n    tag_94:\n        /* \"#utility.yul\":2478:2484   */\n      dup4\n        /* \"#utility.yul\":2461:2680   */\n    tag_96:\n        /* \"#utility.yul\":2495:2501   */\n      dup2\n        /* \"#utility.yul\":2490:2493   */\n      dup2\n        /* \"#utility.yul\":2487:2502   */\n      lt\n        /* \"#utility.yul\":2461:2680   */\n      iszero\n      tag_98\n      jumpi\n        /* \"#utility.yul\":2570:2573   */\n      dup1\n        /* \"#utility.yul\":2599:2635   */\n      tag_99\n        /* \"#utility.yul\":2631:2634   */\n      dup9\n        /* \"#utility.yul\":2619:2629   */\n      dup3\n        /* \"#utility.yul\":2599:2635   */\n      tag_44\n      jump\t// in\n    tag_99:\n        /* \"#utility.yul\":2594:2597   */\n      dup5\n        /* \"#utility.yul\":2587:2636   */\n      mstore\n        /* \"#utility.yul\":2665:2669   */\n      0x20\n        /* \"#utility.yul\":2660:2663   */\n      dup5\n        /* \"#utility.yul\":2656:2670   */\n      add\n        /* \"#utility.yul\":2649:2670   */\n      swap4\n      pop\n        /* \"#utility.yul\":2537:2680   */\n      pop\n        /* \"#utility.yul\":2521:2525   */\n      0x20\n        /* \"#utility.yul\":2516:2519   */\n      dup2\n        /* \"#utility.yul\":2512:2526   */\n      add\n        /* \"#utility.yul\":2505:2526   */\n      swap1\n      pop\n        /* \"#utility.yul\":2461:2680   */\n      jump(tag_96)\n    tag_98:\n        /* \"#utility.yul\":2465:2486   */\n      pop\n        /* \"#utility.yul\":2080:2686   */\n      pop\n      pop\n        /* \"#utility.yul\":1979:2686   */\n      swap4\n      swap3\n      pop\n      pop\n      pop\n      jump\t// out\n        /* \"#utility.yul\":2708:3076   */\n    tag_53:\n        /* \"#utility.yul\":2778:2783   */\n      0x00\n        /* \"#utility.yul\":2827:2830   */\n      dup3\n        /* \"#utility.yul\":2820:2824   */\n      0x1f\n        /* \"#utility.yul\":2812:2818   */\n      dup4\n        /* \"#utility.yul\":2808:2825   */\n      add\n        /* \"#utility.yul\":2804:2831   */\n      slt\n        /* \"#utility.yul\":2794:2916   */\n      tag_101\n      jumpi\n        /* \"#utility.yul\":2835:2914   */\n      tag_102\n      tag_45\n      jump\t// in\n    tag_102:\n        /* \"#utility.yul\":2794:2916   */\n    tag_101:\n        /* \"#utility.yul\":2952:2958   */\n      dup2\n        /* \"#utility.yul\":2939:2959   */\n      calldataload\n        /* \"#utility.yul\":2977:3070   */\n      tag_103\n        /* \"#utility.yul\":3066:3069   */\n      dup5\n        /* \"#utility.yul\":3058:3064   */\n      dup3\n        /* \"#utility.yul\":3051:3055   */\n      0x20\n        /* \"#utility.yul\":3043:3049   */\n      dup7\n        /* \"#utility.yul\":3039:3056   */\n      add\n        /* \"#utility.yul\":2977:3070   */\n      tag_52\n      jump\t// in\n    tag_103:\n        /* \"#utility.yul\":2968:3070   */\n      swap2\n      pop\n        /* \"#utility.yul\":2784:3076   */\n      pop\n        /* \"#utility.yul\":2708:3076   */\n      swap3\n      swap2\n      pop\n      pop\n      jump\t// out\n        /* \"#utility.yul\":3082:3762   */\n    tag_8:\n        /* \"#utility.yul\":3173:3179   */\n      0x00\n        /* \"#utility.yul\":3181:3187   */\n      dup1\n        /* \"#utility.yul\":3230:3232   */\n      0x40\n        /* \"#utility.yul\":3218:3227   */\n      dup4\n        /* \"#utility.yul\":3209:3216   */\n      dup6\n        /* \"#utility.yul\":3205:3228   */\n      sub\n        /* \"#utility.yul\":3201:3233   */\n      slt\n        /* \"#utility.yul\":3198:3317   */\n      iszero\n      tag_105\n      jumpi\n        /* \"#utility.yul\":3236:3315   */\n      tag_106\n      tag_40\n      jump\t// in\n    tag_106:\n        /* \"#utility.yul\":3198:3317   */\n    tag_105:\n        /* \"#utility.yul\":3356:3357   */\n      0x00\n        /* \"#utility.yul\":3381:3433   */\n      tag_107\n        /* \"#utility.yul\":3425:3432   */\n      dup6\n        /* \"#utility.yul\":3416:3422   */\n      dup3\n        /* \"#utility.yul\":3405:3414   */\n      dup7\n        /* \"#utility.yul\":3401:3423   */\n      add\n        /* \"#utility.yul\":3381:3433   */\n      tag_44\n      jump\t// in\n    tag_107:\n        /* \"#utility.yul\":3371:3433   */\n      swap3\n      pop\n        /* \"#utility.yul\":3327:3443   */\n      pop\n        /* \"#utility.yul\":3510:3512   */\n      0x20\n        /* \"#utility.yul\":3499:3508   */\n      dup4\n        /* \"#utility.yul\":3495:3513   */\n      add\n        /* \"#utility.yul\":3482:3514   */\n      calldataload\n        /* \"#utility.yul\":3541:3559   */\n      0xffffffffffffffff\n        /* \"#utility.yul\":3533:3539   */\n      dup2\n        /* \"#utility.yul\":3530:3560   */\n      gt\n        /* \"#utility.yul\":3527:3644   */\n      iszero\n      tag_108\n      jumpi\n        /* \"#utility.yul\":3563:3642   */\n      tag_109\n      tag_41\n      jump\t// in\n    tag_109:\n        /* \"#utility.yul\":3527:3644   */\n    tag_108:\n        /* \"#utility.yul\":3668:3745   */\n      tag_110\n        /* \"#utility.yul\":3737:3744   */\n      dup6\n        /* \"#utility.yul\":3728:3734   */\n      dup3\n        /* \"#utility.yul\":3717:3726   */\n      dup7\n        /* \"#utility.yul\":3713:3735   */\n      add\n        /* \"#utility.yul\":3668:3745   */\n      tag_53\n      jump\t// in\n    tag_110:\n        /* \"#utility.yul\":3658:3745   */\n      swap2\n      pop\n        /* \"#utility.yul\":3453:3755   */\n      pop\n        /* \"#utility.yul\":3082:3762   */\n      swap3\n      pop\n      swap3\n      swap1\n      pop\n      jump\t// out\n        /* \"#utility.yul\":3768:3858   */\n    tag_54:\n        /* \"#utility.yul\":3802:3809   */\n      0x00\n        /* \"#utility.yul\":3845:3850   */\n      dup2\n        /* \"#utility.yul\":3838:3851   */\n      iszero\n        /* \"#utility.yul\":3831:3852   */\n      iszero\n        /* \"#utility.yul\":3820:3852   */\n      swap1\n      pop\n        /* \"#utility.yul\":3768:3858   */\n      swap2\n      swap1\n      pop\n      jump\t// out\n        /* \"#utility.yul\":3864:3973   */\n    tag_55:\n        /* \"#utility.yul\":3945:3966   */\n      tag_113\n        /* \"#utility.yul\":3960:3965   */\n      dup2\n        /* \"#utility.yul\":3945:3966   */\n      tag_54\n      jump\t// in\n    tag_113:\n        /* \"#utility.yul\":3940:3943   */\n      dup3\n        /* \"#utility.yul\":3933:3967   */\n      mstore\n        /* \"#utility.yul\":3864:3973   */\n      pop\n      pop\n      jump\t// out\n        /* \"#utility.yul\":3979:4189   */\n    tag_11:\n        /* \"#utility.yul\":4066:4070   */\n      0x00\n        /* \"#utility.yul\":4104:4106   */\n      0x20\n        /* \"#utility.yul\":4093:4102   */\n      dup3\n        /* \"#utility.yul\":4089:4107   */\n      add\n        /* \"#utility.yul\":4081:4107   */\n      swap1\n      pop\n        /* \"#utility.yul\":4117:4182   */\n      tag_115\n        /* \"#utility.yul\":4179:4180   */\n      0x00\n        /* \"#utility.yul\":4168:4177   */\n      dup4\n        /* \"#utility.yul\":4164:4181   */\n      add\n        /* \"#utility.yul\":4155:4161   */\n      dup5\n        /* \"#utility.yul\":4117:4182   */\n      tag_55\n      jump\t// in\n    tag_115:\n        /* \"#utility.yul\":3979:4189   */\n      swap3\n      swap2\n      pop\n      pop\n      jump\t// out\n        /* \"#utility.yul\":4195:4312   */\n    tag_56:\n        /* \"#utility.yul\":4304:4305   */\n      0x00\n        /* \"#utility.yul\":4301:4302   */\n      dup1\n        /* \"#utility.yul\":4294:4306   */\n      revert\n        /* \"#utility.yul\":4332:4885   */\n    tag_57:\n        /* \"#utility.yul\":4390:4398   */\n      0x00\n        /* \"#utility.yul\":4400:4406   */\n      dup1\n        /* \"#utility.yul\":4450:4453   */\n      dup4\n        /* \"#utility.yul\":4443:4447   */\n      0x1f\n        /* \"#utility.yul\":4435:4441   */\n      dup5\n        /* \"#utility.yul\":4431:4448   */\n      add\n        /* \"#utility.yul\":4427:4454   */\n      slt\n        /* \"#utility.yul\":4417:4539   */\n      tag_118\n      jumpi\n        /* \"#utility.yul\":4458:4537   */\n      tag_119\n      tag_45\n      jump\t// in\n    tag_119:\n        /* \"#utility.yul\":4417:4539   */\n    tag_118:\n        /* \"#utility.yul\":4571:4577   */\n      dup3\n        /* \"#utility.yul\":4558:4578   */\n      calldataload\n        /* \"#utility.yul\":4548:4578   */\n      swap1\n      pop\n        /* \"#utility.yul\":4601:4619   */\n      0xffffffffffffffff\n        /* \"#utility.yul\":4593:4599   */\n      dup2\n        /* \"#utility.yul\":4590:4620   */\n      gt\n        /* \"#utility.yul\":4587:4704   */\n      iszero\n      tag_120\n      jumpi\n        /* \"#utility.yul\":4623:4702   */\n      tag_121\n      tag_56\n      jump\t// in\n    tag_121:\n        /* \"#utility.yul\":4587:4704   */\n    tag_120:\n        /* \"#utility.yul\":4737:4741   */\n      0x20\n        /* \"#utility.yul\":4729:4735   */\n      dup4\n        /* \"#utility.yul\":4725:4742   */\n      add\n        /* \"#utility.yul\":4713:4742   */\n      swap2\n      pop\n        /* \"#utility.yul\":4791:4794   */\n      dup4\n        /* \"#utility.yul\":4783:4787   */\n      0x01\n        /* \"#utility.yul\":4775:4781   */\n      dup3\n        /* \"#utility.yul\":4771:4788   */\n      mul\n        /* \"#utility.yul\":4761:4769   */\n      dup4\n        /* \"#utility.yul\":4757:4789   */\n      add\n        /* \"#utility.yul\":4754:4795   */\n      gt\n        /* \"#utility.yul\":4751:4879   */\n      iszero\n      tag_122\n      jumpi\n        /* \"#utility.yul\":4798:4877   */\n      tag_123\n      tag_51\n      jump\t// in\n    tag_123:\n        /* \"#utility.yul\":4751:4879   */\n    tag_122:\n        /* \"#utility.yul\":4332:4885   */\n      swap3\n      pop\n      swap3\n      swap1\n      pop\n      jump\t// out\n        /* \"#utility.yul\":4891:5765   */\n    tag_14:\n        /* \"#utility.yul\":4983:4989   */\n      0x00\n        /* \"#utility.yul\":4991:4997   */\n      dup1\n        /* \"#utility.yul\":4999:5005   */\n      0x00\n        /* \"#utility.yul\":5007:5013   */\n      dup1\n        /* \"#utility.yul\":5056:5058   */\n      0x40\n        /* \"#utility.yul\":5044:5053   */\n      dup6\n        /* \"#utility.yul\":5035:5042   */\n      dup8\n        /* \"#utility.yul\":5031:5054   */\n      sub\n        /* \"#utility.yul\":5027:5059   */\n      slt\n        /* \"#utility.yul\":5024:5143   */\n      iszero\n      tag_125\n      jumpi\n        /* \"#utility.yul\":5062:5141   */\n      tag_126\n      tag_40\n      jump\t// in\n    tag_126:\n        /* \"#utility.yul\":5024:5143   */\n    tag_125:\n        /* \"#utility.yul\":5210:5211   */\n      0x00\n        /* \"#utility.yul\":5199:5208   */\n      dup6\n        /* \"#utility.yul\":5195:5212   */\n      add\n        /* \"#utility.yul\":5182:5213   */\n      calldataload\n        /* \"#utility.yul\":5240:5258   */\n      0xffffffffffffffff\n        /* \"#utility.yul\":5232:5238   */\n      dup2\n        /* \"#utility.yul\":5229:5259   */\n      gt\n        /* \"#utility.yul\":5226:5343   */\n      iszero\n      tag_127\n      jumpi\n        /* \"#utility.yul\":5262:5341   */\n      tag_128\n      tag_41\n      jump\t// in\n    tag_128:\n        /* \"#utility.yul\":5226:5343   */\n    tag_127:\n        /* \"#utility.yul\":5375:5440   */\n      tag_129\n        /* \"#utility.yul\":5432:5439   */\n      dup8\n        /* \"#utility.yul\":5423:5429   */\n      dup3\n        /* \"#utility.yul\":5412:5421   */\n      dup9\n        /* \"#utility.yul\":5408:5430   */\n      add\n        /* \"#utility.yul\":5375:5440   */\n      tag_57\n      jump\t// in\n    tag_129:\n        /* \"#utility.yul\":5357:5440   */\n      swap5\n      pop\n      swap5\n      pop\n        /* \"#utility.yul\":5153:5450   */\n      pop\n        /* \"#utility.yul\":5517:5519   */\n      0x20\n        /* \"#utility.yul\":5506:5515   */\n      dup6\n        /* \"#utility.yul\":5502:5520   */\n      add\n        /* \"#utility.yul\":5489:5521   */\n      calldataload\n        /* \"#utility.yul\":5548:5566   */\n      0xffffffffffffffff\n        /* \"#utility.yul\":5540:5546   */\n      dup2\n        /* \"#utility.yul\":5537:5567   */\n      gt\n        /* \"#utility.yul\":5534:5651   */\n      iszero\n      tag_130\n      jumpi\n        /* \"#utility.yul\":5570:5649   */\n      tag_131\n      tag_41\n      jump\t// in\n    tag_131:\n        /* \"#utility.yul\":5534:5651   */\n    tag_130:\n        /* \"#utility.yul\":5683:5748   */\n      tag_132\n        /* \"#utility.yul\":5740:5747   */\n      dup8\n        /* \"#utility.yul\":5731:5737   */\n      dup3\n        /* \"#utility.yul\":5720:5729   */\n      dup9\n        /* \"#utility.yul\":5716:5738   */\n      add\n        /* \"#utility.yul\":5683:5748   */\n      tag_57\n      jump\t// in\n    tag_132:\n        /* \"#utility.yul\":5665:5748   */\n      swap3\n      pop\n      swap3\n      pop\n        /* \"#utility.yul\":5460:5758   */\n      pop\n        /* \"#utility.yul\":4891:5765   */\n      swap3\n      swap6\n      swap2\n      swap5\n      pop\n      swap3\n      pop\n      jump\t// out\n        /* \"#utility.yul\":5771:5870   */\n    tag_58:\n        /* \"#utility.yul\":5823:5829   */\n      0x00\n        /* \"#utility.yul\":5857:5862   */\n      dup2\n        /* \"#utility.yul\":5851:5863   */\n      mload\n        /* \"#utility.yul\":5841:5863   */\n      swap1\n      pop\n        /* \"#utility.yul\":5771:5870   */\n      swap2\n      swap1\n      pop\n      jump\t// out\n        /* \"#utility.yul\":5876:6045   */\n    tag_59:\n        /* \"#utility.yul\":5960:5971   */\n      0x00\n        /* \"#utility.yul\":5994:6000   */\n      dup3\n        /* \"#utility.yul\":5989:5992   */\n      dup3\n        /* \"#utility.yul\":5982:6001   */\n      mstore\n        /* \"#utility.yul\":6034:6038   */\n      0x20\n        /* \"#utility.yul\":6029:6032   */\n      dup3\n        /* \"#utility.yul\":6025:6039   */\n      add\n        /* \"#utility.yul\":6010:6039   */\n      swap1\n      pop\n        /* \"#utility.yul\":5876:6045   */\n      swap3\n      swap2\n      pop\n      pop\n      jump\t// out\n        /* \"#utility.yul\":6051:6297   */\n    tag_60:\n        /* \"#utility.yul\":6132:6133   */\n      0x00\n        /* \"#utility.yul\":6142:6255   */\n    tag_136:\n        /* \"#utility.yul\":6156:6162   */\n      dup4\n        /* \"#utility.yul\":6153:6154   */\n      dup2\n        /* \"#utility.yul\":6150:6163   */\n      lt\n        /* \"#utility.yul\":6142:6255   */\n      iszero\n      tag_138\n      jumpi\n        /* \"#utility.yul\":6241:6242   */\n      dup1\n        /* \"#utility.yul\":6236:6239   */\n      dup3\n        /* \"#utility.yul\":6232:6243   */\n      add\n        /* \"#utility.yul\":6226:6244   */\n      mload\n        /* \"#utility.yul\":6222:6223   */\n      dup2\n        /* \"#utility.yul\":6217:6220   */\n      dup5\n        /* \"#utility.yul\":6213:6224   */\n      add\n        /* \"#utility.yul\":6206:6245   */\n      mstore\n        /* \"#utility.yul\":6178:6180   */\n      0x20\n        /* \"#utility.yul\":6175:6176   */\n      dup2\n        /* \"#utility.yul\":6171:6181   */\n      add\n        /* \"#utility.yul\":6166:6181   */\n      swap1\n      pop\n        /* \"#utility.yul\":6142:6255   */\n      jump(tag_136)\n    tag_138:\n        /* \"#utility.yul\":6289:6290   */\n      0x00\n        /* \"#utility.yul\":6280:6286   */\n      dup5\n        /* \"#utility.yul\":6275:6278   */\n      dup5\n        /* \"#utility.yul\":6271:6287   */\n      add\n        /* \"#utility.yul\":6264:6291   */\n      mstore\n        /* \"#utility.yul\":6113:6297   */\n      pop\n        /* \"#utility.yul\":6051:6297   */\n      pop\n      pop\n      pop\n      jump\t// out\n        /* \"#utility.yul\":6303:6680   */\n    tag_61:\n        /* \"#utility.yul\":6391:6394   */\n      0x00\n        /* \"#utility.yul\":6419:6458   */\n      tag_140\n        /* \"#utility.yul\":6452:6457   */\n      dup3\n        /* \"#utility.yul\":6419:6458   */\n      tag_58\n      jump\t// in\n    tag_140:\n        /* \"#utility.yul\":6474:6545   */\n      tag_141\n        /* \"#utility.yul\":6538:6544   */\n      dup2\n        /* \"#utility.yul\":6533:6536   */\n      dup6\n        /* \"#utility.yul\":6474:6545   */\n      tag_59\n      jump\t// in\n    tag_141:\n        /* \"#utility.yul\":6467:6545   */\n      swap4\n      pop\n        /* \"#utility.yul\":6554:6619   */\n      tag_142\n        /* \"#utility.yul\":6612:6618   */\n      dup2\n        /* \"#utility.yul\":6607:6610   */\n      dup6\n        /* \"#utility.yul\":6600:6604   */\n      0x20\n        /* \"#utility.yul\":6593:6598   */\n      dup7\n        /* \"#utility.yul\":6589:6605   */\n      add\n        /* \"#utility.yul\":6554:6619   */\n      tag_60\n      jump\t// in\n    tag_142:\n        /* \"#utility.yul\":6644:6673   */\n      tag_143\n        /* \"#utility.yul\":6666:6672   */\n      dup2\n        /* \"#utility.yul\":6644:6673   */\n      tag_46\n      jump\t// in\n    tag_143:\n        /* \"#utility.yul\":6639:6642   */\n      dup5\n        /* \"#utility.yul\":6635:6674   */\n      add\n        /* \"#utility.yul\":6628:6674   */\n      swap2\n      pop\n        /* \"#utility.yul\":6395:6680   */\n      pop\n        /* \"#utility.yul\":6303:6680   */\n      swap3\n      swap2\n      pop\n      pop\n      jump\t// out\n        /* \"#utility.yul\":6686:6999   */\n    tag_17:\n        /* \"#utility.yul\":6799:6803   */\n      0x00\n        /* \"#utility.yul\":6837:6839   */\n      0x20\n        /* \"#utility.yul\":6826:6835   */\n      dup3\n        /* \"#utility.yul\":6822:6840   */\n      add\n        /* \"#utility.yul\":6814:6840   */\n      swap1\n      pop\n        /* \"#utility.yul\":6886:6895   */\n      dup2\n        /* \"#utility.yul\":6880:6884   */\n      dup2\n        /* \"#utility.yul\":6876:6896   */\n      sub\n        /* \"#utility.yul\":6872:6873   */\n      0x00\n        /* \"#utility.yul\":6861:6870   */\n      dup4\n        /* \"#utility.yul\":6857:6874   */\n      add\n        /* \"#utility.yul\":6850:6897   */\n      mstore\n        /* \"#utility.yul\":6914:6992   */\n      tag_145\n        /* \"#utility.yul\":6987:6991   */\n      dup2\n        /* \"#utility.yul\":6978:6984   */\n      dup5\n        /* \"#utility.yul\":6914:6992   */\n      tag_61\n      jump\t// in\n    tag_145:\n        /* \"#utility.yul\":6906:6992   */\n      swap1\n      pop\n        /* \"#utility.yul\":6686:6999   */\n      swap3\n      swap2\n      pop\n      pop\n      jump\t// out\n        /* \"#utility.yul\":7005:7185   */\n    tag_28:\n        /* \"#utility.yul\":7053:7130   */\n      0x4e487b7100000000000000000000000000000000000000000000000000000000\n        /* \"#utility.yul\":7050:7051   */\n      0x00\n        /* \"#utility.yul\":7043:7131   */\n      mstore\n        /* \"#utility.yul\":7150:7154   */\n      0x32\n        /* \"#utility.yul\":7147:7148   */\n      0x04\n        /* \"#utility.yul\":7140:7155   */\n      mstore\n        /* \"#utility.yul\":7174:7178   */\n      0x24\n        /* \"#utility.yul\":7171:7172   */\n      0x00\n        /* \"#utility.yul\":7164:7179   */\n      revert\n        /* \"#utility.yul\":7191:7371   */\n    tag_62:\n        /* \"#utility.yul\":7239:7316   */\n      0x4e487b7100000000000000000000000000000000000000000000000000000000\n        /* \"#utility.yul\":7236:7237   */\n      0x00\n        /* \"#utility.yul\":7229:7317   */\n      mstore\n        /* \"#utility.yul\":7336:7340   */\n      0x11\n        /* \"#utility.yul\":7333:7334   */\n      0x04\n        /* \"#utility.yul\":7326:7341   */\n      mstore\n        /* \"#utility.yul\":7360:7364   */\n      0x24\n        /* \"#utility.yul\":7357:7358   */\n      0x00\n        /* \"#utility.yul\":7350:7365   */\n      revert\n        /* \"#utility.yul\":7377:7454   */\n    tag_63:\n        /* \"#utility.yul\":7414:7421   */\n      0x00\n        /* \"#utility.yul\":7443:7448   */\n      dup2\n        /* \"#utility.yul\":7432:7448   */\n      swap1\n      pop\n        /* \"#utility.yul\":7377:7454   */\n      swap2\n      swap1\n      pop\n      jump\t// out\n        /* \"#utility.yul\":7460:7693   */\n    tag_31:\n        /* \"#utility.yul\":7499:7502   */\n      0x00\n        /* \"#utility.yul\":7522:7546   */\n      tag_150\n        /* \"#utility.yul\":7540:7545   */\n      dup3\n        /* \"#utility.yul\":7522:7546   */\n      tag_63\n      jump\t// in\n    tag_150:\n        /* \"#utility.yul\":7513:7546   */\n      swap2\n      pop\n        /* \"#utility.yul\":7568:7634   */\n      0xffffffffffffffffffffffffffffffffffffffffffffffffffffffffffffffff\n        /* \"#utility.yul\":7561:7566   */\n      dup3\n        /* \"#utility.yul\":7558:7635   */\n      sub\n        /* \"#utility.yul\":7555:7658   */\n      tag_151\n      jumpi\n        /* \"#utility.yul\":7638:7656   */\n      tag_152\n      tag_62\n      jump\t// in\n    tag_152:\n        /* \"#utility.yul\":7555:7658   */\n    tag_151:\n        /* \"#utility.yul\":7685:7686   */\n      0x01\n        /* \"#utility.yul\":7678:7683   */\n      dup3\n        /* \"#utility.yul\":7674:7687   */\n      add\n        /* \"#utility.yul\":7667:7687   */\n      swap1\n      pop\n        /* \"#utility.yul\":7460:7693   */\n      swap2\n      swap1\n      pop\n      jump\t// out\n        /* \"#utility.yul\":7699:7847   */\n    tag_64:\n        /* \"#utility.yul\":7801:7812   */\n      0x00\n        /* \"#utility.yul\":7838:7841   */\n      dup2\n        /* \"#utility.yul\":7823:7841   */\n      swap1\n      pop\n        /* \"#utility.yul\":7699:7847   */\n      swap3\n      swap2\n      pop\n      pop\n      jump\t// out\n        /* \"#utility.yul\":7853:7999   */\n    tag_65:\n        /* \"#utility.yul\":7950:7956   */\n      dup3\n        /* \"#utility.yul\":7945:7948   */\n      dup2\n        /* \"#utility.yul\":7940:7943   */\n      dup4\n        /* \"#utility.yul\":7927:7957   */\n      calldatacopy\n        /* \"#utility.yul\":7991:7992   */\n      0x00\n        /* \"#utility.yul\":7982:7988   */\n      dup4\n        /* \"#utility.yul\":7977:7980   */\n      dup4\n        /* \"#utility.yul\":7973:7989   */\n      add\n        /* \"#utility.yul\":7966:7993   */\n      mstore\n        /* \"#utility.yul\":7853:7999   */\n      pop\n      pop\n      pop\n      jump\t// out\n        /* \"#utility.yul\":8029:8359   */\n    tag_66:\n        /* \"#utility.yul\":8145:8148   */\n      0x00\n        /* \"#utility.yul\":8166:8255   */\n      tag_156\n        /* \"#utility.yul\":8248:8254   */\n      dup4\n        /* \"#utility.yul\":8243:8246   */\n      dup6\n        /* \"#utility.yul\":8166:8255   */\n      tag_64\n      jump\t// in\n    tag_156:\n        /* \"#utility.yul\":8159:8255   */\n      swap4\n      pop\n        /* \"#utility.yul\":8265:8321   */\n      tag_157\n        /* \"#utility.yul\":8314:8320   */\n      dup4\n        /* \"#utility.yul\":8309:8312   */\n      dup6\n        /* \"#utility.yul\":8302:8307   */\n      dup5\n        /* \"#utility.yul\":8265:8321   */\n      tag_65\n      jump\t// in\n    tag_157:\n        /* \"#utility.yul\":8346:8352   */\n      dup3\n        /* \"#utility.yul\":8341:8344   */\n      dup5\n        /* \"#utility.yul\":8337:8353   */\n      add\n        /* \"#utility.yul\":8330:8353   */\n      swap1\n      pop\n        /* \"#utility.yul\":8029:8359   */\n      swap4\n      swap3\n      pop\n      pop\n      pop\n      jump\t// out\n        /* \"#utility.yul\":8365:8840   */\n    tag_34:\n        /* \"#utility.yul\":8565:8568   */\n      0x00\n        /* \"#utility.yul\":8587:8692   */\n      tag_159\n        /* \"#utility.yul\":8688:8691   */\n      dup3\n        /* \"#utility.yul\":8679:8685   */\n      dup7\n        /* \"#utility.yul\":8671:8677   */\n      dup9\n        /* \"#utility.yul\":8587:8692   */\n      tag_66\n      jump\t// in\n    tag_159:\n        /* \"#utility.yul\":8580:8692   */\n      swap2\n      pop\n        /* \"#utility.yul\":8709:8814   */\n      tag_160\n        /* \"#utility.yul\":8810:8813   */\n      dup3\n        /* \"#utility.yul\":8801:8807   */\n      dup5\n        /* \"#utility.yul\":8793:8799   */\n      dup7\n        /* \"#utility.yul\":8709:8814   */\n      tag_66\n      jump\t// in\n    tag_160:\n        /* \"#utility.yul\":8702:8814   */\n      swap2\n      pop\n        /* \"#utility.yul\":8831:8834   */\n      dup2\n        /* \"#utility.yul\":8824:8834   */\n      swap1\n      pop\n        /* \"#utility.yul\":8365:8840   */\n      swap6\n      swap5\n      pop\n      pop\n      pop\n      pop\n      pop\n      jump\t// out\n        /* \"#utility.yul\":8846:9141   */\n    tag_37:\n        /* \"#utility.yul\":8988:8991   */\n      0x00\n        /* \"#utility.yul\":9010:9115   */\n      tag_162\n        /* \"#utility.yul\":9111:9114   */\n      dup3\n        /* \"#utility.yul\":9102:9108   */\n      dup5\n        /* \"#utility.yul\":9094:9100   */\n      dup7\n        /* \"#utility.yul\":9010:9115   */\n      tag_66\n      jump\t// in\n    tag_162:\n        /* \"#utility.yul\":9003:9115   */\n      swap2\n      pop\n        /* \"#utility.yul\":9132:9135   */\n      dup2\n        /* \"#utility.yul\":9125:9135   */\n      swap1\n      pop\n        /* \"#utility.yul\":8846:9141   */\n      swap4\n      swap3\n      pop\n      pop\n      pop\n      jump\t// out\n\n    auxdata: 0xa2646970667358221220f271113ec8a905e086dea9b394b21d39b4b8e745efdb3ba5d787b1c645a9683064736f6c63430008110033\n}\n",
				"bytecode": {
					"linkReferences": {},
					"object": "608060405234801561001057600080fd5b506106d2806100206000396000f3fe608060405234801561001057600080fd5b50600436106100415760003560e01c8063094825b9146100465780634309fba714610076578063f9cb5bd8146100a6575b600080fd5b610060600480360381019061005b919061035d565b6100d6565b60405161006d91906103d4565b60405180910390f35b610090600480360381019061008b919061044a565b610129565b60405161009d919061054a565b60405180910390f35b6100c060048036038101906100bb919061044a565b61015b565b6040516100cd91906103d4565b60405180910390f35b60008060005b835181101561011e57848482815181106100f9576100f861056c565b5b60200260200101510361010b57600191505b8080610116906105d4565b9150506100dc565b508091505092915050565b606084848484604051602001610142949392919061065b565b6040516020818303038152906040529050949350505050565b60008282604051602001610170929190610683565b604051602081830303815290604052805190602001208585604051602001610199929190610683565b60405160208183030381529060405280519060200120149050949350505050565b6000604051905090565b600080fd5b600080fd5b6000819050919050565b6101e1816101ce565b81146101ec57600080fd5b50565b6000813590506101fe816101d8565b92915050565b600080fd5b6000601f19601f8301169050919050565b7f4e487b7100000000000000000000000000000000000000000000000000000000600052604160045260246000fd5b61025282610209565b810181811067ffffffffffffffff821117156102715761027061021a565b5b80604052505050565b60006102846101ba565b90506102908282610249565b919050565b600067ffffffffffffffff8211156102b0576102af61021a565b5b602082029050602081019050919050565b600080fd5b60006102d96102d484610295565b61027a565b905080838252602082019050602084028301858111156102fc576102fb6102c1565b5b835b81811015610325578061031188826101ef565b8452602084019350506020810190506102fe565b5050509392505050565b600082601f83011261034457610343610204565b5b81356103548482602086016102c6565b91505092915050565b60008060408385031215610374576103736101c4565b5b6000610382858286016101ef565b925050602083013567ffffffffffffffff8111156103a3576103a26101c9565b5b6103af8582860161032f565b9150509250929050565b60008115159050919050565b6103ce816103b9565b82525050565b60006020820190506103e960008301846103c5565b92915050565b600080fd5b60008083601f84011261040a57610409610204565b5b8235905067ffffffffffffffff811115610427576104266103ef565b5b602083019150836001820283011115610443576104426102c1565b5b9250929050565b60008060008060408587031215610464576104636101c4565b5b600085013567ffffffffffffffff811115610482576104816101c9565b5b61048e878288016103f4565b9450945050602085013567ffffffffffffffff8111156104b1576104b06101c9565b5b6104bd878288016103f4565b925092505092959194509250565b600081519050919050565b600082825260208201905092915050565b60005b838110156105055780820151818401526020810190506104ea565b60008484015250505050565b600061051c826104cb565b61052681856104d6565b93506105368185602086016104e7565b61053f81610209565b840191505092915050565b600060208201905081810360008301526105648184610511565b905092915050565b7f4e487b7100000000000000000000000000000000000000000000000000000000600052603260045260246000fd5b7f4e487b7100000000000000000000000000000000000000000000000000000000600052601160045260246000fd5b6000819050919050565b60006105df826105ca565b91507fffffffffffffffffffffffffffffffffffffffffffffffffffffffffffffffff82036106115761061061059b565b5b600182019050919050565b600081905092915050565b82818337600083830152505050565b6000610642838561061c565b935061064f838584610627565b82840190509392505050565b6000610668828688610636565b9150610675828486610636565b915081905095945050505050565b6000610690828486610636565b9150819050939250505056fea2646970667358221220f271113ec8a905e086dea9b394b21d39b4b8e745efdb3ba5d787b1c645a9683064736f6c63430008110033",
					"opcodes": "PUSH1 0x80 PUSH1 0x40 MSTORE CALLVALUE DUP1 ISZERO PUSH2 0x10 JUMPI PUSH1 0x0 DUP1 REVERT JUMPDEST POP PUSH2 0x6D2 DUP1 PUSH2 0x20 PUSH1 0x0 CODECOPY PUSH1 0x0 RETURN INVALID PUSH1 0x80 PUSH1 0x40 MSTORE CALLVALUE DUP1 ISZERO PUSH2 0x10 JUMPI PUSH1 0x0 DUP1 REVERT JUMPDEST POP PUSH1 0x4 CALLDATASIZE LT PUSH2 0x41 JUMPI PUSH1 0x0 CALLDATALOAD PUSH1 0xE0 SHR DUP1 PUSH4 0x94825B9 EQ PUSH2 0x46 JUMPI DUP1 PUSH4 0x4309FBA7 EQ PUSH2 0x76 JUMPI DUP1 PUSH4 0xF9CB5BD8 EQ PUSH2 0xA6 JUMPI JUMPDEST PUSH1 0x0 DUP1 REVERT JUMPDEST PUSH2 0x60 PUSH1 0x4 DUP1 CALLDATASIZE SUB DUP2 ADD SWAP1 PUSH2 0x5B SWAP2 SWAP1 PUSH2 0x35D JUMP JUMPDEST PUSH2 0xD6 JUMP JUMPDEST PUSH1 0x40 MLOAD PUSH2 0x6D SWAP2 SWAP1 PUSH2 0x3D4 JUMP JUMPDEST PUSH1 0x40 MLOAD DUP1 SWAP2 SUB SWAP1 RETURN JUMPDEST PUSH2 0x90 PUSH1 0x4 DUP1 CALLDATASIZE SUB DUP2 ADD SWAP1 PUSH2 0x8B SWAP2 SWAP1 PUSH2 0x44A JUMP JUMPDEST PUSH2 0x129 JUMP JUMPDEST PUSH1 0x40 MLOAD PUSH2 0x9D SWAP2 SWAP1 PUSH2 0x54A JUMP JUMPDEST PUSH1 0x40 MLOAD DUP1 SWAP2 SUB SWAP1 RETURN JUMPDEST PUSH2 0xC0 PUSH1 0x4 DUP1 CALLDATASIZE SUB DUP2 ADD SWAP1 PUSH2 0xBB SWAP2 SWAP1 PUSH2 0x44A JUMP JUMPDEST PUSH2 0x15B JUMP JUMPDEST PUSH1 0x40 MLOAD PUSH2 0xCD SWAP2 SWAP1 PUSH2 0x3D4 JUMP JUMPDEST PUSH1 0x40 MLOAD DUP1 SWAP2 SUB SWAP1 RETURN JUMPDEST PUSH1 0x0 DUP1 PUSH1 0x0 JUMPDEST DUP4 MLOAD DUP2 LT ISZERO PUSH2 0x11E JUMPI DUP5 DUP5 DUP3 DUP2 MLOAD DUP2 LT PUSH2 0xF9 JUMPI PUSH2 0xF8 PUSH2 0x56C JUMP JUMPDEST JUMPDEST PUSH1 0x20 MUL PUSH1 0x20 ADD ADD MLOAD SUB PUSH2 0x10B JUMPI PUSH1 0x1 SWAP2 POP JUMPDEST DUP1 DUP1 PUSH2 0x116 SWAP1 PUSH2 0x5D4 JUMP JUMPDEST SWAP2 POP POP PUSH2 0xDC JUMP JUMPDEST POP DUP1 SWAP2 POP POP SWAP3 SWAP2 POP POP JUMP JUMPDEST PUSH1 0x60 DUP5 DUP5 DUP5 DUP5 PUSH1 0x40 MLOAD PUSH1 0x20 ADD PUSH2 0x142 SWAP5 SWAP4 SWAP3 SWAP2 SWAP1 PUSH2 0x65B JUMP JUMPDEST PUSH1 0x40 MLOAD PUSH1 0x20 DUP2 DUP4 SUB SUB DUP2 MSTORE SWAP1 PUSH1 0x40 MSTORE SWAP1 POP SWAP5 SWAP4 POP POP POP POP JUMP JUMPDEST PUSH1 0x0 DUP3 DUP3 PUSH1 0x40 MLOAD PUSH1 0x20 ADD PUSH2 0x170 SWAP3 SWAP2 SWAP1 PUSH2 0x683 JUMP JUMPDEST PUSH1 0x40 MLOAD PUSH1 0x20 DUP2 DUP4 SUB SUB DUP2 MSTORE SWAP1 PUSH1 0x40 MSTORE DUP1 MLOAD SWAP1 PUSH1 0x20 ADD KECCAK256 DUP6 DUP6 PUSH1 0x40 MLOAD PUSH1 0x20 ADD PUSH2 0x199 SWAP3 SWAP2 SWAP1 PUSH2 0x683 JUMP JUMPDEST PUSH1 0x40 MLOAD PUSH1 0x20 DUP2 DUP4 SUB SUB DUP2 MSTORE SWAP1 PUSH1 0x40 MSTORE DUP1 MLOAD SWAP1 PUSH1 0x20 ADD KECCAK256 EQ SWAP1 POP SWAP5 SWAP4 POP POP POP POP JUMP JUMPDEST PUSH1 0x0 PUSH1 0x40 MLOAD SWAP1 POP SWAP1 JUMP JUMPDEST PUSH1 0x0 DUP1 REVERT JUMPDEST PUSH1 0x0 DUP1 REVERT JUMPDEST PUSH1 0x0 DUP2 SWAP1 POP SWAP2 SWAP1 POP JUMP JUMPDEST PUSH2 0x1E1 DUP2 PUSH2 0x1CE JUMP JUMPDEST DUP2 EQ PUSH2 0x1EC JUMPI PUSH1 0x0 DUP1 REVERT JUMPDEST POP JUMP JUMPDEST PUSH1 0x0 DUP2 CALLDATALOAD SWAP1 POP PUSH2 0x1FE DUP2 PUSH2 0x1D8 JUMP JUMPDEST SWAP3 SWAP2 POP POP JUMP JUMPDEST PUSH1 0x0 DUP1 REVERT JUMPDEST PUSH1 0x0 PUSH1 0x1F NOT PUSH1 0x1F DUP4 ADD AND SWAP1 POP SWAP2 SWAP1 POP JUMP JUMPDEST PUSH32 0x4E487B7100000000000000000000000000000000000000000000000000000000 PUSH1 0x0 MSTORE PUSH1 0x41 PUSH1 0x4 MSTORE PUSH1 0x24 PUSH1 0x0 REVERT JUMPDEST PUSH2 0x252 DUP3 PUSH2 0x209 JUMP JUMPDEST DUP2 ADD DUP2 DUP2 LT PUSH8 0xFFFFFFFFFFFFFFFF DUP3 GT OR ISZERO PUSH2 0x271 JUMPI PUSH2 0x270 PUSH2 0x21A JUMP JUMPDEST JUMPDEST DUP1 PUSH1 0x40 MSTORE POP POP POP JUMP JUMPDEST PUSH1 0x0 PUSH2 0x284 PUSH2 0x1BA JUMP JUMPDEST SWAP1 POP PUSH2 0x290 DUP3 DUP3 PUSH2 0x249 JUMP JUMPDEST SWAP2 SWAP1 POP JUMP JUMPDEST PUSH1 0x0 PUSH8 0xFFFFFFFFFFFFFFFF DUP3 GT ISZERO PUSH2 0x2B0 JUMPI PUSH2 0x2AF PUSH2 0x21A JUMP JUMPDEST JUMPDEST PUSH1 0x20 DUP3 MUL SWAP1 POP PUSH1 0x20 DUP2 ADD SWAP1 POP SWAP2 SWAP1 POP JUMP JUMPDEST PUSH1 0x0 DUP1 REVERT JUMPDEST PUSH1 0x0 PUSH2 0x2D9 PUSH2 0x2D4 DUP5 PUSH2 0x295 JUMP JUMPDEST PUSH2 0x27A JUMP JUMPDEST SWAP1 POP DUP1 DUP4 DUP3 MSTORE PUSH1 0x20 DUP3 ADD SWAP1 POP PUSH1 0x20 DUP5 MUL DUP4 ADD DUP6 DUP2 GT ISZERO PUSH2 0x2FC JUMPI PUSH2 0x2FB PUSH2 0x2C1 JUMP JUMPDEST JUMPDEST DUP4 JUMPDEST DUP2 DUP2 LT ISZERO PUSH2 0x325 JUMPI DUP1 PUSH2 0x311 DUP9 DUP3 PUSH2 0x1EF JUMP JUMPDEST DUP5 MSTORE PUSH1 0x20 DUP5 ADD SWAP4 POP POP PUSH1 0x20 DUP2 ADD SWAP1 POP PUSH2 0x2FE JUMP JUMPDEST POP POP POP SWAP4 SWAP3 POP POP POP JUMP JUMPDEST PUSH1 0x0 DUP3 PUSH1 0x1F DUP4 ADD SLT PUSH2 0x344 JUMPI PUSH2 0x343 PUSH2 0x204 JUMP JUMPDEST JUMPDEST DUP2 CALLDATALOAD PUSH2 0x354 DUP5 DUP3 PUSH1 0x20 DUP7 ADD PUSH2 0x2C6 JUMP JUMPDEST SWAP2 POP POP SWAP3 SWAP2 POP POP JUMP JUMPDEST PUSH1 0x0 DUP1 PUSH1 0x40 DUP4 DUP6 SUB SLT ISZERO PUSH2 0x374 JUMPI PUSH2 0x373 PUSH2 0x1C4 JUMP JUMPDEST JUMPDEST PUSH1 0x0 PUSH2 0x382 DUP6 DUP3 DUP7 ADD PUSH2 0x1EF JUMP JUMPDEST SWAP3 POP POP PUSH1 0x20 DUP4 ADD CALLDATALOAD PUSH8 0xFFFFFFFFFFFFFFFF DUP2 GT ISZERO PUSH2 0x3A3 JUMPI PUSH2 0x3A2 PUSH2 0x1C9 JUMP JUMPDEST JUMPDEST PUSH2 0x3AF DUP6 DUP3 DUP7 ADD PUSH2 0x32F JUMP JUMPDEST SWAP2 POP POP SWAP3 POP SWAP3 SWAP1 POP JUMP JUMPDEST PUSH1 0x0 DUP2 ISZERO ISZERO SWAP1 POP SWAP2 SWAP1 POP JUMP JUMPDEST PUSH2 0x3CE DUP2 PUSH2 0x3B9 JUMP JUMPDEST DUP3 MSTORE POP POP JUMP JUMPDEST PUSH1 0x0 PUSH1 0x20 DUP3 ADD SWAP1 POP PUSH2 0x3E9 PUSH1 0x0 DUP4 ADD DUP5 PUSH2 0x3C5 JUMP JUMPDEST SWAP3 SWAP2 POP POP JUMP JUMPDEST PUSH1 0x0 DUP1 REVERT JUMPDEST PUSH1 0x0 DUP1 DUP4 PUSH1 0x1F DUP5 ADD SLT PUSH2 0x40A JUMPI PUSH2 0x409 PUSH2 0x204 JUMP JUMPDEST JUMPDEST DUP3 CALLDATALOAD SWAP1 POP PUSH8 0xFFFFFFFFFFFFFFFF DUP2 GT ISZERO PUSH2 0x427 JUMPI PUSH2 0x426 PUSH2 0x3EF JUMP JUMPDEST JUMPDEST PUSH1 0x20 DUP4 ADD SWAP2 POP DUP4 PUSH1 0x1 DUP3 MUL DUP4 ADD GT ISZERO PUSH2 0x443 JUMPI PUSH2 0x442 PUSH2 0x2C1 JUMP JUMPDEST JUMPDEST SWAP3 POP SWAP3 SWAP1 POP JUMP JUMPDEST PUSH1 0x0 DUP1 PUSH1 0x0 DUP1 PUSH1 0x40 DUP6 DUP8 SUB SLT ISZERO PUSH2 0x464 JUMPI PUSH2 0x463 PUSH2 0x1C4 JUMP JUMPDEST JUMPDEST PUSH1 0x0 DUP6 ADD CALLDATALOAD PUSH8 0xFFFFFFFFFFFFFFFF DUP2 GT ISZERO PUSH2 0x482 JUMPI PUSH2 0x481 PUSH2 0x1C9 JUMP JUMPDEST JUMPDEST PUSH2 0x48E DUP8 DUP3 DUP9 ADD PUSH2 0x3F4 JUMP JUMPDEST SWAP5 POP SWAP5 POP POP PUSH1 0x20 DUP6 ADD CALLDATALOAD PUSH8 0xFFFFFFFFFFFFFFFF DUP2 GT ISZERO PUSH2 0x4B1 JUMPI PUSH2 0x4B0 PUSH2 0x1C9 JUMP JUMPDEST JUMPDEST PUSH2 0x4BD DUP8 DUP3 DUP9 ADD PUSH2 0x3F4 JUMP JUMPDEST SWAP3 POP SWAP3 POP POP SWAP3 SWAP6 SWAP2 SWAP5 POP SWAP3 POP JUMP JUMPDEST PUSH1 0x0 DUP2 MLOAD SWAP1 POP SWAP2 SWAP1 POP JUMP JUMPDEST PUSH1 0x0 DUP3 DUP3 MSTORE PUSH1 0x20 DUP3 ADD SWAP1 POP SWAP3 SWAP2 POP POP JUMP JUMPDEST PUSH1 0x0 JUMPDEST DUP4 DUP2 LT ISZERO PUSH2 0x505 JUMPI DUP1 DUP3 ADD MLOAD DUP2 DUP5 ADD MSTORE PUSH1 0x20 DUP2 ADD SWAP1 POP PUSH2 0x4EA JUMP JUMPDEST PUSH1 0x0 DUP5 DUP5 ADD MSTORE POP POP POP POP JUMP JUMPDEST PUSH1 0x0 PUSH2 0x51C DUP3 PUSH2 0x4CB JUMP JUMPDEST PUSH2 0x526 DUP2 DUP6 PUSH2 0x4D6 JUMP JUMPDEST SWAP4 POP PUSH2 0x536 DUP2 DUP6 PUSH1 0x20 DUP7 ADD PUSH2 0x4E7 JUMP JUMPDEST PUSH2 0x53F DUP2 PUSH2 0x209 JUMP JUMPDEST DUP5 ADD SWAP2 POP POP SWAP3 SWAP2 POP POP JUMP JUMPDEST PUSH1 0x0 PUSH1 0x20 DUP3 ADD SWAP1 POP DUP2 DUP2 SUB PUSH1 0x0 DUP4 ADD MSTORE PUSH2 0x564 DUP2 DUP5 PUSH2 0x511 JUMP JUMPDEST SWAP1 POP SWAP3 SWAP2 POP POP JUMP JUMPDEST PUSH32 0x4E487B7100000000000000000000000000000000000000000000000000000000 PUSH1 0x0 MSTORE PUSH1 0x32 PUSH1 0x4 MSTORE PUSH1 0x24 PUSH1 0x0 REVERT JUMPDEST PUSH32 0x4E487B7100000000000000000000000000000000000000000000000000000000 PUSH1 0x0 MSTORE PUSH1 0x11 PUSH1 0x4 MSTORE PUSH1 0x24 PUSH1 0x0 REVERT JUMPDEST PUSH1 0x0 DUP2 SWAP1 POP SWAP2 SWAP1 POP JUMP JUMPDEST PUSH1 0x0 PUSH2 0x5DF DUP3 PUSH2 0x5CA JUMP JUMPDEST SWAP2 POP PUSH32 0xFFFFFFFFFFFFFFFFFFFFFFFFFFFFFFFFFFFFFFFFFFFFFFFFFFFFFFFFFFFFFFFF DUP3 SUB PUSH2 0x611 JUMPI PUSH2 0x610 PUSH2 0x59B JUMP JUMPDEST JUMPDEST PUSH1 0x1 DUP3 ADD SWAP1 POP SWAP2 SWAP1 POP JUMP JUMPDEST PUSH1 0x0 DUP2 SWAP1 POP SWAP3 SWAP2 POP POP JUMP JUMPDEST DUP3 DUP2 DUP4 CALLDATACOPY PUSH1 0x0 DUP4 DUP4 ADD MSTORE POP POP POP JUMP JUMPDEST PUSH1 0x0 PUSH2 0x642 DUP4 DUP6 PUSH2 0x61C JUMP JUMPDEST SWAP4 POP PUSH2 0x64F DUP4 DUP6 DUP5 PUSH2 0x627 JUMP JUMPDEST DUP3 DUP5 ADD SWAP1 POP SWAP4 SWAP3 POP POP POP JUMP JUMPDEST PUSH1 0x0 PUSH2 0x668 DUP3 DUP7 DUP9 PUSH2 0x636 JUMP JUMPDEST SWAP2 POP PUSH2 0x675 DUP3 DUP5 DUP7 PUSH2 0x636 JUMP JUMPDEST SWAP2 POP DUP2 SWAP1 POP SWAP6 SWAP5 POP POP POP POP POP JUMP JUMPDEST PUSH1 0x0 PUSH2 0x690 DUP3 DUP5 DUP7 PUSH2 0x636 JUMP JUMPDEST SWAP2 POP DUP2 SWAP1 POP SWAP4 SWAP3 POP POP POP JUMP INVALID LOG2 PUSH5 0x6970667358 0x22 SLT KECCAK256 CALLCODE PUSH18 0x113EC8A905E086DEA9B394B21D39B4B8E745 0xEF 0xDB EXTCODESIZE 0xA5 0xD7 DUP8 0xB1 0xC6 GASLIMIT 0xA9 PUSH9 0x3064736F6C63430008 GT STOP CALLER "
				},
				"gasEstimates": {
					"creation": {
						"codeDepositCost": "349200",
						"executionCost": "386",
						"totalCost": "349586"
					},
					"external": {
						"compare2Strings(string,string)": "infinite",
						"concat2Strings(string,string)": "infinite",
						"find(int256,int256[])": "infinite"
					}
				},
				"methodIdentifiers": {
					"compare2Strings(string,string)": "f9cb5bd8",
					"concat2Strings(string,string)": "4309fba7",
					"find(int256,int256[])": "094825b9"
				}
			},
			"storageLayout": {
				"storage": [],
				"types": null
			},
			"userdoc": {
				"kind": "user",
				"methods": {},
				"version": 1
			}
		}
	}
}