{
	"contracts/revision/object.sol": {
		"Book1": {
			"abi": [
				{
					"inputs": [],
					"name": "a",
					"outputs": [
						{
							"internalType": "uint256",
							"name": "",
							"type": "uint256"
						}
					],
					"stateMutability": "view",
					"type": "function"
				},
				{
					"inputs": [
						{
							"internalType": "uint256",
							"name": "_a",
							"type": "uint256"
						},
						{
							"internalType": "uint256",
							"name": "_b",
							"type": "uint256"
						}
					],
					"name": "aPoly",
					"outputs": [
						{
							"internalType": "uint256",
							"name": "",
							"type": "uint256"
						}
					],
					"stateMutability": "view",
					"type": "function"
				}
			],
			"devdoc": {
				"kind": "dev",
				"methods": {},
				"version": 1
			},
			"evm": {
				"assembly": "    /* \"contracts/revision/object.sol\":303:593  contract Book1 {... */\n  mstore(0x40, 0x80)\n    /* \"contracts/revision/object.sol\":338:348  new Book() */\n  mload(0x40)\n  tag_1\n  swap1\n  tag_2\n  jump\t// in\ntag_1:\n  mload(0x40)\n  dup1\n  swap2\n  sub\n  swap1\n  0x00\n  create\n  dup1\n  iszero\n  dup1\n  iszero\n  tag_3\n  jumpi\n  returndatasize\n  0x00\n  dup1\n  returndatacopy\n  revert(0x00, returndatasize)\ntag_3:\n  pop\n    /* \"contracts/revision/object.sol\":324:348  Book mybook = new Book() */\n  0x00\n  dup1\n  0x0100\n  exp\n  dup2\n  sload\n  dup2\n  0xffffffffffffffffffffffffffffffffffffffff\n  mul\n  not\n  and\n  swap1\n  dup4\n  0xffffffffffffffffffffffffffffffffffffffff\n  and\n  mul\n  or\n  swap1\n  sstore\n  pop\n    /* \"contracts/revision/object.sol\":368:378  new Poly() */\n  mload(0x40)\n  tag_4\n  swap1\n  tag_5\n  jump\t// in\ntag_4:\n  mload(0x40)\n  dup1\n  swap2\n  sub\n  swap1\n  0x00\n  create\n  dup1\n  iszero\n  dup1\n  iszero\n  tag_6\n  jumpi\n  returndatasize\n  0x00\n  dup1\n  returndatacopy\n  revert(0x00, returndatasize)\ntag_6:\n  pop\n    /* \"contracts/revision/object.sol\":354:378  Poly myPoly = new Poly() */\n  0x01\n  exp(0x0100, 0x00)\n  dup2\n  sload\n  dup2\n  0xffffffffffffffffffffffffffffffffffffffff\n  mul\n  not\n  and\n  swap1\n  dup4\n  0xffffffffffffffffffffffffffffffffffffffff\n  and\n  mul\n  or\n  swap1\n  sstore\n  pop\n    /* \"contracts/revision/object.sol\":303:593  contract Book1 {... */\n  callvalue\n  dup1\n  iszero\n  tag_7\n  jumpi\n  0x00\n  dup1\n  revert\ntag_7:\n  pop\n  jump(tag_8)\ntag_2:\n  dataSize(sub_1)\n  dup1\n  dataOffset(sub_1)\n  dup4\n  codecopy\n  add\n  swap1\n  jump\t// out\ntag_5:\n  dataSize(sub_2)\n  dup1\n  dataOffset(sub_2)\n  dup4\n  codecopy\n  add\n  swap1\n  jump\t// out\ntag_8:\n  dataSize(sub_0)\n  dup1\n  dataOffset(sub_0)\n  0x00\n  codecopy\n  0x00\n  return\nstop\n\nsub_0: assembly {\n        /* \"contracts/revision/object.sol\":303:593  contract Book1 {... */\n      mstore(0x40, 0x80)\n      callvalue\n      dup1\n      iszero\n      tag_1\n      jumpi\n      0x00\n      dup1\n      revert\n    tag_1:\n      pop\n      jumpi(tag_2, lt(calldatasize, 0x04))\n      shr(0xe0, calldataload(0x00))\n      dup1\n      0x0dbe671f\n      eq\n      tag_3\n      jumpi\n      dup1\n      0x62dda2ac\n      eq\n      tag_4\n      jumpi\n    tag_2:\n      0x00\n      dup1\n      revert\n        /* \"contracts/revision/object.sol\":385:472  function a() external view returns (uint256) {... */\n    tag_3:\n      tag_5\n      tag_6\n      jump\t// in\n    tag_5:\n      mload(0x40)\n      tag_7\n      swap2\n      swap1\n      tag_8\n      jump\t// in\n    tag_7:\n      mload(0x40)\n      dup1\n      swap2\n      sub\n      swap1\n      return\n        /* \"contracts/revision/object.sol\":478:591  function aPoly(uint256 _a, uint256 _b) external view returns (uint256) {... */\n    tag_4:\n      tag_9\n      0x04\n      dup1\n      calldatasize\n      sub\n      dup2\n      add\n      swap1\n      tag_10\n      swap2\n      swap1\n      tag_11\n      jump\t// in\n    tag_10:\n      tag_12\n      jump\t// in\n    tag_9:\n      mload(0x40)\n      tag_13\n      swap2\n      swap1\n      tag_8\n      jump\t// in\n    tag_13:\n      mload(0x40)\n      dup1\n      swap2\n      sub\n      swap1\n      return\n        /* \"contracts/revision/object.sol\":385:472  function a() external view returns (uint256) {... */\n    tag_6:\n        /* \"contracts/revision/object.sol\":421:428  uint256 */\n      0x00\n        /* \"contracts/revision/object.sol\":447:453  mybook */\n      dup1\n      0x00\n      swap1\n      sload\n      swap1\n      0x0100\n      exp\n      swap1\n      div\n      0xffffffffffffffffffffffffffffffffffffffff\n      and\n        /* \"contracts/revision/object.sol\":447:463  mybook.getLength */\n      0xffffffffffffffffffffffffffffffffffffffff\n      and\n      0xbe1c766b\n        /* \"contracts/revision/object.sol\":447:465  mybook.getLength() */\n      mload(0x40)\n      dup2\n      0xffffffff\n      and\n      0xe0\n      shl\n      dup2\n      mstore\n      0x04\n      add\n      0x20\n      mload(0x40)\n      dup1\n      dup4\n      sub\n      dup2\n      dup7\n      gas\n      staticcall\n      iszero\n      dup1\n      iszero\n      tag_16\n      jumpi\n      returndatasize\n      0x00\n      dup1\n      returndatacopy\n      revert(0x00, returndatasize)\n    tag_16:\n      pop\n      pop\n      pop\n      pop\n      mload(0x40)\n      returndatasize\n      not(0x1f)\n      0x1f\n      dup3\n      add\n      and\n      dup3\n      add\n      dup1\n      0x40\n      mstore\n      pop\n      dup2\n      add\n      swap1\n      tag_17\n      swap2\n      swap1\n      tag_18\n      jump\t// in\n    tag_17:\n        /* \"contracts/revision/object.sol\":440:465  return mybook.getLength() */\n      swap1\n      pop\n        /* \"contracts/revision/object.sol\":385:472  function a() external view returns (uint256) {... */\n      swap1\n      jump\t// out\n        /* \"contracts/revision/object.sol\":478:591  function aPoly(uint256 _a, uint256 _b) external view returns (uint256) {... */\n    tag_12:\n        /* \"contracts/revision/object.sol\":540:547  uint256 */\n      0x00\n        /* \"contracts/revision/object.sol\":566:572  myPoly */\n      0x01\n      0x00\n      swap1\n      sload\n      swap1\n      0x0100\n      exp\n      swap1\n      div\n      0xffffffffffffffffffffffffffffffffffffffff\n      and\n        /* \"contracts/revision/object.sol\":566:576  myPoly.add */\n      0xffffffffffffffffffffffffffffffffffffffff\n      and\n      0x771602f7\n        /* \"contracts/revision/object.sol\":577:579  _a */\n      dup5\n        /* \"contracts/revision/object.sol\":581:583  _b */\n      dup5\n        /* \"contracts/revision/object.sol\":566:584  myPoly.add(_a, _b) */\n      mload(0x40)\n      dup4\n      0xffffffff\n      and\n      0xe0\n      shl\n      dup2\n      mstore\n      0x04\n      add\n      tag_20\n      swap3\n      swap2\n      swap1\n      tag_21\n      jump\t// in\n    tag_20:\n      0x20\n      mload(0x40)\n      dup1\n      dup4\n      sub\n      dup2\n      dup7\n      gas\n      staticcall\n      iszero\n      dup1\n      iszero\n      tag_23\n      jumpi\n      returndatasize\n      0x00\n      dup1\n      returndatacopy\n      revert(0x00, returndatasize)\n    tag_23:\n      pop\n      pop\n      pop\n      pop\n      mload(0x40)\n      returndatasize\n      not(0x1f)\n      0x1f\n      dup3\n      add\n      and\n      dup3\n      add\n      dup1\n      0x40\n      mstore\n      pop\n      dup2\n      add\n      swap1\n      tag_24\n      swap2\n      swap1\n      tag_18\n      jump\t// in\n    tag_24:\n        /* \"contracts/revision/object.sol\":559:584  return myPoly.add(_a, _b) */\n      swap1\n      pop\n        /* \"contracts/revision/object.sol\":478:591  function aPoly(uint256 _a, uint256 _b) external view returns (uint256) {... */\n      swap3\n      swap2\n      pop\n      pop\n      jump\t// out\n        /* \"#utility.yul\":7:84   */\n    tag_25:\n        /* \"#utility.yul\":44:51   */\n      0x00\n        /* \"#utility.yul\":73:78   */\n      dup2\n        /* \"#utility.yul\":62:78   */\n      swap1\n      pop\n        /* \"#utility.yul\":7:84   */\n      swap2\n      swap1\n      pop\n      jump\t// out\n        /* \"#utility.yul\":90:208   */\n    tag_26:\n        /* \"#utility.yul\":177:201   */\n      tag_36\n        /* \"#utility.yul\":195:200   */\n      dup2\n        /* \"#utility.yul\":177:201   */\n      tag_25\n      jump\t// in\n    tag_36:\n        /* \"#utility.yul\":172:175   */\n      dup3\n        /* \"#utility.yul\":165:202   */\n      mstore\n        /* \"#utility.yul\":90:208   */\n      pop\n      pop\n      jump\t// out\n        /* \"#utility.yul\":214:436   */\n    tag_8:\n        /* \"#utility.yul\":307:311   */\n      0x00\n        /* \"#utility.yul\":345:347   */\n      0x20\n        /* \"#utility.yul\":334:343   */\n      dup3\n        /* \"#utility.yul\":330:348   */\n      add\n        /* \"#utility.yul\":322:348   */\n      swap1\n      pop\n        /* \"#utility.yul\":358:429   */\n      tag_38\n        /* \"#utility.yul\":426:427   */\n      0x00\n        /* \"#utility.yul\":415:424   */\n      dup4\n        /* \"#utility.yul\":411:428   */\n      add\n        /* \"#utility.yul\":402:408   */\n      dup5\n        /* \"#utility.yul\":358:429   */\n      tag_26\n      jump\t// in\n    tag_38:\n        /* \"#utility.yul\":214:436   */\n      swap3\n      swap2\n      pop\n      pop\n      jump\t// out\n        /* \"#utility.yul\":523:640   */\n    tag_28:\n        /* \"#utility.yul\":632:633   */\n      0x00\n        /* \"#utility.yul\":629:630   */\n      dup1\n        /* \"#utility.yul\":622:634   */\n      revert\n        /* \"#utility.yul\":769:891   */\n    tag_30:\n        /* \"#utility.yul\":842:866   */\n      tag_43\n        /* \"#utility.yul\":860:865   */\n      dup2\n        /* \"#utility.yul\":842:866   */\n      tag_25\n      jump\t// in\n    tag_43:\n        /* \"#utility.yul\":835:840   */\n      dup2\n        /* \"#utility.yul\":832:867   */\n      eq\n        /* \"#utility.yul\":822:885   */\n      tag_44\n      jumpi\n        /* \"#utility.yul\":881:882   */\n      0x00\n        /* \"#utility.yul\":878:879   */\n      dup1\n        /* \"#utility.yul\":871:883   */\n      revert\n        /* \"#utility.yul\":822:885   */\n    tag_44:\n        /* \"#utility.yul\":769:891   */\n      pop\n      jump\t// out\n        /* \"#utility.yul\":897:1036   */\n    tag_31:\n        /* \"#utility.yul\":943:948   */\n      0x00\n        /* \"#utility.yul\":981:987   */\n      dup2\n        /* \"#utility.yul\":968:988   */\n      calldataload\n        /* \"#utility.yul\":959:988   */\n      swap1\n      pop\n        /* \"#utility.yul\":997:1030   */\n      tag_46\n        /* \"#utility.yul\":1024:1029   */\n      dup2\n        /* \"#utility.yul\":997:1030   */\n      tag_30\n      jump\t// in\n    tag_46:\n        /* \"#utility.yul\":897:1036   */\n      swap3\n      swap2\n      pop\n      pop\n      jump\t// out\n        /* \"#utility.yul\":1042:1516   */\n    tag_11:\n        /* \"#utility.yul\":1110:1116   */\n      0x00\n        /* \"#utility.yul\":1118:1124   */\n      dup1\n        /* \"#utility.yul\":1167:1169   */\n      0x40\n        /* \"#utility.yul\":1155:1164   */\n      dup4\n        /* \"#utility.yul\":1146:1153   */\n      dup6\n        /* \"#utility.yul\":1142:1165   */\n      sub\n        /* \"#utility.yul\":1138:1170   */\n      slt\n        /* \"#utility.yul\":1135:1254   */\n      iszero\n      tag_48\n      jumpi\n        /* \"#utility.yul\":1173:1252   */\n      tag_49\n      tag_28\n      jump\t// in\n    tag_49:\n        /* \"#utility.yul\":1135:1254   */\n    tag_48:\n        /* \"#utility.yul\":1293:1294   */\n      0x00\n        /* \"#utility.yul\":1318:1371   */\n      tag_50\n        /* \"#utility.yul\":1363:1370   */\n      dup6\n        /* \"#utility.yul\":1354:1360   */\n      dup3\n        /* \"#utility.yul\":1343:1352   */\n      dup7\n        /* \"#utility.yul\":1339:1361   */\n      add\n        /* \"#utility.yul\":1318:1371   */\n      tag_31\n      jump\t// in\n    tag_50:\n        /* \"#utility.yul\":1308:1371   */\n      swap3\n      pop\n        /* \"#utility.yul\":1264:1381   */\n      pop\n        /* \"#utility.yul\":1420:1422   */\n      0x20\n        /* \"#utility.yul\":1446:1499   */\n      tag_51\n        /* \"#utility.yul\":1491:1498   */\n      dup6\n        /* \"#utility.yul\":1482:1488   */\n      dup3\n        /* \"#utility.yul\":1471:1480   */\n      dup7\n        /* \"#utility.yul\":1467:1489   */\n      add\n        /* \"#utility.yul\":1446:1499   */\n      tag_31\n      jump\t// in\n    tag_51:\n        /* \"#utility.yul\":1436:1499   */\n      swap2\n      pop\n        /* \"#utility.yul\":1391:1509   */\n      pop\n        /* \"#utility.yul\":1042:1516   */\n      swap3\n      pop\n      swap3\n      swap1\n      pop\n      jump\t// out\n        /* \"#utility.yul\":1522:1665   */\n    tag_32:\n        /* \"#utility.yul\":1579:1584   */\n      0x00\n        /* \"#utility.yul\":1610:1616   */\n      dup2\n        /* \"#utility.yul\":1604:1617   */\n      mload\n        /* \"#utility.yul\":1595:1617   */\n      swap1\n      pop\n        /* \"#utility.yul\":1626:1659   */\n      tag_53\n        /* \"#utility.yul\":1653:1658   */\n      dup2\n        /* \"#utility.yul\":1626:1659   */\n      tag_30\n      jump\t// in\n    tag_53:\n        /* \"#utility.yul\":1522:1665   */\n      swap3\n      swap2\n      pop\n      pop\n      jump\t// out\n        /* \"#utility.yul\":1671:2022   */\n    tag_18:\n        /* \"#utility.yul\":1741:1747   */\n      0x00\n        /* \"#utility.yul\":1790:1792   */\n      0x20\n        /* \"#utility.yul\":1778:1787   */\n      dup3\n        /* \"#utility.yul\":1769:1776   */\n      dup5\n        /* \"#utility.yul\":1765:1788   */\n      sub\n        /* \"#utility.yul\":1761:1793   */\n      slt\n        /* \"#utility.yul\":1758:1877   */\n      iszero\n      tag_55\n      jumpi\n        /* \"#utility.yul\":1796:1875   */\n      tag_56\n      tag_28\n      jump\t// in\n    tag_56:\n        /* \"#utility.yul\":1758:1877   */\n    tag_55:\n        /* \"#utility.yul\":1916:1917   */\n      0x00\n        /* \"#utility.yul\":1941:2005   */\n      tag_57\n        /* \"#utility.yul\":1997:2004   */\n      dup5\n        /* \"#utility.yul\":1988:1994   */\n      dup3\n        /* \"#utility.yul\":1977:1986   */\n      dup6\n        /* \"#utility.yul\":1973:1995   */\n      add\n        /* \"#utility.yul\":1941:2005   */\n      tag_32\n      jump\t// in\n    tag_57:\n        /* \"#utility.yul\":1931:2005   */\n      swap2\n      pop\n        /* \"#utility.yul\":1887:2015   */\n      pop\n        /* \"#utility.yul\":1671:2022   */\n      swap3\n      swap2\n      pop\n      pop\n      jump\t// out\n        /* \"#utility.yul\":2028:2360   */\n    tag_21:\n        /* \"#utility.yul\":2149:2153   */\n      0x00\n        /* \"#utility.yul\":2187:2189   */\n      0x40\n        /* \"#utility.yul\":2176:2185   */\n      dup3\n        /* \"#utility.yul\":2172:2190   */\n      add\n        /* \"#utility.yul\":2164:2190   */\n      swap1\n      pop\n        /* \"#utility.yul\":2200:2271   */\n      tag_59\n        /* \"#utility.yul\":2268:2269   */\n      0x00\n        /* \"#utility.yul\":2257:2266   */\n      dup4\n        /* \"#utility.yul\":2253:2270   */\n      add\n        /* \"#utility.yul\":2244:2250   */\n      dup6\n        /* \"#utility.yul\":2200:2271   */\n      tag_26\n      jump\t// in\n    tag_59:\n        /* \"#utility.yul\":2281:2353   */\n      tag_60\n        /* \"#utility.yul\":2349:2351   */\n      0x20\n        /* \"#utility.yul\":2338:2347   */\n      dup4\n        /* \"#utility.yul\":2334:2352   */\n      add\n        /* \"#utility.yul\":2325:2331   */\n      dup5\n        /* \"#utility.yul\":2281:2353   */\n      tag_26\n      jump\t// in\n    tag_60:\n        /* \"#utility.yul\":2028:2360   */\n      swap4\n      swap3\n      pop\n      pop\n      pop\n      jump\t// out\n\n    auxdata: 0xa2646970667358221220c200f962e14cdbb527bb62f6430026ba20830c9e865e3b484ce9e63aa9b4816464736f6c63430008110033\n}\n\nsub_1: assembly {\n        /* \"contracts/revision/object.sol\":97:301  contract Book {... */\n      mstore(0x40, 0x80)\n      callvalue\n      dup1\n      iszero\n      tag_1\n      jumpi\n      0x00\n      dup1\n      revert\n    tag_1:\n      pop\n      dataSize(sub_0)\n      dup1\n      dataOffset(sub_0)\n      0x00\n      codecopy\n      0x00\n      return\n    stop\n\n    sub_0: assembly {\n            /* \"contracts/revision/object.sol\":97:301  contract Book {... */\n          mstore(0x40, 0x80)\n          callvalue\n          dup1\n          iszero\n          tag_1\n          jumpi\n          0x00\n          dup1\n          revert\n        tag_1:\n          pop\n          jumpi(tag_2, lt(calldatasize, 0x04))\n          shr(0xe0, calldataload(0x00))\n          dup1\n          0x6495a72c\n          eq\n          tag_3\n          jumpi\n          dup1\n          0xbe1c766b\n          eq\n          tag_4\n          jumpi\n        tag_2:\n          0x00\n          dup1\n          revert\n            /* \"contracts/revision/object.sol\":227:299  function setLength(uint256 _len) external {... */\n        tag_3:\n          tag_5\n          0x04\n          dup1\n          calldatasize\n          sub\n          dup2\n          add\n          swap1\n          tag_6\n          swap2\n          swap1\n          tag_7\n          jump\t// in\n        tag_6:\n          tag_8\n          jump\t// in\n        tag_5:\n          stop\n            /* \"contracts/revision/object.sol\":138:221  function getLength() external view returns (uint256) {... */\n        tag_4:\n          tag_9\n          tag_10\n          jump\t// in\n        tag_9:\n          mload(0x40)\n          tag_11\n          swap2\n          swap1\n          tag_12\n          jump\t// in\n        tag_11:\n          mload(0x40)\n          dup1\n          swap2\n          sub\n          swap1\n          return\n            /* \"contracts/revision/object.sol\":227:299  function setLength(uint256 _len) external {... */\n        tag_8:\n            /* \"contracts/revision/object.sol\":288:292  _len */\n          dup1\n            /* \"contracts/revision/object.sol\":279:285  length */\n          0x00\n            /* \"contracts/revision/object.sol\":279:292  length = _len */\n          dup2\n          swap1\n          sstore\n          pop\n            /* \"contracts/revision/object.sol\":227:299  function setLength(uint256 _len) external {... */\n          pop\n          jump\t// out\n            /* \"contracts/revision/object.sol\":138:221  function getLength() external view returns (uint256) {... */\n        tag_10:\n            /* \"contracts/revision/object.sol\":182:189  uint256 */\n          0x00\n            /* \"contracts/revision/object.sol\":208:214  length */\n          dup1\n          sload\n            /* \"contracts/revision/object.sol\":201:214  return length */\n          swap1\n          pop\n            /* \"contracts/revision/object.sol\":138:221  function getLength() external view returns (uint256) {... */\n          swap1\n          jump\t// out\n            /* \"#utility.yul\":88:205   */\n        tag_16:\n            /* \"#utility.yul\":197:198   */\n          0x00\n            /* \"#utility.yul\":194:195   */\n          dup1\n            /* \"#utility.yul\":187:199   */\n          revert\n            /* \"#utility.yul\":334:411   */\n        tag_18:\n            /* \"#utility.yul\":371:378   */\n          0x00\n            /* \"#utility.yul\":400:405   */\n          dup2\n            /* \"#utility.yul\":389:405   */\n          swap1\n          pop\n            /* \"#utility.yul\":334:411   */\n          swap2\n          swap1\n          pop\n          jump\t// out\n            /* \"#utility.yul\":417:539   */\n        tag_19:\n            /* \"#utility.yul\":490:514   */\n          tag_28\n            /* \"#utility.yul\":508:513   */\n          dup2\n            /* \"#utility.yul\":490:514   */\n          tag_18\n          jump\t// in\n        tag_28:\n            /* \"#utility.yul\":483:488   */\n          dup2\n            /* \"#utility.yul\":480:515   */\n          eq\n            /* \"#utility.yul\":470:533   */\n          tag_29\n          jumpi\n            /* \"#utility.yul\":529:530   */\n          0x00\n            /* \"#utility.yul\":526:527   */\n          dup1\n            /* \"#utility.yul\":519:531   */\n          revert\n            /* \"#utility.yul\":470:533   */\n        tag_29:\n            /* \"#utility.yul\":417:539   */\n          pop\n          jump\t// out\n            /* \"#utility.yul\":545:684   */\n        tag_20:\n            /* \"#utility.yul\":591:596   */\n          0x00\n            /* \"#utility.yul\":629:635   */\n          dup2\n            /* \"#utility.yul\":616:636   */\n          calldataload\n            /* \"#utility.yul\":607:636   */\n          swap1\n          pop\n            /* \"#utility.yul\":645:678   */\n          tag_31\n            /* \"#utility.yul\":672:677   */\n          dup2\n            /* \"#utility.yul\":645:678   */\n          tag_19\n          jump\t// in\n        tag_31:\n            /* \"#utility.yul\":545:684   */\n          swap3\n          swap2\n          pop\n          pop\n          jump\t// out\n            /* \"#utility.yul\":690:1019   */\n        tag_7:\n            /* \"#utility.yul\":749:755   */\n          0x00\n            /* \"#utility.yul\":798:800   */\n          0x20\n            /* \"#utility.yul\":786:795   */\n          dup3\n            /* \"#utility.yul\":777:784   */\n          dup5\n            /* \"#utility.yul\":773:796   */\n          sub\n            /* \"#utility.yul\":769:801   */\n          slt\n            /* \"#utility.yul\":766:885   */\n          iszero\n          tag_33\n          jumpi\n            /* \"#utility.yul\":804:883   */\n          tag_34\n          tag_16\n          jump\t// in\n        tag_34:\n            /* \"#utility.yul\":766:885   */\n        tag_33:\n            /* \"#utility.yul\":924:925   */\n          0x00\n            /* \"#utility.yul\":949:1002   */\n          tag_35\n            /* \"#utility.yul\":994:1001   */\n          dup5\n            /* \"#utility.yul\":985:991   */\n          dup3\n            /* \"#utility.yul\":974:983   */\n          dup6\n            /* \"#utility.yul\":970:992   */\n          add\n            /* \"#utility.yul\":949:1002   */\n          tag_20\n          jump\t// in\n        tag_35:\n            /* \"#utility.yul\":939:1002   */\n          swap2\n          pop\n            /* \"#utility.yul\":895:1012   */\n          pop\n            /* \"#utility.yul\":690:1019   */\n          swap3\n          swap2\n          pop\n          pop\n          jump\t// out\n            /* \"#utility.yul\":1025:1143   */\n        tag_21:\n            /* \"#utility.yul\":1112:1136   */\n          tag_37\n            /* \"#utility.yul\":1130:1135   */\n          dup2\n            /* \"#utility.yul\":1112:1136   */\n          tag_18\n          jump\t// in\n        tag_37:\n            /* \"#utility.yul\":1107:1110   */\n          dup3\n            /* \"#utility.yul\":1100:1137   */\n          mstore\n            /* \"#utility.yul\":1025:1143   */\n          pop\n          pop\n          jump\t// out\n            /* \"#utility.yul\":1149:1371   */\n        tag_12:\n            /* \"#utility.yul\":1242:1246   */\n          0x00\n            /* \"#utility.yul\":1280:1282   */\n          0x20\n            /* \"#utility.yul\":1269:1278   */\n          dup3\n            /* \"#utility.yul\":1265:1283   */\n          add\n            /* \"#utility.yul\":1257:1283   */\n          swap1\n          pop\n            /* \"#utility.yul\":1293:1364   */\n          tag_39\n            /* \"#utility.yul\":1361:1362   */\n          0x00\n            /* \"#utility.yul\":1350:1359   */\n          dup4\n            /* \"#utility.yul\":1346:1363   */\n          add\n            /* \"#utility.yul\":1337:1343   */\n          dup5\n            /* \"#utility.yul\":1293:1364   */\n          tag_21\n          jump\t// in\n        tag_39:\n            /* \"#utility.yul\":1149:1371   */\n          swap3\n          swap2\n          pop\n          pop\n          jump\t// out\n\n        auxdata: 0xa2646970667358221220e62cef9a5e4b0cc1ef01c18b036a4a988b031d9e3518e77a234a86ec02bfad0f64736f6c63430008110033\n    }\n}\n\nsub_2: assembly {\n        /* \"contracts/revision/polymorphism.sol\":56:327  contract Poly {... */\n      mstore(0x40, 0x80)\n      callvalue\n      dup1\n      iszero\n      tag_1\n      jumpi\n      0x00\n      dup1\n      revert\n    tag_1:\n      pop\n      dataSize(sub_0)\n      dup1\n      dataOffset(sub_0)\n      0x00\n      codecopy\n      0x00\n      return\n    stop\n\n    sub_0: assembly {\n            /* \"contracts/revision/polymorphism.sol\":56:327  contract Poly {... */\n          mstore(0x40, 0x80)\n          callvalue\n          dup1\n          iszero\n          tag_1\n          jumpi\n          0x00\n          dup1\n          revert\n        tag_1:\n          pop\n          jumpi(tag_2, lt(calldatasize, 0x04))\n          shr(0xe0, calldataload(0x00))\n          dup1\n          0x505fb46c\n          eq\n          tag_3\n          jumpi\n          dup1\n          0x771602f7\n          eq\n          tag_4\n          jumpi\n        tag_2:\n          0x00\n          dup1\n          revert\n            /* \"contracts/revision/polymorphism.sol\":180:325  function add(... */\n        tag_3:\n          tag_5\n          0x04\n          dup1\n          calldatasize\n          sub\n          dup2\n          add\n          swap1\n          tag_6\n          swap2\n          swap1\n          tag_7\n          jump\t// in\n        tag_6:\n          tag_8\n          jump\t// in\n        tag_5:\n          mload(0x40)\n          tag_9\n          swap2\n          swap1\n          tag_10\n          jump\t// in\n        tag_9:\n          mload(0x40)\n          dup1\n          swap2\n          sub\n          swap1\n          return\n            /* \"contracts/revision/polymorphism.sol\":76:174  function add(uint256 _a, uint256 _b) pure public returns (uint256) {... */\n        tag_4:\n          tag_11\n          0x04\n          dup1\n          calldatasize\n          sub\n          dup2\n          add\n          swap1\n          tag_12\n          swap2\n          swap1\n          tag_13\n          jump\t// in\n        tag_12:\n          tag_14\n          jump\t// in\n        tag_11:\n          mload(0x40)\n          tag_15\n          swap2\n          swap1\n          tag_10\n          jump\t// in\n        tag_15:\n          mload(0x40)\n          dup1\n          swap2\n          sub\n          swap1\n          return\n            /* \"contracts/revision/polymorphism.sol\":180:325  function add(... */\n        tag_8:\n            /* \"contracts/revision/polymorphism.sol\":280:287  uint256 */\n          0x00\n            /* \"contracts/revision/polymorphism.sol\":316:318  _c */\n          dup2\n            /* \"contracts/revision/polymorphism.sol\":311:313  _b */\n          dup4\n            /* \"contracts/revision/polymorphism.sol\":306:308  _a */\n          dup6\n            /* \"contracts/revision/polymorphism.sol\":306:313  _a + _b */\n          tag_17\n          swap2\n          swap1\n          tag_18\n          jump\t// in\n        tag_17:\n            /* \"contracts/revision/polymorphism.sol\":306:318  _a + _b + _c */\n          tag_19\n          swap2\n          swap1\n          tag_18\n          jump\t// in\n        tag_19:\n            /* \"contracts/revision/polymorphism.sol\":299:318  return _a + _b + _c */\n          swap1\n          pop\n            /* \"contracts/revision/polymorphism.sol\":180:325  function add(... */\n          swap4\n          swap3\n          pop\n          pop\n          pop\n          jump\t// out\n            /* \"contracts/revision/polymorphism.sol\":76:174  function add(uint256 _a, uint256 _b) pure public returns (uint256) {... */\n        tag_14:\n            /* \"contracts/revision/polymorphism.sol\":134:141  uint256 */\n          0x00\n            /* \"contracts/revision/polymorphism.sol\":165:167  _b */\n          dup2\n            /* \"contracts/revision/polymorphism.sol\":160:162  _a */\n          dup4\n            /* \"contracts/revision/polymorphism.sol\":160:167  _a + _b */\n          tag_21\n          swap2\n          swap1\n          tag_18\n          jump\t// in\n        tag_21:\n            /* \"contracts/revision/polymorphism.sol\":153:167  return _a + _b */\n          swap1\n          pop\n            /* \"contracts/revision/polymorphism.sol\":76:174  function add(uint256 _a, uint256 _b) pure public returns (uint256) {... */\n          swap3\n          swap2\n          pop\n          pop\n          jump\t// out\n            /* \"#utility.yul\":88:205   */\n        tag_23:\n            /* \"#utility.yul\":197:198   */\n          0x00\n            /* \"#utility.yul\":194:195   */\n          dup1\n            /* \"#utility.yul\":187:199   */\n          revert\n            /* \"#utility.yul\":334:411   */\n        tag_25:\n            /* \"#utility.yul\":371:378   */\n          0x00\n            /* \"#utility.yul\":400:405   */\n          dup2\n            /* \"#utility.yul\":389:405   */\n          swap1\n          pop\n            /* \"#utility.yul\":334:411   */\n          swap2\n          swap1\n          pop\n          jump\t// out\n            /* \"#utility.yul\":417:539   */\n        tag_26:\n            /* \"#utility.yul\":490:514   */\n          tag_36\n            /* \"#utility.yul\":508:513   */\n          dup2\n            /* \"#utility.yul\":490:514   */\n          tag_25\n          jump\t// in\n        tag_36:\n            /* \"#utility.yul\":483:488   */\n          dup2\n            /* \"#utility.yul\":480:515   */\n          eq\n            /* \"#utility.yul\":470:533   */\n          tag_37\n          jumpi\n            /* \"#utility.yul\":529:530   */\n          0x00\n            /* \"#utility.yul\":526:527   */\n          dup1\n            /* \"#utility.yul\":519:531   */\n          revert\n            /* \"#utility.yul\":470:533   */\n        tag_37:\n            /* \"#utility.yul\":417:539   */\n          pop\n          jump\t// out\n            /* \"#utility.yul\":545:684   */\n        tag_27:\n            /* \"#utility.yul\":591:596   */\n          0x00\n            /* \"#utility.yul\":629:635   */\n          dup2\n            /* \"#utility.yul\":616:636   */\n          calldataload\n            /* \"#utility.yul\":607:636   */\n          swap1\n          pop\n            /* \"#utility.yul\":645:678   */\n          tag_39\n            /* \"#utility.yul\":672:677   */\n          dup2\n            /* \"#utility.yul\":645:678   */\n          tag_26\n          jump\t// in\n        tag_39:\n            /* \"#utility.yul\":545:684   */\n          swap3\n          swap2\n          pop\n          pop\n          jump\t// out\n            /* \"#utility.yul\":690:1309   */\n        tag_7:\n            /* \"#utility.yul\":767:773   */\n          0x00\n            /* \"#utility.yul\":775:781   */\n          dup1\n            /* \"#utility.yul\":783:789   */\n          0x00\n            /* \"#utility.yul\":832:834   */\n          0x60\n            /* \"#utility.yul\":820:829   */\n          dup5\n            /* \"#utility.yul\":811:818   */\n          dup7\n            /* \"#utility.yul\":807:830   */\n          sub\n            /* \"#utility.yul\":803:835   */\n          slt\n            /* \"#utility.yul\":800:919   */\n          iszero\n          tag_41\n          jumpi\n            /* \"#utility.yul\":838:917   */\n          tag_42\n          tag_23\n          jump\t// in\n        tag_42:\n            /* \"#utility.yul\":800:919   */\n        tag_41:\n            /* \"#utility.yul\":958:959   */\n          0x00\n            /* \"#utility.yul\":983:1036   */\n          tag_43\n            /* \"#utility.yul\":1028:1035   */\n          dup7\n            /* \"#utility.yul\":1019:1025   */\n          dup3\n            /* \"#utility.yul\":1008:1017   */\n          dup8\n            /* \"#utility.yul\":1004:1026   */\n          add\n            /* \"#utility.yul\":983:1036   */\n          tag_27\n          jump\t// in\n        tag_43:\n            /* \"#utility.yul\":973:1036   */\n          swap4\n          pop\n            /* \"#utility.yul\":929:1046   */\n          pop\n            /* \"#utility.yul\":1085:1087   */\n          0x20\n            /* \"#utility.yul\":1111:1164   */\n          tag_44\n            /* \"#utility.yul\":1156:1163   */\n          dup7\n            /* \"#utility.yul\":1147:1153   */\n          dup3\n            /* \"#utility.yul\":1136:1145   */\n          dup8\n            /* \"#utility.yul\":1132:1154   */\n          add\n            /* \"#utility.yul\":1111:1164   */\n          tag_27\n          jump\t// in\n        tag_44:\n            /* \"#utility.yul\":1101:1164   */\n          swap3\n          pop\n            /* \"#utility.yul\":1056:1174   */\n          pop\n            /* \"#utility.yul\":1213:1215   */\n          0x40\n            /* \"#utility.yul\":1239:1292   */\n          tag_45\n            /* \"#utility.yul\":1284:1291   */\n          dup7\n            /* \"#utility.yul\":1275:1281   */\n          dup3\n            /* \"#utility.yul\":1264:1273   */\n          dup8\n            /* \"#utility.yul\":1260:1282   */\n          add\n            /* \"#utility.yul\":1239:1292   */\n          tag_27\n          jump\t// in\n        tag_45:\n            /* \"#utility.yul\":1229:1292   */\n          swap2\n          pop\n            /* \"#utility.yul\":1184:1302   */\n          pop\n            /* \"#utility.yul\":690:1309   */\n          swap3\n          pop\n          swap3\n          pop\n          swap3\n          jump\t// out\n            /* \"#utility.yul\":1315:1433   */\n        tag_28:\n            /* \"#utility.yul\":1402:1426   */\n          tag_47\n            /* \"#utility.yul\":1420:1425   */\n          dup2\n            /* \"#utility.yul\":1402:1426   */\n          tag_25\n          jump\t// in\n        tag_47:\n            /* \"#utility.yul\":1397:1400   */\n          dup3\n            /* \"#utility.yul\":1390:1427   */\n          mstore\n            /* \"#utility.yul\":1315:1433   */\n          pop\n          pop\n          jump\t// out\n            /* \"#utility.yul\":1439:1661   */\n        tag_10:\n            /* \"#utility.yul\":1532:1536   */\n          0x00\n            /* \"#utility.yul\":1570:1572   */\n          0x20\n            /* \"#utility.yul\":1559:1568   */\n          dup3\n            /* \"#utility.yul\":1555:1573   */\n          add\n            /* \"#utility.yul\":1547:1573   */\n          swap1\n          pop\n            /* \"#utility.yul\":1583:1654   */\n          tag_49\n            /* \"#utility.yul\":1651:1652   */\n          0x00\n            /* \"#utility.yul\":1640:1649   */\n          dup4\n            /* \"#utility.yul\":1636:1653   */\n          add\n            /* \"#utility.yul\":1627:1633   */\n          dup5\n            /* \"#utility.yul\":1583:1654   */\n          tag_28\n          jump\t// in\n        tag_49:\n            /* \"#utility.yul\":1439:1661   */\n          swap3\n          swap2\n          pop\n          pop\n          jump\t// out\n            /* \"#utility.yul\":1667:2141   */\n        tag_13:\n            /* \"#utility.yul\":1735:1741   */\n          0x00\n            /* \"#utility.yul\":1743:1749   */\n          dup1\n            /* \"#utility.yul\":1792:1794   */\n          0x40\n            /* \"#utility.yul\":1780:1789   */\n          dup4\n            /* \"#utility.yul\":1771:1778   */\n          dup6\n            /* \"#utility.yul\":1767:1790   */\n          sub\n            /* \"#utility.yul\":1763:1795   */\n          slt\n            /* \"#utility.yul\":1760:1879   */\n          iszero\n          tag_51\n          jumpi\n            /* \"#utility.yul\":1798:1877   */\n          tag_52\n          tag_23\n          jump\t// in\n        tag_52:\n            /* \"#utility.yul\":1760:1879   */\n        tag_51:\n            /* \"#utility.yul\":1918:1919   */\n          0x00\n            /* \"#utility.yul\":1943:1996   */\n          tag_53\n            /* \"#utility.yul\":1988:1995   */\n          dup6\n            /* \"#utility.yul\":1979:1985   */\n          dup3\n            /* \"#utility.yul\":1968:1977   */\n          dup7\n            /* \"#utility.yul\":1964:1986   */\n          add\n            /* \"#utility.yul\":1943:1996   */\n          tag_27\n          jump\t// in\n        tag_53:\n            /* \"#utility.yul\":1933:1996   */\n          swap3\n          pop\n            /* \"#utility.yul\":1889:2006   */\n          pop\n            /* \"#utility.yul\":2045:2047   */\n          0x20\n            /* \"#utility.yul\":2071:2124   */\n          tag_54\n            /* \"#utility.yul\":2116:2123   */\n          dup6\n            /* \"#utility.yul\":2107:2113   */\n          dup3\n            /* \"#utility.yul\":2096:2105   */\n          dup7\n            /* \"#utility.yul\":2092:2114   */\n          add\n            /* \"#utility.yul\":2071:2124   */\n          tag_27\n          jump\t// in\n        tag_54:\n            /* \"#utility.yul\":2061:2124   */\n          swap2\n          pop\n            /* \"#utility.yul\":2016:2134   */\n          pop\n            /* \"#utility.yul\":1667:2141   */\n          swap3\n          pop\n          swap3\n          swap1\n          pop\n          jump\t// out\n            /* \"#utility.yul\":2147:2327   */\n        tag_29:\n            /* \"#utility.yul\":2195:2272   */\n          0x4e487b7100000000000000000000000000000000000000000000000000000000\n            /* \"#utility.yul\":2192:2193   */\n          0x00\n            /* \"#utility.yul\":2185:2273   */\n          mstore\n            /* \"#utility.yul\":2292:2296   */\n          0x11\n            /* \"#utility.yul\":2289:2290   */\n          0x04\n            /* \"#utility.yul\":2282:2297   */\n          mstore\n            /* \"#utility.yul\":2316:2320   */\n          0x24\n            /* \"#utility.yul\":2313:2314   */\n          0x00\n            /* \"#utility.yul\":2306:2321   */\n          revert\n            /* \"#utility.yul\":2333:2524   */\n        tag_18:\n            /* \"#utility.yul\":2373:2376   */\n          0x00\n            /* \"#utility.yul\":2392:2412   */\n          tag_57\n            /* \"#utility.yul\":2410:2411   */\n          dup3\n            /* \"#utility.yul\":2392:2412   */\n          tag_25\n          jump\t// in\n        tag_57:\n            /* \"#utility.yul\":2387:2412   */\n          swap2\n          pop\n            /* \"#utility.yul\":2426:2446   */\n          tag_58\n            /* \"#utility.yul\":2444:2445   */\n          dup4\n            /* \"#utility.yul\":2426:2446   */\n          tag_25\n          jump\t// in\n        tag_58:\n            /* \"#utility.yul\":2421:2446   */\n          swap3\n          pop\n            /* \"#utility.yul\":2469:2470   */\n          dup3\n            /* \"#utility.yul\":2466:2467   */\n          dup3\n            /* \"#utility.yul\":2462:2471   */\n          add\n            /* \"#utility.yul\":2455:2471   */\n          swap1\n          pop\n            /* \"#utility.yul\":2490:2493   */\n          dup1\n            /* \"#utility.yul\":2487:2488   */\n          dup3\n            /* \"#utility.yul\":2484:2494   */\n          gt\n            /* \"#utility.yul\":2481:2517   */\n          iszero\n          tag_59\n          jumpi\n            /* \"#utility.yul\":2497:2515   */\n          tag_60\n          tag_29\n          jump\t// in\n        tag_60:\n            /* \"#utility.yul\":2481:2517   */\n        tag_59:\n            /* \"#utility.yul\":2333:2524   */\n          swap3\n          swap2\n          pop\n          pop\n          jump\t// out\n\n        auxdata: 0xa264697066735822122050265b0a4b03badc38ce407a383f58999d02b9e664fadc46b5f681866e00fad564736f6c63430008110033\n    }\n}\n",
				"bytecode": {
					"linkReferences": {},
					"object": "6080604052604051610010906100e7565b604051809103906000f08015801561002c573d6000803e3d6000fd5b506000806101000a81548173ffffffffffffffffffffffffffffffffffffffff021916908373ffffffffffffffffffffffffffffffffffffffff160217905550604051610078906100f4565b604051809103906000f080158015610094573d6000803e3d6000fd5b50600160006101000a81548173ffffffffffffffffffffffffffffffffffffffff021916908373ffffffffffffffffffffffffffffffffffffffff1602179055503480156100e157600080fd5b50610101565b6101708061041e83390190565b6102848061058e83390190565b61030e806101106000396000f3fe608060405234801561001057600080fd5b50600436106100365760003560e01c80630dbe671f1461003b57806362dda2ac14610059575b600080fd5b610043610089565b60405161005091906101e1565b60405180910390f35b610073600480360381019061006e919061022d565b610120565b60405161008091906101e1565b60405180910390f35b60008060009054906101000a900473ffffffffffffffffffffffffffffffffffffffff1673ffffffffffffffffffffffffffffffffffffffff1663be1c766b6040518163ffffffff1660e01b8152600401602060405180830381865afa1580156100f7573d6000803e3d6000fd5b505050506040513d601f19601f8201168201806040525081019061011b9190610282565b905090565b6000600160009054906101000a900473ffffffffffffffffffffffffffffffffffffffff1673ffffffffffffffffffffffffffffffffffffffff1663771602f784846040518363ffffffff1660e01b815260040161017f9291906102af565b602060405180830381865afa15801561019c573d6000803e3d6000fd5b505050506040513d601f19601f820116820180604052508101906101c09190610282565b905092915050565b6000819050919050565b6101db816101c8565b82525050565b60006020820190506101f660008301846101d2565b92915050565b600080fd5b61020a816101c8565b811461021557600080fd5b50565b60008135905061022781610201565b92915050565b60008060408385031215610244576102436101fc565b5b600061025285828601610218565b925050602061026385828601610218565b9150509250929050565b60008151905061027c81610201565b92915050565b600060208284031215610298576102976101fc565b5b60006102a68482850161026d565b91505092915050565b60006040820190506102c460008301856101d2565b6102d160208301846101d2565b939250505056fea2646970667358221220c200f962e14cdbb527bb62f6430026ba20830c9e865e3b484ce9e63aa9b4816464736f6c63430008110033608060405234801561001057600080fd5b50610150806100206000396000f3fe608060405234801561001057600080fd5b50600436106100365760003560e01c80636495a72c1461003b578063be1c766b14610057575b600080fd5b610055600480360381019061005091906100c3565b610075565b005b61005f61007f565b60405161006c91906100ff565b60405180910390f35b8060008190555050565b60008054905090565b600080fd5b6000819050919050565b6100a08161008d565b81146100ab57600080fd5b50565b6000813590506100bd81610097565b92915050565b6000602082840312156100d9576100d8610088565b5b60006100e7848285016100ae565b91505092915050565b6100f98161008d565b82525050565b600060208201905061011460008301846100f0565b9291505056fea2646970667358221220e62cef9a5e4b0cc1ef01c18b036a4a988b031d9e3518e77a234a86ec02bfad0f64736f6c63430008110033608060405234801561001057600080fd5b50610264806100206000396000f3fe608060405234801561001057600080fd5b50600436106100365760003560e01c8063505fb46c1461003b578063771602f71461006b575b600080fd5b6100556004803603810190610050919061010e565b61009b565b6040516100629190610170565b60405180910390f35b6100856004803603810190610080919061018b565b6100bd565b6040516100929190610170565b60405180910390f35b60008183856100aa91906101fa565b6100b491906101fa565b90509392505050565b600081836100cb91906101fa565b905092915050565b600080fd5b6000819050919050565b6100eb816100d8565b81146100f657600080fd5b50565b600081359050610108816100e2565b92915050565b600080600060608486031215610127576101266100d3565b5b6000610135868287016100f9565b9350506020610146868287016100f9565b9250506040610157868287016100f9565b9150509250925092565b61016a816100d8565b82525050565b60006020820190506101856000830184610161565b92915050565b600080604083850312156101a2576101a16100d3565b5b60006101b0858286016100f9565b92505060206101c1858286016100f9565b9150509250929050565b7f4e487b7100000000000000000000000000000000000000000000000000000000600052601160045260246000fd5b6000610205826100d8565b9150610210836100d8565b9250828201905080821115610228576102276101cb565b5b9291505056fea264697066735822122050265b0a4b03badc38ce407a383f58999d02b9e664fadc46b5f681866e00fad564736f6c63430008110033",
					"opcodes": "PUSH1 0x80 PUSH1 0x40 MSTORE PUSH1 0x40 MLOAD PUSH2 0x10 SWAP1 PUSH2 0xE7 JUMP JUMPDEST PUSH1 0x40 MLOAD DUP1 SWAP2 SUB SWAP1 PUSH1 0x0 CREATE DUP1 ISZERO DUP1 ISZERO PUSH2 0x2C JUMPI RETURNDATASIZE PUSH1 0x0 DUP1 RETURNDATACOPY RETURNDATASIZE PUSH1 0x0 REVERT JUMPDEST POP PUSH1 0x0 DUP1 PUSH2 0x100 EXP DUP2 SLOAD DUP2 PUSH20 0xFFFFFFFFFFFFFFFFFFFFFFFFFFFFFFFFFFFFFFFF MUL NOT AND SWAP1 DUP4 PUSH20 0xFFFFFFFFFFFFFFFFFFFFFFFFFFFFFFFFFFFFFFFF AND MUL OR SWAP1 SSTORE POP PUSH1 0x40 MLOAD PUSH2 0x78 SWAP1 PUSH2 0xF4 JUMP JUMPDEST PUSH1 0x40 MLOAD DUP1 SWAP2 SUB SWAP1 PUSH1 0x0 CREATE DUP1 ISZERO DUP1 ISZERO PUSH2 0x94 JUMPI RETURNDATASIZE PUSH1 0x0 DUP1 RETURNDATACOPY RETURNDATASIZE PUSH1 0x0 REVERT JUMPDEST POP PUSH1 0x1 PUSH1 0x0 PUSH2 0x100 EXP DUP2 SLOAD DUP2 PUSH20 0xFFFFFFFFFFFFFFFFFFFFFFFFFFFFFFFFFFFFFFFF MUL NOT AND SWAP1 DUP4 PUSH20 0xFFFFFFFFFFFFFFFFFFFFFFFFFFFFFFFFFFFFFFFF AND MUL OR SWAP1 SSTORE POP CALLVALUE DUP1 ISZERO PUSH2 0xE1 JUMPI PUSH1 0x0 DUP1 REVERT JUMPDEST POP PUSH2 0x101 JUMP JUMPDEST PUSH2 0x170 DUP1 PUSH2 0x41E DUP4 CODECOPY ADD SWAP1 JUMP JUMPDEST PUSH2 0x284 DUP1 PUSH2 0x58E DUP4 CODECOPY ADD SWAP1 JUMP JUMPDEST PUSH2 0x30E DUP1 PUSH2 0x110 PUSH1 0x0 CODECOPY PUSH1 0x0 RETURN INVALID PUSH1 0x80 PUSH1 0x40 MSTORE CALLVALUE DUP1 ISZERO PUSH2 0x10 JUMPI PUSH1 0x0 DUP1 REVERT JUMPDEST POP PUSH1 0x4 CALLDATASIZE LT PUSH2 0x36 JUMPI PUSH1 0x0 CALLDATALOAD PUSH1 0xE0 SHR DUP1 PUSH4 0xDBE671F EQ PUSH2 0x3B JUMPI DUP1 PUSH4 0x62DDA2AC EQ PUSH2 0x59 JUMPI JUMPDEST PUSH1 0x0 DUP1 REVERT JUMPDEST PUSH2 0x43 PUSH2 0x89 JUMP JUMPDEST PUSH1 0x40 MLOAD PUSH2 0x50 SWAP2 SWAP1 PUSH2 0x1E1 JUMP JUMPDEST PUSH1 0x40 MLOAD DUP1 SWAP2 SUB SWAP1 RETURN JUMPDEST PUSH2 0x73 PUSH1 0x4 DUP1 CALLDATASIZE SUB DUP2 ADD SWAP1 PUSH2 0x6E SWAP2 SWAP1 PUSH2 0x22D JUMP JUMPDEST PUSH2 0x120 JUMP JUMPDEST PUSH1 0x40 MLOAD PUSH2 0x80 SWAP2 SWAP1 PUSH2 0x1E1 JUMP JUMPDEST PUSH1 0x40 MLOAD DUP1 SWAP2 SUB SWAP1 RETURN JUMPDEST PUSH1 0x0 DUP1 PUSH1 0x0 SWAP1 SLOAD SWAP1 PUSH2 0x100 EXP SWAP1 DIV PUSH20 0xFFFFFFFFFFFFFFFFFFFFFFFFFFFFFFFFFFFFFFFF AND PUSH20 0xFFFFFFFFFFFFFFFFFFFFFFFFFFFFFFFFFFFFFFFF AND PUSH4 0xBE1C766B PUSH1 0x40 MLOAD DUP2 PUSH4 0xFFFFFFFF AND PUSH1 0xE0 SHL DUP2 MSTORE PUSH1 0x4 ADD PUSH1 0x20 PUSH1 0x40 MLOAD DUP1 DUP4 SUB DUP2 DUP7 GAS STATICCALL ISZERO DUP1 ISZERO PUSH2 0xF7 JUMPI RETURNDATASIZE PUSH1 0x0 DUP1 RETURNDATACOPY RETURNDATASIZE PUSH1 0x0 REVERT JUMPDEST POP POP POP POP PUSH1 0x40 MLOAD RETURNDATASIZE PUSH1 0x1F NOT PUSH1 0x1F DUP3 ADD AND DUP3 ADD DUP1 PUSH1 0x40 MSTORE POP DUP2 ADD SWAP1 PUSH2 0x11B SWAP2 SWAP1 PUSH2 0x282 JUMP JUMPDEST SWAP1 POP SWAP1 JUMP JUMPDEST PUSH1 0x0 PUSH1 0x1 PUSH1 0x0 SWAP1 SLOAD SWAP1 PUSH2 0x100 EXP SWAP1 DIV PUSH20 0xFFFFFFFFFFFFFFFFFFFFFFFFFFFFFFFFFFFFFFFF AND PUSH20 0xFFFFFFFFFFFFFFFFFFFFFFFFFFFFFFFFFFFFFFFF AND PUSH4 0x771602F7 DUP5 DUP5 PUSH1 0x40 MLOAD DUP4 PUSH4 0xFFFFFFFF AND PUSH1 0xE0 SHL DUP2 MSTORE PUSH1 0x4 ADD PUSH2 0x17F SWAP3 SWAP2 SWAP1 PUSH2 0x2AF JUMP JUMPDEST PUSH1 0x20 PUSH1 0x40 MLOAD DUP1 DUP4 SUB DUP2 DUP7 GAS STATICCALL ISZERO DUP1 ISZERO PUSH2 0x19C JUMPI RETURNDATASIZE PUSH1 0x0 DUP1 RETURNDATACOPY RETURNDATASIZE PUSH1 0x0 REVERT JUMPDEST POP POP POP POP PUSH1 0x40 MLOAD RETURNDATASIZE PUSH1 0x1F NOT PUSH1 0x1F DUP3 ADD AND DUP3 ADD DUP1 PUSH1 0x40 MSTORE POP DUP2 ADD SWAP1 PUSH2 0x1C0 SWAP2 SWAP1 PUSH2 0x282 JUMP JUMPDEST SWAP1 POP SWAP3 SWAP2 POP POP JUMP JUMPDEST PUSH1 0x0 DUP2 SWAP1 POP SWAP2 SWAP1 POP JUMP JUMPDEST PUSH2 0x1DB DUP2 PUSH2 0x1C8 JUMP JUMPDEST DUP3 MSTORE POP POP JUMP JUMPDEST PUSH1 0x0 PUSH1 0x20 DUP3 ADD SWAP1 POP PUSH2 0x1F6 PUSH1 0x0 DUP4 ADD DUP5 PUSH2 0x1D2 JUMP JUMPDEST SWAP3 SWAP2 POP POP JUMP JUMPDEST PUSH1 0x0 DUP1 REVERT JUMPDEST PUSH2 0x20A DUP2 PUSH2 0x1C8 JUMP JUMPDEST DUP2 EQ PUSH2 0x215 JUMPI PUSH1 0x0 DUP1 REVERT JUMPDEST POP JUMP JUMPDEST PUSH1 0x0 DUP2 CALLDATALOAD SWAP1 POP PUSH2 0x227 DUP2 PUSH2 0x201 JUMP JUMPDEST SWAP3 SWAP2 POP POP JUMP JUMPDEST PUSH1 0x0 DUP1 PUSH1 0x40 DUP4 DUP6 SUB SLT ISZERO PUSH2 0x244 JUMPI PUSH2 0x243 PUSH2 0x1FC JUMP JUMPDEST JUMPDEST PUSH1 0x0 PUSH2 0x252 DUP6 DUP3 DUP7 ADD PUSH2 0x218 JUMP JUMPDEST SWAP3 POP POP PUSH1 0x20 PUSH2 0x263 DUP6 DUP3 DUP7 ADD PUSH2 0x218 JUMP JUMPDEST SWAP2 POP POP SWAP3 POP SWAP3 SWAP1 POP JUMP JUMPDEST PUSH1 0x0 DUP2 MLOAD SWAP1 POP PUSH2 0x27C DUP2 PUSH2 0x201 JUMP JUMPDEST SWAP3 SWAP2 POP POP JUMP JUMPDEST PUSH1 0x0 PUSH1 0x20 DUP3 DUP5 SUB SLT ISZERO PUSH2 0x298 JUMPI PUSH2 0x297 PUSH2 0x1FC JUMP JUMPDEST JUMPDEST PUSH1 0x0 PUSH2 0x2A6 DUP5 DUP3 DUP6 ADD PUSH2 0x26D JUMP JUMPDEST SWAP2 POP POP SWAP3 SWAP2 POP POP JUMP JUMPDEST PUSH1 0x0 PUSH1 0x40 DUP3 ADD SWAP1 POP PUSH2 0x2C4 PUSH1 0x0 DUP4 ADD DUP6 PUSH2 0x1D2 JUMP JUMPDEST PUSH2 0x2D1 PUSH1 0x20 DUP4 ADD DUP5 PUSH2 0x1D2 JUMP JUMPDEST SWAP4 SWAP3 POP POP POP JUMP INVALID LOG2 PUSH5 0x6970667358 0x22 SLT KECCAK256 0xC2 STOP 0xF9 PUSH3 0xE14CDB 0xB5 0x27 0xBB PUSH3 0xF64300 0x26 0xBA KECCAK256 DUP4 0xC SWAP15 DUP7 0x5E EXTCODESIZE BASEFEE 0x4C 0xE9 0xE6 GASPRICE 0xA9 0xB4 DUP2 PUSH5 0x64736F6C63 NUMBER STOP ADDMOD GT STOP CALLER PUSH1 0x80 PUSH1 0x40 MSTORE CALLVALUE DUP1 ISZERO PUSH2 0x10 JUMPI PUSH1 0x0 DUP1 REVERT JUMPDEST POP PUSH2 0x150 DUP1 PUSH2 0x20 PUSH1 0x0 CODECOPY PUSH1 0x0 RETURN INVALID PUSH1 0x80 PUSH1 0x40 MSTORE CALLVALUE DUP1 ISZERO PUSH2 0x10 JUMPI PUSH1 0x0 DUP1 REVERT JUMPDEST POP PUSH1 0x4 CALLDATASIZE LT PUSH2 0x36 JUMPI PUSH1 0x0 CALLDATALOAD PUSH1 0xE0 SHR DUP1 PUSH4 0x6495A72C EQ PUSH2 0x3B JUMPI DUP1 PUSH4 0xBE1C766B EQ PUSH2 0x57 JUMPI JUMPDEST PUSH1 0x0 DUP1 REVERT JUMPDEST PUSH2 0x55 PUSH1 0x4 DUP1 CALLDATASIZE SUB DUP2 ADD SWAP1 PUSH2 0x50 SWAP2 SWAP1 PUSH2 0xC3 JUMP JUMPDEST PUSH2 0x75 JUMP JUMPDEST STOP JUMPDEST PUSH2 0x5F PUSH2 0x7F JUMP JUMPDEST PUSH1 0x40 MLOAD PUSH2 0x6C SWAP2 SWAP1 PUSH2 0xFF JUMP JUMPDEST PUSH1 0x40 MLOAD DUP1 SWAP2 SUB SWAP1 RETURN JUMPDEST DUP1 PUSH1 0x0 DUP2 SWAP1 SSTORE POP POP JUMP JUMPDEST PUSH1 0x0 DUP1 SLOAD SWAP1 POP SWAP1 JUMP JUMPDEST PUSH1 0x0 DUP1 REVERT JUMPDEST PUSH1 0x0 DUP2 SWAP1 POP SWAP2 SWAP1 POP JUMP JUMPDEST PUSH2 0xA0 DUP2 PUSH2 0x8D JUMP JUMPDEST DUP2 EQ PUSH2 0xAB JUMPI PUSH1 0x0 DUP1 REVERT JUMPDEST POP JUMP JUMPDEST PUSH1 0x0 DUP2 CALLDATALOAD SWAP1 POP PUSH2 0xBD DUP2 PUSH2 0x97 JUMP JUMPDEST SWAP3 SWAP2 POP POP JUMP JUMPDEST PUSH1 0x0 PUSH1 0x20 DUP3 DUP5 SUB SLT ISZERO PUSH2 0xD9 JUMPI PUSH2 0xD8 PUSH2 0x88 JUMP JUMPDEST JUMPDEST PUSH1 0x0 PUSH2 0xE7 DUP5 DUP3 DUP6 ADD PUSH2 0xAE JUMP JUMPDEST SWAP2 POP POP SWAP3 SWAP2 POP POP JUMP JUMPDEST PUSH2 0xF9 DUP2 PUSH2 0x8D JUMP JUMPDEST DUP3 MSTORE POP POP JUMP JUMPDEST PUSH1 0x0 PUSH1 0x20 DUP3 ADD SWAP1 POP PUSH2 0x114 PUSH1 0x0 DUP4 ADD DUP5 PUSH2 0xF0 JUMP JUMPDEST SWAP3 SWAP2 POP POP JUMP INVALID LOG2 PUSH5 0x6970667358 0x22 SLT KECCAK256 0xE6 0x2C 0xEF SWAP11 0x5E 0x4B 0xC 0xC1 0xEF ADD 0xC1 DUP12 SUB PUSH11 0x4A988B031D9E3518E77A23 0x4A DUP7 0xEC MUL 0xBF 0xAD 0xF PUSH5 0x736F6C6343 STOP ADDMOD GT STOP CALLER PUSH1 0x80 PUSH1 0x40 MSTORE CALLVALUE DUP1 ISZERO PUSH2 0x10 JUMPI PUSH1 0x0 DUP1 REVERT JUMPDEST POP PUSH2 0x264 DUP1 PUSH2 0x20 PUSH1 0x0 CODECOPY PUSH1 0x0 RETURN INVALID PUSH1 0x80 PUSH1 0x40 MSTORE CALLVALUE DUP1 ISZERO PUSH2 0x10 JUMPI PUSH1 0x0 DUP1 REVERT JUMPDEST POP PUSH1 0x4 CALLDATASIZE LT PUSH2 0x36 JUMPI PUSH1 0x0 CALLDATALOAD PUSH1 0xE0 SHR DUP1 PUSH4 0x505FB46C EQ PUSH2 0x3B JUMPI DUP1 PUSH4 0x771602F7 EQ PUSH2 0x6B JUMPI JUMPDEST PUSH1 0x0 DUP1 REVERT JUMPDEST PUSH2 0x55 PUSH1 0x4 DUP1 CALLDATASIZE SUB DUP2 ADD SWAP1 PUSH2 0x50 SWAP2 SWAP1 PUSH2 0x10E JUMP JUMPDEST PUSH2 0x9B JUMP JUMPDEST PUSH1 0x40 MLOAD PUSH2 0x62 SWAP2 SWAP1 PUSH2 0x170 JUMP JUMPDEST PUSH1 0x40 MLOAD DUP1 SWAP2 SUB SWAP1 RETURN JUMPDEST PUSH2 0x85 PUSH1 0x4 DUP1 CALLDATASIZE SUB DUP2 ADD SWAP1 PUSH2 0x80 SWAP2 SWAP1 PUSH2 0x18B JUMP JUMPDEST PUSH2 0xBD JUMP JUMPDEST PUSH1 0x40 MLOAD PUSH2 0x92 SWAP2 SWAP1 PUSH2 0x170 JUMP JUMPDEST PUSH1 0x40 MLOAD DUP1 SWAP2 SUB SWAP1 RETURN JUMPDEST PUSH1 0x0 DUP2 DUP4 DUP6 PUSH2 0xAA SWAP2 SWAP1 PUSH2 0x1FA JUMP JUMPDEST PUSH2 0xB4 SWAP2 SWAP1 PUSH2 0x1FA JUMP JUMPDEST SWAP1 POP SWAP4 SWAP3 POP POP POP JUMP JUMPDEST PUSH1 0x0 DUP2 DUP4 PUSH2 0xCB SWAP2 SWAP1 PUSH2 0x1FA JUMP JUMPDEST SWAP1 POP SWAP3 SWAP2 POP POP JUMP JUMPDEST PUSH1 0x0 DUP1 REVERT JUMPDEST PUSH1 0x0 DUP2 SWAP1 POP SWAP2 SWAP1 POP JUMP JUMPDEST PUSH2 0xEB DUP2 PUSH2 0xD8 JUMP JUMPDEST DUP2 EQ PUSH2 0xF6 JUMPI PUSH1 0x0 DUP1 REVERT JUMPDEST POP JUMP JUMPDEST PUSH1 0x0 DUP2 CALLDATALOAD SWAP1 POP PUSH2 0x108 DUP2 PUSH2 0xE2 JUMP JUMPDEST SWAP3 SWAP2 POP POP JUMP JUMPDEST PUSH1 0x0 DUP1 PUSH1 0x0 PUSH1 0x60 DUP5 DUP7 SUB SLT ISZERO PUSH2 0x127 JUMPI PUSH2 0x126 PUSH2 0xD3 JUMP JUMPDEST JUMPDEST PUSH1 0x0 PUSH2 0x135 DUP7 DUP3 DUP8 ADD PUSH2 0xF9 JUMP JUMPDEST SWAP4 POP POP PUSH1 0x20 PUSH2 0x146 DUP7 DUP3 DUP8 ADD PUSH2 0xF9 JUMP JUMPDEST SWAP3 POP POP PUSH1 0x40 PUSH2 0x157 DUP7 DUP3 DUP8 ADD PUSH2 0xF9 JUMP JUMPDEST SWAP2 POP POP SWAP3 POP SWAP3 POP SWAP3 JUMP JUMPDEST PUSH2 0x16A DUP2 PUSH2 0xD8 JUMP JUMPDEST DUP3 MSTORE POP POP JUMP JUMPDEST PUSH1 0x0 PUSH1 0x20 DUP3 ADD SWAP1 POP PUSH2 0x185 PUSH1 0x0 DUP4 ADD DUP5 PUSH2 0x161 JUMP JUMPDEST SWAP3 SWAP2 POP POP JUMP JUMPDEST PUSH1 0x0 DUP1 PUSH1 0x40 DUP4 DUP6 SUB SLT ISZERO PUSH2 0x1A2 JUMPI PUSH2 0x1A1 PUSH2 0xD3 JUMP JUMPDEST JUMPDEST PUSH1 0x0 PUSH2 0x1B0 DUP6 DUP3 DUP7 ADD PUSH2 0xF9 JUMP JUMPDEST SWAP3 POP POP PUSH1 0x20 PUSH2 0x1C1 DUP6 DUP3 DUP7 ADD PUSH2 0xF9 JUMP JUMPDEST SWAP2 POP POP SWAP3 POP SWAP3 SWAP1 POP JUMP JUMPDEST PUSH32 0x4E487B7100000000000000000000000000000000000000000000000000000000 PUSH1 0x0 MSTORE PUSH1 0x11 PUSH1 0x4 MSTORE PUSH1 0x24 PUSH1 0x0 REVERT JUMPDEST PUSH1 0x0 PUSH2 0x205 DUP3 PUSH2 0xD8 JUMP JUMPDEST SWAP2 POP PUSH2 0x210 DUP4 PUSH2 0xD8 JUMP JUMPDEST SWAP3 POP DUP3 DUP3 ADD SWAP1 POP DUP1 DUP3 GT ISZERO PUSH2 0x228 JUMPI PUSH2 0x227 PUSH2 0x1CB JUMP JUMPDEST JUMPDEST SWAP3 SWAP2 POP POP JUMP INVALID LOG2 PUSH5 0x6970667358 0x22 SLT KECCAK256 POP 0x26 JUMPDEST EXP 0x4B SUB 0xBA 0xDC CODESIZE 0xCE BLOCKHASH PUSH27 0x383F58999D02B9E664FADC46B5F681866E00FAD564736F6C634300 ADDMOD GT STOP CALLER "
				},
				"gasEstimates": {
					"creation": {
						"codeDepositCost": "156400",
						"executionCost": "infinite",
						"totalCost": "infinite"
					},
					"external": {
						"a()": "infinite",
						"aPoly(uint256,uint256)": "infinite"
					}
				},
				"methodIdentifiers": {
					"a()": "0dbe671f",
					"aPoly(uint256,uint256)": "62dda2ac"
				}
			},
			"storageLayout": {
				"storage": [
					{
						"astId": 31,
						"contract": "contracts/revision/object.sol:Book1",
						"label": "mybook",
						"offset": 0,
						"slot": "0",
						"type": "t_contract(Book)24"
					},
					{
						"astId": 38,
						"contract": "contracts/revision/object.sol:Book1",
						"label": "myPoly",
						"offset": 0,
						"slot": "1",
						"type": "t_contract(Poly)100"
					}
				],
				"types": {
					"t_contract(Book)24": {
						"encoding": "inplace",
						"label": "contract Book",
						"numberOfBytes": "20"
					},
					"t_contract(Poly)100": {
						"encoding": "inplace",
						"label": "contract Poly",
						"numberOfBytes": "20"
					}
				}
			},
			"userdoc": {
				"kind": "user",
				"methods": {},
				"version": 1
			}
		}
	}
}