{
	"contracts/revision/Assg_2.sol": {
		"Assign_2": {
			"abi": [
				{
					"inputs": [
						{
							"internalType": "string",
							"name": "_str1",
							"type": "string"
						},
						{
							"internalType": "string",
							"name": "_str2",
							"type": "string"
						}
					],
					"name": "compare2Strings",
					"outputs": [
						{
							"internalType": "bool",
							"name": "",
							"type": "bool"
						}
					],
					"stateMutability": "pure",
					"type": "function"
				},
				{
					"inputs": [
						{
							"internalType": "string",
							"name": "_str1",
							"type": "string"
						},
						{
							"internalType": "string",
							"name": "_str2",
							"type": "string"
						}
					],
					"name": "concat2Strings",
					"outputs": [
						{
							"internalType": "string",
							"name": "",
							"type": "string"
						}
					],
					"stateMutability": "pure",
					"type": "function"
				},
				{
					"inputs": [
						{
							"internalType": "int256",
							"name": "_num",
							"type": "int256"
						},
						{
							"internalType": "int256[]",
							"name": "_arr",
							"type": "int256[]"
						}
					],
					"name": "find",
					"outputs": [
						{
							"internalType": "bool",
							"name": "",
							"type": "bool"
						}
					],
					"stateMutability": "pure",
					"type": "function"
				},
				{
					"inputs": [
						{
							"internalType": "uint256[]",
							"name": "_arr",
							"type": "uint256[]"
						}
					],
					"name": "largestInArr",
					"outputs": [
						{
							"internalType": "uint256",
							"name": "",
							"type": "uint256"
						}
					],
					"stateMutability": "pure",
					"type": "function"
				}
			],
			"devdoc": {
				"kind": "dev",
				"methods": {},
				"version": 1
			},
			"evm": {
				"assembly": "    /* \"contracts/revision/Assg_2.sol\":56:887  contract Assign_2{... */\n  mstore(0x40, 0x80)\n  callvalue\n  dup1\n  iszero\n  tag_1\n  jumpi\n  0x00\n  dup1\n  revert\ntag_1:\n  pop\n  dataSize(sub_0)\n  dup1\n  dataOffset(sub_0)\n  0x00\n  codecopy\n  0x00\n  return\nstop\n\nsub_0: assembly {\n        /* \"contracts/revision/Assg_2.sol\":56:887  contract Assign_2{... */\n      mstore(0x40, 0x80)\n      callvalue\n      dup1\n      iszero\n      tag_1\n      jumpi\n      0x00\n      dup1\n      revert\n    tag_1:\n      pop\n      jumpi(tag_2, lt(calldatasize, 0x04))\n      shr(0xe0, calldataload(0x00))\n      dup1\n      0x094825b9\n      eq\n      tag_3\n      jumpi\n      dup1\n      0x4309fba7\n      eq\n      tag_4\n      jumpi\n      dup1\n      0xcdbb7a5a\n      eq\n      tag_5\n      jumpi\n      dup1\n      0xf9cb5bd8\n      eq\n      tag_6\n      jumpi\n    tag_2:\n      0x00\n      dup1\n      revert\n        /* \"contracts/revision/Assg_2.sol\":519:775  function find(int _num, int[] memory _arr) external pure returns (bool) {... */\n    tag_3:\n      tag_7\n      0x04\n      dup1\n      calldatasize\n      sub\n      dup2\n      add\n      swap1\n      tag_8\n      swap2\n      swap1\n      tag_9\n      jump\t// in\n    tag_8:\n      tag_10\n      jump\t// in\n    tag_7:\n      mload(0x40)\n      tag_11\n      swap2\n      swap1\n      tag_12\n      jump\t// in\n    tag_11:\n      mload(0x40)\n      dup1\n      swap2\n      sub\n      swap1\n      return\n        /* \"contracts/revision/Assg_2.sol\":105:261  function concat2Strings(string calldata _str1, string calldata _str2) pure external returns(string memory){... */\n    tag_4:\n      tag_13\n      0x04\n      dup1\n      calldatasize\n      sub\n      dup2\n      add\n      swap1\n      tag_14\n      swap2\n      swap1\n      tag_15\n      jump\t// in\n    tag_14:\n      tag_16\n      jump\t// in\n    tag_13:\n      mload(0x40)\n      tag_17\n      swap2\n      swap1\n      tag_18\n      jump\t// in\n    tag_17:\n      mload(0x40)\n      dup1\n      swap2\n      sub\n      swap1\n      return\n        /* \"contracts/revision/Assg_2.sol\":806:883  function largestInArr(uint[] memory _arr) pure external returns(uint){... */\n    tag_5:\n      tag_19\n      0x04\n      dup1\n      calldatasize\n      sub\n      dup2\n      add\n      swap1\n      tag_20\n      swap2\n      swap1\n      tag_21\n      jump\t// in\n    tag_20:\n      tag_22\n      jump\t// in\n    tag_19:\n      mload(0x40)\n      tag_23\n      swap2\n      swap1\n      tag_24\n      jump\t// in\n    tag_23:\n      mload(0x40)\n      dup1\n      swap2\n      sub\n      swap1\n      return\n        /* \"contracts/revision/Assg_2.sol\":293:487  function compare2Strings(string calldata _str1, string calldata _str2) pure external returns(bool){... */\n    tag_6:\n      tag_25\n      0x04\n      dup1\n      calldatasize\n      sub\n      dup2\n      add\n      swap1\n      tag_26\n      swap2\n      swap1\n      tag_15\n      jump\t// in\n    tag_26:\n      tag_27\n      jump\t// in\n    tag_25:\n      mload(0x40)\n      tag_28\n      swap2\n      swap1\n      tag_12\n      jump\t// in\n    tag_28:\n      mload(0x40)\n      dup1\n      swap2\n      sub\n      swap1\n      return\n        /* \"contracts/revision/Assg_2.sol\":519:775  function find(int _num, int[] memory _arr) external pure returns (bool) {... */\n    tag_10:\n        /* \"contracts/revision/Assg_2.sol\":585:589  bool */\n      0x00\n        /* \"contracts/revision/Assg_2.sol\":601:613  bool isFound */\n      dup1\n        /* \"contracts/revision/Assg_2.sol\":628:634  uint i */\n      0x00\n        /* \"contracts/revision/Assg_2.sol\":623:745  for (uint i=0; i<_arr.length; i++){... */\n    tag_30:\n        /* \"contracts/revision/Assg_2.sol\":640:644  _arr */\n      dup4\n        /* \"contracts/revision/Assg_2.sol\":640:651  _arr.length */\n      mload\n        /* \"contracts/revision/Assg_2.sol\":638:639  i */\n      dup2\n        /* \"contracts/revision/Assg_2.sol\":638:651  i<_arr.length */\n      lt\n        /* \"contracts/revision/Assg_2.sol\":623:745  for (uint i=0; i<_arr.length; i++){... */\n      iszero\n      tag_31\n      jumpi\n        /* \"contracts/revision/Assg_2.sol\":683:687  _num */\n      dup5\n        /* \"contracts/revision/Assg_2.sol\":674:678  _arr */\n      dup5\n        /* \"contracts/revision/Assg_2.sol\":679:680  i */\n      dup3\n        /* \"contracts/revision/Assg_2.sol\":674:681  _arr[i] */\n      dup2\n      mload\n      dup2\n      lt\n      tag_33\n      jumpi\n      tag_34\n      tag_35\n      jump\t// in\n    tag_34:\n    tag_33:\n      0x20\n      mul\n      0x20\n      add\n      add\n      mload\n        /* \"contracts/revision/Assg_2.sol\":674:687  _arr[i]==_num */\n      sub\n        /* \"contracts/revision/Assg_2.sol\":671:735  if(_arr[i]==_num){... */\n      tag_36\n      jumpi\n        /* \"contracts/revision/Assg_2.sol\":716:720  true */\n      0x01\n        /* \"contracts/revision/Assg_2.sol\":706:720  isFound = true */\n      swap2\n      pop\n        /* \"contracts/revision/Assg_2.sol\":671:735  if(_arr[i]==_num){... */\n    tag_36:\n        /* \"contracts/revision/Assg_2.sol\":653:656  i++ */\n      dup1\n      dup1\n      tag_37\n      swap1\n      tag_38\n      jump\t// in\n    tag_37:\n      swap2\n      pop\n      pop\n        /* \"contracts/revision/Assg_2.sol\":623:745  for (uint i=0; i<_arr.length; i++){... */\n      jump(tag_30)\n    tag_31:\n      pop\n        /* \"contracts/revision/Assg_2.sol\":761:768  isFound */\n      dup1\n        /* \"contracts/revision/Assg_2.sol\":754:768  return isFound */\n      swap2\n      pop\n      pop\n        /* \"contracts/revision/Assg_2.sol\":519:775  function find(int _num, int[] memory _arr) external pure returns (bool) {... */\n      swap3\n      swap2\n      pop\n      pop\n      jump\t// out\n        /* \"contracts/revision/Assg_2.sol\":105:261  function concat2Strings(string calldata _str1, string calldata _str2) pure external returns(string memory){... */\n    tag_16:\n        /* \"contracts/revision/Assg_2.sol\":197:210  string memory */\n      0x60\n        /* \"contracts/revision/Assg_2.sol\":242:247  _str1 */\n      dup5\n      dup5\n        /* \"contracts/revision/Assg_2.sol\":248:253  _str2 */\n      dup5\n      dup5\n        /* \"contracts/revision/Assg_2.sol\":228:254  string.concat(_str1,_str2) */\n      add(0x20, mload(0x40))\n      tag_40\n      swap5\n      swap4\n      swap3\n      swap2\n      swap1\n      tag_41\n      jump\t// in\n    tag_40:\n      mload(0x40)\n      0x20\n      dup2\n      dup4\n      sub\n      sub\n      dup2\n      mstore\n      swap1\n      0x40\n      mstore\n        /* \"contracts/revision/Assg_2.sol\":221:254  return string.concat(_str1,_str2) */\n      swap1\n      pop\n        /* \"contracts/revision/Assg_2.sol\":105:261  function concat2Strings(string calldata _str1, string calldata _str2) pure external returns(string memory){... */\n      swap5\n      swap4\n      pop\n      pop\n      pop\n      pop\n      jump\t// out\n        /* \"contracts/revision/Assg_2.sol\":806:883  function largestInArr(uint[] memory _arr) pure external returns(uint){... */\n    tag_22:\n        /* \"contracts/revision/Assg_2.sol\":870:874  uint */\n      0x00\n        /* \"contracts/revision/Assg_2.sol\":806:883  function largestInArr(uint[] memory _arr) pure external returns(uint){... */\n      swap2\n      swap1\n      pop\n      jump\t// out\n        /* \"contracts/revision/Assg_2.sol\":293:487  function compare2Strings(string calldata _str1, string calldata _str2) pure external returns(bool){... */\n    tag_27:\n        /* \"contracts/revision/Assg_2.sol\":386:390  bool */\n      0x00\n        /* \"contracts/revision/Assg_2.sol\":473:478  _str2 */\n      dup3\n      dup3\n        /* \"contracts/revision/Assg_2.sol\":456:479  abi.encodePacked(_str2) */\n      add(0x20, mload(0x40))\n      tag_44\n      swap3\n      swap2\n      swap1\n      tag_45\n      jump\t// in\n    tag_44:\n      mload(0x40)\n      0x20\n      dup2\n      dup4\n      sub\n      sub\n      dup2\n      mstore\n      swap1\n      0x40\n      mstore\n        /* \"contracts/revision/Assg_2.sol\":446:480  keccak256(abi.encodePacked(_str2)) */\n      dup1\n      mload\n      swap1\n      0x20\n      add\n      keccak256\n        /* \"contracts/revision/Assg_2.sol\":435:440  _str1 */\n      dup6\n      dup6\n        /* \"contracts/revision/Assg_2.sol\":418:441  abi.encodePacked(_str1) */\n      add(0x20, mload(0x40))\n      tag_46\n      swap3\n      swap2\n      swap1\n      tag_45\n      jump\t// in\n    tag_46:\n      mload(0x40)\n      0x20\n      dup2\n      dup4\n      sub\n      sub\n      dup2\n      mstore\n      swap1\n      0x40\n      mstore\n        /* \"contracts/revision/Assg_2.sol\":408:442  keccak256(abi.encodePacked(_str1)) */\n      dup1\n      mload\n      swap1\n      0x20\n      add\n      keccak256\n        /* \"contracts/revision/Assg_2.sol\":408:480  keccak256(abi.encodePacked(_str1)) == keccak256(abi.encodePacked(_str2)) */\n      eq\n        /* \"contracts/revision/Assg_2.sol\":401:480  return keccak256(abi.encodePacked(_str1)) == keccak256(abi.encodePacked(_str2)) */\n      swap1\n      pop\n        /* \"contracts/revision/Assg_2.sol\":293:487  function compare2Strings(string calldata _str1, string calldata _str2) pure external returns(bool){... */\n      swap5\n      swap4\n      pop\n      pop\n      pop\n      pop\n      jump\t// out\n        /* \"#utility.yul\":7:82   */\n    tag_47:\n        /* \"#utility.yul\":40:46   */\n      0x00\n        /* \"#utility.yul\":73:75   */\n      0x40\n        /* \"#utility.yul\":67:76   */\n      mload\n        /* \"#utility.yul\":57:76   */\n      swap1\n      pop\n        /* \"#utility.yul\":7:82   */\n      swap1\n      jump\t// out\n        /* \"#utility.yul\":88:205   */\n    tag_48:\n        /* \"#utility.yul\":197:198   */\n      0x00\n        /* \"#utility.yul\":194:195   */\n      dup1\n        /* \"#utility.yul\":187:199   */\n      revert\n        /* \"#utility.yul\":211:328   */\n    tag_49:\n        /* \"#utility.yul\":320:321   */\n      0x00\n        /* \"#utility.yul\":317:318   */\n      dup1\n        /* \"#utility.yul\":310:322   */\n      revert\n        /* \"#utility.yul\":334:410   */\n    tag_50:\n        /* \"#utility.yul\":370:377   */\n      0x00\n        /* \"#utility.yul\":399:404   */\n      dup2\n        /* \"#utility.yul\":388:404   */\n      swap1\n      pop\n        /* \"#utility.yul\":334:410   */\n      swap2\n      swap1\n      pop\n      jump\t// out\n        /* \"#utility.yul\":416:536   */\n    tag_51:\n        /* \"#utility.yul\":488:511   */\n      tag_87\n        /* \"#utility.yul\":505:510   */\n      dup2\n        /* \"#utility.yul\":488:511   */\n      tag_50\n      jump\t// in\n    tag_87:\n        /* \"#utility.yul\":481:486   */\n      dup2\n        /* \"#utility.yul\":478:512   */\n      eq\n        /* \"#utility.yul\":468:530   */\n      tag_88\n      jumpi\n        /* \"#utility.yul\":526:527   */\n      0x00\n        /* \"#utility.yul\":523:524   */\n      dup1\n        /* \"#utility.yul\":516:528   */\n      revert\n        /* \"#utility.yul\":468:530   */\n    tag_88:\n        /* \"#utility.yul\":416:536   */\n      pop\n      jump\t// out\n        /* \"#utility.yul\":542:679   */\n    tag_52:\n        /* \"#utility.yul\":587:592   */\n      0x00\n        /* \"#utility.yul\":625:631   */\n      dup2\n        /* \"#utility.yul\":612:632   */\n      calldataload\n        /* \"#utility.yul\":603:632   */\n      swap1\n      pop\n        /* \"#utility.yul\":641:673   */\n      tag_90\n        /* \"#utility.yul\":667:672   */\n      dup2\n        /* \"#utility.yul\":641:673   */\n      tag_51\n      jump\t// in\n    tag_90:\n        /* \"#utility.yul\":542:679   */\n      swap3\n      swap2\n      pop\n      pop\n      jump\t// out\n        /* \"#utility.yul\":685:802   */\n    tag_53:\n        /* \"#utility.yul\":794:795   */\n      0x00\n        /* \"#utility.yul\":791:792   */\n      dup1\n        /* \"#utility.yul\":784:796   */\n      revert\n        /* \"#utility.yul\":808:910   */\n    tag_54:\n        /* \"#utility.yul\":849:855   */\n      0x00\n        /* \"#utility.yul\":900:902   */\n      0x1f\n        /* \"#utility.yul\":896:903   */\n      not\n        /* \"#utility.yul\":891:893   */\n      0x1f\n        /* \"#utility.yul\":884:889   */\n      dup4\n        /* \"#utility.yul\":880:894   */\n      add\n        /* \"#utility.yul\":876:904   */\n      and\n        /* \"#utility.yul\":866:904   */\n      swap1\n      pop\n        /* \"#utility.yul\":808:910   */\n      swap2\n      swap1\n      pop\n      jump\t// out\n        /* \"#utility.yul\":916:1096   */\n    tag_55:\n        /* \"#utility.yul\":964:1041   */\n      0x4e487b7100000000000000000000000000000000000000000000000000000000\n        /* \"#utility.yul\":961:962   */\n      0x00\n        /* \"#utility.yul\":954:1042   */\n      mstore\n        /* \"#utility.yul\":1061:1065   */\n      0x41\n        /* \"#utility.yul\":1058:1059   */\n      0x04\n        /* \"#utility.yul\":1051:1066   */\n      mstore\n        /* \"#utility.yul\":1085:1089   */\n      0x24\n        /* \"#utility.yul\":1082:1083   */\n      0x00\n        /* \"#utility.yul\":1075:1090   */\n      revert\n        /* \"#utility.yul\":1102:1383   */\n    tag_56:\n        /* \"#utility.yul\":1185:1212   */\n      tag_95\n        /* \"#utility.yul\":1207:1211   */\n      dup3\n        /* \"#utility.yul\":1185:1212   */\n      tag_54\n      jump\t// in\n    tag_95:\n        /* \"#utility.yul\":1177:1183   */\n      dup2\n        /* \"#utility.yul\":1173:1213   */\n      add\n        /* \"#utility.yul\":1315:1321   */\n      dup2\n        /* \"#utility.yul\":1303:1313   */\n      dup2\n        /* \"#utility.yul\":1300:1322   */\n      lt\n        /* \"#utility.yul\":1279:1297   */\n      0xffffffffffffffff\n        /* \"#utility.yul\":1267:1277   */\n      dup3\n        /* \"#utility.yul\":1264:1298   */\n      gt\n        /* \"#utility.yul\":1261:1323   */\n      or\n        /* \"#utility.yul\":1258:1346   */\n      iszero\n      tag_96\n      jumpi\n        /* \"#utility.yul\":1326:1344   */\n      tag_97\n      tag_55\n      jump\t// in\n    tag_97:\n        /* \"#utility.yul\":1258:1346   */\n    tag_96:\n        /* \"#utility.yul\":1366:1376   */\n      dup1\n        /* \"#utility.yul\":1362:1364   */\n      0x40\n        /* \"#utility.yul\":1355:1377   */\n      mstore\n        /* \"#utility.yul\":1145:1383   */\n      pop\n        /* \"#utility.yul\":1102:1383   */\n      pop\n      pop\n      jump\t// out\n        /* \"#utility.yul\":1389:1518   */\n    tag_57:\n        /* \"#utility.yul\":1423:1429   */\n      0x00\n        /* \"#utility.yul\":1450:1470   */\n      tag_99\n      tag_47\n      jump\t// in\n    tag_99:\n        /* \"#utility.yul\":1440:1470   */\n      swap1\n      pop\n        /* \"#utility.yul\":1479:1512   */\n      tag_100\n        /* \"#utility.yul\":1507:1511   */\n      dup3\n        /* \"#utility.yul\":1499:1505   */\n      dup3\n        /* \"#utility.yul\":1479:1512   */\n      tag_56\n      jump\t// in\n    tag_100:\n        /* \"#utility.yul\":1389:1518   */\n      swap2\n      swap1\n      pop\n      jump\t// out\n        /* \"#utility.yul\":1524:1834   */\n    tag_58:\n        /* \"#utility.yul\":1600:1604   */\n      0x00\n        /* \"#utility.yul\":1690:1708   */\n      0xffffffffffffffff\n        /* \"#utility.yul\":1682:1688   */\n      dup3\n        /* \"#utility.yul\":1679:1709   */\n      gt\n        /* \"#utility.yul\":1676:1732   */\n      iszero\n      tag_102\n      jumpi\n        /* \"#utility.yul\":1712:1730   */\n      tag_103\n      tag_55\n      jump\t// in\n    tag_103:\n        /* \"#utility.yul\":1676:1732   */\n    tag_102:\n        /* \"#utility.yul\":1762:1766   */\n      0x20\n        /* \"#utility.yul\":1754:1760   */\n      dup3\n        /* \"#utility.yul\":1750:1767   */\n      mul\n        /* \"#utility.yul\":1742:1767   */\n      swap1\n      pop\n        /* \"#utility.yul\":1822:1826   */\n      0x20\n        /* \"#utility.yul\":1816:1820   */\n      dup2\n        /* \"#utility.yul\":1812:1827   */\n      add\n        /* \"#utility.yul\":1804:1827   */\n      swap1\n      pop\n        /* \"#utility.yul\":1524:1834   */\n      swap2\n      swap1\n      pop\n      jump\t// out\n        /* \"#utility.yul\":1840:1957   */\n    tag_59:\n        /* \"#utility.yul\":1949:1950   */\n      0x00\n        /* \"#utility.yul\":1946:1947   */\n      dup1\n        /* \"#utility.yul\":1939:1951   */\n      revert\n        /* \"#utility.yul\":1979:2686   */\n    tag_60:\n        /* \"#utility.yul\":2074:2079   */\n      0x00\n        /* \"#utility.yul\":2099:2179   */\n      tag_106\n        /* \"#utility.yul\":2115:2178   */\n      tag_107\n        /* \"#utility.yul\":2171:2177   */\n      dup5\n        /* \"#utility.yul\":2115:2178   */\n      tag_58\n      jump\t// in\n    tag_107:\n        /* \"#utility.yul\":2099:2179   */\n      tag_57\n      jump\t// in\n    tag_106:\n        /* \"#utility.yul\":2090:2179   */\n      swap1\n      pop\n        /* \"#utility.yul\":2199:2204   */\n      dup1\n        /* \"#utility.yul\":2228:2234   */\n      dup4\n        /* \"#utility.yul\":2221:2226   */\n      dup3\n        /* \"#utility.yul\":2214:2235   */\n      mstore\n        /* \"#utility.yul\":2262:2266   */\n      0x20\n        /* \"#utility.yul\":2255:2260   */\n      dup3\n        /* \"#utility.yul\":2251:2267   */\n      add\n        /* \"#utility.yul\":2244:2267   */\n      swap1\n      pop\n        /* \"#utility.yul\":2315:2319   */\n      0x20\n        /* \"#utility.yul\":2307:2313   */\n      dup5\n        /* \"#utility.yul\":2303:2320   */\n      mul\n        /* \"#utility.yul\":2295:2301   */\n      dup4\n        /* \"#utility.yul\":2291:2321   */\n      add\n        /* \"#utility.yul\":2344:2347   */\n      dup6\n        /* \"#utility.yul\":2336:2342   */\n      dup2\n        /* \"#utility.yul\":2333:2348   */\n      gt\n        /* \"#utility.yul\":2330:2452   */\n      iszero\n      tag_108\n      jumpi\n        /* \"#utility.yul\":2363:2442   */\n      tag_109\n      tag_59\n      jump\t// in\n    tag_109:\n        /* \"#utility.yul\":2330:2452   */\n    tag_108:\n        /* \"#utility.yul\":2478:2484   */\n      dup4\n        /* \"#utility.yul\":2461:2680   */\n    tag_110:\n        /* \"#utility.yul\":2495:2501   */\n      dup2\n        /* \"#utility.yul\":2490:2493   */\n      dup2\n        /* \"#utility.yul\":2487:2502   */\n      lt\n        /* \"#utility.yul\":2461:2680   */\n      iszero\n      tag_112\n      jumpi\n        /* \"#utility.yul\":2570:2573   */\n      dup1\n        /* \"#utility.yul\":2599:2635   */\n      tag_113\n        /* \"#utility.yul\":2631:2634   */\n      dup9\n        /* \"#utility.yul\":2619:2629   */\n      dup3\n        /* \"#utility.yul\":2599:2635   */\n      tag_52\n      jump\t// in\n    tag_113:\n        /* \"#utility.yul\":2594:2597   */\n      dup5\n        /* \"#utility.yul\":2587:2636   */\n      mstore\n        /* \"#utility.yul\":2665:2669   */\n      0x20\n        /* \"#utility.yul\":2660:2663   */\n      dup5\n        /* \"#utility.yul\":2656:2670   */\n      add\n        /* \"#utility.yul\":2649:2670   */\n      swap4\n      pop\n        /* \"#utility.yul\":2537:2680   */\n      pop\n        /* \"#utility.yul\":2521:2525   */\n      0x20\n        /* \"#utility.yul\":2516:2519   */\n      dup2\n        /* \"#utility.yul\":2512:2526   */\n      add\n        /* \"#utility.yul\":2505:2526   */\n      swap1\n      pop\n        /* \"#utility.yul\":2461:2680   */\n      jump(tag_110)\n    tag_112:\n        /* \"#utility.yul\":2465:2486   */\n      pop\n        /* \"#utility.yul\":2080:2686   */\n      pop\n      pop\n        /* \"#utility.yul\":1979:2686   */\n      swap4\n      swap3\n      pop\n      pop\n      pop\n      jump\t// out\n        /* \"#utility.yul\":2708:3076   */\n    tag_61:\n        /* \"#utility.yul\":2778:2783   */\n      0x00\n        /* \"#utility.yul\":2827:2830   */\n      dup3\n        /* \"#utility.yul\":2820:2824   */\n      0x1f\n        /* \"#utility.yul\":2812:2818   */\n      dup4\n        /* \"#utility.yul\":2808:2825   */\n      add\n        /* \"#utility.yul\":2804:2831   */\n      slt\n        /* \"#utility.yul\":2794:2916   */\n      tag_115\n      jumpi\n        /* \"#utility.yul\":2835:2914   */\n      tag_116\n      tag_53\n      jump\t// in\n    tag_116:\n        /* \"#utility.yul\":2794:2916   */\n    tag_115:\n        /* \"#utility.yul\":2952:2958   */\n      dup2\n        /* \"#utility.yul\":2939:2959   */\n      calldataload\n        /* \"#utility.yul\":2977:3070   */\n      tag_117\n        /* \"#utility.yul\":3066:3069   */\n      dup5\n        /* \"#utility.yul\":3058:3064   */\n      dup3\n        /* \"#utility.yul\":3051:3055   */\n      0x20\n        /* \"#utility.yul\":3043:3049   */\n      dup7\n        /* \"#utility.yul\":3039:3056   */\n      add\n        /* \"#utility.yul\":2977:3070   */\n      tag_60\n      jump\t// in\n    tag_117:\n        /* \"#utility.yul\":2968:3070   */\n      swap2\n      pop\n        /* \"#utility.yul\":2784:3076   */\n      pop\n        /* \"#utility.yul\":2708:3076   */\n      swap3\n      swap2\n      pop\n      pop\n      jump\t// out\n        /* \"#utility.yul\":3082:3762   */\n    tag_9:\n        /* \"#utility.yul\":3173:3179   */\n      0x00\n        /* \"#utility.yul\":3181:3187   */\n      dup1\n        /* \"#utility.yul\":3230:3232   */\n      0x40\n        /* \"#utility.yul\":3218:3227   */\n      dup4\n        /* \"#utility.yul\":3209:3216   */\n      dup6\n        /* \"#utility.yul\":3205:3228   */\n      sub\n        /* \"#utility.yul\":3201:3233   */\n      slt\n        /* \"#utility.yul\":3198:3317   */\n      iszero\n      tag_119\n      jumpi\n        /* \"#utility.yul\":3236:3315   */\n      tag_120\n      tag_48\n      jump\t// in\n    tag_120:\n        /* \"#utility.yul\":3198:3317   */\n    tag_119:\n        /* \"#utility.yul\":3356:3357   */\n      0x00\n        /* \"#utility.yul\":3381:3433   */\n      tag_121\n        /* \"#utility.yul\":3425:3432   */\n      dup6\n        /* \"#utility.yul\":3416:3422   */\n      dup3\n        /* \"#utility.yul\":3405:3414   */\n      dup7\n        /* \"#utility.yul\":3401:3423   */\n      add\n        /* \"#utility.yul\":3381:3433   */\n      tag_52\n      jump\t// in\n    tag_121:\n        /* \"#utility.yul\":3371:3433   */\n      swap3\n      pop\n        /* \"#utility.yul\":3327:3443   */\n      pop\n        /* \"#utility.yul\":3510:3512   */\n      0x20\n        /* \"#utility.yul\":3499:3508   */\n      dup4\n        /* \"#utility.yul\":3495:3513   */\n      add\n        /* \"#utility.yul\":3482:3514   */\n      calldataload\n        /* \"#utility.yul\":3541:3559   */\n      0xffffffffffffffff\n        /* \"#utility.yul\":3533:3539   */\n      dup2\n        /* \"#utility.yul\":3530:3560   */\n      gt\n        /* \"#utility.yul\":3527:3644   */\n      iszero\n      tag_122\n      jumpi\n        /* \"#utility.yul\":3563:3642   */\n      tag_123\n      tag_49\n      jump\t// in\n    tag_123:\n        /* \"#utility.yul\":3527:3644   */\n    tag_122:\n        /* \"#utility.yul\":3668:3745   */\n      tag_124\n        /* \"#utility.yul\":3737:3744   */\n      dup6\n        /* \"#utility.yul\":3728:3734   */\n      dup3\n        /* \"#utility.yul\":3717:3726   */\n      dup7\n        /* \"#utility.yul\":3713:3735   */\n      add\n        /* \"#utility.yul\":3668:3745   */\n      tag_61\n      jump\t// in\n    tag_124:\n        /* \"#utility.yul\":3658:3745   */\n      swap2\n      pop\n        /* \"#utility.yul\":3453:3755   */\n      pop\n        /* \"#utility.yul\":3082:3762   */\n      swap3\n      pop\n      swap3\n      swap1\n      pop\n      jump\t// out\n        /* \"#utility.yul\":3768:3858   */\n    tag_62:\n        /* \"#utility.yul\":3802:3809   */\n      0x00\n        /* \"#utility.yul\":3845:3850   */\n      dup2\n        /* \"#utility.yul\":3838:3851   */\n      iszero\n        /* \"#utility.yul\":3831:3852   */\n      iszero\n        /* \"#utility.yul\":3820:3852   */\n      swap1\n      pop\n        /* \"#utility.yul\":3768:3858   */\n      swap2\n      swap1\n      pop\n      jump\t// out\n        /* \"#utility.yul\":3864:3973   */\n    tag_63:\n        /* \"#utility.yul\":3945:3966   */\n      tag_127\n        /* \"#utility.yul\":3960:3965   */\n      dup2\n        /* \"#utility.yul\":3945:3966   */\n      tag_62\n      jump\t// in\n    tag_127:\n        /* \"#utility.yul\":3940:3943   */\n      dup3\n        /* \"#utility.yul\":3933:3967   */\n      mstore\n        /* \"#utility.yul\":3864:3973   */\n      pop\n      pop\n      jump\t// out\n        /* \"#utility.yul\":3979:4189   */\n    tag_12:\n        /* \"#utility.yul\":4066:4070   */\n      0x00\n        /* \"#utility.yul\":4104:4106   */\n      0x20\n        /* \"#utility.yul\":4093:4102   */\n      dup3\n        /* \"#utility.yul\":4089:4107   */\n      add\n        /* \"#utility.yul\":4081:4107   */\n      swap1\n      pop\n        /* \"#utility.yul\":4117:4182   */\n      tag_129\n        /* \"#utility.yul\":4179:4180   */\n      0x00\n        /* \"#utility.yul\":4168:4177   */\n      dup4\n        /* \"#utility.yul\":4164:4181   */\n      add\n        /* \"#utility.yul\":4155:4161   */\n      dup5\n        /* \"#utility.yul\":4117:4182   */\n      tag_63\n      jump\t// in\n    tag_129:\n        /* \"#utility.yul\":3979:4189   */\n      swap3\n      swap2\n      pop\n      pop\n      jump\t// out\n        /* \"#utility.yul\":4195:4312   */\n    tag_64:\n        /* \"#utility.yul\":4304:4305   */\n      0x00\n        /* \"#utility.yul\":4301:4302   */\n      dup1\n        /* \"#utility.yul\":4294:4306   */\n      revert\n        /* \"#utility.yul\":4332:4885   */\n    tag_65:\n        /* \"#utility.yul\":4390:4398   */\n      0x00\n        /* \"#utility.yul\":4400:4406   */\n      dup1\n        /* \"#utility.yul\":4450:4453   */\n      dup4\n        /* \"#utility.yul\":4443:4447   */\n      0x1f\n        /* \"#utility.yul\":4435:4441   */\n      dup5\n        /* \"#utility.yul\":4431:4448   */\n      add\n        /* \"#utility.yul\":4427:4454   */\n      slt\n        /* \"#utility.yul\":4417:4539   */\n      tag_132\n      jumpi\n        /* \"#utility.yul\":4458:4537   */\n      tag_133\n      tag_53\n      jump\t// in\n    tag_133:\n        /* \"#utility.yul\":4417:4539   */\n    tag_132:\n        /* \"#utility.yul\":4571:4577   */\n      dup3\n        /* \"#utility.yul\":4558:4578   */\n      calldataload\n        /* \"#utility.yul\":4548:4578   */\n      swap1\n      pop\n        /* \"#utility.yul\":4601:4619   */\n      0xffffffffffffffff\n        /* \"#utility.yul\":4593:4599   */\n      dup2\n        /* \"#utility.yul\":4590:4620   */\n      gt\n        /* \"#utility.yul\":4587:4704   */\n      iszero\n      tag_134\n      jumpi\n        /* \"#utility.yul\":4623:4702   */\n      tag_135\n      tag_64\n      jump\t// in\n    tag_135:\n        /* \"#utility.yul\":4587:4704   */\n    tag_134:\n        /* \"#utility.yul\":4737:4741   */\n      0x20\n        /* \"#utility.yul\":4729:4735   */\n      dup4\n        /* \"#utility.yul\":4725:4742   */\n      add\n        /* \"#utility.yul\":4713:4742   */\n      swap2\n      pop\n        /* \"#utility.yul\":4791:4794   */\n      dup4\n        /* \"#utility.yul\":4783:4787   */\n      0x01\n        /* \"#utility.yul\":4775:4781   */\n      dup3\n        /* \"#utility.yul\":4771:4788   */\n      mul\n        /* \"#utility.yul\":4761:4769   */\n      dup4\n        /* \"#utility.yul\":4757:4789   */\n      add\n        /* \"#utility.yul\":4754:4795   */\n      gt\n        /* \"#utility.yul\":4751:4879   */\n      iszero\n      tag_136\n      jumpi\n        /* \"#utility.yul\":4798:4877   */\n      tag_137\n      tag_59\n      jump\t// in\n    tag_137:\n        /* \"#utility.yul\":4751:4879   */\n    tag_136:\n        /* \"#utility.yul\":4332:4885   */\n      swap3\n      pop\n      swap3\n      swap1\n      pop\n      jump\t// out\n        /* \"#utility.yul\":4891:5765   */\n    tag_15:\n        /* \"#utility.yul\":4983:4989   */\n      0x00\n        /* \"#utility.yul\":4991:4997   */\n      dup1\n        /* \"#utility.yul\":4999:5005   */\n      0x00\n        /* \"#utility.yul\":5007:5013   */\n      dup1\n        /* \"#utility.yul\":5056:5058   */\n      0x40\n        /* \"#utility.yul\":5044:5053   */\n      dup6\n        /* \"#utility.yul\":5035:5042   */\n      dup8\n        /* \"#utility.yul\":5031:5054   */\n      sub\n        /* \"#utility.yul\":5027:5059   */\n      slt\n        /* \"#utility.yul\":5024:5143   */\n      iszero\n      tag_139\n      jumpi\n        /* \"#utility.yul\":5062:5141   */\n      tag_140\n      tag_48\n      jump\t// in\n    tag_140:\n        /* \"#utility.yul\":5024:5143   */\n    tag_139:\n        /* \"#utility.yul\":5210:5211   */\n      0x00\n        /* \"#utility.yul\":5199:5208   */\n      dup6\n        /* \"#utility.yul\":5195:5212   */\n      add\n        /* \"#utility.yul\":5182:5213   */\n      calldataload\n        /* \"#utility.yul\":5240:5258   */\n      0xffffffffffffffff\n        /* \"#utility.yul\":5232:5238   */\n      dup2\n        /* \"#utility.yul\":5229:5259   */\n      gt\n        /* \"#utility.yul\":5226:5343   */\n      iszero\n      tag_141\n      jumpi\n        /* \"#utility.yul\":5262:5341   */\n      tag_142\n      tag_49\n      jump\t// in\n    tag_142:\n        /* \"#utility.yul\":5226:5343   */\n    tag_141:\n        /* \"#utility.yul\":5375:5440   */\n      tag_143\n        /* \"#utility.yul\":5432:5439   */\n      dup8\n        /* \"#utility.yul\":5423:5429   */\n      dup3\n        /* \"#utility.yul\":5412:5421   */\n      dup9\n        /* \"#utility.yul\":5408:5430   */\n      add\n        /* \"#utility.yul\":5375:5440   */\n      tag_65\n      jump\t// in\n    tag_143:\n        /* \"#utility.yul\":5357:5440   */\n      swap5\n      pop\n      swap5\n      pop\n        /* \"#utility.yul\":5153:5450   */\n      pop\n        /* \"#utility.yul\":5517:5519   */\n      0x20\n        /* \"#utility.yul\":5506:5515   */\n      dup6\n        /* \"#utility.yul\":5502:5520   */\n      add\n        /* \"#utility.yul\":5489:5521   */\n      calldataload\n        /* \"#utility.yul\":5548:5566   */\n      0xffffffffffffffff\n        /* \"#utility.yul\":5540:5546   */\n      dup2\n        /* \"#utility.yul\":5537:5567   */\n      gt\n        /* \"#utility.yul\":5534:5651   */\n      iszero\n      tag_144\n      jumpi\n        /* \"#utility.yul\":5570:5649   */\n      tag_145\n      tag_49\n      jump\t// in\n    tag_145:\n        /* \"#utility.yul\":5534:5651   */\n    tag_144:\n        /* \"#utility.yul\":5683:5748   */\n      tag_146\n        /* \"#utility.yul\":5740:5747   */\n      dup8\n        /* \"#utility.yul\":5731:5737   */\n      dup3\n        /* \"#utility.yul\":5720:5729   */\n      dup9\n        /* \"#utility.yul\":5716:5738   */\n      add\n        /* \"#utility.yul\":5683:5748   */\n      tag_65\n      jump\t// in\n    tag_146:\n        /* \"#utility.yul\":5665:5748   */\n      swap3\n      pop\n      swap3\n      pop\n        /* \"#utility.yul\":5460:5758   */\n      pop\n        /* \"#utility.yul\":4891:5765   */\n      swap3\n      swap6\n      swap2\n      swap5\n      pop\n      swap3\n      pop\n      jump\t// out\n        /* \"#utility.yul\":5771:5870   */\n    tag_66:\n        /* \"#utility.yul\":5823:5829   */\n      0x00\n        /* \"#utility.yul\":5857:5862   */\n      dup2\n        /* \"#utility.yul\":5851:5863   */\n      mload\n        /* \"#utility.yul\":5841:5863   */\n      swap1\n      pop\n        /* \"#utility.yul\":5771:5870   */\n      swap2\n      swap1\n      pop\n      jump\t// out\n        /* \"#utility.yul\":5876:6045   */\n    tag_67:\n        /* \"#utility.yul\":5960:5971   */\n      0x00\n        /* \"#utility.yul\":5994:6000   */\n      dup3\n        /* \"#utility.yul\":5989:5992   */\n      dup3\n        /* \"#utility.yul\":5982:6001   */\n      mstore\n        /* \"#utility.yul\":6034:6038   */\n      0x20\n        /* \"#utility.yul\":6029:6032   */\n      dup3\n        /* \"#utility.yul\":6025:6039   */\n      add\n        /* \"#utility.yul\":6010:6039   */\n      swap1\n      pop\n        /* \"#utility.yul\":5876:6045   */\n      swap3\n      swap2\n      pop\n      pop\n      jump\t// out\n        /* \"#utility.yul\":6051:6297   */\n    tag_68:\n        /* \"#utility.yul\":6132:6133   */\n      0x00\n        /* \"#utility.yul\":6142:6255   */\n    tag_150:\n        /* \"#utility.yul\":6156:6162   */\n      dup4\n        /* \"#utility.yul\":6153:6154   */\n      dup2\n        /* \"#utility.yul\":6150:6163   */\n      lt\n        /* \"#utility.yul\":6142:6255   */\n      iszero\n      tag_152\n      jumpi\n        /* \"#utility.yul\":6241:6242   */\n      dup1\n        /* \"#utility.yul\":6236:6239   */\n      dup3\n        /* \"#utility.yul\":6232:6243   */\n      add\n        /* \"#utility.yul\":6226:6244   */\n      mload\n        /* \"#utility.yul\":6222:6223   */\n      dup2\n        /* \"#utility.yul\":6217:6220   */\n      dup5\n        /* \"#utility.yul\":6213:6224   */\n      add\n        /* \"#utility.yul\":6206:6245   */\n      mstore\n        /* \"#utility.yul\":6178:6180   */\n      0x20\n        /* \"#utility.yul\":6175:6176   */\n      dup2\n        /* \"#utility.yul\":6171:6181   */\n      add\n        /* \"#utility.yul\":6166:6181   */\n      swap1\n      pop\n        /* \"#utility.yul\":6142:6255   */\n      jump(tag_150)\n    tag_152:\n        /* \"#utility.yul\":6289:6290   */\n      0x00\n        /* \"#utility.yul\":6280:6286   */\n      dup5\n        /* \"#utility.yul\":6275:6278   */\n      dup5\n        /* \"#utility.yul\":6271:6287   */\n      add\n        /* \"#utility.yul\":6264:6291   */\n      mstore\n        /* \"#utility.yul\":6113:6297   */\n      pop\n        /* \"#utility.yul\":6051:6297   */\n      pop\n      pop\n      pop\n      jump\t// out\n        /* \"#utility.yul\":6303:6680   */\n    tag_69:\n        /* \"#utility.yul\":6391:6394   */\n      0x00\n        /* \"#utility.yul\":6419:6458   */\n      tag_154\n        /* \"#utility.yul\":6452:6457   */\n      dup3\n        /* \"#utility.yul\":6419:6458   */\n      tag_66\n      jump\t// in\n    tag_154:\n        /* \"#utility.yul\":6474:6545   */\n      tag_155\n        /* \"#utility.yul\":6538:6544   */\n      dup2\n        /* \"#utility.yul\":6533:6536   */\n      dup6\n        /* \"#utility.yul\":6474:6545   */\n      tag_67\n      jump\t// in\n    tag_155:\n        /* \"#utility.yul\":6467:6545   */\n      swap4\n      pop\n        /* \"#utility.yul\":6554:6619   */\n      tag_156\n        /* \"#utility.yul\":6612:6618   */\n      dup2\n        /* \"#utility.yul\":6607:6610   */\n      dup6\n        /* \"#utility.yul\":6600:6604   */\n      0x20\n        /* \"#utility.yul\":6593:6598   */\n      dup7\n        /* \"#utility.yul\":6589:6605   */\n      add\n        /* \"#utility.yul\":6554:6619   */\n      tag_68\n      jump\t// in\n    tag_156:\n        /* \"#utility.yul\":6644:6673   */\n      tag_157\n        /* \"#utility.yul\":6666:6672   */\n      dup2\n        /* \"#utility.yul\":6644:6673   */\n      tag_54\n      jump\t// in\n    tag_157:\n        /* \"#utility.yul\":6639:6642   */\n      dup5\n        /* \"#utility.yul\":6635:6674   */\n      add\n        /* \"#utility.yul\":6628:6674   */\n      swap2\n      pop\n        /* \"#utility.yul\":6395:6680   */\n      pop\n        /* \"#utility.yul\":6303:6680   */\n      swap3\n      swap2\n      pop\n      pop\n      jump\t// out\n        /* \"#utility.yul\":6686:6999   */\n    tag_18:\n        /* \"#utility.yul\":6799:6803   */\n      0x00\n        /* \"#utility.yul\":6837:6839   */\n      0x20\n        /* \"#utility.yul\":6826:6835   */\n      dup3\n        /* \"#utility.yul\":6822:6840   */\n      add\n        /* \"#utility.yul\":6814:6840   */\n      swap1\n      pop\n        /* \"#utility.yul\":6886:6895   */\n      dup2\n        /* \"#utility.yul\":6880:6884   */\n      dup2\n        /* \"#utility.yul\":6876:6896   */\n      sub\n        /* \"#utility.yul\":6872:6873   */\n      0x00\n        /* \"#utility.yul\":6861:6870   */\n      dup4\n        /* \"#utility.yul\":6857:6874   */\n      add\n        /* \"#utility.yul\":6850:6897   */\n      mstore\n        /* \"#utility.yul\":6914:6992   */\n      tag_159\n        /* \"#utility.yul\":6987:6991   */\n      dup2\n        /* \"#utility.yul\":6978:6984   */\n      dup5\n        /* \"#utility.yul\":6914:6992   */\n      tag_69\n      jump\t// in\n    tag_159:\n        /* \"#utility.yul\":6906:6992   */\n      swap1\n      pop\n        /* \"#utility.yul\":6686:6999   */\n      swap3\n      swap2\n      pop\n      pop\n      jump\t// out\n        /* \"#utility.yul\":7005:7316   */\n    tag_70:\n        /* \"#utility.yul\":7082:7086   */\n      0x00\n        /* \"#utility.yul\":7172:7190   */\n      0xffffffffffffffff\n        /* \"#utility.yul\":7164:7170   */\n      dup3\n        /* \"#utility.yul\":7161:7191   */\n      gt\n        /* \"#utility.yul\":7158:7214   */\n      iszero\n      tag_161\n      jumpi\n        /* \"#utility.yul\":7194:7212   */\n      tag_162\n      tag_55\n      jump\t// in\n    tag_162:\n        /* \"#utility.yul\":7158:7214   */\n    tag_161:\n        /* \"#utility.yul\":7244:7248   */\n      0x20\n        /* \"#utility.yul\":7236:7242   */\n      dup3\n        /* \"#utility.yul\":7232:7249   */\n      mul\n        /* \"#utility.yul\":7224:7249   */\n      swap1\n      pop\n        /* \"#utility.yul\":7304:7308   */\n      0x20\n        /* \"#utility.yul\":7298:7302   */\n      dup2\n        /* \"#utility.yul\":7294:7309   */\n      add\n        /* \"#utility.yul\":7286:7309   */\n      swap1\n      pop\n        /* \"#utility.yul\":7005:7316   */\n      swap2\n      swap1\n      pop\n      jump\t// out\n        /* \"#utility.yul\":7322:7399   */\n    tag_71:\n        /* \"#utility.yul\":7359:7366   */\n      0x00\n        /* \"#utility.yul\":7388:7393   */\n      dup2\n        /* \"#utility.yul\":7377:7393   */\n      swap1\n      pop\n        /* \"#utility.yul\":7322:7399   */\n      swap2\n      swap1\n      pop\n      jump\t// out\n        /* \"#utility.yul\":7405:7527   */\n    tag_72:\n        /* \"#utility.yul\":7478:7502   */\n      tag_165\n        /* \"#utility.yul\":7496:7501   */\n      dup2\n        /* \"#utility.yul\":7478:7502   */\n      tag_71\n      jump\t// in\n    tag_165:\n        /* \"#utility.yul\":7471:7476   */\n      dup2\n        /* \"#utility.yul\":7468:7503   */\n      eq\n        /* \"#utility.yul\":7458:7521   */\n      tag_166\n      jumpi\n        /* \"#utility.yul\":7517:7518   */\n      0x00\n        /* \"#utility.yul\":7514:7515   */\n      dup1\n        /* \"#utility.yul\":7507:7519   */\n      revert\n        /* \"#utility.yul\":7458:7521   */\n    tag_166:\n        /* \"#utility.yul\":7405:7527   */\n      pop\n      jump\t// out\n        /* \"#utility.yul\":7533:7672   */\n    tag_73:\n        /* \"#utility.yul\":7579:7584   */\n      0x00\n        /* \"#utility.yul\":7617:7623   */\n      dup2\n        /* \"#utility.yul\":7604:7624   */\n      calldataload\n        /* \"#utility.yul\":7595:7624   */\n      swap1\n      pop\n        /* \"#utility.yul\":7633:7666   */\n      tag_168\n        /* \"#utility.yul\":7660:7665   */\n      dup2\n        /* \"#utility.yul\":7633:7666   */\n      tag_72\n      jump\t// in\n    tag_168:\n        /* \"#utility.yul\":7533:7672   */\n      swap3\n      swap2\n      pop\n      pop\n      jump\t// out\n        /* \"#utility.yul\":7695:8405   */\n    tag_74:\n        /* \"#utility.yul\":7791:7796   */\n      0x00\n        /* \"#utility.yul\":7816:7897   */\n      tag_170\n        /* \"#utility.yul\":7832:7896   */\n      tag_171\n        /* \"#utility.yul\":7889:7895   */\n      dup5\n        /* \"#utility.yul\":7832:7896   */\n      tag_70\n      jump\t// in\n    tag_171:\n        /* \"#utility.yul\":7816:7897   */\n      tag_57\n      jump\t// in\n    tag_170:\n        /* \"#utility.yul\":7807:7897   */\n      swap1\n      pop\n        /* \"#utility.yul\":7917:7922   */\n      dup1\n        /* \"#utility.yul\":7946:7952   */\n      dup4\n        /* \"#utility.yul\":7939:7944   */\n      dup3\n        /* \"#utility.yul\":7932:7953   */\n      mstore\n        /* \"#utility.yul\":7980:7984   */\n      0x20\n        /* \"#utility.yul\":7973:7978   */\n      dup3\n        /* \"#utility.yul\":7969:7985   */\n      add\n        /* \"#utility.yul\":7962:7985   */\n      swap1\n      pop\n        /* \"#utility.yul\":8033:8037   */\n      0x20\n        /* \"#utility.yul\":8025:8031   */\n      dup5\n        /* \"#utility.yul\":8021:8038   */\n      mul\n        /* \"#utility.yul\":8013:8019   */\n      dup4\n        /* \"#utility.yul\":8009:8039   */\n      add\n        /* \"#utility.yul\":8062:8065   */\n      dup6\n        /* \"#utility.yul\":8054:8060   */\n      dup2\n        /* \"#utility.yul\":8051:8066   */\n      gt\n        /* \"#utility.yul\":8048:8170   */\n      iszero\n      tag_172\n      jumpi\n        /* \"#utility.yul\":8081:8160   */\n      tag_173\n      tag_59\n      jump\t// in\n    tag_173:\n        /* \"#utility.yul\":8048:8170   */\n    tag_172:\n        /* \"#utility.yul\":8196:8202   */\n      dup4\n        /* \"#utility.yul\":8179:8399   */\n    tag_174:\n        /* \"#utility.yul\":8213:8219   */\n      dup2\n        /* \"#utility.yul\":8208:8211   */\n      dup2\n        /* \"#utility.yul\":8205:8220   */\n      lt\n        /* \"#utility.yul\":8179:8399   */\n      iszero\n      tag_176\n      jumpi\n        /* \"#utility.yul\":8288:8291   */\n      dup1\n        /* \"#utility.yul\":8317:8354   */\n      tag_177\n        /* \"#utility.yul\":8350:8353   */\n      dup9\n        /* \"#utility.yul\":8338:8348   */\n      dup3\n        /* \"#utility.yul\":8317:8354   */\n      tag_73\n      jump\t// in\n    tag_177:\n        /* \"#utility.yul\":8312:8315   */\n      dup5\n        /* \"#utility.yul\":8305:8355   */\n      mstore\n        /* \"#utility.yul\":8384:8388   */\n      0x20\n        /* \"#utility.yul\":8379:8382   */\n      dup5\n        /* \"#utility.yul\":8375:8389   */\n      add\n        /* \"#utility.yul\":8368:8389   */\n      swap4\n      pop\n        /* \"#utility.yul\":8255:8399   */\n      pop\n        /* \"#utility.yul\":8239:8243   */\n      0x20\n        /* \"#utility.yul\":8234:8237   */\n      dup2\n        /* \"#utility.yul\":8230:8244   */\n      add\n        /* \"#utility.yul\":8223:8244   */\n      swap1\n      pop\n        /* \"#utility.yul\":8179:8399   */\n      jump(tag_174)\n    tag_176:\n        /* \"#utility.yul\":8183:8204   */\n      pop\n        /* \"#utility.yul\":7797:8405   */\n      pop\n      pop\n        /* \"#utility.yul\":7695:8405   */\n      swap4\n      swap3\n      pop\n      pop\n      pop\n      jump\t// out\n        /* \"#utility.yul\":8428:8798   */\n    tag_75:\n        /* \"#utility.yul\":8499:8504   */\n      0x00\n        /* \"#utility.yul\":8548:8551   */\n      dup3\n        /* \"#utility.yul\":8541:8545   */\n      0x1f\n        /* \"#utility.yul\":8533:8539   */\n      dup4\n        /* \"#utility.yul\":8529:8546   */\n      add\n        /* \"#utility.yul\":8525:8552   */\n      slt\n        /* \"#utility.yul\":8515:8637   */\n      tag_179\n      jumpi\n        /* \"#utility.yul\":8556:8635   */\n      tag_180\n      tag_53\n      jump\t// in\n    tag_180:\n        /* \"#utility.yul\":8515:8637   */\n    tag_179:\n        /* \"#utility.yul\":8673:8679   */\n      dup2\n        /* \"#utility.yul\":8660:8680   */\n      calldataload\n        /* \"#utility.yul\":8698:8792   */\n      tag_181\n        /* \"#utility.yul\":8788:8791   */\n      dup5\n        /* \"#utility.yul\":8780:8786   */\n      dup3\n        /* \"#utility.yul\":8773:8777   */\n      0x20\n        /* \"#utility.yul\":8765:8771   */\n      dup7\n        /* \"#utility.yul\":8761:8778   */\n      add\n        /* \"#utility.yul\":8698:8792   */\n      tag_74\n      jump\t// in\n    tag_181:\n        /* \"#utility.yul\":8689:8792   */\n      swap2\n      pop\n        /* \"#utility.yul\":8505:8798   */\n      pop\n        /* \"#utility.yul\":8428:8798   */\n      swap3\n      swap2\n      pop\n      pop\n      jump\t// out\n        /* \"#utility.yul\":8804:9343   */\n    tag_21:\n        /* \"#utility.yul\":8888:8894   */\n      0x00\n        /* \"#utility.yul\":8937:8939   */\n      0x20\n        /* \"#utility.yul\":8925:8934   */\n      dup3\n        /* \"#utility.yul\":8916:8923   */\n      dup5\n        /* \"#utility.yul\":8912:8935   */\n      sub\n        /* \"#utility.yul\":8908:8940   */\n      slt\n        /* \"#utility.yul\":8905:9024   */\n      iszero\n      tag_183\n      jumpi\n        /* \"#utility.yul\":8943:9022   */\n      tag_184\n      tag_48\n      jump\t// in\n    tag_184:\n        /* \"#utility.yul\":8905:9024   */\n    tag_183:\n        /* \"#utility.yul\":9091:9092   */\n      0x00\n        /* \"#utility.yul\":9080:9089   */\n      dup3\n        /* \"#utility.yul\":9076:9093   */\n      add\n        /* \"#utility.yul\":9063:9094   */\n      calldataload\n        /* \"#utility.yul\":9121:9139   */\n      0xffffffffffffffff\n        /* \"#utility.yul\":9113:9119   */\n      dup2\n        /* \"#utility.yul\":9110:9140   */\n      gt\n        /* \"#utility.yul\":9107:9224   */\n      iszero\n      tag_185\n      jumpi\n        /* \"#utility.yul\":9143:9222   */\n      tag_186\n      tag_49\n      jump\t// in\n    tag_186:\n        /* \"#utility.yul\":9107:9224   */\n    tag_185:\n        /* \"#utility.yul\":9248:9326   */\n      tag_187\n        /* \"#utility.yul\":9318:9325   */\n      dup5\n        /* \"#utility.yul\":9309:9315   */\n      dup3\n        /* \"#utility.yul\":9298:9307   */\n      dup6\n        /* \"#utility.yul\":9294:9316   */\n      add\n        /* \"#utility.yul\":9248:9326   */\n      tag_75\n      jump\t// in\n    tag_187:\n        /* \"#utility.yul\":9238:9326   */\n      swap2\n      pop\n        /* \"#utility.yul\":9034:9336   */\n      pop\n        /* \"#utility.yul\":8804:9343   */\n      swap3\n      swap2\n      pop\n      pop\n      jump\t// out\n        /* \"#utility.yul\":9349:9467   */\n    tag_76:\n        /* \"#utility.yul\":9436:9460   */\n      tag_189\n        /* \"#utility.yul\":9454:9459   */\n      dup2\n        /* \"#utility.yul\":9436:9460   */\n      tag_71\n      jump\t// in\n    tag_189:\n        /* \"#utility.yul\":9431:9434   */\n      dup3\n        /* \"#utility.yul\":9424:9461   */\n      mstore\n        /* \"#utility.yul\":9349:9467   */\n      pop\n      pop\n      jump\t// out\n        /* \"#utility.yul\":9473:9695   */\n    tag_24:\n        /* \"#utility.yul\":9566:9570   */\n      0x00\n        /* \"#utility.yul\":9604:9606   */\n      0x20\n        /* \"#utility.yul\":9593:9602   */\n      dup3\n        /* \"#utility.yul\":9589:9607   */\n      add\n        /* \"#utility.yul\":9581:9607   */\n      swap1\n      pop\n        /* \"#utility.yul\":9617:9688   */\n      tag_191\n        /* \"#utility.yul\":9685:9686   */\n      0x00\n        /* \"#utility.yul\":9674:9683   */\n      dup4\n        /* \"#utility.yul\":9670:9687   */\n      add\n        /* \"#utility.yul\":9661:9667   */\n      dup5\n        /* \"#utility.yul\":9617:9688   */\n      tag_76\n      jump\t// in\n    tag_191:\n        /* \"#utility.yul\":9473:9695   */\n      swap3\n      swap2\n      pop\n      pop\n      jump\t// out\n        /* \"#utility.yul\":9701:9881   */\n    tag_35:\n        /* \"#utility.yul\":9749:9826   */\n      0x4e487b7100000000000000000000000000000000000000000000000000000000\n        /* \"#utility.yul\":9746:9747   */\n      0x00\n        /* \"#utility.yul\":9739:9827   */\n      mstore\n        /* \"#utility.yul\":9846:9850   */\n      0x32\n        /* \"#utility.yul\":9843:9844   */\n      0x04\n        /* \"#utility.yul\":9836:9851   */\n      mstore\n        /* \"#utility.yul\":9870:9874   */\n      0x24\n        /* \"#utility.yul\":9867:9868   */\n      0x00\n        /* \"#utility.yul\":9860:9875   */\n      revert\n        /* \"#utility.yul\":9887:10067   */\n    tag_77:\n        /* \"#utility.yul\":9935:10012   */\n      0x4e487b7100000000000000000000000000000000000000000000000000000000\n        /* \"#utility.yul\":9932:9933   */\n      0x00\n        /* \"#utility.yul\":9925:10013   */\n      mstore\n        /* \"#utility.yul\":10032:10036   */\n      0x11\n        /* \"#utility.yul\":10029:10030   */\n      0x04\n        /* \"#utility.yul\":10022:10037   */\n      mstore\n        /* \"#utility.yul\":10056:10060   */\n      0x24\n        /* \"#utility.yul\":10053:10054   */\n      0x00\n        /* \"#utility.yul\":10046:10061   */\n      revert\n        /* \"#utility.yul\":10073:10306   */\n    tag_38:\n        /* \"#utility.yul\":10112:10115   */\n      0x00\n        /* \"#utility.yul\":10135:10159   */\n      tag_195\n        /* \"#utility.yul\":10153:10158   */\n      dup3\n        /* \"#utility.yul\":10135:10159   */\n      tag_71\n      jump\t// in\n    tag_195:\n        /* \"#utility.yul\":10126:10159   */\n      swap2\n      pop\n        /* \"#utility.yul\":10181:10247   */\n      0xffffffffffffffffffffffffffffffffffffffffffffffffffffffffffffffff\n        /* \"#utility.yul\":10174:10179   */\n      dup3\n        /* \"#utility.yul\":10171:10248   */\n      sub\n        /* \"#utility.yul\":10168:10271   */\n      tag_196\n      jumpi\n        /* \"#utility.yul\":10251:10269   */\n      tag_197\n      tag_77\n      jump\t// in\n    tag_197:\n        /* \"#utility.yul\":10168:10271   */\n    tag_196:\n        /* \"#utility.yul\":10298:10299   */\n      0x01\n        /* \"#utility.yul\":10291:10296   */\n      dup3\n        /* \"#utility.yul\":10287:10300   */\n      add\n        /* \"#utility.yul\":10280:10300   */\n      swap1\n      pop\n        /* \"#utility.yul\":10073:10306   */\n      swap2\n      swap1\n      pop\n      jump\t// out\n        /* \"#utility.yul\":10312:10460   */\n    tag_78:\n        /* \"#utility.yul\":10414:10425   */\n      0x00\n        /* \"#utility.yul\":10451:10454   */\n      dup2\n        /* \"#utility.yul\":10436:10454   */\n      swap1\n      pop\n        /* \"#utility.yul\":10312:10460   */\n      swap3\n      swap2\n      pop\n      pop\n      jump\t// out\n        /* \"#utility.yul\":10466:10612   */\n    tag_79:\n        /* \"#utility.yul\":10563:10569   */\n      dup3\n        /* \"#utility.yul\":10558:10561   */\n      dup2\n        /* \"#utility.yul\":10553:10556   */\n      dup4\n        /* \"#utility.yul\":10540:10570   */\n      calldatacopy\n        /* \"#utility.yul\":10604:10605   */\n      0x00\n        /* \"#utility.yul\":10595:10601   */\n      dup4\n        /* \"#utility.yul\":10590:10593   */\n      dup4\n        /* \"#utility.yul\":10586:10602   */\n      add\n        /* \"#utility.yul\":10579:10606   */\n      mstore\n        /* \"#utility.yul\":10466:10612   */\n      pop\n      pop\n      pop\n      jump\t// out\n        /* \"#utility.yul\":10642:10972   */\n    tag_80:\n        /* \"#utility.yul\":10758:10761   */\n      0x00\n        /* \"#utility.yul\":10779:10868   */\n      tag_201\n        /* \"#utility.yul\":10861:10867   */\n      dup4\n        /* \"#utility.yul\":10856:10859   */\n      dup6\n        /* \"#utility.yul\":10779:10868   */\n      tag_78\n      jump\t// in\n    tag_201:\n        /* \"#utility.yul\":10772:10868   */\n      swap4\n      pop\n        /* \"#utility.yul\":10878:10934   */\n      tag_202\n        /* \"#utility.yul\":10927:10933   */\n      dup4\n        /* \"#utility.yul\":10922:10925   */\n      dup6\n        /* \"#utility.yul\":10915:10920   */\n      dup5\n        /* \"#utility.yul\":10878:10934   */\n      tag_79\n      jump\t// in\n    tag_202:\n        /* \"#utility.yul\":10959:10965   */\n      dup3\n        /* \"#utility.yul\":10954:10957   */\n      dup5\n        /* \"#utility.yul\":10950:10966   */\n      add\n        /* \"#utility.yul\":10943:10966   */\n      swap1\n      pop\n        /* \"#utility.yul\":10642:10972   */\n      swap4\n      swap3\n      pop\n      pop\n      pop\n      jump\t// out\n        /* \"#utility.yul\":10978:11453   */\n    tag_41:\n        /* \"#utility.yul\":11178:11181   */\n      0x00\n        /* \"#utility.yul\":11200:11305   */\n      tag_204\n        /* \"#utility.yul\":11301:11304   */\n      dup3\n        /* \"#utility.yul\":11292:11298   */\n      dup7\n        /* \"#utility.yul\":11284:11290   */\n      dup9\n        /* \"#utility.yul\":11200:11305   */\n      tag_80\n      jump\t// in\n    tag_204:\n        /* \"#utility.yul\":11193:11305   */\n      swap2\n      pop\n        /* \"#utility.yul\":11322:11427   */\n      tag_205\n        /* \"#utility.yul\":11423:11426   */\n      dup3\n        /* \"#utility.yul\":11414:11420   */\n      dup5\n        /* \"#utility.yul\":11406:11412   */\n      dup7\n        /* \"#utility.yul\":11322:11427   */\n      tag_80\n      jump\t// in\n    tag_205:\n        /* \"#utility.yul\":11315:11427   */\n      swap2\n      pop\n        /* \"#utility.yul\":11444:11447   */\n      dup2\n        /* \"#utility.yul\":11437:11447   */\n      swap1\n      pop\n        /* \"#utility.yul\":10978:11453   */\n      swap6\n      swap5\n      pop\n      pop\n      pop\n      pop\n      pop\n      jump\t// out\n        /* \"#utility.yul\":11459:11754   */\n    tag_45:\n        /* \"#utility.yul\":11601:11604   */\n      0x00\n        /* \"#utility.yul\":11623:11728   */\n      tag_207\n        /* \"#utility.yul\":11724:11727   */\n      dup3\n        /* \"#utility.yul\":11715:11721   */\n      dup5\n        /* \"#utility.yul\":11707:11713   */\n      dup7\n        /* \"#utility.yul\":11623:11728   */\n      tag_80\n      jump\t// in\n    tag_207:\n        /* \"#utility.yul\":11616:11728   */\n      swap2\n      pop\n        /* \"#utility.yul\":11745:11748   */\n      dup2\n        /* \"#utility.yul\":11738:11748   */\n      swap1\n      pop\n        /* \"#utility.yul\":11459:11754   */\n      swap4\n      swap3\n      pop\n      pop\n      pop\n      jump\t// out\n\n    auxdata: 0xa2646970667358221220dad2fe17251304f0ed5e07a2c03c9b2ffd5a6b74e755dff49f848e4c013ce5b064736f6c63430008110033\n}\n",
				"bytecode": {
					"linkReferences": {},
					"object": "608060405234801561001057600080fd5b50610876806100206000396000f3fe608060405234801561001057600080fd5b506004361061004c5760003560e01c8063094825b9146100515780634309fba714610081578063cdbb7a5a146100b1578063f9cb5bd8146100e1575b600080fd5b61006b6004803603810190610066919061039f565b610111565b6040516100789190610416565b60405180910390f35b61009b6004803603810190610096919061048c565b610164565b6040516100a8919061058c565b60405180910390f35b6100cb60048036038101906100c691906106a7565b610196565b6040516100d891906106ff565b60405180910390f35b6100fb60048036038101906100f6919061048c565b61019d565b6040516101089190610416565b60405180910390f35b60008060005b835181101561015957848482815181106101345761013361071a565b5b60200260200101510361014657600191505b808061015190610778565b915050610117565b508091505092915050565b60608484848460405160200161017d94939291906107ff565b6040516020818303038152906040529050949350505050565b6000919050565b600082826040516020016101b2929190610827565b6040516020818303038152906040528051906020012085856040516020016101db929190610827565b60405160208183030381529060405280519060200120149050949350505050565b6000604051905090565b600080fd5b600080fd5b6000819050919050565b61022381610210565b811461022e57600080fd5b50565b6000813590506102408161021a565b92915050565b600080fd5b6000601f19601f8301169050919050565b7f4e487b7100000000000000000000000000000000000000000000000000000000600052604160045260246000fd5b6102948261024b565b810181811067ffffffffffffffff821117156102b3576102b261025c565b5b80604052505050565b60006102c66101fc565b90506102d2828261028b565b919050565b600067ffffffffffffffff8211156102f2576102f161025c565b5b602082029050602081019050919050565b600080fd5b600061031b610316846102d7565b6102bc565b9050808382526020820190506020840283018581111561033e5761033d610303565b5b835b8181101561036757806103538882610231565b845260208401935050602081019050610340565b5050509392505050565b600082601f83011261038657610385610246565b5b8135610396848260208601610308565b91505092915050565b600080604083850312156103b6576103b5610206565b5b60006103c485828601610231565b925050602083013567ffffffffffffffff8111156103e5576103e461020b565b5b6103f185828601610371565b9150509250929050565b60008115159050919050565b610410816103fb565b82525050565b600060208201905061042b6000830184610407565b92915050565b600080fd5b60008083601f84011261044c5761044b610246565b5b8235905067ffffffffffffffff81111561046957610468610431565b5b60208301915083600182028301111561048557610484610303565b5b9250929050565b600080600080604085870312156104a6576104a5610206565b5b600085013567ffffffffffffffff8111156104c4576104c361020b565b5b6104d087828801610436565b9450945050602085013567ffffffffffffffff8111156104f3576104f261020b565b5b6104ff87828801610436565b925092505092959194509250565b600081519050919050565b600082825260208201905092915050565b60005b8381101561054757808201518184015260208101905061052c565b60008484015250505050565b600061055e8261050d565b6105688185610518565b9350610578818560208601610529565b6105818161024b565b840191505092915050565b600060208201905081810360008301526105a68184610553565b905092915050565b600067ffffffffffffffff8211156105c9576105c861025c565b5b602082029050602081019050919050565b6000819050919050565b6105ed816105da565b81146105f857600080fd5b50565b60008135905061060a816105e4565b92915050565b600061062361061e846105ae565b6102bc565b9050808382526020820190506020840283018581111561064657610645610303565b5b835b8181101561066f578061065b88826105fb565b845260208401935050602081019050610648565b5050509392505050565b600082601f83011261068e5761068d610246565b5b813561069e848260208601610610565b91505092915050565b6000602082840312156106bd576106bc610206565b5b600082013567ffffffffffffffff8111156106db576106da61020b565b5b6106e784828501610679565b91505092915050565b6106f9816105da565b82525050565b600060208201905061071460008301846106f0565b92915050565b7f4e487b7100000000000000000000000000000000000000000000000000000000600052603260045260246000fd5b7f4e487b7100000000000000000000000000000000000000000000000000000000600052601160045260246000fd5b6000610783826105da565b91507fffffffffffffffffffffffffffffffffffffffffffffffffffffffffffffffff82036107b5576107b4610749565b5b600182019050919050565b600081905092915050565b82818337600083830152505050565b60006107e683856107c0565b93506107f38385846107cb565b82840190509392505050565b600061080c8286886107da565b91506108198284866107da565b915081905095945050505050565b60006108348284866107da565b9150819050939250505056fea2646970667358221220dad2fe17251304f0ed5e07a2c03c9b2ffd5a6b74e755dff49f848e4c013ce5b064736f6c63430008110033",
					"opcodes": "PUSH1 0x80 PUSH1 0x40 MSTORE CALLVALUE DUP1 ISZERO PUSH2 0x10 JUMPI PUSH1 0x0 DUP1 REVERT JUMPDEST POP PUSH2 0x876 DUP1 PUSH2 0x20 PUSH1 0x0 CODECOPY PUSH1 0x0 RETURN INVALID PUSH1 0x80 PUSH1 0x40 MSTORE CALLVALUE DUP1 ISZERO PUSH2 0x10 JUMPI PUSH1 0x0 DUP1 REVERT JUMPDEST POP PUSH1 0x4 CALLDATASIZE LT PUSH2 0x4C JUMPI PUSH1 0x0 CALLDATALOAD PUSH1 0xE0 SHR DUP1 PUSH4 0x94825B9 EQ PUSH2 0x51 JUMPI DUP1 PUSH4 0x4309FBA7 EQ PUSH2 0x81 JUMPI DUP1 PUSH4 0xCDBB7A5A EQ PUSH2 0xB1 JUMPI DUP1 PUSH4 0xF9CB5BD8 EQ PUSH2 0xE1 JUMPI JUMPDEST PUSH1 0x0 DUP1 REVERT JUMPDEST PUSH2 0x6B PUSH1 0x4 DUP1 CALLDATASIZE SUB DUP2 ADD SWAP1 PUSH2 0x66 SWAP2 SWAP1 PUSH2 0x39F JUMP JUMPDEST PUSH2 0x111 JUMP JUMPDEST PUSH1 0x40 MLOAD PUSH2 0x78 SWAP2 SWAP1 PUSH2 0x416 JUMP JUMPDEST PUSH1 0x40 MLOAD DUP1 SWAP2 SUB SWAP1 RETURN JUMPDEST PUSH2 0x9B PUSH1 0x4 DUP1 CALLDATASIZE SUB DUP2 ADD SWAP1 PUSH2 0x96 SWAP2 SWAP1 PUSH2 0x48C JUMP JUMPDEST PUSH2 0x164 JUMP JUMPDEST PUSH1 0x40 MLOAD PUSH2 0xA8 SWAP2 SWAP1 PUSH2 0x58C JUMP JUMPDEST PUSH1 0x40 MLOAD DUP1 SWAP2 SUB SWAP1 RETURN JUMPDEST PUSH2 0xCB PUSH1 0x4 DUP1 CALLDATASIZE SUB DUP2 ADD SWAP1 PUSH2 0xC6 SWAP2 SWAP1 PUSH2 0x6A7 JUMP JUMPDEST PUSH2 0x196 JUMP JUMPDEST PUSH1 0x40 MLOAD PUSH2 0xD8 SWAP2 SWAP1 PUSH2 0x6FF JUMP JUMPDEST PUSH1 0x40 MLOAD DUP1 SWAP2 SUB SWAP1 RETURN JUMPDEST PUSH2 0xFB PUSH1 0x4 DUP1 CALLDATASIZE SUB DUP2 ADD SWAP1 PUSH2 0xF6 SWAP2 SWAP1 PUSH2 0x48C JUMP JUMPDEST PUSH2 0x19D JUMP JUMPDEST PUSH1 0x40 MLOAD PUSH2 0x108 SWAP2 SWAP1 PUSH2 0x416 JUMP JUMPDEST PUSH1 0x40 MLOAD DUP1 SWAP2 SUB SWAP1 RETURN JUMPDEST PUSH1 0x0 DUP1 PUSH1 0x0 JUMPDEST DUP4 MLOAD DUP2 LT ISZERO PUSH2 0x159 JUMPI DUP5 DUP5 DUP3 DUP2 MLOAD DUP2 LT PUSH2 0x134 JUMPI PUSH2 0x133 PUSH2 0x71A JUMP JUMPDEST JUMPDEST PUSH1 0x20 MUL PUSH1 0x20 ADD ADD MLOAD SUB PUSH2 0x146 JUMPI PUSH1 0x1 SWAP2 POP JUMPDEST DUP1 DUP1 PUSH2 0x151 SWAP1 PUSH2 0x778 JUMP JUMPDEST SWAP2 POP POP PUSH2 0x117 JUMP JUMPDEST POP DUP1 SWAP2 POP POP SWAP3 SWAP2 POP POP JUMP JUMPDEST PUSH1 0x60 DUP5 DUP5 DUP5 DUP5 PUSH1 0x40 MLOAD PUSH1 0x20 ADD PUSH2 0x17D SWAP5 SWAP4 SWAP3 SWAP2 SWAP1 PUSH2 0x7FF JUMP JUMPDEST PUSH1 0x40 MLOAD PUSH1 0x20 DUP2 DUP4 SUB SUB DUP2 MSTORE SWAP1 PUSH1 0x40 MSTORE SWAP1 POP SWAP5 SWAP4 POP POP POP POP JUMP JUMPDEST PUSH1 0x0 SWAP2 SWAP1 POP JUMP JUMPDEST PUSH1 0x0 DUP3 DUP3 PUSH1 0x40 MLOAD PUSH1 0x20 ADD PUSH2 0x1B2 SWAP3 SWAP2 SWAP1 PUSH2 0x827 JUMP JUMPDEST PUSH1 0x40 MLOAD PUSH1 0x20 DUP2 DUP4 SUB SUB DUP2 MSTORE SWAP1 PUSH1 0x40 MSTORE DUP1 MLOAD SWAP1 PUSH1 0x20 ADD KECCAK256 DUP6 DUP6 PUSH1 0x40 MLOAD PUSH1 0x20 ADD PUSH2 0x1DB SWAP3 SWAP2 SWAP1 PUSH2 0x827 JUMP JUMPDEST PUSH1 0x40 MLOAD PUSH1 0x20 DUP2 DUP4 SUB SUB DUP2 MSTORE SWAP1 PUSH1 0x40 MSTORE DUP1 MLOAD SWAP1 PUSH1 0x20 ADD KECCAK256 EQ SWAP1 POP SWAP5 SWAP4 POP POP POP POP JUMP JUMPDEST PUSH1 0x0 PUSH1 0x40 MLOAD SWAP1 POP SWAP1 JUMP JUMPDEST PUSH1 0x0 DUP1 REVERT JUMPDEST PUSH1 0x0 DUP1 REVERT JUMPDEST PUSH1 0x0 DUP2 SWAP1 POP SWAP2 SWAP1 POP JUMP JUMPDEST PUSH2 0x223 DUP2 PUSH2 0x210 JUMP JUMPDEST DUP2 EQ PUSH2 0x22E JUMPI PUSH1 0x0 DUP1 REVERT JUMPDEST POP JUMP JUMPDEST PUSH1 0x0 DUP2 CALLDATALOAD SWAP1 POP PUSH2 0x240 DUP2 PUSH2 0x21A JUMP JUMPDEST SWAP3 SWAP2 POP POP JUMP JUMPDEST PUSH1 0x0 DUP1 REVERT JUMPDEST PUSH1 0x0 PUSH1 0x1F NOT PUSH1 0x1F DUP4 ADD AND SWAP1 POP SWAP2 SWAP1 POP JUMP JUMPDEST PUSH32 0x4E487B7100000000000000000000000000000000000000000000000000000000 PUSH1 0x0 MSTORE PUSH1 0x41 PUSH1 0x4 MSTORE PUSH1 0x24 PUSH1 0x0 REVERT JUMPDEST PUSH2 0x294 DUP3 PUSH2 0x24B JUMP JUMPDEST DUP2 ADD DUP2 DUP2 LT PUSH8 0xFFFFFFFFFFFFFFFF DUP3 GT OR ISZERO PUSH2 0x2B3 JUMPI PUSH2 0x2B2 PUSH2 0x25C JUMP JUMPDEST JUMPDEST DUP1 PUSH1 0x40 MSTORE POP POP POP JUMP JUMPDEST PUSH1 0x0 PUSH2 0x2C6 PUSH2 0x1FC JUMP JUMPDEST SWAP1 POP PUSH2 0x2D2 DUP3 DUP3 PUSH2 0x28B JUMP JUMPDEST SWAP2 SWAP1 POP JUMP JUMPDEST PUSH1 0x0 PUSH8 0xFFFFFFFFFFFFFFFF DUP3 GT ISZERO PUSH2 0x2F2 JUMPI PUSH2 0x2F1 PUSH2 0x25C JUMP JUMPDEST JUMPDEST PUSH1 0x20 DUP3 MUL SWAP1 POP PUSH1 0x20 DUP2 ADD SWAP1 POP SWAP2 SWAP1 POP JUMP JUMPDEST PUSH1 0x0 DUP1 REVERT JUMPDEST PUSH1 0x0 PUSH2 0x31B PUSH2 0x316 DUP5 PUSH2 0x2D7 JUMP JUMPDEST PUSH2 0x2BC JUMP JUMPDEST SWAP1 POP DUP1 DUP4 DUP3 MSTORE PUSH1 0x20 DUP3 ADD SWAP1 POP PUSH1 0x20 DUP5 MUL DUP4 ADD DUP6 DUP2 GT ISZERO PUSH2 0x33E JUMPI PUSH2 0x33D PUSH2 0x303 JUMP JUMPDEST JUMPDEST DUP4 JUMPDEST DUP2 DUP2 LT ISZERO PUSH2 0x367 JUMPI DUP1 PUSH2 0x353 DUP9 DUP3 PUSH2 0x231 JUMP JUMPDEST DUP5 MSTORE PUSH1 0x20 DUP5 ADD SWAP4 POP POP PUSH1 0x20 DUP2 ADD SWAP1 POP PUSH2 0x340 JUMP JUMPDEST POP POP POP SWAP4 SWAP3 POP POP POP JUMP JUMPDEST PUSH1 0x0 DUP3 PUSH1 0x1F DUP4 ADD SLT PUSH2 0x386 JUMPI PUSH2 0x385 PUSH2 0x246 JUMP JUMPDEST JUMPDEST DUP2 CALLDATALOAD PUSH2 0x396 DUP5 DUP3 PUSH1 0x20 DUP7 ADD PUSH2 0x308 JUMP JUMPDEST SWAP2 POP POP SWAP3 SWAP2 POP POP JUMP JUMPDEST PUSH1 0x0 DUP1 PUSH1 0x40 DUP4 DUP6 SUB SLT ISZERO PUSH2 0x3B6 JUMPI PUSH2 0x3B5 PUSH2 0x206 JUMP JUMPDEST JUMPDEST PUSH1 0x0 PUSH2 0x3C4 DUP6 DUP3 DUP7 ADD PUSH2 0x231 JUMP JUMPDEST SWAP3 POP POP PUSH1 0x20 DUP4 ADD CALLDATALOAD PUSH8 0xFFFFFFFFFFFFFFFF DUP2 GT ISZERO PUSH2 0x3E5 JUMPI PUSH2 0x3E4 PUSH2 0x20B JUMP JUMPDEST JUMPDEST PUSH2 0x3F1 DUP6 DUP3 DUP7 ADD PUSH2 0x371 JUMP JUMPDEST SWAP2 POP POP SWAP3 POP SWAP3 SWAP1 POP JUMP JUMPDEST PUSH1 0x0 DUP2 ISZERO ISZERO SWAP1 POP SWAP2 SWAP1 POP JUMP JUMPDEST PUSH2 0x410 DUP2 PUSH2 0x3FB JUMP JUMPDEST DUP3 MSTORE POP POP JUMP JUMPDEST PUSH1 0x0 PUSH1 0x20 DUP3 ADD SWAP1 POP PUSH2 0x42B PUSH1 0x0 DUP4 ADD DUP5 PUSH2 0x407 JUMP JUMPDEST SWAP3 SWAP2 POP POP JUMP JUMPDEST PUSH1 0x0 DUP1 REVERT JUMPDEST PUSH1 0x0 DUP1 DUP4 PUSH1 0x1F DUP5 ADD SLT PUSH2 0x44C JUMPI PUSH2 0x44B PUSH2 0x246 JUMP JUMPDEST JUMPDEST DUP3 CALLDATALOAD SWAP1 POP PUSH8 0xFFFFFFFFFFFFFFFF DUP2 GT ISZERO PUSH2 0x469 JUMPI PUSH2 0x468 PUSH2 0x431 JUMP JUMPDEST JUMPDEST PUSH1 0x20 DUP4 ADD SWAP2 POP DUP4 PUSH1 0x1 DUP3 MUL DUP4 ADD GT ISZERO PUSH2 0x485 JUMPI PUSH2 0x484 PUSH2 0x303 JUMP JUMPDEST JUMPDEST SWAP3 POP SWAP3 SWAP1 POP JUMP JUMPDEST PUSH1 0x0 DUP1 PUSH1 0x0 DUP1 PUSH1 0x40 DUP6 DUP8 SUB SLT ISZERO PUSH2 0x4A6 JUMPI PUSH2 0x4A5 PUSH2 0x206 JUMP JUMPDEST JUMPDEST PUSH1 0x0 DUP6 ADD CALLDATALOAD PUSH8 0xFFFFFFFFFFFFFFFF DUP2 GT ISZERO PUSH2 0x4C4 JUMPI PUSH2 0x4C3 PUSH2 0x20B JUMP JUMPDEST JUMPDEST PUSH2 0x4D0 DUP8 DUP3 DUP9 ADD PUSH2 0x436 JUMP JUMPDEST SWAP5 POP SWAP5 POP POP PUSH1 0x20 DUP6 ADD CALLDATALOAD PUSH8 0xFFFFFFFFFFFFFFFF DUP2 GT ISZERO PUSH2 0x4F3 JUMPI PUSH2 0x4F2 PUSH2 0x20B JUMP JUMPDEST JUMPDEST PUSH2 0x4FF DUP8 DUP3 DUP9 ADD PUSH2 0x436 JUMP JUMPDEST SWAP3 POP SWAP3 POP POP SWAP3 SWAP6 SWAP2 SWAP5 POP SWAP3 POP JUMP JUMPDEST PUSH1 0x0 DUP2 MLOAD SWAP1 POP SWAP2 SWAP1 POP JUMP JUMPDEST PUSH1 0x0 DUP3 DUP3 MSTORE PUSH1 0x20 DUP3 ADD SWAP1 POP SWAP3 SWAP2 POP POP JUMP JUMPDEST PUSH1 0x0 JUMPDEST DUP4 DUP2 LT ISZERO PUSH2 0x547 JUMPI DUP1 DUP3 ADD MLOAD DUP2 DUP5 ADD MSTORE PUSH1 0x20 DUP2 ADD SWAP1 POP PUSH2 0x52C JUMP JUMPDEST PUSH1 0x0 DUP5 DUP5 ADD MSTORE POP POP POP POP JUMP JUMPDEST PUSH1 0x0 PUSH2 0x55E DUP3 PUSH2 0x50D JUMP JUMPDEST PUSH2 0x568 DUP2 DUP6 PUSH2 0x518 JUMP JUMPDEST SWAP4 POP PUSH2 0x578 DUP2 DUP6 PUSH1 0x20 DUP7 ADD PUSH2 0x529 JUMP JUMPDEST PUSH2 0x581 DUP2 PUSH2 0x24B JUMP JUMPDEST DUP5 ADD SWAP2 POP POP SWAP3 SWAP2 POP POP JUMP JUMPDEST PUSH1 0x0 PUSH1 0x20 DUP3 ADD SWAP1 POP DUP2 DUP2 SUB PUSH1 0x0 DUP4 ADD MSTORE PUSH2 0x5A6 DUP2 DUP5 PUSH2 0x553 JUMP JUMPDEST SWAP1 POP SWAP3 SWAP2 POP POP JUMP JUMPDEST PUSH1 0x0 PUSH8 0xFFFFFFFFFFFFFFFF DUP3 GT ISZERO PUSH2 0x5C9 JUMPI PUSH2 0x5C8 PUSH2 0x25C JUMP JUMPDEST JUMPDEST PUSH1 0x20 DUP3 MUL SWAP1 POP PUSH1 0x20 DUP2 ADD SWAP1 POP SWAP2 SWAP1 POP JUMP JUMPDEST PUSH1 0x0 DUP2 SWAP1 POP SWAP2 SWAP1 POP JUMP JUMPDEST PUSH2 0x5ED DUP2 PUSH2 0x5DA JUMP JUMPDEST DUP2 EQ PUSH2 0x5F8 JUMPI PUSH1 0x0 DUP1 REVERT JUMPDEST POP JUMP JUMPDEST PUSH1 0x0 DUP2 CALLDATALOAD SWAP1 POP PUSH2 0x60A DUP2 PUSH2 0x5E4 JUMP JUMPDEST SWAP3 SWAP2 POP POP JUMP JUMPDEST PUSH1 0x0 PUSH2 0x623 PUSH2 0x61E DUP5 PUSH2 0x5AE JUMP JUMPDEST PUSH2 0x2BC JUMP JUMPDEST SWAP1 POP DUP1 DUP4 DUP3 MSTORE PUSH1 0x20 DUP3 ADD SWAP1 POP PUSH1 0x20 DUP5 MUL DUP4 ADD DUP6 DUP2 GT ISZERO PUSH2 0x646 JUMPI PUSH2 0x645 PUSH2 0x303 JUMP JUMPDEST JUMPDEST DUP4 JUMPDEST DUP2 DUP2 LT ISZERO PUSH2 0x66F JUMPI DUP1 PUSH2 0x65B DUP9 DUP3 PUSH2 0x5FB JUMP JUMPDEST DUP5 MSTORE PUSH1 0x20 DUP5 ADD SWAP4 POP POP PUSH1 0x20 DUP2 ADD SWAP1 POP PUSH2 0x648 JUMP JUMPDEST POP POP POP SWAP4 SWAP3 POP POP POP JUMP JUMPDEST PUSH1 0x0 DUP3 PUSH1 0x1F DUP4 ADD SLT PUSH2 0x68E JUMPI PUSH2 0x68D PUSH2 0x246 JUMP JUMPDEST JUMPDEST DUP2 CALLDATALOAD PUSH2 0x69E DUP5 DUP3 PUSH1 0x20 DUP7 ADD PUSH2 0x610 JUMP JUMPDEST SWAP2 POP POP SWAP3 SWAP2 POP POP JUMP JUMPDEST PUSH1 0x0 PUSH1 0x20 DUP3 DUP5 SUB SLT ISZERO PUSH2 0x6BD JUMPI PUSH2 0x6BC PUSH2 0x206 JUMP JUMPDEST JUMPDEST PUSH1 0x0 DUP3 ADD CALLDATALOAD PUSH8 0xFFFFFFFFFFFFFFFF DUP2 GT ISZERO PUSH2 0x6DB JUMPI PUSH2 0x6DA PUSH2 0x20B JUMP JUMPDEST JUMPDEST PUSH2 0x6E7 DUP5 DUP3 DUP6 ADD PUSH2 0x679 JUMP JUMPDEST SWAP2 POP POP SWAP3 SWAP2 POP POP JUMP JUMPDEST PUSH2 0x6F9 DUP2 PUSH2 0x5DA JUMP JUMPDEST DUP3 MSTORE POP POP JUMP JUMPDEST PUSH1 0x0 PUSH1 0x20 DUP3 ADD SWAP1 POP PUSH2 0x714 PUSH1 0x0 DUP4 ADD DUP5 PUSH2 0x6F0 JUMP JUMPDEST SWAP3 SWAP2 POP POP JUMP JUMPDEST PUSH32 0x4E487B7100000000000000000000000000000000000000000000000000000000 PUSH1 0x0 MSTORE PUSH1 0x32 PUSH1 0x4 MSTORE PUSH1 0x24 PUSH1 0x0 REVERT JUMPDEST PUSH32 0x4E487B7100000000000000000000000000000000000000000000000000000000 PUSH1 0x0 MSTORE PUSH1 0x11 PUSH1 0x4 MSTORE PUSH1 0x24 PUSH1 0x0 REVERT JUMPDEST PUSH1 0x0 PUSH2 0x783 DUP3 PUSH2 0x5DA JUMP JUMPDEST SWAP2 POP PUSH32 0xFFFFFFFFFFFFFFFFFFFFFFFFFFFFFFFFFFFFFFFFFFFFFFFFFFFFFFFFFFFFFFFF DUP3 SUB PUSH2 0x7B5 JUMPI PUSH2 0x7B4 PUSH2 0x749 JUMP JUMPDEST JUMPDEST PUSH1 0x1 DUP3 ADD SWAP1 POP SWAP2 SWAP1 POP JUMP JUMPDEST PUSH1 0x0 DUP2 SWAP1 POP SWAP3 SWAP2 POP POP JUMP JUMPDEST DUP3 DUP2 DUP4 CALLDATACOPY PUSH1 0x0 DUP4 DUP4 ADD MSTORE POP POP POP JUMP JUMPDEST PUSH1 0x0 PUSH2 0x7E6 DUP4 DUP6 PUSH2 0x7C0 JUMP JUMPDEST SWAP4 POP PUSH2 0x7F3 DUP4 DUP6 DUP5 PUSH2 0x7CB JUMP JUMPDEST DUP3 DUP5 ADD SWAP1 POP SWAP4 SWAP3 POP POP POP JUMP JUMPDEST PUSH1 0x0 PUSH2 0x80C DUP3 DUP7 DUP9 PUSH2 0x7DA JUMP JUMPDEST SWAP2 POP PUSH2 0x819 DUP3 DUP5 DUP7 PUSH2 0x7DA JUMP JUMPDEST SWAP2 POP DUP2 SWAP1 POP SWAP6 SWAP5 POP POP POP POP POP JUMP JUMPDEST PUSH1 0x0 PUSH2 0x834 DUP3 DUP5 DUP7 PUSH2 0x7DA JUMP JUMPDEST SWAP2 POP DUP2 SWAP1 POP SWAP4 SWAP3 POP POP POP JUMP INVALID LOG2 PUSH5 0x6970667358 0x22 SLT KECCAK256 0xDA 0xD2 INVALID OR 0x25 SGT DIV CREATE 0xED 0x5E SMOD LOG2 0xC0 EXTCODECOPY SWAP12 0x2F REVERT GAS PUSH12 0x74E755DFF49F848E4C013CE5 0xB0 PUSH5 0x736F6C6343 STOP ADDMOD GT STOP CALLER "
				},
				"gasEstimates": {
					"creation": {
						"codeDepositCost": "433200",
						"executionCost": "468",
						"totalCost": "433668"
					},
					"external": {
						"compare2Strings(string,string)": "infinite",
						"concat2Strings(string,string)": "infinite",
						"find(int256,int256[])": "infinite",
						"largestInArr(uint256[])": "infinite"
					}
				},
				"methodIdentifiers": {
					"compare2Strings(string,string)": "f9cb5bd8",
					"concat2Strings(string,string)": "4309fba7",
					"find(int256,int256[])": "094825b9",
					"largestInArr(uint256[])": "cdbb7a5a"
				}
			},
			"storageLayout": {
				"storage": [],
				"types": null
			},
			"userdoc": {
				"kind": "user",
				"methods": {},
				"version": 1
			}
		}
	}
}