{
	"contracts/revision/Assg_2.sol": {
		"Assign_2": {
			"abi": [
				{
					"inputs": [
						{
							"internalType": "uint256",
							"name": "",
							"type": "uint256"
						}
					],
					"name": "_strArr",
					"outputs": [
						{
							"internalType": "string",
							"name": "",
							"type": "string"
						}
					],
					"stateMutability": "view",
					"type": "function"
				},
				{
					"inputs": [
						{
							"internalType": "string",
							"name": "_str1",
							"type": "string"
						},
						{
							"internalType": "string",
							"name": "_str2",
							"type": "string"
						}
					],
					"name": "compare2Strings",
					"outputs": [
						{
							"internalType": "bool",
							"name": "",
							"type": "bool"
						}
					],
					"stateMutability": "pure",
					"type": "function"
				},
				{
					"inputs": [
						{
							"internalType": "string",
							"name": "_str1",
							"type": "string"
						},
						{
							"internalType": "string",
							"name": "_str2",
							"type": "string"
						}
					],
					"name": "concat2Strings",
					"outputs": [
						{
							"internalType": "string",
							"name": "",
							"type": "string"
						}
					],
					"stateMutability": "pure",
					"type": "function"
				},
				{
					"inputs": [
						{
							"internalType": "int256",
							"name": "_num",
							"type": "int256"
						},
						{
							"internalType": "int256[]",
							"name": "_arr",
							"type": "int256[]"
						}
					],
					"name": "find",
					"outputs": [
						{
							"internalType": "bool",
							"name": "",
							"type": "bool"
						}
					],
					"stateMutability": "pure",
					"type": "function"
				},
				{
					"inputs": [],
					"name": "get10Std",
					"outputs": [
						{
							"components": [
								{
									"internalType": "string",
									"name": "name",
									"type": "string"
								},
								{
									"internalType": "int256",
									"name": "roll",
									"type": "int256"
								},
								{
									"internalType": "int256",
									"name": "age",
									"type": "int256"
								}
							],
							"internalType": "struct Assign_2.Student[10]",
							"name": "",
							"type": "tuple[10]"
						}
					],
					"stateMutability": "view",
					"type": "function"
				},
				{
					"inputs": [],
					"name": "getCurntOwner",
					"outputs": [
						{
							"internalType": "address",
							"name": "",
							"type": "address"
						}
					],
					"stateMutability": "view",
					"type": "function"
				},
				{
					"inputs": [],
					"name": "getMark",
					"outputs": [
						{
							"internalType": "uint256[3]",
							"name": "",
							"type": "uint256[3]"
						}
					],
					"stateMutability": "view",
					"type": "function"
				},
				{
					"inputs": [],
					"name": "houseSize",
					"outputs": [
						{
							"internalType": "enum Assign_2.HOUSE",
							"name": "",
							"type": "uint8"
						}
					],
					"stateMutability": "view",
					"type": "function"
				},
				{
					"inputs": [
						{
							"internalType": "uint256[]",
							"name": "_arr",
							"type": "uint256[]"
						}
					],
					"name": "largestInArr",
					"outputs": [
						{
							"internalType": "uint256",
							"name": "",
							"type": "uint256"
						}
					],
					"stateMutability": "pure",
					"type": "function"
				},
				{
					"inputs": [],
					"name": "myHouse",
					"outputs": [
						{
							"internalType": "enum Assign_2.HOUSE",
							"name": "",
							"type": "uint8"
						}
					],
					"stateMutability": "view",
					"type": "function"
				},
				{
					"inputs": [
						{
							"internalType": "string",
							"name": "_name",
							"type": "string"
						},
						{
							"internalType": "int256",
							"name": "roll",
							"type": "int256"
						},
						{
							"internalType": "int256",
							"name": "age",
							"type": "int256"
						}
					],
					"name": "newStudent",
					"outputs": [
						{
							"components": [
								{
									"internalType": "string",
									"name": "name",
									"type": "string"
								},
								{
									"internalType": "int256",
									"name": "roll",
									"type": "int256"
								},
								{
									"internalType": "int256",
									"name": "age",
									"type": "int256"
								}
							],
							"internalType": "struct Assign_2.Student",
							"name": "",
							"type": "tuple"
						}
					],
					"stateMutability": "pure",
					"type": "function"
				},
				{
					"inputs": [
						{
							"internalType": "address",
							"name": "",
							"type": "address"
						},
						{
							"internalType": "address",
							"name": "",
							"type": "address"
						}
					],
					"name": "ownership",
					"outputs": [
						{
							"internalType": "bool",
							"name": "",
							"type": "bool"
						}
					],
					"stateMutability": "view",
					"type": "function"
				},
				{
					"inputs": [],
					"name": "popStrArr",
					"outputs": [],
					"stateMutability": "nonpayable",
					"type": "function"
				},
				{
					"inputs": [],
					"name": "pushStrArr",
					"outputs": [],
					"stateMutability": "nonpayable",
					"type": "function"
				},
				{
					"inputs": [],
					"name": "resetOwnership",
					"outputs": [],
					"stateMutability": "nonpayable",
					"type": "function"
				},
				{
					"inputs": [
						{
							"internalType": "enum Assign_2.HOUSE",
							"name": "val",
							"type": "uint8"
						}
					],
					"name": "setHouseSize",
					"outputs": [],
					"stateMutability": "nonpayable",
					"type": "function"
				},
				{
					"inputs": [
						{
							"internalType": "uint256",
							"name": "Math",
							"type": "uint256"
						},
						{
							"internalType": "uint256",
							"name": "English",
							"type": "uint256"
						},
						{
							"internalType": "uint256",
							"name": "History",
							"type": "uint256"
						}
					],
					"name": "setMark",
					"outputs": [],
					"stateMutability": "nonpayable",
					"type": "function"
				},
				{
					"inputs": [
						{
							"internalType": "string",
							"name": "",
							"type": "string"
						},
						{
							"internalType": "uint256",
							"name": "",
							"type": "uint256"
						}
					],
					"name": "store10",
					"outputs": [
						{
							"internalType": "string",
							"name": "name",
							"type": "string"
						},
						{
							"internalType": "int256",
							"name": "roll",
							"type": "int256"
						},
						{
							"internalType": "int256",
							"name": "age",
							"type": "int256"
						}
					],
					"stateMutability": "view",
					"type": "function"
				},
				{
					"inputs": [
						{
							"internalType": "string",
							"name": "_name",
							"type": "string"
						},
						{
							"internalType": "int256",
							"name": "roll",
							"type": "int256"
						},
						{
							"internalType": "int256",
							"name": "age",
							"type": "int256"
						},
						{
							"internalType": "uint256",
							"name": "index",
							"type": "uint256"
						}
					],
					"name": "str10Std",
					"outputs": [],
					"stateMutability": "nonpayable",
					"type": "function"
				},
				{
					"inputs": [],
					"name": "time",
					"outputs": [
						{
							"internalType": "uint256",
							"name": "",
							"type": "uint256"
						}
					],
					"stateMutability": "view",
					"type": "function"
				},
				{
					"inputs": [
						{
							"internalType": "address",
							"name": "newAdr",
							"type": "address"
						}
					],
					"name": "transferownership",
					"outputs": [],
					"stateMutability": "nonpayable",
					"type": "function"
				}
			],
			"devdoc": {
				"kind": "dev",
				"methods": {},
				"version": 1
			},
			"evm": {
				"assembly": "    /* \"contracts/revision/Assg_2.sol\":56:3946  contract Assign_2{... */\n  mstore(0x40, 0x80)\n    /* \"contracts/revision/Assg_2.sol\":2107:2226  address[] substituteAdresses = [0x5B38Da6a701c568545dCfcB03FcB875f56beddC4, 0xAb8483F64d9C6d1EcF9b849Ae677dD3315835cb2] */\n  mload(0x40)\n  dup1\n  0x40\n  add\n  0x40\n  mstore\n  dup1\n    /* \"contracts/revision/Assg_2.sol\":2139:2181  0x5B38Da6a701c568545dCfcB03FcB875f56beddC4 */\n  0x5b38da6a701c568545dcfcb03fcb875f56beddc4\n    /* \"contracts/revision/Assg_2.sol\":2107:2226  address[] substituteAdresses = [0x5B38Da6a701c568545dCfcB03FcB875f56beddC4, 0xAb8483F64d9C6d1EcF9b849Ae677dD3315835cb2] */\n  0xffffffffffffffffffffffffffffffffffffffff\n  and\n  0xffffffffffffffffffffffffffffffffffffffff\n  and\n  dup2\n  mstore\n  0x20\n  add\n    /* \"contracts/revision/Assg_2.sol\":2183:2225  0xAb8483F64d9C6d1EcF9b849Ae677dD3315835cb2 */\n  0xab8483f64d9c6d1ecf9b849ae677dd3315835cb2\n    /* \"contracts/revision/Assg_2.sol\":2107:2226  address[] substituteAdresses = [0x5B38Da6a701c568545dCfcB03FcB875f56beddC4, 0xAb8483F64d9C6d1EcF9b849Ae677dD3315835cb2] */\n  0xffffffffffffffffffffffffffffffffffffffff\n  and\n  0xffffffffffffffffffffffffffffffffffffffff\n  and\n  dup2\n  mstore\n  pop\n  0x03\n  swap1\n  0x02\n  tag_1\n  swap3\n  swap2\n  swap1\n  tag_2\n  jump\t// in\ntag_1:\n  pop\n    /* \"contracts/revision/Assg_2.sol\":56:3946  contract Assign_2{... */\n  callvalue\n  dup1\n  iszero\n  tag_3\n  jumpi\n  0x00\n  dup1\n  revert\ntag_3:\n  pop\n  jump(tag_4)\ntag_2:\n  dup3\n  dup1\n  sload\n  dup3\n  dup3\n  sstore\n  swap1\n  0x00\n  mstore\n  keccak256(0x00, 0x20)\n  swap1\n  dup2\n  add\n  swap3\n  dup3\n  iszero\n  tag_5\n  jumpi\n  swap2\n  0x20\n  mul\n  dup3\n  add\ntag_6:\n  dup3\n  dup2\n  gt\n  iszero\n  tag_7\n  jumpi\n  dup3\n  mload\n  dup3\n  exp(0x0100, 0x00)\n  dup2\n  sload\n  dup2\n  0xffffffffffffffffffffffffffffffffffffffff\n  mul\n  not\n  and\n  swap1\n  dup4\n  0xffffffffffffffffffffffffffffffffffffffff\n  and\n  mul\n  or\n  swap1\n  sstore\n  pop\n  swap2\n  0x20\n  add\n  swap2\n  swap1\n  0x01\n  add\n  swap1\n  jump(tag_6)\ntag_7:\ntag_5:\n  pop\n  swap1\n  pop\n  tag_8\n  swap2\n  swap1\n  tag_9\n  jump\t// in\ntag_8:\n  pop\n  swap1\n  jump\t// out\ntag_9:\ntag_10:\n  dup1\n  dup3\n  gt\n  iszero\n  tag_11\n  jumpi\n  0x00\n  dup2\n  0x00\n  swap1\n  sstore\n  pop\n  0x01\n  add\n  jump(tag_10)\ntag_11:\n  pop\n  swap1\n  jump\t// out\ntag_4:\n  dataSize(sub_0)\n  dup1\n  dataOffset(sub_0)\n  0x00\n  codecopy\n  0x00\n  return\nstop\n\nsub_0: assembly {\n        /* \"contracts/revision/Assg_2.sol\":56:3946  contract Assign_2{... */\n      mstore(0x40, 0x80)\n      callvalue\n      dup1\n      iszero\n      tag_1\n      jumpi\n      0x00\n      dup1\n      revert\n    tag_1:\n      pop\n      jumpi(tag_2, lt(calldatasize, 0x04))\n      shr(0xe0, calldataload(0x00))\n      dup1\n      0x742a1cb5\n      gt\n      tag_24\n      jumpi\n      dup1\n      0xa5cb84b5\n      gt\n      tag_25\n      jumpi\n      dup1\n      0xa5cb84b5\n      eq\n      tag_18\n      jumpi\n      dup1\n      0xbdb552f0\n      eq\n      tag_19\n      jumpi\n      dup1\n      0xcdbb7a5a\n      eq\n      tag_20\n      jumpi\n      dup1\n      0xdf0fd34f\n      eq\n      tag_21\n      jumpi\n      dup1\n      0xe8b5b796\n      eq\n      tag_22\n      jumpi\n      dup1\n      0xf9cb5bd8\n      eq\n      tag_23\n      jumpi\n      jump(tag_2)\n    tag_25:\n      dup1\n      0x742a1cb5\n      eq\n      tag_13\n      jumpi\n      dup1\n      0x8ea5bd07\n      eq\n      tag_14\n      jumpi\n      dup1\n      0x8fff396f\n      eq\n      tag_15\n      jumpi\n      dup1\n      0x974fe591\n      eq\n      tag_16\n      jumpi\n      dup1\n      0xa0957e09\n      eq\n      tag_17\n      jumpi\n      jump(tag_2)\n    tag_24:\n      dup1\n      0x4309fba7\n      gt\n      tag_26\n      jumpi\n      dup1\n      0x4309fba7\n      eq\n      tag_8\n      jumpi\n      dup1\n      0x4ddd29fe\n      eq\n      tag_9\n      jumpi\n      dup1\n      0x51c6689a\n      eq\n      tag_10\n      jumpi\n      dup1\n      0x5bb42e93\n      eq\n      tag_11\n      jumpi\n      dup1\n      0x660127c7\n      eq\n      tag_12\n      jumpi\n      jump(tag_2)\n    tag_26:\n      dup1\n      0x094825b9\n      eq\n      tag_3\n      jumpi\n      dup1\n      0x16ada547\n      eq\n      tag_4\n      jumpi\n      dup1\n      0x19077dca\n      eq\n      tag_5\n      jumpi\n      dup1\n      0x323c9ab3\n      eq\n      tag_6\n      jumpi\n      dup1\n      0x39ada523\n      eq\n      tag_7\n      jumpi\n    tag_2:\n      0x00\n      dup1\n      revert\n        /* \"contracts/revision/Assg_2.sol\":519:775  function find(int _num, int[] memory _arr) external pure returns (bool) {... */\n    tag_3:\n      tag_27\n      0x04\n      dup1\n      calldatasize\n      sub\n      dup2\n      add\n      swap1\n      tag_28\n      swap2\n      swap1\n      tag_29\n      jump\t// in\n    tag_28:\n      tag_30\n      jump\t// in\n    tag_27:\n      mload(0x40)\n      tag_31\n      swap2\n      swap1\n      tag_32\n      jump\t// in\n    tag_31:\n      mload(0x40)\n      dup1\n      swap2\n      sub\n      swap1\n      return\n        /* \"contracts/revision/Assg_2.sol\":3857:3942  function time() view external returns(uint256){... */\n    tag_4:\n      tag_33\n      tag_34\n      jump\t// in\n    tag_33:\n      mload(0x40)\n      tag_35\n      swap2\n      swap1\n      tag_36\n      jump\t// in\n    tag_35:\n      mload(0x40)\n      dup1\n      swap2\n      sub\n      swap1\n      return\n        /* \"contracts/revision/Assg_2.sol\":2241:2476  function resetOwnership() external {... */\n    tag_5:\n      tag_37\n      tag_38\n      jump\t// in\n    tag_37:\n      stop\n        /* \"contracts/revision/Assg_2.sol\":2777:3106  function getCurntOwner() view external returns(address){... */\n    tag_6:\n      tag_39\n      tag_40\n      jump\t// in\n    tag_39:\n      mload(0x40)\n      tag_41\n      swap2\n      swap1\n      tag_42\n      jump\t// in\n    tag_41:\n      mload(0x40)\n      dup1\n      swap2\n      sub\n      swap1\n      return\n        /* \"contracts/revision/Assg_2.sol\":1609:1715  function get10Std() external view returns(Student[10] memory){... */\n    tag_7:\n      tag_43\n      tag_44\n      jump\t// in\n    tag_43:\n      mload(0x40)\n      tag_45\n      swap2\n      swap1\n      tag_46\n      jump\t// in\n    tag_45:\n      mload(0x40)\n      dup1\n      swap2\n      sub\n      swap1\n      return\n        /* \"contracts/revision/Assg_2.sol\":105:261  function concat2Strings(string calldata _str1, string calldata _str2) pure external returns(string memory){... */\n    tag_8:\n      tag_47\n      0x04\n      dup1\n      calldatasize\n      sub\n      dup2\n      add\n      swap1\n      tag_48\n      swap2\n      swap1\n      tag_49\n      jump\t// in\n    tag_48:\n      tag_50\n      jump\t// in\n    tag_47:\n      mload(0x40)\n      tag_51\n      swap2\n      swap1\n      tag_52\n      jump\t// in\n    tag_51:\n      mload(0x40)\n      dup1\n      swap2\n      sub\n      swap1\n      return\n        /* \"contracts/revision/Assg_2.sol\":1169:1359  function newStudent(string memory _name, int roll, int age) pure external returns(Student memory){... */\n    tag_9:\n      tag_53\n      0x04\n      dup1\n      calldatasize\n      sub\n      dup2\n      add\n      swap1\n      tag_54\n      swap2\n      swap1\n      tag_55\n      jump\t// in\n    tag_54:\n      tag_56\n      jump\t// in\n    tag_53:\n      mload(0x40)\n      tag_57\n      swap2\n      swap1\n      tag_58\n      jump\t// in\n    tag_57:\n      mload(0x40)\n      dup1\n      swap2\n      sub\n      swap1\n      return\n        /* \"contracts/revision/Assg_2.sol\":1453:1603  function str10Std(string memory _name, int roll, int age, uint index) external {... */\n    tag_10:\n      tag_59\n      0x04\n      dup1\n      calldatasize\n      sub\n      dup2\n      add\n      swap1\n      tag_60\n      swap2\n      swap1\n      tag_61\n      jump\t// in\n    tag_60:\n      tag_62\n      jump\t// in\n    tag_59:\n      stop\n        /* \"contracts/revision/Assg_2.sol\":3171:3284  function pushStrArr() external {... */\n    tag_11:\n      tag_63\n      tag_64\n      jump\t// in\n    tag_63:\n      stop\n        /* \"contracts/revision/Assg_2.sol\":3450:3472  HOUSE public houseSize */\n    tag_12:\n      tag_65\n      tag_66\n      jump\t// in\n    tag_65:\n      mload(0x40)\n      tag_67\n      swap2\n      swap1\n      tag_68\n      jump\t// in\n    tag_67:\n      mload(0x40)\n      dup1\n      swap2\n      sub\n      swap1\n      return\n        /* \"contracts/revision/Assg_2.sol\":3142:3165  string[] public _strArr */\n    tag_13:\n      tag_69\n      0x04\n      dup1\n      calldatasize\n      sub\n      dup2\n      add\n      swap1\n      tag_70\n      swap2\n      swap1\n      tag_71\n      jump\t// in\n    tag_70:\n      tag_72\n      jump\t// in\n    tag_69:\n      mload(0x40)\n      tag_73\n      swap2\n      swap1\n      tag_52\n      jump\t// in\n    tag_73:\n      mload(0x40)\n      dup1\n      swap2\n      sub\n      swap1\n      return\n        /* \"contracts/revision/Assg_2.sol\":3558:3834  function myHouse() view external returns(HOUSE){... */\n    tag_14:\n      tag_74\n      tag_75\n      jump\t// in\n    tag_74:\n      mload(0x40)\n      tag_76\n      swap2\n      swap1\n      tag_68\n      jump\t// in\n    tag_76:\n      mload(0x40)\n      dup1\n      swap2\n      sub\n      swap1\n      return\n        /* \"contracts/revision/Assg_2.sol\":1930:2027  function getMark() view external returns(uint[3] memory){... */\n    tag_15:\n      tag_77\n      tag_78\n      jump\t// in\n    tag_77:\n      mload(0x40)\n      tag_79\n      swap2\n      swap1\n      tag_80\n      jump\t// in\n    tag_79:\n      mload(0x40)\n      dup1\n      swap2\n      sub\n      swap1\n      return\n        /* \"contracts/revision/Assg_2.sol\":2043:2101  mapping(address=>mapping(address=> bool)) public ownership */\n    tag_16:\n      tag_81\n      0x04\n      dup1\n      calldatasize\n      sub\n      dup2\n      add\n      swap1\n      tag_82\n      swap2\n      swap1\n      tag_83\n      jump\t// in\n    tag_82:\n      tag_84\n      jump\t// in\n    tag_81:\n      mload(0x40)\n      tag_85\n      swap2\n      swap1\n      tag_32\n      jump\t// in\n    tag_85:\n      mload(0x40)\n      dup1\n      swap2\n      sub\n      swap1\n      return\n        /* \"contracts/revision/Assg_2.sol\":1799:1925  function setMark(uint Math, uint English, uint History) external {... */\n    tag_17:\n      tag_86\n      0x04\n      dup1\n      calldatasize\n      sub\n      dup2\n      add\n      swap1\n      tag_87\n      swap2\n      swap1\n      tag_88\n      jump\t// in\n    tag_87:\n      tag_89\n      jump\t// in\n    tag_86:\n      stop\n        /* \"contracts/revision/Assg_2.sol\":3289:3392  function popStrArr() external {... */\n    tag_18:\n      tag_90\n      tag_91\n      jump\t// in\n    tag_90:\n      stop\n        /* \"contracts/revision/Assg_2.sol\":1402:1447  mapping(string => Student[10]) public store10 */\n    tag_19:\n      tag_92\n      0x04\n      dup1\n      calldatasize\n      sub\n      dup2\n      add\n      swap1\n      tag_93\n      swap2\n      swap1\n      tag_94\n      jump\t// in\n    tag_93:\n      tag_95\n      jump\t// in\n    tag_92:\n      mload(0x40)\n      tag_96\n      swap4\n      swap3\n      swap2\n      swap1\n      tag_97\n      jump\t// in\n    tag_96:\n      mload(0x40)\n      dup1\n      swap2\n      sub\n      swap1\n      return\n        /* \"contracts/revision/Assg_2.sol\":806:1065  function largestInArr(uint[] memory _arr) pure external returns(uint){... */\n    tag_20:\n      tag_98\n      0x04\n      dup1\n      calldatasize\n      sub\n      dup2\n      add\n      swap1\n      tag_99\n      swap2\n      swap1\n      tag_100\n      jump\t// in\n    tag_99:\n      tag_101\n      jump\t// in\n    tag_98:\n      mload(0x40)\n      tag_102\n      swap2\n      swap1\n      tag_36\n      jump\t// in\n    tag_102:\n      mload(0x40)\n      dup1\n      swap2\n      sub\n      swap1\n      return\n        /* \"contracts/revision/Assg_2.sol\":3479:3552  function setHouseSize(HOUSE val) external{... */\n    tag_21:\n      tag_103\n      0x04\n      dup1\n      calldatasize\n      sub\n      dup2\n      add\n      swap1\n      tag_104\n      swap2\n      swap1\n      tag_105\n      jump\t// in\n    tag_104:\n      tag_106\n      jump\t// in\n    tag_103:\n      stop\n        /* \"contracts/revision/Assg_2.sol\":2482:2771  function transferownership(address newAdr)  external{... */\n    tag_22:\n      tag_107\n      0x04\n      dup1\n      calldatasize\n      sub\n      dup2\n      add\n      swap1\n      tag_108\n      swap2\n      swap1\n      tag_109\n      jump\t// in\n    tag_108:\n      tag_110\n      jump\t// in\n    tag_107:\n      stop\n        /* \"contracts/revision/Assg_2.sol\":293:487  function compare2Strings(string calldata _str1, string calldata _str2) pure external returns(bool){... */\n    tag_23:\n      tag_111\n      0x04\n      dup1\n      calldatasize\n      sub\n      dup2\n      add\n      swap1\n      tag_112\n      swap2\n      swap1\n      tag_49\n      jump\t// in\n    tag_112:\n      tag_113\n      jump\t// in\n    tag_111:\n      mload(0x40)\n      tag_114\n      swap2\n      swap1\n      tag_32\n      jump\t// in\n    tag_114:\n      mload(0x40)\n      dup1\n      swap2\n      sub\n      swap1\n      return\n        /* \"contracts/revision/Assg_2.sol\":519:775  function find(int _num, int[] memory _arr) external pure returns (bool) {... */\n    tag_30:\n        /* \"contracts/revision/Assg_2.sol\":585:589  bool */\n      0x00\n        /* \"contracts/revision/Assg_2.sol\":601:613  bool isFound */\n      dup1\n        /* \"contracts/revision/Assg_2.sol\":628:634  uint i */\n      0x00\n        /* \"contracts/revision/Assg_2.sol\":623:745  for (uint i=0; i<_arr.length; i++){... */\n    tag_116:\n        /* \"contracts/revision/Assg_2.sol\":640:644  _arr */\n      dup4\n        /* \"contracts/revision/Assg_2.sol\":640:651  _arr.length */\n      mload\n        /* \"contracts/revision/Assg_2.sol\":638:639  i */\n      dup2\n        /* \"contracts/revision/Assg_2.sol\":638:651  i<_arr.length */\n      lt\n        /* \"contracts/revision/Assg_2.sol\":623:745  for (uint i=0; i<_arr.length; i++){... */\n      iszero\n      tag_117\n      jumpi\n        /* \"contracts/revision/Assg_2.sol\":683:687  _num */\n      dup5\n        /* \"contracts/revision/Assg_2.sol\":674:678  _arr */\n      dup5\n        /* \"contracts/revision/Assg_2.sol\":679:680  i */\n      dup3\n        /* \"contracts/revision/Assg_2.sol\":674:681  _arr[i] */\n      dup2\n      mload\n      dup2\n      lt\n      tag_119\n      jumpi\n      tag_120\n      tag_121\n      jump\t// in\n    tag_120:\n    tag_119:\n      0x20\n      mul\n      0x20\n      add\n      add\n      mload\n        /* \"contracts/revision/Assg_2.sol\":674:687  _arr[i]==_num */\n      sub\n        /* \"contracts/revision/Assg_2.sol\":671:735  if(_arr[i]==_num){... */\n      tag_122\n      jumpi\n        /* \"contracts/revision/Assg_2.sol\":716:720  true */\n      0x01\n        /* \"contracts/revision/Assg_2.sol\":706:720  isFound = true */\n      swap2\n      pop\n        /* \"contracts/revision/Assg_2.sol\":671:735  if(_arr[i]==_num){... */\n    tag_122:\n        /* \"contracts/revision/Assg_2.sol\":653:656  i++ */\n      dup1\n      dup1\n      tag_123\n      swap1\n      tag_124\n      jump\t// in\n    tag_123:\n      swap2\n      pop\n      pop\n        /* \"contracts/revision/Assg_2.sol\":623:745  for (uint i=0; i<_arr.length; i++){... */\n      jump(tag_116)\n    tag_117:\n      pop\n        /* \"contracts/revision/Assg_2.sol\":761:768  isFound */\n      dup1\n        /* \"contracts/revision/Assg_2.sol\":754:768  return isFound */\n      swap2\n      pop\n      pop\n        /* \"contracts/revision/Assg_2.sol\":519:775  function find(int _num, int[] memory _arr) external pure returns (bool) {... */\n      swap3\n      swap2\n      pop\n      pop\n      jump\t// out\n        /* \"contracts/revision/Assg_2.sol\":3857:3942  function time() view external returns(uint256){... */\n    tag_34:\n        /* \"contracts/revision/Assg_2.sol\":3895:3902  uint256 */\n      0x00\n        /* \"contracts/revision/Assg_2.sol\":3920:3935  block.timestamp */\n      timestamp\n        /* \"contracts/revision/Assg_2.sol\":3913:3935  return block.timestamp */\n      swap1\n      pop\n        /* \"contracts/revision/Assg_2.sol\":3857:3942  function time() view external returns(uint256){... */\n      swap1\n      jump\t// out\n        /* \"contracts/revision/Assg_2.sol\":2241:2476  function resetOwnership() external {... */\n    tag_38:\n        /* \"contracts/revision/Assg_2.sol\":2290:2296  uint i */\n      0x00\n        /* \"contracts/revision/Assg_2.sol\":2286:2470  for(uint i=0; i<substituteAdresses.length;i++){... */\n    tag_127:\n        /* \"contracts/revision/Assg_2.sol\":2302:2320  substituteAdresses */\n      0x03\n        /* \"contracts/revision/Assg_2.sol\":2302:2327  substituteAdresses.length */\n      dup1\n      sload\n      swap1\n      pop\n        /* \"contracts/revision/Assg_2.sol\":2300:2301  i */\n      dup2\n        /* \"contracts/revision/Assg_2.sol\":2300:2327  i<substituteAdresses.length */\n      lt\n        /* \"contracts/revision/Assg_2.sol\":2286:2470  for(uint i=0; i<substituteAdresses.length;i++){... */\n      iszero\n      tag_128\n      jumpi\n        /* \"contracts/revision/Assg_2.sol\":2435:2445  msg.sender */\n      caller\n        /* \"contracts/revision/Assg_2.sol\":2411:2445  substituteAdresses[i]== msg.sender */\n      0xffffffffffffffffffffffffffffffffffffffff\n      and\n        /* \"contracts/revision/Assg_2.sol\":2411:2429  substituteAdresses */\n      0x03\n        /* \"contracts/revision/Assg_2.sol\":2430:2431  i */\n      dup3\n        /* \"contracts/revision/Assg_2.sol\":2411:2432  substituteAdresses[i] */\n      dup2\n      sload\n      dup2\n      lt\n      tag_130\n      jumpi\n      tag_131\n      tag_121\n      jump\t// in\n    tag_131:\n    tag_130:\n      swap1\n      0x00\n      mstore\n      keccak256(0x00, 0x20)\n      add\n      0x00\n      swap1\n      sload\n      swap1\n      0x0100\n      exp\n      swap1\n      div\n      0xffffffffffffffffffffffffffffffffffffffff\n      and\n        /* \"contracts/revision/Assg_2.sol\":2411:2445  substituteAdresses[i]== msg.sender */\n      0xffffffffffffffffffffffffffffffffffffffff\n      and\n      eq\n        /* \"contracts/revision/Assg_2.sol\":2411:2458  substituteAdresses[i]== msg.sender ? true:false */\n      tag_133\n      jumpi\n        /* \"contracts/revision/Assg_2.sol\":2453:2458  false */\n      0x00\n        /* \"contracts/revision/Assg_2.sol\":2411:2458  substituteAdresses[i]== msg.sender ? true:false */\n      jump(tag_134)\n    tag_133:\n        /* \"contracts/revision/Assg_2.sol\":2448:2452  true */\n      0x01\n        /* \"contracts/revision/Assg_2.sol\":2411:2458  substituteAdresses[i]== msg.sender ? true:false */\n    tag_134:\n        /* \"contracts/revision/Assg_2.sol\":2342:2351  ownership */\n      0x02\n        /* \"contracts/revision/Assg_2.sol\":2342:2363  ownership[msg.sender] */\n      0x00\n        /* \"contracts/revision/Assg_2.sol\":2352:2362  msg.sender */\n      caller\n        /* \"contracts/revision/Assg_2.sol\":2342:2363  ownership[msg.sender] */\n      0xffffffffffffffffffffffffffffffffffffffff\n      and\n      0xffffffffffffffffffffffffffffffffffffffff\n      and\n      dup2\n      mstore\n      0x20\n      add\n      swap1\n      dup2\n      mstore\n      0x20\n      add\n      0x00\n      keccak256\n        /* \"contracts/revision/Assg_2.sol\":2342:2408  ownership[msg.sender][... */\n      0x00\n        /* \"contracts/revision/Assg_2.sol\":2377:2395  substituteAdresses */\n      0x03\n        /* \"contracts/revision/Assg_2.sol\":2396:2397  i */\n      dup5\n        /* \"contracts/revision/Assg_2.sol\":2377:2398  substituteAdresses[i] */\n      dup2\n      sload\n      dup2\n      lt\n      tag_135\n      jumpi\n      tag_136\n      tag_121\n      jump\t// in\n    tag_136:\n    tag_135:\n      swap1\n      0x00\n      mstore\n      keccak256(0x00, 0x20)\n      add\n      0x00\n      swap1\n      sload\n      swap1\n      0x0100\n      exp\n      swap1\n      div\n      0xffffffffffffffffffffffffffffffffffffffff\n      and\n        /* \"contracts/revision/Assg_2.sol\":2342:2408  ownership[msg.sender][... */\n      0xffffffffffffffffffffffffffffffffffffffff\n      and\n      0xffffffffffffffffffffffffffffffffffffffff\n      and\n      dup2\n      mstore\n      0x20\n      add\n      swap1\n      dup2\n      mstore\n      0x20\n      add\n      0x00\n      keccak256\n      0x00\n        /* \"contracts/revision/Assg_2.sol\":2342:2458  ownership[msg.sender][... */\n      0x0100\n      exp\n      dup2\n      sload\n      dup2\n      0xff\n      mul\n      not\n      and\n      swap1\n      dup4\n      iszero\n      iszero\n      mul\n      or\n      swap1\n      sstore\n      pop\n        /* \"contracts/revision/Assg_2.sol\":2328:2331  i++ */\n      dup1\n      dup1\n      tag_138\n      swap1\n      tag_124\n      jump\t// in\n    tag_138:\n      swap2\n      pop\n      pop\n        /* \"contracts/revision/Assg_2.sol\":2286:2470  for(uint i=0; i<substituteAdresses.length;i++){... */\n      jump(tag_127)\n    tag_128:\n      pop\n        /* \"contracts/revision/Assg_2.sol\":2241:2476  function resetOwnership() external {... */\n      jump\t// out\n        /* \"contracts/revision/Assg_2.sol\":2777:3106  function getCurntOwner() view external returns(address){... */\n    tag_40:\n        /* \"contracts/revision/Assg_2.sol\":2824:2831  address */\n      0x00\n        /* \"contracts/revision/Assg_2.sol\":2842:2860  address curntOwner */\n      dup1\n        /* \"contracts/revision/Assg_2.sol\":2874:2880  uint i */\n      0x00\n        /* \"contracts/revision/Assg_2.sol\":2870:3073  for(uint i=0; i<substituteAdresses.length;i++){... */\n    tag_140:\n        /* \"contracts/revision/Assg_2.sol\":2886:2904  substituteAdresses */\n      0x03\n        /* \"contracts/revision/Assg_2.sol\":2886:2911  substituteAdresses.length */\n      dup1\n      sload\n      swap1\n      pop\n        /* \"contracts/revision/Assg_2.sol\":2884:2885  i */\n      dup2\n        /* \"contracts/revision/Assg_2.sol\":2884:2911  i<substituteAdresses.length */\n      lt\n        /* \"contracts/revision/Assg_2.sol\":2870:3073  for(uint i=0; i<substituteAdresses.length;i++){... */\n      iszero\n      tag_141\n      jumpi\n        /* \"contracts/revision/Assg_2.sol\":2998:3002  true */\n      0x01\n        /* \"contracts/revision/Assg_2.sol\":2929:3002  ownership[msg.sender][... */\n      iszero\n      iszero\n        /* \"contracts/revision/Assg_2.sol\":2929:2938  ownership */\n      0x02\n        /* \"contracts/revision/Assg_2.sol\":2929:2950  ownership[msg.sender] */\n      0x00\n        /* \"contracts/revision/Assg_2.sol\":2939:2949  msg.sender */\n      caller\n        /* \"contracts/revision/Assg_2.sol\":2929:2950  ownership[msg.sender] */\n      0xffffffffffffffffffffffffffffffffffffffff\n      and\n      0xffffffffffffffffffffffffffffffffffffffff\n      and\n      dup2\n      mstore\n      0x20\n      add\n      swap1\n      dup2\n      mstore\n      0x20\n      add\n      0x00\n      keccak256\n        /* \"contracts/revision/Assg_2.sol\":2929:2995  ownership[msg.sender][... */\n      0x00\n        /* \"contracts/revision/Assg_2.sol\":2964:2982  substituteAdresses */\n      0x03\n        /* \"contracts/revision/Assg_2.sol\":2983:2984  i */\n      dup5\n        /* \"contracts/revision/Assg_2.sol\":2964:2985  substituteAdresses[i] */\n      dup2\n      sload\n      dup2\n      lt\n      tag_143\n      jumpi\n      tag_144\n      tag_121\n      jump\t// in\n    tag_144:\n    tag_143:\n      swap1\n      0x00\n      mstore\n      keccak256(0x00, 0x20)\n      add\n      0x00\n      swap1\n      sload\n      swap1\n      0x0100\n      exp\n      swap1\n      div\n      0xffffffffffffffffffffffffffffffffffffffff\n      and\n        /* \"contracts/revision/Assg_2.sol\":2929:2995  ownership[msg.sender][... */\n      0xffffffffffffffffffffffffffffffffffffffff\n      and\n      0xffffffffffffffffffffffffffffffffffffffff\n      and\n      dup2\n      mstore\n      0x20\n      add\n      swap1\n      dup2\n      mstore\n      0x20\n      add\n      0x00\n      keccak256\n      0x00\n      swap1\n      sload\n      swap1\n      0x0100\n      exp\n      swap1\n      div\n      0xff\n      and\n        /* \"contracts/revision/Assg_2.sol\":2929:3002  ownership[msg.sender][... */\n      iszero\n      iszero\n      sub\n        /* \"contracts/revision/Assg_2.sol\":2926:3062  if(ownership[msg.sender][... */\n      tag_146\n      jumpi\n        /* \"contracts/revision/Assg_2.sol\":3030:3048  substituteAdresses */\n      0x03\n        /* \"contracts/revision/Assg_2.sol\":3049:3050  i */\n      dup2\n        /* \"contracts/revision/Assg_2.sol\":3030:3051  substituteAdresses[i] */\n      dup2\n      sload\n      dup2\n      lt\n      tag_147\n      jumpi\n      tag_148\n      tag_121\n      jump\t// in\n    tag_148:\n    tag_147:\n      swap1\n      0x00\n      mstore\n      keccak256(0x00, 0x20)\n      add\n      0x00\n      swap1\n      sload\n      swap1\n      0x0100\n      exp\n      swap1\n      div\n      0xffffffffffffffffffffffffffffffffffffffff\n      and\n        /* \"contracts/revision/Assg_2.sol\":3017:3051  curntOwner = substituteAdresses[i] */\n      swap2\n      pop\n        /* \"contracts/revision/Assg_2.sol\":2926:3062  if(ownership[msg.sender][... */\n    tag_146:\n        /* \"contracts/revision/Assg_2.sol\":2912:2915  i++ */\n      dup1\n      dup1\n      tag_150\n      swap1\n      tag_124\n      jump\t// in\n    tag_150:\n      swap2\n      pop\n      pop\n        /* \"contracts/revision/Assg_2.sol\":2870:3073  for(uint i=0; i<substituteAdresses.length;i++){... */\n      jump(tag_140)\n    tag_141:\n      pop\n        /* \"contracts/revision/Assg_2.sol\":3089:3099  curntOwner */\n      dup1\n        /* \"contracts/revision/Assg_2.sol\":3082:3099  return curntOwner */\n      swap2\n      pop\n      pop\n        /* \"contracts/revision/Assg_2.sol\":2777:3106  function getCurntOwner() view external returns(address){... */\n      swap1\n      jump\t// out\n        /* \"contracts/revision/Assg_2.sol\":1609:1715  function get10Std() external view returns(Student[10] memory){... */\n    tag_44:\n        /* \"contracts/revision/Assg_2.sol\":1651:1669  Student[10] memory */\n      tag_151\n      tag_152\n      jump\t// in\n    tag_151:\n        /* \"contracts/revision/Assg_2.sol\":1687:1694  store10 */\n      0x00\n        /* \"contracts/revision/Assg_2.sol\":1687:1706  store10[\"students\"] */\n      mload(0x40)\n      tag_154\n      swap1\n      tag_155\n      jump\t// in\n    tag_154:\n      swap1\n      dup2\n      mstore\n      0x20\n      add\n      mload(0x40)\n      dup1\n      swap2\n      sub\n      swap1\n      keccak256\n        /* \"contracts/revision/Assg_2.sol\":1680:1706  return store10[\"students\"] */\n      0x0a\n      dup1\n      0x20\n      mul\n      mload(0x40)\n      swap1\n      dup2\n      add\n      0x40\n      mstore\n      dup1\n      swap3\n      swap2\n      swap1\n      0x00\n      swap1\n    tag_156:\n      dup3\n      dup3\n      lt\n      iszero\n      tag_157\n      jumpi\n      dup4\n      dup3\n      0x03\n      mul\n      add\n      mload(0x40)\n      dup1\n      0x60\n      add\n      0x40\n      mstore\n      swap1\n      dup2\n      0x00\n      dup3\n      add\n      dup1\n      sload\n      tag_159\n      swap1\n      tag_160\n      jump\t// in\n    tag_159:\n      dup1\n      0x1f\n      add\n      0x20\n      dup1\n      swap2\n      div\n      mul\n      0x20\n      add\n      mload(0x40)\n      swap1\n      dup2\n      add\n      0x40\n      mstore\n      dup1\n      swap3\n      swap2\n      swap1\n      dup2\n      dup2\n      mstore\n      0x20\n      add\n      dup3\n      dup1\n      sload\n      tag_161\n      swap1\n      tag_160\n      jump\t// in\n    tag_161:\n      dup1\n      iszero\n      tag_162\n      jumpi\n      dup1\n      0x1f\n      lt\n      tag_163\n      jumpi\n      0x0100\n      dup1\n      dup4\n      sload\n      div\n      mul\n      dup4\n      mstore\n      swap2\n      0x20\n      add\n      swap2\n      jump(tag_162)\n    tag_163:\n      dup3\n      add\n      swap2\n      swap1\n      0x00\n      mstore\n      keccak256(0x00, 0x20)\n      swap1\n    tag_164:\n      dup2\n      sload\n      dup2\n      mstore\n      swap1\n      0x01\n      add\n      swap1\n      0x20\n      add\n      dup1\n      dup4\n      gt\n      tag_164\n      jumpi\n      dup3\n      swap1\n      sub\n      0x1f\n      and\n      dup3\n      add\n      swap2\n    tag_162:\n      pop\n      pop\n      pop\n      pop\n      pop\n      dup2\n      mstore\n      0x20\n      add\n      0x01\n      dup3\n      add\n      sload\n      dup2\n      mstore\n      0x20\n      add\n      0x02\n      dup3\n      add\n      sload\n      dup2\n      mstore\n      pop\n      pop\n      dup2\n      mstore\n      0x20\n      add\n      swap1\n      0x01\n      add\n      swap1\n      jump(tag_156)\n    tag_157:\n      pop\n      pop\n      pop\n      pop\n      swap1\n      pop\n        /* \"contracts/revision/Assg_2.sol\":1609:1715  function get10Std() external view returns(Student[10] memory){... */\n      swap1\n      jump\t// out\n        /* \"contracts/revision/Assg_2.sol\":105:261  function concat2Strings(string calldata _str1, string calldata _str2) pure external returns(string memory){... */\n    tag_50:\n        /* \"contracts/revision/Assg_2.sol\":197:210  string memory */\n      0x60\n        /* \"contracts/revision/Assg_2.sol\":242:247  _str1 */\n      dup5\n      dup5\n        /* \"contracts/revision/Assg_2.sol\":248:253  _str2 */\n      dup5\n      dup5\n        /* \"contracts/revision/Assg_2.sol\":228:254  string.concat(_str1,_str2) */\n      add(0x20, mload(0x40))\n      tag_166\n      swap5\n      swap4\n      swap3\n      swap2\n      swap1\n      tag_167\n      jump\t// in\n    tag_166:\n      mload(0x40)\n      0x20\n      dup2\n      dup4\n      sub\n      sub\n      dup2\n      mstore\n      swap1\n      0x40\n      mstore\n        /* \"contracts/revision/Assg_2.sol\":221:254  return string.concat(_str1,_str2) */\n      swap1\n      pop\n        /* \"contracts/revision/Assg_2.sol\":105:261  function concat2Strings(string calldata _str1, string calldata _str2) pure external returns(string memory){... */\n      swap5\n      swap4\n      pop\n      pop\n      pop\n      pop\n      jump\t// out\n        /* \"contracts/revision/Assg_2.sol\":1169:1359  function newStudent(string memory _name, int roll, int age) pure external returns(Student memory){... */\n    tag_56:\n        /* \"contracts/revision/Assg_2.sol\":1251:1265  Student memory */\n      tag_168\n      tag_169\n      jump\t// in\n    tag_168:\n        /* \"contracts/revision/Assg_2.sol\":1276:1299  Student memory student1 */\n      0x00\n        /* \"contracts/revision/Assg_2.sol\":1302:1327  Student(_name, roll, age) */\n      mload(0x40)\n      dup1\n      0x60\n      add\n      0x40\n      mstore\n      dup1\n        /* \"contracts/revision/Assg_2.sol\":1310:1315  _name */\n      dup7\n        /* \"contracts/revision/Assg_2.sol\":1302:1327  Student(_name, roll, age) */\n      dup2\n      mstore\n      0x20\n      add\n        /* \"contracts/revision/Assg_2.sol\":1317:1321  roll */\n      dup6\n        /* \"contracts/revision/Assg_2.sol\":1302:1327  Student(_name, roll, age) */\n      dup2\n      mstore\n      0x20\n      add\n        /* \"contracts/revision/Assg_2.sol\":1323:1326  age */\n      dup5\n        /* \"contracts/revision/Assg_2.sol\":1302:1327  Student(_name, roll, age) */\n      dup2\n      mstore\n      pop\n        /* \"contracts/revision/Assg_2.sol\":1276:1327  Student memory student1 = Student(_name, roll, age) */\n      swap1\n      pop\n        /* \"contracts/revision/Assg_2.sol\":1344:1352  student1 */\n      dup1\n        /* \"contracts/revision/Assg_2.sol\":1337:1352  return student1 */\n      swap2\n      pop\n      pop\n        /* \"contracts/revision/Assg_2.sol\":1169:1359  function newStudent(string memory _name, int roll, int age) pure external returns(Student memory){... */\n      swap4\n      swap3\n      pop\n      pop\n      pop\n      jump\t// out\n        /* \"contracts/revision/Assg_2.sol\":1453:1603  function str10Std(string memory _name, int roll, int age, uint index) external {... */\n    tag_62:\n        /* \"contracts/revision/Assg_2.sol\":1571:1596  Student(_name, roll, age) */\n      mload(0x40)\n      dup1\n      0x60\n      add\n      0x40\n      mstore\n      dup1\n        /* \"contracts/revision/Assg_2.sol\":1579:1584  _name */\n      dup6\n        /* \"contracts/revision/Assg_2.sol\":1571:1596  Student(_name, roll, age) */\n      dup2\n      mstore\n      0x20\n      add\n        /* \"contracts/revision/Assg_2.sol\":1586:1590  roll */\n      dup5\n        /* \"contracts/revision/Assg_2.sol\":1571:1596  Student(_name, roll, age) */\n      dup2\n      mstore\n      0x20\n      add\n        /* \"contracts/revision/Assg_2.sol\":1592:1595  age */\n      dup4\n        /* \"contracts/revision/Assg_2.sol\":1571:1596  Student(_name, roll, age) */\n      dup2\n      mstore\n      pop\n        /* \"contracts/revision/Assg_2.sol\":1542:1549  store10 */\n      0x00\n        /* \"contracts/revision/Assg_2.sol\":1542:1561  store10[\"students\"] */\n      mload(0x40)\n      tag_172\n      swap1\n      tag_155\n      jump\t// in\n    tag_172:\n      swap1\n      dup2\n      mstore\n      0x20\n      add\n      mload(0x40)\n      dup1\n      swap2\n      sub\n      swap1\n      keccak256\n        /* \"contracts/revision/Assg_2.sol\":1562:1567  index */\n      dup3\n        /* \"contracts/revision/Assg_2.sol\":1542:1568  store10[\"students\"][index] */\n      0x0a\n      dup2\n      lt\n      tag_173\n      jumpi\n      tag_174\n      tag_121\n      jump\t// in\n    tag_174:\n    tag_173:\n      0x03\n      mul\n      add\n        /* \"contracts/revision/Assg_2.sol\":1542:1596  store10[\"students\"][index] = Student(_name, roll, age) */\n      0x00\n      dup3\n      add\n      mload\n      dup2\n      0x00\n      add\n      swap1\n      dup2\n      tag_176\n      swap2\n      swap1\n      tag_177\n      jump\t// in\n    tag_176:\n      pop\n      0x20\n      dup3\n      add\n      mload\n      dup2\n      0x01\n      add\n      sstore\n      0x40\n      dup3\n      add\n      mload\n      dup2\n      0x02\n      add\n      sstore\n      swap1\n      pop\n      pop\n        /* \"contracts/revision/Assg_2.sol\":1453:1603  function str10Std(string memory _name, int roll, int age, uint index) external {... */\n      pop\n      pop\n      pop\n      pop\n      jump\t// out\n        /* \"contracts/revision/Assg_2.sol\":3171:3284  function pushStrArr() external {... */\n    tag_64:\n        /* \"contracts/revision/Assg_2.sol\":3227:3234  _strArr */\n      0x04\n        /* \"contracts/revision/Assg_2.sol\":3227:3248  _strArr.push(\"apple\") */\n      dup1\n      0x01\n      dup2\n      sload\n      add\n      dup1\n      dup3\n      sstore\n      dup1\n      swap2\n      pop\n      pop\n      0x01\n      swap1\n      sub\n      swap1\n      0x00\n      mstore\n      keccak256(0x00, 0x20)\n      add\n      0x00\n      mload(0x40)\n      dup1\n      0x40\n      add\n      0x40\n      mstore\n      dup1\n      0x05\n      dup2\n      mstore\n      0x20\n      add\n      0x6170706c65000000000000000000000000000000000000000000000000000000\n      dup2\n      mstore\n      pop\n      swap1\n      swap2\n      swap1\n      swap2\n      pop\n      swap1\n      dup2\n      tag_180\n      swap2\n      swap1\n      tag_177\n      jump\t// in\n    tag_180:\n      pop\n        /* \"contracts/revision/Assg_2.sol\":3171:3284  function pushStrArr() external {... */\n      jump\t// out\n        /* \"contracts/revision/Assg_2.sol\":3450:3472  HOUSE public houseSize */\n    tag_66:\n      0x05\n      0x00\n      swap1\n      sload\n      swap1\n      0x0100\n      exp\n      swap1\n      div\n      0xff\n      and\n      dup2\n      jump\t// out\n        /* \"contracts/revision/Assg_2.sol\":3142:3165  string[] public _strArr */\n    tag_72:\n      0x04\n      dup2\n      dup2\n      sload\n      dup2\n      lt\n      tag_181\n      jumpi\n      0x00\n      dup1\n      revert\n    tag_181:\n      swap1\n      0x00\n      mstore\n      keccak256(0x00, 0x20)\n      add\n      0x00\n      swap2\n      pop\n      swap1\n      pop\n      dup1\n      sload\n      tag_183\n      swap1\n      tag_160\n      jump\t// in\n    tag_183:\n      dup1\n      0x1f\n      add\n      0x20\n      dup1\n      swap2\n      div\n      mul\n      0x20\n      add\n      mload(0x40)\n      swap1\n      dup2\n      add\n      0x40\n      mstore\n      dup1\n      swap3\n      swap2\n      swap1\n      dup2\n      dup2\n      mstore\n      0x20\n      add\n      dup3\n      dup1\n      sload\n      tag_184\n      swap1\n      tag_160\n      jump\t// in\n    tag_184:\n      dup1\n      iszero\n      tag_185\n      jumpi\n      dup1\n      0x1f\n      lt\n      tag_186\n      jumpi\n      0x0100\n      dup1\n      dup4\n      sload\n      div\n      mul\n      dup4\n      mstore\n      swap2\n      0x20\n      add\n      swap2\n      jump(tag_185)\n    tag_186:\n      dup3\n      add\n      swap2\n      swap1\n      0x00\n      mstore\n      keccak256(0x00, 0x20)\n      swap1\n    tag_187:\n      dup2\n      sload\n      dup2\n      mstore\n      swap1\n      0x01\n      add\n      swap1\n      0x20\n      add\n      dup1\n      dup4\n      gt\n      tag_187\n      jumpi\n      dup3\n      swap1\n      sub\n      0x1f\n      and\n      dup3\n      add\n      swap2\n    tag_185:\n      pop\n      pop\n      pop\n      pop\n      pop\n      dup2\n      jump\t// out\n        /* \"contracts/revision/Assg_2.sol\":3558:3834  function myHouse() view external returns(HOUSE){... */\n    tag_75:\n        /* \"contracts/revision/Assg_2.sol\":3599:3604  HOUSE */\n      0x00\n        /* \"contracts/revision/Assg_2.sol\":3641:3652  HOUSE.SMALL */\n      dup1\n        /* \"contracts/revision/Assg_2.sol\":3628:3652  houseSize == HOUSE.SMALL */\n      0x02\n      dup2\n      gt\n      iszero\n      tag_189\n      jumpi\n      tag_190\n      tag_191\n      jump\t// in\n    tag_190:\n    tag_189:\n        /* \"contracts/revision/Assg_2.sol\":3628:3637  houseSize */\n      0x05\n      0x00\n      swap1\n      sload\n      swap1\n      0x0100\n      exp\n      swap1\n      div\n      0xff\n      and\n        /* \"contracts/revision/Assg_2.sol\":3628:3652  houseSize == HOUSE.SMALL */\n      0x02\n      dup2\n      gt\n      iszero\n      tag_192\n      jumpi\n      tag_193\n      tag_191\n      jump\t// in\n    tag_193:\n    tag_192:\n      sub\n        /* \"contracts/revision/Assg_2.sol\":3624:3697  if (houseSize == HOUSE.SMALL) {... */\n      tag_194\n      jumpi\n        /* \"contracts/revision/Assg_2.sol\":3675:3686  HOUSE.SMALL */\n      0x00\n        /* \"contracts/revision/Assg_2.sol\":3668:3686  return HOUSE.SMALL */\n      swap1\n      pop\n      jump(tag_188)\n        /* \"contracts/revision/Assg_2.sol\":3624:3697  if (houseSize == HOUSE.SMALL) {... */\n    tag_194:\n        /* \"contracts/revision/Assg_2.sol\":3723:3734  HOUSE.LARGE */\n      0x02\n        /* \"contracts/revision/Assg_2.sol\":3710:3734  houseSize == HOUSE.LARGE */\n      dup1\n      dup2\n      gt\n      iszero\n      tag_195\n      jumpi\n      tag_196\n      tag_191\n      jump\t// in\n    tag_196:\n    tag_195:\n        /* \"contracts/revision/Assg_2.sol\":3710:3719  houseSize */\n      0x05\n      0x00\n      swap1\n      sload\n      swap1\n      0x0100\n      exp\n      swap1\n      div\n      0xff\n      and\n        /* \"contracts/revision/Assg_2.sol\":3710:3734  houseSize == HOUSE.LARGE */\n      0x02\n      dup2\n      gt\n      iszero\n      tag_197\n      jumpi\n      tag_198\n      tag_191\n      jump\t// in\n    tag_198:\n    tag_197:\n      sub\n        /* \"contracts/revision/Assg_2.sol\":3706:3828  if (houseSize == HOUSE.LARGE) {... */\n      tag_199\n      jumpi\n        /* \"contracts/revision/Assg_2.sol\":3757:3768  HOUSE.LARGE */\n      0x02\n        /* \"contracts/revision/Assg_2.sol\":3750:3768  return HOUSE.LARGE */\n      swap1\n      pop\n      jump(tag_188)\n        /* \"contracts/revision/Assg_2.sol\":3706:3828  if (houseSize == HOUSE.LARGE) {... */\n    tag_199:\n        /* \"contracts/revision/Assg_2.sol\":3806:3817  HOUSE.LARGE */\n      0x02\n        /* \"contracts/revision/Assg_2.sol\":3799:3817  return HOUSE.LARGE */\n      swap1\n      pop\n        /* \"contracts/revision/Assg_2.sol\":3558:3834  function myHouse() view external returns(HOUSE){... */\n    tag_188:\n      swap1\n      jump\t// out\n        /* \"contracts/revision/Assg_2.sol\":1930:2027  function getMark() view external returns(uint[3] memory){... */\n    tag_78:\n        /* \"contracts/revision/Assg_2.sol\":1971:1985  uint[3] memory */\n      tag_201\n      tag_202\n      jump\t// in\n    tag_201:\n        /* \"contracts/revision/Assg_2.sol\":2003:2008  marks */\n      0x01\n        /* \"contracts/revision/Assg_2.sol\":2003:2020  marks[msg.sender] */\n      0x00\n        /* \"contracts/revision/Assg_2.sol\":2009:2019  msg.sender */\n      caller\n        /* \"contracts/revision/Assg_2.sol\":2003:2020  marks[msg.sender] */\n      0xffffffffffffffffffffffffffffffffffffffff\n      and\n      0xffffffffffffffffffffffffffffffffffffffff\n      and\n      dup2\n      mstore\n      0x20\n      add\n      swap1\n      dup2\n      mstore\n      0x20\n      add\n      0x00\n      keccak256\n        /* \"contracts/revision/Assg_2.sol\":1996:2020  return marks[msg.sender] */\n      0x03\n      dup1\n      0x20\n      mul\n      mload(0x40)\n      swap1\n      dup2\n      add\n      0x40\n      mstore\n      dup1\n      swap3\n      swap2\n      swap1\n      dup3\n      0x03\n      dup1\n      iszero\n      tag_204\n      jumpi\n      0x20\n      mul\n      dup3\n      add\n      swap2\n    tag_205:\n      dup2\n      sload\n      dup2\n      mstore\n      0x20\n      add\n      swap1\n      0x01\n      add\n      swap1\n      dup1\n      dup4\n      gt\n      tag_205\n      jumpi\n    tag_204:\n      pop\n      pop\n      pop\n      pop\n      pop\n      swap1\n      pop\n        /* \"contracts/revision/Assg_2.sol\":1930:2027  function getMark() view external returns(uint[3] memory){... */\n      swap1\n      jump\t// out\n        /* \"contracts/revision/Assg_2.sol\":2043:2101  mapping(address=>mapping(address=> bool)) public ownership */\n    tag_84:\n      mstore(0x20, 0x02)\n      dup2\n      0x00\n      mstore\n      mstore(0x20, keccak256(0x00, 0x40))\n      dup1\n      0x00\n      mstore\n      keccak256(0x00, 0x40)\n      0x00\n      swap2\n      pop\n      swap2\n      pop\n      swap1\n      sload\n      swap1\n      0x0100\n      exp\n      swap1\n      div\n      0xff\n      and\n      dup2\n      jump\t// out\n        /* \"contracts/revision/Assg_2.sol\":1799:1925  function setMark(uint Math, uint English, uint History) external {... */\n    tag_89:\n        /* \"contracts/revision/Assg_2.sol\":1874:1918  marks[msg.sender] = [Math, English, History] */\n      mload(0x40)\n      dup1\n      0x60\n      add\n      0x40\n      mstore\n      dup1\n        /* \"contracts/revision/Assg_2.sol\":1895:1899  Math */\n      dup5\n        /* \"contracts/revision/Assg_2.sol\":1874:1918  marks[msg.sender] = [Math, English, History] */\n      dup2\n      mstore\n      0x20\n      add\n        /* \"contracts/revision/Assg_2.sol\":1901:1908  English */\n      dup4\n        /* \"contracts/revision/Assg_2.sol\":1874:1918  marks[msg.sender] = [Math, English, History] */\n      dup2\n      mstore\n      0x20\n      add\n        /* \"contracts/revision/Assg_2.sol\":1910:1917  History */\n      dup3\n        /* \"contracts/revision/Assg_2.sol\":1874:1918  marks[msg.sender] = [Math, English, History] */\n      dup2\n      mstore\n      pop\n        /* \"contracts/revision/Assg_2.sol\":1874:1879  marks */\n      0x01\n        /* \"contracts/revision/Assg_2.sol\":1874:1891  marks[msg.sender] */\n      0x00\n        /* \"contracts/revision/Assg_2.sol\":1880:1890  msg.sender */\n      caller\n        /* \"contracts/revision/Assg_2.sol\":1874:1891  marks[msg.sender] */\n      0xffffffffffffffffffffffffffffffffffffffff\n      and\n      0xffffffffffffffffffffffffffffffffffffffff\n      and\n      dup2\n      mstore\n      0x20\n      add\n      swap1\n      dup2\n      mstore\n      0x20\n      add\n      0x00\n      keccak256\n        /* \"contracts/revision/Assg_2.sol\":1874:1918  marks[msg.sender] = [Math, English, History] */\n      swap1\n      0x03\n      tag_207\n      swap3\n      swap2\n      swap1\n      tag_208\n      jump\t// in\n    tag_207:\n      pop\n        /* \"contracts/revision/Assg_2.sol\":1799:1925  function setMark(uint Math, uint English, uint History) external {... */\n      pop\n      pop\n      pop\n      jump\t// out\n        /* \"contracts/revision/Assg_2.sol\":3289:3392  function popStrArr() external {... */\n    tag_91:\n        /* \"contracts/revision/Assg_2.sol\":3343:3350  _strArr */\n      0x04\n        /* \"contracts/revision/Assg_2.sol\":3343:3356  _strArr.pop() */\n      dup1\n      sload\n      dup1\n      tag_210\n      jumpi\n      tag_211\n      tag_212\n      jump\t// in\n    tag_211:\n    tag_210:\n      0x01\n      swap1\n      sub\n      dup2\n      dup2\n      swap1\n      0x00\n      mstore\n      keccak256(0x00, 0x20)\n      add\n      0x00\n      tag_214\n      swap2\n      swap1\n      tag_215\n      jump\t// in\n    tag_214:\n      swap1\n      sstore\n        /* \"contracts/revision/Assg_2.sol\":3289:3392  function popStrArr() external {... */\n      jump\t// out\n        /* \"contracts/revision/Assg_2.sol\":1402:1447  mapping(string => Student[10]) public store10 */\n    tag_95:\n      0x00\n      dup3\n      dup1\n      mload\n      0x20\n      dup2\n      add\n      dup3\n      add\n      dup1\n      mload\n      dup5\n      dup3\n      mstore\n      0x20\n      dup4\n      add\n      0x20\n      dup6\n      add\n      keccak256\n      dup2\n      dup4\n      mstore\n      dup1\n      swap6\n      pop\n      pop\n      pop\n      pop\n      pop\n      pop\n      dup2\n      0x0a\n      dup2\n      lt\n      tag_216\n      jumpi\n      0x00\n      dup1\n      revert\n    tag_216:\n      0x03\n      mul\n      add\n      0x00\n      swap2\n      pop\n      swap2\n      pop\n      pop\n      dup1\n      0x00\n      add\n      dup1\n      sload\n      tag_218\n      swap1\n      tag_160\n      jump\t// in\n    tag_218:\n      dup1\n      0x1f\n      add\n      0x20\n      dup1\n      swap2\n      div\n      mul\n      0x20\n      add\n      mload(0x40)\n      swap1\n      dup2\n      add\n      0x40\n      mstore\n      dup1\n      swap3\n      swap2\n      swap1\n      dup2\n      dup2\n      mstore\n      0x20\n      add\n      dup3\n      dup1\n      sload\n      tag_219\n      swap1\n      tag_160\n      jump\t// in\n    tag_219:\n      dup1\n      iszero\n      tag_220\n      jumpi\n      dup1\n      0x1f\n      lt\n      tag_221\n      jumpi\n      0x0100\n      dup1\n      dup4\n      sload\n      div\n      mul\n      dup4\n      mstore\n      swap2\n      0x20\n      add\n      swap2\n      jump(tag_220)\n    tag_221:\n      dup3\n      add\n      swap2\n      swap1\n      0x00\n      mstore\n      keccak256(0x00, 0x20)\n      swap1\n    tag_222:\n      dup2\n      sload\n      dup2\n      mstore\n      swap1\n      0x01\n      add\n      swap1\n      0x20\n      add\n      dup1\n      dup4\n      gt\n      tag_222\n      jumpi\n      dup3\n      swap1\n      sub\n      0x1f\n      and\n      dup3\n      add\n      swap2\n    tag_220:\n      pop\n      pop\n      pop\n      pop\n      pop\n      swap1\n      dup1\n      0x01\n      add\n      sload\n      swap1\n      dup1\n      0x02\n      add\n      sload\n      swap1\n      pop\n      dup4\n      jump\t// out\n        /* \"contracts/revision/Assg_2.sol\":806:1065  function largestInArr(uint[] memory _arr) pure external returns(uint){... */\n    tag_101:\n        /* \"contracts/revision/Assg_2.sol\":870:874  uint */\n      0x00\n        /* \"contracts/revision/Assg_2.sol\":885:893  uint res */\n      dup1\n        /* \"contracts/revision/Assg_2.sol\":896:900  _arr */\n      dup3\n        /* \"contracts/revision/Assg_2.sol\":901:902  0 */\n      0x00\n        /* \"contracts/revision/Assg_2.sol\":896:903  _arr[0] */\n      dup2\n      mload\n      dup2\n      lt\n      tag_224\n      jumpi\n      tag_225\n      tag_121\n      jump\t// in\n    tag_225:\n    tag_224:\n      0x20\n      mul\n      0x20\n      add\n      add\n      mload\n        /* \"contracts/revision/Assg_2.sol\":885:903  uint res = _arr[0] */\n      swap1\n      pop\n        /* \"contracts/revision/Assg_2.sol\":917:923  uint i */\n      0x00\n        /* \"contracts/revision/Assg_2.sol\":925:926  1 */\n      0x01\n        /* \"contracts/revision/Assg_2.sol\":917:926  uint i =1 */\n      swap1\n      pop\n        /* \"contracts/revision/Assg_2.sol\":913:1039  for(uint i =1; i<_arr.length;i++){... */\n    tag_226:\n        /* \"contracts/revision/Assg_2.sol\":930:934  _arr */\n      dup4\n        /* \"contracts/revision/Assg_2.sol\":930:941  _arr.length */\n      mload\n        /* \"contracts/revision/Assg_2.sol\":928:929  i */\n      dup2\n        /* \"contracts/revision/Assg_2.sol\":928:941  i<_arr.length */\n      lt\n        /* \"contracts/revision/Assg_2.sol\":913:1039  for(uint i =1; i<_arr.length;i++){... */\n      iszero\n      tag_227\n      jumpi\n        /* \"contracts/revision/Assg_2.sol\":973:977  _arr */\n      dup4\n        /* \"contracts/revision/Assg_2.sol\":980:981  1 */\n      0x01\n        /* \"contracts/revision/Assg_2.sol\":978:979  i */\n      dup3\n        /* \"contracts/revision/Assg_2.sol\":978:981  i-1 */\n      tag_229\n      swap2\n      swap1\n      tag_230\n      jump\t// in\n    tag_229:\n        /* \"contracts/revision/Assg_2.sol\":973:982  _arr[i-1] */\n      dup2\n      mload\n      dup2\n      lt\n      tag_231\n      jumpi\n      tag_232\n      tag_121\n      jump\t// in\n    tag_232:\n    tag_231:\n      0x20\n      mul\n      0x20\n      add\n      add\n      mload\n        /* \"contracts/revision/Assg_2.sol\":963:967  _arr */\n      dup5\n        /* \"contracts/revision/Assg_2.sol\":968:969  i */\n      dup3\n        /* \"contracts/revision/Assg_2.sol\":963:970  _arr[i] */\n      dup2\n      mload\n      dup2\n      lt\n      tag_233\n      jumpi\n      tag_234\n      tag_121\n      jump\t// in\n    tag_234:\n    tag_233:\n      0x20\n      mul\n      0x20\n      add\n      add\n      mload\n        /* \"contracts/revision/Assg_2.sol\":963:982  _arr[i] > _arr[i-1] */\n      gt\n        /* \"contracts/revision/Assg_2.sol\":960:1029  if(_arr[i] > _arr[i-1]){... */\n      iszero\n      tag_235\n      jumpi\n        /* \"contracts/revision/Assg_2.sol\":1007:1011  _arr */\n      dup4\n        /* \"contracts/revision/Assg_2.sol\":1012:1013  i */\n      dup2\n        /* \"contracts/revision/Assg_2.sol\":1007:1014  _arr[i] */\n      dup2\n      mload\n      dup2\n      lt\n      tag_236\n      jumpi\n      tag_237\n      tag_121\n      jump\t// in\n    tag_237:\n    tag_236:\n      0x20\n      mul\n      0x20\n      add\n      add\n      mload\n        /* \"contracts/revision/Assg_2.sol\":1001:1014  res = _arr[i] */\n      swap2\n      pop\n        /* \"contracts/revision/Assg_2.sol\":960:1029  if(_arr[i] > _arr[i-1]){... */\n    tag_235:\n        /* \"contracts/revision/Assg_2.sol\":942:945  i++ */\n      dup1\n      dup1\n      tag_238\n      swap1\n      tag_124\n      jump\t// in\n    tag_238:\n      swap2\n      pop\n      pop\n        /* \"contracts/revision/Assg_2.sol\":913:1039  for(uint i =1; i<_arr.length;i++){... */\n      jump(tag_226)\n    tag_227:\n      pop\n        /* \"contracts/revision/Assg_2.sol\":1055:1058  res */\n      dup1\n        /* \"contracts/revision/Assg_2.sol\":1048:1058  return res */\n      swap2\n      pop\n      pop\n        /* \"contracts/revision/Assg_2.sol\":806:1065  function largestInArr(uint[] memory _arr) pure external returns(uint){... */\n      swap2\n      swap1\n      pop\n      jump\t// out\n        /* \"contracts/revision/Assg_2.sol\":3479:3552  function setHouseSize(HOUSE val) external{... */\n    tag_106:\n        /* \"contracts/revision/Assg_2.sol\":3542:3545  val */\n      dup1\n        /* \"contracts/revision/Assg_2.sol\":3530:3539  houseSize */\n      0x05\n      0x00\n        /* \"contracts/revision/Assg_2.sol\":3530:3545  houseSize = val */\n      0x0100\n      exp\n      dup2\n      sload\n      dup2\n      0xff\n      mul\n      not\n      and\n      swap1\n      dup4\n      0x02\n      dup2\n      gt\n      iszero\n      tag_240\n      jumpi\n      tag_241\n      tag_191\n      jump\t// in\n    tag_241:\n    tag_240:\n      mul\n      or\n      swap1\n      sstore\n      pop\n        /* \"contracts/revision/Assg_2.sol\":3479:3552  function setHouseSize(HOUSE val) external{... */\n      pop\n      jump\t// out\n        /* \"contracts/revision/Assg_2.sol\":2482:2771  function transferownership(address newAdr)  external{... */\n    tag_110:\n        /* \"contracts/revision/Assg_2.sol\":2544:2562  substituteAdresses */\n      0x03\n        /* \"contracts/revision/Assg_2.sol\":2568:2574  newAdr */\n      dup2\n        /* \"contracts/revision/Assg_2.sol\":2544:2575  substituteAdresses.push(newAdr) */\n      swap1\n      dup1\n      0x01\n      dup2\n      sload\n      add\n      dup1\n      dup3\n      sstore\n      dup1\n      swap2\n      pop\n      pop\n      0x01\n      swap1\n      sub\n      swap1\n      0x00\n      mstore\n      keccak256(0x00, 0x20)\n      add\n      0x00\n      swap1\n      swap2\n      swap1\n      swap2\n      swap1\n      swap2\n      0x0100\n      exp\n      dup2\n      sload\n      dup2\n      0xffffffffffffffffffffffffffffffffffffffff\n      mul\n      not\n      and\n      swap1\n      dup4\n      0xffffffffffffffffffffffffffffffffffffffff\n      and\n      mul\n      or\n      swap1\n      sstore\n      pop\n        /* \"contracts/revision/Assg_2.sol\":2589:2595  uint i */\n      0x00\n        /* \"contracts/revision/Assg_2.sol\":2585:2765  for(uint i=0; i<substituteAdresses.length;i++){... */\n    tag_244:\n        /* \"contracts/revision/Assg_2.sol\":2601:2619  substituteAdresses */\n      0x03\n        /* \"contracts/revision/Assg_2.sol\":2601:2626  substituteAdresses.length */\n      dup1\n      sload\n      swap1\n      pop\n        /* \"contracts/revision/Assg_2.sol\":2599:2600  i */\n      dup2\n        /* \"contracts/revision/Assg_2.sol\":2599:2626  i<substituteAdresses.length */\n      lt\n        /* \"contracts/revision/Assg_2.sol\":2585:2765  for(uint i=0; i<substituteAdresses.length;i++){... */\n      iszero\n      tag_245\n      jumpi\n        /* \"contracts/revision/Assg_2.sol\":2734:2740  newAdr */\n      dup2\n        /* \"contracts/revision/Assg_2.sol\":2710:2740  substituteAdresses[i]== newAdr */\n      0xffffffffffffffffffffffffffffffffffffffff\n      and\n        /* \"contracts/revision/Assg_2.sol\":2710:2728  substituteAdresses */\n      0x03\n        /* \"contracts/revision/Assg_2.sol\":2729:2730  i */\n      dup3\n        /* \"contracts/revision/Assg_2.sol\":2710:2731  substituteAdresses[i] */\n      dup2\n      sload\n      dup2\n      lt\n      tag_247\n      jumpi\n      tag_248\n      tag_121\n      jump\t// in\n    tag_248:\n    tag_247:\n      swap1\n      0x00\n      mstore\n      keccak256(0x00, 0x20)\n      add\n      0x00\n      swap1\n      sload\n      swap1\n      0x0100\n      exp\n      swap1\n      div\n      0xffffffffffffffffffffffffffffffffffffffff\n      and\n        /* \"contracts/revision/Assg_2.sol\":2710:2740  substituteAdresses[i]== newAdr */\n      0xffffffffffffffffffffffffffffffffffffffff\n      and\n      eq\n        /* \"contracts/revision/Assg_2.sol\":2710:2753  substituteAdresses[i]== newAdr ? true:false */\n      tag_250\n      jumpi\n        /* \"contracts/revision/Assg_2.sol\":2748:2753  false */\n      0x00\n        /* \"contracts/revision/Assg_2.sol\":2710:2753  substituteAdresses[i]== newAdr ? true:false */\n      jump(tag_251)\n    tag_250:\n        /* \"contracts/revision/Assg_2.sol\":2743:2747  true */\n      0x01\n        /* \"contracts/revision/Assg_2.sol\":2710:2753  substituteAdresses[i]== newAdr ? true:false */\n    tag_251:\n        /* \"contracts/revision/Assg_2.sol\":2641:2650  ownership */\n      0x02\n        /* \"contracts/revision/Assg_2.sol\":2641:2662  ownership[msg.sender] */\n      0x00\n        /* \"contracts/revision/Assg_2.sol\":2651:2661  msg.sender */\n      caller\n        /* \"contracts/revision/Assg_2.sol\":2641:2662  ownership[msg.sender] */\n      0xffffffffffffffffffffffffffffffffffffffff\n      and\n      0xffffffffffffffffffffffffffffffffffffffff\n      and\n      dup2\n      mstore\n      0x20\n      add\n      swap1\n      dup2\n      mstore\n      0x20\n      add\n      0x00\n      keccak256\n        /* \"contracts/revision/Assg_2.sol\":2641:2707  ownership[msg.sender][... */\n      0x00\n        /* \"contracts/revision/Assg_2.sol\":2676:2694  substituteAdresses */\n      0x03\n        /* \"contracts/revision/Assg_2.sol\":2695:2696  i */\n      dup5\n        /* \"contracts/revision/Assg_2.sol\":2676:2697  substituteAdresses[i] */\n      dup2\n      sload\n      dup2\n      lt\n      tag_252\n      jumpi\n      tag_253\n      tag_121\n      jump\t// in\n    tag_253:\n    tag_252:\n      swap1\n      0x00\n      mstore\n      keccak256(0x00, 0x20)\n      add\n      0x00\n      swap1\n      sload\n      swap1\n      0x0100\n      exp\n      swap1\n      div\n      0xffffffffffffffffffffffffffffffffffffffff\n      and\n        /* \"contracts/revision/Assg_2.sol\":2641:2707  ownership[msg.sender][... */\n      0xffffffffffffffffffffffffffffffffffffffff\n      and\n      0xffffffffffffffffffffffffffffffffffffffff\n      and\n      dup2\n      mstore\n      0x20\n      add\n      swap1\n      dup2\n      mstore\n      0x20\n      add\n      0x00\n      keccak256\n      0x00\n        /* \"contracts/revision/Assg_2.sol\":2641:2753  ownership[msg.sender][... */\n      0x0100\n      exp\n      dup2\n      sload\n      dup2\n      0xff\n      mul\n      not\n      and\n      swap1\n      dup4\n      iszero\n      iszero\n      mul\n      or\n      swap1\n      sstore\n      pop\n        /* \"contracts/revision/Assg_2.sol\":2627:2630  i++ */\n      dup1\n      dup1\n      tag_255\n      swap1\n      tag_124\n      jump\t// in\n    tag_255:\n      swap2\n      pop\n      pop\n        /* \"contracts/revision/Assg_2.sol\":2585:2765  for(uint i=0; i<substituteAdresses.length;i++){... */\n      jump(tag_244)\n    tag_245:\n      pop\n        /* \"contracts/revision/Assg_2.sol\":2482:2771  function transferownership(address newAdr)  external{... */\n      pop\n      jump\t// out\n        /* \"contracts/revision/Assg_2.sol\":293:487  function compare2Strings(string calldata _str1, string calldata _str2) pure external returns(bool){... */\n    tag_113:\n        /* \"contracts/revision/Assg_2.sol\":386:390  bool */\n      0x00\n        /* \"contracts/revision/Assg_2.sol\":473:478  _str2 */\n      dup3\n      dup3\n        /* \"contracts/revision/Assg_2.sol\":456:479  abi.encodePacked(_str2) */\n      add(0x20, mload(0x40))\n      tag_257\n      swap3\n      swap2\n      swap1\n      tag_258\n      jump\t// in\n    tag_257:\n      mload(0x40)\n      0x20\n      dup2\n      dup4\n      sub\n      sub\n      dup2\n      mstore\n      swap1\n      0x40\n      mstore\n        /* \"contracts/revision/Assg_2.sol\":446:480  keccak256(abi.encodePacked(_str2)) */\n      dup1\n      mload\n      swap1\n      0x20\n      add\n      keccak256\n        /* \"contracts/revision/Assg_2.sol\":435:440  _str1 */\n      dup6\n      dup6\n        /* \"contracts/revision/Assg_2.sol\":418:441  abi.encodePacked(_str1) */\n      add(0x20, mload(0x40))\n      tag_259\n      swap3\n      swap2\n      swap1\n      tag_258\n      jump\t// in\n    tag_259:\n      mload(0x40)\n      0x20\n      dup2\n      dup4\n      sub\n      sub\n      dup2\n      mstore\n      swap1\n      0x40\n      mstore\n        /* \"contracts/revision/Assg_2.sol\":408:442  keccak256(abi.encodePacked(_str1)) */\n      dup1\n      mload\n      swap1\n      0x20\n      add\n      keccak256\n        /* \"contracts/revision/Assg_2.sol\":408:480  keccak256(abi.encodePacked(_str1)) == keccak256(abi.encodePacked(_str2)) */\n      eq\n        /* \"contracts/revision/Assg_2.sol\":401:480  return keccak256(abi.encodePacked(_str1)) == keccak256(abi.encodePacked(_str2)) */\n      swap1\n      pop\n        /* \"contracts/revision/Assg_2.sol\":293:487  function compare2Strings(string calldata _str1, string calldata _str2) pure external returns(bool){... */\n      swap5\n      swap4\n      pop\n      pop\n      pop\n      pop\n      jump\t// out\n    tag_152:\n      mload(0x40)\n      dup1\n      0x0140\n      add\n      0x40\n      mstore\n      dup1\n      0x0a\n      swap1\n    tag_260:\n      tag_261\n      tag_169\n      jump\t// in\n    tag_261:\n      dup2\n      mstore\n      0x20\n      add\n      swap1\n      0x01\n      swap1\n      sub\n      swap1\n      dup2\n      tag_260\n      jumpi\n      swap1\n      pop\n      pop\n      swap1\n      jump\t// out\n    tag_169:\n      mload(0x40)\n      dup1\n      0x60\n      add\n      0x40\n      mstore\n      dup1\n      0x60\n      dup2\n      mstore\n      0x20\n      add\n      0x00\n      dup2\n      mstore\n      0x20\n      add\n      0x00\n      dup2\n      mstore\n      pop\n      swap1\n      jump\t// out\n    tag_202:\n      mload(0x40)\n      dup1\n      0x60\n      add\n      0x40\n      mstore\n      dup1\n      0x03\n      swap1\n      0x20\n      dup3\n      mul\n      dup1\n      calldatasize\n      dup4\n      calldatacopy\n      dup1\n      dup3\n      add\n      swap2\n      pop\n      pop\n      swap1\n      pop\n      pop\n      swap1\n      jump\t// out\n    tag_208:\n      dup3\n      0x03\n      dup2\n      add\n      swap3\n      dup3\n      iszero\n      tag_262\n      jumpi\n      swap2\n      0x20\n      mul\n      dup3\n      add\n    tag_263:\n      dup3\n      dup2\n      gt\n      iszero\n      tag_264\n      jumpi\n      dup3\n      mload\n      dup3\n      sstore\n      swap2\n      0x20\n      add\n      swap2\n      swap1\n      0x01\n      add\n      swap1\n      jump(tag_263)\n    tag_264:\n    tag_262:\n      pop\n      swap1\n      pop\n      tag_265\n      swap2\n      swap1\n      tag_266\n      jump\t// in\n    tag_265:\n      pop\n      swap1\n      jump\t// out\n    tag_215:\n      pop\n      dup1\n      sload\n      tag_267\n      swap1\n      tag_160\n      jump\t// in\n    tag_267:\n      0x00\n      dup3\n      sstore\n      dup1\n      0x1f\n      lt\n      tag_269\n      jumpi\n      pop\n      jump(tag_268)\n    tag_269:\n      0x1f\n      add\n      0x20\n      swap1\n      div\n      swap1\n      0x00\n      mstore\n      keccak256(0x00, 0x20)\n      swap1\n      dup2\n      add\n      swap1\n      tag_270\n      swap2\n      swap1\n      tag_266\n      jump\t// in\n    tag_270:\n    tag_268:\n      pop\n      jump\t// out\n    tag_266:\n    tag_271:\n      dup1\n      dup3\n      gt\n      iszero\n      tag_272\n      jumpi\n      0x00\n      dup2\n      0x00\n      swap1\n      sstore\n      pop\n      0x01\n      add\n      jump(tag_271)\n    tag_272:\n      pop\n      swap1\n      jump\t// out\n        /* \"#utility.yul\":7:82   */\n    tag_273:\n        /* \"#utility.yul\":40:46   */\n      0x00\n        /* \"#utility.yul\":73:75   */\n      0x40\n        /* \"#utility.yul\":67:76   */\n      mload\n        /* \"#utility.yul\":57:76   */\n      swap1\n      pop\n        /* \"#utility.yul\":7:82   */\n      swap1\n      jump\t// out\n        /* \"#utility.yul\":88:205   */\n    tag_274:\n        /* \"#utility.yul\":197:198   */\n      0x00\n        /* \"#utility.yul\":194:195   */\n      dup1\n        /* \"#utility.yul\":187:199   */\n      revert\n        /* \"#utility.yul\":211:328   */\n    tag_275:\n        /* \"#utility.yul\":320:321   */\n      0x00\n        /* \"#utility.yul\":317:318   */\n      dup1\n        /* \"#utility.yul\":310:322   */\n      revert\n        /* \"#utility.yul\":334:410   */\n    tag_276:\n        /* \"#utility.yul\":370:377   */\n      0x00\n        /* \"#utility.yul\":399:404   */\n      dup2\n        /* \"#utility.yul\":388:404   */\n      swap1\n      pop\n        /* \"#utility.yul\":334:410   */\n      swap2\n      swap1\n      pop\n      jump\t// out\n        /* \"#utility.yul\":416:536   */\n    tag_277:\n        /* \"#utility.yul\":488:511   */\n      tag_365\n        /* \"#utility.yul\":505:510   */\n      dup2\n        /* \"#utility.yul\":488:511   */\n      tag_276\n      jump\t// in\n    tag_365:\n        /* \"#utility.yul\":481:486   */\n      dup2\n        /* \"#utility.yul\":478:512   */\n      eq\n        /* \"#utility.yul\":468:530   */\n      tag_366\n      jumpi\n        /* \"#utility.yul\":526:527   */\n      0x00\n        /* \"#utility.yul\":523:524   */\n      dup1\n        /* \"#utility.yul\":516:528   */\n      revert\n        /* \"#utility.yul\":468:530   */\n    tag_366:\n        /* \"#utility.yul\":416:536   */\n      pop\n      jump\t// out\n        /* \"#utility.yul\":542:679   */\n    tag_278:\n        /* \"#utility.yul\":587:592   */\n      0x00\n        /* \"#utility.yul\":625:631   */\n      dup2\n        /* \"#utility.yul\":612:632   */\n      calldataload\n        /* \"#utility.yul\":603:632   */\n      swap1\n      pop\n        /* \"#utility.yul\":641:673   */\n      tag_368\n        /* \"#utility.yul\":667:672   */\n      dup2\n        /* \"#utility.yul\":641:673   */\n      tag_277\n      jump\t// in\n    tag_368:\n        /* \"#utility.yul\":542:679   */\n      swap3\n      swap2\n      pop\n      pop\n      jump\t// out\n        /* \"#utility.yul\":685:802   */\n    tag_279:\n        /* \"#utility.yul\":794:795   */\n      0x00\n        /* \"#utility.yul\":791:792   */\n      dup1\n        /* \"#utility.yul\":784:796   */\n      revert\n        /* \"#utility.yul\":808:910   */\n    tag_280:\n        /* \"#utility.yul\":849:855   */\n      0x00\n        /* \"#utility.yul\":900:902   */\n      0x1f\n        /* \"#utility.yul\":896:903   */\n      not\n        /* \"#utility.yul\":891:893   */\n      0x1f\n        /* \"#utility.yul\":884:889   */\n      dup4\n        /* \"#utility.yul\":880:894   */\n      add\n        /* \"#utility.yul\":876:904   */\n      and\n        /* \"#utility.yul\":866:904   */\n      swap1\n      pop\n        /* \"#utility.yul\":808:910   */\n      swap2\n      swap1\n      pop\n      jump\t// out\n        /* \"#utility.yul\":916:1096   */\n    tag_281:\n        /* \"#utility.yul\":964:1041   */\n      0x4e487b7100000000000000000000000000000000000000000000000000000000\n        /* \"#utility.yul\":961:962   */\n      0x00\n        /* \"#utility.yul\":954:1042   */\n      mstore\n        /* \"#utility.yul\":1061:1065   */\n      0x41\n        /* \"#utility.yul\":1058:1059   */\n      0x04\n        /* \"#utility.yul\":1051:1066   */\n      mstore\n        /* \"#utility.yul\":1085:1089   */\n      0x24\n        /* \"#utility.yul\":1082:1083   */\n      0x00\n        /* \"#utility.yul\":1075:1090   */\n      revert\n        /* \"#utility.yul\":1102:1383   */\n    tag_282:\n        /* \"#utility.yul\":1185:1212   */\n      tag_373\n        /* \"#utility.yul\":1207:1211   */\n      dup3\n        /* \"#utility.yul\":1185:1212   */\n      tag_280\n      jump\t// in\n    tag_373:\n        /* \"#utility.yul\":1177:1183   */\n      dup2\n        /* \"#utility.yul\":1173:1213   */\n      add\n        /* \"#utility.yul\":1315:1321   */\n      dup2\n        /* \"#utility.yul\":1303:1313   */\n      dup2\n        /* \"#utility.yul\":1300:1322   */\n      lt\n        /* \"#utility.yul\":1279:1297   */\n      0xffffffffffffffff\n        /* \"#utility.yul\":1267:1277   */\n      dup3\n        /* \"#utility.yul\":1264:1298   */\n      gt\n        /* \"#utility.yul\":1261:1323   */\n      or\n        /* \"#utility.yul\":1258:1346   */\n      iszero\n      tag_374\n      jumpi\n        /* \"#utility.yul\":1326:1344   */\n      tag_375\n      tag_281\n      jump\t// in\n    tag_375:\n        /* \"#utility.yul\":1258:1346   */\n    tag_374:\n        /* \"#utility.yul\":1366:1376   */\n      dup1\n        /* \"#utility.yul\":1362:1364   */\n      0x40\n        /* \"#utility.yul\":1355:1377   */\n      mstore\n        /* \"#utility.yul\":1145:1383   */\n      pop\n        /* \"#utility.yul\":1102:1383   */\n      pop\n      pop\n      jump\t// out\n        /* \"#utility.yul\":1389:1518   */\n    tag_283:\n        /* \"#utility.yul\":1423:1429   */\n      0x00\n        /* \"#utility.yul\":1450:1470   */\n      tag_377\n      tag_273\n      jump\t// in\n    tag_377:\n        /* \"#utility.yul\":1440:1470   */\n      swap1\n      pop\n        /* \"#utility.yul\":1479:1512   */\n      tag_378\n        /* \"#utility.yul\":1507:1511   */\n      dup3\n        /* \"#utility.yul\":1499:1505   */\n      dup3\n        /* \"#utility.yul\":1479:1512   */\n      tag_282\n      jump\t// in\n    tag_378:\n        /* \"#utility.yul\":1389:1518   */\n      swap2\n      swap1\n      pop\n      jump\t// out\n        /* \"#utility.yul\":1524:1834   */\n    tag_284:\n        /* \"#utility.yul\":1600:1604   */\n      0x00\n        /* \"#utility.yul\":1690:1708   */\n      0xffffffffffffffff\n        /* \"#utility.yul\":1682:1688   */\n      dup3\n        /* \"#utility.yul\":1679:1709   */\n      gt\n        /* \"#utility.yul\":1676:1732   */\n      iszero\n      tag_380\n      jumpi\n        /* \"#utility.yul\":1712:1730   */\n      tag_381\n      tag_281\n      jump\t// in\n    tag_381:\n        /* \"#utility.yul\":1676:1732   */\n    tag_380:\n        /* \"#utility.yul\":1762:1766   */\n      0x20\n        /* \"#utility.yul\":1754:1760   */\n      dup3\n        /* \"#utility.yul\":1750:1767   */\n      mul\n        /* \"#utility.yul\":1742:1767   */\n      swap1\n      pop\n        /* \"#utility.yul\":1822:1826   */\n      0x20\n        /* \"#utility.yul\":1816:1820   */\n      dup2\n        /* \"#utility.yul\":1812:1827   */\n      add\n        /* \"#utility.yul\":1804:1827   */\n      swap1\n      pop\n        /* \"#utility.yul\":1524:1834   */\n      swap2\n      swap1\n      pop\n      jump\t// out\n        /* \"#utility.yul\":1840:1957   */\n    tag_285:\n        /* \"#utility.yul\":1949:1950   */\n      0x00\n        /* \"#utility.yul\":1946:1947   */\n      dup1\n        /* \"#utility.yul\":1939:1951   */\n      revert\n        /* \"#utility.yul\":1979:2686   */\n    tag_286:\n        /* \"#utility.yul\":2074:2079   */\n      0x00\n        /* \"#utility.yul\":2099:2179   */\n      tag_384\n        /* \"#utility.yul\":2115:2178   */\n      tag_385\n        /* \"#utility.yul\":2171:2177   */\n      dup5\n        /* \"#utility.yul\":2115:2178   */\n      tag_284\n      jump\t// in\n    tag_385:\n        /* \"#utility.yul\":2099:2179   */\n      tag_283\n      jump\t// in\n    tag_384:\n        /* \"#utility.yul\":2090:2179   */\n      swap1\n      pop\n        /* \"#utility.yul\":2199:2204   */\n      dup1\n        /* \"#utility.yul\":2228:2234   */\n      dup4\n        /* \"#utility.yul\":2221:2226   */\n      dup3\n        /* \"#utility.yul\":2214:2235   */\n      mstore\n        /* \"#utility.yul\":2262:2266   */\n      0x20\n        /* \"#utility.yul\":2255:2260   */\n      dup3\n        /* \"#utility.yul\":2251:2267   */\n      add\n        /* \"#utility.yul\":2244:2267   */\n      swap1\n      pop\n        /* \"#utility.yul\":2315:2319   */\n      0x20\n        /* \"#utility.yul\":2307:2313   */\n      dup5\n        /* \"#utility.yul\":2303:2320   */\n      mul\n        /* \"#utility.yul\":2295:2301   */\n      dup4\n        /* \"#utility.yul\":2291:2321   */\n      add\n        /* \"#utility.yul\":2344:2347   */\n      dup6\n        /* \"#utility.yul\":2336:2342   */\n      dup2\n        /* \"#utility.yul\":2333:2348   */\n      gt\n        /* \"#utility.yul\":2330:2452   */\n      iszero\n      tag_386\n      jumpi\n        /* \"#utility.yul\":2363:2442   */\n      tag_387\n      tag_285\n      jump\t// in\n    tag_387:\n        /* \"#utility.yul\":2330:2452   */\n    tag_386:\n        /* \"#utility.yul\":2478:2484   */\n      dup4\n        /* \"#utility.yul\":2461:2680   */\n    tag_388:\n        /* \"#utility.yul\":2495:2501   */\n      dup2\n        /* \"#utility.yul\":2490:2493   */\n      dup2\n        /* \"#utility.yul\":2487:2502   */\n      lt\n        /* \"#utility.yul\":2461:2680   */\n      iszero\n      tag_390\n      jumpi\n        /* \"#utility.yul\":2570:2573   */\n      dup1\n        /* \"#utility.yul\":2599:2635   */\n      tag_391\n        /* \"#utility.yul\":2631:2634   */\n      dup9\n        /* \"#utility.yul\":2619:2629   */\n      dup3\n        /* \"#utility.yul\":2599:2635   */\n      tag_278\n      jump\t// in\n    tag_391:\n        /* \"#utility.yul\":2594:2597   */\n      dup5\n        /* \"#utility.yul\":2587:2636   */\n      mstore\n        /* \"#utility.yul\":2665:2669   */\n      0x20\n        /* \"#utility.yul\":2660:2663   */\n      dup5\n        /* \"#utility.yul\":2656:2670   */\n      add\n        /* \"#utility.yul\":2649:2670   */\n      swap4\n      pop\n        /* \"#utility.yul\":2537:2680   */\n      pop\n        /* \"#utility.yul\":2521:2525   */\n      0x20\n        /* \"#utility.yul\":2516:2519   */\n      dup2\n        /* \"#utility.yul\":2512:2526   */\n      add\n        /* \"#utility.yul\":2505:2526   */\n      swap1\n      pop\n        /* \"#utility.yul\":2461:2680   */\n      jump(tag_388)\n    tag_390:\n        /* \"#utility.yul\":2465:2486   */\n      pop\n        /* \"#utility.yul\":2080:2686   */\n      pop\n      pop\n        /* \"#utility.yul\":1979:2686   */\n      swap4\n      swap3\n      pop\n      pop\n      pop\n      jump\t// out\n        /* \"#utility.yul\":2708:3076   */\n    tag_287:\n        /* \"#utility.yul\":2778:2783   */\n      0x00\n        /* \"#utility.yul\":2827:2830   */\n      dup3\n        /* \"#utility.yul\":2820:2824   */\n      0x1f\n        /* \"#utility.yul\":2812:2818   */\n      dup4\n        /* \"#utility.yul\":2808:2825   */\n      add\n        /* \"#utility.yul\":2804:2831   */\n      slt\n        /* \"#utility.yul\":2794:2916   */\n      tag_393\n      jumpi\n        /* \"#utility.yul\":2835:2914   */\n      tag_394\n      tag_279\n      jump\t// in\n    tag_394:\n        /* \"#utility.yul\":2794:2916   */\n    tag_393:\n        /* \"#utility.yul\":2952:2958   */\n      dup2\n        /* \"#utility.yul\":2939:2959   */\n      calldataload\n        /* \"#utility.yul\":2977:3070   */\n      tag_395\n        /* \"#utility.yul\":3066:3069   */\n      dup5\n        /* \"#utility.yul\":3058:3064   */\n      dup3\n        /* \"#utility.yul\":3051:3055   */\n      0x20\n        /* \"#utility.yul\":3043:3049   */\n      dup7\n        /* \"#utility.yul\":3039:3056   */\n      add\n        /* \"#utility.yul\":2977:3070   */\n      tag_286\n      jump\t// in\n    tag_395:\n        /* \"#utility.yul\":2968:3070   */\n      swap2\n      pop\n        /* \"#utility.yul\":2784:3076   */\n      pop\n        /* \"#utility.yul\":2708:3076   */\n      swap3\n      swap2\n      pop\n      pop\n      jump\t// out\n        /* \"#utility.yul\":3082:3762   */\n    tag_29:\n        /* \"#utility.yul\":3173:3179   */\n      0x00\n        /* \"#utility.yul\":3181:3187   */\n      dup1\n        /* \"#utility.yul\":3230:3232   */\n      0x40\n        /* \"#utility.yul\":3218:3227   */\n      dup4\n        /* \"#utility.yul\":3209:3216   */\n      dup6\n        /* \"#utility.yul\":3205:3228   */\n      sub\n        /* \"#utility.yul\":3201:3233   */\n      slt\n        /* \"#utility.yul\":3198:3317   */\n      iszero\n      tag_397\n      jumpi\n        /* \"#utility.yul\":3236:3315   */\n      tag_398\n      tag_274\n      jump\t// in\n    tag_398:\n        /* \"#utility.yul\":3198:3317   */\n    tag_397:\n        /* \"#utility.yul\":3356:3357   */\n      0x00\n        /* \"#utility.yul\":3381:3433   */\n      tag_399\n        /* \"#utility.yul\":3425:3432   */\n      dup6\n        /* \"#utility.yul\":3416:3422   */\n      dup3\n        /* \"#utility.yul\":3405:3414   */\n      dup7\n        /* \"#utility.yul\":3401:3423   */\n      add\n        /* \"#utility.yul\":3381:3433   */\n      tag_278\n      jump\t// in\n    tag_399:\n        /* \"#utility.yul\":3371:3433   */\n      swap3\n      pop\n        /* \"#utility.yul\":3327:3443   */\n      pop\n        /* \"#utility.yul\":3510:3512   */\n      0x20\n        /* \"#utility.yul\":3499:3508   */\n      dup4\n        /* \"#utility.yul\":3495:3513   */\n      add\n        /* \"#utility.yul\":3482:3514   */\n      calldataload\n        /* \"#utility.yul\":3541:3559   */\n      0xffffffffffffffff\n        /* \"#utility.yul\":3533:3539   */\n      dup2\n        /* \"#utility.yul\":3530:3560   */\n      gt\n        /* \"#utility.yul\":3527:3644   */\n      iszero\n      tag_400\n      jumpi\n        /* \"#utility.yul\":3563:3642   */\n      tag_401\n      tag_275\n      jump\t// in\n    tag_401:\n        /* \"#utility.yul\":3527:3644   */\n    tag_400:\n        /* \"#utility.yul\":3668:3745   */\n      tag_402\n        /* \"#utility.yul\":3737:3744   */\n      dup6\n        /* \"#utility.yul\":3728:3734   */\n      dup3\n        /* \"#utility.yul\":3717:3726   */\n      dup7\n        /* \"#utility.yul\":3713:3735   */\n      add\n        /* \"#utility.yul\":3668:3745   */\n      tag_287\n      jump\t// in\n    tag_402:\n        /* \"#utility.yul\":3658:3745   */\n      swap2\n      pop\n        /* \"#utility.yul\":3453:3755   */\n      pop\n        /* \"#utility.yul\":3082:3762   */\n      swap3\n      pop\n      swap3\n      swap1\n      pop\n      jump\t// out\n        /* \"#utility.yul\":3768:3858   */\n    tag_288:\n        /* \"#utility.yul\":3802:3809   */\n      0x00\n        /* \"#utility.yul\":3845:3850   */\n      dup2\n        /* \"#utility.yul\":3838:3851   */\n      iszero\n        /* \"#utility.yul\":3831:3852   */\n      iszero\n        /* \"#utility.yul\":3820:3852   */\n      swap1\n      pop\n        /* \"#utility.yul\":3768:3858   */\n      swap2\n      swap1\n      pop\n      jump\t// out\n        /* \"#utility.yul\":3864:3973   */\n    tag_289:\n        /* \"#utility.yul\":3945:3966   */\n      tag_405\n        /* \"#utility.yul\":3960:3965   */\n      dup2\n        /* \"#utility.yul\":3945:3966   */\n      tag_288\n      jump\t// in\n    tag_405:\n        /* \"#utility.yul\":3940:3943   */\n      dup3\n        /* \"#utility.yul\":3933:3967   */\n      mstore\n        /* \"#utility.yul\":3864:3973   */\n      pop\n      pop\n      jump\t// out\n        /* \"#utility.yul\":3979:4189   */\n    tag_32:\n        /* \"#utility.yul\":4066:4070   */\n      0x00\n        /* \"#utility.yul\":4104:4106   */\n      0x20\n        /* \"#utility.yul\":4093:4102   */\n      dup3\n        /* \"#utility.yul\":4089:4107   */\n      add\n        /* \"#utility.yul\":4081:4107   */\n      swap1\n      pop\n        /* \"#utility.yul\":4117:4182   */\n      tag_407\n        /* \"#utility.yul\":4179:4180   */\n      0x00\n        /* \"#utility.yul\":4168:4177   */\n      dup4\n        /* \"#utility.yul\":4164:4181   */\n      add\n        /* \"#utility.yul\":4155:4161   */\n      dup5\n        /* \"#utility.yul\":4117:4182   */\n      tag_289\n      jump\t// in\n    tag_407:\n        /* \"#utility.yul\":3979:4189   */\n      swap3\n      swap2\n      pop\n      pop\n      jump\t// out\n        /* \"#utility.yul\":4195:4272   */\n    tag_290:\n        /* \"#utility.yul\":4232:4239   */\n      0x00\n        /* \"#utility.yul\":4261:4266   */\n      dup2\n        /* \"#utility.yul\":4250:4266   */\n      swap1\n      pop\n        /* \"#utility.yul\":4195:4272   */\n      swap2\n      swap1\n      pop\n      jump\t// out\n        /* \"#utility.yul\":4278:4396   */\n    tag_291:\n        /* \"#utility.yul\":4365:4389   */\n      tag_410\n        /* \"#utility.yul\":4383:4388   */\n      dup2\n        /* \"#utility.yul\":4365:4389   */\n      tag_290\n      jump\t// in\n    tag_410:\n        /* \"#utility.yul\":4360:4363   */\n      dup3\n        /* \"#utility.yul\":4353:4390   */\n      mstore\n        /* \"#utility.yul\":4278:4396   */\n      pop\n      pop\n      jump\t// out\n        /* \"#utility.yul\":4402:4624   */\n    tag_36:\n        /* \"#utility.yul\":4495:4499   */\n      0x00\n        /* \"#utility.yul\":4533:4535   */\n      0x20\n        /* \"#utility.yul\":4522:4531   */\n      dup3\n        /* \"#utility.yul\":4518:4536   */\n      add\n        /* \"#utility.yul\":4510:4536   */\n      swap1\n      pop\n        /* \"#utility.yul\":4546:4617   */\n      tag_412\n        /* \"#utility.yul\":4614:4615   */\n      0x00\n        /* \"#utility.yul\":4603:4612   */\n      dup4\n        /* \"#utility.yul\":4599:4616   */\n      add\n        /* \"#utility.yul\":4590:4596   */\n      dup5\n        /* \"#utility.yul\":4546:4617   */\n      tag_291\n      jump\t// in\n    tag_412:\n        /* \"#utility.yul\":4402:4624   */\n      swap3\n      swap2\n      pop\n      pop\n      jump\t// out\n        /* \"#utility.yul\":4630:4756   */\n    tag_292:\n        /* \"#utility.yul\":4667:4674   */\n      0x00\n        /* \"#utility.yul\":4707:4749   */\n      0xffffffffffffffffffffffffffffffffffffffff\n        /* \"#utility.yul\":4700:4705   */\n      dup3\n        /* \"#utility.yul\":4696:4750   */\n      and\n        /* \"#utility.yul\":4685:4750   */\n      swap1\n      pop\n        /* \"#utility.yul\":4630:4756   */\n      swap2\n      swap1\n      pop\n      jump\t// out\n        /* \"#utility.yul\":4762:4858   */\n    tag_293:\n        /* \"#utility.yul\":4799:4806   */\n      0x00\n        /* \"#utility.yul\":4828:4852   */\n      tag_415\n        /* \"#utility.yul\":4846:4851   */\n      dup3\n        /* \"#utility.yul\":4828:4852   */\n      tag_292\n      jump\t// in\n    tag_415:\n        /* \"#utility.yul\":4817:4852   */\n      swap1\n      pop\n        /* \"#utility.yul\":4762:4858   */\n      swap2\n      swap1\n      pop\n      jump\t// out\n        /* \"#utility.yul\":4864:4982   */\n    tag_294:\n        /* \"#utility.yul\":4951:4975   */\n      tag_417\n        /* \"#utility.yul\":4969:4974   */\n      dup2\n        /* \"#utility.yul\":4951:4975   */\n      tag_293\n      jump\t// in\n    tag_417:\n        /* \"#utility.yul\":4946:4949   */\n      dup3\n        /* \"#utility.yul\":4939:4976   */\n      mstore\n        /* \"#utility.yul\":4864:4982   */\n      pop\n      pop\n      jump\t// out\n        /* \"#utility.yul\":4988:5210   */\n    tag_42:\n        /* \"#utility.yul\":5081:5085   */\n      0x00\n        /* \"#utility.yul\":5119:5121   */\n      0x20\n        /* \"#utility.yul\":5108:5117   */\n      dup3\n        /* \"#utility.yul\":5104:5122   */\n      add\n        /* \"#utility.yul\":5096:5122   */\n      swap1\n      pop\n        /* \"#utility.yul\":5132:5203   */\n      tag_419\n        /* \"#utility.yul\":5200:5201   */\n      0x00\n        /* \"#utility.yul\":5189:5198   */\n      dup4\n        /* \"#utility.yul\":5185:5202   */\n      add\n        /* \"#utility.yul\":5176:5182   */\n      dup5\n        /* \"#utility.yul\":5132:5203   */\n      tag_294\n      jump\t// in\n    tag_419:\n        /* \"#utility.yul\":4988:5210   */\n      swap3\n      swap2\n      pop\n      pop\n      jump\t// out\n        /* \"#utility.yul\":5216:5345   */\n    tag_295:\n        /* \"#utility.yul\":5306:5312   */\n      0x00\n        /* \"#utility.yul\":5334:5338   */\n      0x0a\n        /* \"#utility.yul\":5324:5338   */\n      swap1\n      pop\n        /* \"#utility.yul\":5216:5345   */\n      swap2\n      swap1\n      pop\n      jump\t// out\n        /* \"#utility.yul\":5351:5519   */\n    tag_296:\n        /* \"#utility.yul\":5473:5484   */\n      0x00\n        /* \"#utility.yul\":5510:5513   */\n      dup2\n        /* \"#utility.yul\":5495:5513   */\n      swap1\n      pop\n        /* \"#utility.yul\":5351:5519   */\n      swap3\n      swap2\n      pop\n      pop\n      jump\t// out\n        /* \"#utility.yul\":5525:5648   */\n    tag_297:\n        /* \"#utility.yul\":5615:5619   */\n      0x00\n        /* \"#utility.yul\":5638:5641   */\n      dup2\n        /* \"#utility.yul\":5630:5641   */\n      swap1\n      pop\n        /* \"#utility.yul\":5525:5648   */\n      swap2\n      swap1\n      pop\n      jump\t// out\n        /* \"#utility.yul\":5654:5753   */\n    tag_298:\n        /* \"#utility.yul\":5706:5712   */\n      0x00\n        /* \"#utility.yul\":5740:5745   */\n      dup2\n        /* \"#utility.yul\":5734:5746   */\n      mload\n        /* \"#utility.yul\":5724:5746   */\n      swap1\n      pop\n        /* \"#utility.yul\":5654:5753   */\n      swap2\n      swap1\n      pop\n      jump\t// out\n        /* \"#utility.yul\":5759:5918   */\n    tag_299:\n        /* \"#utility.yul\":5833:5844   */\n      0x00\n        /* \"#utility.yul\":5867:5873   */\n      dup3\n        /* \"#utility.yul\":5862:5865   */\n      dup3\n        /* \"#utility.yul\":5855:5874   */\n      mstore\n        /* \"#utility.yul\":5907:5911   */\n      0x20\n        /* \"#utility.yul\":5902:5905   */\n      dup3\n        /* \"#utility.yul\":5898:5912   */\n      add\n        /* \"#utility.yul\":5883:5912   */\n      swap1\n      pop\n        /* \"#utility.yul\":5759:5918   */\n      swap3\n      swap2\n      pop\n      pop\n      jump\t// out\n        /* \"#utility.yul\":5924:6170   */\n    tag_300:\n        /* \"#utility.yul\":6005:6006   */\n      0x00\n        /* \"#utility.yul\":6015:6128   */\n    tag_426:\n        /* \"#utility.yul\":6029:6035   */\n      dup4\n        /* \"#utility.yul\":6026:6027   */\n      dup2\n        /* \"#utility.yul\":6023:6036   */\n      lt\n        /* \"#utility.yul\":6015:6128   */\n      iszero\n      tag_428\n      jumpi\n        /* \"#utility.yul\":6114:6115   */\n      dup1\n        /* \"#utility.yul\":6109:6112   */\n      dup3\n        /* \"#utility.yul\":6105:6116   */\n      add\n        /* \"#utility.yul\":6099:6117   */\n      mload\n        /* \"#utility.yul\":6095:6096   */\n      dup2\n        /* \"#utility.yul\":6090:6093   */\n      dup5\n        /* \"#utility.yul\":6086:6097   */\n      add\n        /* \"#utility.yul\":6079:6118   */\n      mstore\n        /* \"#utility.yul\":6051:6053   */\n      0x20\n        /* \"#utility.yul\":6048:6049   */\n      dup2\n        /* \"#utility.yul\":6044:6054   */\n      add\n        /* \"#utility.yul\":6039:6054   */\n      swap1\n      pop\n        /* \"#utility.yul\":6015:6128   */\n      jump(tag_426)\n    tag_428:\n        /* \"#utility.yul\":6162:6163   */\n      0x00\n        /* \"#utility.yul\":6153:6159   */\n      dup5\n        /* \"#utility.yul\":6148:6151   */\n      dup5\n        /* \"#utility.yul\":6144:6160   */\n      add\n        /* \"#utility.yul\":6137:6164   */\n      mstore\n        /* \"#utility.yul\":5986:6170   */\n      pop\n        /* \"#utility.yul\":5924:6170   */\n      pop\n      pop\n      pop\n      jump\t// out\n        /* \"#utility.yul\":6176:6533   */\n    tag_301:\n        /* \"#utility.yul\":6254:6257   */\n      0x00\n        /* \"#utility.yul\":6282:6321   */\n      tag_430\n        /* \"#utility.yul\":6315:6320   */\n      dup3\n        /* \"#utility.yul\":6282:6321   */\n      tag_298\n      jump\t// in\n    tag_430:\n        /* \"#utility.yul\":6337:6398   */\n      tag_431\n        /* \"#utility.yul\":6391:6397   */\n      dup2\n        /* \"#utility.yul\":6386:6389   */\n      dup6\n        /* \"#utility.yul\":6337:6398   */\n      tag_299\n      jump\t// in\n    tag_431:\n        /* \"#utility.yul\":6330:6398   */\n      swap4\n      pop\n        /* \"#utility.yul\":6407:6472   */\n      tag_432\n        /* \"#utility.yul\":6465:6471   */\n      dup2\n        /* \"#utility.yul\":6460:6463   */\n      dup6\n        /* \"#utility.yul\":6453:6457   */\n      0x20\n        /* \"#utility.yul\":6446:6451   */\n      dup7\n        /* \"#utility.yul\":6442:6458   */\n      add\n        /* \"#utility.yul\":6407:6472   */\n      tag_300\n      jump\t// in\n    tag_432:\n        /* \"#utility.yul\":6497:6526   */\n      tag_433\n        /* \"#utility.yul\":6519:6525   */\n      dup2\n        /* \"#utility.yul\":6497:6526   */\n      tag_280\n      jump\t// in\n    tag_433:\n        /* \"#utility.yul\":6492:6495   */\n      dup5\n        /* \"#utility.yul\":6488:6527   */\n      add\n        /* \"#utility.yul\":6481:6527   */\n      swap2\n      pop\n        /* \"#utility.yul\":6258:6533   */\n      pop\n        /* \"#utility.yul\":6176:6533   */\n      swap3\n      swap2\n      pop\n      pop\n      jump\t// out\n        /* \"#utility.yul\":6539:6644   */\n    tag_302:\n        /* \"#utility.yul\":6614:6637   */\n      tag_435\n        /* \"#utility.yul\":6631:6636   */\n      dup2\n        /* \"#utility.yul\":6614:6637   */\n      tag_276\n      jump\t// in\n    tag_435:\n        /* \"#utility.yul\":6609:6612   */\n      dup3\n        /* \"#utility.yul\":6602:6638   */\n      mstore\n        /* \"#utility.yul\":6539:6644   */\n      pop\n      pop\n      jump\t// out\n        /* \"#utility.yul\":6708:7471   */\n    tag_303:\n        /* \"#utility.yul\":6815:6818   */\n      0x00\n        /* \"#utility.yul\":6851:6855   */\n      0x60\n        /* \"#utility.yul\":6846:6849   */\n      dup4\n        /* \"#utility.yul\":6842:6856   */\n      add\n        /* \"#utility.yul\":6938:6942   */\n      0x00\n        /* \"#utility.yul\":6931:6936   */\n      dup4\n        /* \"#utility.yul\":6927:6943   */\n      add\n        /* \"#utility.yul\":6921:6944   */\n      mload\n        /* \"#utility.yul\":6991:6994   */\n      dup5\n        /* \"#utility.yul\":6985:6989   */\n      dup3\n        /* \"#utility.yul\":6981:6995   */\n      sub\n        /* \"#utility.yul\":6974:6978   */\n      0x00\n        /* \"#utility.yul\":6969:6972   */\n      dup7\n        /* \"#utility.yul\":6965:6979   */\n      add\n        /* \"#utility.yul\":6958:6996   */\n      mstore\n        /* \"#utility.yul\":7017:7090   */\n      tag_437\n        /* \"#utility.yul\":7085:7089   */\n      dup3\n        /* \"#utility.yul\":7071:7083   */\n      dup3\n        /* \"#utility.yul\":7017:7090   */\n      tag_301\n      jump\t// in\n    tag_437:\n        /* \"#utility.yul\":7009:7090   */\n      swap2\n      pop\n        /* \"#utility.yul\":6866:7101   */\n      pop\n        /* \"#utility.yul\":7183:7187   */\n      0x20\n        /* \"#utility.yul\":7176:7181   */\n      dup4\n        /* \"#utility.yul\":7172:7188   */\n      add\n        /* \"#utility.yul\":7166:7189   */\n      mload\n        /* \"#utility.yul\":7202:7263   */\n      tag_438\n        /* \"#utility.yul\":7257:7261   */\n      0x20\n        /* \"#utility.yul\":7252:7255   */\n      dup7\n        /* \"#utility.yul\":7248:7262   */\n      add\n        /* \"#utility.yul\":7234:7246   */\n      dup3\n        /* \"#utility.yul\":7202:7263   */\n      tag_302\n      jump\t// in\n    tag_438:\n        /* \"#utility.yul\":7111:7273   */\n      pop\n        /* \"#utility.yul\":7354:7358   */\n      0x40\n        /* \"#utility.yul\":7347:7352   */\n      dup4\n        /* \"#utility.yul\":7343:7359   */\n      add\n        /* \"#utility.yul\":7337:7360   */\n      mload\n        /* \"#utility.yul\":7373:7434   */\n      tag_439\n        /* \"#utility.yul\":7428:7432   */\n      0x40\n        /* \"#utility.yul\":7423:7426   */\n      dup7\n        /* \"#utility.yul\":7419:7433   */\n      add\n        /* \"#utility.yul\":7405:7417   */\n      dup3\n        /* \"#utility.yul\":7373:7434   */\n      tag_302\n      jump\t// in\n    tag_439:\n        /* \"#utility.yul\":7283:7444   */\n      pop\n        /* \"#utility.yul\":7461:7465   */\n      dup1\n        /* \"#utility.yul\":7454:7465   */\n      swap2\n      pop\n        /* \"#utility.yul\":6820:7471   */\n      pop\n        /* \"#utility.yul\":6708:7471   */\n      swap3\n      swap2\n      pop\n      pop\n      jump\t// out\n        /* \"#utility.yul\":7477:7729   */\n    tag_304:\n        /* \"#utility.yul\":7594:7604   */\n      0x00\n        /* \"#utility.yul\":7629:7723   */\n      tag_441\n        /* \"#utility.yul\":7719:7722   */\n      dup4\n        /* \"#utility.yul\":7711:7717   */\n      dup4\n        /* \"#utility.yul\":7629:7723   */\n      tag_303\n      jump\t// in\n    tag_441:\n        /* \"#utility.yul\":7615:7723   */\n      swap1\n      pop\n        /* \"#utility.yul\":7477:7729   */\n      swap3\n      swap2\n      pop\n      pop\n      jump\t// out\n        /* \"#utility.yul\":7735:7871   */\n    tag_305:\n        /* \"#utility.yul\":7828:7832   */\n      0x00\n        /* \"#utility.yul\":7860:7864   */\n      0x20\n        /* \"#utility.yul\":7855:7858   */\n      dup3\n        /* \"#utility.yul\":7851:7865   */\n      add\n        /* \"#utility.yul\":7843:7865   */\n      swap1\n      pop\n        /* \"#utility.yul\":7735:7871   */\n      swap2\n      swap1\n      pop\n      jump\t// out\n        /* \"#utility.yul\":7943:9040   */\n    tag_306:\n        /* \"#utility.yul\":8108:8111   */\n      0x00\n        /* \"#utility.yul\":8137:8214   */\n      tag_444\n        /* \"#utility.yul\":8208:8213   */\n      dup3\n        /* \"#utility.yul\":8137:8214   */\n      tag_295\n      jump\t// in\n    tag_444:\n        /* \"#utility.yul\":8230:8339   */\n      tag_445\n        /* \"#utility.yul\":8332:8338   */\n      dup2\n        /* \"#utility.yul\":8327:8330   */\n      dup6\n        /* \"#utility.yul\":8230:8339   */\n      tag_296\n      jump\t// in\n    tag_445:\n        /* \"#utility.yul\":8223:8339   */\n      swap4\n      pop\n        /* \"#utility.yul\":8365:8368   */\n      dup4\n        /* \"#utility.yul\":8410:8414   */\n      0x20\n        /* \"#utility.yul\":8402:8408   */\n      dup3\n        /* \"#utility.yul\":8398:8415   */\n      mul\n        /* \"#utility.yul\":8393:8396   */\n      dup6\n        /* \"#utility.yul\":8389:8416   */\n      add\n        /* \"#utility.yul\":8440:8519   */\n      tag_446\n        /* \"#utility.yul\":8513:8518   */\n      dup6\n        /* \"#utility.yul\":8440:8519   */\n      tag_297\n      jump\t// in\n    tag_446:\n        /* \"#utility.yul\":8542:8549   */\n      dup1\n        /* \"#utility.yul\":8573:8574   */\n      0x00\n        /* \"#utility.yul\":8558:8995   */\n    tag_447:\n        /* \"#utility.yul\":8583:8589   */\n      dup6\n        /* \"#utility.yul\":8580:8581   */\n      dup2\n        /* \"#utility.yul\":8577:8590   */\n      lt\n        /* \"#utility.yul\":8558:8995   */\n      iszero\n      tag_449\n      jumpi\n        /* \"#utility.yul\":8654:8663   */\n      dup5\n        /* \"#utility.yul\":8648:8652   */\n      dup5\n        /* \"#utility.yul\":8644:8664   */\n      sub\n        /* \"#utility.yul\":8639:8642   */\n      dup10\n        /* \"#utility.yul\":8632:8665   */\n      mstore\n        /* \"#utility.yul\":8705:8711   */\n      dup2\n        /* \"#utility.yul\":8699:8712   */\n      mload\n        /* \"#utility.yul\":8733:8845   */\n      tag_450\n        /* \"#utility.yul\":8840:8844   */\n      dup6\n        /* \"#utility.yul\":8825:8838   */\n      dup3\n        /* \"#utility.yul\":8733:8845   */\n      tag_304\n      jump\t// in\n    tag_450:\n        /* \"#utility.yul\":8725:8845   */\n      swap5\n      pop\n        /* \"#utility.yul\":8868:8951   */\n      tag_451\n        /* \"#utility.yul\":8944:8950   */\n      dup4\n        /* \"#utility.yul\":8868:8951   */\n      tag_305\n      jump\t// in\n    tag_451:\n        /* \"#utility.yul\":8858:8951   */\n      swap3\n      pop\n        /* \"#utility.yul\":8980:8984   */\n      0x20\n        /* \"#utility.yul\":8975:8978   */\n      dup11\n        /* \"#utility.yul\":8971:8985   */\n      add\n        /* \"#utility.yul\":8964:8985   */\n      swap10\n      pop\n        /* \"#utility.yul\":8618:8995   */\n      pop\n        /* \"#utility.yul\":8605:8606   */\n      0x01\n        /* \"#utility.yul\":8602:8603   */\n      dup2\n        /* \"#utility.yul\":8598:8607   */\n      add\n        /* \"#utility.yul\":8593:8607   */\n      swap1\n      pop\n        /* \"#utility.yul\":8558:8995   */\n      jump(tag_447)\n    tag_449:\n        /* \"#utility.yul\":8562:8576   */\n      pop\n        /* \"#utility.yul\":9011:9015   */\n      dup3\n        /* \"#utility.yul\":9004:9015   */\n      swap8\n      pop\n        /* \"#utility.yul\":9031:9034   */\n      dup8\n        /* \"#utility.yul\":9024:9034   */\n      swap6\n      pop\n        /* \"#utility.yul\":8113:9040   */\n      pop\n      pop\n      pop\n      pop\n      pop\n        /* \"#utility.yul\":7943:9040   */\n      swap3\n      swap2\n      pop\n      pop\n      jump\t// out\n        /* \"#utility.yul\":9046:9511   */\n    tag_46:\n        /* \"#utility.yul\":9235:9239   */\n      0x00\n        /* \"#utility.yul\":9273:9275   */\n      0x20\n        /* \"#utility.yul\":9262:9271   */\n      dup3\n        /* \"#utility.yul\":9258:9276   */\n      add\n        /* \"#utility.yul\":9250:9276   */\n      swap1\n      pop\n        /* \"#utility.yul\":9322:9331   */\n      dup2\n        /* \"#utility.yul\":9316:9320   */\n      dup2\n        /* \"#utility.yul\":9312:9332   */\n      sub\n        /* \"#utility.yul\":9308:9309   */\n      0x00\n        /* \"#utility.yul\":9297:9306   */\n      dup4\n        /* \"#utility.yul\":9293:9310   */\n      add\n        /* \"#utility.yul\":9286:9333   */\n      mstore\n        /* \"#utility.yul\":9350:9504   */\n      tag_453\n        /* \"#utility.yul\":9499:9503   */\n      dup2\n        /* \"#utility.yul\":9490:9496   */\n      dup5\n        /* \"#utility.yul\":9350:9504   */\n      tag_306\n      jump\t// in\n    tag_453:\n        /* \"#utility.yul\":9342:9504   */\n      swap1\n      pop\n        /* \"#utility.yul\":9046:9511   */\n      swap3\n      swap2\n      pop\n      pop\n      jump\t// out\n        /* \"#utility.yul\":9517:9634   */\n    tag_307:\n        /* \"#utility.yul\":9626:9627   */\n      0x00\n        /* \"#utility.yul\":9623:9624   */\n      dup1\n        /* \"#utility.yul\":9616:9628   */\n      revert\n        /* \"#utility.yul\":9654:10207   */\n    tag_308:\n        /* \"#utility.yul\":9712:9720   */\n      0x00\n        /* \"#utility.yul\":9722:9728   */\n      dup1\n        /* \"#utility.yul\":9772:9775   */\n      dup4\n        /* \"#utility.yul\":9765:9769   */\n      0x1f\n        /* \"#utility.yul\":9757:9763   */\n      dup5\n        /* \"#utility.yul\":9753:9770   */\n      add\n        /* \"#utility.yul\":9749:9776   */\n      slt\n        /* \"#utility.yul\":9739:9861   */\n      tag_456\n      jumpi\n        /* \"#utility.yul\":9780:9859   */\n      tag_457\n      tag_279\n      jump\t// in\n    tag_457:\n        /* \"#utility.yul\":9739:9861   */\n    tag_456:\n        /* \"#utility.yul\":9893:9899   */\n      dup3\n        /* \"#utility.yul\":9880:9900   */\n      calldataload\n        /* \"#utility.yul\":9870:9900   */\n      swap1\n      pop\n        /* \"#utility.yul\":9923:9941   */\n      0xffffffffffffffff\n        /* \"#utility.yul\":9915:9921   */\n      dup2\n        /* \"#utility.yul\":9912:9942   */\n      gt\n        /* \"#utility.yul\":9909:10026   */\n      iszero\n      tag_458\n      jumpi\n        /* \"#utility.yul\":9945:10024   */\n      tag_459\n      tag_307\n      jump\t// in\n    tag_459:\n        /* \"#utility.yul\":9909:10026   */\n    tag_458:\n        /* \"#utility.yul\":10059:10063   */\n      0x20\n        /* \"#utility.yul\":10051:10057   */\n      dup4\n        /* \"#utility.yul\":10047:10064   */\n      add\n        /* \"#utility.yul\":10035:10064   */\n      swap2\n      pop\n        /* \"#utility.yul\":10113:10116   */\n      dup4\n        /* \"#utility.yul\":10105:10109   */\n      0x01\n        /* \"#utility.yul\":10097:10103   */\n      dup3\n        /* \"#utility.yul\":10093:10110   */\n      mul\n        /* \"#utility.yul\":10083:10091   */\n      dup4\n        /* \"#utility.yul\":10079:10111   */\n      add\n        /* \"#utility.yul\":10076:10117   */\n      gt\n        /* \"#utility.yul\":10073:10201   */\n      iszero\n      tag_460\n      jumpi\n        /* \"#utility.yul\":10120:10199   */\n      tag_461\n      tag_285\n      jump\t// in\n    tag_461:\n        /* \"#utility.yul\":10073:10201   */\n    tag_460:\n        /* \"#utility.yul\":9654:10207   */\n      swap3\n      pop\n      swap3\n      swap1\n      pop\n      jump\t// out\n        /* \"#utility.yul\":10213:11087   */\n    tag_49:\n        /* \"#utility.yul\":10305:10311   */\n      0x00\n        /* \"#utility.yul\":10313:10319   */\n      dup1\n        /* \"#utility.yul\":10321:10327   */\n      0x00\n        /* \"#utility.yul\":10329:10335   */\n      dup1\n        /* \"#utility.yul\":10378:10380   */\n      0x40\n        /* \"#utility.yul\":10366:10375   */\n      dup6\n        /* \"#utility.yul\":10357:10364   */\n      dup8\n        /* \"#utility.yul\":10353:10376   */\n      sub\n        /* \"#utility.yul\":10349:10381   */\n      slt\n        /* \"#utility.yul\":10346:10465   */\n      iszero\n      tag_463\n      jumpi\n        /* \"#utility.yul\":10384:10463   */\n      tag_464\n      tag_274\n      jump\t// in\n    tag_464:\n        /* \"#utility.yul\":10346:10465   */\n    tag_463:\n        /* \"#utility.yul\":10532:10533   */\n      0x00\n        /* \"#utility.yul\":10521:10530   */\n      dup6\n        /* \"#utility.yul\":10517:10534   */\n      add\n        /* \"#utility.yul\":10504:10535   */\n      calldataload\n        /* \"#utility.yul\":10562:10580   */\n      0xffffffffffffffff\n        /* \"#utility.yul\":10554:10560   */\n      dup2\n        /* \"#utility.yul\":10551:10581   */\n      gt\n        /* \"#utility.yul\":10548:10665   */\n      iszero\n      tag_465\n      jumpi\n        /* \"#utility.yul\":10584:10663   */\n      tag_466\n      tag_275\n      jump\t// in\n    tag_466:\n        /* \"#utility.yul\":10548:10665   */\n    tag_465:\n        /* \"#utility.yul\":10697:10762   */\n      tag_467\n        /* \"#utility.yul\":10754:10761   */\n      dup8\n        /* \"#utility.yul\":10745:10751   */\n      dup3\n        /* \"#utility.yul\":10734:10743   */\n      dup9\n        /* \"#utility.yul\":10730:10752   */\n      add\n        /* \"#utility.yul\":10697:10762   */\n      tag_308\n      jump\t// in\n    tag_467:\n        /* \"#utility.yul\":10679:10762   */\n      swap5\n      pop\n      swap5\n      pop\n        /* \"#utility.yul\":10475:10772   */\n      pop\n        /* \"#utility.yul\":10839:10841   */\n      0x20\n        /* \"#utility.yul\":10828:10837   */\n      dup6\n        /* \"#utility.yul\":10824:10842   */\n      add\n        /* \"#utility.yul\":10811:10843   */\n      calldataload\n        /* \"#utility.yul\":10870:10888   */\n      0xffffffffffffffff\n        /* \"#utility.yul\":10862:10868   */\n      dup2\n        /* \"#utility.yul\":10859:10889   */\n      gt\n        /* \"#utility.yul\":10856:10973   */\n      iszero\n      tag_468\n      jumpi\n        /* \"#utility.yul\":10892:10971   */\n      tag_469\n      tag_275\n      jump\t// in\n    tag_469:\n        /* \"#utility.yul\":10856:10973   */\n    tag_468:\n        /* \"#utility.yul\":11005:11070   */\n      tag_470\n        /* \"#utility.yul\":11062:11069   */\n      dup8\n        /* \"#utility.yul\":11053:11059   */\n      dup3\n        /* \"#utility.yul\":11042:11051   */\n      dup9\n        /* \"#utility.yul\":11038:11060   */\n      add\n        /* \"#utility.yul\":11005:11070   */\n      tag_308\n      jump\t// in\n    tag_470:\n        /* \"#utility.yul\":10987:11070   */\n      swap3\n      pop\n      swap3\n      pop\n        /* \"#utility.yul\":10782:11080   */\n      pop\n        /* \"#utility.yul\":10213:11087   */\n      swap3\n      swap6\n      swap2\n      swap5\n      pop\n      swap3\n      pop\n      jump\t// out\n        /* \"#utility.yul\":11093:11262   */\n    tag_309:\n        /* \"#utility.yul\":11177:11188   */\n      0x00\n        /* \"#utility.yul\":11211:11217   */\n      dup3\n        /* \"#utility.yul\":11206:11209   */\n      dup3\n        /* \"#utility.yul\":11199:11218   */\n      mstore\n        /* \"#utility.yul\":11251:11255   */\n      0x20\n        /* \"#utility.yul\":11246:11249   */\n      dup3\n        /* \"#utility.yul\":11242:11256   */\n      add\n        /* \"#utility.yul\":11227:11256   */\n      swap1\n      pop\n        /* \"#utility.yul\":11093:11262   */\n      swap3\n      swap2\n      pop\n      pop\n      jump\t// out\n        /* \"#utility.yul\":11268:11645   */\n    tag_310:\n        /* \"#utility.yul\":11356:11359   */\n      0x00\n        /* \"#utility.yul\":11384:11423   */\n      tag_473\n        /* \"#utility.yul\":11417:11422   */\n      dup3\n        /* \"#utility.yul\":11384:11423   */\n      tag_298\n      jump\t// in\n    tag_473:\n        /* \"#utility.yul\":11439:11510   */\n      tag_474\n        /* \"#utility.yul\":11503:11509   */\n      dup2\n        /* \"#utility.yul\":11498:11501   */\n      dup6\n        /* \"#utility.yul\":11439:11510   */\n      tag_309\n      jump\t// in\n    tag_474:\n        /* \"#utility.yul\":11432:11510   */\n      swap4\n      pop\n        /* \"#utility.yul\":11519:11584   */\n      tag_475\n        /* \"#utility.yul\":11577:11583   */\n      dup2\n        /* \"#utility.yul\":11572:11575   */\n      dup6\n        /* \"#utility.yul\":11565:11569   */\n      0x20\n        /* \"#utility.yul\":11558:11563   */\n      dup7\n        /* \"#utility.yul\":11554:11570   */\n      add\n        /* \"#utility.yul\":11519:11584   */\n      tag_300\n      jump\t// in\n    tag_475:\n        /* \"#utility.yul\":11609:11638   */\n      tag_476\n        /* \"#utility.yul\":11631:11637   */\n      dup2\n        /* \"#utility.yul\":11609:11638   */\n      tag_280\n      jump\t// in\n    tag_476:\n        /* \"#utility.yul\":11604:11607   */\n      dup5\n        /* \"#utility.yul\":11600:11639   */\n      add\n        /* \"#utility.yul\":11593:11639   */\n      swap2\n      pop\n        /* \"#utility.yul\":11360:11645   */\n      pop\n        /* \"#utility.yul\":11268:11645   */\n      swap3\n      swap2\n      pop\n      pop\n      jump\t// out\n        /* \"#utility.yul\":11651:11964   */\n    tag_52:\n        /* \"#utility.yul\":11764:11768   */\n      0x00\n        /* \"#utility.yul\":11802:11804   */\n      0x20\n        /* \"#utility.yul\":11791:11800   */\n      dup3\n        /* \"#utility.yul\":11787:11805   */\n      add\n        /* \"#utility.yul\":11779:11805   */\n      swap1\n      pop\n        /* \"#utility.yul\":11851:11860   */\n      dup2\n        /* \"#utility.yul\":11845:11849   */\n      dup2\n        /* \"#utility.yul\":11841:11861   */\n      sub\n        /* \"#utility.yul\":11837:11838   */\n      0x00\n        /* \"#utility.yul\":11826:11835   */\n      dup4\n        /* \"#utility.yul\":11822:11839   */\n      add\n        /* \"#utility.yul\":11815:11862   */\n      mstore\n        /* \"#utility.yul\":11879:11957   */\n      tag_478\n        /* \"#utility.yul\":11952:11956   */\n      dup2\n        /* \"#utility.yul\":11943:11949   */\n      dup5\n        /* \"#utility.yul\":11879:11957   */\n      tag_310\n      jump\t// in\n    tag_478:\n        /* \"#utility.yul\":11871:11957   */\n      swap1\n      pop\n        /* \"#utility.yul\":11651:11964   */\n      swap3\n      swap2\n      pop\n      pop\n      jump\t// out\n        /* \"#utility.yul\":11970:12087   */\n    tag_311:\n        /* \"#utility.yul\":12079:12080   */\n      0x00\n        /* \"#utility.yul\":12076:12077   */\n      dup1\n        /* \"#utility.yul\":12069:12081   */\n      revert\n        /* \"#utility.yul\":12093:12401   */\n    tag_312:\n        /* \"#utility.yul\":12155:12159   */\n      0x00\n        /* \"#utility.yul\":12245:12263   */\n      0xffffffffffffffff\n        /* \"#utility.yul\":12237:12243   */\n      dup3\n        /* \"#utility.yul\":12234:12264   */\n      gt\n        /* \"#utility.yul\":12231:12287   */\n      iszero\n      tag_481\n      jumpi\n        /* \"#utility.yul\":12267:12285   */\n      tag_482\n      tag_281\n      jump\t// in\n    tag_482:\n        /* \"#utility.yul\":12231:12287   */\n    tag_481:\n        /* \"#utility.yul\":12305:12334   */\n      tag_483\n        /* \"#utility.yul\":12327:12333   */\n      dup3\n        /* \"#utility.yul\":12305:12334   */\n      tag_280\n      jump\t// in\n    tag_483:\n        /* \"#utility.yul\":12297:12334   */\n      swap1\n      pop\n        /* \"#utility.yul\":12389:12393   */\n      0x20\n        /* \"#utility.yul\":12383:12387   */\n      dup2\n        /* \"#utility.yul\":12379:12394   */\n      add\n        /* \"#utility.yul\":12371:12394   */\n      swap1\n      pop\n        /* \"#utility.yul\":12093:12401   */\n      swap2\n      swap1\n      pop\n      jump\t// out\n        /* \"#utility.yul\":12407:12553   */\n    tag_313:\n        /* \"#utility.yul\":12504:12510   */\n      dup3\n        /* \"#utility.yul\":12499:12502   */\n      dup2\n        /* \"#utility.yul\":12494:12497   */\n      dup4\n        /* \"#utility.yul\":12481:12511   */\n      calldatacopy\n        /* \"#utility.yul\":12545:12546   */\n      0x00\n        /* \"#utility.yul\":12536:12542   */\n      dup4\n        /* \"#utility.yul\":12531:12534   */\n      dup4\n        /* \"#utility.yul\":12527:12543   */\n      add\n        /* \"#utility.yul\":12520:12547   */\n      mstore\n        /* \"#utility.yul\":12407:12553   */\n      pop\n      pop\n      pop\n      jump\t// out\n        /* \"#utility.yul\":12559:12984   */\n    tag_314:\n        /* \"#utility.yul\":12637:12642   */\n      0x00\n        /* \"#utility.yul\":12662:12728   */\n      tag_486\n        /* \"#utility.yul\":12678:12727   */\n      tag_487\n        /* \"#utility.yul\":12720:12726   */\n      dup5\n        /* \"#utility.yul\":12678:12727   */\n      tag_312\n      jump\t// in\n    tag_487:\n        /* \"#utility.yul\":12662:12728   */\n      tag_283\n      jump\t// in\n    tag_486:\n        /* \"#utility.yul\":12653:12728   */\n      swap1\n      pop\n        /* \"#utility.yul\":12751:12757   */\n      dup3\n        /* \"#utility.yul\":12744:12749   */\n      dup2\n        /* \"#utility.yul\":12737:12758   */\n      mstore\n        /* \"#utility.yul\":12789:12793   */\n      0x20\n        /* \"#utility.yul\":12782:12787   */\n      dup2\n        /* \"#utility.yul\":12778:12794   */\n      add\n        /* \"#utility.yul\":12827:12830   */\n      dup5\n        /* \"#utility.yul\":12818:12824   */\n      dup5\n        /* \"#utility.yul\":12813:12816   */\n      dup5\n        /* \"#utility.yul\":12809:12825   */\n      add\n        /* \"#utility.yul\":12806:12831   */\n      gt\n        /* \"#utility.yul\":12803:12915   */\n      iszero\n      tag_488\n      jumpi\n        /* \"#utility.yul\":12834:12913   */\n      tag_489\n      tag_311\n      jump\t// in\n    tag_489:\n        /* \"#utility.yul\":12803:12915   */\n    tag_488:\n        /* \"#utility.yul\":12924:12978   */\n      tag_490\n        /* \"#utility.yul\":12971:12977   */\n      dup5\n        /* \"#utility.yul\":12966:12969   */\n      dup3\n        /* \"#utility.yul\":12961:12964   */\n      dup6\n        /* \"#utility.yul\":12924:12978   */\n      tag_313\n      jump\t// in\n    tag_490:\n        /* \"#utility.yul\":12643:12984   */\n      pop\n        /* \"#utility.yul\":12559:12984   */\n      swap4\n      swap3\n      pop\n      pop\n      pop\n      jump\t// out\n        /* \"#utility.yul\":13004:13344   */\n    tag_315:\n        /* \"#utility.yul\":13060:13065   */\n      0x00\n        /* \"#utility.yul\":13109:13112   */\n      dup3\n        /* \"#utility.yul\":13102:13106   */\n      0x1f\n        /* \"#utility.yul\":13094:13100   */\n      dup4\n        /* \"#utility.yul\":13090:13107   */\n      add\n        /* \"#utility.yul\":13086:13113   */\n      slt\n        /* \"#utility.yul\":13076:13198   */\n      tag_492\n      jumpi\n        /* \"#utility.yul\":13117:13196   */\n      tag_493\n      tag_279\n      jump\t// in\n    tag_493:\n        /* \"#utility.yul\":13076:13198   */\n    tag_492:\n        /* \"#utility.yul\":13234:13240   */\n      dup2\n        /* \"#utility.yul\":13221:13241   */\n      calldataload\n        /* \"#utility.yul\":13259:13338   */\n      tag_494\n        /* \"#utility.yul\":13334:13337   */\n      dup5\n        /* \"#utility.yul\":13326:13332   */\n      dup3\n        /* \"#utility.yul\":13319:13323   */\n      0x20\n        /* \"#utility.yul\":13311:13317   */\n      dup7\n        /* \"#utility.yul\":13307:13324   */\n      add\n        /* \"#utility.yul\":13259:13338   */\n      tag_314\n      jump\t// in\n    tag_494:\n        /* \"#utility.yul\":13250:13338   */\n      swap2\n      pop\n        /* \"#utility.yul\":13066:13344   */\n      pop\n        /* \"#utility.yul\":13004:13344   */\n      swap3\n      swap2\n      pop\n      pop\n      jump\t// out\n        /* \"#utility.yul\":13350:14145   */\n    tag_55:\n        /* \"#utility.yul\":13435:13441   */\n      0x00\n        /* \"#utility.yul\":13443:13449   */\n      dup1\n        /* \"#utility.yul\":13451:13457   */\n      0x00\n        /* \"#utility.yul\":13500:13502   */\n      0x60\n        /* \"#utility.yul\":13488:13497   */\n      dup5\n        /* \"#utility.yul\":13479:13486   */\n      dup7\n        /* \"#utility.yul\":13475:13498   */\n      sub\n        /* \"#utility.yul\":13471:13503   */\n      slt\n        /* \"#utility.yul\":13468:13587   */\n      iszero\n      tag_496\n      jumpi\n        /* \"#utility.yul\":13506:13585   */\n      tag_497\n      tag_274\n      jump\t// in\n    tag_497:\n        /* \"#utility.yul\":13468:13587   */\n    tag_496:\n        /* \"#utility.yul\":13654:13655   */\n      0x00\n        /* \"#utility.yul\":13643:13652   */\n      dup5\n        /* \"#utility.yul\":13639:13656   */\n      add\n        /* \"#utility.yul\":13626:13657   */\n      calldataload\n        /* \"#utility.yul\":13684:13702   */\n      0xffffffffffffffff\n        /* \"#utility.yul\":13676:13682   */\n      dup2\n        /* \"#utility.yul\":13673:13703   */\n      gt\n        /* \"#utility.yul\":13670:13787   */\n      iszero\n      tag_498\n      jumpi\n        /* \"#utility.yul\":13706:13785   */\n      tag_499\n      tag_275\n      jump\t// in\n    tag_499:\n        /* \"#utility.yul\":13670:13787   */\n    tag_498:\n        /* \"#utility.yul\":13811:13874   */\n      tag_500\n        /* \"#utility.yul\":13866:13873   */\n      dup7\n        /* \"#utility.yul\":13857:13863   */\n      dup3\n        /* \"#utility.yul\":13846:13855   */\n      dup8\n        /* \"#utility.yul\":13842:13864   */\n      add\n        /* \"#utility.yul\":13811:13874   */\n      tag_315\n      jump\t// in\n    tag_500:\n        /* \"#utility.yul\":13801:13874   */\n      swap4\n      pop\n        /* \"#utility.yul\":13597:13884   */\n      pop\n        /* \"#utility.yul\":13923:13925   */\n      0x20\n        /* \"#utility.yul\":13949:14001   */\n      tag_501\n        /* \"#utility.yul\":13993:14000   */\n      dup7\n        /* \"#utility.yul\":13984:13990   */\n      dup3\n        /* \"#utility.yul\":13973:13982   */\n      dup8\n        /* \"#utility.yul\":13969:13991   */\n      add\n        /* \"#utility.yul\":13949:14001   */\n      tag_278\n      jump\t// in\n    tag_501:\n        /* \"#utility.yul\":13939:14001   */\n      swap3\n      pop\n        /* \"#utility.yul\":13894:14011   */\n      pop\n        /* \"#utility.yul\":14050:14052   */\n      0x40\n        /* \"#utility.yul\":14076:14128   */\n      tag_502\n        /* \"#utility.yul\":14120:14127   */\n      dup7\n        /* \"#utility.yul\":14111:14117   */\n      dup3\n        /* \"#utility.yul\":14100:14109   */\n      dup8\n        /* \"#utility.yul\":14096:14118   */\n      add\n        /* \"#utility.yul\":14076:14128   */\n      tag_278\n      jump\t// in\n    tag_502:\n        /* \"#utility.yul\":14066:14128   */\n      swap2\n      pop\n        /* \"#utility.yul\":14021:14138   */\n      pop\n        /* \"#utility.yul\":13350:14145   */\n      swap3\n      pop\n      swap3\n      pop\n      swap3\n      jump\t// out\n        /* \"#utility.yul\":14209:14982   */\n    tag_316:\n        /* \"#utility.yul\":14326:14329   */\n      0x00\n        /* \"#utility.yul\":14362:14366   */\n      0x60\n        /* \"#utility.yul\":14357:14360   */\n      dup4\n        /* \"#utility.yul\":14353:14367   */\n      add\n        /* \"#utility.yul\":14449:14453   */\n      0x00\n        /* \"#utility.yul\":14442:14447   */\n      dup4\n        /* \"#utility.yul\":14438:14454   */\n      add\n        /* \"#utility.yul\":14432:14455   */\n      mload\n        /* \"#utility.yul\":14502:14505   */\n      dup5\n        /* \"#utility.yul\":14496:14500   */\n      dup3\n        /* \"#utility.yul\":14492:14506   */\n      sub\n        /* \"#utility.yul\":14485:14489   */\n      0x00\n        /* \"#utility.yul\":14480:14483   */\n      dup7\n        /* \"#utility.yul\":14476:14490   */\n      add\n        /* \"#utility.yul\":14469:14507   */\n      mstore\n        /* \"#utility.yul\":14528:14601   */\n      tag_504\n        /* \"#utility.yul\":14596:14600   */\n      dup3\n        /* \"#utility.yul\":14582:14594   */\n      dup3\n        /* \"#utility.yul\":14528:14601   */\n      tag_301\n      jump\t// in\n    tag_504:\n        /* \"#utility.yul\":14520:14601   */\n      swap2\n      pop\n        /* \"#utility.yul\":14377:14612   */\n      pop\n        /* \"#utility.yul\":14694:14698   */\n      0x20\n        /* \"#utility.yul\":14687:14692   */\n      dup4\n        /* \"#utility.yul\":14683:14699   */\n      add\n        /* \"#utility.yul\":14677:14700   */\n      mload\n        /* \"#utility.yul\":14713:14774   */\n      tag_505\n        /* \"#utility.yul\":14768:14772   */\n      0x20\n        /* \"#utility.yul\":14763:14766   */\n      dup7\n        /* \"#utility.yul\":14759:14773   */\n      add\n        /* \"#utility.yul\":14745:14757   */\n      dup3\n        /* \"#utility.yul\":14713:14774   */\n      tag_302\n      jump\t// in\n    tag_505:\n        /* \"#utility.yul\":14622:14784   */\n      pop\n        /* \"#utility.yul\":14865:14869   */\n      0x40\n        /* \"#utility.yul\":14858:14863   */\n      dup4\n        /* \"#utility.yul\":14854:14870   */\n      add\n        /* \"#utility.yul\":14848:14871   */\n      mload\n        /* \"#utility.yul\":14884:14945   */\n      tag_506\n        /* \"#utility.yul\":14939:14943   */\n      0x40\n        /* \"#utility.yul\":14934:14937   */\n      dup7\n        /* \"#utility.yul\":14930:14944   */\n      add\n        /* \"#utility.yul\":14916:14928   */\n      dup3\n        /* \"#utility.yul\":14884:14945   */\n      tag_302\n      jump\t// in\n    tag_506:\n        /* \"#utility.yul\":14794:14955   */\n      pop\n        /* \"#utility.yul\":14972:14976   */\n      dup1\n        /* \"#utility.yul\":14965:14976   */\n      swap2\n      pop\n        /* \"#utility.yul\":14331:14982   */\n      pop\n        /* \"#utility.yul\":14209:14982   */\n      swap3\n      swap2\n      pop\n      pop\n      jump\t// out\n        /* \"#utility.yul\":14988:15357   */\n    tag_58:\n        /* \"#utility.yul\":15129:15133   */\n      0x00\n        /* \"#utility.yul\":15167:15169   */\n      0x20\n        /* \"#utility.yul\":15156:15165   */\n      dup3\n        /* \"#utility.yul\":15152:15170   */\n      add\n        /* \"#utility.yul\":15144:15170   */\n      swap1\n      pop\n        /* \"#utility.yul\":15216:15225   */\n      dup2\n        /* \"#utility.yul\":15210:15214   */\n      dup2\n        /* \"#utility.yul\":15206:15226   */\n      sub\n        /* \"#utility.yul\":15202:15203   */\n      0x00\n        /* \"#utility.yul\":15191:15200   */\n      dup4\n        /* \"#utility.yul\":15187:15204   */\n      add\n        /* \"#utility.yul\":15180:15227   */\n      mstore\n        /* \"#utility.yul\":15244:15350   */\n      tag_508\n        /* \"#utility.yul\":15345:15349   */\n      dup2\n        /* \"#utility.yul\":15336:15342   */\n      dup5\n        /* \"#utility.yul\":15244:15350   */\n      tag_316\n      jump\t// in\n    tag_508:\n        /* \"#utility.yul\":15236:15350   */\n      swap1\n      pop\n        /* \"#utility.yul\":14988:15357   */\n      swap3\n      swap2\n      pop\n      pop\n      jump\t// out\n        /* \"#utility.yul\":15363:15485   */\n    tag_317:\n        /* \"#utility.yul\":15436:15460   */\n      tag_510\n        /* \"#utility.yul\":15454:15459   */\n      dup2\n        /* \"#utility.yul\":15436:15460   */\n      tag_290\n      jump\t// in\n    tag_510:\n        /* \"#utility.yul\":15429:15434   */\n      dup2\n        /* \"#utility.yul\":15426:15461   */\n      eq\n        /* \"#utility.yul\":15416:15479   */\n      tag_511\n      jumpi\n        /* \"#utility.yul\":15475:15476   */\n      0x00\n        /* \"#utility.yul\":15472:15473   */\n      dup1\n        /* \"#utility.yul\":15465:15477   */\n      revert\n        /* \"#utility.yul\":15416:15479   */\n    tag_511:\n        /* \"#utility.yul\":15363:15485   */\n      pop\n      jump\t// out\n        /* \"#utility.yul\":15491:15630   */\n    tag_318:\n        /* \"#utility.yul\":15537:15542   */\n      0x00\n        /* \"#utility.yul\":15575:15581   */\n      dup2\n        /* \"#utility.yul\":15562:15582   */\n      calldataload\n        /* \"#utility.yul\":15553:15582   */\n      swap1\n      pop\n        /* \"#utility.yul\":15591:15624   */\n      tag_513\n        /* \"#utility.yul\":15618:15623   */\n      dup2\n        /* \"#utility.yul\":15591:15624   */\n      tag_317\n      jump\t// in\n    tag_513:\n        /* \"#utility.yul\":15491:15630   */\n      swap3\n      swap2\n      pop\n      pop\n      jump\t// out\n        /* \"#utility.yul\":15636:16577   */\n    tag_61:\n        /* \"#utility.yul\":15730:15736   */\n      0x00\n        /* \"#utility.yul\":15738:15744   */\n      dup1\n        /* \"#utility.yul\":15746:15752   */\n      0x00\n        /* \"#utility.yul\":15754:15760   */\n      dup1\n        /* \"#utility.yul\":15803:15806   */\n      0x80\n        /* \"#utility.yul\":15791:15800   */\n      dup6\n        /* \"#utility.yul\":15782:15789   */\n      dup8\n        /* \"#utility.yul\":15778:15801   */\n      sub\n        /* \"#utility.yul\":15774:15807   */\n      slt\n        /* \"#utility.yul\":15771:15891   */\n      iszero\n      tag_515\n      jumpi\n        /* \"#utility.yul\":15810:15889   */\n      tag_516\n      tag_274\n      jump\t// in\n    tag_516:\n        /* \"#utility.yul\":15771:15891   */\n    tag_515:\n        /* \"#utility.yul\":15958:15959   */\n      0x00\n        /* \"#utility.yul\":15947:15956   */\n      dup6\n        /* \"#utility.yul\":15943:15960   */\n      add\n        /* \"#utility.yul\":15930:15961   */\n      calldataload\n        /* \"#utility.yul\":15988:16006   */\n      0xffffffffffffffff\n        /* \"#utility.yul\":15980:15986   */\n      dup2\n        /* \"#utility.yul\":15977:16007   */\n      gt\n        /* \"#utility.yul\":15974:16091   */\n      iszero\n      tag_517\n      jumpi\n        /* \"#utility.yul\":16010:16089   */\n      tag_518\n      tag_275\n      jump\t// in\n    tag_518:\n        /* \"#utility.yul\":15974:16091   */\n    tag_517:\n        /* \"#utility.yul\":16115:16178   */\n      tag_519\n        /* \"#utility.yul\":16170:16177   */\n      dup8\n        /* \"#utility.yul\":16161:16167   */\n      dup3\n        /* \"#utility.yul\":16150:16159   */\n      dup9\n        /* \"#utility.yul\":16146:16168   */\n      add\n        /* \"#utility.yul\":16115:16178   */\n      tag_315\n      jump\t// in\n    tag_519:\n        /* \"#utility.yul\":16105:16178   */\n      swap5\n      pop\n        /* \"#utility.yul\":15901:16188   */\n      pop\n        /* \"#utility.yul\":16227:16229   */\n      0x20\n        /* \"#utility.yul\":16253:16305   */\n      tag_520\n        /* \"#utility.yul\":16297:16304   */\n      dup8\n        /* \"#utility.yul\":16288:16294   */\n      dup3\n        /* \"#utility.yul\":16277:16286   */\n      dup9\n        /* \"#utility.yul\":16273:16295   */\n      add\n        /* \"#utility.yul\":16253:16305   */\n      tag_278\n      jump\t// in\n    tag_520:\n        /* \"#utility.yul\":16243:16305   */\n      swap4\n      pop\n        /* \"#utility.yul\":16198:16315   */\n      pop\n        /* \"#utility.yul\":16354:16356   */\n      0x40\n        /* \"#utility.yul\":16380:16432   */\n      tag_521\n        /* \"#utility.yul\":16424:16431   */\n      dup8\n        /* \"#utility.yul\":16415:16421   */\n      dup3\n        /* \"#utility.yul\":16404:16413   */\n      dup9\n        /* \"#utility.yul\":16400:16422   */\n      add\n        /* \"#utility.yul\":16380:16432   */\n      tag_278\n      jump\t// in\n    tag_521:\n        /* \"#utility.yul\":16370:16432   */\n      swap3\n      pop\n        /* \"#utility.yul\":16325:16442   */\n      pop\n        /* \"#utility.yul\":16481:16483   */\n      0x60\n        /* \"#utility.yul\":16507:16560   */\n      tag_522\n        /* \"#utility.yul\":16552:16559   */\n      dup8\n        /* \"#utility.yul\":16543:16549   */\n      dup3\n        /* \"#utility.yul\":16532:16541   */\n      dup9\n        /* \"#utility.yul\":16528:16550   */\n      add\n        /* \"#utility.yul\":16507:16560   */\n      tag_318\n      jump\t// in\n    tag_522:\n        /* \"#utility.yul\":16497:16560   */\n      swap2\n      pop\n        /* \"#utility.yul\":16452:16570   */\n      pop\n        /* \"#utility.yul\":15636:16577   */\n      swap3\n      swap6\n      swap2\n      swap5\n      pop\n      swap3\n      pop\n      jump\t// out\n        /* \"#utility.yul\":16583:16763   */\n    tag_191:\n        /* \"#utility.yul\":16631:16708   */\n      0x4e487b7100000000000000000000000000000000000000000000000000000000\n        /* \"#utility.yul\":16628:16629   */\n      0x00\n        /* \"#utility.yul\":16621:16709   */\n      mstore\n        /* \"#utility.yul\":16728:16732   */\n      0x21\n        /* \"#utility.yul\":16725:16726   */\n      0x04\n        /* \"#utility.yul\":16718:16733   */\n      mstore\n        /* \"#utility.yul\":16752:16756   */\n      0x24\n        /* \"#utility.yul\":16749:16750   */\n      0x00\n        /* \"#utility.yul\":16742:16757   */\n      revert\n        /* \"#utility.yul\":16769:16883   */\n    tag_319:\n        /* \"#utility.yul\":16851:16852   */\n      0x03\n        /* \"#utility.yul\":16844:16849   */\n      dup2\n        /* \"#utility.yul\":16841:16853   */\n      lt\n        /* \"#utility.yul\":16831:16877   */\n      tag_525\n      jumpi\n        /* \"#utility.yul\":16857:16875   */\n      tag_526\n      tag_191\n      jump\t// in\n    tag_526:\n        /* \"#utility.yul\":16831:16877   */\n    tag_525:\n        /* \"#utility.yul\":16769:16883   */\n      pop\n      jump\t// out\n        /* \"#utility.yul\":16889:17018   */\n    tag_320:\n        /* \"#utility.yul\":16935:16942   */\n      0x00\n        /* \"#utility.yul\":16964:16969   */\n      dup2\n        /* \"#utility.yul\":16953:16969   */\n      swap1\n      pop\n        /* \"#utility.yul\":16970:17012   */\n      tag_528\n        /* \"#utility.yul\":17006:17011   */\n      dup3\n        /* \"#utility.yul\":16970:17012   */\n      tag_319\n      jump\t// in\n    tag_528:\n        /* \"#utility.yul\":16889:17018   */\n      swap2\n      swap1\n      pop\n      jump\t// out\n        /* \"#utility.yul\":17024:17153   */\n    tag_321:\n        /* \"#utility.yul\":17081:17090   */\n      0x00\n        /* \"#utility.yul\":17114:17147   */\n      tag_530\n        /* \"#utility.yul\":17141:17146   */\n      dup3\n        /* \"#utility.yul\":17114:17147   */\n      tag_320\n      jump\t// in\n    tag_530:\n        /* \"#utility.yul\":17101:17147   */\n      swap1\n      pop\n        /* \"#utility.yul\":17024:17153   */\n      swap2\n      swap1\n      pop\n      jump\t// out\n        /* \"#utility.yul\":17159:17304   */\n    tag_322:\n        /* \"#utility.yul\":17253:17297   */\n      tag_532\n        /* \"#utility.yul\":17291:17296   */\n      dup2\n        /* \"#utility.yul\":17253:17297   */\n      tag_321\n      jump\t// in\n    tag_532:\n        /* \"#utility.yul\":17248:17251   */\n      dup3\n        /* \"#utility.yul\":17241:17298   */\n      mstore\n        /* \"#utility.yul\":17159:17304   */\n      pop\n      pop\n      jump\t// out\n        /* \"#utility.yul\":17310:17546   */\n    tag_68:\n        /* \"#utility.yul\":17410:17414   */\n      0x00\n        /* \"#utility.yul\":17448:17450   */\n      0x20\n        /* \"#utility.yul\":17437:17446   */\n      dup3\n        /* \"#utility.yul\":17433:17451   */\n      add\n        /* \"#utility.yul\":17425:17451   */\n      swap1\n      pop\n        /* \"#utility.yul\":17461:17539   */\n      tag_534\n        /* \"#utility.yul\":17536:17537   */\n      0x00\n        /* \"#utility.yul\":17525:17534   */\n      dup4\n        /* \"#utility.yul\":17521:17538   */\n      add\n        /* \"#utility.yul\":17512:17518   */\n      dup5\n        /* \"#utility.yul\":17461:17539   */\n      tag_322\n      jump\t// in\n    tag_534:\n        /* \"#utility.yul\":17310:17546   */\n      swap3\n      swap2\n      pop\n      pop\n      jump\t// out\n        /* \"#utility.yul\":17552:17881   */\n    tag_71:\n        /* \"#utility.yul\":17611:17617   */\n      0x00\n        /* \"#utility.yul\":17660:17662   */\n      0x20\n        /* \"#utility.yul\":17648:17657   */\n      dup3\n        /* \"#utility.yul\":17639:17646   */\n      dup5\n        /* \"#utility.yul\":17635:17658   */\n      sub\n        /* \"#utility.yul\":17631:17663   */\n      slt\n        /* \"#utility.yul\":17628:17747   */\n      iszero\n      tag_536\n      jumpi\n        /* \"#utility.yul\":17666:17745   */\n      tag_537\n      tag_274\n      jump\t// in\n    tag_537:\n        /* \"#utility.yul\":17628:17747   */\n    tag_536:\n        /* \"#utility.yul\":17786:17787   */\n      0x00\n        /* \"#utility.yul\":17811:17864   */\n      tag_538\n        /* \"#utility.yul\":17856:17863   */\n      dup5\n        /* \"#utility.yul\":17847:17853   */\n      dup3\n        /* \"#utility.yul\":17836:17845   */\n      dup6\n        /* \"#utility.yul\":17832:17854   */\n      add\n        /* \"#utility.yul\":17811:17864   */\n      tag_318\n      jump\t// in\n    tag_538:\n        /* \"#utility.yul\":17801:17864   */\n      swap2\n      pop\n        /* \"#utility.yul\":17757:17874   */\n      pop\n        /* \"#utility.yul\":17552:17881   */\n      swap3\n      swap2\n      pop\n      pop\n      jump\t// out\n        /* \"#utility.yul\":17887:17991   */\n    tag_323:\n        /* \"#utility.yul\":17952:17958   */\n      0x00\n        /* \"#utility.yul\":17980:17984   */\n      0x03\n        /* \"#utility.yul\":17970:17984   */\n      swap1\n      pop\n        /* \"#utility.yul\":17887:17991   */\n      swap2\n      swap1\n      pop\n      jump\t// out\n        /* \"#utility.yul\":17997:18140   */\n    tag_324:\n        /* \"#utility.yul\":18094:18105   */\n      0x00\n        /* \"#utility.yul\":18131:18134   */\n      dup2\n        /* \"#utility.yul\":18116:18134   */\n      swap1\n      pop\n        /* \"#utility.yul\":17997:18140   */\n      swap3\n      swap2\n      pop\n      pop\n      jump\t// out\n        /* \"#utility.yul\":18146:18244   */\n    tag_325:\n        /* \"#utility.yul\":18211:18215   */\n      0x00\n        /* \"#utility.yul\":18234:18237   */\n      dup2\n        /* \"#utility.yul\":18226:18237   */\n      swap1\n      pop\n        /* \"#utility.yul\":18146:18244   */\n      swap2\n      swap1\n      pop\n      jump\t// out\n        /* \"#utility.yul\":18250:18358   */\n    tag_326:\n        /* \"#utility.yul\":18327:18351   */\n      tag_543\n        /* \"#utility.yul\":18345:18350   */\n      dup2\n        /* \"#utility.yul\":18327:18351   */\n      tag_290\n      jump\t// in\n    tag_543:\n        /* \"#utility.yul\":18322:18325   */\n      dup3\n        /* \"#utility.yul\":18315:18352   */\n      mstore\n        /* \"#utility.yul\":18250:18358   */\n      pop\n      pop\n      jump\t// out\n        /* \"#utility.yul\":18364:18543   */\n    tag_327:\n        /* \"#utility.yul\":18433:18443   */\n      0x00\n        /* \"#utility.yul\":18454:18500   */\n      tag_545\n        /* \"#utility.yul\":18496:18499   */\n      dup4\n        /* \"#utility.yul\":18488:18494   */\n      dup4\n        /* \"#utility.yul\":18454:18500   */\n      tag_326\n      jump\t// in\n    tag_545:\n        /* \"#utility.yul\":18532:18536   */\n      0x20\n        /* \"#utility.yul\":18527:18530   */\n      dup4\n        /* \"#utility.yul\":18523:18537   */\n      add\n        /* \"#utility.yul\":18509:18537   */\n      swap1\n      pop\n        /* \"#utility.yul\":18364:18543   */\n      swap3\n      swap2\n      pop\n      pop\n      jump\t// out\n        /* \"#utility.yul\":18549:18660   */\n    tag_328:\n        /* \"#utility.yul\":18617:18621   */\n      0x00\n        /* \"#utility.yul\":18649:18653   */\n      0x20\n        /* \"#utility.yul\":18644:18647   */\n      dup3\n        /* \"#utility.yul\":18640:18654   */\n      add\n        /* \"#utility.yul\":18632:18654   */\n      swap1\n      pop\n        /* \"#utility.yul\":18549:18660   */\n      swap2\n      swap1\n      pop\n      jump\t// out\n        /* \"#utility.yul\":18698:19392   */\n    tag_329:\n        /* \"#utility.yul\":18834:18886   */\n      tag_548\n        /* \"#utility.yul\":18880:18885   */\n      dup2\n        /* \"#utility.yul\":18834:18886   */\n      tag_323\n      jump\t// in\n    tag_548:\n        /* \"#utility.yul\":18902:18986   */\n      tag_549\n        /* \"#utility.yul\":18979:18985   */\n      dup2\n        /* \"#utility.yul\":18974:18977   */\n      dup5\n        /* \"#utility.yul\":18902:18986   */\n      tag_324\n      jump\t// in\n    tag_549:\n        /* \"#utility.yul\":18895:18986   */\n      swap3\n      pop\n        /* \"#utility.yul\":19010:19064   */\n      tag_550\n        /* \"#utility.yul\":19058:19063   */\n      dup3\n        /* \"#utility.yul\":19010:19064   */\n      tag_325\n      jump\t// in\n    tag_550:\n        /* \"#utility.yul\":19087:19094   */\n      dup1\n        /* \"#utility.yul\":19118:19119   */\n      0x00\n        /* \"#utility.yul\":19103:19385   */\n    tag_551:\n        /* \"#utility.yul\":19128:19134   */\n      dup4\n        /* \"#utility.yul\":19125:19126   */\n      dup2\n        /* \"#utility.yul\":19122:19135   */\n      lt\n        /* \"#utility.yul\":19103:19385   */\n      iszero\n      tag_553\n      jumpi\n        /* \"#utility.yul\":19204:19210   */\n      dup2\n        /* \"#utility.yul\":19198:19211   */\n      mload\n        /* \"#utility.yul\":19231:19294   */\n      tag_554\n        /* \"#utility.yul\":19290:19293   */\n      dup8\n        /* \"#utility.yul\":19275:19288   */\n      dup3\n        /* \"#utility.yul\":19231:19294   */\n      tag_327\n      jump\t// in\n    tag_554:\n        /* \"#utility.yul\":19224:19294   */\n      swap7\n      pop\n        /* \"#utility.yul\":19317:19375   */\n      tag_555\n        /* \"#utility.yul\":19368:19374   */\n      dup4\n        /* \"#utility.yul\":19317:19375   */\n      tag_328\n      jump\t// in\n    tag_555:\n        /* \"#utility.yul\":19307:19375   */\n      swap3\n      pop\n        /* \"#utility.yul\":19163:19385   */\n      pop\n        /* \"#utility.yul\":19150:19151   */\n      0x01\n        /* \"#utility.yul\":19147:19148   */\n      dup2\n        /* \"#utility.yul\":19143:19152   */\n      add\n        /* \"#utility.yul\":19138:19152   */\n      swap1\n      pop\n        /* \"#utility.yul\":19103:19385   */\n      jump(tag_551)\n    tag_553:\n        /* \"#utility.yul\":19107:19121   */\n      pop\n        /* \"#utility.yul\":18810:19392   */\n      pop\n      pop\n      pop\n        /* \"#utility.yul\":18698:19392   */\n      pop\n      pop\n      jump\t// out\n        /* \"#utility.yul\":19398:19712   */\n    tag_80:\n        /* \"#utility.yul\":19537:19541   */\n      0x00\n        /* \"#utility.yul\":19575:19577   */\n      0x60\n        /* \"#utility.yul\":19564:19573   */\n      dup3\n        /* \"#utility.yul\":19560:19578   */\n      add\n        /* \"#utility.yul\":19552:19578   */\n      swap1\n      pop\n        /* \"#utility.yul\":19588:19705   */\n      tag_557\n        /* \"#utility.yul\":19702:19703   */\n      0x00\n        /* \"#utility.yul\":19691:19700   */\n      dup4\n        /* \"#utility.yul\":19687:19704   */\n      add\n        /* \"#utility.yul\":19678:19684   */\n      dup5\n        /* \"#utility.yul\":19588:19705   */\n      tag_329\n      jump\t// in\n    tag_557:\n        /* \"#utility.yul\":19398:19712   */\n      swap3\n      swap2\n      pop\n      pop\n      jump\t// out\n        /* \"#utility.yul\":19718:19840   */\n    tag_330:\n        /* \"#utility.yul\":19791:19815   */\n      tag_559\n        /* \"#utility.yul\":19809:19814   */\n      dup2\n        /* \"#utility.yul\":19791:19815   */\n      tag_293\n      jump\t// in\n    tag_559:\n        /* \"#utility.yul\":19784:19789   */\n      dup2\n        /* \"#utility.yul\":19781:19816   */\n      eq\n        /* \"#utility.yul\":19771:19834   */\n      tag_560\n      jumpi\n        /* \"#utility.yul\":19830:19831   */\n      0x00\n        /* \"#utility.yul\":19827:19828   */\n      dup1\n        /* \"#utility.yul\":19820:19832   */\n      revert\n        /* \"#utility.yul\":19771:19834   */\n    tag_560:\n        /* \"#utility.yul\":19718:19840   */\n      pop\n      jump\t// out\n        /* \"#utility.yul\":19846:19985   */\n    tag_331:\n        /* \"#utility.yul\":19892:19897   */\n      0x00\n        /* \"#utility.yul\":19930:19936   */\n      dup2\n        /* \"#utility.yul\":19917:19937   */\n      calldataload\n        /* \"#utility.yul\":19908:19937   */\n      swap1\n      pop\n        /* \"#utility.yul\":19946:19979   */\n      tag_562\n        /* \"#utility.yul\":19973:19978   */\n      dup2\n        /* \"#utility.yul\":19946:19979   */\n      tag_330\n      jump\t// in\n    tag_562:\n        /* \"#utility.yul\":19846:19985   */\n      swap3\n      swap2\n      pop\n      pop\n      jump\t// out\n        /* \"#utility.yul\":19991:20465   */\n    tag_83:\n        /* \"#utility.yul\":20059:20065   */\n      0x00\n        /* \"#utility.yul\":20067:20073   */\n      dup1\n        /* \"#utility.yul\":20116:20118   */\n      0x40\n        /* \"#utility.yul\":20104:20113   */\n      dup4\n        /* \"#utility.yul\":20095:20102   */\n      dup6\n        /* \"#utility.yul\":20091:20114   */\n      sub\n        /* \"#utility.yul\":20087:20119   */\n      slt\n        /* \"#utility.yul\":20084:20203   */\n      iszero\n      tag_564\n      jumpi\n        /* \"#utility.yul\":20122:20201   */\n      tag_565\n      tag_274\n      jump\t// in\n    tag_565:\n        /* \"#utility.yul\":20084:20203   */\n    tag_564:\n        /* \"#utility.yul\":20242:20243   */\n      0x00\n        /* \"#utility.yul\":20267:20320   */\n      tag_566\n        /* \"#utility.yul\":20312:20319   */\n      dup6\n        /* \"#utility.yul\":20303:20309   */\n      dup3\n        /* \"#utility.yul\":20292:20301   */\n      dup7\n        /* \"#utility.yul\":20288:20310   */\n      add\n        /* \"#utility.yul\":20267:20320   */\n      tag_331\n      jump\t// in\n    tag_566:\n        /* \"#utility.yul\":20257:20320   */\n      swap3\n      pop\n        /* \"#utility.yul\":20213:20330   */\n      pop\n        /* \"#utility.yul\":20369:20371   */\n      0x20\n        /* \"#utility.yul\":20395:20448   */\n      tag_567\n        /* \"#utility.yul\":20440:20447   */\n      dup6\n        /* \"#utility.yul\":20431:20437   */\n      dup3\n        /* \"#utility.yul\":20420:20429   */\n      dup7\n        /* \"#utility.yul\":20416:20438   */\n      add\n        /* \"#utility.yul\":20395:20448   */\n      tag_331\n      jump\t// in\n    tag_567:\n        /* \"#utility.yul\":20385:20448   */\n      swap2\n      pop\n        /* \"#utility.yul\":20340:20458   */\n      pop\n        /* \"#utility.yul\":19991:20465   */\n      swap3\n      pop\n      swap3\n      swap1\n      pop\n      jump\t// out\n        /* \"#utility.yul\":20471:21090   */\n    tag_88:\n        /* \"#utility.yul\":20548:20554   */\n      0x00\n        /* \"#utility.yul\":20556:20562   */\n      dup1\n        /* \"#utility.yul\":20564:20570   */\n      0x00\n        /* \"#utility.yul\":20613:20615   */\n      0x60\n        /* \"#utility.yul\":20601:20610   */\n      dup5\n        /* \"#utility.yul\":20592:20599   */\n      dup7\n        /* \"#utility.yul\":20588:20611   */\n      sub\n        /* \"#utility.yul\":20584:20616   */\n      slt\n        /* \"#utility.yul\":20581:20700   */\n      iszero\n      tag_569\n      jumpi\n        /* \"#utility.yul\":20619:20698   */\n      tag_570\n      tag_274\n      jump\t// in\n    tag_570:\n        /* \"#utility.yul\":20581:20700   */\n    tag_569:\n        /* \"#utility.yul\":20739:20740   */\n      0x00\n        /* \"#utility.yul\":20764:20817   */\n      tag_571\n        /* \"#utility.yul\":20809:20816   */\n      dup7\n        /* \"#utility.yul\":20800:20806   */\n      dup3\n        /* \"#utility.yul\":20789:20798   */\n      dup8\n        /* \"#utility.yul\":20785:20807   */\n      add\n        /* \"#utility.yul\":20764:20817   */\n      tag_318\n      jump\t// in\n    tag_571:\n        /* \"#utility.yul\":20754:20817   */\n      swap4\n      pop\n        /* \"#utility.yul\":20710:20827   */\n      pop\n        /* \"#utility.yul\":20866:20868   */\n      0x20\n        /* \"#utility.yul\":20892:20945   */\n      tag_572\n        /* \"#utility.yul\":20937:20944   */\n      dup7\n        /* \"#utility.yul\":20928:20934   */\n      dup3\n        /* \"#utility.yul\":20917:20926   */\n      dup8\n        /* \"#utility.yul\":20913:20935   */\n      add\n        /* \"#utility.yul\":20892:20945   */\n      tag_318\n      jump\t// in\n    tag_572:\n        /* \"#utility.yul\":20882:20945   */\n      swap3\n      pop\n        /* \"#utility.yul\":20837:20955   */\n      pop\n        /* \"#utility.yul\":20994:20996   */\n      0x40\n        /* \"#utility.yul\":21020:21073   */\n      tag_573\n        /* \"#utility.yul\":21065:21072   */\n      dup7\n        /* \"#utility.yul\":21056:21062   */\n      dup3\n        /* \"#utility.yul\":21045:21054   */\n      dup8\n        /* \"#utility.yul\":21041:21063   */\n      add\n        /* \"#utility.yul\":21020:21073   */\n      tag_318\n      jump\t// in\n    tag_573:\n        /* \"#utility.yul\":21010:21073   */\n      swap2\n      pop\n        /* \"#utility.yul\":20965:21083   */\n      pop\n        /* \"#utility.yul\":20471:21090   */\n      swap3\n      pop\n      swap3\n      pop\n      swap3\n      jump\t// out\n        /* \"#utility.yul\":21096:21750   */\n    tag_94:\n        /* \"#utility.yul\":21174:21180   */\n      0x00\n        /* \"#utility.yul\":21182:21188   */\n      dup1\n        /* \"#utility.yul\":21231:21233   */\n      0x40\n        /* \"#utility.yul\":21219:21228   */\n      dup4\n        /* \"#utility.yul\":21210:21217   */\n      dup6\n        /* \"#utility.yul\":21206:21229   */\n      sub\n        /* \"#utility.yul\":21202:21234   */\n      slt\n        /* \"#utility.yul\":21199:21318   */\n      iszero\n      tag_575\n      jumpi\n        /* \"#utility.yul\":21237:21316   */\n      tag_576\n      tag_274\n      jump\t// in\n    tag_576:\n        /* \"#utility.yul\":21199:21318   */\n    tag_575:\n        /* \"#utility.yul\":21385:21386   */\n      0x00\n        /* \"#utility.yul\":21374:21383   */\n      dup4\n        /* \"#utility.yul\":21370:21387   */\n      add\n        /* \"#utility.yul\":21357:21388   */\n      calldataload\n        /* \"#utility.yul\":21415:21433   */\n      0xffffffffffffffff\n        /* \"#utility.yul\":21407:21413   */\n      dup2\n        /* \"#utility.yul\":21404:21434   */\n      gt\n        /* \"#utility.yul\":21401:21518   */\n      iszero\n      tag_577\n      jumpi\n        /* \"#utility.yul\":21437:21516   */\n      tag_578\n      tag_275\n      jump\t// in\n    tag_578:\n        /* \"#utility.yul\":21401:21518   */\n    tag_577:\n        /* \"#utility.yul\":21542:21605   */\n      tag_579\n        /* \"#utility.yul\":21597:21604   */\n      dup6\n        /* \"#utility.yul\":21588:21594   */\n      dup3\n        /* \"#utility.yul\":21577:21586   */\n      dup7\n        /* \"#utility.yul\":21573:21595   */\n      add\n        /* \"#utility.yul\":21542:21605   */\n      tag_315\n      jump\t// in\n    tag_579:\n        /* \"#utility.yul\":21532:21605   */\n      swap3\n      pop\n        /* \"#utility.yul\":21328:21615   */\n      pop\n        /* \"#utility.yul\":21654:21656   */\n      0x20\n        /* \"#utility.yul\":21680:21733   */\n      tag_580\n        /* \"#utility.yul\":21725:21732   */\n      dup6\n        /* \"#utility.yul\":21716:21722   */\n      dup3\n        /* \"#utility.yul\":21705:21714   */\n      dup7\n        /* \"#utility.yul\":21701:21723   */\n      add\n        /* \"#utility.yul\":21680:21733   */\n      tag_318\n      jump\t// in\n    tag_580:\n        /* \"#utility.yul\":21670:21733   */\n      swap2\n      pop\n        /* \"#utility.yul\":21625:21743   */\n      pop\n        /* \"#utility.yul\":21096:21750   */\n      swap3\n      pop\n      swap3\n      swap1\n      pop\n      jump\t// out\n        /* \"#utility.yul\":21756:21871   */\n    tag_332:\n        /* \"#utility.yul\":21841:21864   */\n      tag_582\n        /* \"#utility.yul\":21858:21863   */\n      dup2\n        /* \"#utility.yul\":21841:21864   */\n      tag_276\n      jump\t// in\n    tag_582:\n        /* \"#utility.yul\":21836:21839   */\n      dup3\n        /* \"#utility.yul\":21829:21865   */\n      mstore\n        /* \"#utility.yul\":21756:21871   */\n      pop\n      pop\n      jump\t// out\n        /* \"#utility.yul\":21877:22402   */\n    tag_97:\n        /* \"#utility.yul\":22042:22046   */\n      0x00\n        /* \"#utility.yul\":22080:22082   */\n      0x60\n        /* \"#utility.yul\":22069:22078   */\n      dup3\n        /* \"#utility.yul\":22065:22083   */\n      add\n        /* \"#utility.yul\":22057:22083   */\n      swap1\n      pop\n        /* \"#utility.yul\":22129:22138   */\n      dup2\n        /* \"#utility.yul\":22123:22127   */\n      dup2\n        /* \"#utility.yul\":22119:22139   */\n      sub\n        /* \"#utility.yul\":22115:22116   */\n      0x00\n        /* \"#utility.yul\":22104:22113   */\n      dup4\n        /* \"#utility.yul\":22100:22117   */\n      add\n        /* \"#utility.yul\":22093:22140   */\n      mstore\n        /* \"#utility.yul\":22157:22235   */\n      tag_584\n        /* \"#utility.yul\":22230:22234   */\n      dup2\n        /* \"#utility.yul\":22221:22227   */\n      dup7\n        /* \"#utility.yul\":22157:22235   */\n      tag_310\n      jump\t// in\n    tag_584:\n        /* \"#utility.yul\":22149:22235   */\n      swap1\n      pop\n        /* \"#utility.yul\":22245:22315   */\n      tag_585\n        /* \"#utility.yul\":22311:22313   */\n      0x20\n        /* \"#utility.yul\":22300:22309   */\n      dup4\n        /* \"#utility.yul\":22296:22314   */\n      add\n        /* \"#utility.yul\":22287:22293   */\n      dup6\n        /* \"#utility.yul\":22245:22315   */\n      tag_332\n      jump\t// in\n    tag_585:\n        /* \"#utility.yul\":22325:22395   */\n      tag_586\n        /* \"#utility.yul\":22391:22393   */\n      0x40\n        /* \"#utility.yul\":22380:22389   */\n      dup4\n        /* \"#utility.yul\":22376:22394   */\n      add\n        /* \"#utility.yul\":22367:22373   */\n      dup5\n        /* \"#utility.yul\":22325:22395   */\n      tag_332\n      jump\t// in\n    tag_586:\n        /* \"#utility.yul\":21877:22402   */\n      swap5\n      swap4\n      pop\n      pop\n      pop\n      pop\n      jump\t// out\n        /* \"#utility.yul\":22408:22719   */\n    tag_333:\n        /* \"#utility.yul\":22485:22489   */\n      0x00\n        /* \"#utility.yul\":22575:22593   */\n      0xffffffffffffffff\n        /* \"#utility.yul\":22567:22573   */\n      dup3\n        /* \"#utility.yul\":22564:22594   */\n      gt\n        /* \"#utility.yul\":22561:22617   */\n      iszero\n      tag_588\n      jumpi\n        /* \"#utility.yul\":22597:22615   */\n      tag_589\n      tag_281\n      jump\t// in\n    tag_589:\n        /* \"#utility.yul\":22561:22617   */\n    tag_588:\n        /* \"#utility.yul\":22647:22651   */\n      0x20\n        /* \"#utility.yul\":22639:22645   */\n      dup3\n        /* \"#utility.yul\":22635:22652   */\n      mul\n        /* \"#utility.yul\":22627:22652   */\n      swap1\n      pop\n        /* \"#utility.yul\":22707:22711   */\n      0x20\n        /* \"#utility.yul\":22701:22705   */\n      dup2\n        /* \"#utility.yul\":22697:22712   */\n      add\n        /* \"#utility.yul\":22689:22712   */\n      swap1\n      pop\n        /* \"#utility.yul\":22408:22719   */\n      swap2\n      swap1\n      pop\n      jump\t// out\n        /* \"#utility.yul\":22742:23452   */\n    tag_334:\n        /* \"#utility.yul\":22838:22843   */\n      0x00\n        /* \"#utility.yul\":22863:22944   */\n      tag_591\n        /* \"#utility.yul\":22879:22943   */\n      tag_592\n        /* \"#utility.yul\":22936:22942   */\n      dup5\n        /* \"#utility.yul\":22879:22943   */\n      tag_333\n      jump\t// in\n    tag_592:\n        /* \"#utility.yul\":22863:22944   */\n      tag_283\n      jump\t// in\n    tag_591:\n        /* \"#utility.yul\":22854:22944   */\n      swap1\n      pop\n        /* \"#utility.yul\":22964:22969   */\n      dup1\n        /* \"#utility.yul\":22993:22999   */\n      dup4\n        /* \"#utility.yul\":22986:22991   */\n      dup3\n        /* \"#utility.yul\":22979:23000   */\n      mstore\n        /* \"#utility.yul\":23027:23031   */\n      0x20\n        /* \"#utility.yul\":23020:23025   */\n      dup3\n        /* \"#utility.yul\":23016:23032   */\n      add\n        /* \"#utility.yul\":23009:23032   */\n      swap1\n      pop\n        /* \"#utility.yul\":23080:23084   */\n      0x20\n        /* \"#utility.yul\":23072:23078   */\n      dup5\n        /* \"#utility.yul\":23068:23085   */\n      mul\n        /* \"#utility.yul\":23060:23066   */\n      dup4\n        /* \"#utility.yul\":23056:23086   */\n      add\n        /* \"#utility.yul\":23109:23112   */\n      dup6\n        /* \"#utility.yul\":23101:23107   */\n      dup2\n        /* \"#utility.yul\":23098:23113   */\n      gt\n        /* \"#utility.yul\":23095:23217   */\n      iszero\n      tag_593\n      jumpi\n        /* \"#utility.yul\":23128:23207   */\n      tag_594\n      tag_285\n      jump\t// in\n    tag_594:\n        /* \"#utility.yul\":23095:23217   */\n    tag_593:\n        /* \"#utility.yul\":23243:23249   */\n      dup4\n        /* \"#utility.yul\":23226:23446   */\n    tag_595:\n        /* \"#utility.yul\":23260:23266   */\n      dup2\n        /* \"#utility.yul\":23255:23258   */\n      dup2\n        /* \"#utility.yul\":23252:23267   */\n      lt\n        /* \"#utility.yul\":23226:23446   */\n      iszero\n      tag_597\n      jumpi\n        /* \"#utility.yul\":23335:23338   */\n      dup1\n        /* \"#utility.yul\":23364:23401   */\n      tag_598\n        /* \"#utility.yul\":23397:23400   */\n      dup9\n        /* \"#utility.yul\":23385:23395   */\n      dup3\n        /* \"#utility.yul\":23364:23401   */\n      tag_318\n      jump\t// in\n    tag_598:\n        /* \"#utility.yul\":23359:23362   */\n      dup5\n        /* \"#utility.yul\":23352:23402   */\n      mstore\n        /* \"#utility.yul\":23431:23435   */\n      0x20\n        /* \"#utility.yul\":23426:23429   */\n      dup5\n        /* \"#utility.yul\":23422:23436   */\n      add\n        /* \"#utility.yul\":23415:23436   */\n      swap4\n      pop\n        /* \"#utility.yul\":23302:23446   */\n      pop\n        /* \"#utility.yul\":23286:23290   */\n      0x20\n        /* \"#utility.yul\":23281:23284   */\n      dup2\n        /* \"#utility.yul\":23277:23291   */\n      add\n        /* \"#utility.yul\":23270:23291   */\n      swap1\n      pop\n        /* \"#utility.yul\":23226:23446   */\n      jump(tag_595)\n    tag_597:\n        /* \"#utility.yul\":23230:23251   */\n      pop\n        /* \"#utility.yul\":22844:23452   */\n      pop\n      pop\n        /* \"#utility.yul\":22742:23452   */\n      swap4\n      swap3\n      pop\n      pop\n      pop\n      jump\t// out\n        /* \"#utility.yul\":23475:23845   */\n    tag_335:\n        /* \"#utility.yul\":23546:23551   */\n      0x00\n        /* \"#utility.yul\":23595:23598   */\n      dup3\n        /* \"#utility.yul\":23588:23592   */\n      0x1f\n        /* \"#utility.yul\":23580:23586   */\n      dup4\n        /* \"#utility.yul\":23576:23593   */\n      add\n        /* \"#utility.yul\":23572:23599   */\n      slt\n        /* \"#utility.yul\":23562:23684   */\n      tag_600\n      jumpi\n        /* \"#utility.yul\":23603:23682   */\n      tag_601\n      tag_279\n      jump\t// in\n    tag_601:\n        /* \"#utility.yul\":23562:23684   */\n    tag_600:\n        /* \"#utility.yul\":23720:23726   */\n      dup2\n        /* \"#utility.yul\":23707:23727   */\n      calldataload\n        /* \"#utility.yul\":23745:23839   */\n      tag_602\n        /* \"#utility.yul\":23835:23838   */\n      dup5\n        /* \"#utility.yul\":23827:23833   */\n      dup3\n        /* \"#utility.yul\":23820:23824   */\n      0x20\n        /* \"#utility.yul\":23812:23818   */\n      dup7\n        /* \"#utility.yul\":23808:23825   */\n      add\n        /* \"#utility.yul\":23745:23839   */\n      tag_334\n      jump\t// in\n    tag_602:\n        /* \"#utility.yul\":23736:23839   */\n      swap2\n      pop\n        /* \"#utility.yul\":23552:23845   */\n      pop\n        /* \"#utility.yul\":23475:23845   */\n      swap3\n      swap2\n      pop\n      pop\n      jump\t// out\n        /* \"#utility.yul\":23851:24390   */\n    tag_100:\n        /* \"#utility.yul\":23935:23941   */\n      0x00\n        /* \"#utility.yul\":23984:23986   */\n      0x20\n        /* \"#utility.yul\":23972:23981   */\n      dup3\n        /* \"#utility.yul\":23963:23970   */\n      dup5\n        /* \"#utility.yul\":23959:23982   */\n      sub\n        /* \"#utility.yul\":23955:23987   */\n      slt\n        /* \"#utility.yul\":23952:24071   */\n      iszero\n      tag_604\n      jumpi\n        /* \"#utility.yul\":23990:24069   */\n      tag_605\n      tag_274\n      jump\t// in\n    tag_605:\n        /* \"#utility.yul\":23952:24071   */\n    tag_604:\n        /* \"#utility.yul\":24138:24139   */\n      0x00\n        /* \"#utility.yul\":24127:24136   */\n      dup3\n        /* \"#utility.yul\":24123:24140   */\n      add\n        /* \"#utility.yul\":24110:24141   */\n      calldataload\n        /* \"#utility.yul\":24168:24186   */\n      0xffffffffffffffff\n        /* \"#utility.yul\":24160:24166   */\n      dup2\n        /* \"#utility.yul\":24157:24187   */\n      gt\n        /* \"#utility.yul\":24154:24271   */\n      iszero\n      tag_606\n      jumpi\n        /* \"#utility.yul\":24190:24269   */\n      tag_607\n      tag_275\n      jump\t// in\n    tag_607:\n        /* \"#utility.yul\":24154:24271   */\n    tag_606:\n        /* \"#utility.yul\":24295:24373   */\n      tag_608\n        /* \"#utility.yul\":24365:24372   */\n      dup5\n        /* \"#utility.yul\":24356:24362   */\n      dup3\n        /* \"#utility.yul\":24345:24354   */\n      dup6\n        /* \"#utility.yul\":24341:24363   */\n      add\n        /* \"#utility.yul\":24295:24373   */\n      tag_335\n      jump\t// in\n    tag_608:\n        /* \"#utility.yul\":24285:24373   */\n      swap2\n      pop\n        /* \"#utility.yul\":24081:24383   */\n      pop\n        /* \"#utility.yul\":23851:24390   */\n      swap3\n      swap2\n      pop\n      pop\n      jump\t// out\n        /* \"#utility.yul\":24396:24504   */\n    tag_336:\n        /* \"#utility.yul\":24478:24479   */\n      0x03\n        /* \"#utility.yul\":24471:24476   */\n      dup2\n        /* \"#utility.yul\":24468:24480   */\n      lt\n        /* \"#utility.yul\":24458:24498   */\n      tag_610\n      jumpi\n        /* \"#utility.yul\":24494:24495   */\n      0x00\n        /* \"#utility.yul\":24491:24492   */\n      dup1\n        /* \"#utility.yul\":24484:24496   */\n      revert\n        /* \"#utility.yul\":24458:24498   */\n    tag_610:\n        /* \"#utility.yul\":24396:24504   */\n      pop\n      jump\t// out\n        /* \"#utility.yul\":24510:24667   */\n    tag_337:\n        /* \"#utility.yul\":24565:24570   */\n      0x00\n        /* \"#utility.yul\":24603:24609   */\n      dup2\n        /* \"#utility.yul\":24590:24610   */\n      calldataload\n        /* \"#utility.yul\":24581:24610   */\n      swap1\n      pop\n        /* \"#utility.yul\":24619:24661   */\n      tag_612\n        /* \"#utility.yul\":24655:24660   */\n      dup2\n        /* \"#utility.yul\":24619:24661   */\n      tag_336\n      jump\t// in\n    tag_612:\n        /* \"#utility.yul\":24510:24667   */\n      swap3\n      swap2\n      pop\n      pop\n      jump\t// out\n        /* \"#utility.yul\":24673:25020   */\n    tag_105:\n        /* \"#utility.yul\":24741:24747   */\n      0x00\n        /* \"#utility.yul\":24790:24792   */\n      0x20\n        /* \"#utility.yul\":24778:24787   */\n      dup3\n        /* \"#utility.yul\":24769:24776   */\n      dup5\n        /* \"#utility.yul\":24765:24788   */\n      sub\n        /* \"#utility.yul\":24761:24793   */\n      slt\n        /* \"#utility.yul\":24758:24877   */\n      iszero\n      tag_614\n      jumpi\n        /* \"#utility.yul\":24796:24875   */\n      tag_615\n      tag_274\n      jump\t// in\n    tag_615:\n        /* \"#utility.yul\":24758:24877   */\n    tag_614:\n        /* \"#utility.yul\":24916:24917   */\n      0x00\n        /* \"#utility.yul\":24941:25003   */\n      tag_616\n        /* \"#utility.yul\":24995:25002   */\n      dup5\n        /* \"#utility.yul\":24986:24992   */\n      dup3\n        /* \"#utility.yul\":24975:24984   */\n      dup6\n        /* \"#utility.yul\":24971:24993   */\n      add\n        /* \"#utility.yul\":24941:25003   */\n      tag_337\n      jump\t// in\n    tag_616:\n        /* \"#utility.yul\":24931:25003   */\n      swap2\n      pop\n        /* \"#utility.yul\":24887:25013   */\n      pop\n        /* \"#utility.yul\":24673:25020   */\n      swap3\n      swap2\n      pop\n      pop\n      jump\t// out\n        /* \"#utility.yul\":25026:25355   */\n    tag_109:\n        /* \"#utility.yul\":25085:25091   */\n      0x00\n        /* \"#utility.yul\":25134:25136   */\n      0x20\n        /* \"#utility.yul\":25122:25131   */\n      dup3\n        /* \"#utility.yul\":25113:25120   */\n      dup5\n        /* \"#utility.yul\":25109:25132   */\n      sub\n        /* \"#utility.yul\":25105:25137   */\n      slt\n        /* \"#utility.yul\":25102:25221   */\n      iszero\n      tag_618\n      jumpi\n        /* \"#utility.yul\":25140:25219   */\n      tag_619\n      tag_274\n      jump\t// in\n    tag_619:\n        /* \"#utility.yul\":25102:25221   */\n    tag_618:\n        /* \"#utility.yul\":25260:25261   */\n      0x00\n        /* \"#utility.yul\":25285:25338   */\n      tag_620\n        /* \"#utility.yul\":25330:25337   */\n      dup5\n        /* \"#utility.yul\":25321:25327   */\n      dup3\n        /* \"#utility.yul\":25310:25319   */\n      dup6\n        /* \"#utility.yul\":25306:25328   */\n      add\n        /* \"#utility.yul\":25285:25338   */\n      tag_331\n      jump\t// in\n    tag_620:\n        /* \"#utility.yul\":25275:25338   */\n      swap2\n      pop\n        /* \"#utility.yul\":25231:25348   */\n      pop\n        /* \"#utility.yul\":25026:25355   */\n      swap3\n      swap2\n      pop\n      pop\n      jump\t// out\n        /* \"#utility.yul\":25361:25541   */\n    tag_121:\n        /* \"#utility.yul\":25409:25486   */\n      0x4e487b7100000000000000000000000000000000000000000000000000000000\n        /* \"#utility.yul\":25406:25407   */\n      0x00\n        /* \"#utility.yul\":25399:25487   */\n      mstore\n        /* \"#utility.yul\":25506:25510   */\n      0x32\n        /* \"#utility.yul\":25503:25504   */\n      0x04\n        /* \"#utility.yul\":25496:25511   */\n      mstore\n        /* \"#utility.yul\":25530:25534   */\n      0x24\n        /* \"#utility.yul\":25527:25528   */\n      0x00\n        /* \"#utility.yul\":25520:25535   */\n      revert\n        /* \"#utility.yul\":25547:25727   */\n    tag_338:\n        /* \"#utility.yul\":25595:25672   */\n      0x4e487b7100000000000000000000000000000000000000000000000000000000\n        /* \"#utility.yul\":25592:25593   */\n      0x00\n        /* \"#utility.yul\":25585:25673   */\n      mstore\n        /* \"#utility.yul\":25692:25696   */\n      0x11\n        /* \"#utility.yul\":25689:25690   */\n      0x04\n        /* \"#utility.yul\":25682:25697   */\n      mstore\n        /* \"#utility.yul\":25716:25720   */\n      0x24\n        /* \"#utility.yul\":25713:25714   */\n      0x00\n        /* \"#utility.yul\":25706:25721   */\n      revert\n        /* \"#utility.yul\":25733:25966   */\n    tag_124:\n        /* \"#utility.yul\":25772:25775   */\n      0x00\n        /* \"#utility.yul\":25795:25819   */\n      tag_624\n        /* \"#utility.yul\":25813:25818   */\n      dup3\n        /* \"#utility.yul\":25795:25819   */\n      tag_290\n      jump\t// in\n    tag_624:\n        /* \"#utility.yul\":25786:25819   */\n      swap2\n      pop\n        /* \"#utility.yul\":25841:25907   */\n      0xffffffffffffffffffffffffffffffffffffffffffffffffffffffffffffffff\n        /* \"#utility.yul\":25834:25839   */\n      dup3\n        /* \"#utility.yul\":25831:25908   */\n      sub\n        /* \"#utility.yul\":25828:25931   */\n      tag_625\n      jumpi\n        /* \"#utility.yul\":25911:25929   */\n      tag_626\n      tag_338\n      jump\t// in\n    tag_626:\n        /* \"#utility.yul\":25828:25931   */\n    tag_625:\n        /* \"#utility.yul\":25958:25959   */\n      0x01\n        /* \"#utility.yul\":25951:25956   */\n      dup3\n        /* \"#utility.yul\":25947:25960   */\n      add\n        /* \"#utility.yul\":25940:25960   */\n      swap1\n      pop\n        /* \"#utility.yul\":25733:25966   */\n      swap2\n      swap1\n      pop\n      jump\t// out\n        /* \"#utility.yul\":25972:26120   */\n    tag_339:\n        /* \"#utility.yul\":26074:26085   */\n      0x00\n        /* \"#utility.yul\":26111:26114   */\n      dup2\n        /* \"#utility.yul\":26096:26114   */\n      swap1\n      pop\n        /* \"#utility.yul\":25972:26120   */\n      swap3\n      swap2\n      pop\n      pop\n      jump\t// out\n        /* \"#utility.yul\":26126:26284   */\n    tag_340:\n        /* \"#utility.yul\":26266:26276   */\n      0x73747564656e7473000000000000000000000000000000000000000000000000\n        /* \"#utility.yul\":26262:26263   */\n      0x00\n        /* \"#utility.yul\":26254:26260   */\n      dup3\n        /* \"#utility.yul\":26250:26264   */\n      add\n        /* \"#utility.yul\":26243:26277   */\n      mstore\n        /* \"#utility.yul\":26126:26284   */\n      pop\n      jump\t// out\n        /* \"#utility.yul\":26290:26690   */\n    tag_341:\n        /* \"#utility.yul\":26450:26453   */\n      0x00\n        /* \"#utility.yul\":26471:26555   */\n      tag_630\n        /* \"#utility.yul\":26553:26554   */\n      0x08\n        /* \"#utility.yul\":26548:26551   */\n      dup4\n        /* \"#utility.yul\":26471:26555   */\n      tag_339\n      jump\t// in\n    tag_630:\n        /* \"#utility.yul\":26464:26555   */\n      swap2\n      pop\n        /* \"#utility.yul\":26564:26657   */\n      tag_631\n        /* \"#utility.yul\":26653:26656   */\n      dup3\n        /* \"#utility.yul\":26564:26657   */\n      tag_340\n      jump\t// in\n    tag_631:\n        /* \"#utility.yul\":26682:26683   */\n      0x08\n        /* \"#utility.yul\":26677:26680   */\n      dup3\n        /* \"#utility.yul\":26673:26684   */\n      add\n        /* \"#utility.yul\":26666:26684   */\n      swap1\n      pop\n        /* \"#utility.yul\":26290:26690   */\n      swap2\n      swap1\n      pop\n      jump\t// out\n        /* \"#utility.yul\":26696:27077   */\n    tag_155:\n        /* \"#utility.yul\":26881:26884   */\n      0x00\n        /* \"#utility.yul\":26903:27051   */\n      tag_633\n        /* \"#utility.yul\":27047:27050   */\n      dup3\n        /* \"#utility.yul\":26903:27051   */\n      tag_341\n      jump\t// in\n    tag_633:\n        /* \"#utility.yul\":26896:27051   */\n      swap2\n      pop\n        /* \"#utility.yul\":27068:27071   */\n      dup2\n        /* \"#utility.yul\":27061:27071   */\n      swap1\n      pop\n        /* \"#utility.yul\":26696:27077   */\n      swap2\n      swap1\n      pop\n      jump\t// out\n        /* \"#utility.yul\":27083:27263   */\n    tag_342:\n        /* \"#utility.yul\":27131:27208   */\n      0x4e487b7100000000000000000000000000000000000000000000000000000000\n        /* \"#utility.yul\":27128:27129   */\n      0x00\n        /* \"#utility.yul\":27121:27209   */\n      mstore\n        /* \"#utility.yul\":27228:27232   */\n      0x22\n        /* \"#utility.yul\":27225:27226   */\n      0x04\n        /* \"#utility.yul\":27218:27233   */\n      mstore\n        /* \"#utility.yul\":27252:27256   */\n      0x24\n        /* \"#utility.yul\":27249:27250   */\n      0x00\n        /* \"#utility.yul\":27242:27257   */\n      revert\n        /* \"#utility.yul\":27269:27589   */\n    tag_160:\n        /* \"#utility.yul\":27313:27319   */\n      0x00\n        /* \"#utility.yul\":27350:27351   */\n      0x02\n        /* \"#utility.yul\":27344:27348   */\n      dup3\n        /* \"#utility.yul\":27340:27352   */\n      div\n        /* \"#utility.yul\":27330:27352   */\n      swap1\n      pop\n        /* \"#utility.yul\":27397:27398   */\n      0x01\n        /* \"#utility.yul\":27391:27395   */\n      dup3\n        /* \"#utility.yul\":27387:27399   */\n      and\n        /* \"#utility.yul\":27418:27436   */\n      dup1\n        /* \"#utility.yul\":27408:27489   */\n      tag_636\n      jumpi\n        /* \"#utility.yul\":27474:27478   */\n      0x7f\n        /* \"#utility.yul\":27466:27472   */\n      dup3\n        /* \"#utility.yul\":27462:27479   */\n      and\n        /* \"#utility.yul\":27452:27479   */\n      swap2\n      pop\n        /* \"#utility.yul\":27408:27489   */\n    tag_636:\n        /* \"#utility.yul\":27536:27538   */\n      0x20\n        /* \"#utility.yul\":27528:27534   */\n      dup3\n        /* \"#utility.yul\":27525:27539   */\n      lt\n        /* \"#utility.yul\":27505:27523   */\n      dup2\n        /* \"#utility.yul\":27502:27540   */\n      sub\n        /* \"#utility.yul\":27499:27583   */\n      tag_637\n      jumpi\n        /* \"#utility.yul\":27555:27573   */\n      tag_638\n      tag_342\n      jump\t// in\n    tag_638:\n        /* \"#utility.yul\":27499:27583   */\n    tag_637:\n        /* \"#utility.yul\":27320:27589   */\n      pop\n        /* \"#utility.yul\":27269:27589   */\n      swap2\n      swap1\n      pop\n      jump\t// out\n        /* \"#utility.yul\":27619:27949   */\n    tag_343:\n        /* \"#utility.yul\":27735:27738   */\n      0x00\n        /* \"#utility.yul\":27756:27845   */\n      tag_640\n        /* \"#utility.yul\":27838:27844   */\n      dup4\n        /* \"#utility.yul\":27833:27836   */\n      dup6\n        /* \"#utility.yul\":27756:27845   */\n      tag_339\n      jump\t// in\n    tag_640:\n        /* \"#utility.yul\":27749:27845   */\n      swap4\n      pop\n        /* \"#utility.yul\":27855:27911   */\n      tag_641\n        /* \"#utility.yul\":27904:27910   */\n      dup4\n        /* \"#utility.yul\":27899:27902   */\n      dup6\n        /* \"#utility.yul\":27892:27897   */\n      dup5\n        /* \"#utility.yul\":27855:27911   */\n      tag_313\n      jump\t// in\n    tag_641:\n        /* \"#utility.yul\":27936:27942   */\n      dup3\n        /* \"#utility.yul\":27931:27934   */\n      dup5\n        /* \"#utility.yul\":27927:27943   */\n      add\n        /* \"#utility.yul\":27920:27943   */\n      swap1\n      pop\n        /* \"#utility.yul\":27619:27949   */\n      swap4\n      swap3\n      pop\n      pop\n      pop\n      jump\t// out\n        /* \"#utility.yul\":27955:28430   */\n    tag_167:\n        /* \"#utility.yul\":28155:28158   */\n      0x00\n        /* \"#utility.yul\":28177:28282   */\n      tag_643\n        /* \"#utility.yul\":28278:28281   */\n      dup3\n        /* \"#utility.yul\":28269:28275   */\n      dup7\n        /* \"#utility.yul\":28261:28267   */\n      dup9\n        /* \"#utility.yul\":28177:28282   */\n      tag_343\n      jump\t// in\n    tag_643:\n        /* \"#utility.yul\":28170:28282   */\n      swap2\n      pop\n        /* \"#utility.yul\":28299:28404   */\n      tag_644\n        /* \"#utility.yul\":28400:28403   */\n      dup3\n        /* \"#utility.yul\":28391:28397   */\n      dup5\n        /* \"#utility.yul\":28383:28389   */\n      dup7\n        /* \"#utility.yul\":28299:28404   */\n      tag_343\n      jump\t// in\n    tag_644:\n        /* \"#utility.yul\":28292:28404   */\n      swap2\n      pop\n        /* \"#utility.yul\":28421:28424   */\n      dup2\n        /* \"#utility.yul\":28414:28424   */\n      swap1\n      pop\n        /* \"#utility.yul\":27955:28430   */\n      swap6\n      swap5\n      pop\n      pop\n      pop\n      pop\n      pop\n      jump\t// out\n        /* \"#utility.yul\":28436:28577   */\n    tag_344:\n        /* \"#utility.yul\":28485:28489   */\n      0x00\n        /* \"#utility.yul\":28508:28511   */\n      dup2\n        /* \"#utility.yul\":28500:28511   */\n      swap1\n      pop\n        /* \"#utility.yul\":28531:28534   */\n      dup2\n        /* \"#utility.yul\":28528:28529   */\n      0x00\n        /* \"#utility.yul\":28521:28535   */\n      mstore\n        /* \"#utility.yul\":28565:28569   */\n      0x20\n        /* \"#utility.yul\":28562:28563   */\n      0x00\n        /* \"#utility.yul\":28552:28570   */\n      keccak256\n        /* \"#utility.yul\":28544:28570   */\n      swap1\n      pop\n        /* \"#utility.yul\":28436:28577   */\n      swap2\n      swap1\n      pop\n      jump\t// out\n        /* \"#utility.yul\":28583:28676   */\n    tag_345:\n        /* \"#utility.yul\":28620:28626   */\n      0x00\n        /* \"#utility.yul\":28667:28669   */\n      0x20\n        /* \"#utility.yul\":28662:28664   */\n      0x1f\n        /* \"#utility.yul\":28655:28660   */\n      dup4\n        /* \"#utility.yul\":28651:28665   */\n      add\n        /* \"#utility.yul\":28647:28670   */\n      div\n        /* \"#utility.yul\":28637:28670   */\n      swap1\n      pop\n        /* \"#utility.yul\":28583:28676   */\n      swap2\n      swap1\n      pop\n      jump\t// out\n        /* \"#utility.yul\":28682:28789   */\n    tag_346:\n        /* \"#utility.yul\":28726:28734   */\n      0x00\n        /* \"#utility.yul\":28776:28781   */\n      dup3\n        /* \"#utility.yul\":28770:28774   */\n      dup3\n        /* \"#utility.yul\":28766:28782   */\n      shl\n        /* \"#utility.yul\":28745:28782   */\n      swap1\n      pop\n        /* \"#utility.yul\":28682:28789   */\n      swap3\n      swap2\n      pop\n      pop\n      jump\t// out\n        /* \"#utility.yul\":28795:29188   */\n    tag_347:\n        /* \"#utility.yul\":28864:28870   */\n      0x00\n        /* \"#utility.yul\":28914:28915   */\n      0x08\n        /* \"#utility.yul\":28902:28912   */\n      dup4\n        /* \"#utility.yul\":28898:28916   */\n      mul\n        /* \"#utility.yul\":28937:29034   */\n      tag_649\n        /* \"#utility.yul\":28967:29033   */\n      0xffffffffffffffffffffffffffffffffffffffffffffffffffffffffffffffff\n        /* \"#utility.yul\":28956:28965   */\n      dup3\n        /* \"#utility.yul\":28937:29034   */\n      tag_346\n      jump\t// in\n    tag_649:\n        /* \"#utility.yul\":29055:29094   */\n      tag_650\n        /* \"#utility.yul\":29085:29093   */\n      dup7\n        /* \"#utility.yul\":29074:29083   */\n      dup4\n        /* \"#utility.yul\":29055:29094   */\n      tag_346\n      jump\t// in\n    tag_650:\n        /* \"#utility.yul\":29043:29094   */\n      swap6\n      pop\n        /* \"#utility.yul\":29127:29131   */\n      dup1\n        /* \"#utility.yul\":29123:29132   */\n      not\n        /* \"#utility.yul\":29116:29121   */\n      dup5\n        /* \"#utility.yul\":29112:29133   */\n      and\n        /* \"#utility.yul\":29103:29133   */\n      swap4\n      pop\n        /* \"#utility.yul\":29176:29180   */\n      dup1\n        /* \"#utility.yul\":29166:29174   */\n      dup7\n        /* \"#utility.yul\":29162:29181   */\n      and\n        /* \"#utility.yul\":29155:29160   */\n      dup5\n        /* \"#utility.yul\":29152:29182   */\n      or\n        /* \"#utility.yul\":29142:29182   */\n      swap3\n      pop\n        /* \"#utility.yul\":28871:29188   */\n      pop\n      pop\n        /* \"#utility.yul\":28795:29188   */\n      swap4\n      swap3\n      pop\n      pop\n      pop\n      jump\t// out\n        /* \"#utility.yul\":29194:29254   */\n    tag_348:\n        /* \"#utility.yul\":29222:29225   */\n      0x00\n        /* \"#utility.yul\":29243:29248   */\n      dup2\n        /* \"#utility.yul\":29236:29248   */\n      swap1\n      pop\n        /* \"#utility.yul\":29194:29254   */\n      swap2\n      swap1\n      pop\n      jump\t// out\n        /* \"#utility.yul\":29260:29402   */\n    tag_349:\n        /* \"#utility.yul\":29310:29319   */\n      0x00\n        /* \"#utility.yul\":29343:29396   */\n      tag_653\n        /* \"#utility.yul\":29361:29395   */\n      tag_654\n        /* \"#utility.yul\":29370:29394   */\n      tag_655\n        /* \"#utility.yul\":29388:29393   */\n      dup5\n        /* \"#utility.yul\":29370:29394   */\n      tag_290\n      jump\t// in\n    tag_655:\n        /* \"#utility.yul\":29361:29395   */\n      tag_348\n      jump\t// in\n    tag_654:\n        /* \"#utility.yul\":29343:29396   */\n      tag_290\n      jump\t// in\n    tag_653:\n        /* \"#utility.yul\":29330:29396   */\n      swap1\n      pop\n        /* \"#utility.yul\":29260:29402   */\n      swap2\n      swap1\n      pop\n      jump\t// out\n        /* \"#utility.yul\":29408:29483   */\n    tag_350:\n        /* \"#utility.yul\":29451:29454   */\n      0x00\n        /* \"#utility.yul\":29472:29477   */\n      dup2\n        /* \"#utility.yul\":29465:29477   */\n      swap1\n      pop\n        /* \"#utility.yul\":29408:29483   */\n      swap2\n      swap1\n      pop\n      jump\t// out\n        /* \"#utility.yul\":29489:29758   */\n    tag_351:\n        /* \"#utility.yul\":29599:29638   */\n      tag_658\n        /* \"#utility.yul\":29630:29637   */\n      dup4\n        /* \"#utility.yul\":29599:29638   */\n      tag_349\n      jump\t// in\n    tag_658:\n        /* \"#utility.yul\":29660:29751   */\n      tag_659\n        /* \"#utility.yul\":29709:29750   */\n      tag_660\n        /* \"#utility.yul\":29733:29749   */\n      dup3\n        /* \"#utility.yul\":29709:29750   */\n      tag_350\n      jump\t// in\n    tag_660:\n        /* \"#utility.yul\":29701:29707   */\n      dup5\n        /* \"#utility.yul\":29694:29698   */\n      dup5\n        /* \"#utility.yul\":29688:29699   */\n      sload\n        /* \"#utility.yul\":29660:29751   */\n      tag_347\n      jump\t// in\n    tag_659:\n        /* \"#utility.yul\":29654:29658   */\n      dup3\n        /* \"#utility.yul\":29647:29752   */\n      sstore\n        /* \"#utility.yul\":29565:29758   */\n      pop\n        /* \"#utility.yul\":29489:29758   */\n      pop\n      pop\n      pop\n      jump\t// out\n        /* \"#utility.yul\":29764:29837   */\n    tag_352:\n        /* \"#utility.yul\":29809:29812   */\n      0x00\n        /* \"#utility.yul\":29764:29837   */\n      swap1\n      jump\t// out\n        /* \"#utility.yul\":29843:30032   */\n    tag_353:\n        /* \"#utility.yul\":29920:29952   */\n      tag_663\n      tag_352\n      jump\t// in\n    tag_663:\n        /* \"#utility.yul\":29961:30026   */\n      tag_664\n        /* \"#utility.yul\":30019:30025   */\n      dup2\n        /* \"#utility.yul\":30011:30017   */\n      dup5\n        /* \"#utility.yul\":30005:30009   */\n      dup5\n        /* \"#utility.yul\":29961:30026   */\n      tag_351\n      jump\t// in\n    tag_664:\n        /* \"#utility.yul\":29896:30032   */\n      pop\n        /* \"#utility.yul\":29843:30032   */\n      pop\n      pop\n      jump\t// out\n        /* \"#utility.yul\":30038:30224   */\n    tag_354:\n        /* \"#utility.yul\":30098:30218   */\n    tag_666:\n        /* \"#utility.yul\":30115:30118   */\n      dup2\n        /* \"#utility.yul\":30108:30113   */\n      dup2\n        /* \"#utility.yul\":30105:30119   */\n      lt\n        /* \"#utility.yul\":30098:30218   */\n      iszero\n      tag_668\n      jumpi\n        /* \"#utility.yul\":30169:30208   */\n      tag_669\n        /* \"#utility.yul\":30206:30207   */\n      0x00\n        /* \"#utility.yul\":30199:30204   */\n      dup3\n        /* \"#utility.yul\":30169:30208   */\n      tag_353\n      jump\t// in\n    tag_669:\n        /* \"#utility.yul\":30142:30143   */\n      0x01\n        /* \"#utility.yul\":30135:30140   */\n      dup2\n        /* \"#utility.yul\":30131:30144   */\n      add\n        /* \"#utility.yul\":30122:30144   */\n      swap1\n      pop\n        /* \"#utility.yul\":30098:30218   */\n      jump(tag_666)\n    tag_668:\n        /* \"#utility.yul\":30038:30224   */\n      pop\n      pop\n      jump\t// out\n        /* \"#utility.yul\":30230:30773   */\n    tag_355:\n        /* \"#utility.yul\":30331:30333   */\n      0x1f\n        /* \"#utility.yul\":30326:30329   */\n      dup3\n        /* \"#utility.yul\":30323:30334   */\n      gt\n        /* \"#utility.yul\":30320:30766   */\n      iszero\n      tag_671\n      jumpi\n        /* \"#utility.yul\":30365:30403   */\n      tag_672\n        /* \"#utility.yul\":30397:30402   */\n      dup2\n        /* \"#utility.yul\":30365:30403   */\n      tag_344\n      jump\t// in\n    tag_672:\n        /* \"#utility.yul\":30449:30478   */\n      tag_673\n        /* \"#utility.yul\":30467:30477   */\n      dup5\n        /* \"#utility.yul\":30449:30478   */\n      tag_345\n      jump\t// in\n    tag_673:\n        /* \"#utility.yul\":30439:30447   */\n      dup2\n        /* \"#utility.yul\":30435:30479   */\n      add\n        /* \"#utility.yul\":30632:30634   */\n      0x20\n        /* \"#utility.yul\":30620:30630   */\n      dup6\n        /* \"#utility.yul\":30617:30635   */\n      lt\n        /* \"#utility.yul\":30614:30663   */\n      iszero\n      tag_674\n      jumpi\n        /* \"#utility.yul\":30653:30661   */\n      dup2\n        /* \"#utility.yul\":30638:30661   */\n      swap1\n      pop\n        /* \"#utility.yul\":30614:30663   */\n    tag_674:\n        /* \"#utility.yul\":30676:30756   */\n      tag_675\n        /* \"#utility.yul\":30732:30754   */\n      tag_676\n        /* \"#utility.yul\":30750:30753   */\n      dup6\n        /* \"#utility.yul\":30732:30754   */\n      tag_345\n      jump\t// in\n    tag_676:\n        /* \"#utility.yul\":30722:30730   */\n      dup4\n        /* \"#utility.yul\":30718:30755   */\n      add\n        /* \"#utility.yul\":30705:30716   */\n      dup3\n        /* \"#utility.yul\":30676:30756   */\n      tag_354\n      jump\t// in\n    tag_675:\n        /* \"#utility.yul\":30335:30766   */\n      pop\n      pop\n        /* \"#utility.yul\":30320:30766   */\n    tag_671:\n        /* \"#utility.yul\":30230:30773   */\n      pop\n      pop\n      pop\n      jump\t// out\n        /* \"#utility.yul\":30779:30896   */\n    tag_356:\n        /* \"#utility.yul\":30833:30841   */\n      0x00\n        /* \"#utility.yul\":30883:30888   */\n      dup3\n        /* \"#utility.yul\":30877:30881   */\n      dup3\n        /* \"#utility.yul\":30873:30889   */\n      shr\n        /* \"#utility.yul\":30852:30889   */\n      swap1\n      pop\n        /* \"#utility.yul\":30779:30896   */\n      swap3\n      swap2\n      pop\n      pop\n      jump\t// out\n        /* \"#utility.yul\":30902:31071   */\n    tag_357:\n        /* \"#utility.yul\":30946:30952   */\n      0x00\n        /* \"#utility.yul\":30979:31030   */\n      tag_679\n        /* \"#utility.yul\":31027:31028   */\n      0x00\n        /* \"#utility.yul\":31023:31029   */\n      not\n        /* \"#utility.yul\":31015:31020   */\n      dup5\n        /* \"#utility.yul\":31012:31013   */\n      0x08\n        /* \"#utility.yul\":31008:31021   */\n      mul\n        /* \"#utility.yul\":30979:31030   */\n      tag_356\n      jump\t// in\n    tag_679:\n        /* \"#utility.yul\":30975:31031   */\n      not\n        /* \"#utility.yul\":31060:31064   */\n      dup1\n        /* \"#utility.yul\":31054:31058   */\n      dup4\n        /* \"#utility.yul\":31050:31065   */\n      and\n        /* \"#utility.yul\":31040:31065   */\n      swap2\n      pop\n        /* \"#utility.yul\":30953:31071   */\n      pop\n        /* \"#utility.yul\":30902:31071   */\n      swap3\n      swap2\n      pop\n      pop\n      jump\t// out\n        /* \"#utility.yul\":31076:31371   */\n    tag_358:\n        /* \"#utility.yul\":31152:31156   */\n      0x00\n        /* \"#utility.yul\":31298:31327   */\n      tag_681\n        /* \"#utility.yul\":31323:31326   */\n      dup4\n        /* \"#utility.yul\":31317:31321   */\n      dup4\n        /* \"#utility.yul\":31298:31327   */\n      tag_357\n      jump\t// in\n    tag_681:\n        /* \"#utility.yul\":31290:31327   */\n      swap2\n      pop\n        /* \"#utility.yul\":31360:31363   */\n      dup3\n        /* \"#utility.yul\":31357:31358   */\n      0x02\n        /* \"#utility.yul\":31353:31364   */\n      mul\n        /* \"#utility.yul\":31347:31351   */\n      dup3\n        /* \"#utility.yul\":31344:31365   */\n      or\n        /* \"#utility.yul\":31336:31365   */\n      swap1\n      pop\n        /* \"#utility.yul\":31076:31371   */\n      swap3\n      swap2\n      pop\n      pop\n      jump\t// out\n        /* \"#utility.yul\":31376:32771   */\n    tag_177:\n        /* \"#utility.yul\":31493:31530   */\n      tag_683\n        /* \"#utility.yul\":31526:31529   */\n      dup3\n        /* \"#utility.yul\":31493:31530   */\n      tag_298\n      jump\t// in\n    tag_683:\n        /* \"#utility.yul\":31595:31613   */\n      0xffffffffffffffff\n        /* \"#utility.yul\":31587:31593   */\n      dup2\n        /* \"#utility.yul\":31584:31614   */\n      gt\n        /* \"#utility.yul\":31581:31637   */\n      iszero\n      tag_684\n      jumpi\n        /* \"#utility.yul\":31617:31635   */\n      tag_685\n      tag_281\n      jump\t// in\n    tag_685:\n        /* \"#utility.yul\":31581:31637   */\n    tag_684:\n        /* \"#utility.yul\":31661:31699   */\n      tag_686\n        /* \"#utility.yul\":31693:31697   */\n      dup3\n        /* \"#utility.yul\":31687:31698   */\n      sload\n        /* \"#utility.yul\":31661:31699   */\n      tag_160\n      jump\t// in\n    tag_686:\n        /* \"#utility.yul\":31746:31813   */\n      tag_687\n        /* \"#utility.yul\":31806:31812   */\n      dup3\n        /* \"#utility.yul\":31798:31804   */\n      dup3\n        /* \"#utility.yul\":31792:31796   */\n      dup6\n        /* \"#utility.yul\":31746:31813   */\n      tag_355\n      jump\t// in\n    tag_687:\n        /* \"#utility.yul\":31840:31841   */\n      0x00\n        /* \"#utility.yul\":31864:31868   */\n      0x20\n        /* \"#utility.yul\":31851:31868   */\n      swap1\n      pop\n        /* \"#utility.yul\":31896:31898   */\n      0x1f\n        /* \"#utility.yul\":31888:31894   */\n      dup4\n        /* \"#utility.yul\":31885:31899   */\n      gt\n        /* \"#utility.yul\":31913:31914   */\n      0x01\n        /* \"#utility.yul\":31908:32526   */\n      dup2\n      eq\n      tag_689\n      jumpi\n        /* \"#utility.yul\":32570:32571   */\n      0x00\n        /* \"#utility.yul\":32587:32593   */\n      dup5\n        /* \"#utility.yul\":32584:32661   */\n      iszero\n      tag_690\n      jumpi\n        /* \"#utility.yul\":32636:32645   */\n      dup3\n        /* \"#utility.yul\":32631:32634   */\n      dup8\n        /* \"#utility.yul\":32627:32646   */\n      add\n        /* \"#utility.yul\":32621:32647   */\n      mload\n        /* \"#utility.yul\":32612:32647   */\n      swap1\n      pop\n        /* \"#utility.yul\":32584:32661   */\n    tag_690:\n        /* \"#utility.yul\":32687:32754   */\n      tag_691\n        /* \"#utility.yul\":32747:32753   */\n      dup6\n        /* \"#utility.yul\":32740:32745   */\n      dup3\n        /* \"#utility.yul\":32687:32754   */\n      tag_358\n      jump\t// in\n    tag_691:\n        /* \"#utility.yul\":32681:32685   */\n      dup7\n        /* \"#utility.yul\":32674:32755   */\n      sstore\n        /* \"#utility.yul\":32543:32765   */\n      pop\n        /* \"#utility.yul\":31878:32765   */\n      jump(tag_688)\n        /* \"#utility.yul\":31908:32526   */\n    tag_689:\n        /* \"#utility.yul\":31960:31964   */\n      0x1f\n        /* \"#utility.yul\":31956:31965   */\n      not\n        /* \"#utility.yul\":31948:31954   */\n      dup5\n        /* \"#utility.yul\":31944:31966   */\n      and\n        /* \"#utility.yul\":31994:32031   */\n      tag_692\n        /* \"#utility.yul\":32026:32030   */\n      dup7\n        /* \"#utility.yul\":31994:32031   */\n      tag_344\n      jump\t// in\n    tag_692:\n        /* \"#utility.yul\":32053:32054   */\n      0x00\n        /* \"#utility.yul\":32067:32275   */\n    tag_693:\n        /* \"#utility.yul\":32081:32088   */\n      dup3\n        /* \"#utility.yul\":32078:32079   */\n      dup2\n        /* \"#utility.yul\":32075:32089   */\n      lt\n        /* \"#utility.yul\":32067:32275   */\n      iszero\n      tag_695\n      jumpi\n        /* \"#utility.yul\":32160:32169   */\n      dup5\n        /* \"#utility.yul\":32155:32158   */\n      dup10\n        /* \"#utility.yul\":32151:32170   */\n      add\n        /* \"#utility.yul\":32145:32171   */\n      mload\n        /* \"#utility.yul\":32137:32143   */\n      dup3\n        /* \"#utility.yul\":32130:32172   */\n      sstore\n        /* \"#utility.yul\":32211:32212   */\n      0x01\n        /* \"#utility.yul\":32203:32209   */\n      dup3\n        /* \"#utility.yul\":32199:32213   */\n      add\n        /* \"#utility.yul\":32189:32213   */\n      swap2\n      pop\n        /* \"#utility.yul\":32258:32260   */\n      0x20\n        /* \"#utility.yul\":32247:32256   */\n      dup6\n        /* \"#utility.yul\":32243:32261   */\n      add\n        /* \"#utility.yul\":32230:32261   */\n      swap5\n      pop\n        /* \"#utility.yul\":32104:32108   */\n      0x20\n        /* \"#utility.yul\":32101:32102   */\n      dup2\n        /* \"#utility.yul\":32097:32109   */\n      add\n        /* \"#utility.yul\":32092:32109   */\n      swap1\n      pop\n        /* \"#utility.yul\":32067:32275   */\n      jump(tag_693)\n    tag_695:\n        /* \"#utility.yul\":32303:32309   */\n      dup7\n        /* \"#utility.yul\":32294:32301   */\n      dup4\n        /* \"#utility.yul\":32291:32310   */\n      lt\n        /* \"#utility.yul\":32288:32467   */\n      iszero\n      tag_696\n      jumpi\n        /* \"#utility.yul\":32361:32370   */\n      dup5\n        /* \"#utility.yul\":32356:32359   */\n      dup10\n        /* \"#utility.yul\":32352:32371   */\n      add\n        /* \"#utility.yul\":32346:32372   */\n      mload\n        /* \"#utility.yul\":32404:32452   */\n      tag_697\n        /* \"#utility.yul\":32446:32450   */\n      0x1f\n        /* \"#utility.yul\":32438:32444   */\n      dup10\n        /* \"#utility.yul\":32434:32451   */\n      and\n        /* \"#utility.yul\":32423:32432   */\n      dup3\n        /* \"#utility.yul\":32404:32452   */\n      tag_357\n      jump\t// in\n    tag_697:\n        /* \"#utility.yul\":32396:32402   */\n      dup4\n        /* \"#utility.yul\":32389:32453   */\n      sstore\n        /* \"#utility.yul\":32311:32467   */\n      pop\n        /* \"#utility.yul\":32288:32467   */\n    tag_696:\n        /* \"#utility.yul\":32513:32514   */\n      0x01\n        /* \"#utility.yul\":32509:32510   */\n      0x02\n        /* \"#utility.yul\":32501:32507   */\n      dup9\n        /* \"#utility.yul\":32497:32511   */\n      mul\n        /* \"#utility.yul\":32493:32515   */\n      add\n        /* \"#utility.yul\":32487:32491   */\n      dup9\n        /* \"#utility.yul\":32480:32516   */\n      sstore\n        /* \"#utility.yul\":31915:32526   */\n      pop\n      pop\n      pop\n        /* \"#utility.yul\":31878:32765   */\n    tag_688:\n      pop\n        /* \"#utility.yul\":31468:32771   */\n      pop\n      pop\n      pop\n        /* \"#utility.yul\":31376:32771   */\n      pop\n      pop\n      jump\t// out\n        /* \"#utility.yul\":32777:32957   */\n    tag_212:\n        /* \"#utility.yul\":32825:32902   */\n      0x4e487b7100000000000000000000000000000000000000000000000000000000\n        /* \"#utility.yul\":32822:32823   */\n      0x00\n        /* \"#utility.yul\":32815:32903   */\n      mstore\n        /* \"#utility.yul\":32922:32926   */\n      0x31\n        /* \"#utility.yul\":32919:32920   */\n      0x04\n        /* \"#utility.yul\":32912:32927   */\n      mstore\n        /* \"#utility.yul\":32946:32950   */\n      0x24\n        /* \"#utility.yul\":32943:32944   */\n      0x00\n        /* \"#utility.yul\":32936:32951   */\n      revert\n        /* \"#utility.yul\":32963:33157   */\n    tag_230:\n        /* \"#utility.yul\":33003:33007   */\n      0x00\n        /* \"#utility.yul\":33023:33043   */\n      tag_700\n        /* \"#utility.yul\":33041:33042   */\n      dup3\n        /* \"#utility.yul\":33023:33043   */\n      tag_290\n      jump\t// in\n    tag_700:\n        /* \"#utility.yul\":33018:33043   */\n      swap2\n      pop\n        /* \"#utility.yul\":33057:33077   */\n      tag_701\n        /* \"#utility.yul\":33075:33076   */\n      dup4\n        /* \"#utility.yul\":33057:33077   */\n      tag_290\n      jump\t// in\n    tag_701:\n        /* \"#utility.yul\":33052:33077   */\n      swap3\n      pop\n        /* \"#utility.yul\":33101:33102   */\n      dup3\n        /* \"#utility.yul\":33098:33099   */\n      dup3\n        /* \"#utility.yul\":33094:33103   */\n      sub\n        /* \"#utility.yul\":33086:33103   */\n      swap1\n      pop\n        /* \"#utility.yul\":33125:33126   */\n      dup2\n        /* \"#utility.yul\":33119:33123   */\n      dup2\n        /* \"#utility.yul\":33116:33127   */\n      gt\n        /* \"#utility.yul\":33113:33150   */\n      iszero\n      tag_702\n      jumpi\n        /* \"#utility.yul\":33130:33148   */\n      tag_703\n      tag_338\n      jump\t// in\n    tag_703:\n        /* \"#utility.yul\":33113:33150   */\n    tag_702:\n        /* \"#utility.yul\":32963:33157   */\n      swap3\n      swap2\n      pop\n      pop\n      jump\t// out\n        /* \"#utility.yul\":33163:33458   */\n    tag_258:\n        /* \"#utility.yul\":33305:33308   */\n      0x00\n        /* \"#utility.yul\":33327:33432   */\n      tag_705\n        /* \"#utility.yul\":33428:33431   */\n      dup3\n        /* \"#utility.yul\":33419:33425   */\n      dup5\n        /* \"#utility.yul\":33411:33417   */\n      dup7\n        /* \"#utility.yul\":33327:33432   */\n      tag_343\n      jump\t// in\n    tag_705:\n        /* \"#utility.yul\":33320:33432   */\n      swap2\n      pop\n        /* \"#utility.yul\":33449:33452   */\n      dup2\n        /* \"#utility.yul\":33442:33452   */\n      swap1\n      pop\n        /* \"#utility.yul\":33163:33458   */\n      swap4\n      swap3\n      pop\n      pop\n      pop\n      jump\t// out\n\n    auxdata: 0xa2646970667358221220ccf586d8f5ae45643a952d5c79e772b9324d797a0a86533287f36c7df122734d64736f6c63430008110033\n}\n",
				"bytecode": {
					"linkReferences": {},
					"object": "60806040526040518060400160405280735b38da6a701c568545dcfcb03fcb875f56beddc473ffffffffffffffffffffffffffffffffffffffff1673ffffffffffffffffffffffffffffffffffffffff16815260200173ab8483f64d9c6d1ecf9b849ae677dd3315835cb273ffffffffffffffffffffffffffffffffffffffff1673ffffffffffffffffffffffffffffffffffffffff168152506003906002620000ab929190620000c0565b50348015620000b957600080fd5b506200016e565b8280548282559060005260206000209081019282156200013c579160200282015b828111156200013b5782518260006101000a81548173ffffffffffffffffffffffffffffffffffffffff021916908373ffffffffffffffffffffffffffffffffffffffff16021790555091602001919060010190620000e1565b5b5090506200014b91906200014f565b5090565b5b808211156200016a57600081600090555060010162000150565b5090565b612283806200017e6000396000f3fe608060405234801561001057600080fd5b50600436106101375760003560e01c8063742a1cb5116100b8578063a5cb84b51161007c578063a5cb84b51461032c578063bdb552f014610336578063cdbb7a5a14610368578063df0fd34f14610398578063e8b5b796146103b4578063f9cb5bd8146103d057610137565b8063742a1cb5146102745780638ea5bd07146102a45780638fff396f146102c2578063974fe591146102e0578063a0957e091461031057610137565b80634309fba7116100ff5780634309fba7146101d05780634ddd29fe1461020057806351c6689a146102305780635bb42e931461024c578063660127c71461025657610137565b8063094825b91461013c57806316ada5471461016c57806319077dca1461018a578063323c9ab31461019457806339ada523146101b2575b600080fd5b610156600480360381019061015191906112b7565b610400565b604051610163919061132e565b60405180910390f35b610174610453565b6040516101819190611362565b60405180910390f35b61019261045b565b005b61019c6105cd565b6040516101a991906113be565b60405180910390f35b6101ba610710565b6040516101c7919061156d565b60405180910390f35b6101ea60048036038101906101e591906115ea565b610822565b6040516101f791906116b5565b60405180910390f35b61021a6004803603810190610215919061178c565b610854565b604051610227919061184b565b60405180910390f35b61024a60048036038101906102459190611899565b610886565b005b610254610906565b005b61025e61096f565b60405161026b9190611993565b60405180910390f35b61028e600480360381019061028991906119ae565b610982565b60405161029b91906116b5565b60405180910390f35b6102ac610a2e565b6040516102b99190611993565b60405180910390f35b6102ca610abe565b6040516102d79190611a86565b60405180910390f35b6102fa60048036038101906102f59190611acd565b610b46565b604051610307919061132e565b60405180910390f35b61032a60048036038101906103259190611b0d565b610b75565b005b610334610be3565b005b610350600480360381019061034b9190611b60565b610c15565b60405161035f93929190611bcb565b60405180910390f35b610382600480360381019061037d9190611ccc565b610cf0565b60405161038f9190611362565b60405180910390f35b6103b260048036038101906103ad9190611d3a565b610da4565b005b6103ce60048036038101906103c99190611d67565b610dd1565b005b6103ea60048036038101906103e591906115ea565b610fa7565b6040516103f7919061132e565b60405180910390f35b60008060005b8351811015610448578484828151811061042357610422611d94565b5b60200260200101510361043557600191505b808061044090611df2565b915050610406565b508091505092915050565b600042905090565b60005b6003805490508110156105ca573373ffffffffffffffffffffffffffffffffffffffff166003828154811061049657610495611d94565b5b9060005260206000200160009054906101000a900473ffffffffffffffffffffffffffffffffffffffff1673ffffffffffffffffffffffffffffffffffffffff16146104e35760006104e6565b60015b600260003373ffffffffffffffffffffffffffffffffffffffff1673ffffffffffffffffffffffffffffffffffffffff16815260200190815260200160002060006003848154811061053b5761053a611d94565b5b9060005260206000200160009054906101000a900473ffffffffffffffffffffffffffffffffffffffff1673ffffffffffffffffffffffffffffffffffffffff1673ffffffffffffffffffffffffffffffffffffffff16815260200190815260200160002060006101000a81548160ff02191690831515021790555080806105c290611df2565b91505061045e565b50565b60008060005b6003805490508110156107085760011515600260003373ffffffffffffffffffffffffffffffffffffffff1673ffffffffffffffffffffffffffffffffffffffff16815260200190815260200160002060006003848154811061063957610638611d94565b5b9060005260206000200160009054906101000a900473ffffffffffffffffffffffffffffffffffffffff1673ffffffffffffffffffffffffffffffffffffffff1673ffffffffffffffffffffffffffffffffffffffff16815260200190815260200160002060009054906101000a900460ff161515036106f557600381815481106106c7576106c6611d94565b5b9060005260206000200160009054906101000a900473ffffffffffffffffffffffffffffffffffffffff1691505b808061070090611df2565b9150506105d3565b508091505090565b610718611006565b600060405161072690611e91565b9081526020016040518091039020600a80602002604051908101604052809291906000905b828210156108195783826003020160405180606001604052908160008201805461077490611ed5565b80601f01602080910402602001604051908101604052809291908181526020018280546107a090611ed5565b80156107ed5780601f106107c2576101008083540402835291602001916107ed565b820191906000526020600020905b8154815290600101906020018083116107d057829003601f168201915b50505050508152602001600182015481526020016002820154815250508152602001906001019061074b565b50505050905090565b60608484848460405160200161083b9493929190611f2b565b6040516020818303038152906040529050949350505050565b61085c611034565b60006040518060600160405280868152602001858152602001848152509050809150509392505050565b60405180606001604052808581526020018481526020018381525060006040516108af90611e91565b908152602001604051809103902082600a81106108cf576108ce611d94565b5b6003020160008201518160000190816108e891906120ff565b50602082015181600101556040820151816002015590505050505050565b600480600181540180825580915050600190039060005260206000200160006040518060400160405280600581526020017f6170706c650000000000000000000000000000000000000000000000000000008152509091909150908161096c91906120ff565b50565b600560009054906101000a900460ff1681565b6004818154811061099257600080fd5b9060005260206000200160009150905080546109ad90611ed5565b80601f01602080910402602001604051908101604052809291908181526020018280546109d990611ed5565b8015610a265780601f106109fb57610100808354040283529160200191610a26565b820191906000526020600020905b815481529060010190602001808311610a0957829003601f168201915b505050505081565b6000806002811115610a4357610a4261191c565b5b600560009054906101000a900460ff166002811115610a6557610a6461191c565b5b03610a735760009050610abb565b600280811115610a8657610a8561191c565b5b600560009054906101000a900460ff166002811115610aa857610aa761191c565b5b03610ab65760029050610abb565b600290505b90565b610ac6611055565b600160003373ffffffffffffffffffffffffffffffffffffffff1673ffffffffffffffffffffffffffffffffffffffff168152602001908152602001600020600380602002604051908101604052809291908260038015610b3c576020028201915b815481526020019060010190808311610b28575b5050505050905090565b60026020528160005260406000206020528060005260406000206000915091509054906101000a900460ff1681565b604051806060016040528084815260200183815260200182815250600160003373ffffffffffffffffffffffffffffffffffffffff1673ffffffffffffffffffffffffffffffffffffffff168152602001908152602001600020906003610bdd929190611077565b50505050565b6004805480610bf557610bf46121d1565b5b600190038181906000526020600020016000610c1191906110b7565b9055565b60008280516020810182018051848252602083016020850120818352809550505050505081600a8110610c4757600080fd5b6003020160009150915050806000018054610c6190611ed5565b80601f0160208091040260200160405190810160405280929190818152602001828054610c8d90611ed5565b8015610cda5780601f10610caf57610100808354040283529160200191610cda565b820191906000526020600020905b815481529060010190602001808311610cbd57829003601f168201915b5050505050908060010154908060020154905083565b60008082600081518110610d0757610d06611d94565b5b602002602001015190506000600190505b8351811015610d9a5783600182610d2f9190612200565b81518110610d4057610d3f611d94565b5b6020026020010151848281518110610d5b57610d5a611d94565b5b60200260200101511115610d8757838181518110610d7c57610d7b611d94565b5b602002602001015191505b8080610d9290611df2565b915050610d18565b5080915050919050565b80600560006101000a81548160ff02191690836002811115610dc957610dc861191c565b5b021790555050565b6003819080600181540180825580915050600190039060005260206000200160009091909190916101000a81548173ffffffffffffffffffffffffffffffffffffffff021916908373ffffffffffffffffffffffffffffffffffffffff16021790555060005b600380549050811015610fa3578173ffffffffffffffffffffffffffffffffffffffff1660038281548110610e6f57610e6e611d94565b5b9060005260206000200160009054906101000a900473ffffffffffffffffffffffffffffffffffffffff1673ffffffffffffffffffffffffffffffffffffffff1614610ebc576000610ebf565b60015b600260003373ffffffffffffffffffffffffffffffffffffffff1673ffffffffffffffffffffffffffffffffffffffff168152602001908152602001600020600060038481548110610f1457610f13611d94565b5b9060005260206000200160009054906101000a900473ffffffffffffffffffffffffffffffffffffffff1673ffffffffffffffffffffffffffffffffffffffff1673ffffffffffffffffffffffffffffffffffffffff16815260200190815260200160002060006101000a81548160ff0219169083151502179055508080610f9b90611df2565b915050610e37565b5050565b60008282604051602001610fbc929190612234565b604051602081830303815290604052805190602001208585604051602001610fe5929190612234565b60405160208183030381529060405280519060200120149050949350505050565b604051806101400160405280600a905b61101e611034565b8152602001906001900390816110165790505090565b60405180606001604052806060815260200160008152602001600081525090565b6040518060600160405280600390602082028036833780820191505090505090565b82600381019282156110a6579160200282015b828111156110a557825182559160200191906001019061108a565b5b5090506110b391906110f7565b5090565b5080546110c390611ed5565b6000825580601f106110d557506110f4565b601f0160209004906000526020600020908101906110f391906110f7565b5b50565b5b808211156111105760008160009055506001016110f8565b5090565b6000604051905090565b600080fd5b600080fd5b6000819050919050565b61113b81611128565b811461114657600080fd5b50565b60008135905061115881611132565b92915050565b600080fd5b6000601f19601f8301169050919050565b7f4e487b7100000000000000000000000000000000000000000000000000000000600052604160045260246000fd5b6111ac82611163565b810181811067ffffffffffffffff821117156111cb576111ca611174565b5b80604052505050565b60006111de611114565b90506111ea82826111a3565b919050565b600067ffffffffffffffff82111561120a57611209611174565b5b602082029050602081019050919050565b600080fd5b600061123361122e846111ef565b6111d4565b905080838252602082019050602084028301858111156112565761125561121b565b5b835b8181101561127f578061126b8882611149565b845260208401935050602081019050611258565b5050509392505050565b600082601f83011261129e5761129d61115e565b5b81356112ae848260208601611220565b91505092915050565b600080604083850312156112ce576112cd61111e565b5b60006112dc85828601611149565b925050602083013567ffffffffffffffff8111156112fd576112fc611123565b5b61130985828601611289565b9150509250929050565b60008115159050919050565b61132881611313565b82525050565b6000602082019050611343600083018461131f565b92915050565b6000819050919050565b61135c81611349565b82525050565b60006020820190506113776000830184611353565b92915050565b600073ffffffffffffffffffffffffffffffffffffffff82169050919050565b60006113a88261137d565b9050919050565b6113b88161139d565b82525050565b60006020820190506113d360008301846113af565b92915050565b6000600a9050919050565b600081905092915050565b6000819050919050565b600081519050919050565b600082825260208201905092915050565b60005b83811015611433578082015181840152602081019050611418565b60008484015250505050565b600061144a826113f9565b6114548185611404565b9350611464818560208601611415565b61146d81611163565b840191505092915050565b61148181611128565b82525050565b600060608301600083015184820360008601526114a4828261143f565b91505060208301516114b96020860182611478565b5060408301516114cc6040860182611478565b508091505092915050565b60006114e38383611487565b905092915050565b6000602082019050919050565b6000611503826113d9565b61150d81856113e4565b93508360208202850161151f856113ef565b8060005b8581101561155b578484038952815161153c85826114d7565b9450611547836114eb565b925060208a01995050600181019050611523565b50829750879550505050505092915050565b6000602082019050818103600083015261158781846114f8565b905092915050565b600080fd5b60008083601f8401126115aa576115a961115e565b5b8235905067ffffffffffffffff8111156115c7576115c661158f565b5b6020830191508360018202830111156115e3576115e261121b565b5b9250929050565b600080600080604085870312156116045761160361111e565b5b600085013567ffffffffffffffff81111561162257611621611123565b5b61162e87828801611594565b9450945050602085013567ffffffffffffffff81111561165157611650611123565b5b61165d87828801611594565b925092505092959194509250565b600082825260208201905092915050565b6000611687826113f9565b611691818561166b565b93506116a1818560208601611415565b6116aa81611163565b840191505092915050565b600060208201905081810360008301526116cf818461167c565b905092915050565b600080fd5b600067ffffffffffffffff8211156116f7576116f6611174565b5b61170082611163565b9050602081019050919050565b82818337600083830152505050565b600061172f61172a846116dc565b6111d4565b90508281526020810184848401111561174b5761174a6116d7565b5b61175684828561170d565b509392505050565b600082601f8301126117735761177261115e565b5b813561178384826020860161171c565b91505092915050565b6000806000606084860312156117a5576117a461111e565b5b600084013567ffffffffffffffff8111156117c3576117c2611123565b5b6117cf8682870161175e565b93505060206117e086828701611149565b92505060406117f186828701611149565b9150509250925092565b60006060830160008301518482036000860152611818828261143f565b915050602083015161182d6020860182611478565b5060408301516118406040860182611478565b508091505092915050565b6000602082019050818103600083015261186581846117fb565b905092915050565b61187681611349565b811461188157600080fd5b50565b6000813590506118938161186d565b92915050565b600080600080608085870312156118b3576118b261111e565b5b600085013567ffffffffffffffff8111156118d1576118d0611123565b5b6118dd8782880161175e565b94505060206118ee87828801611149565b93505060406118ff87828801611149565b925050606061191087828801611884565b91505092959194509250565b7f4e487b7100000000000000000000000000000000000000000000000000000000600052602160045260246000fd5b6003811061195c5761195b61191c565b5b50565b600081905061196d8261194b565b919050565b600061197d8261195f565b9050919050565b61198d81611972565b82525050565b60006020820190506119a86000830184611984565b92915050565b6000602082840312156119c4576119c361111e565b5b60006119d284828501611884565b91505092915050565b600060039050919050565b600081905092915050565b6000819050919050565b611a0481611349565b82525050565b6000611a1683836119fb565b60208301905092915050565b6000602082019050919050565b611a38816119db565b611a4281846119e6565b9250611a4d826119f1565b8060005b83811015611a7e578151611a658782611a0a565b9650611a7083611a22565b925050600181019050611a51565b505050505050565b6000606082019050611a9b6000830184611a2f565b92915050565b611aaa8161139d565b8114611ab557600080fd5b50565b600081359050611ac781611aa1565b92915050565b60008060408385031215611ae457611ae361111e565b5b6000611af285828601611ab8565b9250506020611b0385828601611ab8565b9150509250929050565b600080600060608486031215611b2657611b2561111e565b5b6000611b3486828701611884565b9350506020611b4586828701611884565b9250506040611b5686828701611884565b9150509250925092565b60008060408385031215611b7757611b7661111e565b5b600083013567ffffffffffffffff811115611b9557611b94611123565b5b611ba18582860161175e565b9250506020611bb285828601611884565b9150509250929050565b611bc581611128565b82525050565b60006060820190508181036000830152611be5818661167c565b9050611bf46020830185611bbc565b611c016040830184611bbc565b949350505050565b600067ffffffffffffffff821115611c2457611c23611174565b5b602082029050602081019050919050565b6000611c48611c4384611c09565b6111d4565b90508083825260208201905060208402830185811115611c6b57611c6a61121b565b5b835b81811015611c945780611c808882611884565b845260208401935050602081019050611c6d565b5050509392505050565b600082601f830112611cb357611cb261115e565b5b8135611cc3848260208601611c35565b91505092915050565b600060208284031215611ce257611ce161111e565b5b600082013567ffffffffffffffff811115611d0057611cff611123565b5b611d0c84828501611c9e565b91505092915050565b60038110611d2257600080fd5b50565b600081359050611d3481611d15565b92915050565b600060208284031215611d5057611d4f61111e565b5b6000611d5e84828501611d25565b91505092915050565b600060208284031215611d7d57611d7c61111e565b5b6000611d8b84828501611ab8565b91505092915050565b7f4e487b7100000000000000000000000000000000000000000000000000000000600052603260045260246000fd5b7f4e487b7100000000000000000000000000000000000000000000000000000000600052601160045260246000fd5b6000611dfd82611349565b91507fffffffffffffffffffffffffffffffffffffffffffffffffffffffffffffffff8203611e2f57611e2e611dc3565b5b600182019050919050565b600081905092915050565b7f73747564656e7473000000000000000000000000000000000000000000000000600082015250565b6000611e7b600883611e3a565b9150611e8682611e45565b600882019050919050565b6000611e9c82611e6e565b9150819050919050565b7f4e487b7100000000000000000000000000000000000000000000000000000000600052602260045260246000fd5b60006002820490506001821680611eed57607f821691505b602082108103611f0057611eff611ea6565b5b50919050565b6000611f128385611e3a565b9350611f1f83858461170d565b82840190509392505050565b6000611f38828688611f06565b9150611f45828486611f06565b915081905095945050505050565b60008190508160005260206000209050919050565b60006020601f8301049050919050565b600082821b905092915050565b600060088302611fb57fffffffffffffffffffffffffffffffffffffffffffffffffffffffffffffffff82611f78565b611fbf8683611f78565b95508019841693508086168417925050509392505050565b6000819050919050565b6000611ffc611ff7611ff284611349565b611fd7565b611349565b9050919050565b6000819050919050565b61201683611fe1565b61202a61202282612003565b848454611f85565b825550505050565b600090565b61203f612032565b61204a81848461200d565b505050565b5b8181101561206e57612063600082612037565b600181019050612050565b5050565b601f8211156120b35761208481611f53565b61208d84611f68565b8101602085101561209c578190505b6120b06120a885611f68565b83018261204f565b50505b505050565b600082821c905092915050565b60006120d6600019846008026120b8565b1980831691505092915050565b60006120ef83836120c5565b9150826002028217905092915050565b612108826113f9565b67ffffffffffffffff81111561212157612120611174565b5b61212b8254611ed5565b612136828285612072565b600060209050601f8311600181146121695760008415612157578287015190505b61216185826120e3565b8655506121c9565b601f19841661217786611f53565b60005b8281101561219f5784890151825560018201915060208501945060208101905061217a565b868310156121bc57848901516121b8601f8916826120c5565b8355505b6001600288020188555050505b505050505050565b7f4e487b7100000000000000000000000000000000000000000000000000000000600052603160045260246000fd5b600061220b82611349565b915061221683611349565b925082820390508181111561222e5761222d611dc3565b5b92915050565b6000612241828486611f06565b9150819050939250505056fea2646970667358221220ccf586d8f5ae45643a952d5c79e772b9324d797a0a86533287f36c7df122734d64736f6c63430008110033",
					"opcodes": "PUSH1 0x80 PUSH1 0x40 MSTORE PUSH1 0x40 MLOAD DUP1 PUSH1 0x40 ADD PUSH1 0x40 MSTORE DUP1 PUSH20 0x5B38DA6A701C568545DCFCB03FCB875F56BEDDC4 PUSH20 0xFFFFFFFFFFFFFFFFFFFFFFFFFFFFFFFFFFFFFFFF AND PUSH20 0xFFFFFFFFFFFFFFFFFFFFFFFFFFFFFFFFFFFFFFFF AND DUP2 MSTORE PUSH1 0x20 ADD PUSH20 0xAB8483F64D9C6D1ECF9B849AE677DD3315835CB2 PUSH20 0xFFFFFFFFFFFFFFFFFFFFFFFFFFFFFFFFFFFFFFFF AND PUSH20 0xFFFFFFFFFFFFFFFFFFFFFFFFFFFFFFFFFFFFFFFF AND DUP2 MSTORE POP PUSH1 0x3 SWAP1 PUSH1 0x2 PUSH3 0xAB SWAP3 SWAP2 SWAP1 PUSH3 0xC0 JUMP JUMPDEST POP CALLVALUE DUP1 ISZERO PUSH3 0xB9 JUMPI PUSH1 0x0 DUP1 REVERT JUMPDEST POP PUSH3 0x16E JUMP JUMPDEST DUP3 DUP1 SLOAD DUP3 DUP3 SSTORE SWAP1 PUSH1 0x0 MSTORE PUSH1 0x20 PUSH1 0x0 KECCAK256 SWAP1 DUP2 ADD SWAP3 DUP3 ISZERO PUSH3 0x13C JUMPI SWAP2 PUSH1 0x20 MUL DUP3 ADD JUMPDEST DUP3 DUP2 GT ISZERO PUSH3 0x13B JUMPI DUP3 MLOAD DUP3 PUSH1 0x0 PUSH2 0x100 EXP DUP2 SLOAD DUP2 PUSH20 0xFFFFFFFFFFFFFFFFFFFFFFFFFFFFFFFFFFFFFFFF MUL NOT AND SWAP1 DUP4 PUSH20 0xFFFFFFFFFFFFFFFFFFFFFFFFFFFFFFFFFFFFFFFF AND MUL OR SWAP1 SSTORE POP SWAP2 PUSH1 0x20 ADD SWAP2 SWAP1 PUSH1 0x1 ADD SWAP1 PUSH3 0xE1 JUMP JUMPDEST JUMPDEST POP SWAP1 POP PUSH3 0x14B SWAP2 SWAP1 PUSH3 0x14F JUMP JUMPDEST POP SWAP1 JUMP JUMPDEST JUMPDEST DUP1 DUP3 GT ISZERO PUSH3 0x16A JUMPI PUSH1 0x0 DUP2 PUSH1 0x0 SWAP1 SSTORE POP PUSH1 0x1 ADD PUSH3 0x150 JUMP JUMPDEST POP SWAP1 JUMP JUMPDEST PUSH2 0x2283 DUP1 PUSH3 0x17E PUSH1 0x0 CODECOPY PUSH1 0x0 RETURN INVALID PUSH1 0x80 PUSH1 0x40 MSTORE CALLVALUE DUP1 ISZERO PUSH2 0x10 JUMPI PUSH1 0x0 DUP1 REVERT JUMPDEST POP PUSH1 0x4 CALLDATASIZE LT PUSH2 0x137 JUMPI PUSH1 0x0 CALLDATALOAD PUSH1 0xE0 SHR DUP1 PUSH4 0x742A1CB5 GT PUSH2 0xB8 JUMPI DUP1 PUSH4 0xA5CB84B5 GT PUSH2 0x7C JUMPI DUP1 PUSH4 0xA5CB84B5 EQ PUSH2 0x32C JUMPI DUP1 PUSH4 0xBDB552F0 EQ PUSH2 0x336 JUMPI DUP1 PUSH4 0xCDBB7A5A EQ PUSH2 0x368 JUMPI DUP1 PUSH4 0xDF0FD34F EQ PUSH2 0x398 JUMPI DUP1 PUSH4 0xE8B5B796 EQ PUSH2 0x3B4 JUMPI DUP1 PUSH4 0xF9CB5BD8 EQ PUSH2 0x3D0 JUMPI PUSH2 0x137 JUMP JUMPDEST DUP1 PUSH4 0x742A1CB5 EQ PUSH2 0x274 JUMPI DUP1 PUSH4 0x8EA5BD07 EQ PUSH2 0x2A4 JUMPI DUP1 PUSH4 0x8FFF396F EQ PUSH2 0x2C2 JUMPI DUP1 PUSH4 0x974FE591 EQ PUSH2 0x2E0 JUMPI DUP1 PUSH4 0xA0957E09 EQ PUSH2 0x310 JUMPI PUSH2 0x137 JUMP JUMPDEST DUP1 PUSH4 0x4309FBA7 GT PUSH2 0xFF JUMPI DUP1 PUSH4 0x4309FBA7 EQ PUSH2 0x1D0 JUMPI DUP1 PUSH4 0x4DDD29FE EQ PUSH2 0x200 JUMPI DUP1 PUSH4 0x51C6689A EQ PUSH2 0x230 JUMPI DUP1 PUSH4 0x5BB42E93 EQ PUSH2 0x24C JUMPI DUP1 PUSH4 0x660127C7 EQ PUSH2 0x256 JUMPI PUSH2 0x137 JUMP JUMPDEST DUP1 PUSH4 0x94825B9 EQ PUSH2 0x13C JUMPI DUP1 PUSH4 0x16ADA547 EQ PUSH2 0x16C JUMPI DUP1 PUSH4 0x19077DCA EQ PUSH2 0x18A JUMPI DUP1 PUSH4 0x323C9AB3 EQ PUSH2 0x194 JUMPI DUP1 PUSH4 0x39ADA523 EQ PUSH2 0x1B2 JUMPI JUMPDEST PUSH1 0x0 DUP1 REVERT JUMPDEST PUSH2 0x156 PUSH1 0x4 DUP1 CALLDATASIZE SUB DUP2 ADD SWAP1 PUSH2 0x151 SWAP2 SWAP1 PUSH2 0x12B7 JUMP JUMPDEST PUSH2 0x400 JUMP JUMPDEST PUSH1 0x40 MLOAD PUSH2 0x163 SWAP2 SWAP1 PUSH2 0x132E JUMP JUMPDEST PUSH1 0x40 MLOAD DUP1 SWAP2 SUB SWAP1 RETURN JUMPDEST PUSH2 0x174 PUSH2 0x453 JUMP JUMPDEST PUSH1 0x40 MLOAD PUSH2 0x181 SWAP2 SWAP1 PUSH2 0x1362 JUMP JUMPDEST PUSH1 0x40 MLOAD DUP1 SWAP2 SUB SWAP1 RETURN JUMPDEST PUSH2 0x192 PUSH2 0x45B JUMP JUMPDEST STOP JUMPDEST PUSH2 0x19C PUSH2 0x5CD JUMP JUMPDEST PUSH1 0x40 MLOAD PUSH2 0x1A9 SWAP2 SWAP1 PUSH2 0x13BE JUMP JUMPDEST PUSH1 0x40 MLOAD DUP1 SWAP2 SUB SWAP1 RETURN JUMPDEST PUSH2 0x1BA PUSH2 0x710 JUMP JUMPDEST PUSH1 0x40 MLOAD PUSH2 0x1C7 SWAP2 SWAP1 PUSH2 0x156D JUMP JUMPDEST PUSH1 0x40 MLOAD DUP1 SWAP2 SUB SWAP1 RETURN JUMPDEST PUSH2 0x1EA PUSH1 0x4 DUP1 CALLDATASIZE SUB DUP2 ADD SWAP1 PUSH2 0x1E5 SWAP2 SWAP1 PUSH2 0x15EA JUMP JUMPDEST PUSH2 0x822 JUMP JUMPDEST PUSH1 0x40 MLOAD PUSH2 0x1F7 SWAP2 SWAP1 PUSH2 0x16B5 JUMP JUMPDEST PUSH1 0x40 MLOAD DUP1 SWAP2 SUB SWAP1 RETURN JUMPDEST PUSH2 0x21A PUSH1 0x4 DUP1 CALLDATASIZE SUB DUP2 ADD SWAP1 PUSH2 0x215 SWAP2 SWAP1 PUSH2 0x178C JUMP JUMPDEST PUSH2 0x854 JUMP JUMPDEST PUSH1 0x40 MLOAD PUSH2 0x227 SWAP2 SWAP1 PUSH2 0x184B JUMP JUMPDEST PUSH1 0x40 MLOAD DUP1 SWAP2 SUB SWAP1 RETURN JUMPDEST PUSH2 0x24A PUSH1 0x4 DUP1 CALLDATASIZE SUB DUP2 ADD SWAP1 PUSH2 0x245 SWAP2 SWAP1 PUSH2 0x1899 JUMP JUMPDEST PUSH2 0x886 JUMP JUMPDEST STOP JUMPDEST PUSH2 0x254 PUSH2 0x906 JUMP JUMPDEST STOP JUMPDEST PUSH2 0x25E PUSH2 0x96F JUMP JUMPDEST PUSH1 0x40 MLOAD PUSH2 0x26B SWAP2 SWAP1 PUSH2 0x1993 JUMP JUMPDEST PUSH1 0x40 MLOAD DUP1 SWAP2 SUB SWAP1 RETURN JUMPDEST PUSH2 0x28E PUSH1 0x4 DUP1 CALLDATASIZE SUB DUP2 ADD SWAP1 PUSH2 0x289 SWAP2 SWAP1 PUSH2 0x19AE JUMP JUMPDEST PUSH2 0x982 JUMP JUMPDEST PUSH1 0x40 MLOAD PUSH2 0x29B SWAP2 SWAP1 PUSH2 0x16B5 JUMP JUMPDEST PUSH1 0x40 MLOAD DUP1 SWAP2 SUB SWAP1 RETURN JUMPDEST PUSH2 0x2AC PUSH2 0xA2E JUMP JUMPDEST PUSH1 0x40 MLOAD PUSH2 0x2B9 SWAP2 SWAP1 PUSH2 0x1993 JUMP JUMPDEST PUSH1 0x40 MLOAD DUP1 SWAP2 SUB SWAP1 RETURN JUMPDEST PUSH2 0x2CA PUSH2 0xABE JUMP JUMPDEST PUSH1 0x40 MLOAD PUSH2 0x2D7 SWAP2 SWAP1 PUSH2 0x1A86 JUMP JUMPDEST PUSH1 0x40 MLOAD DUP1 SWAP2 SUB SWAP1 RETURN JUMPDEST PUSH2 0x2FA PUSH1 0x4 DUP1 CALLDATASIZE SUB DUP2 ADD SWAP1 PUSH2 0x2F5 SWAP2 SWAP1 PUSH2 0x1ACD JUMP JUMPDEST PUSH2 0xB46 JUMP JUMPDEST PUSH1 0x40 MLOAD PUSH2 0x307 SWAP2 SWAP1 PUSH2 0x132E JUMP JUMPDEST PUSH1 0x40 MLOAD DUP1 SWAP2 SUB SWAP1 RETURN JUMPDEST PUSH2 0x32A PUSH1 0x4 DUP1 CALLDATASIZE SUB DUP2 ADD SWAP1 PUSH2 0x325 SWAP2 SWAP1 PUSH2 0x1B0D JUMP JUMPDEST PUSH2 0xB75 JUMP JUMPDEST STOP JUMPDEST PUSH2 0x334 PUSH2 0xBE3 JUMP JUMPDEST STOP JUMPDEST PUSH2 0x350 PUSH1 0x4 DUP1 CALLDATASIZE SUB DUP2 ADD SWAP1 PUSH2 0x34B SWAP2 SWAP1 PUSH2 0x1B60 JUMP JUMPDEST PUSH2 0xC15 JUMP JUMPDEST PUSH1 0x40 MLOAD PUSH2 0x35F SWAP4 SWAP3 SWAP2 SWAP1 PUSH2 0x1BCB JUMP JUMPDEST PUSH1 0x40 MLOAD DUP1 SWAP2 SUB SWAP1 RETURN JUMPDEST PUSH2 0x382 PUSH1 0x4 DUP1 CALLDATASIZE SUB DUP2 ADD SWAP1 PUSH2 0x37D SWAP2 SWAP1 PUSH2 0x1CCC JUMP JUMPDEST PUSH2 0xCF0 JUMP JUMPDEST PUSH1 0x40 MLOAD PUSH2 0x38F SWAP2 SWAP1 PUSH2 0x1362 JUMP JUMPDEST PUSH1 0x40 MLOAD DUP1 SWAP2 SUB SWAP1 RETURN JUMPDEST PUSH2 0x3B2 PUSH1 0x4 DUP1 CALLDATASIZE SUB DUP2 ADD SWAP1 PUSH2 0x3AD SWAP2 SWAP1 PUSH2 0x1D3A JUMP JUMPDEST PUSH2 0xDA4 JUMP JUMPDEST STOP JUMPDEST PUSH2 0x3CE PUSH1 0x4 DUP1 CALLDATASIZE SUB DUP2 ADD SWAP1 PUSH2 0x3C9 SWAP2 SWAP1 PUSH2 0x1D67 JUMP JUMPDEST PUSH2 0xDD1 JUMP JUMPDEST STOP JUMPDEST PUSH2 0x3EA PUSH1 0x4 DUP1 CALLDATASIZE SUB DUP2 ADD SWAP1 PUSH2 0x3E5 SWAP2 SWAP1 PUSH2 0x15EA JUMP JUMPDEST PUSH2 0xFA7 JUMP JUMPDEST PUSH1 0x40 MLOAD PUSH2 0x3F7 SWAP2 SWAP1 PUSH2 0x132E JUMP JUMPDEST PUSH1 0x40 MLOAD DUP1 SWAP2 SUB SWAP1 RETURN JUMPDEST PUSH1 0x0 DUP1 PUSH1 0x0 JUMPDEST DUP4 MLOAD DUP2 LT ISZERO PUSH2 0x448 JUMPI DUP5 DUP5 DUP3 DUP2 MLOAD DUP2 LT PUSH2 0x423 JUMPI PUSH2 0x422 PUSH2 0x1D94 JUMP JUMPDEST JUMPDEST PUSH1 0x20 MUL PUSH1 0x20 ADD ADD MLOAD SUB PUSH2 0x435 JUMPI PUSH1 0x1 SWAP2 POP JUMPDEST DUP1 DUP1 PUSH2 0x440 SWAP1 PUSH2 0x1DF2 JUMP JUMPDEST SWAP2 POP POP PUSH2 0x406 JUMP JUMPDEST POP DUP1 SWAP2 POP POP SWAP3 SWAP2 POP POP JUMP JUMPDEST PUSH1 0x0 TIMESTAMP SWAP1 POP SWAP1 JUMP JUMPDEST PUSH1 0x0 JUMPDEST PUSH1 0x3 DUP1 SLOAD SWAP1 POP DUP2 LT ISZERO PUSH2 0x5CA JUMPI CALLER PUSH20 0xFFFFFFFFFFFFFFFFFFFFFFFFFFFFFFFFFFFFFFFF AND PUSH1 0x3 DUP3 DUP2 SLOAD DUP2 LT PUSH2 0x496 JUMPI PUSH2 0x495 PUSH2 0x1D94 JUMP JUMPDEST JUMPDEST SWAP1 PUSH1 0x0 MSTORE PUSH1 0x20 PUSH1 0x0 KECCAK256 ADD PUSH1 0x0 SWAP1 SLOAD SWAP1 PUSH2 0x100 EXP SWAP1 DIV PUSH20 0xFFFFFFFFFFFFFFFFFFFFFFFFFFFFFFFFFFFFFFFF AND PUSH20 0xFFFFFFFFFFFFFFFFFFFFFFFFFFFFFFFFFFFFFFFF AND EQ PUSH2 0x4E3 JUMPI PUSH1 0x0 PUSH2 0x4E6 JUMP JUMPDEST PUSH1 0x1 JUMPDEST PUSH1 0x2 PUSH1 0x0 CALLER PUSH20 0xFFFFFFFFFFFFFFFFFFFFFFFFFFFFFFFFFFFFFFFF AND PUSH20 0xFFFFFFFFFFFFFFFFFFFFFFFFFFFFFFFFFFFFFFFF AND DUP2 MSTORE PUSH1 0x20 ADD SWAP1 DUP2 MSTORE PUSH1 0x20 ADD PUSH1 0x0 KECCAK256 PUSH1 0x0 PUSH1 0x3 DUP5 DUP2 SLOAD DUP2 LT PUSH2 0x53B JUMPI PUSH2 0x53A PUSH2 0x1D94 JUMP JUMPDEST JUMPDEST SWAP1 PUSH1 0x0 MSTORE PUSH1 0x20 PUSH1 0x0 KECCAK256 ADD PUSH1 0x0 SWAP1 SLOAD SWAP1 PUSH2 0x100 EXP SWAP1 DIV PUSH20 0xFFFFFFFFFFFFFFFFFFFFFFFFFFFFFFFFFFFFFFFF AND PUSH20 0xFFFFFFFFFFFFFFFFFFFFFFFFFFFFFFFFFFFFFFFF AND PUSH20 0xFFFFFFFFFFFFFFFFFFFFFFFFFFFFFFFFFFFFFFFF AND DUP2 MSTORE PUSH1 0x20 ADD SWAP1 DUP2 MSTORE PUSH1 0x20 ADD PUSH1 0x0 KECCAK256 PUSH1 0x0 PUSH2 0x100 EXP DUP2 SLOAD DUP2 PUSH1 0xFF MUL NOT AND SWAP1 DUP4 ISZERO ISZERO MUL OR SWAP1 SSTORE POP DUP1 DUP1 PUSH2 0x5C2 SWAP1 PUSH2 0x1DF2 JUMP JUMPDEST SWAP2 POP POP PUSH2 0x45E JUMP JUMPDEST POP JUMP JUMPDEST PUSH1 0x0 DUP1 PUSH1 0x0 JUMPDEST PUSH1 0x3 DUP1 SLOAD SWAP1 POP DUP2 LT ISZERO PUSH2 0x708 JUMPI PUSH1 0x1 ISZERO ISZERO PUSH1 0x2 PUSH1 0x0 CALLER PUSH20 0xFFFFFFFFFFFFFFFFFFFFFFFFFFFFFFFFFFFFFFFF AND PUSH20 0xFFFFFFFFFFFFFFFFFFFFFFFFFFFFFFFFFFFFFFFF AND DUP2 MSTORE PUSH1 0x20 ADD SWAP1 DUP2 MSTORE PUSH1 0x20 ADD PUSH1 0x0 KECCAK256 PUSH1 0x0 PUSH1 0x3 DUP5 DUP2 SLOAD DUP2 LT PUSH2 0x639 JUMPI PUSH2 0x638 PUSH2 0x1D94 JUMP JUMPDEST JUMPDEST SWAP1 PUSH1 0x0 MSTORE PUSH1 0x20 PUSH1 0x0 KECCAK256 ADD PUSH1 0x0 SWAP1 SLOAD SWAP1 PUSH2 0x100 EXP SWAP1 DIV PUSH20 0xFFFFFFFFFFFFFFFFFFFFFFFFFFFFFFFFFFFFFFFF AND PUSH20 0xFFFFFFFFFFFFFFFFFFFFFFFFFFFFFFFFFFFFFFFF AND PUSH20 0xFFFFFFFFFFFFFFFFFFFFFFFFFFFFFFFFFFFFFFFF AND DUP2 MSTORE PUSH1 0x20 ADD SWAP1 DUP2 MSTORE PUSH1 0x20 ADD PUSH1 0x0 KECCAK256 PUSH1 0x0 SWAP1 SLOAD SWAP1 PUSH2 0x100 EXP SWAP1 DIV PUSH1 0xFF AND ISZERO ISZERO SUB PUSH2 0x6F5 JUMPI PUSH1 0x3 DUP2 DUP2 SLOAD DUP2 LT PUSH2 0x6C7 JUMPI PUSH2 0x6C6 PUSH2 0x1D94 JUMP JUMPDEST JUMPDEST SWAP1 PUSH1 0x0 MSTORE PUSH1 0x20 PUSH1 0x0 KECCAK256 ADD PUSH1 0x0 SWAP1 SLOAD SWAP1 PUSH2 0x100 EXP SWAP1 DIV PUSH20 0xFFFFFFFFFFFFFFFFFFFFFFFFFFFFFFFFFFFFFFFF AND SWAP2 POP JUMPDEST DUP1 DUP1 PUSH2 0x700 SWAP1 PUSH2 0x1DF2 JUMP JUMPDEST SWAP2 POP POP PUSH2 0x5D3 JUMP JUMPDEST POP DUP1 SWAP2 POP POP SWAP1 JUMP JUMPDEST PUSH2 0x718 PUSH2 0x1006 JUMP JUMPDEST PUSH1 0x0 PUSH1 0x40 MLOAD PUSH2 0x726 SWAP1 PUSH2 0x1E91 JUMP JUMPDEST SWAP1 DUP2 MSTORE PUSH1 0x20 ADD PUSH1 0x40 MLOAD DUP1 SWAP2 SUB SWAP1 KECCAK256 PUSH1 0xA DUP1 PUSH1 0x20 MUL PUSH1 0x40 MLOAD SWAP1 DUP2 ADD PUSH1 0x40 MSTORE DUP1 SWAP3 SWAP2 SWAP1 PUSH1 0x0 SWAP1 JUMPDEST DUP3 DUP3 LT ISZERO PUSH2 0x819 JUMPI DUP4 DUP3 PUSH1 0x3 MUL ADD PUSH1 0x40 MLOAD DUP1 PUSH1 0x60 ADD PUSH1 0x40 MSTORE SWAP1 DUP2 PUSH1 0x0 DUP3 ADD DUP1 SLOAD PUSH2 0x774 SWAP1 PUSH2 0x1ED5 JUMP JUMPDEST DUP1 PUSH1 0x1F ADD PUSH1 0x20 DUP1 SWAP2 DIV MUL PUSH1 0x20 ADD PUSH1 0x40 MLOAD SWAP1 DUP2 ADD PUSH1 0x40 MSTORE DUP1 SWAP3 SWAP2 SWAP1 DUP2 DUP2 MSTORE PUSH1 0x20 ADD DUP3 DUP1 SLOAD PUSH2 0x7A0 SWAP1 PUSH2 0x1ED5 JUMP JUMPDEST DUP1 ISZERO PUSH2 0x7ED JUMPI DUP1 PUSH1 0x1F LT PUSH2 0x7C2 JUMPI PUSH2 0x100 DUP1 DUP4 SLOAD DIV MUL DUP4 MSTORE SWAP2 PUSH1 0x20 ADD SWAP2 PUSH2 0x7ED JUMP JUMPDEST DUP3 ADD SWAP2 SWAP1 PUSH1 0x0 MSTORE PUSH1 0x20 PUSH1 0x0 KECCAK256 SWAP1 JUMPDEST DUP2 SLOAD DUP2 MSTORE SWAP1 PUSH1 0x1 ADD SWAP1 PUSH1 0x20 ADD DUP1 DUP4 GT PUSH2 0x7D0 JUMPI DUP3 SWAP1 SUB PUSH1 0x1F AND DUP3 ADD SWAP2 JUMPDEST POP POP POP POP POP DUP2 MSTORE PUSH1 0x20 ADD PUSH1 0x1 DUP3 ADD SLOAD DUP2 MSTORE PUSH1 0x20 ADD PUSH1 0x2 DUP3 ADD SLOAD DUP2 MSTORE POP POP DUP2 MSTORE PUSH1 0x20 ADD SWAP1 PUSH1 0x1 ADD SWAP1 PUSH2 0x74B JUMP JUMPDEST POP POP POP POP SWAP1 POP SWAP1 JUMP JUMPDEST PUSH1 0x60 DUP5 DUP5 DUP5 DUP5 PUSH1 0x40 MLOAD PUSH1 0x20 ADD PUSH2 0x83B SWAP5 SWAP4 SWAP3 SWAP2 SWAP1 PUSH2 0x1F2B JUMP JUMPDEST PUSH1 0x40 MLOAD PUSH1 0x20 DUP2 DUP4 SUB SUB DUP2 MSTORE SWAP1 PUSH1 0x40 MSTORE SWAP1 POP SWAP5 SWAP4 POP POP POP POP JUMP JUMPDEST PUSH2 0x85C PUSH2 0x1034 JUMP JUMPDEST PUSH1 0x0 PUSH1 0x40 MLOAD DUP1 PUSH1 0x60 ADD PUSH1 0x40 MSTORE DUP1 DUP7 DUP2 MSTORE PUSH1 0x20 ADD DUP6 DUP2 MSTORE PUSH1 0x20 ADD DUP5 DUP2 MSTORE POP SWAP1 POP DUP1 SWAP2 POP POP SWAP4 SWAP3 POP POP POP JUMP JUMPDEST PUSH1 0x40 MLOAD DUP1 PUSH1 0x60 ADD PUSH1 0x40 MSTORE DUP1 DUP6 DUP2 MSTORE PUSH1 0x20 ADD DUP5 DUP2 MSTORE PUSH1 0x20 ADD DUP4 DUP2 MSTORE POP PUSH1 0x0 PUSH1 0x40 MLOAD PUSH2 0x8AF SWAP1 PUSH2 0x1E91 JUMP JUMPDEST SWAP1 DUP2 MSTORE PUSH1 0x20 ADD PUSH1 0x40 MLOAD DUP1 SWAP2 SUB SWAP1 KECCAK256 DUP3 PUSH1 0xA DUP2 LT PUSH2 0x8CF JUMPI PUSH2 0x8CE PUSH2 0x1D94 JUMP JUMPDEST JUMPDEST PUSH1 0x3 MUL ADD PUSH1 0x0 DUP3 ADD MLOAD DUP2 PUSH1 0x0 ADD SWAP1 DUP2 PUSH2 0x8E8 SWAP2 SWAP1 PUSH2 0x20FF JUMP JUMPDEST POP PUSH1 0x20 DUP3 ADD MLOAD DUP2 PUSH1 0x1 ADD SSTORE PUSH1 0x40 DUP3 ADD MLOAD DUP2 PUSH1 0x2 ADD SSTORE SWAP1 POP POP POP POP POP POP JUMP JUMPDEST PUSH1 0x4 DUP1 PUSH1 0x1 DUP2 SLOAD ADD DUP1 DUP3 SSTORE DUP1 SWAP2 POP POP PUSH1 0x1 SWAP1 SUB SWAP1 PUSH1 0x0 MSTORE PUSH1 0x20 PUSH1 0x0 KECCAK256 ADD PUSH1 0x0 PUSH1 0x40 MLOAD DUP1 PUSH1 0x40 ADD PUSH1 0x40 MSTORE DUP1 PUSH1 0x5 DUP2 MSTORE PUSH1 0x20 ADD PUSH32 0x6170706C65000000000000000000000000000000000000000000000000000000 DUP2 MSTORE POP SWAP1 SWAP2 SWAP1 SWAP2 POP SWAP1 DUP2 PUSH2 0x96C SWAP2 SWAP1 PUSH2 0x20FF JUMP JUMPDEST POP JUMP JUMPDEST PUSH1 0x5 PUSH1 0x0 SWAP1 SLOAD SWAP1 PUSH2 0x100 EXP SWAP1 DIV PUSH1 0xFF AND DUP2 JUMP JUMPDEST PUSH1 0x4 DUP2 DUP2 SLOAD DUP2 LT PUSH2 0x992 JUMPI PUSH1 0x0 DUP1 REVERT JUMPDEST SWAP1 PUSH1 0x0 MSTORE PUSH1 0x20 PUSH1 0x0 KECCAK256 ADD PUSH1 0x0 SWAP2 POP SWAP1 POP DUP1 SLOAD PUSH2 0x9AD SWAP1 PUSH2 0x1ED5 JUMP JUMPDEST DUP1 PUSH1 0x1F ADD PUSH1 0x20 DUP1 SWAP2 DIV MUL PUSH1 0x20 ADD PUSH1 0x40 MLOAD SWAP1 DUP2 ADD PUSH1 0x40 MSTORE DUP1 SWAP3 SWAP2 SWAP1 DUP2 DUP2 MSTORE PUSH1 0x20 ADD DUP3 DUP1 SLOAD PUSH2 0x9D9 SWAP1 PUSH2 0x1ED5 JUMP JUMPDEST DUP1 ISZERO PUSH2 0xA26 JUMPI DUP1 PUSH1 0x1F LT PUSH2 0x9FB JUMPI PUSH2 0x100 DUP1 DUP4 SLOAD DIV MUL DUP4 MSTORE SWAP2 PUSH1 0x20 ADD SWAP2 PUSH2 0xA26 JUMP JUMPDEST DUP3 ADD SWAP2 SWAP1 PUSH1 0x0 MSTORE PUSH1 0x20 PUSH1 0x0 KECCAK256 SWAP1 JUMPDEST DUP2 SLOAD DUP2 MSTORE SWAP1 PUSH1 0x1 ADD SWAP1 PUSH1 0x20 ADD DUP1 DUP4 GT PUSH2 0xA09 JUMPI DUP3 SWAP1 SUB PUSH1 0x1F AND DUP3 ADD SWAP2 JUMPDEST POP POP POP POP POP DUP2 JUMP JUMPDEST PUSH1 0x0 DUP1 PUSH1 0x2 DUP2 GT ISZERO PUSH2 0xA43 JUMPI PUSH2 0xA42 PUSH2 0x191C JUMP JUMPDEST JUMPDEST PUSH1 0x5 PUSH1 0x0 SWAP1 SLOAD SWAP1 PUSH2 0x100 EXP SWAP1 DIV PUSH1 0xFF AND PUSH1 0x2 DUP2 GT ISZERO PUSH2 0xA65 JUMPI PUSH2 0xA64 PUSH2 0x191C JUMP JUMPDEST JUMPDEST SUB PUSH2 0xA73 JUMPI PUSH1 0x0 SWAP1 POP PUSH2 0xABB JUMP JUMPDEST PUSH1 0x2 DUP1 DUP2 GT ISZERO PUSH2 0xA86 JUMPI PUSH2 0xA85 PUSH2 0x191C JUMP JUMPDEST JUMPDEST PUSH1 0x5 PUSH1 0x0 SWAP1 SLOAD SWAP1 PUSH2 0x100 EXP SWAP1 DIV PUSH1 0xFF AND PUSH1 0x2 DUP2 GT ISZERO PUSH2 0xAA8 JUMPI PUSH2 0xAA7 PUSH2 0x191C JUMP JUMPDEST JUMPDEST SUB PUSH2 0xAB6 JUMPI PUSH1 0x2 SWAP1 POP PUSH2 0xABB JUMP JUMPDEST PUSH1 0x2 SWAP1 POP JUMPDEST SWAP1 JUMP JUMPDEST PUSH2 0xAC6 PUSH2 0x1055 JUMP JUMPDEST PUSH1 0x1 PUSH1 0x0 CALLER PUSH20 0xFFFFFFFFFFFFFFFFFFFFFFFFFFFFFFFFFFFFFFFF AND PUSH20 0xFFFFFFFFFFFFFFFFFFFFFFFFFFFFFFFFFFFFFFFF AND DUP2 MSTORE PUSH1 0x20 ADD SWAP1 DUP2 MSTORE PUSH1 0x20 ADD PUSH1 0x0 KECCAK256 PUSH1 0x3 DUP1 PUSH1 0x20 MUL PUSH1 0x40 MLOAD SWAP1 DUP2 ADD PUSH1 0x40 MSTORE DUP1 SWAP3 SWAP2 SWAP1 DUP3 PUSH1 0x3 DUP1 ISZERO PUSH2 0xB3C JUMPI PUSH1 0x20 MUL DUP3 ADD SWAP2 JUMPDEST DUP2 SLOAD DUP2 MSTORE PUSH1 0x20 ADD SWAP1 PUSH1 0x1 ADD SWAP1 DUP1 DUP4 GT PUSH2 0xB28 JUMPI JUMPDEST POP POP POP POP POP SWAP1 POP SWAP1 JUMP JUMPDEST PUSH1 0x2 PUSH1 0x20 MSTORE DUP2 PUSH1 0x0 MSTORE PUSH1 0x40 PUSH1 0x0 KECCAK256 PUSH1 0x20 MSTORE DUP1 PUSH1 0x0 MSTORE PUSH1 0x40 PUSH1 0x0 KECCAK256 PUSH1 0x0 SWAP2 POP SWAP2 POP SWAP1 SLOAD SWAP1 PUSH2 0x100 EXP SWAP1 DIV PUSH1 0xFF AND DUP2 JUMP JUMPDEST PUSH1 0x40 MLOAD DUP1 PUSH1 0x60 ADD PUSH1 0x40 MSTORE DUP1 DUP5 DUP2 MSTORE PUSH1 0x20 ADD DUP4 DUP2 MSTORE PUSH1 0x20 ADD DUP3 DUP2 MSTORE POP PUSH1 0x1 PUSH1 0x0 CALLER PUSH20 0xFFFFFFFFFFFFFFFFFFFFFFFFFFFFFFFFFFFFFFFF AND PUSH20 0xFFFFFFFFFFFFFFFFFFFFFFFFFFFFFFFFFFFFFFFF AND DUP2 MSTORE PUSH1 0x20 ADD SWAP1 DUP2 MSTORE PUSH1 0x20 ADD PUSH1 0x0 KECCAK256 SWAP1 PUSH1 0x3 PUSH2 0xBDD SWAP3 SWAP2 SWAP1 PUSH2 0x1077 JUMP JUMPDEST POP POP POP POP JUMP JUMPDEST PUSH1 0x4 DUP1 SLOAD DUP1 PUSH2 0xBF5 JUMPI PUSH2 0xBF4 PUSH2 0x21D1 JUMP JUMPDEST JUMPDEST PUSH1 0x1 SWAP1 SUB DUP2 DUP2 SWAP1 PUSH1 0x0 MSTORE PUSH1 0x20 PUSH1 0x0 KECCAK256 ADD PUSH1 0x0 PUSH2 0xC11 SWAP2 SWAP1 PUSH2 0x10B7 JUMP JUMPDEST SWAP1 SSTORE JUMP JUMPDEST PUSH1 0x0 DUP3 DUP1 MLOAD PUSH1 0x20 DUP2 ADD DUP3 ADD DUP1 MLOAD DUP5 DUP3 MSTORE PUSH1 0x20 DUP4 ADD PUSH1 0x20 DUP6 ADD KECCAK256 DUP2 DUP4 MSTORE DUP1 SWAP6 POP POP POP POP POP POP DUP2 PUSH1 0xA DUP2 LT PUSH2 0xC47 JUMPI PUSH1 0x0 DUP1 REVERT JUMPDEST PUSH1 0x3 MUL ADD PUSH1 0x0 SWAP2 POP SWAP2 POP POP DUP1 PUSH1 0x0 ADD DUP1 SLOAD PUSH2 0xC61 SWAP1 PUSH2 0x1ED5 JUMP JUMPDEST DUP1 PUSH1 0x1F ADD PUSH1 0x20 DUP1 SWAP2 DIV MUL PUSH1 0x20 ADD PUSH1 0x40 MLOAD SWAP1 DUP2 ADD PUSH1 0x40 MSTORE DUP1 SWAP3 SWAP2 SWAP1 DUP2 DUP2 MSTORE PUSH1 0x20 ADD DUP3 DUP1 SLOAD PUSH2 0xC8D SWAP1 PUSH2 0x1ED5 JUMP JUMPDEST DUP1 ISZERO PUSH2 0xCDA JUMPI DUP1 PUSH1 0x1F LT PUSH2 0xCAF JUMPI PUSH2 0x100 DUP1 DUP4 SLOAD DIV MUL DUP4 MSTORE SWAP2 PUSH1 0x20 ADD SWAP2 PUSH2 0xCDA JUMP JUMPDEST DUP3 ADD SWAP2 SWAP1 PUSH1 0x0 MSTORE PUSH1 0x20 PUSH1 0x0 KECCAK256 SWAP1 JUMPDEST DUP2 SLOAD DUP2 MSTORE SWAP1 PUSH1 0x1 ADD SWAP1 PUSH1 0x20 ADD DUP1 DUP4 GT PUSH2 0xCBD JUMPI DUP3 SWAP1 SUB PUSH1 0x1F AND DUP3 ADD SWAP2 JUMPDEST POP POP POP POP POP SWAP1 DUP1 PUSH1 0x1 ADD SLOAD SWAP1 DUP1 PUSH1 0x2 ADD SLOAD SWAP1 POP DUP4 JUMP JUMPDEST PUSH1 0x0 DUP1 DUP3 PUSH1 0x0 DUP2 MLOAD DUP2 LT PUSH2 0xD07 JUMPI PUSH2 0xD06 PUSH2 0x1D94 JUMP JUMPDEST JUMPDEST PUSH1 0x20 MUL PUSH1 0x20 ADD ADD MLOAD SWAP1 POP PUSH1 0x0 PUSH1 0x1 SWAP1 POP JUMPDEST DUP4 MLOAD DUP2 LT ISZERO PUSH2 0xD9A JUMPI DUP4 PUSH1 0x1 DUP3 PUSH2 0xD2F SWAP2 SWAP1 PUSH2 0x2200 JUMP JUMPDEST DUP2 MLOAD DUP2 LT PUSH2 0xD40 JUMPI PUSH2 0xD3F PUSH2 0x1D94 JUMP JUMPDEST JUMPDEST PUSH1 0x20 MUL PUSH1 0x20 ADD ADD MLOAD DUP5 DUP3 DUP2 MLOAD DUP2 LT PUSH2 0xD5B JUMPI PUSH2 0xD5A PUSH2 0x1D94 JUMP JUMPDEST JUMPDEST PUSH1 0x20 MUL PUSH1 0x20 ADD ADD MLOAD GT ISZERO PUSH2 0xD87 JUMPI DUP4 DUP2 DUP2 MLOAD DUP2 LT PUSH2 0xD7C JUMPI PUSH2 0xD7B PUSH2 0x1D94 JUMP JUMPDEST JUMPDEST PUSH1 0x20 MUL PUSH1 0x20 ADD ADD MLOAD SWAP2 POP JUMPDEST DUP1 DUP1 PUSH2 0xD92 SWAP1 PUSH2 0x1DF2 JUMP JUMPDEST SWAP2 POP POP PUSH2 0xD18 JUMP JUMPDEST POP DUP1 SWAP2 POP POP SWAP2 SWAP1 POP JUMP JUMPDEST DUP1 PUSH1 0x5 PUSH1 0x0 PUSH2 0x100 EXP DUP2 SLOAD DUP2 PUSH1 0xFF MUL NOT AND SWAP1 DUP4 PUSH1 0x2 DUP2 GT ISZERO PUSH2 0xDC9 JUMPI PUSH2 0xDC8 PUSH2 0x191C JUMP JUMPDEST JUMPDEST MUL OR SWAP1 SSTORE POP POP JUMP JUMPDEST PUSH1 0x3 DUP2 SWAP1 DUP1 PUSH1 0x1 DUP2 SLOAD ADD DUP1 DUP3 SSTORE DUP1 SWAP2 POP POP PUSH1 0x1 SWAP1 SUB SWAP1 PUSH1 0x0 MSTORE PUSH1 0x20 PUSH1 0x0 KECCAK256 ADD PUSH1 0x0 SWAP1 SWAP2 SWAP1 SWAP2 SWAP1 SWAP2 PUSH2 0x100 EXP DUP2 SLOAD DUP2 PUSH20 0xFFFFFFFFFFFFFFFFFFFFFFFFFFFFFFFFFFFFFFFF MUL NOT AND SWAP1 DUP4 PUSH20 0xFFFFFFFFFFFFFFFFFFFFFFFFFFFFFFFFFFFFFFFF AND MUL OR SWAP1 SSTORE POP PUSH1 0x0 JUMPDEST PUSH1 0x3 DUP1 SLOAD SWAP1 POP DUP2 LT ISZERO PUSH2 0xFA3 JUMPI DUP2 PUSH20 0xFFFFFFFFFFFFFFFFFFFFFFFFFFFFFFFFFFFFFFFF AND PUSH1 0x3 DUP3 DUP2 SLOAD DUP2 LT PUSH2 0xE6F JUMPI PUSH2 0xE6E PUSH2 0x1D94 JUMP JUMPDEST JUMPDEST SWAP1 PUSH1 0x0 MSTORE PUSH1 0x20 PUSH1 0x0 KECCAK256 ADD PUSH1 0x0 SWAP1 SLOAD SWAP1 PUSH2 0x100 EXP SWAP1 DIV PUSH20 0xFFFFFFFFFFFFFFFFFFFFFFFFFFFFFFFFFFFFFFFF AND PUSH20 0xFFFFFFFFFFFFFFFFFFFFFFFFFFFFFFFFFFFFFFFF AND EQ PUSH2 0xEBC JUMPI PUSH1 0x0 PUSH2 0xEBF JUMP JUMPDEST PUSH1 0x1 JUMPDEST PUSH1 0x2 PUSH1 0x0 CALLER PUSH20 0xFFFFFFFFFFFFFFFFFFFFFFFFFFFFFFFFFFFFFFFF AND PUSH20 0xFFFFFFFFFFFFFFFFFFFFFFFFFFFFFFFFFFFFFFFF AND DUP2 MSTORE PUSH1 0x20 ADD SWAP1 DUP2 MSTORE PUSH1 0x20 ADD PUSH1 0x0 KECCAK256 PUSH1 0x0 PUSH1 0x3 DUP5 DUP2 SLOAD DUP2 LT PUSH2 0xF14 JUMPI PUSH2 0xF13 PUSH2 0x1D94 JUMP JUMPDEST JUMPDEST SWAP1 PUSH1 0x0 MSTORE PUSH1 0x20 PUSH1 0x0 KECCAK256 ADD PUSH1 0x0 SWAP1 SLOAD SWAP1 PUSH2 0x100 EXP SWAP1 DIV PUSH20 0xFFFFFFFFFFFFFFFFFFFFFFFFFFFFFFFFFFFFFFFF AND PUSH20 0xFFFFFFFFFFFFFFFFFFFFFFFFFFFFFFFFFFFFFFFF AND PUSH20 0xFFFFFFFFFFFFFFFFFFFFFFFFFFFFFFFFFFFFFFFF AND DUP2 MSTORE PUSH1 0x20 ADD SWAP1 DUP2 MSTORE PUSH1 0x20 ADD PUSH1 0x0 KECCAK256 PUSH1 0x0 PUSH2 0x100 EXP DUP2 SLOAD DUP2 PUSH1 0xFF MUL NOT AND SWAP1 DUP4 ISZERO ISZERO MUL OR SWAP1 SSTORE POP DUP1 DUP1 PUSH2 0xF9B SWAP1 PUSH2 0x1DF2 JUMP JUMPDEST SWAP2 POP POP PUSH2 0xE37 JUMP JUMPDEST POP POP JUMP JUMPDEST PUSH1 0x0 DUP3 DUP3 PUSH1 0x40 MLOAD PUSH1 0x20 ADD PUSH2 0xFBC SWAP3 SWAP2 SWAP1 PUSH2 0x2234 JUMP JUMPDEST PUSH1 0x40 MLOAD PUSH1 0x20 DUP2 DUP4 SUB SUB DUP2 MSTORE SWAP1 PUSH1 0x40 MSTORE DUP1 MLOAD SWAP1 PUSH1 0x20 ADD KECCAK256 DUP6 DUP6 PUSH1 0x40 MLOAD PUSH1 0x20 ADD PUSH2 0xFE5 SWAP3 SWAP2 SWAP1 PUSH2 0x2234 JUMP JUMPDEST PUSH1 0x40 MLOAD PUSH1 0x20 DUP2 DUP4 SUB SUB DUP2 MSTORE SWAP1 PUSH1 0x40 MSTORE DUP1 MLOAD SWAP1 PUSH1 0x20 ADD KECCAK256 EQ SWAP1 POP SWAP5 SWAP4 POP POP POP POP JUMP JUMPDEST PUSH1 0x40 MLOAD DUP1 PUSH2 0x140 ADD PUSH1 0x40 MSTORE DUP1 PUSH1 0xA SWAP1 JUMPDEST PUSH2 0x101E PUSH2 0x1034 JUMP JUMPDEST DUP2 MSTORE PUSH1 0x20 ADD SWAP1 PUSH1 0x1 SWAP1 SUB SWAP1 DUP2 PUSH2 0x1016 JUMPI SWAP1 POP POP SWAP1 JUMP JUMPDEST PUSH1 0x40 MLOAD DUP1 PUSH1 0x60 ADD PUSH1 0x40 MSTORE DUP1 PUSH1 0x60 DUP2 MSTORE PUSH1 0x20 ADD PUSH1 0x0 DUP2 MSTORE PUSH1 0x20 ADD PUSH1 0x0 DUP2 MSTORE POP SWAP1 JUMP JUMPDEST PUSH1 0x40 MLOAD DUP1 PUSH1 0x60 ADD PUSH1 0x40 MSTORE DUP1 PUSH1 0x3 SWAP1 PUSH1 0x20 DUP3 MUL DUP1 CALLDATASIZE DUP4 CALLDATACOPY DUP1 DUP3 ADD SWAP2 POP POP SWAP1 POP POP SWAP1 JUMP JUMPDEST DUP3 PUSH1 0x3 DUP2 ADD SWAP3 DUP3 ISZERO PUSH2 0x10A6 JUMPI SWAP2 PUSH1 0x20 MUL DUP3 ADD JUMPDEST DUP3 DUP2 GT ISZERO PUSH2 0x10A5 JUMPI DUP3 MLOAD DUP3 SSTORE SWAP2 PUSH1 0x20 ADD SWAP2 SWAP1 PUSH1 0x1 ADD SWAP1 PUSH2 0x108A JUMP JUMPDEST JUMPDEST POP SWAP1 POP PUSH2 0x10B3 SWAP2 SWAP1 PUSH2 0x10F7 JUMP JUMPDEST POP SWAP1 JUMP JUMPDEST POP DUP1 SLOAD PUSH2 0x10C3 SWAP1 PUSH2 0x1ED5 JUMP JUMPDEST PUSH1 0x0 DUP3 SSTORE DUP1 PUSH1 0x1F LT PUSH2 0x10D5 JUMPI POP PUSH2 0x10F4 JUMP JUMPDEST PUSH1 0x1F ADD PUSH1 0x20 SWAP1 DIV SWAP1 PUSH1 0x0 MSTORE PUSH1 0x20 PUSH1 0x0 KECCAK256 SWAP1 DUP2 ADD SWAP1 PUSH2 0x10F3 SWAP2 SWAP1 PUSH2 0x10F7 JUMP JUMPDEST JUMPDEST POP JUMP JUMPDEST JUMPDEST DUP1 DUP3 GT ISZERO PUSH2 0x1110 JUMPI PUSH1 0x0 DUP2 PUSH1 0x0 SWAP1 SSTORE POP PUSH1 0x1 ADD PUSH2 0x10F8 JUMP JUMPDEST POP SWAP1 JUMP JUMPDEST PUSH1 0x0 PUSH1 0x40 MLOAD SWAP1 POP SWAP1 JUMP JUMPDEST PUSH1 0x0 DUP1 REVERT JUMPDEST PUSH1 0x0 DUP1 REVERT JUMPDEST PUSH1 0x0 DUP2 SWAP1 POP SWAP2 SWAP1 POP JUMP JUMPDEST PUSH2 0x113B DUP2 PUSH2 0x1128 JUMP JUMPDEST DUP2 EQ PUSH2 0x1146 JUMPI PUSH1 0x0 DUP1 REVERT JUMPDEST POP JUMP JUMPDEST PUSH1 0x0 DUP2 CALLDATALOAD SWAP1 POP PUSH2 0x1158 DUP2 PUSH2 0x1132 JUMP JUMPDEST SWAP3 SWAP2 POP POP JUMP JUMPDEST PUSH1 0x0 DUP1 REVERT JUMPDEST PUSH1 0x0 PUSH1 0x1F NOT PUSH1 0x1F DUP4 ADD AND SWAP1 POP SWAP2 SWAP1 POP JUMP JUMPDEST PUSH32 0x4E487B7100000000000000000000000000000000000000000000000000000000 PUSH1 0x0 MSTORE PUSH1 0x41 PUSH1 0x4 MSTORE PUSH1 0x24 PUSH1 0x0 REVERT JUMPDEST PUSH2 0x11AC DUP3 PUSH2 0x1163 JUMP JUMPDEST DUP2 ADD DUP2 DUP2 LT PUSH8 0xFFFFFFFFFFFFFFFF DUP3 GT OR ISZERO PUSH2 0x11CB JUMPI PUSH2 0x11CA PUSH2 0x1174 JUMP JUMPDEST JUMPDEST DUP1 PUSH1 0x40 MSTORE POP POP POP JUMP JUMPDEST PUSH1 0x0 PUSH2 0x11DE PUSH2 0x1114 JUMP JUMPDEST SWAP1 POP PUSH2 0x11EA DUP3 DUP3 PUSH2 0x11A3 JUMP JUMPDEST SWAP2 SWAP1 POP JUMP JUMPDEST PUSH1 0x0 PUSH8 0xFFFFFFFFFFFFFFFF DUP3 GT ISZERO PUSH2 0x120A JUMPI PUSH2 0x1209 PUSH2 0x1174 JUMP JUMPDEST JUMPDEST PUSH1 0x20 DUP3 MUL SWAP1 POP PUSH1 0x20 DUP2 ADD SWAP1 POP SWAP2 SWAP1 POP JUMP JUMPDEST PUSH1 0x0 DUP1 REVERT JUMPDEST PUSH1 0x0 PUSH2 0x1233 PUSH2 0x122E DUP5 PUSH2 0x11EF JUMP JUMPDEST PUSH2 0x11D4 JUMP JUMPDEST SWAP1 POP DUP1 DUP4 DUP3 MSTORE PUSH1 0x20 DUP3 ADD SWAP1 POP PUSH1 0x20 DUP5 MUL DUP4 ADD DUP6 DUP2 GT ISZERO PUSH2 0x1256 JUMPI PUSH2 0x1255 PUSH2 0x121B JUMP JUMPDEST JUMPDEST DUP4 JUMPDEST DUP2 DUP2 LT ISZERO PUSH2 0x127F JUMPI DUP1 PUSH2 0x126B DUP9 DUP3 PUSH2 0x1149 JUMP JUMPDEST DUP5 MSTORE PUSH1 0x20 DUP5 ADD SWAP4 POP POP PUSH1 0x20 DUP2 ADD SWAP1 POP PUSH2 0x1258 JUMP JUMPDEST POP POP POP SWAP4 SWAP3 POP POP POP JUMP JUMPDEST PUSH1 0x0 DUP3 PUSH1 0x1F DUP4 ADD SLT PUSH2 0x129E JUMPI PUSH2 0x129D PUSH2 0x115E JUMP JUMPDEST JUMPDEST DUP2 CALLDATALOAD PUSH2 0x12AE DUP5 DUP3 PUSH1 0x20 DUP7 ADD PUSH2 0x1220 JUMP JUMPDEST SWAP2 POP POP SWAP3 SWAP2 POP POP JUMP JUMPDEST PUSH1 0x0 DUP1 PUSH1 0x40 DUP4 DUP6 SUB SLT ISZERO PUSH2 0x12CE JUMPI PUSH2 0x12CD PUSH2 0x111E JUMP JUMPDEST JUMPDEST PUSH1 0x0 PUSH2 0x12DC DUP6 DUP3 DUP7 ADD PUSH2 0x1149 JUMP JUMPDEST SWAP3 POP POP PUSH1 0x20 DUP4 ADD CALLDATALOAD PUSH8 0xFFFFFFFFFFFFFFFF DUP2 GT ISZERO PUSH2 0x12FD JUMPI PUSH2 0x12FC PUSH2 0x1123 JUMP JUMPDEST JUMPDEST PUSH2 0x1309 DUP6 DUP3 DUP7 ADD PUSH2 0x1289 JUMP JUMPDEST SWAP2 POP POP SWAP3 POP SWAP3 SWAP1 POP JUMP JUMPDEST PUSH1 0x0 DUP2 ISZERO ISZERO SWAP1 POP SWAP2 SWAP1 POP JUMP JUMPDEST PUSH2 0x1328 DUP2 PUSH2 0x1313 JUMP JUMPDEST DUP3 MSTORE POP POP JUMP JUMPDEST PUSH1 0x0 PUSH1 0x20 DUP3 ADD SWAP1 POP PUSH2 0x1343 PUSH1 0x0 DUP4 ADD DUP5 PUSH2 0x131F JUMP JUMPDEST SWAP3 SWAP2 POP POP JUMP JUMPDEST PUSH1 0x0 DUP2 SWAP1 POP SWAP2 SWAP1 POP JUMP JUMPDEST PUSH2 0x135C DUP2 PUSH2 0x1349 JUMP JUMPDEST DUP3 MSTORE POP POP JUMP JUMPDEST PUSH1 0x0 PUSH1 0x20 DUP3 ADD SWAP1 POP PUSH2 0x1377 PUSH1 0x0 DUP4 ADD DUP5 PUSH2 0x1353 JUMP JUMPDEST SWAP3 SWAP2 POP POP JUMP JUMPDEST PUSH1 0x0 PUSH20 0xFFFFFFFFFFFFFFFFFFFFFFFFFFFFFFFFFFFFFFFF DUP3 AND SWAP1 POP SWAP2 SWAP1 POP JUMP JUMPDEST PUSH1 0x0 PUSH2 0x13A8 DUP3 PUSH2 0x137D JUMP JUMPDEST SWAP1 POP SWAP2 SWAP1 POP JUMP JUMPDEST PUSH2 0x13B8 DUP2 PUSH2 0x139D JUMP JUMPDEST DUP3 MSTORE POP POP JUMP JUMPDEST PUSH1 0x0 PUSH1 0x20 DUP3 ADD SWAP1 POP PUSH2 0x13D3 PUSH1 0x0 DUP4 ADD DUP5 PUSH2 0x13AF JUMP JUMPDEST SWAP3 SWAP2 POP POP JUMP JUMPDEST PUSH1 0x0 PUSH1 0xA SWAP1 POP SWAP2 SWAP1 POP JUMP JUMPDEST PUSH1 0x0 DUP2 SWAP1 POP SWAP3 SWAP2 POP POP JUMP JUMPDEST PUSH1 0x0 DUP2 SWAP1 POP SWAP2 SWAP1 POP JUMP JUMPDEST PUSH1 0x0 DUP2 MLOAD SWAP1 POP SWAP2 SWAP1 POP JUMP JUMPDEST PUSH1 0x0 DUP3 DUP3 MSTORE PUSH1 0x20 DUP3 ADD SWAP1 POP SWAP3 SWAP2 POP POP JUMP JUMPDEST PUSH1 0x0 JUMPDEST DUP4 DUP2 LT ISZERO PUSH2 0x1433 JUMPI DUP1 DUP3 ADD MLOAD DUP2 DUP5 ADD MSTORE PUSH1 0x20 DUP2 ADD SWAP1 POP PUSH2 0x1418 JUMP JUMPDEST PUSH1 0x0 DUP5 DUP5 ADD MSTORE POP POP POP POP JUMP JUMPDEST PUSH1 0x0 PUSH2 0x144A DUP3 PUSH2 0x13F9 JUMP JUMPDEST PUSH2 0x1454 DUP2 DUP6 PUSH2 0x1404 JUMP JUMPDEST SWAP4 POP PUSH2 0x1464 DUP2 DUP6 PUSH1 0x20 DUP7 ADD PUSH2 0x1415 JUMP JUMPDEST PUSH2 0x146D DUP2 PUSH2 0x1163 JUMP JUMPDEST DUP5 ADD SWAP2 POP POP SWAP3 SWAP2 POP POP JUMP JUMPDEST PUSH2 0x1481 DUP2 PUSH2 0x1128 JUMP JUMPDEST DUP3 MSTORE POP POP JUMP JUMPDEST PUSH1 0x0 PUSH1 0x60 DUP4 ADD PUSH1 0x0 DUP4 ADD MLOAD DUP5 DUP3 SUB PUSH1 0x0 DUP7 ADD MSTORE PUSH2 0x14A4 DUP3 DUP3 PUSH2 0x143F JUMP JUMPDEST SWAP2 POP POP PUSH1 0x20 DUP4 ADD MLOAD PUSH2 0x14B9 PUSH1 0x20 DUP7 ADD DUP3 PUSH2 0x1478 JUMP JUMPDEST POP PUSH1 0x40 DUP4 ADD MLOAD PUSH2 0x14CC PUSH1 0x40 DUP7 ADD DUP3 PUSH2 0x1478 JUMP JUMPDEST POP DUP1 SWAP2 POP POP SWAP3 SWAP2 POP POP JUMP JUMPDEST PUSH1 0x0 PUSH2 0x14E3 DUP4 DUP4 PUSH2 0x1487 JUMP JUMPDEST SWAP1 POP SWAP3 SWAP2 POP POP JUMP JUMPDEST PUSH1 0x0 PUSH1 0x20 DUP3 ADD SWAP1 POP SWAP2 SWAP1 POP JUMP JUMPDEST PUSH1 0x0 PUSH2 0x1503 DUP3 PUSH2 0x13D9 JUMP JUMPDEST PUSH2 0x150D DUP2 DUP6 PUSH2 0x13E4 JUMP JUMPDEST SWAP4 POP DUP4 PUSH1 0x20 DUP3 MUL DUP6 ADD PUSH2 0x151F DUP6 PUSH2 0x13EF JUMP JUMPDEST DUP1 PUSH1 0x0 JUMPDEST DUP6 DUP2 LT ISZERO PUSH2 0x155B JUMPI DUP5 DUP5 SUB DUP10 MSTORE DUP2 MLOAD PUSH2 0x153C DUP6 DUP3 PUSH2 0x14D7 JUMP JUMPDEST SWAP5 POP PUSH2 0x1547 DUP4 PUSH2 0x14EB JUMP JUMPDEST SWAP3 POP PUSH1 0x20 DUP11 ADD SWAP10 POP POP PUSH1 0x1 DUP2 ADD SWAP1 POP PUSH2 0x1523 JUMP JUMPDEST POP DUP3 SWAP8 POP DUP8 SWAP6 POP POP POP POP POP POP SWAP3 SWAP2 POP POP JUMP JUMPDEST PUSH1 0x0 PUSH1 0x20 DUP3 ADD SWAP1 POP DUP2 DUP2 SUB PUSH1 0x0 DUP4 ADD MSTORE PUSH2 0x1587 DUP2 DUP5 PUSH2 0x14F8 JUMP JUMPDEST SWAP1 POP SWAP3 SWAP2 POP POP JUMP JUMPDEST PUSH1 0x0 DUP1 REVERT JUMPDEST PUSH1 0x0 DUP1 DUP4 PUSH1 0x1F DUP5 ADD SLT PUSH2 0x15AA JUMPI PUSH2 0x15A9 PUSH2 0x115E JUMP JUMPDEST JUMPDEST DUP3 CALLDATALOAD SWAP1 POP PUSH8 0xFFFFFFFFFFFFFFFF DUP2 GT ISZERO PUSH2 0x15C7 JUMPI PUSH2 0x15C6 PUSH2 0x158F JUMP JUMPDEST JUMPDEST PUSH1 0x20 DUP4 ADD SWAP2 POP DUP4 PUSH1 0x1 DUP3 MUL DUP4 ADD GT ISZERO PUSH2 0x15E3 JUMPI PUSH2 0x15E2 PUSH2 0x121B JUMP JUMPDEST JUMPDEST SWAP3 POP SWAP3 SWAP1 POP JUMP JUMPDEST PUSH1 0x0 DUP1 PUSH1 0x0 DUP1 PUSH1 0x40 DUP6 DUP8 SUB SLT ISZERO PUSH2 0x1604 JUMPI PUSH2 0x1603 PUSH2 0x111E JUMP JUMPDEST JUMPDEST PUSH1 0x0 DUP6 ADD CALLDATALOAD PUSH8 0xFFFFFFFFFFFFFFFF DUP2 GT ISZERO PUSH2 0x1622 JUMPI PUSH2 0x1621 PUSH2 0x1123 JUMP JUMPDEST JUMPDEST PUSH2 0x162E DUP8 DUP3 DUP9 ADD PUSH2 0x1594 JUMP JUMPDEST SWAP5 POP SWAP5 POP POP PUSH1 0x20 DUP6 ADD CALLDATALOAD PUSH8 0xFFFFFFFFFFFFFFFF DUP2 GT ISZERO PUSH2 0x1651 JUMPI PUSH2 0x1650 PUSH2 0x1123 JUMP JUMPDEST JUMPDEST PUSH2 0x165D DUP8 DUP3 DUP9 ADD PUSH2 0x1594 JUMP JUMPDEST SWAP3 POP SWAP3 POP POP SWAP3 SWAP6 SWAP2 SWAP5 POP SWAP3 POP JUMP JUMPDEST PUSH1 0x0 DUP3 DUP3 MSTORE PUSH1 0x20 DUP3 ADD SWAP1 POP SWAP3 SWAP2 POP POP JUMP JUMPDEST PUSH1 0x0 PUSH2 0x1687 DUP3 PUSH2 0x13F9 JUMP JUMPDEST PUSH2 0x1691 DUP2 DUP6 PUSH2 0x166B JUMP JUMPDEST SWAP4 POP PUSH2 0x16A1 DUP2 DUP6 PUSH1 0x20 DUP7 ADD PUSH2 0x1415 JUMP JUMPDEST PUSH2 0x16AA DUP2 PUSH2 0x1163 JUMP JUMPDEST DUP5 ADD SWAP2 POP POP SWAP3 SWAP2 POP POP JUMP JUMPDEST PUSH1 0x0 PUSH1 0x20 DUP3 ADD SWAP1 POP DUP2 DUP2 SUB PUSH1 0x0 DUP4 ADD MSTORE PUSH2 0x16CF DUP2 DUP5 PUSH2 0x167C JUMP JUMPDEST SWAP1 POP SWAP3 SWAP2 POP POP JUMP JUMPDEST PUSH1 0x0 DUP1 REVERT JUMPDEST PUSH1 0x0 PUSH8 0xFFFFFFFFFFFFFFFF DUP3 GT ISZERO PUSH2 0x16F7 JUMPI PUSH2 0x16F6 PUSH2 0x1174 JUMP JUMPDEST JUMPDEST PUSH2 0x1700 DUP3 PUSH2 0x1163 JUMP JUMPDEST SWAP1 POP PUSH1 0x20 DUP2 ADD SWAP1 POP SWAP2 SWAP1 POP JUMP JUMPDEST DUP3 DUP2 DUP4 CALLDATACOPY PUSH1 0x0 DUP4 DUP4 ADD MSTORE POP POP POP JUMP JUMPDEST PUSH1 0x0 PUSH2 0x172F PUSH2 0x172A DUP5 PUSH2 0x16DC JUMP JUMPDEST PUSH2 0x11D4 JUMP JUMPDEST SWAP1 POP DUP3 DUP2 MSTORE PUSH1 0x20 DUP2 ADD DUP5 DUP5 DUP5 ADD GT ISZERO PUSH2 0x174B JUMPI PUSH2 0x174A PUSH2 0x16D7 JUMP JUMPDEST JUMPDEST PUSH2 0x1756 DUP5 DUP3 DUP6 PUSH2 0x170D JUMP JUMPDEST POP SWAP4 SWAP3 POP POP POP JUMP JUMPDEST PUSH1 0x0 DUP3 PUSH1 0x1F DUP4 ADD SLT PUSH2 0x1773 JUMPI PUSH2 0x1772 PUSH2 0x115E JUMP JUMPDEST JUMPDEST DUP2 CALLDATALOAD PUSH2 0x1783 DUP5 DUP3 PUSH1 0x20 DUP7 ADD PUSH2 0x171C JUMP JUMPDEST SWAP2 POP POP SWAP3 SWAP2 POP POP JUMP JUMPDEST PUSH1 0x0 DUP1 PUSH1 0x0 PUSH1 0x60 DUP5 DUP7 SUB SLT ISZERO PUSH2 0x17A5 JUMPI PUSH2 0x17A4 PUSH2 0x111E JUMP JUMPDEST JUMPDEST PUSH1 0x0 DUP5 ADD CALLDATALOAD PUSH8 0xFFFFFFFFFFFFFFFF DUP2 GT ISZERO PUSH2 0x17C3 JUMPI PUSH2 0x17C2 PUSH2 0x1123 JUMP JUMPDEST JUMPDEST PUSH2 0x17CF DUP7 DUP3 DUP8 ADD PUSH2 0x175E JUMP JUMPDEST SWAP4 POP POP PUSH1 0x20 PUSH2 0x17E0 DUP7 DUP3 DUP8 ADD PUSH2 0x1149 JUMP JUMPDEST SWAP3 POP POP PUSH1 0x40 PUSH2 0x17F1 DUP7 DUP3 DUP8 ADD PUSH2 0x1149 JUMP JUMPDEST SWAP2 POP POP SWAP3 POP SWAP3 POP SWAP3 JUMP JUMPDEST PUSH1 0x0 PUSH1 0x60 DUP4 ADD PUSH1 0x0 DUP4 ADD MLOAD DUP5 DUP3 SUB PUSH1 0x0 DUP7 ADD MSTORE PUSH2 0x1818 DUP3 DUP3 PUSH2 0x143F JUMP JUMPDEST SWAP2 POP POP PUSH1 0x20 DUP4 ADD MLOAD PUSH2 0x182D PUSH1 0x20 DUP7 ADD DUP3 PUSH2 0x1478 JUMP JUMPDEST POP PUSH1 0x40 DUP4 ADD MLOAD PUSH2 0x1840 PUSH1 0x40 DUP7 ADD DUP3 PUSH2 0x1478 JUMP JUMPDEST POP DUP1 SWAP2 POP POP SWAP3 SWAP2 POP POP JUMP JUMPDEST PUSH1 0x0 PUSH1 0x20 DUP3 ADD SWAP1 POP DUP2 DUP2 SUB PUSH1 0x0 DUP4 ADD MSTORE PUSH2 0x1865 DUP2 DUP5 PUSH2 0x17FB JUMP JUMPDEST SWAP1 POP SWAP3 SWAP2 POP POP JUMP JUMPDEST PUSH2 0x1876 DUP2 PUSH2 0x1349 JUMP JUMPDEST DUP2 EQ PUSH2 0x1881 JUMPI PUSH1 0x0 DUP1 REVERT JUMPDEST POP JUMP JUMPDEST PUSH1 0x0 DUP2 CALLDATALOAD SWAP1 POP PUSH2 0x1893 DUP2 PUSH2 0x186D JUMP JUMPDEST SWAP3 SWAP2 POP POP JUMP JUMPDEST PUSH1 0x0 DUP1 PUSH1 0x0 DUP1 PUSH1 0x80 DUP6 DUP8 SUB SLT ISZERO PUSH2 0x18B3 JUMPI PUSH2 0x18B2 PUSH2 0x111E JUMP JUMPDEST JUMPDEST PUSH1 0x0 DUP6 ADD CALLDATALOAD PUSH8 0xFFFFFFFFFFFFFFFF DUP2 GT ISZERO PUSH2 0x18D1 JUMPI PUSH2 0x18D0 PUSH2 0x1123 JUMP JUMPDEST JUMPDEST PUSH2 0x18DD DUP8 DUP3 DUP9 ADD PUSH2 0x175E JUMP JUMPDEST SWAP5 POP POP PUSH1 0x20 PUSH2 0x18EE DUP8 DUP3 DUP9 ADD PUSH2 0x1149 JUMP JUMPDEST SWAP4 POP POP PUSH1 0x40 PUSH2 0x18FF DUP8 DUP3 DUP9 ADD PUSH2 0x1149 JUMP JUMPDEST SWAP3 POP POP PUSH1 0x60 PUSH2 0x1910 DUP8 DUP3 DUP9 ADD PUSH2 0x1884 JUMP JUMPDEST SWAP2 POP POP SWAP3 SWAP6 SWAP2 SWAP5 POP SWAP3 POP JUMP JUMPDEST PUSH32 0x4E487B7100000000000000000000000000000000000000000000000000000000 PUSH1 0x0 MSTORE PUSH1 0x21 PUSH1 0x4 MSTORE PUSH1 0x24 PUSH1 0x0 REVERT JUMPDEST PUSH1 0x3 DUP2 LT PUSH2 0x195C JUMPI PUSH2 0x195B PUSH2 0x191C JUMP JUMPDEST JUMPDEST POP JUMP JUMPDEST PUSH1 0x0 DUP2 SWAP1 POP PUSH2 0x196D DUP3 PUSH2 0x194B JUMP JUMPDEST SWAP2 SWAP1 POP JUMP JUMPDEST PUSH1 0x0 PUSH2 0x197D DUP3 PUSH2 0x195F JUMP JUMPDEST SWAP1 POP SWAP2 SWAP1 POP JUMP JUMPDEST PUSH2 0x198D DUP2 PUSH2 0x1972 JUMP JUMPDEST DUP3 MSTORE POP POP JUMP JUMPDEST PUSH1 0x0 PUSH1 0x20 DUP3 ADD SWAP1 POP PUSH2 0x19A8 PUSH1 0x0 DUP4 ADD DUP5 PUSH2 0x1984 JUMP JUMPDEST SWAP3 SWAP2 POP POP JUMP JUMPDEST PUSH1 0x0 PUSH1 0x20 DUP3 DUP5 SUB SLT ISZERO PUSH2 0x19C4 JUMPI PUSH2 0x19C3 PUSH2 0x111E JUMP JUMPDEST JUMPDEST PUSH1 0x0 PUSH2 0x19D2 DUP5 DUP3 DUP6 ADD PUSH2 0x1884 JUMP JUMPDEST SWAP2 POP POP SWAP3 SWAP2 POP POP JUMP JUMPDEST PUSH1 0x0 PUSH1 0x3 SWAP1 POP SWAP2 SWAP1 POP JUMP JUMPDEST PUSH1 0x0 DUP2 SWAP1 POP SWAP3 SWAP2 POP POP JUMP JUMPDEST PUSH1 0x0 DUP2 SWAP1 POP SWAP2 SWAP1 POP JUMP JUMPDEST PUSH2 0x1A04 DUP2 PUSH2 0x1349 JUMP JUMPDEST DUP3 MSTORE POP POP JUMP JUMPDEST PUSH1 0x0 PUSH2 0x1A16 DUP4 DUP4 PUSH2 0x19FB JUMP JUMPDEST PUSH1 0x20 DUP4 ADD SWAP1 POP SWAP3 SWAP2 POP POP JUMP JUMPDEST PUSH1 0x0 PUSH1 0x20 DUP3 ADD SWAP1 POP SWAP2 SWAP1 POP JUMP JUMPDEST PUSH2 0x1A38 DUP2 PUSH2 0x19DB JUMP JUMPDEST PUSH2 0x1A42 DUP2 DUP5 PUSH2 0x19E6 JUMP JUMPDEST SWAP3 POP PUSH2 0x1A4D DUP3 PUSH2 0x19F1 JUMP JUMPDEST DUP1 PUSH1 0x0 JUMPDEST DUP4 DUP2 LT ISZERO PUSH2 0x1A7E JUMPI DUP2 MLOAD PUSH2 0x1A65 DUP8 DUP3 PUSH2 0x1A0A JUMP JUMPDEST SWAP7 POP PUSH2 0x1A70 DUP4 PUSH2 0x1A22 JUMP JUMPDEST SWAP3 POP POP PUSH1 0x1 DUP2 ADD SWAP1 POP PUSH2 0x1A51 JUMP JUMPDEST POP POP POP POP POP POP JUMP JUMPDEST PUSH1 0x0 PUSH1 0x60 DUP3 ADD SWAP1 POP PUSH2 0x1A9B PUSH1 0x0 DUP4 ADD DUP5 PUSH2 0x1A2F JUMP JUMPDEST SWAP3 SWAP2 POP POP JUMP JUMPDEST PUSH2 0x1AAA DUP2 PUSH2 0x139D JUMP JUMPDEST DUP2 EQ PUSH2 0x1AB5 JUMPI PUSH1 0x0 DUP1 REVERT JUMPDEST POP JUMP JUMPDEST PUSH1 0x0 DUP2 CALLDATALOAD SWAP1 POP PUSH2 0x1AC7 DUP2 PUSH2 0x1AA1 JUMP JUMPDEST SWAP3 SWAP2 POP POP JUMP JUMPDEST PUSH1 0x0 DUP1 PUSH1 0x40 DUP4 DUP6 SUB SLT ISZERO PUSH2 0x1AE4 JUMPI PUSH2 0x1AE3 PUSH2 0x111E JUMP JUMPDEST JUMPDEST PUSH1 0x0 PUSH2 0x1AF2 DUP6 DUP3 DUP7 ADD PUSH2 0x1AB8 JUMP JUMPDEST SWAP3 POP POP PUSH1 0x20 PUSH2 0x1B03 DUP6 DUP3 DUP7 ADD PUSH2 0x1AB8 JUMP JUMPDEST SWAP2 POP POP SWAP3 POP SWAP3 SWAP1 POP JUMP JUMPDEST PUSH1 0x0 DUP1 PUSH1 0x0 PUSH1 0x60 DUP5 DUP7 SUB SLT ISZERO PUSH2 0x1B26 JUMPI PUSH2 0x1B25 PUSH2 0x111E JUMP JUMPDEST JUMPDEST PUSH1 0x0 PUSH2 0x1B34 DUP7 DUP3 DUP8 ADD PUSH2 0x1884 JUMP JUMPDEST SWAP4 POP POP PUSH1 0x20 PUSH2 0x1B45 DUP7 DUP3 DUP8 ADD PUSH2 0x1884 JUMP JUMPDEST SWAP3 POP POP PUSH1 0x40 PUSH2 0x1B56 DUP7 DUP3 DUP8 ADD PUSH2 0x1884 JUMP JUMPDEST SWAP2 POP POP SWAP3 POP SWAP3 POP SWAP3 JUMP JUMPDEST PUSH1 0x0 DUP1 PUSH1 0x40 DUP4 DUP6 SUB SLT ISZERO PUSH2 0x1B77 JUMPI PUSH2 0x1B76 PUSH2 0x111E JUMP JUMPDEST JUMPDEST PUSH1 0x0 DUP4 ADD CALLDATALOAD PUSH8 0xFFFFFFFFFFFFFFFF DUP2 GT ISZERO PUSH2 0x1B95 JUMPI PUSH2 0x1B94 PUSH2 0x1123 JUMP JUMPDEST JUMPDEST PUSH2 0x1BA1 DUP6 DUP3 DUP7 ADD PUSH2 0x175E JUMP JUMPDEST SWAP3 POP POP PUSH1 0x20 PUSH2 0x1BB2 DUP6 DUP3 DUP7 ADD PUSH2 0x1884 JUMP JUMPDEST SWAP2 POP POP SWAP3 POP SWAP3 SWAP1 POP JUMP JUMPDEST PUSH2 0x1BC5 DUP2 PUSH2 0x1128 JUMP JUMPDEST DUP3 MSTORE POP POP JUMP JUMPDEST PUSH1 0x0 PUSH1 0x60 DUP3 ADD SWAP1 POP DUP2 DUP2 SUB PUSH1 0x0 DUP4 ADD MSTORE PUSH2 0x1BE5 DUP2 DUP7 PUSH2 0x167C JUMP JUMPDEST SWAP1 POP PUSH2 0x1BF4 PUSH1 0x20 DUP4 ADD DUP6 PUSH2 0x1BBC JUMP JUMPDEST PUSH2 0x1C01 PUSH1 0x40 DUP4 ADD DUP5 PUSH2 0x1BBC JUMP JUMPDEST SWAP5 SWAP4 POP POP POP POP JUMP JUMPDEST PUSH1 0x0 PUSH8 0xFFFFFFFFFFFFFFFF DUP3 GT ISZERO PUSH2 0x1C24 JUMPI PUSH2 0x1C23 PUSH2 0x1174 JUMP JUMPDEST JUMPDEST PUSH1 0x20 DUP3 MUL SWAP1 POP PUSH1 0x20 DUP2 ADD SWAP1 POP SWAP2 SWAP1 POP JUMP JUMPDEST PUSH1 0x0 PUSH2 0x1C48 PUSH2 0x1C43 DUP5 PUSH2 0x1C09 JUMP JUMPDEST PUSH2 0x11D4 JUMP JUMPDEST SWAP1 POP DUP1 DUP4 DUP3 MSTORE PUSH1 0x20 DUP3 ADD SWAP1 POP PUSH1 0x20 DUP5 MUL DUP4 ADD DUP6 DUP2 GT ISZERO PUSH2 0x1C6B JUMPI PUSH2 0x1C6A PUSH2 0x121B JUMP JUMPDEST JUMPDEST DUP4 JUMPDEST DUP2 DUP2 LT ISZERO PUSH2 0x1C94 JUMPI DUP1 PUSH2 0x1C80 DUP9 DUP3 PUSH2 0x1884 JUMP JUMPDEST DUP5 MSTORE PUSH1 0x20 DUP5 ADD SWAP4 POP POP PUSH1 0x20 DUP2 ADD SWAP1 POP PUSH2 0x1C6D JUMP JUMPDEST POP POP POP SWAP4 SWAP3 POP POP POP JUMP JUMPDEST PUSH1 0x0 DUP3 PUSH1 0x1F DUP4 ADD SLT PUSH2 0x1CB3 JUMPI PUSH2 0x1CB2 PUSH2 0x115E JUMP JUMPDEST JUMPDEST DUP2 CALLDATALOAD PUSH2 0x1CC3 DUP5 DUP3 PUSH1 0x20 DUP7 ADD PUSH2 0x1C35 JUMP JUMPDEST SWAP2 POP POP SWAP3 SWAP2 POP POP JUMP JUMPDEST PUSH1 0x0 PUSH1 0x20 DUP3 DUP5 SUB SLT ISZERO PUSH2 0x1CE2 JUMPI PUSH2 0x1CE1 PUSH2 0x111E JUMP JUMPDEST JUMPDEST PUSH1 0x0 DUP3 ADD CALLDATALOAD PUSH8 0xFFFFFFFFFFFFFFFF DUP2 GT ISZERO PUSH2 0x1D00 JUMPI PUSH2 0x1CFF PUSH2 0x1123 JUMP JUMPDEST JUMPDEST PUSH2 0x1D0C DUP5 DUP3 DUP6 ADD PUSH2 0x1C9E JUMP JUMPDEST SWAP2 POP POP SWAP3 SWAP2 POP POP JUMP JUMPDEST PUSH1 0x3 DUP2 LT PUSH2 0x1D22 JUMPI PUSH1 0x0 DUP1 REVERT JUMPDEST POP JUMP JUMPDEST PUSH1 0x0 DUP2 CALLDATALOAD SWAP1 POP PUSH2 0x1D34 DUP2 PUSH2 0x1D15 JUMP JUMPDEST SWAP3 SWAP2 POP POP JUMP JUMPDEST PUSH1 0x0 PUSH1 0x20 DUP3 DUP5 SUB SLT ISZERO PUSH2 0x1D50 JUMPI PUSH2 0x1D4F PUSH2 0x111E JUMP JUMPDEST JUMPDEST PUSH1 0x0 PUSH2 0x1D5E DUP5 DUP3 DUP6 ADD PUSH2 0x1D25 JUMP JUMPDEST SWAP2 POP POP SWAP3 SWAP2 POP POP JUMP JUMPDEST PUSH1 0x0 PUSH1 0x20 DUP3 DUP5 SUB SLT ISZERO PUSH2 0x1D7D JUMPI PUSH2 0x1D7C PUSH2 0x111E JUMP JUMPDEST JUMPDEST PUSH1 0x0 PUSH2 0x1D8B DUP5 DUP3 DUP6 ADD PUSH2 0x1AB8 JUMP JUMPDEST SWAP2 POP POP SWAP3 SWAP2 POP POP JUMP JUMPDEST PUSH32 0x4E487B7100000000000000000000000000000000000000000000000000000000 PUSH1 0x0 MSTORE PUSH1 0x32 PUSH1 0x4 MSTORE PUSH1 0x24 PUSH1 0x0 REVERT JUMPDEST PUSH32 0x4E487B7100000000000000000000000000000000000000000000000000000000 PUSH1 0x0 MSTORE PUSH1 0x11 PUSH1 0x4 MSTORE PUSH1 0x24 PUSH1 0x0 REVERT JUMPDEST PUSH1 0x0 PUSH2 0x1DFD DUP3 PUSH2 0x1349 JUMP JUMPDEST SWAP2 POP PUSH32 0xFFFFFFFFFFFFFFFFFFFFFFFFFFFFFFFFFFFFFFFFFFFFFFFFFFFFFFFFFFFFFFFF DUP3 SUB PUSH2 0x1E2F JUMPI PUSH2 0x1E2E PUSH2 0x1DC3 JUMP JUMPDEST JUMPDEST PUSH1 0x1 DUP3 ADD SWAP1 POP SWAP2 SWAP1 POP JUMP JUMPDEST PUSH1 0x0 DUP2 SWAP1 POP SWAP3 SWAP2 POP POP JUMP JUMPDEST PUSH32 0x73747564656E7473000000000000000000000000000000000000000000000000 PUSH1 0x0 DUP3 ADD MSTORE POP JUMP JUMPDEST PUSH1 0x0 PUSH2 0x1E7B PUSH1 0x8 DUP4 PUSH2 0x1E3A JUMP JUMPDEST SWAP2 POP PUSH2 0x1E86 DUP3 PUSH2 0x1E45 JUMP JUMPDEST PUSH1 0x8 DUP3 ADD SWAP1 POP SWAP2 SWAP1 POP JUMP JUMPDEST PUSH1 0x0 PUSH2 0x1E9C DUP3 PUSH2 0x1E6E JUMP JUMPDEST SWAP2 POP DUP2 SWAP1 POP SWAP2 SWAP1 POP JUMP JUMPDEST PUSH32 0x4E487B7100000000000000000000000000000000000000000000000000000000 PUSH1 0x0 MSTORE PUSH1 0x22 PUSH1 0x4 MSTORE PUSH1 0x24 PUSH1 0x0 REVERT JUMPDEST PUSH1 0x0 PUSH1 0x2 DUP3 DIV SWAP1 POP PUSH1 0x1 DUP3 AND DUP1 PUSH2 0x1EED JUMPI PUSH1 0x7F DUP3 AND SWAP2 POP JUMPDEST PUSH1 0x20 DUP3 LT DUP2 SUB PUSH2 0x1F00 JUMPI PUSH2 0x1EFF PUSH2 0x1EA6 JUMP JUMPDEST JUMPDEST POP SWAP2 SWAP1 POP JUMP JUMPDEST PUSH1 0x0 PUSH2 0x1F12 DUP4 DUP6 PUSH2 0x1E3A JUMP JUMPDEST SWAP4 POP PUSH2 0x1F1F DUP4 DUP6 DUP5 PUSH2 0x170D JUMP JUMPDEST DUP3 DUP5 ADD SWAP1 POP SWAP4 SWAP3 POP POP POP JUMP JUMPDEST PUSH1 0x0 PUSH2 0x1F38 DUP3 DUP7 DUP9 PUSH2 0x1F06 JUMP JUMPDEST SWAP2 POP PUSH2 0x1F45 DUP3 DUP5 DUP7 PUSH2 0x1F06 JUMP JUMPDEST SWAP2 POP DUP2 SWAP1 POP SWAP6 SWAP5 POP POP POP POP POP JUMP JUMPDEST PUSH1 0x0 DUP2 SWAP1 POP DUP2 PUSH1 0x0 MSTORE PUSH1 0x20 PUSH1 0x0 KECCAK256 SWAP1 POP SWAP2 SWAP1 POP JUMP JUMPDEST PUSH1 0x0 PUSH1 0x20 PUSH1 0x1F DUP4 ADD DIV SWAP1 POP SWAP2 SWAP1 POP JUMP JUMPDEST PUSH1 0x0 DUP3 DUP3 SHL SWAP1 POP SWAP3 SWAP2 POP POP JUMP JUMPDEST PUSH1 0x0 PUSH1 0x8 DUP4 MUL PUSH2 0x1FB5 PUSH32 0xFFFFFFFFFFFFFFFFFFFFFFFFFFFFFFFFFFFFFFFFFFFFFFFFFFFFFFFFFFFFFFFF DUP3 PUSH2 0x1F78 JUMP JUMPDEST PUSH2 0x1FBF DUP7 DUP4 PUSH2 0x1F78 JUMP JUMPDEST SWAP6 POP DUP1 NOT DUP5 AND SWAP4 POP DUP1 DUP7 AND DUP5 OR SWAP3 POP POP POP SWAP4 SWAP3 POP POP POP JUMP JUMPDEST PUSH1 0x0 DUP2 SWAP1 POP SWAP2 SWAP1 POP JUMP JUMPDEST PUSH1 0x0 PUSH2 0x1FFC PUSH2 0x1FF7 PUSH2 0x1FF2 DUP5 PUSH2 0x1349 JUMP JUMPDEST PUSH2 0x1FD7 JUMP JUMPDEST PUSH2 0x1349 JUMP JUMPDEST SWAP1 POP SWAP2 SWAP1 POP JUMP JUMPDEST PUSH1 0x0 DUP2 SWAP1 POP SWAP2 SWAP1 POP JUMP JUMPDEST PUSH2 0x2016 DUP4 PUSH2 0x1FE1 JUMP JUMPDEST PUSH2 0x202A PUSH2 0x2022 DUP3 PUSH2 0x2003 JUMP JUMPDEST DUP5 DUP5 SLOAD PUSH2 0x1F85 JUMP JUMPDEST DUP3 SSTORE POP POP POP POP JUMP JUMPDEST PUSH1 0x0 SWAP1 JUMP JUMPDEST PUSH2 0x203F PUSH2 0x2032 JUMP JUMPDEST PUSH2 0x204A DUP2 DUP5 DUP5 PUSH2 0x200D JUMP JUMPDEST POP POP POP JUMP JUMPDEST JUMPDEST DUP2 DUP2 LT ISZERO PUSH2 0x206E JUMPI PUSH2 0x2063 PUSH1 0x0 DUP3 PUSH2 0x2037 JUMP JUMPDEST PUSH1 0x1 DUP2 ADD SWAP1 POP PUSH2 0x2050 JUMP JUMPDEST POP POP JUMP JUMPDEST PUSH1 0x1F DUP3 GT ISZERO PUSH2 0x20B3 JUMPI PUSH2 0x2084 DUP2 PUSH2 0x1F53 JUMP JUMPDEST PUSH2 0x208D DUP5 PUSH2 0x1F68 JUMP JUMPDEST DUP2 ADD PUSH1 0x20 DUP6 LT ISZERO PUSH2 0x209C JUMPI DUP2 SWAP1 POP JUMPDEST PUSH2 0x20B0 PUSH2 0x20A8 DUP6 PUSH2 0x1F68 JUMP JUMPDEST DUP4 ADD DUP3 PUSH2 0x204F JUMP JUMPDEST POP POP JUMPDEST POP POP POP JUMP JUMPDEST PUSH1 0x0 DUP3 DUP3 SHR SWAP1 POP SWAP3 SWAP2 POP POP JUMP JUMPDEST PUSH1 0x0 PUSH2 0x20D6 PUSH1 0x0 NOT DUP5 PUSH1 0x8 MUL PUSH2 0x20B8 JUMP JUMPDEST NOT DUP1 DUP4 AND SWAP2 POP POP SWAP3 SWAP2 POP POP JUMP JUMPDEST PUSH1 0x0 PUSH2 0x20EF DUP4 DUP4 PUSH2 0x20C5 JUMP JUMPDEST SWAP2 POP DUP3 PUSH1 0x2 MUL DUP3 OR SWAP1 POP SWAP3 SWAP2 POP POP JUMP JUMPDEST PUSH2 0x2108 DUP3 PUSH2 0x13F9 JUMP JUMPDEST PUSH8 0xFFFFFFFFFFFFFFFF DUP2 GT ISZERO PUSH2 0x2121 JUMPI PUSH2 0x2120 PUSH2 0x1174 JUMP JUMPDEST JUMPDEST PUSH2 0x212B DUP3 SLOAD PUSH2 0x1ED5 JUMP JUMPDEST PUSH2 0x2136 DUP3 DUP3 DUP6 PUSH2 0x2072 JUMP JUMPDEST PUSH1 0x0 PUSH1 0x20 SWAP1 POP PUSH1 0x1F DUP4 GT PUSH1 0x1 DUP2 EQ PUSH2 0x2169 JUMPI PUSH1 0x0 DUP5 ISZERO PUSH2 0x2157 JUMPI DUP3 DUP8 ADD MLOAD SWAP1 POP JUMPDEST PUSH2 0x2161 DUP6 DUP3 PUSH2 0x20E3 JUMP JUMPDEST DUP7 SSTORE POP PUSH2 0x21C9 JUMP JUMPDEST PUSH1 0x1F NOT DUP5 AND PUSH2 0x2177 DUP7 PUSH2 0x1F53 JUMP JUMPDEST PUSH1 0x0 JUMPDEST DUP3 DUP2 LT ISZERO PUSH2 0x219F JUMPI DUP5 DUP10 ADD MLOAD DUP3 SSTORE PUSH1 0x1 DUP3 ADD SWAP2 POP PUSH1 0x20 DUP6 ADD SWAP5 POP PUSH1 0x20 DUP2 ADD SWAP1 POP PUSH2 0x217A JUMP JUMPDEST DUP7 DUP4 LT ISZERO PUSH2 0x21BC JUMPI DUP5 DUP10 ADD MLOAD PUSH2 0x21B8 PUSH1 0x1F DUP10 AND DUP3 PUSH2 0x20C5 JUMP JUMPDEST DUP4 SSTORE POP JUMPDEST PUSH1 0x1 PUSH1 0x2 DUP9 MUL ADD DUP9 SSTORE POP POP POP JUMPDEST POP POP POP POP POP POP JUMP JUMPDEST PUSH32 0x4E487B7100000000000000000000000000000000000000000000000000000000 PUSH1 0x0 MSTORE PUSH1 0x31 PUSH1 0x4 MSTORE PUSH1 0x24 PUSH1 0x0 REVERT JUMPDEST PUSH1 0x0 PUSH2 0x220B DUP3 PUSH2 0x1349 JUMP JUMPDEST SWAP2 POP PUSH2 0x2216 DUP4 PUSH2 0x1349 JUMP JUMPDEST SWAP3 POP DUP3 DUP3 SUB SWAP1 POP DUP2 DUP2 GT ISZERO PUSH2 0x222E JUMPI PUSH2 0x222D PUSH2 0x1DC3 JUMP JUMPDEST JUMPDEST SWAP3 SWAP2 POP POP JUMP JUMPDEST PUSH1 0x0 PUSH2 0x2241 DUP3 DUP5 DUP7 PUSH2 0x1F06 JUMP JUMPDEST SWAP2 POP DUP2 SWAP1 POP SWAP4 SWAP3 POP POP POP JUMP INVALID LOG2 PUSH5 0x6970667358 0x22 SLT KECCAK256 0xCC CREATE2 DUP7 0xD8 CREATE2 0xAE GASLIMIT PUSH5 0x3A952D5C79 0xE7 PUSH19 0xB9324D797A0A86533287F36C7DF122734D6473 PUSH16 0x6C634300081100330000000000000000 "
				},
				"gasEstimates": {
					"creation": {
						"codeDepositCost": "1767000",
						"executionCost": "infinite",
						"totalCost": "infinite"
					},
					"external": {
						"_strArr(uint256)": "infinite",
						"compare2Strings(string,string)": "infinite",
						"concat2Strings(string,string)": "infinite",
						"find(int256,int256[])": "infinite",
						"get10Std()": "infinite",
						"getCurntOwner()": "infinite",
						"getMark()": "infinite",
						"houseSize()": "2671",
						"largestInArr(uint256[])": "infinite",
						"myHouse()": "4910",
						"newStudent(string,int256,int256)": "infinite",
						"ownership(address,address)": "infinite",
						"popStrArr()": "infinite",
						"pushStrArr()": "infinite",
						"resetOwnership()": "infinite",
						"setHouseSize(uint8)": "24738",
						"setMark(uint256,uint256,uint256)": "infinite",
						"store10(string,uint256)": "infinite",
						"str10Std(string,int256,int256,uint256)": "infinite",
						"time()": "382",
						"transferownership(address)": "infinite"
					}
				},
				"methodIdentifiers": {
					"_strArr(uint256)": "742a1cb5",
					"compare2Strings(string,string)": "f9cb5bd8",
					"concat2Strings(string,string)": "4309fba7",
					"find(int256,int256[])": "094825b9",
					"get10Std()": "39ada523",
					"getCurntOwner()": "323c9ab3",
					"getMark()": "8fff396f",
					"houseSize()": "660127c7",
					"largestInArr(uint256[])": "cdbb7a5a",
					"myHouse()": "8ea5bd07",
					"newStudent(string,int256,int256)": "4ddd29fe",
					"ownership(address,address)": "974fe591",
					"popStrArr()": "a5cb84b5",
					"pushStrArr()": "5bb42e93",
					"resetOwnership()": "19077dca",
					"setHouseSize(uint8)": "df0fd34f",
					"setMark(uint256,uint256,uint256)": "a0957e09",
					"store10(string,uint256)": "bdb552f0",
					"str10Std(string,int256,int256,uint256)": "51c6689a",
					"time()": "16ada547",
					"transferownership(address)": "e8b5b796"
				}
			},
			"storageLayout": {
				"storage": [
					{
						"astId": 167,
						"contract": "contracts/revision/Assg_2.sol:Assign_2",
						"label": "store10",
						"offset": 0,
						"slot": "0",
						"type": "t_mapping(t_string_memory_ptr,t_array(t_struct(Student)136_storage)10_storage)"
					},
					{
						"astId": 210,
						"contract": "contracts/revision/Assg_2.sol:Assign_2",
						"label": "marks",
						"offset": 0,
						"slot": "1",
						"type": "t_mapping(t_address,t_array(t_uint256)3_storage)"
					},
					{
						"astId": 249,
						"contract": "contracts/revision/Assg_2.sol:Assign_2",
						"label": "ownership",
						"offset": 0,
						"slot": "2",
						"type": "t_mapping(t_address,t_mapping(t_address,t_bool))"
					},
					{
						"astId": 255,
						"contract": "contracts/revision/Assg_2.sol:Assign_2",
						"label": "substituteAdresses",
						"offset": 0,
						"slot": "3",
						"type": "t_array(t_address)dyn_storage"
					},
					{
						"astId": 379,
						"contract": "contracts/revision/Assg_2.sol:Assign_2",
						"label": "_strArr",
						"offset": 0,
						"slot": "4",
						"type": "t_array(t_string_storage)dyn_storage"
					},
					{
						"astId": 405,
						"contract": "contracts/revision/Assg_2.sol:Assign_2",
						"label": "houseSize",
						"offset": 0,
						"slot": "5",
						"type": "t_enum(HOUSE)402"
					}
				],
				"types": {
					"t_address": {
						"encoding": "inplace",
						"label": "address",
						"numberOfBytes": "20"
					},
					"t_array(t_address)dyn_storage": {
						"base": "t_address",
						"encoding": "dynamic_array",
						"label": "address[]",
						"numberOfBytes": "32"
					},
					"t_array(t_string_storage)dyn_storage": {
						"base": "t_string_storage",
						"encoding": "dynamic_array",
						"label": "string[]",
						"numberOfBytes": "32"
					},
					"t_array(t_struct(Student)136_storage)10_storage": {
						"base": "t_struct(Student)136_storage",
						"encoding": "inplace",
						"label": "struct Assign_2.Student[10]",
						"numberOfBytes": "960"
					},
					"t_array(t_uint256)3_storage": {
						"base": "t_uint256",
						"encoding": "inplace",
						"label": "uint256[3]",
						"numberOfBytes": "96"
					},
					"t_bool": {
						"encoding": "inplace",
						"label": "bool",
						"numberOfBytes": "1"
					},
					"t_enum(HOUSE)402": {
						"encoding": "inplace",
						"label": "enum Assign_2.HOUSE",
						"numberOfBytes": "1"
					},
					"t_int256": {
						"encoding": "inplace",
						"label": "int256",
						"numberOfBytes": "32"
					},
					"t_mapping(t_address,t_array(t_uint256)3_storage)": {
						"encoding": "mapping",
						"key": "t_address",
						"label": "mapping(address => uint256[3])",
						"numberOfBytes": "32",
						"value": "t_array(t_uint256)3_storage"
					},
					"t_mapping(t_address,t_bool)": {
						"encoding": "mapping",
						"key": "t_address",
						"label": "mapping(address => bool)",
						"numberOfBytes": "32",
						"value": "t_bool"
					},
					"t_mapping(t_address,t_mapping(t_address,t_bool))": {
						"encoding": "mapping",
						"key": "t_address",
						"label": "mapping(address => mapping(address => bool))",
						"numberOfBytes": "32",
						"value": "t_mapping(t_address,t_bool)"
					},
					"t_mapping(t_string_memory_ptr,t_array(t_struct(Student)136_storage)10_storage)": {
						"encoding": "mapping",
						"key": "t_string_memory_ptr",
						"label": "mapping(string => struct Assign_2.Student[10])",
						"numberOfBytes": "32",
						"value": "t_array(t_struct(Student)136_storage)10_storage"
					},
					"t_string_memory_ptr": {
						"encoding": "bytes",
						"label": "string",
						"numberOfBytes": "32"
					},
					"t_string_storage": {
						"encoding": "bytes",
						"label": "string",
						"numberOfBytes": "32"
					},
					"t_struct(Student)136_storage": {
						"encoding": "inplace",
						"label": "struct Assign_2.Student",
						"members": [
							{
								"astId": 131,
								"contract": "contracts/revision/Assg_2.sol:Assign_2",
								"label": "name",
								"offset": 0,
								"slot": "0",
								"type": "t_string_storage"
							},
							{
								"astId": 133,
								"contract": "contracts/revision/Assg_2.sol:Assign_2",
								"label": "roll",
								"offset": 0,
								"slot": "1",
								"type": "t_int256"
							},
							{
								"astId": 135,
								"contract": "contracts/revision/Assg_2.sol:Assign_2",
								"label": "age",
								"offset": 0,
								"slot": "2",
								"type": "t_int256"
							}
						],
						"numberOfBytes": "96"
					},
					"t_uint256": {
						"encoding": "inplace",
						"label": "uint256",
						"numberOfBytes": "32"
					}
				}
			},
			"userdoc": {
				"kind": "user",
				"methods": {},
				"version": 1
			}
		}
	}
}