{
	"contracts/revision/Assg_2.sol": {
		"Assign_2": {
			"abi": [
				{
					"inputs": [
						{
							"internalType": "string",
							"name": "_str1",
							"type": "string"
						},
						{
							"internalType": "string",
							"name": "_str2",
							"type": "string"
						}
					],
					"name": "compare2Strings",
					"outputs": [
						{
							"internalType": "bool",
							"name": "",
							"type": "bool"
						}
					],
					"stateMutability": "pure",
					"type": "function"
				},
				{
					"inputs": [
						{
							"internalType": "string",
							"name": "_str1",
							"type": "string"
						},
						{
							"internalType": "string",
							"name": "_str2",
							"type": "string"
						}
					],
					"name": "concat2Strings",
					"outputs": [
						{
							"internalType": "string",
							"name": "",
							"type": "string"
						}
					],
					"stateMutability": "pure",
					"type": "function"
				}
			],
			"devdoc": {
				"kind": "dev",
				"methods": {},
				"version": 1
			},
			"evm": {
				"assembly": "    /* \"contracts/revision/Assg_2.sol\":56:490  contract Assign_2{... */\n  mstore(0x40, 0x80)\n  callvalue\n  dup1\n  iszero\n  tag_1\n  jumpi\n  0x00\n  dup1\n  revert\ntag_1:\n  pop\n  dataSize(sub_0)\n  dup1\n  dataOffset(sub_0)\n  0x00\n  codecopy\n  0x00\n  return\nstop\n\nsub_0: assembly {\n        /* \"contracts/revision/Assg_2.sol\":56:490  contract Assign_2{... */\n      mstore(0x40, 0x80)\n      callvalue\n      dup1\n      iszero\n      tag_1\n      jumpi\n      0x00\n      dup1\n      revert\n    tag_1:\n      pop\n      jumpi(tag_2, lt(calldatasize, 0x04))\n      shr(0xe0, calldataload(0x00))\n      dup1\n      0x4309fba7\n      eq\n      tag_3\n      jumpi\n      dup1\n      0xf9cb5bd8\n      eq\n      tag_4\n      jumpi\n    tag_2:\n      0x00\n      dup1\n      revert\n        /* \"contracts/revision/Assg_2.sol\":105:261  function concat2Strings(string calldata _str1, string calldata _str2) pure external returns(string memory){... */\n    tag_3:\n      tag_5\n      0x04\n      dup1\n      calldatasize\n      sub\n      dup2\n      add\n      swap1\n      tag_6\n      swap2\n      swap1\n      tag_7\n      jump\t// in\n    tag_6:\n      tag_8\n      jump\t// in\n    tag_5:\n      mload(0x40)\n      tag_9\n      swap2\n      swap1\n      tag_10\n      jump\t// in\n    tag_9:\n      mload(0x40)\n      dup1\n      swap2\n      sub\n      swap1\n      return\n        /* \"contracts/revision/Assg_2.sol\":293:487  function compare2Strings(string calldata _str1, string calldata _str2) pure external returns(bool){... */\n    tag_4:\n      tag_11\n      0x04\n      dup1\n      calldatasize\n      sub\n      dup2\n      add\n      swap1\n      tag_12\n      swap2\n      swap1\n      tag_7\n      jump\t// in\n    tag_12:\n      tag_13\n      jump\t// in\n    tag_11:\n      mload(0x40)\n      tag_14\n      swap2\n      swap1\n      tag_15\n      jump\t// in\n    tag_14:\n      mload(0x40)\n      dup1\n      swap2\n      sub\n      swap1\n      return\n        /* \"contracts/revision/Assg_2.sol\":105:261  function concat2Strings(string calldata _str1, string calldata _str2) pure external returns(string memory){... */\n    tag_8:\n        /* \"contracts/revision/Assg_2.sol\":197:210  string memory */\n      0x60\n        /* \"contracts/revision/Assg_2.sol\":242:247  _str1 */\n      dup5\n      dup5\n        /* \"contracts/revision/Assg_2.sol\":248:253  _str2 */\n      dup5\n      dup5\n        /* \"contracts/revision/Assg_2.sol\":228:254  string.concat(_str1,_str2) */\n      add(0x20, mload(0x40))\n      tag_17\n      swap5\n      swap4\n      swap3\n      swap2\n      swap1\n      tag_18\n      jump\t// in\n    tag_17:\n      mload(0x40)\n      0x20\n      dup2\n      dup4\n      sub\n      sub\n      dup2\n      mstore\n      swap1\n      0x40\n      mstore\n        /* \"contracts/revision/Assg_2.sol\":221:254  return string.concat(_str1,_str2) */\n      swap1\n      pop\n        /* \"contracts/revision/Assg_2.sol\":105:261  function concat2Strings(string calldata _str1, string calldata _str2) pure external returns(string memory){... */\n      swap5\n      swap4\n      pop\n      pop\n      pop\n      pop\n      jump\t// out\n        /* \"contracts/revision/Assg_2.sol\":293:487  function compare2Strings(string calldata _str1, string calldata _str2) pure external returns(bool){... */\n    tag_13:\n        /* \"contracts/revision/Assg_2.sol\":386:390  bool */\n      0x00\n        /* \"contracts/revision/Assg_2.sol\":473:478  _str2 */\n      dup3\n      dup3\n        /* \"contracts/revision/Assg_2.sol\":456:479  abi.encodePacked(_str2) */\n      add(0x20, mload(0x40))\n      tag_20\n      swap3\n      swap2\n      swap1\n      tag_21\n      jump\t// in\n    tag_20:\n      mload(0x40)\n      0x20\n      dup2\n      dup4\n      sub\n      sub\n      dup2\n      mstore\n      swap1\n      0x40\n      mstore\n        /* \"contracts/revision/Assg_2.sol\":446:480  keccak256(abi.encodePacked(_str2)) */\n      dup1\n      mload\n      swap1\n      0x20\n      add\n      keccak256\n        /* \"contracts/revision/Assg_2.sol\":435:440  _str1 */\n      dup6\n      dup6\n        /* \"contracts/revision/Assg_2.sol\":418:441  abi.encodePacked(_str1) */\n      add(0x20, mload(0x40))\n      tag_22\n      swap3\n      swap2\n      swap1\n      tag_21\n      jump\t// in\n    tag_22:\n      mload(0x40)\n      0x20\n      dup2\n      dup4\n      sub\n      sub\n      dup2\n      mstore\n      swap1\n      0x40\n      mstore\n        /* \"contracts/revision/Assg_2.sol\":408:442  keccak256(abi.encodePacked(_str1)) */\n      dup1\n      mload\n      swap1\n      0x20\n      add\n      keccak256\n        /* \"contracts/revision/Assg_2.sol\":408:480  keccak256(abi.encodePacked(_str1)) == keccak256(abi.encodePacked(_str2)) */\n      eq\n        /* \"contracts/revision/Assg_2.sol\":401:480  return keccak256(abi.encodePacked(_str1)) == keccak256(abi.encodePacked(_str2)) */\n      swap1\n      pop\n        /* \"contracts/revision/Assg_2.sol\":293:487  function compare2Strings(string calldata _str1, string calldata _str2) pure external returns(bool){... */\n      swap5\n      swap4\n      pop\n      pop\n      pop\n      pop\n      jump\t// out\n        /* \"#utility.yul\":88:205   */\n    tag_24:\n        /* \"#utility.yul\":197:198   */\n      0x00\n        /* \"#utility.yul\":194:195   */\n      dup1\n        /* \"#utility.yul\":187:199   */\n      revert\n        /* \"#utility.yul\":211:328   */\n    tag_25:\n        /* \"#utility.yul\":320:321   */\n      0x00\n        /* \"#utility.yul\":317:318   */\n      dup1\n        /* \"#utility.yul\":310:322   */\n      revert\n        /* \"#utility.yul\":334:451   */\n    tag_26:\n        /* \"#utility.yul\":443:444   */\n      0x00\n        /* \"#utility.yul\":440:441   */\n      dup1\n        /* \"#utility.yul\":433:445   */\n      revert\n        /* \"#utility.yul\":457:574   */\n    tag_27:\n        /* \"#utility.yul\":566:567   */\n      0x00\n        /* \"#utility.yul\":563:564   */\n      dup1\n        /* \"#utility.yul\":556:568   */\n      revert\n        /* \"#utility.yul\":580:697   */\n    tag_28:\n        /* \"#utility.yul\":689:690   */\n      0x00\n        /* \"#utility.yul\":686:687   */\n      dup1\n        /* \"#utility.yul\":679:691   */\n      revert\n        /* \"#utility.yul\":717:1270   */\n    tag_29:\n        /* \"#utility.yul\":775:783   */\n      0x00\n        /* \"#utility.yul\":785:791   */\n      dup1\n        /* \"#utility.yul\":835:838   */\n      dup4\n        /* \"#utility.yul\":828:832   */\n      0x1f\n        /* \"#utility.yul\":820:826   */\n      dup5\n        /* \"#utility.yul\":816:833   */\n      add\n        /* \"#utility.yul\":812:839   */\n      slt\n        /* \"#utility.yul\":802:924   */\n      tag_48\n      jumpi\n        /* \"#utility.yul\":843:922   */\n      tag_49\n      tag_26\n      jump\t// in\n    tag_49:\n        /* \"#utility.yul\":802:924   */\n    tag_48:\n        /* \"#utility.yul\":956:962   */\n      dup3\n        /* \"#utility.yul\":943:963   */\n      calldataload\n        /* \"#utility.yul\":933:963   */\n      swap1\n      pop\n        /* \"#utility.yul\":986:1004   */\n      0xffffffffffffffff\n        /* \"#utility.yul\":978:984   */\n      dup2\n        /* \"#utility.yul\":975:1005   */\n      gt\n        /* \"#utility.yul\":972:1089   */\n      iszero\n      tag_50\n      jumpi\n        /* \"#utility.yul\":1008:1087   */\n      tag_51\n      tag_27\n      jump\t// in\n    tag_51:\n        /* \"#utility.yul\":972:1089   */\n    tag_50:\n        /* \"#utility.yul\":1122:1126   */\n      0x20\n        /* \"#utility.yul\":1114:1120   */\n      dup4\n        /* \"#utility.yul\":1110:1127   */\n      add\n        /* \"#utility.yul\":1098:1127   */\n      swap2\n      pop\n        /* \"#utility.yul\":1176:1179   */\n      dup4\n        /* \"#utility.yul\":1168:1172   */\n      0x01\n        /* \"#utility.yul\":1160:1166   */\n      dup3\n        /* \"#utility.yul\":1156:1173   */\n      mul\n        /* \"#utility.yul\":1146:1154   */\n      dup4\n        /* \"#utility.yul\":1142:1174   */\n      add\n        /* \"#utility.yul\":1139:1180   */\n      gt\n        /* \"#utility.yul\":1136:1264   */\n      iszero\n      tag_52\n      jumpi\n        /* \"#utility.yul\":1183:1262   */\n      tag_53\n      tag_28\n      jump\t// in\n    tag_53:\n        /* \"#utility.yul\":1136:1264   */\n    tag_52:\n        /* \"#utility.yul\":717:1270   */\n      swap3\n      pop\n      swap3\n      swap1\n      pop\n      jump\t// out\n        /* \"#utility.yul\":1276:2150   */\n    tag_7:\n        /* \"#utility.yul\":1368:1374   */\n      0x00\n        /* \"#utility.yul\":1376:1382   */\n      dup1\n        /* \"#utility.yul\":1384:1390   */\n      0x00\n        /* \"#utility.yul\":1392:1398   */\n      dup1\n        /* \"#utility.yul\":1441:1443   */\n      0x40\n        /* \"#utility.yul\":1429:1438   */\n      dup6\n        /* \"#utility.yul\":1420:1427   */\n      dup8\n        /* \"#utility.yul\":1416:1439   */\n      sub\n        /* \"#utility.yul\":1412:1444   */\n      slt\n        /* \"#utility.yul\":1409:1528   */\n      iszero\n      tag_55\n      jumpi\n        /* \"#utility.yul\":1447:1526   */\n      tag_56\n      tag_24\n      jump\t// in\n    tag_56:\n        /* \"#utility.yul\":1409:1528   */\n    tag_55:\n        /* \"#utility.yul\":1595:1596   */\n      0x00\n        /* \"#utility.yul\":1584:1593   */\n      dup6\n        /* \"#utility.yul\":1580:1597   */\n      add\n        /* \"#utility.yul\":1567:1598   */\n      calldataload\n        /* \"#utility.yul\":1625:1643   */\n      0xffffffffffffffff\n        /* \"#utility.yul\":1617:1623   */\n      dup2\n        /* \"#utility.yul\":1614:1644   */\n      gt\n        /* \"#utility.yul\":1611:1728   */\n      iszero\n      tag_57\n      jumpi\n        /* \"#utility.yul\":1647:1726   */\n      tag_58\n      tag_25\n      jump\t// in\n    tag_58:\n        /* \"#utility.yul\":1611:1728   */\n    tag_57:\n        /* \"#utility.yul\":1760:1825   */\n      tag_59\n        /* \"#utility.yul\":1817:1824   */\n      dup8\n        /* \"#utility.yul\":1808:1814   */\n      dup3\n        /* \"#utility.yul\":1797:1806   */\n      dup9\n        /* \"#utility.yul\":1793:1815   */\n      add\n        /* \"#utility.yul\":1760:1825   */\n      tag_29\n      jump\t// in\n    tag_59:\n        /* \"#utility.yul\":1742:1825   */\n      swap5\n      pop\n      swap5\n      pop\n        /* \"#utility.yul\":1538:1835   */\n      pop\n        /* \"#utility.yul\":1902:1904   */\n      0x20\n        /* \"#utility.yul\":1891:1900   */\n      dup6\n        /* \"#utility.yul\":1887:1905   */\n      add\n        /* \"#utility.yul\":1874:1906   */\n      calldataload\n        /* \"#utility.yul\":1933:1951   */\n      0xffffffffffffffff\n        /* \"#utility.yul\":1925:1931   */\n      dup2\n        /* \"#utility.yul\":1922:1952   */\n      gt\n        /* \"#utility.yul\":1919:2036   */\n      iszero\n      tag_60\n      jumpi\n        /* \"#utility.yul\":1955:2034   */\n      tag_61\n      tag_25\n      jump\t// in\n    tag_61:\n        /* \"#utility.yul\":1919:2036   */\n    tag_60:\n        /* \"#utility.yul\":2068:2133   */\n      tag_62\n        /* \"#utility.yul\":2125:2132   */\n      dup8\n        /* \"#utility.yul\":2116:2122   */\n      dup3\n        /* \"#utility.yul\":2105:2114   */\n      dup9\n        /* \"#utility.yul\":2101:2123   */\n      add\n        /* \"#utility.yul\":2068:2133   */\n      tag_29\n      jump\t// in\n    tag_62:\n        /* \"#utility.yul\":2050:2133   */\n      swap3\n      pop\n      swap3\n      pop\n        /* \"#utility.yul\":1845:2143   */\n      pop\n        /* \"#utility.yul\":1276:2150   */\n      swap3\n      swap6\n      swap2\n      swap5\n      pop\n      swap3\n      pop\n      jump\t// out\n        /* \"#utility.yul\":2156:2255   */\n    tag_30:\n        /* \"#utility.yul\":2208:2214   */\n      0x00\n        /* \"#utility.yul\":2242:2247   */\n      dup2\n        /* \"#utility.yul\":2236:2248   */\n      mload\n        /* \"#utility.yul\":2226:2248   */\n      swap1\n      pop\n        /* \"#utility.yul\":2156:2255   */\n      swap2\n      swap1\n      pop\n      jump\t// out\n        /* \"#utility.yul\":2261:2430   */\n    tag_31:\n        /* \"#utility.yul\":2345:2356   */\n      0x00\n        /* \"#utility.yul\":2379:2385   */\n      dup3\n        /* \"#utility.yul\":2374:2377   */\n      dup3\n        /* \"#utility.yul\":2367:2386   */\n      mstore\n        /* \"#utility.yul\":2419:2423   */\n      0x20\n        /* \"#utility.yul\":2414:2417   */\n      dup3\n        /* \"#utility.yul\":2410:2424   */\n      add\n        /* \"#utility.yul\":2395:2424   */\n      swap1\n      pop\n        /* \"#utility.yul\":2261:2430   */\n      swap3\n      swap2\n      pop\n      pop\n      jump\t// out\n        /* \"#utility.yul\":2436:2682   */\n    tag_32:\n        /* \"#utility.yul\":2517:2518   */\n      0x00\n        /* \"#utility.yul\":2527:2640   */\n    tag_66:\n        /* \"#utility.yul\":2541:2547   */\n      dup4\n        /* \"#utility.yul\":2538:2539   */\n      dup2\n        /* \"#utility.yul\":2535:2548   */\n      lt\n        /* \"#utility.yul\":2527:2640   */\n      iszero\n      tag_68\n      jumpi\n        /* \"#utility.yul\":2626:2627   */\n      dup1\n        /* \"#utility.yul\":2621:2624   */\n      dup3\n        /* \"#utility.yul\":2617:2628   */\n      add\n        /* \"#utility.yul\":2611:2629   */\n      mload\n        /* \"#utility.yul\":2607:2608   */\n      dup2\n        /* \"#utility.yul\":2602:2605   */\n      dup5\n        /* \"#utility.yul\":2598:2609   */\n      add\n        /* \"#utility.yul\":2591:2630   */\n      mstore\n        /* \"#utility.yul\":2563:2565   */\n      0x20\n        /* \"#utility.yul\":2560:2561   */\n      dup2\n        /* \"#utility.yul\":2556:2566   */\n      add\n        /* \"#utility.yul\":2551:2566   */\n      swap1\n      pop\n        /* \"#utility.yul\":2527:2640   */\n      jump(tag_66)\n    tag_68:\n        /* \"#utility.yul\":2674:2675   */\n      0x00\n        /* \"#utility.yul\":2665:2671   */\n      dup5\n        /* \"#utility.yul\":2660:2663   */\n      dup5\n        /* \"#utility.yul\":2656:2672   */\n      add\n        /* \"#utility.yul\":2649:2676   */\n      mstore\n        /* \"#utility.yul\":2498:2682   */\n      pop\n        /* \"#utility.yul\":2436:2682   */\n      pop\n      pop\n      pop\n      jump\t// out\n        /* \"#utility.yul\":2688:2790   */\n    tag_33:\n        /* \"#utility.yul\":2729:2735   */\n      0x00\n        /* \"#utility.yul\":2780:2782   */\n      0x1f\n        /* \"#utility.yul\":2776:2783   */\n      not\n        /* \"#utility.yul\":2771:2773   */\n      0x1f\n        /* \"#utility.yul\":2764:2769   */\n      dup4\n        /* \"#utility.yul\":2760:2774   */\n      add\n        /* \"#utility.yul\":2756:2784   */\n      and\n        /* \"#utility.yul\":2746:2784   */\n      swap1\n      pop\n        /* \"#utility.yul\":2688:2790   */\n      swap2\n      swap1\n      pop\n      jump\t// out\n        /* \"#utility.yul\":2796:3173   */\n    tag_34:\n        /* \"#utility.yul\":2884:2887   */\n      0x00\n        /* \"#utility.yul\":2912:2951   */\n      tag_71\n        /* \"#utility.yul\":2945:2950   */\n      dup3\n        /* \"#utility.yul\":2912:2951   */\n      tag_30\n      jump\t// in\n    tag_71:\n        /* \"#utility.yul\":2967:3038   */\n      tag_72\n        /* \"#utility.yul\":3031:3037   */\n      dup2\n        /* \"#utility.yul\":3026:3029   */\n      dup6\n        /* \"#utility.yul\":2967:3038   */\n      tag_31\n      jump\t// in\n    tag_72:\n        /* \"#utility.yul\":2960:3038   */\n      swap4\n      pop\n        /* \"#utility.yul\":3047:3112   */\n      tag_73\n        /* \"#utility.yul\":3105:3111   */\n      dup2\n        /* \"#utility.yul\":3100:3103   */\n      dup6\n        /* \"#utility.yul\":3093:3097   */\n      0x20\n        /* \"#utility.yul\":3086:3091   */\n      dup7\n        /* \"#utility.yul\":3082:3098   */\n      add\n        /* \"#utility.yul\":3047:3112   */\n      tag_32\n      jump\t// in\n    tag_73:\n        /* \"#utility.yul\":3137:3166   */\n      tag_74\n        /* \"#utility.yul\":3159:3165   */\n      dup2\n        /* \"#utility.yul\":3137:3166   */\n      tag_33\n      jump\t// in\n    tag_74:\n        /* \"#utility.yul\":3132:3135   */\n      dup5\n        /* \"#utility.yul\":3128:3167   */\n      add\n        /* \"#utility.yul\":3121:3167   */\n      swap2\n      pop\n        /* \"#utility.yul\":2888:3173   */\n      pop\n        /* \"#utility.yul\":2796:3173   */\n      swap3\n      swap2\n      pop\n      pop\n      jump\t// out\n        /* \"#utility.yul\":3179:3492   */\n    tag_10:\n        /* \"#utility.yul\":3292:3296   */\n      0x00\n        /* \"#utility.yul\":3330:3332   */\n      0x20\n        /* \"#utility.yul\":3319:3328   */\n      dup3\n        /* \"#utility.yul\":3315:3333   */\n      add\n        /* \"#utility.yul\":3307:3333   */\n      swap1\n      pop\n        /* \"#utility.yul\":3379:3388   */\n      dup2\n        /* \"#utility.yul\":3373:3377   */\n      dup2\n        /* \"#utility.yul\":3369:3389   */\n      sub\n        /* \"#utility.yul\":3365:3366   */\n      0x00\n        /* \"#utility.yul\":3354:3363   */\n      dup4\n        /* \"#utility.yul\":3350:3367   */\n      add\n        /* \"#utility.yul\":3343:3390   */\n      mstore\n        /* \"#utility.yul\":3407:3485   */\n      tag_76\n        /* \"#utility.yul\":3480:3484   */\n      dup2\n        /* \"#utility.yul\":3471:3477   */\n      dup5\n        /* \"#utility.yul\":3407:3485   */\n      tag_34\n      jump\t// in\n    tag_76:\n        /* \"#utility.yul\":3399:3485   */\n      swap1\n      pop\n        /* \"#utility.yul\":3179:3492   */\n      swap3\n      swap2\n      pop\n      pop\n      jump\t// out\n        /* \"#utility.yul\":3498:3588   */\n    tag_35:\n        /* \"#utility.yul\":3532:3539   */\n      0x00\n        /* \"#utility.yul\":3575:3580   */\n      dup2\n        /* \"#utility.yul\":3568:3581   */\n      iszero\n        /* \"#utility.yul\":3561:3582   */\n      iszero\n        /* \"#utility.yul\":3550:3582   */\n      swap1\n      pop\n        /* \"#utility.yul\":3498:3588   */\n      swap2\n      swap1\n      pop\n      jump\t// out\n        /* \"#utility.yul\":3594:3703   */\n    tag_36:\n        /* \"#utility.yul\":3675:3696   */\n      tag_79\n        /* \"#utility.yul\":3690:3695   */\n      dup2\n        /* \"#utility.yul\":3675:3696   */\n      tag_35\n      jump\t// in\n    tag_79:\n        /* \"#utility.yul\":3670:3673   */\n      dup3\n        /* \"#utility.yul\":3663:3697   */\n      mstore\n        /* \"#utility.yul\":3594:3703   */\n      pop\n      pop\n      jump\t// out\n        /* \"#utility.yul\":3709:3919   */\n    tag_15:\n        /* \"#utility.yul\":3796:3800   */\n      0x00\n        /* \"#utility.yul\":3834:3836   */\n      0x20\n        /* \"#utility.yul\":3823:3832   */\n      dup3\n        /* \"#utility.yul\":3819:3837   */\n      add\n        /* \"#utility.yul\":3811:3837   */\n      swap1\n      pop\n        /* \"#utility.yul\":3847:3912   */\n      tag_81\n        /* \"#utility.yul\":3909:3910   */\n      0x00\n        /* \"#utility.yul\":3898:3907   */\n      dup4\n        /* \"#utility.yul\":3894:3911   */\n      add\n        /* \"#utility.yul\":3885:3891   */\n      dup5\n        /* \"#utility.yul\":3847:3912   */\n      tag_36\n      jump\t// in\n    tag_81:\n        /* \"#utility.yul\":3709:3919   */\n      swap3\n      swap2\n      pop\n      pop\n      jump\t// out\n        /* \"#utility.yul\":3925:4073   */\n    tag_37:\n        /* \"#utility.yul\":4027:4038   */\n      0x00\n        /* \"#utility.yul\":4064:4067   */\n      dup2\n        /* \"#utility.yul\":4049:4067   */\n      swap1\n      pop\n        /* \"#utility.yul\":3925:4073   */\n      swap3\n      swap2\n      pop\n      pop\n      jump\t// out\n        /* \"#utility.yul\":4079:4225   */\n    tag_38:\n        /* \"#utility.yul\":4176:4182   */\n      dup3\n        /* \"#utility.yul\":4171:4174   */\n      dup2\n        /* \"#utility.yul\":4166:4169   */\n      dup4\n        /* \"#utility.yul\":4153:4183   */\n      calldatacopy\n        /* \"#utility.yul\":4217:4218   */\n      0x00\n        /* \"#utility.yul\":4208:4214   */\n      dup4\n        /* \"#utility.yul\":4203:4206   */\n      dup4\n        /* \"#utility.yul\":4199:4215   */\n      add\n        /* \"#utility.yul\":4192:4219   */\n      mstore\n        /* \"#utility.yul\":4079:4225   */\n      pop\n      pop\n      pop\n      jump\t// out\n        /* \"#utility.yul\":4255:4585   */\n    tag_39:\n        /* \"#utility.yul\":4371:4374   */\n      0x00\n        /* \"#utility.yul\":4392:4481   */\n      tag_85\n        /* \"#utility.yul\":4474:4480   */\n      dup4\n        /* \"#utility.yul\":4469:4472   */\n      dup6\n        /* \"#utility.yul\":4392:4481   */\n      tag_37\n      jump\t// in\n    tag_85:\n        /* \"#utility.yul\":4385:4481   */\n      swap4\n      pop\n        /* \"#utility.yul\":4491:4547   */\n      tag_86\n        /* \"#utility.yul\":4540:4546   */\n      dup4\n        /* \"#utility.yul\":4535:4538   */\n      dup6\n        /* \"#utility.yul\":4528:4533   */\n      dup5\n        /* \"#utility.yul\":4491:4547   */\n      tag_38\n      jump\t// in\n    tag_86:\n        /* \"#utility.yul\":4572:4578   */\n      dup3\n        /* \"#utility.yul\":4567:4570   */\n      dup5\n        /* \"#utility.yul\":4563:4579   */\n      add\n        /* \"#utility.yul\":4556:4579   */\n      swap1\n      pop\n        /* \"#utility.yul\":4255:4585   */\n      swap4\n      swap3\n      pop\n      pop\n      pop\n      jump\t// out\n        /* \"#utility.yul\":4591:5066   */\n    tag_18:\n        /* \"#utility.yul\":4791:4794   */\n      0x00\n        /* \"#utility.yul\":4813:4918   */\n      tag_88\n        /* \"#utility.yul\":4914:4917   */\n      dup3\n        /* \"#utility.yul\":4905:4911   */\n      dup7\n        /* \"#utility.yul\":4897:4903   */\n      dup9\n        /* \"#utility.yul\":4813:4918   */\n      tag_39\n      jump\t// in\n    tag_88:\n        /* \"#utility.yul\":4806:4918   */\n      swap2\n      pop\n        /* \"#utility.yul\":4935:5040   */\n      tag_89\n        /* \"#utility.yul\":5036:5039   */\n      dup3\n        /* \"#utility.yul\":5027:5033   */\n      dup5\n        /* \"#utility.yul\":5019:5025   */\n      dup7\n        /* \"#utility.yul\":4935:5040   */\n      tag_39\n      jump\t// in\n    tag_89:\n        /* \"#utility.yul\":4928:5040   */\n      swap2\n      pop\n        /* \"#utility.yul\":5057:5060   */\n      dup2\n        /* \"#utility.yul\":5050:5060   */\n      swap1\n      pop\n        /* \"#utility.yul\":4591:5066   */\n      swap6\n      swap5\n      pop\n      pop\n      pop\n      pop\n      pop\n      jump\t// out\n        /* \"#utility.yul\":5072:5367   */\n    tag_21:\n        /* \"#utility.yul\":5214:5217   */\n      0x00\n        /* \"#utility.yul\":5236:5341   */\n      tag_91\n        /* \"#utility.yul\":5337:5340   */\n      dup3\n        /* \"#utility.yul\":5328:5334   */\n      dup5\n        /* \"#utility.yul\":5320:5326   */\n      dup7\n        /* \"#utility.yul\":5236:5341   */\n      tag_39\n      jump\t// in\n    tag_91:\n        /* \"#utility.yul\":5229:5341   */\n      swap2\n      pop\n        /* \"#utility.yul\":5358:5361   */\n      dup2\n        /* \"#utility.yul\":5351:5361   */\n      swap1\n      pop\n        /* \"#utility.yul\":5072:5367   */\n      swap4\n      swap3\n      pop\n      pop\n      pop\n      jump\t// out\n\n    auxdata: 0xa26469706673582212204e4987df9b39bb258049935b7f4f3cbaaf27093de3a8042e30c1513390c6c1bb64736f6c63430008110033\n}\n",
				"bytecode": {
					"linkReferences": {},
					"object": "608060405234801561001057600080fd5b506103ba806100206000396000f3fe608060405234801561001057600080fd5b50600436106100365760003560e01c80634309fba71461003b578063f9cb5bd81461006b575b600080fd5b6100556004803603810190610050919061019b565b61009b565b60405161006291906102ac565b60405180910390f35b6100856004803603810190610080919061019b565b6100cd565b60405161009291906102e9565b60405180910390f35b6060848484846040516020016100b49493929190610343565b6040516020818303038152906040529050949350505050565b600082826040516020016100e292919061036b565b60405160208183030381529060405280519060200120858560405160200161010b92919061036b565b60405160208183030381529060405280519060200120149050949350505050565b600080fd5b600080fd5b600080fd5b600080fd5b600080fd5b60008083601f84011261015b5761015a610136565b5b8235905067ffffffffffffffff8111156101785761017761013b565b5b60208301915083600182028301111561019457610193610140565b5b9250929050565b600080600080604085870312156101b5576101b461012c565b5b600085013567ffffffffffffffff8111156101d3576101d2610131565b5b6101df87828801610145565b9450945050602085013567ffffffffffffffff81111561020257610201610131565b5b61020e87828801610145565b925092505092959194509250565b600081519050919050565b600082825260208201905092915050565b60005b8381101561025657808201518184015260208101905061023b565b60008484015250505050565b6000601f19601f8301169050919050565b600061027e8261021c565b6102888185610227565b9350610298818560208601610238565b6102a181610262565b840191505092915050565b600060208201905081810360008301526102c68184610273565b905092915050565b60008115159050919050565b6102e3816102ce565b82525050565b60006020820190506102fe60008301846102da565b92915050565b600081905092915050565b82818337600083830152505050565b600061032a8385610304565b935061033783858461030f565b82840190509392505050565b600061035082868861031e565b915061035d82848661031e565b915081905095945050505050565b600061037882848661031e565b9150819050939250505056fea26469706673582212204e4987df9b39bb258049935b7f4f3cbaaf27093de3a8042e30c1513390c6c1bb64736f6c63430008110033",
					"opcodes": "PUSH1 0x80 PUSH1 0x40 MSTORE CALLVALUE DUP1 ISZERO PUSH2 0x10 JUMPI PUSH1 0x0 DUP1 REVERT JUMPDEST POP PUSH2 0x3BA DUP1 PUSH2 0x20 PUSH1 0x0 CODECOPY PUSH1 0x0 RETURN INVALID PUSH1 0x80 PUSH1 0x40 MSTORE CALLVALUE DUP1 ISZERO PUSH2 0x10 JUMPI PUSH1 0x0 DUP1 REVERT JUMPDEST POP PUSH1 0x4 CALLDATASIZE LT PUSH2 0x36 JUMPI PUSH1 0x0 CALLDATALOAD PUSH1 0xE0 SHR DUP1 PUSH4 0x4309FBA7 EQ PUSH2 0x3B JUMPI DUP1 PUSH4 0xF9CB5BD8 EQ PUSH2 0x6B JUMPI JUMPDEST PUSH1 0x0 DUP1 REVERT JUMPDEST PUSH2 0x55 PUSH1 0x4 DUP1 CALLDATASIZE SUB DUP2 ADD SWAP1 PUSH2 0x50 SWAP2 SWAP1 PUSH2 0x19B JUMP JUMPDEST PUSH2 0x9B JUMP JUMPDEST PUSH1 0x40 MLOAD PUSH2 0x62 SWAP2 SWAP1 PUSH2 0x2AC JUMP JUMPDEST PUSH1 0x40 MLOAD DUP1 SWAP2 SUB SWAP1 RETURN JUMPDEST PUSH2 0x85 PUSH1 0x4 DUP1 CALLDATASIZE SUB DUP2 ADD SWAP1 PUSH2 0x80 SWAP2 SWAP1 PUSH2 0x19B JUMP JUMPDEST PUSH2 0xCD JUMP JUMPDEST PUSH1 0x40 MLOAD PUSH2 0x92 SWAP2 SWAP1 PUSH2 0x2E9 JUMP JUMPDEST PUSH1 0x40 MLOAD DUP1 SWAP2 SUB SWAP1 RETURN JUMPDEST PUSH1 0x60 DUP5 DUP5 DUP5 DUP5 PUSH1 0x40 MLOAD PUSH1 0x20 ADD PUSH2 0xB4 SWAP5 SWAP4 SWAP3 SWAP2 SWAP1 PUSH2 0x343 JUMP JUMPDEST PUSH1 0x40 MLOAD PUSH1 0x20 DUP2 DUP4 SUB SUB DUP2 MSTORE SWAP1 PUSH1 0x40 MSTORE SWAP1 POP SWAP5 SWAP4 POP POP POP POP JUMP JUMPDEST PUSH1 0x0 DUP3 DUP3 PUSH1 0x40 MLOAD PUSH1 0x20 ADD PUSH2 0xE2 SWAP3 SWAP2 SWAP1 PUSH2 0x36B JUMP JUMPDEST PUSH1 0x40 MLOAD PUSH1 0x20 DUP2 DUP4 SUB SUB DUP2 MSTORE SWAP1 PUSH1 0x40 MSTORE DUP1 MLOAD SWAP1 PUSH1 0x20 ADD KECCAK256 DUP6 DUP6 PUSH1 0x40 MLOAD PUSH1 0x20 ADD PUSH2 0x10B SWAP3 SWAP2 SWAP1 PUSH2 0x36B JUMP JUMPDEST PUSH1 0x40 MLOAD PUSH1 0x20 DUP2 DUP4 SUB SUB DUP2 MSTORE SWAP1 PUSH1 0x40 MSTORE DUP1 MLOAD SWAP1 PUSH1 0x20 ADD KECCAK256 EQ SWAP1 POP SWAP5 SWAP4 POP POP POP POP JUMP JUMPDEST PUSH1 0x0 DUP1 REVERT JUMPDEST PUSH1 0x0 DUP1 REVERT JUMPDEST PUSH1 0x0 DUP1 REVERT JUMPDEST PUSH1 0x0 DUP1 REVERT JUMPDEST PUSH1 0x0 DUP1 REVERT JUMPDEST PUSH1 0x0 DUP1 DUP4 PUSH1 0x1F DUP5 ADD SLT PUSH2 0x15B JUMPI PUSH2 0x15A PUSH2 0x136 JUMP JUMPDEST JUMPDEST DUP3 CALLDATALOAD SWAP1 POP PUSH8 0xFFFFFFFFFFFFFFFF DUP2 GT ISZERO PUSH2 0x178 JUMPI PUSH2 0x177 PUSH2 0x13B JUMP JUMPDEST JUMPDEST PUSH1 0x20 DUP4 ADD SWAP2 POP DUP4 PUSH1 0x1 DUP3 MUL DUP4 ADD GT ISZERO PUSH2 0x194 JUMPI PUSH2 0x193 PUSH2 0x140 JUMP JUMPDEST JUMPDEST SWAP3 POP SWAP3 SWAP1 POP JUMP JUMPDEST PUSH1 0x0 DUP1 PUSH1 0x0 DUP1 PUSH1 0x40 DUP6 DUP8 SUB SLT ISZERO PUSH2 0x1B5 JUMPI PUSH2 0x1B4 PUSH2 0x12C JUMP JUMPDEST JUMPDEST PUSH1 0x0 DUP6 ADD CALLDATALOAD PUSH8 0xFFFFFFFFFFFFFFFF DUP2 GT ISZERO PUSH2 0x1D3 JUMPI PUSH2 0x1D2 PUSH2 0x131 JUMP JUMPDEST JUMPDEST PUSH2 0x1DF DUP8 DUP3 DUP9 ADD PUSH2 0x145 JUMP JUMPDEST SWAP5 POP SWAP5 POP POP PUSH1 0x20 DUP6 ADD CALLDATALOAD PUSH8 0xFFFFFFFFFFFFFFFF DUP2 GT ISZERO PUSH2 0x202 JUMPI PUSH2 0x201 PUSH2 0x131 JUMP JUMPDEST JUMPDEST PUSH2 0x20E DUP8 DUP3 DUP9 ADD PUSH2 0x145 JUMP JUMPDEST SWAP3 POP SWAP3 POP POP SWAP3 SWAP6 SWAP2 SWAP5 POP SWAP3 POP JUMP JUMPDEST PUSH1 0x0 DUP2 MLOAD SWAP1 POP SWAP2 SWAP1 POP JUMP JUMPDEST PUSH1 0x0 DUP3 DUP3 MSTORE PUSH1 0x20 DUP3 ADD SWAP1 POP SWAP3 SWAP2 POP POP JUMP JUMPDEST PUSH1 0x0 JUMPDEST DUP4 DUP2 LT ISZERO PUSH2 0x256 JUMPI DUP1 DUP3 ADD MLOAD DUP2 DUP5 ADD MSTORE PUSH1 0x20 DUP2 ADD SWAP1 POP PUSH2 0x23B JUMP JUMPDEST PUSH1 0x0 DUP5 DUP5 ADD MSTORE POP POP POP POP JUMP JUMPDEST PUSH1 0x0 PUSH1 0x1F NOT PUSH1 0x1F DUP4 ADD AND SWAP1 POP SWAP2 SWAP1 POP JUMP JUMPDEST PUSH1 0x0 PUSH2 0x27E DUP3 PUSH2 0x21C JUMP JUMPDEST PUSH2 0x288 DUP2 DUP6 PUSH2 0x227 JUMP JUMPDEST SWAP4 POP PUSH2 0x298 DUP2 DUP6 PUSH1 0x20 DUP7 ADD PUSH2 0x238 JUMP JUMPDEST PUSH2 0x2A1 DUP2 PUSH2 0x262 JUMP JUMPDEST DUP5 ADD SWAP2 POP POP SWAP3 SWAP2 POP POP JUMP JUMPDEST PUSH1 0x0 PUSH1 0x20 DUP3 ADD SWAP1 POP DUP2 DUP2 SUB PUSH1 0x0 DUP4 ADD MSTORE PUSH2 0x2C6 DUP2 DUP5 PUSH2 0x273 JUMP JUMPDEST SWAP1 POP SWAP3 SWAP2 POP POP JUMP JUMPDEST PUSH1 0x0 DUP2 ISZERO ISZERO SWAP1 POP SWAP2 SWAP1 POP JUMP JUMPDEST PUSH2 0x2E3 DUP2 PUSH2 0x2CE JUMP JUMPDEST DUP3 MSTORE POP POP JUMP JUMPDEST PUSH1 0x0 PUSH1 0x20 DUP3 ADD SWAP1 POP PUSH2 0x2FE PUSH1 0x0 DUP4 ADD DUP5 PUSH2 0x2DA JUMP JUMPDEST SWAP3 SWAP2 POP POP JUMP JUMPDEST PUSH1 0x0 DUP2 SWAP1 POP SWAP3 SWAP2 POP POP JUMP JUMPDEST DUP3 DUP2 DUP4 CALLDATACOPY PUSH1 0x0 DUP4 DUP4 ADD MSTORE POP POP POP JUMP JUMPDEST PUSH1 0x0 PUSH2 0x32A DUP4 DUP6 PUSH2 0x304 JUMP JUMPDEST SWAP4 POP PUSH2 0x337 DUP4 DUP6 DUP5 PUSH2 0x30F JUMP JUMPDEST DUP3 DUP5 ADD SWAP1 POP SWAP4 SWAP3 POP POP POP JUMP JUMPDEST PUSH1 0x0 PUSH2 0x350 DUP3 DUP7 DUP9 PUSH2 0x31E JUMP JUMPDEST SWAP2 POP PUSH2 0x35D DUP3 DUP5 DUP7 PUSH2 0x31E JUMP JUMPDEST SWAP2 POP DUP2 SWAP1 POP SWAP6 SWAP5 POP POP POP POP POP JUMP JUMPDEST PUSH1 0x0 PUSH2 0x378 DUP3 DUP5 DUP7 PUSH2 0x31E JUMP JUMPDEST SWAP2 POP DUP2 SWAP1 POP SWAP4 SWAP3 POP POP POP JUMP INVALID LOG2 PUSH5 0x6970667358 0x22 SLT KECCAK256 0x4E 0x49 DUP8 0xDF SWAP12 CODECOPY 0xBB 0x25 DUP1 0x49 SWAP4 JUMPDEST PUSH32 0x4F3CBAAF27093DE3A8042E30C1513390C6C1BB64736F6C634300081100330000 "
				},
				"gasEstimates": {
					"creation": {
						"codeDepositCost": "190800",
						"executionCost": "232",
						"totalCost": "191032"
					},
					"external": {
						"compare2Strings(string,string)": "infinite",
						"concat2Strings(string,string)": "infinite"
					}
				},
				"methodIdentifiers": {
					"compare2Strings(string,string)": "f9cb5bd8",
					"concat2Strings(string,string)": "4309fba7"
				}
			},
			"storageLayout": {
				"storage": [],
				"types": null
			},
			"userdoc": {
				"kind": "user",
				"methods": {},
				"version": 1
			}
		}
	}
}