{
	"contracts/revision/Assg_2.sol": {
		"Assign_2": {
			"abi": [
				{
					"inputs": [
						{
							"internalType": "uint256",
							"name": "",
							"type": "uint256"
						}
					],
					"name": "_strArr",
					"outputs": [
						{
							"internalType": "string",
							"name": "",
							"type": "string"
						}
					],
					"stateMutability": "view",
					"type": "function"
				},
				{
					"inputs": [
						{
							"internalType": "string",
							"name": "_str1",
							"type": "string"
						},
						{
							"internalType": "string",
							"name": "_str2",
							"type": "string"
						}
					],
					"name": "compare2Strings",
					"outputs": [
						{
							"internalType": "bool",
							"name": "",
							"type": "bool"
						}
					],
					"stateMutability": "pure",
					"type": "function"
				},
				{
					"inputs": [
						{
							"internalType": "string",
							"name": "_str1",
							"type": "string"
						},
						{
							"internalType": "string",
							"name": "_str2",
							"type": "string"
						}
					],
					"name": "concat2Strings",
					"outputs": [
						{
							"internalType": "string",
							"name": "",
							"type": "string"
						}
					],
					"stateMutability": "pure",
					"type": "function"
				},
				{
					"inputs": [
						{
							"internalType": "int256",
							"name": "_num",
							"type": "int256"
						},
						{
							"internalType": "int256[]",
							"name": "_arr",
							"type": "int256[]"
						}
					],
					"name": "find",
					"outputs": [
						{
							"internalType": "bool",
							"name": "",
							"type": "bool"
						}
					],
					"stateMutability": "pure",
					"type": "function"
				},
				{
					"inputs": [],
					"name": "get10Std",
					"outputs": [
						{
							"components": [
								{
									"internalType": "string",
									"name": "name",
									"type": "string"
								},
								{
									"internalType": "int256",
									"name": "roll",
									"type": "int256"
								},
								{
									"internalType": "int256",
									"name": "age",
									"type": "int256"
								}
							],
							"internalType": "struct Assign_2.Student[10]",
							"name": "",
							"type": "tuple[10]"
						}
					],
					"stateMutability": "view",
					"type": "function"
				},
				{
					"inputs": [],
					"name": "getCurntOwner",
					"outputs": [
						{
							"internalType": "address",
							"name": "",
							"type": "address"
						}
					],
					"stateMutability": "view",
					"type": "function"
				},
				{
					"inputs": [],
					"name": "getMark",
					"outputs": [
						{
							"internalType": "uint256[3]",
							"name": "",
							"type": "uint256[3]"
						}
					],
					"stateMutability": "view",
					"type": "function"
				},
				{
					"inputs": [],
					"name": "houseSize",
					"outputs": [
						{
							"internalType": "enum Assign_2.HOUSE",
							"name": "",
							"type": "uint8"
						}
					],
					"stateMutability": "view",
					"type": "function"
				},
				{
					"inputs": [
						{
							"internalType": "uint256[]",
							"name": "_arr",
							"type": "uint256[]"
						}
					],
					"name": "largestInArr",
					"outputs": [
						{
							"internalType": "uint256",
							"name": "",
							"type": "uint256"
						}
					],
					"stateMutability": "pure",
					"type": "function"
				},
				{
					"inputs": [],
					"name": "myHouse",
					"outputs": [
						{
							"internalType": "string",
							"name": "",
							"type": "string"
						}
					],
					"stateMutability": "view",
					"type": "function"
				},
				{
					"inputs": [
						{
							"internalType": "string",
							"name": "_name",
							"type": "string"
						},
						{
							"internalType": "int256",
							"name": "roll",
							"type": "int256"
						},
						{
							"internalType": "int256",
							"name": "age",
							"type": "int256"
						}
					],
					"name": "newStudent",
					"outputs": [
						{
							"components": [
								{
									"internalType": "string",
									"name": "name",
									"type": "string"
								},
								{
									"internalType": "int256",
									"name": "roll",
									"type": "int256"
								},
								{
									"internalType": "int256",
									"name": "age",
									"type": "int256"
								}
							],
							"internalType": "struct Assign_2.Student",
							"name": "",
							"type": "tuple"
						}
					],
					"stateMutability": "pure",
					"type": "function"
				},
				{
					"inputs": [
						{
							"internalType": "address",
							"name": "",
							"type": "address"
						},
						{
							"internalType": "address",
							"name": "",
							"type": "address"
						}
					],
					"name": "ownership",
					"outputs": [
						{
							"internalType": "bool",
							"name": "",
							"type": "bool"
						}
					],
					"stateMutability": "view",
					"type": "function"
				},
				{
					"inputs": [],
					"name": "popStrArr",
					"outputs": [],
					"stateMutability": "nonpayable",
					"type": "function"
				},
				{
					"inputs": [],
					"name": "pushStrArr",
					"outputs": [],
					"stateMutability": "nonpayable",
					"type": "function"
				},
				{
					"inputs": [],
					"name": "resetOwnership",
					"outputs": [],
					"stateMutability": "nonpayable",
					"type": "function"
				},
				{
					"inputs": [
						{
							"internalType": "enum Assign_2.HOUSE",
							"name": "val",
							"type": "uint8"
						}
					],
					"name": "setHouseSize",
					"outputs": [],
					"stateMutability": "nonpayable",
					"type": "function"
				},
				{
					"inputs": [
						{
							"internalType": "uint256",
							"name": "Math",
							"type": "uint256"
						},
						{
							"internalType": "uint256",
							"name": "English",
							"type": "uint256"
						},
						{
							"internalType": "uint256",
							"name": "History",
							"type": "uint256"
						}
					],
					"name": "setMark",
					"outputs": [],
					"stateMutability": "nonpayable",
					"type": "function"
				},
				{
					"inputs": [
						{
							"internalType": "string",
							"name": "",
							"type": "string"
						},
						{
							"internalType": "uint256",
							"name": "",
							"type": "uint256"
						}
					],
					"name": "store10",
					"outputs": [
						{
							"internalType": "string",
							"name": "name",
							"type": "string"
						},
						{
							"internalType": "int256",
							"name": "roll",
							"type": "int256"
						},
						{
							"internalType": "int256",
							"name": "age",
							"type": "int256"
						}
					],
					"stateMutability": "view",
					"type": "function"
				},
				{
					"inputs": [
						{
							"internalType": "string",
							"name": "_name",
							"type": "string"
						},
						{
							"internalType": "int256",
							"name": "roll",
							"type": "int256"
						},
						{
							"internalType": "int256",
							"name": "age",
							"type": "int256"
						},
						{
							"internalType": "uint256",
							"name": "index",
							"type": "uint256"
						}
					],
					"name": "str10Std",
					"outputs": [],
					"stateMutability": "nonpayable",
					"type": "function"
				},
				{
					"inputs": [
						{
							"internalType": "address",
							"name": "newAdr",
							"type": "address"
						}
					],
					"name": "transferownership",
					"outputs": [],
					"stateMutability": "nonpayable",
					"type": "function"
				}
			],
			"devdoc": {
				"kind": "dev",
				"methods": {},
				"version": 1
			},
			"evm": {
				"assembly": "    /* \"contracts/revision/Assg_2.sol\":56:3835  contract Assign_2{... */\n  mstore(0x40, 0x80)\n    /* \"contracts/revision/Assg_2.sol\":2107:2226  address[] substituteAdresses = [0x5B38Da6a701c568545dCfcB03FcB875f56beddC4, 0xAb8483F64d9C6d1EcF9b849Ae677dD3315835cb2] */\n  mload(0x40)\n  dup1\n  0x40\n  add\n  0x40\n  mstore\n  dup1\n    /* \"contracts/revision/Assg_2.sol\":2139:2181  0x5B38Da6a701c568545dCfcB03FcB875f56beddC4 */\n  0x5b38da6a701c568545dcfcb03fcb875f56beddc4\n    /* \"contracts/revision/Assg_2.sol\":2107:2226  address[] substituteAdresses = [0x5B38Da6a701c568545dCfcB03FcB875f56beddC4, 0xAb8483F64d9C6d1EcF9b849Ae677dD3315835cb2] */\n  0xffffffffffffffffffffffffffffffffffffffff\n  and\n  0xffffffffffffffffffffffffffffffffffffffff\n  and\n  dup2\n  mstore\n  0x20\n  add\n    /* \"contracts/revision/Assg_2.sol\":2183:2225  0xAb8483F64d9C6d1EcF9b849Ae677dD3315835cb2 */\n  0xab8483f64d9c6d1ecf9b849ae677dd3315835cb2\n    /* \"contracts/revision/Assg_2.sol\":2107:2226  address[] substituteAdresses = [0x5B38Da6a701c568545dCfcB03FcB875f56beddC4, 0xAb8483F64d9C6d1EcF9b849Ae677dD3315835cb2] */\n  0xffffffffffffffffffffffffffffffffffffffff\n  and\n  0xffffffffffffffffffffffffffffffffffffffff\n  and\n  dup2\n  mstore\n  pop\n  0x03\n  swap1\n  0x02\n  tag_1\n  swap3\n  swap2\n  swap1\n  tag_2\n  jump\t// in\ntag_1:\n  pop\n    /* \"contracts/revision/Assg_2.sol\":56:3835  contract Assign_2{... */\n  callvalue\n  dup1\n  iszero\n  tag_3\n  jumpi\n  0x00\n  dup1\n  revert\ntag_3:\n  pop\n  jump(tag_4)\ntag_2:\n  dup3\n  dup1\n  sload\n  dup3\n  dup3\n  sstore\n  swap1\n  0x00\n  mstore\n  keccak256(0x00, 0x20)\n  swap1\n  dup2\n  add\n  swap3\n  dup3\n  iszero\n  tag_5\n  jumpi\n  swap2\n  0x20\n  mul\n  dup3\n  add\ntag_6:\n  dup3\n  dup2\n  gt\n  iszero\n  tag_7\n  jumpi\n  dup3\n  mload\n  dup3\n  exp(0x0100, 0x00)\n  dup2\n  sload\n  dup2\n  0xffffffffffffffffffffffffffffffffffffffff\n  mul\n  not\n  and\n  swap1\n  dup4\n  0xffffffffffffffffffffffffffffffffffffffff\n  and\n  mul\n  or\n  swap1\n  sstore\n  pop\n  swap2\n  0x20\n  add\n  swap2\n  swap1\n  0x01\n  add\n  swap1\n  jump(tag_6)\ntag_7:\ntag_5:\n  pop\n  swap1\n  pop\n  tag_8\n  swap2\n  swap1\n  tag_9\n  jump\t// in\ntag_8:\n  pop\n  swap1\n  jump\t// out\ntag_9:\ntag_10:\n  dup1\n  dup3\n  gt\n  iszero\n  tag_11\n  jumpi\n  0x00\n  dup2\n  0x00\n  swap1\n  sstore\n  pop\n  0x01\n  add\n  jump(tag_10)\ntag_11:\n  pop\n  swap1\n  jump\t// out\ntag_4:\n  dataSize(sub_0)\n  dup1\n  dataOffset(sub_0)\n  0x00\n  codecopy\n  0x00\n  return\nstop\n\nsub_0: assembly {\n        /* \"contracts/revision/Assg_2.sol\":56:3835  contract Assign_2{... */\n      mstore(0x40, 0x80)\n      callvalue\n      dup1\n      iszero\n      tag_1\n      jumpi\n      0x00\n      dup1\n      revert\n    tag_1:\n      pop\n      jumpi(tag_2, lt(calldatasize, 0x04))\n      shr(0xe0, calldataload(0x00))\n      dup1\n      0x8ea5bd07\n      gt\n      tag_23\n      jumpi\n      dup1\n      0xbdb552f0\n      gt\n      tag_24\n      jumpi\n      dup1\n      0xbdb552f0\n      eq\n      tag_18\n      jumpi\n      dup1\n      0xcdbb7a5a\n      eq\n      tag_19\n      jumpi\n      dup1\n      0xdf0fd34f\n      eq\n      tag_20\n      jumpi\n      dup1\n      0xe8b5b796\n      eq\n      tag_21\n      jumpi\n      dup1\n      0xf9cb5bd8\n      eq\n      tag_22\n      jumpi\n      jump(tag_2)\n    tag_24:\n      dup1\n      0x8ea5bd07\n      eq\n      tag_13\n      jumpi\n      dup1\n      0x8fff396f\n      eq\n      tag_14\n      jumpi\n      dup1\n      0x974fe591\n      eq\n      tag_15\n      jumpi\n      dup1\n      0xa0957e09\n      eq\n      tag_16\n      jumpi\n      dup1\n      0xa5cb84b5\n      eq\n      tag_17\n      jumpi\n      jump(tag_2)\n    tag_23:\n      dup1\n      0x4ddd29fe\n      gt\n      tag_25\n      jumpi\n      dup1\n      0x4ddd29fe\n      eq\n      tag_8\n      jumpi\n      dup1\n      0x51c6689a\n      eq\n      tag_9\n      jumpi\n      dup1\n      0x5bb42e93\n      eq\n      tag_10\n      jumpi\n      dup1\n      0x660127c7\n      eq\n      tag_11\n      jumpi\n      dup1\n      0x742a1cb5\n      eq\n      tag_12\n      jumpi\n      jump(tag_2)\n    tag_25:\n      dup1\n      0x094825b9\n      eq\n      tag_3\n      jumpi\n      dup1\n      0x19077dca\n      eq\n      tag_4\n      jumpi\n      dup1\n      0x323c9ab3\n      eq\n      tag_5\n      jumpi\n      dup1\n      0x39ada523\n      eq\n      tag_6\n      jumpi\n      dup1\n      0x4309fba7\n      eq\n      tag_7\n      jumpi\n    tag_2:\n      0x00\n      dup1\n      revert\n        /* \"contracts/revision/Assg_2.sol\":519:775  function find(int _num, int[] memory _arr) external pure returns (bool) {... */\n    tag_3:\n      tag_26\n      0x04\n      dup1\n      calldatasize\n      sub\n      dup2\n      add\n      swap1\n      tag_27\n      swap2\n      swap1\n      tag_28\n      jump\t// in\n    tag_27:\n      tag_29\n      jump\t// in\n    tag_26:\n      mload(0x40)\n      tag_30\n      swap2\n      swap1\n      tag_31\n      jump\t// in\n    tag_30:\n      mload(0x40)\n      dup1\n      swap2\n      sub\n      swap1\n      return\n        /* \"contracts/revision/Assg_2.sol\":2241:2476  function resetOwnership() external {... */\n    tag_4:\n      tag_32\n      tag_33\n      jump\t// in\n    tag_32:\n      stop\n        /* \"contracts/revision/Assg_2.sol\":2777:3106  function getCurntOwner() view external returns(address){... */\n    tag_5:\n      tag_34\n      tag_35\n      jump\t// in\n    tag_34:\n      mload(0x40)\n      tag_36\n      swap2\n      swap1\n      tag_37\n      jump\t// in\n    tag_36:\n      mload(0x40)\n      dup1\n      swap2\n      sub\n      swap1\n      return\n        /* \"contracts/revision/Assg_2.sol\":1609:1715  function get10Std() external view returns(Student[10] memory){... */\n    tag_6:\n      tag_38\n      tag_39\n      jump\t// in\n    tag_38:\n      mload(0x40)\n      tag_40\n      swap2\n      swap1\n      tag_41\n      jump\t// in\n    tag_40:\n      mload(0x40)\n      dup1\n      swap2\n      sub\n      swap1\n      return\n        /* \"contracts/revision/Assg_2.sol\":105:261  function concat2Strings(string calldata _str1, string calldata _str2) pure external returns(string memory){... */\n    tag_7:\n      tag_42\n      0x04\n      dup1\n      calldatasize\n      sub\n      dup2\n      add\n      swap1\n      tag_43\n      swap2\n      swap1\n      tag_44\n      jump\t// in\n    tag_43:\n      tag_45\n      jump\t// in\n    tag_42:\n      mload(0x40)\n      tag_46\n      swap2\n      swap1\n      tag_47\n      jump\t// in\n    tag_46:\n      mload(0x40)\n      dup1\n      swap2\n      sub\n      swap1\n      return\n        /* \"contracts/revision/Assg_2.sol\":1169:1359  function newStudent(string memory _name, int roll, int age) pure external returns(Student memory){... */\n    tag_8:\n      tag_48\n      0x04\n      dup1\n      calldatasize\n      sub\n      dup2\n      add\n      swap1\n      tag_49\n      swap2\n      swap1\n      tag_50\n      jump\t// in\n    tag_49:\n      tag_51\n      jump\t// in\n    tag_48:\n      mload(0x40)\n      tag_52\n      swap2\n      swap1\n      tag_53\n      jump\t// in\n    tag_52:\n      mload(0x40)\n      dup1\n      swap2\n      sub\n      swap1\n      return\n        /* \"contracts/revision/Assg_2.sol\":1453:1603  function str10Std(string memory _name, int roll, int age, uint index) external {... */\n    tag_9:\n      tag_54\n      0x04\n      dup1\n      calldatasize\n      sub\n      dup2\n      add\n      swap1\n      tag_55\n      swap2\n      swap1\n      tag_56\n      jump\t// in\n    tag_55:\n      tag_57\n      jump\t// in\n    tag_54:\n      stop\n        /* \"contracts/revision/Assg_2.sol\":3171:3284  function pushStrArr() external {... */\n    tag_10:\n      tag_58\n      tag_59\n      jump\t// in\n    tag_58:\n      stop\n        /* \"contracts/revision/Assg_2.sol\":3450:3472  HOUSE public houseSize */\n    tag_11:\n      tag_60\n      tag_61\n      jump\t// in\n    tag_60:\n      mload(0x40)\n      tag_62\n      swap2\n      swap1\n      tag_63\n      jump\t// in\n    tag_62:\n      mload(0x40)\n      dup1\n      swap2\n      sub\n      swap1\n      return\n        /* \"contracts/revision/Assg_2.sol\":3142:3165  string[] public _strArr */\n    tag_12:\n      tag_64\n      0x04\n      dup1\n      calldatasize\n      sub\n      dup2\n      add\n      swap1\n      tag_65\n      swap2\n      swap1\n      tag_66\n      jump\t// in\n    tag_65:\n      tag_67\n      jump\t// in\n    tag_64:\n      mload(0x40)\n      tag_68\n      swap2\n      swap1\n      tag_47\n      jump\t// in\n    tag_68:\n      mload(0x40)\n      dup1\n      swap2\n      sub\n      swap1\n      return\n        /* \"contracts/revision/Assg_2.sol\":3558:3831  function myHouse() view external returns(string memory){... */\n    tag_13:\n      tag_69\n      tag_70\n      jump\t// in\n    tag_69:\n      mload(0x40)\n      tag_71\n      swap2\n      swap1\n      tag_47\n      jump\t// in\n    tag_71:\n      mload(0x40)\n      dup1\n      swap2\n      sub\n      swap1\n      return\n        /* \"contracts/revision/Assg_2.sol\":1930:2027  function getMark() view external returns(uint[3] memory){... */\n    tag_14:\n      tag_72\n      tag_73\n      jump\t// in\n    tag_72:\n      mload(0x40)\n      tag_74\n      swap2\n      swap1\n      tag_75\n      jump\t// in\n    tag_74:\n      mload(0x40)\n      dup1\n      swap2\n      sub\n      swap1\n      return\n        /* \"contracts/revision/Assg_2.sol\":2043:2101  mapping(address=>mapping(address=> bool)) public ownership */\n    tag_15:\n      tag_76\n      0x04\n      dup1\n      calldatasize\n      sub\n      dup2\n      add\n      swap1\n      tag_77\n      swap2\n      swap1\n      tag_78\n      jump\t// in\n    tag_77:\n      tag_79\n      jump\t// in\n    tag_76:\n      mload(0x40)\n      tag_80\n      swap2\n      swap1\n      tag_31\n      jump\t// in\n    tag_80:\n      mload(0x40)\n      dup1\n      swap2\n      sub\n      swap1\n      return\n        /* \"contracts/revision/Assg_2.sol\":1799:1925  function setMark(uint Math, uint English, uint History) external {... */\n    tag_16:\n      tag_81\n      0x04\n      dup1\n      calldatasize\n      sub\n      dup2\n      add\n      swap1\n      tag_82\n      swap2\n      swap1\n      tag_83\n      jump\t// in\n    tag_82:\n      tag_84\n      jump\t// in\n    tag_81:\n      stop\n        /* \"contracts/revision/Assg_2.sol\":3289:3392  function popStrArr() external {... */\n    tag_17:\n      tag_85\n      tag_86\n      jump\t// in\n    tag_85:\n      stop\n        /* \"contracts/revision/Assg_2.sol\":1402:1447  mapping(string => Student[10]) public store10 */\n    tag_18:\n      tag_87\n      0x04\n      dup1\n      calldatasize\n      sub\n      dup2\n      add\n      swap1\n      tag_88\n      swap2\n      swap1\n      tag_89\n      jump\t// in\n    tag_88:\n      tag_90\n      jump\t// in\n    tag_87:\n      mload(0x40)\n      tag_91\n      swap4\n      swap3\n      swap2\n      swap1\n      tag_92\n      jump\t// in\n    tag_91:\n      mload(0x40)\n      dup1\n      swap2\n      sub\n      swap1\n      return\n        /* \"contracts/revision/Assg_2.sol\":806:1065  function largestInArr(uint[] memory _arr) pure external returns(uint){... */\n    tag_19:\n      tag_93\n      0x04\n      dup1\n      calldatasize\n      sub\n      dup2\n      add\n      swap1\n      tag_94\n      swap2\n      swap1\n      tag_95\n      jump\t// in\n    tag_94:\n      tag_96\n      jump\t// in\n    tag_93:\n      mload(0x40)\n      tag_97\n      swap2\n      swap1\n      tag_98\n      jump\t// in\n    tag_97:\n      mload(0x40)\n      dup1\n      swap2\n      sub\n      swap1\n      return\n        /* \"contracts/revision/Assg_2.sol\":3479:3552  function setHouseSize(HOUSE val) external{... */\n    tag_20:\n      tag_99\n      0x04\n      dup1\n      calldatasize\n      sub\n      dup2\n      add\n      swap1\n      tag_100\n      swap2\n      swap1\n      tag_101\n      jump\t// in\n    tag_100:\n      tag_102\n      jump\t// in\n    tag_99:\n      stop\n        /* \"contracts/revision/Assg_2.sol\":2482:2771  function transferownership(address newAdr)  external{... */\n    tag_21:\n      tag_103\n      0x04\n      dup1\n      calldatasize\n      sub\n      dup2\n      add\n      swap1\n      tag_104\n      swap2\n      swap1\n      tag_105\n      jump\t// in\n    tag_104:\n      tag_106\n      jump\t// in\n    tag_103:\n      stop\n        /* \"contracts/revision/Assg_2.sol\":293:487  function compare2Strings(string calldata _str1, string calldata _str2) pure external returns(bool){... */\n    tag_22:\n      tag_107\n      0x04\n      dup1\n      calldatasize\n      sub\n      dup2\n      add\n      swap1\n      tag_108\n      swap2\n      swap1\n      tag_44\n      jump\t// in\n    tag_108:\n      tag_109\n      jump\t// in\n    tag_107:\n      mload(0x40)\n      tag_110\n      swap2\n      swap1\n      tag_31\n      jump\t// in\n    tag_110:\n      mload(0x40)\n      dup1\n      swap2\n      sub\n      swap1\n      return\n        /* \"contracts/revision/Assg_2.sol\":519:775  function find(int _num, int[] memory _arr) external pure returns (bool) {... */\n    tag_29:\n        /* \"contracts/revision/Assg_2.sol\":585:589  bool */\n      0x00\n        /* \"contracts/revision/Assg_2.sol\":601:613  bool isFound */\n      dup1\n        /* \"contracts/revision/Assg_2.sol\":628:634  uint i */\n      0x00\n        /* \"contracts/revision/Assg_2.sol\":623:745  for (uint i=0; i<_arr.length; i++){... */\n    tag_112:\n        /* \"contracts/revision/Assg_2.sol\":640:644  _arr */\n      dup4\n        /* \"contracts/revision/Assg_2.sol\":640:651  _arr.length */\n      mload\n        /* \"contracts/revision/Assg_2.sol\":638:639  i */\n      dup2\n        /* \"contracts/revision/Assg_2.sol\":638:651  i<_arr.length */\n      lt\n        /* \"contracts/revision/Assg_2.sol\":623:745  for (uint i=0; i<_arr.length; i++){... */\n      iszero\n      tag_113\n      jumpi\n        /* \"contracts/revision/Assg_2.sol\":683:687  _num */\n      dup5\n        /* \"contracts/revision/Assg_2.sol\":674:678  _arr */\n      dup5\n        /* \"contracts/revision/Assg_2.sol\":679:680  i */\n      dup3\n        /* \"contracts/revision/Assg_2.sol\":674:681  _arr[i] */\n      dup2\n      mload\n      dup2\n      lt\n      tag_115\n      jumpi\n      tag_116\n      tag_117\n      jump\t// in\n    tag_116:\n    tag_115:\n      0x20\n      mul\n      0x20\n      add\n      add\n      mload\n        /* \"contracts/revision/Assg_2.sol\":674:687  _arr[i]==_num */\n      sub\n        /* \"contracts/revision/Assg_2.sol\":671:735  if(_arr[i]==_num){... */\n      tag_118\n      jumpi\n        /* \"contracts/revision/Assg_2.sol\":716:720  true */\n      0x01\n        /* \"contracts/revision/Assg_2.sol\":706:720  isFound = true */\n      swap2\n      pop\n        /* \"contracts/revision/Assg_2.sol\":671:735  if(_arr[i]==_num){... */\n    tag_118:\n        /* \"contracts/revision/Assg_2.sol\":653:656  i++ */\n      dup1\n      dup1\n      tag_119\n      swap1\n      tag_120\n      jump\t// in\n    tag_119:\n      swap2\n      pop\n      pop\n        /* \"contracts/revision/Assg_2.sol\":623:745  for (uint i=0; i<_arr.length; i++){... */\n      jump(tag_112)\n    tag_113:\n      pop\n        /* \"contracts/revision/Assg_2.sol\":761:768  isFound */\n      dup1\n        /* \"contracts/revision/Assg_2.sol\":754:768  return isFound */\n      swap2\n      pop\n      pop\n        /* \"contracts/revision/Assg_2.sol\":519:775  function find(int _num, int[] memory _arr) external pure returns (bool) {... */\n      swap3\n      swap2\n      pop\n      pop\n      jump\t// out\n        /* \"contracts/revision/Assg_2.sol\":2241:2476  function resetOwnership() external {... */\n    tag_33:\n        /* \"contracts/revision/Assg_2.sol\":2290:2296  uint i */\n      0x00\n        /* \"contracts/revision/Assg_2.sol\":2286:2470  for(uint i=0; i<substituteAdresses.length;i++){... */\n    tag_122:\n        /* \"contracts/revision/Assg_2.sol\":2302:2320  substituteAdresses */\n      0x03\n        /* \"contracts/revision/Assg_2.sol\":2302:2327  substituteAdresses.length */\n      dup1\n      sload\n      swap1\n      pop\n        /* \"contracts/revision/Assg_2.sol\":2300:2301  i */\n      dup2\n        /* \"contracts/revision/Assg_2.sol\":2300:2327  i<substituteAdresses.length */\n      lt\n        /* \"contracts/revision/Assg_2.sol\":2286:2470  for(uint i=0; i<substituteAdresses.length;i++){... */\n      iszero\n      tag_123\n      jumpi\n        /* \"contracts/revision/Assg_2.sol\":2435:2445  msg.sender */\n      caller\n        /* \"contracts/revision/Assg_2.sol\":2411:2445  substituteAdresses[i]== msg.sender */\n      0xffffffffffffffffffffffffffffffffffffffff\n      and\n        /* \"contracts/revision/Assg_2.sol\":2411:2429  substituteAdresses */\n      0x03\n        /* \"contracts/revision/Assg_2.sol\":2430:2431  i */\n      dup3\n        /* \"contracts/revision/Assg_2.sol\":2411:2432  substituteAdresses[i] */\n      dup2\n      sload\n      dup2\n      lt\n      tag_125\n      jumpi\n      tag_126\n      tag_117\n      jump\t// in\n    tag_126:\n    tag_125:\n      swap1\n      0x00\n      mstore\n      keccak256(0x00, 0x20)\n      add\n      0x00\n      swap1\n      sload\n      swap1\n      0x0100\n      exp\n      swap1\n      div\n      0xffffffffffffffffffffffffffffffffffffffff\n      and\n        /* \"contracts/revision/Assg_2.sol\":2411:2445  substituteAdresses[i]== msg.sender */\n      0xffffffffffffffffffffffffffffffffffffffff\n      and\n      eq\n        /* \"contracts/revision/Assg_2.sol\":2411:2458  substituteAdresses[i]== msg.sender ? true:false */\n      tag_128\n      jumpi\n        /* \"contracts/revision/Assg_2.sol\":2453:2458  false */\n      0x00\n        /* \"contracts/revision/Assg_2.sol\":2411:2458  substituteAdresses[i]== msg.sender ? true:false */\n      jump(tag_129)\n    tag_128:\n        /* \"contracts/revision/Assg_2.sol\":2448:2452  true */\n      0x01\n        /* \"contracts/revision/Assg_2.sol\":2411:2458  substituteAdresses[i]== msg.sender ? true:false */\n    tag_129:\n        /* \"contracts/revision/Assg_2.sol\":2342:2351  ownership */\n      0x02\n        /* \"contracts/revision/Assg_2.sol\":2342:2363  ownership[msg.sender] */\n      0x00\n        /* \"contracts/revision/Assg_2.sol\":2352:2362  msg.sender */\n      caller\n        /* \"contracts/revision/Assg_2.sol\":2342:2363  ownership[msg.sender] */\n      0xffffffffffffffffffffffffffffffffffffffff\n      and\n      0xffffffffffffffffffffffffffffffffffffffff\n      and\n      dup2\n      mstore\n      0x20\n      add\n      swap1\n      dup2\n      mstore\n      0x20\n      add\n      0x00\n      keccak256\n        /* \"contracts/revision/Assg_2.sol\":2342:2408  ownership[msg.sender][... */\n      0x00\n        /* \"contracts/revision/Assg_2.sol\":2377:2395  substituteAdresses */\n      0x03\n        /* \"contracts/revision/Assg_2.sol\":2396:2397  i */\n      dup5\n        /* \"contracts/revision/Assg_2.sol\":2377:2398  substituteAdresses[i] */\n      dup2\n      sload\n      dup2\n      lt\n      tag_130\n      jumpi\n      tag_131\n      tag_117\n      jump\t// in\n    tag_131:\n    tag_130:\n      swap1\n      0x00\n      mstore\n      keccak256(0x00, 0x20)\n      add\n      0x00\n      swap1\n      sload\n      swap1\n      0x0100\n      exp\n      swap1\n      div\n      0xffffffffffffffffffffffffffffffffffffffff\n      and\n        /* \"contracts/revision/Assg_2.sol\":2342:2408  ownership[msg.sender][... */\n      0xffffffffffffffffffffffffffffffffffffffff\n      and\n      0xffffffffffffffffffffffffffffffffffffffff\n      and\n      dup2\n      mstore\n      0x20\n      add\n      swap1\n      dup2\n      mstore\n      0x20\n      add\n      0x00\n      keccak256\n      0x00\n        /* \"contracts/revision/Assg_2.sol\":2342:2458  ownership[msg.sender][... */\n      0x0100\n      exp\n      dup2\n      sload\n      dup2\n      0xff\n      mul\n      not\n      and\n      swap1\n      dup4\n      iszero\n      iszero\n      mul\n      or\n      swap1\n      sstore\n      pop\n        /* \"contracts/revision/Assg_2.sol\":2328:2331  i++ */\n      dup1\n      dup1\n      tag_133\n      swap1\n      tag_120\n      jump\t// in\n    tag_133:\n      swap2\n      pop\n      pop\n        /* \"contracts/revision/Assg_2.sol\":2286:2470  for(uint i=0; i<substituteAdresses.length;i++){... */\n      jump(tag_122)\n    tag_123:\n      pop\n        /* \"contracts/revision/Assg_2.sol\":2241:2476  function resetOwnership() external {... */\n      jump\t// out\n        /* \"contracts/revision/Assg_2.sol\":2777:3106  function getCurntOwner() view external returns(address){... */\n    tag_35:\n        /* \"contracts/revision/Assg_2.sol\":2824:2831  address */\n      0x00\n        /* \"contracts/revision/Assg_2.sol\":2842:2860  address curntOwner */\n      dup1\n        /* \"contracts/revision/Assg_2.sol\":2874:2880  uint i */\n      0x00\n        /* \"contracts/revision/Assg_2.sol\":2870:3073  for(uint i=0; i<substituteAdresses.length;i++){... */\n    tag_135:\n        /* \"contracts/revision/Assg_2.sol\":2886:2904  substituteAdresses */\n      0x03\n        /* \"contracts/revision/Assg_2.sol\":2886:2911  substituteAdresses.length */\n      dup1\n      sload\n      swap1\n      pop\n        /* \"contracts/revision/Assg_2.sol\":2884:2885  i */\n      dup2\n        /* \"contracts/revision/Assg_2.sol\":2884:2911  i<substituteAdresses.length */\n      lt\n        /* \"contracts/revision/Assg_2.sol\":2870:3073  for(uint i=0; i<substituteAdresses.length;i++){... */\n      iszero\n      tag_136\n      jumpi\n        /* \"contracts/revision/Assg_2.sol\":2998:3002  true */\n      0x01\n        /* \"contracts/revision/Assg_2.sol\":2929:3002  ownership[msg.sender][... */\n      iszero\n      iszero\n        /* \"contracts/revision/Assg_2.sol\":2929:2938  ownership */\n      0x02\n        /* \"contracts/revision/Assg_2.sol\":2929:2950  ownership[msg.sender] */\n      0x00\n        /* \"contracts/revision/Assg_2.sol\":2939:2949  msg.sender */\n      caller\n        /* \"contracts/revision/Assg_2.sol\":2929:2950  ownership[msg.sender] */\n      0xffffffffffffffffffffffffffffffffffffffff\n      and\n      0xffffffffffffffffffffffffffffffffffffffff\n      and\n      dup2\n      mstore\n      0x20\n      add\n      swap1\n      dup2\n      mstore\n      0x20\n      add\n      0x00\n      keccak256\n        /* \"contracts/revision/Assg_2.sol\":2929:2995  ownership[msg.sender][... */\n      0x00\n        /* \"contracts/revision/Assg_2.sol\":2964:2982  substituteAdresses */\n      0x03\n        /* \"contracts/revision/Assg_2.sol\":2983:2984  i */\n      dup5\n        /* \"contracts/revision/Assg_2.sol\":2964:2985  substituteAdresses[i] */\n      dup2\n      sload\n      dup2\n      lt\n      tag_138\n      jumpi\n      tag_139\n      tag_117\n      jump\t// in\n    tag_139:\n    tag_138:\n      swap1\n      0x00\n      mstore\n      keccak256(0x00, 0x20)\n      add\n      0x00\n      swap1\n      sload\n      swap1\n      0x0100\n      exp\n      swap1\n      div\n      0xffffffffffffffffffffffffffffffffffffffff\n      and\n        /* \"contracts/revision/Assg_2.sol\":2929:2995  ownership[msg.sender][... */\n      0xffffffffffffffffffffffffffffffffffffffff\n      and\n      0xffffffffffffffffffffffffffffffffffffffff\n      and\n      dup2\n      mstore\n      0x20\n      add\n      swap1\n      dup2\n      mstore\n      0x20\n      add\n      0x00\n      keccak256\n      0x00\n      swap1\n      sload\n      swap1\n      0x0100\n      exp\n      swap1\n      div\n      0xff\n      and\n        /* \"contracts/revision/Assg_2.sol\":2929:3002  ownership[msg.sender][... */\n      iszero\n      iszero\n      sub\n        /* \"contracts/revision/Assg_2.sol\":2926:3062  if(ownership[msg.sender][... */\n      tag_141\n      jumpi\n        /* \"contracts/revision/Assg_2.sol\":3030:3048  substituteAdresses */\n      0x03\n        /* \"contracts/revision/Assg_2.sol\":3049:3050  i */\n      dup2\n        /* \"contracts/revision/Assg_2.sol\":3030:3051  substituteAdresses[i] */\n      dup2\n      sload\n      dup2\n      lt\n      tag_142\n      jumpi\n      tag_143\n      tag_117\n      jump\t// in\n    tag_143:\n    tag_142:\n      swap1\n      0x00\n      mstore\n      keccak256(0x00, 0x20)\n      add\n      0x00\n      swap1\n      sload\n      swap1\n      0x0100\n      exp\n      swap1\n      div\n      0xffffffffffffffffffffffffffffffffffffffff\n      and\n        /* \"contracts/revision/Assg_2.sol\":3017:3051  curntOwner = substituteAdresses[i] */\n      swap2\n      pop\n        /* \"contracts/revision/Assg_2.sol\":2926:3062  if(ownership[msg.sender][... */\n    tag_141:\n        /* \"contracts/revision/Assg_2.sol\":2912:2915  i++ */\n      dup1\n      dup1\n      tag_145\n      swap1\n      tag_120\n      jump\t// in\n    tag_145:\n      swap2\n      pop\n      pop\n        /* \"contracts/revision/Assg_2.sol\":2870:3073  for(uint i=0; i<substituteAdresses.length;i++){... */\n      jump(tag_135)\n    tag_136:\n      pop\n        /* \"contracts/revision/Assg_2.sol\":3089:3099  curntOwner */\n      dup1\n        /* \"contracts/revision/Assg_2.sol\":3082:3099  return curntOwner */\n      swap2\n      pop\n      pop\n        /* \"contracts/revision/Assg_2.sol\":2777:3106  function getCurntOwner() view external returns(address){... */\n      swap1\n      jump\t// out\n        /* \"contracts/revision/Assg_2.sol\":1609:1715  function get10Std() external view returns(Student[10] memory){... */\n    tag_39:\n        /* \"contracts/revision/Assg_2.sol\":1651:1669  Student[10] memory */\n      tag_146\n      tag_147\n      jump\t// in\n    tag_146:\n        /* \"contracts/revision/Assg_2.sol\":1687:1694  store10 */\n      0x00\n        /* \"contracts/revision/Assg_2.sol\":1687:1706  store10[\"students\"] */\n      mload(0x40)\n      tag_149\n      swap1\n      tag_150\n      jump\t// in\n    tag_149:\n      swap1\n      dup2\n      mstore\n      0x20\n      add\n      mload(0x40)\n      dup1\n      swap2\n      sub\n      swap1\n      keccak256\n        /* \"contracts/revision/Assg_2.sol\":1680:1706  return store10[\"students\"] */\n      0x0a\n      dup1\n      0x20\n      mul\n      mload(0x40)\n      swap1\n      dup2\n      add\n      0x40\n      mstore\n      dup1\n      swap3\n      swap2\n      swap1\n      0x00\n      swap1\n    tag_151:\n      dup3\n      dup3\n      lt\n      iszero\n      tag_152\n      jumpi\n      dup4\n      dup3\n      0x03\n      mul\n      add\n      mload(0x40)\n      dup1\n      0x60\n      add\n      0x40\n      mstore\n      swap1\n      dup2\n      0x00\n      dup3\n      add\n      dup1\n      sload\n      tag_154\n      swap1\n      tag_155\n      jump\t// in\n    tag_154:\n      dup1\n      0x1f\n      add\n      0x20\n      dup1\n      swap2\n      div\n      mul\n      0x20\n      add\n      mload(0x40)\n      swap1\n      dup2\n      add\n      0x40\n      mstore\n      dup1\n      swap3\n      swap2\n      swap1\n      dup2\n      dup2\n      mstore\n      0x20\n      add\n      dup3\n      dup1\n      sload\n      tag_156\n      swap1\n      tag_155\n      jump\t// in\n    tag_156:\n      dup1\n      iszero\n      tag_157\n      jumpi\n      dup1\n      0x1f\n      lt\n      tag_158\n      jumpi\n      0x0100\n      dup1\n      dup4\n      sload\n      div\n      mul\n      dup4\n      mstore\n      swap2\n      0x20\n      add\n      swap2\n      jump(tag_157)\n    tag_158:\n      dup3\n      add\n      swap2\n      swap1\n      0x00\n      mstore\n      keccak256(0x00, 0x20)\n      swap1\n    tag_159:\n      dup2\n      sload\n      dup2\n      mstore\n      swap1\n      0x01\n      add\n      swap1\n      0x20\n      add\n      dup1\n      dup4\n      gt\n      tag_159\n      jumpi\n      dup3\n      swap1\n      sub\n      0x1f\n      and\n      dup3\n      add\n      swap2\n    tag_157:\n      pop\n      pop\n      pop\n      pop\n      pop\n      dup2\n      mstore\n      0x20\n      add\n      0x01\n      dup3\n      add\n      sload\n      dup2\n      mstore\n      0x20\n      add\n      0x02\n      dup3\n      add\n      sload\n      dup2\n      mstore\n      pop\n      pop\n      dup2\n      mstore\n      0x20\n      add\n      swap1\n      0x01\n      add\n      swap1\n      jump(tag_151)\n    tag_152:\n      pop\n      pop\n      pop\n      pop\n      swap1\n      pop\n        /* \"contracts/revision/Assg_2.sol\":1609:1715  function get10Std() external view returns(Student[10] memory){... */\n      swap1\n      jump\t// out\n        /* \"contracts/revision/Assg_2.sol\":105:261  function concat2Strings(string calldata _str1, string calldata _str2) pure external returns(string memory){... */\n    tag_45:\n        /* \"contracts/revision/Assg_2.sol\":197:210  string memory */\n      0x60\n        /* \"contracts/revision/Assg_2.sol\":242:247  _str1 */\n      dup5\n      dup5\n        /* \"contracts/revision/Assg_2.sol\":248:253  _str2 */\n      dup5\n      dup5\n        /* \"contracts/revision/Assg_2.sol\":228:254  string.concat(_str1,_str2) */\n      add(0x20, mload(0x40))\n      tag_161\n      swap5\n      swap4\n      swap3\n      swap2\n      swap1\n      tag_162\n      jump\t// in\n    tag_161:\n      mload(0x40)\n      0x20\n      dup2\n      dup4\n      sub\n      sub\n      dup2\n      mstore\n      swap1\n      0x40\n      mstore\n        /* \"contracts/revision/Assg_2.sol\":221:254  return string.concat(_str1,_str2) */\n      swap1\n      pop\n        /* \"contracts/revision/Assg_2.sol\":105:261  function concat2Strings(string calldata _str1, string calldata _str2) pure external returns(string memory){... */\n      swap5\n      swap4\n      pop\n      pop\n      pop\n      pop\n      jump\t// out\n        /* \"contracts/revision/Assg_2.sol\":1169:1359  function newStudent(string memory _name, int roll, int age) pure external returns(Student memory){... */\n    tag_51:\n        /* \"contracts/revision/Assg_2.sol\":1251:1265  Student memory */\n      tag_163\n      tag_164\n      jump\t// in\n    tag_163:\n        /* \"contracts/revision/Assg_2.sol\":1276:1299  Student memory student1 */\n      0x00\n        /* \"contracts/revision/Assg_2.sol\":1302:1327  Student(_name, roll, age) */\n      mload(0x40)\n      dup1\n      0x60\n      add\n      0x40\n      mstore\n      dup1\n        /* \"contracts/revision/Assg_2.sol\":1310:1315  _name */\n      dup7\n        /* \"contracts/revision/Assg_2.sol\":1302:1327  Student(_name, roll, age) */\n      dup2\n      mstore\n      0x20\n      add\n        /* \"contracts/revision/Assg_2.sol\":1317:1321  roll */\n      dup6\n        /* \"contracts/revision/Assg_2.sol\":1302:1327  Student(_name, roll, age) */\n      dup2\n      mstore\n      0x20\n      add\n        /* \"contracts/revision/Assg_2.sol\":1323:1326  age */\n      dup5\n        /* \"contracts/revision/Assg_2.sol\":1302:1327  Student(_name, roll, age) */\n      dup2\n      mstore\n      pop\n        /* \"contracts/revision/Assg_2.sol\":1276:1327  Student memory student1 = Student(_name, roll, age) */\n      swap1\n      pop\n        /* \"contracts/revision/Assg_2.sol\":1344:1352  student1 */\n      dup1\n        /* \"contracts/revision/Assg_2.sol\":1337:1352  return student1 */\n      swap2\n      pop\n      pop\n        /* \"contracts/revision/Assg_2.sol\":1169:1359  function newStudent(string memory _name, int roll, int age) pure external returns(Student memory){... */\n      swap4\n      swap3\n      pop\n      pop\n      pop\n      jump\t// out\n        /* \"contracts/revision/Assg_2.sol\":1453:1603  function str10Std(string memory _name, int roll, int age, uint index) external {... */\n    tag_57:\n        /* \"contracts/revision/Assg_2.sol\":1571:1596  Student(_name, roll, age) */\n      mload(0x40)\n      dup1\n      0x60\n      add\n      0x40\n      mstore\n      dup1\n        /* \"contracts/revision/Assg_2.sol\":1579:1584  _name */\n      dup6\n        /* \"contracts/revision/Assg_2.sol\":1571:1596  Student(_name, roll, age) */\n      dup2\n      mstore\n      0x20\n      add\n        /* \"contracts/revision/Assg_2.sol\":1586:1590  roll */\n      dup5\n        /* \"contracts/revision/Assg_2.sol\":1571:1596  Student(_name, roll, age) */\n      dup2\n      mstore\n      0x20\n      add\n        /* \"contracts/revision/Assg_2.sol\":1592:1595  age */\n      dup4\n        /* \"contracts/revision/Assg_2.sol\":1571:1596  Student(_name, roll, age) */\n      dup2\n      mstore\n      pop\n        /* \"contracts/revision/Assg_2.sol\":1542:1549  store10 */\n      0x00\n        /* \"contracts/revision/Assg_2.sol\":1542:1561  store10[\"students\"] */\n      mload(0x40)\n      tag_167\n      swap1\n      tag_150\n      jump\t// in\n    tag_167:\n      swap1\n      dup2\n      mstore\n      0x20\n      add\n      mload(0x40)\n      dup1\n      swap2\n      sub\n      swap1\n      keccak256\n        /* \"contracts/revision/Assg_2.sol\":1562:1567  index */\n      dup3\n        /* \"contracts/revision/Assg_2.sol\":1542:1568  store10[\"students\"][index] */\n      0x0a\n      dup2\n      lt\n      tag_168\n      jumpi\n      tag_169\n      tag_117\n      jump\t// in\n    tag_169:\n    tag_168:\n      0x03\n      mul\n      add\n        /* \"contracts/revision/Assg_2.sol\":1542:1596  store10[\"students\"][index] = Student(_name, roll, age) */\n      0x00\n      dup3\n      add\n      mload\n      dup2\n      0x00\n      add\n      swap1\n      dup2\n      tag_171\n      swap2\n      swap1\n      tag_172\n      jump\t// in\n    tag_171:\n      pop\n      0x20\n      dup3\n      add\n      mload\n      dup2\n      0x01\n      add\n      sstore\n      0x40\n      dup3\n      add\n      mload\n      dup2\n      0x02\n      add\n      sstore\n      swap1\n      pop\n      pop\n        /* \"contracts/revision/Assg_2.sol\":1453:1603  function str10Std(string memory _name, int roll, int age, uint index) external {... */\n      pop\n      pop\n      pop\n      pop\n      jump\t// out\n        /* \"contracts/revision/Assg_2.sol\":3171:3284  function pushStrArr() external {... */\n    tag_59:\n        /* \"contracts/revision/Assg_2.sol\":3227:3234  _strArr */\n      0x04\n        /* \"contracts/revision/Assg_2.sol\":3227:3248  _strArr.push(\"apple\") */\n      dup1\n      0x01\n      dup2\n      sload\n      add\n      dup1\n      dup3\n      sstore\n      dup1\n      swap2\n      pop\n      pop\n      0x01\n      swap1\n      sub\n      swap1\n      0x00\n      mstore\n      keccak256(0x00, 0x20)\n      add\n      0x00\n      mload(0x40)\n      dup1\n      0x40\n      add\n      0x40\n      mstore\n      dup1\n      0x05\n      dup2\n      mstore\n      0x20\n      add\n      0x6170706c65000000000000000000000000000000000000000000000000000000\n      dup2\n      mstore\n      pop\n      swap1\n      swap2\n      swap1\n      swap2\n      pop\n      swap1\n      dup2\n      tag_175\n      swap2\n      swap1\n      tag_172\n      jump\t// in\n    tag_175:\n      pop\n        /* \"contracts/revision/Assg_2.sol\":3171:3284  function pushStrArr() external {... */\n      jump\t// out\n        /* \"contracts/revision/Assg_2.sol\":3450:3472  HOUSE public houseSize */\n    tag_61:\n      0x05\n      0x00\n      swap1\n      sload\n      swap1\n      0x0100\n      exp\n      swap1\n      div\n      0xff\n      and\n      dup2\n      jump\t// out\n        /* \"contracts/revision/Assg_2.sol\":3142:3165  string[] public _strArr */\n    tag_67:\n      0x04\n      dup2\n      dup2\n      sload\n      dup2\n      lt\n      tag_176\n      jumpi\n      0x00\n      dup1\n      revert\n    tag_176:\n      swap1\n      0x00\n      mstore\n      keccak256(0x00, 0x20)\n      add\n      0x00\n      swap2\n      pop\n      swap1\n      pop\n      dup1\n      sload\n      tag_178\n      swap1\n      tag_155\n      jump\t// in\n    tag_178:\n      dup1\n      0x1f\n      add\n      0x20\n      dup1\n      swap2\n      div\n      mul\n      0x20\n      add\n      mload(0x40)\n      swap1\n      dup2\n      add\n      0x40\n      mstore\n      dup1\n      swap3\n      swap2\n      swap1\n      dup2\n      dup2\n      mstore\n      0x20\n      add\n      dup3\n      dup1\n      sload\n      tag_179\n      swap1\n      tag_155\n      jump\t// in\n    tag_179:\n      dup1\n      iszero\n      tag_180\n      jumpi\n      dup1\n      0x1f\n      lt\n      tag_181\n      jumpi\n      0x0100\n      dup1\n      dup4\n      sload\n      div\n      mul\n      dup4\n      mstore\n      swap2\n      0x20\n      add\n      swap2\n      jump(tag_180)\n    tag_181:\n      dup3\n      add\n      swap2\n      swap1\n      0x00\n      mstore\n      keccak256(0x00, 0x20)\n      swap1\n    tag_182:\n      dup2\n      sload\n      dup2\n      mstore\n      swap1\n      0x01\n      add\n      swap1\n      0x20\n      add\n      dup1\n      dup4\n      gt\n      tag_182\n      jumpi\n      dup3\n      swap1\n      sub\n      0x1f\n      and\n      dup3\n      add\n      swap2\n    tag_180:\n      pop\n      pop\n      pop\n      pop\n      pop\n      dup2\n      jump\t// out\n        /* \"contracts/revision/Assg_2.sol\":3558:3831  function myHouse() view external returns(string memory){... */\n    tag_70:\n        /* \"contracts/revision/Assg_2.sol\":3599:3612  string memory */\n      0x60\n        /* \"contracts/revision/Assg_2.sol\":3649:3660  HOUSE.SMALL */\n      0x00\n        /* \"contracts/revision/Assg_2.sol\":3636:3660  houseSize == HOUSE.SMALL */\n      0x02\n      dup2\n      gt\n      iszero\n      tag_184\n      jumpi\n      tag_185\n      tag_186\n      jump\t// in\n    tag_185:\n    tag_184:\n        /* \"contracts/revision/Assg_2.sol\":3636:3645  houseSize */\n      0x05\n      0x00\n      swap1\n      sload\n      swap1\n      0x0100\n      exp\n      swap1\n      div\n      0xff\n      and\n        /* \"contracts/revision/Assg_2.sol\":3636:3660  houseSize == HOUSE.SMALL */\n      0x02\n      dup2\n      gt\n      iszero\n      tag_187\n      jumpi\n      tag_188\n      tag_186\n      jump\t// in\n    tag_188:\n    tag_187:\n      sub\n        /* \"contracts/revision/Assg_2.sol\":3632:3701  if (houseSize == HOUSE.SMALL) {... */\n      tag_189\n      jumpi\n        /* \"contracts/revision/Assg_2.sol\":3676:3690  return \"SMALL\" */\n      mload(0x40)\n      dup1\n      0x40\n      add\n      0x40\n      mstore\n      dup1\n      0x05\n      dup2\n      mstore\n      0x20\n      add\n      0x534d414c4c000000000000000000000000000000000000000000000000000000\n      dup2\n      mstore\n      pop\n      swap1\n      pop\n      jump(tag_183)\n        /* \"contracts/revision/Assg_2.sol\":3632:3701  if (houseSize == HOUSE.SMALL) {... */\n    tag_189:\n        /* \"contracts/revision/Assg_2.sol\":3727:3738  HOUSE.LARGE */\n      0x02\n        /* \"contracts/revision/Assg_2.sol\":3714:3738  houseSize == HOUSE.LARGE */\n      dup1\n      dup2\n      gt\n      iszero\n      tag_190\n      jumpi\n      tag_191\n      tag_186\n      jump\t// in\n    tag_191:\n    tag_190:\n        /* \"contracts/revision/Assg_2.sol\":3714:3723  houseSize */\n      0x05\n      0x00\n      swap1\n      sload\n      swap1\n      0x0100\n      exp\n      swap1\n      div\n      0xff\n      and\n        /* \"contracts/revision/Assg_2.sol\":3714:3738  houseSize == HOUSE.LARGE */\n      0x02\n      dup2\n      gt\n      iszero\n      tag_192\n      jumpi\n      tag_193\n      tag_186\n      jump\t// in\n    tag_193:\n    tag_192:\n      sub\n        /* \"contracts/revision/Assg_2.sol\":3710:3825  if (houseSize == HOUSE.LARGE) {... */\n      tag_194\n      jumpi\n        /* \"contracts/revision/Assg_2.sol\":3754:3768  return \"LARGE\" */\n      mload(0x40)\n      dup1\n      0x40\n      add\n      0x40\n      mstore\n      dup1\n      0x05\n      dup2\n      mstore\n      0x20\n      add\n      0x4c41524745000000000000000000000000000000000000000000000000000000\n      dup2\n      mstore\n      pop\n      swap1\n      pop\n      jump(tag_183)\n        /* \"contracts/revision/Assg_2.sol\":3710:3825  if (houseSize == HOUSE.LARGE) {... */\n    tag_194:\n        /* \"contracts/revision/Assg_2.sol\":3799:3814  return \"MEDIUM\" */\n      mload(0x40)\n      dup1\n      0x40\n      add\n      0x40\n      mstore\n      dup1\n      0x06\n      dup2\n      mstore\n      0x20\n      add\n      0x4d454449554d0000000000000000000000000000000000000000000000000000\n      dup2\n      mstore\n      pop\n      swap1\n      pop\n        /* \"contracts/revision/Assg_2.sol\":3558:3831  function myHouse() view external returns(string memory){... */\n    tag_183:\n      swap1\n      jump\t// out\n        /* \"contracts/revision/Assg_2.sol\":1930:2027  function getMark() view external returns(uint[3] memory){... */\n    tag_73:\n        /* \"contracts/revision/Assg_2.sol\":1971:1985  uint[3] memory */\n      tag_196\n      tag_197\n      jump\t// in\n    tag_196:\n        /* \"contracts/revision/Assg_2.sol\":2003:2008  marks */\n      0x01\n        /* \"contracts/revision/Assg_2.sol\":2003:2020  marks[msg.sender] */\n      0x00\n        /* \"contracts/revision/Assg_2.sol\":2009:2019  msg.sender */\n      caller\n        /* \"contracts/revision/Assg_2.sol\":2003:2020  marks[msg.sender] */\n      0xffffffffffffffffffffffffffffffffffffffff\n      and\n      0xffffffffffffffffffffffffffffffffffffffff\n      and\n      dup2\n      mstore\n      0x20\n      add\n      swap1\n      dup2\n      mstore\n      0x20\n      add\n      0x00\n      keccak256\n        /* \"contracts/revision/Assg_2.sol\":1996:2020  return marks[msg.sender] */\n      0x03\n      dup1\n      0x20\n      mul\n      mload(0x40)\n      swap1\n      dup2\n      add\n      0x40\n      mstore\n      dup1\n      swap3\n      swap2\n      swap1\n      dup3\n      0x03\n      dup1\n      iszero\n      tag_199\n      jumpi\n      0x20\n      mul\n      dup3\n      add\n      swap2\n    tag_200:\n      dup2\n      sload\n      dup2\n      mstore\n      0x20\n      add\n      swap1\n      0x01\n      add\n      swap1\n      dup1\n      dup4\n      gt\n      tag_200\n      jumpi\n    tag_199:\n      pop\n      pop\n      pop\n      pop\n      pop\n      swap1\n      pop\n        /* \"contracts/revision/Assg_2.sol\":1930:2027  function getMark() view external returns(uint[3] memory){... */\n      swap1\n      jump\t// out\n        /* \"contracts/revision/Assg_2.sol\":2043:2101  mapping(address=>mapping(address=> bool)) public ownership */\n    tag_79:\n      mstore(0x20, 0x02)\n      dup2\n      0x00\n      mstore\n      mstore(0x20, keccak256(0x00, 0x40))\n      dup1\n      0x00\n      mstore\n      keccak256(0x00, 0x40)\n      0x00\n      swap2\n      pop\n      swap2\n      pop\n      swap1\n      sload\n      swap1\n      0x0100\n      exp\n      swap1\n      div\n      0xff\n      and\n      dup2\n      jump\t// out\n        /* \"contracts/revision/Assg_2.sol\":1799:1925  function setMark(uint Math, uint English, uint History) external {... */\n    tag_84:\n        /* \"contracts/revision/Assg_2.sol\":1874:1918  marks[msg.sender] = [Math, English, History] */\n      mload(0x40)\n      dup1\n      0x60\n      add\n      0x40\n      mstore\n      dup1\n        /* \"contracts/revision/Assg_2.sol\":1895:1899  Math */\n      dup5\n        /* \"contracts/revision/Assg_2.sol\":1874:1918  marks[msg.sender] = [Math, English, History] */\n      dup2\n      mstore\n      0x20\n      add\n        /* \"contracts/revision/Assg_2.sol\":1901:1908  English */\n      dup4\n        /* \"contracts/revision/Assg_2.sol\":1874:1918  marks[msg.sender] = [Math, English, History] */\n      dup2\n      mstore\n      0x20\n      add\n        /* \"contracts/revision/Assg_2.sol\":1910:1917  History */\n      dup3\n        /* \"contracts/revision/Assg_2.sol\":1874:1918  marks[msg.sender] = [Math, English, History] */\n      dup2\n      mstore\n      pop\n        /* \"contracts/revision/Assg_2.sol\":1874:1879  marks */\n      0x01\n        /* \"contracts/revision/Assg_2.sol\":1874:1891  marks[msg.sender] */\n      0x00\n        /* \"contracts/revision/Assg_2.sol\":1880:1890  msg.sender */\n      caller\n        /* \"contracts/revision/Assg_2.sol\":1874:1891  marks[msg.sender] */\n      0xffffffffffffffffffffffffffffffffffffffff\n      and\n      0xffffffffffffffffffffffffffffffffffffffff\n      and\n      dup2\n      mstore\n      0x20\n      add\n      swap1\n      dup2\n      mstore\n      0x20\n      add\n      0x00\n      keccak256\n        /* \"contracts/revision/Assg_2.sol\":1874:1918  marks[msg.sender] = [Math, English, History] */\n      swap1\n      0x03\n      tag_202\n      swap3\n      swap2\n      swap1\n      tag_203\n      jump\t// in\n    tag_202:\n      pop\n        /* \"contracts/revision/Assg_2.sol\":1799:1925  function setMark(uint Math, uint English, uint History) external {... */\n      pop\n      pop\n      pop\n      jump\t// out\n        /* \"contracts/revision/Assg_2.sol\":3289:3392  function popStrArr() external {... */\n    tag_86:\n        /* \"contracts/revision/Assg_2.sol\":3343:3350  _strArr */\n      0x04\n        /* \"contracts/revision/Assg_2.sol\":3343:3356  _strArr.pop() */\n      dup1\n      sload\n      dup1\n      tag_205\n      jumpi\n      tag_206\n      tag_207\n      jump\t// in\n    tag_206:\n    tag_205:\n      0x01\n      swap1\n      sub\n      dup2\n      dup2\n      swap1\n      0x00\n      mstore\n      keccak256(0x00, 0x20)\n      add\n      0x00\n      tag_209\n      swap2\n      swap1\n      tag_210\n      jump\t// in\n    tag_209:\n      swap1\n      sstore\n        /* \"contracts/revision/Assg_2.sol\":3289:3392  function popStrArr() external {... */\n      jump\t// out\n        /* \"contracts/revision/Assg_2.sol\":1402:1447  mapping(string => Student[10]) public store10 */\n    tag_90:\n      0x00\n      dup3\n      dup1\n      mload\n      0x20\n      dup2\n      add\n      dup3\n      add\n      dup1\n      mload\n      dup5\n      dup3\n      mstore\n      0x20\n      dup4\n      add\n      0x20\n      dup6\n      add\n      keccak256\n      dup2\n      dup4\n      mstore\n      dup1\n      swap6\n      pop\n      pop\n      pop\n      pop\n      pop\n      pop\n      dup2\n      0x0a\n      dup2\n      lt\n      tag_211\n      jumpi\n      0x00\n      dup1\n      revert\n    tag_211:\n      0x03\n      mul\n      add\n      0x00\n      swap2\n      pop\n      swap2\n      pop\n      pop\n      dup1\n      0x00\n      add\n      dup1\n      sload\n      tag_213\n      swap1\n      tag_155\n      jump\t// in\n    tag_213:\n      dup1\n      0x1f\n      add\n      0x20\n      dup1\n      swap2\n      div\n      mul\n      0x20\n      add\n      mload(0x40)\n      swap1\n      dup2\n      add\n      0x40\n      mstore\n      dup1\n      swap3\n      swap2\n      swap1\n      dup2\n      dup2\n      mstore\n      0x20\n      add\n      dup3\n      dup1\n      sload\n      tag_214\n      swap1\n      tag_155\n      jump\t// in\n    tag_214:\n      dup1\n      iszero\n      tag_215\n      jumpi\n      dup1\n      0x1f\n      lt\n      tag_216\n      jumpi\n      0x0100\n      dup1\n      dup4\n      sload\n      div\n      mul\n      dup4\n      mstore\n      swap2\n      0x20\n      add\n      swap2\n      jump(tag_215)\n    tag_216:\n      dup3\n      add\n      swap2\n      swap1\n      0x00\n      mstore\n      keccak256(0x00, 0x20)\n      swap1\n    tag_217:\n      dup2\n      sload\n      dup2\n      mstore\n      swap1\n      0x01\n      add\n      swap1\n      0x20\n      add\n      dup1\n      dup4\n      gt\n      tag_217\n      jumpi\n      dup3\n      swap1\n      sub\n      0x1f\n      and\n      dup3\n      add\n      swap2\n    tag_215:\n      pop\n      pop\n      pop\n      pop\n      pop\n      swap1\n      dup1\n      0x01\n      add\n      sload\n      swap1\n      dup1\n      0x02\n      add\n      sload\n      swap1\n      pop\n      dup4\n      jump\t// out\n        /* \"contracts/revision/Assg_2.sol\":806:1065  function largestInArr(uint[] memory _arr) pure external returns(uint){... */\n    tag_96:\n        /* \"contracts/revision/Assg_2.sol\":870:874  uint */\n      0x00\n        /* \"contracts/revision/Assg_2.sol\":885:893  uint res */\n      dup1\n        /* \"contracts/revision/Assg_2.sol\":896:900  _arr */\n      dup3\n        /* \"contracts/revision/Assg_2.sol\":901:902  0 */\n      0x00\n        /* \"contracts/revision/Assg_2.sol\":896:903  _arr[0] */\n      dup2\n      mload\n      dup2\n      lt\n      tag_219\n      jumpi\n      tag_220\n      tag_117\n      jump\t// in\n    tag_220:\n    tag_219:\n      0x20\n      mul\n      0x20\n      add\n      add\n      mload\n        /* \"contracts/revision/Assg_2.sol\":885:903  uint res = _arr[0] */\n      swap1\n      pop\n        /* \"contracts/revision/Assg_2.sol\":917:923  uint i */\n      0x00\n        /* \"contracts/revision/Assg_2.sol\":925:926  1 */\n      0x01\n        /* \"contracts/revision/Assg_2.sol\":917:926  uint i =1 */\n      swap1\n      pop\n        /* \"contracts/revision/Assg_2.sol\":913:1039  for(uint i =1; i<_arr.length;i++){... */\n    tag_221:\n        /* \"contracts/revision/Assg_2.sol\":930:934  _arr */\n      dup4\n        /* \"contracts/revision/Assg_2.sol\":930:941  _arr.length */\n      mload\n        /* \"contracts/revision/Assg_2.sol\":928:929  i */\n      dup2\n        /* \"contracts/revision/Assg_2.sol\":928:941  i<_arr.length */\n      lt\n        /* \"contracts/revision/Assg_2.sol\":913:1039  for(uint i =1; i<_arr.length;i++){... */\n      iszero\n      tag_222\n      jumpi\n        /* \"contracts/revision/Assg_2.sol\":973:977  _arr */\n      dup4\n        /* \"contracts/revision/Assg_2.sol\":980:981  1 */\n      0x01\n        /* \"contracts/revision/Assg_2.sol\":978:979  i */\n      dup3\n        /* \"contracts/revision/Assg_2.sol\":978:981  i-1 */\n      tag_224\n      swap2\n      swap1\n      tag_225\n      jump\t// in\n    tag_224:\n        /* \"contracts/revision/Assg_2.sol\":973:982  _arr[i-1] */\n      dup2\n      mload\n      dup2\n      lt\n      tag_226\n      jumpi\n      tag_227\n      tag_117\n      jump\t// in\n    tag_227:\n    tag_226:\n      0x20\n      mul\n      0x20\n      add\n      add\n      mload\n        /* \"contracts/revision/Assg_2.sol\":963:967  _arr */\n      dup5\n        /* \"contracts/revision/Assg_2.sol\":968:969  i */\n      dup3\n        /* \"contracts/revision/Assg_2.sol\":963:970  _arr[i] */\n      dup2\n      mload\n      dup2\n      lt\n      tag_228\n      jumpi\n      tag_229\n      tag_117\n      jump\t// in\n    tag_229:\n    tag_228:\n      0x20\n      mul\n      0x20\n      add\n      add\n      mload\n        /* \"contracts/revision/Assg_2.sol\":963:982  _arr[i] > _arr[i-1] */\n      gt\n        /* \"contracts/revision/Assg_2.sol\":960:1029  if(_arr[i] > _arr[i-1]){... */\n      iszero\n      tag_230\n      jumpi\n        /* \"contracts/revision/Assg_2.sol\":1007:1011  _arr */\n      dup4\n        /* \"contracts/revision/Assg_2.sol\":1012:1013  i */\n      dup2\n        /* \"contracts/revision/Assg_2.sol\":1007:1014  _arr[i] */\n      dup2\n      mload\n      dup2\n      lt\n      tag_231\n      jumpi\n      tag_232\n      tag_117\n      jump\t// in\n    tag_232:\n    tag_231:\n      0x20\n      mul\n      0x20\n      add\n      add\n      mload\n        /* \"contracts/revision/Assg_2.sol\":1001:1014  res = _arr[i] */\n      swap2\n      pop\n        /* \"contracts/revision/Assg_2.sol\":960:1029  if(_arr[i] > _arr[i-1]){... */\n    tag_230:\n        /* \"contracts/revision/Assg_2.sol\":942:945  i++ */\n      dup1\n      dup1\n      tag_233\n      swap1\n      tag_120\n      jump\t// in\n    tag_233:\n      swap2\n      pop\n      pop\n        /* \"contracts/revision/Assg_2.sol\":913:1039  for(uint i =1; i<_arr.length;i++){... */\n      jump(tag_221)\n    tag_222:\n      pop\n        /* \"contracts/revision/Assg_2.sol\":1055:1058  res */\n      dup1\n        /* \"contracts/revision/Assg_2.sol\":1048:1058  return res */\n      swap2\n      pop\n      pop\n        /* \"contracts/revision/Assg_2.sol\":806:1065  function largestInArr(uint[] memory _arr) pure external returns(uint){... */\n      swap2\n      swap1\n      pop\n      jump\t// out\n        /* \"contracts/revision/Assg_2.sol\":3479:3552  function setHouseSize(HOUSE val) external{... */\n    tag_102:\n        /* \"contracts/revision/Assg_2.sol\":3542:3545  val */\n      dup1\n        /* \"contracts/revision/Assg_2.sol\":3530:3539  houseSize */\n      0x05\n      0x00\n        /* \"contracts/revision/Assg_2.sol\":3530:3545  houseSize = val */\n      0x0100\n      exp\n      dup2\n      sload\n      dup2\n      0xff\n      mul\n      not\n      and\n      swap1\n      dup4\n      0x02\n      dup2\n      gt\n      iszero\n      tag_235\n      jumpi\n      tag_236\n      tag_186\n      jump\t// in\n    tag_236:\n    tag_235:\n      mul\n      or\n      swap1\n      sstore\n      pop\n        /* \"contracts/revision/Assg_2.sol\":3479:3552  function setHouseSize(HOUSE val) external{... */\n      pop\n      jump\t// out\n        /* \"contracts/revision/Assg_2.sol\":2482:2771  function transferownership(address newAdr)  external{... */\n    tag_106:\n        /* \"contracts/revision/Assg_2.sol\":2544:2562  substituteAdresses */\n      0x03\n        /* \"contracts/revision/Assg_2.sol\":2568:2574  newAdr */\n      dup2\n        /* \"contracts/revision/Assg_2.sol\":2544:2575  substituteAdresses.push(newAdr) */\n      swap1\n      dup1\n      0x01\n      dup2\n      sload\n      add\n      dup1\n      dup3\n      sstore\n      dup1\n      swap2\n      pop\n      pop\n      0x01\n      swap1\n      sub\n      swap1\n      0x00\n      mstore\n      keccak256(0x00, 0x20)\n      add\n      0x00\n      swap1\n      swap2\n      swap1\n      swap2\n      swap1\n      swap2\n      0x0100\n      exp\n      dup2\n      sload\n      dup2\n      0xffffffffffffffffffffffffffffffffffffffff\n      mul\n      not\n      and\n      swap1\n      dup4\n      0xffffffffffffffffffffffffffffffffffffffff\n      and\n      mul\n      or\n      swap1\n      sstore\n      pop\n        /* \"contracts/revision/Assg_2.sol\":2589:2595  uint i */\n      0x00\n        /* \"contracts/revision/Assg_2.sol\":2585:2765  for(uint i=0; i<substituteAdresses.length;i++){... */\n    tag_239:\n        /* \"contracts/revision/Assg_2.sol\":2601:2619  substituteAdresses */\n      0x03\n        /* \"contracts/revision/Assg_2.sol\":2601:2626  substituteAdresses.length */\n      dup1\n      sload\n      swap1\n      pop\n        /* \"contracts/revision/Assg_2.sol\":2599:2600  i */\n      dup2\n        /* \"contracts/revision/Assg_2.sol\":2599:2626  i<substituteAdresses.length */\n      lt\n        /* \"contracts/revision/Assg_2.sol\":2585:2765  for(uint i=0; i<substituteAdresses.length;i++){... */\n      iszero\n      tag_240\n      jumpi\n        /* \"contracts/revision/Assg_2.sol\":2734:2740  newAdr */\n      dup2\n        /* \"contracts/revision/Assg_2.sol\":2710:2740  substituteAdresses[i]== newAdr */\n      0xffffffffffffffffffffffffffffffffffffffff\n      and\n        /* \"contracts/revision/Assg_2.sol\":2710:2728  substituteAdresses */\n      0x03\n        /* \"contracts/revision/Assg_2.sol\":2729:2730  i */\n      dup3\n        /* \"contracts/revision/Assg_2.sol\":2710:2731  substituteAdresses[i] */\n      dup2\n      sload\n      dup2\n      lt\n      tag_242\n      jumpi\n      tag_243\n      tag_117\n      jump\t// in\n    tag_243:\n    tag_242:\n      swap1\n      0x00\n      mstore\n      keccak256(0x00, 0x20)\n      add\n      0x00\n      swap1\n      sload\n      swap1\n      0x0100\n      exp\n      swap1\n      div\n      0xffffffffffffffffffffffffffffffffffffffff\n      and\n        /* \"contracts/revision/Assg_2.sol\":2710:2740  substituteAdresses[i]== newAdr */\n      0xffffffffffffffffffffffffffffffffffffffff\n      and\n      eq\n        /* \"contracts/revision/Assg_2.sol\":2710:2753  substituteAdresses[i]== newAdr ? true:false */\n      tag_245\n      jumpi\n        /* \"contracts/revision/Assg_2.sol\":2748:2753  false */\n      0x00\n        /* \"contracts/revision/Assg_2.sol\":2710:2753  substituteAdresses[i]== newAdr ? true:false */\n      jump(tag_246)\n    tag_245:\n        /* \"contracts/revision/Assg_2.sol\":2743:2747  true */\n      0x01\n        /* \"contracts/revision/Assg_2.sol\":2710:2753  substituteAdresses[i]== newAdr ? true:false */\n    tag_246:\n        /* \"contracts/revision/Assg_2.sol\":2641:2650  ownership */\n      0x02\n        /* \"contracts/revision/Assg_2.sol\":2641:2662  ownership[msg.sender] */\n      0x00\n        /* \"contracts/revision/Assg_2.sol\":2651:2661  msg.sender */\n      caller\n        /* \"contracts/revision/Assg_2.sol\":2641:2662  ownership[msg.sender] */\n      0xffffffffffffffffffffffffffffffffffffffff\n      and\n      0xffffffffffffffffffffffffffffffffffffffff\n      and\n      dup2\n      mstore\n      0x20\n      add\n      swap1\n      dup2\n      mstore\n      0x20\n      add\n      0x00\n      keccak256\n        /* \"contracts/revision/Assg_2.sol\":2641:2707  ownership[msg.sender][... */\n      0x00\n        /* \"contracts/revision/Assg_2.sol\":2676:2694  substituteAdresses */\n      0x03\n        /* \"contracts/revision/Assg_2.sol\":2695:2696  i */\n      dup5\n        /* \"contracts/revision/Assg_2.sol\":2676:2697  substituteAdresses[i] */\n      dup2\n      sload\n      dup2\n      lt\n      tag_247\n      jumpi\n      tag_248\n      tag_117\n      jump\t// in\n    tag_248:\n    tag_247:\n      swap1\n      0x00\n      mstore\n      keccak256(0x00, 0x20)\n      add\n      0x00\n      swap1\n      sload\n      swap1\n      0x0100\n      exp\n      swap1\n      div\n      0xffffffffffffffffffffffffffffffffffffffff\n      and\n        /* \"contracts/revision/Assg_2.sol\":2641:2707  ownership[msg.sender][... */\n      0xffffffffffffffffffffffffffffffffffffffff\n      and\n      0xffffffffffffffffffffffffffffffffffffffff\n      and\n      dup2\n      mstore\n      0x20\n      add\n      swap1\n      dup2\n      mstore\n      0x20\n      add\n      0x00\n      keccak256\n      0x00\n        /* \"contracts/revision/Assg_2.sol\":2641:2753  ownership[msg.sender][... */\n      0x0100\n      exp\n      dup2\n      sload\n      dup2\n      0xff\n      mul\n      not\n      and\n      swap1\n      dup4\n      iszero\n      iszero\n      mul\n      or\n      swap1\n      sstore\n      pop\n        /* \"contracts/revision/Assg_2.sol\":2627:2630  i++ */\n      dup1\n      dup1\n      tag_250\n      swap1\n      tag_120\n      jump\t// in\n    tag_250:\n      swap2\n      pop\n      pop\n        /* \"contracts/revision/Assg_2.sol\":2585:2765  for(uint i=0; i<substituteAdresses.length;i++){... */\n      jump(tag_239)\n    tag_240:\n      pop\n        /* \"contracts/revision/Assg_2.sol\":2482:2771  function transferownership(address newAdr)  external{... */\n      pop\n      jump\t// out\n        /* \"contracts/revision/Assg_2.sol\":293:487  function compare2Strings(string calldata _str1, string calldata _str2) pure external returns(bool){... */\n    tag_109:\n        /* \"contracts/revision/Assg_2.sol\":386:390  bool */\n      0x00\n        /* \"contracts/revision/Assg_2.sol\":473:478  _str2 */\n      dup3\n      dup3\n        /* \"contracts/revision/Assg_2.sol\":456:479  abi.encodePacked(_str2) */\n      add(0x20, mload(0x40))\n      tag_252\n      swap3\n      swap2\n      swap1\n      tag_253\n      jump\t// in\n    tag_252:\n      mload(0x40)\n      0x20\n      dup2\n      dup4\n      sub\n      sub\n      dup2\n      mstore\n      swap1\n      0x40\n      mstore\n        /* \"contracts/revision/Assg_2.sol\":446:480  keccak256(abi.encodePacked(_str2)) */\n      dup1\n      mload\n      swap1\n      0x20\n      add\n      keccak256\n        /* \"contracts/revision/Assg_2.sol\":435:440  _str1 */\n      dup6\n      dup6\n        /* \"contracts/revision/Assg_2.sol\":418:441  abi.encodePacked(_str1) */\n      add(0x20, mload(0x40))\n      tag_254\n      swap3\n      swap2\n      swap1\n      tag_253\n      jump\t// in\n    tag_254:\n      mload(0x40)\n      0x20\n      dup2\n      dup4\n      sub\n      sub\n      dup2\n      mstore\n      swap1\n      0x40\n      mstore\n        /* \"contracts/revision/Assg_2.sol\":408:442  keccak256(abi.encodePacked(_str1)) */\n      dup1\n      mload\n      swap1\n      0x20\n      add\n      keccak256\n        /* \"contracts/revision/Assg_2.sol\":408:480  keccak256(abi.encodePacked(_str1)) == keccak256(abi.encodePacked(_str2)) */\n      eq\n        /* \"contracts/revision/Assg_2.sol\":401:480  return keccak256(abi.encodePacked(_str1)) == keccak256(abi.encodePacked(_str2)) */\n      swap1\n      pop\n        /* \"contracts/revision/Assg_2.sol\":293:487  function compare2Strings(string calldata _str1, string calldata _str2) pure external returns(bool){... */\n      swap5\n      swap4\n      pop\n      pop\n      pop\n      pop\n      jump\t// out\n    tag_147:\n      mload(0x40)\n      dup1\n      0x0140\n      add\n      0x40\n      mstore\n      dup1\n      0x0a\n      swap1\n    tag_255:\n      tag_256\n      tag_164\n      jump\t// in\n    tag_256:\n      dup2\n      mstore\n      0x20\n      add\n      swap1\n      0x01\n      swap1\n      sub\n      swap1\n      dup2\n      tag_255\n      jumpi\n      swap1\n      pop\n      pop\n      swap1\n      jump\t// out\n    tag_164:\n      mload(0x40)\n      dup1\n      0x60\n      add\n      0x40\n      mstore\n      dup1\n      0x60\n      dup2\n      mstore\n      0x20\n      add\n      0x00\n      dup2\n      mstore\n      0x20\n      add\n      0x00\n      dup2\n      mstore\n      pop\n      swap1\n      jump\t// out\n    tag_197:\n      mload(0x40)\n      dup1\n      0x60\n      add\n      0x40\n      mstore\n      dup1\n      0x03\n      swap1\n      0x20\n      dup3\n      mul\n      dup1\n      calldatasize\n      dup4\n      calldatacopy\n      dup1\n      dup3\n      add\n      swap2\n      pop\n      pop\n      swap1\n      pop\n      pop\n      swap1\n      jump\t// out\n    tag_203:\n      dup3\n      0x03\n      dup2\n      add\n      swap3\n      dup3\n      iszero\n      tag_257\n      jumpi\n      swap2\n      0x20\n      mul\n      dup3\n      add\n    tag_258:\n      dup3\n      dup2\n      gt\n      iszero\n      tag_259\n      jumpi\n      dup3\n      mload\n      dup3\n      sstore\n      swap2\n      0x20\n      add\n      swap2\n      swap1\n      0x01\n      add\n      swap1\n      jump(tag_258)\n    tag_259:\n    tag_257:\n      pop\n      swap1\n      pop\n      tag_260\n      swap2\n      swap1\n      tag_261\n      jump\t// in\n    tag_260:\n      pop\n      swap1\n      jump\t// out\n    tag_210:\n      pop\n      dup1\n      sload\n      tag_262\n      swap1\n      tag_155\n      jump\t// in\n    tag_262:\n      0x00\n      dup3\n      sstore\n      dup1\n      0x1f\n      lt\n      tag_264\n      jumpi\n      pop\n      jump(tag_263)\n    tag_264:\n      0x1f\n      add\n      0x20\n      swap1\n      div\n      swap1\n      0x00\n      mstore\n      keccak256(0x00, 0x20)\n      swap1\n      dup2\n      add\n      swap1\n      tag_265\n      swap2\n      swap1\n      tag_261\n      jump\t// in\n    tag_265:\n    tag_263:\n      pop\n      jump\t// out\n    tag_261:\n    tag_266:\n      dup1\n      dup3\n      gt\n      iszero\n      tag_267\n      jumpi\n      0x00\n      dup2\n      0x00\n      swap1\n      sstore\n      pop\n      0x01\n      add\n      jump(tag_266)\n    tag_267:\n      pop\n      swap1\n      jump\t// out\n        /* \"#utility.yul\":7:82   */\n    tag_268:\n        /* \"#utility.yul\":40:46   */\n      0x00\n        /* \"#utility.yul\":73:75   */\n      0x40\n        /* \"#utility.yul\":67:76   */\n      mload\n        /* \"#utility.yul\":57:76   */\n      swap1\n      pop\n        /* \"#utility.yul\":7:82   */\n      swap1\n      jump\t// out\n        /* \"#utility.yul\":88:205   */\n    tag_269:\n        /* \"#utility.yul\":197:198   */\n      0x00\n        /* \"#utility.yul\":194:195   */\n      dup1\n        /* \"#utility.yul\":187:199   */\n      revert\n        /* \"#utility.yul\":211:328   */\n    tag_270:\n        /* \"#utility.yul\":320:321   */\n      0x00\n        /* \"#utility.yul\":317:318   */\n      dup1\n        /* \"#utility.yul\":310:322   */\n      revert\n        /* \"#utility.yul\":334:410   */\n    tag_271:\n        /* \"#utility.yul\":370:377   */\n      0x00\n        /* \"#utility.yul\":399:404   */\n      dup2\n        /* \"#utility.yul\":388:404   */\n      swap1\n      pop\n        /* \"#utility.yul\":334:410   */\n      swap2\n      swap1\n      pop\n      jump\t// out\n        /* \"#utility.yul\":416:536   */\n    tag_272:\n        /* \"#utility.yul\":488:511   */\n      tag_360\n        /* \"#utility.yul\":505:510   */\n      dup2\n        /* \"#utility.yul\":488:511   */\n      tag_271\n      jump\t// in\n    tag_360:\n        /* \"#utility.yul\":481:486   */\n      dup2\n        /* \"#utility.yul\":478:512   */\n      eq\n        /* \"#utility.yul\":468:530   */\n      tag_361\n      jumpi\n        /* \"#utility.yul\":526:527   */\n      0x00\n        /* \"#utility.yul\":523:524   */\n      dup1\n        /* \"#utility.yul\":516:528   */\n      revert\n        /* \"#utility.yul\":468:530   */\n    tag_361:\n        /* \"#utility.yul\":416:536   */\n      pop\n      jump\t// out\n        /* \"#utility.yul\":542:679   */\n    tag_273:\n        /* \"#utility.yul\":587:592   */\n      0x00\n        /* \"#utility.yul\":625:631   */\n      dup2\n        /* \"#utility.yul\":612:632   */\n      calldataload\n        /* \"#utility.yul\":603:632   */\n      swap1\n      pop\n        /* \"#utility.yul\":641:673   */\n      tag_363\n        /* \"#utility.yul\":667:672   */\n      dup2\n        /* \"#utility.yul\":641:673   */\n      tag_272\n      jump\t// in\n    tag_363:\n        /* \"#utility.yul\":542:679   */\n      swap3\n      swap2\n      pop\n      pop\n      jump\t// out\n        /* \"#utility.yul\":685:802   */\n    tag_274:\n        /* \"#utility.yul\":794:795   */\n      0x00\n        /* \"#utility.yul\":791:792   */\n      dup1\n        /* \"#utility.yul\":784:796   */\n      revert\n        /* \"#utility.yul\":808:910   */\n    tag_275:\n        /* \"#utility.yul\":849:855   */\n      0x00\n        /* \"#utility.yul\":900:902   */\n      0x1f\n        /* \"#utility.yul\":896:903   */\n      not\n        /* \"#utility.yul\":891:893   */\n      0x1f\n        /* \"#utility.yul\":884:889   */\n      dup4\n        /* \"#utility.yul\":880:894   */\n      add\n        /* \"#utility.yul\":876:904   */\n      and\n        /* \"#utility.yul\":866:904   */\n      swap1\n      pop\n        /* \"#utility.yul\":808:910   */\n      swap2\n      swap1\n      pop\n      jump\t// out\n        /* \"#utility.yul\":916:1096   */\n    tag_276:\n        /* \"#utility.yul\":964:1041   */\n      0x4e487b7100000000000000000000000000000000000000000000000000000000\n        /* \"#utility.yul\":961:962   */\n      0x00\n        /* \"#utility.yul\":954:1042   */\n      mstore\n        /* \"#utility.yul\":1061:1065   */\n      0x41\n        /* \"#utility.yul\":1058:1059   */\n      0x04\n        /* \"#utility.yul\":1051:1066   */\n      mstore\n        /* \"#utility.yul\":1085:1089   */\n      0x24\n        /* \"#utility.yul\":1082:1083   */\n      0x00\n        /* \"#utility.yul\":1075:1090   */\n      revert\n        /* \"#utility.yul\":1102:1383   */\n    tag_277:\n        /* \"#utility.yul\":1185:1212   */\n      tag_368\n        /* \"#utility.yul\":1207:1211   */\n      dup3\n        /* \"#utility.yul\":1185:1212   */\n      tag_275\n      jump\t// in\n    tag_368:\n        /* \"#utility.yul\":1177:1183   */\n      dup2\n        /* \"#utility.yul\":1173:1213   */\n      add\n        /* \"#utility.yul\":1315:1321   */\n      dup2\n        /* \"#utility.yul\":1303:1313   */\n      dup2\n        /* \"#utility.yul\":1300:1322   */\n      lt\n        /* \"#utility.yul\":1279:1297   */\n      0xffffffffffffffff\n        /* \"#utility.yul\":1267:1277   */\n      dup3\n        /* \"#utility.yul\":1264:1298   */\n      gt\n        /* \"#utility.yul\":1261:1323   */\n      or\n        /* \"#utility.yul\":1258:1346   */\n      iszero\n      tag_369\n      jumpi\n        /* \"#utility.yul\":1326:1344   */\n      tag_370\n      tag_276\n      jump\t// in\n    tag_370:\n        /* \"#utility.yul\":1258:1346   */\n    tag_369:\n        /* \"#utility.yul\":1366:1376   */\n      dup1\n        /* \"#utility.yul\":1362:1364   */\n      0x40\n        /* \"#utility.yul\":1355:1377   */\n      mstore\n        /* \"#utility.yul\":1145:1383   */\n      pop\n        /* \"#utility.yul\":1102:1383   */\n      pop\n      pop\n      jump\t// out\n        /* \"#utility.yul\":1389:1518   */\n    tag_278:\n        /* \"#utility.yul\":1423:1429   */\n      0x00\n        /* \"#utility.yul\":1450:1470   */\n      tag_372\n      tag_268\n      jump\t// in\n    tag_372:\n        /* \"#utility.yul\":1440:1470   */\n      swap1\n      pop\n        /* \"#utility.yul\":1479:1512   */\n      tag_373\n        /* \"#utility.yul\":1507:1511   */\n      dup3\n        /* \"#utility.yul\":1499:1505   */\n      dup3\n        /* \"#utility.yul\":1479:1512   */\n      tag_277\n      jump\t// in\n    tag_373:\n        /* \"#utility.yul\":1389:1518   */\n      swap2\n      swap1\n      pop\n      jump\t// out\n        /* \"#utility.yul\":1524:1834   */\n    tag_279:\n        /* \"#utility.yul\":1600:1604   */\n      0x00\n        /* \"#utility.yul\":1690:1708   */\n      0xffffffffffffffff\n        /* \"#utility.yul\":1682:1688   */\n      dup3\n        /* \"#utility.yul\":1679:1709   */\n      gt\n        /* \"#utility.yul\":1676:1732   */\n      iszero\n      tag_375\n      jumpi\n        /* \"#utility.yul\":1712:1730   */\n      tag_376\n      tag_276\n      jump\t// in\n    tag_376:\n        /* \"#utility.yul\":1676:1732   */\n    tag_375:\n        /* \"#utility.yul\":1762:1766   */\n      0x20\n        /* \"#utility.yul\":1754:1760   */\n      dup3\n        /* \"#utility.yul\":1750:1767   */\n      mul\n        /* \"#utility.yul\":1742:1767   */\n      swap1\n      pop\n        /* \"#utility.yul\":1822:1826   */\n      0x20\n        /* \"#utility.yul\":1816:1820   */\n      dup2\n        /* \"#utility.yul\":1812:1827   */\n      add\n        /* \"#utility.yul\":1804:1827   */\n      swap1\n      pop\n        /* \"#utility.yul\":1524:1834   */\n      swap2\n      swap1\n      pop\n      jump\t// out\n        /* \"#utility.yul\":1840:1957   */\n    tag_280:\n        /* \"#utility.yul\":1949:1950   */\n      0x00\n        /* \"#utility.yul\":1946:1947   */\n      dup1\n        /* \"#utility.yul\":1939:1951   */\n      revert\n        /* \"#utility.yul\":1979:2686   */\n    tag_281:\n        /* \"#utility.yul\":2074:2079   */\n      0x00\n        /* \"#utility.yul\":2099:2179   */\n      tag_379\n        /* \"#utility.yul\":2115:2178   */\n      tag_380\n        /* \"#utility.yul\":2171:2177   */\n      dup5\n        /* \"#utility.yul\":2115:2178   */\n      tag_279\n      jump\t// in\n    tag_380:\n        /* \"#utility.yul\":2099:2179   */\n      tag_278\n      jump\t// in\n    tag_379:\n        /* \"#utility.yul\":2090:2179   */\n      swap1\n      pop\n        /* \"#utility.yul\":2199:2204   */\n      dup1\n        /* \"#utility.yul\":2228:2234   */\n      dup4\n        /* \"#utility.yul\":2221:2226   */\n      dup3\n        /* \"#utility.yul\":2214:2235   */\n      mstore\n        /* \"#utility.yul\":2262:2266   */\n      0x20\n        /* \"#utility.yul\":2255:2260   */\n      dup3\n        /* \"#utility.yul\":2251:2267   */\n      add\n        /* \"#utility.yul\":2244:2267   */\n      swap1\n      pop\n        /* \"#utility.yul\":2315:2319   */\n      0x20\n        /* \"#utility.yul\":2307:2313   */\n      dup5\n        /* \"#utility.yul\":2303:2320   */\n      mul\n        /* \"#utility.yul\":2295:2301   */\n      dup4\n        /* \"#utility.yul\":2291:2321   */\n      add\n        /* \"#utility.yul\":2344:2347   */\n      dup6\n        /* \"#utility.yul\":2336:2342   */\n      dup2\n        /* \"#utility.yul\":2333:2348   */\n      gt\n        /* \"#utility.yul\":2330:2452   */\n      iszero\n      tag_381\n      jumpi\n        /* \"#utility.yul\":2363:2442   */\n      tag_382\n      tag_280\n      jump\t// in\n    tag_382:\n        /* \"#utility.yul\":2330:2452   */\n    tag_381:\n        /* \"#utility.yul\":2478:2484   */\n      dup4\n        /* \"#utility.yul\":2461:2680   */\n    tag_383:\n        /* \"#utility.yul\":2495:2501   */\n      dup2\n        /* \"#utility.yul\":2490:2493   */\n      dup2\n        /* \"#utility.yul\":2487:2502   */\n      lt\n        /* \"#utility.yul\":2461:2680   */\n      iszero\n      tag_385\n      jumpi\n        /* \"#utility.yul\":2570:2573   */\n      dup1\n        /* \"#utility.yul\":2599:2635   */\n      tag_386\n        /* \"#utility.yul\":2631:2634   */\n      dup9\n        /* \"#utility.yul\":2619:2629   */\n      dup3\n        /* \"#utility.yul\":2599:2635   */\n      tag_273\n      jump\t// in\n    tag_386:\n        /* \"#utility.yul\":2594:2597   */\n      dup5\n        /* \"#utility.yul\":2587:2636   */\n      mstore\n        /* \"#utility.yul\":2665:2669   */\n      0x20\n        /* \"#utility.yul\":2660:2663   */\n      dup5\n        /* \"#utility.yul\":2656:2670   */\n      add\n        /* \"#utility.yul\":2649:2670   */\n      swap4\n      pop\n        /* \"#utility.yul\":2537:2680   */\n      pop\n        /* \"#utility.yul\":2521:2525   */\n      0x20\n        /* \"#utility.yul\":2516:2519   */\n      dup2\n        /* \"#utility.yul\":2512:2526   */\n      add\n        /* \"#utility.yul\":2505:2526   */\n      swap1\n      pop\n        /* \"#utility.yul\":2461:2680   */\n      jump(tag_383)\n    tag_385:\n        /* \"#utility.yul\":2465:2486   */\n      pop\n        /* \"#utility.yul\":2080:2686   */\n      pop\n      pop\n        /* \"#utility.yul\":1979:2686   */\n      swap4\n      swap3\n      pop\n      pop\n      pop\n      jump\t// out\n        /* \"#utility.yul\":2708:3076   */\n    tag_282:\n        /* \"#utility.yul\":2778:2783   */\n      0x00\n        /* \"#utility.yul\":2827:2830   */\n      dup3\n        /* \"#utility.yul\":2820:2824   */\n      0x1f\n        /* \"#utility.yul\":2812:2818   */\n      dup4\n        /* \"#utility.yul\":2808:2825   */\n      add\n        /* \"#utility.yul\":2804:2831   */\n      slt\n        /* \"#utility.yul\":2794:2916   */\n      tag_388\n      jumpi\n        /* \"#utility.yul\":2835:2914   */\n      tag_389\n      tag_274\n      jump\t// in\n    tag_389:\n        /* \"#utility.yul\":2794:2916   */\n    tag_388:\n        /* \"#utility.yul\":2952:2958   */\n      dup2\n        /* \"#utility.yul\":2939:2959   */\n      calldataload\n        /* \"#utility.yul\":2977:3070   */\n      tag_390\n        /* \"#utility.yul\":3066:3069   */\n      dup5\n        /* \"#utility.yul\":3058:3064   */\n      dup3\n        /* \"#utility.yul\":3051:3055   */\n      0x20\n        /* \"#utility.yul\":3043:3049   */\n      dup7\n        /* \"#utility.yul\":3039:3056   */\n      add\n        /* \"#utility.yul\":2977:3070   */\n      tag_281\n      jump\t// in\n    tag_390:\n        /* \"#utility.yul\":2968:3070   */\n      swap2\n      pop\n        /* \"#utility.yul\":2784:3076   */\n      pop\n        /* \"#utility.yul\":2708:3076   */\n      swap3\n      swap2\n      pop\n      pop\n      jump\t// out\n        /* \"#utility.yul\":3082:3762   */\n    tag_28:\n        /* \"#utility.yul\":3173:3179   */\n      0x00\n        /* \"#utility.yul\":3181:3187   */\n      dup1\n        /* \"#utility.yul\":3230:3232   */\n      0x40\n        /* \"#utility.yul\":3218:3227   */\n      dup4\n        /* \"#utility.yul\":3209:3216   */\n      dup6\n        /* \"#utility.yul\":3205:3228   */\n      sub\n        /* \"#utility.yul\":3201:3233   */\n      slt\n        /* \"#utility.yul\":3198:3317   */\n      iszero\n      tag_392\n      jumpi\n        /* \"#utility.yul\":3236:3315   */\n      tag_393\n      tag_269\n      jump\t// in\n    tag_393:\n        /* \"#utility.yul\":3198:3317   */\n    tag_392:\n        /* \"#utility.yul\":3356:3357   */\n      0x00\n        /* \"#utility.yul\":3381:3433   */\n      tag_394\n        /* \"#utility.yul\":3425:3432   */\n      dup6\n        /* \"#utility.yul\":3416:3422   */\n      dup3\n        /* \"#utility.yul\":3405:3414   */\n      dup7\n        /* \"#utility.yul\":3401:3423   */\n      add\n        /* \"#utility.yul\":3381:3433   */\n      tag_273\n      jump\t// in\n    tag_394:\n        /* \"#utility.yul\":3371:3433   */\n      swap3\n      pop\n        /* \"#utility.yul\":3327:3443   */\n      pop\n        /* \"#utility.yul\":3510:3512   */\n      0x20\n        /* \"#utility.yul\":3499:3508   */\n      dup4\n        /* \"#utility.yul\":3495:3513   */\n      add\n        /* \"#utility.yul\":3482:3514   */\n      calldataload\n        /* \"#utility.yul\":3541:3559   */\n      0xffffffffffffffff\n        /* \"#utility.yul\":3533:3539   */\n      dup2\n        /* \"#utility.yul\":3530:3560   */\n      gt\n        /* \"#utility.yul\":3527:3644   */\n      iszero\n      tag_395\n      jumpi\n        /* \"#utility.yul\":3563:3642   */\n      tag_396\n      tag_270\n      jump\t// in\n    tag_396:\n        /* \"#utility.yul\":3527:3644   */\n    tag_395:\n        /* \"#utility.yul\":3668:3745   */\n      tag_397\n        /* \"#utility.yul\":3737:3744   */\n      dup6\n        /* \"#utility.yul\":3728:3734   */\n      dup3\n        /* \"#utility.yul\":3717:3726   */\n      dup7\n        /* \"#utility.yul\":3713:3735   */\n      add\n        /* \"#utility.yul\":3668:3745   */\n      tag_282\n      jump\t// in\n    tag_397:\n        /* \"#utility.yul\":3658:3745   */\n      swap2\n      pop\n        /* \"#utility.yul\":3453:3755   */\n      pop\n        /* \"#utility.yul\":3082:3762   */\n      swap3\n      pop\n      swap3\n      swap1\n      pop\n      jump\t// out\n        /* \"#utility.yul\":3768:3858   */\n    tag_283:\n        /* \"#utility.yul\":3802:3809   */\n      0x00\n        /* \"#utility.yul\":3845:3850   */\n      dup2\n        /* \"#utility.yul\":3838:3851   */\n      iszero\n        /* \"#utility.yul\":3831:3852   */\n      iszero\n        /* \"#utility.yul\":3820:3852   */\n      swap1\n      pop\n        /* \"#utility.yul\":3768:3858   */\n      swap2\n      swap1\n      pop\n      jump\t// out\n        /* \"#utility.yul\":3864:3973   */\n    tag_284:\n        /* \"#utility.yul\":3945:3966   */\n      tag_400\n        /* \"#utility.yul\":3960:3965   */\n      dup2\n        /* \"#utility.yul\":3945:3966   */\n      tag_283\n      jump\t// in\n    tag_400:\n        /* \"#utility.yul\":3940:3943   */\n      dup3\n        /* \"#utility.yul\":3933:3967   */\n      mstore\n        /* \"#utility.yul\":3864:3973   */\n      pop\n      pop\n      jump\t// out\n        /* \"#utility.yul\":3979:4189   */\n    tag_31:\n        /* \"#utility.yul\":4066:4070   */\n      0x00\n        /* \"#utility.yul\":4104:4106   */\n      0x20\n        /* \"#utility.yul\":4093:4102   */\n      dup3\n        /* \"#utility.yul\":4089:4107   */\n      add\n        /* \"#utility.yul\":4081:4107   */\n      swap1\n      pop\n        /* \"#utility.yul\":4117:4182   */\n      tag_402\n        /* \"#utility.yul\":4179:4180   */\n      0x00\n        /* \"#utility.yul\":4168:4177   */\n      dup4\n        /* \"#utility.yul\":4164:4181   */\n      add\n        /* \"#utility.yul\":4155:4161   */\n      dup5\n        /* \"#utility.yul\":4117:4182   */\n      tag_284\n      jump\t// in\n    tag_402:\n        /* \"#utility.yul\":3979:4189   */\n      swap3\n      swap2\n      pop\n      pop\n      jump\t// out\n        /* \"#utility.yul\":4195:4321   */\n    tag_285:\n        /* \"#utility.yul\":4232:4239   */\n      0x00\n        /* \"#utility.yul\":4272:4314   */\n      0xffffffffffffffffffffffffffffffffffffffff\n        /* \"#utility.yul\":4265:4270   */\n      dup3\n        /* \"#utility.yul\":4261:4315   */\n      and\n        /* \"#utility.yul\":4250:4315   */\n      swap1\n      pop\n        /* \"#utility.yul\":4195:4321   */\n      swap2\n      swap1\n      pop\n      jump\t// out\n        /* \"#utility.yul\":4327:4423   */\n    tag_286:\n        /* \"#utility.yul\":4364:4371   */\n      0x00\n        /* \"#utility.yul\":4393:4417   */\n      tag_405\n        /* \"#utility.yul\":4411:4416   */\n      dup3\n        /* \"#utility.yul\":4393:4417   */\n      tag_285\n      jump\t// in\n    tag_405:\n        /* \"#utility.yul\":4382:4417   */\n      swap1\n      pop\n        /* \"#utility.yul\":4327:4423   */\n      swap2\n      swap1\n      pop\n      jump\t// out\n        /* \"#utility.yul\":4429:4547   */\n    tag_287:\n        /* \"#utility.yul\":4516:4540   */\n      tag_407\n        /* \"#utility.yul\":4534:4539   */\n      dup2\n        /* \"#utility.yul\":4516:4540   */\n      tag_286\n      jump\t// in\n    tag_407:\n        /* \"#utility.yul\":4511:4514   */\n      dup3\n        /* \"#utility.yul\":4504:4541   */\n      mstore\n        /* \"#utility.yul\":4429:4547   */\n      pop\n      pop\n      jump\t// out\n        /* \"#utility.yul\":4553:4775   */\n    tag_37:\n        /* \"#utility.yul\":4646:4650   */\n      0x00\n        /* \"#utility.yul\":4684:4686   */\n      0x20\n        /* \"#utility.yul\":4673:4682   */\n      dup3\n        /* \"#utility.yul\":4669:4687   */\n      add\n        /* \"#utility.yul\":4661:4687   */\n      swap1\n      pop\n        /* \"#utility.yul\":4697:4768   */\n      tag_409\n        /* \"#utility.yul\":4765:4766   */\n      0x00\n        /* \"#utility.yul\":4754:4763   */\n      dup4\n        /* \"#utility.yul\":4750:4767   */\n      add\n        /* \"#utility.yul\":4741:4747   */\n      dup5\n        /* \"#utility.yul\":4697:4768   */\n      tag_287\n      jump\t// in\n    tag_409:\n        /* \"#utility.yul\":4553:4775   */\n      swap3\n      swap2\n      pop\n      pop\n      jump\t// out\n        /* \"#utility.yul\":4781:4910   */\n    tag_288:\n        /* \"#utility.yul\":4871:4877   */\n      0x00\n        /* \"#utility.yul\":4899:4903   */\n      0x0a\n        /* \"#utility.yul\":4889:4903   */\n      swap1\n      pop\n        /* \"#utility.yul\":4781:4910   */\n      swap2\n      swap1\n      pop\n      jump\t// out\n        /* \"#utility.yul\":4916:5084   */\n    tag_289:\n        /* \"#utility.yul\":5038:5049   */\n      0x00\n        /* \"#utility.yul\":5075:5078   */\n      dup2\n        /* \"#utility.yul\":5060:5078   */\n      swap1\n      pop\n        /* \"#utility.yul\":4916:5084   */\n      swap3\n      swap2\n      pop\n      pop\n      jump\t// out\n        /* \"#utility.yul\":5090:5213   */\n    tag_290:\n        /* \"#utility.yul\":5180:5184   */\n      0x00\n        /* \"#utility.yul\":5203:5206   */\n      dup2\n        /* \"#utility.yul\":5195:5206   */\n      swap1\n      pop\n        /* \"#utility.yul\":5090:5213   */\n      swap2\n      swap1\n      pop\n      jump\t// out\n        /* \"#utility.yul\":5219:5318   */\n    tag_291:\n        /* \"#utility.yul\":5271:5277   */\n      0x00\n        /* \"#utility.yul\":5305:5310   */\n      dup2\n        /* \"#utility.yul\":5299:5311   */\n      mload\n        /* \"#utility.yul\":5289:5311   */\n      swap1\n      pop\n        /* \"#utility.yul\":5219:5318   */\n      swap2\n      swap1\n      pop\n      jump\t// out\n        /* \"#utility.yul\":5324:5483   */\n    tag_292:\n        /* \"#utility.yul\":5398:5409   */\n      0x00\n        /* \"#utility.yul\":5432:5438   */\n      dup3\n        /* \"#utility.yul\":5427:5430   */\n      dup3\n        /* \"#utility.yul\":5420:5439   */\n      mstore\n        /* \"#utility.yul\":5472:5476   */\n      0x20\n        /* \"#utility.yul\":5467:5470   */\n      dup3\n        /* \"#utility.yul\":5463:5477   */\n      add\n        /* \"#utility.yul\":5448:5477   */\n      swap1\n      pop\n        /* \"#utility.yul\":5324:5483   */\n      swap3\n      swap2\n      pop\n      pop\n      jump\t// out\n        /* \"#utility.yul\":5489:5735   */\n    tag_293:\n        /* \"#utility.yul\":5570:5571   */\n      0x00\n        /* \"#utility.yul\":5580:5693   */\n    tag_416:\n        /* \"#utility.yul\":5594:5600   */\n      dup4\n        /* \"#utility.yul\":5591:5592   */\n      dup2\n        /* \"#utility.yul\":5588:5601   */\n      lt\n        /* \"#utility.yul\":5580:5693   */\n      iszero\n      tag_418\n      jumpi\n        /* \"#utility.yul\":5679:5680   */\n      dup1\n        /* \"#utility.yul\":5674:5677   */\n      dup3\n        /* \"#utility.yul\":5670:5681   */\n      add\n        /* \"#utility.yul\":5664:5682   */\n      mload\n        /* \"#utility.yul\":5660:5661   */\n      dup2\n        /* \"#utility.yul\":5655:5658   */\n      dup5\n        /* \"#utility.yul\":5651:5662   */\n      add\n        /* \"#utility.yul\":5644:5683   */\n      mstore\n        /* \"#utility.yul\":5616:5618   */\n      0x20\n        /* \"#utility.yul\":5613:5614   */\n      dup2\n        /* \"#utility.yul\":5609:5619   */\n      add\n        /* \"#utility.yul\":5604:5619   */\n      swap1\n      pop\n        /* \"#utility.yul\":5580:5693   */\n      jump(tag_416)\n    tag_418:\n        /* \"#utility.yul\":5727:5728   */\n      0x00\n        /* \"#utility.yul\":5718:5724   */\n      dup5\n        /* \"#utility.yul\":5713:5716   */\n      dup5\n        /* \"#utility.yul\":5709:5725   */\n      add\n        /* \"#utility.yul\":5702:5729   */\n      mstore\n        /* \"#utility.yul\":5551:5735   */\n      pop\n        /* \"#utility.yul\":5489:5735   */\n      pop\n      pop\n      pop\n      jump\t// out\n        /* \"#utility.yul\":5741:6098   */\n    tag_294:\n        /* \"#utility.yul\":5819:5822   */\n      0x00\n        /* \"#utility.yul\":5847:5886   */\n      tag_420\n        /* \"#utility.yul\":5880:5885   */\n      dup3\n        /* \"#utility.yul\":5847:5886   */\n      tag_291\n      jump\t// in\n    tag_420:\n        /* \"#utility.yul\":5902:5963   */\n      tag_421\n        /* \"#utility.yul\":5956:5962   */\n      dup2\n        /* \"#utility.yul\":5951:5954   */\n      dup6\n        /* \"#utility.yul\":5902:5963   */\n      tag_292\n      jump\t// in\n    tag_421:\n        /* \"#utility.yul\":5895:5963   */\n      swap4\n      pop\n        /* \"#utility.yul\":5972:6037   */\n      tag_422\n        /* \"#utility.yul\":6030:6036   */\n      dup2\n        /* \"#utility.yul\":6025:6028   */\n      dup6\n        /* \"#utility.yul\":6018:6022   */\n      0x20\n        /* \"#utility.yul\":6011:6016   */\n      dup7\n        /* \"#utility.yul\":6007:6023   */\n      add\n        /* \"#utility.yul\":5972:6037   */\n      tag_293\n      jump\t// in\n    tag_422:\n        /* \"#utility.yul\":6062:6091   */\n      tag_423\n        /* \"#utility.yul\":6084:6090   */\n      dup2\n        /* \"#utility.yul\":6062:6091   */\n      tag_275\n      jump\t// in\n    tag_423:\n        /* \"#utility.yul\":6057:6060   */\n      dup5\n        /* \"#utility.yul\":6053:6092   */\n      add\n        /* \"#utility.yul\":6046:6092   */\n      swap2\n      pop\n        /* \"#utility.yul\":5823:6098   */\n      pop\n        /* \"#utility.yul\":5741:6098   */\n      swap3\n      swap2\n      pop\n      pop\n      jump\t// out\n        /* \"#utility.yul\":6104:6209   */\n    tag_295:\n        /* \"#utility.yul\":6179:6202   */\n      tag_425\n        /* \"#utility.yul\":6196:6201   */\n      dup2\n        /* \"#utility.yul\":6179:6202   */\n      tag_271\n      jump\t// in\n    tag_425:\n        /* \"#utility.yul\":6174:6177   */\n      dup3\n        /* \"#utility.yul\":6167:6203   */\n      mstore\n        /* \"#utility.yul\":6104:6209   */\n      pop\n      pop\n      jump\t// out\n        /* \"#utility.yul\":6273:7036   */\n    tag_296:\n        /* \"#utility.yul\":6380:6383   */\n      0x00\n        /* \"#utility.yul\":6416:6420   */\n      0x60\n        /* \"#utility.yul\":6411:6414   */\n      dup4\n        /* \"#utility.yul\":6407:6421   */\n      add\n        /* \"#utility.yul\":6503:6507   */\n      0x00\n        /* \"#utility.yul\":6496:6501   */\n      dup4\n        /* \"#utility.yul\":6492:6508   */\n      add\n        /* \"#utility.yul\":6486:6509   */\n      mload\n        /* \"#utility.yul\":6556:6559   */\n      dup5\n        /* \"#utility.yul\":6550:6554   */\n      dup3\n        /* \"#utility.yul\":6546:6560   */\n      sub\n        /* \"#utility.yul\":6539:6543   */\n      0x00\n        /* \"#utility.yul\":6534:6537   */\n      dup7\n        /* \"#utility.yul\":6530:6544   */\n      add\n        /* \"#utility.yul\":6523:6561   */\n      mstore\n        /* \"#utility.yul\":6582:6655   */\n      tag_427\n        /* \"#utility.yul\":6650:6654   */\n      dup3\n        /* \"#utility.yul\":6636:6648   */\n      dup3\n        /* \"#utility.yul\":6582:6655   */\n      tag_294\n      jump\t// in\n    tag_427:\n        /* \"#utility.yul\":6574:6655   */\n      swap2\n      pop\n        /* \"#utility.yul\":6431:6666   */\n      pop\n        /* \"#utility.yul\":6748:6752   */\n      0x20\n        /* \"#utility.yul\":6741:6746   */\n      dup4\n        /* \"#utility.yul\":6737:6753   */\n      add\n        /* \"#utility.yul\":6731:6754   */\n      mload\n        /* \"#utility.yul\":6767:6828   */\n      tag_428\n        /* \"#utility.yul\":6822:6826   */\n      0x20\n        /* \"#utility.yul\":6817:6820   */\n      dup7\n        /* \"#utility.yul\":6813:6827   */\n      add\n        /* \"#utility.yul\":6799:6811   */\n      dup3\n        /* \"#utility.yul\":6767:6828   */\n      tag_295\n      jump\t// in\n    tag_428:\n        /* \"#utility.yul\":6676:6838   */\n      pop\n        /* \"#utility.yul\":6919:6923   */\n      0x40\n        /* \"#utility.yul\":6912:6917   */\n      dup4\n        /* \"#utility.yul\":6908:6924   */\n      add\n        /* \"#utility.yul\":6902:6925   */\n      mload\n        /* \"#utility.yul\":6938:6999   */\n      tag_429\n        /* \"#utility.yul\":6993:6997   */\n      0x40\n        /* \"#utility.yul\":6988:6991   */\n      dup7\n        /* \"#utility.yul\":6984:6998   */\n      add\n        /* \"#utility.yul\":6970:6982   */\n      dup3\n        /* \"#utility.yul\":6938:6999   */\n      tag_295\n      jump\t// in\n    tag_429:\n        /* \"#utility.yul\":6848:7009   */\n      pop\n        /* \"#utility.yul\":7026:7030   */\n      dup1\n        /* \"#utility.yul\":7019:7030   */\n      swap2\n      pop\n        /* \"#utility.yul\":6385:7036   */\n      pop\n        /* \"#utility.yul\":6273:7036   */\n      swap3\n      swap2\n      pop\n      pop\n      jump\t// out\n        /* \"#utility.yul\":7042:7294   */\n    tag_297:\n        /* \"#utility.yul\":7159:7169   */\n      0x00\n        /* \"#utility.yul\":7194:7288   */\n      tag_431\n        /* \"#utility.yul\":7284:7287   */\n      dup4\n        /* \"#utility.yul\":7276:7282   */\n      dup4\n        /* \"#utility.yul\":7194:7288   */\n      tag_296\n      jump\t// in\n    tag_431:\n        /* \"#utility.yul\":7180:7288   */\n      swap1\n      pop\n        /* \"#utility.yul\":7042:7294   */\n      swap3\n      swap2\n      pop\n      pop\n      jump\t// out\n        /* \"#utility.yul\":7300:7436   */\n    tag_298:\n        /* \"#utility.yul\":7393:7397   */\n      0x00\n        /* \"#utility.yul\":7425:7429   */\n      0x20\n        /* \"#utility.yul\":7420:7423   */\n      dup3\n        /* \"#utility.yul\":7416:7430   */\n      add\n        /* \"#utility.yul\":7408:7430   */\n      swap1\n      pop\n        /* \"#utility.yul\":7300:7436   */\n      swap2\n      swap1\n      pop\n      jump\t// out\n        /* \"#utility.yul\":7508:8605   */\n    tag_299:\n        /* \"#utility.yul\":7673:7676   */\n      0x00\n        /* \"#utility.yul\":7702:7779   */\n      tag_434\n        /* \"#utility.yul\":7773:7778   */\n      dup3\n        /* \"#utility.yul\":7702:7779   */\n      tag_288\n      jump\t// in\n    tag_434:\n        /* \"#utility.yul\":7795:7904   */\n      tag_435\n        /* \"#utility.yul\":7897:7903   */\n      dup2\n        /* \"#utility.yul\":7892:7895   */\n      dup6\n        /* \"#utility.yul\":7795:7904   */\n      tag_289\n      jump\t// in\n    tag_435:\n        /* \"#utility.yul\":7788:7904   */\n      swap4\n      pop\n        /* \"#utility.yul\":7930:7933   */\n      dup4\n        /* \"#utility.yul\":7975:7979   */\n      0x20\n        /* \"#utility.yul\":7967:7973   */\n      dup3\n        /* \"#utility.yul\":7963:7980   */\n      mul\n        /* \"#utility.yul\":7958:7961   */\n      dup6\n        /* \"#utility.yul\":7954:7981   */\n      add\n        /* \"#utility.yul\":8005:8084   */\n      tag_436\n        /* \"#utility.yul\":8078:8083   */\n      dup6\n        /* \"#utility.yul\":8005:8084   */\n      tag_290\n      jump\t// in\n    tag_436:\n        /* \"#utility.yul\":8107:8114   */\n      dup1\n        /* \"#utility.yul\":8138:8139   */\n      0x00\n        /* \"#utility.yul\":8123:8560   */\n    tag_437:\n        /* \"#utility.yul\":8148:8154   */\n      dup6\n        /* \"#utility.yul\":8145:8146   */\n      dup2\n        /* \"#utility.yul\":8142:8155   */\n      lt\n        /* \"#utility.yul\":8123:8560   */\n      iszero\n      tag_439\n      jumpi\n        /* \"#utility.yul\":8219:8228   */\n      dup5\n        /* \"#utility.yul\":8213:8217   */\n      dup5\n        /* \"#utility.yul\":8209:8229   */\n      sub\n        /* \"#utility.yul\":8204:8207   */\n      dup10\n        /* \"#utility.yul\":8197:8230   */\n      mstore\n        /* \"#utility.yul\":8270:8276   */\n      dup2\n        /* \"#utility.yul\":8264:8277   */\n      mload\n        /* \"#utility.yul\":8298:8410   */\n      tag_440\n        /* \"#utility.yul\":8405:8409   */\n      dup6\n        /* \"#utility.yul\":8390:8403   */\n      dup3\n        /* \"#utility.yul\":8298:8410   */\n      tag_297\n      jump\t// in\n    tag_440:\n        /* \"#utility.yul\":8290:8410   */\n      swap5\n      pop\n        /* \"#utility.yul\":8433:8516   */\n      tag_441\n        /* \"#utility.yul\":8509:8515   */\n      dup4\n        /* \"#utility.yul\":8433:8516   */\n      tag_298\n      jump\t// in\n    tag_441:\n        /* \"#utility.yul\":8423:8516   */\n      swap3\n      pop\n        /* \"#utility.yul\":8545:8549   */\n      0x20\n        /* \"#utility.yul\":8540:8543   */\n      dup11\n        /* \"#utility.yul\":8536:8550   */\n      add\n        /* \"#utility.yul\":8529:8550   */\n      swap10\n      pop\n        /* \"#utility.yul\":8183:8560   */\n      pop\n        /* \"#utility.yul\":8170:8171   */\n      0x01\n        /* \"#utility.yul\":8167:8168   */\n      dup2\n        /* \"#utility.yul\":8163:8172   */\n      add\n        /* \"#utility.yul\":8158:8172   */\n      swap1\n      pop\n        /* \"#utility.yul\":8123:8560   */\n      jump(tag_437)\n    tag_439:\n        /* \"#utility.yul\":8127:8141   */\n      pop\n        /* \"#utility.yul\":8576:8580   */\n      dup3\n        /* \"#utility.yul\":8569:8580   */\n      swap8\n      pop\n        /* \"#utility.yul\":8596:8599   */\n      dup8\n        /* \"#utility.yul\":8589:8599   */\n      swap6\n      pop\n        /* \"#utility.yul\":7678:8605   */\n      pop\n      pop\n      pop\n      pop\n      pop\n        /* \"#utility.yul\":7508:8605   */\n      swap3\n      swap2\n      pop\n      pop\n      jump\t// out\n        /* \"#utility.yul\":8611:9076   */\n    tag_41:\n        /* \"#utility.yul\":8800:8804   */\n      0x00\n        /* \"#utility.yul\":8838:8840   */\n      0x20\n        /* \"#utility.yul\":8827:8836   */\n      dup3\n        /* \"#utility.yul\":8823:8841   */\n      add\n        /* \"#utility.yul\":8815:8841   */\n      swap1\n      pop\n        /* \"#utility.yul\":8887:8896   */\n      dup2\n        /* \"#utility.yul\":8881:8885   */\n      dup2\n        /* \"#utility.yul\":8877:8897   */\n      sub\n        /* \"#utility.yul\":8873:8874   */\n      0x00\n        /* \"#utility.yul\":8862:8871   */\n      dup4\n        /* \"#utility.yul\":8858:8875   */\n      add\n        /* \"#utility.yul\":8851:8898   */\n      mstore\n        /* \"#utility.yul\":8915:9069   */\n      tag_443\n        /* \"#utility.yul\":9064:9068   */\n      dup2\n        /* \"#utility.yul\":9055:9061   */\n      dup5\n        /* \"#utility.yul\":8915:9069   */\n      tag_299\n      jump\t// in\n    tag_443:\n        /* \"#utility.yul\":8907:9069   */\n      swap1\n      pop\n        /* \"#utility.yul\":8611:9076   */\n      swap3\n      swap2\n      pop\n      pop\n      jump\t// out\n        /* \"#utility.yul\":9082:9199   */\n    tag_300:\n        /* \"#utility.yul\":9191:9192   */\n      0x00\n        /* \"#utility.yul\":9188:9189   */\n      dup1\n        /* \"#utility.yul\":9181:9193   */\n      revert\n        /* \"#utility.yul\":9219:9772   */\n    tag_301:\n        /* \"#utility.yul\":9277:9285   */\n      0x00\n        /* \"#utility.yul\":9287:9293   */\n      dup1\n        /* \"#utility.yul\":9337:9340   */\n      dup4\n        /* \"#utility.yul\":9330:9334   */\n      0x1f\n        /* \"#utility.yul\":9322:9328   */\n      dup5\n        /* \"#utility.yul\":9318:9335   */\n      add\n        /* \"#utility.yul\":9314:9341   */\n      slt\n        /* \"#utility.yul\":9304:9426   */\n      tag_446\n      jumpi\n        /* \"#utility.yul\":9345:9424   */\n      tag_447\n      tag_274\n      jump\t// in\n    tag_447:\n        /* \"#utility.yul\":9304:9426   */\n    tag_446:\n        /* \"#utility.yul\":9458:9464   */\n      dup3\n        /* \"#utility.yul\":9445:9465   */\n      calldataload\n        /* \"#utility.yul\":9435:9465   */\n      swap1\n      pop\n        /* \"#utility.yul\":9488:9506   */\n      0xffffffffffffffff\n        /* \"#utility.yul\":9480:9486   */\n      dup2\n        /* \"#utility.yul\":9477:9507   */\n      gt\n        /* \"#utility.yul\":9474:9591   */\n      iszero\n      tag_448\n      jumpi\n        /* \"#utility.yul\":9510:9589   */\n      tag_449\n      tag_300\n      jump\t// in\n    tag_449:\n        /* \"#utility.yul\":9474:9591   */\n    tag_448:\n        /* \"#utility.yul\":9624:9628   */\n      0x20\n        /* \"#utility.yul\":9616:9622   */\n      dup4\n        /* \"#utility.yul\":9612:9629   */\n      add\n        /* \"#utility.yul\":9600:9629   */\n      swap2\n      pop\n        /* \"#utility.yul\":9678:9681   */\n      dup4\n        /* \"#utility.yul\":9670:9674   */\n      0x01\n        /* \"#utility.yul\":9662:9668   */\n      dup3\n        /* \"#utility.yul\":9658:9675   */\n      mul\n        /* \"#utility.yul\":9648:9656   */\n      dup4\n        /* \"#utility.yul\":9644:9676   */\n      add\n        /* \"#utility.yul\":9641:9682   */\n      gt\n        /* \"#utility.yul\":9638:9766   */\n      iszero\n      tag_450\n      jumpi\n        /* \"#utility.yul\":9685:9764   */\n      tag_451\n      tag_280\n      jump\t// in\n    tag_451:\n        /* \"#utility.yul\":9638:9766   */\n    tag_450:\n        /* \"#utility.yul\":9219:9772   */\n      swap3\n      pop\n      swap3\n      swap1\n      pop\n      jump\t// out\n        /* \"#utility.yul\":9778:10652   */\n    tag_44:\n        /* \"#utility.yul\":9870:9876   */\n      0x00\n        /* \"#utility.yul\":9878:9884   */\n      dup1\n        /* \"#utility.yul\":9886:9892   */\n      0x00\n        /* \"#utility.yul\":9894:9900   */\n      dup1\n        /* \"#utility.yul\":9943:9945   */\n      0x40\n        /* \"#utility.yul\":9931:9940   */\n      dup6\n        /* \"#utility.yul\":9922:9929   */\n      dup8\n        /* \"#utility.yul\":9918:9941   */\n      sub\n        /* \"#utility.yul\":9914:9946   */\n      slt\n        /* \"#utility.yul\":9911:10030   */\n      iszero\n      tag_453\n      jumpi\n        /* \"#utility.yul\":9949:10028   */\n      tag_454\n      tag_269\n      jump\t// in\n    tag_454:\n        /* \"#utility.yul\":9911:10030   */\n    tag_453:\n        /* \"#utility.yul\":10097:10098   */\n      0x00\n        /* \"#utility.yul\":10086:10095   */\n      dup6\n        /* \"#utility.yul\":10082:10099   */\n      add\n        /* \"#utility.yul\":10069:10100   */\n      calldataload\n        /* \"#utility.yul\":10127:10145   */\n      0xffffffffffffffff\n        /* \"#utility.yul\":10119:10125   */\n      dup2\n        /* \"#utility.yul\":10116:10146   */\n      gt\n        /* \"#utility.yul\":10113:10230   */\n      iszero\n      tag_455\n      jumpi\n        /* \"#utility.yul\":10149:10228   */\n      tag_456\n      tag_270\n      jump\t// in\n    tag_456:\n        /* \"#utility.yul\":10113:10230   */\n    tag_455:\n        /* \"#utility.yul\":10262:10327   */\n      tag_457\n        /* \"#utility.yul\":10319:10326   */\n      dup8\n        /* \"#utility.yul\":10310:10316   */\n      dup3\n        /* \"#utility.yul\":10299:10308   */\n      dup9\n        /* \"#utility.yul\":10295:10317   */\n      add\n        /* \"#utility.yul\":10262:10327   */\n      tag_301\n      jump\t// in\n    tag_457:\n        /* \"#utility.yul\":10244:10327   */\n      swap5\n      pop\n      swap5\n      pop\n        /* \"#utility.yul\":10040:10337   */\n      pop\n        /* \"#utility.yul\":10404:10406   */\n      0x20\n        /* \"#utility.yul\":10393:10402   */\n      dup6\n        /* \"#utility.yul\":10389:10407   */\n      add\n        /* \"#utility.yul\":10376:10408   */\n      calldataload\n        /* \"#utility.yul\":10435:10453   */\n      0xffffffffffffffff\n        /* \"#utility.yul\":10427:10433   */\n      dup2\n        /* \"#utility.yul\":10424:10454   */\n      gt\n        /* \"#utility.yul\":10421:10538   */\n      iszero\n      tag_458\n      jumpi\n        /* \"#utility.yul\":10457:10536   */\n      tag_459\n      tag_270\n      jump\t// in\n    tag_459:\n        /* \"#utility.yul\":10421:10538   */\n    tag_458:\n        /* \"#utility.yul\":10570:10635   */\n      tag_460\n        /* \"#utility.yul\":10627:10634   */\n      dup8\n        /* \"#utility.yul\":10618:10624   */\n      dup3\n        /* \"#utility.yul\":10607:10616   */\n      dup9\n        /* \"#utility.yul\":10603:10625   */\n      add\n        /* \"#utility.yul\":10570:10635   */\n      tag_301\n      jump\t// in\n    tag_460:\n        /* \"#utility.yul\":10552:10635   */\n      swap3\n      pop\n      swap3\n      pop\n        /* \"#utility.yul\":10347:10645   */\n      pop\n        /* \"#utility.yul\":9778:10652   */\n      swap3\n      swap6\n      swap2\n      swap5\n      pop\n      swap3\n      pop\n      jump\t// out\n        /* \"#utility.yul\":10658:10827   */\n    tag_302:\n        /* \"#utility.yul\":10742:10753   */\n      0x00\n        /* \"#utility.yul\":10776:10782   */\n      dup3\n        /* \"#utility.yul\":10771:10774   */\n      dup3\n        /* \"#utility.yul\":10764:10783   */\n      mstore\n        /* \"#utility.yul\":10816:10820   */\n      0x20\n        /* \"#utility.yul\":10811:10814   */\n      dup3\n        /* \"#utility.yul\":10807:10821   */\n      add\n        /* \"#utility.yul\":10792:10821   */\n      swap1\n      pop\n        /* \"#utility.yul\":10658:10827   */\n      swap3\n      swap2\n      pop\n      pop\n      jump\t// out\n        /* \"#utility.yul\":10833:11210   */\n    tag_303:\n        /* \"#utility.yul\":10921:10924   */\n      0x00\n        /* \"#utility.yul\":10949:10988   */\n      tag_463\n        /* \"#utility.yul\":10982:10987   */\n      dup3\n        /* \"#utility.yul\":10949:10988   */\n      tag_291\n      jump\t// in\n    tag_463:\n        /* \"#utility.yul\":11004:11075   */\n      tag_464\n        /* \"#utility.yul\":11068:11074   */\n      dup2\n        /* \"#utility.yul\":11063:11066   */\n      dup6\n        /* \"#utility.yul\":11004:11075   */\n      tag_302\n      jump\t// in\n    tag_464:\n        /* \"#utility.yul\":10997:11075   */\n      swap4\n      pop\n        /* \"#utility.yul\":11084:11149   */\n      tag_465\n        /* \"#utility.yul\":11142:11148   */\n      dup2\n        /* \"#utility.yul\":11137:11140   */\n      dup6\n        /* \"#utility.yul\":11130:11134   */\n      0x20\n        /* \"#utility.yul\":11123:11128   */\n      dup7\n        /* \"#utility.yul\":11119:11135   */\n      add\n        /* \"#utility.yul\":11084:11149   */\n      tag_293\n      jump\t// in\n    tag_465:\n        /* \"#utility.yul\":11174:11203   */\n      tag_466\n        /* \"#utility.yul\":11196:11202   */\n      dup2\n        /* \"#utility.yul\":11174:11203   */\n      tag_275\n      jump\t// in\n    tag_466:\n        /* \"#utility.yul\":11169:11172   */\n      dup5\n        /* \"#utility.yul\":11165:11204   */\n      add\n        /* \"#utility.yul\":11158:11204   */\n      swap2\n      pop\n        /* \"#utility.yul\":10925:11210   */\n      pop\n        /* \"#utility.yul\":10833:11210   */\n      swap3\n      swap2\n      pop\n      pop\n      jump\t// out\n        /* \"#utility.yul\":11216:11529   */\n    tag_47:\n        /* \"#utility.yul\":11329:11333   */\n      0x00\n        /* \"#utility.yul\":11367:11369   */\n      0x20\n        /* \"#utility.yul\":11356:11365   */\n      dup3\n        /* \"#utility.yul\":11352:11370   */\n      add\n        /* \"#utility.yul\":11344:11370   */\n      swap1\n      pop\n        /* \"#utility.yul\":11416:11425   */\n      dup2\n        /* \"#utility.yul\":11410:11414   */\n      dup2\n        /* \"#utility.yul\":11406:11426   */\n      sub\n        /* \"#utility.yul\":11402:11403   */\n      0x00\n        /* \"#utility.yul\":11391:11400   */\n      dup4\n        /* \"#utility.yul\":11387:11404   */\n      add\n        /* \"#utility.yul\":11380:11427   */\n      mstore\n        /* \"#utility.yul\":11444:11522   */\n      tag_468\n        /* \"#utility.yul\":11517:11521   */\n      dup2\n        /* \"#utility.yul\":11508:11514   */\n      dup5\n        /* \"#utility.yul\":11444:11522   */\n      tag_303\n      jump\t// in\n    tag_468:\n        /* \"#utility.yul\":11436:11522   */\n      swap1\n      pop\n        /* \"#utility.yul\":11216:11529   */\n      swap3\n      swap2\n      pop\n      pop\n      jump\t// out\n        /* \"#utility.yul\":11535:11652   */\n    tag_304:\n        /* \"#utility.yul\":11644:11645   */\n      0x00\n        /* \"#utility.yul\":11641:11642   */\n      dup1\n        /* \"#utility.yul\":11634:11646   */\n      revert\n        /* \"#utility.yul\":11658:11966   */\n    tag_305:\n        /* \"#utility.yul\":11720:11724   */\n      0x00\n        /* \"#utility.yul\":11810:11828   */\n      0xffffffffffffffff\n        /* \"#utility.yul\":11802:11808   */\n      dup3\n        /* \"#utility.yul\":11799:11829   */\n      gt\n        /* \"#utility.yul\":11796:11852   */\n      iszero\n      tag_471\n      jumpi\n        /* \"#utility.yul\":11832:11850   */\n      tag_472\n      tag_276\n      jump\t// in\n    tag_472:\n        /* \"#utility.yul\":11796:11852   */\n    tag_471:\n        /* \"#utility.yul\":11870:11899   */\n      tag_473\n        /* \"#utility.yul\":11892:11898   */\n      dup3\n        /* \"#utility.yul\":11870:11899   */\n      tag_275\n      jump\t// in\n    tag_473:\n        /* \"#utility.yul\":11862:11899   */\n      swap1\n      pop\n        /* \"#utility.yul\":11954:11958   */\n      0x20\n        /* \"#utility.yul\":11948:11952   */\n      dup2\n        /* \"#utility.yul\":11944:11959   */\n      add\n        /* \"#utility.yul\":11936:11959   */\n      swap1\n      pop\n        /* \"#utility.yul\":11658:11966   */\n      swap2\n      swap1\n      pop\n      jump\t// out\n        /* \"#utility.yul\":11972:12118   */\n    tag_306:\n        /* \"#utility.yul\":12069:12075   */\n      dup3\n        /* \"#utility.yul\":12064:12067   */\n      dup2\n        /* \"#utility.yul\":12059:12062   */\n      dup4\n        /* \"#utility.yul\":12046:12076   */\n      calldatacopy\n        /* \"#utility.yul\":12110:12111   */\n      0x00\n        /* \"#utility.yul\":12101:12107   */\n      dup4\n        /* \"#utility.yul\":12096:12099   */\n      dup4\n        /* \"#utility.yul\":12092:12108   */\n      add\n        /* \"#utility.yul\":12085:12112   */\n      mstore\n        /* \"#utility.yul\":11972:12118   */\n      pop\n      pop\n      pop\n      jump\t// out\n        /* \"#utility.yul\":12124:12549   */\n    tag_307:\n        /* \"#utility.yul\":12202:12207   */\n      0x00\n        /* \"#utility.yul\":12227:12293   */\n      tag_476\n        /* \"#utility.yul\":12243:12292   */\n      tag_477\n        /* \"#utility.yul\":12285:12291   */\n      dup5\n        /* \"#utility.yul\":12243:12292   */\n      tag_305\n      jump\t// in\n    tag_477:\n        /* \"#utility.yul\":12227:12293   */\n      tag_278\n      jump\t// in\n    tag_476:\n        /* \"#utility.yul\":12218:12293   */\n      swap1\n      pop\n        /* \"#utility.yul\":12316:12322   */\n      dup3\n        /* \"#utility.yul\":12309:12314   */\n      dup2\n        /* \"#utility.yul\":12302:12323   */\n      mstore\n        /* \"#utility.yul\":12354:12358   */\n      0x20\n        /* \"#utility.yul\":12347:12352   */\n      dup2\n        /* \"#utility.yul\":12343:12359   */\n      add\n        /* \"#utility.yul\":12392:12395   */\n      dup5\n        /* \"#utility.yul\":12383:12389   */\n      dup5\n        /* \"#utility.yul\":12378:12381   */\n      dup5\n        /* \"#utility.yul\":12374:12390   */\n      add\n        /* \"#utility.yul\":12371:12396   */\n      gt\n        /* \"#utility.yul\":12368:12480   */\n      iszero\n      tag_478\n      jumpi\n        /* \"#utility.yul\":12399:12478   */\n      tag_479\n      tag_304\n      jump\t// in\n    tag_479:\n        /* \"#utility.yul\":12368:12480   */\n    tag_478:\n        /* \"#utility.yul\":12489:12543   */\n      tag_480\n        /* \"#utility.yul\":12536:12542   */\n      dup5\n        /* \"#utility.yul\":12531:12534   */\n      dup3\n        /* \"#utility.yul\":12526:12529   */\n      dup6\n        /* \"#utility.yul\":12489:12543   */\n      tag_306\n      jump\t// in\n    tag_480:\n        /* \"#utility.yul\":12208:12549   */\n      pop\n        /* \"#utility.yul\":12124:12549   */\n      swap4\n      swap3\n      pop\n      pop\n      pop\n      jump\t// out\n        /* \"#utility.yul\":12569:12909   */\n    tag_308:\n        /* \"#utility.yul\":12625:12630   */\n      0x00\n        /* \"#utility.yul\":12674:12677   */\n      dup3\n        /* \"#utility.yul\":12667:12671   */\n      0x1f\n        /* \"#utility.yul\":12659:12665   */\n      dup4\n        /* \"#utility.yul\":12655:12672   */\n      add\n        /* \"#utility.yul\":12651:12678   */\n      slt\n        /* \"#utility.yul\":12641:12763   */\n      tag_482\n      jumpi\n        /* \"#utility.yul\":12682:12761   */\n      tag_483\n      tag_274\n      jump\t// in\n    tag_483:\n        /* \"#utility.yul\":12641:12763   */\n    tag_482:\n        /* \"#utility.yul\":12799:12805   */\n      dup2\n        /* \"#utility.yul\":12786:12806   */\n      calldataload\n        /* \"#utility.yul\":12824:12903   */\n      tag_484\n        /* \"#utility.yul\":12899:12902   */\n      dup5\n        /* \"#utility.yul\":12891:12897   */\n      dup3\n        /* \"#utility.yul\":12884:12888   */\n      0x20\n        /* \"#utility.yul\":12876:12882   */\n      dup7\n        /* \"#utility.yul\":12872:12889   */\n      add\n        /* \"#utility.yul\":12824:12903   */\n      tag_307\n      jump\t// in\n    tag_484:\n        /* \"#utility.yul\":12815:12903   */\n      swap2\n      pop\n        /* \"#utility.yul\":12631:12909   */\n      pop\n        /* \"#utility.yul\":12569:12909   */\n      swap3\n      swap2\n      pop\n      pop\n      jump\t// out\n        /* \"#utility.yul\":12915:13710   */\n    tag_50:\n        /* \"#utility.yul\":13000:13006   */\n      0x00\n        /* \"#utility.yul\":13008:13014   */\n      dup1\n        /* \"#utility.yul\":13016:13022   */\n      0x00\n        /* \"#utility.yul\":13065:13067   */\n      0x60\n        /* \"#utility.yul\":13053:13062   */\n      dup5\n        /* \"#utility.yul\":13044:13051   */\n      dup7\n        /* \"#utility.yul\":13040:13063   */\n      sub\n        /* \"#utility.yul\":13036:13068   */\n      slt\n        /* \"#utility.yul\":13033:13152   */\n      iszero\n      tag_486\n      jumpi\n        /* \"#utility.yul\":13071:13150   */\n      tag_487\n      tag_269\n      jump\t// in\n    tag_487:\n        /* \"#utility.yul\":13033:13152   */\n    tag_486:\n        /* \"#utility.yul\":13219:13220   */\n      0x00\n        /* \"#utility.yul\":13208:13217   */\n      dup5\n        /* \"#utility.yul\":13204:13221   */\n      add\n        /* \"#utility.yul\":13191:13222   */\n      calldataload\n        /* \"#utility.yul\":13249:13267   */\n      0xffffffffffffffff\n        /* \"#utility.yul\":13241:13247   */\n      dup2\n        /* \"#utility.yul\":13238:13268   */\n      gt\n        /* \"#utility.yul\":13235:13352   */\n      iszero\n      tag_488\n      jumpi\n        /* \"#utility.yul\":13271:13350   */\n      tag_489\n      tag_270\n      jump\t// in\n    tag_489:\n        /* \"#utility.yul\":13235:13352   */\n    tag_488:\n        /* \"#utility.yul\":13376:13439   */\n      tag_490\n        /* \"#utility.yul\":13431:13438   */\n      dup7\n        /* \"#utility.yul\":13422:13428   */\n      dup3\n        /* \"#utility.yul\":13411:13420   */\n      dup8\n        /* \"#utility.yul\":13407:13429   */\n      add\n        /* \"#utility.yul\":13376:13439   */\n      tag_308\n      jump\t// in\n    tag_490:\n        /* \"#utility.yul\":13366:13439   */\n      swap4\n      pop\n        /* \"#utility.yul\":13162:13449   */\n      pop\n        /* \"#utility.yul\":13488:13490   */\n      0x20\n        /* \"#utility.yul\":13514:13566   */\n      tag_491\n        /* \"#utility.yul\":13558:13565   */\n      dup7\n        /* \"#utility.yul\":13549:13555   */\n      dup3\n        /* \"#utility.yul\":13538:13547   */\n      dup8\n        /* \"#utility.yul\":13534:13556   */\n      add\n        /* \"#utility.yul\":13514:13566   */\n      tag_273\n      jump\t// in\n    tag_491:\n        /* \"#utility.yul\":13504:13566   */\n      swap3\n      pop\n        /* \"#utility.yul\":13459:13576   */\n      pop\n        /* \"#utility.yul\":13615:13617   */\n      0x40\n        /* \"#utility.yul\":13641:13693   */\n      tag_492\n        /* \"#utility.yul\":13685:13692   */\n      dup7\n        /* \"#utility.yul\":13676:13682   */\n      dup3\n        /* \"#utility.yul\":13665:13674   */\n      dup8\n        /* \"#utility.yul\":13661:13683   */\n      add\n        /* \"#utility.yul\":13641:13693   */\n      tag_273\n      jump\t// in\n    tag_492:\n        /* \"#utility.yul\":13631:13693   */\n      swap2\n      pop\n        /* \"#utility.yul\":13586:13703   */\n      pop\n        /* \"#utility.yul\":12915:13710   */\n      swap3\n      pop\n      swap3\n      pop\n      swap3\n      jump\t// out\n        /* \"#utility.yul\":13774:14547   */\n    tag_309:\n        /* \"#utility.yul\":13891:13894   */\n      0x00\n        /* \"#utility.yul\":13927:13931   */\n      0x60\n        /* \"#utility.yul\":13922:13925   */\n      dup4\n        /* \"#utility.yul\":13918:13932   */\n      add\n        /* \"#utility.yul\":14014:14018   */\n      0x00\n        /* \"#utility.yul\":14007:14012   */\n      dup4\n        /* \"#utility.yul\":14003:14019   */\n      add\n        /* \"#utility.yul\":13997:14020   */\n      mload\n        /* \"#utility.yul\":14067:14070   */\n      dup5\n        /* \"#utility.yul\":14061:14065   */\n      dup3\n        /* \"#utility.yul\":14057:14071   */\n      sub\n        /* \"#utility.yul\":14050:14054   */\n      0x00\n        /* \"#utility.yul\":14045:14048   */\n      dup7\n        /* \"#utility.yul\":14041:14055   */\n      add\n        /* \"#utility.yul\":14034:14072   */\n      mstore\n        /* \"#utility.yul\":14093:14166   */\n      tag_494\n        /* \"#utility.yul\":14161:14165   */\n      dup3\n        /* \"#utility.yul\":14147:14159   */\n      dup3\n        /* \"#utility.yul\":14093:14166   */\n      tag_294\n      jump\t// in\n    tag_494:\n        /* \"#utility.yul\":14085:14166   */\n      swap2\n      pop\n        /* \"#utility.yul\":13942:14177   */\n      pop\n        /* \"#utility.yul\":14259:14263   */\n      0x20\n        /* \"#utility.yul\":14252:14257   */\n      dup4\n        /* \"#utility.yul\":14248:14264   */\n      add\n        /* \"#utility.yul\":14242:14265   */\n      mload\n        /* \"#utility.yul\":14278:14339   */\n      tag_495\n        /* \"#utility.yul\":14333:14337   */\n      0x20\n        /* \"#utility.yul\":14328:14331   */\n      dup7\n        /* \"#utility.yul\":14324:14338   */\n      add\n        /* \"#utility.yul\":14310:14322   */\n      dup3\n        /* \"#utility.yul\":14278:14339   */\n      tag_295\n      jump\t// in\n    tag_495:\n        /* \"#utility.yul\":14187:14349   */\n      pop\n        /* \"#utility.yul\":14430:14434   */\n      0x40\n        /* \"#utility.yul\":14423:14428   */\n      dup4\n        /* \"#utility.yul\":14419:14435   */\n      add\n        /* \"#utility.yul\":14413:14436   */\n      mload\n        /* \"#utility.yul\":14449:14510   */\n      tag_496\n        /* \"#utility.yul\":14504:14508   */\n      0x40\n        /* \"#utility.yul\":14499:14502   */\n      dup7\n        /* \"#utility.yul\":14495:14509   */\n      add\n        /* \"#utility.yul\":14481:14493   */\n      dup3\n        /* \"#utility.yul\":14449:14510   */\n      tag_295\n      jump\t// in\n    tag_496:\n        /* \"#utility.yul\":14359:14520   */\n      pop\n        /* \"#utility.yul\":14537:14541   */\n      dup1\n        /* \"#utility.yul\":14530:14541   */\n      swap2\n      pop\n        /* \"#utility.yul\":13896:14547   */\n      pop\n        /* \"#utility.yul\":13774:14547   */\n      swap3\n      swap2\n      pop\n      pop\n      jump\t// out\n        /* \"#utility.yul\":14553:14922   */\n    tag_53:\n        /* \"#utility.yul\":14694:14698   */\n      0x00\n        /* \"#utility.yul\":14732:14734   */\n      0x20\n        /* \"#utility.yul\":14721:14730   */\n      dup3\n        /* \"#utility.yul\":14717:14735   */\n      add\n        /* \"#utility.yul\":14709:14735   */\n      swap1\n      pop\n        /* \"#utility.yul\":14781:14790   */\n      dup2\n        /* \"#utility.yul\":14775:14779   */\n      dup2\n        /* \"#utility.yul\":14771:14791   */\n      sub\n        /* \"#utility.yul\":14767:14768   */\n      0x00\n        /* \"#utility.yul\":14756:14765   */\n      dup4\n        /* \"#utility.yul\":14752:14769   */\n      add\n        /* \"#utility.yul\":14745:14792   */\n      mstore\n        /* \"#utility.yul\":14809:14915   */\n      tag_498\n        /* \"#utility.yul\":14910:14914   */\n      dup2\n        /* \"#utility.yul\":14901:14907   */\n      dup5\n        /* \"#utility.yul\":14809:14915   */\n      tag_309\n      jump\t// in\n    tag_498:\n        /* \"#utility.yul\":14801:14915   */\n      swap1\n      pop\n        /* \"#utility.yul\":14553:14922   */\n      swap3\n      swap2\n      pop\n      pop\n      jump\t// out\n        /* \"#utility.yul\":14928:15005   */\n    tag_310:\n        /* \"#utility.yul\":14965:14972   */\n      0x00\n        /* \"#utility.yul\":14994:14999   */\n      dup2\n        /* \"#utility.yul\":14983:14999   */\n      swap1\n      pop\n        /* \"#utility.yul\":14928:15005   */\n      swap2\n      swap1\n      pop\n      jump\t// out\n        /* \"#utility.yul\":15011:15133   */\n    tag_311:\n        /* \"#utility.yul\":15084:15108   */\n      tag_501\n        /* \"#utility.yul\":15102:15107   */\n      dup2\n        /* \"#utility.yul\":15084:15108   */\n      tag_310\n      jump\t// in\n    tag_501:\n        /* \"#utility.yul\":15077:15082   */\n      dup2\n        /* \"#utility.yul\":15074:15109   */\n      eq\n        /* \"#utility.yul\":15064:15127   */\n      tag_502\n      jumpi\n        /* \"#utility.yul\":15123:15124   */\n      0x00\n        /* \"#utility.yul\":15120:15121   */\n      dup1\n        /* \"#utility.yul\":15113:15125   */\n      revert\n        /* \"#utility.yul\":15064:15127   */\n    tag_502:\n        /* \"#utility.yul\":15011:15133   */\n      pop\n      jump\t// out\n        /* \"#utility.yul\":15139:15278   */\n    tag_312:\n        /* \"#utility.yul\":15185:15190   */\n      0x00\n        /* \"#utility.yul\":15223:15229   */\n      dup2\n        /* \"#utility.yul\":15210:15230   */\n      calldataload\n        /* \"#utility.yul\":15201:15230   */\n      swap1\n      pop\n        /* \"#utility.yul\":15239:15272   */\n      tag_504\n        /* \"#utility.yul\":15266:15271   */\n      dup2\n        /* \"#utility.yul\":15239:15272   */\n      tag_311\n      jump\t// in\n    tag_504:\n        /* \"#utility.yul\":15139:15278   */\n      swap3\n      swap2\n      pop\n      pop\n      jump\t// out\n        /* \"#utility.yul\":15284:16225   */\n    tag_56:\n        /* \"#utility.yul\":15378:15384   */\n      0x00\n        /* \"#utility.yul\":15386:15392   */\n      dup1\n        /* \"#utility.yul\":15394:15400   */\n      0x00\n        /* \"#utility.yul\":15402:15408   */\n      dup1\n        /* \"#utility.yul\":15451:15454   */\n      0x80\n        /* \"#utility.yul\":15439:15448   */\n      dup6\n        /* \"#utility.yul\":15430:15437   */\n      dup8\n        /* \"#utility.yul\":15426:15449   */\n      sub\n        /* \"#utility.yul\":15422:15455   */\n      slt\n        /* \"#utility.yul\":15419:15539   */\n      iszero\n      tag_506\n      jumpi\n        /* \"#utility.yul\":15458:15537   */\n      tag_507\n      tag_269\n      jump\t// in\n    tag_507:\n        /* \"#utility.yul\":15419:15539   */\n    tag_506:\n        /* \"#utility.yul\":15606:15607   */\n      0x00\n        /* \"#utility.yul\":15595:15604   */\n      dup6\n        /* \"#utility.yul\":15591:15608   */\n      add\n        /* \"#utility.yul\":15578:15609   */\n      calldataload\n        /* \"#utility.yul\":15636:15654   */\n      0xffffffffffffffff\n        /* \"#utility.yul\":15628:15634   */\n      dup2\n        /* \"#utility.yul\":15625:15655   */\n      gt\n        /* \"#utility.yul\":15622:15739   */\n      iszero\n      tag_508\n      jumpi\n        /* \"#utility.yul\":15658:15737   */\n      tag_509\n      tag_270\n      jump\t// in\n    tag_509:\n        /* \"#utility.yul\":15622:15739   */\n    tag_508:\n        /* \"#utility.yul\":15763:15826   */\n      tag_510\n        /* \"#utility.yul\":15818:15825   */\n      dup8\n        /* \"#utility.yul\":15809:15815   */\n      dup3\n        /* \"#utility.yul\":15798:15807   */\n      dup9\n        /* \"#utility.yul\":15794:15816   */\n      add\n        /* \"#utility.yul\":15763:15826   */\n      tag_308\n      jump\t// in\n    tag_510:\n        /* \"#utility.yul\":15753:15826   */\n      swap5\n      pop\n        /* \"#utility.yul\":15549:15836   */\n      pop\n        /* \"#utility.yul\":15875:15877   */\n      0x20\n        /* \"#utility.yul\":15901:15953   */\n      tag_511\n        /* \"#utility.yul\":15945:15952   */\n      dup8\n        /* \"#utility.yul\":15936:15942   */\n      dup3\n        /* \"#utility.yul\":15925:15934   */\n      dup9\n        /* \"#utility.yul\":15921:15943   */\n      add\n        /* \"#utility.yul\":15901:15953   */\n      tag_273\n      jump\t// in\n    tag_511:\n        /* \"#utility.yul\":15891:15953   */\n      swap4\n      pop\n        /* \"#utility.yul\":15846:15963   */\n      pop\n        /* \"#utility.yul\":16002:16004   */\n      0x40\n        /* \"#utility.yul\":16028:16080   */\n      tag_512\n        /* \"#utility.yul\":16072:16079   */\n      dup8\n        /* \"#utility.yul\":16063:16069   */\n      dup3\n        /* \"#utility.yul\":16052:16061   */\n      dup9\n        /* \"#utility.yul\":16048:16070   */\n      add\n        /* \"#utility.yul\":16028:16080   */\n      tag_273\n      jump\t// in\n    tag_512:\n        /* \"#utility.yul\":16018:16080   */\n      swap3\n      pop\n        /* \"#utility.yul\":15973:16090   */\n      pop\n        /* \"#utility.yul\":16129:16131   */\n      0x60\n        /* \"#utility.yul\":16155:16208   */\n      tag_513\n        /* \"#utility.yul\":16200:16207   */\n      dup8\n        /* \"#utility.yul\":16191:16197   */\n      dup3\n        /* \"#utility.yul\":16180:16189   */\n      dup9\n        /* \"#utility.yul\":16176:16198   */\n      add\n        /* \"#utility.yul\":16155:16208   */\n      tag_312\n      jump\t// in\n    tag_513:\n        /* \"#utility.yul\":16145:16208   */\n      swap2\n      pop\n        /* \"#utility.yul\":16100:16218   */\n      pop\n        /* \"#utility.yul\":15284:16225   */\n      swap3\n      swap6\n      swap2\n      swap5\n      pop\n      swap3\n      pop\n      jump\t// out\n        /* \"#utility.yul\":16231:16411   */\n    tag_186:\n        /* \"#utility.yul\":16279:16356   */\n      0x4e487b7100000000000000000000000000000000000000000000000000000000\n        /* \"#utility.yul\":16276:16277   */\n      0x00\n        /* \"#utility.yul\":16269:16357   */\n      mstore\n        /* \"#utility.yul\":16376:16380   */\n      0x21\n        /* \"#utility.yul\":16373:16374   */\n      0x04\n        /* \"#utility.yul\":16366:16381   */\n      mstore\n        /* \"#utility.yul\":16400:16404   */\n      0x24\n        /* \"#utility.yul\":16397:16398   */\n      0x00\n        /* \"#utility.yul\":16390:16405   */\n      revert\n        /* \"#utility.yul\":16417:16531   */\n    tag_313:\n        /* \"#utility.yul\":16499:16500   */\n      0x03\n        /* \"#utility.yul\":16492:16497   */\n      dup2\n        /* \"#utility.yul\":16489:16501   */\n      lt\n        /* \"#utility.yul\":16479:16525   */\n      tag_516\n      jumpi\n        /* \"#utility.yul\":16505:16523   */\n      tag_517\n      tag_186\n      jump\t// in\n    tag_517:\n        /* \"#utility.yul\":16479:16525   */\n    tag_516:\n        /* \"#utility.yul\":16417:16531   */\n      pop\n      jump\t// out\n        /* \"#utility.yul\":16537:16666   */\n    tag_314:\n        /* \"#utility.yul\":16583:16590   */\n      0x00\n        /* \"#utility.yul\":16612:16617   */\n      dup2\n        /* \"#utility.yul\":16601:16617   */\n      swap1\n      pop\n        /* \"#utility.yul\":16618:16660   */\n      tag_519\n        /* \"#utility.yul\":16654:16659   */\n      dup3\n        /* \"#utility.yul\":16618:16660   */\n      tag_313\n      jump\t// in\n    tag_519:\n        /* \"#utility.yul\":16537:16666   */\n      swap2\n      swap1\n      pop\n      jump\t// out\n        /* \"#utility.yul\":16672:16801   */\n    tag_315:\n        /* \"#utility.yul\":16729:16738   */\n      0x00\n        /* \"#utility.yul\":16762:16795   */\n      tag_521\n        /* \"#utility.yul\":16789:16794   */\n      dup3\n        /* \"#utility.yul\":16762:16795   */\n      tag_314\n      jump\t// in\n    tag_521:\n        /* \"#utility.yul\":16749:16795   */\n      swap1\n      pop\n        /* \"#utility.yul\":16672:16801   */\n      swap2\n      swap1\n      pop\n      jump\t// out\n        /* \"#utility.yul\":16807:16952   */\n    tag_316:\n        /* \"#utility.yul\":16901:16945   */\n      tag_523\n        /* \"#utility.yul\":16939:16944   */\n      dup2\n        /* \"#utility.yul\":16901:16945   */\n      tag_315\n      jump\t// in\n    tag_523:\n        /* \"#utility.yul\":16896:16899   */\n      dup3\n        /* \"#utility.yul\":16889:16946   */\n      mstore\n        /* \"#utility.yul\":16807:16952   */\n      pop\n      pop\n      jump\t// out\n        /* \"#utility.yul\":16958:17194   */\n    tag_63:\n        /* \"#utility.yul\":17058:17062   */\n      0x00\n        /* \"#utility.yul\":17096:17098   */\n      0x20\n        /* \"#utility.yul\":17085:17094   */\n      dup3\n        /* \"#utility.yul\":17081:17099   */\n      add\n        /* \"#utility.yul\":17073:17099   */\n      swap1\n      pop\n        /* \"#utility.yul\":17109:17187   */\n      tag_525\n        /* \"#utility.yul\":17184:17185   */\n      0x00\n        /* \"#utility.yul\":17173:17182   */\n      dup4\n        /* \"#utility.yul\":17169:17186   */\n      add\n        /* \"#utility.yul\":17160:17166   */\n      dup5\n        /* \"#utility.yul\":17109:17187   */\n      tag_316\n      jump\t// in\n    tag_525:\n        /* \"#utility.yul\":16958:17194   */\n      swap3\n      swap2\n      pop\n      pop\n      jump\t// out\n        /* \"#utility.yul\":17200:17529   */\n    tag_66:\n        /* \"#utility.yul\":17259:17265   */\n      0x00\n        /* \"#utility.yul\":17308:17310   */\n      0x20\n        /* \"#utility.yul\":17296:17305   */\n      dup3\n        /* \"#utility.yul\":17287:17294   */\n      dup5\n        /* \"#utility.yul\":17283:17306   */\n      sub\n        /* \"#utility.yul\":17279:17311   */\n      slt\n        /* \"#utility.yul\":17276:17395   */\n      iszero\n      tag_527\n      jumpi\n        /* \"#utility.yul\":17314:17393   */\n      tag_528\n      tag_269\n      jump\t// in\n    tag_528:\n        /* \"#utility.yul\":17276:17395   */\n    tag_527:\n        /* \"#utility.yul\":17434:17435   */\n      0x00\n        /* \"#utility.yul\":17459:17512   */\n      tag_529\n        /* \"#utility.yul\":17504:17511   */\n      dup5\n        /* \"#utility.yul\":17495:17501   */\n      dup3\n        /* \"#utility.yul\":17484:17493   */\n      dup6\n        /* \"#utility.yul\":17480:17502   */\n      add\n        /* \"#utility.yul\":17459:17512   */\n      tag_312\n      jump\t// in\n    tag_529:\n        /* \"#utility.yul\":17449:17512   */\n      swap2\n      pop\n        /* \"#utility.yul\":17405:17522   */\n      pop\n        /* \"#utility.yul\":17200:17529   */\n      swap3\n      swap2\n      pop\n      pop\n      jump\t// out\n        /* \"#utility.yul\":17535:17639   */\n    tag_317:\n        /* \"#utility.yul\":17600:17606   */\n      0x00\n        /* \"#utility.yul\":17628:17632   */\n      0x03\n        /* \"#utility.yul\":17618:17632   */\n      swap1\n      pop\n        /* \"#utility.yul\":17535:17639   */\n      swap2\n      swap1\n      pop\n      jump\t// out\n        /* \"#utility.yul\":17645:17788   */\n    tag_318:\n        /* \"#utility.yul\":17742:17753   */\n      0x00\n        /* \"#utility.yul\":17779:17782   */\n      dup2\n        /* \"#utility.yul\":17764:17782   */\n      swap1\n      pop\n        /* \"#utility.yul\":17645:17788   */\n      swap3\n      swap2\n      pop\n      pop\n      jump\t// out\n        /* \"#utility.yul\":17794:17892   */\n    tag_319:\n        /* \"#utility.yul\":17859:17863   */\n      0x00\n        /* \"#utility.yul\":17882:17885   */\n      dup2\n        /* \"#utility.yul\":17874:17885   */\n      swap1\n      pop\n        /* \"#utility.yul\":17794:17892   */\n      swap2\n      swap1\n      pop\n      jump\t// out\n        /* \"#utility.yul\":17898:18006   */\n    tag_320:\n        /* \"#utility.yul\":17975:17999   */\n      tag_534\n        /* \"#utility.yul\":17993:17998   */\n      dup2\n        /* \"#utility.yul\":17975:17999   */\n      tag_310\n      jump\t// in\n    tag_534:\n        /* \"#utility.yul\":17970:17973   */\n      dup3\n        /* \"#utility.yul\":17963:18000   */\n      mstore\n        /* \"#utility.yul\":17898:18006   */\n      pop\n      pop\n      jump\t// out\n        /* \"#utility.yul\":18012:18191   */\n    tag_321:\n        /* \"#utility.yul\":18081:18091   */\n      0x00\n        /* \"#utility.yul\":18102:18148   */\n      tag_536\n        /* \"#utility.yul\":18144:18147   */\n      dup4\n        /* \"#utility.yul\":18136:18142   */\n      dup4\n        /* \"#utility.yul\":18102:18148   */\n      tag_320\n      jump\t// in\n    tag_536:\n        /* \"#utility.yul\":18180:18184   */\n      0x20\n        /* \"#utility.yul\":18175:18178   */\n      dup4\n        /* \"#utility.yul\":18171:18185   */\n      add\n        /* \"#utility.yul\":18157:18185   */\n      swap1\n      pop\n        /* \"#utility.yul\":18012:18191   */\n      swap3\n      swap2\n      pop\n      pop\n      jump\t// out\n        /* \"#utility.yul\":18197:18308   */\n    tag_322:\n        /* \"#utility.yul\":18265:18269   */\n      0x00\n        /* \"#utility.yul\":18297:18301   */\n      0x20\n        /* \"#utility.yul\":18292:18295   */\n      dup3\n        /* \"#utility.yul\":18288:18302   */\n      add\n        /* \"#utility.yul\":18280:18302   */\n      swap1\n      pop\n        /* \"#utility.yul\":18197:18308   */\n      swap2\n      swap1\n      pop\n      jump\t// out\n        /* \"#utility.yul\":18346:19040   */\n    tag_323:\n        /* \"#utility.yul\":18482:18534   */\n      tag_539\n        /* \"#utility.yul\":18528:18533   */\n      dup2\n        /* \"#utility.yul\":18482:18534   */\n      tag_317\n      jump\t// in\n    tag_539:\n        /* \"#utility.yul\":18550:18634   */\n      tag_540\n        /* \"#utility.yul\":18627:18633   */\n      dup2\n        /* \"#utility.yul\":18622:18625   */\n      dup5\n        /* \"#utility.yul\":18550:18634   */\n      tag_318\n      jump\t// in\n    tag_540:\n        /* \"#utility.yul\":18543:18634   */\n      swap3\n      pop\n        /* \"#utility.yul\":18658:18712   */\n      tag_541\n        /* \"#utility.yul\":18706:18711   */\n      dup3\n        /* \"#utility.yul\":18658:18712   */\n      tag_319\n      jump\t// in\n    tag_541:\n        /* \"#utility.yul\":18735:18742   */\n      dup1\n        /* \"#utility.yul\":18766:18767   */\n      0x00\n        /* \"#utility.yul\":18751:19033   */\n    tag_542:\n        /* \"#utility.yul\":18776:18782   */\n      dup4\n        /* \"#utility.yul\":18773:18774   */\n      dup2\n        /* \"#utility.yul\":18770:18783   */\n      lt\n        /* \"#utility.yul\":18751:19033   */\n      iszero\n      tag_544\n      jumpi\n        /* \"#utility.yul\":18852:18858   */\n      dup2\n        /* \"#utility.yul\":18846:18859   */\n      mload\n        /* \"#utility.yul\":18879:18942   */\n      tag_545\n        /* \"#utility.yul\":18938:18941   */\n      dup8\n        /* \"#utility.yul\":18923:18936   */\n      dup3\n        /* \"#utility.yul\":18879:18942   */\n      tag_321\n      jump\t// in\n    tag_545:\n        /* \"#utility.yul\":18872:18942   */\n      swap7\n      pop\n        /* \"#utility.yul\":18965:19023   */\n      tag_546\n        /* \"#utility.yul\":19016:19022   */\n      dup4\n        /* \"#utility.yul\":18965:19023   */\n      tag_322\n      jump\t// in\n    tag_546:\n        /* \"#utility.yul\":18955:19023   */\n      swap3\n      pop\n        /* \"#utility.yul\":18811:19033   */\n      pop\n        /* \"#utility.yul\":18798:18799   */\n      0x01\n        /* \"#utility.yul\":18795:18796   */\n      dup2\n        /* \"#utility.yul\":18791:18800   */\n      add\n        /* \"#utility.yul\":18786:18800   */\n      swap1\n      pop\n        /* \"#utility.yul\":18751:19033   */\n      jump(tag_542)\n    tag_544:\n        /* \"#utility.yul\":18755:18769   */\n      pop\n        /* \"#utility.yul\":18458:19040   */\n      pop\n      pop\n      pop\n        /* \"#utility.yul\":18346:19040   */\n      pop\n      pop\n      jump\t// out\n        /* \"#utility.yul\":19046:19360   */\n    tag_75:\n        /* \"#utility.yul\":19185:19189   */\n      0x00\n        /* \"#utility.yul\":19223:19225   */\n      0x60\n        /* \"#utility.yul\":19212:19221   */\n      dup3\n        /* \"#utility.yul\":19208:19226   */\n      add\n        /* \"#utility.yul\":19200:19226   */\n      swap1\n      pop\n        /* \"#utility.yul\":19236:19353   */\n      tag_548\n        /* \"#utility.yul\":19350:19351   */\n      0x00\n        /* \"#utility.yul\":19339:19348   */\n      dup4\n        /* \"#utility.yul\":19335:19352   */\n      add\n        /* \"#utility.yul\":19326:19332   */\n      dup5\n        /* \"#utility.yul\":19236:19353   */\n      tag_323\n      jump\t// in\n    tag_548:\n        /* \"#utility.yul\":19046:19360   */\n      swap3\n      swap2\n      pop\n      pop\n      jump\t// out\n        /* \"#utility.yul\":19366:19488   */\n    tag_324:\n        /* \"#utility.yul\":19439:19463   */\n      tag_550\n        /* \"#utility.yul\":19457:19462   */\n      dup2\n        /* \"#utility.yul\":19439:19463   */\n      tag_286\n      jump\t// in\n    tag_550:\n        /* \"#utility.yul\":19432:19437   */\n      dup2\n        /* \"#utility.yul\":19429:19464   */\n      eq\n        /* \"#utility.yul\":19419:19482   */\n      tag_551\n      jumpi\n        /* \"#utility.yul\":19478:19479   */\n      0x00\n        /* \"#utility.yul\":19475:19476   */\n      dup1\n        /* \"#utility.yul\":19468:19480   */\n      revert\n        /* \"#utility.yul\":19419:19482   */\n    tag_551:\n        /* \"#utility.yul\":19366:19488   */\n      pop\n      jump\t// out\n        /* \"#utility.yul\":19494:19633   */\n    tag_325:\n        /* \"#utility.yul\":19540:19545   */\n      0x00\n        /* \"#utility.yul\":19578:19584   */\n      dup2\n        /* \"#utility.yul\":19565:19585   */\n      calldataload\n        /* \"#utility.yul\":19556:19585   */\n      swap1\n      pop\n        /* \"#utility.yul\":19594:19627   */\n      tag_553\n        /* \"#utility.yul\":19621:19626   */\n      dup2\n        /* \"#utility.yul\":19594:19627   */\n      tag_324\n      jump\t// in\n    tag_553:\n        /* \"#utility.yul\":19494:19633   */\n      swap3\n      swap2\n      pop\n      pop\n      jump\t// out\n        /* \"#utility.yul\":19639:20113   */\n    tag_78:\n        /* \"#utility.yul\":19707:19713   */\n      0x00\n        /* \"#utility.yul\":19715:19721   */\n      dup1\n        /* \"#utility.yul\":19764:19766   */\n      0x40\n        /* \"#utility.yul\":19752:19761   */\n      dup4\n        /* \"#utility.yul\":19743:19750   */\n      dup6\n        /* \"#utility.yul\":19739:19762   */\n      sub\n        /* \"#utility.yul\":19735:19767   */\n      slt\n        /* \"#utility.yul\":19732:19851   */\n      iszero\n      tag_555\n      jumpi\n        /* \"#utility.yul\":19770:19849   */\n      tag_556\n      tag_269\n      jump\t// in\n    tag_556:\n        /* \"#utility.yul\":19732:19851   */\n    tag_555:\n        /* \"#utility.yul\":19890:19891   */\n      0x00\n        /* \"#utility.yul\":19915:19968   */\n      tag_557\n        /* \"#utility.yul\":19960:19967   */\n      dup6\n        /* \"#utility.yul\":19951:19957   */\n      dup3\n        /* \"#utility.yul\":19940:19949   */\n      dup7\n        /* \"#utility.yul\":19936:19958   */\n      add\n        /* \"#utility.yul\":19915:19968   */\n      tag_325\n      jump\t// in\n    tag_557:\n        /* \"#utility.yul\":19905:19968   */\n      swap3\n      pop\n        /* \"#utility.yul\":19861:19978   */\n      pop\n        /* \"#utility.yul\":20017:20019   */\n      0x20\n        /* \"#utility.yul\":20043:20096   */\n      tag_558\n        /* \"#utility.yul\":20088:20095   */\n      dup6\n        /* \"#utility.yul\":20079:20085   */\n      dup3\n        /* \"#utility.yul\":20068:20077   */\n      dup7\n        /* \"#utility.yul\":20064:20086   */\n      add\n        /* \"#utility.yul\":20043:20096   */\n      tag_325\n      jump\t// in\n    tag_558:\n        /* \"#utility.yul\":20033:20096   */\n      swap2\n      pop\n        /* \"#utility.yul\":19988:20106   */\n      pop\n        /* \"#utility.yul\":19639:20113   */\n      swap3\n      pop\n      swap3\n      swap1\n      pop\n      jump\t// out\n        /* \"#utility.yul\":20119:20738   */\n    tag_83:\n        /* \"#utility.yul\":20196:20202   */\n      0x00\n        /* \"#utility.yul\":20204:20210   */\n      dup1\n        /* \"#utility.yul\":20212:20218   */\n      0x00\n        /* \"#utility.yul\":20261:20263   */\n      0x60\n        /* \"#utility.yul\":20249:20258   */\n      dup5\n        /* \"#utility.yul\":20240:20247   */\n      dup7\n        /* \"#utility.yul\":20236:20259   */\n      sub\n        /* \"#utility.yul\":20232:20264   */\n      slt\n        /* \"#utility.yul\":20229:20348   */\n      iszero\n      tag_560\n      jumpi\n        /* \"#utility.yul\":20267:20346   */\n      tag_561\n      tag_269\n      jump\t// in\n    tag_561:\n        /* \"#utility.yul\":20229:20348   */\n    tag_560:\n        /* \"#utility.yul\":20387:20388   */\n      0x00\n        /* \"#utility.yul\":20412:20465   */\n      tag_562\n        /* \"#utility.yul\":20457:20464   */\n      dup7\n        /* \"#utility.yul\":20448:20454   */\n      dup3\n        /* \"#utility.yul\":20437:20446   */\n      dup8\n        /* \"#utility.yul\":20433:20455   */\n      add\n        /* \"#utility.yul\":20412:20465   */\n      tag_312\n      jump\t// in\n    tag_562:\n        /* \"#utility.yul\":20402:20465   */\n      swap4\n      pop\n        /* \"#utility.yul\":20358:20475   */\n      pop\n        /* \"#utility.yul\":20514:20516   */\n      0x20\n        /* \"#utility.yul\":20540:20593   */\n      tag_563\n        /* \"#utility.yul\":20585:20592   */\n      dup7\n        /* \"#utility.yul\":20576:20582   */\n      dup3\n        /* \"#utility.yul\":20565:20574   */\n      dup8\n        /* \"#utility.yul\":20561:20583   */\n      add\n        /* \"#utility.yul\":20540:20593   */\n      tag_312\n      jump\t// in\n    tag_563:\n        /* \"#utility.yul\":20530:20593   */\n      swap3\n      pop\n        /* \"#utility.yul\":20485:20603   */\n      pop\n        /* \"#utility.yul\":20642:20644   */\n      0x40\n        /* \"#utility.yul\":20668:20721   */\n      tag_564\n        /* \"#utility.yul\":20713:20720   */\n      dup7\n        /* \"#utility.yul\":20704:20710   */\n      dup3\n        /* \"#utility.yul\":20693:20702   */\n      dup8\n        /* \"#utility.yul\":20689:20711   */\n      add\n        /* \"#utility.yul\":20668:20721   */\n      tag_312\n      jump\t// in\n    tag_564:\n        /* \"#utility.yul\":20658:20721   */\n      swap2\n      pop\n        /* \"#utility.yul\":20613:20731   */\n      pop\n        /* \"#utility.yul\":20119:20738   */\n      swap3\n      pop\n      swap3\n      pop\n      swap3\n      jump\t// out\n        /* \"#utility.yul\":20744:21398   */\n    tag_89:\n        /* \"#utility.yul\":20822:20828   */\n      0x00\n        /* \"#utility.yul\":20830:20836   */\n      dup1\n        /* \"#utility.yul\":20879:20881   */\n      0x40\n        /* \"#utility.yul\":20867:20876   */\n      dup4\n        /* \"#utility.yul\":20858:20865   */\n      dup6\n        /* \"#utility.yul\":20854:20877   */\n      sub\n        /* \"#utility.yul\":20850:20882   */\n      slt\n        /* \"#utility.yul\":20847:20966   */\n      iszero\n      tag_566\n      jumpi\n        /* \"#utility.yul\":20885:20964   */\n      tag_567\n      tag_269\n      jump\t// in\n    tag_567:\n        /* \"#utility.yul\":20847:20966   */\n    tag_566:\n        /* \"#utility.yul\":21033:21034   */\n      0x00\n        /* \"#utility.yul\":21022:21031   */\n      dup4\n        /* \"#utility.yul\":21018:21035   */\n      add\n        /* \"#utility.yul\":21005:21036   */\n      calldataload\n        /* \"#utility.yul\":21063:21081   */\n      0xffffffffffffffff\n        /* \"#utility.yul\":21055:21061   */\n      dup2\n        /* \"#utility.yul\":21052:21082   */\n      gt\n        /* \"#utility.yul\":21049:21166   */\n      iszero\n      tag_568\n      jumpi\n        /* \"#utility.yul\":21085:21164   */\n      tag_569\n      tag_270\n      jump\t// in\n    tag_569:\n        /* \"#utility.yul\":21049:21166   */\n    tag_568:\n        /* \"#utility.yul\":21190:21253   */\n      tag_570\n        /* \"#utility.yul\":21245:21252   */\n      dup6\n        /* \"#utility.yul\":21236:21242   */\n      dup3\n        /* \"#utility.yul\":21225:21234   */\n      dup7\n        /* \"#utility.yul\":21221:21243   */\n      add\n        /* \"#utility.yul\":21190:21253   */\n      tag_308\n      jump\t// in\n    tag_570:\n        /* \"#utility.yul\":21180:21253   */\n      swap3\n      pop\n        /* \"#utility.yul\":20976:21263   */\n      pop\n        /* \"#utility.yul\":21302:21304   */\n      0x20\n        /* \"#utility.yul\":21328:21381   */\n      tag_571\n        /* \"#utility.yul\":21373:21380   */\n      dup6\n        /* \"#utility.yul\":21364:21370   */\n      dup3\n        /* \"#utility.yul\":21353:21362   */\n      dup7\n        /* \"#utility.yul\":21349:21371   */\n      add\n        /* \"#utility.yul\":21328:21381   */\n      tag_312\n      jump\t// in\n    tag_571:\n        /* \"#utility.yul\":21318:21381   */\n      swap2\n      pop\n        /* \"#utility.yul\":21273:21391   */\n      pop\n        /* \"#utility.yul\":20744:21398   */\n      swap3\n      pop\n      swap3\n      swap1\n      pop\n      jump\t// out\n        /* \"#utility.yul\":21404:21519   */\n    tag_326:\n        /* \"#utility.yul\":21489:21512   */\n      tag_573\n        /* \"#utility.yul\":21506:21511   */\n      dup2\n        /* \"#utility.yul\":21489:21512   */\n      tag_271\n      jump\t// in\n    tag_573:\n        /* \"#utility.yul\":21484:21487   */\n      dup3\n        /* \"#utility.yul\":21477:21513   */\n      mstore\n        /* \"#utility.yul\":21404:21519   */\n      pop\n      pop\n      jump\t// out\n        /* \"#utility.yul\":21525:22050   */\n    tag_92:\n        /* \"#utility.yul\":21690:21694   */\n      0x00\n        /* \"#utility.yul\":21728:21730   */\n      0x60\n        /* \"#utility.yul\":21717:21726   */\n      dup3\n        /* \"#utility.yul\":21713:21731   */\n      add\n        /* \"#utility.yul\":21705:21731   */\n      swap1\n      pop\n        /* \"#utility.yul\":21777:21786   */\n      dup2\n        /* \"#utility.yul\":21771:21775   */\n      dup2\n        /* \"#utility.yul\":21767:21787   */\n      sub\n        /* \"#utility.yul\":21763:21764   */\n      0x00\n        /* \"#utility.yul\":21752:21761   */\n      dup4\n        /* \"#utility.yul\":21748:21765   */\n      add\n        /* \"#utility.yul\":21741:21788   */\n      mstore\n        /* \"#utility.yul\":21805:21883   */\n      tag_575\n        /* \"#utility.yul\":21878:21882   */\n      dup2\n        /* \"#utility.yul\":21869:21875   */\n      dup7\n        /* \"#utility.yul\":21805:21883   */\n      tag_303\n      jump\t// in\n    tag_575:\n        /* \"#utility.yul\":21797:21883   */\n      swap1\n      pop\n        /* \"#utility.yul\":21893:21963   */\n      tag_576\n        /* \"#utility.yul\":21959:21961   */\n      0x20\n        /* \"#utility.yul\":21948:21957   */\n      dup4\n        /* \"#utility.yul\":21944:21962   */\n      add\n        /* \"#utility.yul\":21935:21941   */\n      dup6\n        /* \"#utility.yul\":21893:21963   */\n      tag_326\n      jump\t// in\n    tag_576:\n        /* \"#utility.yul\":21973:22043   */\n      tag_577\n        /* \"#utility.yul\":22039:22041   */\n      0x40\n        /* \"#utility.yul\":22028:22037   */\n      dup4\n        /* \"#utility.yul\":22024:22042   */\n      add\n        /* \"#utility.yul\":22015:22021   */\n      dup5\n        /* \"#utility.yul\":21973:22043   */\n      tag_326\n      jump\t// in\n    tag_577:\n        /* \"#utility.yul\":21525:22050   */\n      swap5\n      swap4\n      pop\n      pop\n      pop\n      pop\n      jump\t// out\n        /* \"#utility.yul\":22056:22367   */\n    tag_327:\n        /* \"#utility.yul\":22133:22137   */\n      0x00\n        /* \"#utility.yul\":22223:22241   */\n      0xffffffffffffffff\n        /* \"#utility.yul\":22215:22221   */\n      dup3\n        /* \"#utility.yul\":22212:22242   */\n      gt\n        /* \"#utility.yul\":22209:22265   */\n      iszero\n      tag_579\n      jumpi\n        /* \"#utility.yul\":22245:22263   */\n      tag_580\n      tag_276\n      jump\t// in\n    tag_580:\n        /* \"#utility.yul\":22209:22265   */\n    tag_579:\n        /* \"#utility.yul\":22295:22299   */\n      0x20\n        /* \"#utility.yul\":22287:22293   */\n      dup3\n        /* \"#utility.yul\":22283:22300   */\n      mul\n        /* \"#utility.yul\":22275:22300   */\n      swap1\n      pop\n        /* \"#utility.yul\":22355:22359   */\n      0x20\n        /* \"#utility.yul\":22349:22353   */\n      dup2\n        /* \"#utility.yul\":22345:22360   */\n      add\n        /* \"#utility.yul\":22337:22360   */\n      swap1\n      pop\n        /* \"#utility.yul\":22056:22367   */\n      swap2\n      swap1\n      pop\n      jump\t// out\n        /* \"#utility.yul\":22390:23100   */\n    tag_328:\n        /* \"#utility.yul\":22486:22491   */\n      0x00\n        /* \"#utility.yul\":22511:22592   */\n      tag_582\n        /* \"#utility.yul\":22527:22591   */\n      tag_583\n        /* \"#utility.yul\":22584:22590   */\n      dup5\n        /* \"#utility.yul\":22527:22591   */\n      tag_327\n      jump\t// in\n    tag_583:\n        /* \"#utility.yul\":22511:22592   */\n      tag_278\n      jump\t// in\n    tag_582:\n        /* \"#utility.yul\":22502:22592   */\n      swap1\n      pop\n        /* \"#utility.yul\":22612:22617   */\n      dup1\n        /* \"#utility.yul\":22641:22647   */\n      dup4\n        /* \"#utility.yul\":22634:22639   */\n      dup3\n        /* \"#utility.yul\":22627:22648   */\n      mstore\n        /* \"#utility.yul\":22675:22679   */\n      0x20\n        /* \"#utility.yul\":22668:22673   */\n      dup3\n        /* \"#utility.yul\":22664:22680   */\n      add\n        /* \"#utility.yul\":22657:22680   */\n      swap1\n      pop\n        /* \"#utility.yul\":22728:22732   */\n      0x20\n        /* \"#utility.yul\":22720:22726   */\n      dup5\n        /* \"#utility.yul\":22716:22733   */\n      mul\n        /* \"#utility.yul\":22708:22714   */\n      dup4\n        /* \"#utility.yul\":22704:22734   */\n      add\n        /* \"#utility.yul\":22757:22760   */\n      dup6\n        /* \"#utility.yul\":22749:22755   */\n      dup2\n        /* \"#utility.yul\":22746:22761   */\n      gt\n        /* \"#utility.yul\":22743:22865   */\n      iszero\n      tag_584\n      jumpi\n        /* \"#utility.yul\":22776:22855   */\n      tag_585\n      tag_280\n      jump\t// in\n    tag_585:\n        /* \"#utility.yul\":22743:22865   */\n    tag_584:\n        /* \"#utility.yul\":22891:22897   */\n      dup4\n        /* \"#utility.yul\":22874:23094   */\n    tag_586:\n        /* \"#utility.yul\":22908:22914   */\n      dup2\n        /* \"#utility.yul\":22903:22906   */\n      dup2\n        /* \"#utility.yul\":22900:22915   */\n      lt\n        /* \"#utility.yul\":22874:23094   */\n      iszero\n      tag_588\n      jumpi\n        /* \"#utility.yul\":22983:22986   */\n      dup1\n        /* \"#utility.yul\":23012:23049   */\n      tag_589\n        /* \"#utility.yul\":23045:23048   */\n      dup9\n        /* \"#utility.yul\":23033:23043   */\n      dup3\n        /* \"#utility.yul\":23012:23049   */\n      tag_312\n      jump\t// in\n    tag_589:\n        /* \"#utility.yul\":23007:23010   */\n      dup5\n        /* \"#utility.yul\":23000:23050   */\n      mstore\n        /* \"#utility.yul\":23079:23083   */\n      0x20\n        /* \"#utility.yul\":23074:23077   */\n      dup5\n        /* \"#utility.yul\":23070:23084   */\n      add\n        /* \"#utility.yul\":23063:23084   */\n      swap4\n      pop\n        /* \"#utility.yul\":22950:23094   */\n      pop\n        /* \"#utility.yul\":22934:22938   */\n      0x20\n        /* \"#utility.yul\":22929:22932   */\n      dup2\n        /* \"#utility.yul\":22925:22939   */\n      add\n        /* \"#utility.yul\":22918:22939   */\n      swap1\n      pop\n        /* \"#utility.yul\":22874:23094   */\n      jump(tag_586)\n    tag_588:\n        /* \"#utility.yul\":22878:22899   */\n      pop\n        /* \"#utility.yul\":22492:23100   */\n      pop\n      pop\n        /* \"#utility.yul\":22390:23100   */\n      swap4\n      swap3\n      pop\n      pop\n      pop\n      jump\t// out\n        /* \"#utility.yul\":23123:23493   */\n    tag_329:\n        /* \"#utility.yul\":23194:23199   */\n      0x00\n        /* \"#utility.yul\":23243:23246   */\n      dup3\n        /* \"#utility.yul\":23236:23240   */\n      0x1f\n        /* \"#utility.yul\":23228:23234   */\n      dup4\n        /* \"#utility.yul\":23224:23241   */\n      add\n        /* \"#utility.yul\":23220:23247   */\n      slt\n        /* \"#utility.yul\":23210:23332   */\n      tag_591\n      jumpi\n        /* \"#utility.yul\":23251:23330   */\n      tag_592\n      tag_274\n      jump\t// in\n    tag_592:\n        /* \"#utility.yul\":23210:23332   */\n    tag_591:\n        /* \"#utility.yul\":23368:23374   */\n      dup2\n        /* \"#utility.yul\":23355:23375   */\n      calldataload\n        /* \"#utility.yul\":23393:23487   */\n      tag_593\n        /* \"#utility.yul\":23483:23486   */\n      dup5\n        /* \"#utility.yul\":23475:23481   */\n      dup3\n        /* \"#utility.yul\":23468:23472   */\n      0x20\n        /* \"#utility.yul\":23460:23466   */\n      dup7\n        /* \"#utility.yul\":23456:23473   */\n      add\n        /* \"#utility.yul\":23393:23487   */\n      tag_328\n      jump\t// in\n    tag_593:\n        /* \"#utility.yul\":23384:23487   */\n      swap2\n      pop\n        /* \"#utility.yul\":23200:23493   */\n      pop\n        /* \"#utility.yul\":23123:23493   */\n      swap3\n      swap2\n      pop\n      pop\n      jump\t// out\n        /* \"#utility.yul\":23499:24038   */\n    tag_95:\n        /* \"#utility.yul\":23583:23589   */\n      0x00\n        /* \"#utility.yul\":23632:23634   */\n      0x20\n        /* \"#utility.yul\":23620:23629   */\n      dup3\n        /* \"#utility.yul\":23611:23618   */\n      dup5\n        /* \"#utility.yul\":23607:23630   */\n      sub\n        /* \"#utility.yul\":23603:23635   */\n      slt\n        /* \"#utility.yul\":23600:23719   */\n      iszero\n      tag_595\n      jumpi\n        /* \"#utility.yul\":23638:23717   */\n      tag_596\n      tag_269\n      jump\t// in\n    tag_596:\n        /* \"#utility.yul\":23600:23719   */\n    tag_595:\n        /* \"#utility.yul\":23786:23787   */\n      0x00\n        /* \"#utility.yul\":23775:23784   */\n      dup3\n        /* \"#utility.yul\":23771:23788   */\n      add\n        /* \"#utility.yul\":23758:23789   */\n      calldataload\n        /* \"#utility.yul\":23816:23834   */\n      0xffffffffffffffff\n        /* \"#utility.yul\":23808:23814   */\n      dup2\n        /* \"#utility.yul\":23805:23835   */\n      gt\n        /* \"#utility.yul\":23802:23919   */\n      iszero\n      tag_597\n      jumpi\n        /* \"#utility.yul\":23838:23917   */\n      tag_598\n      tag_270\n      jump\t// in\n    tag_598:\n        /* \"#utility.yul\":23802:23919   */\n    tag_597:\n        /* \"#utility.yul\":23943:24021   */\n      tag_599\n        /* \"#utility.yul\":24013:24020   */\n      dup5\n        /* \"#utility.yul\":24004:24010   */\n      dup3\n        /* \"#utility.yul\":23993:24002   */\n      dup6\n        /* \"#utility.yul\":23989:24011   */\n      add\n        /* \"#utility.yul\":23943:24021   */\n      tag_329\n      jump\t// in\n    tag_599:\n        /* \"#utility.yul\":23933:24021   */\n      swap2\n      pop\n        /* \"#utility.yul\":23729:24031   */\n      pop\n        /* \"#utility.yul\":23499:24038   */\n      swap3\n      swap2\n      pop\n      pop\n      jump\t// out\n        /* \"#utility.yul\":24044:24162   */\n    tag_330:\n        /* \"#utility.yul\":24131:24155   */\n      tag_601\n        /* \"#utility.yul\":24149:24154   */\n      dup2\n        /* \"#utility.yul\":24131:24155   */\n      tag_310\n      jump\t// in\n    tag_601:\n        /* \"#utility.yul\":24126:24129   */\n      dup3\n        /* \"#utility.yul\":24119:24156   */\n      mstore\n        /* \"#utility.yul\":24044:24162   */\n      pop\n      pop\n      jump\t// out\n        /* \"#utility.yul\":24168:24390   */\n    tag_98:\n        /* \"#utility.yul\":24261:24265   */\n      0x00\n        /* \"#utility.yul\":24299:24301   */\n      0x20\n        /* \"#utility.yul\":24288:24297   */\n      dup3\n        /* \"#utility.yul\":24284:24302   */\n      add\n        /* \"#utility.yul\":24276:24302   */\n      swap1\n      pop\n        /* \"#utility.yul\":24312:24383   */\n      tag_603\n        /* \"#utility.yul\":24380:24381   */\n      0x00\n        /* \"#utility.yul\":24369:24378   */\n      dup4\n        /* \"#utility.yul\":24365:24382   */\n      add\n        /* \"#utility.yul\":24356:24362   */\n      dup5\n        /* \"#utility.yul\":24312:24383   */\n      tag_330\n      jump\t// in\n    tag_603:\n        /* \"#utility.yul\":24168:24390   */\n      swap3\n      swap2\n      pop\n      pop\n      jump\t// out\n        /* \"#utility.yul\":24396:24504   */\n    tag_331:\n        /* \"#utility.yul\":24478:24479   */\n      0x03\n        /* \"#utility.yul\":24471:24476   */\n      dup2\n        /* \"#utility.yul\":24468:24480   */\n      lt\n        /* \"#utility.yul\":24458:24498   */\n      tag_605\n      jumpi\n        /* \"#utility.yul\":24494:24495   */\n      0x00\n        /* \"#utility.yul\":24491:24492   */\n      dup1\n        /* \"#utility.yul\":24484:24496   */\n      revert\n        /* \"#utility.yul\":24458:24498   */\n    tag_605:\n        /* \"#utility.yul\":24396:24504   */\n      pop\n      jump\t// out\n        /* \"#utility.yul\":24510:24667   */\n    tag_332:\n        /* \"#utility.yul\":24565:24570   */\n      0x00\n        /* \"#utility.yul\":24603:24609   */\n      dup2\n        /* \"#utility.yul\":24590:24610   */\n      calldataload\n        /* \"#utility.yul\":24581:24610   */\n      swap1\n      pop\n        /* \"#utility.yul\":24619:24661   */\n      tag_607\n        /* \"#utility.yul\":24655:24660   */\n      dup2\n        /* \"#utility.yul\":24619:24661   */\n      tag_331\n      jump\t// in\n    tag_607:\n        /* \"#utility.yul\":24510:24667   */\n      swap3\n      swap2\n      pop\n      pop\n      jump\t// out\n        /* \"#utility.yul\":24673:25020   */\n    tag_101:\n        /* \"#utility.yul\":24741:24747   */\n      0x00\n        /* \"#utility.yul\":24790:24792   */\n      0x20\n        /* \"#utility.yul\":24778:24787   */\n      dup3\n        /* \"#utility.yul\":24769:24776   */\n      dup5\n        /* \"#utility.yul\":24765:24788   */\n      sub\n        /* \"#utility.yul\":24761:24793   */\n      slt\n        /* \"#utility.yul\":24758:24877   */\n      iszero\n      tag_609\n      jumpi\n        /* \"#utility.yul\":24796:24875   */\n      tag_610\n      tag_269\n      jump\t// in\n    tag_610:\n        /* \"#utility.yul\":24758:24877   */\n    tag_609:\n        /* \"#utility.yul\":24916:24917   */\n      0x00\n        /* \"#utility.yul\":24941:25003   */\n      tag_611\n        /* \"#utility.yul\":24995:25002   */\n      dup5\n        /* \"#utility.yul\":24986:24992   */\n      dup3\n        /* \"#utility.yul\":24975:24984   */\n      dup6\n        /* \"#utility.yul\":24971:24993   */\n      add\n        /* \"#utility.yul\":24941:25003   */\n      tag_332\n      jump\t// in\n    tag_611:\n        /* \"#utility.yul\":24931:25003   */\n      swap2\n      pop\n        /* \"#utility.yul\":24887:25013   */\n      pop\n        /* \"#utility.yul\":24673:25020   */\n      swap3\n      swap2\n      pop\n      pop\n      jump\t// out\n        /* \"#utility.yul\":25026:25355   */\n    tag_105:\n        /* \"#utility.yul\":25085:25091   */\n      0x00\n        /* \"#utility.yul\":25134:25136   */\n      0x20\n        /* \"#utility.yul\":25122:25131   */\n      dup3\n        /* \"#utility.yul\":25113:25120   */\n      dup5\n        /* \"#utility.yul\":25109:25132   */\n      sub\n        /* \"#utility.yul\":25105:25137   */\n      slt\n        /* \"#utility.yul\":25102:25221   */\n      iszero\n      tag_613\n      jumpi\n        /* \"#utility.yul\":25140:25219   */\n      tag_614\n      tag_269\n      jump\t// in\n    tag_614:\n        /* \"#utility.yul\":25102:25221   */\n    tag_613:\n        /* \"#utility.yul\":25260:25261   */\n      0x00\n        /* \"#utility.yul\":25285:25338   */\n      tag_615\n        /* \"#utility.yul\":25330:25337   */\n      dup5\n        /* \"#utility.yul\":25321:25327   */\n      dup3\n        /* \"#utility.yul\":25310:25319   */\n      dup6\n        /* \"#utility.yul\":25306:25328   */\n      add\n        /* \"#utility.yul\":25285:25338   */\n      tag_325\n      jump\t// in\n    tag_615:\n        /* \"#utility.yul\":25275:25338   */\n      swap2\n      pop\n        /* \"#utility.yul\":25231:25348   */\n      pop\n        /* \"#utility.yul\":25026:25355   */\n      swap3\n      swap2\n      pop\n      pop\n      jump\t// out\n        /* \"#utility.yul\":25361:25541   */\n    tag_117:\n        /* \"#utility.yul\":25409:25486   */\n      0x4e487b7100000000000000000000000000000000000000000000000000000000\n        /* \"#utility.yul\":25406:25407   */\n      0x00\n        /* \"#utility.yul\":25399:25487   */\n      mstore\n        /* \"#utility.yul\":25506:25510   */\n      0x32\n        /* \"#utility.yul\":25503:25504   */\n      0x04\n        /* \"#utility.yul\":25496:25511   */\n      mstore\n        /* \"#utility.yul\":25530:25534   */\n      0x24\n        /* \"#utility.yul\":25527:25528   */\n      0x00\n        /* \"#utility.yul\":25520:25535   */\n      revert\n        /* \"#utility.yul\":25547:25727   */\n    tag_333:\n        /* \"#utility.yul\":25595:25672   */\n      0x4e487b7100000000000000000000000000000000000000000000000000000000\n        /* \"#utility.yul\":25592:25593   */\n      0x00\n        /* \"#utility.yul\":25585:25673   */\n      mstore\n        /* \"#utility.yul\":25692:25696   */\n      0x11\n        /* \"#utility.yul\":25689:25690   */\n      0x04\n        /* \"#utility.yul\":25682:25697   */\n      mstore\n        /* \"#utility.yul\":25716:25720   */\n      0x24\n        /* \"#utility.yul\":25713:25714   */\n      0x00\n        /* \"#utility.yul\":25706:25721   */\n      revert\n        /* \"#utility.yul\":25733:25966   */\n    tag_120:\n        /* \"#utility.yul\":25772:25775   */\n      0x00\n        /* \"#utility.yul\":25795:25819   */\n      tag_619\n        /* \"#utility.yul\":25813:25818   */\n      dup3\n        /* \"#utility.yul\":25795:25819   */\n      tag_310\n      jump\t// in\n    tag_619:\n        /* \"#utility.yul\":25786:25819   */\n      swap2\n      pop\n        /* \"#utility.yul\":25841:25907   */\n      0xffffffffffffffffffffffffffffffffffffffffffffffffffffffffffffffff\n        /* \"#utility.yul\":25834:25839   */\n      dup3\n        /* \"#utility.yul\":25831:25908   */\n      sub\n        /* \"#utility.yul\":25828:25931   */\n      tag_620\n      jumpi\n        /* \"#utility.yul\":25911:25929   */\n      tag_621\n      tag_333\n      jump\t// in\n    tag_621:\n        /* \"#utility.yul\":25828:25931   */\n    tag_620:\n        /* \"#utility.yul\":25958:25959   */\n      0x01\n        /* \"#utility.yul\":25951:25956   */\n      dup3\n        /* \"#utility.yul\":25947:25960   */\n      add\n        /* \"#utility.yul\":25940:25960   */\n      swap1\n      pop\n        /* \"#utility.yul\":25733:25966   */\n      swap2\n      swap1\n      pop\n      jump\t// out\n        /* \"#utility.yul\":25972:26120   */\n    tag_334:\n        /* \"#utility.yul\":26074:26085   */\n      0x00\n        /* \"#utility.yul\":26111:26114   */\n      dup2\n        /* \"#utility.yul\":26096:26114   */\n      swap1\n      pop\n        /* \"#utility.yul\":25972:26120   */\n      swap3\n      swap2\n      pop\n      pop\n      jump\t// out\n        /* \"#utility.yul\":26126:26284   */\n    tag_335:\n        /* \"#utility.yul\":26266:26276   */\n      0x73747564656e7473000000000000000000000000000000000000000000000000\n        /* \"#utility.yul\":26262:26263   */\n      0x00\n        /* \"#utility.yul\":26254:26260   */\n      dup3\n        /* \"#utility.yul\":26250:26264   */\n      add\n        /* \"#utility.yul\":26243:26277   */\n      mstore\n        /* \"#utility.yul\":26126:26284   */\n      pop\n      jump\t// out\n        /* \"#utility.yul\":26290:26690   */\n    tag_336:\n        /* \"#utility.yul\":26450:26453   */\n      0x00\n        /* \"#utility.yul\":26471:26555   */\n      tag_625\n        /* \"#utility.yul\":26553:26554   */\n      0x08\n        /* \"#utility.yul\":26548:26551   */\n      dup4\n        /* \"#utility.yul\":26471:26555   */\n      tag_334\n      jump\t// in\n    tag_625:\n        /* \"#utility.yul\":26464:26555   */\n      swap2\n      pop\n        /* \"#utility.yul\":26564:26657   */\n      tag_626\n        /* \"#utility.yul\":26653:26656   */\n      dup3\n        /* \"#utility.yul\":26564:26657   */\n      tag_335\n      jump\t// in\n    tag_626:\n        /* \"#utility.yul\":26682:26683   */\n      0x08\n        /* \"#utility.yul\":26677:26680   */\n      dup3\n        /* \"#utility.yul\":26673:26684   */\n      add\n        /* \"#utility.yul\":26666:26684   */\n      swap1\n      pop\n        /* \"#utility.yul\":26290:26690   */\n      swap2\n      swap1\n      pop\n      jump\t// out\n        /* \"#utility.yul\":26696:27077   */\n    tag_150:\n        /* \"#utility.yul\":26881:26884   */\n      0x00\n        /* \"#utility.yul\":26903:27051   */\n      tag_628\n        /* \"#utility.yul\":27047:27050   */\n      dup3\n        /* \"#utility.yul\":26903:27051   */\n      tag_336\n      jump\t// in\n    tag_628:\n        /* \"#utility.yul\":26896:27051   */\n      swap2\n      pop\n        /* \"#utility.yul\":27068:27071   */\n      dup2\n        /* \"#utility.yul\":27061:27071   */\n      swap1\n      pop\n        /* \"#utility.yul\":26696:27077   */\n      swap2\n      swap1\n      pop\n      jump\t// out\n        /* \"#utility.yul\":27083:27263   */\n    tag_337:\n        /* \"#utility.yul\":27131:27208   */\n      0x4e487b7100000000000000000000000000000000000000000000000000000000\n        /* \"#utility.yul\":27128:27129   */\n      0x00\n        /* \"#utility.yul\":27121:27209   */\n      mstore\n        /* \"#utility.yul\":27228:27232   */\n      0x22\n        /* \"#utility.yul\":27225:27226   */\n      0x04\n        /* \"#utility.yul\":27218:27233   */\n      mstore\n        /* \"#utility.yul\":27252:27256   */\n      0x24\n        /* \"#utility.yul\":27249:27250   */\n      0x00\n        /* \"#utility.yul\":27242:27257   */\n      revert\n        /* \"#utility.yul\":27269:27589   */\n    tag_155:\n        /* \"#utility.yul\":27313:27319   */\n      0x00\n        /* \"#utility.yul\":27350:27351   */\n      0x02\n        /* \"#utility.yul\":27344:27348   */\n      dup3\n        /* \"#utility.yul\":27340:27352   */\n      div\n        /* \"#utility.yul\":27330:27352   */\n      swap1\n      pop\n        /* \"#utility.yul\":27397:27398   */\n      0x01\n        /* \"#utility.yul\":27391:27395   */\n      dup3\n        /* \"#utility.yul\":27387:27399   */\n      and\n        /* \"#utility.yul\":27418:27436   */\n      dup1\n        /* \"#utility.yul\":27408:27489   */\n      tag_631\n      jumpi\n        /* \"#utility.yul\":27474:27478   */\n      0x7f\n        /* \"#utility.yul\":27466:27472   */\n      dup3\n        /* \"#utility.yul\":27462:27479   */\n      and\n        /* \"#utility.yul\":27452:27479   */\n      swap2\n      pop\n        /* \"#utility.yul\":27408:27489   */\n    tag_631:\n        /* \"#utility.yul\":27536:27538   */\n      0x20\n        /* \"#utility.yul\":27528:27534   */\n      dup3\n        /* \"#utility.yul\":27525:27539   */\n      lt\n        /* \"#utility.yul\":27505:27523   */\n      dup2\n        /* \"#utility.yul\":27502:27540   */\n      sub\n        /* \"#utility.yul\":27499:27583   */\n      tag_632\n      jumpi\n        /* \"#utility.yul\":27555:27573   */\n      tag_633\n      tag_337\n      jump\t// in\n    tag_633:\n        /* \"#utility.yul\":27499:27583   */\n    tag_632:\n        /* \"#utility.yul\":27320:27589   */\n      pop\n        /* \"#utility.yul\":27269:27589   */\n      swap2\n      swap1\n      pop\n      jump\t// out\n        /* \"#utility.yul\":27619:27949   */\n    tag_338:\n        /* \"#utility.yul\":27735:27738   */\n      0x00\n        /* \"#utility.yul\":27756:27845   */\n      tag_635\n        /* \"#utility.yul\":27838:27844   */\n      dup4\n        /* \"#utility.yul\":27833:27836   */\n      dup6\n        /* \"#utility.yul\":27756:27845   */\n      tag_334\n      jump\t// in\n    tag_635:\n        /* \"#utility.yul\":27749:27845   */\n      swap4\n      pop\n        /* \"#utility.yul\":27855:27911   */\n      tag_636\n        /* \"#utility.yul\":27904:27910   */\n      dup4\n        /* \"#utility.yul\":27899:27902   */\n      dup6\n        /* \"#utility.yul\":27892:27897   */\n      dup5\n        /* \"#utility.yul\":27855:27911   */\n      tag_306\n      jump\t// in\n    tag_636:\n        /* \"#utility.yul\":27936:27942   */\n      dup3\n        /* \"#utility.yul\":27931:27934   */\n      dup5\n        /* \"#utility.yul\":27927:27943   */\n      add\n        /* \"#utility.yul\":27920:27943   */\n      swap1\n      pop\n        /* \"#utility.yul\":27619:27949   */\n      swap4\n      swap3\n      pop\n      pop\n      pop\n      jump\t// out\n        /* \"#utility.yul\":27955:28430   */\n    tag_162:\n        /* \"#utility.yul\":28155:28158   */\n      0x00\n        /* \"#utility.yul\":28177:28282   */\n      tag_638\n        /* \"#utility.yul\":28278:28281   */\n      dup3\n        /* \"#utility.yul\":28269:28275   */\n      dup7\n        /* \"#utility.yul\":28261:28267   */\n      dup9\n        /* \"#utility.yul\":28177:28282   */\n      tag_338\n      jump\t// in\n    tag_638:\n        /* \"#utility.yul\":28170:28282   */\n      swap2\n      pop\n        /* \"#utility.yul\":28299:28404   */\n      tag_639\n        /* \"#utility.yul\":28400:28403   */\n      dup3\n        /* \"#utility.yul\":28391:28397   */\n      dup5\n        /* \"#utility.yul\":28383:28389   */\n      dup7\n        /* \"#utility.yul\":28299:28404   */\n      tag_338\n      jump\t// in\n    tag_639:\n        /* \"#utility.yul\":28292:28404   */\n      swap2\n      pop\n        /* \"#utility.yul\":28421:28424   */\n      dup2\n        /* \"#utility.yul\":28414:28424   */\n      swap1\n      pop\n        /* \"#utility.yul\":27955:28430   */\n      swap6\n      swap5\n      pop\n      pop\n      pop\n      pop\n      pop\n      jump\t// out\n        /* \"#utility.yul\":28436:28577   */\n    tag_339:\n        /* \"#utility.yul\":28485:28489   */\n      0x00\n        /* \"#utility.yul\":28508:28511   */\n      dup2\n        /* \"#utility.yul\":28500:28511   */\n      swap1\n      pop\n        /* \"#utility.yul\":28531:28534   */\n      dup2\n        /* \"#utility.yul\":28528:28529   */\n      0x00\n        /* \"#utility.yul\":28521:28535   */\n      mstore\n        /* \"#utility.yul\":28565:28569   */\n      0x20\n        /* \"#utility.yul\":28562:28563   */\n      0x00\n        /* \"#utility.yul\":28552:28570   */\n      keccak256\n        /* \"#utility.yul\":28544:28570   */\n      swap1\n      pop\n        /* \"#utility.yul\":28436:28577   */\n      swap2\n      swap1\n      pop\n      jump\t// out\n        /* \"#utility.yul\":28583:28676   */\n    tag_340:\n        /* \"#utility.yul\":28620:28626   */\n      0x00\n        /* \"#utility.yul\":28667:28669   */\n      0x20\n        /* \"#utility.yul\":28662:28664   */\n      0x1f\n        /* \"#utility.yul\":28655:28660   */\n      dup4\n        /* \"#utility.yul\":28651:28665   */\n      add\n        /* \"#utility.yul\":28647:28670   */\n      div\n        /* \"#utility.yul\":28637:28670   */\n      swap1\n      pop\n        /* \"#utility.yul\":28583:28676   */\n      swap2\n      swap1\n      pop\n      jump\t// out\n        /* \"#utility.yul\":28682:28789   */\n    tag_341:\n        /* \"#utility.yul\":28726:28734   */\n      0x00\n        /* \"#utility.yul\":28776:28781   */\n      dup3\n        /* \"#utility.yul\":28770:28774   */\n      dup3\n        /* \"#utility.yul\":28766:28782   */\n      shl\n        /* \"#utility.yul\":28745:28782   */\n      swap1\n      pop\n        /* \"#utility.yul\":28682:28789   */\n      swap3\n      swap2\n      pop\n      pop\n      jump\t// out\n        /* \"#utility.yul\":28795:29188   */\n    tag_342:\n        /* \"#utility.yul\":28864:28870   */\n      0x00\n        /* \"#utility.yul\":28914:28915   */\n      0x08\n        /* \"#utility.yul\":28902:28912   */\n      dup4\n        /* \"#utility.yul\":28898:28916   */\n      mul\n        /* \"#utility.yul\":28937:29034   */\n      tag_644\n        /* \"#utility.yul\":28967:29033   */\n      0xffffffffffffffffffffffffffffffffffffffffffffffffffffffffffffffff\n        /* \"#utility.yul\":28956:28965   */\n      dup3\n        /* \"#utility.yul\":28937:29034   */\n      tag_341\n      jump\t// in\n    tag_644:\n        /* \"#utility.yul\":29055:29094   */\n      tag_645\n        /* \"#utility.yul\":29085:29093   */\n      dup7\n        /* \"#utility.yul\":29074:29083   */\n      dup4\n        /* \"#utility.yul\":29055:29094   */\n      tag_341\n      jump\t// in\n    tag_645:\n        /* \"#utility.yul\":29043:29094   */\n      swap6\n      pop\n        /* \"#utility.yul\":29127:29131   */\n      dup1\n        /* \"#utility.yul\":29123:29132   */\n      not\n        /* \"#utility.yul\":29116:29121   */\n      dup5\n        /* \"#utility.yul\":29112:29133   */\n      and\n        /* \"#utility.yul\":29103:29133   */\n      swap4\n      pop\n        /* \"#utility.yul\":29176:29180   */\n      dup1\n        /* \"#utility.yul\":29166:29174   */\n      dup7\n        /* \"#utility.yul\":29162:29181   */\n      and\n        /* \"#utility.yul\":29155:29160   */\n      dup5\n        /* \"#utility.yul\":29152:29182   */\n      or\n        /* \"#utility.yul\":29142:29182   */\n      swap3\n      pop\n        /* \"#utility.yul\":28871:29188   */\n      pop\n      pop\n        /* \"#utility.yul\":28795:29188   */\n      swap4\n      swap3\n      pop\n      pop\n      pop\n      jump\t// out\n        /* \"#utility.yul\":29194:29254   */\n    tag_343:\n        /* \"#utility.yul\":29222:29225   */\n      0x00\n        /* \"#utility.yul\":29243:29248   */\n      dup2\n        /* \"#utility.yul\":29236:29248   */\n      swap1\n      pop\n        /* \"#utility.yul\":29194:29254   */\n      swap2\n      swap1\n      pop\n      jump\t// out\n        /* \"#utility.yul\":29260:29402   */\n    tag_344:\n        /* \"#utility.yul\":29310:29319   */\n      0x00\n        /* \"#utility.yul\":29343:29396   */\n      tag_648\n        /* \"#utility.yul\":29361:29395   */\n      tag_649\n        /* \"#utility.yul\":29370:29394   */\n      tag_650\n        /* \"#utility.yul\":29388:29393   */\n      dup5\n        /* \"#utility.yul\":29370:29394   */\n      tag_310\n      jump\t// in\n    tag_650:\n        /* \"#utility.yul\":29361:29395   */\n      tag_343\n      jump\t// in\n    tag_649:\n        /* \"#utility.yul\":29343:29396   */\n      tag_310\n      jump\t// in\n    tag_648:\n        /* \"#utility.yul\":29330:29396   */\n      swap1\n      pop\n        /* \"#utility.yul\":29260:29402   */\n      swap2\n      swap1\n      pop\n      jump\t// out\n        /* \"#utility.yul\":29408:29483   */\n    tag_345:\n        /* \"#utility.yul\":29451:29454   */\n      0x00\n        /* \"#utility.yul\":29472:29477   */\n      dup2\n        /* \"#utility.yul\":29465:29477   */\n      swap1\n      pop\n        /* \"#utility.yul\":29408:29483   */\n      swap2\n      swap1\n      pop\n      jump\t// out\n        /* \"#utility.yul\":29489:29758   */\n    tag_346:\n        /* \"#utility.yul\":29599:29638   */\n      tag_653\n        /* \"#utility.yul\":29630:29637   */\n      dup4\n        /* \"#utility.yul\":29599:29638   */\n      tag_344\n      jump\t// in\n    tag_653:\n        /* \"#utility.yul\":29660:29751   */\n      tag_654\n        /* \"#utility.yul\":29709:29750   */\n      tag_655\n        /* \"#utility.yul\":29733:29749   */\n      dup3\n        /* \"#utility.yul\":29709:29750   */\n      tag_345\n      jump\t// in\n    tag_655:\n        /* \"#utility.yul\":29701:29707   */\n      dup5\n        /* \"#utility.yul\":29694:29698   */\n      dup5\n        /* \"#utility.yul\":29688:29699   */\n      sload\n        /* \"#utility.yul\":29660:29751   */\n      tag_342\n      jump\t// in\n    tag_654:\n        /* \"#utility.yul\":29654:29658   */\n      dup3\n        /* \"#utility.yul\":29647:29752   */\n      sstore\n        /* \"#utility.yul\":29565:29758   */\n      pop\n        /* \"#utility.yul\":29489:29758   */\n      pop\n      pop\n      pop\n      jump\t// out\n        /* \"#utility.yul\":29764:29837   */\n    tag_347:\n        /* \"#utility.yul\":29809:29812   */\n      0x00\n        /* \"#utility.yul\":29764:29837   */\n      swap1\n      jump\t// out\n        /* \"#utility.yul\":29843:30032   */\n    tag_348:\n        /* \"#utility.yul\":29920:29952   */\n      tag_658\n      tag_347\n      jump\t// in\n    tag_658:\n        /* \"#utility.yul\":29961:30026   */\n      tag_659\n        /* \"#utility.yul\":30019:30025   */\n      dup2\n        /* \"#utility.yul\":30011:30017   */\n      dup5\n        /* \"#utility.yul\":30005:30009   */\n      dup5\n        /* \"#utility.yul\":29961:30026   */\n      tag_346\n      jump\t// in\n    tag_659:\n        /* \"#utility.yul\":29896:30032   */\n      pop\n        /* \"#utility.yul\":29843:30032   */\n      pop\n      pop\n      jump\t// out\n        /* \"#utility.yul\":30038:30224   */\n    tag_349:\n        /* \"#utility.yul\":30098:30218   */\n    tag_661:\n        /* \"#utility.yul\":30115:30118   */\n      dup2\n        /* \"#utility.yul\":30108:30113   */\n      dup2\n        /* \"#utility.yul\":30105:30119   */\n      lt\n        /* \"#utility.yul\":30098:30218   */\n      iszero\n      tag_663\n      jumpi\n        /* \"#utility.yul\":30169:30208   */\n      tag_664\n        /* \"#utility.yul\":30206:30207   */\n      0x00\n        /* \"#utility.yul\":30199:30204   */\n      dup3\n        /* \"#utility.yul\":30169:30208   */\n      tag_348\n      jump\t// in\n    tag_664:\n        /* \"#utility.yul\":30142:30143   */\n      0x01\n        /* \"#utility.yul\":30135:30140   */\n      dup2\n        /* \"#utility.yul\":30131:30144   */\n      add\n        /* \"#utility.yul\":30122:30144   */\n      swap1\n      pop\n        /* \"#utility.yul\":30098:30218   */\n      jump(tag_661)\n    tag_663:\n        /* \"#utility.yul\":30038:30224   */\n      pop\n      pop\n      jump\t// out\n        /* \"#utility.yul\":30230:30773   */\n    tag_350:\n        /* \"#utility.yul\":30331:30333   */\n      0x1f\n        /* \"#utility.yul\":30326:30329   */\n      dup3\n        /* \"#utility.yul\":30323:30334   */\n      gt\n        /* \"#utility.yul\":30320:30766   */\n      iszero\n      tag_666\n      jumpi\n        /* \"#utility.yul\":30365:30403   */\n      tag_667\n        /* \"#utility.yul\":30397:30402   */\n      dup2\n        /* \"#utility.yul\":30365:30403   */\n      tag_339\n      jump\t// in\n    tag_667:\n        /* \"#utility.yul\":30449:30478   */\n      tag_668\n        /* \"#utility.yul\":30467:30477   */\n      dup5\n        /* \"#utility.yul\":30449:30478   */\n      tag_340\n      jump\t// in\n    tag_668:\n        /* \"#utility.yul\":30439:30447   */\n      dup2\n        /* \"#utility.yul\":30435:30479   */\n      add\n        /* \"#utility.yul\":30632:30634   */\n      0x20\n        /* \"#utility.yul\":30620:30630   */\n      dup6\n        /* \"#utility.yul\":30617:30635   */\n      lt\n        /* \"#utility.yul\":30614:30663   */\n      iszero\n      tag_669\n      jumpi\n        /* \"#utility.yul\":30653:30661   */\n      dup2\n        /* \"#utility.yul\":30638:30661   */\n      swap1\n      pop\n        /* \"#utility.yul\":30614:30663   */\n    tag_669:\n        /* \"#utility.yul\":30676:30756   */\n      tag_670\n        /* \"#utility.yul\":30732:30754   */\n      tag_671\n        /* \"#utility.yul\":30750:30753   */\n      dup6\n        /* \"#utility.yul\":30732:30754   */\n      tag_340\n      jump\t// in\n    tag_671:\n        /* \"#utility.yul\":30722:30730   */\n      dup4\n        /* \"#utility.yul\":30718:30755   */\n      add\n        /* \"#utility.yul\":30705:30716   */\n      dup3\n        /* \"#utility.yul\":30676:30756   */\n      tag_349\n      jump\t// in\n    tag_670:\n        /* \"#utility.yul\":30335:30766   */\n      pop\n      pop\n        /* \"#utility.yul\":30320:30766   */\n    tag_666:\n        /* \"#utility.yul\":30230:30773   */\n      pop\n      pop\n      pop\n      jump\t// out\n        /* \"#utility.yul\":30779:30896   */\n    tag_351:\n        /* \"#utility.yul\":30833:30841   */\n      0x00\n        /* \"#utility.yul\":30883:30888   */\n      dup3\n        /* \"#utility.yul\":30877:30881   */\n      dup3\n        /* \"#utility.yul\":30873:30889   */\n      shr\n        /* \"#utility.yul\":30852:30889   */\n      swap1\n      pop\n        /* \"#utility.yul\":30779:30896   */\n      swap3\n      swap2\n      pop\n      pop\n      jump\t// out\n        /* \"#utility.yul\":30902:31071   */\n    tag_352:\n        /* \"#utility.yul\":30946:30952   */\n      0x00\n        /* \"#utility.yul\":30979:31030   */\n      tag_674\n        /* \"#utility.yul\":31027:31028   */\n      0x00\n        /* \"#utility.yul\":31023:31029   */\n      not\n        /* \"#utility.yul\":31015:31020   */\n      dup5\n        /* \"#utility.yul\":31012:31013   */\n      0x08\n        /* \"#utility.yul\":31008:31021   */\n      mul\n        /* \"#utility.yul\":30979:31030   */\n      tag_351\n      jump\t// in\n    tag_674:\n        /* \"#utility.yul\":30975:31031   */\n      not\n        /* \"#utility.yul\":31060:31064   */\n      dup1\n        /* \"#utility.yul\":31054:31058   */\n      dup4\n        /* \"#utility.yul\":31050:31065   */\n      and\n        /* \"#utility.yul\":31040:31065   */\n      swap2\n      pop\n        /* \"#utility.yul\":30953:31071   */\n      pop\n        /* \"#utility.yul\":30902:31071   */\n      swap3\n      swap2\n      pop\n      pop\n      jump\t// out\n        /* \"#utility.yul\":31076:31371   */\n    tag_353:\n        /* \"#utility.yul\":31152:31156   */\n      0x00\n        /* \"#utility.yul\":31298:31327   */\n      tag_676\n        /* \"#utility.yul\":31323:31326   */\n      dup4\n        /* \"#utility.yul\":31317:31321   */\n      dup4\n        /* \"#utility.yul\":31298:31327   */\n      tag_352\n      jump\t// in\n    tag_676:\n        /* \"#utility.yul\":31290:31327   */\n      swap2\n      pop\n        /* \"#utility.yul\":31360:31363   */\n      dup3\n        /* \"#utility.yul\":31357:31358   */\n      0x02\n        /* \"#utility.yul\":31353:31364   */\n      mul\n        /* \"#utility.yul\":31347:31351   */\n      dup3\n        /* \"#utility.yul\":31344:31365   */\n      or\n        /* \"#utility.yul\":31336:31365   */\n      swap1\n      pop\n        /* \"#utility.yul\":31076:31371   */\n      swap3\n      swap2\n      pop\n      pop\n      jump\t// out\n        /* \"#utility.yul\":31376:32771   */\n    tag_172:\n        /* \"#utility.yul\":31493:31530   */\n      tag_678\n        /* \"#utility.yul\":31526:31529   */\n      dup3\n        /* \"#utility.yul\":31493:31530   */\n      tag_291\n      jump\t// in\n    tag_678:\n        /* \"#utility.yul\":31595:31613   */\n      0xffffffffffffffff\n        /* \"#utility.yul\":31587:31593   */\n      dup2\n        /* \"#utility.yul\":31584:31614   */\n      gt\n        /* \"#utility.yul\":31581:31637   */\n      iszero\n      tag_679\n      jumpi\n        /* \"#utility.yul\":31617:31635   */\n      tag_680\n      tag_276\n      jump\t// in\n    tag_680:\n        /* \"#utility.yul\":31581:31637   */\n    tag_679:\n        /* \"#utility.yul\":31661:31699   */\n      tag_681\n        /* \"#utility.yul\":31693:31697   */\n      dup3\n        /* \"#utility.yul\":31687:31698   */\n      sload\n        /* \"#utility.yul\":31661:31699   */\n      tag_155\n      jump\t// in\n    tag_681:\n        /* \"#utility.yul\":31746:31813   */\n      tag_682\n        /* \"#utility.yul\":31806:31812   */\n      dup3\n        /* \"#utility.yul\":31798:31804   */\n      dup3\n        /* \"#utility.yul\":31792:31796   */\n      dup6\n        /* \"#utility.yul\":31746:31813   */\n      tag_350\n      jump\t// in\n    tag_682:\n        /* \"#utility.yul\":31840:31841   */\n      0x00\n        /* \"#utility.yul\":31864:31868   */\n      0x20\n        /* \"#utility.yul\":31851:31868   */\n      swap1\n      pop\n        /* \"#utility.yul\":31896:31898   */\n      0x1f\n        /* \"#utility.yul\":31888:31894   */\n      dup4\n        /* \"#utility.yul\":31885:31899   */\n      gt\n        /* \"#utility.yul\":31913:31914   */\n      0x01\n        /* \"#utility.yul\":31908:32526   */\n      dup2\n      eq\n      tag_684\n      jumpi\n        /* \"#utility.yul\":32570:32571   */\n      0x00\n        /* \"#utility.yul\":32587:32593   */\n      dup5\n        /* \"#utility.yul\":32584:32661   */\n      iszero\n      tag_685\n      jumpi\n        /* \"#utility.yul\":32636:32645   */\n      dup3\n        /* \"#utility.yul\":32631:32634   */\n      dup8\n        /* \"#utility.yul\":32627:32646   */\n      add\n        /* \"#utility.yul\":32621:32647   */\n      mload\n        /* \"#utility.yul\":32612:32647   */\n      swap1\n      pop\n        /* \"#utility.yul\":32584:32661   */\n    tag_685:\n        /* \"#utility.yul\":32687:32754   */\n      tag_686\n        /* \"#utility.yul\":32747:32753   */\n      dup6\n        /* \"#utility.yul\":32740:32745   */\n      dup3\n        /* \"#utility.yul\":32687:32754   */\n      tag_353\n      jump\t// in\n    tag_686:\n        /* \"#utility.yul\":32681:32685   */\n      dup7\n        /* \"#utility.yul\":32674:32755   */\n      sstore\n        /* \"#utility.yul\":32543:32765   */\n      pop\n        /* \"#utility.yul\":31878:32765   */\n      jump(tag_683)\n        /* \"#utility.yul\":31908:32526   */\n    tag_684:\n        /* \"#utility.yul\":31960:31964   */\n      0x1f\n        /* \"#utility.yul\":31956:31965   */\n      not\n        /* \"#utility.yul\":31948:31954   */\n      dup5\n        /* \"#utility.yul\":31944:31966   */\n      and\n        /* \"#utility.yul\":31994:32031   */\n      tag_687\n        /* \"#utility.yul\":32026:32030   */\n      dup7\n        /* \"#utility.yul\":31994:32031   */\n      tag_339\n      jump\t// in\n    tag_687:\n        /* \"#utility.yul\":32053:32054   */\n      0x00\n        /* \"#utility.yul\":32067:32275   */\n    tag_688:\n        /* \"#utility.yul\":32081:32088   */\n      dup3\n        /* \"#utility.yul\":32078:32079   */\n      dup2\n        /* \"#utility.yul\":32075:32089   */\n      lt\n        /* \"#utility.yul\":32067:32275   */\n      iszero\n      tag_690\n      jumpi\n        /* \"#utility.yul\":32160:32169   */\n      dup5\n        /* \"#utility.yul\":32155:32158   */\n      dup10\n        /* \"#utility.yul\":32151:32170   */\n      add\n        /* \"#utility.yul\":32145:32171   */\n      mload\n        /* \"#utility.yul\":32137:32143   */\n      dup3\n        /* \"#utility.yul\":32130:32172   */\n      sstore\n        /* \"#utility.yul\":32211:32212   */\n      0x01\n        /* \"#utility.yul\":32203:32209   */\n      dup3\n        /* \"#utility.yul\":32199:32213   */\n      add\n        /* \"#utility.yul\":32189:32213   */\n      swap2\n      pop\n        /* \"#utility.yul\":32258:32260   */\n      0x20\n        /* \"#utility.yul\":32247:32256   */\n      dup6\n        /* \"#utility.yul\":32243:32261   */\n      add\n        /* \"#utility.yul\":32230:32261   */\n      swap5\n      pop\n        /* \"#utility.yul\":32104:32108   */\n      0x20\n        /* \"#utility.yul\":32101:32102   */\n      dup2\n        /* \"#utility.yul\":32097:32109   */\n      add\n        /* \"#utility.yul\":32092:32109   */\n      swap1\n      pop\n        /* \"#utility.yul\":32067:32275   */\n      jump(tag_688)\n    tag_690:\n        /* \"#utility.yul\":32303:32309   */\n      dup7\n        /* \"#utility.yul\":32294:32301   */\n      dup4\n        /* \"#utility.yul\":32291:32310   */\n      lt\n        /* \"#utility.yul\":32288:32467   */\n      iszero\n      tag_691\n      jumpi\n        /* \"#utility.yul\":32361:32370   */\n      dup5\n        /* \"#utility.yul\":32356:32359   */\n      dup10\n        /* \"#utility.yul\":32352:32371   */\n      add\n        /* \"#utility.yul\":32346:32372   */\n      mload\n        /* \"#utility.yul\":32404:32452   */\n      tag_692\n        /* \"#utility.yul\":32446:32450   */\n      0x1f\n        /* \"#utility.yul\":32438:32444   */\n      dup10\n        /* \"#utility.yul\":32434:32451   */\n      and\n        /* \"#utility.yul\":32423:32432   */\n      dup3\n        /* \"#utility.yul\":32404:32452   */\n      tag_352\n      jump\t// in\n    tag_692:\n        /* \"#utility.yul\":32396:32402   */\n      dup4\n        /* \"#utility.yul\":32389:32453   */\n      sstore\n        /* \"#utility.yul\":32311:32467   */\n      pop\n        /* \"#utility.yul\":32288:32467   */\n    tag_691:\n        /* \"#utility.yul\":32513:32514   */\n      0x01\n        /* \"#utility.yul\":32509:32510   */\n      0x02\n        /* \"#utility.yul\":32501:32507   */\n      dup9\n        /* \"#utility.yul\":32497:32511   */\n      mul\n        /* \"#utility.yul\":32493:32515   */\n      add\n        /* \"#utility.yul\":32487:32491   */\n      dup9\n        /* \"#utility.yul\":32480:32516   */\n      sstore\n        /* \"#utility.yul\":31915:32526   */\n      pop\n      pop\n      pop\n        /* \"#utility.yul\":31878:32765   */\n    tag_683:\n      pop\n        /* \"#utility.yul\":31468:32771   */\n      pop\n      pop\n      pop\n        /* \"#utility.yul\":31376:32771   */\n      pop\n      pop\n      jump\t// out\n        /* \"#utility.yul\":32777:32957   */\n    tag_207:\n        /* \"#utility.yul\":32825:32902   */\n      0x4e487b7100000000000000000000000000000000000000000000000000000000\n        /* \"#utility.yul\":32822:32823   */\n      0x00\n        /* \"#utility.yul\":32815:32903   */\n      mstore\n        /* \"#utility.yul\":32922:32926   */\n      0x31\n        /* \"#utility.yul\":32919:32920   */\n      0x04\n        /* \"#utility.yul\":32912:32927   */\n      mstore\n        /* \"#utility.yul\":32946:32950   */\n      0x24\n        /* \"#utility.yul\":32943:32944   */\n      0x00\n        /* \"#utility.yul\":32936:32951   */\n      revert\n        /* \"#utility.yul\":32963:33157   */\n    tag_225:\n        /* \"#utility.yul\":33003:33007   */\n      0x00\n        /* \"#utility.yul\":33023:33043   */\n      tag_695\n        /* \"#utility.yul\":33041:33042   */\n      dup3\n        /* \"#utility.yul\":33023:33043   */\n      tag_310\n      jump\t// in\n    tag_695:\n        /* \"#utility.yul\":33018:33043   */\n      swap2\n      pop\n        /* \"#utility.yul\":33057:33077   */\n      tag_696\n        /* \"#utility.yul\":33075:33076   */\n      dup4\n        /* \"#utility.yul\":33057:33077   */\n      tag_310\n      jump\t// in\n    tag_696:\n        /* \"#utility.yul\":33052:33077   */\n      swap3\n      pop\n        /* \"#utility.yul\":33101:33102   */\n      dup3\n        /* \"#utility.yul\":33098:33099   */\n      dup3\n        /* \"#utility.yul\":33094:33103   */\n      sub\n        /* \"#utility.yul\":33086:33103   */\n      swap1\n      pop\n        /* \"#utility.yul\":33125:33126   */\n      dup2\n        /* \"#utility.yul\":33119:33123   */\n      dup2\n        /* \"#utility.yul\":33116:33127   */\n      gt\n        /* \"#utility.yul\":33113:33150   */\n      iszero\n      tag_697\n      jumpi\n        /* \"#utility.yul\":33130:33148   */\n      tag_698\n      tag_333\n      jump\t// in\n    tag_698:\n        /* \"#utility.yul\":33113:33150   */\n    tag_697:\n        /* \"#utility.yul\":32963:33157   */\n      swap3\n      swap2\n      pop\n      pop\n      jump\t// out\n        /* \"#utility.yul\":33163:33458   */\n    tag_253:\n        /* \"#utility.yul\":33305:33308   */\n      0x00\n        /* \"#utility.yul\":33327:33432   */\n      tag_700\n        /* \"#utility.yul\":33428:33431   */\n      dup3\n        /* \"#utility.yul\":33419:33425   */\n      dup5\n        /* \"#utility.yul\":33411:33417   */\n      dup7\n        /* \"#utility.yul\":33327:33432   */\n      tag_338\n      jump\t// in\n    tag_700:\n        /* \"#utility.yul\":33320:33432   */\n      swap2\n      pop\n        /* \"#utility.yul\":33449:33452   */\n      dup2\n        /* \"#utility.yul\":33442:33452   */\n      swap1\n      pop\n        /* \"#utility.yul\":33163:33458   */\n      swap4\n      swap3\n      pop\n      pop\n      pop\n      jump\t// out\n\n    auxdata: 0xa264697066735822122009e208df46d4271b4a116d04fd301c18883cbd1236279f2124c9a1090bd19bd964736f6c63430008110033\n}\n",
				"bytecode": {
					"linkReferences": {},
					"object": "60806040526040518060400160405280735b38da6a701c568545dcfcb03fcb875f56beddc473ffffffffffffffffffffffffffffffffffffffff1673ffffffffffffffffffffffffffffffffffffffff16815260200173ab8483f64d9c6d1ecf9b849ae677dd3315835cb273ffffffffffffffffffffffffffffffffffffffff1673ffffffffffffffffffffffffffffffffffffffff168152506003906002620000ab929190620000c0565b50348015620000b957600080fd5b506200016e565b8280548282559060005260206000209081019282156200013c579160200282015b828111156200013b5782518260006101000a81548173ffffffffffffffffffffffffffffffffffffffff021916908373ffffffffffffffffffffffffffffffffffffffff16021790555091602001919060010190620000e1565b5b5090506200014b91906200014f565b5090565b5b808211156200016a57600081600090555060010162000150565b5090565b6122ef806200017e6000396000f3fe608060405234801561001057600080fd5b506004361061012c5760003560e01c80638ea5bd07116100ad578063bdb552f011610071578063bdb552f01461030d578063cdbb7a5a1461033f578063df0fd34f1461036f578063e8b5b7961461038b578063f9cb5bd8146103a75761012c565b80638ea5bd071461027b5780638fff396f14610299578063974fe591146102b7578063a0957e09146102e7578063a5cb84b5146103035761012c565b80634ddd29fe116100f45780634ddd29fe146101d757806351c6689a146102075780635bb42e9314610223578063660127c71461022d578063742a1cb51461024b5761012c565b8063094825b91461013157806319077dca14610161578063323c9ab31461016b57806339ada523146101895780634309fba7146101a7575b600080fd5b61014b60048036038101906101469190611323565b6103d7565b604051610158919061139a565b60405180910390f35b61016961042a565b005b61017361059c565b60405161018091906113f6565b60405180910390f35b6101916106df565b60405161019e91906115a5565b60405180910390f35b6101c160048036038101906101bc9190611622565b6107f1565b6040516101ce91906116ed565b60405180910390f35b6101f160048036038101906101ec91906117c4565b610823565b6040516101fe9190611883565b60405180910390f35b610221600480360381019061021c91906118db565b610855565b005b61022b6108d5565b005b61023561093e565b60405161024291906119d5565b60405180910390f35b610265600480360381019061026091906119f0565b610951565b60405161027291906116ed565b60405180910390f35b6102836109fd565b60405161029091906116ed565b60405180910390f35b6102a1610b2a565b6040516102ae9190611ac8565b60405180910390f35b6102d160048036038101906102cc9190611b0f565b610bb2565b6040516102de919061139a565b60405180910390f35b61030160048036038101906102fc9190611b4f565b610be1565b005b61030b610c4f565b005b61032760048036038101906103229190611ba2565b610c81565b60405161033693929190611c0d565b60405180910390f35b61035960048036038101906103549190611d0e565b610d5c565b6040516103669190611d66565b60405180910390f35b61038960048036038101906103849190611da6565b610e10565b005b6103a560048036038101906103a09190611dd3565b610e3d565b005b6103c160048036038101906103bc9190611622565b611013565b6040516103ce919061139a565b60405180910390f35b60008060005b835181101561041f57848482815181106103fa576103f9611e00565b5b60200260200101510361040c57600191505b808061041790611e5e565b9150506103dd565b508091505092915050565b60005b600380549050811015610599573373ffffffffffffffffffffffffffffffffffffffff166003828154811061046557610464611e00565b5b9060005260206000200160009054906101000a900473ffffffffffffffffffffffffffffffffffffffff1673ffffffffffffffffffffffffffffffffffffffff16146104b25760006104b5565b60015b600260003373ffffffffffffffffffffffffffffffffffffffff1673ffffffffffffffffffffffffffffffffffffffff16815260200190815260200160002060006003848154811061050a57610509611e00565b5b9060005260206000200160009054906101000a900473ffffffffffffffffffffffffffffffffffffffff1673ffffffffffffffffffffffffffffffffffffffff1673ffffffffffffffffffffffffffffffffffffffff16815260200190815260200160002060006101000a81548160ff021916908315150217905550808061059190611e5e565b91505061042d565b50565b60008060005b6003805490508110156106d75760011515600260003373ffffffffffffffffffffffffffffffffffffffff1673ffffffffffffffffffffffffffffffffffffffff16815260200190815260200160002060006003848154811061060857610607611e00565b5b9060005260206000200160009054906101000a900473ffffffffffffffffffffffffffffffffffffffff1673ffffffffffffffffffffffffffffffffffffffff1673ffffffffffffffffffffffffffffffffffffffff16815260200190815260200160002060009054906101000a900460ff161515036106c4576003818154811061069657610695611e00565b5b9060005260206000200160009054906101000a900473ffffffffffffffffffffffffffffffffffffffff1691505b80806106cf90611e5e565b9150506105a2565b508091505090565b6106e7611072565b60006040516106f590611efd565b9081526020016040518091039020600a80602002604051908101604052809291906000905b828210156107e85783826003020160405180606001604052908160008201805461074390611f41565b80601f016020809104026020016040519081016040528092919081815260200182805461076f90611f41565b80156107bc5780601f10610791576101008083540402835291602001916107bc565b820191906000526020600020905b81548152906001019060200180831161079f57829003601f168201915b50505050508152602001600182015481526020016002820154815250508152602001906001019061071a565b50505050905090565b60608484848460405160200161080a9493929190611f97565b6040516020818303038152906040529050949350505050565b61082b6110a0565b60006040518060600160405280868152602001858152602001848152509050809150509392505050565b604051806060016040528085815260200184815260200183815250600060405161087e90611efd565b908152602001604051809103902082600a811061089e5761089d611e00565b5b6003020160008201518160000190816108b7919061216b565b50602082015181600101556040820151816002015590505050505050565b600480600181540180825580915050600190039060005260206000200160006040518060400160405280600581526020017f6170706c650000000000000000000000000000000000000000000000000000008152509091909150908161093b919061216b565b50565b600560009054906101000a900460ff1681565b6004818154811061096157600080fd5b90600052602060002001600091509050805461097c90611f41565b80601f01602080910402602001604051908101604052809291908181526020018280546109a890611f41565b80156109f55780601f106109ca576101008083540402835291602001916109f5565b820191906000526020600020905b8154815290600101906020018083116109d857829003601f168201915b505050505081565b606060006002811115610a1357610a1261195e565b5b600560009054906101000a900460ff166002811115610a3557610a3461195e565b5b03610a77576040518060400160405280600581526020017f534d414c4c0000000000000000000000000000000000000000000000000000008152509050610b27565b600280811115610a8a57610a8961195e565b5b600560009054906101000a900460ff166002811115610aac57610aab61195e565b5b03610aee576040518060400160405280600581526020017f4c415247450000000000000000000000000000000000000000000000000000008152509050610b27565b6040518060400160405280600681526020017f4d454449554d000000000000000000000000000000000000000000000000000081525090505b90565b610b326110c1565b600160003373ffffffffffffffffffffffffffffffffffffffff1673ffffffffffffffffffffffffffffffffffffffff168152602001908152602001600020600380602002604051908101604052809291908260038015610ba8576020028201915b815481526020019060010190808311610b94575b5050505050905090565b60026020528160005260406000206020528060005260406000206000915091509054906101000a900460ff1681565b604051806060016040528084815260200183815260200182815250600160003373ffffffffffffffffffffffffffffffffffffffff1673ffffffffffffffffffffffffffffffffffffffff168152602001908152602001600020906003610c499291906110e3565b50505050565b6004805480610c6157610c6061223d565b5b600190038181906000526020600020016000610c7d9190611123565b9055565b60008280516020810182018051848252602083016020850120818352809550505050505081600a8110610cb357600080fd5b6003020160009150915050806000018054610ccd90611f41565b80601f0160208091040260200160405190810160405280929190818152602001828054610cf990611f41565b8015610d465780601f10610d1b57610100808354040283529160200191610d46565b820191906000526020600020905b815481529060010190602001808311610d2957829003601f168201915b5050505050908060010154908060020154905083565b60008082600081518110610d7357610d72611e00565b5b602002602001015190506000600190505b8351811015610e065783600182610d9b919061226c565b81518110610dac57610dab611e00565b5b6020026020010151848281518110610dc757610dc6611e00565b5b60200260200101511115610df357838181518110610de857610de7611e00565b5b602002602001015191505b8080610dfe90611e5e565b915050610d84565b5080915050919050565b80600560006101000a81548160ff02191690836002811115610e3557610e3461195e565b5b021790555050565b6003819080600181540180825580915050600190039060005260206000200160009091909190916101000a81548173ffffffffffffffffffffffffffffffffffffffff021916908373ffffffffffffffffffffffffffffffffffffffff16021790555060005b60038054905081101561100f578173ffffffffffffffffffffffffffffffffffffffff1660038281548110610edb57610eda611e00565b5b9060005260206000200160009054906101000a900473ffffffffffffffffffffffffffffffffffffffff1673ffffffffffffffffffffffffffffffffffffffff1614610f28576000610f2b565b60015b600260003373ffffffffffffffffffffffffffffffffffffffff1673ffffffffffffffffffffffffffffffffffffffff168152602001908152602001600020600060038481548110610f8057610f7f611e00565b5b9060005260206000200160009054906101000a900473ffffffffffffffffffffffffffffffffffffffff1673ffffffffffffffffffffffffffffffffffffffff1673ffffffffffffffffffffffffffffffffffffffff16815260200190815260200160002060006101000a81548160ff021916908315150217905550808061100790611e5e565b915050610ea3565b5050565b600082826040516020016110289291906122a0565b6040516020818303038152906040528051906020012085856040516020016110519291906122a0565b60405160208183030381529060405280519060200120149050949350505050565b604051806101400160405280600a905b61108a6110a0565b8152602001906001900390816110825790505090565b60405180606001604052806060815260200160008152602001600081525090565b6040518060600160405280600390602082028036833780820191505090505090565b8260038101928215611112579160200282015b828111156111115782518255916020019190600101906110f6565b5b50905061111f9190611163565b5090565b50805461112f90611f41565b6000825580601f106111415750611160565b601f01602090049060005260206000209081019061115f9190611163565b5b50565b5b8082111561117c576000816000905550600101611164565b5090565b6000604051905090565b600080fd5b600080fd5b6000819050919050565b6111a781611194565b81146111b257600080fd5b50565b6000813590506111c48161119e565b92915050565b600080fd5b6000601f19601f8301169050919050565b7f4e487b7100000000000000000000000000000000000000000000000000000000600052604160045260246000fd5b611218826111cf565b810181811067ffffffffffffffff82111715611237576112366111e0565b5b80604052505050565b600061124a611180565b9050611256828261120f565b919050565b600067ffffffffffffffff821115611276576112756111e0565b5b602082029050602081019050919050565b600080fd5b600061129f61129a8461125b565b611240565b905080838252602082019050602084028301858111156112c2576112c1611287565b5b835b818110156112eb57806112d788826111b5565b8452602084019350506020810190506112c4565b5050509392505050565b600082601f83011261130a576113096111ca565b5b813561131a84826020860161128c565b91505092915050565b6000806040838503121561133a5761133961118a565b5b6000611348858286016111b5565b925050602083013567ffffffffffffffff8111156113695761136861118f565b5b611375858286016112f5565b9150509250929050565b60008115159050919050565b6113948161137f565b82525050565b60006020820190506113af600083018461138b565b92915050565b600073ffffffffffffffffffffffffffffffffffffffff82169050919050565b60006113e0826113b5565b9050919050565b6113f0816113d5565b82525050565b600060208201905061140b60008301846113e7565b92915050565b6000600a9050919050565b600081905092915050565b6000819050919050565b600081519050919050565b600082825260208201905092915050565b60005b8381101561146b578082015181840152602081019050611450565b60008484015250505050565b600061148282611431565b61148c818561143c565b935061149c81856020860161144d565b6114a5816111cf565b840191505092915050565b6114b981611194565b82525050565b600060608301600083015184820360008601526114dc8282611477565b91505060208301516114f160208601826114b0565b50604083015161150460408601826114b0565b508091505092915050565b600061151b83836114bf565b905092915050565b6000602082019050919050565b600061153b82611411565b611545818561141c565b93508360208202850161155785611427565b8060005b858110156115935784840389528151611574858261150f565b945061157f83611523565b925060208a0199505060018101905061155b565b50829750879550505050505092915050565b600060208201905081810360008301526115bf8184611530565b905092915050565b600080fd5b60008083601f8401126115e2576115e16111ca565b5b8235905067ffffffffffffffff8111156115ff576115fe6115c7565b5b60208301915083600182028301111561161b5761161a611287565b5b9250929050565b6000806000806040858703121561163c5761163b61118a565b5b600085013567ffffffffffffffff81111561165a5761165961118f565b5b611666878288016115cc565b9450945050602085013567ffffffffffffffff8111156116895761168861118f565b5b611695878288016115cc565b925092505092959194509250565b600082825260208201905092915050565b60006116bf82611431565b6116c981856116a3565b93506116d981856020860161144d565b6116e2816111cf565b840191505092915050565b6000602082019050818103600083015261170781846116b4565b905092915050565b600080fd5b600067ffffffffffffffff82111561172f5761172e6111e0565b5b611738826111cf565b9050602081019050919050565b82818337600083830152505050565b600061176761176284611714565b611240565b9050828152602081018484840111156117835761178261170f565b5b61178e848285611745565b509392505050565b600082601f8301126117ab576117aa6111ca565b5b81356117bb848260208601611754565b91505092915050565b6000806000606084860312156117dd576117dc61118a565b5b600084013567ffffffffffffffff8111156117fb576117fa61118f565b5b61180786828701611796565b9350506020611818868287016111b5565b9250506040611829868287016111b5565b9150509250925092565b600060608301600083015184820360008601526118508282611477565b915050602083015161186560208601826114b0565b50604083015161187860408601826114b0565b508091505092915050565b6000602082019050818103600083015261189d8184611833565b905092915050565b6000819050919050565b6118b8816118a5565b81146118c357600080fd5b50565b6000813590506118d5816118af565b92915050565b600080600080608085870312156118f5576118f461118a565b5b600085013567ffffffffffffffff8111156119135761191261118f565b5b61191f87828801611796565b9450506020611930878288016111b5565b9350506040611941878288016111b5565b9250506060611952878288016118c6565b91505092959194509250565b7f4e487b7100000000000000000000000000000000000000000000000000000000600052602160045260246000fd5b6003811061199e5761199d61195e565b5b50565b60008190506119af8261198d565b919050565b60006119bf826119a1565b9050919050565b6119cf816119b4565b82525050565b60006020820190506119ea60008301846119c6565b92915050565b600060208284031215611a0657611a0561118a565b5b6000611a14848285016118c6565b91505092915050565b600060039050919050565b600081905092915050565b6000819050919050565b611a46816118a5565b82525050565b6000611a588383611a3d565b60208301905092915050565b6000602082019050919050565b611a7a81611a1d565b611a848184611a28565b9250611a8f82611a33565b8060005b83811015611ac0578151611aa78782611a4c565b9650611ab283611a64565b925050600181019050611a93565b505050505050565b6000606082019050611add6000830184611a71565b92915050565b611aec816113d5565b8114611af757600080fd5b50565b600081359050611b0981611ae3565b92915050565b60008060408385031215611b2657611b2561118a565b5b6000611b3485828601611afa565b9250506020611b4585828601611afa565b9150509250929050565b600080600060608486031215611b6857611b6761118a565b5b6000611b76868287016118c6565b9350506020611b87868287016118c6565b9250506040611b98868287016118c6565b9150509250925092565b60008060408385031215611bb957611bb861118a565b5b600083013567ffffffffffffffff811115611bd757611bd661118f565b5b611be385828601611796565b9250506020611bf4858286016118c6565b9150509250929050565b611c0781611194565b82525050565b60006060820190508181036000830152611c2781866116b4565b9050611c366020830185611bfe565b611c436040830184611bfe565b949350505050565b600067ffffffffffffffff821115611c6657611c656111e0565b5b602082029050602081019050919050565b6000611c8a611c8584611c4b565b611240565b90508083825260208201905060208402830185811115611cad57611cac611287565b5b835b81811015611cd65780611cc288826118c6565b845260208401935050602081019050611caf565b5050509392505050565b600082601f830112611cf557611cf46111ca565b5b8135611d05848260208601611c77565b91505092915050565b600060208284031215611d2457611d2361118a565b5b600082013567ffffffffffffffff811115611d4257611d4161118f565b5b611d4e84828501611ce0565b91505092915050565b611d60816118a5565b82525050565b6000602082019050611d7b6000830184611d57565b92915050565b60038110611d8e57600080fd5b50565b600081359050611da081611d81565b92915050565b600060208284031215611dbc57611dbb61118a565b5b6000611dca84828501611d91565b91505092915050565b600060208284031215611de957611de861118a565b5b6000611df784828501611afa565b91505092915050565b7f4e487b7100000000000000000000000000000000000000000000000000000000600052603260045260246000fd5b7f4e487b7100000000000000000000000000000000000000000000000000000000600052601160045260246000fd5b6000611e69826118a5565b91507fffffffffffffffffffffffffffffffffffffffffffffffffffffffffffffffff8203611e9b57611e9a611e2f565b5b600182019050919050565b600081905092915050565b7f73747564656e7473000000000000000000000000000000000000000000000000600082015250565b6000611ee7600883611ea6565b9150611ef282611eb1565b600882019050919050565b6000611f0882611eda565b9150819050919050565b7f4e487b7100000000000000000000000000000000000000000000000000000000600052602260045260246000fd5b60006002820490506001821680611f5957607f821691505b602082108103611f6c57611f6b611f12565b5b50919050565b6000611f7e8385611ea6565b9350611f8b838584611745565b82840190509392505050565b6000611fa4828688611f72565b9150611fb1828486611f72565b915081905095945050505050565b60008190508160005260206000209050919050565b60006020601f8301049050919050565b600082821b905092915050565b6000600883026120217fffffffffffffffffffffffffffffffffffffffffffffffffffffffffffffffff82611fe4565b61202b8683611fe4565b95508019841693508086168417925050509392505050565b6000819050919050565b600061206861206361205e846118a5565b612043565b6118a5565b9050919050565b6000819050919050565b6120828361204d565b61209661208e8261206f565b848454611ff1565b825550505050565b600090565b6120ab61209e565b6120b6818484612079565b505050565b5b818110156120da576120cf6000826120a3565b6001810190506120bc565b5050565b601f82111561211f576120f081611fbf565b6120f984611fd4565b81016020851015612108578190505b61211c61211485611fd4565b8301826120bb565b50505b505050565b600082821c905092915050565b600061214260001984600802612124565b1980831691505092915050565b600061215b8383612131565b9150826002028217905092915050565b61217482611431565b67ffffffffffffffff81111561218d5761218c6111e0565b5b6121978254611f41565b6121a28282856120de565b600060209050601f8311600181146121d557600084156121c3578287015190505b6121cd858261214f565b865550612235565b601f1984166121e386611fbf565b60005b8281101561220b578489015182556001820191506020850194506020810190506121e6565b868310156122285784890151612224601f891682612131565b8355505b6001600288020188555050505b505050505050565b7f4e487b7100000000000000000000000000000000000000000000000000000000600052603160045260246000fd5b6000612277826118a5565b9150612282836118a5565b925082820390508181111561229a57612299611e2f565b5b92915050565b60006122ad828486611f72565b9150819050939250505056fea264697066735822122009e208df46d4271b4a116d04fd301c18883cbd1236279f2124c9a1090bd19bd964736f6c63430008110033",
					"opcodes": "PUSH1 0x80 PUSH1 0x40 MSTORE PUSH1 0x40 MLOAD DUP1 PUSH1 0x40 ADD PUSH1 0x40 MSTORE DUP1 PUSH20 0x5B38DA6A701C568545DCFCB03FCB875F56BEDDC4 PUSH20 0xFFFFFFFFFFFFFFFFFFFFFFFFFFFFFFFFFFFFFFFF AND PUSH20 0xFFFFFFFFFFFFFFFFFFFFFFFFFFFFFFFFFFFFFFFF AND DUP2 MSTORE PUSH1 0x20 ADD PUSH20 0xAB8483F64D9C6D1ECF9B849AE677DD3315835CB2 PUSH20 0xFFFFFFFFFFFFFFFFFFFFFFFFFFFFFFFFFFFFFFFF AND PUSH20 0xFFFFFFFFFFFFFFFFFFFFFFFFFFFFFFFFFFFFFFFF AND DUP2 MSTORE POP PUSH1 0x3 SWAP1 PUSH1 0x2 PUSH3 0xAB SWAP3 SWAP2 SWAP1 PUSH3 0xC0 JUMP JUMPDEST POP CALLVALUE DUP1 ISZERO PUSH3 0xB9 JUMPI PUSH1 0x0 DUP1 REVERT JUMPDEST POP PUSH3 0x16E JUMP JUMPDEST DUP3 DUP1 SLOAD DUP3 DUP3 SSTORE SWAP1 PUSH1 0x0 MSTORE PUSH1 0x20 PUSH1 0x0 KECCAK256 SWAP1 DUP2 ADD SWAP3 DUP3 ISZERO PUSH3 0x13C JUMPI SWAP2 PUSH1 0x20 MUL DUP3 ADD JUMPDEST DUP3 DUP2 GT ISZERO PUSH3 0x13B JUMPI DUP3 MLOAD DUP3 PUSH1 0x0 PUSH2 0x100 EXP DUP2 SLOAD DUP2 PUSH20 0xFFFFFFFFFFFFFFFFFFFFFFFFFFFFFFFFFFFFFFFF MUL NOT AND SWAP1 DUP4 PUSH20 0xFFFFFFFFFFFFFFFFFFFFFFFFFFFFFFFFFFFFFFFF AND MUL OR SWAP1 SSTORE POP SWAP2 PUSH1 0x20 ADD SWAP2 SWAP1 PUSH1 0x1 ADD SWAP1 PUSH3 0xE1 JUMP JUMPDEST JUMPDEST POP SWAP1 POP PUSH3 0x14B SWAP2 SWAP1 PUSH3 0x14F JUMP JUMPDEST POP SWAP1 JUMP JUMPDEST JUMPDEST DUP1 DUP3 GT ISZERO PUSH3 0x16A JUMPI PUSH1 0x0 DUP2 PUSH1 0x0 SWAP1 SSTORE POP PUSH1 0x1 ADD PUSH3 0x150 JUMP JUMPDEST POP SWAP1 JUMP JUMPDEST PUSH2 0x22EF DUP1 PUSH3 0x17E PUSH1 0x0 CODECOPY PUSH1 0x0 RETURN INVALID PUSH1 0x80 PUSH1 0x40 MSTORE CALLVALUE DUP1 ISZERO PUSH2 0x10 JUMPI PUSH1 0x0 DUP1 REVERT JUMPDEST POP PUSH1 0x4 CALLDATASIZE LT PUSH2 0x12C JUMPI PUSH1 0x0 CALLDATALOAD PUSH1 0xE0 SHR DUP1 PUSH4 0x8EA5BD07 GT PUSH2 0xAD JUMPI DUP1 PUSH4 0xBDB552F0 GT PUSH2 0x71 JUMPI DUP1 PUSH4 0xBDB552F0 EQ PUSH2 0x30D JUMPI DUP1 PUSH4 0xCDBB7A5A EQ PUSH2 0x33F JUMPI DUP1 PUSH4 0xDF0FD34F EQ PUSH2 0x36F JUMPI DUP1 PUSH4 0xE8B5B796 EQ PUSH2 0x38B JUMPI DUP1 PUSH4 0xF9CB5BD8 EQ PUSH2 0x3A7 JUMPI PUSH2 0x12C JUMP JUMPDEST DUP1 PUSH4 0x8EA5BD07 EQ PUSH2 0x27B JUMPI DUP1 PUSH4 0x8FFF396F EQ PUSH2 0x299 JUMPI DUP1 PUSH4 0x974FE591 EQ PUSH2 0x2B7 JUMPI DUP1 PUSH4 0xA0957E09 EQ PUSH2 0x2E7 JUMPI DUP1 PUSH4 0xA5CB84B5 EQ PUSH2 0x303 JUMPI PUSH2 0x12C JUMP JUMPDEST DUP1 PUSH4 0x4DDD29FE GT PUSH2 0xF4 JUMPI DUP1 PUSH4 0x4DDD29FE EQ PUSH2 0x1D7 JUMPI DUP1 PUSH4 0x51C6689A EQ PUSH2 0x207 JUMPI DUP1 PUSH4 0x5BB42E93 EQ PUSH2 0x223 JUMPI DUP1 PUSH4 0x660127C7 EQ PUSH2 0x22D JUMPI DUP1 PUSH4 0x742A1CB5 EQ PUSH2 0x24B JUMPI PUSH2 0x12C JUMP JUMPDEST DUP1 PUSH4 0x94825B9 EQ PUSH2 0x131 JUMPI DUP1 PUSH4 0x19077DCA EQ PUSH2 0x161 JUMPI DUP1 PUSH4 0x323C9AB3 EQ PUSH2 0x16B JUMPI DUP1 PUSH4 0x39ADA523 EQ PUSH2 0x189 JUMPI DUP1 PUSH4 0x4309FBA7 EQ PUSH2 0x1A7 JUMPI JUMPDEST PUSH1 0x0 DUP1 REVERT JUMPDEST PUSH2 0x14B PUSH1 0x4 DUP1 CALLDATASIZE SUB DUP2 ADD SWAP1 PUSH2 0x146 SWAP2 SWAP1 PUSH2 0x1323 JUMP JUMPDEST PUSH2 0x3D7 JUMP JUMPDEST PUSH1 0x40 MLOAD PUSH2 0x158 SWAP2 SWAP1 PUSH2 0x139A JUMP JUMPDEST PUSH1 0x40 MLOAD DUP1 SWAP2 SUB SWAP1 RETURN JUMPDEST PUSH2 0x169 PUSH2 0x42A JUMP JUMPDEST STOP JUMPDEST PUSH2 0x173 PUSH2 0x59C JUMP JUMPDEST PUSH1 0x40 MLOAD PUSH2 0x180 SWAP2 SWAP1 PUSH2 0x13F6 JUMP JUMPDEST PUSH1 0x40 MLOAD DUP1 SWAP2 SUB SWAP1 RETURN JUMPDEST PUSH2 0x191 PUSH2 0x6DF JUMP JUMPDEST PUSH1 0x40 MLOAD PUSH2 0x19E SWAP2 SWAP1 PUSH2 0x15A5 JUMP JUMPDEST PUSH1 0x40 MLOAD DUP1 SWAP2 SUB SWAP1 RETURN JUMPDEST PUSH2 0x1C1 PUSH1 0x4 DUP1 CALLDATASIZE SUB DUP2 ADD SWAP1 PUSH2 0x1BC SWAP2 SWAP1 PUSH2 0x1622 JUMP JUMPDEST PUSH2 0x7F1 JUMP JUMPDEST PUSH1 0x40 MLOAD PUSH2 0x1CE SWAP2 SWAP1 PUSH2 0x16ED JUMP JUMPDEST PUSH1 0x40 MLOAD DUP1 SWAP2 SUB SWAP1 RETURN JUMPDEST PUSH2 0x1F1 PUSH1 0x4 DUP1 CALLDATASIZE SUB DUP2 ADD SWAP1 PUSH2 0x1EC SWAP2 SWAP1 PUSH2 0x17C4 JUMP JUMPDEST PUSH2 0x823 JUMP JUMPDEST PUSH1 0x40 MLOAD PUSH2 0x1FE SWAP2 SWAP1 PUSH2 0x1883 JUMP JUMPDEST PUSH1 0x40 MLOAD DUP1 SWAP2 SUB SWAP1 RETURN JUMPDEST PUSH2 0x221 PUSH1 0x4 DUP1 CALLDATASIZE SUB DUP2 ADD SWAP1 PUSH2 0x21C SWAP2 SWAP1 PUSH2 0x18DB JUMP JUMPDEST PUSH2 0x855 JUMP JUMPDEST STOP JUMPDEST PUSH2 0x22B PUSH2 0x8D5 JUMP JUMPDEST STOP JUMPDEST PUSH2 0x235 PUSH2 0x93E JUMP JUMPDEST PUSH1 0x40 MLOAD PUSH2 0x242 SWAP2 SWAP1 PUSH2 0x19D5 JUMP JUMPDEST PUSH1 0x40 MLOAD DUP1 SWAP2 SUB SWAP1 RETURN JUMPDEST PUSH2 0x265 PUSH1 0x4 DUP1 CALLDATASIZE SUB DUP2 ADD SWAP1 PUSH2 0x260 SWAP2 SWAP1 PUSH2 0x19F0 JUMP JUMPDEST PUSH2 0x951 JUMP JUMPDEST PUSH1 0x40 MLOAD PUSH2 0x272 SWAP2 SWAP1 PUSH2 0x16ED JUMP JUMPDEST PUSH1 0x40 MLOAD DUP1 SWAP2 SUB SWAP1 RETURN JUMPDEST PUSH2 0x283 PUSH2 0x9FD JUMP JUMPDEST PUSH1 0x40 MLOAD PUSH2 0x290 SWAP2 SWAP1 PUSH2 0x16ED JUMP JUMPDEST PUSH1 0x40 MLOAD DUP1 SWAP2 SUB SWAP1 RETURN JUMPDEST PUSH2 0x2A1 PUSH2 0xB2A JUMP JUMPDEST PUSH1 0x40 MLOAD PUSH2 0x2AE SWAP2 SWAP1 PUSH2 0x1AC8 JUMP JUMPDEST PUSH1 0x40 MLOAD DUP1 SWAP2 SUB SWAP1 RETURN JUMPDEST PUSH2 0x2D1 PUSH1 0x4 DUP1 CALLDATASIZE SUB DUP2 ADD SWAP1 PUSH2 0x2CC SWAP2 SWAP1 PUSH2 0x1B0F JUMP JUMPDEST PUSH2 0xBB2 JUMP JUMPDEST PUSH1 0x40 MLOAD PUSH2 0x2DE SWAP2 SWAP1 PUSH2 0x139A JUMP JUMPDEST PUSH1 0x40 MLOAD DUP1 SWAP2 SUB SWAP1 RETURN JUMPDEST PUSH2 0x301 PUSH1 0x4 DUP1 CALLDATASIZE SUB DUP2 ADD SWAP1 PUSH2 0x2FC SWAP2 SWAP1 PUSH2 0x1B4F JUMP JUMPDEST PUSH2 0xBE1 JUMP JUMPDEST STOP JUMPDEST PUSH2 0x30B PUSH2 0xC4F JUMP JUMPDEST STOP JUMPDEST PUSH2 0x327 PUSH1 0x4 DUP1 CALLDATASIZE SUB DUP2 ADD SWAP1 PUSH2 0x322 SWAP2 SWAP1 PUSH2 0x1BA2 JUMP JUMPDEST PUSH2 0xC81 JUMP JUMPDEST PUSH1 0x40 MLOAD PUSH2 0x336 SWAP4 SWAP3 SWAP2 SWAP1 PUSH2 0x1C0D JUMP JUMPDEST PUSH1 0x40 MLOAD DUP1 SWAP2 SUB SWAP1 RETURN JUMPDEST PUSH2 0x359 PUSH1 0x4 DUP1 CALLDATASIZE SUB DUP2 ADD SWAP1 PUSH2 0x354 SWAP2 SWAP1 PUSH2 0x1D0E JUMP JUMPDEST PUSH2 0xD5C JUMP JUMPDEST PUSH1 0x40 MLOAD PUSH2 0x366 SWAP2 SWAP1 PUSH2 0x1D66 JUMP JUMPDEST PUSH1 0x40 MLOAD DUP1 SWAP2 SUB SWAP1 RETURN JUMPDEST PUSH2 0x389 PUSH1 0x4 DUP1 CALLDATASIZE SUB DUP2 ADD SWAP1 PUSH2 0x384 SWAP2 SWAP1 PUSH2 0x1DA6 JUMP JUMPDEST PUSH2 0xE10 JUMP JUMPDEST STOP JUMPDEST PUSH2 0x3A5 PUSH1 0x4 DUP1 CALLDATASIZE SUB DUP2 ADD SWAP1 PUSH2 0x3A0 SWAP2 SWAP1 PUSH2 0x1DD3 JUMP JUMPDEST PUSH2 0xE3D JUMP JUMPDEST STOP JUMPDEST PUSH2 0x3C1 PUSH1 0x4 DUP1 CALLDATASIZE SUB DUP2 ADD SWAP1 PUSH2 0x3BC SWAP2 SWAP1 PUSH2 0x1622 JUMP JUMPDEST PUSH2 0x1013 JUMP JUMPDEST PUSH1 0x40 MLOAD PUSH2 0x3CE SWAP2 SWAP1 PUSH2 0x139A JUMP JUMPDEST PUSH1 0x40 MLOAD DUP1 SWAP2 SUB SWAP1 RETURN JUMPDEST PUSH1 0x0 DUP1 PUSH1 0x0 JUMPDEST DUP4 MLOAD DUP2 LT ISZERO PUSH2 0x41F JUMPI DUP5 DUP5 DUP3 DUP2 MLOAD DUP2 LT PUSH2 0x3FA JUMPI PUSH2 0x3F9 PUSH2 0x1E00 JUMP JUMPDEST JUMPDEST PUSH1 0x20 MUL PUSH1 0x20 ADD ADD MLOAD SUB PUSH2 0x40C JUMPI PUSH1 0x1 SWAP2 POP JUMPDEST DUP1 DUP1 PUSH2 0x417 SWAP1 PUSH2 0x1E5E JUMP JUMPDEST SWAP2 POP POP PUSH2 0x3DD JUMP JUMPDEST POP DUP1 SWAP2 POP POP SWAP3 SWAP2 POP POP JUMP JUMPDEST PUSH1 0x0 JUMPDEST PUSH1 0x3 DUP1 SLOAD SWAP1 POP DUP2 LT ISZERO PUSH2 0x599 JUMPI CALLER PUSH20 0xFFFFFFFFFFFFFFFFFFFFFFFFFFFFFFFFFFFFFFFF AND PUSH1 0x3 DUP3 DUP2 SLOAD DUP2 LT PUSH2 0x465 JUMPI PUSH2 0x464 PUSH2 0x1E00 JUMP JUMPDEST JUMPDEST SWAP1 PUSH1 0x0 MSTORE PUSH1 0x20 PUSH1 0x0 KECCAK256 ADD PUSH1 0x0 SWAP1 SLOAD SWAP1 PUSH2 0x100 EXP SWAP1 DIV PUSH20 0xFFFFFFFFFFFFFFFFFFFFFFFFFFFFFFFFFFFFFFFF AND PUSH20 0xFFFFFFFFFFFFFFFFFFFFFFFFFFFFFFFFFFFFFFFF AND EQ PUSH2 0x4B2 JUMPI PUSH1 0x0 PUSH2 0x4B5 JUMP JUMPDEST PUSH1 0x1 JUMPDEST PUSH1 0x2 PUSH1 0x0 CALLER PUSH20 0xFFFFFFFFFFFFFFFFFFFFFFFFFFFFFFFFFFFFFFFF AND PUSH20 0xFFFFFFFFFFFFFFFFFFFFFFFFFFFFFFFFFFFFFFFF AND DUP2 MSTORE PUSH1 0x20 ADD SWAP1 DUP2 MSTORE PUSH1 0x20 ADD PUSH1 0x0 KECCAK256 PUSH1 0x0 PUSH1 0x3 DUP5 DUP2 SLOAD DUP2 LT PUSH2 0x50A JUMPI PUSH2 0x509 PUSH2 0x1E00 JUMP JUMPDEST JUMPDEST SWAP1 PUSH1 0x0 MSTORE PUSH1 0x20 PUSH1 0x0 KECCAK256 ADD PUSH1 0x0 SWAP1 SLOAD SWAP1 PUSH2 0x100 EXP SWAP1 DIV PUSH20 0xFFFFFFFFFFFFFFFFFFFFFFFFFFFFFFFFFFFFFFFF AND PUSH20 0xFFFFFFFFFFFFFFFFFFFFFFFFFFFFFFFFFFFFFFFF AND PUSH20 0xFFFFFFFFFFFFFFFFFFFFFFFFFFFFFFFFFFFFFFFF AND DUP2 MSTORE PUSH1 0x20 ADD SWAP1 DUP2 MSTORE PUSH1 0x20 ADD PUSH1 0x0 KECCAK256 PUSH1 0x0 PUSH2 0x100 EXP DUP2 SLOAD DUP2 PUSH1 0xFF MUL NOT AND SWAP1 DUP4 ISZERO ISZERO MUL OR SWAP1 SSTORE POP DUP1 DUP1 PUSH2 0x591 SWAP1 PUSH2 0x1E5E JUMP JUMPDEST SWAP2 POP POP PUSH2 0x42D JUMP JUMPDEST POP JUMP JUMPDEST PUSH1 0x0 DUP1 PUSH1 0x0 JUMPDEST PUSH1 0x3 DUP1 SLOAD SWAP1 POP DUP2 LT ISZERO PUSH2 0x6D7 JUMPI PUSH1 0x1 ISZERO ISZERO PUSH1 0x2 PUSH1 0x0 CALLER PUSH20 0xFFFFFFFFFFFFFFFFFFFFFFFFFFFFFFFFFFFFFFFF AND PUSH20 0xFFFFFFFFFFFFFFFFFFFFFFFFFFFFFFFFFFFFFFFF AND DUP2 MSTORE PUSH1 0x20 ADD SWAP1 DUP2 MSTORE PUSH1 0x20 ADD PUSH1 0x0 KECCAK256 PUSH1 0x0 PUSH1 0x3 DUP5 DUP2 SLOAD DUP2 LT PUSH2 0x608 JUMPI PUSH2 0x607 PUSH2 0x1E00 JUMP JUMPDEST JUMPDEST SWAP1 PUSH1 0x0 MSTORE PUSH1 0x20 PUSH1 0x0 KECCAK256 ADD PUSH1 0x0 SWAP1 SLOAD SWAP1 PUSH2 0x100 EXP SWAP1 DIV PUSH20 0xFFFFFFFFFFFFFFFFFFFFFFFFFFFFFFFFFFFFFFFF AND PUSH20 0xFFFFFFFFFFFFFFFFFFFFFFFFFFFFFFFFFFFFFFFF AND PUSH20 0xFFFFFFFFFFFFFFFFFFFFFFFFFFFFFFFFFFFFFFFF AND DUP2 MSTORE PUSH1 0x20 ADD SWAP1 DUP2 MSTORE PUSH1 0x20 ADD PUSH1 0x0 KECCAK256 PUSH1 0x0 SWAP1 SLOAD SWAP1 PUSH2 0x100 EXP SWAP1 DIV PUSH1 0xFF AND ISZERO ISZERO SUB PUSH2 0x6C4 JUMPI PUSH1 0x3 DUP2 DUP2 SLOAD DUP2 LT PUSH2 0x696 JUMPI PUSH2 0x695 PUSH2 0x1E00 JUMP JUMPDEST JUMPDEST SWAP1 PUSH1 0x0 MSTORE PUSH1 0x20 PUSH1 0x0 KECCAK256 ADD PUSH1 0x0 SWAP1 SLOAD SWAP1 PUSH2 0x100 EXP SWAP1 DIV PUSH20 0xFFFFFFFFFFFFFFFFFFFFFFFFFFFFFFFFFFFFFFFF AND SWAP2 POP JUMPDEST DUP1 DUP1 PUSH2 0x6CF SWAP1 PUSH2 0x1E5E JUMP JUMPDEST SWAP2 POP POP PUSH2 0x5A2 JUMP JUMPDEST POP DUP1 SWAP2 POP POP SWAP1 JUMP JUMPDEST PUSH2 0x6E7 PUSH2 0x1072 JUMP JUMPDEST PUSH1 0x0 PUSH1 0x40 MLOAD PUSH2 0x6F5 SWAP1 PUSH2 0x1EFD JUMP JUMPDEST SWAP1 DUP2 MSTORE PUSH1 0x20 ADD PUSH1 0x40 MLOAD DUP1 SWAP2 SUB SWAP1 KECCAK256 PUSH1 0xA DUP1 PUSH1 0x20 MUL PUSH1 0x40 MLOAD SWAP1 DUP2 ADD PUSH1 0x40 MSTORE DUP1 SWAP3 SWAP2 SWAP1 PUSH1 0x0 SWAP1 JUMPDEST DUP3 DUP3 LT ISZERO PUSH2 0x7E8 JUMPI DUP4 DUP3 PUSH1 0x3 MUL ADD PUSH1 0x40 MLOAD DUP1 PUSH1 0x60 ADD PUSH1 0x40 MSTORE SWAP1 DUP2 PUSH1 0x0 DUP3 ADD DUP1 SLOAD PUSH2 0x743 SWAP1 PUSH2 0x1F41 JUMP JUMPDEST DUP1 PUSH1 0x1F ADD PUSH1 0x20 DUP1 SWAP2 DIV MUL PUSH1 0x20 ADD PUSH1 0x40 MLOAD SWAP1 DUP2 ADD PUSH1 0x40 MSTORE DUP1 SWAP3 SWAP2 SWAP1 DUP2 DUP2 MSTORE PUSH1 0x20 ADD DUP3 DUP1 SLOAD PUSH2 0x76F SWAP1 PUSH2 0x1F41 JUMP JUMPDEST DUP1 ISZERO PUSH2 0x7BC JUMPI DUP1 PUSH1 0x1F LT PUSH2 0x791 JUMPI PUSH2 0x100 DUP1 DUP4 SLOAD DIV MUL DUP4 MSTORE SWAP2 PUSH1 0x20 ADD SWAP2 PUSH2 0x7BC JUMP JUMPDEST DUP3 ADD SWAP2 SWAP1 PUSH1 0x0 MSTORE PUSH1 0x20 PUSH1 0x0 KECCAK256 SWAP1 JUMPDEST DUP2 SLOAD DUP2 MSTORE SWAP1 PUSH1 0x1 ADD SWAP1 PUSH1 0x20 ADD DUP1 DUP4 GT PUSH2 0x79F JUMPI DUP3 SWAP1 SUB PUSH1 0x1F AND DUP3 ADD SWAP2 JUMPDEST POP POP POP POP POP DUP2 MSTORE PUSH1 0x20 ADD PUSH1 0x1 DUP3 ADD SLOAD DUP2 MSTORE PUSH1 0x20 ADD PUSH1 0x2 DUP3 ADD SLOAD DUP2 MSTORE POP POP DUP2 MSTORE PUSH1 0x20 ADD SWAP1 PUSH1 0x1 ADD SWAP1 PUSH2 0x71A JUMP JUMPDEST POP POP POP POP SWAP1 POP SWAP1 JUMP JUMPDEST PUSH1 0x60 DUP5 DUP5 DUP5 DUP5 PUSH1 0x40 MLOAD PUSH1 0x20 ADD PUSH2 0x80A SWAP5 SWAP4 SWAP3 SWAP2 SWAP1 PUSH2 0x1F97 JUMP JUMPDEST PUSH1 0x40 MLOAD PUSH1 0x20 DUP2 DUP4 SUB SUB DUP2 MSTORE SWAP1 PUSH1 0x40 MSTORE SWAP1 POP SWAP5 SWAP4 POP POP POP POP JUMP JUMPDEST PUSH2 0x82B PUSH2 0x10A0 JUMP JUMPDEST PUSH1 0x0 PUSH1 0x40 MLOAD DUP1 PUSH1 0x60 ADD PUSH1 0x40 MSTORE DUP1 DUP7 DUP2 MSTORE PUSH1 0x20 ADD DUP6 DUP2 MSTORE PUSH1 0x20 ADD DUP5 DUP2 MSTORE POP SWAP1 POP DUP1 SWAP2 POP POP SWAP4 SWAP3 POP POP POP JUMP JUMPDEST PUSH1 0x40 MLOAD DUP1 PUSH1 0x60 ADD PUSH1 0x40 MSTORE DUP1 DUP6 DUP2 MSTORE PUSH1 0x20 ADD DUP5 DUP2 MSTORE PUSH1 0x20 ADD DUP4 DUP2 MSTORE POP PUSH1 0x0 PUSH1 0x40 MLOAD PUSH2 0x87E SWAP1 PUSH2 0x1EFD JUMP JUMPDEST SWAP1 DUP2 MSTORE PUSH1 0x20 ADD PUSH1 0x40 MLOAD DUP1 SWAP2 SUB SWAP1 KECCAK256 DUP3 PUSH1 0xA DUP2 LT PUSH2 0x89E JUMPI PUSH2 0x89D PUSH2 0x1E00 JUMP JUMPDEST JUMPDEST PUSH1 0x3 MUL ADD PUSH1 0x0 DUP3 ADD MLOAD DUP2 PUSH1 0x0 ADD SWAP1 DUP2 PUSH2 0x8B7 SWAP2 SWAP1 PUSH2 0x216B JUMP JUMPDEST POP PUSH1 0x20 DUP3 ADD MLOAD DUP2 PUSH1 0x1 ADD SSTORE PUSH1 0x40 DUP3 ADD MLOAD DUP2 PUSH1 0x2 ADD SSTORE SWAP1 POP POP POP POP POP POP JUMP JUMPDEST PUSH1 0x4 DUP1 PUSH1 0x1 DUP2 SLOAD ADD DUP1 DUP3 SSTORE DUP1 SWAP2 POP POP PUSH1 0x1 SWAP1 SUB SWAP1 PUSH1 0x0 MSTORE PUSH1 0x20 PUSH1 0x0 KECCAK256 ADD PUSH1 0x0 PUSH1 0x40 MLOAD DUP1 PUSH1 0x40 ADD PUSH1 0x40 MSTORE DUP1 PUSH1 0x5 DUP2 MSTORE PUSH1 0x20 ADD PUSH32 0x6170706C65000000000000000000000000000000000000000000000000000000 DUP2 MSTORE POP SWAP1 SWAP2 SWAP1 SWAP2 POP SWAP1 DUP2 PUSH2 0x93B SWAP2 SWAP1 PUSH2 0x216B JUMP JUMPDEST POP JUMP JUMPDEST PUSH1 0x5 PUSH1 0x0 SWAP1 SLOAD SWAP1 PUSH2 0x100 EXP SWAP1 DIV PUSH1 0xFF AND DUP2 JUMP JUMPDEST PUSH1 0x4 DUP2 DUP2 SLOAD DUP2 LT PUSH2 0x961 JUMPI PUSH1 0x0 DUP1 REVERT JUMPDEST SWAP1 PUSH1 0x0 MSTORE PUSH1 0x20 PUSH1 0x0 KECCAK256 ADD PUSH1 0x0 SWAP2 POP SWAP1 POP DUP1 SLOAD PUSH2 0x97C SWAP1 PUSH2 0x1F41 JUMP JUMPDEST DUP1 PUSH1 0x1F ADD PUSH1 0x20 DUP1 SWAP2 DIV MUL PUSH1 0x20 ADD PUSH1 0x40 MLOAD SWAP1 DUP2 ADD PUSH1 0x40 MSTORE DUP1 SWAP3 SWAP2 SWAP1 DUP2 DUP2 MSTORE PUSH1 0x20 ADD DUP3 DUP1 SLOAD PUSH2 0x9A8 SWAP1 PUSH2 0x1F41 JUMP JUMPDEST DUP1 ISZERO PUSH2 0x9F5 JUMPI DUP1 PUSH1 0x1F LT PUSH2 0x9CA JUMPI PUSH2 0x100 DUP1 DUP4 SLOAD DIV MUL DUP4 MSTORE SWAP2 PUSH1 0x20 ADD SWAP2 PUSH2 0x9F5 JUMP JUMPDEST DUP3 ADD SWAP2 SWAP1 PUSH1 0x0 MSTORE PUSH1 0x20 PUSH1 0x0 KECCAK256 SWAP1 JUMPDEST DUP2 SLOAD DUP2 MSTORE SWAP1 PUSH1 0x1 ADD SWAP1 PUSH1 0x20 ADD DUP1 DUP4 GT PUSH2 0x9D8 JUMPI DUP3 SWAP1 SUB PUSH1 0x1F AND DUP3 ADD SWAP2 JUMPDEST POP POP POP POP POP DUP2 JUMP JUMPDEST PUSH1 0x60 PUSH1 0x0 PUSH1 0x2 DUP2 GT ISZERO PUSH2 0xA13 JUMPI PUSH2 0xA12 PUSH2 0x195E JUMP JUMPDEST JUMPDEST PUSH1 0x5 PUSH1 0x0 SWAP1 SLOAD SWAP1 PUSH2 0x100 EXP SWAP1 DIV PUSH1 0xFF AND PUSH1 0x2 DUP2 GT ISZERO PUSH2 0xA35 JUMPI PUSH2 0xA34 PUSH2 0x195E JUMP JUMPDEST JUMPDEST SUB PUSH2 0xA77 JUMPI PUSH1 0x40 MLOAD DUP1 PUSH1 0x40 ADD PUSH1 0x40 MSTORE DUP1 PUSH1 0x5 DUP2 MSTORE PUSH1 0x20 ADD PUSH32 0x534D414C4C000000000000000000000000000000000000000000000000000000 DUP2 MSTORE POP SWAP1 POP PUSH2 0xB27 JUMP JUMPDEST PUSH1 0x2 DUP1 DUP2 GT ISZERO PUSH2 0xA8A JUMPI PUSH2 0xA89 PUSH2 0x195E JUMP JUMPDEST JUMPDEST PUSH1 0x5 PUSH1 0x0 SWAP1 SLOAD SWAP1 PUSH2 0x100 EXP SWAP1 DIV PUSH1 0xFF AND PUSH1 0x2 DUP2 GT ISZERO PUSH2 0xAAC JUMPI PUSH2 0xAAB PUSH2 0x195E JUMP JUMPDEST JUMPDEST SUB PUSH2 0xAEE JUMPI PUSH1 0x40 MLOAD DUP1 PUSH1 0x40 ADD PUSH1 0x40 MSTORE DUP1 PUSH1 0x5 DUP2 MSTORE PUSH1 0x20 ADD PUSH32 0x4C41524745000000000000000000000000000000000000000000000000000000 DUP2 MSTORE POP SWAP1 POP PUSH2 0xB27 JUMP JUMPDEST PUSH1 0x40 MLOAD DUP1 PUSH1 0x40 ADD PUSH1 0x40 MSTORE DUP1 PUSH1 0x6 DUP2 MSTORE PUSH1 0x20 ADD PUSH32 0x4D454449554D0000000000000000000000000000000000000000000000000000 DUP2 MSTORE POP SWAP1 POP JUMPDEST SWAP1 JUMP JUMPDEST PUSH2 0xB32 PUSH2 0x10C1 JUMP JUMPDEST PUSH1 0x1 PUSH1 0x0 CALLER PUSH20 0xFFFFFFFFFFFFFFFFFFFFFFFFFFFFFFFFFFFFFFFF AND PUSH20 0xFFFFFFFFFFFFFFFFFFFFFFFFFFFFFFFFFFFFFFFF AND DUP2 MSTORE PUSH1 0x20 ADD SWAP1 DUP2 MSTORE PUSH1 0x20 ADD PUSH1 0x0 KECCAK256 PUSH1 0x3 DUP1 PUSH1 0x20 MUL PUSH1 0x40 MLOAD SWAP1 DUP2 ADD PUSH1 0x40 MSTORE DUP1 SWAP3 SWAP2 SWAP1 DUP3 PUSH1 0x3 DUP1 ISZERO PUSH2 0xBA8 JUMPI PUSH1 0x20 MUL DUP3 ADD SWAP2 JUMPDEST DUP2 SLOAD DUP2 MSTORE PUSH1 0x20 ADD SWAP1 PUSH1 0x1 ADD SWAP1 DUP1 DUP4 GT PUSH2 0xB94 JUMPI JUMPDEST POP POP POP POP POP SWAP1 POP SWAP1 JUMP JUMPDEST PUSH1 0x2 PUSH1 0x20 MSTORE DUP2 PUSH1 0x0 MSTORE PUSH1 0x40 PUSH1 0x0 KECCAK256 PUSH1 0x20 MSTORE DUP1 PUSH1 0x0 MSTORE PUSH1 0x40 PUSH1 0x0 KECCAK256 PUSH1 0x0 SWAP2 POP SWAP2 POP SWAP1 SLOAD SWAP1 PUSH2 0x100 EXP SWAP1 DIV PUSH1 0xFF AND DUP2 JUMP JUMPDEST PUSH1 0x40 MLOAD DUP1 PUSH1 0x60 ADD PUSH1 0x40 MSTORE DUP1 DUP5 DUP2 MSTORE PUSH1 0x20 ADD DUP4 DUP2 MSTORE PUSH1 0x20 ADD DUP3 DUP2 MSTORE POP PUSH1 0x1 PUSH1 0x0 CALLER PUSH20 0xFFFFFFFFFFFFFFFFFFFFFFFFFFFFFFFFFFFFFFFF AND PUSH20 0xFFFFFFFFFFFFFFFFFFFFFFFFFFFFFFFFFFFFFFFF AND DUP2 MSTORE PUSH1 0x20 ADD SWAP1 DUP2 MSTORE PUSH1 0x20 ADD PUSH1 0x0 KECCAK256 SWAP1 PUSH1 0x3 PUSH2 0xC49 SWAP3 SWAP2 SWAP1 PUSH2 0x10E3 JUMP JUMPDEST POP POP POP POP JUMP JUMPDEST PUSH1 0x4 DUP1 SLOAD DUP1 PUSH2 0xC61 JUMPI PUSH2 0xC60 PUSH2 0x223D JUMP JUMPDEST JUMPDEST PUSH1 0x1 SWAP1 SUB DUP2 DUP2 SWAP1 PUSH1 0x0 MSTORE PUSH1 0x20 PUSH1 0x0 KECCAK256 ADD PUSH1 0x0 PUSH2 0xC7D SWAP2 SWAP1 PUSH2 0x1123 JUMP JUMPDEST SWAP1 SSTORE JUMP JUMPDEST PUSH1 0x0 DUP3 DUP1 MLOAD PUSH1 0x20 DUP2 ADD DUP3 ADD DUP1 MLOAD DUP5 DUP3 MSTORE PUSH1 0x20 DUP4 ADD PUSH1 0x20 DUP6 ADD KECCAK256 DUP2 DUP4 MSTORE DUP1 SWAP6 POP POP POP POP POP POP DUP2 PUSH1 0xA DUP2 LT PUSH2 0xCB3 JUMPI PUSH1 0x0 DUP1 REVERT JUMPDEST PUSH1 0x3 MUL ADD PUSH1 0x0 SWAP2 POP SWAP2 POP POP DUP1 PUSH1 0x0 ADD DUP1 SLOAD PUSH2 0xCCD SWAP1 PUSH2 0x1F41 JUMP JUMPDEST DUP1 PUSH1 0x1F ADD PUSH1 0x20 DUP1 SWAP2 DIV MUL PUSH1 0x20 ADD PUSH1 0x40 MLOAD SWAP1 DUP2 ADD PUSH1 0x40 MSTORE DUP1 SWAP3 SWAP2 SWAP1 DUP2 DUP2 MSTORE PUSH1 0x20 ADD DUP3 DUP1 SLOAD PUSH2 0xCF9 SWAP1 PUSH2 0x1F41 JUMP JUMPDEST DUP1 ISZERO PUSH2 0xD46 JUMPI DUP1 PUSH1 0x1F LT PUSH2 0xD1B JUMPI PUSH2 0x100 DUP1 DUP4 SLOAD DIV MUL DUP4 MSTORE SWAP2 PUSH1 0x20 ADD SWAP2 PUSH2 0xD46 JUMP JUMPDEST DUP3 ADD SWAP2 SWAP1 PUSH1 0x0 MSTORE PUSH1 0x20 PUSH1 0x0 KECCAK256 SWAP1 JUMPDEST DUP2 SLOAD DUP2 MSTORE SWAP1 PUSH1 0x1 ADD SWAP1 PUSH1 0x20 ADD DUP1 DUP4 GT PUSH2 0xD29 JUMPI DUP3 SWAP1 SUB PUSH1 0x1F AND DUP3 ADD SWAP2 JUMPDEST POP POP POP POP POP SWAP1 DUP1 PUSH1 0x1 ADD SLOAD SWAP1 DUP1 PUSH1 0x2 ADD SLOAD SWAP1 POP DUP4 JUMP JUMPDEST PUSH1 0x0 DUP1 DUP3 PUSH1 0x0 DUP2 MLOAD DUP2 LT PUSH2 0xD73 JUMPI PUSH2 0xD72 PUSH2 0x1E00 JUMP JUMPDEST JUMPDEST PUSH1 0x20 MUL PUSH1 0x20 ADD ADD MLOAD SWAP1 POP PUSH1 0x0 PUSH1 0x1 SWAP1 POP JUMPDEST DUP4 MLOAD DUP2 LT ISZERO PUSH2 0xE06 JUMPI DUP4 PUSH1 0x1 DUP3 PUSH2 0xD9B SWAP2 SWAP1 PUSH2 0x226C JUMP JUMPDEST DUP2 MLOAD DUP2 LT PUSH2 0xDAC JUMPI PUSH2 0xDAB PUSH2 0x1E00 JUMP JUMPDEST JUMPDEST PUSH1 0x20 MUL PUSH1 0x20 ADD ADD MLOAD DUP5 DUP3 DUP2 MLOAD DUP2 LT PUSH2 0xDC7 JUMPI PUSH2 0xDC6 PUSH2 0x1E00 JUMP JUMPDEST JUMPDEST PUSH1 0x20 MUL PUSH1 0x20 ADD ADD MLOAD GT ISZERO PUSH2 0xDF3 JUMPI DUP4 DUP2 DUP2 MLOAD DUP2 LT PUSH2 0xDE8 JUMPI PUSH2 0xDE7 PUSH2 0x1E00 JUMP JUMPDEST JUMPDEST PUSH1 0x20 MUL PUSH1 0x20 ADD ADD MLOAD SWAP2 POP JUMPDEST DUP1 DUP1 PUSH2 0xDFE SWAP1 PUSH2 0x1E5E JUMP JUMPDEST SWAP2 POP POP PUSH2 0xD84 JUMP JUMPDEST POP DUP1 SWAP2 POP POP SWAP2 SWAP1 POP JUMP JUMPDEST DUP1 PUSH1 0x5 PUSH1 0x0 PUSH2 0x100 EXP DUP2 SLOAD DUP2 PUSH1 0xFF MUL NOT AND SWAP1 DUP4 PUSH1 0x2 DUP2 GT ISZERO PUSH2 0xE35 JUMPI PUSH2 0xE34 PUSH2 0x195E JUMP JUMPDEST JUMPDEST MUL OR SWAP1 SSTORE POP POP JUMP JUMPDEST PUSH1 0x3 DUP2 SWAP1 DUP1 PUSH1 0x1 DUP2 SLOAD ADD DUP1 DUP3 SSTORE DUP1 SWAP2 POP POP PUSH1 0x1 SWAP1 SUB SWAP1 PUSH1 0x0 MSTORE PUSH1 0x20 PUSH1 0x0 KECCAK256 ADD PUSH1 0x0 SWAP1 SWAP2 SWAP1 SWAP2 SWAP1 SWAP2 PUSH2 0x100 EXP DUP2 SLOAD DUP2 PUSH20 0xFFFFFFFFFFFFFFFFFFFFFFFFFFFFFFFFFFFFFFFF MUL NOT AND SWAP1 DUP4 PUSH20 0xFFFFFFFFFFFFFFFFFFFFFFFFFFFFFFFFFFFFFFFF AND MUL OR SWAP1 SSTORE POP PUSH1 0x0 JUMPDEST PUSH1 0x3 DUP1 SLOAD SWAP1 POP DUP2 LT ISZERO PUSH2 0x100F JUMPI DUP2 PUSH20 0xFFFFFFFFFFFFFFFFFFFFFFFFFFFFFFFFFFFFFFFF AND PUSH1 0x3 DUP3 DUP2 SLOAD DUP2 LT PUSH2 0xEDB JUMPI PUSH2 0xEDA PUSH2 0x1E00 JUMP JUMPDEST JUMPDEST SWAP1 PUSH1 0x0 MSTORE PUSH1 0x20 PUSH1 0x0 KECCAK256 ADD PUSH1 0x0 SWAP1 SLOAD SWAP1 PUSH2 0x100 EXP SWAP1 DIV PUSH20 0xFFFFFFFFFFFFFFFFFFFFFFFFFFFFFFFFFFFFFFFF AND PUSH20 0xFFFFFFFFFFFFFFFFFFFFFFFFFFFFFFFFFFFFFFFF AND EQ PUSH2 0xF28 JUMPI PUSH1 0x0 PUSH2 0xF2B JUMP JUMPDEST PUSH1 0x1 JUMPDEST PUSH1 0x2 PUSH1 0x0 CALLER PUSH20 0xFFFFFFFFFFFFFFFFFFFFFFFFFFFFFFFFFFFFFFFF AND PUSH20 0xFFFFFFFFFFFFFFFFFFFFFFFFFFFFFFFFFFFFFFFF AND DUP2 MSTORE PUSH1 0x20 ADD SWAP1 DUP2 MSTORE PUSH1 0x20 ADD PUSH1 0x0 KECCAK256 PUSH1 0x0 PUSH1 0x3 DUP5 DUP2 SLOAD DUP2 LT PUSH2 0xF80 JUMPI PUSH2 0xF7F PUSH2 0x1E00 JUMP JUMPDEST JUMPDEST SWAP1 PUSH1 0x0 MSTORE PUSH1 0x20 PUSH1 0x0 KECCAK256 ADD PUSH1 0x0 SWAP1 SLOAD SWAP1 PUSH2 0x100 EXP SWAP1 DIV PUSH20 0xFFFFFFFFFFFFFFFFFFFFFFFFFFFFFFFFFFFFFFFF AND PUSH20 0xFFFFFFFFFFFFFFFFFFFFFFFFFFFFFFFFFFFFFFFF AND PUSH20 0xFFFFFFFFFFFFFFFFFFFFFFFFFFFFFFFFFFFFFFFF AND DUP2 MSTORE PUSH1 0x20 ADD SWAP1 DUP2 MSTORE PUSH1 0x20 ADD PUSH1 0x0 KECCAK256 PUSH1 0x0 PUSH2 0x100 EXP DUP2 SLOAD DUP2 PUSH1 0xFF MUL NOT AND SWAP1 DUP4 ISZERO ISZERO MUL OR SWAP1 SSTORE POP DUP1 DUP1 PUSH2 0x1007 SWAP1 PUSH2 0x1E5E JUMP JUMPDEST SWAP2 POP POP PUSH2 0xEA3 JUMP JUMPDEST POP POP JUMP JUMPDEST PUSH1 0x0 DUP3 DUP3 PUSH1 0x40 MLOAD PUSH1 0x20 ADD PUSH2 0x1028 SWAP3 SWAP2 SWAP1 PUSH2 0x22A0 JUMP JUMPDEST PUSH1 0x40 MLOAD PUSH1 0x20 DUP2 DUP4 SUB SUB DUP2 MSTORE SWAP1 PUSH1 0x40 MSTORE DUP1 MLOAD SWAP1 PUSH1 0x20 ADD KECCAK256 DUP6 DUP6 PUSH1 0x40 MLOAD PUSH1 0x20 ADD PUSH2 0x1051 SWAP3 SWAP2 SWAP1 PUSH2 0x22A0 JUMP JUMPDEST PUSH1 0x40 MLOAD PUSH1 0x20 DUP2 DUP4 SUB SUB DUP2 MSTORE SWAP1 PUSH1 0x40 MSTORE DUP1 MLOAD SWAP1 PUSH1 0x20 ADD KECCAK256 EQ SWAP1 POP SWAP5 SWAP4 POP POP POP POP JUMP JUMPDEST PUSH1 0x40 MLOAD DUP1 PUSH2 0x140 ADD PUSH1 0x40 MSTORE DUP1 PUSH1 0xA SWAP1 JUMPDEST PUSH2 0x108A PUSH2 0x10A0 JUMP JUMPDEST DUP2 MSTORE PUSH1 0x20 ADD SWAP1 PUSH1 0x1 SWAP1 SUB SWAP1 DUP2 PUSH2 0x1082 JUMPI SWAP1 POP POP SWAP1 JUMP JUMPDEST PUSH1 0x40 MLOAD DUP1 PUSH1 0x60 ADD PUSH1 0x40 MSTORE DUP1 PUSH1 0x60 DUP2 MSTORE PUSH1 0x20 ADD PUSH1 0x0 DUP2 MSTORE PUSH1 0x20 ADD PUSH1 0x0 DUP2 MSTORE POP SWAP1 JUMP JUMPDEST PUSH1 0x40 MLOAD DUP1 PUSH1 0x60 ADD PUSH1 0x40 MSTORE DUP1 PUSH1 0x3 SWAP1 PUSH1 0x20 DUP3 MUL DUP1 CALLDATASIZE DUP4 CALLDATACOPY DUP1 DUP3 ADD SWAP2 POP POP SWAP1 POP POP SWAP1 JUMP JUMPDEST DUP3 PUSH1 0x3 DUP2 ADD SWAP3 DUP3 ISZERO PUSH2 0x1112 JUMPI SWAP2 PUSH1 0x20 MUL DUP3 ADD JUMPDEST DUP3 DUP2 GT ISZERO PUSH2 0x1111 JUMPI DUP3 MLOAD DUP3 SSTORE SWAP2 PUSH1 0x20 ADD SWAP2 SWAP1 PUSH1 0x1 ADD SWAP1 PUSH2 0x10F6 JUMP JUMPDEST JUMPDEST POP SWAP1 POP PUSH2 0x111F SWAP2 SWAP1 PUSH2 0x1163 JUMP JUMPDEST POP SWAP1 JUMP JUMPDEST POP DUP1 SLOAD PUSH2 0x112F SWAP1 PUSH2 0x1F41 JUMP JUMPDEST PUSH1 0x0 DUP3 SSTORE DUP1 PUSH1 0x1F LT PUSH2 0x1141 JUMPI POP PUSH2 0x1160 JUMP JUMPDEST PUSH1 0x1F ADD PUSH1 0x20 SWAP1 DIV SWAP1 PUSH1 0x0 MSTORE PUSH1 0x20 PUSH1 0x0 KECCAK256 SWAP1 DUP2 ADD SWAP1 PUSH2 0x115F SWAP2 SWAP1 PUSH2 0x1163 JUMP JUMPDEST JUMPDEST POP JUMP JUMPDEST JUMPDEST DUP1 DUP3 GT ISZERO PUSH2 0x117C JUMPI PUSH1 0x0 DUP2 PUSH1 0x0 SWAP1 SSTORE POP PUSH1 0x1 ADD PUSH2 0x1164 JUMP JUMPDEST POP SWAP1 JUMP JUMPDEST PUSH1 0x0 PUSH1 0x40 MLOAD SWAP1 POP SWAP1 JUMP JUMPDEST PUSH1 0x0 DUP1 REVERT JUMPDEST PUSH1 0x0 DUP1 REVERT JUMPDEST PUSH1 0x0 DUP2 SWAP1 POP SWAP2 SWAP1 POP JUMP JUMPDEST PUSH2 0x11A7 DUP2 PUSH2 0x1194 JUMP JUMPDEST DUP2 EQ PUSH2 0x11B2 JUMPI PUSH1 0x0 DUP1 REVERT JUMPDEST POP JUMP JUMPDEST PUSH1 0x0 DUP2 CALLDATALOAD SWAP1 POP PUSH2 0x11C4 DUP2 PUSH2 0x119E JUMP JUMPDEST SWAP3 SWAP2 POP POP JUMP JUMPDEST PUSH1 0x0 DUP1 REVERT JUMPDEST PUSH1 0x0 PUSH1 0x1F NOT PUSH1 0x1F DUP4 ADD AND SWAP1 POP SWAP2 SWAP1 POP JUMP JUMPDEST PUSH32 0x4E487B7100000000000000000000000000000000000000000000000000000000 PUSH1 0x0 MSTORE PUSH1 0x41 PUSH1 0x4 MSTORE PUSH1 0x24 PUSH1 0x0 REVERT JUMPDEST PUSH2 0x1218 DUP3 PUSH2 0x11CF JUMP JUMPDEST DUP2 ADD DUP2 DUP2 LT PUSH8 0xFFFFFFFFFFFFFFFF DUP3 GT OR ISZERO PUSH2 0x1237 JUMPI PUSH2 0x1236 PUSH2 0x11E0 JUMP JUMPDEST JUMPDEST DUP1 PUSH1 0x40 MSTORE POP POP POP JUMP JUMPDEST PUSH1 0x0 PUSH2 0x124A PUSH2 0x1180 JUMP JUMPDEST SWAP1 POP PUSH2 0x1256 DUP3 DUP3 PUSH2 0x120F JUMP JUMPDEST SWAP2 SWAP1 POP JUMP JUMPDEST PUSH1 0x0 PUSH8 0xFFFFFFFFFFFFFFFF DUP3 GT ISZERO PUSH2 0x1276 JUMPI PUSH2 0x1275 PUSH2 0x11E0 JUMP JUMPDEST JUMPDEST PUSH1 0x20 DUP3 MUL SWAP1 POP PUSH1 0x20 DUP2 ADD SWAP1 POP SWAP2 SWAP1 POP JUMP JUMPDEST PUSH1 0x0 DUP1 REVERT JUMPDEST PUSH1 0x0 PUSH2 0x129F PUSH2 0x129A DUP5 PUSH2 0x125B JUMP JUMPDEST PUSH2 0x1240 JUMP JUMPDEST SWAP1 POP DUP1 DUP4 DUP3 MSTORE PUSH1 0x20 DUP3 ADD SWAP1 POP PUSH1 0x20 DUP5 MUL DUP4 ADD DUP6 DUP2 GT ISZERO PUSH2 0x12C2 JUMPI PUSH2 0x12C1 PUSH2 0x1287 JUMP JUMPDEST JUMPDEST DUP4 JUMPDEST DUP2 DUP2 LT ISZERO PUSH2 0x12EB JUMPI DUP1 PUSH2 0x12D7 DUP9 DUP3 PUSH2 0x11B5 JUMP JUMPDEST DUP5 MSTORE PUSH1 0x20 DUP5 ADD SWAP4 POP POP PUSH1 0x20 DUP2 ADD SWAP1 POP PUSH2 0x12C4 JUMP JUMPDEST POP POP POP SWAP4 SWAP3 POP POP POP JUMP JUMPDEST PUSH1 0x0 DUP3 PUSH1 0x1F DUP4 ADD SLT PUSH2 0x130A JUMPI PUSH2 0x1309 PUSH2 0x11CA JUMP JUMPDEST JUMPDEST DUP2 CALLDATALOAD PUSH2 0x131A DUP5 DUP3 PUSH1 0x20 DUP7 ADD PUSH2 0x128C JUMP JUMPDEST SWAP2 POP POP SWAP3 SWAP2 POP POP JUMP JUMPDEST PUSH1 0x0 DUP1 PUSH1 0x40 DUP4 DUP6 SUB SLT ISZERO PUSH2 0x133A JUMPI PUSH2 0x1339 PUSH2 0x118A JUMP JUMPDEST JUMPDEST PUSH1 0x0 PUSH2 0x1348 DUP6 DUP3 DUP7 ADD PUSH2 0x11B5 JUMP JUMPDEST SWAP3 POP POP PUSH1 0x20 DUP4 ADD CALLDATALOAD PUSH8 0xFFFFFFFFFFFFFFFF DUP2 GT ISZERO PUSH2 0x1369 JUMPI PUSH2 0x1368 PUSH2 0x118F JUMP JUMPDEST JUMPDEST PUSH2 0x1375 DUP6 DUP3 DUP7 ADD PUSH2 0x12F5 JUMP JUMPDEST SWAP2 POP POP SWAP3 POP SWAP3 SWAP1 POP JUMP JUMPDEST PUSH1 0x0 DUP2 ISZERO ISZERO SWAP1 POP SWAP2 SWAP1 POP JUMP JUMPDEST PUSH2 0x1394 DUP2 PUSH2 0x137F JUMP JUMPDEST DUP3 MSTORE POP POP JUMP JUMPDEST PUSH1 0x0 PUSH1 0x20 DUP3 ADD SWAP1 POP PUSH2 0x13AF PUSH1 0x0 DUP4 ADD DUP5 PUSH2 0x138B JUMP JUMPDEST SWAP3 SWAP2 POP POP JUMP JUMPDEST PUSH1 0x0 PUSH20 0xFFFFFFFFFFFFFFFFFFFFFFFFFFFFFFFFFFFFFFFF DUP3 AND SWAP1 POP SWAP2 SWAP1 POP JUMP JUMPDEST PUSH1 0x0 PUSH2 0x13E0 DUP3 PUSH2 0x13B5 JUMP JUMPDEST SWAP1 POP SWAP2 SWAP1 POP JUMP JUMPDEST PUSH2 0x13F0 DUP2 PUSH2 0x13D5 JUMP JUMPDEST DUP3 MSTORE POP POP JUMP JUMPDEST PUSH1 0x0 PUSH1 0x20 DUP3 ADD SWAP1 POP PUSH2 0x140B PUSH1 0x0 DUP4 ADD DUP5 PUSH2 0x13E7 JUMP JUMPDEST SWAP3 SWAP2 POP POP JUMP JUMPDEST PUSH1 0x0 PUSH1 0xA SWAP1 POP SWAP2 SWAP1 POP JUMP JUMPDEST PUSH1 0x0 DUP2 SWAP1 POP SWAP3 SWAP2 POP POP JUMP JUMPDEST PUSH1 0x0 DUP2 SWAP1 POP SWAP2 SWAP1 POP JUMP JUMPDEST PUSH1 0x0 DUP2 MLOAD SWAP1 POP SWAP2 SWAP1 POP JUMP JUMPDEST PUSH1 0x0 DUP3 DUP3 MSTORE PUSH1 0x20 DUP3 ADD SWAP1 POP SWAP3 SWAP2 POP POP JUMP JUMPDEST PUSH1 0x0 JUMPDEST DUP4 DUP2 LT ISZERO PUSH2 0x146B JUMPI DUP1 DUP3 ADD MLOAD DUP2 DUP5 ADD MSTORE PUSH1 0x20 DUP2 ADD SWAP1 POP PUSH2 0x1450 JUMP JUMPDEST PUSH1 0x0 DUP5 DUP5 ADD MSTORE POP POP POP POP JUMP JUMPDEST PUSH1 0x0 PUSH2 0x1482 DUP3 PUSH2 0x1431 JUMP JUMPDEST PUSH2 0x148C DUP2 DUP6 PUSH2 0x143C JUMP JUMPDEST SWAP4 POP PUSH2 0x149C DUP2 DUP6 PUSH1 0x20 DUP7 ADD PUSH2 0x144D JUMP JUMPDEST PUSH2 0x14A5 DUP2 PUSH2 0x11CF JUMP JUMPDEST DUP5 ADD SWAP2 POP POP SWAP3 SWAP2 POP POP JUMP JUMPDEST PUSH2 0x14B9 DUP2 PUSH2 0x1194 JUMP JUMPDEST DUP3 MSTORE POP POP JUMP JUMPDEST PUSH1 0x0 PUSH1 0x60 DUP4 ADD PUSH1 0x0 DUP4 ADD MLOAD DUP5 DUP3 SUB PUSH1 0x0 DUP7 ADD MSTORE PUSH2 0x14DC DUP3 DUP3 PUSH2 0x1477 JUMP JUMPDEST SWAP2 POP POP PUSH1 0x20 DUP4 ADD MLOAD PUSH2 0x14F1 PUSH1 0x20 DUP7 ADD DUP3 PUSH2 0x14B0 JUMP JUMPDEST POP PUSH1 0x40 DUP4 ADD MLOAD PUSH2 0x1504 PUSH1 0x40 DUP7 ADD DUP3 PUSH2 0x14B0 JUMP JUMPDEST POP DUP1 SWAP2 POP POP SWAP3 SWAP2 POP POP JUMP JUMPDEST PUSH1 0x0 PUSH2 0x151B DUP4 DUP4 PUSH2 0x14BF JUMP JUMPDEST SWAP1 POP SWAP3 SWAP2 POP POP JUMP JUMPDEST PUSH1 0x0 PUSH1 0x20 DUP3 ADD SWAP1 POP SWAP2 SWAP1 POP JUMP JUMPDEST PUSH1 0x0 PUSH2 0x153B DUP3 PUSH2 0x1411 JUMP JUMPDEST PUSH2 0x1545 DUP2 DUP6 PUSH2 0x141C JUMP JUMPDEST SWAP4 POP DUP4 PUSH1 0x20 DUP3 MUL DUP6 ADD PUSH2 0x1557 DUP6 PUSH2 0x1427 JUMP JUMPDEST DUP1 PUSH1 0x0 JUMPDEST DUP6 DUP2 LT ISZERO PUSH2 0x1593 JUMPI DUP5 DUP5 SUB DUP10 MSTORE DUP2 MLOAD PUSH2 0x1574 DUP6 DUP3 PUSH2 0x150F JUMP JUMPDEST SWAP5 POP PUSH2 0x157F DUP4 PUSH2 0x1523 JUMP JUMPDEST SWAP3 POP PUSH1 0x20 DUP11 ADD SWAP10 POP POP PUSH1 0x1 DUP2 ADD SWAP1 POP PUSH2 0x155B JUMP JUMPDEST POP DUP3 SWAP8 POP DUP8 SWAP6 POP POP POP POP POP POP SWAP3 SWAP2 POP POP JUMP JUMPDEST PUSH1 0x0 PUSH1 0x20 DUP3 ADD SWAP1 POP DUP2 DUP2 SUB PUSH1 0x0 DUP4 ADD MSTORE PUSH2 0x15BF DUP2 DUP5 PUSH2 0x1530 JUMP JUMPDEST SWAP1 POP SWAP3 SWAP2 POP POP JUMP JUMPDEST PUSH1 0x0 DUP1 REVERT JUMPDEST PUSH1 0x0 DUP1 DUP4 PUSH1 0x1F DUP5 ADD SLT PUSH2 0x15E2 JUMPI PUSH2 0x15E1 PUSH2 0x11CA JUMP JUMPDEST JUMPDEST DUP3 CALLDATALOAD SWAP1 POP PUSH8 0xFFFFFFFFFFFFFFFF DUP2 GT ISZERO PUSH2 0x15FF JUMPI PUSH2 0x15FE PUSH2 0x15C7 JUMP JUMPDEST JUMPDEST PUSH1 0x20 DUP4 ADD SWAP2 POP DUP4 PUSH1 0x1 DUP3 MUL DUP4 ADD GT ISZERO PUSH2 0x161B JUMPI PUSH2 0x161A PUSH2 0x1287 JUMP JUMPDEST JUMPDEST SWAP3 POP SWAP3 SWAP1 POP JUMP JUMPDEST PUSH1 0x0 DUP1 PUSH1 0x0 DUP1 PUSH1 0x40 DUP6 DUP8 SUB SLT ISZERO PUSH2 0x163C JUMPI PUSH2 0x163B PUSH2 0x118A JUMP JUMPDEST JUMPDEST PUSH1 0x0 DUP6 ADD CALLDATALOAD PUSH8 0xFFFFFFFFFFFFFFFF DUP2 GT ISZERO PUSH2 0x165A JUMPI PUSH2 0x1659 PUSH2 0x118F JUMP JUMPDEST JUMPDEST PUSH2 0x1666 DUP8 DUP3 DUP9 ADD PUSH2 0x15CC JUMP JUMPDEST SWAP5 POP SWAP5 POP POP PUSH1 0x20 DUP6 ADD CALLDATALOAD PUSH8 0xFFFFFFFFFFFFFFFF DUP2 GT ISZERO PUSH2 0x1689 JUMPI PUSH2 0x1688 PUSH2 0x118F JUMP JUMPDEST JUMPDEST PUSH2 0x1695 DUP8 DUP3 DUP9 ADD PUSH2 0x15CC JUMP JUMPDEST SWAP3 POP SWAP3 POP POP SWAP3 SWAP6 SWAP2 SWAP5 POP SWAP3 POP JUMP JUMPDEST PUSH1 0x0 DUP3 DUP3 MSTORE PUSH1 0x20 DUP3 ADD SWAP1 POP SWAP3 SWAP2 POP POP JUMP JUMPDEST PUSH1 0x0 PUSH2 0x16BF DUP3 PUSH2 0x1431 JUMP JUMPDEST PUSH2 0x16C9 DUP2 DUP6 PUSH2 0x16A3 JUMP JUMPDEST SWAP4 POP PUSH2 0x16D9 DUP2 DUP6 PUSH1 0x20 DUP7 ADD PUSH2 0x144D JUMP JUMPDEST PUSH2 0x16E2 DUP2 PUSH2 0x11CF JUMP JUMPDEST DUP5 ADD SWAP2 POP POP SWAP3 SWAP2 POP POP JUMP JUMPDEST PUSH1 0x0 PUSH1 0x20 DUP3 ADD SWAP1 POP DUP2 DUP2 SUB PUSH1 0x0 DUP4 ADD MSTORE PUSH2 0x1707 DUP2 DUP5 PUSH2 0x16B4 JUMP JUMPDEST SWAP1 POP SWAP3 SWAP2 POP POP JUMP JUMPDEST PUSH1 0x0 DUP1 REVERT JUMPDEST PUSH1 0x0 PUSH8 0xFFFFFFFFFFFFFFFF DUP3 GT ISZERO PUSH2 0x172F JUMPI PUSH2 0x172E PUSH2 0x11E0 JUMP JUMPDEST JUMPDEST PUSH2 0x1738 DUP3 PUSH2 0x11CF JUMP JUMPDEST SWAP1 POP PUSH1 0x20 DUP2 ADD SWAP1 POP SWAP2 SWAP1 POP JUMP JUMPDEST DUP3 DUP2 DUP4 CALLDATACOPY PUSH1 0x0 DUP4 DUP4 ADD MSTORE POP POP POP JUMP JUMPDEST PUSH1 0x0 PUSH2 0x1767 PUSH2 0x1762 DUP5 PUSH2 0x1714 JUMP JUMPDEST PUSH2 0x1240 JUMP JUMPDEST SWAP1 POP DUP3 DUP2 MSTORE PUSH1 0x20 DUP2 ADD DUP5 DUP5 DUP5 ADD GT ISZERO PUSH2 0x1783 JUMPI PUSH2 0x1782 PUSH2 0x170F JUMP JUMPDEST JUMPDEST PUSH2 0x178E DUP5 DUP3 DUP6 PUSH2 0x1745 JUMP JUMPDEST POP SWAP4 SWAP3 POP POP POP JUMP JUMPDEST PUSH1 0x0 DUP3 PUSH1 0x1F DUP4 ADD SLT PUSH2 0x17AB JUMPI PUSH2 0x17AA PUSH2 0x11CA JUMP JUMPDEST JUMPDEST DUP2 CALLDATALOAD PUSH2 0x17BB DUP5 DUP3 PUSH1 0x20 DUP7 ADD PUSH2 0x1754 JUMP JUMPDEST SWAP2 POP POP SWAP3 SWAP2 POP POP JUMP JUMPDEST PUSH1 0x0 DUP1 PUSH1 0x0 PUSH1 0x60 DUP5 DUP7 SUB SLT ISZERO PUSH2 0x17DD JUMPI PUSH2 0x17DC PUSH2 0x118A JUMP JUMPDEST JUMPDEST PUSH1 0x0 DUP5 ADD CALLDATALOAD PUSH8 0xFFFFFFFFFFFFFFFF DUP2 GT ISZERO PUSH2 0x17FB JUMPI PUSH2 0x17FA PUSH2 0x118F JUMP JUMPDEST JUMPDEST PUSH2 0x1807 DUP7 DUP3 DUP8 ADD PUSH2 0x1796 JUMP JUMPDEST SWAP4 POP POP PUSH1 0x20 PUSH2 0x1818 DUP7 DUP3 DUP8 ADD PUSH2 0x11B5 JUMP JUMPDEST SWAP3 POP POP PUSH1 0x40 PUSH2 0x1829 DUP7 DUP3 DUP8 ADD PUSH2 0x11B5 JUMP JUMPDEST SWAP2 POP POP SWAP3 POP SWAP3 POP SWAP3 JUMP JUMPDEST PUSH1 0x0 PUSH1 0x60 DUP4 ADD PUSH1 0x0 DUP4 ADD MLOAD DUP5 DUP3 SUB PUSH1 0x0 DUP7 ADD MSTORE PUSH2 0x1850 DUP3 DUP3 PUSH2 0x1477 JUMP JUMPDEST SWAP2 POP POP PUSH1 0x20 DUP4 ADD MLOAD PUSH2 0x1865 PUSH1 0x20 DUP7 ADD DUP3 PUSH2 0x14B0 JUMP JUMPDEST POP PUSH1 0x40 DUP4 ADD MLOAD PUSH2 0x1878 PUSH1 0x40 DUP7 ADD DUP3 PUSH2 0x14B0 JUMP JUMPDEST POP DUP1 SWAP2 POP POP SWAP3 SWAP2 POP POP JUMP JUMPDEST PUSH1 0x0 PUSH1 0x20 DUP3 ADD SWAP1 POP DUP2 DUP2 SUB PUSH1 0x0 DUP4 ADD MSTORE PUSH2 0x189D DUP2 DUP5 PUSH2 0x1833 JUMP JUMPDEST SWAP1 POP SWAP3 SWAP2 POP POP JUMP JUMPDEST PUSH1 0x0 DUP2 SWAP1 POP SWAP2 SWAP1 POP JUMP JUMPDEST PUSH2 0x18B8 DUP2 PUSH2 0x18A5 JUMP JUMPDEST DUP2 EQ PUSH2 0x18C3 JUMPI PUSH1 0x0 DUP1 REVERT JUMPDEST POP JUMP JUMPDEST PUSH1 0x0 DUP2 CALLDATALOAD SWAP1 POP PUSH2 0x18D5 DUP2 PUSH2 0x18AF JUMP JUMPDEST SWAP3 SWAP2 POP POP JUMP JUMPDEST PUSH1 0x0 DUP1 PUSH1 0x0 DUP1 PUSH1 0x80 DUP6 DUP8 SUB SLT ISZERO PUSH2 0x18F5 JUMPI PUSH2 0x18F4 PUSH2 0x118A JUMP JUMPDEST JUMPDEST PUSH1 0x0 DUP6 ADD CALLDATALOAD PUSH8 0xFFFFFFFFFFFFFFFF DUP2 GT ISZERO PUSH2 0x1913 JUMPI PUSH2 0x1912 PUSH2 0x118F JUMP JUMPDEST JUMPDEST PUSH2 0x191F DUP8 DUP3 DUP9 ADD PUSH2 0x1796 JUMP JUMPDEST SWAP5 POP POP PUSH1 0x20 PUSH2 0x1930 DUP8 DUP3 DUP9 ADD PUSH2 0x11B5 JUMP JUMPDEST SWAP4 POP POP PUSH1 0x40 PUSH2 0x1941 DUP8 DUP3 DUP9 ADD PUSH2 0x11B5 JUMP JUMPDEST SWAP3 POP POP PUSH1 0x60 PUSH2 0x1952 DUP8 DUP3 DUP9 ADD PUSH2 0x18C6 JUMP JUMPDEST SWAP2 POP POP SWAP3 SWAP6 SWAP2 SWAP5 POP SWAP3 POP JUMP JUMPDEST PUSH32 0x4E487B7100000000000000000000000000000000000000000000000000000000 PUSH1 0x0 MSTORE PUSH1 0x21 PUSH1 0x4 MSTORE PUSH1 0x24 PUSH1 0x0 REVERT JUMPDEST PUSH1 0x3 DUP2 LT PUSH2 0x199E JUMPI PUSH2 0x199D PUSH2 0x195E JUMP JUMPDEST JUMPDEST POP JUMP JUMPDEST PUSH1 0x0 DUP2 SWAP1 POP PUSH2 0x19AF DUP3 PUSH2 0x198D JUMP JUMPDEST SWAP2 SWAP1 POP JUMP JUMPDEST PUSH1 0x0 PUSH2 0x19BF DUP3 PUSH2 0x19A1 JUMP JUMPDEST SWAP1 POP SWAP2 SWAP1 POP JUMP JUMPDEST PUSH2 0x19CF DUP2 PUSH2 0x19B4 JUMP JUMPDEST DUP3 MSTORE POP POP JUMP JUMPDEST PUSH1 0x0 PUSH1 0x20 DUP3 ADD SWAP1 POP PUSH2 0x19EA PUSH1 0x0 DUP4 ADD DUP5 PUSH2 0x19C6 JUMP JUMPDEST SWAP3 SWAP2 POP POP JUMP JUMPDEST PUSH1 0x0 PUSH1 0x20 DUP3 DUP5 SUB SLT ISZERO PUSH2 0x1A06 JUMPI PUSH2 0x1A05 PUSH2 0x118A JUMP JUMPDEST JUMPDEST PUSH1 0x0 PUSH2 0x1A14 DUP5 DUP3 DUP6 ADD PUSH2 0x18C6 JUMP JUMPDEST SWAP2 POP POP SWAP3 SWAP2 POP POP JUMP JUMPDEST PUSH1 0x0 PUSH1 0x3 SWAP1 POP SWAP2 SWAP1 POP JUMP JUMPDEST PUSH1 0x0 DUP2 SWAP1 POP SWAP3 SWAP2 POP POP JUMP JUMPDEST PUSH1 0x0 DUP2 SWAP1 POP SWAP2 SWAP1 POP JUMP JUMPDEST PUSH2 0x1A46 DUP2 PUSH2 0x18A5 JUMP JUMPDEST DUP3 MSTORE POP POP JUMP JUMPDEST PUSH1 0x0 PUSH2 0x1A58 DUP4 DUP4 PUSH2 0x1A3D JUMP JUMPDEST PUSH1 0x20 DUP4 ADD SWAP1 POP SWAP3 SWAP2 POP POP JUMP JUMPDEST PUSH1 0x0 PUSH1 0x20 DUP3 ADD SWAP1 POP SWAP2 SWAP1 POP JUMP JUMPDEST PUSH2 0x1A7A DUP2 PUSH2 0x1A1D JUMP JUMPDEST PUSH2 0x1A84 DUP2 DUP5 PUSH2 0x1A28 JUMP JUMPDEST SWAP3 POP PUSH2 0x1A8F DUP3 PUSH2 0x1A33 JUMP JUMPDEST DUP1 PUSH1 0x0 JUMPDEST DUP4 DUP2 LT ISZERO PUSH2 0x1AC0 JUMPI DUP2 MLOAD PUSH2 0x1AA7 DUP8 DUP3 PUSH2 0x1A4C JUMP JUMPDEST SWAP7 POP PUSH2 0x1AB2 DUP4 PUSH2 0x1A64 JUMP JUMPDEST SWAP3 POP POP PUSH1 0x1 DUP2 ADD SWAP1 POP PUSH2 0x1A93 JUMP JUMPDEST POP POP POP POP POP POP JUMP JUMPDEST PUSH1 0x0 PUSH1 0x60 DUP3 ADD SWAP1 POP PUSH2 0x1ADD PUSH1 0x0 DUP4 ADD DUP5 PUSH2 0x1A71 JUMP JUMPDEST SWAP3 SWAP2 POP POP JUMP JUMPDEST PUSH2 0x1AEC DUP2 PUSH2 0x13D5 JUMP JUMPDEST DUP2 EQ PUSH2 0x1AF7 JUMPI PUSH1 0x0 DUP1 REVERT JUMPDEST POP JUMP JUMPDEST PUSH1 0x0 DUP2 CALLDATALOAD SWAP1 POP PUSH2 0x1B09 DUP2 PUSH2 0x1AE3 JUMP JUMPDEST SWAP3 SWAP2 POP POP JUMP JUMPDEST PUSH1 0x0 DUP1 PUSH1 0x40 DUP4 DUP6 SUB SLT ISZERO PUSH2 0x1B26 JUMPI PUSH2 0x1B25 PUSH2 0x118A JUMP JUMPDEST JUMPDEST PUSH1 0x0 PUSH2 0x1B34 DUP6 DUP3 DUP7 ADD PUSH2 0x1AFA JUMP JUMPDEST SWAP3 POP POP PUSH1 0x20 PUSH2 0x1B45 DUP6 DUP3 DUP7 ADD PUSH2 0x1AFA JUMP JUMPDEST SWAP2 POP POP SWAP3 POP SWAP3 SWAP1 POP JUMP JUMPDEST PUSH1 0x0 DUP1 PUSH1 0x0 PUSH1 0x60 DUP5 DUP7 SUB SLT ISZERO PUSH2 0x1B68 JUMPI PUSH2 0x1B67 PUSH2 0x118A JUMP JUMPDEST JUMPDEST PUSH1 0x0 PUSH2 0x1B76 DUP7 DUP3 DUP8 ADD PUSH2 0x18C6 JUMP JUMPDEST SWAP4 POP POP PUSH1 0x20 PUSH2 0x1B87 DUP7 DUP3 DUP8 ADD PUSH2 0x18C6 JUMP JUMPDEST SWAP3 POP POP PUSH1 0x40 PUSH2 0x1B98 DUP7 DUP3 DUP8 ADD PUSH2 0x18C6 JUMP JUMPDEST SWAP2 POP POP SWAP3 POP SWAP3 POP SWAP3 JUMP JUMPDEST PUSH1 0x0 DUP1 PUSH1 0x40 DUP4 DUP6 SUB SLT ISZERO PUSH2 0x1BB9 JUMPI PUSH2 0x1BB8 PUSH2 0x118A JUMP JUMPDEST JUMPDEST PUSH1 0x0 DUP4 ADD CALLDATALOAD PUSH8 0xFFFFFFFFFFFFFFFF DUP2 GT ISZERO PUSH2 0x1BD7 JUMPI PUSH2 0x1BD6 PUSH2 0x118F JUMP JUMPDEST JUMPDEST PUSH2 0x1BE3 DUP6 DUP3 DUP7 ADD PUSH2 0x1796 JUMP JUMPDEST SWAP3 POP POP PUSH1 0x20 PUSH2 0x1BF4 DUP6 DUP3 DUP7 ADD PUSH2 0x18C6 JUMP JUMPDEST SWAP2 POP POP SWAP3 POP SWAP3 SWAP1 POP JUMP JUMPDEST PUSH2 0x1C07 DUP2 PUSH2 0x1194 JUMP JUMPDEST DUP3 MSTORE POP POP JUMP JUMPDEST PUSH1 0x0 PUSH1 0x60 DUP3 ADD SWAP1 POP DUP2 DUP2 SUB PUSH1 0x0 DUP4 ADD MSTORE PUSH2 0x1C27 DUP2 DUP7 PUSH2 0x16B4 JUMP JUMPDEST SWAP1 POP PUSH2 0x1C36 PUSH1 0x20 DUP4 ADD DUP6 PUSH2 0x1BFE JUMP JUMPDEST PUSH2 0x1C43 PUSH1 0x40 DUP4 ADD DUP5 PUSH2 0x1BFE JUMP JUMPDEST SWAP5 SWAP4 POP POP POP POP JUMP JUMPDEST PUSH1 0x0 PUSH8 0xFFFFFFFFFFFFFFFF DUP3 GT ISZERO PUSH2 0x1C66 JUMPI PUSH2 0x1C65 PUSH2 0x11E0 JUMP JUMPDEST JUMPDEST PUSH1 0x20 DUP3 MUL SWAP1 POP PUSH1 0x20 DUP2 ADD SWAP1 POP SWAP2 SWAP1 POP JUMP JUMPDEST PUSH1 0x0 PUSH2 0x1C8A PUSH2 0x1C85 DUP5 PUSH2 0x1C4B JUMP JUMPDEST PUSH2 0x1240 JUMP JUMPDEST SWAP1 POP DUP1 DUP4 DUP3 MSTORE PUSH1 0x20 DUP3 ADD SWAP1 POP PUSH1 0x20 DUP5 MUL DUP4 ADD DUP6 DUP2 GT ISZERO PUSH2 0x1CAD JUMPI PUSH2 0x1CAC PUSH2 0x1287 JUMP JUMPDEST JUMPDEST DUP4 JUMPDEST DUP2 DUP2 LT ISZERO PUSH2 0x1CD6 JUMPI DUP1 PUSH2 0x1CC2 DUP9 DUP3 PUSH2 0x18C6 JUMP JUMPDEST DUP5 MSTORE PUSH1 0x20 DUP5 ADD SWAP4 POP POP PUSH1 0x20 DUP2 ADD SWAP1 POP PUSH2 0x1CAF JUMP JUMPDEST POP POP POP SWAP4 SWAP3 POP POP POP JUMP JUMPDEST PUSH1 0x0 DUP3 PUSH1 0x1F DUP4 ADD SLT PUSH2 0x1CF5 JUMPI PUSH2 0x1CF4 PUSH2 0x11CA JUMP JUMPDEST JUMPDEST DUP2 CALLDATALOAD PUSH2 0x1D05 DUP5 DUP3 PUSH1 0x20 DUP7 ADD PUSH2 0x1C77 JUMP JUMPDEST SWAP2 POP POP SWAP3 SWAP2 POP POP JUMP JUMPDEST PUSH1 0x0 PUSH1 0x20 DUP3 DUP5 SUB SLT ISZERO PUSH2 0x1D24 JUMPI PUSH2 0x1D23 PUSH2 0x118A JUMP JUMPDEST JUMPDEST PUSH1 0x0 DUP3 ADD CALLDATALOAD PUSH8 0xFFFFFFFFFFFFFFFF DUP2 GT ISZERO PUSH2 0x1D42 JUMPI PUSH2 0x1D41 PUSH2 0x118F JUMP JUMPDEST JUMPDEST PUSH2 0x1D4E DUP5 DUP3 DUP6 ADD PUSH2 0x1CE0 JUMP JUMPDEST SWAP2 POP POP SWAP3 SWAP2 POP POP JUMP JUMPDEST PUSH2 0x1D60 DUP2 PUSH2 0x18A5 JUMP JUMPDEST DUP3 MSTORE POP POP JUMP JUMPDEST PUSH1 0x0 PUSH1 0x20 DUP3 ADD SWAP1 POP PUSH2 0x1D7B PUSH1 0x0 DUP4 ADD DUP5 PUSH2 0x1D57 JUMP JUMPDEST SWAP3 SWAP2 POP POP JUMP JUMPDEST PUSH1 0x3 DUP2 LT PUSH2 0x1D8E JUMPI PUSH1 0x0 DUP1 REVERT JUMPDEST POP JUMP JUMPDEST PUSH1 0x0 DUP2 CALLDATALOAD SWAP1 POP PUSH2 0x1DA0 DUP2 PUSH2 0x1D81 JUMP JUMPDEST SWAP3 SWAP2 POP POP JUMP JUMPDEST PUSH1 0x0 PUSH1 0x20 DUP3 DUP5 SUB SLT ISZERO PUSH2 0x1DBC JUMPI PUSH2 0x1DBB PUSH2 0x118A JUMP JUMPDEST JUMPDEST PUSH1 0x0 PUSH2 0x1DCA DUP5 DUP3 DUP6 ADD PUSH2 0x1D91 JUMP JUMPDEST SWAP2 POP POP SWAP3 SWAP2 POP POP JUMP JUMPDEST PUSH1 0x0 PUSH1 0x20 DUP3 DUP5 SUB SLT ISZERO PUSH2 0x1DE9 JUMPI PUSH2 0x1DE8 PUSH2 0x118A JUMP JUMPDEST JUMPDEST PUSH1 0x0 PUSH2 0x1DF7 DUP5 DUP3 DUP6 ADD PUSH2 0x1AFA JUMP JUMPDEST SWAP2 POP POP SWAP3 SWAP2 POP POP JUMP JUMPDEST PUSH32 0x4E487B7100000000000000000000000000000000000000000000000000000000 PUSH1 0x0 MSTORE PUSH1 0x32 PUSH1 0x4 MSTORE PUSH1 0x24 PUSH1 0x0 REVERT JUMPDEST PUSH32 0x4E487B7100000000000000000000000000000000000000000000000000000000 PUSH1 0x0 MSTORE PUSH1 0x11 PUSH1 0x4 MSTORE PUSH1 0x24 PUSH1 0x0 REVERT JUMPDEST PUSH1 0x0 PUSH2 0x1E69 DUP3 PUSH2 0x18A5 JUMP JUMPDEST SWAP2 POP PUSH32 0xFFFFFFFFFFFFFFFFFFFFFFFFFFFFFFFFFFFFFFFFFFFFFFFFFFFFFFFFFFFFFFFF DUP3 SUB PUSH2 0x1E9B JUMPI PUSH2 0x1E9A PUSH2 0x1E2F JUMP JUMPDEST JUMPDEST PUSH1 0x1 DUP3 ADD SWAP1 POP SWAP2 SWAP1 POP JUMP JUMPDEST PUSH1 0x0 DUP2 SWAP1 POP SWAP3 SWAP2 POP POP JUMP JUMPDEST PUSH32 0x73747564656E7473000000000000000000000000000000000000000000000000 PUSH1 0x0 DUP3 ADD MSTORE POP JUMP JUMPDEST PUSH1 0x0 PUSH2 0x1EE7 PUSH1 0x8 DUP4 PUSH2 0x1EA6 JUMP JUMPDEST SWAP2 POP PUSH2 0x1EF2 DUP3 PUSH2 0x1EB1 JUMP JUMPDEST PUSH1 0x8 DUP3 ADD SWAP1 POP SWAP2 SWAP1 POP JUMP JUMPDEST PUSH1 0x0 PUSH2 0x1F08 DUP3 PUSH2 0x1EDA JUMP JUMPDEST SWAP2 POP DUP2 SWAP1 POP SWAP2 SWAP1 POP JUMP JUMPDEST PUSH32 0x4E487B7100000000000000000000000000000000000000000000000000000000 PUSH1 0x0 MSTORE PUSH1 0x22 PUSH1 0x4 MSTORE PUSH1 0x24 PUSH1 0x0 REVERT JUMPDEST PUSH1 0x0 PUSH1 0x2 DUP3 DIV SWAP1 POP PUSH1 0x1 DUP3 AND DUP1 PUSH2 0x1F59 JUMPI PUSH1 0x7F DUP3 AND SWAP2 POP JUMPDEST PUSH1 0x20 DUP3 LT DUP2 SUB PUSH2 0x1F6C JUMPI PUSH2 0x1F6B PUSH2 0x1F12 JUMP JUMPDEST JUMPDEST POP SWAP2 SWAP1 POP JUMP JUMPDEST PUSH1 0x0 PUSH2 0x1F7E DUP4 DUP6 PUSH2 0x1EA6 JUMP JUMPDEST SWAP4 POP PUSH2 0x1F8B DUP4 DUP6 DUP5 PUSH2 0x1745 JUMP JUMPDEST DUP3 DUP5 ADD SWAP1 POP SWAP4 SWAP3 POP POP POP JUMP JUMPDEST PUSH1 0x0 PUSH2 0x1FA4 DUP3 DUP7 DUP9 PUSH2 0x1F72 JUMP JUMPDEST SWAP2 POP PUSH2 0x1FB1 DUP3 DUP5 DUP7 PUSH2 0x1F72 JUMP JUMPDEST SWAP2 POP DUP2 SWAP1 POP SWAP6 SWAP5 POP POP POP POP POP JUMP JUMPDEST PUSH1 0x0 DUP2 SWAP1 POP DUP2 PUSH1 0x0 MSTORE PUSH1 0x20 PUSH1 0x0 KECCAK256 SWAP1 POP SWAP2 SWAP1 POP JUMP JUMPDEST PUSH1 0x0 PUSH1 0x20 PUSH1 0x1F DUP4 ADD DIV SWAP1 POP SWAP2 SWAP1 POP JUMP JUMPDEST PUSH1 0x0 DUP3 DUP3 SHL SWAP1 POP SWAP3 SWAP2 POP POP JUMP JUMPDEST PUSH1 0x0 PUSH1 0x8 DUP4 MUL PUSH2 0x2021 PUSH32 0xFFFFFFFFFFFFFFFFFFFFFFFFFFFFFFFFFFFFFFFFFFFFFFFFFFFFFFFFFFFFFFFF DUP3 PUSH2 0x1FE4 JUMP JUMPDEST PUSH2 0x202B DUP7 DUP4 PUSH2 0x1FE4 JUMP JUMPDEST SWAP6 POP DUP1 NOT DUP5 AND SWAP4 POP DUP1 DUP7 AND DUP5 OR SWAP3 POP POP POP SWAP4 SWAP3 POP POP POP JUMP JUMPDEST PUSH1 0x0 DUP2 SWAP1 POP SWAP2 SWAP1 POP JUMP JUMPDEST PUSH1 0x0 PUSH2 0x2068 PUSH2 0x2063 PUSH2 0x205E DUP5 PUSH2 0x18A5 JUMP JUMPDEST PUSH2 0x2043 JUMP JUMPDEST PUSH2 0x18A5 JUMP JUMPDEST SWAP1 POP SWAP2 SWAP1 POP JUMP JUMPDEST PUSH1 0x0 DUP2 SWAP1 POP SWAP2 SWAP1 POP JUMP JUMPDEST PUSH2 0x2082 DUP4 PUSH2 0x204D JUMP JUMPDEST PUSH2 0x2096 PUSH2 0x208E DUP3 PUSH2 0x206F JUMP JUMPDEST DUP5 DUP5 SLOAD PUSH2 0x1FF1 JUMP JUMPDEST DUP3 SSTORE POP POP POP POP JUMP JUMPDEST PUSH1 0x0 SWAP1 JUMP JUMPDEST PUSH2 0x20AB PUSH2 0x209E JUMP JUMPDEST PUSH2 0x20B6 DUP2 DUP5 DUP5 PUSH2 0x2079 JUMP JUMPDEST POP POP POP JUMP JUMPDEST JUMPDEST DUP2 DUP2 LT ISZERO PUSH2 0x20DA JUMPI PUSH2 0x20CF PUSH1 0x0 DUP3 PUSH2 0x20A3 JUMP JUMPDEST PUSH1 0x1 DUP2 ADD SWAP1 POP PUSH2 0x20BC JUMP JUMPDEST POP POP JUMP JUMPDEST PUSH1 0x1F DUP3 GT ISZERO PUSH2 0x211F JUMPI PUSH2 0x20F0 DUP2 PUSH2 0x1FBF JUMP JUMPDEST PUSH2 0x20F9 DUP5 PUSH2 0x1FD4 JUMP JUMPDEST DUP2 ADD PUSH1 0x20 DUP6 LT ISZERO PUSH2 0x2108 JUMPI DUP2 SWAP1 POP JUMPDEST PUSH2 0x211C PUSH2 0x2114 DUP6 PUSH2 0x1FD4 JUMP JUMPDEST DUP4 ADD DUP3 PUSH2 0x20BB JUMP JUMPDEST POP POP JUMPDEST POP POP POP JUMP JUMPDEST PUSH1 0x0 DUP3 DUP3 SHR SWAP1 POP SWAP3 SWAP2 POP POP JUMP JUMPDEST PUSH1 0x0 PUSH2 0x2142 PUSH1 0x0 NOT DUP5 PUSH1 0x8 MUL PUSH2 0x2124 JUMP JUMPDEST NOT DUP1 DUP4 AND SWAP2 POP POP SWAP3 SWAP2 POP POP JUMP JUMPDEST PUSH1 0x0 PUSH2 0x215B DUP4 DUP4 PUSH2 0x2131 JUMP JUMPDEST SWAP2 POP DUP3 PUSH1 0x2 MUL DUP3 OR SWAP1 POP SWAP3 SWAP2 POP POP JUMP JUMPDEST PUSH2 0x2174 DUP3 PUSH2 0x1431 JUMP JUMPDEST PUSH8 0xFFFFFFFFFFFFFFFF DUP2 GT ISZERO PUSH2 0x218D JUMPI PUSH2 0x218C PUSH2 0x11E0 JUMP JUMPDEST JUMPDEST PUSH2 0x2197 DUP3 SLOAD PUSH2 0x1F41 JUMP JUMPDEST PUSH2 0x21A2 DUP3 DUP3 DUP6 PUSH2 0x20DE JUMP JUMPDEST PUSH1 0x0 PUSH1 0x20 SWAP1 POP PUSH1 0x1F DUP4 GT PUSH1 0x1 DUP2 EQ PUSH2 0x21D5 JUMPI PUSH1 0x0 DUP5 ISZERO PUSH2 0x21C3 JUMPI DUP3 DUP8 ADD MLOAD SWAP1 POP JUMPDEST PUSH2 0x21CD DUP6 DUP3 PUSH2 0x214F JUMP JUMPDEST DUP7 SSTORE POP PUSH2 0x2235 JUMP JUMPDEST PUSH1 0x1F NOT DUP5 AND PUSH2 0x21E3 DUP7 PUSH2 0x1FBF JUMP JUMPDEST PUSH1 0x0 JUMPDEST DUP3 DUP2 LT ISZERO PUSH2 0x220B JUMPI DUP5 DUP10 ADD MLOAD DUP3 SSTORE PUSH1 0x1 DUP3 ADD SWAP2 POP PUSH1 0x20 DUP6 ADD SWAP5 POP PUSH1 0x20 DUP2 ADD SWAP1 POP PUSH2 0x21E6 JUMP JUMPDEST DUP7 DUP4 LT ISZERO PUSH2 0x2228 JUMPI DUP5 DUP10 ADD MLOAD PUSH2 0x2224 PUSH1 0x1F DUP10 AND DUP3 PUSH2 0x2131 JUMP JUMPDEST DUP4 SSTORE POP JUMPDEST PUSH1 0x1 PUSH1 0x2 DUP9 MUL ADD DUP9 SSTORE POP POP POP JUMPDEST POP POP POP POP POP POP JUMP JUMPDEST PUSH32 0x4E487B7100000000000000000000000000000000000000000000000000000000 PUSH1 0x0 MSTORE PUSH1 0x31 PUSH1 0x4 MSTORE PUSH1 0x24 PUSH1 0x0 REVERT JUMPDEST PUSH1 0x0 PUSH2 0x2277 DUP3 PUSH2 0x18A5 JUMP JUMPDEST SWAP2 POP PUSH2 0x2282 DUP4 PUSH2 0x18A5 JUMP JUMPDEST SWAP3 POP DUP3 DUP3 SUB SWAP1 POP DUP2 DUP2 GT ISZERO PUSH2 0x229A JUMPI PUSH2 0x2299 PUSH2 0x1E2F JUMP JUMPDEST JUMPDEST SWAP3 SWAP2 POP POP JUMP JUMPDEST PUSH1 0x0 PUSH2 0x22AD DUP3 DUP5 DUP7 PUSH2 0x1F72 JUMP JUMPDEST SWAP2 POP DUP2 SWAP1 POP SWAP4 SWAP3 POP POP POP JUMP INVALID LOG2 PUSH5 0x6970667358 0x22 SLT KECCAK256 MULMOD 0xE2 ADDMOD 0xDF CHAINID 0xD4 0x27 SHL 0x4A GT PUSH14 0x4FD301C18883CBD1236279F2124 0xC9 LOG1 MULMOD SIGNEXTEND 0xD1 SWAP12 0xD9 PUSH5 0x736F6C6343 STOP ADDMOD GT STOP CALLER "
				},
				"gasEstimates": {
					"creation": {
						"codeDepositCost": "1788600",
						"executionCost": "infinite",
						"totalCost": "infinite"
					},
					"external": {
						"_strArr(uint256)": "infinite",
						"compare2Strings(string,string)": "infinite",
						"concat2Strings(string,string)": "infinite",
						"find(int256,int256[])": "infinite",
						"get10Std()": "infinite",
						"getCurntOwner()": "infinite",
						"getMark()": "infinite",
						"houseSize()": "2649",
						"largestInArr(uint256[])": "infinite",
						"myHouse()": "infinite",
						"newStudent(string,int256,int256)": "infinite",
						"ownership(address,address)": "infinite",
						"popStrArr()": "infinite",
						"pushStrArr()": "infinite",
						"resetOwnership()": "infinite",
						"setHouseSize(uint8)": "24716",
						"setMark(uint256,uint256,uint256)": "infinite",
						"store10(string,uint256)": "infinite",
						"str10Std(string,int256,int256,uint256)": "infinite",
						"transferownership(address)": "infinite"
					}
				},
				"methodIdentifiers": {
					"_strArr(uint256)": "742a1cb5",
					"compare2Strings(string,string)": "f9cb5bd8",
					"concat2Strings(string,string)": "4309fba7",
					"find(int256,int256[])": "094825b9",
					"get10Std()": "39ada523",
					"getCurntOwner()": "323c9ab3",
					"getMark()": "8fff396f",
					"houseSize()": "660127c7",
					"largestInArr(uint256[])": "cdbb7a5a",
					"myHouse()": "8ea5bd07",
					"newStudent(string,int256,int256)": "4ddd29fe",
					"ownership(address,address)": "974fe591",
					"popStrArr()": "a5cb84b5",
					"pushStrArr()": "5bb42e93",
					"resetOwnership()": "19077dca",
					"setHouseSize(uint8)": "df0fd34f",
					"setMark(uint256,uint256,uint256)": "a0957e09",
					"store10(string,uint256)": "bdb552f0",
					"str10Std(string,int256,int256,uint256)": "51c6689a",
					"transferownership(address)": "e8b5b796"
				}
			},
			"storageLayout": {
				"storage": [
					{
						"astId": 167,
						"contract": "contracts/revision/Assg_2.sol:Assign_2",
						"label": "store10",
						"offset": 0,
						"slot": "0",
						"type": "t_mapping(t_string_memory_ptr,t_array(t_struct(Student)136_storage)10_storage)"
					},
					{
						"astId": 210,
						"contract": "contracts/revision/Assg_2.sol:Assign_2",
						"label": "marks",
						"offset": 0,
						"slot": "1",
						"type": "t_mapping(t_address,t_array(t_uint256)3_storage)"
					},
					{
						"astId": 249,
						"contract": "contracts/revision/Assg_2.sol:Assign_2",
						"label": "ownership",
						"offset": 0,
						"slot": "2",
						"type": "t_mapping(t_address,t_mapping(t_address,t_bool))"
					},
					{
						"astId": 255,
						"contract": "contracts/revision/Assg_2.sol:Assign_2",
						"label": "substituteAdresses",
						"offset": 0,
						"slot": "3",
						"type": "t_array(t_address)dyn_storage"
					},
					{
						"astId": 379,
						"contract": "contracts/revision/Assg_2.sol:Assign_2",
						"label": "_strArr",
						"offset": 0,
						"slot": "4",
						"type": "t_array(t_string_storage)dyn_storage"
					},
					{
						"astId": 405,
						"contract": "contracts/revision/Assg_2.sol:Assign_2",
						"label": "houseSize",
						"offset": 0,
						"slot": "5",
						"type": "t_enum(HOUSE)402"
					}
				],
				"types": {
					"t_address": {
						"encoding": "inplace",
						"label": "address",
						"numberOfBytes": "20"
					},
					"t_array(t_address)dyn_storage": {
						"base": "t_address",
						"encoding": "dynamic_array",
						"label": "address[]",
						"numberOfBytes": "32"
					},
					"t_array(t_string_storage)dyn_storage": {
						"base": "t_string_storage",
						"encoding": "dynamic_array",
						"label": "string[]",
						"numberOfBytes": "32"
					},
					"t_array(t_struct(Student)136_storage)10_storage": {
						"base": "t_struct(Student)136_storage",
						"encoding": "inplace",
						"label": "struct Assign_2.Student[10]",
						"numberOfBytes": "960"
					},
					"t_array(t_uint256)3_storage": {
						"base": "t_uint256",
						"encoding": "inplace",
						"label": "uint256[3]",
						"numberOfBytes": "96"
					},
					"t_bool": {
						"encoding": "inplace",
						"label": "bool",
						"numberOfBytes": "1"
					},
					"t_enum(HOUSE)402": {
						"encoding": "inplace",
						"label": "enum Assign_2.HOUSE",
						"numberOfBytes": "1"
					},
					"t_int256": {
						"encoding": "inplace",
						"label": "int256",
						"numberOfBytes": "32"
					},
					"t_mapping(t_address,t_array(t_uint256)3_storage)": {
						"encoding": "mapping",
						"key": "t_address",
						"label": "mapping(address => uint256[3])",
						"numberOfBytes": "32",
						"value": "t_array(t_uint256)3_storage"
					},
					"t_mapping(t_address,t_bool)": {
						"encoding": "mapping",
						"key": "t_address",
						"label": "mapping(address => bool)",
						"numberOfBytes": "32",
						"value": "t_bool"
					},
					"t_mapping(t_address,t_mapping(t_address,t_bool))": {
						"encoding": "mapping",
						"key": "t_address",
						"label": "mapping(address => mapping(address => bool))",
						"numberOfBytes": "32",
						"value": "t_mapping(t_address,t_bool)"
					},
					"t_mapping(t_string_memory_ptr,t_array(t_struct(Student)136_storage)10_storage)": {
						"encoding": "mapping",
						"key": "t_string_memory_ptr",
						"label": "mapping(string => struct Assign_2.Student[10])",
						"numberOfBytes": "32",
						"value": "t_array(t_struct(Student)136_storage)10_storage"
					},
					"t_string_memory_ptr": {
						"encoding": "bytes",
						"label": "string",
						"numberOfBytes": "32"
					},
					"t_string_storage": {
						"encoding": "bytes",
						"label": "string",
						"numberOfBytes": "32"
					},
					"t_struct(Student)136_storage": {
						"encoding": "inplace",
						"label": "struct Assign_2.Student",
						"members": [
							{
								"astId": 131,
								"contract": "contracts/revision/Assg_2.sol:Assign_2",
								"label": "name",
								"offset": 0,
								"slot": "0",
								"type": "t_string_storage"
							},
							{
								"astId": 133,
								"contract": "contracts/revision/Assg_2.sol:Assign_2",
								"label": "roll",
								"offset": 0,
								"slot": "1",
								"type": "t_int256"
							},
							{
								"astId": 135,
								"contract": "contracts/revision/Assg_2.sol:Assign_2",
								"label": "age",
								"offset": 0,
								"slot": "2",
								"type": "t_int256"
							}
						],
						"numberOfBytes": "96"
					},
					"t_uint256": {
						"encoding": "inplace",
						"label": "uint256",
						"numberOfBytes": "32"
					}
				}
			},
			"userdoc": {
				"kind": "user",
				"methods": {},
				"version": 1
			}
		}
	}
}