{
	"contracts/revision/Assg_1.sol": {
		"Assg_1": {
			"abi": [
				{
					"inputs": [
						{
							"internalType": "uint256",
							"name": "_num",
							"type": "uint256"
						}
					],
					"name": "Cube",
					"outputs": [
						{
							"internalType": "uint256",
							"name": "",
							"type": "uint256"
						}
					],
					"stateMutability": "pure",
					"type": "function"
				},
				{
					"inputs": [
						{
							"internalType": "uint256",
							"name": "_num1",
							"type": "uint256"
						},
						{
							"internalType": "uint256",
							"name": "_num2",
							"type": "uint256"
						}
					],
					"name": "advance_swap",
					"outputs": [
						{
							"internalType": "uint256",
							"name": "",
							"type": "uint256"
						},
						{
							"internalType": "uint256",
							"name": "",
							"type": "uint256"
						}
					],
					"stateMutability": "pure",
					"type": "function"
				},
				{
					"inputs": [
						{
							"internalType": "uint256",
							"name": "_inp",
							"type": "uint256"
						}
					],
					"name": "amstrong",
					"outputs": [
						{
							"internalType": "uint256",
							"name": "",
							"type": "uint256"
						}
					],
					"stateMutability": "pure",
					"type": "function"
				},
				{
					"inputs": [
						{
							"internalType": "uint256",
							"name": "_num1",
							"type": "uint256"
						},
						{
							"internalType": "uint256",
							"name": "_num2",
							"type": "uint256"
						},
						{
							"internalType": "uint256",
							"name": "_num3",
							"type": "uint256"
						}
					],
					"name": "avgOf3",
					"outputs": [
						{
							"internalType": "uint256",
							"name": "",
							"type": "uint256"
						}
					],
					"stateMutability": "pure",
					"type": "function"
				},
				{
					"inputs": [
						{
							"internalType": "uint256",
							"name": "_num",
							"type": "uint256"
						}
					],
					"name": "evenOrOdd",
					"outputs": [
						{
							"internalType": "uint256",
							"name": "",
							"type": "uint256"
						}
					],
					"stateMutability": "pure",
					"type": "function"
				},
				{
					"inputs": [
						{
							"internalType": "uint256",
							"name": "_num1",
							"type": "uint256"
						},
						{
							"internalType": "uint256",
							"name": "_num2",
							"type": "uint256"
						}
					],
					"name": "normal_swap",
					"outputs": [
						{
							"internalType": "uint256",
							"name": "",
							"type": "uint256"
						},
						{
							"internalType": "uint256",
							"name": "",
							"type": "uint256"
						}
					],
					"stateMutability": "pure",
					"type": "function"
				},
				{
					"inputs": [
						{
							"internalType": "uint256",
							"name": "_num1",
							"type": "uint256"
						},
						{
							"internalType": "uint256",
							"name": "_num2",
							"type": "uint256"
						}
					],
					"name": "powerOfInputs",
					"outputs": [
						{
							"internalType": "uint256",
							"name": "",
							"type": "uint256"
						}
					],
					"stateMutability": "pure",
					"type": "function"
				},
				{
					"inputs": [
						{
							"internalType": "int256",
							"name": "num",
							"type": "int256"
						}
					],
					"name": "primeOrNot",
					"outputs": [
						{
							"internalType": "int256",
							"name": "",
							"type": "int256"
						}
					],
					"stateMutability": "pure",
					"type": "function"
				}
			],
			"devdoc": {
				"kind": "dev",
				"methods": {},
				"version": 1
			},
			"evm": {
				"assembly": "    /* \"contracts/revision/Assg_1.sol\":56:1994  contract Assg_1{... */\n  mstore(0x40, 0x80)\n  callvalue\n  dup1\n  iszero\n  tag_1\n  jumpi\n  0x00\n  dup1\n  revert\ntag_1:\n  pop\n  dataSize(sub_0)\n  dup1\n  dataOffset(sub_0)\n  0x00\n  codecopy\n  0x00\n  return\nstop\n\nsub_0: assembly {\n        /* \"contracts/revision/Assg_1.sol\":56:1994  contract Assg_1{... */\n      mstore(0x40, 0x80)\n      callvalue\n      dup1\n      iszero\n      tag_1\n      jumpi\n      0x00\n      dup1\n      revert\n    tag_1:\n      pop\n      jumpi(tag_2, lt(calldatasize, 0x04))\n      shr(0xe0, calldataload(0x00))\n      dup1\n      0xbbf60923\n      gt\n      tag_11\n      jumpi\n      dup1\n      0xbbf60923\n      eq\n      tag_7\n      jumpi\n      dup1\n      0xbc4609c6\n      eq\n      tag_8\n      jumpi\n      dup1\n      0xca93381a\n      eq\n      tag_9\n      jumpi\n      dup1\n      0xd7be85ca\n      eq\n      tag_10\n      jumpi\n      jump(tag_2)\n    tag_11:\n      dup1\n      0x12145cd9\n      eq\n      tag_3\n      jumpi\n      dup1\n      0x5a087416\n      eq\n      tag_4\n      jumpi\n      dup1\n      0x82ee7780\n      eq\n      tag_5\n      jumpi\n      dup1\n      0x83d3705e\n      eq\n      tag_6\n      jumpi\n    tag_2:\n      0x00\n      dup1\n      revert\n        /* \"contracts/revision/Assg_1.sol\":857:1013  function advance_swap(uint _num1,uint _num2)  external pure returns(uint, uint){... */\n    tag_3:\n      tag_12\n      0x04\n      dup1\n      calldatasize\n      sub\n      dup2\n      add\n      swap1\n      tag_13\n      swap2\n      swap1\n      tag_14\n      jump\t// in\n    tag_13:\n      tag_15\n      jump\t// in\n    tag_12:\n      mload(0x40)\n      tag_16\n      swap3\n      swap2\n      swap1\n      tag_17\n      jump\t// in\n    tag_16:\n      mload(0x40)\n      dup1\n      swap2\n      sub\n      swap1\n      return\n        /* \"contracts/revision/Assg_1.sol\":99:180  function Cube(uint _num) public pure returns(uint){... */\n    tag_4:\n      tag_18\n      0x04\n      dup1\n      calldatasize\n      sub\n      dup2\n      add\n      swap1\n      tag_19\n      swap2\n      swap1\n      tag_20\n      jump\t// in\n    tag_19:\n      tag_21\n      jump\t// in\n    tag_18:\n      mload(0x40)\n      tag_22\n      swap2\n      swap1\n      tag_23\n      jump\t// in\n    tag_22:\n      mload(0x40)\n      dup1\n      swap2\n      sub\n      swap1\n      return\n        /* \"contracts/revision/Assg_1.sol\":220:320  function evenOrOdd(uint _num) external pure returns(uint){... */\n    tag_5:\n      tag_24\n      0x04\n      dup1\n      calldatasize\n      sub\n      dup2\n      add\n      swap1\n      tag_25\n      swap2\n      swap1\n      tag_20\n      jump\t// in\n    tag_25:\n      tag_26\n      jump\t// in\n    tag_24:\n      mload(0x40)\n      tag_27\n      swap2\n      swap1\n      tag_23\n      jump\t// in\n    tag_27:\n      mload(0x40)\n      dup1\n      swap2\n      sub\n      swap1\n      return\n        /* \"contracts/revision/Assg_1.sol\":1314:1983  function amstrong(uint256 _inp) public pure returns (uint256) {... */\n    tag_6:\n      tag_28\n      0x04\n      dup1\n      calldatasize\n      sub\n      dup2\n      add\n      swap1\n      tag_29\n      swap2\n      swap1\n      tag_20\n      jump\t// in\n    tag_29:\n      tag_30\n      jump\t// in\n    tag_28:\n      mload(0x40)\n      tag_31\n      swap2\n      swap1\n      tag_23\n      jump\t// in\n    tag_31:\n      mload(0x40)\n      dup1\n      swap2\n      sub\n      swap1\n      return\n        /* \"contracts/revision/Assg_1.sol\":722:832  function powerOfInputs(uint _num1,uint _num2)  external pure returns(uint){... */\n    tag_7:\n      tag_32\n      0x04\n      dup1\n      calldatasize\n      sub\n      dup2\n      add\n      swap1\n      tag_33\n      swap2\n      swap1\n      tag_14\n      jump\t// in\n    tag_33:\n      tag_34\n      jump\t// in\n    tag_32:\n      mload(0x40)\n      tag_35\n      swap2\n      swap1\n      tag_23\n      jump\t// in\n    tag_35:\n      mload(0x40)\n      dup1\n      swap2\n      sub\n      swap1\n      return\n        /* \"contracts/revision/Assg_1.sol\":500:691  function normal_swap(uint _num1,uint _num2)  external pure returns(uint, uint){... */\n    tag_8:\n      tag_36\n      0x04\n      dup1\n      calldatasize\n      sub\n      dup2\n      add\n      swap1\n      tag_37\n      swap2\n      swap1\n      tag_14\n      jump\t// in\n    tag_37:\n      tag_38\n      jump\t// in\n    tag_36:\n      mload(0x40)\n      tag_39\n      swap3\n      swap2\n      swap1\n      tag_17\n      jump\t// in\n    tag_39:\n      mload(0x40)\n      dup1\n      swap2\n      sub\n      swap1\n      return\n        /* \"contracts/revision/Assg_1.sol\":1054:1300  function primeOrNot(int256 num )  external pure returns(int){... */\n    tag_9:\n      tag_40\n      0x04\n      dup1\n      calldatasize\n      sub\n      dup2\n      add\n      swap1\n      tag_41\n      swap2\n      swap1\n      tag_42\n      jump\t// in\n    tag_41:\n      tag_43\n      jump\t// in\n    tag_40:\n      mload(0x40)\n      tag_44\n      swap2\n      swap1\n      tag_45\n      jump\t// in\n    tag_44:\n      mload(0x40)\n      dup1\n      swap2\n      sub\n      swap1\n      return\n        /* \"contracts/revision/Assg_1.sol\":353:475  function avgOf3(uint _num1,uint _num2,uint _num3) external pure returns(uint){... */\n    tag_10:\n      tag_46\n      0x04\n      dup1\n      calldatasize\n      sub\n      dup2\n      add\n      swap1\n      tag_47\n      swap2\n      swap1\n      tag_48\n      jump\t// in\n    tag_47:\n      tag_49\n      jump\t// in\n    tag_46:\n      mload(0x40)\n      tag_50\n      swap2\n      swap1\n      tag_23\n      jump\t// in\n    tag_50:\n      mload(0x40)\n      dup1\n      swap2\n      sub\n      swap1\n      return\n        /* \"contracts/revision/Assg_1.sol\":857:1013  function advance_swap(uint _num1,uint _num2)  external pure returns(uint, uint){... */\n    tag_15:\n        /* \"contracts/revision/Assg_1.sol\":925:929  uint */\n      0x00\n        /* \"contracts/revision/Assg_1.sol\":931:935  uint */\n      dup1\n        /* \"contracts/revision/Assg_1.sol\":963:968  _num2 */\n      dup3\n        /* \"contracts/revision/Assg_1.sol\":969:974  _num1 */\n      dup5\n        /* \"contracts/revision/Assg_1.sol\":946:975  (_num1,_num2) = (_num2,_num1) */\n      dup1\n      swap5\n      pop\n      dup2\n      swap6\n      pop\n      pop\n      pop\n        /* \"contracts/revision/Assg_1.sol\":993:998  _num1 */\n      dup4\n        /* \"contracts/revision/Assg_1.sol\":1000:1005  _num2 */\n      dup4\n        /* \"contracts/revision/Assg_1.sol\":985:1006  return (_num1, _num2) */\n      swap2\n      pop\n      swap2\n      pop\n        /* \"contracts/revision/Assg_1.sol\":857:1013  function advance_swap(uint _num1,uint _num2)  external pure returns(uint, uint){... */\n      swap3\n      pop\n      swap3\n      swap1\n      pop\n      jump\t// out\n        /* \"contracts/revision/Assg_1.sol\":99:180  function Cube(uint _num) public pure returns(uint){... */\n    tag_21:\n        /* \"contracts/revision/Assg_1.sol\":144:148  uint */\n      0x00\n        /* \"contracts/revision/Assg_1.sol\":172:173  3 */\n      0x03\n        /* \"contracts/revision/Assg_1.sol\":166:170  _num */\n      dup3\n        /* \"contracts/revision/Assg_1.sol\":166:173  _num**3 */\n      tag_53\n      swap2\n      swap1\n      tag_54\n      jump\t// in\n    tag_53:\n        /* \"contracts/revision/Assg_1.sol\":159:173  return _num**3 */\n      swap1\n      pop\n        /* \"contracts/revision/Assg_1.sol\":99:180  function Cube(uint _num) public pure returns(uint){... */\n      swap2\n      swap1\n      pop\n      jump\t// out\n        /* \"contracts/revision/Assg_1.sol\":220:320  function evenOrOdd(uint _num) external pure returns(uint){... */\n    tag_26:\n        /* \"contracts/revision/Assg_1.sol\":272:276  uint */\n      0x00\n        /* \"contracts/revision/Assg_1.sol\":304:305  0 */\n      dup1\n        /* \"contracts/revision/Assg_1.sol\":299:300  2 */\n      0x02\n        /* \"contracts/revision/Assg_1.sol\":294:298  _num */\n      dup4\n        /* \"contracts/revision/Assg_1.sol\":294:300  _num%2 */\n      tag_56\n      swap2\n      swap1\n      tag_57\n      jump\t// in\n    tag_56:\n        /* \"contracts/revision/Assg_1.sol\":294:305  _num%2 == 0 */\n      eq\n        /* \"contracts/revision/Assg_1.sol\":294:313  _num%2 == 0 ? 1 : 0 */\n      tag_58\n      jumpi\n        /* \"contracts/revision/Assg_1.sol\":312:313  0 */\n      0x00\n        /* \"contracts/revision/Assg_1.sol\":294:313  _num%2 == 0 ? 1 : 0 */\n      jump(tag_59)\n    tag_58:\n        /* \"contracts/revision/Assg_1.sol\":308:309  1 */\n      0x01\n        /* \"contracts/revision/Assg_1.sol\":294:313  _num%2 == 0 ? 1 : 0 */\n    tag_59:\n        /* \"contracts/revision/Assg_1.sol\":287:313  return _num%2 == 0 ? 1 : 0 */\n      0xff\n      and\n      swap1\n      pop\n        /* \"contracts/revision/Assg_1.sol\":220:320  function evenOrOdd(uint _num) external pure returns(uint){... */\n      swap2\n      swap1\n      pop\n      jump\t// out\n        /* \"contracts/revision/Assg_1.sol\":1314:1983  function amstrong(uint256 _inp) public pure returns (uint256) {... */\n    tag_30:\n        /* \"contracts/revision/Assg_1.sol\":1367:1374  uint256 */\n      0x00\n        /* \"contracts/revision/Assg_1.sol\":1417:1429  uint256 temp */\n      dup1\n        /* \"contracts/revision/Assg_1.sol\":1432:1436  _inp */\n      dup3\n        /* \"contracts/revision/Assg_1.sol\":1417:1436  uint256 temp = _inp */\n      swap1\n      pop\n        /* \"contracts/revision/Assg_1.sol\":1446:1464  uint256 _inpLength */\n      0x00\n        /* \"contracts/revision/Assg_1.sol\":1478:1501  uint256 calculatedInput */\n      dup1\n        /* \"contracts/revision/Assg_1.sol\":1516:1595  while (temp != 0) {... */\n    tag_61:\n        /* \"contracts/revision/Assg_1.sol\":1531:1532  0 */\n      0x00\n        /* \"contracts/revision/Assg_1.sol\":1523:1527  temp */\n      dup4\n        /* \"contracts/revision/Assg_1.sol\":1523:1532  temp != 0 */\n      eq\n        /* \"contracts/revision/Assg_1.sol\":1516:1595  while (temp != 0) {... */\n      tag_62\n      jumpi\n        /* \"contracts/revision/Assg_1.sol\":1548:1560  _inpLength++ */\n      dup2\n      dup1\n      tag_63\n      swap1\n      tag_64\n      jump\t// in\n    tag_63:\n      swap3\n      pop\n      pop\n        /* \"contracts/revision/Assg_1.sol\":1582:1584  10 */\n      0x0a\n        /* \"contracts/revision/Assg_1.sol\":1574:1584  temp /= 10 */\n      dup4\n      tag_65\n      swap2\n      swap1\n      tag_66\n      jump\t// in\n    tag_65:\n      swap3\n      pop\n        /* \"contracts/revision/Assg_1.sol\":1516:1595  while (temp != 0) {... */\n      jump(tag_61)\n    tag_62:\n        /* \"contracts/revision/Assg_1.sol\":1626:1627  0 */\n      0x00\n        /* \"contracts/revision/Assg_1.sol\":1612:1622  _inpLength */\n      dup3\n        /* \"contracts/revision/Assg_1.sol\":1612:1627  _inpLength != 0 */\n      sub\n        /* \"contracts/revision/Assg_1.sol\":1604:1650  require(_inpLength != 0, \"not a valid number\") */\n      tag_67\n      jumpi\n      mload(0x40)\n      0x08c379a000000000000000000000000000000000000000000000000000000000\n      dup2\n      mstore\n      0x04\n      add\n      tag_68\n      swap1\n      tag_69\n      jump\t// in\n    tag_68:\n      mload(0x40)\n      dup1\n      swap2\n      sub\n      swap1\n      revert\n    tag_67:\n        /* \"contracts/revision/Assg_1.sol\":1667:1671  _inp */\n      dup5\n        /* \"contracts/revision/Assg_1.sol\":1660:1671  temp = _inp */\n      swap3\n      pop\n        /* \"contracts/revision/Assg_1.sol\":1748:1929  while (temp != 0) {... */\n    tag_70:\n        /* \"contracts/revision/Assg_1.sol\":1763:1764  0 */\n      0x00\n        /* \"contracts/revision/Assg_1.sol\":1755:1759  temp */\n      dup4\n        /* \"contracts/revision/Assg_1.sol\":1755:1764  temp != 0 */\n      eq\n        /* \"contracts/revision/Assg_1.sol\":1748:1929  while (temp != 0) {... */\n      tag_71\n      jumpi\n        /* \"contracts/revision/Assg_1.sol\":1780:1795  uint256 lastDig */\n      0x00\n        /* \"contracts/revision/Assg_1.sol\":1805:1807  10 */\n      0x0a\n        /* \"contracts/revision/Assg_1.sol\":1798:1802  temp */\n      dup5\n        /* \"contracts/revision/Assg_1.sol\":1798:1807  temp % 10 */\n      tag_72\n      swap2\n      swap1\n      tag_57\n      jump\t// in\n    tag_72:\n        /* \"contracts/revision/Assg_1.sol\":1780:1807  uint256 lastDig = temp % 10 */\n      swap1\n      pop\n        /* \"contracts/revision/Assg_1.sol\":1884:1894  _inpLength */\n      dup3\n        /* \"contracts/revision/Assg_1.sol\":1875:1882  lastDig */\n      dup2\n        /* \"contracts/revision/Assg_1.sol\":1875:1894  lastDig**_inpLength */\n      tag_73\n      swap2\n      swap1\n      tag_74\n      jump\t// in\n    tag_73:\n        /* \"contracts/revision/Assg_1.sol\":1857:1872  calculatedInput */\n      dup3\n        /* \"contracts/revision/Assg_1.sol\":1857:1894  calculatedInput + lastDig**_inpLength */\n      tag_75\n      swap2\n      swap1\n      tag_76\n      jump\t// in\n    tag_75:\n        /* \"contracts/revision/Assg_1.sol\":1839:1894  calculatedInput = calculatedInput + lastDig**_inpLength */\n      swap2\n      pop\n        /* \"contracts/revision/Assg_1.sol\":1916:1918  10 */\n      0x0a\n        /* \"contracts/revision/Assg_1.sol\":1908:1918  temp /= 10 */\n      dup5\n      tag_77\n      swap2\n      swap1\n      tag_66\n      jump\t// in\n    tag_77:\n      swap4\n      pop\n        /* \"contracts/revision/Assg_1.sol\":1766:1929  {... */\n      pop\n        /* \"contracts/revision/Assg_1.sol\":1748:1929  while (temp != 0) {... */\n      jump(tag_70)\n    tag_71:\n        /* \"contracts/revision/Assg_1.sol\":1953:1968  calculatedInput */\n      dup1\n        /* \"contracts/revision/Assg_1.sol\":1945:1949  _inp */\n      dup6\n        /* \"contracts/revision/Assg_1.sol\":1945:1968  _inp == calculatedInput */\n      eq\n        /* \"contracts/revision/Assg_1.sol\":1945:1976  _inp == calculatedInput ? 1 : 0 */\n      tag_78\n      jumpi\n        /* \"contracts/revision/Assg_1.sol\":1975:1976  0 */\n      0x00\n        /* \"contracts/revision/Assg_1.sol\":1945:1976  _inp == calculatedInput ? 1 : 0 */\n      jump(tag_79)\n    tag_78:\n        /* \"contracts/revision/Assg_1.sol\":1971:1972  1 */\n      0x01\n        /* \"contracts/revision/Assg_1.sol\":1945:1976  _inp == calculatedInput ? 1 : 0 */\n    tag_79:\n        /* \"contracts/revision/Assg_1.sol\":1938:1976  return _inp == calculatedInput ? 1 : 0 */\n      0xff\n      and\n      swap4\n      pop\n      pop\n      pop\n      pop\n        /* \"contracts/revision/Assg_1.sol\":1314:1983  function amstrong(uint256 _inp) public pure returns (uint256) {... */\n      swap2\n      swap1\n      pop\n      jump\t// out\n        /* \"contracts/revision/Assg_1.sol\":722:832  function powerOfInputs(uint _num1,uint _num2)  external pure returns(uint){... */\n    tag_34:\n        /* \"contracts/revision/Assg_1.sol\":791:795  uint */\n      0x00\n        /* \"contracts/revision/Assg_1.sol\":820:825  _num2 */\n      dup2\n        /* \"contracts/revision/Assg_1.sol\":813:818  _num1 */\n      dup4\n        /* \"contracts/revision/Assg_1.sol\":813:825  _num1**_num2 */\n      tag_81\n      swap2\n      swap1\n      tag_74\n      jump\t// in\n    tag_81:\n        /* \"contracts/revision/Assg_1.sol\":806:825  return _num1**_num2 */\n      swap1\n      pop\n        /* \"contracts/revision/Assg_1.sol\":722:832  function powerOfInputs(uint _num1,uint _num2)  external pure returns(uint){... */\n      swap3\n      swap2\n      pop\n      pop\n      jump\t// out\n        /* \"contracts/revision/Assg_1.sol\":500:691  function normal_swap(uint _num1,uint _num2)  external pure returns(uint, uint){... */\n    tag_38:\n        /* \"contracts/revision/Assg_1.sol\":567:571  uint */\n      0x00\n        /* \"contracts/revision/Assg_1.sol\":573:577  uint */\n      dup1\n        /* \"contracts/revision/Assg_1.sol\":588:600  uint256 _num */\n      0x00\n        /* \"contracts/revision/Assg_1.sol\":603:608  _num1 */\n      dup5\n        /* \"contracts/revision/Assg_1.sol\":588:608  uint256 _num = _num1 */\n      swap1\n      pop\n        /* \"contracts/revision/Assg_1.sol\":626:631  _num2 */\n      dup4\n        /* \"contracts/revision/Assg_1.sol\":618:631  _num1 = _num2 */\n      swap5\n      pop\n        /* \"contracts/revision/Assg_1.sol\":649:653  _num */\n      dup1\n        /* \"contracts/revision/Assg_1.sol\":641:653  _num2 = _num */\n      swap4\n      pop\n        /* \"contracts/revision/Assg_1.sol\":671:676  _num1 */\n      dup5\n        /* \"contracts/revision/Assg_1.sol\":678:683  _num2 */\n      dup5\n        /* \"contracts/revision/Assg_1.sol\":663:684  return (_num1, _num2) */\n      swap3\n      pop\n      swap3\n      pop\n      pop\n        /* \"contracts/revision/Assg_1.sol\":500:691  function normal_swap(uint _num1,uint _num2)  external pure returns(uint, uint){... */\n      swap3\n      pop\n      swap3\n      swap1\n      pop\n      jump\t// out\n        /* \"contracts/revision/Assg_1.sol\":1054:1300  function primeOrNot(int256 num )  external pure returns(int){... */\n    tag_43:\n        /* \"contracts/revision/Assg_1.sol\":1110:1113  int */\n      0x00\n        /* \"contracts/revision/Assg_1.sol\":1165:1173  int256 i */\n      dup1\n        /* \"contracts/revision/Assg_1.sol\":1176:1177  2 */\n      0x02\n        /* \"contracts/revision/Assg_1.sol\":1165:1177  int256 i = 2 */\n      swap1\n      pop\n        /* \"contracts/revision/Assg_1.sol\":1160:1276  for (int256 i = 2; i < num; i++) {... */\n    tag_84:\n        /* \"contracts/revision/Assg_1.sol\":1183:1186  num */\n      dup3\n        /* \"contracts/revision/Assg_1.sol\":1179:1180  i */\n      dup2\n        /* \"contracts/revision/Assg_1.sol\":1179:1186  i < num */\n      slt\n        /* \"contracts/revision/Assg_1.sol\":1160:1276  for (int256 i = 2; i < num; i++) {... */\n      iszero\n      tag_85\n      jumpi\n        /* \"contracts/revision/Assg_1.sol\":1222:1223  0 */\n      0x00\n        /* \"contracts/revision/Assg_1.sol\":1217:1218  i */\n      dup2\n        /* \"contracts/revision/Assg_1.sol\":1211:1214  num */\n      dup5\n        /* \"contracts/revision/Assg_1.sol\":1211:1218  num % i */\n      tag_87\n      swap2\n      swap1\n      tag_88\n      jump\t// in\n    tag_87:\n        /* \"contracts/revision/Assg_1.sol\":1211:1223  num % i == 0 */\n      sub\n        /* \"contracts/revision/Assg_1.sol\":1207:1266  if (num % i == 0) {... */\n      tag_89\n      jumpi\n        /* \"contracts/revision/Assg_1.sol\":1250:1251  0 */\n      0x00\n        /* \"contracts/revision/Assg_1.sol\":1243:1251  return 0 */\n      swap2\n      pop\n      pop\n      jump(tag_83)\n        /* \"contracts/revision/Assg_1.sol\":1207:1266  if (num % i == 0) {... */\n    tag_89:\n        /* \"contracts/revision/Assg_1.sol\":1188:1191  i++ */\n      dup1\n      dup1\n      tag_90\n      swap1\n      tag_91\n      jump\t// in\n    tag_90:\n      swap2\n      pop\n      pop\n        /* \"contracts/revision/Assg_1.sol\":1160:1276  for (int256 i = 2; i < num; i++) {... */\n      jump(tag_84)\n    tag_85:\n      pop\n        /* \"contracts/revision/Assg_1.sol\":1292:1293  1 */\n      0x01\n        /* \"contracts/revision/Assg_1.sol\":1285:1293  return 1 */\n      swap1\n      pop\n        /* \"contracts/revision/Assg_1.sol\":1054:1300  function primeOrNot(int256 num )  external pure returns(int){... */\n    tag_83:\n      swap2\n      swap1\n      pop\n      jump\t// out\n        /* \"contracts/revision/Assg_1.sol\":353:475  function avgOf3(uint _num1,uint _num2,uint _num3) external pure returns(uint){... */\n    tag_49:\n        /* \"contracts/revision/Assg_1.sol\":425:429  uint */\n      0x00\n        /* \"contracts/revision/Assg_1.sol\":467:468  3 */\n      0x03\n        /* \"contracts/revision/Assg_1.sol\":460:465  _num3 */\n      dup3\n        /* \"contracts/revision/Assg_1.sol\":454:459  _num2 */\n      dup5\n        /* \"contracts/revision/Assg_1.sol\":448:453  _num1 */\n      dup7\n        /* \"contracts/revision/Assg_1.sol\":448:459  _num1+_num2 */\n      tag_93\n      swap2\n      swap1\n      tag_76\n      jump\t// in\n    tag_93:\n        /* \"contracts/revision/Assg_1.sol\":448:465  _num1+_num2+_num3 */\n      tag_94\n      swap2\n      swap1\n      tag_76\n      jump\t// in\n    tag_94:\n        /* \"contracts/revision/Assg_1.sol\":447:468  (_num1+_num2+_num3)/3 */\n      tag_95\n      swap2\n      swap1\n      tag_66\n      jump\t// in\n    tag_95:\n        /* \"contracts/revision/Assg_1.sol\":440:468  return (_num1+_num2+_num3)/3 */\n      swap1\n      pop\n        /* \"contracts/revision/Assg_1.sol\":353:475  function avgOf3(uint _num1,uint _num2,uint _num3) external pure returns(uint){... */\n      swap4\n      swap3\n      pop\n      pop\n      pop\n      jump\t// out\n        /* \"#utility.yul\":88:205   */\n    tag_97:\n        /* \"#utility.yul\":197:198   */\n      0x00\n        /* \"#utility.yul\":194:195   */\n      dup1\n        /* \"#utility.yul\":187:199   */\n      revert\n        /* \"#utility.yul\":334:411   */\n    tag_99:\n        /* \"#utility.yul\":371:378   */\n      0x00\n        /* \"#utility.yul\":400:405   */\n      dup2\n        /* \"#utility.yul\":389:405   */\n      swap1\n      pop\n        /* \"#utility.yul\":334:411   */\n      swap2\n      swap1\n      pop\n      jump\t// out\n        /* \"#utility.yul\":417:539   */\n    tag_100:\n        /* \"#utility.yul\":490:514   */\n      tag_122\n        /* \"#utility.yul\":508:513   */\n      dup2\n        /* \"#utility.yul\":490:514   */\n      tag_99\n      jump\t// in\n    tag_122:\n        /* \"#utility.yul\":483:488   */\n      dup2\n        /* \"#utility.yul\":480:515   */\n      eq\n        /* \"#utility.yul\":470:533   */\n      tag_123\n      jumpi\n        /* \"#utility.yul\":529:530   */\n      0x00\n        /* \"#utility.yul\":526:527   */\n      dup1\n        /* \"#utility.yul\":519:531   */\n      revert\n        /* \"#utility.yul\":470:533   */\n    tag_123:\n        /* \"#utility.yul\":417:539   */\n      pop\n      jump\t// out\n        /* \"#utility.yul\":545:684   */\n    tag_101:\n        /* \"#utility.yul\":591:596   */\n      0x00\n        /* \"#utility.yul\":629:635   */\n      dup2\n        /* \"#utility.yul\":616:636   */\n      calldataload\n        /* \"#utility.yul\":607:636   */\n      swap1\n      pop\n        /* \"#utility.yul\":645:678   */\n      tag_125\n        /* \"#utility.yul\":672:677   */\n      dup2\n        /* \"#utility.yul\":645:678   */\n      tag_100\n      jump\t// in\n    tag_125:\n        /* \"#utility.yul\":545:684   */\n      swap3\n      swap2\n      pop\n      pop\n      jump\t// out\n        /* \"#utility.yul\":690:1164   */\n    tag_14:\n        /* \"#utility.yul\":758:764   */\n      0x00\n        /* \"#utility.yul\":766:772   */\n      dup1\n        /* \"#utility.yul\":815:817   */\n      0x40\n        /* \"#utility.yul\":803:812   */\n      dup4\n        /* \"#utility.yul\":794:801   */\n      dup6\n        /* \"#utility.yul\":790:813   */\n      sub\n        /* \"#utility.yul\":786:818   */\n      slt\n        /* \"#utility.yul\":783:902   */\n      iszero\n      tag_127\n      jumpi\n        /* \"#utility.yul\":821:900   */\n      tag_128\n      tag_97\n      jump\t// in\n    tag_128:\n        /* \"#utility.yul\":783:902   */\n    tag_127:\n        /* \"#utility.yul\":941:942   */\n      0x00\n        /* \"#utility.yul\":966:1019   */\n      tag_129\n        /* \"#utility.yul\":1011:1018   */\n      dup6\n        /* \"#utility.yul\":1002:1008   */\n      dup3\n        /* \"#utility.yul\":991:1000   */\n      dup7\n        /* \"#utility.yul\":987:1009   */\n      add\n        /* \"#utility.yul\":966:1019   */\n      tag_101\n      jump\t// in\n    tag_129:\n        /* \"#utility.yul\":956:1019   */\n      swap3\n      pop\n        /* \"#utility.yul\":912:1029   */\n      pop\n        /* \"#utility.yul\":1068:1070   */\n      0x20\n        /* \"#utility.yul\":1094:1147   */\n      tag_130\n        /* \"#utility.yul\":1139:1146   */\n      dup6\n        /* \"#utility.yul\":1130:1136   */\n      dup3\n        /* \"#utility.yul\":1119:1128   */\n      dup7\n        /* \"#utility.yul\":1115:1137   */\n      add\n        /* \"#utility.yul\":1094:1147   */\n      tag_101\n      jump\t// in\n    tag_130:\n        /* \"#utility.yul\":1084:1147   */\n      swap2\n      pop\n        /* \"#utility.yul\":1039:1157   */\n      pop\n        /* \"#utility.yul\":690:1164   */\n      swap3\n      pop\n      swap3\n      swap1\n      pop\n      jump\t// out\n        /* \"#utility.yul\":1170:1288   */\n    tag_102:\n        /* \"#utility.yul\":1257:1281   */\n      tag_132\n        /* \"#utility.yul\":1275:1280   */\n      dup2\n        /* \"#utility.yul\":1257:1281   */\n      tag_99\n      jump\t// in\n    tag_132:\n        /* \"#utility.yul\":1252:1255   */\n      dup3\n        /* \"#utility.yul\":1245:1282   */\n      mstore\n        /* \"#utility.yul\":1170:1288   */\n      pop\n      pop\n      jump\t// out\n        /* \"#utility.yul\":1294:1626   */\n    tag_17:\n        /* \"#utility.yul\":1415:1419   */\n      0x00\n        /* \"#utility.yul\":1453:1455   */\n      0x40\n        /* \"#utility.yul\":1442:1451   */\n      dup3\n        /* \"#utility.yul\":1438:1456   */\n      add\n        /* \"#utility.yul\":1430:1456   */\n      swap1\n      pop\n        /* \"#utility.yul\":1466:1537   */\n      tag_134\n        /* \"#utility.yul\":1534:1535   */\n      0x00\n        /* \"#utility.yul\":1523:1532   */\n      dup4\n        /* \"#utility.yul\":1519:1536   */\n      add\n        /* \"#utility.yul\":1510:1516   */\n      dup6\n        /* \"#utility.yul\":1466:1537   */\n      tag_102\n      jump\t// in\n    tag_134:\n        /* \"#utility.yul\":1547:1619   */\n      tag_135\n        /* \"#utility.yul\":1615:1617   */\n      0x20\n        /* \"#utility.yul\":1604:1613   */\n      dup4\n        /* \"#utility.yul\":1600:1618   */\n      add\n        /* \"#utility.yul\":1591:1597   */\n      dup5\n        /* \"#utility.yul\":1547:1619   */\n      tag_102\n      jump\t// in\n    tag_135:\n        /* \"#utility.yul\":1294:1626   */\n      swap4\n      swap3\n      pop\n      pop\n      pop\n      jump\t// out\n        /* \"#utility.yul\":1632:1961   */\n    tag_20:\n        /* \"#utility.yul\":1691:1697   */\n      0x00\n        /* \"#utility.yul\":1740:1742   */\n      0x20\n        /* \"#utility.yul\":1728:1737   */\n      dup3\n        /* \"#utility.yul\":1719:1726   */\n      dup5\n        /* \"#utility.yul\":1715:1738   */\n      sub\n        /* \"#utility.yul\":1711:1743   */\n      slt\n        /* \"#utility.yul\":1708:1827   */\n      iszero\n      tag_137\n      jumpi\n        /* \"#utility.yul\":1746:1825   */\n      tag_138\n      tag_97\n      jump\t// in\n    tag_138:\n        /* \"#utility.yul\":1708:1827   */\n    tag_137:\n        /* \"#utility.yul\":1866:1867   */\n      0x00\n        /* \"#utility.yul\":1891:1944   */\n      tag_139\n        /* \"#utility.yul\":1936:1943   */\n      dup5\n        /* \"#utility.yul\":1927:1933   */\n      dup3\n        /* \"#utility.yul\":1916:1925   */\n      dup6\n        /* \"#utility.yul\":1912:1934   */\n      add\n        /* \"#utility.yul\":1891:1944   */\n      tag_101\n      jump\t// in\n    tag_139:\n        /* \"#utility.yul\":1881:1944   */\n      swap2\n      pop\n        /* \"#utility.yul\":1837:1954   */\n      pop\n        /* \"#utility.yul\":1632:1961   */\n      swap3\n      swap2\n      pop\n      pop\n      jump\t// out\n        /* \"#utility.yul\":1967:2189   */\n    tag_23:\n        /* \"#utility.yul\":2060:2064   */\n      0x00\n        /* \"#utility.yul\":2098:2100   */\n      0x20\n        /* \"#utility.yul\":2087:2096   */\n      dup3\n        /* \"#utility.yul\":2083:2101   */\n      add\n        /* \"#utility.yul\":2075:2101   */\n      swap1\n      pop\n        /* \"#utility.yul\":2111:2182   */\n      tag_141\n        /* \"#utility.yul\":2179:2180   */\n      0x00\n        /* \"#utility.yul\":2168:2177   */\n      dup4\n        /* \"#utility.yul\":2164:2181   */\n      add\n        /* \"#utility.yul\":2155:2161   */\n      dup5\n        /* \"#utility.yul\":2111:2182   */\n      tag_102\n      jump\t// in\n    tag_141:\n        /* \"#utility.yul\":1967:2189   */\n      swap3\n      swap2\n      pop\n      pop\n      jump\t// out\n        /* \"#utility.yul\":2195:2271   */\n    tag_103:\n        /* \"#utility.yul\":2231:2238   */\n      0x00\n        /* \"#utility.yul\":2260:2265   */\n      dup2\n        /* \"#utility.yul\":2249:2265   */\n      swap1\n      pop\n        /* \"#utility.yul\":2195:2271   */\n      swap2\n      swap1\n      pop\n      jump\t// out\n        /* \"#utility.yul\":2277:2397   */\n    tag_104:\n        /* \"#utility.yul\":2349:2372   */\n      tag_144\n        /* \"#utility.yul\":2366:2371   */\n      dup2\n        /* \"#utility.yul\":2349:2372   */\n      tag_103\n      jump\t// in\n    tag_144:\n        /* \"#utility.yul\":2342:2347   */\n      dup2\n        /* \"#utility.yul\":2339:2373   */\n      eq\n        /* \"#utility.yul\":2329:2391   */\n      tag_145\n      jumpi\n        /* \"#utility.yul\":2387:2388   */\n      0x00\n        /* \"#utility.yul\":2384:2385   */\n      dup1\n        /* \"#utility.yul\":2377:2389   */\n      revert\n        /* \"#utility.yul\":2329:2391   */\n    tag_145:\n        /* \"#utility.yul\":2277:2397   */\n      pop\n      jump\t// out\n        /* \"#utility.yul\":2403:2540   */\n    tag_105:\n        /* \"#utility.yul\":2448:2453   */\n      0x00\n        /* \"#utility.yul\":2486:2492   */\n      dup2\n        /* \"#utility.yul\":2473:2493   */\n      calldataload\n        /* \"#utility.yul\":2464:2493   */\n      swap1\n      pop\n        /* \"#utility.yul\":2502:2534   */\n      tag_147\n        /* \"#utility.yul\":2528:2533   */\n      dup2\n        /* \"#utility.yul\":2502:2534   */\n      tag_104\n      jump\t// in\n    tag_147:\n        /* \"#utility.yul\":2403:2540   */\n      swap3\n      swap2\n      pop\n      pop\n      jump\t// out\n        /* \"#utility.yul\":2546:2873   */\n    tag_42:\n        /* \"#utility.yul\":2604:2610   */\n      0x00\n        /* \"#utility.yul\":2653:2655   */\n      0x20\n        /* \"#utility.yul\":2641:2650   */\n      dup3\n        /* \"#utility.yul\":2632:2639   */\n      dup5\n        /* \"#utility.yul\":2628:2651   */\n      sub\n        /* \"#utility.yul\":2624:2656   */\n      slt\n        /* \"#utility.yul\":2621:2740   */\n      iszero\n      tag_149\n      jumpi\n        /* \"#utility.yul\":2659:2738   */\n      tag_150\n      tag_97\n      jump\t// in\n    tag_150:\n        /* \"#utility.yul\":2621:2740   */\n    tag_149:\n        /* \"#utility.yul\":2779:2780   */\n      0x00\n        /* \"#utility.yul\":2804:2856   */\n      tag_151\n        /* \"#utility.yul\":2848:2855   */\n      dup5\n        /* \"#utility.yul\":2839:2845   */\n      dup3\n        /* \"#utility.yul\":2828:2837   */\n      dup6\n        /* \"#utility.yul\":2824:2846   */\n      add\n        /* \"#utility.yul\":2804:2856   */\n      tag_105\n      jump\t// in\n    tag_151:\n        /* \"#utility.yul\":2794:2856   */\n      swap2\n      pop\n        /* \"#utility.yul\":2750:2866   */\n      pop\n        /* \"#utility.yul\":2546:2873   */\n      swap3\n      swap2\n      pop\n      pop\n      jump\t// out\n        /* \"#utility.yul\":2879:2994   */\n    tag_106:\n        /* \"#utility.yul\":2964:2987   */\n      tag_153\n        /* \"#utility.yul\":2981:2986   */\n      dup2\n        /* \"#utility.yul\":2964:2987   */\n      tag_103\n      jump\t// in\n    tag_153:\n        /* \"#utility.yul\":2959:2962   */\n      dup3\n        /* \"#utility.yul\":2952:2988   */\n      mstore\n        /* \"#utility.yul\":2879:2994   */\n      pop\n      pop\n      jump\t// out\n        /* \"#utility.yul\":3000:3218   */\n    tag_45:\n        /* \"#utility.yul\":3091:3095   */\n      0x00\n        /* \"#utility.yul\":3129:3131   */\n      0x20\n        /* \"#utility.yul\":3118:3127   */\n      dup3\n        /* \"#utility.yul\":3114:3132   */\n      add\n        /* \"#utility.yul\":3106:3132   */\n      swap1\n      pop\n        /* \"#utility.yul\":3142:3211   */\n      tag_155\n        /* \"#utility.yul\":3208:3209   */\n      0x00\n        /* \"#utility.yul\":3197:3206   */\n      dup4\n        /* \"#utility.yul\":3193:3210   */\n      add\n        /* \"#utility.yul\":3184:3190   */\n      dup5\n        /* \"#utility.yul\":3142:3211   */\n      tag_106\n      jump\t// in\n    tag_155:\n        /* \"#utility.yul\":3000:3218   */\n      swap3\n      swap2\n      pop\n      pop\n      jump\t// out\n        /* \"#utility.yul\":3224:3843   */\n    tag_48:\n        /* \"#utility.yul\":3301:3307   */\n      0x00\n        /* \"#utility.yul\":3309:3315   */\n      dup1\n        /* \"#utility.yul\":3317:3323   */\n      0x00\n        /* \"#utility.yul\":3366:3368   */\n      0x60\n        /* \"#utility.yul\":3354:3363   */\n      dup5\n        /* \"#utility.yul\":3345:3352   */\n      dup7\n        /* \"#utility.yul\":3341:3364   */\n      sub\n        /* \"#utility.yul\":3337:3369   */\n      slt\n        /* \"#utility.yul\":3334:3453   */\n      iszero\n      tag_157\n      jumpi\n        /* \"#utility.yul\":3372:3451   */\n      tag_158\n      tag_97\n      jump\t// in\n    tag_158:\n        /* \"#utility.yul\":3334:3453   */\n    tag_157:\n        /* \"#utility.yul\":3492:3493   */\n      0x00\n        /* \"#utility.yul\":3517:3570   */\n      tag_159\n        /* \"#utility.yul\":3562:3569   */\n      dup7\n        /* \"#utility.yul\":3553:3559   */\n      dup3\n        /* \"#utility.yul\":3542:3551   */\n      dup8\n        /* \"#utility.yul\":3538:3560   */\n      add\n        /* \"#utility.yul\":3517:3570   */\n      tag_101\n      jump\t// in\n    tag_159:\n        /* \"#utility.yul\":3507:3570   */\n      swap4\n      pop\n        /* \"#utility.yul\":3463:3580   */\n      pop\n        /* \"#utility.yul\":3619:3621   */\n      0x20\n        /* \"#utility.yul\":3645:3698   */\n      tag_160\n        /* \"#utility.yul\":3690:3697   */\n      dup7\n        /* \"#utility.yul\":3681:3687   */\n      dup3\n        /* \"#utility.yul\":3670:3679   */\n      dup8\n        /* \"#utility.yul\":3666:3688   */\n      add\n        /* \"#utility.yul\":3645:3698   */\n      tag_101\n      jump\t// in\n    tag_160:\n        /* \"#utility.yul\":3635:3698   */\n      swap3\n      pop\n        /* \"#utility.yul\":3590:3708   */\n      pop\n        /* \"#utility.yul\":3747:3749   */\n      0x40\n        /* \"#utility.yul\":3773:3826   */\n      tag_161\n        /* \"#utility.yul\":3818:3825   */\n      dup7\n        /* \"#utility.yul\":3809:3815   */\n      dup3\n        /* \"#utility.yul\":3798:3807   */\n      dup8\n        /* \"#utility.yul\":3794:3816   */\n      add\n        /* \"#utility.yul\":3773:3826   */\n      tag_101\n      jump\t// in\n    tag_161:\n        /* \"#utility.yul\":3763:3826   */\n      swap2\n      pop\n        /* \"#utility.yul\":3718:3836   */\n      pop\n        /* \"#utility.yul\":3224:3843   */\n      swap3\n      pop\n      swap3\n      pop\n      swap3\n      jump\t// out\n        /* \"#utility.yul\":3849:4029   */\n    tag_107:\n        /* \"#utility.yul\":3897:3974   */\n      0x4e487b7100000000000000000000000000000000000000000000000000000000\n        /* \"#utility.yul\":3894:3895   */\n      0x00\n        /* \"#utility.yul\":3887:3975   */\n      mstore\n        /* \"#utility.yul\":3994:3998   */\n      0x11\n        /* \"#utility.yul\":3991:3992   */\n      0x04\n        /* \"#utility.yul\":3984:3999   */\n      mstore\n        /* \"#utility.yul\":4018:4022   */\n      0x24\n        /* \"#utility.yul\":4015:4016   */\n      0x00\n        /* \"#utility.yul\":4008:4023   */\n      revert\n        /* \"#utility.yul\":4035:4137   */\n    tag_108:\n        /* \"#utility.yul\":4077:4085   */\n      0x00\n        /* \"#utility.yul\":4124:4129   */\n      dup2\n        /* \"#utility.yul\":4121:4122   */\n      0x01\n        /* \"#utility.yul\":4117:4130   */\n      shr\n        /* \"#utility.yul\":4096:4130   */\n      swap1\n      pop\n        /* \"#utility.yul\":4035:4137   */\n      swap2\n      swap1\n      pop\n      jump\t// out\n        /* \"#utility.yul\":4143:4991   */\n    tag_109:\n        /* \"#utility.yul\":4204:4209   */\n      0x00\n        /* \"#utility.yul\":4211:4215   */\n      dup1\n        /* \"#utility.yul\":4235:4241   */\n      dup3\n        /* \"#utility.yul\":4226:4241   */\n      swap2\n      pop\n        /* \"#utility.yul\":4259:4264   */\n      dup4\n        /* \"#utility.yul\":4250:4264   */\n      swap1\n      pop\n        /* \"#utility.yul\":4273:4985   */\n    tag_165:\n        /* \"#utility.yul\":4294:4295   */\n      0x01\n        /* \"#utility.yul\":4284:4292   */\n      dup6\n        /* \"#utility.yul\":4281:4296   */\n      gt\n        /* \"#utility.yul\":4273:4985   */\n      iszero\n      tag_167\n      jumpi\n        /* \"#utility.yul\":4389:4393   */\n      dup1\n        /* \"#utility.yul\":4384:4387   */\n      dup7\n        /* \"#utility.yul\":4380:4394   */\n      div\n        /* \"#utility.yul\":4374:4378   */\n      dup2\n        /* \"#utility.yul\":4371:4395   */\n      gt\n        /* \"#utility.yul\":4368:4418   */\n      iszero\n      tag_168\n      jumpi\n        /* \"#utility.yul\":4398:4416   */\n      tag_169\n      tag_107\n      jump\t// in\n    tag_169:\n        /* \"#utility.yul\":4368:4418   */\n    tag_168:\n        /* \"#utility.yul\":4448:4449   */\n      0x01\n        /* \"#utility.yul\":4438:4446   */\n      dup6\n        /* \"#utility.yul\":4434:4450   */\n      and\n        /* \"#utility.yul\":4431:4882   */\n      iszero\n      tag_170\n      jumpi\n        /* \"#utility.yul\":4863:4867   */\n      dup1\n        /* \"#utility.yul\":4856:4861   */\n      dup3\n        /* \"#utility.yul\":4852:4868   */\n      mul\n        /* \"#utility.yul\":4843:4868   */\n      swap2\n      pop\n        /* \"#utility.yul\":4431:4882   */\n    tag_170:\n        /* \"#utility.yul\":4913:4917   */\n      dup1\n        /* \"#utility.yul\":4907:4911   */\n      dup2\n        /* \"#utility.yul\":4903:4918   */\n      mul\n        /* \"#utility.yul\":4895:4918   */\n      swap1\n      pop\n        /* \"#utility.yul\":4943:4975   */\n      tag_171\n        /* \"#utility.yul\":4966:4974   */\n      dup6\n        /* \"#utility.yul\":4943:4975   */\n      tag_108\n      jump\t// in\n    tag_171:\n        /* \"#utility.yul\":4931:4975   */\n      swap5\n      pop\n        /* \"#utility.yul\":4273:4985   */\n      jump(tag_165)\n    tag_167:\n        /* \"#utility.yul\":4143:4991   */\n      swap5\n      pop\n      swap5\n      swap3\n      pop\n      pop\n      pop\n      jump\t// out\n        /* \"#utility.yul\":4997:6070   */\n    tag_110:\n        /* \"#utility.yul\":5051:5056   */\n      0x00\n        /* \"#utility.yul\":5242:5250   */\n      dup3\n        /* \"#utility.yul\":5232:5272   */\n      tag_173\n      jumpi\n        /* \"#utility.yul\":5263:5264   */\n      0x01\n        /* \"#utility.yul\":5254:5264   */\n      swap1\n      pop\n        /* \"#utility.yul\":5265:5270   */\n      jump(tag_172)\n        /* \"#utility.yul\":5232:5272   */\n    tag_173:\n        /* \"#utility.yul\":5291:5295   */\n      dup2\n        /* \"#utility.yul\":5281:5317   */\n      tag_174\n      jumpi\n        /* \"#utility.yul\":5308:5309   */\n      0x00\n        /* \"#utility.yul\":5299:5309   */\n      swap1\n      pop\n        /* \"#utility.yul\":5310:5315   */\n      jump(tag_172)\n        /* \"#utility.yul\":5281:5317   */\n    tag_174:\n        /* \"#utility.yul\":5377:5381   */\n      dup2\n        /* \"#utility.yul\":5425:5426   */\n      0x01\n        /* \"#utility.yul\":5420:5447   */\n      dup2\n      eq\n      tag_176\n      jumpi\n        /* \"#utility.yul\":5461:5462   */\n      0x02\n        /* \"#utility.yul\":5456:5647   */\n      dup2\n      eq\n      tag_177\n      jumpi\n        /* \"#utility.yul\":5370:5647   */\n      jump(tag_175)\n        /* \"#utility.yul\":5420:5447   */\n    tag_176:\n        /* \"#utility.yul\":5438:5439   */\n      0x01\n        /* \"#utility.yul\":5429:5439   */\n      swap2\n      pop\n        /* \"#utility.yul\":5440:5445   */\n      pop\n      jump(tag_172)\n        /* \"#utility.yul\":5456:5647   */\n    tag_177:\n        /* \"#utility.yul\":5501:5504   */\n      0xff\n        /* \"#utility.yul\":5491:5499   */\n      dup5\n        /* \"#utility.yul\":5488:5505   */\n      gt\n        /* \"#utility.yul\":5485:5528   */\n      iszero\n      tag_178\n      jumpi\n        /* \"#utility.yul\":5508:5526   */\n      tag_179\n      tag_107\n      jump\t// in\n    tag_179:\n        /* \"#utility.yul\":5485:5528   */\n    tag_178:\n        /* \"#utility.yul\":5557:5565   */\n      dup4\n        /* \"#utility.yul\":5554:5555   */\n      0x02\n        /* \"#utility.yul\":5550:5566   */\n      exp\n        /* \"#utility.yul\":5541:5566   */\n      swap2\n      pop\n        /* \"#utility.yul\":5592:5595   */\n      dup5\n        /* \"#utility.yul\":5585:5590   */\n      dup3\n        /* \"#utility.yul\":5582:5596   */\n      gt\n        /* \"#utility.yul\":5579:5619   */\n      iszero\n      tag_180\n      jumpi\n        /* \"#utility.yul\":5599:5617   */\n      tag_181\n      tag_107\n      jump\t// in\n    tag_181:\n        /* \"#utility.yul\":5579:5619   */\n    tag_180:\n        /* \"#utility.yul\":5632:5637   */\n      pop\n      jump(tag_172)\n        /* \"#utility.yul\":5370:5647   */\n    tag_175:\n      pop\n        /* \"#utility.yul\":5756:5758   */\n      0x20\n        /* \"#utility.yul\":5746:5754   */\n      dup4\n        /* \"#utility.yul\":5743:5759   */\n      lt\n        /* \"#utility.yul\":5737:5740   */\n      0x0133\n        /* \"#utility.yul\":5731:5735   */\n      dup4\n        /* \"#utility.yul\":5728:5741   */\n      lt\n        /* \"#utility.yul\":5724:5760   */\n      and\n        /* \"#utility.yul\":5706:5708   */\n      0x4e\n        /* \"#utility.yul\":5696:5704   */\n      dup5\n        /* \"#utility.yul\":5693:5709   */\n      lt\n        /* \"#utility.yul\":5688:5690   */\n      0x0b\n        /* \"#utility.yul\":5682:5686   */\n      dup5\n        /* \"#utility.yul\":5679:5691   */\n      lt\n        /* \"#utility.yul\":5675:5710   */\n      and\n        /* \"#utility.yul\":5659:5770   */\n      or\n        /* \"#utility.yul\":5656:5902   */\n      iszero\n      tag_182\n      jumpi\n        /* \"#utility.yul\":5812:5820   */\n      dup3\n        /* \"#utility.yul\":5806:5810   */\n      dup3\n        /* \"#utility.yul\":5802:5821   */\n      exp\n        /* \"#utility.yul\":5793:5821   */\n      swap1\n      pop\n        /* \"#utility.yul\":5847:5850   */\n      dup4\n        /* \"#utility.yul\":5840:5845   */\n      dup2\n        /* \"#utility.yul\":5837:5851   */\n      gt\n        /* \"#utility.yul\":5834:5874   */\n      iszero\n      tag_183\n      jumpi\n        /* \"#utility.yul\":5854:5872   */\n      tag_184\n      tag_107\n      jump\t// in\n    tag_184:\n        /* \"#utility.yul\":5834:5874   */\n    tag_183:\n        /* \"#utility.yul\":5887:5892   */\n      jump(tag_172)\n        /* \"#utility.yul\":5656:5902   */\n    tag_182:\n        /* \"#utility.yul\":5927:5969   */\n      tag_185\n        /* \"#utility.yul\":5965:5968   */\n      dup5\n        /* \"#utility.yul\":5955:5963   */\n      dup5\n        /* \"#utility.yul\":5949:5953   */\n      dup5\n        /* \"#utility.yul\":5946:5947   */\n      0x01\n        /* \"#utility.yul\":5927:5969   */\n      tag_109\n      jump\t// in\n    tag_185:\n        /* \"#utility.yul\":5912:5969   */\n      swap3\n      pop\n      swap1\n      pop\n        /* \"#utility.yul\":6001:6005   */\n      dup2\n        /* \"#utility.yul\":5996:5999   */\n      dup5\n        /* \"#utility.yul\":5992:6006   */\n      div\n        /* \"#utility.yul\":5985:5990   */\n      dup2\n        /* \"#utility.yul\":5982:6007   */\n      gt\n        /* \"#utility.yul\":5979:6030   */\n      iszero\n      tag_186\n      jumpi\n        /* \"#utility.yul\":6010:6028   */\n      tag_187\n      tag_107\n      jump\t// in\n    tag_187:\n        /* \"#utility.yul\":5979:6030   */\n    tag_186:\n        /* \"#utility.yul\":6059:6063   */\n      dup2\n        /* \"#utility.yul\":6052:6057   */\n      dup2\n        /* \"#utility.yul\":6048:6064   */\n      mul\n        /* \"#utility.yul\":6039:6064   */\n      swap1\n      pop\n        /* \"#utility.yul\":4997:6070   */\n    tag_172:\n      swap4\n      swap3\n      pop\n      pop\n      pop\n      jump\t// out\n        /* \"#utility.yul\":6076:6162   */\n    tag_111:\n        /* \"#utility.yul\":6111:6118   */\n      0x00\n        /* \"#utility.yul\":6151:6155   */\n      0xff\n        /* \"#utility.yul\":6144:6149   */\n      dup3\n        /* \"#utility.yul\":6140:6156   */\n      and\n        /* \"#utility.yul\":6129:6156   */\n      swap1\n      pop\n        /* \"#utility.yul\":6076:6162   */\n      swap2\n      swap1\n      pop\n      jump\t// out\n        /* \"#utility.yul\":6168:6449   */\n    tag_54:\n        /* \"#utility.yul\":6226:6231   */\n      0x00\n        /* \"#utility.yul\":6250:6273   */\n      tag_190\n        /* \"#utility.yul\":6268:6272   */\n      dup3\n        /* \"#utility.yul\":6250:6273   */\n      tag_99\n      jump\t// in\n    tag_190:\n        /* \"#utility.yul\":6242:6273   */\n      swap2\n      pop\n        /* \"#utility.yul\":6294:6319   */\n      tag_191\n        /* \"#utility.yul\":6310:6318   */\n      dup4\n        /* \"#utility.yul\":6294:6319   */\n      tag_111\n      jump\t// in\n    tag_191:\n        /* \"#utility.yul\":6282:6319   */\n      swap3\n      pop\n        /* \"#utility.yul\":6338:6442   */\n      tag_192\n        /* \"#utility.yul\":6375:6441   */\n      0xffffffffffffffffffffffffffffffffffffffffffffffffffffffffffffffff\n        /* \"#utility.yul\":6365:6373   */\n      dup5\n        /* \"#utility.yul\":6359:6363   */\n      dup5\n        /* \"#utility.yul\":6338:6442   */\n      tag_110\n      jump\t// in\n    tag_192:\n        /* \"#utility.yul\":6329:6442   */\n      swap1\n      pop\n        /* \"#utility.yul\":6168:6449   */\n      swap3\n      swap2\n      pop\n      pop\n      jump\t// out\n        /* \"#utility.yul\":6455:6635   */\n    tag_112:\n        /* \"#utility.yul\":6503:6580   */\n      0x4e487b7100000000000000000000000000000000000000000000000000000000\n        /* \"#utility.yul\":6500:6501   */\n      0x00\n        /* \"#utility.yul\":6493:6581   */\n      mstore\n        /* \"#utility.yul\":6600:6604   */\n      0x12\n        /* \"#utility.yul\":6597:6598   */\n      0x04\n        /* \"#utility.yul\":6590:6605   */\n      mstore\n        /* \"#utility.yul\":6624:6628   */\n      0x24\n        /* \"#utility.yul\":6621:6622   */\n      0x00\n        /* \"#utility.yul\":6614:6629   */\n      revert\n        /* \"#utility.yul\":6641:6817   */\n    tag_57:\n        /* \"#utility.yul\":6673:6674   */\n      0x00\n        /* \"#utility.yul\":6690:6710   */\n      tag_195\n        /* \"#utility.yul\":6708:6709   */\n      dup3\n        /* \"#utility.yul\":6690:6710   */\n      tag_99\n      jump\t// in\n    tag_195:\n        /* \"#utility.yul\":6685:6710   */\n      swap2\n      pop\n        /* \"#utility.yul\":6724:6744   */\n      tag_196\n        /* \"#utility.yul\":6742:6743   */\n      dup4\n        /* \"#utility.yul\":6724:6744   */\n      tag_99\n      jump\t// in\n    tag_196:\n        /* \"#utility.yul\":6719:6744   */\n      swap3\n      pop\n        /* \"#utility.yul\":6763:6764   */\n      dup3\n        /* \"#utility.yul\":6753:6788   */\n      tag_197\n      jumpi\n        /* \"#utility.yul\":6768:6786   */\n      tag_198\n      tag_112\n      jump\t// in\n    tag_198:\n        /* \"#utility.yul\":6753:6788   */\n    tag_197:\n        /* \"#utility.yul\":6809:6810   */\n      dup3\n        /* \"#utility.yul\":6806:6807   */\n      dup3\n        /* \"#utility.yul\":6802:6811   */\n      mod\n        /* \"#utility.yul\":6797:6811   */\n      swap1\n      pop\n        /* \"#utility.yul\":6641:6817   */\n      swap3\n      swap2\n      pop\n      pop\n      jump\t// out\n        /* \"#utility.yul\":6823:7056   */\n    tag_64:\n        /* \"#utility.yul\":6862:6865   */\n      0x00\n        /* \"#utility.yul\":6885:6909   */\n      tag_200\n        /* \"#utility.yul\":6903:6908   */\n      dup3\n        /* \"#utility.yul\":6885:6909   */\n      tag_99\n      jump\t// in\n    tag_200:\n        /* \"#utility.yul\":6876:6909   */\n      swap2\n      pop\n        /* \"#utility.yul\":6931:6997   */\n      0xffffffffffffffffffffffffffffffffffffffffffffffffffffffffffffffff\n        /* \"#utility.yul\":6924:6929   */\n      dup3\n        /* \"#utility.yul\":6921:6998   */\n      sub\n        /* \"#utility.yul\":6918:7021   */\n      tag_201\n      jumpi\n        /* \"#utility.yul\":7001:7019   */\n      tag_202\n      tag_107\n      jump\t// in\n    tag_202:\n        /* \"#utility.yul\":6918:7021   */\n    tag_201:\n        /* \"#utility.yul\":7048:7049   */\n      0x01\n        /* \"#utility.yul\":7041:7046   */\n      dup3\n        /* \"#utility.yul\":7037:7050   */\n      add\n        /* \"#utility.yul\":7030:7050   */\n      swap1\n      pop\n        /* \"#utility.yul\":6823:7056   */\n      swap2\n      swap1\n      pop\n      jump\t// out\n        /* \"#utility.yul\":7062:7247   */\n    tag_66:\n        /* \"#utility.yul\":7102:7103   */\n      0x00\n        /* \"#utility.yul\":7119:7139   */\n      tag_204\n        /* \"#utility.yul\":7137:7138   */\n      dup3\n        /* \"#utility.yul\":7119:7139   */\n      tag_99\n      jump\t// in\n    tag_204:\n        /* \"#utility.yul\":7114:7139   */\n      swap2\n      pop\n        /* \"#utility.yul\":7153:7173   */\n      tag_205\n        /* \"#utility.yul\":7171:7172   */\n      dup4\n        /* \"#utility.yul\":7153:7173   */\n      tag_99\n      jump\t// in\n    tag_205:\n        /* \"#utility.yul\":7148:7173   */\n      swap3\n      pop\n        /* \"#utility.yul\":7192:7193   */\n      dup3\n        /* \"#utility.yul\":7182:7217   */\n      tag_206\n      jumpi\n        /* \"#utility.yul\":7197:7215   */\n      tag_207\n      tag_112\n      jump\t// in\n    tag_207:\n        /* \"#utility.yul\":7182:7217   */\n    tag_206:\n        /* \"#utility.yul\":7239:7240   */\n      dup3\n        /* \"#utility.yul\":7236:7237   */\n      dup3\n        /* \"#utility.yul\":7232:7241   */\n      div\n        /* \"#utility.yul\":7227:7241   */\n      swap1\n      pop\n        /* \"#utility.yul\":7062:7247   */\n      swap3\n      swap2\n      pop\n      pop\n      jump\t// out\n        /* \"#utility.yul\":7253:7422   */\n    tag_113:\n        /* \"#utility.yul\":7337:7348   */\n      0x00\n        /* \"#utility.yul\":7371:7377   */\n      dup3\n        /* \"#utility.yul\":7366:7369   */\n      dup3\n        /* \"#utility.yul\":7359:7378   */\n      mstore\n        /* \"#utility.yul\":7411:7415   */\n      0x20\n        /* \"#utility.yul\":7406:7409   */\n      dup3\n        /* \"#utility.yul\":7402:7416   */\n      add\n        /* \"#utility.yul\":7387:7416   */\n      swap1\n      pop\n        /* \"#utility.yul\":7253:7422   */\n      swap3\n      swap2\n      pop\n      pop\n      jump\t// out\n        /* \"#utility.yul\":7428:7596   */\n    tag_114:\n        /* \"#utility.yul\":7568:7588   */\n      0x6e6f7420612076616c6964206e756d6265720000000000000000000000000000\n        /* \"#utility.yul\":7564:7565   */\n      0x00\n        /* \"#utility.yul\":7556:7562   */\n      dup3\n        /* \"#utility.yul\":7552:7566   */\n      add\n        /* \"#utility.yul\":7545:7589   */\n      mstore\n        /* \"#utility.yul\":7428:7596   */\n      pop\n      jump\t// out\n        /* \"#utility.yul\":7602:7968   */\n    tag_115:\n        /* \"#utility.yul\":7744:7747   */\n      0x00\n        /* \"#utility.yul\":7765:7832   */\n      tag_211\n        /* \"#utility.yul\":7829:7831   */\n      0x12\n        /* \"#utility.yul\":7824:7827   */\n      dup4\n        /* \"#utility.yul\":7765:7832   */\n      tag_113\n      jump\t// in\n    tag_211:\n        /* \"#utility.yul\":7758:7832   */\n      swap2\n      pop\n        /* \"#utility.yul\":7841:7934   */\n      tag_212\n        /* \"#utility.yul\":7930:7933   */\n      dup3\n        /* \"#utility.yul\":7841:7934   */\n      tag_114\n      jump\t// in\n    tag_212:\n        /* \"#utility.yul\":7959:7961   */\n      0x20\n        /* \"#utility.yul\":7954:7957   */\n      dup3\n        /* \"#utility.yul\":7950:7962   */\n      add\n        /* \"#utility.yul\":7943:7962   */\n      swap1\n      pop\n        /* \"#utility.yul\":7602:7968   */\n      swap2\n      swap1\n      pop\n      jump\t// out\n        /* \"#utility.yul\":7974:8393   */\n    tag_69:\n        /* \"#utility.yul\":8140:8144   */\n      0x00\n        /* \"#utility.yul\":8178:8180   */\n      0x20\n        /* \"#utility.yul\":8167:8176   */\n      dup3\n        /* \"#utility.yul\":8163:8181   */\n      add\n        /* \"#utility.yul\":8155:8181   */\n      swap1\n      pop\n        /* \"#utility.yul\":8227:8236   */\n      dup2\n        /* \"#utility.yul\":8221:8225   */\n      dup2\n        /* \"#utility.yul\":8217:8237   */\n      sub\n        /* \"#utility.yul\":8213:8214   */\n      0x00\n        /* \"#utility.yul\":8202:8211   */\n      dup4\n        /* \"#utility.yul\":8198:8215   */\n      add\n        /* \"#utility.yul\":8191:8238   */\n      mstore\n        /* \"#utility.yul\":8255:8386   */\n      tag_214\n        /* \"#utility.yul\":8381:8385   */\n      dup2\n        /* \"#utility.yul\":8255:8386   */\n      tag_115\n      jump\t// in\n    tag_214:\n        /* \"#utility.yul\":8247:8386   */\n      swap1\n      pop\n        /* \"#utility.yul\":7974:8393   */\n      swap2\n      swap1\n      pop\n      jump\t// out\n        /* \"#utility.yul\":8399:8684   */\n    tag_74:\n        /* \"#utility.yul\":8459:8464   */\n      0x00\n        /* \"#utility.yul\":8483:8506   */\n      tag_216\n        /* \"#utility.yul\":8501:8505   */\n      dup3\n        /* \"#utility.yul\":8483:8506   */\n      tag_99\n      jump\t// in\n    tag_216:\n        /* \"#utility.yul\":8475:8506   */\n      swap2\n      pop\n        /* \"#utility.yul\":8527:8554   */\n      tag_217\n        /* \"#utility.yul\":8545:8553   */\n      dup4\n        /* \"#utility.yul\":8527:8554   */\n      tag_99\n      jump\t// in\n    tag_217:\n        /* \"#utility.yul\":8515:8554   */\n      swap3\n      pop\n        /* \"#utility.yul\":8573:8677   */\n      tag_218\n        /* \"#utility.yul\":8610:8676   */\n      0xffffffffffffffffffffffffffffffffffffffffffffffffffffffffffffffff\n        /* \"#utility.yul\":8600:8608   */\n      dup5\n        /* \"#utility.yul\":8594:8598   */\n      dup5\n        /* \"#utility.yul\":8573:8677   */\n      tag_110\n      jump\t// in\n    tag_218:\n        /* \"#utility.yul\":8564:8677   */\n      swap1\n      pop\n        /* \"#utility.yul\":8399:8684   */\n      swap3\n      swap2\n      pop\n      pop\n      jump\t// out\n        /* \"#utility.yul\":8690:8881   */\n    tag_76:\n        /* \"#utility.yul\":8730:8733   */\n      0x00\n        /* \"#utility.yul\":8749:8769   */\n      tag_220\n        /* \"#utility.yul\":8767:8768   */\n      dup3\n        /* \"#utility.yul\":8749:8769   */\n      tag_99\n      jump\t// in\n    tag_220:\n        /* \"#utility.yul\":8744:8769   */\n      swap2\n      pop\n        /* \"#utility.yul\":8783:8803   */\n      tag_221\n        /* \"#utility.yul\":8801:8802   */\n      dup4\n        /* \"#utility.yul\":8783:8803   */\n      tag_99\n      jump\t// in\n    tag_221:\n        /* \"#utility.yul\":8778:8803   */\n      swap3\n      pop\n        /* \"#utility.yul\":8826:8827   */\n      dup3\n        /* \"#utility.yul\":8823:8824   */\n      dup3\n        /* \"#utility.yul\":8819:8828   */\n      add\n        /* \"#utility.yul\":8812:8828   */\n      swap1\n      pop\n        /* \"#utility.yul\":8847:8850   */\n      dup1\n        /* \"#utility.yul\":8844:8845   */\n      dup3\n        /* \"#utility.yul\":8841:8851   */\n      gt\n        /* \"#utility.yul\":8838:8874   */\n      iszero\n      tag_222\n      jumpi\n        /* \"#utility.yul\":8854:8872   */\n      tag_223\n      tag_107\n      jump\t// in\n    tag_223:\n        /* \"#utility.yul\":8838:8874   */\n    tag_222:\n        /* \"#utility.yul\":8690:8881   */\n      swap3\n      swap2\n      pop\n      pop\n      jump\t// out\n        /* \"#utility.yul\":8887:9061   */\n    tag_88:\n        /* \"#utility.yul\":8918:8919   */\n      0x00\n        /* \"#utility.yul\":8935:8954   */\n      tag_225\n        /* \"#utility.yul\":8952:8953   */\n      dup3\n        /* \"#utility.yul\":8935:8954   */\n      tag_103\n      jump\t// in\n    tag_225:\n        /* \"#utility.yul\":8930:8954   */\n      swap2\n      pop\n        /* \"#utility.yul\":8968:8987   */\n      tag_226\n        /* \"#utility.yul\":8985:8986   */\n      dup4\n        /* \"#utility.yul\":8968:8987   */\n      tag_103\n      jump\t// in\n    tag_226:\n        /* \"#utility.yul\":8963:8987   */\n      swap3\n      pop\n        /* \"#utility.yul\":9006:9007   */\n      dup3\n        /* \"#utility.yul\":8996:9031   */\n      tag_227\n      jumpi\n        /* \"#utility.yul\":9011:9029   */\n      tag_228\n      tag_112\n      jump\t// in\n    tag_228:\n        /* \"#utility.yul\":8996:9031   */\n    tag_227:\n        /* \"#utility.yul\":9053:9054   */\n      dup3\n        /* \"#utility.yul\":9050:9051   */\n      dup3\n        /* \"#utility.yul\":9045:9055   */\n      smod\n        /* \"#utility.yul\":9040:9055   */\n      swap1\n      pop\n        /* \"#utility.yul\":8887:9061   */\n      swap3\n      swap2\n      pop\n      pop\n      jump\t// out\n        /* \"#utility.yul\":9067:9298   */\n    tag_91:\n        /* \"#utility.yul\":9105:9108   */\n      0x00\n        /* \"#utility.yul\":9128:9151   */\n      tag_230\n        /* \"#utility.yul\":9145:9150   */\n      dup3\n        /* \"#utility.yul\":9128:9151   */\n      tag_103\n      jump\t// in\n    tag_230:\n        /* \"#utility.yul\":9119:9151   */\n      swap2\n      pop\n        /* \"#utility.yul\":9173:9239   */\n      0x7fffffffffffffffffffffffffffffffffffffffffffffffffffffffffffffff\n        /* \"#utility.yul\":9166:9171   */\n      dup3\n        /* \"#utility.yul\":9163:9240   */\n      sub\n        /* \"#utility.yul\":9160:9263   */\n      tag_231\n      jumpi\n        /* \"#utility.yul\":9243:9261   */\n      tag_232\n      tag_107\n      jump\t// in\n    tag_232:\n        /* \"#utility.yul\":9160:9263   */\n    tag_231:\n        /* \"#utility.yul\":9290:9291   */\n      0x01\n        /* \"#utility.yul\":9283:9288   */\n      dup3\n        /* \"#utility.yul\":9279:9292   */\n      add\n        /* \"#utility.yul\":9272:9292   */\n      swap1\n      pop\n        /* \"#utility.yul\":9067:9298   */\n      swap2\n      swap1\n      pop\n      jump\t// out\n\n    auxdata: 0xa2646970667358221220cf99ddc7591a271daf45ffba493678127236b420d3d6794ed613cd4f1338953c64736f6c63430008110033\n}\n",
				"bytecode": {
					"linkReferences": {},
					"object": "608060405234801561001057600080fd5b50610a0c806100206000396000f3fe608060405234801561001057600080fd5b50600436106100885760003560e01c8063bbf609231161005b578063bbf609231461014e578063bc4609c61461017e578063ca93381a146101af578063d7be85ca146101df57610088565b806312145cd91461008d5780635a087416146100be57806382ee7780146100ee57806383d3705e1461011e575b600080fd5b6100a760048036038101906100a2919061042e565b61020f565b6040516100b592919061047d565b60405180910390f35b6100d860048036038101906100d391906104a6565b610229565b6040516100e591906104d3565b60405180910390f35b610108600480360381019061010391906104a6565b61023f565b60405161011591906104d3565b60405180910390f35b610138600480360381019061013391906104a6565b610268565b60405161014591906104d3565b60405180910390f35b6101686004803603810190610163919061042e565b610348565b60405161017591906104d3565b60405180910390f35b6101986004803603810190610193919061042e565b61035e565b6040516101a692919061047d565b60405180910390f35b6101c960048036038101906101c49190610524565b61037a565b6040516101d69190610560565b60405180910390f35b6101f960048036038101906101f4919061057b565b6103c5565b60405161020691906104d3565b60405180910390f35b600080828480945081955050508383915091509250929050565b6000600382610238919061073d565b9050919050565b60008060028361024f91906107b7565b1461025b57600061025e565b60015b60ff169050919050565b6000808290506000805b6000831461029c578180610285906107e8565b925050600a836102959190610830565b9250610272565b600082036102df576040517f08c379a00000000000000000000000000000000000000000000000000000000081526004016102d6906108be565b60405180910390fd5b8492505b6000831461032a576000600a846102fa91906107b7565b9050828161030891906108de565b826103139190610929565b9150600a846103229190610830565b9350506102e3565b80851461033857600061033b565b60015b60ff169350505050919050565b6000818361035691906108de565b905092915050565b6000806000849050839450809350848492509250509250929050565b600080600290505b828112156103ba5760008184610398919061095d565b036103a75760009150506103c0565b80806103b29061098e565b915050610382565b50600190505b919050565b600060038284866103d69190610929565b6103e09190610929565b6103ea9190610830565b90509392505050565b600080fd5b6000819050919050565b61040b816103f8565b811461041657600080fd5b50565b60008135905061042881610402565b92915050565b60008060408385031215610445576104446103f3565b5b600061045385828601610419565b925050602061046485828601610419565b9150509250929050565b610477816103f8565b82525050565b6000604082019050610492600083018561046e565b61049f602083018461046e565b9392505050565b6000602082840312156104bc576104bb6103f3565b5b60006104ca84828501610419565b91505092915050565b60006020820190506104e8600083018461046e565b92915050565b6000819050919050565b610501816104ee565b811461050c57600080fd5b50565b60008135905061051e816104f8565b92915050565b60006020828403121561053a576105396103f3565b5b60006105488482850161050f565b91505092915050565b61055a816104ee565b82525050565b60006020820190506105756000830184610551565b92915050565b600080600060608486031215610594576105936103f3565b5b60006105a286828701610419565b93505060206105b386828701610419565b92505060406105c486828701610419565b9150509250925092565b7f4e487b7100000000000000000000000000000000000000000000000000000000600052601160045260246000fd5b60008160011c9050919050565b6000808291508390505b6001851115610654578086048111156106305761062f6105ce565b5b600185161561063f5780820291505b808102905061064d856105fd565b9450610614565b94509492505050565b60008261066d5760019050610729565b8161067b5760009050610729565b8160018114610691576002811461069b576106ca565b6001915050610729565b60ff8411156106ad576106ac6105ce565b5b8360020a9150848211156106c4576106c36105ce565b5b50610729565b5060208310610133831016604e8410600b84101617156106ff5782820a9050838111156106fa576106f96105ce565b5b610729565b61070c848484600161060a565b92509050818404811115610723576107226105ce565b5b81810290505b9392505050565b600060ff82169050919050565b6000610748826103f8565b915061075383610730565b92506107807fffffffffffffffffffffffffffffffffffffffffffffffffffffffffffffffff848461065d565b905092915050565b7f4e487b7100000000000000000000000000000000000000000000000000000000600052601260045260246000fd5b60006107c2826103f8565b91506107cd836103f8565b9250826107dd576107dc610788565b5b828206905092915050565b60006107f3826103f8565b91507fffffffffffffffffffffffffffffffffffffffffffffffffffffffffffffffff8203610825576108246105ce565b5b600182019050919050565b600061083b826103f8565b9150610846836103f8565b92508261085657610855610788565b5b828204905092915050565b600082825260208201905092915050565b7f6e6f7420612076616c6964206e756d6265720000000000000000000000000000600082015250565b60006108a8601283610861565b91506108b382610872565b602082019050919050565b600060208201905081810360008301526108d78161089b565b9050919050565b60006108e9826103f8565b91506108f4836103f8565b92506109217fffffffffffffffffffffffffffffffffffffffffffffffffffffffffffffffff848461065d565b905092915050565b6000610934826103f8565b915061093f836103f8565b9250828201905080821115610957576109566105ce565b5b92915050565b6000610968826104ee565b9150610973836104ee565b92508261098357610982610788565b5b828207905092915050565b6000610999826104ee565b91507f7fffffffffffffffffffffffffffffffffffffffffffffffffffffffffffffff82036109cb576109ca6105ce565b5b60018201905091905056fea2646970667358221220cf99ddc7591a271daf45ffba493678127236b420d3d6794ed613cd4f1338953c64736f6c63430008110033",
					"opcodes": "PUSH1 0x80 PUSH1 0x40 MSTORE CALLVALUE DUP1 ISZERO PUSH2 0x10 JUMPI PUSH1 0x0 DUP1 REVERT JUMPDEST POP PUSH2 0xA0C DUP1 PUSH2 0x20 PUSH1 0x0 CODECOPY PUSH1 0x0 RETURN INVALID PUSH1 0x80 PUSH1 0x40 MSTORE CALLVALUE DUP1 ISZERO PUSH2 0x10 JUMPI PUSH1 0x0 DUP1 REVERT JUMPDEST POP PUSH1 0x4 CALLDATASIZE LT PUSH2 0x88 JUMPI PUSH1 0x0 CALLDATALOAD PUSH1 0xE0 SHR DUP1 PUSH4 0xBBF60923 GT PUSH2 0x5B JUMPI DUP1 PUSH4 0xBBF60923 EQ PUSH2 0x14E JUMPI DUP1 PUSH4 0xBC4609C6 EQ PUSH2 0x17E JUMPI DUP1 PUSH4 0xCA93381A EQ PUSH2 0x1AF JUMPI DUP1 PUSH4 0xD7BE85CA EQ PUSH2 0x1DF JUMPI PUSH2 0x88 JUMP JUMPDEST DUP1 PUSH4 0x12145CD9 EQ PUSH2 0x8D JUMPI DUP1 PUSH4 0x5A087416 EQ PUSH2 0xBE JUMPI DUP1 PUSH4 0x82EE7780 EQ PUSH2 0xEE JUMPI DUP1 PUSH4 0x83D3705E EQ PUSH2 0x11E JUMPI JUMPDEST PUSH1 0x0 DUP1 REVERT JUMPDEST PUSH2 0xA7 PUSH1 0x4 DUP1 CALLDATASIZE SUB DUP2 ADD SWAP1 PUSH2 0xA2 SWAP2 SWAP1 PUSH2 0x42E JUMP JUMPDEST PUSH2 0x20F JUMP JUMPDEST PUSH1 0x40 MLOAD PUSH2 0xB5 SWAP3 SWAP2 SWAP1 PUSH2 0x47D JUMP JUMPDEST PUSH1 0x40 MLOAD DUP1 SWAP2 SUB SWAP1 RETURN JUMPDEST PUSH2 0xD8 PUSH1 0x4 DUP1 CALLDATASIZE SUB DUP2 ADD SWAP1 PUSH2 0xD3 SWAP2 SWAP1 PUSH2 0x4A6 JUMP JUMPDEST PUSH2 0x229 JUMP JUMPDEST PUSH1 0x40 MLOAD PUSH2 0xE5 SWAP2 SWAP1 PUSH2 0x4D3 JUMP JUMPDEST PUSH1 0x40 MLOAD DUP1 SWAP2 SUB SWAP1 RETURN JUMPDEST PUSH2 0x108 PUSH1 0x4 DUP1 CALLDATASIZE SUB DUP2 ADD SWAP1 PUSH2 0x103 SWAP2 SWAP1 PUSH2 0x4A6 JUMP JUMPDEST PUSH2 0x23F JUMP JUMPDEST PUSH1 0x40 MLOAD PUSH2 0x115 SWAP2 SWAP1 PUSH2 0x4D3 JUMP JUMPDEST PUSH1 0x40 MLOAD DUP1 SWAP2 SUB SWAP1 RETURN JUMPDEST PUSH2 0x138 PUSH1 0x4 DUP1 CALLDATASIZE SUB DUP2 ADD SWAP1 PUSH2 0x133 SWAP2 SWAP1 PUSH2 0x4A6 JUMP JUMPDEST PUSH2 0x268 JUMP JUMPDEST PUSH1 0x40 MLOAD PUSH2 0x145 SWAP2 SWAP1 PUSH2 0x4D3 JUMP JUMPDEST PUSH1 0x40 MLOAD DUP1 SWAP2 SUB SWAP1 RETURN JUMPDEST PUSH2 0x168 PUSH1 0x4 DUP1 CALLDATASIZE SUB DUP2 ADD SWAP1 PUSH2 0x163 SWAP2 SWAP1 PUSH2 0x42E JUMP JUMPDEST PUSH2 0x348 JUMP JUMPDEST PUSH1 0x40 MLOAD PUSH2 0x175 SWAP2 SWAP1 PUSH2 0x4D3 JUMP JUMPDEST PUSH1 0x40 MLOAD DUP1 SWAP2 SUB SWAP1 RETURN JUMPDEST PUSH2 0x198 PUSH1 0x4 DUP1 CALLDATASIZE SUB DUP2 ADD SWAP1 PUSH2 0x193 SWAP2 SWAP1 PUSH2 0x42E JUMP JUMPDEST PUSH2 0x35E JUMP JUMPDEST PUSH1 0x40 MLOAD PUSH2 0x1A6 SWAP3 SWAP2 SWAP1 PUSH2 0x47D JUMP JUMPDEST PUSH1 0x40 MLOAD DUP1 SWAP2 SUB SWAP1 RETURN JUMPDEST PUSH2 0x1C9 PUSH1 0x4 DUP1 CALLDATASIZE SUB DUP2 ADD SWAP1 PUSH2 0x1C4 SWAP2 SWAP1 PUSH2 0x524 JUMP JUMPDEST PUSH2 0x37A JUMP JUMPDEST PUSH1 0x40 MLOAD PUSH2 0x1D6 SWAP2 SWAP1 PUSH2 0x560 JUMP JUMPDEST PUSH1 0x40 MLOAD DUP1 SWAP2 SUB SWAP1 RETURN JUMPDEST PUSH2 0x1F9 PUSH1 0x4 DUP1 CALLDATASIZE SUB DUP2 ADD SWAP1 PUSH2 0x1F4 SWAP2 SWAP1 PUSH2 0x57B JUMP JUMPDEST PUSH2 0x3C5 JUMP JUMPDEST PUSH1 0x40 MLOAD PUSH2 0x206 SWAP2 SWAP1 PUSH2 0x4D3 JUMP JUMPDEST PUSH1 0x40 MLOAD DUP1 SWAP2 SUB SWAP1 RETURN JUMPDEST PUSH1 0x0 DUP1 DUP3 DUP5 DUP1 SWAP5 POP DUP2 SWAP6 POP POP POP DUP4 DUP4 SWAP2 POP SWAP2 POP SWAP3 POP SWAP3 SWAP1 POP JUMP JUMPDEST PUSH1 0x0 PUSH1 0x3 DUP3 PUSH2 0x238 SWAP2 SWAP1 PUSH2 0x73D JUMP JUMPDEST SWAP1 POP SWAP2 SWAP1 POP JUMP JUMPDEST PUSH1 0x0 DUP1 PUSH1 0x2 DUP4 PUSH2 0x24F SWAP2 SWAP1 PUSH2 0x7B7 JUMP JUMPDEST EQ PUSH2 0x25B JUMPI PUSH1 0x0 PUSH2 0x25E JUMP JUMPDEST PUSH1 0x1 JUMPDEST PUSH1 0xFF AND SWAP1 POP SWAP2 SWAP1 POP JUMP JUMPDEST PUSH1 0x0 DUP1 DUP3 SWAP1 POP PUSH1 0x0 DUP1 JUMPDEST PUSH1 0x0 DUP4 EQ PUSH2 0x29C JUMPI DUP2 DUP1 PUSH2 0x285 SWAP1 PUSH2 0x7E8 JUMP JUMPDEST SWAP3 POP POP PUSH1 0xA DUP4 PUSH2 0x295 SWAP2 SWAP1 PUSH2 0x830 JUMP JUMPDEST SWAP3 POP PUSH2 0x272 JUMP JUMPDEST PUSH1 0x0 DUP3 SUB PUSH2 0x2DF JUMPI PUSH1 0x40 MLOAD PUSH32 0x8C379A000000000000000000000000000000000000000000000000000000000 DUP2 MSTORE PUSH1 0x4 ADD PUSH2 0x2D6 SWAP1 PUSH2 0x8BE JUMP JUMPDEST PUSH1 0x40 MLOAD DUP1 SWAP2 SUB SWAP1 REVERT JUMPDEST DUP5 SWAP3 POP JUMPDEST PUSH1 0x0 DUP4 EQ PUSH2 0x32A JUMPI PUSH1 0x0 PUSH1 0xA DUP5 PUSH2 0x2FA SWAP2 SWAP1 PUSH2 0x7B7 JUMP JUMPDEST SWAP1 POP DUP3 DUP2 PUSH2 0x308 SWAP2 SWAP1 PUSH2 0x8DE JUMP JUMPDEST DUP3 PUSH2 0x313 SWAP2 SWAP1 PUSH2 0x929 JUMP JUMPDEST SWAP2 POP PUSH1 0xA DUP5 PUSH2 0x322 SWAP2 SWAP1 PUSH2 0x830 JUMP JUMPDEST SWAP4 POP POP PUSH2 0x2E3 JUMP JUMPDEST DUP1 DUP6 EQ PUSH2 0x338 JUMPI PUSH1 0x0 PUSH2 0x33B JUMP JUMPDEST PUSH1 0x1 JUMPDEST PUSH1 0xFF AND SWAP4 POP POP POP POP SWAP2 SWAP1 POP JUMP JUMPDEST PUSH1 0x0 DUP2 DUP4 PUSH2 0x356 SWAP2 SWAP1 PUSH2 0x8DE JUMP JUMPDEST SWAP1 POP SWAP3 SWAP2 POP POP JUMP JUMPDEST PUSH1 0x0 DUP1 PUSH1 0x0 DUP5 SWAP1 POP DUP4 SWAP5 POP DUP1 SWAP4 POP DUP5 DUP5 SWAP3 POP SWAP3 POP POP SWAP3 POP SWAP3 SWAP1 POP JUMP JUMPDEST PUSH1 0x0 DUP1 PUSH1 0x2 SWAP1 POP JUMPDEST DUP3 DUP2 SLT ISZERO PUSH2 0x3BA JUMPI PUSH1 0x0 DUP2 DUP5 PUSH2 0x398 SWAP2 SWAP1 PUSH2 0x95D JUMP JUMPDEST SUB PUSH2 0x3A7 JUMPI PUSH1 0x0 SWAP2 POP POP PUSH2 0x3C0 JUMP JUMPDEST DUP1 DUP1 PUSH2 0x3B2 SWAP1 PUSH2 0x98E JUMP JUMPDEST SWAP2 POP POP PUSH2 0x382 JUMP JUMPDEST POP PUSH1 0x1 SWAP1 POP JUMPDEST SWAP2 SWAP1 POP JUMP JUMPDEST PUSH1 0x0 PUSH1 0x3 DUP3 DUP5 DUP7 PUSH2 0x3D6 SWAP2 SWAP1 PUSH2 0x929 JUMP JUMPDEST PUSH2 0x3E0 SWAP2 SWAP1 PUSH2 0x929 JUMP JUMPDEST PUSH2 0x3EA SWAP2 SWAP1 PUSH2 0x830 JUMP JUMPDEST SWAP1 POP SWAP4 SWAP3 POP POP POP JUMP JUMPDEST PUSH1 0x0 DUP1 REVERT JUMPDEST PUSH1 0x0 DUP2 SWAP1 POP SWAP2 SWAP1 POP JUMP JUMPDEST PUSH2 0x40B DUP2 PUSH2 0x3F8 JUMP JUMPDEST DUP2 EQ PUSH2 0x416 JUMPI PUSH1 0x0 DUP1 REVERT JUMPDEST POP JUMP JUMPDEST PUSH1 0x0 DUP2 CALLDATALOAD SWAP1 POP PUSH2 0x428 DUP2 PUSH2 0x402 JUMP JUMPDEST SWAP3 SWAP2 POP POP JUMP JUMPDEST PUSH1 0x0 DUP1 PUSH1 0x40 DUP4 DUP6 SUB SLT ISZERO PUSH2 0x445 JUMPI PUSH2 0x444 PUSH2 0x3F3 JUMP JUMPDEST JUMPDEST PUSH1 0x0 PUSH2 0x453 DUP6 DUP3 DUP7 ADD PUSH2 0x419 JUMP JUMPDEST SWAP3 POP POP PUSH1 0x20 PUSH2 0x464 DUP6 DUP3 DUP7 ADD PUSH2 0x419 JUMP JUMPDEST SWAP2 POP POP SWAP3 POP SWAP3 SWAP1 POP JUMP JUMPDEST PUSH2 0x477 DUP2 PUSH2 0x3F8 JUMP JUMPDEST DUP3 MSTORE POP POP JUMP JUMPDEST PUSH1 0x0 PUSH1 0x40 DUP3 ADD SWAP1 POP PUSH2 0x492 PUSH1 0x0 DUP4 ADD DUP6 PUSH2 0x46E JUMP JUMPDEST PUSH2 0x49F PUSH1 0x20 DUP4 ADD DUP5 PUSH2 0x46E JUMP JUMPDEST SWAP4 SWAP3 POP POP POP JUMP JUMPDEST PUSH1 0x0 PUSH1 0x20 DUP3 DUP5 SUB SLT ISZERO PUSH2 0x4BC JUMPI PUSH2 0x4BB PUSH2 0x3F3 JUMP JUMPDEST JUMPDEST PUSH1 0x0 PUSH2 0x4CA DUP5 DUP3 DUP6 ADD PUSH2 0x419 JUMP JUMPDEST SWAP2 POP POP SWAP3 SWAP2 POP POP JUMP JUMPDEST PUSH1 0x0 PUSH1 0x20 DUP3 ADD SWAP1 POP PUSH2 0x4E8 PUSH1 0x0 DUP4 ADD DUP5 PUSH2 0x46E JUMP JUMPDEST SWAP3 SWAP2 POP POP JUMP JUMPDEST PUSH1 0x0 DUP2 SWAP1 POP SWAP2 SWAP1 POP JUMP JUMPDEST PUSH2 0x501 DUP2 PUSH2 0x4EE JUMP JUMPDEST DUP2 EQ PUSH2 0x50C JUMPI PUSH1 0x0 DUP1 REVERT JUMPDEST POP JUMP JUMPDEST PUSH1 0x0 DUP2 CALLDATALOAD SWAP1 POP PUSH2 0x51E DUP2 PUSH2 0x4F8 JUMP JUMPDEST SWAP3 SWAP2 POP POP JUMP JUMPDEST PUSH1 0x0 PUSH1 0x20 DUP3 DUP5 SUB SLT ISZERO PUSH2 0x53A JUMPI PUSH2 0x539 PUSH2 0x3F3 JUMP JUMPDEST JUMPDEST PUSH1 0x0 PUSH2 0x548 DUP5 DUP3 DUP6 ADD PUSH2 0x50F JUMP JUMPDEST SWAP2 POP POP SWAP3 SWAP2 POP POP JUMP JUMPDEST PUSH2 0x55A DUP2 PUSH2 0x4EE JUMP JUMPDEST DUP3 MSTORE POP POP JUMP JUMPDEST PUSH1 0x0 PUSH1 0x20 DUP3 ADD SWAP1 POP PUSH2 0x575 PUSH1 0x0 DUP4 ADD DUP5 PUSH2 0x551 JUMP JUMPDEST SWAP3 SWAP2 POP POP JUMP JUMPDEST PUSH1 0x0 DUP1 PUSH1 0x0 PUSH1 0x60 DUP5 DUP7 SUB SLT ISZERO PUSH2 0x594 JUMPI PUSH2 0x593 PUSH2 0x3F3 JUMP JUMPDEST JUMPDEST PUSH1 0x0 PUSH2 0x5A2 DUP7 DUP3 DUP8 ADD PUSH2 0x419 JUMP JUMPDEST SWAP4 POP POP PUSH1 0x20 PUSH2 0x5B3 DUP7 DUP3 DUP8 ADD PUSH2 0x419 JUMP JUMPDEST SWAP3 POP POP PUSH1 0x40 PUSH2 0x5C4 DUP7 DUP3 DUP8 ADD PUSH2 0x419 JUMP JUMPDEST SWAP2 POP POP SWAP3 POP SWAP3 POP SWAP3 JUMP JUMPDEST PUSH32 0x4E487B7100000000000000000000000000000000000000000000000000000000 PUSH1 0x0 MSTORE PUSH1 0x11 PUSH1 0x4 MSTORE PUSH1 0x24 PUSH1 0x0 REVERT JUMPDEST PUSH1 0x0 DUP2 PUSH1 0x1 SHR SWAP1 POP SWAP2 SWAP1 POP JUMP JUMPDEST PUSH1 0x0 DUP1 DUP3 SWAP2 POP DUP4 SWAP1 POP JUMPDEST PUSH1 0x1 DUP6 GT ISZERO PUSH2 0x654 JUMPI DUP1 DUP7 DIV DUP2 GT ISZERO PUSH2 0x630 JUMPI PUSH2 0x62F PUSH2 0x5CE JUMP JUMPDEST JUMPDEST PUSH1 0x1 DUP6 AND ISZERO PUSH2 0x63F JUMPI DUP1 DUP3 MUL SWAP2 POP JUMPDEST DUP1 DUP2 MUL SWAP1 POP PUSH2 0x64D DUP6 PUSH2 0x5FD JUMP JUMPDEST SWAP5 POP PUSH2 0x614 JUMP JUMPDEST SWAP5 POP SWAP5 SWAP3 POP POP POP JUMP JUMPDEST PUSH1 0x0 DUP3 PUSH2 0x66D JUMPI PUSH1 0x1 SWAP1 POP PUSH2 0x729 JUMP JUMPDEST DUP2 PUSH2 0x67B JUMPI PUSH1 0x0 SWAP1 POP PUSH2 0x729 JUMP JUMPDEST DUP2 PUSH1 0x1 DUP2 EQ PUSH2 0x691 JUMPI PUSH1 0x2 DUP2 EQ PUSH2 0x69B JUMPI PUSH2 0x6CA JUMP JUMPDEST PUSH1 0x1 SWAP2 POP POP PUSH2 0x729 JUMP JUMPDEST PUSH1 0xFF DUP5 GT ISZERO PUSH2 0x6AD JUMPI PUSH2 0x6AC PUSH2 0x5CE JUMP JUMPDEST JUMPDEST DUP4 PUSH1 0x2 EXP SWAP2 POP DUP5 DUP3 GT ISZERO PUSH2 0x6C4 JUMPI PUSH2 0x6C3 PUSH2 0x5CE JUMP JUMPDEST JUMPDEST POP PUSH2 0x729 JUMP JUMPDEST POP PUSH1 0x20 DUP4 LT PUSH2 0x133 DUP4 LT AND PUSH1 0x4E DUP5 LT PUSH1 0xB DUP5 LT AND OR ISZERO PUSH2 0x6FF JUMPI DUP3 DUP3 EXP SWAP1 POP DUP4 DUP2 GT ISZERO PUSH2 0x6FA JUMPI PUSH2 0x6F9 PUSH2 0x5CE JUMP JUMPDEST JUMPDEST PUSH2 0x729 JUMP JUMPDEST PUSH2 0x70C DUP5 DUP5 DUP5 PUSH1 0x1 PUSH2 0x60A JUMP JUMPDEST SWAP3 POP SWAP1 POP DUP2 DUP5 DIV DUP2 GT ISZERO PUSH2 0x723 JUMPI PUSH2 0x722 PUSH2 0x5CE JUMP JUMPDEST JUMPDEST DUP2 DUP2 MUL SWAP1 POP JUMPDEST SWAP4 SWAP3 POP POP POP JUMP JUMPDEST PUSH1 0x0 PUSH1 0xFF DUP3 AND SWAP1 POP SWAP2 SWAP1 POP JUMP JUMPDEST PUSH1 0x0 PUSH2 0x748 DUP3 PUSH2 0x3F8 JUMP JUMPDEST SWAP2 POP PUSH2 0x753 DUP4 PUSH2 0x730 JUMP JUMPDEST SWAP3 POP PUSH2 0x780 PUSH32 0xFFFFFFFFFFFFFFFFFFFFFFFFFFFFFFFFFFFFFFFFFFFFFFFFFFFFFFFFFFFFFFFF DUP5 DUP5 PUSH2 0x65D JUMP JUMPDEST SWAP1 POP SWAP3 SWAP2 POP POP JUMP JUMPDEST PUSH32 0x4E487B7100000000000000000000000000000000000000000000000000000000 PUSH1 0x0 MSTORE PUSH1 0x12 PUSH1 0x4 MSTORE PUSH1 0x24 PUSH1 0x0 REVERT JUMPDEST PUSH1 0x0 PUSH2 0x7C2 DUP3 PUSH2 0x3F8 JUMP JUMPDEST SWAP2 POP PUSH2 0x7CD DUP4 PUSH2 0x3F8 JUMP JUMPDEST SWAP3 POP DUP3 PUSH2 0x7DD JUMPI PUSH2 0x7DC PUSH2 0x788 JUMP JUMPDEST JUMPDEST DUP3 DUP3 MOD SWAP1 POP SWAP3 SWAP2 POP POP JUMP JUMPDEST PUSH1 0x0 PUSH2 0x7F3 DUP3 PUSH2 0x3F8 JUMP JUMPDEST SWAP2 POP PUSH32 0xFFFFFFFFFFFFFFFFFFFFFFFFFFFFFFFFFFFFFFFFFFFFFFFFFFFFFFFFFFFFFFFF DUP3 SUB PUSH2 0x825 JUMPI PUSH2 0x824 PUSH2 0x5CE JUMP JUMPDEST JUMPDEST PUSH1 0x1 DUP3 ADD SWAP1 POP SWAP2 SWAP1 POP JUMP JUMPDEST PUSH1 0x0 PUSH2 0x83B DUP3 PUSH2 0x3F8 JUMP JUMPDEST SWAP2 POP PUSH2 0x846 DUP4 PUSH2 0x3F8 JUMP JUMPDEST SWAP3 POP DUP3 PUSH2 0x856 JUMPI PUSH2 0x855 PUSH2 0x788 JUMP JUMPDEST JUMPDEST DUP3 DUP3 DIV SWAP1 POP SWAP3 SWAP2 POP POP JUMP JUMPDEST PUSH1 0x0 DUP3 DUP3 MSTORE PUSH1 0x20 DUP3 ADD SWAP1 POP SWAP3 SWAP2 POP POP JUMP JUMPDEST PUSH32 0x6E6F7420612076616C6964206E756D6265720000000000000000000000000000 PUSH1 0x0 DUP3 ADD MSTORE POP JUMP JUMPDEST PUSH1 0x0 PUSH2 0x8A8 PUSH1 0x12 DUP4 PUSH2 0x861 JUMP JUMPDEST SWAP2 POP PUSH2 0x8B3 DUP3 PUSH2 0x872 JUMP JUMPDEST PUSH1 0x20 DUP3 ADD SWAP1 POP SWAP2 SWAP1 POP JUMP JUMPDEST PUSH1 0x0 PUSH1 0x20 DUP3 ADD SWAP1 POP DUP2 DUP2 SUB PUSH1 0x0 DUP4 ADD MSTORE PUSH2 0x8D7 DUP2 PUSH2 0x89B JUMP JUMPDEST SWAP1 POP SWAP2 SWAP1 POP JUMP JUMPDEST PUSH1 0x0 PUSH2 0x8E9 DUP3 PUSH2 0x3F8 JUMP JUMPDEST SWAP2 POP PUSH2 0x8F4 DUP4 PUSH2 0x3F8 JUMP JUMPDEST SWAP3 POP PUSH2 0x921 PUSH32 0xFFFFFFFFFFFFFFFFFFFFFFFFFFFFFFFFFFFFFFFFFFFFFFFFFFFFFFFFFFFFFFFF DUP5 DUP5 PUSH2 0x65D JUMP JUMPDEST SWAP1 POP SWAP3 SWAP2 POP POP JUMP JUMPDEST PUSH1 0x0 PUSH2 0x934 DUP3 PUSH2 0x3F8 JUMP JUMPDEST SWAP2 POP PUSH2 0x93F DUP4 PUSH2 0x3F8 JUMP JUMPDEST SWAP3 POP DUP3 DUP3 ADD SWAP1 POP DUP1 DUP3 GT ISZERO PUSH2 0x957 JUMPI PUSH2 0x956 PUSH2 0x5CE JUMP JUMPDEST JUMPDEST SWAP3 SWAP2 POP POP JUMP JUMPDEST PUSH1 0x0 PUSH2 0x968 DUP3 PUSH2 0x4EE JUMP JUMPDEST SWAP2 POP PUSH2 0x973 DUP4 PUSH2 0x4EE JUMP JUMPDEST SWAP3 POP DUP3 PUSH2 0x983 JUMPI PUSH2 0x982 PUSH2 0x788 JUMP JUMPDEST JUMPDEST DUP3 DUP3 SMOD SWAP1 POP SWAP3 SWAP2 POP POP JUMP JUMPDEST PUSH1 0x0 PUSH2 0x999 DUP3 PUSH2 0x4EE JUMP JUMPDEST SWAP2 POP PUSH32 0x7FFFFFFFFFFFFFFFFFFFFFFFFFFFFFFFFFFFFFFFFFFFFFFFFFFFFFFFFFFFFFFF DUP3 SUB PUSH2 0x9CB JUMPI PUSH2 0x9CA PUSH2 0x5CE JUMP JUMPDEST JUMPDEST PUSH1 0x1 DUP3 ADD SWAP1 POP SWAP2 SWAP1 POP JUMP INVALID LOG2 PUSH5 0x6970667358 0x22 SLT KECCAK256 0xCF SWAP10 0xDD 0xC7 MSIZE BYTE 0x27 SAR 0xAF GASLIMIT SELFDESTRUCT 0xBA 0x49 CALLDATASIZE PUSH25 0x127236B420D3D6794ED613CD4F1338953C64736F6C63430008 GT STOP CALLER "
				},
				"gasEstimates": {
					"creation": {
						"codeDepositCost": "514400",
						"executionCost": "549",
						"totalCost": "514949"
					},
					"external": {
						"Cube(uint256)": "infinite",
						"advance_swap(uint256,uint256)": "infinite",
						"amstrong(uint256)": "infinite",
						"avgOf3(uint256,uint256,uint256)": "infinite",
						"evenOrOdd(uint256)": "infinite",
						"normal_swap(uint256,uint256)": "infinite",
						"powerOfInputs(uint256,uint256)": "infinite",
						"primeOrNot(int256)": "infinite"
					}
				},
				"methodIdentifiers": {
					"Cube(uint256)": "5a087416",
					"advance_swap(uint256,uint256)": "12145cd9",
					"amstrong(uint256)": "83d3705e",
					"avgOf3(uint256,uint256,uint256)": "d7be85ca",
					"evenOrOdd(uint256)": "82ee7780",
					"normal_swap(uint256,uint256)": "bc4609c6",
					"powerOfInputs(uint256,uint256)": "bbf60923",
					"primeOrNot(int256)": "ca93381a"
				}
			},
			"storageLayout": {
				"storage": [],
				"types": null
			},
			"userdoc": {
				"kind": "user",
				"methods": {},
				"version": 1
			}
		}
	}
}