{
	"contracts/Learing/palindrome.sol": {
		"palindrome": {
			"abi": [
				{
					"inputs": [
						{
							"internalType": "uint256",
							"name": "input",
							"type": "uint256"
						}
					],
					"name": "find",
					"outputs": [],
					"stateMutability": "pure",
					"type": "function"
				}
			],
			"devdoc": {
				"kind": "dev",
				"methods": {},
				"version": 1
			},
			"evm": {
				"assembly": "    /* \"contracts/Learing/palindrome.sol\":56:456  contract palindrome {... */\n  mstore(0x40, 0x80)\n  callvalue\n  dup1\n  iszero\n  tag_1\n  jumpi\n  0x00\n  dup1\n  revert\ntag_1:\n  pop\n  dataSize(sub_0)\n  dup1\n  dataOffset(sub_0)\n  0x00\n  codecopy\n  0x00\n  return\nstop\n\nsub_0: assembly {\n        /* \"contracts/Learing/palindrome.sol\":56:456  contract palindrome {... */\n      mstore(0x40, 0x80)\n      callvalue\n      dup1\n      iszero\n      tag_1\n      jumpi\n      0x00\n      dup1\n      revert\n    tag_1:\n      pop\n      jumpi(tag_2, lt(calldatasize, 0x04))\n      shr(0xe0, calldataload(0x00))\n      dup1\n      0x3e530e5b\n      eq\n      tag_3\n      jumpi\n    tag_2:\n      0x00\n      dup1\n      revert\n        /* \"contracts/Learing/palindrome.sol\":82:454  function find(uint256 input) external pure {... */\n    tag_3:\n      tag_4\n      0x04\n      dup1\n      calldatasize\n      sub\n      dup2\n      add\n      swap1\n      tag_5\n      swap2\n      swap1\n      tag_6\n      jump\t// in\n    tag_5:\n      tag_7\n      jump\t// in\n    tag_4:\n      stop\n    tag_7:\n        /* \"contracts/Learing/palindrome.sol\":149:165  uint256 reversed */\n      0x00\n        /* \"contracts/Learing/palindrome.sol\":175:192  uint256 remainder */\n      dup1\n        /* \"contracts/Learing/palindrome.sol\":202:218  uint256 original */\n      0x00\n        /* \"contracts/Learing/palindrome.sol\":221:226  input */\n      dup4\n        /* \"contracts/Learing/palindrome.sol\":202:226  uint256 original = input */\n      swap1\n      pop\n        /* \"contracts/Learing/palindrome.sol\":236:448  while (input != 0) {... */\n    tag_9:\n        /* \"contracts/Learing/palindrome.sol\":252:253  0 */\n      0x00\n        /* \"contracts/Learing/palindrome.sol\":243:248  input */\n      dup5\n        /* \"contracts/Learing/palindrome.sol\":243:253  input != 0 */\n      eq\n        /* \"contracts/Learing/palindrome.sol\":236:448  while (input != 0) {... */\n      tag_10\n      jumpi\n        /* \"contracts/Learing/palindrome.sol\":289:291  10 */\n      0x0a\n        /* \"contracts/Learing/palindrome.sol\":281:286  input */\n      dup5\n        /* \"contracts/Learing/palindrome.sol\":281:291  input % 10 */\n      tag_11\n      swap2\n      swap1\n      tag_12\n      jump\t// in\n    tag_11:\n        /* \"contracts/Learing/palindrome.sol\":269:291  remainder = input % 10 */\n      swap2\n      pop\n        /* \"contracts/Learing/palindrome.sol\":362:371  remainder */\n      dup2\n        /* \"contracts/Learing/palindrome.sol\":357:359  10 */\n      0x0a\n        /* \"contracts/Learing/palindrome.sol\":346:354  reversed */\n      dup5\n        /* \"contracts/Learing/palindrome.sol\":346:359  reversed * 10 */\n      tag_13\n      swap2\n      swap1\n      tag_14\n      jump\t// in\n    tag_13:\n        /* \"contracts/Learing/palindrome.sol\":346:371  reversed * 10 + remainder */\n      tag_15\n      swap2\n      swap1\n      tag_16\n      jump\t// in\n    tag_15:\n        /* \"contracts/Learing/palindrome.sol\":335:371  reversed = reversed * 10 + remainder */\n      swap3\n      pop\n        /* \"contracts/Learing/palindrome.sol\":402:404  10 */\n      0x0a\n        /* \"contracts/Learing/palindrome.sol\":394:399  input */\n      dup5\n        /* \"contracts/Learing/palindrome.sol\":394:404  input / 10 */\n      tag_17\n      swap2\n      swap1\n      tag_18\n      jump\t// in\n    tag_17:\n        /* \"contracts/Learing/palindrome.sol\":386:404  input = input / 10 */\n      swap4\n      pop\n        /* \"contracts/Learing/palindrome.sol\":236:448  while (input != 0) {... */\n      jump(tag_9)\n    tag_10:\n        /* \"contracts/Learing/palindrome.sol\":125:454  {... */\n      pop\n      pop\n      pop\n        /* \"contracts/Learing/palindrome.sol\":82:454  function find(uint256 input) external pure {... */\n      pop\n      jump\t// out\n        /* \"#utility.yul\":88:205   */\n    tag_20:\n        /* \"#utility.yul\":197:198   */\n      0x00\n        /* \"#utility.yul\":194:195   */\n      dup1\n        /* \"#utility.yul\":187:199   */\n      revert\n        /* \"#utility.yul\":334:411   */\n    tag_22:\n        /* \"#utility.yul\":371:378   */\n      0x00\n        /* \"#utility.yul\":400:405   */\n      dup2\n        /* \"#utility.yul\":389:405   */\n      swap1\n      pop\n        /* \"#utility.yul\":334:411   */\n      swap2\n      swap1\n      pop\n      jump\t// out\n        /* \"#utility.yul\":417:539   */\n    tag_23:\n        /* \"#utility.yul\":490:514   */\n      tag_33\n        /* \"#utility.yul\":508:513   */\n      dup2\n        /* \"#utility.yul\":490:514   */\n      tag_22\n      jump\t// in\n    tag_33:\n        /* \"#utility.yul\":483:488   */\n      dup2\n        /* \"#utility.yul\":480:515   */\n      eq\n        /* \"#utility.yul\":470:533   */\n      tag_34\n      jumpi\n        /* \"#utility.yul\":529:530   */\n      0x00\n        /* \"#utility.yul\":526:527   */\n      dup1\n        /* \"#utility.yul\":519:531   */\n      revert\n        /* \"#utility.yul\":470:533   */\n    tag_34:\n        /* \"#utility.yul\":417:539   */\n      pop\n      jump\t// out\n        /* \"#utility.yul\":545:684   */\n    tag_24:\n        /* \"#utility.yul\":591:596   */\n      0x00\n        /* \"#utility.yul\":629:635   */\n      dup2\n        /* \"#utility.yul\":616:636   */\n      calldataload\n        /* \"#utility.yul\":607:636   */\n      swap1\n      pop\n        /* \"#utility.yul\":645:678   */\n      tag_36\n        /* \"#utility.yul\":672:677   */\n      dup2\n        /* \"#utility.yul\":645:678   */\n      tag_23\n      jump\t// in\n    tag_36:\n        /* \"#utility.yul\":545:684   */\n      swap3\n      swap2\n      pop\n      pop\n      jump\t// out\n        /* \"#utility.yul\":690:1019   */\n    tag_6:\n        /* \"#utility.yul\":749:755   */\n      0x00\n        /* \"#utility.yul\":798:800   */\n      0x20\n        /* \"#utility.yul\":786:795   */\n      dup3\n        /* \"#utility.yul\":777:784   */\n      dup5\n        /* \"#utility.yul\":773:796   */\n      sub\n        /* \"#utility.yul\":769:801   */\n      slt\n        /* \"#utility.yul\":766:885   */\n      iszero\n      tag_38\n      jumpi\n        /* \"#utility.yul\":804:883   */\n      tag_39\n      tag_20\n      jump\t// in\n    tag_39:\n        /* \"#utility.yul\":766:885   */\n    tag_38:\n        /* \"#utility.yul\":924:925   */\n      0x00\n        /* \"#utility.yul\":949:1002   */\n      tag_40\n        /* \"#utility.yul\":994:1001   */\n      dup5\n        /* \"#utility.yul\":985:991   */\n      dup3\n        /* \"#utility.yul\":974:983   */\n      dup6\n        /* \"#utility.yul\":970:992   */\n      add\n        /* \"#utility.yul\":949:1002   */\n      tag_24\n      jump\t// in\n    tag_40:\n        /* \"#utility.yul\":939:1002   */\n      swap2\n      pop\n        /* \"#utility.yul\":895:1012   */\n      pop\n        /* \"#utility.yul\":690:1019   */\n      swap3\n      swap2\n      pop\n      pop\n      jump\t// out\n        /* \"#utility.yul\":1025:1205   */\n    tag_25:\n        /* \"#utility.yul\":1073:1150   */\n      0x4e487b7100000000000000000000000000000000000000000000000000000000\n        /* \"#utility.yul\":1070:1071   */\n      0x00\n        /* \"#utility.yul\":1063:1151   */\n      mstore\n        /* \"#utility.yul\":1170:1174   */\n      0x12\n        /* \"#utility.yul\":1167:1168   */\n      0x04\n        /* \"#utility.yul\":1160:1175   */\n      mstore\n        /* \"#utility.yul\":1194:1198   */\n      0x24\n        /* \"#utility.yul\":1191:1192   */\n      0x00\n        /* \"#utility.yul\":1184:1199   */\n      revert\n        /* \"#utility.yul\":1211:1387   */\n    tag_12:\n        /* \"#utility.yul\":1243:1244   */\n      0x00\n        /* \"#utility.yul\":1260:1280   */\n      tag_43\n        /* \"#utility.yul\":1278:1279   */\n      dup3\n        /* \"#utility.yul\":1260:1280   */\n      tag_22\n      jump\t// in\n    tag_43:\n        /* \"#utility.yul\":1255:1280   */\n      swap2\n      pop\n        /* \"#utility.yul\":1294:1314   */\n      tag_44\n        /* \"#utility.yul\":1312:1313   */\n      dup4\n        /* \"#utility.yul\":1294:1314   */\n      tag_22\n      jump\t// in\n    tag_44:\n        /* \"#utility.yul\":1289:1314   */\n      swap3\n      pop\n        /* \"#utility.yul\":1333:1334   */\n      dup3\n        /* \"#utility.yul\":1323:1358   */\n      tag_45\n      jumpi\n        /* \"#utility.yul\":1338:1356   */\n      tag_46\n      tag_25\n      jump\t// in\n    tag_46:\n        /* \"#utility.yul\":1323:1358   */\n    tag_45:\n        /* \"#utility.yul\":1379:1380   */\n      dup3\n        /* \"#utility.yul\":1376:1377   */\n      dup3\n        /* \"#utility.yul\":1372:1381   */\n      mod\n        /* \"#utility.yul\":1367:1381   */\n      swap1\n      pop\n        /* \"#utility.yul\":1211:1387   */\n      swap3\n      swap2\n      pop\n      pop\n      jump\t// out\n        /* \"#utility.yul\":1393:1573   */\n    tag_26:\n        /* \"#utility.yul\":1441:1518   */\n      0x4e487b7100000000000000000000000000000000000000000000000000000000\n        /* \"#utility.yul\":1438:1439   */\n      0x00\n        /* \"#utility.yul\":1431:1519   */\n      mstore\n        /* \"#utility.yul\":1538:1542   */\n      0x11\n        /* \"#utility.yul\":1535:1536   */\n      0x04\n        /* \"#utility.yul\":1528:1543   */\n      mstore\n        /* \"#utility.yul\":1562:1566   */\n      0x24\n        /* \"#utility.yul\":1559:1560   */\n      0x00\n        /* \"#utility.yul\":1552:1567   */\n      revert\n        /* \"#utility.yul\":1579:1989   */\n    tag_14:\n        /* \"#utility.yul\":1619:1626   */\n      0x00\n        /* \"#utility.yul\":1642:1662   */\n      tag_49\n        /* \"#utility.yul\":1660:1661   */\n      dup3\n        /* \"#utility.yul\":1642:1662   */\n      tag_22\n      jump\t// in\n    tag_49:\n        /* \"#utility.yul\":1637:1662   */\n      swap2\n      pop\n        /* \"#utility.yul\":1676:1696   */\n      tag_50\n        /* \"#utility.yul\":1694:1695   */\n      dup4\n        /* \"#utility.yul\":1676:1696   */\n      tag_22\n      jump\t// in\n    tag_50:\n        /* \"#utility.yul\":1671:1696   */\n      swap3\n      pop\n        /* \"#utility.yul\":1731:1732   */\n      dup3\n        /* \"#utility.yul\":1728:1729   */\n      dup3\n        /* \"#utility.yul\":1724:1733   */\n      mul\n        /* \"#utility.yul\":1753:1783   */\n      tag_51\n        /* \"#utility.yul\":1771:1782   */\n      dup2\n        /* \"#utility.yul\":1753:1783   */\n      tag_22\n      jump\t// in\n    tag_51:\n        /* \"#utility.yul\":1742:1783   */\n      swap2\n      pop\n        /* \"#utility.yul\":1932:1933   */\n      dup3\n        /* \"#utility.yul\":1923:1930   */\n      dup3\n        /* \"#utility.yul\":1919:1934   */\n      div\n        /* \"#utility.yul\":1916:1917   */\n      dup5\n        /* \"#utility.yul\":1913:1935   */\n      eq\n        /* \"#utility.yul\":1893:1894   */\n      dup4\n        /* \"#utility.yul\":1886:1895   */\n      iszero\n        /* \"#utility.yul\":1866:1949   */\n      or\n        /* \"#utility.yul\":1843:1982   */\n      tag_52\n      jumpi\n        /* \"#utility.yul\":1962:1980   */\n      tag_53\n      tag_26\n      jump\t// in\n    tag_53:\n        /* \"#utility.yul\":1843:1982   */\n    tag_52:\n        /* \"#utility.yul\":1627:1989   */\n      pop\n        /* \"#utility.yul\":1579:1989   */\n      swap3\n      swap2\n      pop\n      pop\n      jump\t// out\n        /* \"#utility.yul\":1995:2186   */\n    tag_16:\n        /* \"#utility.yul\":2035:2038   */\n      0x00\n        /* \"#utility.yul\":2054:2074   */\n      tag_55\n        /* \"#utility.yul\":2072:2073   */\n      dup3\n        /* \"#utility.yul\":2054:2074   */\n      tag_22\n      jump\t// in\n    tag_55:\n        /* \"#utility.yul\":2049:2074   */\n      swap2\n      pop\n        /* \"#utility.yul\":2088:2108   */\n      tag_56\n        /* \"#utility.yul\":2106:2107   */\n      dup4\n        /* \"#utility.yul\":2088:2108   */\n      tag_22\n      jump\t// in\n    tag_56:\n        /* \"#utility.yul\":2083:2108   */\n      swap3\n      pop\n        /* \"#utility.yul\":2131:2132   */\n      dup3\n        /* \"#utility.yul\":2128:2129   */\n      dup3\n        /* \"#utility.yul\":2124:2133   */\n      add\n        /* \"#utility.yul\":2117:2133   */\n      swap1\n      pop\n        /* \"#utility.yul\":2152:2155   */\n      dup1\n        /* \"#utility.yul\":2149:2150   */\n      dup3\n        /* \"#utility.yul\":2146:2156   */\n      gt\n        /* \"#utility.yul\":2143:2179   */\n      iszero\n      tag_57\n      jumpi\n        /* \"#utility.yul\":2159:2177   */\n      tag_58\n      tag_26\n      jump\t// in\n    tag_58:\n        /* \"#utility.yul\":2143:2179   */\n    tag_57:\n        /* \"#utility.yul\":1995:2186   */\n      swap3\n      swap2\n      pop\n      pop\n      jump\t// out\n        /* \"#utility.yul\":2192:2377   */\n    tag_18:\n        /* \"#utility.yul\":2232:2233   */\n      0x00\n        /* \"#utility.yul\":2249:2269   */\n      tag_60\n        /* \"#utility.yul\":2267:2268   */\n      dup3\n        /* \"#utility.yul\":2249:2269   */\n      tag_22\n      jump\t// in\n    tag_60:\n        /* \"#utility.yul\":2244:2269   */\n      swap2\n      pop\n        /* \"#utility.yul\":2283:2303   */\n      tag_61\n        /* \"#utility.yul\":2301:2302   */\n      dup4\n        /* \"#utility.yul\":2283:2303   */\n      tag_22\n      jump\t// in\n    tag_61:\n        /* \"#utility.yul\":2278:2303   */\n      swap3\n      pop\n        /* \"#utility.yul\":2322:2323   */\n      dup3\n        /* \"#utility.yul\":2312:2347   */\n      tag_62\n      jumpi\n        /* \"#utility.yul\":2327:2345   */\n      tag_63\n      tag_25\n      jump\t// in\n    tag_63:\n        /* \"#utility.yul\":2312:2347   */\n    tag_62:\n        /* \"#utility.yul\":2369:2370   */\n      dup3\n        /* \"#utility.yul\":2366:2367   */\n      dup3\n        /* \"#utility.yul\":2362:2371   */\n      div\n        /* \"#utility.yul\":2357:2371   */\n      swap1\n      pop\n        /* \"#utility.yul\":2192:2377   */\n      swap3\n      swap2\n      pop\n      pop\n      jump\t// out\n\n    auxdata: 0xa26469706673582212209298745ec707a3d8c71242119fb12edcda81c489463c692fdb3dd99144ba2bea64736f6c63430008110033\n}\n",
				"bytecode": {
					"linkReferences": {},
					"object": "608060405234801561001057600080fd5b50610274806100206000396000f3fe608060405234801561001057600080fd5b506004361061002b5760003560e01c80633e530e5b14610030575b600080fd5b61004a600480360381019061004591906100db565b61004c565b005b60008060008390505b6000841461009a57600a8461006a9190610137565b915081600a8461007a9190610197565b61008491906101d9565b9250600a84610093919061020d565b9350610055565b50505050565b600080fd5b6000819050919050565b6100b8816100a5565b81146100c357600080fd5b50565b6000813590506100d5816100af565b92915050565b6000602082840312156100f1576100f06100a0565b5b60006100ff848285016100c6565b91505092915050565b7f4e487b7100000000000000000000000000000000000000000000000000000000600052601260045260246000fd5b6000610142826100a5565b915061014d836100a5565b92508261015d5761015c610108565b5b828206905092915050565b7f4e487b7100000000000000000000000000000000000000000000000000000000600052601160045260246000fd5b60006101a2826100a5565b91506101ad836100a5565b92508282026101bb816100a5565b915082820484148315176101d2576101d1610168565b5b5092915050565b60006101e4826100a5565b91506101ef836100a5565b925082820190508082111561020757610206610168565b5b92915050565b6000610218826100a5565b9150610223836100a5565b92508261023357610232610108565b5b82820490509291505056fea26469706673582212209298745ec707a3d8c71242119fb12edcda81c489463c692fdb3dd99144ba2bea64736f6c63430008110033",
					"opcodes": "PUSH1 0x80 PUSH1 0x40 MSTORE CALLVALUE DUP1 ISZERO PUSH2 0x10 JUMPI PUSH1 0x0 DUP1 REVERT JUMPDEST POP PUSH2 0x274 DUP1 PUSH2 0x20 PUSH1 0x0 CODECOPY PUSH1 0x0 RETURN INVALID PUSH1 0x80 PUSH1 0x40 MSTORE CALLVALUE DUP1 ISZERO PUSH2 0x10 JUMPI PUSH1 0x0 DUP1 REVERT JUMPDEST POP PUSH1 0x4 CALLDATASIZE LT PUSH2 0x2B JUMPI PUSH1 0x0 CALLDATALOAD PUSH1 0xE0 SHR DUP1 PUSH4 0x3E530E5B EQ PUSH2 0x30 JUMPI JUMPDEST PUSH1 0x0 DUP1 REVERT JUMPDEST PUSH2 0x4A PUSH1 0x4 DUP1 CALLDATASIZE SUB DUP2 ADD SWAP1 PUSH2 0x45 SWAP2 SWAP1 PUSH2 0xDB JUMP JUMPDEST PUSH2 0x4C JUMP JUMPDEST STOP JUMPDEST PUSH1 0x0 DUP1 PUSH1 0x0 DUP4 SWAP1 POP JUMPDEST PUSH1 0x0 DUP5 EQ PUSH2 0x9A JUMPI PUSH1 0xA DUP5 PUSH2 0x6A SWAP2 SWAP1 PUSH2 0x137 JUMP JUMPDEST SWAP2 POP DUP2 PUSH1 0xA DUP5 PUSH2 0x7A SWAP2 SWAP1 PUSH2 0x197 JUMP JUMPDEST PUSH2 0x84 SWAP2 SWAP1 PUSH2 0x1D9 JUMP JUMPDEST SWAP3 POP PUSH1 0xA DUP5 PUSH2 0x93 SWAP2 SWAP1 PUSH2 0x20D JUMP JUMPDEST SWAP4 POP PUSH2 0x55 JUMP JUMPDEST POP POP POP POP JUMP JUMPDEST PUSH1 0x0 DUP1 REVERT JUMPDEST PUSH1 0x0 DUP2 SWAP1 POP SWAP2 SWAP1 POP JUMP JUMPDEST PUSH2 0xB8 DUP2 PUSH2 0xA5 JUMP JUMPDEST DUP2 EQ PUSH2 0xC3 JUMPI PUSH1 0x0 DUP1 REVERT JUMPDEST POP JUMP JUMPDEST PUSH1 0x0 DUP2 CALLDATALOAD SWAP1 POP PUSH2 0xD5 DUP2 PUSH2 0xAF JUMP JUMPDEST SWAP3 SWAP2 POP POP JUMP JUMPDEST PUSH1 0x0 PUSH1 0x20 DUP3 DUP5 SUB SLT ISZERO PUSH2 0xF1 JUMPI PUSH2 0xF0 PUSH2 0xA0 JUMP JUMPDEST JUMPDEST PUSH1 0x0 PUSH2 0xFF DUP5 DUP3 DUP6 ADD PUSH2 0xC6 JUMP JUMPDEST SWAP2 POP POP SWAP3 SWAP2 POP POP JUMP JUMPDEST PUSH32 0x4E487B7100000000000000000000000000000000000000000000000000000000 PUSH1 0x0 MSTORE PUSH1 0x12 PUSH1 0x4 MSTORE PUSH1 0x24 PUSH1 0x0 REVERT JUMPDEST PUSH1 0x0 PUSH2 0x142 DUP3 PUSH2 0xA5 JUMP JUMPDEST SWAP2 POP PUSH2 0x14D DUP4 PUSH2 0xA5 JUMP JUMPDEST SWAP3 POP DUP3 PUSH2 0x15D JUMPI PUSH2 0x15C PUSH2 0x108 JUMP JUMPDEST JUMPDEST DUP3 DUP3 MOD SWAP1 POP SWAP3 SWAP2 POP POP JUMP JUMPDEST PUSH32 0x4E487B7100000000000000000000000000000000000000000000000000000000 PUSH1 0x0 MSTORE PUSH1 0x11 PUSH1 0x4 MSTORE PUSH1 0x24 PUSH1 0x0 REVERT JUMPDEST PUSH1 0x0 PUSH2 0x1A2 DUP3 PUSH2 0xA5 JUMP JUMPDEST SWAP2 POP PUSH2 0x1AD DUP4 PUSH2 0xA5 JUMP JUMPDEST SWAP3 POP DUP3 DUP3 MUL PUSH2 0x1BB DUP2 PUSH2 0xA5 JUMP JUMPDEST SWAP2 POP DUP3 DUP3 DIV DUP5 EQ DUP4 ISZERO OR PUSH2 0x1D2 JUMPI PUSH2 0x1D1 PUSH2 0x168 JUMP JUMPDEST JUMPDEST POP SWAP3 SWAP2 POP POP JUMP JUMPDEST PUSH1 0x0 PUSH2 0x1E4 DUP3 PUSH2 0xA5 JUMP JUMPDEST SWAP2 POP PUSH2 0x1EF DUP4 PUSH2 0xA5 JUMP JUMPDEST SWAP3 POP DUP3 DUP3 ADD SWAP1 POP DUP1 DUP3 GT ISZERO PUSH2 0x207 JUMPI PUSH2 0x206 PUSH2 0x168 JUMP JUMPDEST JUMPDEST SWAP3 SWAP2 POP POP JUMP JUMPDEST PUSH1 0x0 PUSH2 0x218 DUP3 PUSH2 0xA5 JUMP JUMPDEST SWAP2 POP PUSH2 0x223 DUP4 PUSH2 0xA5 JUMP JUMPDEST SWAP3 POP DUP3 PUSH2 0x233 JUMPI PUSH2 0x232 PUSH2 0x108 JUMP JUMPDEST JUMPDEST DUP3 DUP3 DIV SWAP1 POP SWAP3 SWAP2 POP POP JUMP INVALID LOG2 PUSH5 0x6970667358 0x22 SLT KECCAK256 SWAP3 SWAP9 PUSH21 0x5EC707A3D8C71242119FB12EDCDA81C489463C692F 0xDB RETURNDATASIZE 0xD9 SWAP2 DIFFICULTY 0xBA 0x2B 0xEA PUSH5 0x736F6C6343 STOP ADDMOD GT STOP CALLER "
				},
				"gasEstimates": {
					"creation": {
						"codeDepositCost": "125600",
						"executionCost": "171",
						"totalCost": "125771"
					},
					"external": {
						"find(uint256)": "infinite"
					}
				},
				"methodIdentifiers": {
					"find(uint256)": "3e530e5b"
				}
			},
			"storageLayout": {
				"storage": [],
				"types": null
			},
			"userdoc": {
				"kind": "user",
				"methods": {},
				"version": 1
			}
		}
	}
}