{
	"data": {
		"bytecode": {
			"linkReferences": {},
			"object": "60806040526001600055600260015534801561001a57600080fd5b50610bb38061002a6000396000f3fe608060405234801561001057600080fd5b50600436106100a95760003560e01c80638119c065116100715780638119c0651461017a578063837148341461018457806392cc2841146101b4578063d9ea8e64146101e4578063f492c00014610214578063f4bf03c714610244576100a9565b80630dbe671f146100ae5780631997c350146100cc57806346439726146100fc5780634df7e3d01461012c5780634f4752ba1461014a575b600080fd5b6100b6610274565b6040516100c3919061040e565b60405180910390f35b6100e660048036038101906100e19190610583565b61027a565b6040516100f3919061064b565b60405180910390f35b61011660048036038101906101119190610699565b610290565b60405161012391906106df565b60405180910390f35b6101346102b8565b604051610141919061040e565b60405180910390f35b610164600480360381019061015f9190610726565b6102be565b60405161017191906106df565b60405180910390f35b6101826102d4565b005b61019e60048036038101906101999190610766565b6102ef565b6040516101ab91906106df565b60405180910390f35b6101ce60048036038101906101c99190610793565b61032f565b6040516101db91906106df565b60405180910390f35b6101fe60048036038101906101f991906107e6565b61035d565b60405161020b919061040e565b60405180910390f35b61022e60048036038101906102299190610699565b61038a565b60405161023b919061040e565b60405180910390f35b61025e60048036038101906102599190610766565b6103d5565b60405161026b91906106df565b60405180910390f35b60005481565b6060600082905060008190508092505050919050565b6000806002836102a09190610868565b036102ae57600190506102b3565b600090505b919050565b60015481565b600081836102cc91906109fb565b905092915050565b60015460005460008060016000849190505583919050555050565b600080600190506000600190505b8381116103255780826103109190610a46565b9150808061031d90610a88565b9150506102fd565b5080915050919050565b600060038284866103409190610ad0565b61034a9190610ad0565b6103549190610b04565b90509392505050565b60008083851361036d578361036f565b845b905082811361037e5782610380565b805b9150509392505050565b600080600290505b828112156103ca57600081846103a89190610868565b036103b75760009150506103d0565b80806103c290610b35565b915050610392565b50600190505b919050565b60008182836103e49190610a46565b6103ee9190610a46565b9050919050565b6000819050919050565b610408816103f5565b82525050565b600060208201905061042360008301846103ff565b92915050565b6000604051905090565b600080fd5b600080fd5b600080fd5b600080fd5b6000601f19601f8301169050919050565b7f4e487b7100000000000000000000000000000000000000000000000000000000600052604160045260246000fd5b61049082610447565b810181811067ffffffffffffffff821117156104af576104ae610458565b5b80604052505050565b60006104c2610429565b90506104ce8282610487565b919050565b600067ffffffffffffffff8211156104ee576104ed610458565b5b6104f782610447565b9050602081019050919050565b82818337600083830152505050565b6000610526610521846104d3565b6104b8565b90508281526020810184848401111561054257610541610442565b5b61054d848285610504565b509392505050565b600082601f83011261056a5761056961043d565b5b813561057a848260208601610513565b91505092915050565b60006020828403121561059957610598610433565b5b600082013567ffffffffffffffff8111156105b7576105b6610438565b5b6105c384828501610555565b91505092915050565b600081519050919050565b600082825260208201905092915050565b60005b838110156106065780820151818401526020810190506105eb565b60008484015250505050565b600061061d826105cc565b61062781856105d7565b93506106378185602086016105e8565b61064081610447565b840191505092915050565b600060208201905081810360008301526106658184610612565b905092915050565b610676816103f5565b811461068157600080fd5b50565b6000813590506106938161066d565b92915050565b6000602082840312156106af576106ae610433565b5b60006106bd84828501610684565b91505092915050565b6000819050919050565b6106d9816106c6565b82525050565b60006020820190506106f460008301846106d0565b92915050565b610703816106c6565b811461070e57600080fd5b50565b600081359050610720816106fa565b92915050565b6000806040838503121561073d5761073c610433565b5b600061074b85828601610711565b925050602061075c85828601610711565b9150509250929050565b60006020828403121561077c5761077b610433565b5b600061078a84828501610711565b91505092915050565b6000806000606084860312156107ac576107ab610433565b5b60006107ba86828701610711565b93505060206107cb86828701610711565b92505060406107dc86828701610711565b9150509250925092565b6000806000606084860312156107ff576107fe610433565b5b600061080d86828701610684565b935050602061081e86828701610684565b925050604061082f86828701610684565b9150509250925092565b7f4e487b7100000000000000000000000000000000000000000000000000000000600052601260045260246000fd5b6000610873826103f5565b915061087e836103f5565b92508261088e5761088d610839565b5b828207905092915050565b7f4e487b7100000000000000000000000000000000000000000000000000000000600052601160045260246000fd5b60008160011c9050919050565b6000808291508390505b600185111561091f578086048111156108fb576108fa610899565b5b600185161561090a5780820291505b8081029050610918856108c8565b94506108df565b94509492505050565b60008261093857600190506109f4565b8161094657600090506109f4565b816001811461095c576002811461096657610995565b60019150506109f4565b60ff84111561097857610977610899565b5b8360020a91508482111561098f5761098e610899565b5b506109f4565b5060208310610133831016604e8410600b84101617156109ca5782820a9050838111156109c5576109c4610899565b5b6109f4565b6109d784848460016108d5565b925090508184048111156109ee576109ed610899565b5b81810290505b9392505050565b6000610a06826106c6565b9150610a11836106c6565b9250610a3e7fffffffffffffffffffffffffffffffffffffffffffffffffffffffffffffffff8484610928565b905092915050565b6000610a51826106c6565b9150610a5c836106c6565b9250828202610a6a816106c6565b91508282048414831517610a8157610a80610899565b5b5092915050565b6000610a93826106c6565b91507fffffffffffffffffffffffffffffffffffffffffffffffffffffffffffffffff8203610ac557610ac4610899565b5b600182019050919050565b6000610adb826106c6565b9150610ae6836106c6565b9250828201905080821115610afe57610afd610899565b5b92915050565b6000610b0f826106c6565b9150610b1a836106c6565b925082610b2a57610b29610839565b5b828204905092915050565b6000610b40826103f5565b91507f7fffffffffffffffffffffffffffffffffffffffffffffffffffffffffffffff8203610b7257610b71610899565b5b60018201905091905056fea26469706673582212205a8ceaf9cba3994dc4720ac2c3248a180c105c539befcc6f10fffeba69dc4c1864736f6c63430008110033",
			"opcodes": "PUSH1 0x80 PUSH1 0x40 MSTORE PUSH1 0x1 PUSH1 0x0 SSTORE PUSH1 0x2 PUSH1 0x1 SSTORE CALLVALUE DUP1 ISZERO PUSH2 0x1A JUMPI PUSH1 0x0 DUP1 REVERT JUMPDEST POP PUSH2 0xBB3 DUP1 PUSH2 0x2A PUSH1 0x0 CODECOPY PUSH1 0x0 RETURN INVALID PUSH1 0x80 PUSH1 0x40 MSTORE CALLVALUE DUP1 ISZERO PUSH2 0x10 JUMPI PUSH1 0x0 DUP1 REVERT JUMPDEST POP PUSH1 0x4 CALLDATASIZE LT PUSH2 0xA9 JUMPI PUSH1 0x0 CALLDATALOAD PUSH1 0xE0 SHR DUP1 PUSH4 0x8119C065 GT PUSH2 0x71 JUMPI DUP1 PUSH4 0x8119C065 EQ PUSH2 0x17A JUMPI DUP1 PUSH4 0x83714834 EQ PUSH2 0x184 JUMPI DUP1 PUSH4 0x92CC2841 EQ PUSH2 0x1B4 JUMPI DUP1 PUSH4 0xD9EA8E64 EQ PUSH2 0x1E4 JUMPI DUP1 PUSH4 0xF492C000 EQ PUSH2 0x214 JUMPI DUP1 PUSH4 0xF4BF03C7 EQ PUSH2 0x244 JUMPI PUSH2 0xA9 JUMP JUMPDEST DUP1 PUSH4 0xDBE671F EQ PUSH2 0xAE JUMPI DUP1 PUSH4 0x1997C350 EQ PUSH2 0xCC JUMPI DUP1 PUSH4 0x46439726 EQ PUSH2 0xFC JUMPI DUP1 PUSH4 0x4DF7E3D0 EQ PUSH2 0x12C JUMPI DUP1 PUSH4 0x4F4752BA EQ PUSH2 0x14A JUMPI JUMPDEST PUSH1 0x0 DUP1 REVERT JUMPDEST PUSH2 0xB6 PUSH2 0x274 JUMP JUMPDEST PUSH1 0x40 MLOAD PUSH2 0xC3 SWAP2 SWAP1 PUSH2 0x40E JUMP JUMPDEST PUSH1 0x40 MLOAD DUP1 SWAP2 SUB SWAP1 RETURN JUMPDEST PUSH2 0xE6 PUSH1 0x4 DUP1 CALLDATASIZE SUB DUP2 ADD SWAP1 PUSH2 0xE1 SWAP2 SWAP1 PUSH2 0x583 JUMP JUMPDEST PUSH2 0x27A JUMP JUMPDEST PUSH1 0x40 MLOAD PUSH2 0xF3 SWAP2 SWAP1 PUSH2 0x64B JUMP JUMPDEST PUSH1 0x40 MLOAD DUP1 SWAP2 SUB SWAP1 RETURN JUMPDEST PUSH2 0x116 PUSH1 0x4 DUP1 CALLDATASIZE SUB DUP2 ADD SWAP1 PUSH2 0x111 SWAP2 SWAP1 PUSH2 0x699 JUMP JUMPDEST PUSH2 0x290 JUMP JUMPDEST PUSH1 0x40 MLOAD PUSH2 0x123 SWAP2 SWAP1 PUSH2 0x6DF JUMP JUMPDEST PUSH1 0x40 MLOAD DUP1 SWAP2 SUB SWAP1 RETURN JUMPDEST PUSH2 0x134 PUSH2 0x2B8 JUMP JUMPDEST PUSH1 0x40 MLOAD PUSH2 0x141 SWAP2 SWAP1 PUSH2 0x40E JUMP JUMPDEST PUSH1 0x40 MLOAD DUP1 SWAP2 SUB SWAP1 RETURN JUMPDEST PUSH2 0x164 PUSH1 0x4 DUP1 CALLDATASIZE SUB DUP2 ADD SWAP1 PUSH2 0x15F SWAP2 SWAP1 PUSH2 0x726 JUMP JUMPDEST PUSH2 0x2BE JUMP JUMPDEST PUSH1 0x40 MLOAD PUSH2 0x171 SWAP2 SWAP1 PUSH2 0x6DF JUMP JUMPDEST PUSH1 0x40 MLOAD DUP1 SWAP2 SUB SWAP1 RETURN JUMPDEST PUSH2 0x182 PUSH2 0x2D4 JUMP JUMPDEST STOP JUMPDEST PUSH2 0x19E PUSH1 0x4 DUP1 CALLDATASIZE SUB DUP2 ADD SWAP1 PUSH2 0x199 SWAP2 SWAP1 PUSH2 0x766 JUMP JUMPDEST PUSH2 0x2EF JUMP JUMPDEST PUSH1 0x40 MLOAD PUSH2 0x1AB SWAP2 SWAP1 PUSH2 0x6DF JUMP JUMPDEST PUSH1 0x40 MLOAD DUP1 SWAP2 SUB SWAP1 RETURN JUMPDEST PUSH2 0x1CE PUSH1 0x4 DUP1 CALLDATASIZE SUB DUP2 ADD SWAP1 PUSH2 0x1C9 SWAP2 SWAP1 PUSH2 0x793 JUMP JUMPDEST PUSH2 0x32F JUMP JUMPDEST PUSH1 0x40 MLOAD PUSH2 0x1DB SWAP2 SWAP1 PUSH2 0x6DF JUMP JUMPDEST PUSH1 0x40 MLOAD DUP1 SWAP2 SUB SWAP1 RETURN JUMPDEST PUSH2 0x1FE PUSH1 0x4 DUP1 CALLDATASIZE SUB DUP2 ADD SWAP1 PUSH2 0x1F9 SWAP2 SWAP1 PUSH2 0x7E6 JUMP JUMPDEST PUSH2 0x35D JUMP JUMPDEST PUSH1 0x40 MLOAD PUSH2 0x20B SWAP2 SWAP1 PUSH2 0x40E JUMP JUMPDEST PUSH1 0x40 MLOAD DUP1 SWAP2 SUB SWAP1 RETURN JUMPDEST PUSH2 0x22E PUSH1 0x4 DUP1 CALLDATASIZE SUB DUP2 ADD SWAP1 PUSH2 0x229 SWAP2 SWAP1 PUSH2 0x699 JUMP JUMPDEST PUSH2 0x38A JUMP JUMPDEST PUSH1 0x40 MLOAD PUSH2 0x23B SWAP2 SWAP1 PUSH2 0x40E JUMP JUMPDEST PUSH1 0x40 MLOAD DUP1 SWAP2 SUB SWAP1 RETURN JUMPDEST PUSH2 0x25E PUSH1 0x4 DUP1 CALLDATASIZE SUB DUP2 ADD SWAP1 PUSH2 0x259 SWAP2 SWAP1 PUSH2 0x766 JUMP JUMPDEST PUSH2 0x3D5 JUMP JUMPDEST PUSH1 0x40 MLOAD PUSH2 0x26B SWAP2 SWAP1 PUSH2 0x6DF JUMP JUMPDEST PUSH1 0x40 MLOAD DUP1 SWAP2 SUB SWAP1 RETURN JUMPDEST PUSH1 0x0 SLOAD DUP2 JUMP JUMPDEST PUSH1 0x60 PUSH1 0x0 DUP3 SWAP1 POP PUSH1 0x0 DUP2 SWAP1 POP DUP1 SWAP3 POP POP POP SWAP2 SWAP1 POP JUMP JUMPDEST PUSH1 0x0 DUP1 PUSH1 0x2 DUP4 PUSH2 0x2A0 SWAP2 SWAP1 PUSH2 0x868 JUMP JUMPDEST SUB PUSH2 0x2AE JUMPI PUSH1 0x1 SWAP1 POP PUSH2 0x2B3 JUMP JUMPDEST PUSH1 0x0 SWAP1 POP JUMPDEST SWAP2 SWAP1 POP JUMP JUMPDEST PUSH1 0x1 SLOAD DUP2 JUMP JUMPDEST PUSH1 0x0 DUP2 DUP4 PUSH2 0x2CC SWAP2 SWAP1 PUSH2 0x9FB JUMP JUMPDEST SWAP1 POP SWAP3 SWAP2 POP POP JUMP JUMPDEST PUSH1 0x1 SLOAD PUSH1 0x0 SLOAD PUSH1 0x0 DUP1 PUSH1 0x1 PUSH1 0x0 DUP5 SWAP2 SWAP1 POP SSTORE DUP4 SWAP2 SWAP1 POP SSTORE POP POP JUMP JUMPDEST PUSH1 0x0 DUP1 PUSH1 0x1 SWAP1 POP PUSH1 0x0 PUSH1 0x1 SWAP1 POP JUMPDEST DUP4 DUP2 GT PUSH2 0x325 JUMPI DUP1 DUP3 PUSH2 0x310 SWAP2 SWAP1 PUSH2 0xA46 JUMP JUMPDEST SWAP2 POP DUP1 DUP1 PUSH2 0x31D SWAP1 PUSH2 0xA88 JUMP JUMPDEST SWAP2 POP POP PUSH2 0x2FD JUMP JUMPDEST POP DUP1 SWAP2 POP POP SWAP2 SWAP1 POP JUMP JUMPDEST PUSH1 0x0 PUSH1 0x3 DUP3 DUP5 DUP7 PUSH2 0x340 SWAP2 SWAP1 PUSH2 0xAD0 JUMP JUMPDEST PUSH2 0x34A SWAP2 SWAP1 PUSH2 0xAD0 JUMP JUMPDEST PUSH2 0x354 SWAP2 SWAP1 PUSH2 0xB04 JUMP JUMPDEST SWAP1 POP SWAP4 SWAP3 POP POP POP JUMP JUMPDEST PUSH1 0x0 DUP1 DUP4 DUP6 SGT PUSH2 0x36D JUMPI DUP4 PUSH2 0x36F JUMP JUMPDEST DUP5 JUMPDEST SWAP1 POP DUP3 DUP2 SGT PUSH2 0x37E JUMPI DUP3 PUSH2 0x380 JUMP JUMPDEST DUP1 JUMPDEST SWAP2 POP POP SWAP4 SWAP3 POP POP POP JUMP JUMPDEST PUSH1 0x0 DUP1 PUSH1 0x2 SWAP1 POP JUMPDEST DUP3 DUP2 SLT ISZERO PUSH2 0x3CA JUMPI PUSH1 0x0 DUP2 DUP5 PUSH2 0x3A8 SWAP2 SWAP1 PUSH2 0x868 JUMP JUMPDEST SUB PUSH2 0x3B7 JUMPI PUSH1 0x0 SWAP2 POP POP PUSH2 0x3D0 JUMP JUMPDEST DUP1 DUP1 PUSH2 0x3C2 SWAP1 PUSH2 0xB35 JUMP JUMPDEST SWAP2 POP POP PUSH2 0x392 JUMP JUMPDEST POP PUSH1 0x1 SWAP1 POP JUMPDEST SWAP2 SWAP1 POP JUMP JUMPDEST PUSH1 0x0 DUP2 DUP3 DUP4 PUSH2 0x3E4 SWAP2 SWAP1 PUSH2 0xA46 JUMP JUMPDEST PUSH2 0x3EE SWAP2 SWAP1 PUSH2 0xA46 JUMP JUMPDEST SWAP1 POP SWAP2 SWAP1 POP JUMP JUMPDEST PUSH1 0x0 DUP2 SWAP1 POP SWAP2 SWAP1 POP JUMP JUMPDEST PUSH2 0x408 DUP2 PUSH2 0x3F5 JUMP JUMPDEST DUP3 MSTORE POP POP JUMP JUMPDEST PUSH1 0x0 PUSH1 0x20 DUP3 ADD SWAP1 POP PUSH2 0x423 PUSH1 0x0 DUP4 ADD DUP5 PUSH2 0x3FF JUMP JUMPDEST SWAP3 SWAP2 POP POP JUMP JUMPDEST PUSH1 0x0 PUSH1 0x40 MLOAD SWAP1 POP SWAP1 JUMP JUMPDEST PUSH1 0x0 DUP1 REVERT JUMPDEST PUSH1 0x0 DUP1 REVERT JUMPDEST PUSH1 0x0 DUP1 REVERT JUMPDEST PUSH1 0x0 DUP1 REVERT JUMPDEST PUSH1 0x0 PUSH1 0x1F NOT PUSH1 0x1F DUP4 ADD AND SWAP1 POP SWAP2 SWAP1 POP JUMP JUMPDEST PUSH32 0x4E487B7100000000000000000000000000000000000000000000000000000000 PUSH1 0x0 MSTORE PUSH1 0x41 PUSH1 0x4 MSTORE PUSH1 0x24 PUSH1 0x0 REVERT JUMPDEST PUSH2 0x490 DUP3 PUSH2 0x447 JUMP JUMPDEST DUP2 ADD DUP2 DUP2 LT PUSH8 0xFFFFFFFFFFFFFFFF DUP3 GT OR ISZERO PUSH2 0x4AF JUMPI PUSH2 0x4AE PUSH2 0x458 JUMP JUMPDEST JUMPDEST DUP1 PUSH1 0x40 MSTORE POP POP POP JUMP JUMPDEST PUSH1 0x0 PUSH2 0x4C2 PUSH2 0x429 JUMP JUMPDEST SWAP1 POP PUSH2 0x4CE DUP3 DUP3 PUSH2 0x487 JUMP JUMPDEST SWAP2 SWAP1 POP JUMP JUMPDEST PUSH1 0x0 PUSH8 0xFFFFFFFFFFFFFFFF DUP3 GT ISZERO PUSH2 0x4EE JUMPI PUSH2 0x4ED PUSH2 0x458 JUMP JUMPDEST JUMPDEST PUSH2 0x4F7 DUP3 PUSH2 0x447 JUMP JUMPDEST SWAP1 POP PUSH1 0x20 DUP2 ADD SWAP1 POP SWAP2 SWAP1 POP JUMP JUMPDEST DUP3 DUP2 DUP4 CALLDATACOPY PUSH1 0x0 DUP4 DUP4 ADD MSTORE POP POP POP JUMP JUMPDEST PUSH1 0x0 PUSH2 0x526 PUSH2 0x521 DUP5 PUSH2 0x4D3 JUMP JUMPDEST PUSH2 0x4B8 JUMP JUMPDEST SWAP1 POP DUP3 DUP2 MSTORE PUSH1 0x20 DUP2 ADD DUP5 DUP5 DUP5 ADD GT ISZERO PUSH2 0x542 JUMPI PUSH2 0x541 PUSH2 0x442 JUMP JUMPDEST JUMPDEST PUSH2 0x54D DUP5 DUP3 DUP6 PUSH2 0x504 JUMP JUMPDEST POP SWAP4 SWAP3 POP POP POP JUMP JUMPDEST PUSH1 0x0 DUP3 PUSH1 0x1F DUP4 ADD SLT PUSH2 0x56A JUMPI PUSH2 0x569 PUSH2 0x43D JUMP JUMPDEST JUMPDEST DUP2 CALLDATALOAD PUSH2 0x57A DUP5 DUP3 PUSH1 0x20 DUP7 ADD PUSH2 0x513 JUMP JUMPDEST SWAP2 POP POP SWAP3 SWAP2 POP POP JUMP JUMPDEST PUSH1 0x0 PUSH1 0x20 DUP3 DUP5 SUB SLT ISZERO PUSH2 0x599 JUMPI PUSH2 0x598 PUSH2 0x433 JUMP JUMPDEST JUMPDEST PUSH1 0x0 DUP3 ADD CALLDATALOAD PUSH8 0xFFFFFFFFFFFFFFFF DUP2 GT ISZERO PUSH2 0x5B7 JUMPI PUSH2 0x5B6 PUSH2 0x438 JUMP JUMPDEST JUMPDEST PUSH2 0x5C3 DUP5 DUP3 DUP6 ADD PUSH2 0x555 JUMP JUMPDEST SWAP2 POP POP SWAP3 SWAP2 POP POP JUMP JUMPDEST PUSH1 0x0 DUP2 MLOAD SWAP1 POP SWAP2 SWAP1 POP JUMP JUMPDEST PUSH1 0x0 DUP3 DUP3 MSTORE PUSH1 0x20 DUP3 ADD SWAP1 POP SWAP3 SWAP2 POP POP JUMP JUMPDEST PUSH1 0x0 JUMPDEST DUP4 DUP2 LT ISZERO PUSH2 0x606 JUMPI DUP1 DUP3 ADD MLOAD DUP2 DUP5 ADD MSTORE PUSH1 0x20 DUP2 ADD SWAP1 POP PUSH2 0x5EB JUMP JUMPDEST PUSH1 0x0 DUP5 DUP5 ADD MSTORE POP POP POP POP JUMP JUMPDEST PUSH1 0x0 PUSH2 0x61D DUP3 PUSH2 0x5CC JUMP JUMPDEST PUSH2 0x627 DUP2 DUP6 PUSH2 0x5D7 JUMP JUMPDEST SWAP4 POP PUSH2 0x637 DUP2 DUP6 PUSH1 0x20 DUP7 ADD PUSH2 0x5E8 JUMP JUMPDEST PUSH2 0x640 DUP2 PUSH2 0x447 JUMP JUMPDEST DUP5 ADD SWAP2 POP POP SWAP3 SWAP2 POP POP JUMP JUMPDEST PUSH1 0x0 PUSH1 0x20 DUP3 ADD SWAP1 POP DUP2 DUP2 SUB PUSH1 0x0 DUP4 ADD MSTORE PUSH2 0x665 DUP2 DUP5 PUSH2 0x612 JUMP JUMPDEST SWAP1 POP SWAP3 SWAP2 POP POP JUMP JUMPDEST PUSH2 0x676 DUP2 PUSH2 0x3F5 JUMP JUMPDEST DUP2 EQ PUSH2 0x681 JUMPI PUSH1 0x0 DUP1 REVERT JUMPDEST POP JUMP JUMPDEST PUSH1 0x0 DUP2 CALLDATALOAD SWAP1 POP PUSH2 0x693 DUP2 PUSH2 0x66D JUMP JUMPDEST SWAP3 SWAP2 POP POP JUMP JUMPDEST PUSH1 0x0 PUSH1 0x20 DUP3 DUP5 SUB SLT ISZERO PUSH2 0x6AF JUMPI PUSH2 0x6AE PUSH2 0x433 JUMP JUMPDEST JUMPDEST PUSH1 0x0 PUSH2 0x6BD DUP5 DUP3 DUP6 ADD PUSH2 0x684 JUMP JUMPDEST SWAP2 POP POP SWAP3 SWAP2 POP POP JUMP JUMPDEST PUSH1 0x0 DUP2 SWAP1 POP SWAP2 SWAP1 POP JUMP JUMPDEST PUSH2 0x6D9 DUP2 PUSH2 0x6C6 JUMP JUMPDEST DUP3 MSTORE POP POP JUMP JUMPDEST PUSH1 0x0 PUSH1 0x20 DUP3 ADD SWAP1 POP PUSH2 0x6F4 PUSH1 0x0 DUP4 ADD DUP5 PUSH2 0x6D0 JUMP JUMPDEST SWAP3 SWAP2 POP POP JUMP JUMPDEST PUSH2 0x703 DUP2 PUSH2 0x6C6 JUMP JUMPDEST DUP2 EQ PUSH2 0x70E JUMPI PUSH1 0x0 DUP1 REVERT JUMPDEST POP JUMP JUMPDEST PUSH1 0x0 DUP2 CALLDATALOAD SWAP1 POP PUSH2 0x720 DUP2 PUSH2 0x6FA JUMP JUMPDEST SWAP3 SWAP2 POP POP JUMP JUMPDEST PUSH1 0x0 DUP1 PUSH1 0x40 DUP4 DUP6 SUB SLT ISZERO PUSH2 0x73D JUMPI PUSH2 0x73C PUSH2 0x433 JUMP JUMPDEST JUMPDEST PUSH1 0x0 PUSH2 0x74B DUP6 DUP3 DUP7 ADD PUSH2 0x711 JUMP JUMPDEST SWAP3 POP POP PUSH1 0x20 PUSH2 0x75C DUP6 DUP3 DUP7 ADD PUSH2 0x711 JUMP JUMPDEST SWAP2 POP POP SWAP3 POP SWAP3 SWAP1 POP JUMP JUMPDEST PUSH1 0x0 PUSH1 0x20 DUP3 DUP5 SUB SLT ISZERO PUSH2 0x77C JUMPI PUSH2 0x77B PUSH2 0x433 JUMP JUMPDEST JUMPDEST PUSH1 0x0 PUSH2 0x78A DUP5 DUP3 DUP6 ADD PUSH2 0x711 JUMP JUMPDEST SWAP2 POP POP SWAP3 SWAP2 POP POP JUMP JUMPDEST PUSH1 0x0 DUP1 PUSH1 0x0 PUSH1 0x60 DUP5 DUP7 SUB SLT ISZERO PUSH2 0x7AC JUMPI PUSH2 0x7AB PUSH2 0x433 JUMP JUMPDEST JUMPDEST PUSH1 0x0 PUSH2 0x7BA DUP7 DUP3 DUP8 ADD PUSH2 0x711 JUMP JUMPDEST SWAP4 POP POP PUSH1 0x20 PUSH2 0x7CB DUP7 DUP3 DUP8 ADD PUSH2 0x711 JUMP JUMPDEST SWAP3 POP POP PUSH1 0x40 PUSH2 0x7DC DUP7 DUP3 DUP8 ADD PUSH2 0x711 JUMP JUMPDEST SWAP2 POP POP SWAP3 POP SWAP3 POP SWAP3 JUMP JUMPDEST PUSH1 0x0 DUP1 PUSH1 0x0 PUSH1 0x60 DUP5 DUP7 SUB SLT ISZERO PUSH2 0x7FF JUMPI PUSH2 0x7FE PUSH2 0x433 JUMP JUMPDEST JUMPDEST PUSH1 0x0 PUSH2 0x80D DUP7 DUP3 DUP8 ADD PUSH2 0x684 JUMP JUMPDEST SWAP4 POP POP PUSH1 0x20 PUSH2 0x81E DUP7 DUP3 DUP8 ADD PUSH2 0x684 JUMP JUMPDEST SWAP3 POP POP PUSH1 0x40 PUSH2 0x82F DUP7 DUP3 DUP8 ADD PUSH2 0x684 JUMP JUMPDEST SWAP2 POP POP SWAP3 POP SWAP3 POP SWAP3 JUMP JUMPDEST PUSH32 0x4E487B7100000000000000000000000000000000000000000000000000000000 PUSH1 0x0 MSTORE PUSH1 0x12 PUSH1 0x4 MSTORE PUSH1 0x24 PUSH1 0x0 REVERT JUMPDEST PUSH1 0x0 PUSH2 0x873 DUP3 PUSH2 0x3F5 JUMP JUMPDEST SWAP2 POP PUSH2 0x87E DUP4 PUSH2 0x3F5 JUMP JUMPDEST SWAP3 POP DUP3 PUSH2 0x88E JUMPI PUSH2 0x88D PUSH2 0x839 JUMP JUMPDEST JUMPDEST DUP3 DUP3 SMOD SWAP1 POP SWAP3 SWAP2 POP POP JUMP JUMPDEST PUSH32 0x4E487B7100000000000000000000000000000000000000000000000000000000 PUSH1 0x0 MSTORE PUSH1 0x11 PUSH1 0x4 MSTORE PUSH1 0x24 PUSH1 0x0 REVERT JUMPDEST PUSH1 0x0 DUP2 PUSH1 0x1 SHR SWAP1 POP SWAP2 SWAP1 POP JUMP JUMPDEST PUSH1 0x0 DUP1 DUP3 SWAP2 POP DUP4 SWAP1 POP JUMPDEST PUSH1 0x1 DUP6 GT ISZERO PUSH2 0x91F JUMPI DUP1 DUP7 DIV DUP2 GT ISZERO PUSH2 0x8FB JUMPI PUSH2 0x8FA PUSH2 0x899 JUMP JUMPDEST JUMPDEST PUSH1 0x1 DUP6 AND ISZERO PUSH2 0x90A JUMPI DUP1 DUP3 MUL SWAP2 POP JUMPDEST DUP1 DUP2 MUL SWAP1 POP PUSH2 0x918 DUP6 PUSH2 0x8C8 JUMP JUMPDEST SWAP5 POP PUSH2 0x8DF JUMP JUMPDEST SWAP5 POP SWAP5 SWAP3 POP POP POP JUMP JUMPDEST PUSH1 0x0 DUP3 PUSH2 0x938 JUMPI PUSH1 0x1 SWAP1 POP PUSH2 0x9F4 JUMP JUMPDEST DUP2 PUSH2 0x946 JUMPI PUSH1 0x0 SWAP1 POP PUSH2 0x9F4 JUMP JUMPDEST DUP2 PUSH1 0x1 DUP2 EQ PUSH2 0x95C JUMPI PUSH1 0x2 DUP2 EQ PUSH2 0x966 JUMPI PUSH2 0x995 JUMP JUMPDEST PUSH1 0x1 SWAP2 POP POP PUSH2 0x9F4 JUMP JUMPDEST PUSH1 0xFF DUP5 GT ISZERO PUSH2 0x978 JUMPI PUSH2 0x977 PUSH2 0x899 JUMP JUMPDEST JUMPDEST DUP4 PUSH1 0x2 EXP SWAP2 POP DUP5 DUP3 GT ISZERO PUSH2 0x98F JUMPI PUSH2 0x98E PUSH2 0x899 JUMP JUMPDEST JUMPDEST POP PUSH2 0x9F4 JUMP JUMPDEST POP PUSH1 0x20 DUP4 LT PUSH2 0x133 DUP4 LT AND PUSH1 0x4E DUP5 LT PUSH1 0xB DUP5 LT AND OR ISZERO PUSH2 0x9CA JUMPI DUP3 DUP3 EXP SWAP1 POP DUP4 DUP2 GT ISZERO PUSH2 0x9C5 JUMPI PUSH2 0x9C4 PUSH2 0x899 JUMP JUMPDEST JUMPDEST PUSH2 0x9F4 JUMP JUMPDEST PUSH2 0x9D7 DUP5 DUP5 DUP5 PUSH1 0x1 PUSH2 0x8D5 JUMP JUMPDEST SWAP3 POP SWAP1 POP DUP2 DUP5 DIV DUP2 GT ISZERO PUSH2 0x9EE JUMPI PUSH2 0x9ED PUSH2 0x899 JUMP JUMPDEST JUMPDEST DUP2 DUP2 MUL SWAP1 POP JUMPDEST SWAP4 SWAP3 POP POP POP JUMP JUMPDEST PUSH1 0x0 PUSH2 0xA06 DUP3 PUSH2 0x6C6 JUMP JUMPDEST SWAP2 POP PUSH2 0xA11 DUP4 PUSH2 0x6C6 JUMP JUMPDEST SWAP3 POP PUSH2 0xA3E PUSH32 0xFFFFFFFFFFFFFFFFFFFFFFFFFFFFFFFFFFFFFFFFFFFFFFFFFFFFFFFFFFFFFFFF DUP5 DUP5 PUSH2 0x928 JUMP JUMPDEST SWAP1 POP SWAP3 SWAP2 POP POP JUMP JUMPDEST PUSH1 0x0 PUSH2 0xA51 DUP3 PUSH2 0x6C6 JUMP JUMPDEST SWAP2 POP PUSH2 0xA5C DUP4 PUSH2 0x6C6 JUMP JUMPDEST SWAP3 POP DUP3 DUP3 MUL PUSH2 0xA6A DUP2 PUSH2 0x6C6 JUMP JUMPDEST SWAP2 POP DUP3 DUP3 DIV DUP5 EQ DUP4 ISZERO OR PUSH2 0xA81 JUMPI PUSH2 0xA80 PUSH2 0x899 JUMP JUMPDEST JUMPDEST POP SWAP3 SWAP2 POP POP JUMP JUMPDEST PUSH1 0x0 PUSH2 0xA93 DUP3 PUSH2 0x6C6 JUMP JUMPDEST SWAP2 POP PUSH32 0xFFFFFFFFFFFFFFFFFFFFFFFFFFFFFFFFFFFFFFFFFFFFFFFFFFFFFFFFFFFFFFFF DUP3 SUB PUSH2 0xAC5 JUMPI PUSH2 0xAC4 PUSH2 0x899 JUMP JUMPDEST JUMPDEST PUSH1 0x1 DUP3 ADD SWAP1 POP SWAP2 SWAP1 POP JUMP JUMPDEST PUSH1 0x0 PUSH2 0xADB DUP3 PUSH2 0x6C6 JUMP JUMPDEST SWAP2 POP PUSH2 0xAE6 DUP4 PUSH2 0x6C6 JUMP JUMPDEST SWAP3 POP DUP3 DUP3 ADD SWAP1 POP DUP1 DUP3 GT ISZERO PUSH2 0xAFE JUMPI PUSH2 0xAFD PUSH2 0x899 JUMP JUMPDEST JUMPDEST SWAP3 SWAP2 POP POP JUMP JUMPDEST PUSH1 0x0 PUSH2 0xB0F DUP3 PUSH2 0x6C6 JUMP JUMPDEST SWAP2 POP PUSH2 0xB1A DUP4 PUSH2 0x6C6 JUMP JUMPDEST SWAP3 POP DUP3 PUSH2 0xB2A JUMPI PUSH2 0xB29 PUSH2 0x839 JUMP JUMPDEST JUMPDEST DUP3 DUP3 DIV SWAP1 POP SWAP3 SWAP2 POP POP JUMP JUMPDEST PUSH1 0x0 PUSH2 0xB40 DUP3 PUSH2 0x3F5 JUMP JUMPDEST SWAP2 POP PUSH32 0x7FFFFFFFFFFFFFFFFFFFFFFFFFFFFFFFFFFFFFFFFFFFFFFFFFFFFFFFFFFFFFFF DUP3 SUB PUSH2 0xB72 JUMPI PUSH2 0xB71 PUSH2 0x899 JUMP JUMPDEST JUMPDEST PUSH1 0x1 DUP3 ADD SWAP1 POP SWAP2 SWAP1 POP JUMP INVALID LOG2 PUSH5 0x6970667358 0x22 SLT KECCAK256 GAS DUP13 0xEA 0xF9 0xCB LOG3 SWAP10 0x4D 0xC4 PUSH19 0xAC2C3248A180C105C539BEFCC6F10FFFEBA69 0xDC 0x4C XOR PUSH5 0x736F6C6343 STOP ADDMOD GT STOP CALLER "
		},
		"gasEstimates": {
			"creation": {
				"codeDepositCost": "599000",
				"executionCost": "44844",
				"totalCost": "643844"
			},
			"external": {
				"a()": "2430",
				"amstrong(string)": "infinite",
				"avg(uint256,uint256,uint256)": "infinite",
				"b()": "2496",
				"cube(uint256)": "infinite",
				"expo(uint256,uint256)": "infinite",
				"factorial(uint256)": "infinite",
				"greater(int256,int256,int256)": "infinite",
				"oddOrEven(int256)": "infinite",
				"prime(int256)": "infinite",
				"swap()": "48588"
			}
		},
		"methodIdentifiers": {
			"a()": "0dbe671f",
			"amstrong(string)": "1997c350",
			"avg(uint256,uint256,uint256)": "92cc2841",
			"b()": "4df7e3d0",
			"cube(uint256)": "f4bf03c7",
			"expo(uint256,uint256)": "4f4752ba",
			"factorial(uint256)": "83714834",
			"greater(int256,int256,int256)": "d9ea8e64",
			"oddOrEven(int256)": "46439726",
			"prime(int256)": "f492c000",
			"swap()": "8119c065"
		}
	},
	"abi": [
		{
			"inputs": [],
			"name": "a",
			"outputs": [
				{
					"internalType": "int256",
					"name": "",
					"type": "int256"
				}
			],
			"stateMutability": "view",
			"type": "function"
		},
		{
			"inputs": [
				{
					"internalType": "string",
					"name": "str12",
					"type": "string"
				}
			],
			"name": "amstrong",
			"outputs": [
				{
					"internalType": "string",
					"name": "",
					"type": "string"
				}
			],
			"stateMutability": "pure",
			"type": "function"
		},
		{
			"inputs": [
				{
					"internalType": "uint256",
					"name": "num1",
					"type": "uint256"
				},
				{
					"internalType": "uint256",
					"name": "num2",
					"type": "uint256"
				},
				{
					"internalType": "uint256",
					"name": "num3",
					"type": "uint256"
				}
			],
			"name": "avg",
			"outputs": [
				{
					"internalType": "uint256",
					"name": "",
					"type": "uint256"
				}
			],
			"stateMutability": "pure",
			"type": "function"
		},
		{
			"inputs": [],
			"name": "b",
			"outputs": [
				{
					"internalType": "int256",
					"name": "",
					"type": "int256"
				}
			],
			"stateMutability": "view",
			"type": "function"
		},
		{
			"inputs": [
				{
					"internalType": "uint256",
					"name": "num",
					"type": "uint256"
				}
			],
			"name": "cube",
			"outputs": [
				{
					"internalType": "uint256",
					"name": "",
					"type": "uint256"
				}
			],
			"stateMutability": "pure",
			"type": "function"
		},
		{
			"inputs": [
				{
					"internalType": "uint256",
					"name": "x",
					"type": "uint256"
				},
				{
					"internalType": "uint256",
					"name": "y",
					"type": "uint256"
				}
			],
			"name": "expo",
			"outputs": [
				{
					"internalType": "uint256",
					"name": "",
					"type": "uint256"
				}
			],
			"stateMutability": "pure",
			"type": "function"
		},
		{
			"inputs": [
				{
					"internalType": "uint256",
					"name": "num",
					"type": "uint256"
				}
			],
			"name": "factorial",
			"outputs": [
				{
					"internalType": "uint256",
					"name": "",
					"type": "uint256"
				}
			],
			"stateMutability": "pure",
			"type": "function"
		},
		{
			"inputs": [
				{
					"internalType": "int256",
					"name": "num1",
					"type": "int256"
				},
				{
					"internalType": "int256",
					"name": "num2",
					"type": "int256"
				},
				{
					"internalType": "int256",
					"name": "num3",
					"type": "int256"
				}
			],
			"name": "greater",
			"outputs": [
				{
					"internalType": "int256",
					"name": "",
					"type": "int256"
				}
			],
			"stateMutability": "pure",
			"type": "function"
		},
		{
			"inputs": [
				{
					"internalType": "int256",
					"name": "num",
					"type": "int256"
				}
			],
			"name": "oddOrEven",
			"outputs": [
				{
					"internalType": "uint256",
					"name": "",
					"type": "uint256"
				}
			],
			"stateMutability": "pure",
			"type": "function"
		},
		{
			"inputs": [
				{
					"internalType": "int256",
					"name": "num",
					"type": "int256"
				}
			],
			"name": "prime",
			"outputs": [
				{
					"internalType": "int256",
					"name": "",
					"type": "int256"
				}
			],
			"stateMutability": "pure",
			"type": "function"
		},
		{
			"inputs": [],
			"name": "swap",
			"outputs": [],
			"stateMutability": "nonpayable",
			"type": "function"
		}
	]
}